{
  "contractName": "HolderUniswapV2",
  "abi": [
    {
      "anonymous": false,
      "inputs": [
        {
          "indexed": true,
          "internalType": "bytes32",
          "name": "role",
          "type": "bytes32"
        },
        {
          "indexed": true,
          "internalType": "bytes32",
          "name": "previousAdminRole",
          "type": "bytes32"
        },
        {
          "indexed": true,
          "internalType": "bytes32",
          "name": "newAdminRole",
          "type": "bytes32"
        }
      ],
      "name": "RoleAdminChanged",
      "type": "event"
    },
    {
      "anonymous": false,
      "inputs": [
        {
          "indexed": true,
          "internalType": "bytes32",
          "name": "role",
          "type": "bytes32"
        },
        {
          "indexed": true,
          "internalType": "address",
          "name": "account",
          "type": "address"
        },
        {
          "indexed": true,
          "internalType": "address",
          "name": "sender",
          "type": "address"
        }
      ],
      "name": "RoleGranted",
      "type": "event"
    },
    {
      "anonymous": false,
      "inputs": [
        {
          "indexed": true,
          "internalType": "bytes32",
          "name": "role",
          "type": "bytes32"
        },
        {
          "indexed": true,
          "internalType": "address",
          "name": "account",
          "type": "address"
        },
        {
          "indexed": true,
          "internalType": "address",
          "name": "sender",
          "type": "address"
        }
      ],
      "name": "RoleRevoked",
      "type": "event"
    },
    {
      "anonymous": false,
      "inputs": [
        {
          "indexed": true,
          "internalType": "address",
          "name": "_contract",
          "type": "address"
        }
      ],
      "name": "SetSTokensContract",
      "type": "event"
    },
    {
      "anonymous": false,
      "inputs": [
        {
          "indexed": true,
          "internalType": "address",
          "name": "_contract",
          "type": "address"
        }
      ],
      "name": "SetStakeLPContract",
      "type": "event"
    },
    {
      "inputs": [],
      "name": "DEFAULT_ADMIN_ROLE",
      "outputs": [
        {
          "internalType": "bytes32",
          "name": "",
          "type": "bytes32"
        }
      ],
      "stateMutability": "view",
      "type": "function"
    },
    {
      "inputs": [],
      "name": "_sTokens",
      "outputs": [
        {
          "internalType": "contract ISTokensV2",
          "name": "",
          "type": "address"
        }
      ],
      "stateMutability": "view",
      "type": "function"
    },
    {
      "inputs": [],
      "name": "_stakeLPContract",
      "outputs": [
        {
          "internalType": "address",
          "name": "",
          "type": "address"
        }
      ],
      "stateMutability": "view",
      "type": "function"
    },
    {
      "inputs": [
        {
          "internalType": "bytes32",
          "name": "role",
          "type": "bytes32"
        }
      ],
      "name": "getRoleAdmin",
      "outputs": [
        {
          "internalType": "bytes32",
          "name": "",
          "type": "bytes32"
        }
      ],
      "stateMutability": "view",
      "type": "function"
    },
    {
      "inputs": [
        {
          "internalType": "bytes32",
          "name": "role",
          "type": "bytes32"
        },
        {
          "internalType": "uint256",
          "name": "index",
          "type": "uint256"
        }
      ],
      "name": "getRoleMember",
      "outputs": [
        {
          "internalType": "address",
          "name": "",
          "type": "address"
        }
      ],
      "stateMutability": "view",
      "type": "function"
    },
    {
      "inputs": [
        {
          "internalType": "bytes32",
          "name": "role",
          "type": "bytes32"
        }
      ],
      "name": "getRoleMemberCount",
      "outputs": [
        {
          "internalType": "uint256",
          "name": "",
          "type": "uint256"
        }
      ],
      "stateMutability": "view",
      "type": "function"
    },
    {
      "inputs": [
        {
          "internalType": "bytes32",
          "name": "role",
          "type": "bytes32"
        },
        {
          "internalType": "address",
          "name": "account",
          "type": "address"
        }
      ],
      "name": "grantRole",
      "outputs": [],
      "stateMutability": "nonpayable",
      "type": "function"
    },
    {
      "inputs": [
        {
          "internalType": "bytes32",
          "name": "role",
          "type": "bytes32"
        },
        {
          "internalType": "address",
          "name": "account",
          "type": "address"
        }
      ],
      "name": "hasRole",
      "outputs": [
        {
          "internalType": "bool",
          "name": "",
          "type": "bool"
        }
      ],
      "stateMutability": "view",
      "type": "function"
    },
    {
      "inputs": [
        {
          "internalType": "bytes32",
          "name": "role",
          "type": "bytes32"
        },
        {
          "internalType": "address",
          "name": "account",
          "type": "address"
        }
      ],
      "name": "renounceRole",
      "outputs": [],
      "stateMutability": "nonpayable",
      "type": "function"
    },
    {
      "inputs": [
        {
          "internalType": "bytes32",
          "name": "role",
          "type": "bytes32"
        },
        {
          "internalType": "address",
          "name": "account",
          "type": "address"
        }
      ],
      "name": "revokeRole",
      "outputs": [],
      "stateMutability": "nonpayable",
      "type": "function"
    },
    {
      "inputs": [
        {
          "internalType": "address",
          "name": "sTokenContract",
          "type": "address"
        },
        {
          "internalType": "address",
          "name": "stakeLPContract",
          "type": "address"
        }
      ],
      "name": "initialize",
      "outputs": [],
      "stateMutability": "nonpayable",
      "type": "function"
    },
    {
      "inputs": [
        {
          "internalType": "address",
          "name": "to",
          "type": "address"
        }
      ],
      "name": "getSTokenSupply",
      "outputs": [
        {
          "internalType": "uint256",
          "name": "sTokenSupply",
          "type": "uint256"
        }
      ],
      "stateMutability": "view",
      "type": "function"
    },
    {
      "inputs": [
        {
          "internalType": "address",
          "name": "sAddress",
          "type": "address"
        }
      ],
      "name": "setSTokensContract",
      "outputs": [],
      "stateMutability": "nonpayable",
      "type": "function"
    },
    {
      "inputs": [
        {
          "internalType": "address",
          "name": "stakeLPContract",
          "type": "address"
        }
      ],
      "name": "setStakeLPContract",
      "outputs": [],
      "stateMutability": "nonpayable",
      "type": "function"
    },
    {
      "inputs": [
        {
          "internalType": "address",
          "name": "token",
          "type": "address"
        },
        {
          "internalType": "address",
          "name": "to",
          "type": "address"
        },
        {
          "internalType": "uint256",
          "name": "value",
          "type": "uint256"
        }
      ],
      "name": "safeTransfer",
      "outputs": [],
      "stateMutability": "nonpayable",
      "type": "function"
    },
    {
      "inputs": [
        {
          "internalType": "address",
          "name": "token",
          "type": "address"
        },
        {
          "internalType": "address",
          "name": "from",
          "type": "address"
        },
        {
          "internalType": "address",
          "name": "to",
          "type": "address"
        },
        {
          "internalType": "uint256",
          "name": "value",
          "type": "uint256"
        }
      ],
      "name": "safeTransferFrom",
      "outputs": [],
      "stateMutability": "nonpayable",
      "type": "function"
    }
  ],
  "bytecode": "0x608060405234801561001057600080fd5b506110c8806100206000396000f3fe608060405234801561001057600080fd5b50600436106101005760003560e01c8063a217fddf11610097578063d547741f11610066578063d547741f146102ea578063d79cf55a14610316578063d9fc4b611461031e578063f5560db01461035a57610100565b8063a217fddf14610269578063ca15c87314610271578063cf3d5d0d1461028e578063d1660f99146102b457610100565b806336568abe116100d357806336568abe146101ac578063485cc955146101d85780639010d07c1461020657806391d148541461022957610100565b8063187dbc6c14610105578063248a9ca3146101295780632e31fab8146101585780632f2ff15d14610180575b600080fd5b61010d610380565b604080516001600160a01b039092168252519081900360200190f35b6101466004803603602081101561013f57600080fd5b503561038f565b60408051918252519081900360200190f35b61017e6004803603602081101561016e57600080fd5b50356001600160a01b03166103a4565b005b61017e6004803603604081101561019657600080fd5b50803590602001356001600160a01b0316610437565b61017e600480360360408110156101c257600080fd5b50803590602001356001600160a01b031661049e565b61017e600480360360408110156101ee57600080fd5b506001600160a01b03813581169160200135166104ff565b61010d6004803603604081101561021c57600080fd5b50803590602001356105ed565b6102556004803603604081101561023f57600080fd5b50803590602001356001600160a01b031661060e565b604080519115158252519081900360200190f35b610146610626565b6101466004803603602081101561028757600080fd5b503561062b565b61017e600480360360208110156102a457600080fd5b50356001600160a01b0316610642565b61017e600480360360608110156102ca57600080fd5b506001600160a01b038135811691602081013590911690604001356106d0565b61017e6004803603604081101561030057600080fd5b50803590602001356001600160a01b0316610730565b61010d610789565b61017e6004803603608081101561033457600080fd5b506001600160a01b03813581169160208101358216916040820135169060600135610798565b6101466004803603602081101561037057600080fd5b50356001600160a01b03166107ff565b6065546001600160a01b031681565b60009081526033602052604090206002015490565b6103b660006103b1610882565b61060e565b6103ed576040805162461bcd60e51b815260206004820152600360248201526248553160e81b604482015290519081900360640190fd5b606680546001600160a01b0319166001600160a01b0383169081179091556040517fd0b9dbe26f676f4cdb02fc249c203baa0314cec79e18b4194dc862795a5de03f90600090a250565b600082815260336020526040902060020154610455906103b1610882565b6104905760405162461bcd60e51b815260040180806020018281038252602f815260200180610f79602f913960400191505060405180910390fd5b61049a8282610886565b5050565b6104a6610882565b6001600160a01b0316816001600160a01b0316146104f55760405162461bcd60e51b815260040180806020018281038252602f815260200180611064602f913960400191505060405180910390fd5b61049a82826108ef565b600054610100900460ff16806105185750610518610958565b80610526575060005460ff16155b6105615760405162461bcd60e51b815260040180806020018281038252602e815260200180611009602e913960400191505060405180910390fd5b600054610100900460ff1615801561058c576000805460ff1961ff0019909116610100171660011790555b610594610969565b6105a660006105a1610882565b610490565b606680546001600160a01b038086166001600160a01b031992831617909255606580549285169290911691909117905580156105e8576000805461ff00191690555b505050565b60008281526033602052604081206106059083610a1b565b90505b92915050565b60008281526033602052604081206106059083610a27565b600081565b600081815260336020526040812061060890610a3c565b61064f60006103b1610882565b610686576040805162461bcd60e51b8152602060048201526003602482015262242a9960e91b604482015290519081900360640190fd5b606580546001600160a01b0319166001600160a01b0383169081179091556040517fb2daebf9d5b97a85402c93016ccc68273e707a32f016448d8a1bb7d066d1281590600090a250565b6065546001600160a01b03166106e4610882565b6001600160a01b031614610725576040805162461bcd60e51b815260206004820152600360248201526248553360e81b604482015290519081900360640190fd5b6105e8838383610a47565b60008281526033602052604090206002015461074e906103b1610882565b6104f55760405162461bcd60e51b8152600401808060200182810382526030815260200180610fd96030913960400191505060405180910390fd5b6066546001600160a01b031681565b6065546001600160a01b03166107ac610882565b6001600160a01b0316146107ed576040805162461bcd60e51b815260206004820152600360248201526212154d60ea1b604482015290519081900360640190fd5b6107f984848484610b9a565b50505050565b606654604080516370a0823160e01b81526001600160a01b038481166004830152915160009392909216916370a0823191602480820192602092909190829003018186803b15801561085057600080fd5b505afa158015610864573d6000803e3d6000fd5b505050506040513d602081101561087a57600080fd5b505192915050565b3390565b600082815260336020526040902061089e9082610cf6565b1561049a576108ab610882565b6001600160a01b0316816001600160a01b0316837f2f8788117e7eff1d82e926ec794901d17c78024a50270940304540a733656f0d60405160405180910390a45050565b60008281526033602052604090206109079082610d0b565b1561049a57610914610882565b6001600160a01b0316816001600160a01b0316837ff6391f5c32d9c69d2a47ea670b442974b53935d1edc7fd64eb21e047a839171b60405160405180910390a45050565b600061096330610d20565b15905090565b600054610100900460ff16806109825750610982610958565b80610990575060005460ff16155b6109cb5760405162461bcd60e51b815260040180806020018281038252602e815260200180611009602e913960400191505060405180910390fd5b600054610100900460ff161580156109f6576000805460ff1961ff0019909116610100171660011790555b6109fe610d26565b610a06610d26565b8015610a18576000805461ff00191690555b50565b60006106058383610dc6565b6000610605836001600160a01b038416610e2a565b600061060882610e42565b604080516001600160a01b038481166024830152604480830185905283518084039091018152606490920183526020820180516001600160e01b031663a9059cbb60e01b1781529251825160009485949389169392918291908083835b60208310610ac35780518252601f199092019160209182019101610aa4565b6001836020036101000a0380198251168184511680821785525050505050509050019150506000604051808303816000865af19150503d8060008114610b25576040519150601f19603f3d011682016040523d82523d6000602084013e610b2a565b606091505b5091509150818015610b58575080511580610b585750808060200190516020811015610b5557600080fd5b50515b610b935760405162461bcd60e51b815260040180806020018281038252602d815260200180611037602d913960400191505060405180910390fd5b5050505050565b604080516001600160a01b0385811660248301528481166044830152606480830185905283518084039091018152608490920183526020820180516001600160e01b03166323b872dd60e01b178152925182516000948594938a169392918291908083835b60208310610c1e5780518252601f199092019160209182019101610bff565b6001836020036101000a0380198251168184511680821785525050505050509050019150506000604051808303816000865af19150503d8060008114610c80576040519150601f19603f3d011682016040523d82523d6000602084013e610c85565b606091505b5091509150818015610cb3575080511580610cb35750808060200190516020811015610cb057600080fd5b50515b610cee5760405162461bcd60e51b8152600401808060200182810382526031815260200180610fa86031913960400191505060405180910390fd5b505050505050565b6000610605836001600160a01b038416610e46565b6000610605836001600160a01b038416610e90565b3b151590565b600054610100900460ff1680610d3f5750610d3f610958565b80610d4d575060005460ff16155b610d885760405162461bcd60e51b815260040180806020018281038252602e815260200180611009602e913960400191505060405180910390fd5b600054610100900460ff16158015610a06576000805460ff1961ff0019909116610100171660011790558015610a18576000805461ff001916905550565b81546000908210610e085760405162461bcd60e51b8152600401808060200182810382526022815260200180610f576022913960400191505060405180910390fd5b826000018281548110610e1757fe5b9060005260206000200154905092915050565b60009081526001919091016020526040902054151590565b5490565b6000610e528383610e2a565b610e8857508154600181810184556000848152602080822090930184905584548482528286019093526040902091909155610608565b506000610608565b60008181526001830160205260408120548015610f4c5783546000198083019190810190600090879083908110610ec357fe5b9060005260206000200154905080876000018481548110610ee057fe5b600091825260208083209091019290925582815260018981019092526040902090840190558654879080610f1057fe5b60019003818190600052602060002001600090559055866001016000878152602001908152602001600020600090556001945050505050610608565b600091505061060856fe456e756d657261626c655365743a20696e646578206f7574206f6620626f756e6473416363657373436f6e74726f6c3a2073656e646572206d75737420626520616e2061646d696e20746f206772616e745472616e7366657248656c7065723a3a7472616e7366657246726f6d3a207472616e7366657246726f6d206661696c6564416363657373436f6e74726f6c3a2073656e646572206d75737420626520616e2061646d696e20746f207265766f6b65496e697469616c697a61626c653a20636f6e747261637420697320616c726561647920696e697469616c697a65645472616e7366657248656c7065723a3a736166655472616e736665723a207472616e73666572206661696c6564416363657373436f6e74726f6c3a2063616e206f6e6c792072656e6f756e636520726f6c657320666f722073656c66a264697066735822122083d133a72a09708999cbb0402a63d547b78297bbe96ff25cf4aa939a178f630064736f6c63430007060033",
  "immutableReferences": {},
  "source": "// SPDX-License-Identifier: UNLICENSED\npragma solidity >=0.7.0;\n\nimport \"../interfaces/IHolderV2.sol\";\nimport \"../interfaces/ISTokensV2.sol\";\nimport \"@openzeppelin/contracts-upgradeable/access/AccessControlUpgradeable.sol\";\nimport \"@openzeppelin/contracts-upgradeable/proxy/Initializable.sol\";\nimport \"../libraries/TransferHelper.sol\";\n\ncontract HolderUniswapV2 is IHolderV2, Initializable, AccessControlUpgradeable {\n\t// variables capturing data of other contracts in the product\n\taddress public _stakeLPContract;\n\tISTokensV2 public _sTokens;\n\n\t// variable pertaining to contract upgrades versioning\n\tuint256 private _version;\n\n\t/**\n\t * @dev Constructor for initializing the Holder Uniswap contract.\n\t * @param sTokenContract - address of the SToken contract.\n\t * @param stakeLPContract - address of the StakeLPCore contract.\n\t */\n\tfunction initialize(address sTokenContract, address stakeLPContract)\n\t\tpublic\n\t\tvirtual\n\t\tinitializer\n\t{\n\t\t__AccessControl_init();\n\t\t_setupRole(DEFAULT_ADMIN_ROLE, _msgSender());\n\t\t_sTokens = ISTokensV2(sTokenContract);\n\t\t_stakeLPContract = stakeLPContract;\n\t}\n\n\t/**\n\t * @dev get SToken reserve supply of the whitelisted contract\n\t * argument names commented to suppress warnings\n\t */\n\tfunction getSTokenSupply(address to)\n\t\tpublic\n\t\tview\n\t\tvirtual\n\t\toverride\n\t\treturns (uint256 sTokenSupply)\n\t{\n\t\tsTokenSupply = _sTokens.balanceOf(to);\n\t\treturn sTokenSupply;\n\t}\n\n\t/**\n\t * @dev Set 'contract address', called from constructor\n\t * @param sAddress: stoken contract address\n\t *\n\t * Emits a {SetSTokensContract} event with '_contract' set to the stoken contract address.\n\t *\n\t */\n\tfunction setSTokensContract(address sAddress) public virtual override {\n\t\trequire(hasRole(DEFAULT_ADMIN_ROLE, _msgSender()), \"HU1\");\n\t\t_sTokens = ISTokensV2(sAddress);\n\t\temit SetSTokensContract(sAddress);\n\t}\n\n\t/*\n\t * @dev Set 'contract address', called from constructor\n\t * @param liquidStakingContract: liquidStaking contract address\n\t *\n\t * Emits a {SetLiquidStakingContract} event with '_contract' set to the liquidStaking contract address.\n\t *\n\t */\n\tfunction setStakeLPContract(address stakeLPContract)\n\t\tpublic\n\t\tvirtual\n\t\toverride\n\t{\n\t\trequire(hasRole(DEFAULT_ADMIN_ROLE, _msgSender()), \"HU2\");\n\t\t_stakeLPContract = stakeLPContract;\n\t\temit SetStakeLPContract(stakeLPContract);\n\t}\n\n\tfunction safeTransfer(\n\t\taddress token,\n\t\taddress to,\n\t\tuint256 value\n\t) public virtual override {\n\t\trequire(_msgSender() == _stakeLPContract, \"HU3\");\n\n\t\t// finally transfer the new LP Tokens to the user address\n\t\tTransferHelper.safeTransfer(token, to, value);\n\t}\n\n\tfunction safeTransferFrom(\n\t\taddress token,\n\t\taddress from,\n\t\taddress to,\n\t\tuint256 value\n\t) public virtual override {\n\t\trequire(_msgSender() == _stakeLPContract, \"HU4\");\n\n\t\t// finally transfer the new LP Tokens to the user address\n\t\tTransferHelper.safeTransferFrom(token, from, to, value);\n\t}\n}\n",
  "sourcePath": "C:\\Users\\Kamlesh\\Persistence\\pStake\\codebase\\pStake-smartContracts\\contracts\\holder\\HolderUniswapV2.sol",
  "compiler": {
    "name": "solc",
    "version": "0.7.6+commit.7338295f.Emscripten.clang"
  },
  "schemaVersion": "3.4.3",
  "updatedAt": "2021-09-09T12:30:57.691Z",
  "devdoc": {
    "kind": "dev",
    "methods": {
      "getRoleAdmin(bytes32)": {
        "details": "Returns the admin role that controls `role`. See {grantRole} and {revokeRole}. To change a role's admin, use {_setRoleAdmin}."
      },
      "getRoleMember(bytes32,uint256)": {
        "details": "Returns one of the accounts that have `role`. `index` must be a value between 0 and {getRoleMemberCount}, non-inclusive. Role bearers are not sorted in any particular way, and their ordering may change at any point. WARNING: When using {getRoleMember} and {getRoleMemberCount}, make sure you perform all queries on the same block. See the following https://forum.openzeppelin.com/t/iterating-over-elements-on-enumerableset-in-openzeppelin-contracts/2296[forum post] for more information."
      },
      "getRoleMemberCount(bytes32)": {
        "details": "Returns the number of accounts that have `role`. Can be used together with {getRoleMember} to enumerate all bearers of a role."
      },
      "getSTokenSupply(address)": {
        "details": "get SToken reserve supply of the whitelisted contract argument names commented to suppress warnings"
      },
      "grantRole(bytes32,address)": {
        "details": "Grants `role` to `account`. If `account` had not been already granted `role`, emits a {RoleGranted} event. Requirements: - the caller must have ``role``'s admin role."
      },
      "hasRole(bytes32,address)": {
        "details": "Returns `true` if `account` has been granted `role`."
      },
      "initialize(address,address)": {
        "details": "Constructor for initializing the Holder Uniswap contract.",
        "params": {
          "sTokenContract": "- address of the SToken contract.",
          "stakeLPContract": "- address of the StakeLPCore contract."
        }
      },
      "renounceRole(bytes32,address)": {
        "details": "Revokes `role` from the calling account. Roles are often managed via {grantRole} and {revokeRole}: this function's purpose is to provide a mechanism for accounts to lose their privileges if they are compromised (such as when a trusted device is misplaced). If the calling account had been granted `role`, emits a {RoleRevoked} event. Requirements: - the caller must be `account`."
      },
      "revokeRole(bytes32,address)": {
        "details": "Revokes `role` from `account`. If `account` had been granted `role`, emits a {RoleRevoked} event. Requirements: - the caller must have ``role``'s admin role."
      },
      "safeTransfer(address,address,uint256)": {
        "details": "Set UTokens smart contract. Emits a {SetSTokensContract} event."
      },
      "safeTransferFrom(address,address,address,uint256)": {
        "details": "Set UTokens smart contract. Emits a {SetSTokensContract} event."
      },
      "setSTokensContract(address)": {
        "details": "Set 'contract address', called from constructor",
        "params": {
          "sAddress": ": stoken contract address Emits a {SetSTokensContract} event with '_contract' set to the stoken contract address."
        }
      },
      "setStakeLPContract(address)": {
        "details": "Set UTokens smart contract. Emits a {SetSTokensContract} event."
      }
    },
    "version": 1
  },
  "userdoc": {
    "kind": "user",
    "methods": {},
    "version": 1
  }
}