{
  "contractName": "HolderUniswapV2",
  "abi": [
    {
      "anonymous": false,
      "inputs": [
        {
          "indexed": true,
          "internalType": "bytes32",
          "name": "role",
          "type": "bytes32"
        },
        {
          "indexed": true,
          "internalType": "bytes32",
          "name": "previousAdminRole",
          "type": "bytes32"
        },
        {
          "indexed": true,
          "internalType": "bytes32",
          "name": "newAdminRole",
          "type": "bytes32"
        }
      ],
      "name": "RoleAdminChanged",
      "type": "event"
    },
    {
      "anonymous": false,
      "inputs": [
        {
          "indexed": true,
          "internalType": "bytes32",
          "name": "role",
          "type": "bytes32"
        },
        {
          "indexed": true,
          "internalType": "address",
          "name": "account",
          "type": "address"
        },
        {
          "indexed": true,
          "internalType": "address",
          "name": "sender",
          "type": "address"
        }
      ],
      "name": "RoleGranted",
      "type": "event"
    },
    {
      "anonymous": false,
      "inputs": [
        {
          "indexed": true,
          "internalType": "bytes32",
          "name": "role",
          "type": "bytes32"
        },
        {
          "indexed": true,
          "internalType": "address",
          "name": "account",
          "type": "address"
        },
        {
          "indexed": true,
          "internalType": "address",
          "name": "sender",
          "type": "address"
        }
      ],
      "name": "RoleRevoked",
      "type": "event"
    },
    {
      "anonymous": false,
      "inputs": [
        {
          "indexed": true,
          "internalType": "address",
          "name": "_contract",
          "type": "address"
        }
      ],
      "name": "SetSTokensContract",
      "type": "event"
    },
    {
      "anonymous": false,
      "inputs": [
        {
          "indexed": true,
          "internalType": "address",
          "name": "_contract",
          "type": "address"
        }
      ],
      "name": "SetStakeLPContract",
      "type": "event"
    },
    {
      "inputs": [],
      "name": "DEFAULT_ADMIN_ROLE",
      "outputs": [
        {
          "internalType": "bytes32",
          "name": "",
          "type": "bytes32"
        }
      ],
      "stateMutability": "view",
      "type": "function"
    },
    {
      "inputs": [],
      "name": "_sTokens",
      "outputs": [
        {
          "internalType": "contract ISTokens",
          "name": "",
          "type": "address"
        }
      ],
      "stateMutability": "view",
      "type": "function"
    },
    {
      "inputs": [],
      "name": "_stakeLPContract",
      "outputs": [
        {
          "internalType": "address",
          "name": "",
          "type": "address"
        }
      ],
      "stateMutability": "view",
      "type": "function"
    },
    {
      "inputs": [
        {
          "internalType": "bytes32",
          "name": "role",
          "type": "bytes32"
        }
      ],
      "name": "getRoleAdmin",
      "outputs": [
        {
          "internalType": "bytes32",
          "name": "",
          "type": "bytes32"
        }
      ],
      "stateMutability": "view",
      "type": "function"
    },
    {
      "inputs": [
        {
          "internalType": "bytes32",
          "name": "role",
          "type": "bytes32"
        },
        {
          "internalType": "uint256",
          "name": "index",
          "type": "uint256"
        }
      ],
      "name": "getRoleMember",
      "outputs": [
        {
          "internalType": "address",
          "name": "",
          "type": "address"
        }
      ],
      "stateMutability": "view",
      "type": "function"
    },
    {
      "inputs": [
        {
          "internalType": "bytes32",
          "name": "role",
          "type": "bytes32"
        }
      ],
      "name": "getRoleMemberCount",
      "outputs": [
        {
          "internalType": "uint256",
          "name": "",
          "type": "uint256"
        }
      ],
      "stateMutability": "view",
      "type": "function"
    },
    {
      "inputs": [
        {
          "internalType": "bytes32",
          "name": "role",
          "type": "bytes32"
        },
        {
          "internalType": "address",
          "name": "account",
          "type": "address"
        }
      ],
      "name": "grantRole",
      "outputs": [],
      "stateMutability": "nonpayable",
      "type": "function"
    },
    {
      "inputs": [
        {
          "internalType": "bytes32",
          "name": "role",
          "type": "bytes32"
        },
        {
          "internalType": "address",
          "name": "account",
          "type": "address"
        }
      ],
      "name": "hasRole",
      "outputs": [
        {
          "internalType": "bool",
          "name": "",
          "type": "bool"
        }
      ],
      "stateMutability": "view",
      "type": "function"
    },
    {
      "inputs": [
        {
          "internalType": "bytes32",
          "name": "role",
          "type": "bytes32"
        },
        {
          "internalType": "address",
          "name": "account",
          "type": "address"
        }
      ],
      "name": "renounceRole",
      "outputs": [],
      "stateMutability": "nonpayable",
      "type": "function"
    },
    {
      "inputs": [
        {
          "internalType": "bytes32",
          "name": "role",
          "type": "bytes32"
        },
        {
          "internalType": "address",
          "name": "account",
          "type": "address"
        }
      ],
      "name": "revokeRole",
      "outputs": [],
      "stateMutability": "nonpayable",
      "type": "function"
    },
    {
      "inputs": [
        {
          "internalType": "address",
          "name": "sTokenContract",
          "type": "address"
        },
        {
          "internalType": "address",
          "name": "stakeLPContract",
          "type": "address"
        }
      ],
      "name": "initialize",
      "outputs": [],
      "stateMutability": "nonpayable",
      "type": "function"
    },
    {
      "inputs": [
        {
          "internalType": "address",
          "name": "to",
          "type": "address"
        },
        {
          "internalType": "address",
          "name": "",
          "type": "address"
        },
        {
          "internalType": "uint256",
          "name": "",
          "type": "uint256"
        }
      ],
      "name": "getSTokenSupply",
      "outputs": [
        {
          "internalType": "uint256",
          "name": "sTokenSupply",
          "type": "uint256"
        }
      ],
      "stateMutability": "view",
      "type": "function"
    },
    {
      "inputs": [
        {
          "internalType": "address",
          "name": "sAddress",
          "type": "address"
        }
      ],
      "name": "setSTokensContract",
      "outputs": [],
      "stateMutability": "nonpayable",
      "type": "function"
    },
    {
      "inputs": [
        {
          "internalType": "address",
          "name": "stakeLPContract",
          "type": "address"
        }
      ],
      "name": "setStakeLPContract",
      "outputs": [],
      "stateMutability": "nonpayable",
      "type": "function"
    },
    {
      "inputs": [
        {
          "internalType": "address",
          "name": "token",
          "type": "address"
        },
        {
          "internalType": "address",
          "name": "to",
          "type": "address"
        },
        {
          "internalType": "uint256",
          "name": "value",
          "type": "uint256"
        }
      ],
      "name": "safeTransfer",
      "outputs": [],
      "stateMutability": "nonpayable",
      "type": "function"
    }
  ],
  "bytecode": "0x608060405234801561001057600080fd5b50610e9f806100206000396000f3fe608060405234801561001057600080fd5b50600436106100f55760003560e01c806391d1485411610097578063cfd0ec3111610066578063cfd0ec31146102a9578063d1660f99146102df578063d547741f14610315578063d79cf55a14610341576100f5565b806391d148541461021e578063a217fddf1461025e578063ca15c87314610266578063cf3d5d0d14610283576100f5565b80632f2ff15d116100d35780632f2ff15d1461017557806336568abe146101a1578063485cc955146101cd5780639010d07c146101fb576100f5565b8063187dbc6c146100fa578063248a9ca31461011e5780632e31fab81461014d575b600080fd5b610102610349565b604080516001600160a01b039092168252519081900360200190f35b61013b6004803603602081101561013457600080fd5b5035610358565b60408051918252519081900360200190f35b6101736004803603602081101561016357600080fd5b50356001600160a01b031661036d565b005b6101736004803603604081101561018b57600080fd5b50803590602001356001600160a01b0316610400565b610173600480360360408110156101b757600080fd5b50803590602001356001600160a01b0316610467565b610173600480360360408110156101e357600080fd5b506001600160a01b03813581169160200135166104c8565b6101026004803603604081101561021157600080fd5b50803590602001356105b6565b61024a6004803603604081101561023457600080fd5b50803590602001356001600160a01b03166105d7565b604080519115158252519081900360200190f35b61013b6105ef565b61013b6004803603602081101561027c57600080fd5b50356105f4565b6101736004803603602081101561029957600080fd5b50356001600160a01b031661060b565b61013b600480360360608110156102bf57600080fd5b506001600160a01b03813581169160208101359091169060400135610699565b610173600480360360608110156102f557600080fd5b506001600160a01b0381358116916020810135909116906040013561071e565b6101736004803603604081101561032b57600080fd5b50803590602001356001600160a01b031661077e565b6101026107d7565b6065546001600160a01b031681565b60009081526033602052604090206002015490565b61037f600061037a6107e6565b6105d7565b6103b6576040805162461bcd60e51b815260206004820152600360248201526248553160e81b604482015290519081900360640190fd5b606680546001600160a01b0319166001600160a01b0383169081179091556040517fd0b9dbe26f676f4cdb02fc249c203baa0314cec79e18b4194dc862795a5de03f90600090a250565b60008281526033602052604090206002015461041e9061037a6107e6565b6104595760405162461bcd60e51b815260040180806020018281038252602f815260200180610d81602f913960400191505060405180910390fd5b61046382826107ea565b5050565b61046f6107e6565b6001600160a01b0316816001600160a01b0316146104be5760405162461bcd60e51b815260040180806020018281038252602f815260200180610e3b602f913960400191505060405180910390fd5b6104638282610853565b600054610100900460ff16806104e157506104e16108bc565b806104ef575060005460ff16155b61052a5760405162461bcd60e51b815260040180806020018281038252602e815260200180610de0602e913960400191505060405180910390fd5b600054610100900460ff16158015610555576000805460ff1961ff0019909116610100171660011790555b61055d6108cd565b61056f600061056a6107e6565b610459565b606680546001600160a01b038086166001600160a01b031992831617909255606580549285169290911691909117905580156105b1576000805461ff00191690555b505050565b60008281526033602052604081206105ce908361097f565b90505b92915050565b60008281526033602052604081206105ce908361098b565b600081565b60008181526033602052604081206105d1906109a0565b610618600061037a6107e6565b61064f576040805162461bcd60e51b8152602060048201526003602482015262242a9960e91b604482015290519081900360640190fd5b606580546001600160a01b0319166001600160a01b0383169081179091556040517fb2daebf9d5b97a85402c93016ccc68273e707a32f016448d8a1bb7d066d1281590600090a250565b606654604080516370a0823160e01b81526001600160a01b038681166004830152915160009392909216916370a0823191602480820192602092909190829003018186803b1580156106ea57600080fd5b505afa1580156106fe573d6000803e3d6000fd5b505050506040513d602081101561071457600080fd5b5051949350505050565b6065546001600160a01b03166107326107e6565b6001600160a01b031614610773576040805162461bcd60e51b815260206004820152600360248201526248553360e81b604482015290519081900360640190fd5b6105b18383836109ab565b60008281526033602052604090206002015461079c9061037a6107e6565b6104be5760405162461bcd60e51b8152600401808060200182810382526030815260200180610db06030913960400191505060405180910390fd5b6066546001600160a01b031681565b3390565b60008281526033602052604090206108029082610afe565b156104635761080f6107e6565b6001600160a01b0316816001600160a01b0316837f2f8788117e7eff1d82e926ec794901d17c78024a50270940304540a733656f0d60405160405180910390a45050565b600082815260336020526040902061086b9082610b13565b15610463576108786107e6565b6001600160a01b0316816001600160a01b0316837ff6391f5c32d9c69d2a47ea670b442974b53935d1edc7fd64eb21e047a839171b60405160405180910390a45050565b60006108c730610b28565b15905090565b600054610100900460ff16806108e657506108e66108bc565b806108f4575060005460ff16155b61092f5760405162461bcd60e51b815260040180806020018281038252602e815260200180610de0602e913960400191505060405180910390fd5b600054610100900460ff1615801561095a576000805460ff1961ff0019909116610100171660011790555b610962610b2e565b61096a610b2e565b801561097c576000805461ff00191690555b50565b60006105ce8383610bce565b60006105ce836001600160a01b038416610c32565b60006105d182610c4a565b604080516001600160a01b038481166024830152604480830185905283518084039091018152606490920183526020820180516001600160e01b031663a9059cbb60e01b1781529251825160009485949389169392918291908083835b60208310610a275780518252601f199092019160209182019101610a08565b6001836020036101000a0380198251168184511680821785525050505050509050019150506000604051808303816000865af19150503d8060008114610a89576040519150601f19603f3d011682016040523d82523d6000602084013e610a8e565b606091505b5091509150818015610abc575080511580610abc5750808060200190516020811015610ab957600080fd5b50515b610af75760405162461bcd60e51b815260040180806020018281038252602d815260200180610e0e602d913960400191505060405180910390fd5b5050505050565b60006105ce836001600160a01b038416610c4e565b60006105ce836001600160a01b038416610c98565b3b151590565b600054610100900460ff1680610b475750610b476108bc565b80610b55575060005460ff16155b610b905760405162461bcd60e51b815260040180806020018281038252602e815260200180610de0602e913960400191505060405180910390fd5b600054610100900460ff1615801561096a576000805460ff1961ff001990911661010017166001179055801561097c576000805461ff001916905550565b81546000908210610c105760405162461bcd60e51b8152600401808060200182810382526022815260200180610d5f6022913960400191505060405180910390fd5b826000018281548110610c1f57fe5b9060005260206000200154905092915050565b60009081526001919091016020526040902054151590565b5490565b6000610c5a8383610c32565b610c90575081546001818101845560008481526020808220909301849055845484825282860190935260409020919091556105d1565b5060006105d1565b60008181526001830160205260408120548015610d545783546000198083019190810190600090879083908110610ccb57fe5b9060005260206000200154905080876000018481548110610ce857fe5b600091825260208083209091019290925582815260018981019092526040902090840190558654879080610d1857fe5b600190038181906000526020600020016000905590558660010160008781526020019081526020016000206000905560019450505050506105d1565b60009150506105d156fe456e756d657261626c655365743a20696e646578206f7574206f6620626f756e6473416363657373436f6e74726f6c3a2073656e646572206d75737420626520616e2061646d696e20746f206772616e74416363657373436f6e74726f6c3a2073656e646572206d75737420626520616e2061646d696e20746f207265766f6b65496e697469616c697a61626c653a20636f6e747261637420697320616c726561647920696e697469616c697a65645472616e7366657248656c7065723a3a736166655472616e736665723a207472616e73666572206661696c6564416363657373436f6e74726f6c3a2063616e206f6e6c792072656e6f756e636520726f6c657320666f722073656c66a2646970667358221220e94fb7b2036e91db4807dc32b722d28822a23731841d6c936679b0cdf8549c7164736f6c63430007060033",
  "immutableReferences": {},
  "source": "// SPDX-License-Identifier: UNLICENSED\npragma solidity >=0.7.0;\n\nimport \"../interfaces/IHolder.sol\";\nimport \"../interfaces/ISTokens.sol\";\nimport \"@openzeppelin/contracts-upgradeable/access/AccessControlUpgradeable.sol\";\nimport \"@openzeppelin/contracts-upgradeable/proxy/Initializable.sol\";\nimport \"../libraries/TransferHelper.sol\";\n\ncontract HolderUniswapV2 is IHolder, Initializable, AccessControlUpgradeable {\n\t// variables capturing data of other contracts in the product\n\taddress public _stakeLPContract;\n\tISTokens public _sTokens;\n\n\t/**\n\t * @dev Constructor for initializing the Holder Uniswap contract.\n\t * @param sTokenContract - address of the SToken contract.\n\t * @param stakeLPContract - address of the StakeLPCore contract.\n\t */\n\tfunction initialize(address sTokenContract, address stakeLPContract)\n\t\tpublic\n\t\tvirtual\n\t\tinitializer\n\t{\n\t\t__AccessControl_init();\n\t\t_setupRole(DEFAULT_ADMIN_ROLE, _msgSender());\n\t\t_sTokens = ISTokens(sTokenContract);\n\t\t_stakeLPContract = stakeLPContract;\n\t}\n\n\t/**\n\t * @dev get SToken reserve supply of the whitelisted contract\n\t * argument names commented to suppress warnings\n\t */\n\tfunction getSTokenSupply(\n\t\taddress to,\n\t\taddress, /* from */\n\t\tuint256 /* amount */\n\t) public view override returns (uint256 sTokenSupply) {\n\t\tsTokenSupply = _sTokens.balanceOf(to);\n\t\treturn sTokenSupply;\n\t}\n\n\t/**\n\t * @dev Set 'contract address', called from constructor\n\t * @param sAddress: stoken contract address\n\t *\n\t * Emits a {SetSTokensContract} event with '_contract' set to the stoken contract address.\n\t *\n\t */\n\tfunction setSTokensContract(address sAddress) public virtual override {\n\t\trequire(hasRole(DEFAULT_ADMIN_ROLE, _msgSender()), \"HU1\");\n\t\t_sTokens = ISTokens(sAddress);\n\t\temit SetSTokensContract(sAddress);\n\t}\n\n\t/*\n\t * @dev Set 'contract address', called from constructor\n\t * @param liquidStakingContract: liquidStaking contract address\n\t *\n\t * Emits a {SetLiquidStakingContract} event with '_contract' set to the liquidStaking contract address.\n\t *\n\t */\n\tfunction setStakeLPContract(address stakeLPContract)\n\t\tpublic\n\t\tvirtual\n\t\toverride\n\t{\n\t\trequire(hasRole(DEFAULT_ADMIN_ROLE, _msgSender()), \"HU2\");\n\t\t_stakeLPContract = stakeLPContract;\n\t\temit SetStakeLPContract(stakeLPContract);\n\t}\n\n\tfunction safeTransfer(\n\t\taddress token,\n\t\taddress to,\n\t\tuint256 value\n\t) public virtual override {\n\t\trequire(_msgSender() == _stakeLPContract, \"HU3\");\n\n\t\t// finally transfer the new LP Tokens to the user address\n\t\tTransferHelper.safeTransfer(token, to, value);\n\t}\n}\n",
  "sourcePath": "C:\\Users\\Kamlesh\\Persistence\\pStake\\codebase\\pStake-smartContracts\\contracts\\holder\\HolderUniswapV2.sol",
  "compiler": {
    "name": "solc",
    "version": "0.7.6+commit.7338295f.Emscripten.clang"
  },
  "schemaVersion": "3.4.3",
  "updatedAt": "2021-08-14T08:42:14.375Z",
  "devdoc": {
    "kind": "dev",
    "methods": {
      "getRoleAdmin(bytes32)": {
        "details": "Returns the admin role that controls `role`. See {grantRole} and {revokeRole}. To change a role's admin, use {_setRoleAdmin}."
      },
      "getRoleMember(bytes32,uint256)": {
        "details": "Returns one of the accounts that have `role`. `index` must be a value between 0 and {getRoleMemberCount}, non-inclusive. Role bearers are not sorted in any particular way, and their ordering may change at any point. WARNING: When using {getRoleMember} and {getRoleMemberCount}, make sure you perform all queries on the same block. See the following https://forum.openzeppelin.com/t/iterating-over-elements-on-enumerableset-in-openzeppelin-contracts/2296[forum post] for more information."
      },
      "getRoleMemberCount(bytes32)": {
        "details": "Returns the number of accounts that have `role`. Can be used together with {getRoleMember} to enumerate all bearers of a role."
      },
      "getSTokenSupply(address,address,uint256)": {
        "details": "get SToken reserve supply of the whitelisted contract argument names commented to suppress warnings"
      },
      "grantRole(bytes32,address)": {
        "details": "Grants `role` to `account`. If `account` had not been already granted `role`, emits a {RoleGranted} event. Requirements: - the caller must have ``role``'s admin role."
      },
      "hasRole(bytes32,address)": {
        "details": "Returns `true` if `account` has been granted `role`."
      },
      "initialize(address,address)": {
        "details": "Constructor for initializing the Holder Uniswap contract.",
        "params": {
          "sTokenContract": "- address of the SToken contract.",
          "stakeLPContract": "- address of the StakeLPCore contract."
        }
      },
      "renounceRole(bytes32,address)": {
        "details": "Revokes `role` from the calling account. Roles are often managed via {grantRole} and {revokeRole}: this function's purpose is to provide a mechanism for accounts to lose their privileges if they are compromised (such as when a trusted device is misplaced). If the calling account had been granted `role`, emits a {RoleRevoked} event. Requirements: - the caller must be `account`."
      },
      "revokeRole(bytes32,address)": {
        "details": "Revokes `role` from `account`. If `account` had been granted `role`, emits a {RoleRevoked} event. Requirements: - the caller must have ``role``'s admin role."
      },
      "setSTokensContract(address)": {
        "details": "Set 'contract address', called from constructor",
        "params": {
          "sAddress": ": stoken contract address Emits a {SetSTokensContract} event with '_contract' set to the stoken contract address."
        }
      },
      "setStakeLPContract(address)": {
        "details": "Set UTokens smart contract. Emits a {SetSTokensContract} event."
      }
    },
    "version": 1
  },
  "userdoc": {
    "kind": "user",
    "methods": {},
    "version": 1
  }
}