{
  "contractName": "LiquidStakingV2",
  "abi": [
    {
      "anonymous": false,
      "inputs": [
        {
          "indexed": false,
          "internalType": "address",
          "name": "account",
          "type": "address"
        }
      ],
      "name": "Paused",
      "type": "event"
    },
    {
      "anonymous": false,
      "inputs": [
        {
          "indexed": true,
          "internalType": "bytes32",
          "name": "role",
          "type": "bytes32"
        },
        {
          "indexed": true,
          "internalType": "bytes32",
          "name": "previousAdminRole",
          "type": "bytes32"
        },
        {
          "indexed": true,
          "internalType": "bytes32",
          "name": "newAdminRole",
          "type": "bytes32"
        }
      ],
      "name": "RoleAdminChanged",
      "type": "event"
    },
    {
      "anonymous": false,
      "inputs": [
        {
          "indexed": true,
          "internalType": "bytes32",
          "name": "role",
          "type": "bytes32"
        },
        {
          "indexed": true,
          "internalType": "address",
          "name": "account",
          "type": "address"
        },
        {
          "indexed": true,
          "internalType": "address",
          "name": "sender",
          "type": "address"
        }
      ],
      "name": "RoleGranted",
      "type": "event"
    },
    {
      "anonymous": false,
      "inputs": [
        {
          "indexed": true,
          "internalType": "bytes32",
          "name": "role",
          "type": "bytes32"
        },
        {
          "indexed": true,
          "internalType": "address",
          "name": "account",
          "type": "address"
        },
        {
          "indexed": true,
          "internalType": "address",
          "name": "sender",
          "type": "address"
        }
      ],
      "name": "RoleRevoked",
      "type": "event"
    },
    {
      "anonymous": false,
      "inputs": [
        {
          "indexed": false,
          "internalType": "uint256",
          "name": "stakeFee",
          "type": "uint256"
        },
        {
          "indexed": false,
          "internalType": "uint256",
          "name": "unstakeFee",
          "type": "uint256"
        }
      ],
      "name": "SetFees",
      "type": "event"
    },
    {
      "anonymous": false,
      "inputs": [
        {
          "indexed": false,
          "internalType": "uint256",
          "name": "minStake",
          "type": "uint256"
        },
        {
          "indexed": false,
          "internalType": "uint256",
          "name": "minUnstake",
          "type": "uint256"
        }
      ],
      "name": "SetMinimumValues",
      "type": "event"
    },
    {
      "anonymous": false,
      "inputs": [
        {
          "indexed": true,
          "internalType": "address",
          "name": "_contract",
          "type": "address"
        }
      ],
      "name": "SetSTokensContract",
      "type": "event"
    },
    {
      "anonymous": false,
      "inputs": [
        {
          "indexed": true,
          "internalType": "address",
          "name": "_contract",
          "type": "address"
        }
      ],
      "name": "SetUTokensContract",
      "type": "event"
    },
    {
      "anonymous": false,
      "inputs": [
        {
          "indexed": false,
          "internalType": "uint256",
          "name": "unstakeEpoch",
          "type": "uint256"
        },
        {
          "indexed": false,
          "internalType": "uint256",
          "name": "unstakeEpochPrevious",
          "type": "uint256"
        },
        {
          "indexed": false,
          "internalType": "uint256",
          "name": "epochInterval",
          "type": "uint256"
        }
      ],
      "name": "SetUnstakeEpoch",
      "type": "event"
    },
    {
      "anonymous": false,
      "inputs": [
        {
          "indexed": false,
          "internalType": "uint256",
          "name": "unstakingLockTime",
          "type": "uint256"
        }
      ],
      "name": "SetUnstakingLockTime",
      "type": "event"
    },
    {
      "anonymous": false,
      "inputs": [
        {
          "indexed": true,
          "internalType": "address",
          "name": "accountAddress",
          "type": "address"
        },
        {
          "indexed": false,
          "internalType": "uint256",
          "name": "tokens",
          "type": "uint256"
        },
        {
          "indexed": false,
          "internalType": "uint256",
          "name": "finalTokens",
          "type": "uint256"
        },
        {
          "indexed": false,
          "internalType": "uint256",
          "name": "timestamp",
          "type": "uint256"
        }
      ],
      "name": "StakeTokens",
      "type": "event"
    },
    {
      "anonymous": false,
      "inputs": [
        {
          "indexed": false,
          "internalType": "address",
          "name": "account",
          "type": "address"
        }
      ],
      "name": "Unpaused",
      "type": "event"
    },
    {
      "anonymous": false,
      "inputs": [
        {
          "indexed": true,
          "internalType": "address",
          "name": "accountAddress",
          "type": "address"
        },
        {
          "indexed": false,
          "internalType": "uint256",
          "name": "tokens",
          "type": "uint256"
        },
        {
          "indexed": false,
          "internalType": "uint256",
          "name": "finalTokens",
          "type": "uint256"
        },
        {
          "indexed": false,
          "internalType": "uint256",
          "name": "timestamp",
          "type": "uint256"
        }
      ],
      "name": "UnstakeTokens",
      "type": "event"
    },
    {
      "anonymous": false,
      "inputs": [
        {
          "indexed": true,
          "internalType": "address",
          "name": "accountAddress",
          "type": "address"
        },
        {
          "indexed": false,
          "internalType": "uint256",
          "name": "tokens",
          "type": "uint256"
        },
        {
          "indexed": false,
          "internalType": "uint256",
          "name": "timestamp",
          "type": "uint256"
        }
      ],
      "name": "WithdrawUnstakeTokens",
      "type": "event"
    },
    {
      "inputs": [],
      "name": "DEFAULT_ADMIN_ROLE",
      "outputs": [
        {
          "internalType": "bytes32",
          "name": "",
          "type": "bytes32"
        }
      ],
      "stateMutability": "view",
      "type": "function"
    },
    {
      "inputs": [],
      "name": "PAUSER_ROLE",
      "outputs": [
        {
          "internalType": "bytes32",
          "name": "",
          "type": "bytes32"
        }
      ],
      "stateMutability": "view",
      "type": "function"
    },
    {
      "inputs": [],
      "name": "_sTokens",
      "outputs": [
        {
          "internalType": "contract ISTokensV2",
          "name": "",
          "type": "address"
        }
      ],
      "stateMutability": "view",
      "type": "function"
    },
    {
      "inputs": [],
      "name": "_uTokens",
      "outputs": [
        {
          "internalType": "contract IUTokensV2",
          "name": "",
          "type": "address"
        }
      ],
      "stateMutability": "view",
      "type": "function"
    },
    {
      "inputs": [
        {
          "internalType": "address",
          "name": "",
          "type": "address"
        },
        {
          "internalType": "uint256",
          "name": "",
          "type": "uint256"
        }
      ],
      "name": "_unstakingAmount",
      "outputs": [
        {
          "internalType": "uint256",
          "name": "",
          "type": "uint256"
        }
      ],
      "stateMutability": "view",
      "type": "function"
    },
    {
      "inputs": [
        {
          "internalType": "address",
          "name": "",
          "type": "address"
        },
        {
          "internalType": "uint256",
          "name": "",
          "type": "uint256"
        }
      ],
      "name": "_unstakingExpiration",
      "outputs": [
        {
          "internalType": "uint256",
          "name": "",
          "type": "uint256"
        }
      ],
      "stateMutability": "view",
      "type": "function"
    },
    {
      "inputs": [],
      "name": "_valueDivisor",
      "outputs": [
        {
          "internalType": "uint256",
          "name": "",
          "type": "uint256"
        }
      ],
      "stateMutability": "view",
      "type": "function"
    },
    {
      "inputs": [],
      "name": "_version",
      "outputs": [
        {
          "internalType": "uint256",
          "name": "",
          "type": "uint256"
        }
      ],
      "stateMutability": "view",
      "type": "function"
    },
    {
      "inputs": [
        {
          "internalType": "address",
          "name": "",
          "type": "address"
        }
      ],
      "name": "_withdrawCounters",
      "outputs": [
        {
          "internalType": "uint256",
          "name": "",
          "type": "uint256"
        }
      ],
      "stateMutability": "view",
      "type": "function"
    },
    {
      "inputs": [
        {
          "internalType": "bytes32",
          "name": "role",
          "type": "bytes32"
        }
      ],
      "name": "getRoleAdmin",
      "outputs": [
        {
          "internalType": "bytes32",
          "name": "",
          "type": "bytes32"
        }
      ],
      "stateMutability": "view",
      "type": "function"
    },
    {
      "inputs": [
        {
          "internalType": "bytes32",
          "name": "role",
          "type": "bytes32"
        },
        {
          "internalType": "uint256",
          "name": "index",
          "type": "uint256"
        }
      ],
      "name": "getRoleMember",
      "outputs": [
        {
          "internalType": "address",
          "name": "",
          "type": "address"
        }
      ],
      "stateMutability": "view",
      "type": "function"
    },
    {
      "inputs": [
        {
          "internalType": "bytes32",
          "name": "role",
          "type": "bytes32"
        }
      ],
      "name": "getRoleMemberCount",
      "outputs": [
        {
          "internalType": "uint256",
          "name": "",
          "type": "uint256"
        }
      ],
      "stateMutability": "view",
      "type": "function"
    },
    {
      "inputs": [
        {
          "internalType": "bytes32",
          "name": "role",
          "type": "bytes32"
        },
        {
          "internalType": "address",
          "name": "account",
          "type": "address"
        }
      ],
      "name": "grantRole",
      "outputs": [],
      "stateMutability": "nonpayable",
      "type": "function"
    },
    {
      "inputs": [
        {
          "internalType": "bytes32",
          "name": "role",
          "type": "bytes32"
        },
        {
          "internalType": "address",
          "name": "account",
          "type": "address"
        }
      ],
      "name": "hasRole",
      "outputs": [
        {
          "internalType": "bool",
          "name": "",
          "type": "bool"
        }
      ],
      "stateMutability": "view",
      "type": "function"
    },
    {
      "inputs": [],
      "name": "paused",
      "outputs": [
        {
          "internalType": "bool",
          "name": "",
          "type": "bool"
        }
      ],
      "stateMutability": "view",
      "type": "function"
    },
    {
      "inputs": [
        {
          "internalType": "bytes32",
          "name": "role",
          "type": "bytes32"
        },
        {
          "internalType": "address",
          "name": "account",
          "type": "address"
        }
      ],
      "name": "renounceRole",
      "outputs": [],
      "stateMutability": "nonpayable",
      "type": "function"
    },
    {
      "inputs": [
        {
          "internalType": "bytes32",
          "name": "role",
          "type": "bytes32"
        },
        {
          "internalType": "address",
          "name": "account",
          "type": "address"
        }
      ],
      "name": "revokeRole",
      "outputs": [],
      "stateMutability": "nonpayable",
      "type": "function"
    },
    {
      "inputs": [
        {
          "internalType": "address",
          "name": "uAddress",
          "type": "address"
        },
        {
          "internalType": "address",
          "name": "sAddress",
          "type": "address"
        },
        {
          "internalType": "address",
          "name": "pauserAddress",
          "type": "address"
        },
        {
          "internalType": "uint256",
          "name": "unstakingLockTime",
          "type": "uint256"
        },
        {
          "internalType": "uint256",
          "name": "epochInterval",
          "type": "uint256"
        },
        {
          "internalType": "uint256",
          "name": "valueDivisor",
          "type": "uint256"
        }
      ],
      "name": "initialize",
      "outputs": [],
      "stateMutability": "nonpayable",
      "type": "function"
    },
    {
      "inputs": [
        {
          "internalType": "uint256",
          "name": "stakeFee",
          "type": "uint256"
        },
        {
          "internalType": "uint256",
          "name": "unstakeFee",
          "type": "uint256"
        }
      ],
      "name": "setFees",
      "outputs": [
        {
          "internalType": "bool",
          "name": "success",
          "type": "bool"
        }
      ],
      "stateMutability": "nonpayable",
      "type": "function"
    },
    {
      "inputs": [
        {
          "internalType": "uint256",
          "name": "unstakingLockTime",
          "type": "uint256"
        }
      ],
      "name": "setUnstakingLockTime",
      "outputs": [
        {
          "internalType": "bool",
          "name": "success",
          "type": "bool"
        }
      ],
      "stateMutability": "nonpayable",
      "type": "function"
    },
    {
      "inputs": [],
      "name": "getStakeUnstakeProps",
      "outputs": [
        {
          "internalType": "uint256",
          "name": "stakeFee",
          "type": "uint256"
        },
        {
          "internalType": "uint256",
          "name": "unstakeFee",
          "type": "uint256"
        },
        {
          "internalType": "uint256",
          "name": "minStake",
          "type": "uint256"
        },
        {
          "internalType": "uint256",
          "name": "minUnstake",
          "type": "uint256"
        },
        {
          "internalType": "uint256",
          "name": "valueDivisor",
          "type": "uint256"
        },
        {
          "internalType": "uint256",
          "name": "epochInterval",
          "type": "uint256"
        },
        {
          "internalType": "uint256",
          "name": "unstakeEpoch",
          "type": "uint256"
        },
        {
          "internalType": "uint256",
          "name": "unstakeEpochPrevious",
          "type": "uint256"
        },
        {
          "internalType": "uint256",
          "name": "unstakingLockTime",
          "type": "uint256"
        }
      ],
      "stateMutability": "view",
      "type": "function"
    },
    {
      "inputs": [
        {
          "internalType": "uint256",
          "name": "minStake",
          "type": "uint256"
        },
        {
          "internalType": "uint256",
          "name": "minUnstake",
          "type": "uint256"
        }
      ],
      "name": "setMinimumValues",
      "outputs": [
        {
          "internalType": "bool",
          "name": "success",
          "type": "bool"
        }
      ],
      "stateMutability": "nonpayable",
      "type": "function"
    },
    {
      "inputs": [
        {
          "internalType": "uint256",
          "name": "unstakeEpoch",
          "type": "uint256"
        },
        {
          "internalType": "uint256",
          "name": "unstakeEpochPrevious",
          "type": "uint256"
        },
        {
          "internalType": "uint256",
          "name": "epochInterval",
          "type": "uint256"
        }
      ],
      "name": "setUnstakeEpoch",
      "outputs": [
        {
          "internalType": "bool",
          "name": "success",
          "type": "bool"
        }
      ],
      "stateMutability": "nonpayable",
      "type": "function"
    },
    {
      "inputs": [
        {
          "internalType": "address",
          "name": "uAddress",
          "type": "address"
        }
      ],
      "name": "setUTokensContract",
      "outputs": [],
      "stateMutability": "nonpayable",
      "type": "function"
    },
    {
      "inputs": [
        {
          "internalType": "address",
          "name": "sAddress",
          "type": "address"
        }
      ],
      "name": "setSTokensContract",
      "outputs": [],
      "stateMutability": "nonpayable",
      "type": "function"
    },
    {
      "inputs": [
        {
          "internalType": "address",
          "name": "to",
          "type": "address"
        },
        {
          "internalType": "uint256",
          "name": "amount",
          "type": "uint256"
        }
      ],
      "name": "stake",
      "outputs": [
        {
          "internalType": "bool",
          "name": "",
          "type": "bool"
        }
      ],
      "stateMutability": "nonpayable",
      "type": "function"
    },
    {
      "inputs": [
        {
          "internalType": "address",
          "name": "to",
          "type": "address"
        },
        {
          "internalType": "uint256",
          "name": "amount",
          "type": "uint256"
        }
      ],
      "name": "unStake",
      "outputs": [
        {
          "internalType": "bool",
          "name": "",
          "type": "bool"
        }
      ],
      "stateMutability": "nonpayable",
      "type": "function"
    },
    {
      "inputs": [
        {
          "internalType": "uint256",
          "name": "_unstakeTimestamp",
          "type": "uint256"
        }
      ],
      "name": "getUnstakeEpochMilestone",
      "outputs": [
        {
          "internalType": "uint256",
          "name": "unstakeEpochMilestone",
          "type": "uint256"
        }
      ],
      "stateMutability": "view",
      "type": "function"
    },
    {
      "inputs": [
        {
          "internalType": "uint256",
          "name": "_unstakeTimestamp",
          "type": "uint256"
        }
      ],
      "name": "getUnstakeTime",
      "outputs": [
        {
          "internalType": "uint256",
          "name": "unstakeTime",
          "type": "uint256"
        },
        {
          "internalType": "uint256",
          "name": "unstakeEpoch",
          "type": "uint256"
        },
        {
          "internalType": "uint256",
          "name": "unstakeEpochPrevious",
          "type": "uint256"
        }
      ],
      "stateMutability": "view",
      "type": "function"
    },
    {
      "inputs": [
        {
          "internalType": "address",
          "name": "staker",
          "type": "address"
        }
      ],
      "name": "withdrawUnstakedTokens",
      "outputs": [],
      "stateMutability": "nonpayable",
      "type": "function"
    },
    {
      "inputs": [
        {
          "internalType": "address",
          "name": "staker",
          "type": "address"
        }
      ],
      "name": "getTotalUnbondedTokens",
      "outputs": [
        {
          "internalType": "uint256",
          "name": "unbondingTokens",
          "type": "uint256"
        }
      ],
      "stateMutability": "view",
      "type": "function"
    },
    {
      "inputs": [
        {
          "internalType": "address",
          "name": "staker",
          "type": "address"
        }
      ],
      "name": "getTotalUnbondingTokens",
      "outputs": [
        {
          "internalType": "uint256",
          "name": "unbondingTokens",
          "type": "uint256"
        }
      ],
      "stateMutability": "view",
      "type": "function"
    },
    {
      "inputs": [],
      "name": "pause",
      "outputs": [
        {
          "internalType": "bool",
          "name": "success",
          "type": "bool"
        }
      ],
      "stateMutability": "nonpayable",
      "type": "function"
    },
    {
      "inputs": [],
      "name": "unpause",
      "outputs": [
        {
          "internalType": "bool",
          "name": "success",
          "type": "bool"
        }
      ],
      "stateMutability": "nonpayable",
      "type": "function"
    }
  ],
  "bytecode": "0x608060405234801561001057600080fd5b50612647806100206000396000f3fe608060405234801561001057600080fd5b50600436106102065760003560e01c80638456cb591161011a578063adc9772e116100ad578063d79cf55a1161007c578063d79cf55a1461061f578063d939381414610627578063e63ab1e914610653578063f3e6f94e1461065b578063f75f0cf61461068757610206565b8063adc9772e14610584578063b17e3165146105b0578063ca15c873146105d6578063d547741f146105f357610206565b806391d14854116100e957806391d148541461050a5780639b9eea46146105365780639dc77cab14610553578063a217fddf1461057c57610206565b80638456cb591461047e57806385e3284014610486578063898a9664146104c15780639010d07c146104e757610206565b80633e118dbe1161019d5780635c975abb1161016c5780635c975abb146103dc578063728a99ee146103e4578063728cdbca146103ec57806378a2f07414610434578063819020a01461045857610206565b80633e118dbe1461035a5780633f4ba83a1461036257806351db00e71461036a57806355f2323f1461038d57610206565b8063248a9ca3116101d9578063248a9ca3146102bf5780632e31fab8146102dc5780632f2ff15d1461030257806336568abe1461032e57610206565b80630273b70d1461020b5780630b78f9c0146102435780630e4b29431461027a57806321bdf9e514610297575b600080fd5b6102316004803603602081101561022157600080fd5b50356001600160a01b03166106b3565b60408051918252519081900360200190f35b6102666004803603604081101561025957600080fd5b5080359060200135610787565b604080519115158252519081900360200190f35b6102666004803603602081101561029057600080fd5b5035610892565b6102bd600480360360208110156102ad57600080fd5b50356001600160a01b0316610917565b005b610231600480360360208110156102d557600080fd5b50356109a8565b6102bd600480360360208110156102f257600080fd5b50356001600160a01b03166109bd565b6102bd6004803603604081101561031857600080fd5b50803590602001356001600160a01b0316610a4e565b6102bd6004803603604081101561034457600080fd5b50803590602001356001600160a01b0316610ab5565b610231610b16565b610266610b1c565b6102666004803603604081101561038057600080fd5b5080359060200135610b80565b610395610c8b565b60408051998a5260208a0198909852888801969096526060880194909452608087019290925260a086015260c085015260e084015261010083015251908190036101200190f35b610266610cae565b610231610cb7565b6102bd600480360360c081101561040257600080fd5b506001600160a01b03813581169160208101358216916040820135169060608101359060808101359060a00135610cbd565b61043c610dd8565b604080516001600160a01b039092168252519081900360200190f35b6102bd6004803603602081101561046e57600080fd5b50356001600160a01b0316610de7565b6102666110d8565b6104a36004803603602081101561049c57600080fd5b5035611136565b60408051938452602084019290925282820152519081900360600190f35b610231600480360360208110156104d757600080fd5b50356001600160a01b0316611180565b61043c600480360360408110156104fd57600080fd5b5080359060200135611192565b6102666004803603604081101561052057600080fd5b50803590602001356001600160a01b03166111b1565b6102316004803603602081101561054c57600080fd5b50356111c9565b6102666004803603606081101561056957600080fd5b5080359060208101359060400135611277565b610231611395565b6102666004803603604081101561059a57600080fd5b506001600160a01b03813516906020013561139a565b610231600480360360208110156105c657600080fd5b50356001600160a01b03166116c9565b610231600480360360208110156105ec57600080fd5b503561176b565b6102bd6004803603604081101561060957600080fd5b50803590602001356001600160a01b0316611782565b61043c6117db565b6102666004803603604081101561063d57600080fd5b506001600160a01b0381351690602001356117ea565b610231611acf565b6102316004803603604081101561067157600080fd5b506001600160a01b038135169060200135611ae1565b6102316004803603604081101561069d57600080fd5b506001600160a01b038135169060200135611b12565b6001600160a01b038116600090815260a2602090815260408083205460a4909252822054805b8281101561077e576001600160a01b038516600090815260a260205260408120805461071a91908490811061070a57fe5b9060005260206000200154611136565b5050905080421061076b576001600160a01b038616600090815260a360205260409020805461076891908490811061074e57fe5b906000526020600020015486611b2e90919063ffffffff16565b94505b50610777816001611b2e565b90506106d9565b5050505b919050565b600061079a81610795611b88565b6111b1565b6107d1576040805162461bcd60e51b81526020600482015260036024820152624c513160e81b604482015290519081900360640190fd5b609d546107df906064611b8c565b831115806107eb575082155b801561080c5750609d54610800906064611b8c565b8211158061080c575081155b610843576040805162461bcd60e51b815260206004820152600360248201526226289960e91b604482015290519081900360640190fd5b609b839055609c829055604080518481526020810184905281517f3be6e637f54f081a2dd12982cfd58481304fc98b604b18fa8ed4aa4e4a9d1532929181900390910190a15060015b92915050565b60006108a081610795611b88565b6108d7576040805162461bcd60e51b81526020600482015260036024820152624c513360e81b604482015290519081900360640190fd5b609e8290556040805183815290517ffced4450741ad45114dbc966176eb1d16dc4f2259bc864aa395736a7e8355bbb9181900360200190a1506001919050565b6109246000610795611b88565b61095e576040805162461bcd60e51b8152602060048083019190915260248201526304c5131360e41b604482015290519081900360640190fd5b609780546001600160a01b0319166001600160a01b0383169081179091556040517ff745c285f36f88bea6af14d4d0f33dd9350cef7895216c1615b1caaee7857e0c90600090a250565b60009081526065602052604090206002015490565b6109ca6000610795611b88565b610a04576040805162461bcd60e51b815260206004808301919091526024820152634c51313160e01b604482015290519081900360640190fd5b609880546001600160a01b0319166001600160a01b0383169081179091556040517fd0b9dbe26f676f4cdb02fc249c203baa0314cec79e18b4194dc862795a5de03f90600090a250565b600082815260656020526040902060020154610a6c90610795611b88565b610aa75760405162461bcd60e51b815260040180806020018281038252602f815260200180612515602f913960400191505060405180910390fd5b610ab18282611be5565b5050565b610abd611b88565b6001600160a01b0316816001600160a01b031614610b0c5760405162461bcd60e51b815260040180806020018281038252602f8152602001806125e3602f913960400191505060405180910390fd5b610ab18282611c4e565b60a55481565b6000610b386000805160206125c3833981519152610795611b88565b610b72576040805162461bcd60e51b815260206004808301919091526024820152634c51323360e01b604482015290519081900360640190fd5b610b7a611cb7565b50600190565b6000610b8e81610795611b88565b610bc5576040805162461bcd60e51b815260206004820152600360248201526213144d60ea1b604482015290519081900360640190fd5b6001831015610c01576040805162461bcd60e51b81526020600482015260036024820152624c513560e81b604482015290519081900360640190fd5b6001821015610c3d576040805162461bcd60e51b815260206004820152600360248201526226289b60e91b604482015290519081900360640190fd5b6099839055609a829055604080518481526020810184905281517fa94d40347449ea19b873d64ed55c99772194c49791e82be5c2dc24e4c0044fe3929181900390910190a150600192915050565b609b54609c54609954609d54609f5460a05460a154609e54969795969495869590565b60335460ff1690565b609d5481565b600054610100900460ff1680610cd65750610cd6611d57565b80610ce4575060005460ff16155b610d1f5760405162461bcd60e51b815260040180806020018281038252602e815260200180612574602e913960400191505060405180910390fd5b600054610100900460ff16158015610d4a576000805460ff1961ff0019909116610100171660011790555b610d52611d68565b610d5a611e1a565b610d6c6000610d67611b88565b610aa7565b610d846000805160206125c383398151915286610aa7565b610d8d87610917565b610d96866109bd565b610d9f84610892565b50610dab600180610b80565b50609d829055610dbc428085611277565b508015610dcf576000805461ff00191690555b50505050505050565b6097546001600160a01b031681565b610def610cae565b15610e34576040805162461bcd60e51b815260206004820152601060248201526f14185d5cd8589b194e881c185d5cd95960821b604482015290519081900360640190fd5b610e3c611b88565b6001600160a01b0316816001600160a01b031614610e8a576040805162461bcd60e51b8152602060048083019190915260248201526304c5132360e41b604482015290519081900360640190fd5b6001600160a01b038116600090815260a2602090815260408083205460a4909252822054805b82811015610fcf576001600160a01b038516600090815260a2602052604081208054610ee191908490811061070a57fe5b50509050804210610fbc576001600160a01b038616600090815260a3602052604090208054610f1591908490811061074e57fe5b6001600160a01b038716600090815260a2602052604081208054929750909184908110610f3e57fe5b60009182526020808320909101929092556001600160a01b038816815260a390915260408120805484908110610f7057fe5b60009182526020808320909101929092556001600160a01b038816815260a49091526040902054610fa2906001611b2e565b6001600160a01b038716600090815260a460205260409020555b50610fc8816001611b2e565b9050610eb0565b506000831161100e576040805162461bcd60e51b815260206004808301919091526024820152634c51323160e01b604482015290519081900360640190fd5b6040805184815242602082015281516001600160a01b038716927f31453b59c0eb931edc765cc2400876a524254457b5534d660c9da1d74ab4666b928290030190a2609754604080516340c10f1960e01b81526001600160a01b03878116600483015260248201879052915191909216916340c10f199160448083019260209291908290030181600087803b1580156110a657600080fd5b505af11580156110ba573d6000803e3d6000fd5b505050506040513d60208110156110d057600080fd5b505050505050565b60006110f46000805160206125c3833981519152610795611b88565b61112e576040805162461bcd60e51b815260206004808301919091526024820152632628991960e11b604482015290519081900360640190fd5b610b7a611eb7565b600080600080611145856111c9565b905080611156576000935050611179565b60a054925060a1549150611175609e5482611b2e90919063ffffffff16565b9350505b9193909250565b60a46020526000908152604090205481565b60008281526065602052604081206111aa9083611f3a565b9392505050565b60008281526065602052604081206111aa9083611f46565b6000816111d857506000610782565b60a0541580156111e8575060a154155b806111f35750609f54155b156111ff575080610782565b8160a0541115611212575060a054610782565b600061123561122e60a15460a054611f5b90919063ffffffff16565b8490611b2e565b9050600061124e60a05483611f5b90919063ffffffff16565b905061126f82611269609f5484611fb890919063ffffffff16565b90611b2e565b949350505050565b600061128581610795611b88565b6112bc576040805162461bcd60e51b81526020600482015260036024820152624c513760e81b604482015290519081900360640190fd5b838311156112f7576040805162461bcd60e51b8152602060048201526003602482015262098a2760eb1b604482015290519081900360640190fd5b8315801561130457508115155b1561133c576040805162461bcd60e51b81526020600482015260036024820152624c513960e81b604482015290519081900360640190fd5b60a084905560a1839055609f829055604080518581526020810185905280820184905290517f342db083975cc0697d0f81d0876299ecbf95d909e920426089062e540904497c9181900360600190a15060019392505050565b600081565b60006113a4610cae565b156113e9576040805162461bcd60e51b815260206004820152601060248201526f14185d5cd8589b194e881c185d5cd95960821b604482015290519081900360640190fd5b6113f1611b88565b6001600160a01b0316836001600160a01b03161461143f576040805162461bcd60e51b815260206004808301919091526024820152632628989960e11b604482015290519081900360640190fd5b609754604080516370a0823160e01b81526001600160a01b038681166004830152915160009392909216916370a0823191602480820192602092909190829003018186803b15801561149057600080fd5b505afa1580156114a4573d6000803e3d6000fd5b505050506040513d60208110156114ba57600080fd5b5051609b54609d549192506000916114e0916064916114da91889161201f565b906120d8565b905060006114ee8583611b2e565b9050609954851015611530576040805162461bcd60e51b815260206004808301919091526024820152634c51313360e01b604482015290519081900360640190fd5b8083101561156e576040805162461bcd60e51b8152602060048083019190915260248201526313144c4d60e21b604482015290519081900360640190fd5b6040805186815260208101839052428183015290516001600160a01b038816917f5fe79871cd2431c06447cbcf2557091da5d2ed5bc640f1028f42665913786e42919081900360600190a260975460408051632770a7eb60e21b81526001600160a01b0389811660048301526024820185905291519190921691639dc29fac9160448083019260209291908290030181600087803b15801561160f57600080fd5b505af1158015611623573d6000803e3d6000fd5b505050506040513d602081101561163957600080fd5b5050609854604080516340c10f1960e01b81526001600160a01b03898116600483015260248201899052915191909216916340c10f199160448083019260209291908290030181600087803b15801561169157600080fd5b505af11580156116a5573d6000803e3d6000fd5b505050506040513d60208110156116bb57600080fd5b506001979650505050505050565b6001600160a01b038116600090815260a2602090815260408083205460a4909252822054805b8281101561077e576001600160a01b038516600090815260a260205260408120805461172091908490811061070a57fe5b5050905080421015611758576001600160a01b038616600090815260a360205260409020805461175591908490811061074e57fe5b94505b50611764816001611b2e565b90506116ef565b600081815260656020526040812061088c9061213f565b6000828152606560205260409020600201546117a090610795611b88565b610b0c5760405162461bcd60e51b81526004018080602001828103825260308152602001806125446030913960400191505060405180910390fd5b6098546001600160a01b031681565b60006117f4610cae565b15611839576040805162461bcd60e51b815260206004820152601060248201526f14185d5cd8589b194e881c185d5cd95960821b604482015290519081900360640190fd5b611841611b88565b6001600160a01b0316836001600160a01b03161461188f576040805162461bcd60e51b815260206004808301919091526024820152634c51313560e01b604482015290519081900360640190fd5b609854604080516370a0823160e01b81526001600160a01b038681166004830152915160009392909216916370a0823191602480820192602092909190829003018186803b1580156118e057600080fd5b505afa1580156118f4573d6000803e3d6000fd5b505050506040513d602081101561190a57600080fd5b5051609c54609d5491925060009161192a916064916114da91889161201f565b905060006119388583611b2e565b9050609a5485101561197a576040805162461bcd60e51b81526020600480830191909152602482015263098a262760e31b604482015290519081900360640190fd5b808310156119b8576040805162461bcd60e51b815260206004808301919091526024820152634c51313960e01b604482015290519081900360640190fd5b60985460408051632770a7eb60e21b81526001600160a01b0389811660048301526024820185905291519190921691639dc29fac9160448083019260209291908290030181600087803b158015611a0e57600080fd5b505af1158015611a22573d6000803e3d6000fd5b505050506040513d6020811015611a3857600080fd5b50506001600160a01b038616600081815260a26020908152604080832080546001818101835591855283852042910181905585855260a38452828520805492830181558552938390200189905580518981529182018590528181019290925290517f98850af53deeaf736beb3ea22091c900e8e5cfdf8153342daa366dc1d83a39fd9181900360600190a250600195945050505050565b6000805160206125c383398151915281565b60a26020528160005260406000208181548110611afd57600080fd5b90600052602060002001600091509150505481565b60a36020528160005260406000208181548110611afd57600080fd5b6000828201838110156111aa576040805162461bcd60e51b815260206004820152601b60248201527f536166654d6174683a206164646974696f6e206f766572666c6f770000000000604482015290519081900360640190fd5b3390565b600082611b9b5750600061088c565b82820282848281611ba857fe5b04146111aa5760405162461bcd60e51b81526004018080602001828103825260218152602001806125a26021913960400191505060405180910390fd5b6000828152606560205260409020611bfd908261214a565b15610ab157611c0a611b88565b6001600160a01b0316816001600160a01b0316837f2f8788117e7eff1d82e926ec794901d17c78024a50270940304540a733656f0d60405160405180910390a45050565b6000828152606560205260409020611c66908261215f565b15610ab157611c73611b88565b6001600160a01b0316816001600160a01b0316837ff6391f5c32d9c69d2a47ea670b442974b53935d1edc7fd64eb21e047a839171b60405160405180910390a45050565b611cbf610cae565b611d07576040805162461bcd60e51b815260206004820152601460248201527314185d5cd8589b194e881b9bdd081c185d5cd95960621b604482015290519081900360640190fd5b6033805460ff191690557f5db9ee0a495bf2e6ff9c91a7834c1ba4fdd244a5e8aa4e537bd38aeae4b073aa611d3a611b88565b604080516001600160a01b039092168252519081900360200190a1565b6000611d6230612174565b15905090565b600054610100900460ff1680611d815750611d81611d57565b80611d8f575060005460ff16155b611dca5760405162461bcd60e51b815260040180806020018281038252602e815260200180612574602e913960400191505060405180910390fd5b600054610100900460ff16158015611df5576000805460ff1961ff0019909116610100171660011790555b611dfd61217a565b611e0561217a565b8015611e17576000805461ff00191690555b50565b600054610100900460ff1680611e335750611e33611d57565b80611e41575060005460ff16155b611e7c5760405162461bcd60e51b815260040180806020018281038252602e815260200180612574602e913960400191505060405180910390fd5b600054610100900460ff16158015611ea7576000805460ff1961ff0019909116610100171660011790555b611eaf61217a565b611e0561221a565b611ebf610cae565b15611f04576040805162461bcd60e51b815260206004820152601060248201526f14185d5cd8589b194e881c185d5cd95960821b604482015290519081900360640190fd5b6033805460ff191660011790557f62e78cea01bee320cd4e420270b5ea74000d11b0c9f74754ebdbfc544b05a258611d3a611b88565b60006111aa83836122c5565b60006111aa836001600160a01b038416612329565b600082821115611fb2576040805162461bcd60e51b815260206004820152601e60248201527f536166654d6174683a207375627472616374696f6e206f766572666c6f770000604482015290519081900360640190fd5b50900390565b600080821161200e576040805162461bcd60e51b815260206004820152601860248201527f536166654d6174683a206d6f64756c6f206279207a65726f0000000000000000604482015290519081900360640190fd5b81838161201757fe5b069392505050565b600080600061202e8686612341565b915091506000848061203c57fe5b868809905082811115612050576001820391505b91829003918161206e5784838161206357fe5b0493505050506111aa565b8482106120c2576040805162461bcd60e51b815260206004820152601a60248201527f46756c6c4d6174683a2046554c4c4449565f4f564552464c4f57000000000000604482015290519081900360640190fd5b6120cd83838761236e565b979650505050505050565b600080821161212e576040805162461bcd60e51b815260206004820152601a60248201527f536166654d6174683a206469766973696f6e206279207a65726f000000000000604482015290519081900360640190fd5b81838161213757fe5b049392505050565b600061088c826123de565b60006111aa836001600160a01b0384166123e2565b60006111aa836001600160a01b03841661242c565b3b151590565b600054610100900460ff16806121935750612193611d57565b806121a1575060005460ff16155b6121dc5760405162461bcd60e51b815260040180806020018281038252602e815260200180612574602e913960400191505060405180910390fd5b600054610100900460ff16158015611e05576000805460ff1961ff0019909116610100171660011790558015611e17576000805461ff001916905550565b600054610100900460ff16806122335750612233611d57565b80612241575060005460ff16155b61227c5760405162461bcd60e51b815260040180806020018281038252602e815260200180612574602e913960400191505060405180910390fd5b600054610100900460ff161580156122a7576000805460ff1961ff0019909116610100171660011790555b6033805460ff191690558015611e17576000805461ff001916905550565b815460009082106123075760405162461bcd60e51b81526004018080602001828103825260228152602001806124f36022913960400191505060405180910390fd5b82600001828154811061231657fe5b9060005260206000200154905092915050565b60009081526001919091016020526040902054151590565b6000808060001984860990508385029250828103915082811015612366576001820391505b509250929050565b6000818103821680838161237e57fe5b04925080858161238a57fe5b04945080816000038161239957fe5b60028581038087028203028087028203028087028203028087028203028087028203028087028203029586029003909402930460010193909302939093010292915050565b5490565b60006123ee8383612329565b6124245750815460018181018455600084815260208082209093018490558454848252828601909352604090209190915561088c565b50600061088c565b600081815260018301602052604081205480156124e8578354600019808301919081019060009087908390811061245f57fe5b906000526020600020015490508087600001848154811061247c57fe5b6000918252602080832090910192909255828152600189810190925260409020908401905586548790806124ac57fe5b6001900381819060005260206000200160009055905586600101600087815260200190815260200160002060009055600194505050505061088c565b600091505061088c56fe456e756d657261626c655365743a20696e646578206f7574206f6620626f756e6473416363657373436f6e74726f6c3a2073656e646572206d75737420626520616e2061646d696e20746f206772616e74416363657373436f6e74726f6c3a2073656e646572206d75737420626520616e2061646d696e20746f207265766f6b65496e697469616c697a61626c653a20636f6e747261637420697320616c726561647920696e697469616c697a6564536166654d6174683a206d756c7469706c69636174696f6e206f766572666c6f7765d7a28e3265b37a6474929f336521b332c1681b933f6cb9f3376673440d862a416363657373436f6e74726f6c3a2063616e206f6e6c792072656e6f756e636520726f6c657320666f722073656c66a264697066735822122003e0118f8fc11587b788a128148ae64c9943c44ca08cbaceae1f5a9931963c2a64736f6c63430007060033",
  "immutableReferences": {},
  "source": "// SPDX-License-Identifier: UNLICENSED\npragma solidity >=0.7.0;\n\nimport \"@openzeppelin/contracts-upgradeable/math/SafeMathUpgradeable.sol\";\nimport \"@openzeppelin/contracts-upgradeable/access/AccessControlUpgradeable.sol\";\nimport \"@openzeppelin/contracts-upgradeable/utils/PausableUpgradeable.sol\";\nimport \"./interfaces/ISTokensV2.sol\";\nimport \"./interfaces/IUTokensV2.sol\";\nimport \"./interfaces/ILiquidStakingV2.sol\";\nimport \"./libraries/FullMath.sol\";\n\ncontract LiquidStakingV2 is\n\tILiquidStakingV2,\n\tPausableUpgradeable,\n\tAccessControlUpgradeable\n{\n\tusing SafeMathUpgradeable for uint256;\n\tusing FullMath for uint256;\n\n\t//Private instances of contracts to handle Utokens and Stokens\n\tIUTokensV2 public _uTokens;\n\tISTokensV2 public _sTokens;\n\n\t// defining the fees and minimum values\n\tuint256 private _minStake;\n\tuint256 private _minUnstake;\n\tuint256 private _stakeFee;\n\tuint256 private _unstakeFee;\n\tuint256 public _valueDivisor;\n\n\t// constants defining access control ROLES\n\tbytes32 public constant PAUSER_ROLE = keccak256(\"PAUSER_ROLE\");\n\n\t// variables pertaining to unbonding logic\n\tuint256 private _unstakingLockTime;\n\tuint256 private _epochInterval;\n\tuint256 private _unstakeEpoch;\n\tuint256 private _unstakeEpochPrevious;\n\n\t//Mapping to handle the Expiry period\n\tmapping(address => uint256[]) public _unstakingExpiration;\n\n\t//Mapping to handle the Expiry amount\n\tmapping(address => uint256[]) public _unstakingAmount;\n\n\t//mappint to handle a counter variable indicating from what index to start the loop.\n\tmapping(address => uint256) public _withdrawCounters;\n\n\t// variable pertaining to contract upgrades versioning\n\tuint256 public _version;\n\n\t/**\n\t * @dev Constructor for initializing the LiquidStaking contract.\n\t * @param uAddress - address of the UToken contract.\n\t * @param sAddress - address of the SToken contract.\n\t * @param pauserAddress - address of the pauser admin.\n\t * @param unstakingLockTime - varies from 21 hours to 21 days.\n\t * @param epochInterval - varies from 3 hours to 3 days.\n\t * @param valueDivisor - valueDivisor set to 10^9.\n\t */\n\tfunction initialize(\n\t\taddress uAddress,\n\t\taddress sAddress,\n\t\taddress pauserAddress,\n\t\tuint256 unstakingLockTime,\n\t\tuint256 epochInterval,\n\t\tuint256 valueDivisor\n\t) public virtual initializer {\n\t\t__AccessControl_init();\n\t\t__Pausable_init();\n\t\t_setupRole(DEFAULT_ADMIN_ROLE, _msgSender());\n\t\t_setupRole(PAUSER_ROLE, pauserAddress);\n\t\tsetUTokensContract(uAddress);\n\t\tsetSTokensContract(sAddress);\n\t\tsetUnstakingLockTime(unstakingLockTime);\n\t\tsetMinimumValues(1, 1);\n\t\t_valueDivisor = valueDivisor;\n\t\tsetUnstakeEpoch(block.timestamp, block.timestamp, epochInterval);\n\t}\n\n\t/**\n\t * @dev Set 'fees', called from admin\n\t * @param stakeFee: stake fee\n\t * @param unstakeFee: unstake fee\n\t *\n\t * Emits a {SetFees} event with 'fee' set to the stake and unstake.\n\t *\n\t */\n\tfunction setFees(uint256 stakeFee, uint256 unstakeFee)\n\t\tpublic\n\t\tvirtual\n\t\toverride\n\t\treturns (bool success)\n\t{\n\t\trequire(hasRole(DEFAULT_ADMIN_ROLE, _msgSender()), \"LQ1\");\n\t\t// range checks for fees. Since fee cannot be more than 100%, the max cap\n\t\t// is _valueDivisor * 100, which then brings the fees to 100 (percentage)\n\t\trequire(\n\t\t\t(stakeFee <= _valueDivisor.mul(100) || stakeFee == 0) &&\n\t\t\t\t(unstakeFee <= _valueDivisor.mul(100) || unstakeFee == 0),\n\t\t\t\"LQ2\"\n\t\t);\n\t\t_stakeFee = stakeFee;\n\t\t_unstakeFee = unstakeFee;\n\t\temit SetFees(stakeFee, unstakeFee);\n\t\treturn true;\n\t}\n\n\t/**\n\t * @dev Set 'unstake props', called from admin\n\t * @param unstakingLockTime: varies from 21 hours to 21 days\n\t *\n\t * Emits a {SetUnstakeProps} event with 'fee' set to the stake and unstake.\n\t *\n\t */\n\tfunction setUnstakingLockTime(uint256 unstakingLockTime)\n\t\tpublic\n\t\tvirtual\n\t\toverride\n\t\treturns (bool success)\n\t{\n\t\trequire(hasRole(DEFAULT_ADMIN_ROLE, _msgSender()), \"LQ3\");\n\t\t_unstakingLockTime = unstakingLockTime;\n\t\temit SetUnstakingLockTime(unstakingLockTime);\n\t\treturn true;\n\t}\n\n\t/**\n\t * @dev get fees, min values, value divisor and epoch props\n\t *\n\t */\n\tfunction getStakeUnstakeProps()\n\t\tpublic\n\t\tview\n\t\tvirtual\n\t\toverride\n\t\treturns (\n\t\t\tuint256 stakeFee,\n\t\t\tuint256 unstakeFee,\n\t\t\tuint256 minStake,\n\t\t\tuint256 minUnstake,\n\t\t\tuint256 valueDivisor,\n\t\t\tuint256 epochInterval,\n\t\t\tuint256 unstakeEpoch,\n\t\t\tuint256 unstakeEpochPrevious,\n\t\t\tuint256 unstakingLockTime\n\t\t)\n\t{\n\t\tstakeFee = _stakeFee;\n\t\tunstakeFee = _unstakeFee;\n\t\tminStake = _minStake;\n\t\tminUnstake = _minStake;\n\t\tvalueDivisor = _valueDivisor;\n\t\tepochInterval = _epochInterval;\n\t\tunstakeEpoch = _unstakeEpoch;\n\t\tunstakeEpochPrevious = _unstakeEpochPrevious;\n\t\tunstakingLockTime = _unstakingLockTime;\n\t}\n\n\t/**\n\t * @dev Set 'minimum values', called from admin\n\t * @param minStake: stake minimum value\n\t * @param minUnstake: unstake minimum value\n\t *\n\t * Emits a {SetMinimumValues} event with 'minimum value' set to the stake and unstake.\n\t *\n\t */\n\tfunction setMinimumValues(uint256 minStake, uint256 minUnstake)\n\t\tpublic\n\t\tvirtual\n\t\toverride\n\t\treturns (bool success)\n\t{\n\t\trequire(hasRole(DEFAULT_ADMIN_ROLE, _msgSender()), \"LQ4\");\n\t\trequire(minStake >= 1, \"LQ5\");\n\t\trequire(minUnstake >= 1, \"LQ6\");\n\t\t_minStake = minStake;\n\t\t_minUnstake = minUnstake;\n\t\temit SetMinimumValues(minStake, minUnstake);\n\t\treturn true;\n\t}\n\n\t/**\n\t * @dev Set 'unstake epoch', called from admin\n\t * @param unstakeEpoch: unstake epoch\n\t * @param unstakeEpochPrevious: unstake epoch previous(initially set to same value as unstakeEpoch)\n\t * @param epochInterval: varies from 3 hours to 3 days\n\t *\n\t * Emits a {SetUnstakeEpoch} event with 'unstakeEpoch'\n\t *\n\t */\n\tfunction setUnstakeEpoch(\n\t\tuint256 unstakeEpoch,\n\t\tuint256 unstakeEpochPrevious,\n\t\tuint256 epochInterval\n\t) public virtual override returns (bool success) {\n\t\trequire(hasRole(DEFAULT_ADMIN_ROLE, _msgSender()), \"LQ7\");\n\t\trequire(unstakeEpochPrevious <= unstakeEpoch, \"LQ8\");\n\t\t// require((unstakeEpoch == 0 && unstakeEpochPrevious == 0 && epochInterval == 0) || (unstakeEpoch != 0 && unstakeEpochPrevious != 0 && epochInterval != 0), \"LQ9\");\n\t\tif (unstakeEpoch == 0 && epochInterval != 0) revert(\"LQ9\");\n\t\t_unstakeEpoch = unstakeEpoch;\n\t\t_unstakeEpochPrevious = unstakeEpochPrevious;\n\t\t_epochInterval = epochInterval;\n\t\temit SetUnstakeEpoch(unstakeEpoch, unstakeEpochPrevious, epochInterval);\n\t\treturn true;\n\t}\n\n\t/**\n\t * @dev Set 'contract address', called from constructor\n\t * @param uAddress: utoken contract address\n\t *\n\t * Emits a {SetUTokensContract} event with '_contract' set to the utoken contract address.\n\t *\n\t */\n\tfunction setUTokensContract(address uAddress) public virtual override {\n\t\trequire(hasRole(DEFAULT_ADMIN_ROLE, _msgSender()), \"LQ10\");\n\t\t_uTokens = IUTokensV2(uAddress);\n\t\temit SetUTokensContract(uAddress);\n\t}\n\n\t/**\n\t * @dev Set 'contract address', called from constructor\n\t * @param sAddress: stoken contract address\n\t *\n\t * Emits a {SetSTokensContract} event with '_contract' set to the stoken contract address.\n\t *\n\t */\n\tfunction setSTokensContract(address sAddress) public virtual override {\n\t\trequire(hasRole(DEFAULT_ADMIN_ROLE, _msgSender()), \"LQ11\");\n\t\t_sTokens = ISTokensV2(sAddress);\n\t\temit SetSTokensContract(sAddress);\n\t}\n\n\t/**\n\t * @dev Stake utokens over the platform with address 'to' for desired 'amount'(Burn uTokens and Mint sTokens)\n\t * @param to: user address for staking, amount: number of tokens to stake\n\t *\n\t *\n\t * Requirements:\n\t *\n\t * - `amount` cannot be less than zero.\n\t * - 'amount' cannot be more than balance\n\t * - 'amount' plus new balance should be equal to the old balance\n\t */\n\tfunction stake(address to, uint256 amount)\n\t\tpublic\n\t\tvirtual\n\t\toverride\n\t\twhenNotPaused\n\t\treturns (bool)\n\t{\n\t\t// Check the supplied amount is greater than minimum stake value\n\t\trequire(to == _msgSender(), \"LQ12\");\n\t\t// Check the current balance for uTokens is greater than the amount to be staked\n\t\tuint256 _currentUTokenBalance = _uTokens.balanceOf(to);\n\t\tuint256 _stakeFeeAmount = (amount.mulDiv(_stakeFee, _valueDivisor)).div(\n\t\t\t100\n\t\t);\n\t\tuint256 _finalTokens = amount.add(_stakeFeeAmount);\n\t\t// the value which should be greater than or equal to _minStake\n\t\t// is amount since minval applies to number of sTokens to be minted\n\t\trequire(amount >= _minStake, \"LQ13\");\n\t\trequire(_currentUTokenBalance >= _finalTokens, \"LQ14\");\n\t\temit StakeTokens(to, amount, _finalTokens, block.timestamp);\n\t\t// Burn the uTokens as specified with the amount\n\t\t_uTokens.burn(to, _finalTokens);\n\t\t// Mint the sTokens for the account specified\n\t\t_sTokens.mint(to, amount);\n\t\treturn true;\n\t}\n\n\t/**\n\t * @dev UnStake stokens over the platform with address 'to' for desired 'amount' (Burn sTokens and Mint uTokens with 21 days locking period)\n\t * @param to: user address for staking, amount: number of tokens to unstake\n\t *\n\t *\n\t * Requirements:\n\t *\n\t * - `amount` cannot be less than zero.\n\t * - 'amount' cannot be more than balance\n\t * - 'amount' plus new balance should be equal to the old balance\n\t */\n\tfunction unStake(address to, uint256 amount)\n\t\tpublic\n\t\tvirtual\n\t\toverride\n\t\twhenNotPaused\n\t\treturns (bool)\n\t{\n\t\t// Check the supplied amount is greater than 0\n\t\trequire(to == _msgSender(), \"LQ15\");\n\t\t// require(_unstakeEpoch!=0 && _unstakeEpochPrevious!=0, \"LQ16\");\n\t\t// Check the current balance for sTokens is greater than the amount to be unStaked\n\t\tuint256 _currentSTokenBalance = _sTokens.balanceOf(to);\n\t\tuint256 _unstakeFeeAmount = (amount.mulDiv(_unstakeFee, _valueDivisor))\n\t\t\t.div(100);\n\t\tuint256 _finalTokens = amount.add(_unstakeFeeAmount);\n\t\t// the value which should be greater than or equal to _minSUnstake\n\t\t// is amount since minval applies to number of uTokens to be withdrawn\n\t\trequire(amount >= _minUnstake, \"LQ18\");\n\t\trequire(_currentSTokenBalance >= _finalTokens, \"LQ19\");\n\t\t// Burn the sTokens as specified with the amount\n\t\t_sTokens.burn(to, _finalTokens);\n\t\t_unstakingExpiration[to].push(block.timestamp);\n\t\t// array will hold amount and not _finalTokens because that is the amount of\n\t\t// uTokens pending to be credited after withdraw period\n\t\t_unstakingAmount[to].push(amount);\n\t\t// the event needs to capture _finalTokens that were and not amount\n\t\temit UnstakeTokens(to, amount, _finalTokens, block.timestamp);\n\n\t\treturn true;\n\t}\n\n\t/**\n\t * @dev returns the nearest epoch milestone in the future\n\t */\n\tfunction getUnstakeEpochMilestone(uint256 _unstakeTimestamp)\n\t\tpublic\n\t\tview\n\t\tvirtual\n\t\toverride\n\t\treturns (uint256 unstakeEpochMilestone)\n\t{\n\t\tif (_unstakeTimestamp == 0) return 0;\n\t\t// if epoch values are not relevant, then the epoch milestone is the unstake timestamp itself (backward compatibility)\n\t\tif (\n\t\t\t(_unstakeEpoch == 0 && _unstakeEpochPrevious == 0) ||\n\t\t\t_epochInterval == 0\n\t\t) return _unstakeTimestamp;\n\t\tif (_unstakeEpoch > _unstakeTimestamp) return (_unstakeEpoch);\n\t\tuint256 _referenceStartTime = (_unstakeTimestamp).add(\n\t\t\t_unstakeEpoch.sub(_unstakeEpochPrevious)\n\t\t);\n\t\tuint256 _timeDiff = _referenceStartTime.sub(_unstakeEpoch);\n\t\tunstakeEpochMilestone = (_timeDiff.mod(_epochInterval)).add(\n\t\t\t_referenceStartTime\n\t\t);\n\t\treturn (unstakeEpochMilestone);\n\t}\n\n\t/**\n\t * @dev returns the time left for unbonding to finish\n\t */\n\tfunction getUnstakeTime(uint256 _unstakeTimestamp)\n\t\tpublic\n\t\tview\n\t\tvirtual\n\t\toverride\n\t\treturns (\n\t\t\tuint256 unstakeTime,\n\t\t\tuint256 unstakeEpoch,\n\t\t\tuint256 unstakeEpochPrevious\n\t\t)\n\t{\n\t\tuint256 _unstakeEpochMilestone = getUnstakeEpochMilestone(\n\t\t\t_unstakeTimestamp\n\t\t);\n\t\tif (_unstakeEpochMilestone == 0)\n\t\t\treturn (0, unstakeEpoch, unstakeEpochPrevious);\n\t\tunstakeEpoch = _unstakeEpoch;\n\t\tunstakeEpochPrevious = _unstakeEpochPrevious;\n\t\t//adding unstakingLockTime with epoch difference\n\t\tunstakeTime = _unstakeEpochMilestone.add(_unstakingLockTime);\n\t\treturn (unstakeTime, unstakeEpoch, unstakeEpochPrevious);\n\t}\n\n\t/**\n\t * @dev Lock the unstaked tokens for 21 days, user can withdraw the same (Mint uTokens with 21 days locking period)\n\t *\n\t * @param staker: user address for withdraw\n\t *\n\t * Requirements:\n\t *\n\t * - `current block timestamp` should be after 21 days from the period where unstaked function is called.\n\t */\n\tfunction withdrawUnstakedTokens(address staker)\n\t\tpublic\n\t\tvirtual\n\t\toverride\n\t\twhenNotPaused\n\t{\n\t\trequire(staker == _msgSender(), \"LQ20\");\n\t\tuint256 _withdrawBalance;\n\t\tuint256 _unstakingExpirationLength = _unstakingExpiration[staker]\n\t\t\t.length;\n\t\tuint256 _counter = _withdrawCounters[staker];\n\t\tfor (\n\t\t\tuint256 i = _counter;\n\t\t\ti < _unstakingExpirationLength;\n\t\t\ti = i.add(1)\n\t\t) {\n\t\t\t//get getUnstakeTime and compare it with current timestamp to check if 21 days + epoch difference has passed\n\t\t\t(uint256 _getUnstakeTime, , ) = getUnstakeTime(\n\t\t\t\t_unstakingExpiration[staker][i]\n\t\t\t);\n\t\t\tif (block.timestamp >= _getUnstakeTime) {\n\t\t\t\t//if 21 days + epoch difference has passed, then add the balance and then mint uTokens\n\t\t\t\t_withdrawBalance = _withdrawBalance.add(\n\t\t\t\t\t_unstakingAmount[staker][i]\n\t\t\t\t);\n\t\t\t\t_unstakingExpiration[staker][i] = 0;\n\t\t\t\t_unstakingAmount[staker][i] = 0;\n\t\t\t\t_withdrawCounters[staker] = _withdrawCounters[staker].add(1);\n\t\t\t}\n\t\t}\n\n\t\trequire(_withdrawBalance > 0, \"LQ21\");\n\t\temit WithdrawUnstakeTokens(staker, _withdrawBalance, block.timestamp);\n\t\t_uTokens.mint(staker, _withdrawBalance);\n\t}\n\n\t/**\n\t * @dev get Total Unbonded Tokens\n\t * @param staker: account address\n\t *\n\t */\n\tfunction getTotalUnbondedTokens(address staker)\n\t\tpublic\n\t\tview\n\t\tvirtual\n\t\toverride\n\t\treturns (uint256 unbondingTokens)\n\t{\n\t\tuint256 _unstakingExpirationLength = _unstakingExpiration[staker]\n\t\t\t.length;\n\t\tuint256 _counter = _withdrawCounters[staker];\n\t\tfor (\n\t\t\tuint256 i = _counter;\n\t\t\ti < _unstakingExpirationLength;\n\t\t\ti = i.add(1)\n\t\t) {\n\t\t\t//get getUnstakeTime and compare it with current timestamp to check if 21 days + epoch difference has passed\n\t\t\t(uint256 _getUnstakeTime, , ) = getUnstakeTime(\n\t\t\t\t_unstakingExpiration[staker][i]\n\t\t\t);\n\t\t\tif (block.timestamp >= _getUnstakeTime) {\n\t\t\t\t//if 21 days + epoch difference has passed, then check the token amount and send back\n\t\t\t\tunbondingTokens = unbondingTokens.add(\n\t\t\t\t\t_unstakingAmount[staker][i]\n\t\t\t\t);\n\t\t\t}\n\t\t}\n\t\treturn unbondingTokens;\n\t}\n\n\t/**\n\t * @dev get Total Unbonding Tokens\n\t * @param staker: account address\n\t *\n\t */\n\tfunction getTotalUnbondingTokens(address staker)\n\t\tpublic\n\t\tview\n\t\tvirtual\n\t\toverride\n\t\treturns (uint256 unbondingTokens)\n\t{\n\t\tuint256 _unstakingExpirationLength = _unstakingExpiration[staker]\n\t\t\t.length;\n\t\tuint256 _counter = _withdrawCounters[staker];\n\t\tfor (\n\t\t\tuint256 i = _counter;\n\t\t\ti < _unstakingExpirationLength;\n\t\t\ti = i.add(1)\n\t\t) {\n\t\t\t//get getUnstakeTime and compare it with current timestamp to check if 21 days + epoch difference has passed\n\t\t\t(uint256 _getUnstakeTime, , ) = getUnstakeTime(\n\t\t\t\t_unstakingExpiration[staker][i]\n\t\t\t);\n\t\t\tif (block.timestamp < _getUnstakeTime) {\n\t\t\t\t//if 21 days + epoch difference have not passed, then check the token amount and send back\n\t\t\t\tunbondingTokens = unbondingTokens.add(\n\t\t\t\t\t_unstakingAmount[staker][i]\n\t\t\t\t);\n\t\t\t}\n\t\t}\n\t\treturn unbondingTokens;\n\t}\n\n\t/**\n\t * @dev Triggers stopped state.\n\t *\n\t * Requirements:\n\t *\n\t * - The contract must not be paused.\n\t */\n\tfunction pause() public virtual override returns (bool success) {\n\t\trequire(hasRole(PAUSER_ROLE, _msgSender()), \"LQ22\");\n\t\t_pause();\n\t\treturn true;\n\t}\n\n\t/**\n\t * @dev Returns to normal state.\n\t *\n\t * Requirements:\n\t *\n\t * - The contract must be paused.\n\t */\n\tfunction unpause() public virtual override returns (bool success) {\n\t\trequire(hasRole(PAUSER_ROLE, _msgSender()), \"LQ23\");\n\t\t_unpause();\n\t\treturn true;\n\t}\n}\n",
  "sourcePath": "C:\\Users\\Kamlesh\\Persistence\\pStake\\codebase\\pStake-smartContracts\\contracts\\LiquidStakingV2.sol",
  "compiler": {
    "name": "solc",
    "version": "0.7.6+commit.7338295f.Emscripten.clang"
  },
  "schemaVersion": "3.4.3",
  "updatedAt": "2021-09-09T13:03:35.483Z",
  "devdoc": {
    "kind": "dev",
    "methods": {
      "getRoleAdmin(bytes32)": {
        "details": "Returns the admin role that controls `role`. See {grantRole} and {revokeRole}. To change a role's admin, use {_setRoleAdmin}."
      },
      "getRoleMember(bytes32,uint256)": {
        "details": "Returns one of the accounts that have `role`. `index` must be a value between 0 and {getRoleMemberCount}, non-inclusive. Role bearers are not sorted in any particular way, and their ordering may change at any point. WARNING: When using {getRoleMember} and {getRoleMemberCount}, make sure you perform all queries on the same block. See the following https://forum.openzeppelin.com/t/iterating-over-elements-on-enumerableset-in-openzeppelin-contracts/2296[forum post] for more information."
      },
      "getRoleMemberCount(bytes32)": {
        "details": "Returns the number of accounts that have `role`. Can be used together with {getRoleMember} to enumerate all bearers of a role."
      },
      "getStakeUnstakeProps()": {
        "details": "get fees, min values, value divisor and epoch props"
      },
      "getTotalUnbondedTokens(address)": {
        "details": "get Total Unbonded Tokens",
        "params": {
          "staker": ": account address"
        }
      },
      "getTotalUnbondingTokens(address)": {
        "details": "get Total Unbonding Tokens",
        "params": {
          "staker": ": account address"
        }
      },
      "getUnstakeEpochMilestone(uint256)": {
        "details": "returns the nearest epoch milestone in the future"
      },
      "getUnstakeTime(uint256)": {
        "details": "returns the time left for unbonding to finish"
      },
      "grantRole(bytes32,address)": {
        "details": "Grants `role` to `account`. If `account` had not been already granted `role`, emits a {RoleGranted} event. Requirements: - the caller must have ``role``'s admin role."
      },
      "hasRole(bytes32,address)": {
        "details": "Returns `true` if `account` has been granted `role`."
      },
      "initialize(address,address,address,uint256,uint256,uint256)": {
        "details": "Constructor for initializing the LiquidStaking contract.",
        "params": {
          "epochInterval": "- varies from 3 hours to 3 days.",
          "pauserAddress": "- address of the pauser admin.",
          "sAddress": "- address of the SToken contract.",
          "uAddress": "- address of the UToken contract.",
          "unstakingLockTime": "- varies from 21 hours to 21 days.",
          "valueDivisor": "- valueDivisor set to 10^9."
        }
      },
      "pause()": {
        "details": "Triggers stopped state. Requirements: - The contract must not be paused."
      },
      "paused()": {
        "details": "Returns true if the contract is paused, and false otherwise."
      },
      "renounceRole(bytes32,address)": {
        "details": "Revokes `role` from the calling account. Roles are often managed via {grantRole} and {revokeRole}: this function's purpose is to provide a mechanism for accounts to lose their privileges if they are compromised (such as when a trusted device is misplaced). If the calling account had been granted `role`, emits a {RoleRevoked} event. Requirements: - the caller must be `account`."
      },
      "revokeRole(bytes32,address)": {
        "details": "Revokes `role` from `account`. If `account` had been granted `role`, emits a {RoleRevoked} event. Requirements: - the caller must have ``role``'s admin role."
      },
      "setFees(uint256,uint256)": {
        "details": "Set 'fees', called from admin",
        "params": {
          "stakeFee": ": stake fee",
          "unstakeFee": ": unstake fee Emits a {SetFees} event with 'fee' set to the stake and unstake."
        }
      },
      "setMinimumValues(uint256,uint256)": {
        "details": "Set 'minimum values', called from admin",
        "params": {
          "minStake": ": stake minimum value",
          "minUnstake": ": unstake minimum value Emits a {SetMinimumValues} event with 'minimum value' set to the stake and unstake."
        }
      },
      "setSTokensContract(address)": {
        "details": "Set 'contract address', called from constructor",
        "params": {
          "sAddress": ": stoken contract address Emits a {SetSTokensContract} event with '_contract' set to the stoken contract address."
        }
      },
      "setUTokensContract(address)": {
        "details": "Set 'contract address', called from constructor",
        "params": {
          "uAddress": ": utoken contract address Emits a {SetUTokensContract} event with '_contract' set to the utoken contract address."
        }
      },
      "setUnstakeEpoch(uint256,uint256,uint256)": {
        "details": "Set 'unstake epoch', called from admin",
        "params": {
          "epochInterval": ": varies from 3 hours to 3 days Emits a {SetUnstakeEpoch} event with 'unstakeEpoch'",
          "unstakeEpoch": ": unstake epoch",
          "unstakeEpochPrevious": ": unstake epoch previous(initially set to same value as unstakeEpoch)"
        }
      },
      "setUnstakingLockTime(uint256)": {
        "details": "Set 'unstake props', called from admin",
        "params": {
          "unstakingLockTime": ": varies from 21 hours to 21 days Emits a {SetUnstakeProps} event with 'fee' set to the stake and unstake."
        }
      },
      "stake(address,uint256)": {
        "details": "Stake utokens over the platform with address 'to' for desired 'amount'(Burn uTokens and Mint sTokens)",
        "params": {
          "to": ": user address for staking, amount: number of tokens to stake Requirements: - `amount` cannot be less than zero. - 'amount' cannot be more than balance - 'amount' plus new balance should be equal to the old balance"
        }
      },
      "unStake(address,uint256)": {
        "details": "UnStake stokens over the platform with address 'to' for desired 'amount' (Burn sTokens and Mint uTokens with 21 days locking period)",
        "params": {
          "to": ": user address for staking, amount: number of tokens to unstake Requirements: - `amount` cannot be less than zero. - 'amount' cannot be more than balance - 'amount' plus new balance should be equal to the old balance"
        }
      },
      "unpause()": {
        "details": "Returns to normal state. Requirements: - The contract must be paused."
      },
      "withdrawUnstakedTokens(address)": {
        "details": "Lock the unstaked tokens for 21 days, user can withdraw the same (Mint uTokens with 21 days locking period)",
        "params": {
          "staker": ": user address for withdraw Requirements: - `current block timestamp` should be after 21 days from the period where unstaked function is called."
        }
      }
    },
    "version": 1
  },
  "userdoc": {
    "kind": "user",
    "methods": {},
    "version": 1
  }
}