{
  "contractName": "StakeLPCoreV2",
  "abi": [
    {
      "anonymous": false,
      "inputs": [
        {
          "indexed": false,
          "internalType": "address",
          "name": "lpToken",
          "type": "address"
        },
        {
          "indexed": false,
          "internalType": "uint256",
          "name": "amount",
          "type": "uint256"
        },
        {
          "indexed": false,
          "internalType": "uint256",
          "name": "rewards",
          "type": "uint256"
        },
        {
          "indexed": false,
          "internalType": "uint256",
          "name": "liquidity",
          "type": "uint256"
        }
      ],
      "name": "AddLiquidity",
      "type": "event"
    },
    {
      "anonymous": false,
      "inputs": [
        {
          "indexed": true,
          "internalType": "address",
          "name": "holderAddress",
          "type": "address"
        },
        {
          "indexed": true,
          "internalType": "address",
          "name": "lpToken",
          "type": "address"
        },
        {
          "indexed": false,
          "internalType": "uint256",
          "name": "amount",
          "type": "uint256"
        },
        {
          "indexed": true,
          "internalType": "address",
          "name": "to",
          "type": "address"
        },
        {
          "indexed": false,
          "internalType": "uint256",
          "name": "liquidity",
          "type": "uint256"
        },
        {
          "indexed": false,
          "internalType": "uint256",
          "name": "reward",
          "type": "uint256"
        }
      ],
      "name": "CalculateRewardsAndLiquidity",
      "type": "event"
    },
    {
      "anonymous": false,
      "inputs": [
        {
          "indexed": false,
          "internalType": "address",
          "name": "account",
          "type": "address"
        }
      ],
      "name": "Paused",
      "type": "event"
    },
    {
      "anonymous": false,
      "inputs": [
        {
          "indexed": false,
          "internalType": "address",
          "name": "lpToken",
          "type": "address"
        },
        {
          "indexed": false,
          "internalType": "uint256",
          "name": "amount",
          "type": "uint256"
        },
        {
          "indexed": false,
          "internalType": "uint256",
          "name": "rewards",
          "type": "uint256"
        },
        {
          "indexed": false,
          "internalType": "uint256",
          "name": "liquidity",
          "type": "uint256"
        }
      ],
      "name": "RemoveLiquidity",
      "type": "event"
    },
    {
      "anonymous": false,
      "inputs": [
        {
          "indexed": true,
          "internalType": "bytes32",
          "name": "role",
          "type": "bytes32"
        },
        {
          "indexed": true,
          "internalType": "bytes32",
          "name": "previousAdminRole",
          "type": "bytes32"
        },
        {
          "indexed": true,
          "internalType": "bytes32",
          "name": "newAdminRole",
          "type": "bytes32"
        }
      ],
      "name": "RoleAdminChanged",
      "type": "event"
    },
    {
      "anonymous": false,
      "inputs": [
        {
          "indexed": true,
          "internalType": "bytes32",
          "name": "role",
          "type": "bytes32"
        },
        {
          "indexed": true,
          "internalType": "address",
          "name": "account",
          "type": "address"
        },
        {
          "indexed": true,
          "internalType": "address",
          "name": "sender",
          "type": "address"
        }
      ],
      "name": "RoleGranted",
      "type": "event"
    },
    {
      "anonymous": false,
      "inputs": [
        {
          "indexed": true,
          "internalType": "bytes32",
          "name": "role",
          "type": "bytes32"
        },
        {
          "indexed": true,
          "internalType": "address",
          "name": "account",
          "type": "address"
        },
        {
          "indexed": true,
          "internalType": "address",
          "name": "sender",
          "type": "address"
        }
      ],
      "name": "RoleRevoked",
      "type": "event"
    },
    {
      "anonymous": false,
      "inputs": [
        {
          "indexed": true,
          "internalType": "address",
          "name": "_contract",
          "type": "address"
        }
      ],
      "name": "SetPSTAKEContract",
      "type": "event"
    },
    {
      "anonymous": false,
      "inputs": [
        {
          "indexed": true,
          "internalType": "address",
          "name": "_contract",
          "type": "address"
        }
      ],
      "name": "SetSTokensContract",
      "type": "event"
    },
    {
      "anonymous": false,
      "inputs": [
        {
          "indexed": true,
          "internalType": "address",
          "name": "_contract",
          "type": "address"
        }
      ],
      "name": "SetUTokensContract",
      "type": "event"
    },
    {
      "anonymous": false,
      "inputs": [
        {
          "indexed": false,
          "internalType": "address",
          "name": "account",
          "type": "address"
        }
      ],
      "name": "Unpaused",
      "type": "event"
    },
    {
      "inputs": [],
      "name": "DEFAULT_ADMIN_ROLE",
      "outputs": [
        {
          "internalType": "bytes32",
          "name": "",
          "type": "bytes32"
        }
      ],
      "stateMutability": "view",
      "type": "function"
    },
    {
      "inputs": [],
      "name": "PAUSER_ROLE",
      "outputs": [
        {
          "internalType": "bytes32",
          "name": "",
          "type": "bytes32"
        }
      ],
      "stateMutability": "view",
      "type": "function"
    },
    {
      "inputs": [
        {
          "internalType": "bytes32",
          "name": "role",
          "type": "bytes32"
        }
      ],
      "name": "getRoleAdmin",
      "outputs": [
        {
          "internalType": "bytes32",
          "name": "",
          "type": "bytes32"
        }
      ],
      "stateMutability": "view",
      "type": "function"
    },
    {
      "inputs": [
        {
          "internalType": "bytes32",
          "name": "role",
          "type": "bytes32"
        },
        {
          "internalType": "uint256",
          "name": "index",
          "type": "uint256"
        }
      ],
      "name": "getRoleMember",
      "outputs": [
        {
          "internalType": "address",
          "name": "",
          "type": "address"
        }
      ],
      "stateMutability": "view",
      "type": "function"
    },
    {
      "inputs": [
        {
          "internalType": "bytes32",
          "name": "role",
          "type": "bytes32"
        }
      ],
      "name": "getRoleMemberCount",
      "outputs": [
        {
          "internalType": "uint256",
          "name": "",
          "type": "uint256"
        }
      ],
      "stateMutability": "view",
      "type": "function"
    },
    {
      "inputs": [
        {
          "internalType": "bytes32",
          "name": "role",
          "type": "bytes32"
        },
        {
          "internalType": "address",
          "name": "account",
          "type": "address"
        }
      ],
      "name": "grantRole",
      "outputs": [],
      "stateMutability": "nonpayable",
      "type": "function"
    },
    {
      "inputs": [
        {
          "internalType": "bytes32",
          "name": "role",
          "type": "bytes32"
        },
        {
          "internalType": "address",
          "name": "account",
          "type": "address"
        }
      ],
      "name": "hasRole",
      "outputs": [
        {
          "internalType": "bool",
          "name": "",
          "type": "bool"
        }
      ],
      "stateMutability": "view",
      "type": "function"
    },
    {
      "inputs": [],
      "name": "paused",
      "outputs": [
        {
          "internalType": "bool",
          "name": "",
          "type": "bool"
        }
      ],
      "stateMutability": "view",
      "type": "function"
    },
    {
      "inputs": [
        {
          "internalType": "bytes32",
          "name": "role",
          "type": "bytes32"
        },
        {
          "internalType": "address",
          "name": "account",
          "type": "address"
        }
      ],
      "name": "renounceRole",
      "outputs": [],
      "stateMutability": "nonpayable",
      "type": "function"
    },
    {
      "inputs": [
        {
          "internalType": "bytes32",
          "name": "role",
          "type": "bytes32"
        },
        {
          "internalType": "address",
          "name": "account",
          "type": "address"
        }
      ],
      "name": "revokeRole",
      "outputs": [],
      "stateMutability": "nonpayable",
      "type": "function"
    },
    {
      "inputs": [
        {
          "internalType": "address",
          "name": "uAddress",
          "type": "address"
        },
        {
          "internalType": "address",
          "name": "sAddress",
          "type": "address"
        },
        {
          "internalType": "address",
          "name": "pStakeAddress",
          "type": "address"
        },
        {
          "internalType": "address",
          "name": "pauserAddress",
          "type": "address"
        }
      ],
      "name": "initialize",
      "outputs": [],
      "stateMutability": "nonpayable",
      "type": "function"
    },
    {
      "inputs": [
        {
          "internalType": "address",
          "name": "lpToken",
          "type": "address"
        },
        {
          "internalType": "address",
          "name": "to",
          "type": "address"
        }
      ],
      "name": "calculatePendingRewardsAndLiquidity",
      "outputs": [
        {
          "internalType": "uint256",
          "name": "liquidity",
          "type": "uint256"
        },
        {
          "internalType": "uint256",
          "name": "reward",
          "type": "uint256"
        },
        {
          "internalType": "uint256",
          "name": "updatedSupplyLPTimeshare",
          "type": "uint256"
        }
      ],
      "stateMutability": "view",
      "type": "function"
    },
    {
      "inputs": [
        {
          "internalType": "address",
          "name": "lpToken",
          "type": "address"
        },
        {
          "internalType": "uint256",
          "name": "amount",
          "type": "uint256"
        }
      ],
      "name": "addLiquidity",
      "outputs": [
        {
          "internalType": "uint256",
          "name": "liquidity",
          "type": "uint256"
        },
        {
          "internalType": "uint256",
          "name": "rewards",
          "type": "uint256"
        }
      ],
      "stateMutability": "nonpayable",
      "type": "function"
    },
    {
      "inputs": [
        {
          "internalType": "address",
          "name": "lpToken",
          "type": "address"
        },
        {
          "internalType": "uint256",
          "name": "amount",
          "type": "uint256"
        }
      ],
      "name": "removeLiquidity",
      "outputs": [
        {
          "internalType": "uint256",
          "name": "liquidity",
          "type": "uint256"
        },
        {
          "internalType": "uint256",
          "name": "rewards",
          "type": "uint256"
        }
      ],
      "stateMutability": "nonpayable",
      "type": "function"
    },
    {
      "inputs": [
        {
          "internalType": "address",
          "name": "uAddress",
          "type": "address"
        }
      ],
      "name": "setUTokensContract",
      "outputs": [],
      "stateMutability": "nonpayable",
      "type": "function"
    },
    {
      "inputs": [
        {
          "internalType": "address",
          "name": "sAddress",
          "type": "address"
        }
      ],
      "name": "setSTokensContract",
      "outputs": [],
      "stateMutability": "nonpayable",
      "type": "function"
    },
    {
      "inputs": [
        {
          "internalType": "address",
          "name": "pstakeAddress",
          "type": "address"
        }
      ],
      "name": "setPSTAKEContract",
      "outputs": [],
      "stateMutability": "nonpayable",
      "type": "function"
    },
    {
      "inputs": [],
      "name": "pause",
      "outputs": [
        {
          "internalType": "bool",
          "name": "success",
          "type": "bool"
        }
      ],
      "stateMutability": "nonpayable",
      "type": "function"
    },
    {
      "inputs": [],
      "name": "unpause",
      "outputs": [
        {
          "internalType": "bool",
          "name": "success",
          "type": "bool"
        }
      ],
      "stateMutability": "nonpayable",
      "type": "function"
    }
  ],
  "bytecode": "0x608060405234801561001057600080fd5b50611d8f806100206000396000f3fe608060405234801561001057600080fd5b50600436106101215760003560e01c80638456cb59116100ad578063ca15c87311610071578063ca15c87314610331578063d43e52a91461034e578063d547741f1461039a578063e63ab1e9146103c6578063f8c8765e146103ce57610121565b80638456cb591461028a5780639010d07c1461029257806391d14854146102d1578063a201ccf6146102fd578063a217fddf1461032957610121565b80632f2ff15d116100f45780632f2ff15d146101c957806336568abe146101f55780633f4ba83a14610221578063566887001461023d5780635c975abb1461028257610121565b806321bdf9e514610126578063228d9eae1461014e578063248a9ca3146101745780632e31fab8146101a3575b600080fd5b61014c6004803603602081101561013c57600080fd5b50356001600160a01b031661040c565b005b61014c6004803603602081101561016457600080fd5b50356001600160a01b031661049f565b6101916004803603602081101561018a57600080fd5b5035610530565b60408051918252519081900360200190f35b61014c600480360360208110156101b957600080fd5b50356001600160a01b0316610545565b61014c600480360360408110156101df57600080fd5b50803590602001356001600160a01b03166105d6565b61014c6004803603604081101561020b57600080fd5b50803590602001356001600160a01b031661063d565b61022961069e565b604080519115158252519081900360200190f35b6102696004803603604081101561025357600080fd5b506001600160a01b038135169060200135610702565b6040805192835260208301919091528051918290030190f35b610229610977565b610229610980565b6102b5600480360360408110156102a857600080fd5b50803590602001356109de565b604080516001600160a01b039092168252519081900360200190f35b610229600480360360408110156102e757600080fd5b50803590602001356001600160a01b03166109ff565b6102696004803603604081101561031357600080fd5b506001600160a01b038135169060200135610a17565b610191610ced565b6101916004803603602081101561034757600080fd5b5035610cf2565b61037c6004803603604081101561036457600080fd5b506001600160a01b0381358116916020013516610d09565b60408051938452602084019290925282820152519081900360600190f35b61014c600480360360408110156103b057600080fd5b50803590602001356001600160a01b0316610ef5565b610191610f4e565b61014c600480360360808110156103e457600080fd5b506001600160a01b038135811691602081013582169160408201358116916060013516610f60565b61041e600061041961105b565b6109ff565b610455576040805162461bcd60e51b81526020600482015260036024820152624c503960e81b604482015290519081900360640190fd5b609c80546001600160a01b0319166001600160a01b0383169081179091556040517ff745c285f36f88bea6af14d4d0f33dd9350cef7895216c1615b1caaee7857e0c90600090a250565b6104ac600061041961105b565b6104e6576040805162461bcd60e51b815260206004808301919091526024820152634c50313160e01b604482015290519081900360640190fd5b609e80546001600160a01b0319166001600160a01b0383169081179091556040517f2321c893a63891a056e19e865d785f953c42f766bab444a8bcabd3673cee3d1d90600090a250565b60009081526065602052604090206002015490565b610552600061041961105b565b61058c576040805162461bcd60e51b8152602060048083019190915260248201526304c5031360e41b604482015290519081900360640190fd5b609d80546001600160a01b0319166001600160a01b0383169081179091556040517fd0b9dbe26f676f4cdb02fc249c203baa0314cec79e18b4194dc862795a5de03f90600090a250565b6000828152606560205260409020600201546105f49061041961105b565b61062f5760405162461bcd60e51b815260040180806020018281038252602f815260200180611c2c602f913960400191505060405180910390fd5b610639828261105f565b5050565b61064561105b565b6001600160a01b0316816001600160a01b0316146106945760405162461bcd60e51b815260040180806020018281038252602f815260200180611d2b602f913960400191505060405180910390fd5b61063982826110c8565b60006106ba600080516020611d0b83398151915261041961105b565b6106f4576040805162461bcd60e51b815260206004808301919091526024820152634c50313360e01b604482015290519081900360640190fd5b6106fc611131565b50600190565b60008061070d610977565b15610752576040805162461bcd60e51b815260206004820152601060248201526f14185d5cd8589b194e881c185d5cd95960821b604482015290519081900360640190fd5b60008311801561076a57506001600160a01b03841615155b6107a1576040805162461bcd60e51b815260206004820152600360248201526213140d60ea1b604482015290519081900360640190fd5b609d546040805163602b82c560e11b81526001600160a01b0387811660048301528251600094859492169263c057058a926024808301939192829003018186803b1580156107ee57600080fd5b505afa158015610802573d6000803e3d6000fd5b505050506040513d604081101561081857600080fd5b508051602090910151909250905081801561083b57506001600160a01b03811615155b610872576040805162461bcd60e51b81526020600482015260036024820152624c503560e81b604482015290519081900360640190fd5b600061087c61105b565b90506108898288836111d1565b955093506108998782308961132b565b6001600160a01b038088166000908152609760209081526040808320938516835292905220546108c99087611487565b6001600160a01b03808916600081815260976020908152604080832094871683529381528382209490945590815260989092529020546109099087611487565b6001600160a01b0388166000818152609860209081526040918290209390935580519182529181018890528082018690526060810187905290517fbeb3885786d637a474cbc287c0a44587231633a077f0bd30354d5a4b18996fce9181900360800190a15050509250929050565b60335460ff1690565b600061099c600080516020611d0b83398151915261041961105b565b6109d6576040805162461bcd60e51b815260206004808301919091526024820152632628189960e11b604482015290519081900360640190fd5b6106fc6114e1565b60008281526065602052604081206109f69083611564565b90505b92915050565b60008281526065602052604081206109f69083611570565b600080610a22610977565b15610a67576040805162461bcd60e51b815260206004820152601060248201526f14185d5cd8589b194e881c185d5cd95960821b604482015290519081900360640190fd5b600083118015610a7f57506001600160a01b03841615155b610ab6576040805162461bcd60e51b815260206004820152600360248201526226281b60e91b604482015290519081900360640190fd5b609d546040805163602b82c560e11b81526001600160a01b0387811660048301528251600094859492169263c057058a926024808301939192829003018186803b158015610b0357600080fd5b505afa158015610b17573d6000803e3d6000fd5b505050506040513d6040811015610b2d57600080fd5b5080516020909101519092509050818015610b5057506001600160a01b03811615155b610b87576040805162461bcd60e51b81526020600482015260036024820152624c503560e81b604482015290519081900360640190fd5b6000610b9161105b565b6001600160a01b03808916600090815260976020908152604080832093851683529290522054909150861115610bf4576040805162461bcd60e51b8152602060048201526003602482015262098a0760eb1b604482015290519081900360640190fd5b610bff8288836111d1565b95509350610c0f8730838961132b565b6001600160a01b03808816600090815260976020908152604080832093851683529290522054610c3f9087611585565b6001600160a01b0380891660008181526097602090815260408083209487168352938152838220949094559081526098909252902054610c7f9087611585565b6001600160a01b0388166000818152609860209081526040918290209390935580519182529181018890528082018690526060810187905290517f59c3a0b60c6ab7deb62e1440c9e72441db6db7dfe514dba8cb18e60c0d896efa9181900360800190a15050509250929050565b600081565b60008181526065602052604081206109f9906115e2565b6001600160a01b038083166000818152609760209081526040808320948616808452948252808320549383526098825280832054609b8352818420958452949091528120549092839283929091908390610d6f90610d68904290611585565b84906115ed565b6001600160a01b0389166000908152609a602052604081205491925090610d9b90610d68904290611585565b6001600160a01b038a1660009081526099602052604081205491925090610dc29083611487565b9050610dce8184611585565b95508015610ee957609c54604080516370a0823160e01b815230600482015290516000926001600160a01b0316916370a08231916024808301926020929190829003018186803b158015610e2157600080fd5b505afa158015610e35573d6000803e3d6000fd5b505050506040513d6020811015610e4b57600080fd5b50519050610e5a818584611646565b609e54604080516370a0823160e01b81523060048201529051929a506000926001600160a01b03909216916370a0823191602480820192602092909190829003018186803b158015610eab57600080fd5b505afa158015610ebf573d6000803e3d6000fd5b505050506040513d6020811015610ed557600080fd5b50519050610ee4818685611646565b995050505b50505050509250925092565b600082815260656020526040902060020154610f139061041961105b565b6106945760405162461bcd60e51b8152600401808060200182810382526030815260200180611c8c6030913960400191505060405180910390fd5b600080516020611d0b83398151915281565b600054610100900460ff1680610f795750610f79611701565b80610f87575060005460ff16155b610fc25760405162461bcd60e51b815260040180806020018281038252602e815260200180611cbc602e913960400191505060405180910390fd5b600054610100900460ff16158015610fed576000805460ff1961ff0019909116610100171660011790555b610ff5611712565b610ffd6117c4565b61100f600061100a61105b565b61062f565b611027600080516020611d0b8339815191528361062f565b6110308561040c565b61103984610545565b6110428361049f565b8015611054576000805461ff00191690555b5050505050565b3390565b60008281526065602052604090206110779082611861565b156106395761108461105b565b6001600160a01b0316816001600160a01b0316837f2f8788117e7eff1d82e926ec794901d17c78024a50270940304540a733656f0d60405160405180910390a45050565b60008281526065602052604090206110e09082611876565b15610639576110ed61105b565b6001600160a01b0316816001600160a01b0316837ff6391f5c32d9c69d2a47ea670b442974b53935d1edc7fd64eb21e047a839171b60405160405180910390a45050565b611139610977565b611181576040805162461bcd60e51b815260206004820152601460248201527314185d5cd8589b194e881b9bdd081c185d5cd95960621b604482015290519081900360640190fd5b6033805460ff191690557f5db9ee0a495bf2e6ff9c91a7834c1ba4fdd244a5e8aa4e537bd38aeae4b073aa6111b461105b565b604080516001600160a01b039092168252519081900360200190a1565b60008060006111e08585610d09565b6001600160a01b038089166000818152609b60209081526040808320948c1683529381528382204290819055928252609a8152838220929092556099909152208190559194509250905082156112a657609e546040805163d1660f9960e01b81526001600160a01b03928316600482015286831660248201526044810186905290519188169163d1660f999160648082019260009290919082900301818387803b15801561128d57600080fd5b505af11580156112a1573d6000803e3d6000fd5b505050505b811561132257609c546040805163d1660f9960e01b81526001600160a01b03928316600482015286831660248201526044810185905290519188169163d1660f999160648082019260009290919082900301818387803b15801561130957600080fd5b505af115801561131d573d6000803e3d6000fd5b505050505b50935093915050565b604080516001600160a01b0385811660248301528481166044830152606480830185905283518084039091018152608490920183526020820180516001600160e01b03166323b872dd60e01b178152925182516000948594938a169392918291908083835b602083106113af5780518252601f199092019160209182019101611390565b6001836020036101000a0380198251168184511680821785525050505050509050019150506000604051808303816000865af19150503d8060008114611411576040519150601f19603f3d011682016040523d82523d6000602084013e611416565b606091505b5091509150818015611444575080511580611444575080806020019051602081101561144157600080fd5b50515b61147f5760405162461bcd60e51b8152600401808060200182810382526031815260200180611c5b6031913960400191505060405180910390fd5b505050505050565b6000828201838110156109f6576040805162461bcd60e51b815260206004820152601b60248201527f536166654d6174683a206164646974696f6e206f766572666c6f770000000000604482015290519081900360640190fd5b6114e9610977565b1561152e576040805162461bcd60e51b815260206004820152601060248201526f14185d5cd8589b194e881c185d5cd95960821b604482015290519081900360640190fd5b6033805460ff191660011790557f62e78cea01bee320cd4e420270b5ea74000d11b0c9f74754ebdbfc544b05a2586111b461105b565b60006109f6838361188b565b60006109f6836001600160a01b0384166118ef565b6000828211156115dc576040805162461bcd60e51b815260206004820152601e60248201527f536166654d6174683a207375627472616374696f6e206f766572666c6f770000604482015290519081900360640190fd5b50900390565b60006109f982611907565b6000826115fc575060006109f9565b8282028284828161160957fe5b04146109f65760405162461bcd60e51b8152600401808060200182810382526021815260200180611cea6021913960400191505060405180910390fd5b6000806000611655868661190b565b915091506000848061166357fe5b868809905082811115611677576001820391505b9182900391816116955784838161168a57fe5b0493505050506116fa565b8482106116e9576040805162461bcd60e51b815260206004820152601a60248201527f46756c6c4d6174683a2046554c4c4449565f4f564552464c4f57000000000000604482015290519081900360640190fd5b6116f4838387611938565b93505050505b9392505050565b600061170c306119a8565b15905090565b600054610100900460ff168061172b575061172b611701565b80611739575060005460ff16155b6117745760405162461bcd60e51b815260040180806020018281038252602e815260200180611cbc602e913960400191505060405180910390fd5b600054610100900460ff1615801561179f576000805460ff1961ff0019909116610100171660011790555b6117a76119ae565b6117af6119ae565b80156117c1576000805461ff00191690555b50565b600054610100900460ff16806117dd57506117dd611701565b806117eb575060005460ff16155b6118265760405162461bcd60e51b815260040180806020018281038252602e815260200180611cbc602e913960400191505060405180910390fd5b600054610100900460ff16158015611851576000805460ff1961ff0019909116610100171660011790555b6118596119ae565b6117af611a4e565b60006109f6836001600160a01b038416611af9565b60006109f6836001600160a01b038416611b43565b815460009082106118cd5760405162461bcd60e51b8152600401808060200182810382526022815260200180611c0a6022913960400191505060405180910390fd5b8260000182815481106118dc57fe5b9060005260206000200154905092915050565b60009081526001919091016020526040902054151590565b5490565b6000808060001984860990508385029250828103915082811015611930576001820391505b509250929050565b6000818103821680838161194857fe5b04925080858161195457fe5b04945080816000038161196357fe5b60028581038087028203028087028203028087028203028087028203028087028203028087028203029586029003909402930460010193909302939093010292915050565b3b151590565b600054610100900460ff16806119c757506119c7611701565b806119d5575060005460ff16155b611a105760405162461bcd60e51b815260040180806020018281038252602e815260200180611cbc602e913960400191505060405180910390fd5b600054610100900460ff161580156117af576000805460ff1961ff00199091166101001716600117905580156117c1576000805461ff001916905550565b600054610100900460ff1680611a675750611a67611701565b80611a75575060005460ff16155b611ab05760405162461bcd60e51b815260040180806020018281038252602e815260200180611cbc602e913960400191505060405180910390fd5b600054610100900460ff16158015611adb576000805460ff1961ff0019909116610100171660011790555b6033805460ff1916905580156117c1576000805461ff001916905550565b6000611b0583836118ef565b611b3b575081546001818101845560008481526020808220909301849055845484825282860190935260409020919091556109f9565b5060006109f9565b60008181526001830160205260408120548015611bff5783546000198083019190810190600090879083908110611b7657fe5b9060005260206000200154905080876000018481548110611b9357fe5b600091825260208083209091019290925582815260018981019092526040902090840190558654879080611bc357fe5b600190038181906000526020600020016000905590558660010160008781526020019081526020016000206000905560019450505050506109f9565b60009150506109f956fe456e756d657261626c655365743a20696e646578206f7574206f6620626f756e6473416363657373436f6e74726f6c3a2073656e646572206d75737420626520616e2061646d696e20746f206772616e745472616e7366657248656c7065723a3a7472616e7366657246726f6d3a207472616e7366657246726f6d206661696c6564416363657373436f6e74726f6c3a2073656e646572206d75737420626520616e2061646d696e20746f207265766f6b65496e697469616c697a61626c653a20636f6e747261637420697320616c726561647920696e697469616c697a6564536166654d6174683a206d756c7469706c69636174696f6e206f766572666c6f7765d7a28e3265b37a6474929f336521b332c1681b933f6cb9f3376673440d862a416363657373436f6e74726f6c3a2063616e206f6e6c792072656e6f756e636520726f6c657320666f722073656c66a2646970667358221220cfa3032c25bb216026a16cda53ffa9e19ff4ef4528141433876a5169bfc9bb0864736f6c63430007060033",
  "immutableReferences": {},
  "source": "// SPDX-License-Identifier: UNLICENSED\npragma solidity >=0.7.0;\n\nimport \"@openzeppelin/contracts-upgradeable/math/SafeMathUpgradeable.sol\";\nimport \"@openzeppelin/contracts-upgradeable/access/AccessControlUpgradeable.sol\";\nimport \"@openzeppelin/contracts-upgradeable/utils/PausableUpgradeable.sol\";\nimport \"./interfaces/ISTokens.sol\";\nimport \"./interfaces/IUTokens.sol\";\nimport \"./interfaces/IPSTAKE.sol\";\nimport \"./interfaces/IHolder.sol\";\nimport \"./interfaces/IStakeLPCore.sol\";\nimport \"./libraries/FullMath.sol\";\n\ncontract StakeLPCoreV2 is\n\tIStakeLPCore,\n\tPausableUpgradeable,\n\tAccessControlUpgradeable\n{\n\tusing SafeMathUpgradeable for uint256;\n\tusing FullMath for uint256;\n\n\t// constant pertaining to access roles\n\tbytes32 public constant PAUSER_ROLE = keccak256(\"PAUSER_ROLE\");\n\n\t// balance of user for an LP Token\n\tmapping(address => mapping(address => uint256)) private _lpBalance;\n\t// supply for an LP Token\n\tmapping(address => uint256) private _lpSupply;\n\t// last recorded total LPTimeShare\n\tmapping(address => uint256) private _lastLPTimeShare;\n\t// last recorded timestamp when rewards were disbursed\n\tmapping(address => uint256) private _lastLPTimeShareTimestamp;\n\t// last recorded timestamp when PSTAKE tokens were disbursed\n\tmapping(address => mapping(address => uint256))\n\t\tprivate _lastLiquidityTimestamp;\n\n\t//Private instances of contracts to handle Utokens and Stokens\n\tIUTokens private _uTokens;\n\tISTokens private _sTokens;\n\tIPSTAKE private _pstakeTokens;\n\n\t/**\n\t * @dev Constructor for initializing the LiquidStaking contract.\n\t * @param uAddress - address of the UToken contract.\n\t * @param sAddress - address of the SToken contract.\n\t * @param pStakeAddress - address of the pStake contract address.\n\t */\n\tfunction initialize(\n\t\taddress uAddress,\n\t\taddress sAddress,\n\t\taddress pStakeAddress,\n\t\taddress pauserAddress\n\t) public virtual initializer {\n\t\t__AccessControl_init();\n\t\t__Pausable_init();\n\t\t_setupRole(DEFAULT_ADMIN_ROLE, _msgSender());\n\t\t_setupRole(PAUSER_ROLE, pauserAddress);\n\t\tsetUTokensContract(uAddress);\n\t\tsetSTokensContract(sAddress);\n\t\tsetPSTAKEContract(pStakeAddress);\n\t\t// _lastLPTimeShareTimestamp = block.timestamp;\n\t}\n\n\t/*\n\t * @dev calculate liquidity and reward tokens and disburse to user\n\t * @param lpToken: lp token contract address\n\t * @param to: user address\n\t * @param liquidityWeightFactor: coming as an argument for further calculations\n\t * @param rewardWeightFactor: coming as an argument for further calculations\n\t * @param valueDivisor: coming as an argument for further calculations\n\t */\n\tfunction calculatePendingRewardsAndLiquidity(address lpToken, address to)\n\t\tpublic\n\t\tview\n\t\treturns (\n\t\t\tuint256 liquidity,\n\t\t\tuint256 reward,\n\t\t\tuint256 updatedSupplyLPTimeshare\n\t\t)\n\t{\n\t\t// get the balance of user's LP token\n\t\tuint256 _lpBalanceUser = _lpBalance[lpToken][to];\n\t\tuint256 _lpSupplyContract = _lpSupply[lpToken];\n\n\t\t// calculate the LPTimeShare of the user's LP Token\n\t\tuint256 _userLPTimeShare = (\n\t\t\t_lpBalanceUser.mul(\n\t\t\t\tblock.timestamp.sub(_lastLiquidityTimestamp[lpToken][to])\n\t\t\t)\n\t\t);\n\n\t\t// calculate the LPTimeShare of the sum of supply of all LP Tokens\n\t\tuint256 _newSupplyLPTimeShare = (\n\t\t\t_lpSupplyContract.mul(\n\t\t\t\tblock.timestamp.sub(_lastLPTimeShareTimestamp[lpToken])\n\t\t\t)\n\t\t);\n\t\tuint256 _totalSupplyLPTimeShare = _lastLPTimeShare[lpToken].add(\n\t\t\t_newSupplyLPTimeShare\n\t\t);\n\t\t// is the remaining LPTimeShare of the total supply after the tokens for the user has been dispatched\n\t\tupdatedSupplyLPTimeshare = _totalSupplyLPTimeShare.sub(\n\t\t\t_userLPTimeShare\n\t\t);\n\n\t\tif (_totalSupplyLPTimeShare > 0) {\n\t\t\t// calculate users new reward tokens\n\t\t\tuint256 _rewardPool = _uTokens.balanceOf(address(this));\n\t\t\treward = _rewardPool.mulDiv(\n\t\t\t\t_userLPTimeShare,\n\t\t\t\t_totalSupplyLPTimeShare\n\t\t\t);\n\n\t\t\t// calculate users new liquidity tokens\n\t\t\tuint256 _liquidityPool = _pstakeTokens.balanceOf(address(this));\n\t\t\tliquidity = _liquidityPool.mulDiv(\n\t\t\t\t_userLPTimeShare,\n\t\t\t\t_totalSupplyLPTimeShare\n\t\t\t);\n\t\t}\n\t}\n\n\t/*\n\t * @dev calculate liquidity and reward tokens and disburse to user\n\t * @param lpToken: lp token contract address\n\t * @param to: user address\n\t * @param liquidityWeightFactor: coming as an argument for further calculations\n\t * @param rewardWeightFactor: coming as an argument for further calculations\n\t * @param valueDivisor: coming as an argument for further calculations\n\t */\n\tfunction _calculateRewardsAndLiquidity(\n\t\taddress holderAddress,\n\t\taddress lpToken,\n\t\taddress to\n\t) internal returns (uint256 liquidity, uint256 reward) {\n\t\tuint256 updatedSupplyLPTimeshare;\n\t\t(\n\t\t\tliquidity,\n\t\t\treward,\n\t\t\tupdatedSupplyLPTimeshare\n\t\t) = calculatePendingRewardsAndLiquidity(lpToken, to);\n\n\t\t// update last timestamps and LPTimeShares as per Checks-Effects-Interactions pattern\n\t\t_lastLiquidityTimestamp[lpToken][to] = block.timestamp;\n\t\t_lastLPTimeShareTimestamp[lpToken] = block.timestamp;\n\t\t_lastLPTimeShare[lpToken] = updatedSupplyLPTimeshare;\n\n\t\t// DISBURSE THE LIQUIDITY TOKENS TO USER (transfer)\n\t\tif (liquidity > 0)\n\t\t\tIHolder(holderAddress).safeTransfer(\n\t\t\t\taddress(_pstakeTokens),\n\t\t\t\tto,\n\t\t\t\tliquidity\n\t\t\t);\n\n\t\t// DISBURSE THE REWARD TOKENS TO USER (transfer)\n\t\tif (reward > 0)\n\t\t\tIHolder(holderAddress).safeTransfer(address(_uTokens), to, reward);\n\t}\n\n\t/*\n\t * @dev calculate liquidity and reward tokens and disburse to user\n\t * @param lpToken: lp token contract address\n\t * @param amount: token amount\n\t */\n\tfunction calculateRewardsAndLiquidity(address lpToken, uint256 amount)\n\t\tinternal\n\t\twhenNotPaused\n\t\treturns (uint256 liquidity, uint256 reward)\n\t{\n\t\t// check for validity of arguments\n\t\trequire(amount > 0 && lpToken != address(0), \"LP2\");\n\n\t\t// check if lpToken contract of DeFi product address is whitelisted and has valid holder contract\n\t\t(bool _isContractWhitelisted, address _holderAddress) = _sTokens\n\t\t\t.isContractWhitelisted(lpToken);\n\t\trequire(_isContractWhitelisted && _holderAddress != address(0), \"LP5\");\n\n\t\t// calculate liquidity and reward tokens and disburse to user\n\t\t(liquidity, reward) = _calculateRewardsAndLiquidity(\n\t\t\t_holderAddress,\n\t\t\tlpToken,\n\t\t\t_msgSender()\n\t\t);\n\t\tCalculateRewardsAndLiquidity(\n\t\t\t_holderAddress,\n\t\t\tlpToken,\n\t\t\tamount,\n\t\t\t_msgSender(),\n\t\t\tliquidity,\n\t\t\treward\n\t\t);\n\t}\n\n\t/*\n\t * @dev adding the liquidity\n\t * @param lpToken: lp token contract address\n\t * @param amount: token amount\n\t *\n\t * Emits a {AddLiquidity} event with 'lpToken, amount, rewards and liquidity'\n\t *\n\t */\n\tfunction addLiquidity(address lpToken, uint256 amount)\n\t\tpublic\n\t\tvirtual\n\t\toverride\n\t\twhenNotPaused\n\t\treturns (uint256 liquidity, uint256 rewards)\n\t{\n\t\t// check for validity of arguments\n\t\trequire(amount > 0 && lpToken != address(0), \"LP4\");\n\n\t\t// check if lpToken contract of DeFi product address is whitelisted and has valid holder contract\n\t\t(bool _isContractWhitelisted, address _holderAddress) = _sTokens\n\t\t\t.isContractWhitelisted(lpToken);\n\t\trequire(_isContractWhitelisted && _holderAddress != address(0), \"LP5\");\n\n\t\taddress messageSender = _msgSender();\n\n\t\t// calculate liquidity and reward tokens and disburse to user\n\t\t(rewards, liquidity) = _calculateRewardsAndLiquidity(\n\t\t\t_holderAddress,\n\t\t\tlpToken,\n\t\t\tmessageSender\n\t\t);\n\t\t// finally transfer the new LP Tokens to the StakeLP contract\n\t\tsafeTransferFrom(lpToken, messageSender, address(this), amount);\n\t\t// update the user balance\n\t\t_lpBalance[lpToken][messageSender] = _lpBalance[lpToken][messageSender]\n\t\t\t.add(amount);\n\t\t// update the supply of lp tokens for reward and liquidity calculation\n\t\t_lpSupply[lpToken] = _lpSupply[lpToken].add(amount);\n\t\temit AddLiquidity(lpToken, amount, rewards, liquidity);\n\t}\n\n\t/*\n\t * @dev removing the liquidity\n\t * @param lpToken: lp token contract address\n\t * @param amount: token amount\n\t *\n\t * Emits a {RemoveLiquidity} event with 'lpToken, amount, rewards and liquidity'\n\t *\n\t */\n\tfunction removeLiquidity(address lpToken, uint256 amount)\n\t\tpublic\n\t\tvirtual\n\t\toverride\n\t\twhenNotPaused\n\t\treturns (uint256 liquidity, uint256 rewards)\n\t{\n\t\t// check for validity of arguments\n\t\trequire(amount > 0 && lpToken != address(0), \"LP6\");\n\n\t\t// check if lpToken contract of DeFi product address is whitelisted and has valid holder contract\n\t\t(bool _isContractWhitelisted, address _holderAddress) = _sTokens\n\t\t\t.isContractWhitelisted(lpToken);\n\t\trequire(_isContractWhitelisted && _holderAddress != address(0), \"LP5\");\n\n\t\taddress messageSender = _msgSender();\n\n\t\t// check if suffecient balance is there\n\t\trequire(_lpBalance[lpToken][messageSender] >= amount, \"LP8\");\n\n\t\t// calculate liquidity and reward tokens and disburse to user\n\t\t(rewards, liquidity) = _calculateRewardsAndLiquidity(\n\t\t\t_holderAddress,\n\t\t\tlpToken,\n\t\t\tmessageSender\n\t\t);\n\t\t// finally transfer the LP Tokens to the user\n\t\tsafeTransferFrom(lpToken, address(this), messageSender, amount);\n\t\t// update the user balance\n\t\t_lpBalance[lpToken][messageSender] = _lpBalance[lpToken][messageSender]\n\t\t\t.sub(amount);\n\t\t// update the supply of lp tokens for reward and liquidity calculation\n\t\t_lpSupply[lpToken] = _lpSupply[lpToken].sub(amount);\n\t\temit RemoveLiquidity(lpToken, amount, rewards, liquidity);\n\t}\n\n\tfunction safeTransferFrom(\n\t\taddress token,\n\t\taddress from,\n\t\taddress to,\n\t\tuint256 value\n\t) internal {\n\t\t// bytes4(keccak256(bytes('transferFrom(address,address,uint256)')));\n\n\t\t/* bytes memory data = abi.encodeWithSelector(0x23b872dd, from, to, value);\n        (bool success, bytes memory returnData) = address(token).staticcall(data);\n        if (success) {\n            if (returnData.length == 64)\n                return abi.decode(returnData, (uint256, uint256));\n            if (returnData.length == 32)\n                return (abi.decode(returnData, (uint256)), 0);\n        }\n        return (0, 0); */\n\n\t\t(bool success, bytes memory data) = token.call(\n\t\t\tabi.encodeWithSelector(0x23b872dd, from, to, value)\n\t\t);\n\t\trequire(\n\t\t\tsuccess && (data.length == 0 || abi.decode(data, (bool))),\n\t\t\t\"TransferHelper::transferFrom: transferFrom failed\"\n\t\t);\n\t}\n\n\t/**\n\t * @dev Set 'contract address', called from constructor\n\t * @param uAddress: utoken contract address\n\t *\n\t * Emits a {SetUTokensContract} event with '_contract' set to the utoken contract address.\n\t *\n\t */\n\tfunction setUTokensContract(address uAddress) public virtual override {\n\t\trequire(hasRole(DEFAULT_ADMIN_ROLE, _msgSender()), \"LP9\");\n\t\t_uTokens = IUTokens(uAddress);\n\t\temit SetUTokensContract(uAddress);\n\t}\n\n\t/**\n\t * @dev Set 'contract address', called from constructor\n\t * @param sAddress: stoken contract address\n\t *\n\t * Emits a {SetSTokensContract} event with '_contract' set to the stoken contract address.\n\t *\n\t */\n\tfunction setSTokensContract(address sAddress) public virtual override {\n\t\trequire(hasRole(DEFAULT_ADMIN_ROLE, _msgSender()), \"LP10\");\n\t\t_sTokens = ISTokens(sAddress);\n\t\temit SetSTokensContract(sAddress);\n\t}\n\n\t/**\n\t * @dev Set 'contract address', called from constructor\n\t * @param pstakeAddress: pStake contract address\n\t *\n\t * Emits a {SetPSTAKEContract} event with '_contract' set to the stoken contract address.\n\t *\n\t */\n\tfunction setPSTAKEContract(address pstakeAddress) public virtual override {\n\t\trequire(hasRole(DEFAULT_ADMIN_ROLE, _msgSender()), \"LP11\");\n\t\t_pstakeTokens = IPSTAKE(pstakeAddress);\n\t\temit SetPSTAKEContract(pstakeAddress);\n\t}\n\n\t/**\n\t * @dev Triggers stopped state.\n\t *\n\t * Requirements:\n\t *\n\t * - The contract must not be paused.\n\t */\n\tfunction pause() public virtual returns (bool success) {\n\t\trequire(hasRole(PAUSER_ROLE, _msgSender()), \"LP12\");\n\t\t_pause();\n\t\treturn true;\n\t}\n\n\t/**\n\t * @dev Returns to normal state.\n\t *\n\t * Requirements:\n\t *\n\t * - The contract must be paused.\n\t */\n\tfunction unpause() public virtual returns (bool success) {\n\t\trequire(hasRole(PAUSER_ROLE, _msgSender()), \"LP13\");\n\t\t_unpause();\n\t\treturn true;\n\t}\n}\n",
  "sourcePath": "C:\\Users\\Kamlesh\\Persistence\\pStake\\codebase\\pStake-smartContracts\\contracts\\StakeLPCoreV2.sol",
  "compiler": {
    "name": "solc",
    "version": "0.7.6+commit.7338295f.Emscripten.clang"
  },
  "schemaVersion": "3.4.3",
  "updatedAt": "2021-09-09T13:03:35.545Z",
  "devdoc": {
    "kind": "dev",
    "methods": {
      "addLiquidity(address,uint256)": {
        "details": "adds liquidity Returns a uint256"
      },
      "getRoleAdmin(bytes32)": {
        "details": "Returns the admin role that controls `role`. See {grantRole} and {revokeRole}. To change a role's admin, use {_setRoleAdmin}."
      },
      "getRoleMember(bytes32,uint256)": {
        "details": "Returns one of the accounts that have `role`. `index` must be a value between 0 and {getRoleMemberCount}, non-inclusive. Role bearers are not sorted in any particular way, and their ordering may change at any point. WARNING: When using {getRoleMember} and {getRoleMemberCount}, make sure you perform all queries on the same block. See the following https://forum.openzeppelin.com/t/iterating-over-elements-on-enumerableset-in-openzeppelin-contracts/2296[forum post] for more information."
      },
      "getRoleMemberCount(bytes32)": {
        "details": "Returns the number of accounts that have `role`. Can be used together with {getRoleMember} to enumerate all bearers of a role."
      },
      "grantRole(bytes32,address)": {
        "details": "Grants `role` to `account`. If `account` had not been already granted `role`, emits a {RoleGranted} event. Requirements: - the caller must have ``role``'s admin role."
      },
      "hasRole(bytes32,address)": {
        "details": "Returns `true` if `account` has been granted `role`."
      },
      "initialize(address,address,address,address)": {
        "details": "Constructor for initializing the LiquidStaking contract.",
        "params": {
          "pStakeAddress": "- address of the pStake contract address.",
          "sAddress": "- address of the SToken contract.",
          "uAddress": "- address of the UToken contract."
        }
      },
      "pause()": {
        "details": "Triggers stopped state. Requirements: - The contract must not be paused."
      },
      "paused()": {
        "details": "Returns true if the contract is paused, and false otherwise."
      },
      "removeLiquidity(address,uint256)": {
        "details": "remove liquidity Returns a uint256"
      },
      "renounceRole(bytes32,address)": {
        "details": "Revokes `role` from the calling account. Roles are often managed via {grantRole} and {revokeRole}: this function's purpose is to provide a mechanism for accounts to lose their privileges if they are compromised (such as when a trusted device is misplaced). If the calling account had been granted `role`, emits a {RoleRevoked} event. Requirements: - the caller must be `account`."
      },
      "revokeRole(bytes32,address)": {
        "details": "Revokes `role` from `account`. If `account` had been granted `role`, emits a {RoleRevoked} event. Requirements: - the caller must have ``role``'s admin role."
      },
      "setPSTAKEContract(address)": {
        "details": "Set 'contract address', called from constructor",
        "params": {
          "pstakeAddress": ": pStake contract address Emits a {SetPSTAKEContract} event with '_contract' set to the stoken contract address."
        }
      },
      "setSTokensContract(address)": {
        "details": "Set 'contract address', called from constructor",
        "params": {
          "sAddress": ": stoken contract address Emits a {SetSTokensContract} event with '_contract' set to the stoken contract address."
        }
      },
      "setUTokensContract(address)": {
        "details": "Set 'contract address', called from constructor",
        "params": {
          "uAddress": ": utoken contract address Emits a {SetUTokensContract} event with '_contract' set to the utoken contract address."
        }
      },
      "unpause()": {
        "details": "Returns to normal state. Requirements: - The contract must be paused."
      }
    },
    "version": 1
  },
  "userdoc": {
    "kind": "user",
    "methods": {},
    "version": 1
  }
}