{
  "contractName": "StakeLPCoreV8",
  "abi": [
    {
      "anonymous": false,
      "inputs": [
        {
          "indexed": false,
          "internalType": "address",
          "name": "lpToken",
          "type": "address"
        },
        {
          "indexed": false,
          "internalType": "uint256",
          "name": "amount",
          "type": "uint256"
        },
        {
          "indexed": false,
          "internalType": "uint256",
          "name": "rewards",
          "type": "uint256"
        },
        {
          "indexed": false,
          "internalType": "uint256",
          "name": "liquidity",
          "type": "uint256"
        }
      ],
      "name": "AddLiquidity",
      "type": "event"
    },
    {
      "anonymous": false,
      "inputs": [
        {
          "indexed": true,
          "internalType": "address",
          "name": "holderAddress",
          "type": "address"
        },
        {
          "indexed": true,
          "internalType": "address",
          "name": "lpToken",
          "type": "address"
        },
        {
          "indexed": true,
          "internalType": "address",
          "name": "to",
          "type": "address"
        },
        {
          "indexed": false,
          "internalType": "uint256",
          "name": "liquidity",
          "type": "uint256"
        },
        {
          "indexed": false,
          "internalType": "uint256",
          "name": "reward",
          "type": "uint256"
        }
      ],
      "name": "CalculateRewardsAndLiquidity",
      "type": "event"
    },
    {
      "anonymous": false,
      "inputs": [
        {
          "indexed": false,
          "internalType": "address",
          "name": "account",
          "type": "address"
        }
      ],
      "name": "Paused",
      "type": "event"
    },
    {
      "anonymous": false,
      "inputs": [
        {
          "indexed": false,
          "internalType": "address",
          "name": "lpToken",
          "type": "address"
        },
        {
          "indexed": false,
          "internalType": "uint256",
          "name": "amount",
          "type": "uint256"
        },
        {
          "indexed": false,
          "internalType": "uint256",
          "name": "rewards",
          "type": "uint256"
        },
        {
          "indexed": false,
          "internalType": "uint256",
          "name": "liquidity",
          "type": "uint256"
        }
      ],
      "name": "RemoveLiquidity",
      "type": "event"
    },
    {
      "anonymous": false,
      "inputs": [
        {
          "indexed": true,
          "internalType": "bytes32",
          "name": "role",
          "type": "bytes32"
        },
        {
          "indexed": true,
          "internalType": "bytes32",
          "name": "previousAdminRole",
          "type": "bytes32"
        },
        {
          "indexed": true,
          "internalType": "bytes32",
          "name": "newAdminRole",
          "type": "bytes32"
        }
      ],
      "name": "RoleAdminChanged",
      "type": "event"
    },
    {
      "anonymous": false,
      "inputs": [
        {
          "indexed": true,
          "internalType": "bytes32",
          "name": "role",
          "type": "bytes32"
        },
        {
          "indexed": true,
          "internalType": "address",
          "name": "account",
          "type": "address"
        },
        {
          "indexed": true,
          "internalType": "address",
          "name": "sender",
          "type": "address"
        }
      ],
      "name": "RoleGranted",
      "type": "event"
    },
    {
      "anonymous": false,
      "inputs": [
        {
          "indexed": true,
          "internalType": "bytes32",
          "name": "role",
          "type": "bytes32"
        },
        {
          "indexed": true,
          "internalType": "address",
          "name": "account",
          "type": "address"
        },
        {
          "indexed": true,
          "internalType": "address",
          "name": "sender",
          "type": "address"
        }
      ],
      "name": "RoleRevoked",
      "type": "event"
    },
    {
      "anonymous": false,
      "inputs": [
        {
          "indexed": true,
          "internalType": "address",
          "name": "_contract",
          "type": "address"
        }
      ],
      "name": "SetPSTAKEContract",
      "type": "event"
    },
    {
      "anonymous": false,
      "inputs": [
        {
          "indexed": true,
          "internalType": "address",
          "name": "_contract",
          "type": "address"
        }
      ],
      "name": "SetSTokensContract",
      "type": "event"
    },
    {
      "anonymous": false,
      "inputs": [
        {
          "indexed": true,
          "internalType": "address",
          "name": "_contract",
          "type": "address"
        }
      ],
      "name": "SetUTokensContract",
      "type": "event"
    },
    {
      "anonymous": false,
      "inputs": [
        {
          "indexed": false,
          "internalType": "address",
          "name": "account",
          "type": "address"
        }
      ],
      "name": "Unpaused",
      "type": "event"
    },
    {
      "inputs": [],
      "name": "DEFAULT_ADMIN_ROLE",
      "outputs": [
        {
          "internalType": "bytes32",
          "name": "",
          "type": "bytes32"
        }
      ],
      "stateMutability": "view",
      "type": "function"
    },
    {
      "inputs": [],
      "name": "PAUSER_ROLE",
      "outputs": [
        {
          "internalType": "bytes32",
          "name": "",
          "type": "bytes32"
        }
      ],
      "stateMutability": "view",
      "type": "function"
    },
    {
      "inputs": [
        {
          "internalType": "address",
          "name": "",
          "type": "address"
        }
      ],
      "name": "_lastLPTimeShare",
      "outputs": [
        {
          "internalType": "uint256",
          "name": "",
          "type": "uint256"
        }
      ],
      "stateMutability": "view",
      "type": "function"
    },
    {
      "inputs": [
        {
          "internalType": "address",
          "name": "",
          "type": "address"
        }
      ],
      "name": "_lastLPTimeShareTimestamp",
      "outputs": [
        {
          "internalType": "uint256",
          "name": "",
          "type": "uint256"
        }
      ],
      "stateMutability": "view",
      "type": "function"
    },
    {
      "inputs": [
        {
          "internalType": "address",
          "name": "",
          "type": "address"
        },
        {
          "internalType": "address",
          "name": "",
          "type": "address"
        }
      ],
      "name": "_lastLiquidityTimestamp",
      "outputs": [
        {
          "internalType": "uint256",
          "name": "",
          "type": "uint256"
        }
      ],
      "stateMutability": "view",
      "type": "function"
    },
    {
      "inputs": [
        {
          "internalType": "address",
          "name": "",
          "type": "address"
        },
        {
          "internalType": "address",
          "name": "",
          "type": "address"
        }
      ],
      "name": "_lpBalance",
      "outputs": [
        {
          "internalType": "uint256",
          "name": "",
          "type": "uint256"
        }
      ],
      "stateMutability": "view",
      "type": "function"
    },
    {
      "inputs": [
        {
          "internalType": "address",
          "name": "",
          "type": "address"
        }
      ],
      "name": "_lpSupply",
      "outputs": [
        {
          "internalType": "uint256",
          "name": "",
          "type": "uint256"
        }
      ],
      "stateMutability": "view",
      "type": "function"
    },
    {
      "inputs": [],
      "name": "_pstakeTokens",
      "outputs": [
        {
          "internalType": "contract IPSTAKE",
          "name": "",
          "type": "address"
        }
      ],
      "stateMutability": "view",
      "type": "function"
    },
    {
      "inputs": [],
      "name": "_sTokens",
      "outputs": [
        {
          "internalType": "contract ISTokens",
          "name": "",
          "type": "address"
        }
      ],
      "stateMutability": "view",
      "type": "function"
    },
    {
      "inputs": [],
      "name": "_uTokens",
      "outputs": [
        {
          "internalType": "contract IUTokens",
          "name": "",
          "type": "address"
        }
      ],
      "stateMutability": "view",
      "type": "function"
    },
    {
      "inputs": [
        {
          "internalType": "bytes32",
          "name": "role",
          "type": "bytes32"
        }
      ],
      "name": "getRoleAdmin",
      "outputs": [
        {
          "internalType": "bytes32",
          "name": "",
          "type": "bytes32"
        }
      ],
      "stateMutability": "view",
      "type": "function"
    },
    {
      "inputs": [
        {
          "internalType": "bytes32",
          "name": "role",
          "type": "bytes32"
        },
        {
          "internalType": "uint256",
          "name": "index",
          "type": "uint256"
        }
      ],
      "name": "getRoleMember",
      "outputs": [
        {
          "internalType": "address",
          "name": "",
          "type": "address"
        }
      ],
      "stateMutability": "view",
      "type": "function"
    },
    {
      "inputs": [
        {
          "internalType": "bytes32",
          "name": "role",
          "type": "bytes32"
        }
      ],
      "name": "getRoleMemberCount",
      "outputs": [
        {
          "internalType": "uint256",
          "name": "",
          "type": "uint256"
        }
      ],
      "stateMutability": "view",
      "type": "function"
    },
    {
      "inputs": [
        {
          "internalType": "bytes32",
          "name": "role",
          "type": "bytes32"
        },
        {
          "internalType": "address",
          "name": "account",
          "type": "address"
        }
      ],
      "name": "grantRole",
      "outputs": [],
      "stateMutability": "nonpayable",
      "type": "function"
    },
    {
      "inputs": [
        {
          "internalType": "bytes32",
          "name": "role",
          "type": "bytes32"
        },
        {
          "internalType": "address",
          "name": "account",
          "type": "address"
        }
      ],
      "name": "hasRole",
      "outputs": [
        {
          "internalType": "bool",
          "name": "",
          "type": "bool"
        }
      ],
      "stateMutability": "view",
      "type": "function"
    },
    {
      "inputs": [],
      "name": "paused",
      "outputs": [
        {
          "internalType": "bool",
          "name": "",
          "type": "bool"
        }
      ],
      "stateMutability": "view",
      "type": "function"
    },
    {
      "inputs": [
        {
          "internalType": "bytes32",
          "name": "role",
          "type": "bytes32"
        },
        {
          "internalType": "address",
          "name": "account",
          "type": "address"
        }
      ],
      "name": "renounceRole",
      "outputs": [],
      "stateMutability": "nonpayable",
      "type": "function"
    },
    {
      "inputs": [
        {
          "internalType": "bytes32",
          "name": "role",
          "type": "bytes32"
        },
        {
          "internalType": "address",
          "name": "account",
          "type": "address"
        }
      ],
      "name": "revokeRole",
      "outputs": [],
      "stateMutability": "nonpayable",
      "type": "function"
    },
    {
      "inputs": [
        {
          "internalType": "address",
          "name": "uAddress",
          "type": "address"
        },
        {
          "internalType": "address",
          "name": "sAddress",
          "type": "address"
        },
        {
          "internalType": "address",
          "name": "pStakeAddress",
          "type": "address"
        },
        {
          "internalType": "address",
          "name": "pauserAddress",
          "type": "address"
        }
      ],
      "name": "initialize",
      "outputs": [],
      "stateMutability": "nonpayable",
      "type": "function"
    },
    {
      "inputs": [
        {
          "internalType": "address",
          "name": "holderAddress",
          "type": "address"
        },
        {
          "internalType": "address",
          "name": "lpToken",
          "type": "address"
        },
        {
          "internalType": "address",
          "name": "to",
          "type": "address"
        }
      ],
      "name": "calculatePendingRewardsAndLiquidity",
      "outputs": [
        {
          "internalType": "uint256",
          "name": "liquidity",
          "type": "uint256"
        },
        {
          "internalType": "uint256",
          "name": "reward",
          "type": "uint256"
        },
        {
          "internalType": "uint256",
          "name": "updatedSupplyLPTimeshare",
          "type": "uint256"
        }
      ],
      "stateMutability": "view",
      "type": "function"
    },
    {
      "inputs": [
        {
          "internalType": "address",
          "name": "whitelistedAddress",
          "type": "address"
        }
      ],
      "name": "calculateRewardsAndLiquidity",
      "outputs": [
        {
          "internalType": "uint256",
          "name": "liquidity",
          "type": "uint256"
        },
        {
          "internalType": "uint256",
          "name": "reward",
          "type": "uint256"
        }
      ],
      "stateMutability": "nonpayable",
      "type": "function"
    },
    {
      "inputs": [
        {
          "internalType": "address",
          "name": "whitelistedAddress",
          "type": "address"
        },
        {
          "internalType": "uint256",
          "name": "amount",
          "type": "uint256"
        }
      ],
      "name": "addLiquidity",
      "outputs": [
        {
          "internalType": "uint256",
          "name": "liquidity",
          "type": "uint256"
        },
        {
          "internalType": "uint256",
          "name": "rewards",
          "type": "uint256"
        }
      ],
      "stateMutability": "nonpayable",
      "type": "function"
    },
    {
      "inputs": [
        {
          "internalType": "address",
          "name": "whitelistedAddress",
          "type": "address"
        },
        {
          "internalType": "uint256",
          "name": "amount",
          "type": "uint256"
        }
      ],
      "name": "removeLiquidity",
      "outputs": [
        {
          "internalType": "uint256",
          "name": "liquidity",
          "type": "uint256"
        },
        {
          "internalType": "uint256",
          "name": "rewards",
          "type": "uint256"
        }
      ],
      "stateMutability": "nonpayable",
      "type": "function"
    },
    {
      "inputs": [
        {
          "internalType": "address",
          "name": "uAddress",
          "type": "address"
        }
      ],
      "name": "setUTokensContract",
      "outputs": [],
      "stateMutability": "nonpayable",
      "type": "function"
    },
    {
      "inputs": [
        {
          "internalType": "address",
          "name": "sAddress",
          "type": "address"
        }
      ],
      "name": "setSTokensContract",
      "outputs": [],
      "stateMutability": "nonpayable",
      "type": "function"
    },
    {
      "inputs": [
        {
          "internalType": "address",
          "name": "pstakeAddress",
          "type": "address"
        }
      ],
      "name": "setPSTAKEContract",
      "outputs": [],
      "stateMutability": "nonpayable",
      "type": "function"
    },
    {
      "inputs": [],
      "name": "pause",
      "outputs": [
        {
          "internalType": "bool",
          "name": "success",
          "type": "bool"
        }
      ],
      "stateMutability": "nonpayable",
      "type": "function"
    },
    {
      "inputs": [],
      "name": "unpause",
      "outputs": [
        {
          "internalType": "bool",
          "name": "success",
          "type": "bool"
        }
      ],
      "stateMutability": "nonpayable",
      "type": "function"
    }
  ],
  "bytecode": "0x608060405234801561001057600080fd5b50612386806100206000396000f3fe608060405234801561001057600080fd5b50600436106101c45760003560e01c80638456cb59116100f9578063ca15c87311610097578063d79cf55a11610071578063d79cf55a1461056f578063e40c3f5414610577578063e63ab1e91461057f578063f8c8765e14610587576101c4565b8063ca15c873146104f8578063cce3dffd14610515578063d547741f14610543576101c4565b8063a201ccf6116100d3578063a201ccf614610470578063a217fddf1461049c578063b29bad13146104a4578063c0818a52146104d2576101c4565b80638456cb59146104195780639010d07c1461042157806391d1485414610444576101c4565b80633f4ba83a116101665780635c975abb116101405780635c975abb146103715780635edf9c9f1461037957806378a2f074146103cf5780637a19ec71146103f3576101c4565b80633f4ba83a1461030357806345d644cd1461031f5780635668870014610345576101c4565b8063248a9ca3116101a2578063248a9ca3146102565780632e31fab8146102855780632f2ff15d146102ab57806336568abe146102d7576101c4565b806319ae989c146101c957806321bdf9e514610208578063228d9eae14610230575b600080fd5b6101ef600480360360208110156101df57600080fd5b50356001600160a01b03166105c5565b6040805192835260208301919091528051918290030190f35b61022e6004803603602081101561021e57600080fd5b50356001600160a01b03166107b6565b005b61022e6004803603602081101561024657600080fd5b50356001600160a01b0316610849565b6102736004803603602081101561026c57600080fd5b50356108da565b60408051918252519081900360200190f35b61022e6004803603602081101561029b57600080fd5b50356001600160a01b03166108ef565b61022e600480360360408110156102c157600080fd5b50803590602001356001600160a01b0316610980565b61022e600480360360408110156102ed57600080fd5b50803590602001356001600160a01b03166109e7565b61030b610a48565b604080519115158252519081900360200190f35b6102736004803603602081101561033557600080fd5b50356001600160a01b0316610aac565b6101ef6004803603604081101561035b57600080fd5b506001600160a01b038135169060200135610abe565b61030b610d40565b6103b16004803603606081101561038f57600080fd5b506001600160a01b038135811691602081013582169160409091013516610d49565b60408051938452602084019290925282820152519081900360600190f35b6103d7610f52565b604080516001600160a01b039092168252519081900360200190f35b6102736004803603602081101561040957600080fd5b50356001600160a01b0316610f61565b61030b610f73565b6103d76004803603604081101561043757600080fd5b5080359060200135610fd1565b61030b6004803603604081101561045a57600080fd5b50803590602001356001600160a01b0316610ff2565b6101ef6004803603604081101561048657600080fd5b506001600160a01b03813516906020013561100a565b6102736112ec565b610273600480360360408110156104ba57600080fd5b506001600160a01b03813581169160200135166112f1565b610273600480360360208110156104e857600080fd5b50356001600160a01b031661130e565b6102736004803603602081101561050e57600080fd5b5035611320565b6102736004803603604081101561052b57600080fd5b506001600160a01b0381358116916020013516611337565b61022e6004803603604081101561055957600080fd5b50803590602001356001600160a01b0316611354565b6103d76113ad565b6103d76113bc565b6102736113cb565b61022e6004803603608081101561059d57600080fd5b506001600160a01b0381358116916020810135821691604082013581169160600135166113dd565b6000806105d0610d40565b15610615576040805162461bcd60e51b815260206004820152601060248201526f14185d5cd8589b194e881c185d5cd95960821b604482015290519081900360640190fd5b6001600160a01b038316610656576040805162461bcd60e51b815260206004820152600360248201526226281960e91b604482015290519081900360640190fd5b609d54604080516336bbacad60e01b81526001600160a01b0386811660048301529151600093849316916336bbacad916024808301926060929190829003018186803b1580156106a557600080fd5b505afa1580156106b9573d6000803e3d6000fd5b505050506040513d60608110156106cf57600080fd5b50805160209091015190925090506001600160a01b038116158015906106fd57506001600160a01b03821615155b610734576040805162461bcd60e51b81526020600482015260036024820152624c503160e81b604482015290519081900360640190fd5b61074682826107416114d8565b6114dc565b90945092506107536114d8565b6001600160a01b0316816001600160a01b0316836001600160a01b03167ff42dbf7df8f2f886ebeb589e119714fd8a71bc81ebf02a7a660c697f3acd27c68787604051808381526020018281526020019250505060405180910390a45050915091565b6107c860006107c36114d8565b610ff2565b6107ff576040805162461bcd60e51b81526020600482015260036024820152624c503960e81b604482015290519081900360640190fd5b609c80546001600160a01b0319166001600160a01b0383169081179091556040517ff745c285f36f88bea6af14d4d0f33dd9350cef7895216c1615b1caaee7857e0c90600090a250565b61085660006107c36114d8565b610890576040805162461bcd60e51b815260206004808301919091526024820152634c50313160e01b604482015290519081900360640190fd5b609e80546001600160a01b0319166001600160a01b0383169081179091556040517f2321c893a63891a056e19e865d785f953c42f766bab444a8bcabd3673cee3d1d90600090a250565b60009081526065602052604090206002015490565b6108fc60006107c36114d8565b610936576040805162461bcd60e51b8152602060048083019190915260248201526304c5031360e41b604482015290519081900360640190fd5b609d80546001600160a01b0319166001600160a01b0383169081179091556040517fd0b9dbe26f676f4cdb02fc249c203baa0314cec79e18b4194dc862795a5de03f90600090a250565b60008281526065602052604090206002015461099e906107c36114d8565b6109d95760405162461bcd60e51b815260040180806020018281038252602f8152602001806121f6602f913960400191505060405180910390fd5b6109e38282611637565b5050565b6109ef6114d8565b6001600160a01b0316816001600160a01b031614610a3e5760405162461bcd60e51b815260040180806020018281038252602f815260200180612322602f913960400191505060405180910390fd5b6109e382826116a0565b6000610a646000805160206122d58339815191526107c36114d8565b610a9e576040805162461bcd60e51b815260206004808301919091526024820152634c50313360e01b604482015290519081900360640190fd5b610aa6611709565b50600190565b60986020526000908152604090205481565b600080610ac9610d40565b15610b0e576040805162461bcd60e51b815260206004820152601060248201526f14185d5cd8589b194e881c185d5cd95960821b604482015290519081900360640190fd5b600083118015610b2657506001600160a01b03841615155b610b5d576040805162461bcd60e51b81526020600482015260036024820152624c503360e81b604482015290519081900360640190fd5b609d54604080516336bbacad60e01b81526001600160a01b0387811660048301529151600093849316916336bbacad916024808301926060929190829003018186803b158015610bac57600080fd5b505afa158015610bc0573d6000803e3d6000fd5b505050506040513d6060811015610bd657600080fd5b50805160209091015190925090506001600160a01b03821615801590610c0457506001600160a01b03811615155b610c3b576040805162461bcd60e51b815260206004820152600360248201526213140d60ea1b604482015290519081900360640190fd5b6000610c456114d8565b9050610c528383836114dc565b95509350610c62828230896117a9565b6001600160a01b03808316600090815260976020908152604080832093851683529290522054610c929087611905565b6001600160a01b0380841660008181526097602090815260408083209487168352938152838220949094559081526098909252902054610cd29087611905565b6001600160a01b0383166000818152609860209081526040918290209390935580519182529181018890528082018690526060810187905290517fbeb3885786d637a474cbc287c0a44587231633a077f0bd30354d5a4b18996fce9181900360800190a15050509250929050565b60335460ff1690565b6001600160a01b038083166000818152609760209081526040808320948616808452948252808320549383526098825280832054609b8352818420958452949091528120549092839283929091908390610daf90610da890429061195f565b84906119bc565b6001600160a01b0389166000908152609a602052604081205491925090610ddb90610da890429061195f565b6001600160a01b038a1660009081526099602052604081205491925090610e029083611905565b9050610e0e818461195f565b95508015610f4457609c54604080516370a0823160e01b81526001600160a01b038e81166004830152915160009392909216916370a0823191602480820192602092909190829003018186803b158015610e6757600080fd5b505afa158015610e7b573d6000803e3d6000fd5b505050506040513d6020811015610e9157600080fd5b50519050610ea0818584611a15565b97506000609e60009054906101000a90046001600160a01b03166001600160a01b03166370a082318e6040518263ffffffff1660e01b815260040180826001600160a01b0316815260200191505060206040518083038186803b158015610f0657600080fd5b505afa158015610f1a573d6000803e3d6000fd5b505050506040513d6020811015610f3057600080fd5b50519050610f3f818685611a15565b995050505b505050505093509350939050565b609c546001600160a01b031681565b609a6020526000908152604090205481565b6000610f8f6000805160206122d58339815191526107c36114d8565b610fc9576040805162461bcd60e51b815260206004808301919091526024820152632628189960e11b604482015290519081900360640190fd5b610aa6611ad0565b6000828152606560205260408120610fe99083611b53565b90505b92915050565b6000828152606560205260408120610fe99083611b5f565b600080611015610d40565b1561105a576040805162461bcd60e51b815260206004820152601060248201526f14185d5cd8589b194e881c185d5cd95960821b604482015290519081900360640190fd5b60008311801561107257506001600160a01b03841615155b6110a9576040805162461bcd60e51b815260206004820152600360248201526226281b60e91b604482015290519081900360640190fd5b609d54604080516336bbacad60e01b81526001600160a01b0387811660048301529151600093849316916336bbacad916024808301926060929190829003018186803b1580156110f857600080fd5b505afa15801561110c573d6000803e3d6000fd5b505050506040513d606081101561112257600080fd5b50805160209091015190925090506001600160a01b0382161580159061115057506001600160a01b03811615155b611187576040805162461bcd60e51b81526020600482015260036024820152624c503760e81b604482015290519081900360640190fd5b60006111916114d8565b6001600160a01b038084166000908152609760209081526040808320938516835292905220549091508611156111f4576040805162461bcd60e51b8152602060048201526003602482015262098a0760eb1b604482015290519081900360640190fd5b6111ff8383836114dc565b9550935061120e828288611b74565b6001600160a01b0380831660009081526097602090815260408083209385168352929052205461123e908761195f565b6001600160a01b038084166000818152609760209081526040808320948716835293815283822094909455908152609890925290205461127e908761195f565b6001600160a01b0383166000818152609860209081526040918290209390935580519182529181018890528082018690526060810187905290517f59c3a0b60c6ab7deb62e1440c9e72441db6db7dfe514dba8cb18e60c0d896efa9181900360800190a15050509250929050565b600081565b609b60209081526000928352604080842090915290825290205481565b60996020526000908152604090205481565b6000818152606560205260408120610fec90611cc0565b609760209081526000928352604080842090915290825290205481565b600082815260656020526040902060020154611372906107c36114d8565b610a3e5760405162461bcd60e51b81526004018080602001828103825260308152602001806122566030913960400191505060405180910390fd5b609d546001600160a01b031681565b609e546001600160a01b031681565b6000805160206122d583398151915281565b600054610100900460ff16806113f657506113f6611ccb565b80611404575060005460ff16155b61143f5760405162461bcd60e51b815260040180806020018281038252602e815260200180612286602e913960400191505060405180910390fd5b600054610100900460ff1615801561146a576000805460ff1961ff0019909116610100171660011790555b611472611cdc565b61147a611d8e565b61148c60006114876114d8565b6109d9565b6114a46000805160206122d5833981519152836109d9565b6114ad856107b6565b6114b6846108ef565b6114bf83610849565b80156114d1576000805461ff00191690555b5050505050565b3390565b60008060006114ec868686610d49565b6001600160a01b038089166000818152609b60209081526040808320948c1683529381528382204290819055928252609a8152838220929092556099909152208190559194509250905082156115b257609e546040805163d1660f9960e01b81526001600160a01b03928316600482015286831660248201526044810186905290519188169163d1660f999160648082019260009290919082900301818387803b15801561159957600080fd5b505af11580156115ad573d6000803e3d6000fd5b505050505b811561162e57609c546040805163d1660f9960e01b81526001600160a01b03928316600482015286831660248201526044810185905290519188169163d1660f999160648082019260009290919082900301818387803b15801561161557600080fd5b505af1158015611629573d6000803e3d6000fd5b505050505b50935093915050565b600082815260656020526040902061164f9082611e2b565b156109e35761165c6114d8565b6001600160a01b0316816001600160a01b0316837f2f8788117e7eff1d82e926ec794901d17c78024a50270940304540a733656f0d60405160405180910390a45050565b60008281526065602052604090206116b89082611e40565b156109e3576116c56114d8565b6001600160a01b0316816001600160a01b0316837ff6391f5c32d9c69d2a47ea670b442974b53935d1edc7fd64eb21e047a839171b60405160405180910390a45050565b611711610d40565b611759576040805162461bcd60e51b815260206004820152601460248201527314185d5cd8589b194e881b9bdd081c185d5cd95960621b604482015290519081900360640190fd5b6033805460ff191690557f5db9ee0a495bf2e6ff9c91a7834c1ba4fdd244a5e8aa4e537bd38aeae4b073aa61178c6114d8565b604080516001600160a01b039092168252519081900360200190a1565b604080516001600160a01b0385811660248301528481166044830152606480830185905283518084039091018152608490920183526020820180516001600160e01b03166323b872dd60e01b178152925182516000948594938a169392918291908083835b6020831061182d5780518252601f19909201916020918201910161180e565b6001836020036101000a0380198251168184511680821785525050505050509050019150506000604051808303816000865af19150503d806000811461188f576040519150601f19603f3d011682016040523d82523d6000602084013e611894565b606091505b50915091508180156118c25750805115806118c257508080602001905160208110156118bf57600080fd5b50515b6118fd5760405162461bcd60e51b81526004018080602001828103825260318152602001806122256031913960400191505060405180910390fd5b505050505050565b600082820183811015610fe9576040805162461bcd60e51b815260206004820152601b60248201527f536166654d6174683a206164646974696f6e206f766572666c6f770000000000604482015290519081900360640190fd5b6000828211156119b6576040805162461bcd60e51b815260206004820152601e60248201527f536166654d6174683a207375627472616374696f6e206f766572666c6f770000604482015290519081900360640190fd5b50900390565b6000826119cb57506000610fec565b828202828482816119d857fe5b0414610fe95760405162461bcd60e51b81526004018080602001828103825260218152602001806122b46021913960400191505060405180910390fd5b6000806000611a248686611e55565b9150915060008480611a3257fe5b868809905082811115611a46576001820391505b918290039181611a6457848381611a5957fe5b049350505050611ac9565b848210611ab8576040805162461bcd60e51b815260206004820152601a60248201527f46756c6c4d6174683a2046554c4c4449565f4f564552464c4f57000000000000604482015290519081900360640190fd5b611ac3838387611e82565b93505050505b9392505050565b611ad8610d40565b15611b1d576040805162461bcd60e51b815260206004820152601060248201526f14185d5cd8589b194e881c185d5cd95960821b604482015290519081900360640190fd5b6033805460ff191660011790557f62e78cea01bee320cd4e420270b5ea74000d11b0c9f74754ebdbfc544b05a25861178c6114d8565b6000610fe98383611ef2565b6000610fe9836001600160a01b038416611f56565b604080516001600160a01b038481166024830152604480830185905283518084039091018152606490920183526020820180516001600160e01b031663a9059cbb60e01b1781529251825160009485949389169392918291908083835b60208310611bf05780518252601f199092019160209182019101611bd1565b6001836020036101000a0380198251168184511680821785525050505050509050019150506000604051808303816000865af19150503d8060008114611c52576040519150601f19603f3d011682016040523d82523d6000602084013e611c57565b606091505b5091509150818015611c85575080511580611c855750808060200190516020811015611c8257600080fd5b50515b6114d15760405162461bcd60e51b815260040180806020018281038252602d8152602001806122f5602d913960400191505060405180910390fd5b6000610fec82611f6e565b6000611cd630611f72565b15905090565b600054610100900460ff1680611cf55750611cf5611ccb565b80611d03575060005460ff16155b611d3e5760405162461bcd60e51b815260040180806020018281038252602e815260200180612286602e913960400191505060405180910390fd5b600054610100900460ff16158015611d69576000805460ff1961ff0019909116610100171660011790555b611d71611f78565b611d79611f78565b8015611d8b576000805461ff00191690555b50565b600054610100900460ff1680611da75750611da7611ccb565b80611db5575060005460ff16155b611df05760405162461bcd60e51b815260040180806020018281038252602e815260200180612286602e913960400191505060405180910390fd5b600054610100900460ff16158015611e1b576000805460ff1961ff0019909116610100171660011790555b611e23611f78565b611d79612018565b6000610fe9836001600160a01b0384166120c3565b6000610fe9836001600160a01b03841661210d565b6000808060001984860990508385029250828103915082811015611e7a576001820391505b509250929050565b60008181038216808381611e9257fe5b049250808581611e9e57fe5b049450808160000381611ead57fe5b60028581038087028203028087028203028087028203028087028203028087028203028087028203029586029003909402930460010193909302939093010292915050565b81546000908210611f345760405162461bcd60e51b81526004018080602001828103825260228152602001806121d46022913960400191505060405180910390fd5b826000018281548110611f4357fe5b9060005260206000200154905092915050565b60009081526001919091016020526040902054151590565b5490565b3b151590565b600054610100900460ff1680611f915750611f91611ccb565b80611f9f575060005460ff16155b611fda5760405162461bcd60e51b815260040180806020018281038252602e815260200180612286602e913960400191505060405180910390fd5b600054610100900460ff16158015611d79576000805460ff1961ff0019909116610100171660011790558015611d8b576000805461ff001916905550565b600054610100900460ff16806120315750612031611ccb565b8061203f575060005460ff16155b61207a5760405162461bcd60e51b815260040180806020018281038252602e815260200180612286602e913960400191505060405180910390fd5b600054610100900460ff161580156120a5576000805460ff1961ff0019909116610100171660011790555b6033805460ff191690558015611d8b576000805461ff001916905550565b60006120cf8383611f56565b61210557508154600181810184556000848152602080822090930184905584548482528286019093526040902091909155610fec565b506000610fec565b600081815260018301602052604081205480156121c9578354600019808301919081019060009087908390811061214057fe5b906000526020600020015490508087600001848154811061215d57fe5b60009182526020808320909101929092558281526001898101909252604090209084019055865487908061218d57fe5b60019003818190600052602060002001600090559055866001016000878152602001908152602001600020600090556001945050505050610fec565b6000915050610fec56fe456e756d657261626c655365743a20696e646578206f7574206f6620626f756e6473416363657373436f6e74726f6c3a2073656e646572206d75737420626520616e2061646d696e20746f206772616e745472616e7366657248656c7065723a3a7472616e7366657246726f6d3a207472616e7366657246726f6d206661696c6564416363657373436f6e74726f6c3a2073656e646572206d75737420626520616e2061646d696e20746f207265766f6b65496e697469616c697a61626c653a20636f6e747261637420697320616c726561647920696e697469616c697a6564536166654d6174683a206d756c7469706c69636174696f6e206f766572666c6f7765d7a28e3265b37a6474929f336521b332c1681b933f6cb9f3376673440d862a5472616e7366657248656c7065723a3a736166655472616e736665723a207472616e73666572206661696c6564416363657373436f6e74726f6c3a2063616e206f6e6c792072656e6f756e636520726f6c657320666f722073656c66a2646970667358221220210d9ef55ac7103e7180e26a316115f07d01ca4f7a6b80b6270740735c3f343264736f6c63430007060033",
  "immutableReferences": {},
  "source": "// SPDX-License-Identifier: UNLICENSED\npragma solidity >=0.7.0;\n\nimport \"@openzeppelin/contracts-upgradeable/math/SafeMathUpgradeable.sol\";\nimport \"@openzeppelin/contracts-upgradeable/access/AccessControlUpgradeable.sol\";\nimport \"@openzeppelin/contracts-upgradeable/utils/PausableUpgradeable.sol\";\nimport \"./interfaces/ISTokens.sol\";\nimport \"./interfaces/IUTokens.sol\";\nimport \"./interfaces/IPSTAKE.sol\";\nimport \"./interfaces/IHolder.sol\";\nimport \"./interfaces/IStakeLPCore.sol\";\nimport \"./libraries/TransferHelper.sol\";\nimport \"./libraries/FullMath.sol\";\n\ncontract StakeLPCoreV8 is\n\tIStakeLPCore,\n\tPausableUpgradeable,\n\tAccessControlUpgradeable\n{\n\tusing SafeMathUpgradeable for uint256;\n\tusing FullMath for uint256;\n\n\t// constant pertaining to access roles\n\tbytes32 public constant PAUSER_ROLE = keccak256(\"PAUSER_ROLE\");\n\n\t// balance of user for an LP Token\n\tmapping(address => mapping(address => uint256)) public _lpBalance;\n\t// supply for an LP Token\n\tmapping(address => uint256) public _lpSupply;\n\t// last recorded total LPTimeShare\n\tmapping(address => uint256) public _lastLPTimeShare;\n\t// last recorded timestamp when rewards were disbursed\n\tmapping(address => uint256) public _lastLPTimeShareTimestamp;\n\t// last recorded timestamp when PSTAKE tokens were disbursed\n\tmapping(address => mapping(address => uint256))\n\t\tpublic _lastLiquidityTimestamp;\n\n\t//Private instances of contracts to handle Utokens and Stokens\n\tIUTokens public _uTokens;\n\tISTokens public _sTokens;\n\tIPSTAKE public _pstakeTokens;\n\n\t/**\n\t * @dev Constructor for initializing the LiquidStaking contract.\n\t * @param uAddress - address of the UToken contract.\n\t * @param sAddress - address of the SToken contract.\n\t * @param pStakeAddress - address of the pStake contract address.\n\t */\n\tfunction initialize(\n\t\taddress uAddress,\n\t\taddress sAddress,\n\t\taddress pStakeAddress,\n\t\taddress pauserAddress\n\t) public virtual initializer {\n\t\t__AccessControl_init();\n\t\t__Pausable_init();\n\t\t_setupRole(DEFAULT_ADMIN_ROLE, _msgSender());\n\t\t_setupRole(PAUSER_ROLE, pauserAddress);\n\t\tsetUTokensContract(uAddress);\n\t\tsetSTokensContract(sAddress);\n\t\tsetPSTAKEContract(pStakeAddress);\n\t\t// _lastLPTimeShareTimestamp = block.timestamp;\n\t}\n\n\t/*\n\t * @dev calculate liquidity and reward tokens and disburse to user\n\t * @param lpToken: lp token contract address\n\t * @param to: user address\n\t * @param liquidityWeightFactor: coming as an argument for further calculations\n\t * @param rewardWeightFactor: coming as an argument for further calculations\n\t * @param valueDivisor: coming as an argument for further calculations\n\t */\n\tfunction calculatePendingRewardsAndLiquidity(\n\t\taddress holderAddress,\n\t\taddress lpToken,\n\t\taddress to\n\t)\n\t\tpublic\n\t\tview\n\t\treturns (\n\t\t\tuint256 liquidity,\n\t\t\tuint256 reward,\n\t\t\tuint256 updatedSupplyLPTimeshare\n\t\t)\n\t{\n\t\t// get the balance of user's LP token\n\t\tuint256 _lpBalanceUser = _lpBalance[lpToken][to];\n\t\tuint256 _lpSupplyContract = _lpSupply[lpToken];\n\n\t\t// calculate the LPTimeShare of the user's LP Token\n\t\tuint256 _userLPTimeShare = (\n\t\t\t_lpBalanceUser.mul(\n\t\t\t\tblock.timestamp.sub(_lastLiquidityTimestamp[lpToken][to])\n\t\t\t)\n\t\t);\n\n\t\t// calculate the LPTimeShare of the sum of supply of all LP Tokens\n\t\tuint256 _newSupplyLPTimeShare = (\n\t\t\t_lpSupplyContract.mul(\n\t\t\t\tblock.timestamp.sub(_lastLPTimeShareTimestamp[lpToken])\n\t\t\t)\n\t\t);\n\t\tuint256 _totalSupplyLPTimeShare = _lastLPTimeShare[lpToken].add(\n\t\t\t_newSupplyLPTimeShare\n\t\t);\n\t\t// is the remaining LPTimeShare of the total supply after the tokens for the user has been dispatched\n\t\tupdatedSupplyLPTimeshare = _totalSupplyLPTimeShare.sub(\n\t\t\t_userLPTimeShare\n\t\t);\n\n\t\tif (_totalSupplyLPTimeShare > 0) {\n\t\t\t// calculate users new reward tokens\n\t\t\tuint256 _rewardPool = _uTokens.balanceOf(holderAddress);\n\t\t\treward = _rewardPool.mulDiv(\n\t\t\t\t_userLPTimeShare,\n\t\t\t\t_totalSupplyLPTimeShare\n\t\t\t);\n\n\t\t\t// calculate users new liquidity tokens\n\t\t\tuint256 _liquidityPool = _pstakeTokens.balanceOf(holderAddress);\n\t\t\tliquidity = _liquidityPool.mulDiv(\n\t\t\t\t_userLPTimeShare,\n\t\t\t\t_totalSupplyLPTimeShare\n\t\t\t);\n\t\t}\n\t}\n\n\t/*\n\t * @dev calculate liquidity and reward tokens and disburse to user\n\t * @param lpToken: lp token contract address\n\t * @param to: user address\n\t * @param liquidityWeightFactor: coming as an argument for further calculations\n\t * @param rewardWeightFactor: coming as an argument for further calculations\n\t * @param valueDivisor: coming as an argument for further calculations\n\t */\n\tfunction _calculateRewardsAndLiquidity(\n\t\taddress holderAddress,\n\t\taddress lpToken,\n\t\taddress to\n\t) internal returns (uint256 liquidity, uint256 reward) {\n\t\tuint256 updatedSupplyLPTimeshare;\n\t\t(\n\t\t\tliquidity,\n\t\t\treward,\n\t\t\tupdatedSupplyLPTimeshare\n\t\t) = calculatePendingRewardsAndLiquidity(holderAddress, lpToken, to);\n\n\t\t// update last timestamps and LPTimeShares as per Checks-Effects-Interactions pattern\n\t\t_lastLiquidityTimestamp[lpToken][to] = block.timestamp;\n\t\t_lastLPTimeShareTimestamp[lpToken] = block.timestamp;\n\t\t_lastLPTimeShare[lpToken] = updatedSupplyLPTimeshare;\n\n\t\t// DISBURSE THE LIQUIDITY TOKENS TO USER (transfer)\n\t\tif (liquidity > 0)\n\t\t\tIHolder(holderAddress).safeTransfer(\n\t\t\t\taddress(_pstakeTokens),\n\t\t\t\tto,\n\t\t\t\tliquidity\n\t\t\t);\n\n\t\t// DISBURSE THE REWARD TOKENS TO USER (transfer)\n\t\tif (reward > 0)\n\t\t\tIHolder(holderAddress).safeTransfer(address(_uTokens), to, reward);\n\t}\n\n\t/*\n\t * @dev calculate liquidity and reward tokens and disburse to user\n\t * @param lpToken: lp token contract address\n\t * @param amount: token amount\n\t */\n\tfunction calculateRewardsAndLiquidity(address whitelistedAddress)\n\t\tpublic\n\t\twhenNotPaused\n\t\treturns (uint256 liquidity, uint256 reward)\n\t{\n\t\t// check for validity of arguments\n\t\trequire(whitelistedAddress != address(0), \"LP2\");\n\n\t\t// check if lpToken contract of DeFi product address is whitelisted and has valid holder contract\n\t\t(address _holderAddress, address _lpToken, ) = _sTokens.getHolderData(\n\t\t\twhitelistedAddress\n\t\t);\n\n\t\t// (bool _isContractWhitelisted, address _holderAddress) = _sTokens.isContractWhitelisted(_lpToken);\n\t\trequire(_lpToken != address(0) && _holderAddress != address(0), \"LP1\");\n\n\t\t// calculate liquidity and reward tokens and disburse to user\n\t\t(liquidity, reward) = _calculateRewardsAndLiquidity(\n\t\t\t_holderAddress,\n\t\t\t_lpToken,\n\t\t\t_msgSender()\n\t\t);\n\t\temit CalculateRewardsAndLiquidity(\n\t\t\t_holderAddress,\n\t\t\t_lpToken,\n\t\t\t_msgSender(),\n\t\t\tliquidity,\n\t\t\treward\n\t\t);\n\t}\n\n\t/*\n\t * @dev adding the liquidity\n\t * @param lpToken: lp token contract address\n\t * @param amount: token amount\n\t *\n\t * Emits a {AddLiquidity} event with 'lpToken, amount, rewards and liquidity'\n\t *\n\t */\n\tfunction addLiquidity(address whitelistedAddress, uint256 amount)\n\t\tpublic\n\t\tvirtual\n\t\toverride\n\t\twhenNotPaused\n\t\treturns (uint256 liquidity, uint256 rewards)\n\t{\n\t\t// check for validity of arguments\n\t\trequire(amount > 0 && whitelistedAddress != address(0), \"LP3\");\n\n\t\t// check if lpToken contract of DeFi product address is whitelisted and has valid holder contract\n\t\t// (bool _isContractWhitelisted, address _holderAddress) = _sTokens.isContractWhitelisted(_lpToken);\n\t\t(address _holderAddress, address _lpToken, ) = _sTokens.getHolderData(\n\t\t\twhitelistedAddress\n\t\t);\n\t\trequire(_holderAddress != address(0) && _lpToken != address(0), \"LP4\");\n\t\taddress messageSender = _msgSender();\n\n\t\t// calculate liquidity and reward tokens and disburse to user\n\t\t(rewards, liquidity) = _calculateRewardsAndLiquidity(\n\t\t\t_holderAddress,\n\t\t\t_lpToken,\n\t\t\tmessageSender\n\t\t);\n\t\t// finally transfer the new LP Tokens to the StakeLP contract\n\t\tTransferHelper.safeTransferFrom(\n\t\t\t_lpToken,\n\t\t\tmessageSender,\n\t\t\taddress(this),\n\t\t\tamount\n\t\t);\n\t\t// update the user balance\n\t\t_lpBalance[_lpToken][messageSender] = _lpBalance[_lpToken][\n\t\t\tmessageSender\n\t\t].add(amount);\n\t\t// update the supply of lp tokens for reward and liquidity calculation\n\t\t_lpSupply[_lpToken] = _lpSupply[_lpToken].add(amount);\n\t\temit AddLiquidity(_lpToken, amount, rewards, liquidity);\n\t}\n\n\t/*\n\t * @dev removing the liquidity\n\t * @param lpToken: lp token contract address\n\t * @param amount: token amount\n\t *\n\t * Emits a {RemoveLiquidity} event with 'lpToken, amount, rewards and liquidity'\n\t *\n\t */\n\tfunction removeLiquidity(address whitelistedAddress, uint256 amount)\n\t\tpublic\n\t\tvirtual\n\t\toverride\n\t\twhenNotPaused\n\t\treturns (uint256 liquidity, uint256 rewards)\n\t{\n\t\t// check for validity of arguments\n\t\trequire(amount > 0 && whitelistedAddress != address(0), \"LP6\");\n\n\t\t// check if lpToken contract of DeFi product address is whitelisted and has valid holder contract\n\t\t// (bool _isContractWhitelisted, address _holderAddress) = _sTokens.isContractWhitelisted(lpToken);\n\t\t(address _holderAddress, address _lpToken, ) = _sTokens.getHolderData(\n\t\t\twhitelistedAddress\n\t\t);\n\t\trequire(_holderAddress != address(0) && _lpToken != address(0), \"LP7\");\n\t\taddress messageSender = _msgSender();\n\n\t\t// check if suffecient balance is there\n\t\trequire(_lpBalance[_lpToken][messageSender] >= amount, \"LP8\");\n\n\t\t// calculate liquidity and reward tokens and disburse to user\n\t\t(rewards, liquidity) = _calculateRewardsAndLiquidity(\n\t\t\t_holderAddress,\n\t\t\t_lpToken,\n\t\t\tmessageSender\n\t\t);\n\t\t// finally transfer the LP Tokens to the user\n\t\tTransferHelper.safeTransfer(_lpToken, messageSender, amount);\n\t\t// update the user balance\n\t\t_lpBalance[_lpToken][messageSender] = _lpBalance[_lpToken][\n\t\t\tmessageSender\n\t\t].sub(amount);\n\t\t// update the supply of lp tokens for reward and liquidity calculation\n\t\t_lpSupply[_lpToken] = _lpSupply[_lpToken].sub(amount);\n\t\temit RemoveLiquidity(_lpToken, amount, rewards, liquidity);\n\t}\n\n\t/**\n\t * @dev Set 'contract address', called from constructor\n\t * @param uAddress: utoken contract address\n\t *\n\t * Emits a {SetUTokensContract} event with '_contract' set to the utoken contract address.\n\t *\n\t */\n\tfunction setUTokensContract(address uAddress) public virtual override {\n\t\trequire(hasRole(DEFAULT_ADMIN_ROLE, _msgSender()), \"LP9\");\n\t\t_uTokens = IUTokens(uAddress);\n\t\temit SetUTokensContract(uAddress);\n\t}\n\n\t/**\n\t * @dev Set 'contract address', called from constructor\n\t * @param sAddress: stoken contract address\n\t *\n\t * Emits a {SetSTokensContract} event with '_contract' set to the stoken contract address.\n\t *\n\t */\n\tfunction setSTokensContract(address sAddress) public virtual override {\n\t\trequire(hasRole(DEFAULT_ADMIN_ROLE, _msgSender()), \"LP10\");\n\t\t_sTokens = ISTokens(sAddress);\n\t\temit SetSTokensContract(sAddress);\n\t}\n\n\t/**\n\t * @dev Set 'contract address', called from constructor\n\t * @param pstakeAddress: pStake contract address\n\t *\n\t * Emits a {SetPSTAKEContract} event with '_contract' set to the stoken contract address.\n\t *\n\t */\n\tfunction setPSTAKEContract(address pstakeAddress) public virtual override {\n\t\trequire(hasRole(DEFAULT_ADMIN_ROLE, _msgSender()), \"LP11\");\n\t\t_pstakeTokens = IPSTAKE(pstakeAddress);\n\t\temit SetPSTAKEContract(pstakeAddress);\n\t}\n\n\t/**\n\t * @dev Triggers stopped state.\n\t *\n\t * Requirements:\n\t *\n\t * - The contract must not be paused.\n\t */\n\tfunction pause() public virtual returns (bool success) {\n\t\trequire(hasRole(PAUSER_ROLE, _msgSender()), \"LP12\");\n\t\t_pause();\n\t\treturn true;\n\t}\n\n\t/**\n\t * @dev Returns to normal state.\n\t *\n\t * Requirements:\n\t *\n\t * - The contract must be paused.\n\t */\n\tfunction unpause() public virtual returns (bool success) {\n\t\trequire(hasRole(PAUSER_ROLE, _msgSender()), \"LP13\");\n\t\t_unpause();\n\t\treturn true;\n\t}\n}\n",
  "sourcePath": "C:\\Users\\Kamlesh\\Persistence\\pStake\\codebase\\pStake-smartContracts\\contracts\\StakeLPCoreV8.sol",
  "compiler": {
    "name": "solc",
    "version": "0.7.6+commit.7338295f.Emscripten.clang"
  },
  "schemaVersion": "3.4.3",
  "updatedAt": "2021-08-14T08:42:14.354Z",
  "devdoc": {
    "kind": "dev",
    "methods": {
      "getRoleAdmin(bytes32)": {
        "details": "Returns the admin role that controls `role`. See {grantRole} and {revokeRole}. To change a role's admin, use {_setRoleAdmin}."
      },
      "getRoleMember(bytes32,uint256)": {
        "details": "Returns one of the accounts that have `role`. `index` must be a value between 0 and {getRoleMemberCount}, non-inclusive. Role bearers are not sorted in any particular way, and their ordering may change at any point. WARNING: When using {getRoleMember} and {getRoleMemberCount}, make sure you perform all queries on the same block. See the following https://forum.openzeppelin.com/t/iterating-over-elements-on-enumerableset-in-openzeppelin-contracts/2296[forum post] for more information."
      },
      "getRoleMemberCount(bytes32)": {
        "details": "Returns the number of accounts that have `role`. Can be used together with {getRoleMember} to enumerate all bearers of a role."
      },
      "grantRole(bytes32,address)": {
        "details": "Grants `role` to `account`. If `account` had not been already granted `role`, emits a {RoleGranted} event. Requirements: - the caller must have ``role``'s admin role."
      },
      "hasRole(bytes32,address)": {
        "details": "Returns `true` if `account` has been granted `role`."
      },
      "initialize(address,address,address,address)": {
        "details": "Constructor for initializing the LiquidStaking contract.",
        "params": {
          "pStakeAddress": "- address of the pStake contract address.",
          "sAddress": "- address of the SToken contract.",
          "uAddress": "- address of the UToken contract."
        }
      },
      "pause()": {
        "details": "Triggers stopped state. Requirements: - The contract must not be paused."
      },
      "paused()": {
        "details": "Returns true if the contract is paused, and false otherwise."
      },
      "renounceRole(bytes32,address)": {
        "details": "Revokes `role` from the calling account. Roles are often managed via {grantRole} and {revokeRole}: this function's purpose is to provide a mechanism for accounts to lose their privileges if they are compromised (such as when a trusted device is misplaced). If the calling account had been granted `role`, emits a {RoleRevoked} event. Requirements: - the caller must be `account`."
      },
      "revokeRole(bytes32,address)": {
        "details": "Revokes `role` from `account`. If `account` had been granted `role`, emits a {RoleRevoked} event. Requirements: - the caller must have ``role``'s admin role."
      },
      "setPSTAKEContract(address)": {
        "details": "Set 'contract address', called from constructor",
        "params": {
          "pstakeAddress": ": pStake contract address Emits a {SetPSTAKEContract} event with '_contract' set to the stoken contract address."
        }
      },
      "setSTokensContract(address)": {
        "details": "Set 'contract address', called from constructor",
        "params": {
          "sAddress": ": stoken contract address Emits a {SetSTokensContract} event with '_contract' set to the stoken contract address."
        }
      },
      "setUTokensContract(address)": {
        "details": "Set 'contract address', called from constructor",
        "params": {
          "uAddress": ": utoken contract address Emits a {SetUTokensContract} event with '_contract' set to the utoken contract address."
        }
      },
      "unpause()": {
        "details": "Returns to normal state. Requirements: - The contract must be paused."
      }
    },
    "version": 1
  },
  "userdoc": {
    "kind": "user",
    "methods": {},
    "version": 1
  }
}