{
  "contractName": "Bech32Validation",
  "abi": [
    {
      "inputs": [],
      "name": "initialize",
      "outputs": [],
      "stateMutability": "nonpayable",
      "type": "function"
    },
    {
      "inputs": [
        {
          "internalType": "string",
          "name": "blockchainAddress",
          "type": "string"
        }
      ],
      "name": "isBech32AddressValid",
      "outputs": [
        {
          "internalType": "bool",
          "name": "",
          "type": "bool"
        }
      ],
      "stateMutability": "view",
      "type": "function"
    },
    {
      "inputs": [
        {
          "internalType": "string",
          "name": "addressDigestStr_",
          "type": "string"
        }
      ],
      "name": "bech32ValidateStr",
      "outputs": [
        {
          "internalType": "bool",
          "name": "",
          "type": "bool"
        }
      ],
      "stateMutability": "view",
      "type": "function"
    },
    {
      "inputs": [
        {
          "internalType": "bytes",
          "name": "addressDigestBytes_",
          "type": "bytes"
        },
        {
          "internalType": "bytes",
          "name": "hrpBytes_",
          "type": "bytes"
        },
        {
          "internalType": "bytes",
          "name": "controlDigitBytes_",
          "type": "bytes"
        },
        {
          "internalType": "uint256",
          "name": "dataSize_",
          "type": "uint256"
        }
      ],
      "name": "bech32Validate",
      "outputs": [
        {
          "internalType": "bool",
          "name": "",
          "type": "bool"
        }
      ],
      "stateMutability": "pure",
      "type": "function"
    },
    {
      "inputs": [
        {
          "internalType": "string",
          "name": "addressDigestStr_",
          "type": "string"
        }
      ],
      "name": "hrpValidateStr",
      "outputs": [
        {
          "internalType": "bool",
          "name": "",
          "type": "bool"
        }
      ],
      "stateMutability": "view",
      "type": "function"
    },
    {
      "inputs": [
        {
          "internalType": "bytes",
          "name": "addressDigestBytes_",
          "type": "bytes"
        },
        {
          "internalType": "bytes",
          "name": "hrpBytes_",
          "type": "bytes"
        }
      ],
      "name": "hrpValidate",
      "outputs": [
        {
          "internalType": "bool",
          "name": "",
          "type": "bool"
        }
      ],
      "stateMutability": "pure",
      "type": "function"
    },
    {
      "inputs": [
        {
          "internalType": "string",
          "name": "addressDigestStr_",
          "type": "string"
        }
      ],
      "name": "controlDigitValidateStr",
      "outputs": [
        {
          "internalType": "bool",
          "name": "",
          "type": "bool"
        }
      ],
      "stateMutability": "view",
      "type": "function"
    },
    {
      "inputs": [
        {
          "internalType": "bytes",
          "name": "addressDigestBytes_",
          "type": "bytes"
        },
        {
          "internalType": "bytes",
          "name": "hrpBytes_",
          "type": "bytes"
        },
        {
          "internalType": "bytes",
          "name": "controlDigit_",
          "type": "bytes"
        }
      ],
      "name": "controlDigitValidate",
      "outputs": [
        {
          "internalType": "bool",
          "name": "",
          "type": "bool"
        }
      ],
      "stateMutability": "pure",
      "type": "function"
    },
    {
      "inputs": [
        {
          "internalType": "string",
          "name": "addressDigestStr_",
          "type": "string"
        }
      ],
      "name": "dataSizeValidateStr",
      "outputs": [
        {
          "internalType": "bool",
          "name": "",
          "type": "bool"
        }
      ],
      "stateMutability": "view",
      "type": "function"
    },
    {
      "inputs": [
        {
          "internalType": "bytes",
          "name": "addressDigestBytes_",
          "type": "bytes"
        },
        {
          "internalType": "bytes",
          "name": "hrpBytes_",
          "type": "bytes"
        },
        {
          "internalType": "uint256",
          "name": "dataSize_",
          "type": "uint256"
        }
      ],
      "name": "dataSizeValidate",
      "outputs": [
        {
          "internalType": "bool",
          "name": "",
          "type": "bool"
        }
      ],
      "stateMutability": "pure",
      "type": "function"
    },
    {
      "inputs": [
        {
          "internalType": "string",
          "name": "addressDigestStr_",
          "type": "string"
        }
      ],
      "name": "checksumValidateStr",
      "outputs": [
        {
          "internalType": "bool",
          "name": "",
          "type": "bool"
        }
      ],
      "stateMutability": "view",
      "type": "function"
    },
    {
      "inputs": [
        {
          "internalType": "bytes",
          "name": "addressDigestBytes_",
          "type": "bytes"
        },
        {
          "internalType": "bytes",
          "name": "hrpBytes_",
          "type": "bytes"
        }
      ],
      "name": "checksumValidate",
      "outputs": [
        {
          "internalType": "bool",
          "name": "",
          "type": "bool"
        }
      ],
      "stateMutability": "pure",
      "type": "function"
    },
    {
      "inputs": [
        {
          "internalType": "string",
          "name": "addressDigestStr_",
          "type": "string"
        }
      ],
      "name": "decodeStr",
      "outputs": [
        {
          "internalType": "uint256[]",
          "name": "decodedBytes",
          "type": "uint256[]"
        }
      ],
      "stateMutability": "pure",
      "type": "function"
    },
    {
      "inputs": [
        {
          "internalType": "bytes",
          "name": "addressDigestBytes_",
          "type": "bytes"
        }
      ],
      "name": "decode",
      "outputs": [
        {
          "internalType": "uint256[]",
          "name": "decodedBytes",
          "type": "uint256[]"
        }
      ],
      "stateMutability": "pure",
      "type": "function"
    },
    {
      "inputs": [
        {
          "internalType": "string",
          "name": "dataDigestStr_",
          "type": "string"
        }
      ],
      "name": "toUintFromStr",
      "outputs": [
        {
          "internalType": "uint256[]",
          "name": "dataDigest",
          "type": "uint256[]"
        }
      ],
      "stateMutability": "pure",
      "type": "function"
    },
    {
      "inputs": [
        {
          "internalType": "bytes",
          "name": "dataDigestBytes_",
          "type": "bytes"
        }
      ],
      "name": "toUintFromBytes",
      "outputs": [
        {
          "internalType": "uint256[]",
          "name": "dataDigest",
          "type": "uint256[]"
        }
      ],
      "stateMutability": "pure",
      "type": "function"
    },
    {
      "inputs": [
        {
          "internalType": "bytes",
          "name": "dataDigestBytes_",
          "type": "bytes"
        }
      ],
      "name": "toUintFromBytes2",
      "outputs": [
        {
          "internalType": "uint256[]",
          "name": "dataDigest",
          "type": "uint256[]"
        }
      ],
      "stateMutability": "pure",
      "type": "function"
    }
  ],
  "bytecode": "0x608060405234801561001057600080fd5b50611fcb806100206000396000f3fe608060405234801561001057600080fd5b506004361061010b5760003560e01c8063878960b2116100a2578063c4eec1d811610071578063c4eec1d814610a9e578063dee9b9af14610bc9578063e5c5e9a314610d79578063e68476c814610e1d578063ee0fd27414610ec15761010b565b8063878960b21461070457806396c3be5f146107a8578063a84ab3be146108d1578063c3b1d942146109fa5761010b565b80637c02b09a116100de5780637c02b09a146104045780637e770a83146105b25780638129fc1c1461065657806384bb4be3146106605761010b565b806307e78a1d1461011057806315677dde146101c8578063463a057e1461026c5780636df8716e14610360575b600080fd5b6101b46004803603602081101561012657600080fd5b810190602081018135600160201b81111561014057600080fd5b82018360208201111561015257600080fd5b803590602001918460018302840111600160201b8311171561017357600080fd5b91908080601f016020809104026020016040519081016040528093929190818152602001838380828437600092019190915250929550610f65945050505050565b604080519115158252519081900360200190f35b6101b4600480360360208110156101de57600080fd5b810190602081018135600160201b8111156101f857600080fd5b82018360208201111561020a57600080fd5b803590602001918460018302840111600160201b8311171561022b57600080fd5b91908080601f016020809104026020016040519081016040528093929190818152602001838380828437600092019190915250929550611093945050505050565b6103106004803603602081101561028257600080fd5b810190602081018135600160201b81111561029c57600080fd5b8201836020820111156102ae57600080fd5b803590602001918460018302840111600160201b831117156102cf57600080fd5b91908080601f016020809104026020016040519081016040528093929190818152602001838380828437600092019190915250929550611142945050505050565b60408051602080825283518183015283519192839290830191858101910280838360005b8381101561034c578181015183820152602001610334565b505050509050019250505060405180910390f35b6101b46004803603602081101561037657600080fd5b810190602081018135600160201b81111561039057600080fd5b8201836020820111156103a257600080fd5b803590602001918460018302840111600160201b831117156103c357600080fd5b91908080601f01602080910402602001604051908101604052809392919081815260200183838082843760009201919091525092955061114e945050505050565b6101b46004803603606081101561041a57600080fd5b810190602081018135600160201b81111561043457600080fd5b82018360208201111561044657600080fd5b803590602001918460018302840111600160201b8311171561046757600080fd5b91908080601f0160208091040260200160405190810160405280939291908181526020018383808284376000920191909152509295949360208101935035915050600160201b8111156104b957600080fd5b8201836020820111156104cb57600080fd5b803590602001918460018302840111600160201b831117156104ec57600080fd5b91908080601f0160208091040260200160405190810160405280939291908181526020018383808284376000920191909152509295949360208101935035915050600160201b81111561053e57600080fd5b82018360208201111561055057600080fd5b803590602001918460018302840111600160201b8311171561057157600080fd5b91908080601f01602080910402602001604051908101604052809392919081815260200183838082843760009201919091525092955061115f945050505050565b6101b4600480360360208110156105c857600080fd5b810190602081018135600160201b8111156105e257600080fd5b8201836020820111156105f457600080fd5b803590602001918460018302840111600160201b8311171561061557600080fd5b91908080601f0160208091040260200160405190810160405280939291908181526020018383808284376000920191909152509295506111a0945050505050565b61065e61123a565b005b6103106004803603602081101561067657600080fd5b810190602081018135600160201b81111561069057600080fd5b8201836020820111156106a257600080fd5b803590602001918460018302840111600160201b831117156106c357600080fd5b91908080601f016020809104026020016040519081016040528093929190818152602001838380828437600092019190915250929550611338945050505050565b6103106004803603602081101561071a57600080fd5b810190602081018135600160201b81111561073457600080fd5b82018360208201111561074657600080fd5b803590602001918460018302840111600160201b8311171561076757600080fd5b91908080601f0160208091040260200160405190810160405280939291908181526020018383808284376000920191909152509295506113cd945050505050565b6101b4600480360360408110156107be57600080fd5b810190602081018135600160201b8111156107d857600080fd5b8201836020820111156107ea57600080fd5b803590602001918460018302840111600160201b8311171561080b57600080fd5b91908080601f0160208091040260200160405190810160405280939291908181526020018383808284376000920191909152509295949360208101935035915050600160201b81111561085d57600080fd5b82018360208201111561086f57600080fd5b803590602001918460018302840111600160201b8311171561089057600080fd5b91908080601f0160208091040260200160405190810160405280939291908181526020018383808284376000920191909152509295506113d9945050505050565b6101b4600480360360408110156108e757600080fd5b810190602081018135600160201b81111561090157600080fd5b82018360208201111561091357600080fd5b803590602001918460018302840111600160201b8311171561093457600080fd5b91908080601f0160208091040260200160405190810160405280939291908181526020018383808284376000920191909152509295949360208101935035915050600160201b81111561098657600080fd5b82018360208201111561099857600080fd5b803590602001918460018302840111600160201b831117156109b957600080fd5b91908080601f016020809104026020016040519081016040528093929190818152602001838380828437600092019190915250929550611417945050505050565b61031060048036036020811015610a1057600080fd5b810190602081018135600160201b811115610a2a57600080fd5b820183602082011115610a3c57600080fd5b803590602001918460018302840111600160201b83111715610a5d57600080fd5b91908080601f0160208091040260200160405190810160405280939291908181526020018383808284376000920191909152509295506114b5945050505050565b6101b460048036036060811015610ab457600080fd5b810190602081018135600160201b811115610ace57600080fd5b820183602082011115610ae057600080fd5b803590602001918460018302840111600160201b83111715610b0157600080fd5b91908080601f0160208091040260200160405190810160405280939291908181526020018383808284376000920191909152509295949360208101935035915050600160201b811115610b5357600080fd5b820183602082011115610b6557600080fd5b803590602001918460018302840111600160201b83111715610b8657600080fd5b91908080601f0160208091040260200160405190810160405280939291908181526020018383808284376000920191909152509295505091359250611547915050565b6101b460048036036080811015610bdf57600080fd5b810190602081018135600160201b811115610bf957600080fd5b820183602082011115610c0b57600080fd5b803590602001918460018302840111600160201b83111715610c2c57600080fd5b91908080601f0160208091040260200160405190810160405280939291908181526020018383808284376000920191909152509295949360208101935035915050600160201b811115610c7e57600080fd5b820183602082011115610c9057600080fd5b803590602001918460018302840111600160201b83111715610cb157600080fd5b91908080601f0160208091040260200160405190810160405280939291908181526020018383808284376000920191909152509295949360208101935035915050600160201b811115610d0357600080fd5b820183602082011115610d1557600080fd5b803590602001918460018302840111600160201b83111715610d3657600080fd5b91908080601f016020809104026020016040519081016040528093929190818152602001838380828437600092019190915250929550509135925061157e915050565b61031060048036036020811015610d8f57600080fd5b810190602081018135600160201b811115610da957600080fd5b820183602082011115610dbb57600080fd5b803590602001918460018302840111600160201b83111715610ddc57600080fd5b91908080601f0160208091040260200160405190810160405280939291908181526020018383808284376000920191909152509295506115ee945050505050565b6101b460048036036020811015610e3357600080fd5b810190602081018135600160201b811115610e4d57600080fd5b820183602082011115610e5f57600080fd5b803590602001918460018302840111600160201b83111715610e8057600080fd5b91908080601f016020809104026020016040519081016040528093929190818152602001838380828437600092019190915250929550611749945050505050565b6101b460048036036020811015610ed757600080fd5b810190602081018135600160201b811115610ef157600080fd5b820183602082011115610f0357600080fd5b803590602001918460018302840111600160201b83111715610f2457600080fd5b91908080601f0160208091040260200160405190810160405280939291908181526020018383808284376000920191909152509295506117a8945050505050565b60018054604080516020600284861615610100026000190190941693909304601f8101849004840282018401909252818152600093859361108a9385939291830182828015610ff55780601f10610fca57610100808354040283529160200191610ff5565b820191906000526020600020905b815481529060010190602001808311610fd857829003601f168201915b505060028054604080516020601f60001961010060018716150201909416859004938401819004810282018101909252828152955091935091508301828280156110805780601f1061105557610100808354040283529160200191611080565b820191906000526020600020905b81548152906001019060200180831161106357829003601f168201915b505050505061115f565b9150505b919050565b80516000908290602d146110ab57600091505061108e565b60018054604080516020600284861615610100026000190190941693909304601f810184900484028201840190925281815261108a938593919290918301828280156111385780601f1061110d57610100808354040283529160200191611138565b820191906000526020600020905b81548152906001019060200180831161111b57829003601f168201915b50505050506113d9565b60608161108a816115ee565b600061115982611749565b92915050565b60008061117984516001876118459092919063ffffffff16565b9050611185818461194e565b611193576000915050611199565b60019150505b9392505050565b60018054604080516020600284861615610100026000190190941693909304601f8101849004840282018401909252818152600093859361108a93859392918301828280156112305780601f1061120557610100808354040283529160200191611230565b820191906000526020600020905b81548152906001019060200180831161121357829003601f168201915b5050505050611417565b600054610100900460ff168061125357506112536119b2565b80611261575060005460ff16155b61129c5760405162461bcd60e51b815260040180806020018281038252602e815260200180611f48602e913960400191505060405180910390fd5b600054610100900460ff161580156112c7576000805460ff1961ff0019909116610100171660011790555b60408051808201909152600680825265636f736d6f7360d01b60209092019182526112f491600191611ea6565b50604080518082019091526001808252603160f81b602090920191825261131d91600291611ea6565b5060266003558015611335576000805461ff00191690555b50565b6060815167ffffffffffffffff8111801561135257600080fd5b5060405190808252806020026020018201604052801561137c578160200160208202803683370190505b50905060005b82518110156113c75782818151811061139757fe5b602001015160f81c60f81b60f81c60ff168282815181106113b457fe5b6020908102919091010152600101611382565b50919050565b60608161108a81611338565b6000806113f360008451866118459092919063ffffffff16565b90506113ff818461194e565b61140d576000915050611159565b5060019392505050565b6000806060600061143e85516001016001875189510303886118459092919063ffffffff16565b8551875191925060009161145e9189916001820191600619910301611845565b9050600061146b826115ee565b905080516000141561148557600095505050505050611159565b600061149088611338565b905061149c81836119c3565b94506114a8848661194e565b9998505050505050505050565b6060815167ffffffffffffffff811180156114cf57600080fd5b506040519080825280602002602001820160405280156114f9578160200160208202803683370190505b50905060005b82518110156113c75782818151811061151457fe5b016020015182516001600160f81b03199091169083908390811061153457fe5b60209081029190910101526001016114ff565b60008061156a84516001016001865188510303876118459092919063ffffffff16565b905082815114611193576000915050611199565b60008061158b86866113d9565b9050806115995790506115e6565b6115a486868661115f565b9050806115b25790506115e6565b6115bd868685611547565b9050806115cb5790506115e6565b6115d58686611417565b9050806115e35790506115e6565b90505b949350505050565b6060815167ffffffffffffffff8111801561160857600080fd5b50604051908082528060200260200182016040528015611632578160200160208202803683370190505b50905060606000805b845181101561174157600091505b604051806040016040528060208152602001600080516020611f76833981519152815250518210156116ea57604051806040016040528060208152602001600080516020611f7683398151915281525082815181106116a457fe5b602001015160f81c60f81b6001600160f81b0319168582815181106116c557fe5b01602001516001600160f81b03191614156116df576116ea565b600190910190611649565b604051806040016040528060208152602001600080516020611f76833981519152815250518214156117215782935050505061108e565b8184828151811061172e57fe5b602090810291909101015260010161163b565b505050919050565b60008061175583611093565b90508061176357905061108e565b61176c83610f65565b90508061177a57905061108e565b611783836117a8565b90508061179157905061108e565b61179a836111a0565b90508061115957905061108e565b60018054604080516020600284861615610100026000190190941693909304601f8101849004840282018401909252818152600093859361108a93859392918301828280156118385780601f1061180d57610100808354040283529160200191611838565b820191906000526020600020905b81548152906001019060200180831161181b57829003601f168201915b5050505050600354611547565b60608182601f011015611890576040805162461bcd60e51b815260206004820152600e60248201526d736c6963655f6f766572666c6f7760901b604482015290519081900360640190fd5b818301845110156118dc576040805162461bcd60e51b8152602060048201526011602482015270736c6963655f6f75744f66426f756e647360781b604482015290519081900360640190fd5b6060821580156118fb5760405191506000825260208201604052611945565b6040519150601f8416801560200281840101858101878315602002848b0101015b8183101561193457805183526020928301920161191c565b5050858452601f01601f1916604052505b50949350505050565b81518151600091600191811480831461196a57600092506119a8565b600160208701838101602088015b6002848385100114156119a35780518351146119975760009650600093505b60209283019201611978565b505050505b5090949350505050565b60006119bd30611aa8565b15905090565b606060006119da836119d58686611aae565b611b4b565b90506000815167ffffffffffffffff811180156119f657600080fd5b506040519080825280601f01601f191660200182016040528015611a21576020820181803683370190505b50905060005b825181101561194557604051806040016040528060208152602001600080516020611f76833981519152815250838281518110611a6057fe5b602002602001015181518110611a7257fe5b602001015160f81c60f81b828281518110611a8957fe5b60200101906001600160f81b031916908160001a905350600101611a27565b3b151590565b60606000611ad0611ac7611ac186611c1e565b85611b4b565b60006006611d1b565b90506000611add82611de1565b60408051600680825260e082019092526001929092189250600091906020820160c08036833701905050905060005b6006811015611b41578060050360050283901c601f16828281518110611b2e57fe5b6020908102919091010152600101611b0c565b5095945050505050565b60606000825184510167ffffffffffffffff81118015611b6a57600080fd5b50604051908082528060200260200182016040528015611b94578160200160208202803683370190505b50905060005b8451811015611bd657848181518110611baf57fe5b6020026020010151828281518110611bc357fe5b6020908102919091010152600101611b9a565b60005b84518110156119a8578451600182019186918110611bf357fe5b6020026020010151838380600101945081518110611c0d57fe5b602002602001018181525050611bd9565b60606000825183510160010167ffffffffffffffff81118015611c4057600080fd5b50604051908082528060200260200182016040528015611c6a578160200160208202803683370190505b50905060005b8351811015611cb0576005848281518110611c8757fe5b6020026020010151901c828281518110611c9d57fe5b6020908102919091010152600101611c70565b50600081845181518110611cc057fe5b60200260200101818152505060005b8351811015611d1457838181518110611ce457fe5b6020026020010151601f16828551830160010181518110611d0157fe5b6020908102919091010152600101611ccf565b5092915050565b606060008285510167ffffffffffffffff81118015611d3957600080fd5b50604051908082528060200260200182016040528015611d63578160200160208202803683370190505b50905060005b8551811015611da557858181518110611d7e57fe5b6020026020010151828281518110611d9257fe5b6020908102919091010152600101611d69565b60005b84811015611dd65785838380600101945081518110611dc357fe5b6020908102919091010152600101611da8565b509095945050505050565b6040805160a081018252633b6a57b281526326508e6d6020820152631ea119fa91810191909152633d4233dd6060820152632a1462b360808201526000906001825b8451811015611e9e576000601983901c9050858281518110611e4157fe5b60200260200101516005846301ffffff16901b18925060005b6005811015611e9457600182821c81161415611e8c57848160058110611e7c57fe5b602002015163ffffffff16841893505b600101611e5a565b5050600101611e23565b509392505050565b828054600181600116156101000203166002900490600052602060002090601f016020900481019282611edc5760008555611f22565b82601f10611ef557805160ff1916838001178555611f22565b82800160010185558215611f22579182015b82811115611f22578251825591602001919060010190611f07565b50611f2e929150611f32565b5090565b5b80821115611f2e5760008155600101611f3356fe496e697469616c697a61626c653a20636f6e747261637420697320616c726561647920696e697469616c697a656471707a7279397838676632747664773073336a6e35346b686365366d7561376ca2646970667358221220a5c3e3261a26f086554e23ad6c830db0df9ec28158aac88c6417a810c775b29764736f6c63430007060033",
  "immutableReferences": {},
  "source": "// SPDX-License-Identifier: UNLICENSED\npragma solidity >=0.7.0;\n\nimport \"./BytesLib.sol\";\nimport \"@openzeppelin/contracts-upgradeable/proxy/Initializable.sol\";\n\n// requirement: validate addresses like cosmosvaloper1susdz7trk9edeqf3qprkpunzqn4lyhvlduzncj\n/* \ncosmos1dgtl8dqky0cucr9rlllw9cer9ysrkjnjagz5zp\ncosmospub1addwnpepq272xswjqka4wm6x8nvuwshdquh0q8xrxlafz7lj32snvtg2jswl6x5ywwu\ncosmosvaloper1susdz7trk9edeqf3qprkpunzqn4lyhvlduzncj\ncosmosvaloperpub1addwnpepq272xswjqka4wm6x8nvuwshdquh0q8xrxlafz7lj32snvtg2jswl60hprp0\nbc1qw508d6qejxtdg4y5r3zarvary0c5xw7kv8f3t4\n\n1. split the address to hrp and data\n2. check the hrp ? \n2. data part length should be greater than or equal to 6\n3. convert data part from bech32 encoding to  \n\nsteps:\n1. get address as bytes\n2. split hrp and compare with the bytes hrp stored\n3. split controlDigit and compare with the bytes controlDigit stored\n4. splity addressData and compate the length with dataSize\n5. \n*/\n\ncontract Bech32Validation is Initializable {\n\tusing BytesLib for bytes;\n\n\tbytes constant CHARSET = \"qpzry9x8gf2tvdw0s3jn54khce6mua7l\";\n\tbytes hrpBytes;\n\tbytes controlDigitBytes;\n\tuint256 dataSize;\n\n\t/*\n\t * @dev Constructor for initializing the Bech32Validation contract.\n\t * sets hrpBytes, controlDigitBytes and dataSize value\n\t */\n\tfunction initialize() public virtual initializer {\n\t\thrpBytes = \"cosmos\";\n\t\tcontrolDigitBytes = \"1\";\n\t\tdataSize = 38;\n\t}\n\n\t/**\n\t * @dev Return bool value based on address validation\n\t * @param blockchainAddress: account address\n\t */\n\tfunction isBech32AddressValid(string memory blockchainAddress)\n\t\tpublic\n\t\tview\n\t\treturns (bool)\n\t{\n\t\treturn bech32ValidateStr(blockchainAddress);\n\t}\n\n\t/**\n\t * @dev splits the address with the hrp and validates the address\n\t * @param addressDigestStr_: account address\n\t */\n\tfunction bech32ValidateStr(string memory addressDigestStr_)\n\t\tpublic\n\t\tview\n\t\treturns (bool)\n\t{\n\t\tbool isValid;\n\n\t\t// split hrp and compare with the bytes hrp stored\n\t\tisValid = hrpValidateStr(addressDigestStr_);\n\t\tif (!isValid) return isValid;\n\n\t\t// split controlDigit_ and compare with the bytes controlDigit_ stored\n\t\tisValid = controlDigitValidateStr(addressDigestStr_);\n\t\tif (!isValid) return isValid;\n\n\t\t// split addressData and compare the length with dataSize_\n\t\tisValid = dataSizeValidateStr(addressDigestStr_);\n\t\tif (!isValid) return isValid;\n\n\t\t// validate checksum\n\t\tisValid = checksumValidateStr(addressDigestStr_);\n\t\tif (!isValid) return isValid;\n\n\t\treturn isValid;\n\t}\n\n\t/**\n\t * @dev split hrp and compare with the bytes hrp stored\n\t * @param addressDigestBytes_: account address in bytes\n\t * @param hrpBytes_: hrp in bytes\n\t * @param controlDigitBytes_: set digit bytes (initially set to 1)\n\t * @param dataSize_: data size (initially set to 38)\n\t */\n\tfunction bech32Validate(\n\t\tbytes memory addressDigestBytes_,\n\t\tbytes memory hrpBytes_,\n\t\tbytes memory controlDigitBytes_,\n\t\tuint256 dataSize_\n\t) public pure returns (bool) {\n\t\tbool isValid;\n\n\t\t// split hrp and compare with the bytes hrp stored\n\t\tisValid = hrpValidate(addressDigestBytes_, hrpBytes_);\n\t\tif (!isValid) return isValid;\n\n\t\t// split controlDigit_ and compare with the bytes controlDigit_ stored\n\t\tisValid = controlDigitValidate(\n\t\t\taddressDigestBytes_,\n\t\t\thrpBytes_,\n\t\t\tcontrolDigitBytes_\n\t\t);\n\t\tif (!isValid) return isValid;\n\n\t\t// split addressData and compare the length with dataSize_\n\t\tisValid = dataSizeValidate(addressDigestBytes_, hrpBytes_, dataSize_);\n\t\tif (!isValid) return isValid;\n\n\t\t// validate checksum\n\t\tisValid = checksumValidate(addressDigestBytes_, hrpBytes_);\n\t\tif (!isValid) return isValid;\n\n\t\treturn isValid;\n\t}\n\n\t/**\n\t * @dev converted address to bytes and validates its length and validates hrp\n\t * @param addressDigestStr_: account address\n\t */\n\tfunction hrpValidateStr(string memory addressDigestStr_)\n\t\tpublic\n\t\tview\n\t\treturns (bool)\n\t{\n\t\tbytes memory addressDigestBytes_ = bytes(addressDigestStr_);\n\t\tif (addressDigestBytes_.length != 45) return false;\n\t\treturn hrpValidate(addressDigestBytes_, hrpBytes);\n\t}\n\n\t/**\n\t * @dev slices the account address in bytes and compares it with hrpBytes\n\t * @param addressDigestBytes_: account address n bytes\n\t * @param hrpBytes_: hrp converted to bytes\n\t */\n\tfunction hrpValidate(\n\t\tbytes memory addressDigestBytes_,\n\t\tbytes memory hrpBytes_\n\t) public pure returns (bool) {\n\t\tbytes memory hrpDigestBytes = addressDigestBytes_.slice(\n\t\t\t0,\n\t\t\thrpBytes_.length\n\t\t);\n\t\tif (!hrpDigestBytes.equal(hrpBytes_)) return false;\n\t\treturn true;\n\t}\n\n\t/**\n\t * @dev Returns account address converted to bytes and validates control digits\n\t * @param addressDigestStr_: account address\n\t */\n\tfunction controlDigitValidateStr(string memory addressDigestStr_)\n\t\tpublic\n\t\tview\n\t\treturns (bool)\n\t{\n\t\tbytes memory addressDigestBytes_ = bytes(addressDigestStr_);\n\t\treturn\n\t\t\tcontrolDigitValidate(\n\t\t\t\taddressDigestBytes_,\n\t\t\t\thrpBytes,\n\t\t\t\tcontrolDigitBytes\n\t\t\t);\n\t}\n\n\t/**\n\t * @dev slices the account address in bytes and compares it with control digest bytes\n\t * @param addressDigestBytes_: account address converted to bytes\n\t * @param hrpBytes_: hrp in bytes\n\t * @param controlDigit_: control digit in bytes\n\t */\n\tfunction controlDigitValidate(\n\t\tbytes memory addressDigestBytes_,\n\t\tbytes memory hrpBytes_,\n\t\tbytes memory controlDigit_\n\t) public pure returns (bool) {\n\t\tbytes memory _controlDigestBytes = addressDigestBytes_.slice(\n\t\t\thrpBytes_.length,\n\t\t\t1\n\t\t);\n\t\tif (!_controlDigestBytes.equal(controlDigit_)) return false;\n\t\treturn true;\n\t}\n\n\t/**\n\t * @dev validates the dara size\n\t * @param addressDigestStr_: account address\n\t */\n\tfunction dataSizeValidateStr(string memory addressDigestStr_)\n\t\tpublic\n\t\tview\n\t\treturns (bool)\n\t{\n\t\tbytes memory addressDigestBytes_ = bytes(addressDigestStr_);\n\t\treturn dataSizeValidate(addressDigestBytes_, hrpBytes, dataSize);\n\t}\n\n\t/**\n\t * @dev validates the dara size\n\t * @param addressDigestBytes_: account address in bytes\n\t * @param hrpBytes_: hrp in bytes\n\t * @param dataSize_: data size in bytes\n\t */\n\tfunction dataSizeValidate(\n\t\tbytes memory addressDigestBytes_,\n\t\tbytes memory hrpBytes_,\n\t\tuint256 dataSize_\n\t) public pure returns (bool) {\n\t\tbytes memory _dataDigestBytes = addressDigestBytes_.slice(\n\t\t\thrpBytes_.length + 1,\n\t\t\t(addressDigestBytes_.length - hrpBytes_.length - 1)\n\t\t);\n\t\tif (_dataDigestBytes.length != dataSize_) return false;\n\t\treturn true;\n\t}\n\n\t/**\n\t * @dev validates the checksun\n\t * @param addressDigestStr_: account address\n\t */\n\tfunction checksumValidateStr(string memory addressDigestStr_)\n\t\tpublic\n\t\tview\n\t\treturns (bool)\n\t{\n\t\tbytes memory addressDigestBytes_ = bytes(addressDigestStr_);\n\t\treturn checksumValidate(addressDigestBytes_, hrpBytes);\n\t}\n\n\t/**\n\t * @dev calculates checksummed data and return bool\n\t * @param addressDigestBytes_: account address in bytes\n\t * @param hrpBytes_: hrp in bytes\n\t */\n\tfunction checksumValidate(\n\t\tbytes memory addressDigestBytes_,\n\t\tbytes memory hrpBytes_\n\t) public pure returns (bool) {\n\t\tbool isValid;\n\t\tbytes memory checksummedDataBytes;\n\n\t\t// convert addressDigestBytes to addressDigest\n\t\t// uint[] addressDigest = decode(_dataDigestBytes);\n\t\tbytes memory dataBytes = addressDigestBytes_.slice(\n\t\t\thrpBytes_.length + 1,\n\t\t\taddressDigestBytes_.length - hrpBytes_.length - 1\n\t\t);\n\t\tbytes memory dataSliceBytes = addressDigestBytes_.slice(\n\t\t\thrpBytes_.length + 1,\n\t\t\t(addressDigestBytes_.length - 6 - hrpBytes_.length - 1)\n\t\t);\n\n\t\t// convert data slice bytes to uint[]\n\t\t// uint[] memory dataSlice = toUintFromBytes(dataSliceBytes);\n\t\tuint256[] memory dataSlice = decode(dataSliceBytes);\n\t\tif (dataSlice.length == 0) return false;\n\n\t\t// convert hrp Bytes to uint[]\n\t\tuint256[] memory hrp = toUintFromBytes(hrpBytes_);\n\n\t\t// calculate checksummed data\n\t\tchecksummedDataBytes = encode(hrp, dataSlice);\n\t\tisValid = dataBytes.equal(checksummedDataBytes);\n\t\t// isValid = dataSliceBytes.equal(checksummedDataBytes);\n\n\t\treturn isValid;\n\t}\n\n\t/**\n\t * @dev decodes the account address and returns decoded bytes\n\t * @param addressDigestStr_: account address\n\t */\n\tfunction decodeStr(string memory addressDigestStr_)\n\t\tpublic\n\t\tpure\n\t\treturns (uint256[] memory decodedBytes)\n\t{\n\t\tbytes memory _addressDigestBytes = bytes(addressDigestStr_);\n\t\tdecodedBytes = decode(_addressDigestBytes);\n\t\treturn decodedBytes;\n\t}\n\n\t/**\n\t * @dev decodes the account address and returns decoded bytes array\n\t * @param addressDigestBytes_: account address in bytes\n\t */\n\tfunction decode(bytes memory addressDigestBytes_)\n\t\tpublic\n\t\tpure\n\t\treturns (uint256[] memory decodedBytes)\n\t{\n\t\tdecodedBytes = new uint256[](addressDigestBytes_.length);\n\t\tuint256[] memory nullBytes;\n\t\tuint256 charsetIndex;\n\n\t\tfor (\n\t\t\tuint256 addressDigestBytesIndex = 0;\n\t\t\taddressDigestBytesIndex < addressDigestBytes_.length;\n\t\t\taddressDigestBytesIndex++\n\t\t) {\n\t\t\tfor (\n\t\t\t\tcharsetIndex = 0;\n\t\t\t\tcharsetIndex < CHARSET.length;\n\t\t\t\tcharsetIndex++\n\t\t\t) {\n\t\t\t\tif (\n\t\t\t\t\taddressDigestBytes_[addressDigestBytesIndex] ==\n\t\t\t\t\tCHARSET[charsetIndex]\n\t\t\t\t) break;\n\t\t\t}\n\t\t\tif (charsetIndex == CHARSET.length) return nullBytes;\n\t\t\tdecodedBytes[addressDigestBytesIndex] = charsetIndex;\n\t\t}\n\t\treturn decodedBytes;\n\t}\n\n\t/**\n\t * @dev converts string to uint and returns data digest array\n\t * @param dataDigestStr_: data digest\n\t */\n\tfunction toUintFromStr(string memory dataDigestStr_)\n\t\tpublic\n\t\tpure\n\t\treturns (uint256[] memory dataDigest)\n\t{\n\t\tbytes memory _dataDigestBytes = bytes(dataDigestStr_);\n\t\treturn toUintFromBytes(_dataDigestBytes);\n\t}\n\n\t/**\n\t * @dev converts bytes to uint and returns data digest array\n\t * @param dataDigestBytes_: data digest in bytes\n\t */\n\tfunction toUintFromBytes(bytes memory dataDigestBytes_)\n\t\tpublic\n\t\tpure\n\t\treturns (uint256[] memory dataDigest)\n\t{\n\t\tdataDigest = new uint256[](dataDigestBytes_.length);\n\t\tfor (\n\t\t\tuint256 dataDigestIndex = 0;\n\t\t\tdataDigestIndex < dataDigestBytes_.length;\n\t\t\tdataDigestIndex++\n\t\t) {\n\t\t\tdataDigest[dataDigestIndex] = uint256(\n\t\t\t\tuint8(dataDigestBytes_[dataDigestIndex])\n\t\t\t);\n\t\t}\n\t\treturn dataDigest;\n\t}\n\n\t/**\n\t * @dev converts bytes2 to uint and returns data digest array\n\t * @param dataDigestBytes_: data digest in bytes\n\t */\n\tfunction toUintFromBytes2(bytes memory dataDigestBytes_)\n\t\tpublic\n\t\tpure\n\t\treturns (uint256[] memory dataDigest)\n\t{\n\t\tdataDigest = new uint256[](dataDigestBytes_.length);\n\t\tfor (\n\t\t\tuint256 dataDigestIndex = 0;\n\t\t\tdataDigestIndex < dataDigestBytes_.length;\n\t\t\tdataDigestIndex++\n\t\t) {\n\t\t\tdataDigest[dataDigestIndex] = uint256(\n\t\t\t\tbytes32(dataDigestBytes_[dataDigestIndex])\n\t\t\t);\n\t\t}\n\t\treturn dataDigest;\n\t}\n\n\t/**\n\t * @dev checks the polymod and return int value\n\t * @param values: values in array\n\t */\n\tfunction polymod(uint256[] memory values) internal pure returns (uint256) {\n\t\tuint32[5] memory GENERATOR = [\n\t\t\t0x3b6a57b2,\n\t\t\t0x26508e6d,\n\t\t\t0x1ea119fa,\n\t\t\t0x3d4233dd,\n\t\t\t0x2a1462b3\n\t\t];\n\t\tuint256 chk = 1;\n\t\tfor (uint256 p = 0; p < values.length; p++) {\n\t\t\tuint256 top = chk >> 25;\n\t\t\tchk = ((chk & 0x1ffffff) << 5) ^ values[p];\n\t\t\tfor (uint256 i = 0; i < 5; i++) {\n\t\t\t\tif ((top >> i) & 1 == 1) {\n\t\t\t\t\tchk ^= GENERATOR[i];\n\t\t\t\t}\n\t\t\t}\n\t\t}\n\t\treturn chk;\n\t}\n\n\t/**\n\t * @dev expands the hrp and return int[] value\n\t * @param hrp: hrp in array\n\t */\n\tfunction hrpExpand(uint256[] memory hrp)\n\t\tinternal\n\t\tpure\n\t\treturns (uint256[] memory)\n\t{\n\t\tuint256[] memory ret = new uint256[](hrp.length + hrp.length + 1);\n\t\tfor (uint256 p = 0; p < hrp.length; p++) {\n\t\t\tret[p] = hrp[p] >> 5;\n\t\t}\n\t\tret[hrp.length] = 0;\n\t\tfor (uint256 p = 0; p < hrp.length; p++) {\n\t\t\tret[p + hrp.length + 1] = hrp[p] & 31;\n\t\t}\n\t\treturn ret;\n\t}\n\n\t/**\n\t * @dev  combines two strings together\n\t * @param left: left int value in array\n\t * @param right: right int value in array\n\t */\n\tfunction concat(uint256[] memory left, uint256[] memory right)\n\t\tinternal\n\t\tpure\n\t\treturns (uint256[] memory)\n\t{\n\t\tuint256[] memory ret = new uint256[](left.length + right.length);\n\n\t\tuint256 i = 0;\n\t\tfor (; i < left.length; i++) {\n\t\t\tret[i] = left[i];\n\t\t}\n\n\t\tuint256 j = 0;\n\t\twhile (j < right.length) {\n\t\t\tret[i++] = right[j++];\n\t\t}\n\n\t\treturn ret;\n\t}\n\n\t/**\n\t * @dev  add trailing padding to the data\n\t * @param array: array int value in array\n\t * @param val: value\n\t * @param num: num\n\t */\n\tfunction extend(\n\t\tuint256[] memory array,\n\t\tuint256 val,\n\t\tuint256 num\n\t) internal pure returns (uint256[] memory) {\n\t\tuint256[] memory ret = new uint256[](array.length + num);\n\n\t\tuint256 i = 0;\n\t\tfor (; i < array.length; i++) {\n\t\t\tret[i] = array[i];\n\t\t}\n\n\t\tuint256 j = 0;\n\t\twhile (j < num) {\n\t\t\tret[i++] = val;\n\t\t\tj++;\n\t\t}\n\n\t\treturn ret;\n\t}\n\n\t/**\n\t * @dev  create checksum\n\t * @param hrp: hrp int value in array\n\t * @param data: data int value in array\n\t */\n\tfunction createChecksum(uint256[] memory hrp, uint256[] memory data)\n\t\tinternal\n\t\tpure\n\t\treturns (uint256[] memory)\n\t{\n\t\tuint256[] memory values = extend(concat(hrpExpand(hrp), data), 0, 6);\n\t\tuint256 mod = polymod(values) ^ 1;\n\t\tuint256[] memory ret = new uint256[](6);\n\t\tfor (uint256 p = 0; p < 6; p++) {\n\t\t\tret[p] = (mod >> (5 * (5 - p))) & 31;\n\t\t}\n\t\treturn ret;\n\t}\n\n\t/**\n\t * @dev  encode to the bech32 alphabet list\n\t * @param hrp: hrp int value in array\n\t * @param data: data int value in array\n\t */\n\tfunction encode(uint256[] memory hrp, uint256[] memory data)\n\t\tinternal\n\t\tpure\n\t\treturns (bytes memory)\n\t{\n\t\tuint256[] memory combined = concat(data, createChecksum(hrp, data));\n\t\t// uint[] memory combined = data;\n\n\t\t// TODO: prepend hrp\n\n\t\t// convert uint[] to bytes\n\t\tbytes memory ret = new bytes(combined.length);\n\t\tfor (uint256 p = 0; p < combined.length; p++) {\n\t\t\tret[p] = CHARSET[combined[p]];\n\t\t}\n\n\t\treturn ret;\n\t}\n\n\t/**\n\t * @dev  converts the data\n\t * @param data: data int value in array\n\t * @param inBits: inBits\n\t * @param outBits: outBits\n\t */\n\tfunction convert(\n\t\tuint256[] memory data,\n\t\tuint256 inBits,\n\t\tuint256 outBits\n\t) internal pure returns (uint256[] memory) {\n\t\tuint256 value = 0;\n\t\tuint256 bits = 0;\n\t\tuint256 maxV = (1 << outBits) - 1;\n\n\t\tuint256[] memory ret = new uint256[](32);\n\t\tuint256 j = 0;\n\t\tfor (uint256 i = 0; i < data.length; ++i) {\n\t\t\tvalue = (value << inBits) | data[i];\n\t\t\tbits += inBits;\n\n\t\t\twhile (bits >= outBits) {\n\t\t\t\tbits -= outBits;\n\t\t\t\tret[j] = (value >> bits) & maxV;\n\t\t\t\tj += 1;\n\t\t\t}\n\t\t}\n\t\treturn ret;\n\t}\n}\n",
  "sourcePath": "C:\\Users\\Kamlesh\\Persistence\\pStake\\codebase\\pStake-smartContracts\\contracts\\libraries\\Bech32Validation.sol",
  "compiler": {
    "name": "solc",
    "version": "0.7.6+commit.7338295f.Emscripten.clang"
  },
  "schemaVersion": "3.4.3",
  "updatedAt": "2021-09-22T09:34:47.937Z",
  "devdoc": {
    "kind": "dev",
    "methods": {
      "bech32Validate(bytes,bytes,bytes,uint256)": {
        "details": "split hrp and compare with the bytes hrp stored",
        "params": {
          "addressDigestBytes_": ": account address in bytes",
          "controlDigitBytes_": ": set digit bytes (initially set to 1)",
          "dataSize_": ": data size (initially set to 38)",
          "hrpBytes_": ": hrp in bytes"
        }
      },
      "bech32ValidateStr(string)": {
        "details": "splits the address with the hrp and validates the address",
        "params": {
          "addressDigestStr_": ": account address"
        }
      },
      "checksumValidate(bytes,bytes)": {
        "details": "calculates checksummed data and return bool",
        "params": {
          "addressDigestBytes_": ": account address in bytes",
          "hrpBytes_": ": hrp in bytes"
        }
      },
      "checksumValidateStr(string)": {
        "details": "validates the checksun",
        "params": {
          "addressDigestStr_": ": account address"
        }
      },
      "controlDigitValidate(bytes,bytes,bytes)": {
        "details": "slices the account address in bytes and compares it with control digest bytes",
        "params": {
          "addressDigestBytes_": ": account address converted to bytes",
          "controlDigit_": ": control digit in bytes",
          "hrpBytes_": ": hrp in bytes"
        }
      },
      "controlDigitValidateStr(string)": {
        "details": "Returns account address converted to bytes and validates control digits",
        "params": {
          "addressDigestStr_": ": account address"
        }
      },
      "dataSizeValidate(bytes,bytes,uint256)": {
        "details": "validates the dara size",
        "params": {
          "addressDigestBytes_": ": account address in bytes",
          "dataSize_": ": data size in bytes",
          "hrpBytes_": ": hrp in bytes"
        }
      },
      "dataSizeValidateStr(string)": {
        "details": "validates the dara size",
        "params": {
          "addressDigestStr_": ": account address"
        }
      },
      "decode(bytes)": {
        "details": "decodes the account address and returns decoded bytes array",
        "params": {
          "addressDigestBytes_": ": account address in bytes"
        }
      },
      "decodeStr(string)": {
        "details": "decodes the account address and returns decoded bytes",
        "params": {
          "addressDigestStr_": ": account address"
        }
      },
      "hrpValidate(bytes,bytes)": {
        "details": "slices the account address in bytes and compares it with hrpBytes",
        "params": {
          "addressDigestBytes_": ": account address n bytes",
          "hrpBytes_": ": hrp converted to bytes"
        }
      },
      "hrpValidateStr(string)": {
        "details": "converted address to bytes and validates its length and validates hrp",
        "params": {
          "addressDigestStr_": ": account address"
        }
      },
      "isBech32AddressValid(string)": {
        "details": "Return bool value based on address validation",
        "params": {
          "blockchainAddress": ": account address"
        }
      },
      "toUintFromBytes(bytes)": {
        "details": "converts bytes to uint and returns data digest array",
        "params": {
          "dataDigestBytes_": ": data digest in bytes"
        }
      },
      "toUintFromBytes2(bytes)": {
        "details": "converts bytes2 to uint and returns data digest array",
        "params": {
          "dataDigestBytes_": ": data digest in bytes"
        }
      },
      "toUintFromStr(string)": {
        "details": "converts string to uint and returns data digest array",
        "params": {
          "dataDigestStr_": ": data digest"
        }
      }
    },
    "version": 1
  },
  "userdoc": {
    "kind": "user",
    "methods": {},
    "version": 1
  }
}