{
  "contractName": "HolderSushiswapV2StkATOMEth",
  "abi": [
    {
      "anonymous": false,
      "inputs": [
        {
          "indexed": true,
          "internalType": "bytes32",
          "name": "role",
          "type": "bytes32"
        },
        {
          "indexed": true,
          "internalType": "bytes32",
          "name": "previousAdminRole",
          "type": "bytes32"
        },
        {
          "indexed": true,
          "internalType": "bytes32",
          "name": "newAdminRole",
          "type": "bytes32"
        }
      ],
      "name": "RoleAdminChanged",
      "type": "event"
    },
    {
      "anonymous": false,
      "inputs": [
        {
          "indexed": true,
          "internalType": "bytes32",
          "name": "role",
          "type": "bytes32"
        },
        {
          "indexed": true,
          "internalType": "address",
          "name": "account",
          "type": "address"
        },
        {
          "indexed": true,
          "internalType": "address",
          "name": "sender",
          "type": "address"
        }
      ],
      "name": "RoleGranted",
      "type": "event"
    },
    {
      "anonymous": false,
      "inputs": [
        {
          "indexed": true,
          "internalType": "bytes32",
          "name": "role",
          "type": "bytes32"
        },
        {
          "indexed": true,
          "internalType": "address",
          "name": "account",
          "type": "address"
        },
        {
          "indexed": true,
          "internalType": "address",
          "name": "sender",
          "type": "address"
        }
      ],
      "name": "RoleRevoked",
      "type": "event"
    },
    {
      "anonymous": false,
      "inputs": [
        {
          "indexed": true,
          "internalType": "address",
          "name": "_contract",
          "type": "address"
        }
      ],
      "name": "SetSTokensContract",
      "type": "event"
    },
    {
      "anonymous": false,
      "inputs": [
        {
          "indexed": true,
          "internalType": "address",
          "name": "_contract",
          "type": "address"
        }
      ],
      "name": "SetStakeLPContract",
      "type": "event"
    },
    {
      "inputs": [],
      "name": "DEFAULT_ADMIN_ROLE",
      "outputs": [
        {
          "internalType": "bytes32",
          "name": "",
          "type": "bytes32"
        }
      ],
      "stateMutability": "view",
      "type": "function",
      "constant": true
    },
    {
      "inputs": [
        {
          "internalType": "bytes32",
          "name": "role",
          "type": "bytes32"
        }
      ],
      "name": "getRoleAdmin",
      "outputs": [
        {
          "internalType": "bytes32",
          "name": "",
          "type": "bytes32"
        }
      ],
      "stateMutability": "view",
      "type": "function",
      "constant": true
    },
    {
      "inputs": [
        {
          "internalType": "bytes32",
          "name": "role",
          "type": "bytes32"
        },
        {
          "internalType": "uint256",
          "name": "index",
          "type": "uint256"
        }
      ],
      "name": "getRoleMember",
      "outputs": [
        {
          "internalType": "address",
          "name": "",
          "type": "address"
        }
      ],
      "stateMutability": "view",
      "type": "function",
      "constant": true
    },
    {
      "inputs": [
        {
          "internalType": "bytes32",
          "name": "role",
          "type": "bytes32"
        }
      ],
      "name": "getRoleMemberCount",
      "outputs": [
        {
          "internalType": "uint256",
          "name": "",
          "type": "uint256"
        }
      ],
      "stateMutability": "view",
      "type": "function",
      "constant": true
    },
    {
      "inputs": [
        {
          "internalType": "bytes32",
          "name": "role",
          "type": "bytes32"
        },
        {
          "internalType": "address",
          "name": "account",
          "type": "address"
        }
      ],
      "name": "grantRole",
      "outputs": [],
      "stateMutability": "nonpayable",
      "type": "function"
    },
    {
      "inputs": [
        {
          "internalType": "bytes32",
          "name": "role",
          "type": "bytes32"
        },
        {
          "internalType": "address",
          "name": "account",
          "type": "address"
        }
      ],
      "name": "hasRole",
      "outputs": [
        {
          "internalType": "bool",
          "name": "",
          "type": "bool"
        }
      ],
      "stateMutability": "view",
      "type": "function",
      "constant": true
    },
    {
      "inputs": [
        {
          "internalType": "bytes32",
          "name": "role",
          "type": "bytes32"
        },
        {
          "internalType": "address",
          "name": "account",
          "type": "address"
        }
      ],
      "name": "renounceRole",
      "outputs": [],
      "stateMutability": "nonpayable",
      "type": "function"
    },
    {
      "inputs": [
        {
          "internalType": "bytes32",
          "name": "role",
          "type": "bytes32"
        },
        {
          "internalType": "address",
          "name": "account",
          "type": "address"
        }
      ],
      "name": "revokeRole",
      "outputs": [],
      "stateMutability": "nonpayable",
      "type": "function"
    },
    {
      "inputs": [
        {
          "internalType": "address",
          "name": "sTokenContract",
          "type": "address"
        },
        {
          "internalType": "address",
          "name": "stakeLPContract",
          "type": "address"
        },
        {
          "internalType": "uint256",
          "name": "valueDivisor",
          "type": "uint256"
        }
      ],
      "name": "initialize",
      "outputs": [],
      "stateMutability": "nonpayable",
      "type": "function"
    },
    {
      "inputs": [
        {
          "internalType": "address",
          "name": "to",
          "type": "address"
        }
      ],
      "name": "getSTokenSupply",
      "outputs": [
        {
          "internalType": "uint256",
          "name": "sTokenSupply",
          "type": "uint256"
        }
      ],
      "stateMutability": "view",
      "type": "function",
      "constant": true
    },
    {
      "inputs": [
        {
          "internalType": "address",
          "name": "sAddress",
          "type": "address"
        }
      ],
      "name": "setSTokensContract",
      "outputs": [],
      "stateMutability": "nonpayable",
      "type": "function"
    },
    {
      "inputs": [
        {
          "internalType": "address",
          "name": "stakeLPContract",
          "type": "address"
        }
      ],
      "name": "setStakeLPContract",
      "outputs": [],
      "stateMutability": "nonpayable",
      "type": "function"
    },
    {
      "inputs": [
        {
          "internalType": "address",
          "name": "token",
          "type": "address"
        },
        {
          "internalType": "address",
          "name": "to",
          "type": "address"
        },
        {
          "internalType": "uint256",
          "name": "value",
          "type": "uint256"
        }
      ],
      "name": "safeTransfer",
      "outputs": [],
      "stateMutability": "nonpayable",
      "type": "function"
    }
  ],
  "bytecode": "0x608060405234801561001057600080fd5b50610e3c806100206000396000f3fe608060405234801561001057600080fd5b50600436106100cf5760003560e01c806391d148541161008c578063cf3d5d0d11610066578063cf3d5d0d1461025d578063d1660f9914610283578063d547741f146102b9578063f5560db0146102e5576100cf565b806391d14854146101f8578063a217fddf14610238578063ca15c87314610240576100cf565b80631794bb3c146100d4578063248a9ca31461010c5780632e31fab81461013b5780632f2ff15d1461016157806336568abe1461018d5780639010d07c146101b9575b600080fd5b61010a600480360360608110156100ea57600080fd5b506001600160a01b0381358116916020810135909116906040013561030b565b005b6101296004803603602081101561012257600080fd5b50356103ff565b60408051918252519081900360200190f35b61010a6004803603602081101561015157600080fd5b50356001600160a01b0316610414565b61010a6004803603604081101561017757600080fd5b50803590602001356001600160a01b03166104a7565b61010a600480360360408110156101a357600080fd5b50803590602001356001600160a01b031661050e565b6101dc600480360360408110156101cf57600080fd5b508035906020013561056f565b604080516001600160a01b039092168252519081900360200190f35b6102246004803603604081101561020e57600080fd5b50803590602001356001600160a01b0316610590565b604080519115158252519081900360200190f35b6101296105a8565b6101296004803603602081101561025657600080fd5b50356105ad565b61010a6004803603602081101561027357600080fd5b50356001600160a01b03166105c4565b61010a6004803603606081101561029957600080fd5b506001600160a01b03813581169160208101359091169060400135610652565b61010a600480360360408110156102cf57600080fd5b50803590602001356001600160a01b03166107fa565b610129600480360360208110156102fb57600080fd5b50356001600160a01b0316610853565b600054610100900460ff168061032457506103246108d6565b80610332575060005460ff16155b61036d5760405162461bcd60e51b815260040180806020018281038252602e815260200180610d7d602e913960400191505060405180910390fd5b600054610100900460ff16158015610398576000805460ff1961ff0019909116610100171660011790555b6103a06108e7565b6103b260006103ad610999565b610500565b606680546001600160a01b038087166001600160a01b0319928316179092556065805492861692909116919091179055606782905580156103f9576000805461ff00191690555b50505050565b60009081526033602052604090206002015490565b6104266000610421610999565b610590565b61045d576040805162461bcd60e51b815260206004820152600360248201526248553160e81b604482015290519081900360640190fd5b606880546001600160a01b0319166001600160a01b0383169081179091556040517fd0b9dbe26f676f4cdb02fc249c203baa0314cec79e18b4194dc862795a5de03f90600090a250565b6000828152603360205260409020600201546104c590610421610999565b6105005760405162461bcd60e51b815260040180806020018281038252602f815260200180610d1e602f913960400191505060405180910390fd5b61050a828261099d565b5050565b610516610999565b6001600160a01b0316816001600160a01b0316146105655760405162461bcd60e51b815260040180806020018281038252602f815260200180610dd8602f913960400191505060405180910390fd5b61050a8282610a06565b60008281526033602052604081206105879083610a6f565b90505b92915050565b60008281526033602052604081206105879083610a7b565b600081565b600081815260336020526040812061058a90610a90565b6105d16000610421610999565b610608576040805162461bcd60e51b8152602060048201526003602482015262242a9960e91b604482015290519081900360640190fd5b606580546001600160a01b0319166001600160a01b0383169081179091556040517fb2daebf9d5b97a85402c93016ccc68273e707a32f016448d8a1bb7d066d1281590600090a250565b6065546001600160a01b0316610666610999565b6001600160a01b0316146106a7576040805162461bcd60e51b815260206004820152600360248201526248553360e81b604482015290519081900360640190fd5b604080516001600160a01b038481166024830152604480830185905283518084039091018152606490920183526020820180516001600160e01b031663a9059cbb60e01b1781529251825160009485949389169392918291908083835b602083106107235780518252601f199092019160209182019101610704565b6001836020036101000a0380198251168184511680821785525050505050509050019150506000604051808303816000865af19150503d8060008114610785576040519150601f19603f3d011682016040523d82523d6000602084013e61078a565b606091505b50915091508180156107b85750805115806107b857508080602001905160208110156107b557600080fd5b50515b6107f35760405162461bcd60e51b815260040180806020018281038252602d815260200180610dab602d913960400191505060405180910390fd5b5050505050565b60008281526033602052604090206002015461081890610421610999565b6105655760405162461bcd60e51b8152600401808060200182810382526030815260200180610d4d6030913960400191505060405180910390fd5b606654604080516370a0823160e01b81526001600160a01b038481166004830152915160009392909216916370a0823191602480820192602092909190829003018186803b1580156108a457600080fd5b505afa1580156108b8573d6000803e3d6000fd5b505050506040513d60208110156108ce57600080fd5b505192915050565b60006108e130610a9b565b15905090565b600054610100900460ff168061090057506109006108d6565b8061090e575060005460ff16155b6109495760405162461bcd60e51b815260040180806020018281038252602e815260200180610d7d602e913960400191505060405180910390fd5b600054610100900460ff16158015610974576000805460ff1961ff0019909116610100171660011790555b61097c610aa1565b610984610aa1565b8015610996576000805461ff00191690555b50565b3390565b60008281526033602052604090206109b59082610b41565b1561050a576109c2610999565b6001600160a01b0316816001600160a01b0316837f2f8788117e7eff1d82e926ec794901d17c78024a50270940304540a733656f0d60405160405180910390a45050565b6000828152603360205260409020610a1e9082610b56565b1561050a57610a2b610999565b6001600160a01b0316816001600160a01b0316837ff6391f5c32d9c69d2a47ea670b442974b53935d1edc7fd64eb21e047a839171b60405160405180910390a45050565b60006105878383610b6b565b6000610587836001600160a01b038416610bcf565b600061058a82610be7565b3b151590565b600054610100900460ff1680610aba5750610aba6108d6565b80610ac8575060005460ff16155b610b035760405162461bcd60e51b815260040180806020018281038252602e815260200180610d7d602e913960400191505060405180910390fd5b600054610100900460ff16158015610984576000805460ff1961ff0019909116610100171660011790558015610996576000805461ff001916905550565b6000610587836001600160a01b038416610beb565b6000610587836001600160a01b038416610c35565b81546000908210610bad5760405162461bcd60e51b8152600401808060200182810382526022815260200180610cfc6022913960400191505060405180910390fd5b826000018281548110610bbc57fe5b9060005260206000200154905092915050565b60009081526001919091016020526040902054151590565b5490565b6000610bf78383610bcf565b610c2d5750815460018181018455600084815260208082209093018490558454848252828601909352604090209190915561058a565b50600061058a565b60008181526001830160205260408120548015610cf15783546000198083019190810190600090879083908110610c6857fe5b9060005260206000200154905080876000018481548110610c8557fe5b600091825260208083209091019290925582815260018981019092526040902090840190558654879080610cb557fe5b6001900381819060005260206000200160009055905586600101600087815260200190815260200160002060009055600194505050505061058a565b600091505061058a56fe456e756d657261626c655365743a20696e646578206f7574206f6620626f756e6473416363657373436f6e74726f6c3a2073656e646572206d75737420626520616e2061646d696e20746f206772616e74416363657373436f6e74726f6c3a2073656e646572206d75737420626520616e2061646d696e20746f207265766f6b65496e697469616c697a61626c653a20636f6e747261637420697320616c726561647920696e697469616c697a65645472616e7366657248656c7065723a3a736166655472616e736665723a207472616e73666572206661696c6564416363657373436f6e74726f6c3a2063616e206f6e6c792072656e6f756e636520726f6c657320666f722073656c66a26469706673582212203c4659cca9394698a3840f0d68ae1159baf64560b12ae9048599935faa9b336064736f6c63430007060033",
  "immutableReferences": {},
  "source": "// SPDX-License-Identifier: UNLICENSED\npragma solidity >= 0.7.0;\n\nimport \"./interfaces/IHolder.sol\";\nimport \"./interfaces/ISTokens.sol\";\nimport \"@openzeppelin/contracts-upgradeable/access/AccessControlUpgradeable.sol\";\nimport \"@openzeppelin/contracts-upgradeable/proxy/Initializable.sol\";\n\ncontract HolderSushiswapV2StkATOMEth is IHolder, Initializable, AccessControlUpgradeable {\n    // variables capturing data of other contracts in the product\n    address private _stakeLPContract;\n    ISTokens private _sTokenContract;\n\n    // value divisor to make weight factor a fraction if need be\n    uint256 private _valueDivisor;\n\n    //Private instances of contracts to handle Utokens and Stokens\n    ISTokens private _sTokens;\n\n    /**\n     * @dev Constructor for initializing the Holder Uniswap contract.\n     * @param sTokenContract - address of the SToken contract.\n     * @param stakeLPContract - address of the StakeLPCore contract.\n     * @param valueDivisor - valueDivisor set to 10^9.\n     */\n    function initialize(\n        address sTokenContract,\n        address stakeLPContract,\n        uint256 valueDivisor\n    ) public virtual initializer {\n        __AccessControl_init();\n        _setupRole(DEFAULT_ADMIN_ROLE, _msgSender());\n        _sTokenContract = ISTokens(sTokenContract);\n        _stakeLPContract = stakeLPContract;\n        _valueDivisor = valueDivisor;\n    }\n\n    /**\n     * @dev get SToken reserve supply of the whitelisted contract\n     *\n     */\n    function getSTokenSupply( address to ) public view override returns (uint256 sTokenSupply) {\n        sTokenSupply = _sTokenContract.balanceOf(to);\n        return sTokenSupply;\n    }\n\n    /**\n     * @dev Set 'contract address', called from constructor\n     * @param sAddress: stoken contract address\n     *\n     * Emits a {SetSTokensContract} event with '_contract' set to the stoken contract address.\n     *\n     */\n    function setSTokensContract(address sAddress) public virtual override {\n        require(hasRole(DEFAULT_ADMIN_ROLE, _msgSender()), \"HU1\");\n        _sTokens = ISTokens(sAddress);\n        emit SetSTokensContract(sAddress);\n    }\n\n    /*\n     * @dev Set 'contract address', called from constructor\n     * @param liquidStakingContract: liquidStaking contract address\n     *\n     * Emits a {SetLiquidStakingContract} event with '_contract' set to the liquidStaking contract address.\n     *\n     */\n    function setStakeLPContract(address stakeLPContract)\n    public\n    virtual\n    override\n    {\n        require(hasRole(DEFAULT_ADMIN_ROLE, _msgSender()), \"HU2\");\n        _stakeLPContract = stakeLPContract;\n        emit SetStakeLPContract(stakeLPContract);\n    }\n\n    function safeTransfer(\n        address token,\n        address to,\n        uint256 value\n    ) public virtual override {\n        require(_msgSender() == _stakeLPContract, \"HU3\");\n        // bytes4(keccak256(bytes('transfer(address,uint256)')));\n        (bool success, bytes memory data) = token.call(\n            abi.encodeWithSelector(0xa9059cbb, to, value)\n        );\n        require(\n            success && (data.length == 0 || abi.decode(data, (bool))),\n            \"TransferHelper::safeTransfer: transfer failed\"\n        );\n    }\n}",
  "sourcePath": "/home/aditimahesh/Documents/Work/Persistence/go/src/github.com/persistenceOne/pstakeTest/contracts/HolderSushiswapV2StkATOMEth.sol",
  "compiler": {
    "name": "solc",
    "version": "0.7.6+commit.7338295f.Emscripten.clang"
  },
  "schemaVersion": "3.4.3",
  "updatedAt": "2021-09-09T14:13:55.222Z",
  "networkType": "ethereum",
  "devdoc": {
    "kind": "dev",
    "methods": {
      "getRoleAdmin(bytes32)": {
        "details": "Returns the admin role that controls `role`. See {grantRole} and {revokeRole}. To change a role's admin, use {_setRoleAdmin}."
      },
      "getRoleMember(bytes32,uint256)": {
        "details": "Returns one of the accounts that have `role`. `index` must be a value between 0 and {getRoleMemberCount}, non-inclusive. Role bearers are not sorted in any particular way, and their ordering may change at any point. WARNING: When using {getRoleMember} and {getRoleMemberCount}, make sure you perform all queries on the same block. See the following https://forum.openzeppelin.com/t/iterating-over-elements-on-enumerableset-in-openzeppelin-contracts/2296[forum post] for more information."
      },
      "getRoleMemberCount(bytes32)": {
        "details": "Returns the number of accounts that have `role`. Can be used together with {getRoleMember} to enumerate all bearers of a role."
      },
      "getSTokenSupply(address)": {
        "details": "get SToken reserve supply of the whitelisted contract"
      },
      "grantRole(bytes32,address)": {
        "details": "Grants `role` to `account`. If `account` had not been already granted `role`, emits a {RoleGranted} event. Requirements: - the caller must have ``role``'s admin role."
      },
      "hasRole(bytes32,address)": {
        "details": "Returns `true` if `account` has been granted `role`."
      },
      "initialize(address,address,uint256)": {
        "details": "Constructor for initializing the Holder Uniswap contract.",
        "params": {
          "sTokenContract": "- address of the SToken contract.",
          "stakeLPContract": "- address of the StakeLPCore contract.",
          "valueDivisor": "- valueDivisor set to 10^9."
        }
      },
      "renounceRole(bytes32,address)": {
        "details": "Revokes `role` from the calling account. Roles are often managed via {grantRole} and {revokeRole}: this function's purpose is to provide a mechanism for accounts to lose their privileges if they are compromised (such as when a trusted device is misplaced). If the calling account had been granted `role`, emits a {RoleRevoked} event. Requirements: - the caller must be `account`."
      },
      "revokeRole(bytes32,address)": {
        "details": "Revokes `role` from `account`. If `account` had been granted `role`, emits a {RoleRevoked} event. Requirements: - the caller must have ``role``'s admin role."
      },
      "safeTransfer(address,address,uint256)": {
        "details": "Set UTokens smart contract. Emits a {SetSTokensContract} event."
      },
      "setSTokensContract(address)": {
        "details": "Set 'contract address', called from constructor",
        "params": {
          "sAddress": ": stoken contract address Emits a {SetSTokensContract} event with '_contract' set to the stoken contract address."
        }
      },
      "setStakeLPContract(address)": {
        "details": "Set UTokens smart contract. Emits a {SetSTokensContract} event."
      }
    },
    "version": 1
  },
  "userdoc": {
    "kind": "user",
    "methods": {},
    "version": 1
  }
}