{
  "contractName": "HolderUniswapStkATOMEth",
  "abi": [
    {
      "anonymous": false,
      "inputs": [
        {
          "indexed": false,
          "internalType": "address",
          "name": "account",
          "type": "address"
        }
      ],
      "name": "Paused",
      "type": "event"
    },
    {
      "anonymous": false,
      "inputs": [
        {
          "indexed": true,
          "internalType": "bytes32",
          "name": "role",
          "type": "bytes32"
        },
        {
          "indexed": true,
          "internalType": "bytes32",
          "name": "previousAdminRole",
          "type": "bytes32"
        },
        {
          "indexed": true,
          "internalType": "bytes32",
          "name": "newAdminRole",
          "type": "bytes32"
        }
      ],
      "name": "RoleAdminChanged",
      "type": "event"
    },
    {
      "anonymous": false,
      "inputs": [
        {
          "indexed": true,
          "internalType": "bytes32",
          "name": "role",
          "type": "bytes32"
        },
        {
          "indexed": true,
          "internalType": "address",
          "name": "account",
          "type": "address"
        },
        {
          "indexed": true,
          "internalType": "address",
          "name": "sender",
          "type": "address"
        }
      ],
      "name": "RoleGranted",
      "type": "event"
    },
    {
      "anonymous": false,
      "inputs": [
        {
          "indexed": true,
          "internalType": "bytes32",
          "name": "role",
          "type": "bytes32"
        },
        {
          "indexed": true,
          "internalType": "address",
          "name": "account",
          "type": "address"
        },
        {
          "indexed": true,
          "internalType": "address",
          "name": "sender",
          "type": "address"
        }
      ],
      "name": "RoleRevoked",
      "type": "event"
    },
    {
      "anonymous": false,
      "inputs": [
        {
          "indexed": true,
          "internalType": "address",
          "name": "_contract",
          "type": "address"
        }
      ],
      "name": "SetStakeLPContract",
      "type": "event"
    },
    {
      "anonymous": false,
      "inputs": [
        {
          "indexed": false,
          "internalType": "address",
          "name": "account",
          "type": "address"
        }
      ],
      "name": "Unpaused",
      "type": "event"
    },
    {
      "inputs": [],
      "name": "DEFAULT_ADMIN_ROLE",
      "outputs": [
        {
          "internalType": "bytes32",
          "name": "",
          "type": "bytes32"
        }
      ],
      "stateMutability": "view",
      "type": "function"
    },
    {
      "inputs": [],
      "name": "PAUSER_ROLE",
      "outputs": [
        {
          "internalType": "bytes32",
          "name": "",
          "type": "bytes32"
        }
      ],
      "stateMutability": "view",
      "type": "function"
    },
    {
      "inputs": [
        {
          "internalType": "bytes32",
          "name": "role",
          "type": "bytes32"
        }
      ],
      "name": "getRoleAdmin",
      "outputs": [
        {
          "internalType": "bytes32",
          "name": "",
          "type": "bytes32"
        }
      ],
      "stateMutability": "view",
      "type": "function"
    },
    {
      "inputs": [
        {
          "internalType": "bytes32",
          "name": "role",
          "type": "bytes32"
        },
        {
          "internalType": "uint256",
          "name": "index",
          "type": "uint256"
        }
      ],
      "name": "getRoleMember",
      "outputs": [
        {
          "internalType": "address",
          "name": "",
          "type": "address"
        }
      ],
      "stateMutability": "view",
      "type": "function"
    },
    {
      "inputs": [
        {
          "internalType": "bytes32",
          "name": "role",
          "type": "bytes32"
        }
      ],
      "name": "getRoleMemberCount",
      "outputs": [
        {
          "internalType": "uint256",
          "name": "",
          "type": "uint256"
        }
      ],
      "stateMutability": "view",
      "type": "function"
    },
    {
      "inputs": [
        {
          "internalType": "bytes32",
          "name": "role",
          "type": "bytes32"
        },
        {
          "internalType": "address",
          "name": "account",
          "type": "address"
        }
      ],
      "name": "grantRole",
      "outputs": [],
      "stateMutability": "nonpayable",
      "type": "function"
    },
    {
      "inputs": [
        {
          "internalType": "bytes32",
          "name": "role",
          "type": "bytes32"
        },
        {
          "internalType": "address",
          "name": "account",
          "type": "address"
        }
      ],
      "name": "hasRole",
      "outputs": [
        {
          "internalType": "bool",
          "name": "",
          "type": "bool"
        }
      ],
      "stateMutability": "view",
      "type": "function"
    },
    {
      "inputs": [],
      "name": "paused",
      "outputs": [
        {
          "internalType": "bool",
          "name": "",
          "type": "bool"
        }
      ],
      "stateMutability": "view",
      "type": "function"
    },
    {
      "inputs": [
        {
          "internalType": "bytes32",
          "name": "role",
          "type": "bytes32"
        },
        {
          "internalType": "address",
          "name": "account",
          "type": "address"
        }
      ],
      "name": "renounceRole",
      "outputs": [],
      "stateMutability": "nonpayable",
      "type": "function"
    },
    {
      "inputs": [
        {
          "internalType": "bytes32",
          "name": "role",
          "type": "bytes32"
        },
        {
          "internalType": "address",
          "name": "account",
          "type": "address"
        }
      ],
      "name": "revokeRole",
      "outputs": [],
      "stateMutability": "nonpayable",
      "type": "function"
    },
    {
      "inputs": [
        {
          "internalType": "address",
          "name": "pauserAdmin",
          "type": "address"
        },
        {
          "internalType": "address",
          "name": "stakeLPContract",
          "type": "address"
        },
        {
          "internalType": "uint256",
          "name": "valueDivisor",
          "type": "uint256"
        }
      ],
      "name": "initialize",
      "outputs": [],
      "stateMutability": "nonpayable",
      "type": "function"
    },
    {
      "inputs": [
        {
          "internalType": "address",
          "name": "whitelistedAddress",
          "type": "address"
        },
        {
          "internalType": "address",
          "name": "sTokenAddress",
          "type": "address"
        }
      ],
      "name": "getSTokenSupply",
      "outputs": [
        {
          "internalType": "uint256",
          "name": "sTokenSupply",
          "type": "uint256"
        }
      ],
      "stateMutability": "view",
      "type": "function"
    },
    {
      "inputs": [
        {
          "internalType": "address",
          "name": "stakeLPContract",
          "type": "address"
        }
      ],
      "name": "setStakeLPContract",
      "outputs": [],
      "stateMutability": "nonpayable",
      "type": "function"
    },
    {
      "inputs": [
        {
          "internalType": "address",
          "name": "token",
          "type": "address"
        },
        {
          "internalType": "address",
          "name": "to",
          "type": "address"
        },
        {
          "internalType": "uint256",
          "name": "value",
          "type": "uint256"
        }
      ],
      "name": "safeTransfer",
      "outputs": [],
      "stateMutability": "nonpayable",
      "type": "function"
    },
    {
      "inputs": [
        {
          "internalType": "address",
          "name": "token",
          "type": "address"
        },
        {
          "internalType": "address",
          "name": "from",
          "type": "address"
        },
        {
          "internalType": "address",
          "name": "to",
          "type": "address"
        },
        {
          "internalType": "uint256",
          "name": "value",
          "type": "uint256"
        }
      ],
      "name": "safeTransferFrom",
      "outputs": [],
      "stateMutability": "nonpayable",
      "type": "function"
    }
  ],
  "bytecode": "0x608060405234801561001057600080fd5b50611046806100206000396000f3fe608060405234801561001057600080fd5b50600436106100f55760003560e01c8063a217fddf11610097578063d1660f9911610066578063d1660f99146102b9578063d547741f146102ef578063d9fc4b611461031b578063e63ab1e914610357576100f5565b8063a217fddf14610240578063a4fbfa8514610248578063ca15c87314610276578063cf3d5d0d14610293576100f5565b806336568abe116100d357806336568abe1461018d5780635c975abb146101b95780639010d07c146101d557806391d1485414610214576100f5565b80631794bb3c146100fa578063248a9ca3146101325780632f2ff15d14610161575b600080fd5b6101306004803603606081101561011057600080fd5b506001600160a01b0381358116916020810135909116906040013561035f565b005b61014f6004803603602081101561014857600080fd5b503561046d565b60408051918252519081900360200190f35b6101306004803603604081101561017757600080fd5b50803590602001356001600160a01b0316610482565b610130600480360360408110156101a357600080fd5b50803590602001356001600160a01b03166104ee565b6101c161054f565b604080519115158252519081900360200190f35b6101f8600480360360408110156101eb57600080fd5b5080359060200135610558565b604080516001600160a01b039092168252519081900360200190f35b6101c16004803603604081101561022a57600080fd5b50803590602001356001600160a01b0316610579565b61014f610591565b61014f6004803603604081101561025e57600080fd5b506001600160a01b0381358116916020013516610596565b61014f6004803603602081101561028c57600080fd5b5035610618565b610130600480360360208110156102a957600080fd5b50356001600160a01b031661062f565b610130600480360360608110156102cf57600080fd5b506001600160a01b038135811691602081013590911690604001356106bd565b6101306004803603604081101561030557600080fd5b50803590602001356001600160a01b0316610722565b6101306004803603608081101561033157600080fd5b506001600160a01b0381358116916020810135821691604082013516906060013561077b565b61014f6107dc565b600054610100900460ff16806103785750610378610800565b80610386575060005460ff16155b6103c15760405162461bcd60e51b815260040180806020018281038252602e815260200180610f87602e913960400191505060405180910390fd5b600054610100900460ff161580156103ec576000805460ff1961ff0019909116610100171660011790555b6103f4610811565b61041e7f65d7a28e3265b37a6474929f336521b332c1681b933f6cb9f3376673440d862a856104e0565b610430600061042b6108c3565b6104e0565b609780546001600160a01b0319166001600160a01b038516179055609882905560016099558015610467576000805461ff00191690555b50505050565b60009081526033602052604090206002015490565b6000828152603360205260409020600201546104a5906104a06108c3565b610579565b6104e05760405162461bcd60e51b815260040180806020018281038252602f815260200180610ef7602f913960400191505060405180910390fd5b6104ea82826108c7565b5050565b6104f66108c3565b6001600160a01b0316816001600160a01b0316146105455760405162461bcd60e51b815260040180806020018281038252602f815260200180610fe2602f913960400191505060405180910390fd5b6104ea8282610930565b60655460ff1690565b60008281526033602052604081206105709083610999565b90505b92915050565b600082815260336020526040812061057090836109a5565b600081565b6000816001600160a01b03166370a08231846040518263ffffffff1660e01b815260040180826001600160a01b0316815260200191505060206040518083038186803b1580156105e557600080fd5b505afa1580156105f9573d6000803e3d6000fd5b505050506040513d602081101561060f57600080fd5b50519392505050565b6000818152603360205260408120610573906109ba565b61063c60006104a06108c3565b610673576040805162461bcd60e51b8152602060048201526003602482015262242a9960e91b604482015290519081900360640190fd5b609780546001600160a01b0319166001600160a01b0383169081179091556040517fb2daebf9d5b97a85402c93016ccc68273e707a32f016448d8a1bb7d066d1281590600090a250565b6097546001600160a01b03166106d16108c3565b6001600160a01b031614610712576040805162461bcd60e51b815260206004820152600360248201526248553360e81b604482015290519081900360640190fd5b61071d8383836109c5565b505050565b600082815260336020526040902060020154610740906104a06108c3565b6105455760405162461bcd60e51b8152600401808060200182810382526030815260200180610f576030913960400191505060405180910390fd5b6097546001600160a01b031661078f6108c3565b6001600160a01b0316146107d0576040805162461bcd60e51b815260206004820152600360248201526212154d60ea1b604482015290519081900360640190fd5b61046784848484610b18565b7f65d7a28e3265b37a6474929f336521b332c1681b933f6cb9f3376673440d862a81565b600061080b30610c74565b15905090565b600054610100900460ff168061082a575061082a610800565b80610838575060005460ff16155b6108735760405162461bcd60e51b815260040180806020018281038252602e815260200180610f87602e913960400191505060405180910390fd5b600054610100900460ff1615801561089e576000805460ff1961ff0019909116610100171660011790555b6108a6610c7a565b6108ae610c7a565b80156108c0576000805461ff00191690555b50565b3390565b60008281526033602052604090206108df9082610d1a565b156104ea576108ec6108c3565b6001600160a01b0316816001600160a01b0316837f2f8788117e7eff1d82e926ec794901d17c78024a50270940304540a733656f0d60405160405180910390a45050565b60008281526033602052604090206109489082610d2f565b156104ea576109556108c3565b6001600160a01b0316816001600160a01b0316837ff6391f5c32d9c69d2a47ea670b442974b53935d1edc7fd64eb21e047a839171b60405160405180910390a45050565b60006105708383610d44565b6000610570836001600160a01b038416610da8565b600061057382610dc0565b604080516001600160a01b038481166024830152604480830185905283518084039091018152606490920183526020820180516001600160e01b031663a9059cbb60e01b1781529251825160009485949389169392918291908083835b60208310610a415780518252601f199092019160209182019101610a22565b6001836020036101000a0380198251168184511680821785525050505050509050019150506000604051808303816000865af19150503d8060008114610aa3576040519150601f19603f3d011682016040523d82523d6000602084013e610aa8565b606091505b5091509150818015610ad6575080511580610ad65750808060200190516020811015610ad357600080fd5b50515b610b115760405162461bcd60e51b815260040180806020018281038252602d815260200180610fb5602d913960400191505060405180910390fd5b5050505050565b604080516001600160a01b0385811660248301528481166044830152606480830185905283518084039091018152608490920183526020820180516001600160e01b03166323b872dd60e01b178152925182516000948594938a169392918291908083835b60208310610b9c5780518252601f199092019160209182019101610b7d565b6001836020036101000a0380198251168184511680821785525050505050509050019150506000604051808303816000865af19150503d8060008114610bfe576040519150601f19603f3d011682016040523d82523d6000602084013e610c03565b606091505b5091509150818015610c31575080511580610c315750808060200190516020811015610c2e57600080fd5b50515b610c6c5760405162461bcd60e51b8152600401808060200182810382526031815260200180610f266031913960400191505060405180910390fd5b505050505050565b3b151590565b600054610100900460ff1680610c935750610c93610800565b80610ca1575060005460ff16155b610cdc5760405162461bcd60e51b815260040180806020018281038252602e815260200180610f87602e913960400191505060405180910390fd5b600054610100900460ff161580156108ae576000805460ff1961ff00199091166101001716600117905580156108c0576000805461ff001916905550565b6000610570836001600160a01b038416610dc4565b6000610570836001600160a01b038416610e0e565b81546000908210610d865760405162461bcd60e51b8152600401808060200182810382526022815260200180610ed56022913960400191505060405180910390fd5b826000018281548110610d9557fe5b9060005260206000200154905092915050565b60009081526001919091016020526040902054151590565b5490565b6000610dd08383610da8565b610e0657508154600181810184556000848152602080822090930184905584548482528286019093526040902091909155610573565b506000610573565b60008181526001830160205260408120548015610eca5783546000198083019190810190600090879083908110610e4157fe5b9060005260206000200154905080876000018481548110610e5e57fe5b600091825260208083209091019290925582815260018981019092526040902090840190558654879080610e8e57fe5b60019003818190600052602060002001600090559055866001016000878152602001908152602001600020600090556001945050505050610573565b600091505061057356fe456e756d657261626c655365743a20696e646578206f7574206f6620626f756e6473416363657373436f6e74726f6c3a2073656e646572206d75737420626520616e2061646d696e20746f206772616e745472616e7366657248656c7065723a3a7472616e7366657246726f6d3a207472616e7366657246726f6d206661696c6564416363657373436f6e74726f6c3a2073656e646572206d75737420626520616e2061646d696e20746f207265766f6b65496e697469616c697a61626c653a20636f6e747261637420697320616c726561647920696e697469616c697a65645472616e7366657248656c7065723a3a736166655472616e736665723a207472616e73666572206661696c6564416363657373436f6e74726f6c3a2063616e206f6e6c792072656e6f756e636520726f6c657320666f722073656c66a2646970667358221220526e0647664c9eada11fede80531f7a2b92a12a20cf1f1d5c8eeb713a4dba44b64736f6c63430007060033",
  "immutableReferences": {},
  "source": "// SPDX-License-Identifier: UNLICENSED\npragma solidity >=0.7.0;\n\nimport \"../interfaces/IHolderV2.sol\";\nimport \"../interfaces/ISTokensV2.sol\";\nimport \"@openzeppelin/contracts-upgradeable/access/AccessControlUpgradeable.sol\";\nimport \"@openzeppelin/contracts-upgradeable/utils/PausableUpgradeable.sol\";\nimport \"@openzeppelin/contracts-upgradeable/proxy/Initializable.sol\";\nimport \"../libraries/TransferHelper.sol\";\n\ncontract HolderUniswapStkATOMEth is\n\tIHolderV2,\n\tInitializable,\n\tAccessControlUpgradeable,\n\tPausableUpgradeable\n{\n\t// constant pertaining to access roles\n\tbytes32 public constant PAUSER_ROLE = keccak256(\"PAUSER_ROLE\");\n\n\t// safeTransfer & safeTransferFrom will be called by stakeLPCore contract\n\taddress private _stakeLPContract;\n\n\t// value divisor to make weight factor a fraction if need be\n\tuint256 private _valueDivisor;\n\n\t// variable pertaining to contract upgrades versioning\n\tuint256 private _version;\n\n\t/**\n\t * @dev Constructor for initializing the Holder Uniswap contract.\n\t * @param stakeLPContract - address of the StakeLPCore contract.\n\t */\n\tfunction initialize(\n\t\taddress pauserAdmin,\n\t\taddress stakeLPContract,\n\t\tuint256 valueDivisor\n\t) public virtual initializer {\n\t\t__AccessControl_init();\n\t\t_setupRole(PAUSER_ROLE, pauserAdmin);\n\t\t_setupRole(DEFAULT_ADMIN_ROLE, _msgSender());\n\t\t_stakeLPContract = stakeLPContract;\n\t\t_valueDivisor = valueDivisor;\n\t\t_version = 1;\n\t}\n\n\t/**\n\t * @dev get SToken reserve supply of the whitelisted contract\n\t * argument names commented to suppress warnings\n\t */\n\tfunction getSTokenSupply(address whitelistedAddress, address sTokenAddress)\n\t\tpublic\n\t\tview\n\t\tvirtual\n\t\toverride\n\t\treturns (uint256 sTokenSupply)\n\t{\n\t\tsTokenSupply = ISTokensV2(sTokenAddress).balanceOf(whitelistedAddress);\n\t\treturn sTokenSupply;\n\t}\n\n\t/*\n\t * @dev Set 'contract address', called from constructor\n\t * @param liquidStakingContract: liquidStaking contract address\n\t *\n\t * Emits a {SetLiquidStakingContract} event with '_contract' set to the liquidStaking contract address.\n\t *\n\t */\n\tfunction setStakeLPContract(address stakeLPContract)\n\t\tpublic\n\t\tvirtual\n\t\toverride\n\t{\n\t\trequire(hasRole(DEFAULT_ADMIN_ROLE, _msgSender()), \"HU2\");\n\t\t_stakeLPContract = stakeLPContract;\n\t\temit SetStakeLPContract(stakeLPContract);\n\t}\n\n\tfunction safeTransfer(\n\t\taddress token,\n\t\taddress to,\n\t\tuint256 value\n\t) public virtual override {\n\t\trequire(_msgSender() == _stakeLPContract, \"HU3\");\n\n\t\t// finally transfer the new LP Tokens to the user address\n\t\tTransferHelper.safeTransfer(token, to, value);\n\t}\n\n\tfunction safeTransferFrom(\n\t\taddress token,\n\t\taddress from,\n\t\taddress to,\n\t\tuint256 value\n\t) public virtual override {\n\t\trequire(_msgSender() == _stakeLPContract, \"HU4\");\n\n\t\t// finally transfer the new LP Tokens to the user address\n\t\tTransferHelper.safeTransferFrom(token, from, to, value);\n\t}\n}\n",
  "sourcePath": "C:\\Users\\Kamlesh\\Persistence\\pStake\\codebase\\pStake-smartContracts\\contracts\\holder\\HolderUniswapStkATOMEth.sol",
  "compiler": {
    "name": "solc",
    "version": "0.7.6+commit.7338295f.Emscripten.clang"
  },
  "schemaVersion": "3.4.3",
  "updatedAt": "2021-09-22T13:53:34.796Z",
  "devdoc": {
    "kind": "dev",
    "methods": {
      "getRoleAdmin(bytes32)": {
        "details": "Returns the admin role that controls `role`. See {grantRole} and {revokeRole}. To change a role's admin, use {_setRoleAdmin}."
      },
      "getRoleMember(bytes32,uint256)": {
        "details": "Returns one of the accounts that have `role`. `index` must be a value between 0 and {getRoleMemberCount}, non-inclusive. Role bearers are not sorted in any particular way, and their ordering may change at any point. WARNING: When using {getRoleMember} and {getRoleMemberCount}, make sure you perform all queries on the same block. See the following https://forum.openzeppelin.com/t/iterating-over-elements-on-enumerableset-in-openzeppelin-contracts/2296[forum post] for more information."
      },
      "getRoleMemberCount(bytes32)": {
        "details": "Returns the number of accounts that have `role`. Can be used together with {getRoleMember} to enumerate all bearers of a role."
      },
      "getSTokenSupply(address,address)": {
        "details": "get SToken reserve supply of the whitelisted contract argument names commented to suppress warnings"
      },
      "grantRole(bytes32,address)": {
        "details": "Grants `role` to `account`. If `account` had not been already granted `role`, emits a {RoleGranted} event. Requirements: - the caller must have ``role``'s admin role."
      },
      "hasRole(bytes32,address)": {
        "details": "Returns `true` if `account` has been granted `role`."
      },
      "initialize(address,address,uint256)": {
        "details": "Constructor for initializing the Holder Uniswap contract.",
        "params": {
          "stakeLPContract": "- address of the StakeLPCore contract."
        }
      },
      "paused()": {
        "details": "Returns true if the contract is paused, and false otherwise."
      },
      "renounceRole(bytes32,address)": {
        "details": "Revokes `role` from the calling account. Roles are often managed via {grantRole} and {revokeRole}: this function's purpose is to provide a mechanism for accounts to lose their privileges if they are compromised (such as when a trusted device is misplaced). If the calling account had been granted `role`, emits a {RoleRevoked} event. Requirements: - the caller must be `account`."
      },
      "revokeRole(bytes32,address)": {
        "details": "Revokes `role` from `account`. If `account` had been granted `role`, emits a {RoleRevoked} event. Requirements: - the caller must have ``role``'s admin role."
      },
      "safeTransfer(address,address,uint256)": {
        "details": "Set UTokens smart contract. Emits a {SetContract} event."
      },
      "safeTransferFrom(address,address,address,uint256)": {
        "details": "Set UTokens smart contract. Emits a {SetContract} event."
      },
      "setStakeLPContract(address)": {
        "details": "Set UTokens smart contract. Emits a {SetContract} event."
      }
    },
    "version": 1
  },
  "userdoc": {
    "kind": "user",
    "methods": {},
    "version": 1
  }
}