{
  "contractName": "WhitelistedEmission",
  "abi": [
    {
      "anonymous": false,
      "inputs": [
        {
          "indexed": false,
          "internalType": "address",
          "name": "account",
          "type": "address"
        }
      ],
      "name": "Paused",
      "type": "event"
    },
    {
      "anonymous": false,
      "inputs": [
        {
          "indexed": true,
          "internalType": "address",
          "name": "whitelistedAddress",
          "type": "address"
        },
        {
          "indexed": false,
          "internalType": "address[]",
          "name": "sTokenAddressesLocal",
          "type": "address[]"
        },
        {
          "indexed": true,
          "internalType": "address",
          "name": "holderAddressLocal",
          "type": "address"
        },
        {
          "indexed": true,
          "internalType": "uint256",
          "name": "timestamp",
          "type": "uint256"
        }
      ],
      "name": "RemoveWhitelistedAddress",
      "type": "event"
    },
    {
      "anonymous": false,
      "inputs": [
        {
          "indexed": true,
          "internalType": "bytes32",
          "name": "role",
          "type": "bytes32"
        },
        {
          "indexed": true,
          "internalType": "bytes32",
          "name": "previousAdminRole",
          "type": "bytes32"
        },
        {
          "indexed": true,
          "internalType": "bytes32",
          "name": "newAdminRole",
          "type": "bytes32"
        }
      ],
      "name": "RoleAdminChanged",
      "type": "event"
    },
    {
      "anonymous": false,
      "inputs": [
        {
          "indexed": true,
          "internalType": "bytes32",
          "name": "role",
          "type": "bytes32"
        },
        {
          "indexed": true,
          "internalType": "address",
          "name": "account",
          "type": "address"
        },
        {
          "indexed": true,
          "internalType": "address",
          "name": "sender",
          "type": "address"
        }
      ],
      "name": "RoleGranted",
      "type": "event"
    },
    {
      "anonymous": false,
      "inputs": [
        {
          "indexed": true,
          "internalType": "bytes32",
          "name": "role",
          "type": "bytes32"
        },
        {
          "indexed": true,
          "internalType": "address",
          "name": "account",
          "type": "address"
        },
        {
          "indexed": true,
          "internalType": "address",
          "name": "sender",
          "type": "address"
        }
      ],
      "name": "RoleRevoked",
      "type": "event"
    },
    {
      "anonymous": false,
      "inputs": [
        {
          "indexed": true,
          "internalType": "address",
          "name": "whitelistedAddress",
          "type": "address"
        },
        {
          "indexed": false,
          "internalType": "address[]",
          "name": "sTokenAddressesLocal",
          "type": "address[]"
        },
        {
          "indexed": true,
          "internalType": "address",
          "name": "holderContractAddress",
          "type": "address"
        },
        {
          "indexed": true,
          "internalType": "address",
          "name": "lpContractAddress",
          "type": "address"
        },
        {
          "indexed": false,
          "internalType": "uint256",
          "name": "timestamp",
          "type": "uint256"
        }
      ],
      "name": "SetWhitelistedAddress",
      "type": "event"
    },
    {
      "anonymous": false,
      "inputs": [
        {
          "indexed": false,
          "internalType": "address",
          "name": "account",
          "type": "address"
        }
      ],
      "name": "Unpaused",
      "type": "event"
    },
    {
      "inputs": [],
      "name": "DEFAULT_ADMIN_ROLE",
      "outputs": [
        {
          "internalType": "bytes32",
          "name": "",
          "type": "bytes32"
        }
      ],
      "stateMutability": "view",
      "type": "function"
    },
    {
      "inputs": [],
      "name": "PAUSER_ROLE",
      "outputs": [
        {
          "internalType": "bytes32",
          "name": "",
          "type": "bytes32"
        }
      ],
      "stateMutability": "view",
      "type": "function"
    },
    {
      "inputs": [
        {
          "internalType": "address",
          "name": "",
          "type": "address"
        }
      ],
      "name": "_holderLPToken",
      "outputs": [
        {
          "internalType": "address",
          "name": "",
          "type": "address"
        }
      ],
      "stateMutability": "view",
      "type": "function"
    },
    {
      "inputs": [
        {
          "internalType": "address",
          "name": "",
          "type": "address"
        },
        {
          "internalType": "uint256",
          "name": "",
          "type": "uint256"
        }
      ],
      "name": "_holderSTokens",
      "outputs": [
        {
          "internalType": "address",
          "name": "",
          "type": "address"
        }
      ],
      "stateMutability": "view",
      "type": "function"
    },
    {
      "inputs": [
        {
          "internalType": "address",
          "name": "",
          "type": "address"
        },
        {
          "internalType": "uint256",
          "name": "",
          "type": "uint256"
        }
      ],
      "name": "_holderWhitelists",
      "outputs": [
        {
          "internalType": "address",
          "name": "",
          "type": "address"
        }
      ],
      "stateMutability": "view",
      "type": "function"
    },
    {
      "inputs": [],
      "name": "_version",
      "outputs": [
        {
          "internalType": "uint256",
          "name": "",
          "type": "uint256"
        }
      ],
      "stateMutability": "view",
      "type": "function"
    },
    {
      "inputs": [
        {
          "internalType": "address",
          "name": "",
          "type": "address"
        }
      ],
      "name": "_whitelistedAddressHolder",
      "outputs": [
        {
          "internalType": "address",
          "name": "",
          "type": "address"
        }
      ],
      "stateMutability": "view",
      "type": "function"
    },
    {
      "inputs": [
        {
          "internalType": "address",
          "name": "",
          "type": "address"
        },
        {
          "internalType": "address",
          "name": "",
          "type": "address"
        },
        {
          "internalType": "uint256",
          "name": "",
          "type": "uint256"
        }
      ],
      "name": "_whitelistedSTokenAddresses",
      "outputs": [
        {
          "internalType": "address",
          "name": "",
          "type": "address"
        }
      ],
      "stateMutability": "view",
      "type": "function"
    },
    {
      "inputs": [
        {
          "internalType": "bytes32",
          "name": "role",
          "type": "bytes32"
        }
      ],
      "name": "getRoleAdmin",
      "outputs": [
        {
          "internalType": "bytes32",
          "name": "",
          "type": "bytes32"
        }
      ],
      "stateMutability": "view",
      "type": "function"
    },
    {
      "inputs": [
        {
          "internalType": "bytes32",
          "name": "role",
          "type": "bytes32"
        },
        {
          "internalType": "uint256",
          "name": "index",
          "type": "uint256"
        }
      ],
      "name": "getRoleMember",
      "outputs": [
        {
          "internalType": "address",
          "name": "",
          "type": "address"
        }
      ],
      "stateMutability": "view",
      "type": "function"
    },
    {
      "inputs": [
        {
          "internalType": "bytes32",
          "name": "role",
          "type": "bytes32"
        }
      ],
      "name": "getRoleMemberCount",
      "outputs": [
        {
          "internalType": "uint256",
          "name": "",
          "type": "uint256"
        }
      ],
      "stateMutability": "view",
      "type": "function"
    },
    {
      "inputs": [
        {
          "internalType": "bytes32",
          "name": "role",
          "type": "bytes32"
        },
        {
          "internalType": "address",
          "name": "account",
          "type": "address"
        }
      ],
      "name": "grantRole",
      "outputs": [],
      "stateMutability": "nonpayable",
      "type": "function"
    },
    {
      "inputs": [
        {
          "internalType": "bytes32",
          "name": "role",
          "type": "bytes32"
        },
        {
          "internalType": "address",
          "name": "account",
          "type": "address"
        }
      ],
      "name": "hasRole",
      "outputs": [
        {
          "internalType": "bool",
          "name": "",
          "type": "bool"
        }
      ],
      "stateMutability": "view",
      "type": "function"
    },
    {
      "inputs": [],
      "name": "paused",
      "outputs": [
        {
          "internalType": "bool",
          "name": "",
          "type": "bool"
        }
      ],
      "stateMutability": "view",
      "type": "function"
    },
    {
      "inputs": [
        {
          "internalType": "bytes32",
          "name": "role",
          "type": "bytes32"
        },
        {
          "internalType": "address",
          "name": "account",
          "type": "address"
        }
      ],
      "name": "renounceRole",
      "outputs": [],
      "stateMutability": "nonpayable",
      "type": "function"
    },
    {
      "inputs": [
        {
          "internalType": "bytes32",
          "name": "role",
          "type": "bytes32"
        },
        {
          "internalType": "address",
          "name": "account",
          "type": "address"
        }
      ],
      "name": "revokeRole",
      "outputs": [],
      "stateMutability": "nonpayable",
      "type": "function"
    },
    {
      "inputs": [
        {
          "internalType": "address",
          "name": "pauserAddress",
          "type": "address"
        }
      ],
      "name": "initialize",
      "outputs": [],
      "stateMutability": "nonpayable",
      "type": "function"
    },
    {
      "inputs": [
        {
          "internalType": "address",
          "name": "holderAddress",
          "type": "address"
        }
      ],
      "name": "getHolderData",
      "outputs": [
        {
          "internalType": "address[]",
          "name": "whitelistedAddresses",
          "type": "address[]"
        },
        {
          "internalType": "address[]",
          "name": "sTokenAddresses",
          "type": "address[]"
        },
        {
          "internalType": "address[]",
          "name": "uTokenAddresses",
          "type": "address[]"
        },
        {
          "internalType": "address",
          "name": "lpTokenAddress",
          "type": "address"
        }
      ],
      "stateMutability": "view",
      "type": "function"
    },
    {
      "inputs": [
        {
          "internalType": "address",
          "name": "whitelistedAddress",
          "type": "address"
        }
      ],
      "name": "getWhitelistedSTokens",
      "outputs": [
        {
          "internalType": "address[]",
          "name": "sTokenAddresses",
          "type": "address[]"
        }
      ],
      "stateMutability": "view",
      "type": "function"
    },
    {
      "inputs": [
        {
          "internalType": "address",
          "name": "whitelistedAddress",
          "type": "address"
        },
        {
          "internalType": "address[]",
          "name": "sTokenAddresses",
          "type": "address[]"
        },
        {
          "internalType": "address",
          "name": "holderContractAddress",
          "type": "address"
        },
        {
          "internalType": "address",
          "name": "lpContractAddress",
          "type": "address"
        }
      ],
      "name": "setWhitelistedAddress",
      "outputs": [
        {
          "internalType": "bool",
          "name": "success",
          "type": "bool"
        }
      ],
      "stateMutability": "nonpayable",
      "type": "function"
    },
    {
      "inputs": [
        {
          "internalType": "address",
          "name": "whitelistedAddress",
          "type": "address"
        }
      ],
      "name": "removeWhitelistedAddress",
      "outputs": [
        {
          "internalType": "bool",
          "name": "success",
          "type": "bool"
        }
      ],
      "stateMutability": "nonpayable",
      "type": "function"
    },
    {
      "inputs": [],
      "name": "pause",
      "outputs": [
        {
          "internalType": "bool",
          "name": "success",
          "type": "bool"
        }
      ],
      "stateMutability": "nonpayable",
      "type": "function"
    },
    {
      "inputs": [],
      "name": "unpause",
      "outputs": [
        {
          "internalType": "bool",
          "name": "success",
          "type": "bool"
        }
      ],
      "stateMutability": "nonpayable",
      "type": "function"
    }
  ],
  "bytecode": "0x608060405234801561001057600080fd5b50611fec806100206000396000f3fe608060405234801561001057600080fd5b506004361061014d5760003560e01c806360253751116100c3578063c4d66de81161007c578063c4d66de814610496578063ca15c873146104bc578063d547741f146104d9578063e4c4bf5c14610505578063e63ab1e91461057b578063eab573dc146105835761014d565b806360253751146103df57806363111f031461040b5780638456cb59146104375780639010d07c1461043f57806391d1485414610462578063a217fddf1461048e5761014d565b80633e118dbe116101155780633e118dbe146103415780633f4ba83a14610349578063530cd5ab14610365578063562c4b501461038b5780635c975abb146103b15780635cc1e3f5146103b95761014d565b8063248a9ca31461015257806326b7fa82146101815780632f2ff15d146101d357806336568abe1461020157806336bbacad1461022d575b600080fd5b61016f6004803603602081101561016857600080fd5b503561064c565b60408051918252519081900360200190f35b6101b76004803603606081101561019757600080fd5b506001600160a01b03813581169160208101359091169060400135610661565b604080516001600160a01b039092168252519081900360200190f35b6101ff600480360360408110156101e957600080fd5b50803590602001356001600160a01b03166106a6565b005b6101ff6004803603604081101561021757600080fd5b50803590602001356001600160a01b0316610712565b6102536004803603602081101561024357600080fd5b50356001600160a01b0316610773565b60405180806020018060200180602001856001600160a01b03168152602001848103845288818151815260200191508051906020019060200280838360005b838110156102aa578181015183820152602001610292565b50505050905001848103835287818151815260200191508051906020019060200280838360005b838110156102e95781810151838201526020016102d1565b50505050905001848103825286818151815260200191508051906020019060200280838360005b83811015610328578181015183820152602001610310565b5050505090500197505050505050505060405180910390f35b61016f610985565b61035161098b565b604080519115158252519081900360200190f35b6103516004803603602081101561037b57600080fd5b50356001600160a01b03166109ef565b6101b7600480360360208110156103a157600080fd5b50356001600160a01b0316610eab565b610351610ec6565b6101b7600480360360208110156103cf57600080fd5b50356001600160a01b0316610ecf565b6101b7600480360360408110156103f557600080fd5b506001600160a01b038135169060200135610eea565b6101b76004803603604081101561042157600080fd5b506001600160a01b038135169060200135610f22565b610351610f3e565b6101b76004803603604081101561045557600080fd5b5080359060200135610f9c565b6103516004803603604081101561047857600080fd5b50803590602001356001600160a01b0316610fbd565b61016f610fd5565b6101ff600480360360208110156104ac57600080fd5b50356001600160a01b0316610fda565b61016f600480360360208110156104d257600080fd5b50356110bb565b6101ff600480360360408110156104ef57600080fd5b50803590602001356001600160a01b03166110d2565b61052b6004803603602081101561051b57600080fd5b50356001600160a01b031661112b565b60408051602080825283518183015283519192839290830191858101910280838360005b8381101561056757818101518382015260200161054f565b505050509050019250505060405180910390f35b61016f6111ba565b6103516004803603608081101561059957600080fd5b6001600160a01b0382351691908101906040810160208201356401000000008111156105c457600080fd5b8201836020820111156105d657600080fd5b803590602001918460208302840111640100000000831117156105f857600080fd5b919080806020026020016040519081016040528093929190818152602001838360200280828437600092019190915250929550506001600160a01b0383358116945060209093013590921691506111cc9050565b60009081526065602052604090206002015490565b6099602052826000526040600020602052816000526040600020818154811061068957600080fd5b6000918252602090912001546001600160a01b0316925083915050565b6000828152606560205260409020600201546106c9906106c461173f565b610fbd565b6107045760405162461bcd60e51b815260040180806020018281038252602f815260200180611edb602f913960400191505060405180910390fd5b61070e8282611743565b5050565b61071a61173f565b6001600160a01b0316816001600160a01b0316146107695760405162461bcd60e51b815260040180806020018281038252602f815260200180611f88602f913960400191505060405180910390fd5b61070e82826117ac565b606080806000806001600160a01b0386161561097d576001600160a01b038616600090815260986020908152604091829020805483518184028101840190945280845290918301828280156107f157602002820191906000526020600020905b81546001600160a01b031681526001909101906020018083116107d3575b5050506001600160a01b03808a166000908152609b6020908152604080832054609c8352928190208054825181850281018501909352808352979c509290931697509194909350915083018282801561087357602002820191906000526020600020905b81546001600160a01b03168152600190910190602001808311610855575b50505050509350835167ffffffffffffffff8111801561089257600080fd5b506040519080825280602002602001820160405280156108bc578160200160208202803683370190505b509250600090505b835181101561097d578381815181106108d957fe5b60200260200101516001600160a01b0316633d9e0c056040518163ffffffff1660e01b815260040160206040518083038186803b15801561091957600080fd5b505afa15801561092d573d6000803e3d6000fd5b505050506040513d602081101561094357600080fd5b5051835184908390811061095357fe5b6001600160a01b0390921660209283029190910190910152610976816001611815565b90506108c4565b509193509193565b60975481565b60006109a7600080516020611f688339815191526106c461173f565b6109e1576040805162461bcd60e51b815260206004808301919091526024820152635354313560e01b604482015290519081900360640190fd5b6109e961186f565b50600190565b60006109fd816106c461173f565b610a37576040805162461bcd60e51b8152602060048083019190915260248201526304c5034360e41b604482015290519081900360640190fd5b6001600160a01b038216610a7b576040805162461bcd60e51b815260206004808301919091526024820152634c50343160e01b604482015290519081900360640190fd5b6001600160a01b038083166000818152609a6020908152604080832054909416808352609982528483208484528252918490208451828152815492810183905292944294869490937f2953f6ab5bc40a923b43a5a72d28691e4f162c6f550e3b6a8ea9159e9a71b343939282919082019084908015610b2357602002820191906000526020600020905b81546001600160a01b03168152600190910190602001808311610b05575b50509250505060405180910390a460005b6001600160a01b03808316600090815260996020908152604080832093881683529290522054811015610c3d576001600160a01b038083166000908152609960209081526040808320938816835292905220805482908110610b9257fe5b9060005260206000200160009054906101000a90046001600160a01b03166001600160a01b031663530cd5ab856040518263ffffffff1660e01b815260040180826001600160a01b03168152602001915050602060405180830381600087803b158015610bfe57600080fd5b505af1158015610c12573d6000803e3d6000fd5b505050506040513d6020811015610c2857600080fd5b50610c369050816001611815565b9050610b34565b6001600160a01b038085166000818152609a6020908152604080832080546001600160a01b031916905593861682526099815283822092825291909152908120610c8691611e86565b506000805b6001600160a01b038316600090815260986020526040902054821015610d09576001600160a01b03838116600090815260986020526040902080549187169184908110610cd457fe5b6000918252602090912001546001600160a01b03161415610cf757506001610d09565b610d02826001611815565b9150610c8b565b8015610ea0576001600160a01b038316600090815260986020526040902054610d3390600161190f565b821415610d82576001600160a01b0383166000908152609860205260409020805480610d5b57fe5b600082815260209020810160001990810180546001600160a01b0319169055019055610e4a565b6001600160a01b03831660009081526098602052604090208054610da790600161190f565b81548110610db157fe5b60009182526020808320909101546001600160a01b03868116845260989092526040909220805491909216919084908110610de857fe5b600091825260208083209190910180546001600160a01b0319166001600160a01b039485161790559185168152609890915260409020805480610e2757fe5b600082815260209020810160001990810180546001600160a01b03191690550190555b6001600160a01b038316600090815260986020526040902054610ea0576001600160a01b0383166000908152609b6020908152604080832080546001600160a01b0319169055609c9091528120610ea091611e86565b506001949350505050565b609b602052600090815260409020546001600160a01b031681565b60335460ff1690565b609a602052600090815260409020546001600160a01b031681565b60986020528160005260406000208181548110610f0657600080fd5b6000918252602090912001546001600160a01b03169150829050565b609c6020528160005260406000208181548110610f0657600080fd5b6000610f5a600080516020611f688339815191526106c461173f565b610f94576040805162461bcd60e51b8152602060048083019190915260248201526314d50c4d60e21b604482015290519081900360640190fd5b6109e961196c565b6000828152606560205260408120610fb490836119ef565b90505b92915050565b6000828152606560205260408120610fb490836119fb565b600081565b600054610100900460ff1680610ff35750610ff3611a10565b80611001575060005460ff16155b61103c5760405162461bcd60e51b815260040180806020018281038252602e815260200180611f3a602e913960400191505060405180910390fd5b600054610100900460ff16158015611067576000805460ff1961ff0019909116610100171660011790555b61106f611a21565b611077611ad3565b611089600061108461173f565b610704565b6110a1600080516020611f6883398151915283610704565b6001609755801561070e576000805461ff00191690555050565b6000818152606560205260408120610fb790611b70565b6000828152606560205260409020600201546110f0906106c461173f565b6107695760405162461bcd60e51b8152600401808060200182810382526030815260200180611f0a6030913960400191505060405180910390fd5b6001600160a01b038082166000818152609a602090815260408083205490941680835260998252848320938352928152908390208054845181840281018401909552808552606094928301828280156111ad57602002820191906000526020600020905b81546001600160a01b0316815260019091019060200180831161118f575b5050505050915050919050565b600080516020611f6883398151915281565b60006111da816106c461173f565b611211576040805162461bcd60e51b815260206004820152600360248201526257453160e81b604482015290519081900360640190fd5b6001600160a01b0385161580159061123157506001600160a01b03831615155b801561123d5750835115155b611274576040805162461bcd60e51b81526020600482015260036024820152622ba29960e91b604482015290519081900360640190fd5b600080805b6001600160a01b0386166000908152609860205260409020548210156112f8576001600160a01b0386811660009081526098602052604090208054918a1691849081106112c257fe5b6000918252602090912001546001600160a01b031614156112e657600192506112f8565b6112f1826001611815565b9150611279565b82611340576001600160a01b0386811660009081526098602090815260408220805460018101825590835291200180546001600160a01b031916918a16919091179055611373565b6040805162461bcd60e51b815260206004820152600360248201526257453360e81b604482015290519081900360640190fd5b506001600160a01b038088166000908152609a602090815260408083208054858b166001600160a01b03199182168117909255908452609b9092528220805493881693909116929092179091555b865181101561167f5760006001600160a01b03168782815181106113e157fe5b60200260200101516001600160a01b0316141561142e576040805162461bcd60e51b815260206004808301919091526024820152634c50333960e01b604482015290519081900360640190fd5b6001600160a01b038087166000908152609960209081526040808320938c16835292905220875188908390811061146157fe5b60209081029190910181015182546001810184556000938452919092200180546001600160a01b0319166001600160a01b0390921691909117905586518790839081106114aa57fe5b60200260200101516001600160a01b0316634bcb30f88988886040518463ffffffff1660e01b815260040180846001600160a01b03168152602001836001600160a01b03168152602001826001600160a01b031681526020019350505050602060405180830381600087803b15801561152257600080fd5b505af1158015611536573d6000803e3d6000fd5b505050506040513d602081101561154c57600080fd5b5060009250505b6001600160a01b0386166000908152609c60205260409020548210156115eb576001600160a01b0386166000908152609c6020526040902080548390811061159757fe5b60009182526020909120015487516001600160a01b03909116908890839081106115bd57fe5b60200260200101516001600160a01b031614156115d9576115eb565b6115e4826001611815565b9150611553565b6001600160a01b0386166000908152609c602052604090205482141561166d576001600160a01b0386166000908152609c60205260409020875188908390811061163157fe5b60209081029190910181015182546001810184556000938452919092200180546001600160a01b0319166001600160a01b039092169190911790555b611678816001611815565b90506113c1565b6001600160a01b0386811660008181526099602090815260408083208d8616808552908352928190208151429381018490528281528154928101839052958b16957f898021085aa6760dfff39976b4928c90f897cf85216261ef8a3746d755ef53dc939192819060608201908590801561172257602002820191906000526020600020905b81546001600160a01b03168152600190910190602001808311611704575b5050935050505060405180910390a4506001979650505050505050565b3390565b600082815260656020526040902061175b9082611b7b565b1561070e5761176861173f565b6001600160a01b0316816001600160a01b0316837f2f8788117e7eff1d82e926ec794901d17c78024a50270940304540a733656f0d60405160405180910390a45050565b60008281526065602052604090206117c49082611b90565b1561070e576117d161173f565b6001600160a01b0316816001600160a01b0316837ff6391f5c32d9c69d2a47ea670b442974b53935d1edc7fd64eb21e047a839171b60405160405180910390a45050565b600082820183811015610fb4576040805162461bcd60e51b815260206004820152601b60248201527f536166654d6174683a206164646974696f6e206f766572666c6f770000000000604482015290519081900360640190fd5b611877610ec6565b6118bf576040805162461bcd60e51b815260206004820152601460248201527314185d5cd8589b194e881b9bdd081c185d5cd95960621b604482015290519081900360640190fd5b6033805460ff191690557f5db9ee0a495bf2e6ff9c91a7834c1ba4fdd244a5e8aa4e537bd38aeae4b073aa6118f261173f565b604080516001600160a01b039092168252519081900360200190a1565b600082821115611966576040805162461bcd60e51b815260206004820152601e60248201527f536166654d6174683a207375627472616374696f6e206f766572666c6f770000604482015290519081900360640190fd5b50900390565b611974610ec6565b156119b9576040805162461bcd60e51b815260206004820152601060248201526f14185d5cd8589b194e881c185d5cd95960821b604482015290519081900360640190fd5b6033805460ff191660011790557f62e78cea01bee320cd4e420270b5ea74000d11b0c9f74754ebdbfc544b05a2586118f261173f565b6000610fb48383611ba5565b6000610fb4836001600160a01b038416611c09565b6000611a1b30611c21565b15905090565b600054610100900460ff1680611a3a5750611a3a611a10565b80611a48575060005460ff16155b611a835760405162461bcd60e51b815260040180806020018281038252602e815260200180611f3a602e913960400191505060405180910390fd5b600054610100900460ff16158015611aae576000805460ff1961ff0019909116610100171660011790555b611ab6611c27565b611abe611c27565b8015611ad0576000805461ff00191690555b50565b600054610100900460ff1680611aec5750611aec611a10565b80611afa575060005460ff16155b611b355760405162461bcd60e51b815260040180806020018281038252602e815260200180611f3a602e913960400191505060405180910390fd5b600054610100900460ff16158015611b60576000805460ff1961ff0019909116610100171660011790555b611b68611c27565b611abe611cc7565b6000610fb782611d72565b6000610fb4836001600160a01b038416611d76565b6000610fb4836001600160a01b038416611dc0565b81546000908210611be75760405162461bcd60e51b8152600401808060200182810382526022815260200180611eb96022913960400191505060405180910390fd5b826000018281548110611bf657fe5b9060005260206000200154905092915050565b60009081526001919091016020526040902054151590565b3b151590565b600054610100900460ff1680611c405750611c40611a10565b80611c4e575060005460ff16155b611c895760405162461bcd60e51b815260040180806020018281038252602e815260200180611f3a602e913960400191505060405180910390fd5b600054610100900460ff16158015611abe576000805460ff1961ff0019909116610100171660011790558015611ad0576000805461ff001916905550565b600054610100900460ff1680611ce05750611ce0611a10565b80611cee575060005460ff16155b611d295760405162461bcd60e51b815260040180806020018281038252602e815260200180611f3a602e913960400191505060405180910390fd5b600054610100900460ff16158015611d54576000805460ff1961ff0019909116610100171660011790555b6033805460ff191690558015611ad0576000805461ff001916905550565b5490565b6000611d828383611c09565b611db857508154600181810184556000848152602080822090930184905584548482528286019093526040902091909155610fb7565b506000610fb7565b60008181526001830160205260408120548015611e7c5783546000198083019190810190600090879083908110611df357fe5b9060005260206000200154905080876000018481548110611e1057fe5b600091825260208083209091019290925582815260018981019092526040902090840190558654879080611e4057fe5b60019003818190600052602060002001600090559055866001016000878152602001908152602001600020600090556001945050505050610fb7565b6000915050610fb7565b5080546000825590600052602060002090810190611ad091905b80821115611eb45760008155600101611ea0565b509056fe456e756d657261626c655365743a20696e646578206f7574206f6620626f756e6473416363657373436f6e74726f6c3a2073656e646572206d75737420626520616e2061646d696e20746f206772616e74416363657373436f6e74726f6c3a2073656e646572206d75737420626520616e2061646d696e20746f207265766f6b65496e697469616c697a61626c653a20636f6e747261637420697320616c726561647920696e697469616c697a656465d7a28e3265b37a6474929f336521b332c1681b933f6cb9f3376673440d862a416363657373436f6e74726f6c3a2063616e206f6e6c792072656e6f756e636520726f6c657320666f722073656c66a2646970667358221220b6ee8445094b8348d097fd3f6d23066d7c594d62445701b2b9afe1ebb91defaf64736f6c63430007060033",
  "immutableReferences": {},
  "source": "// SPDX-License-Identifier: UNLICENSED\npragma solidity >=0.7.0;\n\nimport \"@openzeppelin/contracts-upgradeable/math/SafeMathUpgradeable.sol\";\nimport \"@openzeppelin/contracts-upgradeable/utils/PausableUpgradeable.sol\";\nimport \"@openzeppelin/contracts-upgradeable/utils/EnumerableSetUpgradeable.sol\";\nimport \"@openzeppelin/contracts-upgradeable/access/AccessControlUpgradeable.sol\";\nimport \"./interfaces/ISTokensV2.sol\";\nimport \"./interfaces/IWhitelistedEmission.sol\";\n\ncontract WhitelistedEmission is\n\tIWhitelistedEmission,\n\tPausableUpgradeable,\n\tAccessControlUpgradeable\n{\n\tusing SafeMathUpgradeable for uint256;\n\tusing EnumerableSetUpgradeable for EnumerableSetUpgradeable.AddressSet;\n\n\t// constants defining access control ROLES\n\tbytes32 public constant PAUSER_ROLE = keccak256(\"PAUSER_ROLE\");\n\t// variable pertaining to contract upgrades versioning\n\tuint256 public _version;\n\n\t// list of whitelisted addresses for a particular holder contract\n\tmapping(address => address[]) public _holderWhitelists;\n\t// list of SToken addresses for a particular holder contract, for a particular whitelisted address\n\tmapping(address => mapping(address => address[]))\n\t\tpublic _whitelistedSTokenAddresses;\n\t// holder address for a particular whitelisted contract\n\tmapping(address => address) public _whitelistedAddressHolder;\n\t// lp token address for a particular holder address\n\tmapping(address => address) public _holderLPToken;\n\t// STokens pertaining to a holder address\n\tmapping(address => address[]) public _holderSTokens;\n\n\t/**\n\t * @dev Constructor for initializing the SToken contract.\n\t * @param pauserAddress - address of the pauser admin.\n\t */\n\tfunction initialize(address pauserAddress) public virtual initializer {\n\t\t__AccessControl_init();\n\t\t__Pausable_init();\n\t\t_setupRole(DEFAULT_ADMIN_ROLE, _msgSender());\n\t\t_setupRole(PAUSER_ROLE, pauserAddress);\n\t\t_version = 1;\n\t}\n\n\t/**\n\t * @dev Calculate pending rewards for the provided 'address'. The rate is the moving reward rate.\n\t * @param holderAddress: contract address\n\t */\n\tfunction getHolderData(address holderAddress)\n\t\tpublic\n\t\tview\n\t\tvirtual\n\t\toverride\n\t\treturns (\n\t\t\taddress[] memory whitelistedAddresses,\n\t\t\taddress[] memory sTokenAddresses,\n\t\t\taddress[] memory uTokenAddresses,\n\t\t\taddress lpTokenAddress\n\t\t)\n\t{\n\t\tuint256 k;\n\t\tif (holderAddress != address(0)) {\n\t\t\twhitelistedAddresses = _holderWhitelists[holderAddress];\n\t\t\tlpTokenAddress = _holderLPToken[holderAddress];\n\t\t\tsTokenAddresses = _holderSTokens[holderAddress];\n\t\t\tuTokenAddresses = new address[](sTokenAddresses.length);\n\t\t\tfor (k = 0; k < sTokenAddresses.length; k = k.add(1)) {\n\t\t\t\tuTokenAddresses[k] = ISTokensV2(sTokenAddresses[k])\n\t\t\t\t\t.getUTokenAddress();\n\t\t\t}\n\t\t}\n\t}\n\n\t/**\n\t * @dev Calculate pending rewards for the provided 'address'. The rate is the moving reward rate.\n\t * @param whitelistedAddress: contract address\n\t */\n\tfunction getWhitelistedSTokens(address whitelistedAddress)\n\t\tpublic\n\t\tview\n\t\tvirtual\n\t\toverride\n\t\treturns (address[] memory sTokenAddresses)\n\t// address[] memory uTokenAddresses\n\t{\n\t\taddress holderAddressLocal = _whitelistedAddressHolder[\n\t\t\twhitelistedAddress\n\t\t];\n\t\tsTokenAddresses = _whitelistedSTokenAddresses[holderAddressLocal][\n\t\t\twhitelistedAddress\n\t\t];\n\t}\n\n\t/*\n\t * @dev Set 'whitelisted address', performed by admin only\n\t * @param whitelistedAddress: contract address of the whitelisted party\n\t *\n\t * Emits a {setWhitelistedAddress} event\n\t *\n\t */\n\tfunction setWhitelistedAddress(\n\t\taddress whitelistedAddress,\n\t\taddress[] memory sTokenAddresses,\n\t\taddress holderContractAddress,\n\t\taddress lpContractAddress\n\t) public virtual override returns (bool success) {\n\t\trequire(hasRole(DEFAULT_ADMIN_ROLE, _msgSender()), \"WE1\");\n\t\t// lpTokenERC20ContractAddress or sTokenReserveContractAddress can be address(0) but not whitelistedAddress\n\t\t// have set holderContract also as non-zero, can allow lpContractAddress to be zero for control\n\t\trequire(\n\t\t\twhitelistedAddress != address(0) &&\n\t\t\t\tholderContractAddress != address(0) &&\n\t\t\t\tsTokenAddresses.length != 0,\n\t\t\t\"WE2\"\n\t\t);\n\n\t\tbool whitelistedAddressExists;\n\t\tuint256 j;\n\t\tuint256 i;\n\n\t\t// ADD TO _holderWhitelists make sure the same whitelisted address is not added before if so revert\n\t\t// to add the same whitelisted address, first remove it, then add again\n\t\t// add to _holderWhitelists\n\t\tfor (\n\t\t\tj = 0;\n\t\t\tj < _holderWhitelists[holderContractAddress].length;\n\t\t\tj = j.add(1)\n\t\t) {\n\t\t\tif (\n\t\t\t\t_holderWhitelists[holderContractAddress][j] ==\n\t\t\t\twhitelistedAddress\n\t\t\t) {\n\t\t\t\twhitelistedAddressExists = true;\n\t\t\t\tbreak;\n\t\t\t}\n\t\t}\n\n\t\t// if whitelisted contract doesnt already exist then include it in the array else revert\n\t\tif (!whitelistedAddressExists) {\n\t\t\t// add the whitelistedAddress to the _holderWhitelists array\n\t\t\t_holderWhitelists[holderContractAddress].push(whitelistedAddress);\n\t\t} else {\n\t\t\trevert(\"WE3\");\n\t\t}\n\n\t\t// ADD TO _holderWhitelists AND _whitelistedSTokenAddresses AND _whitelistedAddressHolder AND _holderLPToken\n\t\t_whitelistedAddressHolder[whitelistedAddress] = holderContractAddress;\n\t\t_holderLPToken[holderContractAddress] = lpContractAddress;\n\n\t\t// add SToken addresses uniquely to _holderSTokens\n\t\tfor (i = 0; i < sTokenAddresses.length; i = i.add(1)) {\n\t\t\t// ADD TO _whitelistedSTokenAddresses\n\t\t\t// check if sTokenAddress already exists\n\t\t\t// check if all the sTokenAddresses provided are non zero\n\t\t\trequire(sTokenAddresses[i] != address(0), \"LP39\");\n\t\t\t_whitelistedSTokenAddresses[holderContractAddress][\n\t\t\t\twhitelistedAddress\n\t\t\t].push(sTokenAddresses[i]);\n\n\t\t\t// SET WHITELISTING IN STOKEN CONTRACTS\n\t\t\t// for each sTokenAddress, set the whiteliste data\n\t\t\tISTokensV2(sTokenAddresses[j]).setWhitelistedAddress(\n\t\t\t\twhitelistedAddress,\n\t\t\t\tholderContractAddress,\n\t\t\t\tlpContractAddress\n\t\t\t);\n\t\t\t// ADD TO _holderWhitelists\n\t\t\tfor (\n\t\t\t\tj = 0;\n\t\t\t\tj < _holderSTokens[holderContractAddress].length;\n\t\t\t\tj = j.add(1)\n\t\t\t) {\n\t\t\t\tif (\n\t\t\t\t\tsTokenAddresses[i] ==\n\t\t\t\t\t_holderSTokens[holderContractAddress][j]\n\t\t\t\t) {\n\t\t\t\t\tbreak;\n\t\t\t\t}\n\t\t\t}\n\t\t\tif (j == _holderSTokens[holderContractAddress].length) {\n\t\t\t\t_holderSTokens[holderContractAddress].push(sTokenAddresses[i]);\n\t\t\t}\n\t\t}\n\n\t\t// emit event\n\t\temit SetWhitelistedAddress(\n\t\t\twhitelistedAddress,\n\t\t\t_whitelistedSTokenAddresses[holderContractAddress][\n\t\t\t\twhitelistedAddress\n\t\t\t],\n\t\t\tholderContractAddress,\n\t\t\tlpContractAddress,\n\t\t\tblock.timestamp\n\t\t);\n\n\t\tsuccess = true;\n\t\treturn success;\n\t}\n\n\t/*\n\t * @dev remove 'whitelisted address', performed by admin only\n\t * @param whitelistedAddress: contract address of the whitelisted party\n\t * @param holderContractAddress: holder contract address of the corresponding whitelistedAddress\n\t *\n\t * Emits a {RemoveWhitelistedAddress} event\n\t *\n\t */\n\tfunction removeWhitelistedAddress(address whitelistedAddress)\n\t\tpublic\n\t\tvirtual\n\t\toverride\n\t\treturns (bool success)\n\t{\n\t\trequire(hasRole(DEFAULT_ADMIN_ROLE, _msgSender()), \"LP40\");\n\t\trequire(whitelistedAddress != address(0), \"LP41\");\n\n\t\t// REMOVE WHITELISTING FROM _holderWhitelists AND _whitelistedSTokenAddresses AND _whitelistedAddressHolder AND _holderLPToken\n\t\t// get the holder address from _whitelistedAddressHolder\n\t\taddress holderAddressLocal = _whitelistedAddressHolder[\n\t\t\twhitelistedAddress\n\t\t];\n\n\t\t// emit event\n\t\temit RemoveWhitelistedAddress(\n\t\t\twhitelistedAddress,\n\t\t\t_whitelistedSTokenAddresses[holderAddressLocal][whitelistedAddress],\n\t\t\t_whitelistedAddressHolder[whitelistedAddress],\n\t\t\tblock.timestamp\n\t\t);\n\n\t\t// REMOVE FROM STOKEN CONTRACTS\n\t\t// for each SToken, call the remove whitelist function of that SToken\n\t\tuint256 j;\n\t\tfor (\n\t\t\tj = 0;\n\t\t\tj <\n\t\t\t_whitelistedSTokenAddresses[holderAddressLocal][whitelistedAddress]\n\t\t\t\t.length;\n\t\t\tj = j.add(1)\n\t\t) {\n\t\t\tISTokensV2(\n\t\t\t\t_whitelistedSTokenAddresses[holderAddressLocal][\n\t\t\t\t\twhitelistedAddress\n\t\t\t\t][j]\n\t\t\t).removeWhitelistedAddress(whitelistedAddress);\n\t\t}\n\n\t\t// REMOVE FROM _whitelistedAddressHolder and _whitelistedSTokenAddresses\n\t\tdelete _whitelistedAddressHolder[whitelistedAddress];\n\t\tdelete _whitelistedSTokenAddresses[holderAddressLocal][\n\t\t\twhitelistedAddress\n\t\t];\n\n\t\t// REMOVE FROM _holderWhitelists\n\t\t// check if the whitelisted address exists is the _holderWhitelists array\n\t\tbool whitelistedAddressExists;\n\t\tfor (\n\t\t\tj = 0;\n\t\t\tj < _holderWhitelists[holderAddressLocal].length;\n\t\t\tj = j.add(1)\n\t\t) {\n\t\t\tif (\n\t\t\t\t_holderWhitelists[holderAddressLocal][j] == whitelistedAddress\n\t\t\t) {\n\t\t\t\twhitelistedAddressExists = true;\n\t\t\t\tbreak;\n\t\t\t}\n\t\t}\n\t\t// if whitelisted contract exists in the_holderWhitelists array then\n\t\t// remove the whitelisted address from the array of _holderWhitelists\n\t\tif (whitelistedAddressExists) {\n\t\t\tif (j == _holderWhitelists[holderAddressLocal].length.sub(1)) {\n\t\t\t\t_holderWhitelists[holderAddressLocal].pop();\n\t\t\t} else {\n\t\t\t\t_holderWhitelists[holderAddressLocal][j] = _holderWhitelists[\n\t\t\t\t\tholderAddressLocal\n\t\t\t\t][_holderWhitelists[holderAddressLocal].length.sub(1)];\n\t\t\t\t_holderWhitelists[holderAddressLocal].pop();\n\t\t\t}\n\t\t\t// if all the whitelisted addresses have been removed, then delete the lpToken associated with the holder address\n\t\t\tif (_holderWhitelists[holderAddressLocal].length == 0) {\n\t\t\t\tdelete _holderLPToken[holderAddressLocal];\n\t\t\t\tdelete _holderSTokens[holderAddressLocal];\n\t\t\t}\n\t\t}\n\n\t\tsuccess = true;\n\t\treturn success;\n\t}\n\n\t/**\n\t * @dev Triggers stopped state.\n\t *\n\t * Requirements:\n\t *\n\t * - The contract must not be paused.\n\t */\n\tfunction pause() public virtual override returns (bool success) {\n\t\trequire(hasRole(PAUSER_ROLE, _msgSender()), \"ST14\");\n\t\t_pause();\n\t\treturn true;\n\t}\n\n\t/**\n\t * @dev Returns to normal state.\n\t *\n\t * Requirements:\n\t *\n\t * - The contract must be paused.\n\t */\n\tfunction unpause() public virtual override returns (bool success) {\n\t\trequire(hasRole(PAUSER_ROLE, _msgSender()), \"ST15\");\n\t\t_unpause();\n\t\treturn true;\n\t}\n}\n",
  "sourcePath": "C:\\Users\\Kamlesh\\Persistence\\pStake\\codebase\\pStake-smartContracts\\contracts\\WhitelistedEmission.sol",
  "compiler": {
    "name": "solc",
    "version": "0.7.6+commit.7338295f.Emscripten.clang"
  },
  "schemaVersion": "3.4.3",
  "updatedAt": "2021-09-23T16:36:47.653Z",
  "devdoc": {
    "kind": "dev",
    "methods": {
      "getHolderData(address)": {
        "details": "Calculate pending rewards for the provided 'address'. The rate is the moving reward rate.",
        "params": {
          "holderAddress": ": contract address"
        }
      },
      "getRoleAdmin(bytes32)": {
        "details": "Returns the admin role that controls `role`. See {grantRole} and {revokeRole}. To change a role's admin, use {_setRoleAdmin}."
      },
      "getRoleMember(bytes32,uint256)": {
        "details": "Returns one of the accounts that have `role`. `index` must be a value between 0 and {getRoleMemberCount}, non-inclusive. Role bearers are not sorted in any particular way, and their ordering may change at any point. WARNING: When using {getRoleMember} and {getRoleMemberCount}, make sure you perform all queries on the same block. See the following https://forum.openzeppelin.com/t/iterating-over-elements-on-enumerableset-in-openzeppelin-contracts/2296[forum post] for more information."
      },
      "getRoleMemberCount(bytes32)": {
        "details": "Returns the number of accounts that have `role`. Can be used together with {getRoleMember} to enumerate all bearers of a role."
      },
      "getWhitelistedSTokens(address)": {
        "details": "Calculate pending rewards for the provided 'address'. The rate is the moving reward rate.",
        "params": {
          "whitelistedAddress": ": contract address"
        }
      },
      "grantRole(bytes32,address)": {
        "details": "Grants `role` to `account`. If `account` had not been already granted `role`, emits a {RoleGranted} event. Requirements: - the caller must have ``role``'s admin role."
      },
      "hasRole(bytes32,address)": {
        "details": "Returns `true` if `account` has been granted `role`."
      },
      "initialize(address)": {
        "details": "Constructor for initializing the SToken contract.",
        "params": {
          "pauserAddress": "- address of the pauser admin."
        }
      },
      "pause()": {
        "details": "Triggers stopped state. Requirements: - The contract must not be paused."
      },
      "paused()": {
        "details": "Returns true if the contract is paused, and false otherwise."
      },
      "removeWhitelistedAddress(address)": {
        "details": "Calculate pending rewards for the provided 'address'. The rate is the moving reward rate."
      },
      "renounceRole(bytes32,address)": {
        "details": "Revokes `role` from the calling account. Roles are often managed via {grantRole} and {revokeRole}: this function's purpose is to provide a mechanism for accounts to lose their privileges if they are compromised (such as when a trusted device is misplaced). If the calling account had been granted `role`, emits a {RoleRevoked} event. Requirements: - the caller must be `account`."
      },
      "revokeRole(bytes32,address)": {
        "details": "Revokes `role` from `account`. If `account` had been granted `role`, emits a {RoleRevoked} event. Requirements: - the caller must have ``role``'s admin role."
      },
      "setWhitelistedAddress(address,address[],address,address)": {
        "details": "Calculate pending rewards for the provided 'address'. The rate is the moving reward rate."
      },
      "unpause()": {
        "details": "Returns to normal state. Requirements: - The contract must be paused."
      }
    },
    "version": 1
  },
  "userdoc": {
    "kind": "user",
    "methods": {},
    "version": 1
  }
}