{
  "contractName": "HolderUniswap",
  "abi": [
    {
      "anonymous": false,
      "inputs": [
        {
          "indexed": true,
          "internalType": "bytes32",
          "name": "role",
          "type": "bytes32"
        },
        {
          "indexed": true,
          "internalType": "bytes32",
          "name": "previousAdminRole",
          "type": "bytes32"
        },
        {
          "indexed": true,
          "internalType": "bytes32",
          "name": "newAdminRole",
          "type": "bytes32"
        }
      ],
      "name": "RoleAdminChanged",
      "type": "event"
    },
    {
      "anonymous": false,
      "inputs": [
        {
          "indexed": true,
          "internalType": "bytes32",
          "name": "role",
          "type": "bytes32"
        },
        {
          "indexed": true,
          "internalType": "address",
          "name": "account",
          "type": "address"
        },
        {
          "indexed": true,
          "internalType": "address",
          "name": "sender",
          "type": "address"
        }
      ],
      "name": "RoleGranted",
      "type": "event"
    },
    {
      "anonymous": false,
      "inputs": [
        {
          "indexed": true,
          "internalType": "bytes32",
          "name": "role",
          "type": "bytes32"
        },
        {
          "indexed": true,
          "internalType": "address",
          "name": "account",
          "type": "address"
        },
        {
          "indexed": true,
          "internalType": "address",
          "name": "sender",
          "type": "address"
        }
      ],
      "name": "RoleRevoked",
      "type": "event"
    },
    {
      "anonymous": false,
      "inputs": [
        {
          "indexed": true,
          "internalType": "address",
          "name": "_contract",
          "type": "address"
        }
      ],
      "name": "SetSTokensContract",
      "type": "event"
    },
    {
      "anonymous": false,
      "inputs": [
        {
          "indexed": true,
          "internalType": "address",
          "name": "_contract",
          "type": "address"
        }
      ],
      "name": "SetStakeLPContract",
      "type": "event"
    },
    {
      "inputs": [],
      "name": "DEFAULT_ADMIN_ROLE",
      "outputs": [
        {
          "internalType": "bytes32",
          "name": "",
          "type": "bytes32"
        }
      ],
      "stateMutability": "view",
      "type": "function"
    },
    {
      "inputs": [
        {
          "internalType": "bytes32",
          "name": "role",
          "type": "bytes32"
        }
      ],
      "name": "getRoleAdmin",
      "outputs": [
        {
          "internalType": "bytes32",
          "name": "",
          "type": "bytes32"
        }
      ],
      "stateMutability": "view",
      "type": "function"
    },
    {
      "inputs": [
        {
          "internalType": "bytes32",
          "name": "role",
          "type": "bytes32"
        },
        {
          "internalType": "uint256",
          "name": "index",
          "type": "uint256"
        }
      ],
      "name": "getRoleMember",
      "outputs": [
        {
          "internalType": "address",
          "name": "",
          "type": "address"
        }
      ],
      "stateMutability": "view",
      "type": "function"
    },
    {
      "inputs": [
        {
          "internalType": "bytes32",
          "name": "role",
          "type": "bytes32"
        }
      ],
      "name": "getRoleMemberCount",
      "outputs": [
        {
          "internalType": "uint256",
          "name": "",
          "type": "uint256"
        }
      ],
      "stateMutability": "view",
      "type": "function"
    },
    {
      "inputs": [
        {
          "internalType": "bytes32",
          "name": "role",
          "type": "bytes32"
        },
        {
          "internalType": "address",
          "name": "account",
          "type": "address"
        }
      ],
      "name": "grantRole",
      "outputs": [],
      "stateMutability": "nonpayable",
      "type": "function"
    },
    {
      "inputs": [
        {
          "internalType": "bytes32",
          "name": "role",
          "type": "bytes32"
        },
        {
          "internalType": "address",
          "name": "account",
          "type": "address"
        }
      ],
      "name": "hasRole",
      "outputs": [
        {
          "internalType": "bool",
          "name": "",
          "type": "bool"
        }
      ],
      "stateMutability": "view",
      "type": "function"
    },
    {
      "inputs": [
        {
          "internalType": "bytes32",
          "name": "role",
          "type": "bytes32"
        },
        {
          "internalType": "address",
          "name": "account",
          "type": "address"
        }
      ],
      "name": "renounceRole",
      "outputs": [],
      "stateMutability": "nonpayable",
      "type": "function"
    },
    {
      "inputs": [
        {
          "internalType": "bytes32",
          "name": "role",
          "type": "bytes32"
        },
        {
          "internalType": "address",
          "name": "account",
          "type": "address"
        }
      ],
      "name": "revokeRole",
      "outputs": [],
      "stateMutability": "nonpayable",
      "type": "function"
    },
    {
      "inputs": [
        {
          "internalType": "address",
          "name": "sTokenContract",
          "type": "address"
        },
        {
          "internalType": "address",
          "name": "stakeLPContract",
          "type": "address"
        },
        {
          "internalType": "uint256",
          "name": "valueDivisor",
          "type": "uint256"
        }
      ],
      "name": "initialize",
      "outputs": [],
      "stateMutability": "nonpayable",
      "type": "function"
    },
    {
      "inputs": [
        {
          "internalType": "address",
          "name": "to",
          "type": "address"
        },
        {
          "internalType": "address",
          "name": "from",
          "type": "address"
        },
        {
          "internalType": "uint256",
          "name": "amount",
          "type": "uint256"
        }
      ],
      "name": "getSTokenSupply",
      "outputs": [
        {
          "internalType": "uint256",
          "name": "sTokenSupply",
          "type": "uint256"
        }
      ],
      "stateMutability": "view",
      "type": "function"
    },
    {
      "inputs": [
        {
          "internalType": "address",
          "name": "sAddress",
          "type": "address"
        }
      ],
      "name": "setSTokensContract",
      "outputs": [],
      "stateMutability": "nonpayable",
      "type": "function"
    },
    {
      "inputs": [
        {
          "internalType": "address",
          "name": "stakeLPContract",
          "type": "address"
        }
      ],
      "name": "setStakeLPContract",
      "outputs": [],
      "stateMutability": "nonpayable",
      "type": "function"
    },
    {
      "inputs": [
        {
          "internalType": "address",
          "name": "token",
          "type": "address"
        },
        {
          "internalType": "address",
          "name": "to",
          "type": "address"
        },
        {
          "internalType": "uint256",
          "name": "value",
          "type": "uint256"
        }
      ],
      "name": "safeTransfer",
      "outputs": [],
      "stateMutability": "nonpayable",
      "type": "function"
    }
  ],
  "bytecode": "0x608060405234801561001057600080fd5b50610e4e806100206000396000f3fe608060405234801561001057600080fd5b50600436106100cf5760003560e01c806391d148541161008c578063cf3d5d0d11610066578063cf3d5d0d1461025d578063cfd0ec3114610283578063d1660f99146102b9578063d547741f146102ef576100cf565b806391d14854146101f8578063a217fddf14610238578063ca15c87314610240576100cf565b80631794bb3c146100d4578063248a9ca31461010c5780632e31fab81461013b5780632f2ff15d1461016157806336568abe1461018d5780639010d07c146101b9575b600080fd5b61010a600480360360608110156100ea57600080fd5b506001600160a01b0381358116916020810135909116906040013561031b565b005b6101296004803603602081101561012257600080fd5b503561040f565b60408051918252519081900360200190f35b61010a6004803603602081101561015157600080fd5b50356001600160a01b0316610424565b61010a6004803603604081101561017757600080fd5b50803590602001356001600160a01b03166104b7565b61010a600480360360408110156101a357600080fd5b50803590602001356001600160a01b031661051e565b6101dc600480360360408110156101cf57600080fd5b508035906020013561057f565b604080516001600160a01b039092168252519081900360200190f35b6102246004803603604081101561020e57600080fd5b50803590602001356001600160a01b03166105a0565b604080519115158252519081900360200190f35b6101296105b8565b6101296004803603602081101561025657600080fd5b50356105bd565b61010a6004803603602081101561027357600080fd5b50356001600160a01b03166105d4565b6101296004803603606081101561029957600080fd5b506001600160a01b03813581169160208101359091169060400135610662565b61010a600480360360608110156102cf57600080fd5b506001600160a01b038135811691602081013590911690604001356106e7565b61010a6004803603604081101561030557600080fd5b50803590602001356001600160a01b031661088f565b600054610100900460ff168061033457506103346108e8565b80610342575060005460ff16155b61037d5760405162461bcd60e51b815260040180806020018281038252602e815260200180610d8f602e913960400191505060405180910390fd5b600054610100900460ff161580156103a8576000805460ff1961ff0019909116610100171660011790555b6103b06108f9565b6103c260006103bd6109ab565b610510565b606680546001600160a01b038087166001600160a01b031992831617909255606580549286169290911691909117905560678290558015610409576000805461ff00191690555b50505050565b60009081526033602052604090206002015490565b61043660006104316109ab565b6105a0565b61046d576040805162461bcd60e51b815260206004820152600360248201526248553160e81b604482015290519081900360640190fd5b606880546001600160a01b0319166001600160a01b0383169081179091556040517fd0b9dbe26f676f4cdb02fc249c203baa0314cec79e18b4194dc862795a5de03f90600090a250565b6000828152603360205260409020600201546104d5906104316109ab565b6105105760405162461bcd60e51b815260040180806020018281038252602f815260200180610d30602f913960400191505060405180910390fd5b61051a82826109af565b5050565b6105266109ab565b6001600160a01b0316816001600160a01b0316146105755760405162461bcd60e51b815260040180806020018281038252602f815260200180610dea602f913960400191505060405180910390fd5b61051a8282610a18565b60008281526033602052604081206105979083610a81565b90505b92915050565b60008281526033602052604081206105979083610a8d565b600081565b600081815260336020526040812061059a90610aa2565b6105e160006104316109ab565b610618576040805162461bcd60e51b8152602060048201526003602482015262242a9960e91b604482015290519081900360640190fd5b606580546001600160a01b0319166001600160a01b0383169081179091556040517fb2daebf9d5b97a85402c93016ccc68273e707a32f016448d8a1bb7d066d1281590600090a250565b606654604080516370a0823160e01b81526001600160a01b038681166004830152915160009392909216916370a0823191602480820192602092909190829003018186803b1580156106b357600080fd5b505afa1580156106c7573d6000803e3d6000fd5b505050506040513d60208110156106dd57600080fd5b5051949350505050565b6065546001600160a01b03166106fb6109ab565b6001600160a01b03161461073c576040805162461bcd60e51b815260206004820152600360248201526248553360e81b604482015290519081900360640190fd5b604080516001600160a01b038481166024830152604480830185905283518084039091018152606490920183526020820180516001600160e01b031663a9059cbb60e01b1781529251825160009485949389169392918291908083835b602083106107b85780518252601f199092019160209182019101610799565b6001836020036101000a0380198251168184511680821785525050505050509050019150506000604051808303816000865af19150503d806000811461081a576040519150601f19603f3d011682016040523d82523d6000602084013e61081f565b606091505b509150915081801561084d57508051158061084d575080806020019051602081101561084a57600080fd5b50515b6108885760405162461bcd60e51b815260040180806020018281038252602d815260200180610dbd602d913960400191505060405180910390fd5b5050505050565b6000828152603360205260409020600201546108ad906104316109ab565b6105755760405162461bcd60e51b8152600401808060200182810382526030815260200180610d5f6030913960400191505060405180910390fd5b60006108f330610aad565b15905090565b600054610100900460ff168061091257506109126108e8565b80610920575060005460ff16155b61095b5760405162461bcd60e51b815260040180806020018281038252602e815260200180610d8f602e913960400191505060405180910390fd5b600054610100900460ff16158015610986576000805460ff1961ff0019909116610100171660011790555b61098e610ab3565b610996610ab3565b80156109a8576000805461ff00191690555b50565b3390565b60008281526033602052604090206109c79082610b53565b1561051a576109d46109ab565b6001600160a01b0316816001600160a01b0316837f2f8788117e7eff1d82e926ec794901d17c78024a50270940304540a733656f0d60405160405180910390a45050565b6000828152603360205260409020610a309082610b68565b1561051a57610a3d6109ab565b6001600160a01b0316816001600160a01b0316837ff6391f5c32d9c69d2a47ea670b442974b53935d1edc7fd64eb21e047a839171b60405160405180910390a45050565b60006105978383610b7d565b6000610597836001600160a01b038416610be1565b600061059a82610bf9565b3b151590565b600054610100900460ff1680610acc5750610acc6108e8565b80610ada575060005460ff16155b610b155760405162461bcd60e51b815260040180806020018281038252602e815260200180610d8f602e913960400191505060405180910390fd5b600054610100900460ff16158015610996576000805460ff1961ff00199091166101001716600117905580156109a8576000805461ff001916905550565b6000610597836001600160a01b038416610bfd565b6000610597836001600160a01b038416610c47565b81546000908210610bbf5760405162461bcd60e51b8152600401808060200182810382526022815260200180610d0e6022913960400191505060405180910390fd5b826000018281548110610bce57fe5b9060005260206000200154905092915050565b60009081526001919091016020526040902054151590565b5490565b6000610c098383610be1565b610c3f5750815460018181018455600084815260208082209093018490558454848252828601909352604090209190915561059a565b50600061059a565b60008181526001830160205260408120548015610d035783546000198083019190810190600090879083908110610c7a57fe5b9060005260206000200154905080876000018481548110610c9757fe5b600091825260208083209091019290925582815260018981019092526040902090840190558654879080610cc757fe5b6001900381819060005260206000200160009055905586600101600087815260200190815260200160002060009055600194505050505061059a565b600091505061059a56fe456e756d657261626c655365743a20696e646578206f7574206f6620626f756e6473416363657373436f6e74726f6c3a2073656e646572206d75737420626520616e2061646d696e20746f206772616e74416363657373436f6e74726f6c3a2073656e646572206d75737420626520616e2061646d696e20746f207265766f6b65496e697469616c697a61626c653a20636f6e747261637420697320616c726561647920696e697469616c697a65645472616e7366657248656c7065723a3a736166655472616e736665723a207472616e73666572206661696c6564416363657373436f6e74726f6c3a2063616e206f6e6c792072656e6f756e636520726f6c657320666f722073656c66a264697066735822122037cea8c909a7ceca4c0bcdf4e6e5d05f5a3af78b5ffd6384af6b41a32636e74564736f6c63430007060033",
  "immutableReferences": {},
  "source": "// SPDX-License-Identifier: UNLICENSED\npragma solidity >=0.7.0;\n\nimport \"../interfaces/IHolder.sol\";\nimport \"../interfaces/ISTokens.sol\";\nimport \"@openzeppelin/contracts-upgradeable/access/AccessControlUpgradeable.sol\";\nimport \"@openzeppelin/contracts-upgradeable/proxy/Initializable.sol\";\n\ncontract HolderUniswap is IHolder, Initializable, AccessControlUpgradeable {\n\t// variables capturing data of other contracts in the product\n\taddress private _stakeLPContract;\n\tISTokens private _sTokenContract;\n\n\t// value divisor to make weight factor a fraction if need be\n\tuint256 private _valueDivisor;\n\n\t//Private instances of contracts to handle Utokens and Stokens\n\tISTokens private _sTokens;\n\n\t/**\n\t * @dev Constructor for initializing the Holder Uniswap contract.\n\t * @param sTokenContract - address of the SToken contract.\n\t * @param stakeLPContract - address of the StakeLPCore contract.\n\t * @param valueDivisor - valueDivisor set to 10^9.\n\t */\n\tfunction initialize(\n\t\taddress sTokenContract,\n\t\taddress stakeLPContract,\n\t\tuint256 valueDivisor\n\t) public virtual initializer {\n\t\t__AccessControl_init();\n\t\t_setupRole(DEFAULT_ADMIN_ROLE, _msgSender());\n\t\t_sTokenContract = ISTokens(sTokenContract);\n\t\t_stakeLPContract = stakeLPContract;\n\t\t_valueDivisor = valueDivisor;\n\t}\n\n\t/**\n\t * @dev get SToken reserve supply of the whitelisted contract\n\t *\n\t */\n\tfunction getSTokenSupply(\n\t\taddress to,\n\t\taddress from,\n\t\tuint256 amount\n\t) public view override returns (uint256 sTokenSupply) {\n\t\tsTokenSupply = _sTokenContract.balanceOf(to);\n\t\treturn sTokenSupply;\n\t}\n\n\t/**\n\t * @dev Set 'contract address', called from constructor\n\t * @param sAddress: stoken contract address\n\t *\n\t * Emits a {SetSTokensContract} event with '_contract' set to the stoken contract address.\n\t *\n\t */\n\tfunction setSTokensContract(address sAddress) public virtual override {\n\t\trequire(hasRole(DEFAULT_ADMIN_ROLE, _msgSender()), \"HU1\");\n\t\t_sTokens = ISTokens(sAddress);\n\t\temit SetSTokensContract(sAddress);\n\t}\n\n\t/*\n\t * @dev Set 'contract address', called from constructor\n\t * @param liquidStakingContract: liquidStaking contract address\n\t *\n\t * Emits a {SetLiquidStakingContract} event with '_contract' set to the liquidStaking contract address.\n\t *\n\t */\n\tfunction setStakeLPContract(address stakeLPContract)\n\t\tpublic\n\t\tvirtual\n\t\toverride\n\t{\n\t\trequire(hasRole(DEFAULT_ADMIN_ROLE, _msgSender()), \"HU2\");\n\t\t_stakeLPContract = stakeLPContract;\n\t\temit SetStakeLPContract(stakeLPContract);\n\t}\n\n\tfunction safeTransfer(\n\t\taddress token,\n\t\taddress to,\n\t\tuint256 value\n\t) public virtual override {\n\t\trequire(_msgSender() == _stakeLPContract, \"HU3\");\n\t\t// bytes4(keccak256(bytes('transfer(address,uint256)')));\n\t\t(bool success, bytes memory data) = token.call(\n\t\t\tabi.encodeWithSelector(0xa9059cbb, to, value)\n\t\t);\n\t\trequire(\n\t\t\tsuccess && (data.length == 0 || abi.decode(data, (bool))),\n\t\t\t\"TransferHelper::safeTransfer: transfer failed\"\n\t\t);\n\t}\n}\n",
  "sourcePath": "C:\\Users\\Kamlesh\\Persistence\\pStake\\codebase\\pStake-smartContracts\\contracts\\holder\\HolderUniswap.sol",
  "compiler": {
    "name": "solc",
    "version": "0.7.6+commit.7338295f.Emscripten.clang"
  },
  "schemaVersion": "3.4.3",
  "updatedAt": "2021-09-09T08:48:11.177Z",
  "devdoc": {
    "kind": "dev",
    "methods": {
      "getRoleAdmin(bytes32)": {
        "details": "Returns the admin role that controls `role`. See {grantRole} and {revokeRole}. To change a role's admin, use {_setRoleAdmin}."
      },
      "getRoleMember(bytes32,uint256)": {
        "details": "Returns one of the accounts that have `role`. `index` must be a value between 0 and {getRoleMemberCount}, non-inclusive. Role bearers are not sorted in any particular way, and their ordering may change at any point. WARNING: When using {getRoleMember} and {getRoleMemberCount}, make sure you perform all queries on the same block. See the following https://forum.openzeppelin.com/t/iterating-over-elements-on-enumerableset-in-openzeppelin-contracts/2296[forum post] for more information."
      },
      "getRoleMemberCount(bytes32)": {
        "details": "Returns the number of accounts that have `role`. Can be used together with {getRoleMember} to enumerate all bearers of a role."
      },
      "getSTokenSupply(address,address,uint256)": {
        "details": "get SToken reserve supply of the whitelisted contract"
      },
      "grantRole(bytes32,address)": {
        "details": "Grants `role` to `account`. If `account` had not been already granted `role`, emits a {RoleGranted} event. Requirements: - the caller must have ``role``'s admin role."
      },
      "hasRole(bytes32,address)": {
        "details": "Returns `true` if `account` has been granted `role`."
      },
      "initialize(address,address,uint256)": {
        "details": "Constructor for initializing the Holder Uniswap contract.",
        "params": {
          "sTokenContract": "- address of the SToken contract.",
          "stakeLPContract": "- address of the StakeLPCore contract.",
          "valueDivisor": "- valueDivisor set to 10^9."
        }
      },
      "renounceRole(bytes32,address)": {
        "details": "Revokes `role` from the calling account. Roles are often managed via {grantRole} and {revokeRole}: this function's purpose is to provide a mechanism for accounts to lose their privileges if they are compromised (such as when a trusted device is misplaced). If the calling account had been granted `role`, emits a {RoleRevoked} event. Requirements: - the caller must be `account`."
      },
      "revokeRole(bytes32,address)": {
        "details": "Revokes `role` from `account`. If `account` had been granted `role`, emits a {RoleRevoked} event. Requirements: - the caller must have ``role``'s admin role."
      },
      "setSTokensContract(address)": {
        "details": "Set 'contract address', called from constructor",
        "params": {
          "sAddress": ": stoken contract address Emits a {SetSTokensContract} event with '_contract' set to the stoken contract address."
        }
      },
      "setStakeLPContract(address)": {
        "details": "Set UTokens smart contract. Emits a {SetSTokensContract} event."
      }
    },
    "version": 1
  },
  "userdoc": {
    "kind": "user",
    "methods": {},
    "version": 1
  }
}