{
  "contractName": "HolderUniswap",
  "abi": [
    {
      "anonymous": false,
      "inputs": [
        {
          "indexed": true,
          "internalType": "bytes32",
          "name": "role",
          "type": "bytes32"
        },
        {
          "indexed": true,
          "internalType": "bytes32",
          "name": "previousAdminRole",
          "type": "bytes32"
        },
        {
          "indexed": true,
          "internalType": "bytes32",
          "name": "newAdminRole",
          "type": "bytes32"
        }
      ],
      "name": "RoleAdminChanged",
      "type": "event"
    },
    {
      "anonymous": false,
      "inputs": [
        {
          "indexed": true,
          "internalType": "bytes32",
          "name": "role",
          "type": "bytes32"
        },
        {
          "indexed": true,
          "internalType": "address",
          "name": "account",
          "type": "address"
        },
        {
          "indexed": true,
          "internalType": "address",
          "name": "sender",
          "type": "address"
        }
      ],
      "name": "RoleGranted",
      "type": "event"
    },
    {
      "anonymous": false,
      "inputs": [
        {
          "indexed": true,
          "internalType": "bytes32",
          "name": "role",
          "type": "bytes32"
        },
        {
          "indexed": true,
          "internalType": "address",
          "name": "account",
          "type": "address"
        },
        {
          "indexed": true,
          "internalType": "address",
          "name": "sender",
          "type": "address"
        }
      ],
      "name": "RoleRevoked",
      "type": "event"
    },
    {
      "anonymous": false,
      "inputs": [
        {
          "indexed": true,
          "internalType": "address",
          "name": "_contract",
          "type": "address"
        }
      ],
      "name": "SetSTokensContract",
      "type": "event"
    },
    {
      "inputs": [],
      "name": "DEFAULT_ADMIN_ROLE",
      "outputs": [
        {
          "internalType": "bytes32",
          "name": "",
          "type": "bytes32"
        }
      ],
      "stateMutability": "view",
      "type": "function"
    },
    {
      "inputs": [
        {
          "internalType": "bytes32",
          "name": "role",
          "type": "bytes32"
        }
      ],
      "name": "getRoleAdmin",
      "outputs": [
        {
          "internalType": "bytes32",
          "name": "",
          "type": "bytes32"
        }
      ],
      "stateMutability": "view",
      "type": "function"
    },
    {
      "inputs": [
        {
          "internalType": "bytes32",
          "name": "role",
          "type": "bytes32"
        },
        {
          "internalType": "uint256",
          "name": "index",
          "type": "uint256"
        }
      ],
      "name": "getRoleMember",
      "outputs": [
        {
          "internalType": "address",
          "name": "",
          "type": "address"
        }
      ],
      "stateMutability": "view",
      "type": "function"
    },
    {
      "inputs": [
        {
          "internalType": "bytes32",
          "name": "role",
          "type": "bytes32"
        }
      ],
      "name": "getRoleMemberCount",
      "outputs": [
        {
          "internalType": "uint256",
          "name": "",
          "type": "uint256"
        }
      ],
      "stateMutability": "view",
      "type": "function"
    },
    {
      "inputs": [
        {
          "internalType": "bytes32",
          "name": "role",
          "type": "bytes32"
        },
        {
          "internalType": "address",
          "name": "account",
          "type": "address"
        }
      ],
      "name": "grantRole",
      "outputs": [],
      "stateMutability": "nonpayable",
      "type": "function"
    },
    {
      "inputs": [
        {
          "internalType": "bytes32",
          "name": "role",
          "type": "bytes32"
        },
        {
          "internalType": "address",
          "name": "account",
          "type": "address"
        }
      ],
      "name": "hasRole",
      "outputs": [
        {
          "internalType": "bool",
          "name": "",
          "type": "bool"
        }
      ],
      "stateMutability": "view",
      "type": "function"
    },
    {
      "inputs": [
        {
          "internalType": "bytes32",
          "name": "role",
          "type": "bytes32"
        },
        {
          "internalType": "address",
          "name": "account",
          "type": "address"
        }
      ],
      "name": "renounceRole",
      "outputs": [],
      "stateMutability": "nonpayable",
      "type": "function"
    },
    {
      "inputs": [
        {
          "internalType": "bytes32",
          "name": "role",
          "type": "bytes32"
        },
        {
          "internalType": "address",
          "name": "account",
          "type": "address"
        }
      ],
      "name": "revokeRole",
      "outputs": [],
      "stateMutability": "nonpayable",
      "type": "function"
    },
    {
      "inputs": [
        {
          "internalType": "address",
          "name": "_sTokenContractAddress",
          "type": "address"
        },
        {
          "internalType": "uint256",
          "name": "valueDivisor",
          "type": "uint256"
        }
      ],
      "name": "initialize",
      "outputs": [],
      "stateMutability": "nonpayable",
      "type": "function"
    },
    {
      "inputs": [
        {
          "internalType": "address",
          "name": "to",
          "type": "address"
        },
        {
          "internalType": "address",
          "name": "from",
          "type": "address"
        },
        {
          "internalType": "uint256",
          "name": "amount",
          "type": "uint256"
        }
      ],
      "name": "getSTokenSupply",
      "outputs": [
        {
          "internalType": "uint256",
          "name": "sTokenSupply",
          "type": "uint256"
        }
      ],
      "stateMutability": "view",
      "type": "function"
    },
    {
      "inputs": [
        {
          "internalType": "address",
          "name": "sAddress",
          "type": "address"
        }
      ],
      "name": "setSTokensContract",
      "outputs": [],
      "stateMutability": "nonpayable",
      "type": "function"
    },
    {
      "inputs": [
        {
          "internalType": "address",
          "name": "token",
          "type": "address"
        },
        {
          "internalType": "address",
          "name": "to",
          "type": "address"
        },
        {
          "internalType": "uint256",
          "name": "value",
          "type": "uint256"
        }
      ],
      "name": "safeTransfer",
      "outputs": [],
      "stateMutability": "nonpayable",
      "type": "function"
    }
  ],
  "bytecode": "0x608060405234801561001057600080fd5b50610d0d806100206000396000f3fe608060405234801561001057600080fd5b50600436106100b45760003560e01c8063a217fddf11610071578063a217fddf146101e7578063ca15c873146101ef578063cd6dc6871461020c578063cfd0ec3114610238578063d1660f991461026e578063d547741f146102a4576100b4565b8063248a9ca3146100b95780632e31fab8146100e85780632f2ff15d1461011057806336568abe1461013c5780639010d07c1461016857806391d14854146101a7575b600080fd5b6100d6600480360360208110156100cf57600080fd5b50356102d0565b60408051918252519081900360200190f35b61010e600480360360208110156100fe57600080fd5b50356001600160a01b03166102e5565b005b61010e6004803603604081101561012657600080fd5b50803590602001356001600160a01b031661037b565b61010e6004803603604081101561015257600080fd5b50803590602001356001600160a01b03166103e2565b61018b6004803603604081101561017e57600080fd5b5080359060200135610443565b604080516001600160a01b039092168252519081900360200190f35b6101d3600480360360408110156101bd57600080fd5b50803590602001356001600160a01b0316610464565b604080519115158252519081900360200190f35b6100d661047c565b6100d66004803603602081101561020557600080fd5b5035610481565b61010e6004803603604081101561022257600080fd5b506001600160a01b038135169060200135610498565b6100d66004803603606081101561024e57600080fd5b506001600160a01b03813581169160208101359091169060400135610576565b61010e6004803603606081101561028457600080fd5b506001600160a01b038135811691602081013590911690604001356105fb565b61010e600480360360408110156102ba57600080fd5b50803590602001356001600160a01b031661074e565b60009081526033602052604090206002015490565b6102f760006102f26107a7565b610464565b610331576040805162461bcd60e51b8152602060048083019190915260248201526304c5031360e41b604482015290519081900360640190fd5b606780546001600160a01b0319166001600160a01b0383169081179091556040517fd0b9dbe26f676f4cdb02fc249c203baa0314cec79e18b4194dc862795a5de03f90600090a250565b600082815260336020526040902060020154610399906102f26107a7565b6103d45760405162461bcd60e51b815260040180806020018281038252602f815260200180610bef602f913960400191505060405180910390fd5b6103de82826107ab565b5050565b6103ea6107a7565b6001600160a01b0316816001600160a01b0316146104395760405162461bcd60e51b815260040180806020018281038252602f815260200180610ca9602f913960400191505060405180910390fd5b6103de8282610814565b600082815260336020526040812061045b908361087d565b90505b92915050565b600082815260336020526040812061045b9083610889565b600081565b600081815260336020526040812061045e9061089e565b600054610100900460ff16806104b157506104b16108a9565b806104bf575060005460ff16155b6104fa5760405162461bcd60e51b815260040180806020018281038252602e815260200180610c4e602e913960400191505060405180910390fd5b600054610100900460ff16158015610525576000805460ff1961ff0019909116610100171660011790555b61052d6108ba565b61053f600061053a6107a7565b6103d4565b606580546001600160a01b0319166001600160a01b03851617905560668290558015610571576000805461ff00191690555b505050565b606554604080516370a0823160e01b81526001600160a01b038681166004830152915160009392909216916370a0823191602480820192602092909190829003018186803b1580156105c757600080fd5b505afa1580156105db573d6000803e3d6000fd5b505050506040513d60208110156105f157600080fd5b5051949350505050565b604080516001600160a01b038481166024830152604480830185905283518084039091018152606490920183526020820180516001600160e01b031663a9059cbb60e01b1781529251825160009485949389169392918291908083835b602083106106775780518252601f199092019160209182019101610658565b6001836020036101000a0380198251168184511680821785525050505050509050019150506000604051808303816000865af19150503d80600081146106d9576040519150601f19603f3d011682016040523d82523d6000602084013e6106de565b606091505b509150915081801561070c57508051158061070c575080806020019051602081101561070957600080fd5b50515b6107475760405162461bcd60e51b815260040180806020018281038252602d815260200180610c7c602d913960400191505060405180910390fd5b5050505050565b60008281526033602052604090206002015461076c906102f26107a7565b6104395760405162461bcd60e51b8152600401808060200182810382526030815260200180610c1e6030913960400191505060405180910390fd5b3390565b60008281526033602052604090206107c3908261096c565b156103de576107d06107a7565b6001600160a01b0316816001600160a01b0316837f2f8788117e7eff1d82e926ec794901d17c78024a50270940304540a733656f0d60405160405180910390a45050565b600082815260336020526040902061082c9082610981565b156103de576108396107a7565b6001600160a01b0316816001600160a01b0316837ff6391f5c32d9c69d2a47ea670b442974b53935d1edc7fd64eb21e047a839171b60405160405180910390a45050565b600061045b8383610996565b600061045b836001600160a01b0384166109fa565b600061045e82610a12565b60006108b430610a16565b15905090565b600054610100900460ff16806108d357506108d36108a9565b806108e1575060005460ff16155b61091c5760405162461bcd60e51b815260040180806020018281038252602e815260200180610c4e602e913960400191505060405180910390fd5b600054610100900460ff16158015610947576000805460ff1961ff0019909116610100171660011790555b61094f610a1c565b610957610a1c565b8015610969576000805461ff00191690555b50565b600061045b836001600160a01b038416610abc565b600061045b836001600160a01b038416610b06565b815460009082106109d85760405162461bcd60e51b8152600401808060200182810382526022815260200180610bcd6022913960400191505060405180910390fd5b8260000182815481106109e757fe5b9060005260206000200154905092915050565b60009081526001919091016020526040902054151590565b5490565b3b151590565b600054610100900460ff1680610a355750610a356108a9565b80610a43575060005460ff16155b610a7e5760405162461bcd60e51b815260040180806020018281038252602e815260200180610c4e602e913960400191505060405180910390fd5b600054610100900460ff16158015610957576000805460ff1961ff0019909116610100171660011790558015610969576000805461ff001916905550565b6000610ac883836109fa565b610afe5750815460018181018455600084815260208082209093018490558454848252828601909352604090209190915561045e565b50600061045e565b60008181526001830160205260408120548015610bc25783546000198083019190810190600090879083908110610b3957fe5b9060005260206000200154905080876000018481548110610b5657fe5b600091825260208083209091019290925582815260018981019092526040902090840190558654879080610b8657fe5b6001900381819060005260206000200160009055905586600101600087815260200190815260200160002060009055600194505050505061045e565b600091505061045e56fe456e756d657261626c655365743a20696e646578206f7574206f6620626f756e6473416363657373436f6e74726f6c3a2073656e646572206d75737420626520616e2061646d696e20746f206772616e74416363657373436f6e74726f6c3a2073656e646572206d75737420626520616e2061646d696e20746f207265766f6b65496e697469616c697a61626c653a20636f6e747261637420697320616c726561647920696e697469616c697a65645472616e7366657248656c7065723a3a736166655472616e736665723a207472616e73666572206661696c6564416363657373436f6e74726f6c3a2063616e206f6e6c792072656e6f756e636520726f6c657320666f722073656c66a26469706673582212204eb06a458bbd2196e29788f020361c052eb07940be4075dc0e26c870aec5303364736f6c63430007060033",
  "immutableReferences": {},
  "source": "// SPDX-License-Identifier: UNLICENSED\npragma solidity >= 0.7.0;\n\nimport \"../interfaces/IHolder.sol\";\nimport \"../interfaces/ISTokens.sol\";\nimport \"@openzeppelin/contracts-upgradeable/access/AccessControlUpgradeable.sol\";\nimport \"@openzeppelin/contracts-upgradeable/proxy/Initializable.sol\";\n\ncontract HolderUniswap is IHolder, Initializable, AccessControlUpgradeable{\n\n    ISTokens private sTokenContract;\n\n    // value divisor to make weight factor a fraction if need be\n    uint256 private _valueDivisor;\n\n    //Private instances of contracts to handle Utokens and Stokens\n    ISTokens private _sTokens;\n\n    /**\n   * @dev Constructor for initializing the Holder Uniswap contract.\n   * @param _sTokenContractAddress - address of the SToken contract.\n   * @param valueDivisor - valueDivisor set to 10^9.\n   */\n    function initialize(address _sTokenContractAddress, uint256 valueDivisor) public virtual initializer {\n        __AccessControl_init();\n        _setupRole(DEFAULT_ADMIN_ROLE, _msgSender());\n        sTokenContract = ISTokens(_sTokenContractAddress);\n        _valueDivisor = valueDivisor;\n    }\n\n    /**\n     * @dev get SToken reserve supply of the whitelisted contract \n     *\n     */\n    function getSTokenSupply(address to, address from, uint256 amount) public override view returns (uint256 sTokenSupply){\n        sTokenSupply = sTokenContract.balanceOf(to);\n        return sTokenSupply;\n    }\n\n    /**\n     * @dev Set 'contract address', called from constructor\n     * @param sAddress: stoken contract address\n     *\n     * Emits a {SetSTokensContract} event with '_contract' set to the stoken contract address.\n     *\n     */\n    function setSTokensContract(address sAddress) public virtual override {\n        require(hasRole(DEFAULT_ADMIN_ROLE, _msgSender()), \"LP10\");\n        _sTokens = ISTokens(sAddress);\n        emit SetSTokensContract(sAddress);\n    }\n\n\n    function safeTransfer(\n        address token,\n        address to,\n        uint256 value\n    ) public virtual override {\n        // bytes4(keccak256(bytes('transfer(address,uint256)')));\n        (bool success, bytes memory data) = token.call(abi.encodeWithSelector(0xa9059cbb, to, value));\n        require(\n            success && (data.length == 0 || abi.decode(data, (bool))),\n            'TransferHelper::safeTransfer: transfer failed'\n        );\n    }\n\n\n}",
  "sourcePath": "/home/aditimahesh/Documents/Work/Persistence/go/src/github.com/persistenceOne/pStakeSmartContracts/contracts/holder/HolderUniswap.sol",
  "compiler": {
    "name": "solc",
    "version": "0.7.6+commit.7338295f.Emscripten.clang"
  },
  "schemaVersion": "3.3.4",
  "updatedAt": "2021-07-10T16:07:17.566Z",
  "devdoc": {
    "kind": "dev",
    "methods": {
      "getRoleAdmin(bytes32)": {
        "details": "Returns the admin role that controls `role`. See {grantRole} and {revokeRole}. To change a role's admin, use {_setRoleAdmin}."
      },
      "getRoleMember(bytes32,uint256)": {
        "details": "Returns one of the accounts that have `role`. `index` must be a value between 0 and {getRoleMemberCount}, non-inclusive. Role bearers are not sorted in any particular way, and their ordering may change at any point. WARNING: When using {getRoleMember} and {getRoleMemberCount}, make sure you perform all queries on the same block. See the following https://forum.openzeppelin.com/t/iterating-over-elements-on-enumerableset-in-openzeppelin-contracts/2296[forum post] for more information."
      },
      "getRoleMemberCount(bytes32)": {
        "details": "Returns the number of accounts that have `role`. Can be used together with {getRoleMember} to enumerate all bearers of a role."
      },
      "getSTokenSupply(address,address,uint256)": {
        "details": "get SToken reserve supply of the whitelisted contract "
      },
      "grantRole(bytes32,address)": {
        "details": "Grants `role` to `account`. If `account` had not been already granted `role`, emits a {RoleGranted} event. Requirements: - the caller must have ``role``'s admin role."
      },
      "hasRole(bytes32,address)": {
        "details": "Returns `true` if `account` has been granted `role`."
      },
      "initialize(address,uint256)": {
        "details": "Constructor for initializing the Holder Uniswap contract.",
        "params": {
          "_sTokenContractAddress": "- address of the SToken contract.",
          "valueDivisor": "- valueDivisor set to 10^9."
        }
      },
      "renounceRole(bytes32,address)": {
        "details": "Revokes `role` from the calling account. Roles are often managed via {grantRole} and {revokeRole}: this function's purpose is to provide a mechanism for accounts to lose their privileges if they are compromised (such as when a trusted device is misplaced). If the calling account had been granted `role`, emits a {RoleRevoked} event. Requirements: - the caller must be `account`."
      },
      "revokeRole(bytes32,address)": {
        "details": "Revokes `role` from `account`. If `account` had been granted `role`, emits a {RoleRevoked} event. Requirements: - the caller must have ``role``'s admin role."
      },
      "setSTokensContract(address)": {
        "details": "Set 'contract address', called from constructor",
        "params": {
          "sAddress": ": stoken contract address Emits a {SetSTokensContract} event with '_contract' set to the stoken contract address."
        }
      }
    },
    "version": 1
  },
  "userdoc": {
    "kind": "user",
    "methods": {},
    "version": 1
  }
}