{
  "contractName": "HolderUniswap_STKATOM_ETHV2",
  "abi": [
    {
      "anonymous": false,
      "inputs": [
        {
          "indexed": false,
          "internalType": "address",
          "name": "account",
          "type": "address"
        }
      ],
      "name": "Paused",
      "type": "event"
    },
    {
      "anonymous": false,
      "inputs": [
        {
          "indexed": true,
          "internalType": "bytes32",
          "name": "role",
          "type": "bytes32"
        },
        {
          "indexed": true,
          "internalType": "bytes32",
          "name": "previousAdminRole",
          "type": "bytes32"
        },
        {
          "indexed": true,
          "internalType": "bytes32",
          "name": "newAdminRole",
          "type": "bytes32"
        }
      ],
      "name": "RoleAdminChanged",
      "type": "event"
    },
    {
      "anonymous": false,
      "inputs": [
        {
          "indexed": true,
          "internalType": "bytes32",
          "name": "role",
          "type": "bytes32"
        },
        {
          "indexed": true,
          "internalType": "address",
          "name": "account",
          "type": "address"
        },
        {
          "indexed": true,
          "internalType": "address",
          "name": "sender",
          "type": "address"
        }
      ],
      "name": "RoleGranted",
      "type": "event"
    },
    {
      "anonymous": false,
      "inputs": [
        {
          "indexed": true,
          "internalType": "bytes32",
          "name": "role",
          "type": "bytes32"
        },
        {
          "indexed": true,
          "internalType": "address",
          "name": "account",
          "type": "address"
        },
        {
          "indexed": true,
          "internalType": "address",
          "name": "sender",
          "type": "address"
        }
      ],
      "name": "RoleRevoked",
      "type": "event"
    },
    {
      "anonymous": false,
      "inputs": [
        {
          "indexed": false,
          "internalType": "address",
          "name": "account",
          "type": "address"
        }
      ],
      "name": "Unpaused",
      "type": "event"
    },
    {
      "inputs": [],
      "name": "ACCOUNTANT_ROLE",
      "outputs": [
        {
          "internalType": "bytes32",
          "name": "",
          "type": "bytes32"
        }
      ],
      "stateMutability": "view",
      "type": "function"
    },
    {
      "inputs": [],
      "name": "DEFAULT_ADMIN_ROLE",
      "outputs": [
        {
          "internalType": "bytes32",
          "name": "",
          "type": "bytes32"
        }
      ],
      "stateMutability": "view",
      "type": "function"
    },
    {
      "inputs": [],
      "name": "PAUSER_ROLE",
      "outputs": [
        {
          "internalType": "bytes32",
          "name": "",
          "type": "bytes32"
        }
      ],
      "stateMutability": "view",
      "type": "function"
    },
    {
      "inputs": [],
      "name": "_valueDivisor",
      "outputs": [
        {
          "internalType": "uint256",
          "name": "",
          "type": "uint256"
        }
      ],
      "stateMutability": "view",
      "type": "function"
    },
    {
      "inputs": [],
      "name": "_version",
      "outputs": [
        {
          "internalType": "uint256",
          "name": "",
          "type": "uint256"
        }
      ],
      "stateMutability": "view",
      "type": "function"
    },
    {
      "inputs": [
        {
          "internalType": "bytes32",
          "name": "role",
          "type": "bytes32"
        }
      ],
      "name": "getRoleAdmin",
      "outputs": [
        {
          "internalType": "bytes32",
          "name": "",
          "type": "bytes32"
        }
      ],
      "stateMutability": "view",
      "type": "function"
    },
    {
      "inputs": [
        {
          "internalType": "bytes32",
          "name": "role",
          "type": "bytes32"
        },
        {
          "internalType": "uint256",
          "name": "index",
          "type": "uint256"
        }
      ],
      "name": "getRoleMember",
      "outputs": [
        {
          "internalType": "address",
          "name": "",
          "type": "address"
        }
      ],
      "stateMutability": "view",
      "type": "function"
    },
    {
      "inputs": [
        {
          "internalType": "bytes32",
          "name": "role",
          "type": "bytes32"
        }
      ],
      "name": "getRoleMemberCount",
      "outputs": [
        {
          "internalType": "uint256",
          "name": "",
          "type": "uint256"
        }
      ],
      "stateMutability": "view",
      "type": "function"
    },
    {
      "inputs": [
        {
          "internalType": "bytes32",
          "name": "role",
          "type": "bytes32"
        },
        {
          "internalType": "address",
          "name": "account",
          "type": "address"
        }
      ],
      "name": "grantRole",
      "outputs": [],
      "stateMutability": "nonpayable",
      "type": "function"
    },
    {
      "inputs": [
        {
          "internalType": "bytes32",
          "name": "role",
          "type": "bytes32"
        },
        {
          "internalType": "address",
          "name": "account",
          "type": "address"
        }
      ],
      "name": "hasRole",
      "outputs": [
        {
          "internalType": "bool",
          "name": "",
          "type": "bool"
        }
      ],
      "stateMutability": "view",
      "type": "function"
    },
    {
      "inputs": [],
      "name": "paused",
      "outputs": [
        {
          "internalType": "bool",
          "name": "",
          "type": "bool"
        }
      ],
      "stateMutability": "view",
      "type": "function"
    },
    {
      "inputs": [
        {
          "internalType": "bytes32",
          "name": "role",
          "type": "bytes32"
        },
        {
          "internalType": "address",
          "name": "account",
          "type": "address"
        }
      ],
      "name": "renounceRole",
      "outputs": [],
      "stateMutability": "nonpayable",
      "type": "function"
    },
    {
      "inputs": [
        {
          "internalType": "bytes32",
          "name": "role",
          "type": "bytes32"
        },
        {
          "internalType": "address",
          "name": "account",
          "type": "address"
        }
      ],
      "name": "revokeRole",
      "outputs": [],
      "stateMutability": "nonpayable",
      "type": "function"
    },
    {
      "inputs": [
        {
          "internalType": "address",
          "name": "pauserAdmin",
          "type": "address"
        },
        {
          "internalType": "address",
          "name": "accountantAdmin",
          "type": "address"
        },
        {
          "internalType": "uint256",
          "name": "valueDivisor",
          "type": "uint256"
        }
      ],
      "name": "initialize",
      "outputs": [],
      "stateMutability": "nonpayable",
      "type": "function"
    },
    {
      "inputs": [
        {
          "internalType": "address",
          "name": "whitelistedAddress",
          "type": "address"
        },
        {
          "internalType": "address",
          "name": "sTokenAddress",
          "type": "address"
        }
      ],
      "name": "getSTokenSupply",
      "outputs": [
        {
          "internalType": "uint256",
          "name": "sTokenSupply",
          "type": "uint256"
        }
      ],
      "stateMutability": "view",
      "type": "function"
    },
    {
      "inputs": [
        {
          "internalType": "address",
          "name": "token",
          "type": "address"
        },
        {
          "internalType": "address",
          "name": "to",
          "type": "address"
        },
        {
          "internalType": "uint256",
          "name": "value",
          "type": "uint256"
        }
      ],
      "name": "safeTransfer",
      "outputs": [],
      "stateMutability": "nonpayable",
      "type": "function"
    },
    {
      "inputs": [
        {
          "internalType": "address",
          "name": "token",
          "type": "address"
        },
        {
          "internalType": "address",
          "name": "from",
          "type": "address"
        },
        {
          "internalType": "address",
          "name": "to",
          "type": "address"
        },
        {
          "internalType": "uint256",
          "name": "value",
          "type": "uint256"
        }
      ],
      "name": "safeTransferFrom",
      "outputs": [],
      "stateMutability": "nonpayable",
      "type": "function"
    }
  ],
  "bytecode": "0x608060405234801561001057600080fd5b506110bd806100206000396000f3fe608060405234801561001057600080fd5b506004361061010b5760003560e01c806391d14854116100a2578063ca15c87311610071578063ca15c873146102a4578063d1660f99146102c1578063d547741f146102f7578063d9fc4b6114610323578063e63ab1e91461035f5761010b565b806391d148541461023a578063a217fddf14610266578063a4fbfa851461026e578063ab1efbab1461029c5761010b565b80633e118dbe116100de5780633e118dbe146101cf5780635c975abb146101d7578063728a99ee146101f35780639010d07c146101fb5761010b565b80631794bb3c14610110578063248a9ca3146101485780632f2ff15d1461017757806336568abe146101a3575b600080fd5b6101466004803603606081101561012657600080fd5b506001600160a01b03813581169160208101359091169060400135610367565b005b6101656004803603602081101561015e57600080fd5b5035610472565b60408051918252519081900360200190f35b6101466004803603604081101561018d57600080fd5b50803590602001356001600160a01b0316610487565b610146600480360360408110156101b957600080fd5b50803590602001356001600160a01b03166104f3565b610165610554565b6101df61055a565b604080519115158252519081900360200190f35b610165610563565b61021e6004803603604081101561021157600080fd5b5080359060200135610569565b604080516001600160a01b039092168252519081900360200190f35b6101df6004803603604081101561025057600080fd5b50803590602001356001600160a01b031661058a565b6101656105a2565b6101656004803603604081101561028457600080fd5b506001600160a01b03813581169160200135166105a7565b610165610629565b610165600480360360208110156102ba57600080fd5b503561063b565b610146600480360360608110156102d757600080fd5b506001600160a01b03813581169160208101359091169060400135610652565b6101466004803603604081101561030d57600080fd5b50803590602001356001600160a01b03166106bc565b6101466004803603608081101561033957600080fd5b506001600160a01b03813581169160208101358216916040820135169060600135610715565b61016561077b565b600054610100900460ff1680610380575061038061079f565b8061038e575060005460ff16155b6103c95760405162461bcd60e51b815260040180806020018281038252602e815260200180611001602e913960400191505060405180910390fd5b600054610100900460ff161580156103f4576000805460ff1961ff0019909116610100171660011790555b6103fc6107b0565b6104267f65d7a28e3265b37a6474929f336521b332c1681b933f6cb9f3376673440d862a856104e5565b61043e600080516020610f8b833981519152846104e5565b610450600061044b610862565b6104e5565b60978290556001609855801561046c576000805461ff00191690555b50505050565b60009081526033602052604090206002015490565b6000828152603360205260409020600201546104aa906104a5610862565b61058a565b6104e55760405162461bcd60e51b815260040180806020018281038252602f815260200180610f5c602f913960400191505060405180910390fd5b6104ef8282610866565b5050565b6104fb610862565b6001600160a01b0316816001600160a01b03161461054a5760405162461bcd60e51b815260040180806020018281038252602f815260200180611059602f913960400191505060405180910390fd5b6104ef82826108cf565b60985481565b60655460ff1690565b60975481565b60008281526033602052604081206105819083610938565b90505b92915050565b60008281526033602052604081206105819083610944565b600081565b6000816001600160a01b03166370a08231846040518263ffffffff1660e01b815260040180826001600160a01b0316815260200191505060206040518083038186803b1580156105f657600080fd5b505afa15801561060a573d6000803e3d6000fd5b505050506040513d602081101561062057600080fd5b50519392505050565b600080516020610f8b83398151915281565b600081815260336020526040812061058490610959565b61066c600080516020610f8b8339815191526104a5610862565b6106a3576040805162461bcd60e51b815260206004820152600360248201526248553360e81b604482015290519081900360640190fd5b6106b76001600160a01b0384168383610964565b505050565b6000828152603360205260409020600201546106da906104a5610862565b61054a5760405162461bcd60e51b8152600401808060200182810382526030815260200180610fd16030913960400191505060405180910390fd5b61072f600080516020610f8b8339815191526104a5610862565b610766576040805162461bcd60e51b815260206004820152600360248201526212154d60ea1b604482015290519081900360640190fd5b61046c6001600160a01b0385168484846109b6565b7f65d7a28e3265b37a6474929f336521b332c1681b933f6cb9f3376673440d862a81565b60006107aa30610a10565b15905090565b600054610100900460ff16806107c957506107c961079f565b806107d7575060005460ff16155b6108125760405162461bcd60e51b815260040180806020018281038252602e815260200180611001602e913960400191505060405180910390fd5b600054610100900460ff1615801561083d576000805460ff1961ff0019909116610100171660011790555b610845610a16565b61084d610a16565b801561085f576000805461ff00191690555b50565b3390565b600082815260336020526040902061087e9082610ab6565b156104ef5761088b610862565b6001600160a01b0316816001600160a01b0316837f2f8788117e7eff1d82e926ec794901d17c78024a50270940304540a733656f0d60405160405180910390a45050565b60008281526033602052604090206108e79082610acb565b156104ef576108f4610862565b6001600160a01b0316816001600160a01b0316837ff6391f5c32d9c69d2a47ea670b442974b53935d1edc7fd64eb21e047a839171b60405160405180910390a45050565b60006105818383610ae0565b6000610581836001600160a01b038416610b44565b600061058482610b5c565b604080516001600160a01b038416602482015260448082018490528251808303909101815260649091019091526020810180516001600160e01b031663a9059cbb60e01b1790526106b7908490610b60565b604080516001600160a01b0380861660248301528416604482015260648082018490528251808303909101815260849091019091526020810180516001600160e01b03166323b872dd60e01b17905261046c908590610b60565b3b151590565b600054610100900460ff1680610a2f5750610a2f61079f565b80610a3d575060005460ff16155b610a785760405162461bcd60e51b815260040180806020018281038252602e815260200180611001602e913960400191505060405180910390fd5b600054610100900460ff1615801561084d576000805460ff1961ff001990911661010017166001179055801561085f576000805461ff001916905550565b6000610581836001600160a01b038416610c11565b6000610581836001600160a01b038416610c5b565b81546000908210610b225760405162461bcd60e51b8152600401808060200182810382526022815260200180610f3a6022913960400191505060405180910390fd5b826000018281548110610b3157fe5b9060005260206000200154905092915050565b60009081526001919091016020526040902054151590565b5490565b6000610bb5826040518060400160405280602081526020017f5361666545524332303a206c6f772d6c6576656c2063616c6c206661696c6564815250856001600160a01b0316610d219092919063ffffffff16565b8051909150156106b757808060200190516020811015610bd457600080fd5b50516106b75760405162461bcd60e51b815260040180806020018281038252602a81526020018061102f602a913960400191505060405180910390fd5b6000610c1d8383610b44565b610c5357508154600181810184556000848152602080822090930184905584548482528286019093526040902091909155610584565b506000610584565b60008181526001830160205260408120548015610d175783546000198083019190810190600090879083908110610c8e57fe5b9060005260206000200154905080876000018481548110610cab57fe5b600091825260208083209091019290925582815260018981019092526040902090840190558654879080610cdb57fe5b60019003818190600052602060002001600090559055866001016000878152602001908152602001600020600090556001945050505050610584565b6000915050610584565b6060610d308484600085610d3a565b90505b9392505050565b606082471015610d7b5760405162461bcd60e51b8152600401808060200182810382526026815260200180610fab6026913960400191505060405180910390fd5b610d8485610a10565b610dd5576040805162461bcd60e51b815260206004820152601d60248201527f416464726573733a2063616c6c20746f206e6f6e2d636f6e7472616374000000604482015290519081900360640190fd5b600080866001600160a01b031685876040518082805190602001908083835b60208310610e135780518252601f199092019160209182019101610df4565b6001836020036101000a03801982511681845116808217855250505050505090500191505060006040518083038185875af1925050503d8060008114610e75576040519150601f19603f3d011682016040523d82523d6000602084013e610e7a565b606091505b5091509150610e8a828286610e95565b979650505050505050565b60608315610ea4575081610d33565b825115610eb45782518084602001fd5b8160405162461bcd60e51b81526004018080602001828103825283818151815260200191508051906020019080838360005b83811015610efe578181015183820152602001610ee6565b50505050905090810190601f168015610f2b5780820380516001836020036101000a031916815260200191505b509250505060405180910390fdfe456e756d657261626c655365743a20696e646578206f7574206f6620626f756e6473416363657373436f6e74726f6c3a2073656e646572206d75737420626520616e2061646d696e20746f206772616e74369da55721ba2b3acddd63aac7d6512c3e5762a78fa01c44f423f97868330c34416464726573733a20696e73756666696369656e742062616c616e636520666f722063616c6c416363657373436f6e74726f6c3a2073656e646572206d75737420626520616e2061646d696e20746f207265766f6b65496e697469616c697a61626c653a20636f6e747261637420697320616c726561647920696e697469616c697a65645361666545524332303a204552433230206f7065726174696f6e20646964206e6f742073756363656564416363657373436f6e74726f6c3a2063616e206f6e6c792072656e6f756e636520726f6c657320666f722073656c66a2646970667358221220fa88130b080c12cb2109d2bc9171b32ee41c6b654bf09ca707968326d804411164736f6c63430007060033",
  "immutableReferences": {},
  "source": "/*\n Copyright [2019] - [2021], PERSISTENCE TECHNOLOGIES PTE. LTD. and the pStake-smartContracts contributors\n SPDX-License-Identifier: Apache-2.0\n*/\n\npragma solidity >=0.7.0;\n\nimport \"@openzeppelin/contracts-upgradeable/token/ERC20/SafeERC20Upgradeable.sol\";\nimport \"@openzeppelin/contracts-upgradeable/token/ERC20/IERC20Upgradeable.sol\";\nimport \"../interfaces/IHolderV2.sol\";\nimport \"../interfaces/ISTokensV2.sol\";\nimport \"@openzeppelin/contracts-upgradeable/access/AccessControlUpgradeable.sol\";\nimport \"@openzeppelin/contracts-upgradeable/utils/PausableUpgradeable.sol\";\nimport \"@openzeppelin/contracts-upgradeable/proxy/Initializable.sol\";\nimport \"../libraries/TransferHelper.sol\";\n\ncontract HolderUniswap_STKATOM_ETHV2 is\n\tIHolderV2,\n\tInitializable,\n\tAccessControlUpgradeable,\n\tPausableUpgradeable\n{\n\tusing SafeERC20Upgradeable for IERC20Upgradeable;\n\n\t// constant pertaining to access roles\n\tbytes32 public constant PAUSER_ROLE = keccak256(\"PAUSER_ROLE\");\n\n\t// constant pertaining to access roles\n\tbytes32 public constant ACCOUNTANT_ROLE = keccak256(\"ACCOUNTANT_ROLE\");\n\n\t// value divisor to make weight factor a fraction if need be\n\tuint256 public _valueDivisor;\n\n\t// variable pertaining to contract upgrades versioning\n\tuint256 public _version;\n\n\t/**\n\t * @dev Constructor for initializing the Holder Uniswap contract.\n\t */\n\tfunction initialize(\n\t\taddress pauserAdmin,\n\t\taddress accountantAdmin,\n\t\tuint256 valueDivisor\n\t) public virtual initializer {\n\t\t__AccessControl_init();\n\t\t_setupRole(PAUSER_ROLE, pauserAdmin);\n\t\t_setupRole(ACCOUNTANT_ROLE, accountantAdmin);\n\t\t_setupRole(DEFAULT_ADMIN_ROLE, _msgSender());\n\t\t_valueDivisor = valueDivisor;\n\t\t_version = 1;\n\t}\n\n\t/**\n\t * @dev get SToken reserve supply of the whitelisted contract\n\t * argument names commented to suppress warnings\n\t */\n\tfunction getSTokenSupply(address whitelistedAddress, address sTokenAddress)\n\t\tpublic\n\t\tview\n\t\tvirtual\n\t\toverride\n\t\treturns (uint256 sTokenSupply)\n\t{\n\t\tsTokenSupply = ISTokensV2(sTokenAddress).balanceOf(whitelistedAddress);\n\t\treturn sTokenSupply;\n\t}\n\n\tfunction safeTransfer(\n\t\taddress token,\n\t\taddress to,\n\t\tuint256 value\n\t) public virtual override {\n\t\trequire(hasRole(ACCOUNTANT_ROLE, _msgSender()), \"HU3\");\n\t\t// finally transfer the new LP Tokens to the user address\n\t\tIERC20Upgradeable(address(token)).safeTransfer(to, value);\n\t}\n\n\tfunction safeTransferFrom(\n\t\taddress token,\n\t\taddress from,\n\t\taddress to,\n\t\tuint256 value\n\t) public virtual override {\n\t\trequire(hasRole(ACCOUNTANT_ROLE, _msgSender()), \"HU4\");\n\t\t// finally transfer the new LP Tokens to the user address\n\t\tIERC20Upgradeable(address(token)).safeTransferFrom(from, to, value);\n\t}\n}\n",
  "sourcePath": "/Users/aditimaheshwari/Documents/Work/Persistence/Codebase/persistenceOne/pStake-smartContracts/contracts/holder/HolderUniswap_STKATOM_ETHV2.sol",
  "compiler": {
    "name": "solc",
    "version": "0.7.6+commit.7338295f.Emscripten.clang"
  },
  "schemaVersion": "3.4.3",
  "updatedAt": "2022-09-14T10:28:33.954Z",
  "devdoc": {
    "kind": "dev",
    "methods": {
      "getRoleAdmin(bytes32)": {
        "details": "Returns the admin role that controls `role`. See {grantRole} and {revokeRole}. To change a role's admin, use {_setRoleAdmin}."
      },
      "getRoleMember(bytes32,uint256)": {
        "details": "Returns one of the accounts that have `role`. `index` must be a value between 0 and {getRoleMemberCount}, non-inclusive. Role bearers are not sorted in any particular way, and their ordering may change at any point. WARNING: When using {getRoleMember} and {getRoleMemberCount}, make sure you perform all queries on the same block. See the following https://forum.openzeppelin.com/t/iterating-over-elements-on-enumerableset-in-openzeppelin-contracts/2296[forum post] for more information."
      },
      "getRoleMemberCount(bytes32)": {
        "details": "Returns the number of accounts that have `role`. Can be used together with {getRoleMember} to enumerate all bearers of a role."
      },
      "getSTokenSupply(address,address)": {
        "details": "get SToken reserve supply of the whitelisted contract argument names commented to suppress warnings"
      },
      "grantRole(bytes32,address)": {
        "details": "Grants `role` to `account`. If `account` had not been already granted `role`, emits a {RoleGranted} event. Requirements: - the caller must have ``role``'s admin role."
      },
      "hasRole(bytes32,address)": {
        "details": "Returns `true` if `account` has been granted `role`."
      },
      "initialize(address,address,uint256)": {
        "details": "Constructor for initializing the Holder Uniswap contract."
      },
      "paused()": {
        "details": "Returns true if the contract is paused, and false otherwise."
      },
      "renounceRole(bytes32,address)": {
        "details": "Revokes `role` from the calling account. Roles are often managed via {grantRole} and {revokeRole}: this function's purpose is to provide a mechanism for accounts to lose their privileges if they are compromised (such as when a trusted device is misplaced). If the calling account had been granted `role`, emits a {RoleRevoked} event. Requirements: - the caller must be `account`."
      },
      "revokeRole(bytes32,address)": {
        "details": "Revokes `role` from `account`. If `account` had been granted `role`, emits a {RoleRevoked} event. Requirements: - the caller must have ``role``'s admin role."
      },
      "safeTransfer(address,address,uint256)": {
        "details": "Set UTokens smart contract. Emits a {SetContract} event."
      },
      "safeTransferFrom(address,address,address,uint256)": {
        "details": "Set UTokens smart contract. Emits a {SetContract} event."
      }
    },
    "version": 1
  },
  "userdoc": {
    "kind": "user",
    "methods": {},
    "version": 1
  }
}