{
  "contractName": "HolderUniswap_STKATOM_ETH",
  "abi": [
    {
      "anonymous": false,
      "inputs": [
        {
          "indexed": false,
          "internalType": "address",
          "name": "account",
          "type": "address"
        }
      ],
      "name": "Paused",
      "type": "event"
    },
    {
      "anonymous": false,
      "inputs": [
        {
          "indexed": true,
          "internalType": "bytes32",
          "name": "role",
          "type": "bytes32"
        },
        {
          "indexed": true,
          "internalType": "bytes32",
          "name": "previousAdminRole",
          "type": "bytes32"
        },
        {
          "indexed": true,
          "internalType": "bytes32",
          "name": "newAdminRole",
          "type": "bytes32"
        }
      ],
      "name": "RoleAdminChanged",
      "type": "event"
    },
    {
      "anonymous": false,
      "inputs": [
        {
          "indexed": true,
          "internalType": "bytes32",
          "name": "role",
          "type": "bytes32"
        },
        {
          "indexed": true,
          "internalType": "address",
          "name": "account",
          "type": "address"
        },
        {
          "indexed": true,
          "internalType": "address",
          "name": "sender",
          "type": "address"
        }
      ],
      "name": "RoleGranted",
      "type": "event"
    },
    {
      "anonymous": false,
      "inputs": [
        {
          "indexed": true,
          "internalType": "bytes32",
          "name": "role",
          "type": "bytes32"
        },
        {
          "indexed": true,
          "internalType": "address",
          "name": "account",
          "type": "address"
        },
        {
          "indexed": true,
          "internalType": "address",
          "name": "sender",
          "type": "address"
        }
      ],
      "name": "RoleRevoked",
      "type": "event"
    },
    {
      "anonymous": false,
      "inputs": [
        {
          "indexed": false,
          "internalType": "address",
          "name": "account",
          "type": "address"
        }
      ],
      "name": "Unpaused",
      "type": "event"
    },
    {
      "inputs": [],
      "name": "ACCOUNTANT_ROLE",
      "outputs": [
        {
          "internalType": "bytes32",
          "name": "",
          "type": "bytes32"
        }
      ],
      "stateMutability": "view",
      "type": "function"
    },
    {
      "inputs": [],
      "name": "DEFAULT_ADMIN_ROLE",
      "outputs": [
        {
          "internalType": "bytes32",
          "name": "",
          "type": "bytes32"
        }
      ],
      "stateMutability": "view",
      "type": "function"
    },
    {
      "inputs": [],
      "name": "PAUSER_ROLE",
      "outputs": [
        {
          "internalType": "bytes32",
          "name": "",
          "type": "bytes32"
        }
      ],
      "stateMutability": "view",
      "type": "function"
    },
    {
      "inputs": [],
      "name": "_valueDivisor",
      "outputs": [
        {
          "internalType": "uint256",
          "name": "",
          "type": "uint256"
        }
      ],
      "stateMutability": "view",
      "type": "function"
    },
    {
      "inputs": [],
      "name": "_version",
      "outputs": [
        {
          "internalType": "uint256",
          "name": "",
          "type": "uint256"
        }
      ],
      "stateMutability": "view",
      "type": "function"
    },
    {
      "inputs": [
        {
          "internalType": "bytes32",
          "name": "role",
          "type": "bytes32"
        }
      ],
      "name": "getRoleAdmin",
      "outputs": [
        {
          "internalType": "bytes32",
          "name": "",
          "type": "bytes32"
        }
      ],
      "stateMutability": "view",
      "type": "function"
    },
    {
      "inputs": [
        {
          "internalType": "bytes32",
          "name": "role",
          "type": "bytes32"
        },
        {
          "internalType": "uint256",
          "name": "index",
          "type": "uint256"
        }
      ],
      "name": "getRoleMember",
      "outputs": [
        {
          "internalType": "address",
          "name": "",
          "type": "address"
        }
      ],
      "stateMutability": "view",
      "type": "function"
    },
    {
      "inputs": [
        {
          "internalType": "bytes32",
          "name": "role",
          "type": "bytes32"
        }
      ],
      "name": "getRoleMemberCount",
      "outputs": [
        {
          "internalType": "uint256",
          "name": "",
          "type": "uint256"
        }
      ],
      "stateMutability": "view",
      "type": "function"
    },
    {
      "inputs": [
        {
          "internalType": "bytes32",
          "name": "role",
          "type": "bytes32"
        },
        {
          "internalType": "address",
          "name": "account",
          "type": "address"
        }
      ],
      "name": "grantRole",
      "outputs": [],
      "stateMutability": "nonpayable",
      "type": "function"
    },
    {
      "inputs": [
        {
          "internalType": "bytes32",
          "name": "role",
          "type": "bytes32"
        },
        {
          "internalType": "address",
          "name": "account",
          "type": "address"
        }
      ],
      "name": "hasRole",
      "outputs": [
        {
          "internalType": "bool",
          "name": "",
          "type": "bool"
        }
      ],
      "stateMutability": "view",
      "type": "function"
    },
    {
      "inputs": [],
      "name": "paused",
      "outputs": [
        {
          "internalType": "bool",
          "name": "",
          "type": "bool"
        }
      ],
      "stateMutability": "view",
      "type": "function"
    },
    {
      "inputs": [
        {
          "internalType": "bytes32",
          "name": "role",
          "type": "bytes32"
        },
        {
          "internalType": "address",
          "name": "account",
          "type": "address"
        }
      ],
      "name": "renounceRole",
      "outputs": [],
      "stateMutability": "nonpayable",
      "type": "function"
    },
    {
      "inputs": [
        {
          "internalType": "bytes32",
          "name": "role",
          "type": "bytes32"
        },
        {
          "internalType": "address",
          "name": "account",
          "type": "address"
        }
      ],
      "name": "revokeRole",
      "outputs": [],
      "stateMutability": "nonpayable",
      "type": "function"
    },
    {
      "inputs": [
        {
          "internalType": "address",
          "name": "pauserAdmin",
          "type": "address"
        },
        {
          "internalType": "address",
          "name": "accountantAdmin",
          "type": "address"
        },
        {
          "internalType": "uint256",
          "name": "valueDivisor",
          "type": "uint256"
        }
      ],
      "name": "initialize",
      "outputs": [],
      "stateMutability": "nonpayable",
      "type": "function"
    },
    {
      "inputs": [
        {
          "internalType": "address",
          "name": "whitelistedAddress",
          "type": "address"
        },
        {
          "internalType": "address",
          "name": "sTokenAddress",
          "type": "address"
        }
      ],
      "name": "getSTokenSupply",
      "outputs": [
        {
          "internalType": "uint256",
          "name": "sTokenSupply",
          "type": "uint256"
        }
      ],
      "stateMutability": "view",
      "type": "function"
    },
    {
      "inputs": [
        {
          "internalType": "address",
          "name": "token",
          "type": "address"
        },
        {
          "internalType": "address",
          "name": "to",
          "type": "address"
        },
        {
          "internalType": "uint256",
          "name": "value",
          "type": "uint256"
        }
      ],
      "name": "safeTransfer",
      "outputs": [],
      "stateMutability": "nonpayable",
      "type": "function"
    },
    {
      "inputs": [
        {
          "internalType": "address",
          "name": "token",
          "type": "address"
        },
        {
          "internalType": "address",
          "name": "from",
          "type": "address"
        },
        {
          "internalType": "address",
          "name": "to",
          "type": "address"
        },
        {
          "internalType": "uint256",
          "name": "value",
          "type": "uint256"
        }
      ],
      "name": "safeTransferFrom",
      "outputs": [],
      "stateMutability": "nonpayable",
      "type": "function"
    }
  ],
  "bytecode": "0x608060405234801561001057600080fd5b50610ff3806100206000396000f3fe608060405234801561001057600080fd5b506004361061010b5760003560e01c806391d14854116100a2578063ca15c87311610071578063ca15c873146102a4578063d1660f99146102c1578063d547741f146102f7578063d9fc4b6114610323578063e63ab1e91461035f5761010b565b806391d148541461023a578063a217fddf14610266578063a4fbfa851461026e578063ab1efbab1461029c5761010b565b80633e118dbe116100de5780633e118dbe146101cf5780635c975abb146101d7578063728a99ee146101f35780639010d07c146101fb5761010b565b80631794bb3c14610110578063248a9ca3146101485780632f2ff15d1461017757806336568abe146101a3575b600080fd5b6101466004803603606081101561012657600080fd5b506001600160a01b03813581169160208101359091169060400135610367565b005b6101656004803603602081101561015e57600080fd5b5035610472565b60408051918252519081900360200190f35b6101466004803603604081101561018d57600080fd5b50803590602001356001600160a01b0316610487565b610146600480360360408110156101b957600080fd5b50803590602001356001600160a01b03166104f3565b610165610554565b6101df61055a565b604080519115158252519081900360200190f35b610165610563565b61021e6004803603604081101561021157600080fd5b5080359060200135610569565b604080516001600160a01b039092168252519081900360200190f35b6101df6004803603604081101561025057600080fd5b50803590602001356001600160a01b031661058a565b6101656105a2565b6101656004803603604081101561028457600080fd5b506001600160a01b03813581169160200135166105a7565b610165610629565b610165600480360360208110156102ba57600080fd5b503561063b565b610146600480360360608110156102d757600080fd5b506001600160a01b03813581169160208101359091169060400135610652565b6101466004803603604081101561030d57600080fd5b50803590602001356001600160a01b03166106b3565b6101466004803603608081101561033957600080fd5b506001600160a01b0381358116916020810135821691604082013516906060013561070c565b610165610769565b600054610100900460ff1680610380575061038061078d565b8061038e575060005460ff16155b6103c95760405162461bcd60e51b815260040180806020018281038252602e815260200180610f34602e913960400191505060405180910390fd5b600054610100900460ff161580156103f4576000805460ff1961ff0019909116610100171660011790555b6103fc61079e565b6104267f65d7a28e3265b37a6474929f336521b332c1681b933f6cb9f3376673440d862a856104e5565b61043e600080516020610eb3833981519152846104e5565b610450600061044b610850565b6104e5565b60978290556001609855801561046c576000805461ff00191690555b50505050565b60009081526033602052604090206002015490565b6000828152603360205260409020600201546104aa906104a5610850565b61058a565b6104e55760405162461bcd60e51b815260040180806020018281038252602f815260200180610e84602f913960400191505060405180910390fd5b6104ef8282610854565b5050565b6104fb610850565b6001600160a01b0316816001600160a01b03161461054a5760405162461bcd60e51b815260040180806020018281038252602f815260200180610f8f602f913960400191505060405180910390fd5b6104ef82826108bd565b60985481565b60655460ff1690565b60975481565b60008281526033602052604081206105819083610926565b90505b92915050565b60008281526033602052604081206105819083610932565b600081565b6000816001600160a01b03166370a08231846040518263ffffffff1660e01b815260040180826001600160a01b0316815260200191505060206040518083038186803b1580156105f657600080fd5b505afa15801561060a573d6000803e3d6000fd5b505050506040513d602081101561062057600080fd5b50519392505050565b600080516020610eb383398151915281565b600081815260336020526040812061058490610947565b61066c600080516020610eb38339815191526104a5610850565b6106a3576040805162461bcd60e51b815260206004820152600360248201526248553360e81b604482015290519081900360640190fd5b6106ae838383610952565b505050565b6000828152603360205260409020600201546106d1906104a5610850565b61054a5760405162461bcd60e51b8152600401808060200182810382526030815260200180610f046030913960400191505060405180910390fd5b610726600080516020610eb38339815191526104a5610850565b61075d576040805162461bcd60e51b815260206004820152600360248201526212154d60ea1b604482015290519081900360640190fd5b61046c84848484610aa5565b7f65d7a28e3265b37a6474929f336521b332c1681b933f6cb9f3376673440d862a81565b600061079830610c01565b15905090565b600054610100900460ff16806107b757506107b761078d565b806107c5575060005460ff16155b6108005760405162461bcd60e51b815260040180806020018281038252602e815260200180610f34602e913960400191505060405180910390fd5b600054610100900460ff1615801561082b576000805460ff1961ff0019909116610100171660011790555b610833610c07565b61083b610c07565b801561084d576000805461ff00191690555b50565b3390565b600082815260336020526040902061086c9082610ca7565b156104ef57610879610850565b6001600160a01b0316816001600160a01b0316837f2f8788117e7eff1d82e926ec794901d17c78024a50270940304540a733656f0d60405160405180910390a45050565b60008281526033602052604090206108d59082610cbc565b156104ef576108e2610850565b6001600160a01b0316816001600160a01b0316837ff6391f5c32d9c69d2a47ea670b442974b53935d1edc7fd64eb21e047a839171b60405160405180910390a45050565b60006105818383610cd1565b6000610581836001600160a01b038416610d35565b600061058482610d4d565b604080516001600160a01b038481166024830152604480830185905283518084039091018152606490920183526020820180516001600160e01b031663a9059cbb60e01b1781529251825160009485949389169392918291908083835b602083106109ce5780518252601f1990920191602091820191016109af565b6001836020036101000a0380198251168184511680821785525050505050509050019150506000604051808303816000865af19150503d8060008114610a30576040519150601f19603f3d011682016040523d82523d6000602084013e610a35565b606091505b5091509150818015610a63575080511580610a635750808060200190516020811015610a6057600080fd5b50515b610a9e5760405162461bcd60e51b815260040180806020018281038252602d815260200180610f62602d913960400191505060405180910390fd5b5050505050565b604080516001600160a01b0385811660248301528481166044830152606480830185905283518084039091018152608490920183526020820180516001600160e01b03166323b872dd60e01b178152925182516000948594938a169392918291908083835b60208310610b295780518252601f199092019160209182019101610b0a565b6001836020036101000a0380198251168184511680821785525050505050509050019150506000604051808303816000865af19150503d8060008114610b8b576040519150601f19603f3d011682016040523d82523d6000602084013e610b90565b606091505b5091509150818015610bbe575080511580610bbe5750808060200190516020811015610bbb57600080fd5b50515b610bf95760405162461bcd60e51b8152600401808060200182810382526031815260200180610ed36031913960400191505060405180910390fd5b505050505050565b3b151590565b600054610100900460ff1680610c205750610c2061078d565b80610c2e575060005460ff16155b610c695760405162461bcd60e51b815260040180806020018281038252602e815260200180610f34602e913960400191505060405180910390fd5b600054610100900460ff1615801561083b576000805460ff1961ff001990911661010017166001179055801561084d576000805461ff001916905550565b6000610581836001600160a01b038416610d51565b6000610581836001600160a01b038416610d9b565b81546000908210610d135760405162461bcd60e51b8152600401808060200182810382526022815260200180610e626022913960400191505060405180910390fd5b826000018281548110610d2257fe5b9060005260206000200154905092915050565b60009081526001919091016020526040902054151590565b5490565b6000610d5d8383610d35565b610d9357508154600181810184556000848152602080822090930184905584548482528286019093526040902091909155610584565b506000610584565b60008181526001830160205260408120548015610e575783546000198083019190810190600090879083908110610dce57fe5b9060005260206000200154905080876000018481548110610deb57fe5b600091825260208083209091019290925582815260018981019092526040902090840190558654879080610e1b57fe5b60019003818190600052602060002001600090559055866001016000878152602001908152602001600020600090556001945050505050610584565b600091505061058456fe456e756d657261626c655365743a20696e646578206f7574206f6620626f756e6473416363657373436f6e74726f6c3a2073656e646572206d75737420626520616e2061646d696e20746f206772616e74369da55721ba2b3acddd63aac7d6512c3e5762a78fa01c44f423f97868330c345472616e7366657248656c7065723a3a7472616e7366657246726f6d3a207472616e7366657246726f6d206661696c6564416363657373436f6e74726f6c3a2073656e646572206d75737420626520616e2061646d696e20746f207265766f6b65496e697469616c697a61626c653a20636f6e747261637420697320616c726561647920696e697469616c697a65645472616e7366657248656c7065723a3a736166655472616e736665723a207472616e73666572206661696c6564416363657373436f6e74726f6c3a2063616e206f6e6c792072656e6f756e636520726f6c657320666f722073656c66a2646970667358221220ed39e477022b4d0387c15fdaeaea9a4ef28c6c74ca9943dc1788fc38eaf2e47b64736f6c63430007060033",
  "immutableReferences": {},
  "source": "/*\n Copyright [2019] - [2021], PERSISTENCE TECHNOLOGIES PTE. LTD. and the pStake-smartContracts contributors\n SPDX-License-Identifier: Apache-2.0\n*/\n\npragma solidity >=0.7.0;\n\nimport \"../interfaces/IHolderV2.sol\";\nimport \"../interfaces/ISTokensV2.sol\";\nimport \"@openzeppelin/contracts-upgradeable/access/AccessControlUpgradeable.sol\";\nimport \"@openzeppelin/contracts-upgradeable/utils/PausableUpgradeable.sol\";\nimport \"@openzeppelin/contracts-upgradeable/proxy/Initializable.sol\";\nimport \"../libraries/TransferHelper.sol\";\n\ncontract HolderUniswap_STKATOM_ETH is\n\tIHolderV2,\n\tInitializable,\n\tAccessControlUpgradeable,\n\tPausableUpgradeable\n{\n\t// constant pertaining to access roles\n\tbytes32 public constant PAUSER_ROLE = keccak256(\"PAUSER_ROLE\");\n\n\t// constant pertaining to access roles\n\tbytes32 public constant ACCOUNTANT_ROLE = keccak256(\"ACCOUNTANT_ROLE\");\n\n\t// value divisor to make weight factor a fraction if need be\n\tuint256 public _valueDivisor;\n\n\t// variable pertaining to contract upgrades versioning\n\tuint256 public _version;\n\n\t/**\n\t * @dev Constructor for initializing the Holder Uniswap contract.\n\t */\n\tfunction initialize(\n\t\taddress pauserAdmin,\n\t\taddress accountantAdmin,\n\t\tuint256 valueDivisor\n\t) public virtual initializer {\n\t\t__AccessControl_init();\n\t\t_setupRole(PAUSER_ROLE, pauserAdmin);\n\t\t_setupRole(ACCOUNTANT_ROLE, accountantAdmin);\n\t\t_setupRole(DEFAULT_ADMIN_ROLE, _msgSender());\n\t\t_valueDivisor = valueDivisor;\n\t\t_version = 1;\n\t}\n\n\t/**\n\t * @dev get SToken reserve supply of the whitelisted contract\n\t * argument names commented to suppress warnings\n\t */\n\tfunction getSTokenSupply(address whitelistedAddress, address sTokenAddress)\n\t\tpublic\n\t\tview\n\t\tvirtual\n\t\toverride\n\t\treturns (uint256 sTokenSupply)\n\t{\n\t\tsTokenSupply = ISTokensV2(sTokenAddress).balanceOf(whitelistedAddress);\n\t\treturn sTokenSupply;\n\t}\n\n\tfunction safeTransfer(\n\t\taddress token,\n\t\taddress to,\n\t\tuint256 value\n\t) public virtual override {\n\t\trequire(hasRole(ACCOUNTANT_ROLE, _msgSender()), \"HU3\");\n\t\t// finally transfer the new LP Tokens to the user address\n\t\tTransferHelper.safeTransfer(token, to, value);\n\t}\n\n\tfunction safeTransferFrom(\n\t\taddress token,\n\t\taddress from,\n\t\taddress to,\n\t\tuint256 value\n\t) public virtual override {\n\t\trequire(hasRole(ACCOUNTANT_ROLE, _msgSender()), \"HU4\");\n\t\t// finally transfer the new LP Tokens to the user address\n\t\tTransferHelper.safeTransferFrom(token, from, to, value);\n\t}\n}\n",
  "sourcePath": "/home/aditimahesh/Documents/Work/Persistence/go/src/github.com/persistenceOne/pStake-smartContracts/contracts/holder/HolderUniswap_STKATOM_ETH.sol",
  "compiler": {
    "name": "solc",
    "version": "0.7.6+commit.7338295f.Emscripten.clang"
  },
  "schemaVersion": "3.4.3",
  "updatedAt": "2021-12-21T07:15:04.479Z",
  "devdoc": {
    "kind": "dev",
    "methods": {
      "getRoleAdmin(bytes32)": {
        "details": "Returns the admin role that controls `role`. See {grantRole} and {revokeRole}. To change a role's admin, use {_setRoleAdmin}."
      },
      "getRoleMember(bytes32,uint256)": {
        "details": "Returns one of the accounts that have `role`. `index` must be a value between 0 and {getRoleMemberCount}, non-inclusive. Role bearers are not sorted in any particular way, and their ordering may change at any point. WARNING: When using {getRoleMember} and {getRoleMemberCount}, make sure you perform all queries on the same block. See the following https://forum.openzeppelin.com/t/iterating-over-elements-on-enumerableset-in-openzeppelin-contracts/2296[forum post] for more information."
      },
      "getRoleMemberCount(bytes32)": {
        "details": "Returns the number of accounts that have `role`. Can be used together with {getRoleMember} to enumerate all bearers of a role."
      },
      "getSTokenSupply(address,address)": {
        "details": "get SToken reserve supply of the whitelisted contract argument names commented to suppress warnings"
      },
      "grantRole(bytes32,address)": {
        "details": "Grants `role` to `account`. If `account` had not been already granted `role`, emits a {RoleGranted} event. Requirements: - the caller must have ``role``'s admin role."
      },
      "hasRole(bytes32,address)": {
        "details": "Returns `true` if `account` has been granted `role`."
      },
      "initialize(address,address,uint256)": {
        "details": "Constructor for initializing the Holder Uniswap contract."
      },
      "paused()": {
        "details": "Returns true if the contract is paused, and false otherwise."
      },
      "renounceRole(bytes32,address)": {
        "details": "Revokes `role` from the calling account. Roles are often managed via {grantRole} and {revokeRole}: this function's purpose is to provide a mechanism for accounts to lose their privileges if they are compromised (such as when a trusted device is misplaced). If the calling account had been granted `role`, emits a {RoleRevoked} event. Requirements: - the caller must be `account`."
      },
      "revokeRole(bytes32,address)": {
        "details": "Revokes `role` from `account`. If `account` had been granted `role`, emits a {RoleRevoked} event. Requirements: - the caller must have ``role``'s admin role."
      },
      "safeTransfer(address,address,uint256)": {
        "details": "Set UTokens smart contract. Emits a {SetContract} event."
      },
      "safeTransferFrom(address,address,address,uint256)": {
        "details": "Set UTokens smart contract. Emits a {SetContract} event."
      }
    },
    "version": 1
  },
  "userdoc": {
    "kind": "user",
    "methods": {},
    "version": 1
  }
}