{
  "contractName": "HolderUniswapV2StkATOMEth",
  "abi": [
    {
      "anonymous": false,
      "inputs": [
        {
          "indexed": true,
          "internalType": "bytes32",
          "name": "role",
          "type": "bytes32"
        },
        {
          "indexed": true,
          "internalType": "bytes32",
          "name": "previousAdminRole",
          "type": "bytes32"
        },
        {
          "indexed": true,
          "internalType": "bytes32",
          "name": "newAdminRole",
          "type": "bytes32"
        }
      ],
      "name": "RoleAdminChanged",
      "type": "event"
    },
    {
      "anonymous": false,
      "inputs": [
        {
          "indexed": true,
          "internalType": "bytes32",
          "name": "role",
          "type": "bytes32"
        },
        {
          "indexed": true,
          "internalType": "address",
          "name": "account",
          "type": "address"
        },
        {
          "indexed": true,
          "internalType": "address",
          "name": "sender",
          "type": "address"
        }
      ],
      "name": "RoleGranted",
      "type": "event"
    },
    {
      "anonymous": false,
      "inputs": [
        {
          "indexed": true,
          "internalType": "bytes32",
          "name": "role",
          "type": "bytes32"
        },
        {
          "indexed": true,
          "internalType": "address",
          "name": "account",
          "type": "address"
        },
        {
          "indexed": true,
          "internalType": "address",
          "name": "sender",
          "type": "address"
        }
      ],
      "name": "RoleRevoked",
      "type": "event"
    },
    {
      "anonymous": false,
      "inputs": [
        {
          "indexed": true,
          "internalType": "address",
          "name": "_contract",
          "type": "address"
        }
      ],
      "name": "SetStakeLPContract",
      "type": "event"
    },
    {
      "inputs": [],
      "name": "DEFAULT_ADMIN_ROLE",
      "outputs": [
        {
          "internalType": "bytes32",
          "name": "",
          "type": "bytes32"
        }
      ],
      "stateMutability": "view",
      "type": "function"
    },
    {
      "inputs": [
        {
          "internalType": "bytes32",
          "name": "role",
          "type": "bytes32"
        }
      ],
      "name": "getRoleAdmin",
      "outputs": [
        {
          "internalType": "bytes32",
          "name": "",
          "type": "bytes32"
        }
      ],
      "stateMutability": "view",
      "type": "function"
    },
    {
      "inputs": [
        {
          "internalType": "bytes32",
          "name": "role",
          "type": "bytes32"
        },
        {
          "internalType": "uint256",
          "name": "index",
          "type": "uint256"
        }
      ],
      "name": "getRoleMember",
      "outputs": [
        {
          "internalType": "address",
          "name": "",
          "type": "address"
        }
      ],
      "stateMutability": "view",
      "type": "function"
    },
    {
      "inputs": [
        {
          "internalType": "bytes32",
          "name": "role",
          "type": "bytes32"
        }
      ],
      "name": "getRoleMemberCount",
      "outputs": [
        {
          "internalType": "uint256",
          "name": "",
          "type": "uint256"
        }
      ],
      "stateMutability": "view",
      "type": "function"
    },
    {
      "inputs": [
        {
          "internalType": "bytes32",
          "name": "role",
          "type": "bytes32"
        },
        {
          "internalType": "address",
          "name": "account",
          "type": "address"
        }
      ],
      "name": "grantRole",
      "outputs": [],
      "stateMutability": "nonpayable",
      "type": "function"
    },
    {
      "inputs": [
        {
          "internalType": "bytes32",
          "name": "role",
          "type": "bytes32"
        },
        {
          "internalType": "address",
          "name": "account",
          "type": "address"
        }
      ],
      "name": "hasRole",
      "outputs": [
        {
          "internalType": "bool",
          "name": "",
          "type": "bool"
        }
      ],
      "stateMutability": "view",
      "type": "function"
    },
    {
      "inputs": [
        {
          "internalType": "bytes32",
          "name": "role",
          "type": "bytes32"
        },
        {
          "internalType": "address",
          "name": "account",
          "type": "address"
        }
      ],
      "name": "renounceRole",
      "outputs": [],
      "stateMutability": "nonpayable",
      "type": "function"
    },
    {
      "inputs": [
        {
          "internalType": "bytes32",
          "name": "role",
          "type": "bytes32"
        },
        {
          "internalType": "address",
          "name": "account",
          "type": "address"
        }
      ],
      "name": "revokeRole",
      "outputs": [],
      "stateMutability": "nonpayable",
      "type": "function"
    },
    {
      "inputs": [
        {
          "internalType": "address",
          "name": "stakeLPContract",
          "type": "address"
        },
        {
          "internalType": "uint256",
          "name": "valueDivisor",
          "type": "uint256"
        }
      ],
      "name": "initialize",
      "outputs": [],
      "stateMutability": "nonpayable",
      "type": "function"
    },
    {
      "inputs": [
        {
          "internalType": "address",
          "name": "whitelistedAddress",
          "type": "address"
        },
        {
          "internalType": "address",
          "name": "sTokenAddress",
          "type": "address"
        }
      ],
      "name": "getSTokenSupply",
      "outputs": [
        {
          "internalType": "uint256",
          "name": "sTokenSupply",
          "type": "uint256"
        }
      ],
      "stateMutability": "view",
      "type": "function"
    },
    {
      "inputs": [
        {
          "internalType": "address",
          "name": "stakeLPContract",
          "type": "address"
        }
      ],
      "name": "setStakeLPContract",
      "outputs": [],
      "stateMutability": "nonpayable",
      "type": "function"
    },
    {
      "inputs": [
        {
          "internalType": "address",
          "name": "token",
          "type": "address"
        },
        {
          "internalType": "address",
          "name": "to",
          "type": "address"
        },
        {
          "internalType": "uint256",
          "name": "value",
          "type": "uint256"
        }
      ],
      "name": "safeTransfer",
      "outputs": [],
      "stateMutability": "nonpayable",
      "type": "function"
    },
    {
      "inputs": [
        {
          "internalType": "address",
          "name": "token",
          "type": "address"
        },
        {
          "internalType": "address",
          "name": "from",
          "type": "address"
        },
        {
          "internalType": "address",
          "name": "to",
          "type": "address"
        },
        {
          "internalType": "uint256",
          "name": "value",
          "type": "uint256"
        }
      ],
      "name": "safeTransferFrom",
      "outputs": [],
      "stateMutability": "nonpayable",
      "type": "function"
    }
  ],
  "bytecode": "0x608060405234801561001057600080fd5b50610faf806100206000396000f3fe608060405234801561001057600080fd5b50600436106100cf5760003560e01c8063a4fbfa851161008c578063cf3d5d0d11610066578063cf3d5d0d1461025b578063d1660f9914610281578063d547741f146102b7578063d9fc4b61146102e3576100cf565b8063a4fbfa85146101e4578063ca15c87314610212578063cd6dc6871461022f576100cf565b8063248a9ca3146100d45780632f2ff15d1461010357806336568abe146101315780639010d07c1461015d57806391d148541461019c578063a217fddf146101dc575b600080fd5b6100f1600480360360208110156100ea57600080fd5b503561031f565b60408051918252519081900360200190f35b61012f6004803603604081101561011957600080fd5b50803590602001356001600160a01b0316610334565b005b61012f6004803603604081101561014757600080fd5b50803590602001356001600160a01b03166103a0565b6101806004803603604081101561017357600080fd5b5080359060200135610401565b604080516001600160a01b039092168252519081900360200190f35b6101c8600480360360408110156101b257600080fd5b50803590602001356001600160a01b0316610422565b604080519115158252519081900360200190f35b6100f161043a565b6100f1600480360360408110156101fa57600080fd5b506001600160a01b038135811691602001351661043f565b6100f16004803603602081101561022857600080fd5b50356104c1565b61012f6004803603604081101561024557600080fd5b506001600160a01b0381351690602001356104d8565b61012f6004803603602081101561027157600080fd5b50356001600160a01b03166105bb565b61012f6004803603606081101561029757600080fd5b506001600160a01b03813581169160208101359091169060400135610649565b61012f600480360360408110156102cd57600080fd5b50803590602001356001600160a01b03166106a9565b61012f600480360360808110156102f957600080fd5b506001600160a01b03813581169160208101358216916040820135169060600135610702565b60009081526033602052604090206002015490565b60008281526033602052604090206002015461035790610352610769565b610422565b6103925760405162461bcd60e51b815260040180806020018281038252602f815260200180610e60602f913960400191505060405180910390fd5b61039c828261076d565b5050565b6103a8610769565b6001600160a01b0316816001600160a01b0316146103f75760405162461bcd60e51b815260040180806020018281038252602f815260200180610f4b602f913960400191505060405180910390fd5b61039c82826107d6565b6000828152603360205260408120610419908361083f565b90505b92915050565b6000828152603360205260408120610419908361084b565b600081565b6000816001600160a01b03166370a08231846040518263ffffffff1660e01b815260040180826001600160a01b0316815260200191505060206040518083038186803b15801561048e57600080fd5b505afa1580156104a2573d6000803e3d6000fd5b505050506040513d60208110156104b857600080fd5b50519392505050565b600081815260336020526040812061041c90610860565b600054610100900460ff16806104f157506104f161086b565b806104ff575060005460ff16155b61053a5760405162461bcd60e51b815260040180806020018281038252602e815260200180610ef0602e913960400191505060405180910390fd5b600054610100900460ff16158015610565576000805460ff1961ff0019909116610100171660011790555b61056d61087c565b61057f600061057a610769565b610392565b606580546001600160a01b0319166001600160a01b0385161790556066829055600160675580156105b6576000805461ff00191690555b505050565b6105c86000610352610769565b6105ff576040805162461bcd60e51b8152602060048201526003602482015262242a9960e91b604482015290519081900360640190fd5b606580546001600160a01b0319166001600160a01b0383169081179091556040517fb2daebf9d5b97a85402c93016ccc68273e707a32f016448d8a1bb7d066d1281590600090a250565b6065546001600160a01b031661065d610769565b6001600160a01b03161461069e576040805162461bcd60e51b815260206004820152600360248201526248553360e81b604482015290519081900360640190fd5b6105b683838361092e565b6000828152603360205260409020600201546106c790610352610769565b6103f75760405162461bcd60e51b8152600401808060200182810382526030815260200180610ec06030913960400191505060405180910390fd5b6065546001600160a01b0316610716610769565b6001600160a01b031614610757576040805162461bcd60e51b815260206004820152600360248201526212154d60ea1b604482015290519081900360640190fd5b61076384848484610a81565b50505050565b3390565b60008281526033602052604090206107859082610bdd565b1561039c57610792610769565b6001600160a01b0316816001600160a01b0316837f2f8788117e7eff1d82e926ec794901d17c78024a50270940304540a733656f0d60405160405180910390a45050565b60008281526033602052604090206107ee9082610bf2565b1561039c576107fb610769565b6001600160a01b0316816001600160a01b0316837ff6391f5c32d9c69d2a47ea670b442974b53935d1edc7fd64eb21e047a839171b60405160405180910390a45050565b60006104198383610c07565b6000610419836001600160a01b038416610c6b565b600061041c82610c83565b600061087630610c87565b15905090565b600054610100900460ff1680610895575061089561086b565b806108a3575060005460ff16155b6108de5760405162461bcd60e51b815260040180806020018281038252602e815260200180610ef0602e913960400191505060405180910390fd5b600054610100900460ff16158015610909576000805460ff1961ff0019909116610100171660011790555b610911610c8d565b610919610c8d565b801561092b576000805461ff00191690555b50565b604080516001600160a01b038481166024830152604480830185905283518084039091018152606490920183526020820180516001600160e01b031663a9059cbb60e01b1781529251825160009485949389169392918291908083835b602083106109aa5780518252601f19909201916020918201910161098b565b6001836020036101000a0380198251168184511680821785525050505050509050019150506000604051808303816000865af19150503d8060008114610a0c576040519150601f19603f3d011682016040523d82523d6000602084013e610a11565b606091505b5091509150818015610a3f575080511580610a3f5750808060200190516020811015610a3c57600080fd5b50515b610a7a5760405162461bcd60e51b815260040180806020018281038252602d815260200180610f1e602d913960400191505060405180910390fd5b5050505050565b604080516001600160a01b0385811660248301528481166044830152606480830185905283518084039091018152608490920183526020820180516001600160e01b03166323b872dd60e01b178152925182516000948594938a169392918291908083835b60208310610b055780518252601f199092019160209182019101610ae6565b6001836020036101000a0380198251168184511680821785525050505050509050019150506000604051808303816000865af19150503d8060008114610b67576040519150601f19603f3d011682016040523d82523d6000602084013e610b6c565b606091505b5091509150818015610b9a575080511580610b9a5750808060200190516020811015610b9757600080fd5b50515b610bd55760405162461bcd60e51b8152600401808060200182810382526031815260200180610e8f6031913960400191505060405180910390fd5b505050505050565b6000610419836001600160a01b038416610d2d565b6000610419836001600160a01b038416610d77565b81546000908210610c495760405162461bcd60e51b8152600401808060200182810382526022815260200180610e3e6022913960400191505060405180910390fd5b826000018281548110610c5857fe5b9060005260206000200154905092915050565b60009081526001919091016020526040902054151590565b5490565b3b151590565b600054610100900460ff1680610ca65750610ca661086b565b80610cb4575060005460ff16155b610cef5760405162461bcd60e51b815260040180806020018281038252602e815260200180610ef0602e913960400191505060405180910390fd5b600054610100900460ff16158015610919576000805460ff1961ff001990911661010017166001179055801561092b576000805461ff001916905550565b6000610d398383610c6b565b610d6f5750815460018181018455600084815260208082209093018490558454848252828601909352604090209190915561041c565b50600061041c565b60008181526001830160205260408120548015610e335783546000198083019190810190600090879083908110610daa57fe5b9060005260206000200154905080876000018481548110610dc757fe5b600091825260208083209091019290925582815260018981019092526040902090840190558654879080610df757fe5b6001900381819060005260206000200160009055905586600101600087815260200190815260200160002060009055600194505050505061041c565b600091505061041c56fe456e756d657261626c655365743a20696e646578206f7574206f6620626f756e6473416363657373436f6e74726f6c3a2073656e646572206d75737420626520616e2061646d696e20746f206772616e745472616e7366657248656c7065723a3a7472616e7366657246726f6d3a207472616e7366657246726f6d206661696c6564416363657373436f6e74726f6c3a2073656e646572206d75737420626520616e2061646d696e20746f207265766f6b65496e697469616c697a61626c653a20636f6e747261637420697320616c726561647920696e697469616c697a65645472616e7366657248656c7065723a3a736166655472616e736665723a207472616e73666572206661696c6564416363657373436f6e74726f6c3a2063616e206f6e6c792072656e6f756e636520726f6c657320666f722073656c66a26469706673582212209127fcac06f892a8f6ddbf21cf07a8b070d6d0be5e00d26f3db28dbb645d752b64736f6c63430007060033",
  "immutableReferences": {},
  "source": "// SPDX-License-Identifier: UNLICENSED\npragma solidity >=0.7.0;\n\nimport \"../interfaces/IHolderV2.sol\";\nimport \"../interfaces/ISTokensV2.sol\";\nimport \"@openzeppelin/contracts-upgradeable/access/AccessControlUpgradeable.sol\";\nimport \"@openzeppelin/contracts-upgradeable/proxy/Initializable.sol\";\nimport \"../libraries/TransferHelper.sol\";\n\ncontract HolderUniswapV2StkATOMEth is\n\tIHolderV2,\n\tInitializable,\n\tAccessControlUpgradeable\n{\n\t// safeTransfer & safeTransferFrom will be called by stakeLPCore contract\n\taddress private _stakeLPContract;\n\n\t// value divisor to make weight factor a fraction if need be\n\tuint256 private _valueDivisor;\n\n\t// variable pertaining to contract upgrades versioning\n\tuint256 private _version;\n\n\t/**\n\t * @dev Constructor for initializing the Holder Uniswap contract.\n\t * @param stakeLPContract - address of the StakeLPCore contract.\n\t */\n\tfunction initialize(address stakeLPContract, uint256 valueDivisor)\n\t\tpublic\n\t\tvirtual\n\t\tinitializer\n\t{\n\t\t__AccessControl_init();\n\t\t_setupRole(DEFAULT_ADMIN_ROLE, _msgSender());\n\t\t_stakeLPContract = stakeLPContract;\n\t\t_valueDivisor = valueDivisor;\n\t\t_version = 1;\n\t}\n\n\t/**\n\t * @dev get SToken reserve supply of the whitelisted contract\n\t * argument names commented to suppress warnings\n\t */\n\tfunction getSTokenSupply(address whitelistedAddress, address sTokenAddress)\n\t\tpublic\n\t\tview\n\t\tvirtual\n\t\toverride\n\t\treturns (uint256 sTokenSupply)\n\t{\n\t\tsTokenSupply = ISTokensV2(sTokenAddress).balanceOf(whitelistedAddress);\n\t\treturn sTokenSupply;\n\t}\n\n\t/*\n\t * @dev Set 'contract address', called from constructor\n\t * @param liquidStakingContract: liquidStaking contract address\n\t *\n\t * Emits a {SetLiquidStakingContract} event with '_contract' set to the liquidStaking contract address.\n\t *\n\t */\n\tfunction setStakeLPContract(address stakeLPContract)\n\t\tpublic\n\t\tvirtual\n\t\toverride\n\t{\n\t\trequire(hasRole(DEFAULT_ADMIN_ROLE, _msgSender()), \"HU2\");\n\t\t_stakeLPContract = stakeLPContract;\n\t\temit SetStakeLPContract(stakeLPContract);\n\t}\n\n\tfunction safeTransfer(\n\t\taddress token,\n\t\taddress to,\n\t\tuint256 value\n\t) public virtual override {\n\t\trequire(_msgSender() == _stakeLPContract, \"HU3\");\n\n\t\t// finally transfer the new LP Tokens to the user address\n\t\tTransferHelper.safeTransfer(token, to, value);\n\t}\n\n\tfunction safeTransferFrom(\n\t\taddress token,\n\t\taddress from,\n\t\taddress to,\n\t\tuint256 value\n\t) public virtual override {\n\t\trequire(_msgSender() == _stakeLPContract, \"HU4\");\n\n\t\t// finally transfer the new LP Tokens to the user address\n\t\tTransferHelper.safeTransferFrom(token, from, to, value);\n\t}\n}\n",
  "sourcePath": "/home/aditimahesh/Documents/Work/Persistence/go/src/github.com/persistenceOne/pStake-smartContracts/contracts/holder/HolderUniswapV2StkATOMEth.sol",
  "compiler": {
    "name": "solc",
    "version": "0.7.6+commit.7338295f.Emscripten.clang"
  },
  "schemaVersion": "3.4.3",
  "updatedAt": "2021-09-22T10:08:55.710Z",
  "devdoc": {
    "kind": "dev",
    "methods": {
      "getRoleAdmin(bytes32)": {
        "details": "Returns the admin role that controls `role`. See {grantRole} and {revokeRole}. To change a role's admin, use {_setRoleAdmin}."
      },
      "getRoleMember(bytes32,uint256)": {
        "details": "Returns one of the accounts that have `role`. `index` must be a value between 0 and {getRoleMemberCount}, non-inclusive. Role bearers are not sorted in any particular way, and their ordering may change at any point. WARNING: When using {getRoleMember} and {getRoleMemberCount}, make sure you perform all queries on the same block. See the following https://forum.openzeppelin.com/t/iterating-over-elements-on-enumerableset-in-openzeppelin-contracts/2296[forum post] for more information."
      },
      "getRoleMemberCount(bytes32)": {
        "details": "Returns the number of accounts that have `role`. Can be used together with {getRoleMember} to enumerate all bearers of a role."
      },
      "getSTokenSupply(address,address)": {
        "details": "get SToken reserve supply of the whitelisted contract argument names commented to suppress warnings"
      },
      "grantRole(bytes32,address)": {
        "details": "Grants `role` to `account`. If `account` had not been already granted `role`, emits a {RoleGranted} event. Requirements: - the caller must have ``role``'s admin role."
      },
      "hasRole(bytes32,address)": {
        "details": "Returns `true` if `account` has been granted `role`."
      },
      "initialize(address,uint256)": {
        "details": "Constructor for initializing the Holder Uniswap contract.",
        "params": {
          "stakeLPContract": "- address of the StakeLPCore contract."
        }
      },
      "renounceRole(bytes32,address)": {
        "details": "Revokes `role` from the calling account. Roles are often managed via {grantRole} and {revokeRole}: this function's purpose is to provide a mechanism for accounts to lose their privileges if they are compromised (such as when a trusted device is misplaced). If the calling account had been granted `role`, emits a {RoleRevoked} event. Requirements: - the caller must be `account`."
      },
      "revokeRole(bytes32,address)": {
        "details": "Revokes `role` from `account`. If `account` had been granted `role`, emits a {RoleRevoked} event. Requirements: - the caller must have ``role``'s admin role."
      },
      "safeTransfer(address,address,uint256)": {
        "details": "Set UTokens smart contract. Emits a {SetContract} event."
      },
      "safeTransferFrom(address,address,address,uint256)": {
        "details": "Set UTokens smart contract. Emits a {SetContract} event."
      },
      "setStakeLPContract(address)": {
        "details": "Set UTokens smart contract. Emits a {SetContract} event."
      }
    },
    "version": 1
  },
  "userdoc": {
    "kind": "user",
    "methods": {},
    "version": 1
  }
}