{
  "contractName": "HolderUniswap",
  "abi": [
    {
      "anonymous": false,
      "inputs": [
        {
          "indexed": true,
          "internalType": "address",
          "name": "holderAddress",
          "type": "address"
        },
        {
          "indexed": false,
          "internalType": "uint256",
          "name": "totalRewardBalance",
          "type": "uint256"
        },
        {
          "indexed": false,
          "internalType": "uint256",
          "name": "tokens",
          "type": "uint256"
        },
        {
          "indexed": false,
          "internalType": "uint256",
          "name": "timestamp",
          "type": "uint256"
        }
      ],
      "name": "CalculateHolderRewards",
      "type": "event"
    },
    {
      "anonymous": false,
      "inputs": [
        {
          "indexed": true,
          "internalType": "bytes32",
          "name": "role",
          "type": "bytes32"
        },
        {
          "indexed": true,
          "internalType": "bytes32",
          "name": "previousAdminRole",
          "type": "bytes32"
        },
        {
          "indexed": true,
          "internalType": "bytes32",
          "name": "newAdminRole",
          "type": "bytes32"
        }
      ],
      "name": "RoleAdminChanged",
      "type": "event"
    },
    {
      "anonymous": false,
      "inputs": [
        {
          "indexed": true,
          "internalType": "bytes32",
          "name": "role",
          "type": "bytes32"
        },
        {
          "indexed": true,
          "internalType": "address",
          "name": "account",
          "type": "address"
        },
        {
          "indexed": true,
          "internalType": "address",
          "name": "sender",
          "type": "address"
        }
      ],
      "name": "RoleGranted",
      "type": "event"
    },
    {
      "anonymous": false,
      "inputs": [
        {
          "indexed": true,
          "internalType": "bytes32",
          "name": "role",
          "type": "bytes32"
        },
        {
          "indexed": true,
          "internalType": "address",
          "name": "account",
          "type": "address"
        },
        {
          "indexed": true,
          "internalType": "address",
          "name": "sender",
          "type": "address"
        }
      ],
      "name": "RoleRevoked",
      "type": "event"
    },
    {
      "anonymous": false,
      "inputs": [
        {
          "indexed": true,
          "internalType": "address",
          "name": "_contract",
          "type": "address"
        }
      ],
      "name": "SetUTokensContract",
      "type": "event"
    },
    {
      "inputs": [],
      "name": "DEFAULT_ADMIN_ROLE",
      "outputs": [
        {
          "internalType": "bytes32",
          "name": "",
          "type": "bytes32"
        }
      ],
      "stateMutability": "view",
      "type": "function"
    },
    {
      "inputs": [
        {
          "internalType": "bytes32",
          "name": "role",
          "type": "bytes32"
        }
      ],
      "name": "getRoleAdmin",
      "outputs": [
        {
          "internalType": "bytes32",
          "name": "",
          "type": "bytes32"
        }
      ],
      "stateMutability": "view",
      "type": "function"
    },
    {
      "inputs": [
        {
          "internalType": "bytes32",
          "name": "role",
          "type": "bytes32"
        },
        {
          "internalType": "uint256",
          "name": "index",
          "type": "uint256"
        }
      ],
      "name": "getRoleMember",
      "outputs": [
        {
          "internalType": "address",
          "name": "",
          "type": "address"
        }
      ],
      "stateMutability": "view",
      "type": "function"
    },
    {
      "inputs": [
        {
          "internalType": "bytes32",
          "name": "role",
          "type": "bytes32"
        }
      ],
      "name": "getRoleMemberCount",
      "outputs": [
        {
          "internalType": "uint256",
          "name": "",
          "type": "uint256"
        }
      ],
      "stateMutability": "view",
      "type": "function"
    },
    {
      "inputs": [
        {
          "internalType": "bytes32",
          "name": "role",
          "type": "bytes32"
        },
        {
          "internalType": "address",
          "name": "account",
          "type": "address"
        }
      ],
      "name": "grantRole",
      "outputs": [],
      "stateMutability": "nonpayable",
      "type": "function"
    },
    {
      "inputs": [
        {
          "internalType": "bytes32",
          "name": "role",
          "type": "bytes32"
        },
        {
          "internalType": "address",
          "name": "account",
          "type": "address"
        }
      ],
      "name": "hasRole",
      "outputs": [
        {
          "internalType": "bool",
          "name": "",
          "type": "bool"
        }
      ],
      "stateMutability": "view",
      "type": "function"
    },
    {
      "inputs": [
        {
          "internalType": "bytes32",
          "name": "role",
          "type": "bytes32"
        },
        {
          "internalType": "address",
          "name": "account",
          "type": "address"
        }
      ],
      "name": "renounceRole",
      "outputs": [],
      "stateMutability": "nonpayable",
      "type": "function"
    },
    {
      "inputs": [
        {
          "internalType": "bytes32",
          "name": "role",
          "type": "bytes32"
        },
        {
          "internalType": "address",
          "name": "account",
          "type": "address"
        }
      ],
      "name": "revokeRole",
      "outputs": [],
      "stateMutability": "nonpayable",
      "type": "function"
    },
    {
      "inputs": [
        {
          "internalType": "address",
          "name": "_sTokenContractAddress",
          "type": "address"
        },
        {
          "internalType": "uint256",
          "name": "valueDivisor",
          "type": "uint256"
        }
      ],
      "name": "initialize",
      "outputs": [],
      "stateMutability": "nonpayable",
      "type": "function"
    },
    {
      "inputs": [
        {
          "internalType": "address",
          "name": "to",
          "type": "address"
        },
        {
          "internalType": "address",
          "name": "from",
          "type": "address"
        },
        {
          "internalType": "uint256",
          "name": "amount",
          "type": "uint256"
        }
      ],
      "name": "getSTokenSupply",
      "outputs": [
        {
          "internalType": "uint256",
          "name": "sTokenSupply",
          "type": "uint256"
        }
      ],
      "stateMutability": "view",
      "type": "function"
    },
    {
      "inputs": [
        {
          "internalType": "address",
          "name": "uTokenContract",
          "type": "address"
        }
      ],
      "name": "setUTokensContract",
      "outputs": [],
      "stateMutability": "nonpayable",
      "type": "function"
    }
  ],
  "bytecode": "0x608060405234801561001057600080fd5b50610b37806100206000396000f3fe608060405234801561001057600080fd5b50600436106100a95760003560e01c806391d148541161007157806391d148541461019c578063a217fddf146101dc578063ca15c873146101e4578063cd6dc68714610201578063cfd0ec311461022d578063d547741f14610263576100a9565b806321bdf9e5146100ae578063248a9ca3146100d65780632f2ff15d1461010557806336568abe146101315780639010d07c1461015d575b600080fd5b6100d4600480360360208110156100c457600080fd5b50356001600160a01b031661028f565b005b6100f3600480360360208110156100ec57600080fd5b5035610322565b60408051918252519081900360200190f35b6100d46004803603604081101561011b57600080fd5b50803590602001356001600160a01b0316610337565b6100d46004803603604081101561014757600080fd5b50803590602001356001600160a01b031661039e565b6101806004803603604081101561017357600080fd5b50803590602001356103ff565b604080516001600160a01b039092168252519081900360200190f35b6101c8600480360360408110156101b257600080fd5b50803590602001356001600160a01b0316610420565b604080519115158252519081900360200190f35b6100f3610438565b6100f3600480360360208110156101fa57600080fd5b503561043d565b6100d46004803603604081101561021757600080fd5b506001600160a01b038135169060200135610454565b6100f36004803603606081101561024357600080fd5b506001600160a01b03813581169160208101359091169060400135610520565b6100d46004803603604081101561027957600080fd5b50803590602001356001600160a01b03166105a5565b6102a1600061029c6105fe565b610420565b6102d8576040805162461bcd60e51b815260206004820152600360248201526248553160e81b604482015290519081900360640190fd5b606780546001600160a01b0319166001600160a01b0383169081179091556040517ff745c285f36f88bea6af14d4d0f33dd9350cef7895216c1615b1caaee7857e0c90600090a250565b60009081526033602052604090206002015490565b6000828152603360205260409020600201546103559061029c6105fe565b6103905760405162461bcd60e51b815260040180806020018281038252602f815260200180610a46602f913960400191505060405180910390fd5b61039a8282610602565b5050565b6103a66105fe565b6001600160a01b0316816001600160a01b0316146103f55760405162461bcd60e51b815260040180806020018281038252602f815260200180610ad3602f913960400191505060405180910390fd5b61039a828261066b565b600082815260336020526040812061041790836106d4565b90505b92915050565b600082815260336020526040812061041790836106e0565b600081565b600081815260336020526040812061041a906106f5565b600054610100900460ff168061046d575061046d610700565b8061047b575060005460ff16155b6104b65760405162461bcd60e51b815260040180806020018281038252602e815260200180610aa5602e913960400191505060405180910390fd5b600054610100900460ff161580156104e1576000805460ff1961ff0019909116610100171660011790555b6104e9610711565b606580546001600160a01b0319166001600160a01b0385161790556066829055801561051b576000805461ff00191690555b505050565b606554604080516370a0823160e01b81526001600160a01b038681166004830152915160009392909216916370a0823191602480820192602092909190829003018186803b15801561057157600080fd5b505afa158015610585573d6000803e3d6000fd5b505050506040513d602081101561059b57600080fd5b5051949350505050565b6000828152603360205260409020600201546105c39061029c6105fe565b6103f55760405162461bcd60e51b8152600401808060200182810382526030815260200180610a756030913960400191505060405180910390fd5b3390565b600082815260336020526040902061061a90826107c3565b1561039a576106276105fe565b6001600160a01b0316816001600160a01b0316837f2f8788117e7eff1d82e926ec794901d17c78024a50270940304540a733656f0d60405160405180910390a45050565b600082815260336020526040902061068390826107d8565b1561039a576106906105fe565b6001600160a01b0316816001600160a01b0316837ff6391f5c32d9c69d2a47ea670b442974b53935d1edc7fd64eb21e047a839171b60405160405180910390a45050565b600061041783836107ed565b6000610417836001600160a01b038416610851565b600061041a82610869565b600061070b3061086d565b15905090565b600054610100900460ff168061072a575061072a610700565b80610738575060005460ff16155b6107735760405162461bcd60e51b815260040180806020018281038252602e815260200180610aa5602e913960400191505060405180910390fd5b600054610100900460ff1615801561079e576000805460ff1961ff0019909116610100171660011790555b6107a6610873565b6107ae610873565b80156107c0576000805461ff00191690555b50565b6000610417836001600160a01b038416610913565b6000610417836001600160a01b03841661095d565b8154600090821061082f5760405162461bcd60e51b8152600401808060200182810382526022815260200180610a246022913960400191505060405180910390fd5b82600001828154811061083e57fe5b9060005260206000200154905092915050565b60009081526001919091016020526040902054151590565b5490565b3b151590565b600054610100900460ff168061088c575061088c610700565b8061089a575060005460ff16155b6108d55760405162461bcd60e51b815260040180806020018281038252602e815260200180610aa5602e913960400191505060405180910390fd5b600054610100900460ff161580156107ae576000805460ff1961ff00199091166101001716600117905580156107c0576000805461ff001916905550565b600061091f8383610851565b6109555750815460018181018455600084815260208082209093018490558454848252828601909352604090209190915561041a565b50600061041a565b60008181526001830160205260408120548015610a19578354600019808301919081019060009087908390811061099057fe5b90600052602060002001549050808760000184815481106109ad57fe5b6000918252602080832090910192909255828152600189810190925260409020908401905586548790806109dd57fe5b6001900381819060005260206000200160009055905586600101600087815260200190815260200160002060009055600194505050505061041a565b600091505061041a56fe456e756d657261626c655365743a20696e646578206f7574206f6620626f756e6473416363657373436f6e74726f6c3a2073656e646572206d75737420626520616e2061646d696e20746f206772616e74416363657373436f6e74726f6c3a2073656e646572206d75737420626520616e2061646d696e20746f207265766f6b65496e697469616c697a61626c653a20636f6e747261637420697320616c726561647920696e697469616c697a6564416363657373436f6e74726f6c3a2063616e206f6e6c792072656e6f756e636520726f6c657320666f722073656c66a26469706673582212207aecc6ca4c0fd6b9bb0810a2e1afbe2a5f8ac4063336d734520de3c7af45b11b64736f6c63430007060033",
  "immutableReferences": {},
  "source": "// SPDX-License-Identifier: UNLICENSED\npragma solidity >= 0.7.0;\n\nimport \"./interfaces/IHolder.sol\";\nimport \"./interfaces/ISTokens.sol\";\nimport \"@openzeppelin/contracts-upgradeable/token/ERC20/IERC20Upgradeable.sol\";\nimport \"@openzeppelin/contracts-upgradeable/access/AccessControlUpgradeable.sol\";\nimport \"./interfaces/Uniswap/IUniswapV2ERC20.sol\";\nimport \"./interfaces/Uniswap/IUniswapV2Pair.sol\";\nimport \"@openzeppelin/contracts-upgradeable/math/SafeMathUpgradeable.sol\";\nimport \"@openzeppelin/contracts-upgradeable/proxy/Initializable.sol\";\nimport \"./interfaces/IUTokens.sol\";\n\ncontract HolderUniswap is IHolder, Initializable, AccessControlUpgradeable{\n\n    using SafeMathUpgradeable for uint256;\n    IERC20Upgradeable sTokenContract;\n\n    // constants defining access control ROLES\n    // bytes32 public constant PAUSER_ROLE = keccak256(\"PAUSER_ROLE\");\n\n    // mapping(address => uint256) private _holderContractRewardBalance;\n    // mapping(address => uint256) private _holderContractTotalRewardsTimestamp;\n\n    // variables pertaining to moving reward rate logic\n    uint256 private _valueDivisor;\n\n    IUTokens private _uTokens;\n\n    // mapping(address => uint256) private _rewardsTillTimestamp;\n\n    // mapping(address => address[3]) private _holderContractAddresses;\n    // mapping(address => bytes4[3]) private _holderContractFuncSigs;\n\n    // mapping(address => uint256) private _holderContractTotalLPTimeShare;\n    // mapping(address => mapping(address => uint256)) private _holderContractLPBalanceTimestamps;\n    // mapping(address => uint256) private _holderContractLPSupplyTimestamp;\n\n    /**\n   * @dev Constructor for initializing the Holder Uniswap contract.\n   * @param _sTokenContractAddress - address of the SToken contract.\n   * @param valueDivisor - valueDivisor set to 10^9.\n   */\n    function initialize(address _sTokenContractAddress, uint256 valueDivisor) public virtual initializer {\n        __AccessControl_init();\n        sTokenContract = IERC20Upgradeable(_sTokenContractAddress);\n        _valueDivisor = valueDivisor;\n    }\n\n    /**\n     * @dev get holder contract attributes\n     *\n     */\n    /* function getHolderAttributes(address whitelistedAddress, address userAddress) public view returns (uint256 lpBalance, uint256 lpSupply, uint256 sTokenSupply){\n        lpBalance = IUniswapV2ERC20(whitelistedAddress).balanceOf(userAddress);\n        lpSupply = IUniswapV2ERC20(whitelistedAddress).totalSupply();\n        sTokenSupply = sTokenContract.balanceOf(whitelistedAddress);\n    } */\n\n    /**\n     * @dev get SToken reserve supply of the whitelisted contract \n     *\n     */\n    function getSTokenSupply(address to, address from, uint256 amount) public override view returns (uint256 sTokenSupply){\n        sTokenSupply = sTokenContract.balanceOf(to);\n        return sTokenSupply;\n    }\n\n    /**\n    * @dev Calculate pending rewards from the provided 'principal' & 'lastRewardTimestamp'. The rate is the moving reward rate.\n    * @param principal: principal amount\n    * @param lastRewardTimestamp: timestamp of last reward calculation performed\n    * @param rewardRate: reward rate in an array\n    * @param _rewardBlockTimestamp: reward block timestamp in an array\n    */\n    /* function _calculatePendingRewards(uint256 principal, uint256 lastRewardTimestamp, uint256[] memory rewardRate, uint256[] memory _rewardBlockTimestamp) internal view returns (uint256 pendingRewards){\n        uint256 _index;\n        uint256 _rewardBlocks;\n        uint256 _simpleInterestOfInterval;\n        for(_index = _rewardBlockTimestamp.length.sub(1); _index >= 0;){\n            // logic applies for all indexes of array except last index\n            if(_index < _rewardBlockTimestamp.length.sub(1)) {\n                if(_rewardBlockTimestamp[_index] > lastRewardTimestamp) {\n                    _rewardBlocks = (_rewardBlockTimestamp[_index.add(1)]).sub(_rewardBlockTimestamp[_index]);\n                    _simpleInterestOfInterval = (((principal.mul(rewardRate[_index])).mul(_rewardBlocks))).div(100 * _valueDivisor);\n                    pendingRewards = pendingRewards.add(_simpleInterestOfInterval);\n                }\n                else {\n                    _rewardBlocks = (_rewardBlockTimestamp[_index.add(1)]).sub(lastRewardTimestamp);\n                    _simpleInterestOfInterval = (((principal.mul(rewardRate[_index])).mul(_rewardBlocks))).div(100 * _valueDivisor);\n                    pendingRewards = pendingRewards.add(_simpleInterestOfInterval);\n                    break;\n                }\n            }\n            // logic applies only for the last index of array\n            else {\n                if(_rewardBlockTimestamp[_index] > lastRewardTimestamp) {\n                    _rewardBlocks = (block.timestamp).sub(_rewardBlockTimestamp[_index]);\n                    _simpleInterestOfInterval = (((principal.mul(rewardRate[_index])).mul(_rewardBlocks))).div(100 * _valueDivisor);\n                    pendingRewards = pendingRewards.add(_simpleInterestOfInterval);\n                }\n                else {\n                    _rewardBlocks = (block.timestamp).sub(lastRewardTimestamp);\n                    _simpleInterestOfInterval = (((principal.mul(rewardRate[_index])).mul(_rewardBlocks))).div(100 * _valueDivisor);\n                    pendingRewards = pendingRewards.add(_simpleInterestOfInterval);\n                    break;\n                }\n            }\n\n            if(_index == 0) break;\n            else {\n                _index = _index.sub(1);\n            }\n        }\n        return pendingRewards;\n    } */\n\n    /**\n    * @dev redeem rewards from holder contract\n    * @param whitelistedAddress: contract address of the liquidity pool/product\n    * @param rewardRate: reward rate in an array\n    * @param rewardBlockTimestamp: reward block timestamp in an array\n    */\n    /* function calculateHolderRewards(address whitelistedAddress, address userAddress, uint256[] calldata rewardRate, uint256[] calldata rewardBlockTimestamp) public override returns (bool){\n\n        // CALCULATE TOTAL REWARD POOL OF HOLDER CONTRACT USING STOKEN RESERVE TOTAL SUPPLY::\n        uint256 _sTokenReserveSupply;\n        uint256 _lpTokenBalance;\n        uint256 _lpTokenSupply;\n\n        // get the lpBalance, lpSupply and sTokenReserveSupply to calculate reward shares\n        (_lpTokenBalance, _lpTokenSupply, _sTokenReserveSupply) =  getHolderAttributes(whitelistedAddress, userAddress);\n\n\n        // get the last reward timestamp of sToken reserve\n        uint256 _sTokenReserveTimestamp = _holderContractTotalRewardsTimestamp[whitelistedAddress];\n        uint256 _additionalRewardBalance;\n\n        // calculate the new rewards accrued and get the value of updated total rewards (without saving to state)\n        if(_sTokenReserveSupply != 0)\n            _additionalRewardBalance = _calculatePendingRewards(_sTokenReserveSupply, _sTokenReserveTimestamp, rewardRate, rewardBlockTimestamp);\n\n        bool rewardBalance = calculateRewardsBalance(whitelistedAddress, _additionalRewardBalance);\n\n        // add the additional rewards generated to the existing total pool\n        uint256 _totalRewardBalance = _holderContractRewardBalance[whitelistedAddress].add(_additionalRewardBalance);\n\n        // update the reward timestamp of whitelisted contract\n        _holderContractTotalRewardsTimestamp[whitelistedAddress] = block.timestamp;\n\n        // update the reward balance of whitelisted contract\n        // _holderContractRewardBalance[whitelistedAddress] = _totalRewardBalance;\n\n        // OR\n\n        // Directly send the rewards to the holder address (this address itself)\n        if(_additionalRewardBalance>0) {\n            // Mint new uTokens and send to the callers account\n            _uTokens.mint(address(this), _additionalRewardBalance);\n        }\n\n        // find the simple schematic of transfer of value between SToken contract and holder contract, for whitelisted address\n        // issue with separated holder logic:\n        // 1. need to send rewardRate and rewardTimestamps dynamic array to holder contract func also \n        // 2. holder contract need to execute mint function\n\n        emit CalculateHolderRewards(address(this), _additionalRewardBalance, block.timestamp);\n        return rewardBalance;\n    } */\n\n    /**\n    * @dev redeem rewards from holder contract\n    */\n    /* function calculateRewardsBalance(address whitelistedAddress, uint256 _additionalRewardBalance) internal returns (bool){\n        // add the additional rewards generated to the existing total pool\n        uint256 _totalRewardBalance = _holderContractRewardBalance[whitelistedAddress].add(_additionalRewardBalance);\n\n        // update the reward timestamp of whitelisted contract\n        _holderContractTotalRewardsTimestamp[whitelistedAddress] = block.timestamp;\n\n        // update the reward balance of whitelisted contract\n        // _holderContractRewardBalance[whitelistedAddress] = _totalRewardBalance;\n\n        // OR\n\n        // Directly send the rewards to the holder address (this address itself)\n        if(_additionalRewardBalance>0) {\n            // Mint new uTokens and send to the callers account\n            _uTokens.mint(address(this), _additionalRewardBalance);\n        }\n\n        // find the simple schematic of transfer of value between SToken contract and holder contract, for whitelisted address\n        // issue with separated holder logic:\n        // 1. need to send rewardRate and rewardTimestamps dynamic array to holder contract func also\n        // 2. holder contract need to execute mint function\n        \n\n        emit CalculateHolderRewards(address(this), _totalRewardBalance,  _additionalRewardBalance, block.timestamp);\n        return true;\n\n    } */\n\n        /*\n        * @dev Set 'contract address', called from admin\n        * @param uTokenContract: utoken contract address\n        *\n        * Emits a {SetUTokensContract} event with '_contract' set to the utoken contract address.\n        *\n        */\n    function setUTokensContract(address uTokenContract) public virtual override {\n        require(hasRole(DEFAULT_ADMIN_ROLE, _msgSender()), \"HU1\");\n        _uTokens = IUTokens(uTokenContract);\n        emit SetUTokensContract(uTokenContract);\n    }\n\n    /* function getLPTimeShares(address whitelistedAddress, address userAddress, uint256 lpTokenBalance, uint256 lpTokenSupply) public view returns (uint256 lpBalanceTimeShare, uint256 lpTotalSupplyTimeShare){\n        uint256 _lpNewSupplyTimeShare;\n        uint256 _lastLPBalanceShareTimeInterval = block.timestamp.sub(_holderContractLPBalanceTimestamps[whitelistedAddress][userAddress]);\n        // calculate the time share of balance of user\n        // (dont use _calculatePendingRewards since reward rate is irrelevant here)\n        if(lpTokenBalance != 0 &&  _lastLPBalanceShareTimeInterval != 0) {\n            lpBalanceTimeShare = lpTokenBalance.mul(_lastLPBalanceShareTimeInterval);\n        }\n\n        // CALCULATE LPTIMESHARE OF LP TOTAL SUPPLY OF CONTRACT::\n        // get the LP total Supply's last timestamp for LPTimeShare calculation\n        // uint256 _lastLPSupplyShareTimestamp = _holderContractLPSupplyTimestamp[whitelistedAddress];\n        uint256 _lastLPSupplyShareTimeInterval = block.timestamp.sub(_holderContractLPSupplyTimestamp[whitelistedAddress]);\n        // calculate the new incoming time share of total supply of contract\n        // (dont use _calculatePendingRewards since reward rate is irrelevant here)\n        if(lpTokenSupply != 0 &&  _lastLPSupplyShareTimeInterval != 0) {\n            _lpNewSupplyTimeShare = lpTokenSupply.mul(_lastLPSupplyShareTimeInterval);\n        }\n\n        // calculate the total time share of total supply of contract\n        lpTotalSupplyTimeShare = _holderContractTotalLPTimeShare[whitelistedAddress].add(_lpNewSupplyTimeShare);\n        assert(lpTotalSupplyTimeShare != 0);\n\n    } */\n\n    /* function getHolderAttributes(address whitelistedAddress, address userAddress) public view returns (uint256 lpBalance, uint256 lpSupply, uint256 sTokenSupply){\n        // copy all holder logic attributes to local variables\n        address _lpTokenERC20ContractAddress = _holderContractAddresses[whitelistedAddress][1];\n        address _sTokenReserveContractAddress = _holderContractAddresses[whitelistedAddress][2];\n\n        bytes4 _lpTokenBalanceFuncSig = _holderContractFuncSigs[whitelistedAddress][0];\n        bytes4 _lpTokenSupplyFuncSig = _holderContractFuncSigs[whitelistedAddress][1];\n        bytes4 _sTokenSupplyFuncSig = _holderContractFuncSigs[whitelistedAddress][2];\n\n        // get the SToken Reserve Supply\n        (bool success, bytes memory data) =\n        _sTokenReserveContractAddress.staticcall(abi.encodeWithSelector(_sTokenSupplyFuncSig, whitelistedAddress));\n        require(success && data.length >= 32, \"ST7\");\n        sTokenSupply =  abi.decode(data, (uint256));\n\n        // get the LP Token balance of user\n        if(userAddress != address(0)) {\n            (bool success2, bytes memory data2) =\n            _lpTokenERC20ContractAddress.staticcall(abi.encodeWithSelector(_lpTokenBalanceFuncSig, userAddress));\n            require(success2 && data2.length >= 32, \"ST8\");\n            lpBalance =  abi.decode(data2, (uint256));\n        }\n        else\n            lpBalance = 0;\n\n        // get the LP Token total supply of ERC20-LP-Contract\n        if(userAddress != address(0)) {\n\n            (bool success3, bytes memory data3) =\n            _lpTokenERC20ContractAddress.staticcall(abi.encodeWithSelector(_lpTokenSupplyFuncSig));\n            require(success3 && data3.length >= 32, \"ST9\");\n            lpSupply =  abi.decode(data3, (uint256));\n        }\n        else\n            lpSupply = 0;\n\n    } */\n\n}",
  "sourcePath": "/home/aditimahesh/Documents/Work/Persistence/go/src/github.com/persistenceOne/pStakeSmartContracts/contracts/HolderUniswap.sol",
  "compiler": {
    "name": "solc",
    "version": "0.7.6+commit.7338295f.Emscripten.clang"
  },
  "schemaVersion": "3.3.4",
  "updatedAt": "2021-07-05T12:02:06.505Z",
  "devdoc": {
    "kind": "dev",
    "methods": {
      "getRoleAdmin(bytes32)": {
        "details": "Returns the admin role that controls `role`. See {grantRole} and {revokeRole}. To change a role's admin, use {_setRoleAdmin}."
      },
      "getRoleMember(bytes32,uint256)": {
        "details": "Returns one of the accounts that have `role`. `index` must be a value between 0 and {getRoleMemberCount}, non-inclusive. Role bearers are not sorted in any particular way, and their ordering may change at any point. WARNING: When using {getRoleMember} and {getRoleMemberCount}, make sure you perform all queries on the same block. See the following https://forum.openzeppelin.com/t/iterating-over-elements-on-enumerableset-in-openzeppelin-contracts/2296[forum post] for more information."
      },
      "getRoleMemberCount(bytes32)": {
        "details": "Returns the number of accounts that have `role`. Can be used together with {getRoleMember} to enumerate all bearers of a role."
      },
      "getSTokenSupply(address,address,uint256)": {
        "details": "get SToken reserve supply of the whitelisted contract "
      },
      "grantRole(bytes32,address)": {
        "details": "Grants `role` to `account`. If `account` had not been already granted `role`, emits a {RoleGranted} event. Requirements: - the caller must have ``role``'s admin role."
      },
      "hasRole(bytes32,address)": {
        "details": "Returns `true` if `account` has been granted `role`."
      },
      "initialize(address,uint256)": {
        "details": "Constructor for initializing the Holder Uniswap contract.",
        "params": {
          "_sTokenContractAddress": "- address of the SToken contract.",
          "valueDivisor": "- valueDivisor set to 10^9."
        }
      },
      "renounceRole(bytes32,address)": {
        "details": "Revokes `role` from the calling account. Roles are often managed via {grantRole} and {revokeRole}: this function's purpose is to provide a mechanism for accounts to lose their privileges if they are compromised (such as when a trusted device is misplaced). If the calling account had been granted `role`, emits a {RoleRevoked} event. Requirements: - the caller must be `account`."
      },
      "revokeRole(bytes32,address)": {
        "details": "Revokes `role` from `account`. If `account` had been granted `role`, emits a {RoleRevoked} event. Requirements: - the caller must have ``role``'s admin role."
      },
      "setUTokensContract(address)": {
        "details": "redeem rewards from holder contract"
      }
    },
    "version": 1
  },
  "userdoc": {
    "kind": "user",
    "methods": {},
    "version": 1
  }
}