{
  "contractName": "HolderUniswap",
  "abi": [
    {
      "inputs": [
        {
          "internalType": "address",
          "name": "_sTokenContractAddress",
          "type": "address"
        }
      ],
      "name": "initialize",
      "outputs": [],
      "stateMutability": "nonpayable",
      "type": "function"
    },
    {
      "inputs": [
        {
          "internalType": "address",
          "name": "whitelistedAddress",
          "type": "address"
        },
        {
          "internalType": "address",
          "name": "userAddress",
          "type": "address"
        }
      ],
      "name": "getHolderAttributes",
      "outputs": [
        {
          "internalType": "uint256",
          "name": "lpBalance",
          "type": "uint256"
        },
        {
          "internalType": "uint256",
          "name": "lpSupply",
          "type": "uint256"
        },
        {
          "internalType": "uint256",
          "name": "sTokenSupply",
          "type": "uint256"
        }
      ],
      "stateMutability": "view",
      "type": "function"
    }
  ],
  "bytecode": "0x608060405234801561001057600080fd5b5061036a806100206000396000f3fe608060405234801561001057600080fd5b50600436106100365760003560e01c806315a94b2a1461003b578063c4d66de814610087575b600080fd5b6100696004803603604081101561005157600080fd5b506001600160a01b03813581169160200135166100af565b60408051938452602084019290925282820152519081900360600190f35b6100ad6004803603602081101561009d57600080fd5b50356001600160a01b031661022a565b005b6000806000846001600160a01b03166370a08231856040518263ffffffff1660e01b815260040180826001600160a01b0316815260200191505060206040518083038186803b15801561010157600080fd5b505afa158015610115573d6000803e3d6000fd5b505050506040513d602081101561012b57600080fd5b5051604080516318160ddd60e01b815290519194506001600160a01b038716916318160ddd91600480820192602092909190829003018186803b15801561017157600080fd5b505afa158015610185573d6000803e3d6000fd5b505050506040513d602081101561019b57600080fd5b5051600054604080516370a0823160e01b81526001600160a01b03898116600483015291519395506201000090920416916370a0823191602480820192602092909190829003018186803b1580156101f257600080fd5b505afa158015610206573d6000803e3d6000fd5b505050506040513d602081101561021c57600080fd5b505192959194509192509050565b600054610100900460ff168061024357506102436102ef565b80610251575060005460ff16155b61028c5760405162461bcd60e51b815260040180806020018281038252602e815260200180610307602e913960400191505060405180910390fd5b600054610100900460ff161580156102b7576000805460ff1961ff0019909116610100171660011790555b6000805462010000600160b01b031916620100006001600160a01b0385160217905580156102eb576000805461ff00191690555b5050565b60006102fa30610300565b15905090565b3b15159056fe496e697469616c697a61626c653a20636f6e747261637420697320616c726561647920696e697469616c697a6564a2646970667358221220888ce588e8e0ec911e523cef6f91f5c607f5d96db5641bc65a83abff90e6188964736f6c63430007060033",
  "immutableReferences": {},
  "source": "// SPDX-License-Identifier: UNLICENSED\npragma solidity ^0.7.0;\n\nimport \"./interfaces/IHolder.sol\";\n// import \"./interfaces/ISTokens.sol\"\nimport \"@openzeppelin/contracts-upgradeable/token/ERC20/IERC20Upgradeable.sol\";\nimport \"./interfaces/Uniswap/IUniswapV2ERC20.sol\";\nimport \"./interfaces/Uniswap/IUniswapV2Pair.sol\";\nimport \"@openzeppelin/contracts-upgradeable/math/SafeMathUpgradeable.sol\";\nimport \"@openzeppelin/contracts-upgradeable/proxy/Initializable.sol\";\n\ncontract HolderUniswap is IHolder, Initializable{\n\n    using SafeMathUpgradeable for uint256;\n    IERC20Upgradeable sTokenContract;\n\n    function initialize(address _sTokenContractAddress) public virtual initializer {\n        sTokenContract = IERC20Upgradeable(_sTokenContractAddress);\n    }\n\n    function getHolderAttributes(address whitelistedAddress, address userAddress) public view override returns (uint256 lpBalance, uint256 lpSupply, uint256 sTokenSupply){\n        lpBalance = IUniswapV2ERC20(whitelistedAddress).balanceOf(userAddress);\n        lpSupply = IUniswapV2ERC20(whitelistedAddress).totalSupply();\n        sTokenSupply = sTokenContract.balanceOf(whitelistedAddress);\n    }\n\n}\n",
  "sourcePath": "/home/aditimahesh/Documents/Work/Persistence/go/src/github.com/persistenceOne/pStakeSmartContracts/contracts/HolderUniswap.sol",
  "compiler": {
    "name": "solc",
    "version": "0.7.6+commit.7338295f.Emscripten.clang"
  },
  "schemaVersion": "3.3.4",
  "updatedAt": "2021-06-15T09:10:42.555Z",
  "devdoc": {
    "kind": "dev",
    "methods": {
      "getHolderAttributes(address,address)": {
        "details": "provides the three attributes that are required to calculate the user's UToken rewards from Holder Logic. Returns the three uint256 values - user's LP Token balance, Total supply of LP Tokens & total supply of SToken reserve. Emits an event."
      }
    },
    "version": 1
  },
  "userdoc": {
    "kind": "user",
    "methods": {},
    "version": 1
  }
}