{
  "contractName": "LiquidStaking",
  "abi": [
    {
      "anonymous": false,
      "inputs": [
        {
          "indexed": false,
          "internalType": "address",
          "name": "account",
          "type": "address"
        }
      ],
      "name": "Paused",
      "type": "event"
    },
    {
      "anonymous": false,
      "inputs": [
        {
          "indexed": true,
          "internalType": "bytes32",
          "name": "role",
          "type": "bytes32"
        },
        {
          "indexed": true,
          "internalType": "bytes32",
          "name": "previousAdminRole",
          "type": "bytes32"
        },
        {
          "indexed": true,
          "internalType": "bytes32",
          "name": "newAdminRole",
          "type": "bytes32"
        }
      ],
      "name": "RoleAdminChanged",
      "type": "event"
    },
    {
      "anonymous": false,
      "inputs": [
        {
          "indexed": true,
          "internalType": "bytes32",
          "name": "role",
          "type": "bytes32"
        },
        {
          "indexed": true,
          "internalType": "address",
          "name": "account",
          "type": "address"
        },
        {
          "indexed": true,
          "internalType": "address",
          "name": "sender",
          "type": "address"
        }
      ],
      "name": "RoleGranted",
      "type": "event"
    },
    {
      "anonymous": false,
      "inputs": [
        {
          "indexed": true,
          "internalType": "bytes32",
          "name": "role",
          "type": "bytes32"
        },
        {
          "indexed": true,
          "internalType": "address",
          "name": "account",
          "type": "address"
        },
        {
          "indexed": true,
          "internalType": "address",
          "name": "sender",
          "type": "address"
        }
      ],
      "name": "RoleRevoked",
      "type": "event"
    },
    {
      "anonymous": false,
      "inputs": [
        {
          "indexed": false,
          "internalType": "uint256",
          "name": "stakeFee",
          "type": "uint256"
        },
        {
          "indexed": false,
          "internalType": "uint256",
          "name": "unstakeFee",
          "type": "uint256"
        }
      ],
      "name": "SetFees",
      "type": "event"
    },
    {
      "anonymous": false,
      "inputs": [
        {
          "indexed": false,
          "internalType": "uint256",
          "name": "minStake",
          "type": "uint256"
        },
        {
          "indexed": false,
          "internalType": "uint256",
          "name": "minUnstake",
          "type": "uint256"
        }
      ],
      "name": "SetMinimumValues",
      "type": "event"
    },
    {
      "anonymous": false,
      "inputs": [
        {
          "indexed": true,
          "internalType": "address",
          "name": "_contract",
          "type": "address"
        }
      ],
      "name": "SetSTokensContract",
      "type": "event"
    },
    {
      "anonymous": false,
      "inputs": [
        {
          "indexed": true,
          "internalType": "address",
          "name": "_contract",
          "type": "address"
        }
      ],
      "name": "SetUTokensContract",
      "type": "event"
    },
    {
      "anonymous": false,
      "inputs": [
        {
          "indexed": false,
          "internalType": "uint256",
          "name": "unstakeEpoch",
          "type": "uint256"
        },
        {
          "indexed": false,
          "internalType": "uint256",
          "name": "unstakeEpochPrevious",
          "type": "uint256"
        }
      ],
      "name": "SetUnstakeEpoch",
      "type": "event"
    },
    {
      "anonymous": false,
      "inputs": [
        {
          "indexed": true,
          "internalType": "address",
          "name": "accountAddress",
          "type": "address"
        },
        {
          "indexed": false,
          "internalType": "uint256",
          "name": "tokens",
          "type": "uint256"
        },
        {
          "indexed": false,
          "internalType": "uint256",
          "name": "timestamp",
          "type": "uint256"
        }
      ],
      "name": "StakeTokens",
      "type": "event"
    },
    {
      "anonymous": false,
      "inputs": [
        {
          "indexed": false,
          "internalType": "address",
          "name": "account",
          "type": "address"
        }
      ],
      "name": "Unpaused",
      "type": "event"
    },
    {
      "anonymous": false,
      "inputs": [
        {
          "indexed": true,
          "internalType": "address",
          "name": "accountAddress",
          "type": "address"
        },
        {
          "indexed": false,
          "internalType": "uint256",
          "name": "tokens",
          "type": "uint256"
        },
        {
          "indexed": false,
          "internalType": "uint256",
          "name": "timestamp",
          "type": "uint256"
        }
      ],
      "name": "UnstakeTokens",
      "type": "event"
    },
    {
      "anonymous": false,
      "inputs": [
        {
          "indexed": true,
          "internalType": "address",
          "name": "accountAddress",
          "type": "address"
        },
        {
          "indexed": false,
          "internalType": "uint256",
          "name": "tokens",
          "type": "uint256"
        },
        {
          "indexed": false,
          "internalType": "uint256",
          "name": "timestamp",
          "type": "uint256"
        }
      ],
      "name": "WithdrawUnstakeTokens",
      "type": "event"
    },
    {
      "inputs": [],
      "name": "DEFAULT_ADMIN_ROLE",
      "outputs": [
        {
          "internalType": "bytes32",
          "name": "",
          "type": "bytes32"
        }
      ],
      "stateMutability": "view",
      "type": "function",
      "constant": true
    },
    {
      "inputs": [],
      "name": "PAUSER_ROLE",
      "outputs": [
        {
          "internalType": "bytes32",
          "name": "",
          "type": "bytes32"
        }
      ],
      "stateMutability": "view",
      "type": "function",
      "constant": true
    },
    {
      "inputs": [
        {
          "internalType": "bytes32",
          "name": "role",
          "type": "bytes32"
        }
      ],
      "name": "getRoleAdmin",
      "outputs": [
        {
          "internalType": "bytes32",
          "name": "",
          "type": "bytes32"
        }
      ],
      "stateMutability": "view",
      "type": "function",
      "constant": true
    },
    {
      "inputs": [
        {
          "internalType": "bytes32",
          "name": "role",
          "type": "bytes32"
        },
        {
          "internalType": "uint256",
          "name": "index",
          "type": "uint256"
        }
      ],
      "name": "getRoleMember",
      "outputs": [
        {
          "internalType": "address",
          "name": "",
          "type": "address"
        }
      ],
      "stateMutability": "view",
      "type": "function",
      "constant": true
    },
    {
      "inputs": [
        {
          "internalType": "bytes32",
          "name": "role",
          "type": "bytes32"
        }
      ],
      "name": "getRoleMemberCount",
      "outputs": [
        {
          "internalType": "uint256",
          "name": "",
          "type": "uint256"
        }
      ],
      "stateMutability": "view",
      "type": "function",
      "constant": true
    },
    {
      "inputs": [
        {
          "internalType": "bytes32",
          "name": "role",
          "type": "bytes32"
        },
        {
          "internalType": "address",
          "name": "account",
          "type": "address"
        }
      ],
      "name": "grantRole",
      "outputs": [],
      "stateMutability": "nonpayable",
      "type": "function"
    },
    {
      "inputs": [
        {
          "internalType": "bytes32",
          "name": "role",
          "type": "bytes32"
        },
        {
          "internalType": "address",
          "name": "account",
          "type": "address"
        }
      ],
      "name": "hasRole",
      "outputs": [
        {
          "internalType": "bool",
          "name": "",
          "type": "bool"
        }
      ],
      "stateMutability": "view",
      "type": "function",
      "constant": true
    },
    {
      "inputs": [],
      "name": "paused",
      "outputs": [
        {
          "internalType": "bool",
          "name": "",
          "type": "bool"
        }
      ],
      "stateMutability": "view",
      "type": "function",
      "constant": true
    },
    {
      "inputs": [
        {
          "internalType": "bytes32",
          "name": "role",
          "type": "bytes32"
        },
        {
          "internalType": "address",
          "name": "account",
          "type": "address"
        }
      ],
      "name": "renounceRole",
      "outputs": [],
      "stateMutability": "nonpayable",
      "type": "function"
    },
    {
      "inputs": [
        {
          "internalType": "bytes32",
          "name": "role",
          "type": "bytes32"
        },
        {
          "internalType": "address",
          "name": "account",
          "type": "address"
        }
      ],
      "name": "revokeRole",
      "outputs": [],
      "stateMutability": "nonpayable",
      "type": "function"
    },
    {
      "inputs": [
        {
          "internalType": "address",
          "name": "uAddress",
          "type": "address"
        },
        {
          "internalType": "address",
          "name": "sAddress",
          "type": "address"
        },
        {
          "internalType": "address",
          "name": "pauserAddress",
          "type": "address"
        },
        {
          "internalType": "uint256",
          "name": "valueDivisor",
          "type": "uint256"
        }
      ],
      "name": "initialize",
      "outputs": [],
      "stateMutability": "nonpayable",
      "type": "function"
    },
    {
      "inputs": [
        {
          "internalType": "uint256",
          "name": "stakeFee",
          "type": "uint256"
        },
        {
          "internalType": "uint256",
          "name": "unstakeFee",
          "type": "uint256"
        }
      ],
      "name": "setFees",
      "outputs": [
        {
          "internalType": "bool",
          "name": "success",
          "type": "bool"
        }
      ],
      "stateMutability": "nonpayable",
      "type": "function"
    },
    {
      "inputs": [],
      "name": "getStakeUnstakeProps",
      "outputs": [
        {
          "internalType": "uint256",
          "name": "stakeFee",
          "type": "uint256"
        },
        {
          "internalType": "uint256",
          "name": "unstakeFee",
          "type": "uint256"
        },
        {
          "internalType": "uint256",
          "name": "minStake",
          "type": "uint256"
        },
        {
          "internalType": "uint256",
          "name": "minUnstake",
          "type": "uint256"
        },
        {
          "internalType": "uint256",
          "name": "valueDivisor",
          "type": "uint256"
        },
        {
          "internalType": "uint256",
          "name": "epochInterval",
          "type": "uint256"
        },
        {
          "internalType": "uint256",
          "name": "unstakeEpoch",
          "type": "uint256"
        },
        {
          "internalType": "uint256",
          "name": "unstakeEpochPrevious",
          "type": "uint256"
        },
        {
          "internalType": "uint256",
          "name": "unstakingLockTime",
          "type": "uint256"
        }
      ],
      "stateMutability": "view",
      "type": "function",
      "constant": true
    },
    {
      "inputs": [
        {
          "internalType": "uint256",
          "name": "minStake",
          "type": "uint256"
        },
        {
          "internalType": "uint256",
          "name": "minUnstake",
          "type": "uint256"
        }
      ],
      "name": "setMinimumValues",
      "outputs": [
        {
          "internalType": "bool",
          "name": "success",
          "type": "bool"
        }
      ],
      "stateMutability": "nonpayable",
      "type": "function"
    },
    {
      "inputs": [
        {
          "internalType": "uint256",
          "name": "unstakeEpoch",
          "type": "uint256"
        },
        {
          "internalType": "uint256",
          "name": "unstakeEpochPrevious",
          "type": "uint256"
        }
      ],
      "name": "setUnstakeEpoch",
      "outputs": [
        {
          "internalType": "bool",
          "name": "success",
          "type": "bool"
        }
      ],
      "stateMutability": "nonpayable",
      "type": "function"
    },
    {
      "inputs": [
        {
          "internalType": "address",
          "name": "uAddress",
          "type": "address"
        }
      ],
      "name": "setUTokensContract",
      "outputs": [],
      "stateMutability": "nonpayable",
      "type": "function"
    },
    {
      "inputs": [
        {
          "internalType": "address",
          "name": "sAddress",
          "type": "address"
        }
      ],
      "name": "setSTokensContract",
      "outputs": [],
      "stateMutability": "nonpayable",
      "type": "function"
    },
    {
      "inputs": [
        {
          "internalType": "address",
          "name": "to",
          "type": "address"
        },
        {
          "internalType": "uint256",
          "name": "utok",
          "type": "uint256"
        }
      ],
      "name": "stake",
      "outputs": [
        {
          "internalType": "bool",
          "name": "",
          "type": "bool"
        }
      ],
      "stateMutability": "nonpayable",
      "type": "function"
    },
    {
      "inputs": [
        {
          "internalType": "address",
          "name": "to",
          "type": "address"
        },
        {
          "internalType": "uint256",
          "name": "stok",
          "type": "uint256"
        }
      ],
      "name": "unStake",
      "outputs": [
        {
          "internalType": "bool",
          "name": "",
          "type": "bool"
        }
      ],
      "stateMutability": "nonpayable",
      "type": "function"
    },
    {
      "inputs": [
        {
          "internalType": "uint256",
          "name": "_unstakeTimestamp",
          "type": "uint256"
        }
      ],
      "name": "getUnstakeEpochMilestone",
      "outputs": [
        {
          "internalType": "uint256",
          "name": "unstakeEpochMilestone",
          "type": "uint256"
        }
      ],
      "stateMutability": "view",
      "type": "function",
      "constant": true
    },
    {
      "inputs": [
        {
          "internalType": "uint256",
          "name": "_unstakeTimestamp",
          "type": "uint256"
        }
      ],
      "name": "getUnstakeTime",
      "outputs": [
        {
          "internalType": "uint256",
          "name": "unstakeTime",
          "type": "uint256"
        },
        {
          "internalType": "uint256",
          "name": "unstakeEpoch",
          "type": "uint256"
        },
        {
          "internalType": "uint256",
          "name": "unstakeEpochPrevious",
          "type": "uint256"
        }
      ],
      "stateMutability": "view",
      "type": "function",
      "constant": true
    },
    {
      "inputs": [
        {
          "internalType": "address",
          "name": "staker",
          "type": "address"
        }
      ],
      "name": "withdrawUnstakedTokens",
      "outputs": [],
      "stateMutability": "nonpayable",
      "type": "function"
    },
    {
      "inputs": [
        {
          "internalType": "address",
          "name": "staker",
          "type": "address"
        }
      ],
      "name": "getTotalUnbondedTokens",
      "outputs": [
        {
          "internalType": "uint256",
          "name": "unbondingTokens",
          "type": "uint256"
        }
      ],
      "stateMutability": "view",
      "type": "function",
      "constant": true
    },
    {
      "inputs": [],
      "name": "pause",
      "outputs": [
        {
          "internalType": "bool",
          "name": "success",
          "type": "bool"
        }
      ],
      "stateMutability": "nonpayable",
      "type": "function"
    },
    {
      "inputs": [],
      "name": "unpause",
      "outputs": [
        {
          "internalType": "bool",
          "name": "success",
          "type": "bool"
        }
      ],
      "stateMutability": "nonpayable",
      "type": "function"
    }
  ],
  "bytecode": "0x608060405234801561001057600080fd5b506123f9806100206000396000f3fe608060405234801561001057600080fd5b50600436106101735760003560e01c8063819020a0116100de578063a217fddf11610097578063cf756fdf11610071578063cf756fdf14610491578063d547741f146104cd578063d9393814146104f9578063e63ab1e91461052557610173565b8063a217fddf14610440578063adc9772e14610448578063ca15c8731461047457610173565b8063819020a01461034f5780638456cb591461037557806385e328401461037d5780639010d07c146103b857806391d14854146103f75780639b9eea461461042357610173565b806336568abe1161013057806336568abe1461027e5780633f4ba83a146102aa57806351db00e7146102b257806355f2323f146102d55780635c975abb146103245780635d5fd0991461032c57610173565b80630273b70d146101785780630b78f9c0146101b057806321bdf9e5146101e7578063248a9ca31461020f5780632e31fab81461022c5780632f2ff15d14610252575b600080fd5b61019e6004803603602081101561018e57600080fd5b50356001600160a01b031661052d565b60408051918252519081900360200190f35b6101d3600480360360408110156101c657600080fd5b5080359060200135610618565b604080519115158252519081900360200190f35b61020d600480360360208110156101fd57600080fd5b50356001600160a01b03166106b5565b005b61019e6004803603602081101561022557600080fd5b5035610747565b61020d6004803603602081101561024257600080fd5b50356001600160a01b031661075c565b61020d6004803603604081101561026857600080fd5b50803590602001356001600160a01b03166107ee565b61020d6004803603604081101561029457600080fd5b50803590602001356001600160a01b0316610855565b6101d36108b6565b6101d3600480360360408110156102c857600080fd5b508035906020013561091b565b6102dd6109b2565b60408051998a5260208a0198909852888801969096526060880194909452608087019290925260a086015260c085015260e084015261010083015251908190036101200190f35b6101d36109d5565b6101d36004803603604081101561034257600080fd5b50803590602001356109de565b61020d6004803603602081101561036557600080fd5b50356001600160a01b0316610a75565b6101d3610d83565b61039a6004803603602081101561039357600080fd5b5035610de2565b60408051938452602084019290925282820152519081900360600190f35b6103db600480360360408110156103ce57600080fd5b5080359060200135610e2c565b604080516001600160a01b039092168252519081900360200190f35b6101d36004803603604081101561040d57600080fd5b50803590602001356001600160a01b0316610e4b565b61019e6004803603602081101561043957600080fd5b5035610e63565b61019e610eea565b6101d36004803603604081101561045e57600080fd5b506001600160a01b038135169060200135610eef565b61019e6004803603602081101561048a57600080fd5b5035611237565b61020d600480360360808110156104a757600080fd5b506001600160a01b0381358116916020810135821691604082013516906060013561124e565b61020d600480360360408110156104e357600080fd5b50803590602001356001600160a01b0316611352565b6101d36004803603604081101561050f57600080fd5b506001600160a01b0381351690602001356113ab565b61019e611719565b6001600160a01b038116600090815260a2602052604081205461054e61172b565b6001600160a01b0316836001600160a01b031614156106115760005b8181101561060f576001600160a01b038416600090815260a26020526040812080546105ab91908490811061059b57fe5b9060005260206000200154610de2565b505090508042106105fc576001600160a01b038516600090815260a36020526040902080546105f99190849081106105df57fe5b90600052602060002001548561172f90919063ffffffff16565b93505b5061060881600161172f565b905061056a565b505b505b919050565b600061062b8161062661172b565b610e4b565b6106665760405162461bcd60e51b815260040180806020018281038252602e815260200180612082602e913960400191505060405180910390fd5b609b839055609c829055604080518481526020810184905281517f3be6e637f54f081a2dd12982cfd58481304fc98b604b18fa8ed4aa4e4a9d1532929181900390910190a15060015b92915050565b6106c2600061062661172b565b6106fd5760405162461bcd60e51b81526004018080602001828103825260398152602001806120e96039913960400191505060405180910390fd5b609780546001600160a01b0319166001600160a01b0383169081179091556040517ff745c285f36f88bea6af14d4d0f33dd9350cef7895216c1615b1caaee7857e0c90600090a250565b60009081526065602052604090206002015490565b610769600061062661172b565b6107a45760405162461bcd60e51b81526004018080602001828103825260398152602001806120b06039913960400191505060405180910390fd5b609880546001600160a01b0319166001600160a01b0383169081179091556040517fd0b9dbe26f676f4cdb02fc249c203baa0314cec79e18b4194dc862795a5de03f90600090a250565b60008281526065602052604090206002015461080c9061062661172b565b6108475760405162461bcd60e51b815260040180806020018281038252602f81526020018061201c602f913960400191505060405180910390fd5b6108518282611789565b5050565b61085d61172b565b6001600160a01b0316816001600160a01b0316146108ac5760405162461bcd60e51b815260040180806020018281038252602f815260200180612395602f913960400191505060405180910390fd5b61085182826117f2565b60006108d26000805160206121c583398151915261062661172b565b61090d5760405162461bcd60e51b81526004018080602001828103825260388152602001806123306038913960400191505060405180910390fd5b61091561185b565b50600190565b60006109298161062661172b565b6109645760405162461bcd60e51b815260040180806020018281038252603881526020018061224c6038913960400191505060405180910390fd5b6099839055609a829055604080518481526020810184905281517fa94d40347449ea19b873d64ed55c99772194c49791e82be5c2dc24e4c0044fe3929181900390910190a150600192915050565b609b54609c54609954609d54609f5460a05460a154609e54969795969495869590565b60335460ff1690565b60006109ec8161062661172b565b610a275760405162461bcd60e51b815260040180806020018281038252603781526020018061204b6037913960400191505060405180910390fd5b60a083905560a1829055604080518481526020810184905281517f1bfb2d0864b5c92f9b6f20338de7a7dadb29706c9fa3c384b1b4e15076fa91f9929181900390910190a150600192915050565b610a7d6109d5565b15610ac2576040805162461bcd60e51b815260206004820152601060248201526f14185d5cd8589b194e881c185d5cd95960821b604482015290519081900360640190fd5b610aca61172b565b6001600160a01b0316816001600160a01b031614610b195760405162461bcd60e51b81526004018080602001828103825260278152602001806122846027913960400191505060405180910390fd5b6001600160a01b038116600090815260a260205260408120548160a481610b3e61172b565b6001600160a01b03166001600160a01b031681526020019081526020016000205490505b81811015610c70576001600160a01b038416600090815260a2602052604081208054610b9391908490811061059b57fe5b50509050804210610c5d576001600160a01b038516600090815260a3602052604090208054610bc79190849081106105df57fe5b6001600160a01b038616600090815260a2602052604081208054929650909184908110610bf057fe5b60009182526020808320909101929092556001600160a01b038716815260a390915260408120805484908110610c2257fe5b906000526020600020018190555060a46000610c3c61172b565b6001600160a01b031681526020810191909152604001600020805460010190555b50610c6981600161172f565b9050610b62565b5060008211610cb05760405162461bcd60e51b815260040180806020018281038252602d8152602001806122d9602d913960400191505060405180910390fd5b6040805183815242602082015281516001600160a01b038616927f31453b59c0eb931edc765cc2400876a524254457b5534d660c9da1d74ab4666b928290030190a26097546001600160a01b03166340c10f19610d0b61172b565b846040518363ffffffff1660e01b815260040180836001600160a01b0316815260200182815260200192505050602060405180830381600087803b158015610d5257600080fd5b505af1158015610d66573d6000803e3d6000fd5b505050506040513d6020811015610d7c57600080fd5b5050505050565b6000610d9f6000805160206121c583398151915261062661172b565b610dda5760405162461bcd60e51b81526004018080602001828103825260368152602001806121e56036913960400191505060405180910390fd5b6109156118fb565b600080600080610df185610e63565b905080610e02576000935050610e25565b60a054925060a1549150610e21609e548261172f90919063ffffffff16565b9350505b9193909250565b6000828152606560205260408120610e44908361197e565b9392505050565b6000828152606560205260408120610e44908361198a565b600081610e7257506000610613565b8160a0541115610e85575060a054610613565b6000610ea8610ea160a15460a05461199f90919063ffffffff16565b849061172f565b90506000610ec160a0548361199f90919063ffffffff16565b9050610ee282610edc609f54846119fc90919063ffffffff16565b9061172f565b949350505050565b600081565b6000610ef96109d5565b15610f3e576040805162461bcd60e51b815260206004820152601060248201526f14185d5cd8589b194e881c185d5cd95960821b604482015290519081900360640190fd5b6099548211610f7e5760405162461bcd60e51b815260040180806020018281038252602a815260200180612306602a913960400191505060405180910390fd5b610f8661172b565b6001600160a01b0316836001600160a01b031614610fd55760405162461bcd60e51b815260040180806020018281038252603181526020018061221b6031913960400191505060405180910390fd5b609754604080516370a0823160e01b81526001600160a01b038681166004830152915160009392909216916370a0823191602480820192602092909190829003018186803b15801561102657600080fd5b505afa15801561103a573d6000803e3d6000fd5b505050506040513d602081101561105057600080fd5b50519050828110156110935760405162461bcd60e51b815260040180806020018281038252602e8152602001806122ab602e913960400191505060405180910390fd5b60006110e06110ae6064609d54611a6390919063ffffffff16565b6110da609b546110d4609d546110ce60648b611a6390919063ffffffff16565b90611a63565b9061199f565b90611abc565b6040805182815242602082015281519293506001600160a01b038816927f106d46085b22b31d658796e9924cf39946b4105bdb86f8afba3d60d71c3cc591929181900390910190a260975460408051632770a7eb60e21b81526001600160a01b0388811660048301526024820188905291519190921691639dc29fac9160448083019260209291908290030181600087803b15801561117e57600080fd5b505af1158015611192573d6000803e3d6000fd5b505050506040513d60208110156111a857600080fd5b5050609854604080516340c10f1960e01b81526001600160a01b03888116600483015260248201859052915191909216916340c10f199160448083019260209291908290030181600087803b15801561120057600080fd5b505af1158015611214573d6000803e3d6000fd5b505050506040513d602081101561122a57600080fd5b5060019695505050505050565b60008181526065602052604081206106af90611b23565b600054610100900460ff16806112675750611267611b2e565b80611275575060005460ff16155b6112b05760405162461bcd60e51b815260040180806020018281038252602e815260200180612176602e913960400191505060405180910390fd5b600054610100900460ff161580156112db576000805460ff1961ff0019909116610100171660011790555b6112e3611b3f565b6112eb611bf1565b6112fd60006112f861172b565b610847565b6113156000805160206121c583398151915284610847565b61131e856106b5565b6113278461075c565b621baf80609e556203f480609f55609d8290558015610d7c576000805461ff00191690555050505050565b6000828152606560205260409020600201546113709061062661172b565b6108ac5760405162461bcd60e51b81526004018080602001828103825260308152602001806121466030913960400191505060405180910390fd5b60006113b56109d5565b156113fa576040805162461bcd60e51b815260206004820152601060248201526f14185d5cd8589b194e881c185d5cd95960821b604482015290519081900360640190fd5b61140261172b565b6001600160a01b0316836001600160a01b0316146114515760405162461bcd60e51b8152600401808060200182810382526034815260200180611fe86034913960400191505060405180910390fd5b609a5482116114915760405162461bcd60e51b815260040180806020018281038252602c815260200180611f9a602c913960400191505060405180910390fd5b60a0546114cf5760405162461bcd60e51b81526004018080602001828103825260248152602001806121226024913960400191505060405180910390fd5b60a15461150d5760405162461bcd60e51b815260040180806020018281038252602d815260200180612368602d913960400191505060405180910390fd5b609854604080516370a0823160e01b81526001600160a01b038681166004830152915160009392909216916370a0823191602480820192602092909190829003018186803b15801561155e57600080fd5b505afa158015611572573d6000803e3d6000fd5b505050506040513d602081101561158857600080fd5b50519050828110156115cb5760405162461bcd60e51b815260040180806020018281038252602e8152602001806122ab602e913960400191505060405180910390fd5b60006116066115e66064609d54611a6390919063ffffffff16565b6110da609c546110d4609d546110ce60648b611a6390919063ffffffff16565b60985460408051632770a7eb60e21b81526001600160a01b038981166004830152602482018990529151939450911691639dc29fac916044808201926020929091908290030181600087803b15801561165e57600080fd5b505af1158015611672573d6000803e3d6000fd5b505050506040513d602081101561168857600080fd5b50506001600160a01b038516600081815260a26020908152604080832080546001818101835591855283852042910181905585855260a38452828520805492830181558552938390200185905580518581529182019290925281517f5088bc45f380ed0275b374e62bdb9498bfc6b73641204086e7919df7b1b42c7c929181900390910190a2506001949350505050565b6000805160206121c583398151915281565b3390565b600082820183811015610e44576040805162461bcd60e51b815260206004820152601b60248201527f536166654d6174683a206164646974696f6e206f766572666c6f770000000000604482015290519081900360640190fd5b60008281526065602052604090206117a19082611c8e565b15610851576117ae61172b565b6001600160a01b0316816001600160a01b0316837f2f8788117e7eff1d82e926ec794901d17c78024a50270940304540a733656f0d60405160405180910390a45050565b600082815260656020526040902061180a9082611ca3565b156108515761181761172b565b6001600160a01b0316816001600160a01b0316837ff6391f5c32d9c69d2a47ea670b442974b53935d1edc7fd64eb21e047a839171b60405160405180910390a45050565b6118636109d5565b6118ab576040805162461bcd60e51b815260206004820152601460248201527314185d5cd8589b194e881b9bdd081c185d5cd95960621b604482015290519081900360640190fd5b6033805460ff191690557f5db9ee0a495bf2e6ff9c91a7834c1ba4fdd244a5e8aa4e537bd38aeae4b073aa6118de61172b565b604080516001600160a01b039092168252519081900360200190a1565b6119036109d5565b15611948576040805162461bcd60e51b815260206004820152601060248201526f14185d5cd8589b194e881c185d5cd95960821b604482015290519081900360640190fd5b6033805460ff191660011790557f62e78cea01bee320cd4e420270b5ea74000d11b0c9f74754ebdbfc544b05a2586118de61172b565b6000610e448383611cb8565b6000610e44836001600160a01b038416611d1c565b6000828211156119f6576040805162461bcd60e51b815260206004820152601e60248201527f536166654d6174683a207375627472616374696f6e206f766572666c6f770000604482015290519081900360640190fd5b50900390565b6000808211611a52576040805162461bcd60e51b815260206004820152601860248201527f536166654d6174683a206d6f64756c6f206279207a65726f0000000000000000604482015290519081900360640190fd5b818381611a5b57fe5b069392505050565b600082611a72575060006106af565b82820282848281611a7f57fe5b0414610e445760405162461bcd60e51b81526004018080602001828103825260218152602001806121a46021913960400191505060405180910390fd5b6000808211611b12576040805162461bcd60e51b815260206004820152601a60248201527f536166654d6174683a206469766973696f6e206279207a65726f000000000000604482015290519081900360640190fd5b818381611b1b57fe5b049392505050565b60006106af82611d34565b6000611b3930611d38565b15905090565b600054610100900460ff1680611b585750611b58611b2e565b80611b66575060005460ff16155b611ba15760405162461bcd60e51b815260040180806020018281038252602e815260200180612176602e913960400191505060405180910390fd5b600054610100900460ff16158015611bcc576000805460ff1961ff0019909116610100171660011790555b611bd4611d3e565b611bdc611d3e565b8015611bee576000805461ff00191690555b50565b600054610100900460ff1680611c0a5750611c0a611b2e565b80611c18575060005460ff16155b611c535760405162461bcd60e51b815260040180806020018281038252602e815260200180612176602e913960400191505060405180910390fd5b600054610100900460ff16158015611c7e576000805460ff1961ff0019909116610100171660011790555b611c86611d3e565b611bdc611dde565b6000610e44836001600160a01b038416611e89565b6000610e44836001600160a01b038416611ed3565b81546000908210611cfa5760405162461bcd60e51b8152600401808060200182810382526022815260200180611fc66022913960400191505060405180910390fd5b826000018281548110611d0957fe5b9060005260206000200154905092915050565b60009081526001919091016020526040902054151590565b5490565b3b151590565b600054610100900460ff1680611d575750611d57611b2e565b80611d65575060005460ff16155b611da05760405162461bcd60e51b815260040180806020018281038252602e815260200180612176602e913960400191505060405180910390fd5b600054610100900460ff16158015611bdc576000805460ff1961ff0019909116610100171660011790558015611bee576000805461ff001916905550565b600054610100900460ff1680611df75750611df7611b2e565b80611e05575060005460ff16155b611e405760405162461bcd60e51b815260040180806020018281038252602e815260200180612176602e913960400191505060405180910390fd5b600054610100900460ff16158015611e6b576000805460ff1961ff0019909116610100171660011790555b6033805460ff191690558015611bee576000805461ff001916905550565b6000611e958383611d1c565b611ecb575081546001818101845560008481526020808220909301849055845484825282860190935260409020919091556106af565b5060006106af565b60008181526001830160205260408120548015611f8f5783546000198083019190810190600090879083908110611f0657fe5b9060005260206000200154905080876000018481548110611f2357fe5b600091825260208083209091019290925582815260018981019092526040902090840190558654879080611f5357fe5b600190038181906000526020600020016000905590558660010160008781526020019081526020016000206000905560019450505050506106af565b60009150506106af56fe4c69717569645374616b696e673a2052657175697265732061206d696e20756e7374616b6520616d6f756e74456e756d657261626c655365743a20696e646578206f7574206f6620626f756e64734c69717569645374616b696e673a20556e7374616b696e672063616e206f6e6c7920626520646f6e65206279205374616b657272416363657373436f6e74726f6c3a2073656e646572206d75737420626520616e2061646d696e20746f206772616e744c69717569645374616b696e673a2055736572206e6f7420617574686f726973656420746f2073657420756e7374616b652065706f63684c69717569645374616b696e673a2055736572206e6f7420617574686f726973656420746f2073657420666565734c69717569645374616b696e673a2055736572206e6f7420617574686f726973656420746f207365742053546f6b656e20636f6e74726163744c69717569645374616b696e673a2055736572206e6f7420617574686f726973656420746f207365742055546f6b656e20636f6e74726163744c69717569645374616b696e673a20756e7374616b652065706f6368206e6f7420736574416363657373436f6e74726f6c3a2073656e646572206d75737420626520616e2061646d696e20746f207265766f6b65496e697469616c697a61626c653a20636f6e747261637420697320616c726561647920696e697469616c697a6564536166654d6174683a206d756c7469706c69636174696f6e206f766572666c6f7765d7a28e3265b37a6474929f336521b332c1681b933f6cb9f3376673440d862a4c69717569645374616b696e673a2055736572206e6f7420617574686f726973656420746f20706175736520636f6e7472616374732e4c69717569645374616b696e673a205374616b696e672063616e206f6e6c7920626520646f6e65206279205374616b65724c69717569645374616b696e673a2055736572206e6f7420617574686f726973656420746f20736574206d696e696d756d2076616c7565734c69717569645374616b696e673a204f6e6c79207374616b65722063616e2077697468647261774c69717569645374616b696e673a20496e737566666369656e742062616c616e636520666f72206163636f756e744c69717569645374616b696e673a20556e5374616b696e6720706572696f64207374696c6c2070656e64696e674c69717569645374616b696e673a2052657175697265732061206d696e207374616b6520616d6f756e744c69717569645374616b696e673a2055736572206e6f7420617574686f726973656420746f20756e706175736520636f6e7472616374732e4c69717569645374616b696e673a20756e7374616b652065706f63682070726576696f7573206e6f7420736574416363657373436f6e74726f6c3a2063616e206f6e6c792072656e6f756e636520726f6c657320666f722073656c66a2646970667358221220e8dbf39d42d6cf99a9991c71805f01a561c86ebbde349192b77bda28ce3180f664736f6c63430007060033",
  "immutableReferences": {},
  "source": "// SPDX-License-Identifier: UNLICENSED\npragma solidity ^0.7.0;\n\nimport \"@openzeppelin/contracts-upgradeable/math/SafeMathUpgradeable.sol\";\nimport \"@openzeppelin/contracts-upgradeable/access/AccessControlUpgradeable.sol\";\nimport \"@openzeppelin/contracts-upgradeable/utils/PausableUpgradeable.sol\";\nimport \"./interfaces/ISTokens.sol\";\nimport \"./interfaces/IUTokens.sol\";\nimport \"./interfaces/ILiquidStaking.sol\";\n\ncontract LiquidStaking is ILiquidStaking, PausableUpgradeable, AccessControlUpgradeable {\n\n    using SafeMathUpgradeable for uint256;\n\n    //Private instances of contracts to handle Utokens and Stokens\n    IUTokens private _uTokens;\n    ISTokens private _sTokens;\n\n    // defining the fees and minimum values\n    uint256 private _minStake;\n    uint256 private _minUnstake;\n    uint256 private _stakeFee;\n    uint256 private _unstakeFee;\n    uint256 private _valueDivisor;\n\n    bytes32 public constant PAUSER_ROLE = keccak256(\"PAUSER_ROLE\");\n\n    uint256 private _unstakingLockTime;\n    uint256 private _epochInterval;\n    uint256 private _unstakeEpoch;\n    uint256 private _unstakeEpochPrevious;\n\n    //Mapping to handle the Expiry period\n    mapping(address => uint256[]) private _unstakingExpiration;\n\n    //Mapping to handle the Expiry amount\n    mapping(address => uint256[]) private _unstakingAmount;\n\n    //mappint to handle a counter variable indicating from what index to start the loop.\n    mapping(address => uint256) internal _withdrawCounters;\n\n    /**\n   * @dev Constructor for initializing the LiquidStaking contract.\n   * @param uAddress - address of the UToken contract.\n   * @param sAddress - address of the SToken contract.\n   * @param pauserAddress - address of the pauser admin.\n   */\n    function initialize(address uAddress, address sAddress, address pauserAddress, uint256 valueDivisor) public virtual initializer  {\n        __AccessControl_init();\n        __Pausable_init();\n        _setupRole(DEFAULT_ADMIN_ROLE, _msgSender());\n        _setupRole(PAUSER_ROLE, pauserAddress);\n        setUTokensContract(uAddress);\n        setSTokensContract(sAddress);\n        _unstakingLockTime = 21 days;\n        _epochInterval = 3 days;\n        _valueDivisor = valueDivisor;\n    }\n\n    /**\n     * @dev Set 'fees', called from admin\n     * @param stakeFee: stake fee\n     * @param unstakeFee: unstake fee\n     *\n     * Emits a {SetFee} event with 'fee' set to the stake and unstake.\n     *\n     */\n    function setFees(uint256 stakeFee, uint256 unstakeFee) public virtual returns (bool success) {\n        require(hasRole(DEFAULT_ADMIN_ROLE, _msgSender()), \"LiquidStaking: User not authorised to set fees\");\n        _stakeFee = stakeFee;\n        _unstakeFee = unstakeFee;\n        emit SetFees(stakeFee, unstakeFee);\n        return true;\n    }\n\n    /**\n     * @dev get fees, min values and epoch props\n     *\n     */\n    function getStakeUnstakeProps() public view virtual returns (\n        uint256 stakeFee, uint256 unstakeFee, uint256 minStake, uint256 minUnstake, uint256 valueDivisor,\n        uint256 epochInterval, uint256 unstakeEpoch, uint256 unstakeEpochPrevious, uint256 unstakingLockTime\n    ) {\n        stakeFee = _stakeFee;\n        unstakeFee = _unstakeFee;\n        minStake = _minStake;\n        minUnstake = _minStake;\n        valueDivisor = _valueDivisor;\n        epochInterval= _epochInterval;\n        unstakeEpoch = _unstakeEpoch;\n        unstakeEpochPrevious = _unstakeEpochPrevious;\n        unstakingLockTime = _unstakingLockTime;\n    }\n\n    /**\n     * @dev Set 'minimum values', called from admin\n     * @param minStake: stake minimum value\n     * @param minUnstake: unstake minimum value\n     *\n     * Emits a {SetMinimumValues} event with 'minimum value' set to the stake and unstake.\n     *\n     */\n    function setMinimumValues(uint256 minStake, uint256 minUnstake) public virtual returns (bool success){\n        require(hasRole(DEFAULT_ADMIN_ROLE, _msgSender()), \"LiquidStaking: User not authorised to set minimum values\");\n        _minStake = minStake;\n        _minUnstake = minUnstake;\n        emit SetMinimumValues(minStake, minUnstake);\n        return true;\n    }\n\n    /**\n    * @dev Set 'unstake epoch', called from admin\n    * @param unstakeEpoch: unstake epoch\n    *\n    * Emits a {SetUnstakeEpoch} event with 'unstakeEpoch'\n    *\n    */\n    function setUnstakeEpoch(uint256 unstakeEpoch, uint256 unstakeEpochPrevious) public virtual returns (bool success){\n        require(hasRole(DEFAULT_ADMIN_ROLE, _msgSender()), \"LiquidStaking: User not authorised to set unstake epoch\");\n        _unstakeEpoch = unstakeEpoch;\n        _unstakeEpochPrevious = unstakeEpochPrevious;\n        emit SetUnstakeEpoch(unstakeEpoch, unstakeEpochPrevious);\n        return true;\n    }\n\n    /**\n     * @dev Set 'contract address', called from constructor\n     * @param uAddress: utoken contract address\n     *\n     * Emits a {SetContract} event with '_contract' set to the utoken contract address.\n     *\n     */\n    function setUTokensContract(address uAddress) public virtual override {\n        require(hasRole(DEFAULT_ADMIN_ROLE, _msgSender()), \"LiquidStaking: User not authorised to set UToken contract\");\n        _uTokens = IUTokens(uAddress);\n        emit SetUTokensContract(uAddress);\n    }\n\n    /**\n     * @dev Set 'contract address', called from constructor\n     * @param sAddress: stoken contract address\n     *\n     * Emits a {SetContract} event with '_contract' set to the stoken contract address.\n     *\n     */\n    function setSTokensContract(address sAddress) public virtual override {\n        require(hasRole(DEFAULT_ADMIN_ROLE, _msgSender()), \"LiquidStaking: User not authorised to set SToken contract\");\n        _sTokens = ISTokens(sAddress);\n        emit SetSTokensContract(sAddress);\n    }\n\n    /**\n    * @dev Stake utokens over the platform with address 'to' for desired 'utok'(Burn uTokens and Mint sTokens)\n    * @param to: user address for staking, utok: number of tokens to stake\n    *\n    *\n    * Requirements:\n    *\n    * - `utok` cannot be less than zero.\n    * - 'utok' cannot be more than balance\n    * - 'utok' plus new balance should be equal to the old balance\n    */\n    function stake(address to, uint256 utok) public virtual override whenNotPaused returns(bool)  {\n        // Check the supplied amount is greater than 0\n        require(utok>_minStake, \"LiquidStaking: Requires a min stake amount\");\n        require(to == _msgSender(), \"LiquidStaking: Staking can only be done by Staker\");\n        // require(hasRole(STAKER_ROLE, _msgSender()), \"LiquidStaking: Staking can only be done by Staker\");\n        // Check the current balance for uTokens is greater than the amount to be staked\n        uint256 _currentUTokenBalance = _uTokens.balanceOf(to);\n        require(_currentUTokenBalance>=utok, \"LiquidStaking: Insuffcient balance for account\");\n        uint256 finalTokens = (((utok.mul(100)).mul(_valueDivisor)).sub(_stakeFee)).div(_valueDivisor.mul(100));\n        emit StakeTokens(to, finalTokens, block.timestamp);\n        // Burn the uTokens as specified with the amount\n        _uTokens.burn(to, utok);\n        // Mint the sTokens for the account specified\n        _sTokens.mint(to, finalTokens);\n        return true;\n    }\n\n    /**\n     * @dev UnStake stokens over the platform with address 'to' for desired 'stok' (Burn sTokens and Mint uTokens with 21 days locking period)\n     * @param to: user address for staking, stok: number of tokens to unstake\n     *\n     *\n     * Requirements:\n     *\n     * - `stok` cannot be less than zero.\n     * - 'stok' cannot be more than balance\n     * - 'stok' plus new balance should be equal to the old balance\n     */\n    function unStake(address to, uint256 stok) public virtual override whenNotPaused returns(bool) {\n        // Check the supplied amount is greater than 0\n        require(to == _msgSender(), \"LiquidStaking: Unstaking can only be done by Stakerr\");\n        require(stok>_minUnstake, \"LiquidStaking: Requires a min unstake amount\");\n        require(_unstakeEpoch!=0, \"LiquidStaking: unstake epoch not set\");\n        require(_unstakeEpochPrevious!=0, \"LiquidStaking: unstake epoch previous not set\");\n        // Check the current balance for sTokens is greater than the amount to be unStaked\n        uint256 _currentSTokenBalance = _sTokens.balanceOf(to);\n        require(_currentSTokenBalance>=stok, \"LiquidStaking: Insuffcient balance for account\");\n        uint256 finalTokens = (((stok.mul(100)).mul(_valueDivisor)).sub(_unstakeFee)).div(_valueDivisor.mul(100));\n        // Burn the sTokens as specified with the amount\n        _sTokens.burn(to, stok);\n        // uint256 _unstakeEpochTime = getUnstakeEpochTime();\n        //_unstakingExpiration[to].push((_unstakeEpochTime + block.timestamp) + _unstakingLockTime);\n        _unstakingExpiration[to].push(block.timestamp);\n        _unstakingAmount[to].push(finalTokens);\n        //emit UnstakeTokens(to, finalTokens, (_unstakeEpochTime + block.timestamp) + _unstakingLockTime, block.timestamp);\n        emit UnstakeTokens(to, finalTokens, block.timestamp);\n\n        return true;\n    }\n\n    /**\n     * @dev returns the nearest epoch milestone in the future\n     */\n    function getUnstakeEpochMilestone(uint256 _unstakeTimestamp) public view virtual returns (uint256 unstakeEpochMilestone) {\n        if(_unstakeTimestamp == 0) return 0;\n        if(_unstakeEpoch > _unstakeTimestamp) return (_unstakeEpoch);\n        uint256 _referenceStartTime = (_unstakeTimestamp).add(_unstakeEpoch.sub(_unstakeEpochPrevious));\n        uint256 _timeDiff = _referenceStartTime.sub(_unstakeEpoch);\n        unstakeEpochMilestone = (_timeDiff.mod(_epochInterval)).add(_referenceStartTime);\n        return (unstakeEpochMilestone);\n    }\n\n    /**\n     * @dev returns the time left for unbonding to finish\n     */\n    function getUnstakeTime(uint256 _unstakeTimestamp) public view virtual returns (uint256 unstakeTime ,uint256 unstakeEpoch, uint256 unstakeEpochPrevious) {\n        uint256 _unstakeEpochMilestone = getUnstakeEpochMilestone(_unstakeTimestamp);\n        if(_unstakeEpochMilestone == 0) return (0, unstakeEpoch, unstakeEpochPrevious);\n        unstakeEpoch = _unstakeEpoch;\n        unstakeEpochPrevious = _unstakeEpochPrevious;\n        unstakeTime = _unstakeEpochMilestone.add(_unstakingLockTime);\n        return (unstakeTime, unstakeEpoch, unstakeEpochPrevious);\n    }\n\n    /**\n     * @dev Lock the unstaked tokens for 21 days, user can withdraw the same (Mint uTokens with 21 days locking period)\n     *\n     * Requirements:\n     *\n     * - `current block timestamp` should be after 21 days from the period where unstaked function is called.\n     */\n    function withdrawUnstakedTokens(address staker) public virtual override whenNotPaused{\n        require(staker == _msgSender(), \"LiquidStaking: Only staker can withdraw\");\n        uint256 _withdrawBalance;\n        uint256 _unstakingExpirationLength = _unstakingExpiration[staker].length;\n        for (uint256 i=_withdrawCounters[_msgSender()]; i<_unstakingExpirationLength; i=i.add(1)) {\n            (uint256 _getUnstakeTime, , ) = getUnstakeTime(_unstakingExpiration[staker][i]);\n            if (block.timestamp >= _getUnstakeTime) {\n                _withdrawBalance = _withdrawBalance.add(_unstakingAmount[staker][i]);\n                _unstakingExpiration[staker][i] = 0;\n                _unstakingAmount[staker][i] = 0;\n                _withdrawCounters[_msgSender()]++;\n            }\n        }\n        require(_withdrawBalance > 0, \"LiquidStaking: UnStaking period still pending\");\n        emit WithdrawUnstakeTokens(staker, _withdrawBalance, block.timestamp);\n        _uTokens.mint(_msgSender(), _withdrawBalance);\n    }\n\n    /**\n     * @dev get Total Unbonded Tokens\n     * @param staker: account address\n     *\n     */\n    function getTotalUnbondedTokens(address staker) public view virtual returns (uint256 unbondingTokens) {\n        uint256 _unstakingExpirationLength = _unstakingExpiration[staker].length;\n        if(staker == _msgSender()){\n            for (uint256 i=0; i<_unstakingExpirationLength; i=i.add(1)) {\n                (uint256 _getUnstakeTime, , ) = getUnstakeTime(_unstakingExpiration[staker][i]);\n                if (block.timestamp >= _getUnstakeTime) {\n                    unbondingTokens = unbondingTokens.add(_unstakingAmount[staker][i]);\n                }\n            }\n        }\n        return unbondingTokens;\n    }\n\n    /**\n      * @dev Triggers stopped state.\n      *\n      * Requirements:\n      *\n      * - The contract must not be paused.\n      */\n    function pause() public virtual returns (bool success) {\n        require(hasRole(PAUSER_ROLE, _msgSender()), \"LiquidStaking: User not authorised to pause contracts.\");\n        _pause();\n        return true;\n    }\n\n    /**\n     * @dev Returns to normal state.\n     *\n     * Requirements:\n     *\n     * - The contract must be paused.\n     */\n    function unpause() public virtual returns (bool success) {\n        require(hasRole(PAUSER_ROLE, _msgSender()), \"LiquidStaking: User not authorised to unpause contracts.\");\n        _unpause();\n        return true;\n    }\n}",
  "sourcePath": "/home/aditimahesh/Documents/Work/Persistence/go/src/github.com/persistenceOne/pStakeSmartContracts/contracts/LiquidStaking.sol",
  "compiler": {
    "name": "solc",
    "version": "0.7.6+commit.7338295f.Emscripten.clang"
  },
  "schemaVersion": "3.3.4",
  "updatedAt": "2021-05-27T13:24:07.626Z",
  "networkType": "ethereum",
  "devdoc": {
    "kind": "dev",
    "methods": {
      "getRoleAdmin(bytes32)": {
        "details": "Returns the admin role that controls `role`. See {grantRole} and {revokeRole}. To change a role's admin, use {_setRoleAdmin}."
      },
      "getRoleMember(bytes32,uint256)": {
        "details": "Returns one of the accounts that have `role`. `index` must be a value between 0 and {getRoleMemberCount}, non-inclusive. Role bearers are not sorted in any particular way, and their ordering may change at any point. WARNING: When using {getRoleMember} and {getRoleMemberCount}, make sure you perform all queries on the same block. See the following https://forum.openzeppelin.com/t/iterating-over-elements-on-enumerableset-in-openzeppelin-contracts/2296[forum post] for more information."
      },
      "getRoleMemberCount(bytes32)": {
        "details": "Returns the number of accounts that have `role`. Can be used together with {getRoleMember} to enumerate all bearers of a role."
      },
      "getStakeUnstakeProps()": {
        "details": "get fees, min values and epoch props"
      },
      "getTotalUnbondedTokens(address)": {
        "details": "get Total Unbonded Tokens",
        "params": {
          "staker": ": account address"
        }
      },
      "getUnstakeEpochMilestone(uint256)": {
        "details": "returns the nearest epoch milestone in the future"
      },
      "getUnstakeTime(uint256)": {
        "details": "returns the time left for unbonding to finish"
      },
      "grantRole(bytes32,address)": {
        "details": "Grants `role` to `account`. If `account` had not been already granted `role`, emits a {RoleGranted} event. Requirements: - the caller must have ``role``'s admin role."
      },
      "hasRole(bytes32,address)": {
        "details": "Returns `true` if `account` has been granted `role`."
      },
      "initialize(address,address,address,uint256)": {
        "details": "Constructor for initializing the LiquidStaking contract.",
        "params": {
          "pauserAddress": "- address of the pauser admin.",
          "sAddress": "- address of the SToken contract.",
          "uAddress": "- address of the UToken contract."
        }
      },
      "pause()": {
        "details": "Triggers stopped state. Requirements: - The contract must not be paused."
      },
      "paused()": {
        "details": "Returns true if the contract is paused, and false otherwise."
      },
      "renounceRole(bytes32,address)": {
        "details": "Revokes `role` from the calling account. Roles are often managed via {grantRole} and {revokeRole}: this function's purpose is to provide a mechanism for accounts to lose their privileges if they are compromised (such as when a trusted device is misplaced). If the calling account had been granted `role`, emits a {RoleRevoked} event. Requirements: - the caller must be `account`."
      },
      "revokeRole(bytes32,address)": {
        "details": "Revokes `role` from `account`. If `account` had been granted `role`, emits a {RoleRevoked} event. Requirements: - the caller must have ``role``'s admin role."
      },
      "setFees(uint256,uint256)": {
        "details": "Set 'fees', called from admin",
        "params": {
          "stakeFee": ": stake fee",
          "unstakeFee": ": unstake fee Emits a {SetFee} event with 'fee' set to the stake and unstake."
        }
      },
      "setMinimumValues(uint256,uint256)": {
        "details": "Set 'minimum values', called from admin",
        "params": {
          "minStake": ": stake minimum value",
          "minUnstake": ": unstake minimum value Emits a {SetMinimumValues} event with 'minimum value' set to the stake and unstake."
        }
      },
      "setSTokensContract(address)": {
        "details": "Set 'contract address', called from constructor",
        "params": {
          "sAddress": ": stoken contract address Emits a {SetContract} event with '_contract' set to the stoken contract address."
        }
      },
      "setUTokensContract(address)": {
        "details": "Set 'contract address', called from constructor",
        "params": {
          "uAddress": ": utoken contract address Emits a {SetContract} event with '_contract' set to the utoken contract address."
        }
      },
      "setUnstakeEpoch(uint256,uint256)": {
        "details": "Set 'unstake epoch', called from admin",
        "params": {
          "unstakeEpoch": ": unstake epoch Emits a {SetUnstakeEpoch} event with 'unstakeEpoch'"
        }
      },
      "stake(address,uint256)": {
        "details": "Stake utokens over the platform with address 'to' for desired 'utok'(Burn uTokens and Mint sTokens)",
        "params": {
          "to": ": user address for staking, utok: number of tokens to stake Requirements: - `utok` cannot be less than zero. - 'utok' cannot be more than balance - 'utok' plus new balance should be equal to the old balance"
        }
      },
      "unStake(address,uint256)": {
        "details": "UnStake stokens over the platform with address 'to' for desired 'stok' (Burn sTokens and Mint uTokens with 21 days locking period)",
        "params": {
          "to": ": user address for staking, stok: number of tokens to unstake Requirements: - `stok` cannot be less than zero. - 'stok' cannot be more than balance - 'stok' plus new balance should be equal to the old balance"
        }
      },
      "unpause()": {
        "details": "Returns to normal state. Requirements: - The contract must be paused."
      },
      "withdrawUnstakedTokens(address)": {
        "details": "Lock the unstaked tokens for 21 days, user can withdraw the same (Mint uTokens with 21 days locking period) Requirements: - `current block timestamp` should be after 21 days from the period where unstaked function is called."
      }
    },
    "version": 1
  },
  "userdoc": {
    "kind": "user",
    "methods": {},
    "version": 1
  }
}