{
  "contractName": "LiquidStakingXPRTV2",
  "abi": [
    {
      "anonymous": false,
      "inputs": [
        {
          "indexed": false,
          "internalType": "address",
          "name": "account",
          "type": "address"
        }
      ],
      "name": "Paused",
      "type": "event"
    },
    {
      "anonymous": false,
      "inputs": [
        {
          "indexed": true,
          "internalType": "bytes32",
          "name": "role",
          "type": "bytes32"
        },
        {
          "indexed": true,
          "internalType": "bytes32",
          "name": "previousAdminRole",
          "type": "bytes32"
        },
        {
          "indexed": true,
          "internalType": "bytes32",
          "name": "newAdminRole",
          "type": "bytes32"
        }
      ],
      "name": "RoleAdminChanged",
      "type": "event"
    },
    {
      "anonymous": false,
      "inputs": [
        {
          "indexed": true,
          "internalType": "bytes32",
          "name": "role",
          "type": "bytes32"
        },
        {
          "indexed": true,
          "internalType": "address",
          "name": "account",
          "type": "address"
        },
        {
          "indexed": true,
          "internalType": "address",
          "name": "sender",
          "type": "address"
        }
      ],
      "name": "RoleGranted",
      "type": "event"
    },
    {
      "anonymous": false,
      "inputs": [
        {
          "indexed": true,
          "internalType": "bytes32",
          "name": "role",
          "type": "bytes32"
        },
        {
          "indexed": true,
          "internalType": "address",
          "name": "account",
          "type": "address"
        },
        {
          "indexed": true,
          "internalType": "address",
          "name": "sender",
          "type": "address"
        }
      ],
      "name": "RoleRevoked",
      "type": "event"
    },
    {
      "anonymous": false,
      "inputs": [
        {
          "indexed": true,
          "internalType": "uint256",
          "name": "batchingLimit",
          "type": "uint256"
        },
        {
          "indexed": false,
          "internalType": "uint256",
          "name": "timestamp",
          "type": "uint256"
        }
      ],
      "name": "SetBatchingLimit",
      "type": "event"
    },
    {
      "anonymous": false,
      "inputs": [
        {
          "indexed": true,
          "internalType": "uint256",
          "name": "stakeFee",
          "type": "uint256"
        },
        {
          "indexed": true,
          "internalType": "uint256",
          "name": "unstakeFee",
          "type": "uint256"
        }
      ],
      "name": "SetFees",
      "type": "event"
    },
    {
      "anonymous": false,
      "inputs": [
        {
          "indexed": true,
          "internalType": "uint256",
          "name": "minStake",
          "type": "uint256"
        },
        {
          "indexed": true,
          "internalType": "uint256",
          "name": "minUnstake",
          "type": "uint256"
        }
      ],
      "name": "SetMinimumValues",
      "type": "event"
    },
    {
      "anonymous": false,
      "inputs": [
        {
          "indexed": true,
          "internalType": "address",
          "name": "_contract",
          "type": "address"
        }
      ],
      "name": "SetSTokensContract",
      "type": "event"
    },
    {
      "anonymous": false,
      "inputs": [
        {
          "indexed": true,
          "internalType": "address",
          "name": "_contract",
          "type": "address"
        }
      ],
      "name": "SetTokenWrapperContract",
      "type": "event"
    },
    {
      "anonymous": false,
      "inputs": [
        {
          "indexed": true,
          "internalType": "address",
          "name": "_contract",
          "type": "address"
        }
      ],
      "name": "SetUTokensContract",
      "type": "event"
    },
    {
      "anonymous": false,
      "inputs": [
        {
          "indexed": true,
          "internalType": "uint256",
          "name": "unstakeEpoch",
          "type": "uint256"
        },
        {
          "indexed": true,
          "internalType": "uint256",
          "name": "unstakeEpochPrevious",
          "type": "uint256"
        },
        {
          "indexed": true,
          "internalType": "uint256",
          "name": "epochInterval",
          "type": "uint256"
        }
      ],
      "name": "SetUnstakeEpoch",
      "type": "event"
    },
    {
      "anonymous": false,
      "inputs": [
        {
          "indexed": true,
          "internalType": "uint256",
          "name": "unstakingLockTime",
          "type": "uint256"
        }
      ],
      "name": "SetUnstakingLockTime",
      "type": "event"
    },
    {
      "anonymous": false,
      "inputs": [
        {
          "indexed": false,
          "internalType": "address",
          "name": "to",
          "type": "address"
        },
        {
          "indexed": false,
          "internalType": "uint256",
          "name": "stakingAmount",
          "type": "uint256"
        },
        {
          "indexed": false,
          "internalType": "uint256",
          "name": "amountStaked",
          "type": "uint256"
        },
        {
          "indexed": false,
          "internalType": "uint256",
          "name": "wrappingAmount",
          "type": "uint256"
        },
        {
          "indexed": false,
          "internalType": "uint256",
          "name": "amountWrapped",
          "type": "uint256"
        },
        {
          "indexed": false,
          "internalType": "uint256",
          "name": "timestamp",
          "type": "uint256"
        }
      ],
      "name": "StakeDirect",
      "type": "event"
    },
    {
      "anonymous": false,
      "inputs": [
        {
          "indexed": false,
          "internalType": "address[]",
          "name": "toAddressses",
          "type": "address[]"
        },
        {
          "indexed": false,
          "internalType": "uint256[]",
          "name": "stakingAmounts",
          "type": "uint256[]"
        },
        {
          "indexed": false,
          "internalType": "uint256[]",
          "name": "amountsStaked",
          "type": "uint256[]"
        },
        {
          "indexed": false,
          "internalType": "uint256[]",
          "name": "wrappingAmounts",
          "type": "uint256[]"
        },
        {
          "indexed": false,
          "internalType": "uint256[]",
          "name": "amountsWrapped",
          "type": "uint256[]"
        },
        {
          "indexed": false,
          "internalType": "uint256",
          "name": "timestamp",
          "type": "uint256"
        }
      ],
      "name": "StakeDirectInBatch",
      "type": "event"
    },
    {
      "anonymous": false,
      "inputs": [
        {
          "indexed": true,
          "internalType": "address",
          "name": "accountAddress",
          "type": "address"
        },
        {
          "indexed": true,
          "internalType": "uint256",
          "name": "tokens",
          "type": "uint256"
        },
        {
          "indexed": true,
          "internalType": "uint256",
          "name": "finalTokens",
          "type": "uint256"
        },
        {
          "indexed": false,
          "internalType": "uint256",
          "name": "timestamp",
          "type": "uint256"
        }
      ],
      "name": "StakeTokens",
      "type": "event"
    },
    {
      "anonymous": false,
      "inputs": [
        {
          "indexed": false,
          "internalType": "address",
          "name": "account",
          "type": "address"
        }
      ],
      "name": "Unpaused",
      "type": "event"
    },
    {
      "anonymous": false,
      "inputs": [
        {
          "indexed": true,
          "internalType": "address",
          "name": "accountAddress",
          "type": "address"
        },
        {
          "indexed": true,
          "internalType": "uint256",
          "name": "tokens",
          "type": "uint256"
        },
        {
          "indexed": true,
          "internalType": "uint256",
          "name": "finalTokens",
          "type": "uint256"
        },
        {
          "indexed": false,
          "internalType": "uint256",
          "name": "timestamp",
          "type": "uint256"
        }
      ],
      "name": "UnstakeTokens",
      "type": "event"
    },
    {
      "anonymous": false,
      "inputs": [
        {
          "indexed": true,
          "internalType": "address",
          "name": "accountAddress",
          "type": "address"
        },
        {
          "indexed": true,
          "internalType": "uint256",
          "name": "tokens",
          "type": "uint256"
        },
        {
          "indexed": false,
          "internalType": "uint256",
          "name": "timestamp",
          "type": "uint256"
        }
      ],
      "name": "WithdrawUnstakeTokens",
      "type": "event"
    },
    {
      "inputs": [],
      "name": "BRIDGE_ADMIN_ROLE",
      "outputs": [
        {
          "internalType": "bytes32",
          "name": "",
          "type": "bytes32"
        }
      ],
      "stateMutability": "view",
      "type": "function",
      "constant": true
    },
    {
      "inputs": [],
      "name": "DEFAULT_ADMIN_ROLE",
      "outputs": [
        {
          "internalType": "bytes32",
          "name": "",
          "type": "bytes32"
        }
      ],
      "stateMutability": "view",
      "type": "function",
      "constant": true
    },
    {
      "inputs": [],
      "name": "PAUSER_ROLE",
      "outputs": [
        {
          "internalType": "bytes32",
          "name": "",
          "type": "bytes32"
        }
      ],
      "stateMutability": "view",
      "type": "function",
      "constant": true
    },
    {
      "inputs": [],
      "name": "_batchingLimit",
      "outputs": [
        {
          "internalType": "uint256",
          "name": "",
          "type": "uint256"
        }
      ],
      "stateMutability": "view",
      "type": "function",
      "constant": true
    },
    {
      "inputs": [],
      "name": "_sTokens",
      "outputs": [
        {
          "internalType": "contract ISTokensXPRT",
          "name": "",
          "type": "address"
        }
      ],
      "stateMutability": "view",
      "type": "function",
      "constant": true
    },
    {
      "inputs": [],
      "name": "_tokenWrapperContract",
      "outputs": [
        {
          "internalType": "address",
          "name": "",
          "type": "address"
        }
      ],
      "stateMutability": "view",
      "type": "function",
      "constant": true
    },
    {
      "inputs": [],
      "name": "_uTokens",
      "outputs": [
        {
          "internalType": "contract IUTokensXPRT",
          "name": "",
          "type": "address"
        }
      ],
      "stateMutability": "view",
      "type": "function",
      "constant": true
    },
    {
      "inputs": [
        {
          "internalType": "address",
          "name": "",
          "type": "address"
        },
        {
          "internalType": "uint256",
          "name": "",
          "type": "uint256"
        }
      ],
      "name": "_unstakingAmount",
      "outputs": [
        {
          "internalType": "uint256",
          "name": "",
          "type": "uint256"
        }
      ],
      "stateMutability": "view",
      "type": "function",
      "constant": true
    },
    {
      "inputs": [
        {
          "internalType": "address",
          "name": "",
          "type": "address"
        },
        {
          "internalType": "uint256",
          "name": "",
          "type": "uint256"
        }
      ],
      "name": "_unstakingExpiration",
      "outputs": [
        {
          "internalType": "uint256",
          "name": "",
          "type": "uint256"
        }
      ],
      "stateMutability": "view",
      "type": "function",
      "constant": true
    },
    {
      "inputs": [],
      "name": "_valueDivisor",
      "outputs": [
        {
          "internalType": "uint256",
          "name": "",
          "type": "uint256"
        }
      ],
      "stateMutability": "view",
      "type": "function",
      "constant": true
    },
    {
      "inputs": [],
      "name": "_version",
      "outputs": [
        {
          "internalType": "uint256",
          "name": "",
          "type": "uint256"
        }
      ],
      "stateMutability": "view",
      "type": "function",
      "constant": true
    },
    {
      "inputs": [
        {
          "internalType": "address",
          "name": "",
          "type": "address"
        }
      ],
      "name": "_withdrawCounters",
      "outputs": [
        {
          "internalType": "uint256",
          "name": "",
          "type": "uint256"
        }
      ],
      "stateMutability": "view",
      "type": "function",
      "constant": true
    },
    {
      "inputs": [
        {
          "internalType": "bytes32",
          "name": "role",
          "type": "bytes32"
        }
      ],
      "name": "getRoleAdmin",
      "outputs": [
        {
          "internalType": "bytes32",
          "name": "",
          "type": "bytes32"
        }
      ],
      "stateMutability": "view",
      "type": "function",
      "constant": true
    },
    {
      "inputs": [
        {
          "internalType": "bytes32",
          "name": "role",
          "type": "bytes32"
        },
        {
          "internalType": "uint256",
          "name": "index",
          "type": "uint256"
        }
      ],
      "name": "getRoleMember",
      "outputs": [
        {
          "internalType": "address",
          "name": "",
          "type": "address"
        }
      ],
      "stateMutability": "view",
      "type": "function",
      "constant": true
    },
    {
      "inputs": [
        {
          "internalType": "bytes32",
          "name": "role",
          "type": "bytes32"
        }
      ],
      "name": "getRoleMemberCount",
      "outputs": [
        {
          "internalType": "uint256",
          "name": "",
          "type": "uint256"
        }
      ],
      "stateMutability": "view",
      "type": "function",
      "constant": true
    },
    {
      "inputs": [
        {
          "internalType": "bytes32",
          "name": "role",
          "type": "bytes32"
        },
        {
          "internalType": "address",
          "name": "account",
          "type": "address"
        }
      ],
      "name": "grantRole",
      "outputs": [],
      "stateMutability": "nonpayable",
      "type": "function"
    },
    {
      "inputs": [
        {
          "internalType": "bytes32",
          "name": "role",
          "type": "bytes32"
        },
        {
          "internalType": "address",
          "name": "account",
          "type": "address"
        }
      ],
      "name": "hasRole",
      "outputs": [
        {
          "internalType": "bool",
          "name": "",
          "type": "bool"
        }
      ],
      "stateMutability": "view",
      "type": "function",
      "constant": true
    },
    {
      "inputs": [],
      "name": "paused",
      "outputs": [
        {
          "internalType": "bool",
          "name": "",
          "type": "bool"
        }
      ],
      "stateMutability": "view",
      "type": "function",
      "constant": true
    },
    {
      "inputs": [
        {
          "internalType": "bytes32",
          "name": "role",
          "type": "bytes32"
        },
        {
          "internalType": "address",
          "name": "account",
          "type": "address"
        }
      ],
      "name": "renounceRole",
      "outputs": [],
      "stateMutability": "nonpayable",
      "type": "function"
    },
    {
      "inputs": [
        {
          "internalType": "bytes32",
          "name": "role",
          "type": "bytes32"
        },
        {
          "internalType": "address",
          "name": "account",
          "type": "address"
        }
      ],
      "name": "revokeRole",
      "outputs": [],
      "stateMutability": "nonpayable",
      "type": "function"
    },
    {
      "inputs": [
        {
          "internalType": "address",
          "name": "uAddress",
          "type": "address"
        },
        {
          "internalType": "address",
          "name": "sAddress",
          "type": "address"
        },
        {
          "internalType": "address",
          "name": "pauserAddress",
          "type": "address"
        },
        {
          "internalType": "uint256",
          "name": "unstakingLockTime",
          "type": "uint256"
        },
        {
          "internalType": "uint256",
          "name": "epochInterval",
          "type": "uint256"
        },
        {
          "internalType": "uint256",
          "name": "valueDivisor",
          "type": "uint256"
        }
      ],
      "name": "initialize",
      "outputs": [],
      "stateMutability": "nonpayable",
      "type": "function"
    },
    {
      "inputs": [
        {
          "internalType": "uint256",
          "name": "stakeFee",
          "type": "uint256"
        },
        {
          "internalType": "uint256",
          "name": "unstakeFee",
          "type": "uint256"
        }
      ],
      "name": "setFees",
      "outputs": [
        {
          "internalType": "bool",
          "name": "success",
          "type": "bool"
        }
      ],
      "stateMutability": "nonpayable",
      "type": "function"
    },
    {
      "inputs": [
        {
          "internalType": "uint256",
          "name": "unstakingLockTime",
          "type": "uint256"
        }
      ],
      "name": "setUnstakingLockTime",
      "outputs": [
        {
          "internalType": "bool",
          "name": "success",
          "type": "bool"
        }
      ],
      "stateMutability": "nonpayable",
      "type": "function"
    },
    {
      "inputs": [],
      "name": "getTokens",
      "outputs": [
        {
          "internalType": "address",
          "name": "sTokenAddress",
          "type": "address"
        },
        {
          "internalType": "address",
          "name": "uTokenAddress",
          "type": "address"
        }
      ],
      "stateMutability": "view",
      "type": "function",
      "constant": true
    },
    {
      "inputs": [],
      "name": "getStakeUnstakeProps",
      "outputs": [
        {
          "internalType": "uint256",
          "name": "stakeFee",
          "type": "uint256"
        },
        {
          "internalType": "uint256",
          "name": "unstakeFee",
          "type": "uint256"
        },
        {
          "internalType": "uint256",
          "name": "minStake",
          "type": "uint256"
        },
        {
          "internalType": "uint256",
          "name": "minUnstake",
          "type": "uint256"
        },
        {
          "internalType": "uint256",
          "name": "valueDivisor",
          "type": "uint256"
        },
        {
          "internalType": "uint256",
          "name": "epochInterval",
          "type": "uint256"
        },
        {
          "internalType": "uint256",
          "name": "unstakeEpoch",
          "type": "uint256"
        },
        {
          "internalType": "uint256",
          "name": "unstakeEpochPrevious",
          "type": "uint256"
        },
        {
          "internalType": "uint256",
          "name": "unstakingLockTime",
          "type": "uint256"
        }
      ],
      "stateMutability": "view",
      "type": "function",
      "constant": true
    },
    {
      "inputs": [
        {
          "internalType": "uint256",
          "name": "minStake",
          "type": "uint256"
        },
        {
          "internalType": "uint256",
          "name": "minUnstake",
          "type": "uint256"
        }
      ],
      "name": "setMinimumValues",
      "outputs": [
        {
          "internalType": "bool",
          "name": "success",
          "type": "bool"
        }
      ],
      "stateMutability": "nonpayable",
      "type": "function"
    },
    {
      "inputs": [
        {
          "internalType": "uint256",
          "name": "unstakeEpoch",
          "type": "uint256"
        },
        {
          "internalType": "uint256",
          "name": "unstakeEpochPrevious",
          "type": "uint256"
        },
        {
          "internalType": "uint256",
          "name": "epochInterval",
          "type": "uint256"
        }
      ],
      "name": "setUnstakeEpoch",
      "outputs": [
        {
          "internalType": "bool",
          "name": "success",
          "type": "bool"
        }
      ],
      "stateMutability": "nonpayable",
      "type": "function"
    },
    {
      "inputs": [
        {
          "internalType": "address",
          "name": "uAddress",
          "type": "address"
        }
      ],
      "name": "setUTokensContract",
      "outputs": [],
      "stateMutability": "nonpayable",
      "type": "function"
    },
    {
      "inputs": [
        {
          "internalType": "address",
          "name": "sAddress",
          "type": "address"
        }
      ],
      "name": "setSTokensContract",
      "outputs": [],
      "stateMutability": "nonpayable",
      "type": "function"
    },
    {
      "inputs": [
        {
          "internalType": "address",
          "name": "tokenWrapperContract",
          "type": "address"
        }
      ],
      "name": "setTokenWrapperContract",
      "outputs": [],
      "stateMutability": "nonpayable",
      "type": "function"
    },
    {
      "inputs": [
        {
          "internalType": "address",
          "name": "to",
          "type": "address"
        },
        {
          "internalType": "uint256",
          "name": "stakingAmount",
          "type": "uint256"
        },
        {
          "internalType": "uint256",
          "name": "wrappingAmount",
          "type": "uint256"
        }
      ],
      "name": "stakeDirect",
      "outputs": [
        {
          "internalType": "uint256",
          "name": "amountStaked",
          "type": "uint256"
        },
        {
          "internalType": "uint256",
          "name": "amountWrapped",
          "type": "uint256"
        }
      ],
      "stateMutability": "nonpayable",
      "type": "function"
    },
    {
      "inputs": [
        {
          "internalType": "address[]",
          "name": "toAddressses",
          "type": "address[]"
        },
        {
          "internalType": "uint256[]",
          "name": "stakingAmounts",
          "type": "uint256[]"
        },
        {
          "internalType": "uint256[]",
          "name": "wrappingAmounts",
          "type": "uint256[]"
        }
      ],
      "name": "stakeDirectInBatch",
      "outputs": [
        {
          "internalType": "uint256[]",
          "name": "amountsStaked",
          "type": "uint256[]"
        },
        {
          "internalType": "uint256[]",
          "name": "amountsWrapped",
          "type": "uint256[]"
        }
      ],
      "stateMutability": "nonpayable",
      "type": "function"
    },
    {
      "inputs": [
        {
          "internalType": "address",
          "name": "to",
          "type": "address"
        },
        {
          "internalType": "uint256",
          "name": "amount",
          "type": "uint256"
        }
      ],
      "name": "stake",
      "outputs": [
        {
          "internalType": "uint256",
          "name": "amountStaked",
          "type": "uint256"
        }
      ],
      "stateMutability": "nonpayable",
      "type": "function"
    },
    {
      "inputs": [
        {
          "internalType": "address",
          "name": "to",
          "type": "address"
        },
        {
          "internalType": "uint256",
          "name": "amount",
          "type": "uint256"
        }
      ],
      "name": "unStake",
      "outputs": [
        {
          "internalType": "uint256",
          "name": "amountUnstaked",
          "type": "uint256"
        }
      ],
      "stateMutability": "nonpayable",
      "type": "function"
    },
    {
      "inputs": [
        {
          "internalType": "uint256",
          "name": "_unstakeTimestamp",
          "type": "uint256"
        }
      ],
      "name": "getUnstakeEpochMilestone",
      "outputs": [
        {
          "internalType": "uint256",
          "name": "unstakeEpochMilestone",
          "type": "uint256"
        }
      ],
      "stateMutability": "view",
      "type": "function",
      "constant": true
    },
    {
      "inputs": [
        {
          "internalType": "uint256",
          "name": "_unstakeTimestamp",
          "type": "uint256"
        }
      ],
      "name": "getUnstakeTime",
      "outputs": [
        {
          "internalType": "uint256",
          "name": "unstakeTime",
          "type": "uint256"
        },
        {
          "internalType": "uint256",
          "name": "unstakeEpoch",
          "type": "uint256"
        },
        {
          "internalType": "uint256",
          "name": "unstakeEpochPrevious",
          "type": "uint256"
        }
      ],
      "stateMutability": "view",
      "type": "function",
      "constant": true
    },
    {
      "inputs": [
        {
          "internalType": "address",
          "name": "staker",
          "type": "address"
        }
      ],
      "name": "withdrawUnstakedTokens",
      "outputs": [
        {
          "internalType": "uint256",
          "name": "withdrawBalance",
          "type": "uint256"
        }
      ],
      "stateMutability": "nonpayable",
      "type": "function"
    },
    {
      "inputs": [
        {
          "internalType": "address",
          "name": "staker",
          "type": "address"
        }
      ],
      "name": "getTotalUnbondedTokens",
      "outputs": [
        {
          "internalType": "uint256",
          "name": "unbondingTokens",
          "type": "uint256"
        }
      ],
      "stateMutability": "view",
      "type": "function",
      "constant": true
    },
    {
      "inputs": [
        {
          "internalType": "address",
          "name": "staker",
          "type": "address"
        }
      ],
      "name": "getTotalUnbondingTokens",
      "outputs": [
        {
          "internalType": "uint256",
          "name": "unbondingTokens",
          "type": "uint256"
        }
      ],
      "stateMutability": "view",
      "type": "function",
      "constant": true
    },
    {
      "inputs": [
        {
          "internalType": "uint256",
          "name": "batchingLimit",
          "type": "uint256"
        }
      ],
      "name": "setBatchingLimit",
      "outputs": [
        {
          "internalType": "bool",
          "name": "success",
          "type": "bool"
        }
      ],
      "stateMutability": "nonpayable",
      "type": "function"
    },
    {
      "inputs": [],
      "name": "getBatchingLimit",
      "outputs": [
        {
          "internalType": "uint256",
          "name": "batchingLimit",
          "type": "uint256"
        }
      ],
      "stateMutability": "view",
      "type": "function",
      "constant": true
    },
    {
      "inputs": [],
      "name": "pause",
      "outputs": [
        {
          "internalType": "bool",
          "name": "success",
          "type": "bool"
        }
      ],
      "stateMutability": "nonpayable",
      "type": "function"
    },
    {
      "inputs": [],
      "name": "unpause",
      "outputs": [
        {
          "internalType": "bool",
          "name": "success",
          "type": "bool"
        }
      ],
      "stateMutability": "nonpayable",
      "type": "function"
    }
  ],
  "bytecode": "0x608060405234801561001057600080fd5b50613115806100206000396000f3fe608060405234801561001057600080fd5b50600436106102695760003560e01c80638456cb5911610151578063b3deb34f116100c3578063d79cf55a11610087578063d79cf55a146108c9578063d9393814146108d1578063e321fca6146108fd578063e63ab1e914610948578063f3e6f94e14610950578063f75f0cf61461097c57610269565b8063b3deb34f14610853578063bef1307c1461085b578063ca15c87314610878578063d061adab14610895578063d547741f1461089d57610269565b80639b9eea46116101155780639b9eea461461077c5780639dc77cab14610799578063a217fddf146107c2578063aa6ca808146107ca578063adc9772e14610801578063b17e31651461082d57610269565b80638456cb59146106c457806385e32840146106cc578063898a9664146107075780639010d07c1461072d57806391d148541461075057610269565b806331b188cc116101ea57806355f2323f116101ae57806355f2323f146105d35780635c975abb14610622578063728a99ee1461062a578063728cdbca1461063257806378a2f0741461067a578063819020a01461069e57610269565b806331b188cc1461054e57806336568abe146105745780633e118dbe146105a05780633f4ba83a146105a857806351db00e7146105b057610269565b806316027ed01161023157806316027ed0146104af57806321bdf9e5146104b7578063248a9ca3146104df5780632e31fab8146104fc5780632f2ff15d1461052257610269565b80630273b70d1461026e5780630b78f9c0146102a65780630e4b2943146102dd57806310ef62f6146102fa578063118c38c7146104a7575b600080fd5b6102946004803603602081101561028457600080fd5b50356001600160a01b03166109a8565b60408051918252519081900360200190f35b6102c9600480360360408110156102bc57600080fd5b5080359060200135610a7c565b604080519115158252519081900360200190f35b6102c9600480360360208110156102f357600080fd5b5035610b68565b61040e6004803603606081101561031057600080fd5b81019060208101813564010000000081111561032b57600080fd5b82018360208201111561033d57600080fd5b8035906020019184602083028401116401000000008311171561035f57600080fd5b91939092909160208101903564010000000081111561037d57600080fd5b82018360208201111561038f57600080fd5b803590602001918460208302840111640100000000831117156103b157600080fd5b9193909290916020810190356401000000008111156103cf57600080fd5b8201836020820111156103e157600080fd5b8035906020019184602083028401116401000000008311171561040357600080fd5b509092509050610be5565b604051808060200180602001838103835285818151815260200191508051906020019060200280838360005b8381101561045257818101518382015260200161043a565b50505050905001838103825284818151815260200191508051906020019060200280838360005b83811015610491578181015183820152602001610479565b5050505090500194505050505060405180910390f35b610294610f2b565b610294610f4f565b6104dd600480360360208110156104cd57600080fd5b50356001600160a01b0316610f55565b005b610294600480360360208110156104f557600080fd5b5035610fe6565b6104dd6004803603602081101561051257600080fd5b50356001600160a01b0316610ffb565b6104dd6004803603604081101561053857600080fd5b50803590602001356001600160a01b031661108c565b6104dd6004803603602081101561056457600080fd5b50356001600160a01b03166110f3565b6104dd6004803603604081101561058a57600080fd5b50803590602001356001600160a01b0316611184565b6102946111e5565b6102c96111eb565b6102c9600480360360408110156105c657600080fd5b508035906020013561124f565b6105db61134c565b60408051998a5260208a0198909852888801969096526060880194909452608087019290925260a086015260c085015260e084015261010083015251908190036101200190f35b6102c961137a565b610294611383565b6104dd600480360360c081101561064857600080fd5b506001600160a01b03813581169160208101358216916040820135169060608101359060808101359060a00135611389565b6106826114a4565b604080516001600160a01b039092168252519081900360200190f35b610294600480360360208110156106b457600080fd5b50356001600160a01b03166114b3565b6102c96117e4565b6106e9600480360360208110156106e257600080fd5b5035611842565b60408051938452602084019290925282820152519081900360600190f35b6102946004803603602081101561071d57600080fd5b50356001600160a01b031661188c565b6106826004803603604081101561074357600080fd5b508035906020013561189e565b6102c96004803603604081101561076657600080fd5b50803590602001356001600160a01b03166118bd565b6102946004803603602081101561079257600080fd5b50356118d5565b6102c9600480360360608110156107af57600080fd5b5080359060208101359060400135611983565b610294611a90565b6107d2611a95565b60405180836001600160a01b03168152602001826001600160a01b031681526020019250505060405180910390f35b6102946004803603604081101561081757600080fd5b506001600160a01b038135169060200135611aac565b6102946004803603602081101561084357600080fd5b50356001600160a01b0316611dd2565b610294611e74565b6102c96004803603602081101561087157600080fd5b5035611e7a565b6102946004803603602081101561088e57600080fd5b5035611f05565b610682611f1c565b6104dd600480360360408110156108b357600080fd5b50803590602001356001600160a01b0316611f2b565b610682611f84565b610294600480360360408110156108e757600080fd5b506001600160a01b038135169060200135611f93565b61092f6004803603606081101561091357600080fd5b506001600160a01b038135169060208101359060400135612276565b6040805192835260208301919091528051918290030190f35b610294612356565b6102946004803603604081101561096657600080fd5b506001600160a01b038135169060200135612368565b6102946004803603604081101561099257600080fd5b506001600160a01b038135169060200135612399565b6001600160a01b038116600090815260a2602090815260408083205460a4909252822054805b82811015610a73576001600160a01b038516600090815260a2602052604081208054610a0f9190849081106109ff57fe5b9060005260206000200154611842565b50509050804210610a60576001600160a01b038616600090815260a3602052604090208054610a5d919084908110610a4357fe5b9060005260206000200154866123b590919063ffffffff16565b94505b50610a6c8160016123b5565b90506109ce565b5050505b919050565b6000610a8f81610a8a61240f565b6118bd565b610ac6576040805162461bcd60e51b81526020600482015260036024820152624c513160e81b604482015290519081900360640190fd5b609d54610ad4906064612413565b8311158015610af05750609d54610aec906064612413565b8211155b610b27576040805162461bcd60e51b815260206004820152600360248201526226289960e91b604482015290519081900360640190fd5b609b839055609c829055604051829084907f3be6e637f54f081a2dd12982cfd58481304fc98b604b18fa8ed4aa4e4a9d153290600090a35060015b92915050565b6000610b7681610a8a61240f565b610bad576040805162461bcd60e51b81526020600482015260036024820152624c513360e81b604482015290519081900360640190fd5b609e82905560405182907ffced4450741ad45114dbc966176eb1d16dc4f2259bc864aa395736a7e8355bbb90600090a2506001919050565b606080610c147f751b795d24b92e3d92d1d0d8f2885f4e9c9c269da350af36ae6b49069babf4bf610a8a61240f565b610c4e576040805162461bcd60e51b81526020600480830191909152602482015263098a264760e31b604482015290519081900360640190fd5b8685148015610c5c57508483145b610c96576040805162461bcd60e51b815260206004808301919091526024820152634c51323960e01b604482015290519081900360640190fd5b60008080898067ffffffffffffffff81118015610cb257600080fd5b50604051908082528060200260200182016040528015610cdc578160200160208202803683370190505b5095508067ffffffffffffffff81118015610cf657600080fd5b50604051908082528060200260200182016040528015610d20578160200160208202803683370190505b509450600091505b80821015610dbe57610d7a8c8c84818110610d3f57fe5b905060200201356001600160a01b03168b8b85818110610d5b57fe5b905060200201358a8a86818110610d6e57fe5b9050602002013561246c565b809450819550505083868381518110610d8f57fe5b60200260200101818152505082858381518110610da857fe5b6020908102919091010152600190910190610d28565b7fae1ff5caf707784d6d12e6dd90a042ce2994fc6f3d32634ea155dd6e352ed6cc8c8c8c8c8a8d8d8c4260405180806020018060200180602001806020018060200187815260200186810386528f8f82818152602001925060200280828437600083820152601f01601f191690910187810386528d8152602090810191508e908e0280828437600081840152601f19601f82011690508083019250505086810384528b818151815260200191508051906020019060200280838360005b83811015610e93578181015183820152602001610e7b565b5050505090500186810383528a8a828181526020019250602002808284376000838201819052601f909101601f191690920188810384528a5181528a51602091820193828d0193509102908190849084905b83811015610efd578181015183820152602001610ee5565b505050509050019e50505050505050505050505050505060405180910390a150505050965096945050505050565b7f751b795d24b92e3d92d1d0d8f2885f4e9c9c269da350af36ae6b49069babf4bf81565b60a65481565b610f626000610a8a61240f565b610f9c576040805162461bcd60e51b8152602060048083019190915260248201526304c5131360e41b604482015290519081900360640190fd5b609780546001600160a01b0319166001600160a01b0383169081179091556040517ff745c285f36f88bea6af14d4d0f33dd9350cef7895216c1615b1caaee7857e0c90600090a250565b60009081526065602052604090206002015490565b6110086000610a8a61240f565b611042576040805162461bcd60e51b815260206004808301919091526024820152634c51313160e01b604482015290519081900360640190fd5b609880546001600160a01b0319166001600160a01b0383169081179091556040517fd0b9dbe26f676f4cdb02fc249c203baa0314cec79e18b4194dc862795a5de03f90600090a250565b6000828152606560205260409020600201546110aa90610a8a61240f565b6110e55760405162461bcd60e51b815260040180806020018281038252602f815260200180612fe3602f913960400191505060405180910390fd5b6110ef82826126b3565b5050565b6111006000610a8a61240f565b61113a576040805162461bcd60e51b815260206004808301919091526024820152634c51323760e01b604482015290519081900360640190fd5b60a780546001600160a01b0319166001600160a01b0383169081179091556040517f2f9f272420570ea07d7da789fdc59a50c36792d6ea4f49a4d218b6f2431d049290600090a250565b61118c61240f565b6001600160a01b0316816001600160a01b0316146111db5760405162461bcd60e51b815260040180806020018281038252602f8152602001806130b1602f913960400191505060405180910390fd5b6110ef828261271c565b60a55481565b6000611207600080516020613091833981519152610a8a61240f565b611241576040805162461bcd60e51b815260206004808301919091526024820152634c51323360e01b604482015290519081900360640190fd5b611249612785565b50600190565b600061125d81610a8a61240f565b611294576040805162461bcd60e51b815260206004820152600360248201526213144d60ea1b604482015290519081900360640190fd5b60018310156112d0576040805162461bcd60e51b81526020600482015260036024820152624c513560e81b604482015290519081900360640190fd5b600182101561130c576040805162461bcd60e51b815260206004820152600360248201526226289b60e91b604482015290519081900360640190fd5b6099839055609a829055604051829084907fa94d40347449ea19b873d64ed55c99772194c49791e82be5c2dc24e4c0044fe390600090a350600192915050565b609b54609c54609954609a54609d54609f5460a05460a154609e549798969795969495939492939192909190565b60335460ff1690565b609d5481565b600054610100900460ff16806113a257506113a2612825565b806113b0575060005460ff16155b6113eb5760405162461bcd60e51b815260040180806020018281038252602e815260200180613042602e913960400191505060405180910390fd5b600054610100900460ff16158015611416576000805460ff1961ff0019909116610100171660011790555b61141e612836565b6114266128e8565b611438600061143361240f565b6110e5565b611450600080516020613091833981519152866110e5565b61145987610f55565b61146286610ffb565b61146b84610b68565b5061147760018061124f565b50609d829055611488428085611983565b50801561149b576000805461ff00191690555b50505050505050565b6097546001600160a01b031681565b60006114bd61137a565b15611502576040805162461bcd60e51b815260206004820152601060248201526f14185d5cd8589b194e881c185d5cd95960821b604482015290519081900360640190fd5b61150a61240f565b6001600160a01b0316826001600160a01b031614611558576040805162461bcd60e51b8152602060048083019190915260248201526304c5132360e41b604482015290519081900360640190fd5b6001600160a01b038216600090815260a4602052604081205460a6549091829161158290836123b5565b6001600160a01b038616600090815260a26020526040902054116115be576001600160a01b038516600090815260a260205260409020546115cb565b60a6546115cb90846123b5565b9050825b818110156116cb576001600160a01b038616600090815260a26020526040812080546116009190849081106109ff57fe5b505090508042106116b8576001600160a01b038716600090815260a360205260409020805461164e91908490811061163457fe5b9060005260206000200154876123b590919063ffffffff16565b6001600160a01b038816600090815260a2602052604090208054919750908390811061167657fe5b600091825260208083209091018290556001600160a01b038916825260a39052604090208054839081106116a657fe5b60009182526020822001556001909301925b506116c48160016123b5565b90506115cf565b506000841161170a576040805162461bcd60e51b815260206004808301919091526024820152634c51323160e01b604482015290519081900360640190fd5b60408051428152905185916001600160a01b038816917f31453b59c0eb931edc765cc2400876a524254457b5534d660c9da1d74ab4666b9181900360200190a36001600160a01b03808616600081815260a46020908152604080832087905560975481516340c10f1960e01b81526004810195909552602485018a905290519416936340c10f1993604480820194918390030190829087803b1580156117af57600080fd5b505af11580156117c3573d6000803e3d6000fd5b505050506040513d60208110156117d957600080fd5b509395945050505050565b6000611800600080516020613091833981519152610a8a61240f565b61183a576040805162461bcd60e51b815260206004808301919091526024820152632628991960e11b604482015290519081900360640190fd5b611249612985565b600080600080611851856118d5565b905080611862576000935050611885565b60a054925060a1549150611881609e54826123b590919063ffffffff16565b9350505b9193909250565b60a46020526000908152604090205481565b60008281526065602052604081206118b69083612a08565b9392505050565b60008281526065602052604081206118b69083612a14565b6000816118e457506000610a77565b60a0541580156118f4575060a154155b806118ff5750609f54155b1561190b575080610a77565b8160a054111561191e575060a054610a77565b600061194161193a60a15460a054612a2990919063ffffffff16565b84906123b5565b9050600061195a60a05483612a2990919063ffffffff16565b905061197b82611975609f5484612a8690919063ffffffff16565b906123b5565b949350505050565b600061199181610a8a61240f565b6119c8576040805162461bcd60e51b81526020600482015260036024820152624c513760e81b604482015290519081900360640190fd5b83831115611a03576040805162461bcd60e51b8152602060048201526003602482015262098a2760eb1b604482015290519081900360640190fd5b83158015611a1057508115155b15611a48576040805162461bcd60e51b81526020600482015260036024820152624c513960e81b604482015290519081900360640190fd5b60a084905560a1839055609f8290556040518290849086907f342db083975cc0697d0f81d0876299ecbf95d909e920426089062e540904497c90600090a45060019392505050565b600081565b6098546097546001600160a01b0391821692911690565b6000611ab661137a565b15611afb576040805162461bcd60e51b815260206004820152601060248201526f14185d5cd8589b194e881c185d5cd95960821b604482015290519081900360640190fd5b611b0361240f565b6001600160a01b0316836001600160a01b031614611b51576040805162461bcd60e51b815260206004808301919091526024820152632628989960e11b604482015290519081900360640190fd5b609954821015611b91576040805162461bcd60e51b815260206004808301919091526024820152634c51313360e01b604482015290519081900360640190fd5b609754604080516370a0823160e01b81526001600160a01b038681166004830152915160009392909216916370a0823191602480820192602092909190829003018186803b158015611be257600080fd5b505afa158015611bf6573d6000803e3d6000fd5b505050506040513d6020811015611c0c57600080fd5b5051905082811015611c4e576040805162461bcd60e51b8152602060048083019190915260248201526313144c4d60e21b604482015290519081900360640190fd5b6000611c746064611c6e609b54609d5488612aed9092919063ffffffff16565b90612ba6565b9050611c808482612a29565b92508383866001600160a01b03167f5fe79871cd2431c06447cbcf2557091da5d2ed5bc640f1028f42665913786e42426040518082815260200191505060405180910390a460975460408051632770a7eb60e21b81526001600160a01b0388811660048301526024820188905291519190921691639dc29fac9160448083019260209291908290030181600087803b158015611d1b57600080fd5b505af1158015611d2f573d6000803e3d6000fd5b505050506040513d6020811015611d4557600080fd5b5050609854604080516340c10f1960e01b81526001600160a01b03888116600483015260248201879052915191909216916340c10f199160448083019260209291908290030181600087803b158015611d9d57600080fd5b505af1158015611db1573d6000803e3d6000fd5b505050506040513d6020811015611dc757600080fd5b509295945050505050565b6001600160a01b038116600090815260a2602090815260408083205460a4909252822054805b82811015610a73576001600160a01b038516600090815260a2602052604081208054611e299190849081106109ff57fe5b5050905080421015611e61576001600160a01b038616600090815260a3602052604090208054611e5e919084908110610a4357fe5b94505b50611e6d8160016123b5565b9050611df8565b60a65490565b6000611e8881610a8a61240f565b611ec2576040805162461bcd60e51b8152602060048083019190915260248201526313144c8d60e21b604482015290519081900360640190fd5b60a682905560408051428152905183917f3e0887a905af0c5764f2c25c201fa1b9595065cb7008f54fe7734fefdd8e88dc919081900360200190a2506001919050565b6000818152606560205260408120610b6290612c0d565b60a7546001600160a01b031681565b600082815260656020526040902060020154611f4990610a8a61240f565b6111db5760405162461bcd60e51b81526004018080602001828103825260308152602001806130126030913960400191505060405180910390fd5b6098546001600160a01b031681565b6000611f9d61137a565b15611fe2576040805162461bcd60e51b815260206004820152601060248201526f14185d5cd8589b194e881c185d5cd95960821b604482015290519081900360640190fd5b611fea61240f565b6001600160a01b0316836001600160a01b031614612038576040805162461bcd60e51b815260206004808301919091526024820152634c51313560e01b604482015290519081900360640190fd5b609a54821015612078576040805162461bcd60e51b81526020600480830191909152602482015263098a262760e31b604482015290519081900360640190fd5b609854604080516370a0823160e01b81526001600160a01b038681166004830152915160009392909216916370a0823191602480820192602092909190829003018186803b1580156120c957600080fd5b505afa1580156120dd573d6000803e3d6000fd5b505050506040513d60208110156120f357600080fd5b5051905082811015612135576040805162461bcd60e51b815260206004808301919091526024820152634c51313960e01b604482015290519081900360640190fd5b60006121556064611c6e609c54609d5488612aed9092919063ffffffff16565b90506121618482612a29565b92508383866001600160a01b03167f98850af53deeaf736beb3ea22091c900e8e5cfdf8153342daa366dc1d83a39fd426040518082815260200191505060405180910390a460985460408051632770a7eb60e21b81526001600160a01b0388811660048301526024820188905291519190921691639dc29fac9160448083019260209291908290030181600087803b1580156121fc57600080fd5b505af1158015612210573d6000803e3d6000fd5b505050506040513d602081101561222657600080fd5b5050506001600160a01b03909316600081815260a2602090815260408083208054600181810183559185528385204291015593835260a38252822080549384018155825290200181905592915050565b6000806122a57f751b795d24b92e3d92d1d0d8f2885f4e9c9c269da350af36ae6b49069babf4bf610a8a61240f565b6122df576040805162461bcd60e51b815260206004808301919091526024820152634c51323560e01b604482015290519081900360640190fd5b6122ea85858561246c565b604080516001600160a01b03891681526020810188905280820184905260608101879052608081018390524260a082015290519294509092507f7fd980aad29d3d6256218a13a2d1d8dac5cf5d7411c1c122e2503923952eddd5919081900360c00190a1935093915050565b60008051602061309183398151915281565b60a2602052816000526040600020818154811061238457600080fd5b90600052602060002001600091509150505481565b60a3602052816000526040600020818154811061238457600080fd5b6000828201838110156118b6576040805162461bcd60e51b815260206004820152601b60248201527f536166654d6174683a206164646974696f6e206f766572666c6f770000000000604482015290519081900360640190fd5b3390565b60008261242257506000610b62565b8282028284828161242f57fe5b04146118b65760405162461bcd60e51b81526004018080602001828103825260218152602001806130706021913960400191505060405180910390fd5b6000806001600160a01b0385161580159061249057508315801561248e575082155b155b6124ca576040805162461bcd60e51b815260206004808301919091526024820152632628991b60e11b604482015290519081900360640190fd5b6000806000806124ee6064611c6e609b54609d548c612aed9092919063ffffffff16565b93506124fa8885612a29565b955060a760009054906101000a90046001600160a01b03166001600160a01b031663ec1893b46040518163ffffffff1660e01b815260040160a06040518083038186803b15801561254a57600080fd5b505afa15801561255e573d6000803e3d6000fd5b505050506040513d60a081101561257457600080fd5b50805160809091015190925090506125926064611c6e898585612aed565b925061259e8784612a29565b609754604080516340c10f1960e01b81526001600160a01b038d811660048301526024820185905291519398509116916340c10f19916044808201926020929091908290030181600087803b1580156125f657600080fd5b505af115801561260a573d6000803e3d6000fd5b505050506040513d602081101561262057600080fd5b5050609854604080516340c10f1960e01b81526001600160a01b038c81166004830152602482018a9052915191909216916340c10f199160448083019260209291908290030181600087803b15801561267857600080fd5b505af115801561268c573d6000803e3d6000fd5b505050506040513d60208110156126a257600080fd5b509599949850939650505050505050565b60008281526065602052604090206126cb9082612c18565b156110ef576126d861240f565b6001600160a01b0316816001600160a01b0316837f2f8788117e7eff1d82e926ec794901d17c78024a50270940304540a733656f0d60405160405180910390a45050565b60008281526065602052604090206127349082612c2d565b156110ef5761274161240f565b6001600160a01b0316816001600160a01b0316837ff6391f5c32d9c69d2a47ea670b442974b53935d1edc7fd64eb21e047a839171b60405160405180910390a45050565b61278d61137a565b6127d5576040805162461bcd60e51b815260206004820152601460248201527314185d5cd8589b194e881b9bdd081c185d5cd95960621b604482015290519081900360640190fd5b6033805460ff191690557f5db9ee0a495bf2e6ff9c91a7834c1ba4fdd244a5e8aa4e537bd38aeae4b073aa61280861240f565b604080516001600160a01b039092168252519081900360200190a1565b600061283030612c42565b15905090565b600054610100900460ff168061284f575061284f612825565b8061285d575060005460ff16155b6128985760405162461bcd60e51b815260040180806020018281038252602e815260200180613042602e913960400191505060405180910390fd5b600054610100900460ff161580156128c3576000805460ff1961ff0019909116610100171660011790555b6128cb612c48565b6128d3612c48565b80156128e5576000805461ff00191690555b50565b600054610100900460ff16806129015750612901612825565b8061290f575060005460ff16155b61294a5760405162461bcd60e51b815260040180806020018281038252602e815260200180613042602e913960400191505060405180910390fd5b600054610100900460ff16158015612975576000805460ff1961ff0019909116610100171660011790555b61297d612c48565b6128d3612ce8565b61298d61137a565b156129d2576040805162461bcd60e51b815260206004820152601060248201526f14185d5cd8589b194e881c185d5cd95960821b604482015290519081900360640190fd5b6033805460ff191660011790557f62e78cea01bee320cd4e420270b5ea74000d11b0c9f74754ebdbfc544b05a25861280861240f565b60006118b68383612d93565b60006118b6836001600160a01b038416612df7565b600082821115612a80576040805162461bcd60e51b815260206004820152601e60248201527f536166654d6174683a207375627472616374696f6e206f766572666c6f770000604482015290519081900360640190fd5b50900390565b6000808211612adc576040805162461bcd60e51b815260206004820152601860248201527f536166654d6174683a206d6f64756c6f206279207a65726f0000000000000000604482015290519081900360640190fd5b818381612ae557fe5b069392505050565b6000806000612afc8686612e0f565b9150915060008480612b0a57fe5b868809905082811115612b1e576001820391505b918290039181612b3c57848381612b3157fe5b0493505050506118b6565b848210612b90576040805162461bcd60e51b815260206004820152601a60248201527f46756c6c4d6174683a2046554c4c4449565f4f564552464c4f57000000000000604482015290519081900360640190fd5b612b9b838387612e3c565b979650505050505050565b6000808211612bfc576040805162461bcd60e51b815260206004820152601a60248201527f536166654d6174683a206469766973696f6e206279207a65726f000000000000604482015290519081900360640190fd5b818381612c0557fe5b049392505050565b6000610b6282612eac565b60006118b6836001600160a01b038416612eb0565b60006118b6836001600160a01b038416612efa565b3b151590565b600054610100900460ff1680612c615750612c61612825565b80612c6f575060005460ff16155b612caa5760405162461bcd60e51b815260040180806020018281038252602e815260200180613042602e913960400191505060405180910390fd5b600054610100900460ff161580156128d3576000805460ff1961ff00199091166101001716600117905580156128e5576000805461ff001916905550565b600054610100900460ff1680612d015750612d01612825565b80612d0f575060005460ff16155b612d4a5760405162461bcd60e51b815260040180806020018281038252602e815260200180613042602e913960400191505060405180910390fd5b600054610100900460ff16158015612d75576000805460ff1961ff0019909116610100171660011790555b6033805460ff1916905580156128e5576000805461ff001916905550565b81546000908210612dd55760405162461bcd60e51b8152600401808060200182810382526022815260200180612fc16022913960400191505060405180910390fd5b826000018281548110612de457fe5b9060005260206000200154905092915050565b60009081526001919091016020526040902054151590565b6000808060001984860990508385029250828103915082811015612e34576001820391505b509250929050565b60008181038216808381612e4c57fe5b049250808581612e5857fe5b049450808160000381612e6757fe5b60028581038087028203028087028203028087028203028087028203028087028203028087028203029586029003909402930460010193909302939093010292915050565b5490565b6000612ebc8383612df7565b612ef257508154600181810184556000848152602080822090930184905584548482528286019093526040902091909155610b62565b506000610b62565b60008181526001830160205260408120548015612fb65783546000198083019190810190600090879083908110612f2d57fe5b9060005260206000200154905080876000018481548110612f4a57fe5b600091825260208083209091019290925582815260018981019092526040902090840190558654879080612f7a57fe5b60019003818190600052602060002001600090559055866001016000878152602001908152602001600020600090556001945050505050610b62565b6000915050610b6256fe456e756d657261626c655365743a20696e646578206f7574206f6620626f756e6473416363657373436f6e74726f6c3a2073656e646572206d75737420626520616e2061646d696e20746f206772616e74416363657373436f6e74726f6c3a2073656e646572206d75737420626520616e2061646d696e20746f207265766f6b65496e697469616c697a61626c653a20636f6e747261637420697320616c726561647920696e697469616c697a6564536166654d6174683a206d756c7469706c69636174696f6e206f766572666c6f7765d7a28e3265b37a6474929f336521b332c1681b933f6cb9f3376673440d862a416363657373436f6e74726f6c3a2063616e206f6e6c792072656e6f756e636520726f6c657320666f722073656c66a2646970667358221220dcc3d6961500ec1c0b3cd1a66e514d25e37848cfaf63895be2722f192f268f1c64736f6c63430007060033",
  "immutableReferences": {},
  "source": "/*\n Copyright [2019] - [2021], PERSISTENCE TECHNOLOGIES PTE. LTD. and the pStake-smartContracts contributors\n SPDX-License-Identifier: Apache-2.0\n*/\n\npragma solidity >=0.7.0;\n\nimport \"@openzeppelin/contracts-upgradeable/math/SafeMathUpgradeable.sol\";\nimport \"@openzeppelin/contracts-upgradeable/access/AccessControlUpgradeable.sol\";\nimport \"@openzeppelin/contracts-upgradeable/utils/PausableUpgradeable.sol\";\nimport \"./interfaces/ISTokensXPRT.sol\";\nimport \"./interfaces/IUTokensXPRT.sol\";\nimport \"./interfaces/ILiquidStakingXPRTV2.sol\";\nimport \"./interfaces/ITokenWrapperXPRTV2.sol\";\nimport \"./libraries/FullMath.sol\";\n\ncontract LiquidStakingXPRTV2 is\n\tILiquidStakingXPRTV2,\n\tPausableUpgradeable,\n\tAccessControlUpgradeable\n{\n\tusing SafeMathUpgradeable for uint256;\n\tusing FullMath for uint256;\n\n\t//Private instances of contracts to handle Utokens and Stokens\n\tIUTokensXPRT public _uTokens;\n\tISTokensXPRT public _sTokens;\n\n\t// defining the fees and minimum values\n\tuint256 private _minStake;\n\tuint256 private _minUnstake;\n\tuint256 private _stakeFee;\n\tuint256 private _unstakeFee;\n\tuint256 public _valueDivisor;\n\n\t// constants defining access control ROLES\n\tbytes32 public constant PAUSER_ROLE = keccak256(\"PAUSER_ROLE\");\n\n\t// variables pertaining to unbonding logic\n\tuint256 private _unstakingLockTime;\n\tuint256 private _epochInterval;\n\tuint256 private _unstakeEpoch;\n\tuint256 private _unstakeEpochPrevious;\n\n\t//Mapping to handle the Expiry period\n\tmapping(address => uint256[]) public _unstakingExpiration;\n\n\t//Mapping to handle the Expiry amount\n\tmapping(address => uint256[]) public _unstakingAmount;\n\n\t//mappint to handle a counter variable indicating from what index to start the loop.\n\tmapping(address => uint256) public _withdrawCounters;\n\n\t// variable pertaining to contract upgrades versioning\n\tuint256 public _version;\n\n\t// variable to limit iterations in dynamic arrays\n\tuint256 public _batchingLimit;\n\n\t// TokenWrapper contract address\n\taddress public override _tokenWrapperContract;\n\n\t// BRIDGE_ADMIN role constant (needs to be set)\n\tbytes32 public constant BRIDGE_ADMIN_ROLE = keccak256(\"BRIDGE_ADMIN_ROLE\");\n\n\t/**\n\t * @dev Constructor for initializing the LiquidStaking contract.\n\t * @param uAddress - address of the UToken contract.\n\t * @param sAddress - address of the SToken contract.\n\t * @param pauserAddress - address of the pauser admin.\n\t * @param unstakingLockTime - varies from 21 hours to 21 days.\n\t * @param epochInterval - varies from 3 hours to 3 days.\n\t * @param valueDivisor - valueDivisor set to 10^9.\n\t */\n\tfunction initialize(\n\t\taddress uAddress,\n\t\taddress sAddress,\n\t\taddress pauserAddress,\n\t\tuint256 unstakingLockTime,\n\t\tuint256 epochInterval,\n\t\tuint256 valueDivisor\n\t) public virtual initializer {\n\t\t__AccessControl_init();\n\t\t__Pausable_init();\n\t\t_setupRole(DEFAULT_ADMIN_ROLE, _msgSender());\n\t\t_setupRole(PAUSER_ROLE, pauserAddress);\n\t\tsetUTokensContract(uAddress);\n\t\tsetSTokensContract(sAddress);\n\t\tsetUnstakingLockTime(unstakingLockTime);\n\t\tsetMinimumValues(1, 1);\n\t\t_valueDivisor = valueDivisor;\n\t\tsetUnstakeEpoch(block.timestamp, block.timestamp, epochInterval);\n\t}\n\n\t/**\n\t * @dev Set 'fees', called from admin\n\t * @param stakeFee: stake fee\n\t * @param unstakeFee: unstake fee\n\t *\n\t * Emits a {SetFees} event with 'fee' set to the stake and unstake.\n\t *\n\t */\n\tfunction setFees(uint256 stakeFee, uint256 unstakeFee)\n\t\tpublic\n\t\tvirtual\n\t\toverride\n\t\treturns (bool success)\n\t{\n\t\trequire(hasRole(DEFAULT_ADMIN_ROLE, _msgSender()), \"LQ1\");\n\t\t// range checks for fees. Since fee cannot be more than 100%, the max cap\n\t\t// is _valueDivisor * 100, which then brings the fees to 100 (percentage)\n\t\trequire(\n\t\t\t(stakeFee <= _valueDivisor.mul(100)) &&\n\t\t\t\t(unstakeFee <= _valueDivisor.mul(100)),\n\t\t\t\"LQ2\"\n\t\t);\n\t\t_stakeFee = stakeFee;\n\t\t_unstakeFee = unstakeFee;\n\t\temit SetFees(stakeFee, unstakeFee);\n\t\treturn true;\n\t}\n\n\t/**\n\t * @dev Set 'unstake props', called from admin\n\t * @param unstakingLockTime: varies from 21 hours to 21 days\n\t *\n\t * Emits a {SetUnstakeProps} event with 'fee' set to the stake and unstake.\n\t *\n\t */\n\tfunction setUnstakingLockTime(uint256 unstakingLockTime)\n\t\tpublic\n\t\tvirtual\n\t\toverride\n\t\treturns (bool success)\n\t{\n\t\trequire(hasRole(DEFAULT_ADMIN_ROLE, _msgSender()), \"LQ3\");\n\t\t_unstakingLockTime = unstakingLockTime;\n\t\temit SetUnstakingLockTime(unstakingLockTime);\n\t\treturn true;\n\t}\n\n\t/**\n\t * @dev get the SToken and UToken address\n\t *\n\t */\n\tfunction getTokens()\n\t\tpublic\n\t\tview\n\t\tvirtual\n\t\toverride\n\t\treturns (address sTokenAddress, address uTokenAddress)\n\t{\n\t\tsTokenAddress = address(_sTokens);\n\t\tuTokenAddress = address(_uTokens);\n\t}\n\n\t/**\n\t * @dev get fees, min values, value divisor and epoch props\n\t *\n\t */\n\tfunction getStakeUnstakeProps()\n\t\tpublic\n\t\tview\n\t\tvirtual\n\t\toverride\n\t\treturns (\n\t\t\tuint256 stakeFee,\n\t\t\tuint256 unstakeFee,\n\t\t\tuint256 minStake,\n\t\t\tuint256 minUnstake,\n\t\t\tuint256 valueDivisor,\n\t\t\tuint256 epochInterval,\n\t\t\tuint256 unstakeEpoch,\n\t\t\tuint256 unstakeEpochPrevious,\n\t\t\tuint256 unstakingLockTime\n\t\t)\n\t{\n\t\tstakeFee = _stakeFee;\n\t\tunstakeFee = _unstakeFee;\n\t\tminStake = _minStake;\n\t\tminUnstake = _minUnstake;\n\t\tvalueDivisor = _valueDivisor;\n\t\tepochInterval = _epochInterval;\n\t\tunstakeEpoch = _unstakeEpoch;\n\t\tunstakeEpochPrevious = _unstakeEpochPrevious;\n\t\tunstakingLockTime = _unstakingLockTime;\n\t}\n\n\t/**\n\t * @dev Set 'minimum values', called from admin\n\t * @param minStake: stake minimum value\n\t * @param minUnstake: unstake minimum value\n\t *\n\t * Emits a {SetMinimumValues} event with 'minimum value' set to the stake and unstake.\n\t * check the anchor integration staking operation for rewards liquidation before you set _minStake\n\t *\n\t */\n\tfunction setMinimumValues(uint256 minStake, uint256 minUnstake)\n\t\tpublic\n\t\tvirtual\n\t\toverride\n\t\treturns (bool success)\n\t{\n\t\trequire(hasRole(DEFAULT_ADMIN_ROLE, _msgSender()), \"LQ4\");\n\t\trequire(minStake >= 1, \"LQ5\");\n\t\trequire(minUnstake >= 1, \"LQ6\");\n\t\t// check the anchor integration staking operation for rewards liquidation before you set _minStake\n\t\t_minStake = minStake;\n\t\t_minUnstake = minUnstake;\n\t\temit SetMinimumValues(minStake, minUnstake);\n\t\treturn true;\n\t}\n\n\t/**\n\t * @dev Set 'unstake epoch', called from admin\n\t * @param unstakeEpoch: unstake epoch\n\t * @param unstakeEpochPrevious: unstake epoch previous(initially set to same value as unstakeEpoch)\n\t * @param epochInterval: varies from 3 hours to 3 days\n\t *\n\t * Emits a {SetUnstakeEpoch} event with 'unstakeEpoch'\n\t *\n\t */\n\tfunction setUnstakeEpoch(\n\t\tuint256 unstakeEpoch,\n\t\tuint256 unstakeEpochPrevious,\n\t\tuint256 epochInterval\n\t) public virtual override returns (bool success) {\n\t\trequire(hasRole(DEFAULT_ADMIN_ROLE, _msgSender()), \"LQ7\");\n\t\trequire(unstakeEpochPrevious <= unstakeEpoch, \"LQ8\");\n\t\tif (unstakeEpoch == 0 && epochInterval != 0) revert(\"LQ9\");\n\t\t_unstakeEpoch = unstakeEpoch;\n\t\t_unstakeEpochPrevious = unstakeEpochPrevious;\n\t\t_epochInterval = epochInterval;\n\t\temit SetUnstakeEpoch(unstakeEpoch, unstakeEpochPrevious, epochInterval);\n\t\treturn true;\n\t}\n\n\t/**\n\t * @dev Set 'contract address', called from constructor\n\t * @param uAddress: utoken contract address\n\t *\n\t * Emits a {SetUTokensContract} event with '_contract' set to the utoken contract address.\n\t *\n\t */\n\tfunction setUTokensContract(address uAddress) public virtual override {\n\t\trequire(hasRole(DEFAULT_ADMIN_ROLE, _msgSender()), \"LQ10\");\n\t\t_uTokens = IUTokensXPRT(uAddress);\n\t\temit SetUTokensContract(uAddress);\n\t}\n\n\t/**\n\t * @dev Set 'contract address', called from constructor\n\t * @param sAddress: stoken contract address\n\t *\n\t * Emits a {SetSTokensContract} event with '_contract' set to the stoken contract address.\n\t *\n\t */\n\tfunction setSTokensContract(address sAddress) public virtual override {\n\t\trequire(hasRole(DEFAULT_ADMIN_ROLE, _msgSender()), \"LQ11\");\n\t\t_sTokens = ISTokensXPRT(sAddress);\n\t\temit SetSTokensContract(sAddress);\n\t}\n\n\t/**\n\t * @dev Set 'contract address', called from constructor\n\t * @param tokenWrapperContract: stoken contract address\n\t *\n\t * Emits a {SetTokenWrapperContract} event with '_contract' set to the stoken contract address.\n\t *\n\t */\n\tfunction setTokenWrapperContract(address tokenWrapperContract)\n\t\tpublic\n\t\tvirtual\n\t\toverride\n\t{\n\t\trequire(hasRole(DEFAULT_ADMIN_ROLE, _msgSender()), \"LQ27\");\n\t\t_tokenWrapperContract = tokenWrapperContract;\n\t\temit SetTokenWrapperContract(tokenWrapperContract);\n\t}\n\n\t/**\n\t * @dev Stake utokens over the platform with address 'to' for desired 'amount'(Burn uTokens and Mint sTokens)\n\t * @param to: user address for staking, amount: number of tokens to stake\n\t * @param stakingAmount: amount to be converted to stkToken\n\t * @param wrappingAmount: amount to be converted to pToken\n\t *\n\t */\n\tfunction _stakeDirect(\n\t\taddress to,\n\t\tuint256 stakingAmount,\n\t\tuint256 wrappingAmount\n\t) internal returns (uint256 amountStaked, uint256 amountWrapped) {\n\t\t// require to addres to be non zero and stakingAmount & wrappingAmount to not be zero simultaneously\n\t\trequire(\n\t\t\tto != address(0) && !(stakingAmount == 0 && wrappingAmount == 0),\n\t\t\t\"LQ26\"\n\t\t);\n\t\t// factor the fee component and find the resultant STokens to be minted\n\t\tuint256 stakeFeeAmount;\n\t\tuint256 depositFeeAmount;\n\t\tuint256 depositFee;\n\t\tuint256 valueDivisor;\n\n\t\tstakeFeeAmount = (stakingAmount.mulDiv(_stakeFee, _valueDivisor)).div(\n\t\t\t100\n\t\t);\n\t\tamountStaked = stakingAmount.sub(stakeFeeAmount);\n\n\t\t// get the deposit fee from the TokenWrapper contract\n\t\t(depositFee, , , , valueDivisor) = ITokenWrapperXPRTV2(\n\t\t\t_tokenWrapperContract\n\t\t).getProps();\n\n\t\t// factor the fee component and find the resultant UTokens to be minted\n\t\tdepositFeeAmount = (wrappingAmount.mulDiv(depositFee, valueDivisor))\n\t\t\t.div(100);\n\t\tamountWrapped = wrappingAmount.sub(depositFeeAmount);\n\n\t\t// perform the mint for the staked and the wrapped amounts\n\t\t_uTokens.mint(to, amountWrapped);\n\t\t_sTokens.mint(to, amountStaked);\n\t}\n\n\t/**\n\t * @dev Stake utokens over the platform with address 'to' for desired 'amount'(Burn uTokens and Mint sTokens)\n\t * @param to: user address for staking, amount: number of tokens to stake\n\t * @param stakingAmount: amount to be converted to stkToken\n\t * @param wrappingAmount: amount to be converted to pToken\n\t *\n\t */\n\tfunction stakeDirect(\n\t\taddress to,\n\t\tuint256 stakingAmount,\n\t\tuint256 wrappingAmount\n\t)\n\t\tpublic\n\t\tvirtual\n\t\toverride\n\t\treturns (uint256 amountStaked, uint256 amountWrapped)\n\t{\n\t\t// only bridge admin is allowed to execute this function\n\t\trequire(hasRole(BRIDGE_ADMIN_ROLE, _msgSender()), \"LQ25\");\n\n\t\t(amountStaked, amountWrapped) = _stakeDirect(\n\t\t\tto,\n\t\t\tstakingAmount,\n\t\t\twrappingAmount\n\t\t);\n\n\t\temit StakeDirect(\n\t\t\tto,\n\t\t\tstakingAmount,\n\t\t\tamountStaked,\n\t\t\twrappingAmount,\n\t\t\tamountWrapped,\n\t\t\tblock.timestamp\n\t\t);\n\t}\n\n\t/**\n\t * @dev Stake utokens over the platform with address 'to' for desired 'amount'(Burn uTokens and Mint sTokens)\n\t * @param toAddressses: user addresses for staking, amount: number of tokens to stake\n\t * @param stakingAmounts: amounts to be converted to stkToken\n\t * @param wrappingAmounts: amounts to be converted to pToken\n\t *\n\t * Emits a {StakeDirectInBatch} event with 'to' set to address and 'amount' set to amount of tokens.\n\t */\n\tfunction stakeDirectInBatch(\n\t\taddress[] calldata toAddressses,\n\t\tuint256[] calldata stakingAmounts,\n\t\tuint256[] calldata wrappingAmounts\n\t)\n\t\texternal\n\t\tvirtual\n\t\toverride\n\t\treturns (\n\t\t\tuint256[] memory amountsStaked,\n\t\t\tuint256[] memory amountsWrapped\n\t\t)\n\t{\n\t\t// only bridge admin is allowed to execute this function\n\t\trequire(hasRole(BRIDGE_ADMIN_ROLE, _msgSender()), \"LQ28\");\n\n\t\t// require the array sizes to be equal\n\t\trequire(\n\t\t\ttoAddressses.length == stakingAmounts.length &&\n\t\t\t\tstakingAmounts.length == wrappingAmounts.length,\n\t\t\t\"LQ29\"\n\t\t);\n\n\t\tuint256 amountStaked;\n\t\tuint256 amountWrapped;\n\t\tuint256 index;\n\t\tuint256 arrayLength = toAddressses.length;\n\t\tamountsStaked = new uint256[](arrayLength);\n\t\tamountsWrapped = new uint256[](arrayLength);\n\n\t\tfor (index = 0; index < arrayLength; index++) {\n\t\t\t(amountStaked, amountWrapped) = _stakeDirect(\n\t\t\t\ttoAddressses[index],\n\t\t\t\tstakingAmounts[index],\n\t\t\t\twrappingAmounts[index]\n\t\t\t);\n\t\t\tamountsStaked[index] = amountStaked;\n\t\t\tamountsWrapped[index] = amountWrapped;\n\t\t}\n\n\t\temit StakeDirectInBatch(\n\t\t\ttoAddressses,\n\t\t\tstakingAmounts,\n\t\t\tamountsStaked,\n\t\t\twrappingAmounts,\n\t\t\tamountsWrapped,\n\t\t\tblock.timestamp\n\t\t);\n\t}\n\n\t/**\n\t * @dev Stake utokens over the platform with address 'to' for desired 'amount'(Burn uTokens and Mint sTokens)\n\t * @param to: user address for staking, amount: number of tokens to stake\n\t *\n\t */\n\tfunction stake(address to, uint256 amount)\n\t\tpublic\n\t\tvirtual\n\t\toverride\n\t\twhenNotPaused\n\t\treturns (uint256 amountStaked)\n\t{\n\t\t// Check the supplied amount is greater than minimum stake value\n\t\trequire(to == _msgSender(), \"LQ12\");\n\n\t\t// the value which should be greater than or equal to _minStake\n\t\t// is amount since minval applies to number of sTokens to be minted\n\t\trequire(amount >= _minStake, \"LQ13\");\n\n\t\t// Check the current balance for uTokens is greater than the amount to be staked\n\t\tuint256 currentUTokenBalance = _uTokens.balanceOf(to);\n\t\trequire(currentUTokenBalance >= amount, \"LQ14\");\n\n\t\t// calculate the amountStaked by deducting fee\n\t\tuint256 stakeFeeAmount = (amount.mulDiv(_stakeFee, _valueDivisor)).div(\n\t\t\t100\n\t\t);\n\t\tamountStaked = amount.sub(stakeFeeAmount);\n\n\t\t// the event needs to capture both amountStaked and  amount\n\t\temit StakeTokens(to, amountStaked, amount, block.timestamp);\n\n\t\t// Burn the uTokens as specified with the amount\n\t\t_uTokens.burn(to, amount);\n\n\t\t// Mint the sTokens for the account specified\n\t\t_sTokens.mint(to, amountStaked);\n\t}\n\n\t/**\n\t * @dev UnStake stokens over the platform with address 'to' for desired 'amount'\n\t * @param to: user address for staking, amount: number of tokens to unstake\n\t * @param amount: cumulative amount of STokens to be burned\n\t *\n\t */\n\tfunction unStake(address to, uint256 amount)\n\t\tpublic\n\t\tvirtual\n\t\toverride\n\t\twhenNotPaused\n\t\treturns (uint256 amountUnstaked)\n\t{\n\t\t// Check the supplied amount is greater than 0\n\t\trequire(to == _msgSender(), \"LQ15\");\n\n\t\t// the value which should be greater than or equal to _minSUnstake\n\t\t// is amount since minval applies to number of uTokens to be withdrawn\n\t\trequire(amount >= _minUnstake, \"LQ18\");\n\n\t\t// Check the current balance for sTokens is greater than the amount to be unStaked\n\t\tuint256 currentSTokenBalance = _sTokens.balanceOf(to);\n\t\trequire(currentSTokenBalance >= amount, \"LQ19\");\n\n\t\t// calculate the amountUnstaked by deducting fee\n\t\tuint256 unstakeFeeAmount = (amount.mulDiv(_unstakeFee, _valueDivisor))\n\t\t\t.div(100);\n\t\tamountUnstaked = amount.sub(unstakeFeeAmount);\n\n\t\t// the event needs to capture both amountUnstaked and  amount\n\t\temit UnstakeTokens(to, amountUnstaked, amount, block.timestamp);\n\n\t\t// Burn the sTokens as specified with the amount\n\t\t_sTokens.burn(to, amount);\n\t\t_unstakingExpiration[to].push(block.timestamp);\n\t\t// array will hold amount and not amountUnstaked because that is the amount of\n\t\t// uTokens pending to be credited after withdraw period\n\t\t_unstakingAmount[to].push(amountUnstaked);\n\t}\n\n\t/**\n\t * @dev returns the nearest epoch milestone in the future\n\t */\n\tfunction getUnstakeEpochMilestone(uint256 _unstakeTimestamp)\n\t\tpublic\n\t\tview\n\t\tvirtual\n\t\toverride\n\t\treturns (uint256 unstakeEpochMilestone)\n\t{\n\t\tif (_unstakeTimestamp == 0) return 0;\n\t\t// if epoch values are not relevant, then the epoch milestone is the unstake timestamp itself (backward compatibility)\n\t\tif (\n\t\t\t(_unstakeEpoch == 0 && _unstakeEpochPrevious == 0) ||\n\t\t\t_epochInterval == 0\n\t\t) return _unstakeTimestamp;\n\t\tif (_unstakeEpoch > _unstakeTimestamp) return (_unstakeEpoch);\n\t\tuint256 _referenceStartTime = (_unstakeTimestamp).add(\n\t\t\t_unstakeEpoch.sub(_unstakeEpochPrevious)\n\t\t);\n\t\tuint256 _timeDiff = _referenceStartTime.sub(_unstakeEpoch);\n\t\tunstakeEpochMilestone = (_timeDiff.mod(_epochInterval)).add(\n\t\t\t_referenceStartTime\n\t\t);\n\t\treturn (unstakeEpochMilestone);\n\t}\n\n\t/**\n\t * @dev returns the time left for unbonding to finish\n\t */\n\tfunction getUnstakeTime(uint256 _unstakeTimestamp)\n\t\tpublic\n\t\tview\n\t\tvirtual\n\t\toverride\n\t\treturns (\n\t\t\tuint256 unstakeTime,\n\t\t\tuint256 unstakeEpoch,\n\t\t\tuint256 unstakeEpochPrevious\n\t\t)\n\t{\n\t\tuint256 _unstakeEpochMilestone = getUnstakeEpochMilestone(\n\t\t\t_unstakeTimestamp\n\t\t);\n\t\tif (_unstakeEpochMilestone == 0)\n\t\t\treturn (0, unstakeEpoch, unstakeEpochPrevious);\n\t\tunstakeEpoch = _unstakeEpoch;\n\t\tunstakeEpochPrevious = _unstakeEpochPrevious;\n\t\t//adding unstakingLockTime with epoch difference\n\t\tunstakeTime = _unstakeEpochMilestone.add(_unstakingLockTime);\n\t\treturn (unstakeTime, unstakeEpoch, unstakeEpochPrevious);\n\t}\n\n\t/**\n\t * @dev Lock the unstaked tokens for 21 days, user can withdraw the same (Mint uTokens with 21 days locking period)\n\t *\n\t * @param staker: user address for withdraw\n\t *\n\t */\n\tfunction withdrawUnstakedTokens(address staker)\n\t\tpublic\n\t\tvirtual\n\t\toverride\n\t\twhenNotPaused\n\t\treturns (uint256 withdrawBalance)\n\t{\n\t\trequire(staker == _msgSender(), \"LQ20\");\n\t\tuint256 counter = _withdrawCounters[staker];\n\t\tuint256 counter2 = _withdrawCounters[staker];\n\t\tuint256 unstakingExpirationLength = _unstakingExpiration[staker]\n\t\t\t.length > _batchingLimit.add(counter)\n\t\t\t? _batchingLimit.add(counter)\n\t\t\t: _unstakingExpiration[staker].length;\n\n\t\tfor (uint256 i = counter; i < unstakingExpirationLength; i = i.add(1)) {\n\t\t\t//get getUnstakeTime and compare it with current timestamp to check if 21 days + epoch difference has passed\n\t\t\t(uint256 _getUnstakeTime, , ) = getUnstakeTime(\n\t\t\t\t_unstakingExpiration[staker][i]\n\t\t\t);\n\t\t\tif (block.timestamp >= _getUnstakeTime) {\n\t\t\t\t//if 21 days + epoch difference has passed, then add the balance and then mint uTokens\n\t\t\t\twithdrawBalance = withdrawBalance.add(\n\t\t\t\t\t_unstakingAmount[staker][i]\n\t\t\t\t);\n\t\t\t\tdelete _unstakingExpiration[staker][i];\n\t\t\t\tdelete _unstakingAmount[staker][i];\n\t\t\t\tcounter2++;\n\t\t\t}\n\t\t}\n\n\t\t// require withdrawBalance to be non zero\n\t\trequire(withdrawBalance > 0, \"LQ21\");\n\n\t\t// emit an event\n\t\temit WithdrawUnstakeTokens(staker, withdrawBalance, block.timestamp);\n\n\t\t// update _withdrawCounters[staker] only once outside for loop to save gas\n\t\t_withdrawCounters[staker] = counter2;\n\t\t_uTokens.mint(staker, withdrawBalance);\n\t}\n\n\t/**\n\t * @dev get Total Unbonded Tokens\n\t * @param staker: account address\n\t *\n\t */\n\tfunction getTotalUnbondedTokens(address staker)\n\t\tpublic\n\t\tview\n\t\tvirtual\n\t\toverride\n\t\treturns (uint256 unbondingTokens)\n\t{\n\t\tuint256 _unstakingExpirationLength = _unstakingExpiration[staker]\n\t\t\t.length;\n\t\tuint256 _counter = _withdrawCounters[staker];\n\t\tfor (\n\t\t\tuint256 i = _counter;\n\t\t\ti < _unstakingExpirationLength;\n\t\t\ti = i.add(1)\n\t\t) {\n\t\t\t//get getUnstakeTime and compare it with current timestamp to check if 21 days + epoch difference has passed\n\t\t\t(uint256 _getUnstakeTime, , ) = getUnstakeTime(\n\t\t\t\t_unstakingExpiration[staker][i]\n\t\t\t);\n\t\t\tif (block.timestamp >= _getUnstakeTime) {\n\t\t\t\t//if 21 days + epoch difference has passed, then check the token amount and send back\n\t\t\t\tunbondingTokens = unbondingTokens.add(\n\t\t\t\t\t_unstakingAmount[staker][i]\n\t\t\t\t);\n\t\t\t}\n\t\t}\n\t\treturn unbondingTokens;\n\t}\n\n\t/**\n\t * @dev get Total Unbonding Tokens\n\t * @param staker: account address\n\t *\n\t */\n\tfunction getTotalUnbondingTokens(address staker)\n\t\tpublic\n\t\tview\n\t\tvirtual\n\t\toverride\n\t\treturns (uint256 unbondingTokens)\n\t{\n\t\tuint256 _unstakingExpirationLength = _unstakingExpiration[staker]\n\t\t\t.length;\n\t\tuint256 _counter = _withdrawCounters[staker];\n\t\tfor (\n\t\t\tuint256 i = _counter;\n\t\t\ti < _unstakingExpirationLength;\n\t\t\ti = i.add(1)\n\t\t) {\n\t\t\t//get getUnstakeTime and compare it with current timestamp to check if 21 days + epoch difference has passed\n\t\t\t(uint256 _getUnstakeTime, , ) = getUnstakeTime(\n\t\t\t\t_unstakingExpiration[staker][i]\n\t\t\t);\n\t\t\tif (block.timestamp < _getUnstakeTime) {\n\t\t\t\t//if 21 days + epoch difference have not passed, then check the token amount and send back\n\t\t\t\tunbondingTokens = unbondingTokens.add(\n\t\t\t\t\t_unstakingAmount[staker][i]\n\t\t\t\t);\n\t\t\t}\n\t\t}\n\t\treturn unbondingTokens;\n\t}\n\n\t/**\n\t * @dev Set 'batching limit', called from admin\n\t * Emits a {SetBatchingLimit} event.\n\t *\n\t */\n\tfunction setBatchingLimit(uint256 batchingLimit)\n\t\tpublic\n\t\tvirtual\n\t\toverride\n\t\treturns (bool success)\n\t{\n\t\trequire(hasRole(DEFAULT_ADMIN_ROLE, _msgSender()), \"LQ24\");\n\t\t_batchingLimit = batchingLimit;\n\t\temit SetBatchingLimit(batchingLimit, block.timestamp);\n\t\tsuccess = true;\n\t\treturn success;\n\t}\n\n\t/**\n\t * @dev get batching limit\n\t *\n\t */\n\tfunction getBatchingLimit()\n\t\tpublic\n\t\tview\n\t\tvirtual\n\t\toverride\n\t\treturns (uint256 batchingLimit)\n\t{\n\t\tbatchingLimit = _batchingLimit;\n\t}\n\n\t/**\n\t * @dev Triggers stopped state.\n\t *\n\t */\n\tfunction pause() public virtual override returns (bool success) {\n\t\trequire(hasRole(PAUSER_ROLE, _msgSender()), \"LQ22\");\n\t\t_pause();\n\t\treturn true;\n\t}\n\n\t/**\n\t * @dev Returns to normal state.\n\t *\n\t */\n\tfunction unpause() public virtual override returns (bool success) {\n\t\trequire(hasRole(PAUSER_ROLE, _msgSender()), \"LQ23\");\n\t\t_unpause();\n\t\treturn true;\n\t}\n}\n",
  "sourcePath": "/home/aditimahesh/Documents/Work/Persistence/go/src/github.com/persistenceOne/pStake-smartContracts/contracts/LiquidStakingXPRTV2.sol",
  "compiler": {
    "name": "solc",
    "version": "0.7.6+commit.7338295f.Emscripten.clang"
  },
  "schemaVersion": "3.4.5",
  "updatedAt": "2022-02-23T18:56:38.876Z",
  "networkType": "ethereum",
  "devdoc": {
    "kind": "dev",
    "methods": {
      "getBatchingLimit()": {
        "details": "get batching limit"
      },
      "getRoleAdmin(bytes32)": {
        "details": "Returns the admin role that controls `role`. See {grantRole} and {revokeRole}. To change a role's admin, use {_setRoleAdmin}."
      },
      "getRoleMember(bytes32,uint256)": {
        "details": "Returns one of the accounts that have `role`. `index` must be a value between 0 and {getRoleMemberCount}, non-inclusive. Role bearers are not sorted in any particular way, and their ordering may change at any point. WARNING: When using {getRoleMember} and {getRoleMemberCount}, make sure you perform all queries on the same block. See the following https://forum.openzeppelin.com/t/iterating-over-elements-on-enumerableset-in-openzeppelin-contracts/2296[forum post] for more information."
      },
      "getRoleMemberCount(bytes32)": {
        "details": "Returns the number of accounts that have `role`. Can be used together with {getRoleMember} to enumerate all bearers of a role."
      },
      "getStakeUnstakeProps()": {
        "details": "get fees, min values, value divisor and epoch props"
      },
      "getTokens()": {
        "details": "get the SToken and UToken address"
      },
      "getTotalUnbondedTokens(address)": {
        "details": "get Total Unbonded Tokens",
        "params": {
          "staker": ": account address"
        }
      },
      "getTotalUnbondingTokens(address)": {
        "details": "get Total Unbonding Tokens",
        "params": {
          "staker": ": account address"
        }
      },
      "getUnstakeEpochMilestone(uint256)": {
        "details": "returns the nearest epoch milestone in the future"
      },
      "getUnstakeTime(uint256)": {
        "details": "returns the time left for unbonding to finish"
      },
      "grantRole(bytes32,address)": {
        "details": "Grants `role` to `account`. If `account` had not been already granted `role`, emits a {RoleGranted} event. Requirements: - the caller must have ``role``'s admin role."
      },
      "hasRole(bytes32,address)": {
        "details": "Returns `true` if `account` has been granted `role`."
      },
      "initialize(address,address,address,uint256,uint256,uint256)": {
        "details": "Constructor for initializing the LiquidStaking contract.",
        "params": {
          "epochInterval": "- varies from 3 hours to 3 days.",
          "pauserAddress": "- address of the pauser admin.",
          "sAddress": "- address of the SToken contract.",
          "uAddress": "- address of the UToken contract.",
          "unstakingLockTime": "- varies from 21 hours to 21 days.",
          "valueDivisor": "- valueDivisor set to 10^9."
        }
      },
      "pause()": {
        "details": "Triggers stopped state."
      },
      "paused()": {
        "details": "Returns true if the contract is paused, and false otherwise."
      },
      "renounceRole(bytes32,address)": {
        "details": "Revokes `role` from the calling account. Roles are often managed via {grantRole} and {revokeRole}: this function's purpose is to provide a mechanism for accounts to lose their privileges if they are compromised (such as when a trusted device is misplaced). If the calling account had been granted `role`, emits a {RoleRevoked} event. Requirements: - the caller must be `account`."
      },
      "revokeRole(bytes32,address)": {
        "details": "Revokes `role` from `account`. If `account` had been granted `role`, emits a {RoleRevoked} event. Requirements: - the caller must have ``role``'s admin role."
      },
      "setBatchingLimit(uint256)": {
        "details": "Set 'batching limit', called from admin Emits a {SetBatchingLimit} event."
      },
      "setFees(uint256,uint256)": {
        "details": "Set 'fees', called from admin",
        "params": {
          "stakeFee": ": stake fee",
          "unstakeFee": ": unstake fee Emits a {SetFees} event with 'fee' set to the stake and unstake."
        }
      },
      "setMinimumValues(uint256,uint256)": {
        "details": "Set 'minimum values', called from admin",
        "params": {
          "minStake": ": stake minimum value",
          "minUnstake": ": unstake minimum value Emits a {SetMinimumValues} event with 'minimum value' set to the stake and unstake. check the anchor integration staking operation for rewards liquidation before you set _minStake"
        }
      },
      "setSTokensContract(address)": {
        "details": "Set 'contract address', called from constructor",
        "params": {
          "sAddress": ": stoken contract address Emits a {SetSTokensContract} event with '_contract' set to the stoken contract address."
        }
      },
      "setTokenWrapperContract(address)": {
        "details": "Set 'contract address', called from constructor",
        "params": {
          "tokenWrapperContract": ": stoken contract address Emits a {SetTokenWrapperContract} event with '_contract' set to the stoken contract address."
        }
      },
      "setUTokensContract(address)": {
        "details": "Set 'contract address', called from constructor",
        "params": {
          "uAddress": ": utoken contract address Emits a {SetUTokensContract} event with '_contract' set to the utoken contract address."
        }
      },
      "setUnstakeEpoch(uint256,uint256,uint256)": {
        "details": "Set 'unstake epoch', called from admin",
        "params": {
          "epochInterval": ": varies from 3 hours to 3 days Emits a {SetUnstakeEpoch} event with 'unstakeEpoch'",
          "unstakeEpoch": ": unstake epoch",
          "unstakeEpochPrevious": ": unstake epoch previous(initially set to same value as unstakeEpoch)"
        }
      },
      "setUnstakingLockTime(uint256)": {
        "details": "Set 'unstake props', called from admin",
        "params": {
          "unstakingLockTime": ": varies from 21 hours to 21 days Emits a {SetUnstakeProps} event with 'fee' set to the stake and unstake."
        }
      },
      "stake(address,uint256)": {
        "details": "Stake utokens over the platform with address 'to' for desired 'amount'(Burn uTokens and Mint sTokens)",
        "params": {
          "to": ": user address for staking, amount: number of tokens to stake"
        }
      },
      "stakeDirect(address,uint256,uint256)": {
        "details": "Stake utokens over the platform with address 'to' for desired 'amount'(Burn uTokens and Mint sTokens)",
        "params": {
          "stakingAmount": ": amount to be converted to stkToken",
          "to": ": user address for staking, amount: number of tokens to stake",
          "wrappingAmount": ": amount to be converted to pToken"
        }
      },
      "stakeDirectInBatch(address[],uint256[],uint256[])": {
        "details": "Stake utokens over the platform with address 'to' for desired 'amount'(Burn uTokens and Mint sTokens)",
        "params": {
          "stakingAmounts": ": amounts to be converted to stkToken",
          "toAddressses": ": user addresses for staking, amount: number of tokens to stake",
          "wrappingAmounts": ": amounts to be converted to pToken Emits a {StakeDirectInBatch} event with 'to' set to address and 'amount' set to amount of tokens."
        }
      },
      "unStake(address,uint256)": {
        "details": "UnStake stokens over the platform with address 'to' for desired 'amount'",
        "params": {
          "amount": ": cumulative amount of STokens to be burned",
          "to": ": user address for staking, amount: number of tokens to unstake"
        }
      },
      "unpause()": {
        "details": "Returns to normal state."
      },
      "withdrawUnstakedTokens(address)": {
        "details": "Lock the unstaked tokens for 21 days, user can withdraw the same (Mint uTokens with 21 days locking period)",
        "params": {
          "staker": ": user address for withdraw"
        }
      }
    },
    "version": 1
  },
  "userdoc": {
    "kind": "user",
    "methods": {},
    "version": 1
  }
}