{
  "contractName": "LiquidStaking",
  "abi": [
    {
      "anonymous": false,
      "inputs": [
        {
          "indexed": false,
          "internalType": "address",
          "name": "account",
          "type": "address"
        }
      ],
      "name": "Paused",
      "type": "event"
    },
    {
      "anonymous": false,
      "inputs": [
        {
          "indexed": true,
          "internalType": "bytes32",
          "name": "role",
          "type": "bytes32"
        },
        {
          "indexed": true,
          "internalType": "bytes32",
          "name": "previousAdminRole",
          "type": "bytes32"
        },
        {
          "indexed": true,
          "internalType": "bytes32",
          "name": "newAdminRole",
          "type": "bytes32"
        }
      ],
      "name": "RoleAdminChanged",
      "type": "event"
    },
    {
      "anonymous": false,
      "inputs": [
        {
          "indexed": true,
          "internalType": "bytes32",
          "name": "role",
          "type": "bytes32"
        },
        {
          "indexed": true,
          "internalType": "address",
          "name": "account",
          "type": "address"
        },
        {
          "indexed": true,
          "internalType": "address",
          "name": "sender",
          "type": "address"
        }
      ],
      "name": "RoleGranted",
      "type": "event"
    },
    {
      "anonymous": false,
      "inputs": [
        {
          "indexed": true,
          "internalType": "bytes32",
          "name": "role",
          "type": "bytes32"
        },
        {
          "indexed": true,
          "internalType": "address",
          "name": "account",
          "type": "address"
        },
        {
          "indexed": true,
          "internalType": "address",
          "name": "sender",
          "type": "address"
        }
      ],
      "name": "RoleRevoked",
      "type": "event"
    },
    {
      "anonymous": false,
      "inputs": [
        {
          "indexed": false,
          "internalType": "uint256",
          "name": "stakeFee",
          "type": "uint256"
        },
        {
          "indexed": false,
          "internalType": "uint256",
          "name": "unstakeFee",
          "type": "uint256"
        }
      ],
      "name": "SetFees",
      "type": "event"
    },
    {
      "anonymous": false,
      "inputs": [
        {
          "indexed": false,
          "internalType": "uint256",
          "name": "minStake",
          "type": "uint256"
        },
        {
          "indexed": false,
          "internalType": "uint256",
          "name": "minUnstake",
          "type": "uint256"
        }
      ],
      "name": "SetMinimumValues",
      "type": "event"
    },
    {
      "anonymous": false,
      "inputs": [
        {
          "indexed": true,
          "internalType": "address",
          "name": "_contract",
          "type": "address"
        }
      ],
      "name": "SetSTokensContract",
      "type": "event"
    },
    {
      "anonymous": false,
      "inputs": [
        {
          "indexed": true,
          "internalType": "address",
          "name": "_contract",
          "type": "address"
        }
      ],
      "name": "SetUTokensContract",
      "type": "event"
    },
    {
      "anonymous": false,
      "inputs": [
        {
          "indexed": false,
          "internalType": "uint256",
          "name": "unstakeEpoch",
          "type": "uint256"
        },
        {
          "indexed": false,
          "internalType": "uint256",
          "name": "unstakeEpochPrevious",
          "type": "uint256"
        }
      ],
      "name": "SetUnstakeEpoch",
      "type": "event"
    },
    {
      "anonymous": false,
      "inputs": [
        {
          "indexed": true,
          "internalType": "address",
          "name": "accountAddress",
          "type": "address"
        },
        {
          "indexed": false,
          "internalType": "uint256",
          "name": "tokens",
          "type": "uint256"
        },
        {
          "indexed": false,
          "internalType": "uint256",
          "name": "timestamp",
          "type": "uint256"
        }
      ],
      "name": "StakeTokens",
      "type": "event"
    },
    {
      "anonymous": false,
      "inputs": [
        {
          "indexed": false,
          "internalType": "address",
          "name": "account",
          "type": "address"
        }
      ],
      "name": "Unpaused",
      "type": "event"
    },
    {
      "anonymous": false,
      "inputs": [
        {
          "indexed": true,
          "internalType": "address",
          "name": "accountAddress",
          "type": "address"
        },
        {
          "indexed": false,
          "internalType": "uint256",
          "name": "tokens",
          "type": "uint256"
        },
        {
          "indexed": false,
          "internalType": "uint256",
          "name": "unstakeTimeData",
          "type": "uint256"
        },
        {
          "indexed": false,
          "internalType": "uint256",
          "name": "timestamp",
          "type": "uint256"
        }
      ],
      "name": "UnstakeTokens",
      "type": "event"
    },
    {
      "anonymous": false,
      "inputs": [
        {
          "indexed": true,
          "internalType": "address",
          "name": "accountAddress",
          "type": "address"
        },
        {
          "indexed": false,
          "internalType": "uint256",
          "name": "tokens",
          "type": "uint256"
        },
        {
          "indexed": false,
          "internalType": "uint256",
          "name": "timestamp",
          "type": "uint256"
        }
      ],
      "name": "WithdrawUnstakeTokens",
      "type": "event"
    },
    {
      "inputs": [],
      "name": "DEFAULT_ADMIN_ROLE",
      "outputs": [
        {
          "internalType": "bytes32",
          "name": "",
          "type": "bytes32"
        }
      ],
      "stateMutability": "view",
      "type": "function",
      "constant": true
    },
    {
      "inputs": [],
      "name": "PAUSER_ROLE",
      "outputs": [
        {
          "internalType": "bytes32",
          "name": "",
          "type": "bytes32"
        }
      ],
      "stateMutability": "view",
      "type": "function",
      "constant": true
    },
    {
      "inputs": [
        {
          "internalType": "bytes32",
          "name": "role",
          "type": "bytes32"
        }
      ],
      "name": "getRoleAdmin",
      "outputs": [
        {
          "internalType": "bytes32",
          "name": "",
          "type": "bytes32"
        }
      ],
      "stateMutability": "view",
      "type": "function",
      "constant": true
    },
    {
      "inputs": [
        {
          "internalType": "bytes32",
          "name": "role",
          "type": "bytes32"
        },
        {
          "internalType": "uint256",
          "name": "index",
          "type": "uint256"
        }
      ],
      "name": "getRoleMember",
      "outputs": [
        {
          "internalType": "address",
          "name": "",
          "type": "address"
        }
      ],
      "stateMutability": "view",
      "type": "function",
      "constant": true
    },
    {
      "inputs": [
        {
          "internalType": "bytes32",
          "name": "role",
          "type": "bytes32"
        }
      ],
      "name": "getRoleMemberCount",
      "outputs": [
        {
          "internalType": "uint256",
          "name": "",
          "type": "uint256"
        }
      ],
      "stateMutability": "view",
      "type": "function",
      "constant": true
    },
    {
      "inputs": [
        {
          "internalType": "bytes32",
          "name": "role",
          "type": "bytes32"
        },
        {
          "internalType": "address",
          "name": "account",
          "type": "address"
        }
      ],
      "name": "grantRole",
      "outputs": [],
      "stateMutability": "nonpayable",
      "type": "function"
    },
    {
      "inputs": [
        {
          "internalType": "bytes32",
          "name": "role",
          "type": "bytes32"
        },
        {
          "internalType": "address",
          "name": "account",
          "type": "address"
        }
      ],
      "name": "hasRole",
      "outputs": [
        {
          "internalType": "bool",
          "name": "",
          "type": "bool"
        }
      ],
      "stateMutability": "view",
      "type": "function",
      "constant": true
    },
    {
      "inputs": [],
      "name": "paused",
      "outputs": [
        {
          "internalType": "bool",
          "name": "",
          "type": "bool"
        }
      ],
      "stateMutability": "view",
      "type": "function",
      "constant": true
    },
    {
      "inputs": [
        {
          "internalType": "bytes32",
          "name": "role",
          "type": "bytes32"
        },
        {
          "internalType": "address",
          "name": "account",
          "type": "address"
        }
      ],
      "name": "renounceRole",
      "outputs": [],
      "stateMutability": "nonpayable",
      "type": "function"
    },
    {
      "inputs": [
        {
          "internalType": "bytes32",
          "name": "role",
          "type": "bytes32"
        },
        {
          "internalType": "address",
          "name": "account",
          "type": "address"
        }
      ],
      "name": "revokeRole",
      "outputs": [],
      "stateMutability": "nonpayable",
      "type": "function"
    },
    {
      "inputs": [
        {
          "internalType": "address",
          "name": "uAddress",
          "type": "address"
        },
        {
          "internalType": "address",
          "name": "sAddress",
          "type": "address"
        },
        {
          "internalType": "address",
          "name": "pauserAddress",
          "type": "address"
        },
        {
          "internalType": "uint256",
          "name": "valueDivisor",
          "type": "uint256"
        }
      ],
      "name": "initialize",
      "outputs": [],
      "stateMutability": "nonpayable",
      "type": "function"
    },
    {
      "inputs": [
        {
          "internalType": "uint256",
          "name": "stakeFee",
          "type": "uint256"
        },
        {
          "internalType": "uint256",
          "name": "unstakeFee",
          "type": "uint256"
        }
      ],
      "name": "setFees",
      "outputs": [
        {
          "internalType": "bool",
          "name": "success",
          "type": "bool"
        }
      ],
      "stateMutability": "nonpayable",
      "type": "function"
    },
    {
      "inputs": [],
      "name": "getStakeUnstakeProps",
      "outputs": [
        {
          "internalType": "uint256",
          "name": "stakeFee",
          "type": "uint256"
        },
        {
          "internalType": "uint256",
          "name": "unstakeFee",
          "type": "uint256"
        },
        {
          "internalType": "uint256",
          "name": "minStake",
          "type": "uint256"
        },
        {
          "internalType": "uint256",
          "name": "minUnstake",
          "type": "uint256"
        },
        {
          "internalType": "uint256",
          "name": "valueDivisor",
          "type": "uint256"
        },
        {
          "internalType": "uint256",
          "name": "epochInterval",
          "type": "uint256"
        },
        {
          "internalType": "uint256",
          "name": "unstakeEpoch",
          "type": "uint256"
        },
        {
          "internalType": "uint256",
          "name": "unstakeEpochPrevious",
          "type": "uint256"
        },
        {
          "internalType": "uint256",
          "name": "unstakingLockTime",
          "type": "uint256"
        }
      ],
      "stateMutability": "view",
      "type": "function",
      "constant": true
    },
    {
      "inputs": [
        {
          "internalType": "uint256",
          "name": "minStake",
          "type": "uint256"
        },
        {
          "internalType": "uint256",
          "name": "minUnstake",
          "type": "uint256"
        }
      ],
      "name": "setMinimumValues",
      "outputs": [
        {
          "internalType": "bool",
          "name": "success",
          "type": "bool"
        }
      ],
      "stateMutability": "nonpayable",
      "type": "function"
    },
    {
      "inputs": [
        {
          "internalType": "uint256",
          "name": "unstakeEpoch",
          "type": "uint256"
        },
        {
          "internalType": "uint256",
          "name": "unstakeEpochPrevious",
          "type": "uint256"
        }
      ],
      "name": "setUnstakeEpoch",
      "outputs": [
        {
          "internalType": "bool",
          "name": "success",
          "type": "bool"
        }
      ],
      "stateMutability": "nonpayable",
      "type": "function"
    },
    {
      "inputs": [
        {
          "internalType": "address",
          "name": "uAddress",
          "type": "address"
        }
      ],
      "name": "setUTokensContract",
      "outputs": [],
      "stateMutability": "nonpayable",
      "type": "function"
    },
    {
      "inputs": [
        {
          "internalType": "address",
          "name": "sAddress",
          "type": "address"
        }
      ],
      "name": "setSTokensContract",
      "outputs": [],
      "stateMutability": "nonpayable",
      "type": "function"
    },
    {
      "inputs": [
        {
          "internalType": "address",
          "name": "to",
          "type": "address"
        },
        {
          "internalType": "uint256",
          "name": "utok",
          "type": "uint256"
        }
      ],
      "name": "stake",
      "outputs": [
        {
          "internalType": "bool",
          "name": "",
          "type": "bool"
        }
      ],
      "stateMutability": "nonpayable",
      "type": "function"
    },
    {
      "inputs": [
        {
          "internalType": "address",
          "name": "to",
          "type": "address"
        },
        {
          "internalType": "uint256",
          "name": "stok",
          "type": "uint256"
        }
      ],
      "name": "unStake",
      "outputs": [
        {
          "internalType": "bool",
          "name": "",
          "type": "bool"
        }
      ],
      "stateMutability": "nonpayable",
      "type": "function"
    },
    {
      "inputs": [],
      "name": "getUnstakeEpochTime",
      "outputs": [
        {
          "internalType": "uint256",
          "name": "unstakeEpochTime_",
          "type": "uint256"
        }
      ],
      "stateMutability": "view",
      "type": "function",
      "constant": true
    },
    {
      "inputs": [
        {
          "internalType": "address",
          "name": "staker",
          "type": "address"
        }
      ],
      "name": "withdrawUnstakedTokens",
      "outputs": [],
      "stateMutability": "nonpayable",
      "type": "function"
    },
    {
      "inputs": [
        {
          "internalType": "address",
          "name": "staker",
          "type": "address"
        }
      ],
      "name": "getTotalUnbondedTokens",
      "outputs": [
        {
          "internalType": "uint256",
          "name": "unbondingTokens",
          "type": "uint256"
        }
      ],
      "stateMutability": "view",
      "type": "function",
      "constant": true
    },
    {
      "inputs": [],
      "name": "pause",
      "outputs": [
        {
          "internalType": "bool",
          "name": "success",
          "type": "bool"
        }
      ],
      "stateMutability": "nonpayable",
      "type": "function"
    },
    {
      "inputs": [],
      "name": "unpause",
      "outputs": [
        {
          "internalType": "bool",
          "name": "success",
          "type": "bool"
        }
      ],
      "stateMutability": "nonpayable",
      "type": "function"
    }
  ],
  "bytecode": "0x608060405234801561001057600080fd5b50612355806100206000396000f3fe608060405234801561001057600080fd5b50600436106101585760003560e01c8063819020a0116100c3578063adc9772e1161007c578063adc9772e146103dd578063ca15c87314610409578063cf756fdf14610426578063d547741f14610462578063d93938141461048e578063e63ab1e9146104ba57610158565b8063819020a0146103345780638456cb591461035a5780639010d07c1461036257806391d14854146103a1578063a11bb00b146103cd578063a217fddf146103d557610158565b806336568abe1161011557806336568abe146102635780633f4ba83a1461028f57806351db00e71461029757806355f2323f146102ba5780635c975abb146103095780635d5fd0991461031157610158565b80630273b70d1461015d5780630b78f9c01461019557806321bdf9e5146101cc578063248a9ca3146101f45780632e31fab8146102115780632f2ff15d14610237575b600080fd5b6101836004803603602081101561017357600080fd5b50356001600160a01b03166104c2565b60408051918252519081900360200190f35b6101b8600480360360408110156101ab57600080fd5b508035906020013561059d565b604080519115158252519081900360200190f35b6101f2600480360360208110156101e257600080fd5b50356001600160a01b031661063a565b005b6101836004803603602081101561020a57600080fd5b50356106cc565b6101f26004803603602081101561022757600080fd5b50356001600160a01b03166106e1565b6101f26004803603604081101561024d57600080fd5b50803590602001356001600160a01b0316610773565b6101f26004803603604081101561027957600080fd5b50803590602001356001600160a01b03166107da565b6101b861083b565b6101b8600480360360408110156102ad57600080fd5b50803590602001356108a1565b6102c2610938565b60408051998a5260208a0198909852888801969096526060880194909452608087019290925260a086015260c085015260e084015261010083015251908190036101200190f35b6101b861095b565b6101b86004803603604081101561032757600080fd5b5080359060200135610964565b6101f26004803603602081101561034a57600080fd5b50356001600160a01b03166109fb565b6101b8610d0a565b6103856004803603604081101561037857600080fd5b5080359060200135610d69565b604080516001600160a01b039092168252519081900360200190f35b6101b8600480360360408110156103b757600080fd5b50803590602001356001600160a01b0316610d88565b610183610da0565b610183610dfa565b6101b8600480360360408110156103f357600080fd5b506001600160a01b038135169060200135610dff565b6101836004803603602081101561041f57600080fd5b5035611147565b6101f26004803603608081101561043c57600080fd5b506001600160a01b0381358116916020810135821691604082013516906060013561115e565b6101f26004803603604081101561047857600080fd5b50803590602001356001600160a01b0316611262565b6101b8600480360360408110156104a457600080fd5b506001600160a01b0381351690602001356112bb565b610183611675565b6001600160a01b038116600090815260a260205260408120546104e3611687565b6001600160a01b0316836001600160a01b031614156105975760005b81811015610595576001600160a01b038416600090815260a26020526040902080548290811061052b57fe5b9060005260206000200154421115610583576001600160a01b038416600090815260a360205260409020805461058091908390811061056657fe5b90600052602060002001548461168b90919063ffffffff16565b92505b61058e81600161168b565b90506104ff565b505b50919050565b60006105b0816105ab611687565b610d88565b6105eb5760405162461bcd60e51b815260040180806020018281038252602e815260200180611fde602e913960400191505060405180910390fd5b609b839055609c829055604080518481526020810184905281517f3be6e637f54f081a2dd12982cfd58481304fc98b604b18fa8ed4aa4e4a9d1532929181900390910190a15060015b92915050565b61064760006105ab611687565b6106825760405162461bcd60e51b81526004018080602001828103825260398152602001806120456039913960400191505060405180910390fd5b609780546001600160a01b0319166001600160a01b0383169081179091556040517ff745c285f36f88bea6af14d4d0f33dd9350cef7895216c1615b1caaee7857e0c90600090a250565b60009081526065602052604090206002015490565b6106ee60006105ab611687565b6107295760405162461bcd60e51b815260040180806020018281038252603981526020018061200c6039913960400191505060405180910390fd5b609880546001600160a01b0319166001600160a01b0383169081179091556040517fd0b9dbe26f676f4cdb02fc249c203baa0314cec79e18b4194dc862795a5de03f90600090a250565b600082815260656020526040902060020154610791906105ab611687565b6107cc5760405162461bcd60e51b815260040180806020018281038252602f815260200180611f78602f913960400191505060405180910390fd5b6107d682826116e5565b5050565b6107e2611687565b6001600160a01b0316816001600160a01b0316146108315760405162461bcd60e51b815260040180806020018281038252602f8152602001806122f1602f913960400191505060405180910390fd5b6107d6828261174e565b60006108576000805160206121218339815191526105ab611687565b6108925760405162461bcd60e51b815260040180806020018281038252603881526020018061228c6038913960400191505060405180910390fd5b61089a6117b7565b5060015b90565b60006108af816105ab611687565b6108ea5760405162461bcd60e51b81526004018080602001828103825260388152602001806121a86038913960400191505060405180910390fd5b6099839055609a829055604080518481526020810184905281517fa94d40347449ea19b873d64ed55c99772194c49791e82be5c2dc24e4c0044fe3929181900390910190a150600192915050565b609b54609c54609954609d54609f5460a05460a154609e54969795969495869590565b60335460ff1690565b6000610972816105ab611687565b6109ad5760405162461bcd60e51b8152600401808060200182810382526037815260200180611fa76037913960400191505060405180910390fd5b60a083905560a1829055604080518481526020810184905281517f1bfb2d0864b5c92f9b6f20338de7a7dadb29706c9fa3c384b1b4e15076fa91f9929181900390910190a150600192915050565b610a0361095b565b15610a48576040805162461bcd60e51b815260206004820152601060248201526f14185d5cd8589b194e881c185d5cd95960821b604482015290519081900360640190fd5b610a50611687565b6001600160a01b0316816001600160a01b031614610a9f5760405162461bcd60e51b81526004018080602001828103825260278152602001806121e06027913960400191505060405180910390fd5b6001600160a01b038116600090815260a260205260408120548160a481610ac4611687565b6001600160a01b03166001600160a01b031681526020019081526020016000205490505b81811015610bf7576001600160a01b038416600090815260a260205260409020805482908110610b1457fe5b9060005260206000200154421115610be5576001600160a01b038416600090815260a3602052604090208054610b4f91908390811061056657fe5b6001600160a01b038516600090815260a2602052604081208054929550909183908110610b7857fe5b60009182526020808320909101929092556001600160a01b038616815260a390915260408120805483908110610baa57fe5b906000526020600020018190555060a46000610bc4611687565b6001600160a01b031681526020810191909152604001600020805460010190555b610bf081600161168b565b9050610ae8565b5060008211610c375760405162461bcd60e51b815260040180806020018281038252602d815260200180612235602d913960400191505060405180910390fd5b6040805183815242602082015281516001600160a01b038616927f31453b59c0eb931edc765cc2400876a524254457b5534d660c9da1d74ab4666b928290030190a26097546001600160a01b03166340c10f19610c92611687565b846040518363ffffffff1660e01b815260040180836001600160a01b0316815260200182815260200192505050602060405180830381600087803b158015610cd957600080fd5b505af1158015610ced573d6000803e3d6000fd5b505050506040513d6020811015610d0357600080fd5b5050505050565b6000610d266000805160206121218339815191526105ab611687565b610d615760405162461bcd60e51b81526004018080602001828103825260368152602001806121416036913960400191505060405180910390fd5b61089a611857565b6000828152606560205260408120610d8190836118da565b9392505050565b6000828152606560205260408120610d8190836118e6565b6000804290508060a0541115610dc55760a054610dbd90826118fb565b91505061089e565b6000610ddc60a054836118fb90919063ffffffff16565b9050610df3609f548261195890919063ffffffff16565b9250505090565b600081565b6000610e0961095b565b15610e4e576040805162461bcd60e51b815260206004820152601060248201526f14185d5cd8589b194e881c185d5cd95960821b604482015290519081900360640190fd5b6099548211610e8e5760405162461bcd60e51b815260040180806020018281038252602a815260200180612262602a913960400191505060405180910390fd5b610e96611687565b6001600160a01b0316836001600160a01b031614610ee55760405162461bcd60e51b81526004018080602001828103825260318152602001806121776031913960400191505060405180910390fd5b609754604080516370a0823160e01b81526001600160a01b038681166004830152915160009392909216916370a0823191602480820192602092909190829003018186803b158015610f3657600080fd5b505afa158015610f4a573d6000803e3d6000fd5b505050506040513d6020811015610f6057600080fd5b5051905082811015610fa35760405162461bcd60e51b815260040180806020018281038252602e815260200180612207602e913960400191505060405180910390fd5b6000610ff0610fbe6064609d546119bf90919063ffffffff16565b610fea609b54610fe4609d54610fde60648b6119bf90919063ffffffff16565b906119bf565b906118fb565b90611a18565b6040805182815242602082015281519293506001600160a01b038816927f106d46085b22b31d658796e9924cf39946b4105bdb86f8afba3d60d71c3cc591929181900390910190a260975460408051632770a7eb60e21b81526001600160a01b0388811660048301526024820188905291519190921691639dc29fac9160448083019260209291908290030181600087803b15801561108e57600080fd5b505af11580156110a2573d6000803e3d6000fd5b505050506040513d60208110156110b857600080fd5b5050609854604080516340c10f1960e01b81526001600160a01b03888116600483015260248201859052915191909216916340c10f199160448083019260209291908290030181600087803b15801561111057600080fd5b505af1158015611124573d6000803e3d6000fd5b505050506040513d602081101561113a57600080fd5b5060019695505050505050565b600081815260656020526040812061063490611a7f565b600054610100900460ff16806111775750611177611a8a565b80611185575060005460ff16155b6111c05760405162461bcd60e51b815260040180806020018281038252602e8152602001806120d2602e913960400191505060405180910390fd5b600054610100900460ff161580156111eb576000805460ff1961ff0019909116610100171660011790555b6111f3611a9b565b6111fb611b4d565b61120d6000611208611687565b6107cc565b611225600080516020612121833981519152846107cc565b61122e8561063a565b611237846106e1565b621baf80609e556203f480609f55609d8290558015610d03576000805461ff00191690555050505050565b600082815260656020526040902060020154611280906105ab611687565b6108315760405162461bcd60e51b81526004018080602001828103825260308152602001806120a26030913960400191505060405180910390fd5b60006112c561095b565b1561130a576040805162461bcd60e51b815260206004820152601060248201526f14185d5cd8589b194e881c185d5cd95960821b604482015290519081900360640190fd5b611312611687565b6001600160a01b0316836001600160a01b0316146113615760405162461bcd60e51b8152600401808060200182810382526034815260200180611f446034913960400191505060405180910390fd5b609a5482116113a15760405162461bcd60e51b815260040180806020018281038252602c815260200180611ef6602c913960400191505060405180910390fd5b60a0546113df5760405162461bcd60e51b815260040180806020018281038252602481526020018061207e6024913960400191505060405180910390fd5b60a15461141d5760405162461bcd60e51b815260040180806020018281038252602d8152602001806122c4602d913960400191505060405180910390fd5b609854604080516370a0823160e01b81526001600160a01b038681166004830152915160009392909216916370a0823191602480820192602092909190829003018186803b15801561146e57600080fd5b505afa158015611482573d6000803e3d6000fd5b505050506040513d602081101561149857600080fd5b50519050828110156114db5760405162461bcd60e51b815260040180806020018281038252602e815260200180612207602e913960400191505060405180910390fd5b60006115166114f66064609d546119bf90919063ffffffff16565b610fea609c54610fe4609d54610fde60648b6119bf90919063ffffffff16565b60985460408051632770a7eb60e21b81526001600160a01b038981166004830152602482018990529151939450911691639dc29fac916044808201926020929091908290030181600087803b15801561156e57600080fd5b505af1158015611582573d6000803e3d6000fd5b505050506040513d602081101561159857600080fd5b50600090506115a5610da0565b6001600160a01b038716600090815260a260205260409020609e54919250906115d8906115d2844261168b565b9061168b565b81546001818101845560009384526020808520909201929092556001600160a01b03891680845260a3825260408420805493840181558452922001839055609e547f98850af53deeaf736beb3ea22091c900e8e5cfdf8153342daa366dc1d83a39fd90849061164b906115d2864261168b565b6040805192835260208301919091524282820152519081900360600190a250600195945050505050565b60008051602061212183398151915281565b3390565b600082820183811015610d81576040805162461bcd60e51b815260206004820152601b60248201527f536166654d6174683a206164646974696f6e206f766572666c6f770000000000604482015290519081900360640190fd5b60008281526065602052604090206116fd9082611bea565b156107d65761170a611687565b6001600160a01b0316816001600160a01b0316837f2f8788117e7eff1d82e926ec794901d17c78024a50270940304540a733656f0d60405160405180910390a45050565b60008281526065602052604090206117669082611bff565b156107d657611773611687565b6001600160a01b0316816001600160a01b0316837ff6391f5c32d9c69d2a47ea670b442974b53935d1edc7fd64eb21e047a839171b60405160405180910390a45050565b6117bf61095b565b611807576040805162461bcd60e51b815260206004820152601460248201527314185d5cd8589b194e881b9bdd081c185d5cd95960621b604482015290519081900360640190fd5b6033805460ff191690557f5db9ee0a495bf2e6ff9c91a7834c1ba4fdd244a5e8aa4e537bd38aeae4b073aa61183a611687565b604080516001600160a01b039092168252519081900360200190a1565b61185f61095b565b156118a4576040805162461bcd60e51b815260206004820152601060248201526f14185d5cd8589b194e881c185d5cd95960821b604482015290519081900360640190fd5b6033805460ff191660011790557f62e78cea01bee320cd4e420270b5ea74000d11b0c9f74754ebdbfc544b05a25861183a611687565b6000610d818383611c14565b6000610d81836001600160a01b038416611c78565b600082821115611952576040805162461bcd60e51b815260206004820152601e60248201527f536166654d6174683a207375627472616374696f6e206f766572666c6f770000604482015290519081900360640190fd5b50900390565b60008082116119ae576040805162461bcd60e51b815260206004820152601860248201527f536166654d6174683a206d6f64756c6f206279207a65726f0000000000000000604482015290519081900360640190fd5b8183816119b757fe5b069392505050565b6000826119ce57506000610634565b828202828482816119db57fe5b0414610d815760405162461bcd60e51b81526004018080602001828103825260218152602001806121006021913960400191505060405180910390fd5b6000808211611a6e576040805162461bcd60e51b815260206004820152601a60248201527f536166654d6174683a206469766973696f6e206279207a65726f000000000000604482015290519081900360640190fd5b818381611a7757fe5b049392505050565b600061063482611c90565b6000611a9530611c94565b15905090565b600054610100900460ff1680611ab45750611ab4611a8a565b80611ac2575060005460ff16155b611afd5760405162461bcd60e51b815260040180806020018281038252602e8152602001806120d2602e913960400191505060405180910390fd5b600054610100900460ff16158015611b28576000805460ff1961ff0019909116610100171660011790555b611b30611c9a565b611b38611c9a565b8015611b4a576000805461ff00191690555b50565b600054610100900460ff1680611b665750611b66611a8a565b80611b74575060005460ff16155b611baf5760405162461bcd60e51b815260040180806020018281038252602e8152602001806120d2602e913960400191505060405180910390fd5b600054610100900460ff16158015611bda576000805460ff1961ff0019909116610100171660011790555b611be2611c9a565b611b38611d3a565b6000610d81836001600160a01b038416611de5565b6000610d81836001600160a01b038416611e2f565b81546000908210611c565760405162461bcd60e51b8152600401808060200182810382526022815260200180611f226022913960400191505060405180910390fd5b826000018281548110611c6557fe5b9060005260206000200154905092915050565b60009081526001919091016020526040902054151590565b5490565b3b151590565b600054610100900460ff1680611cb35750611cb3611a8a565b80611cc1575060005460ff16155b611cfc5760405162461bcd60e51b815260040180806020018281038252602e8152602001806120d2602e913960400191505060405180910390fd5b600054610100900460ff16158015611b38576000805460ff1961ff0019909116610100171660011790558015611b4a576000805461ff001916905550565b600054610100900460ff1680611d535750611d53611a8a565b80611d61575060005460ff16155b611d9c5760405162461bcd60e51b815260040180806020018281038252602e8152602001806120d2602e913960400191505060405180910390fd5b600054610100900460ff16158015611dc7576000805460ff1961ff0019909116610100171660011790555b6033805460ff191690558015611b4a576000805461ff001916905550565b6000611df18383611c78565b611e2757508154600181810184556000848152602080822090930184905584548482528286019093526040902091909155610634565b506000610634565b60008181526001830160205260408120548015611eeb5783546000198083019190810190600090879083908110611e6257fe5b9060005260206000200154905080876000018481548110611e7f57fe5b600091825260208083209091019290925582815260018981019092526040902090840190558654879080611eaf57fe5b60019003818190600052602060002001600090559055866001016000878152602001908152602001600020600090556001945050505050610634565b600091505061063456fe4c69717569645374616b696e673a2052657175697265732061206d696e20756e7374616b6520616d6f756e74456e756d657261626c655365743a20696e646578206f7574206f6620626f756e64734c69717569645374616b696e673a20556e7374616b696e672063616e206f6e6c7920626520646f6e65206279205374616b657272416363657373436f6e74726f6c3a2073656e646572206d75737420626520616e2061646d696e20746f206772616e744c69717569645374616b696e673a2055736572206e6f7420617574686f726973656420746f2073657420756e7374616b652065706f63684c69717569645374616b696e673a2055736572206e6f7420617574686f726973656420746f2073657420666565734c69717569645374616b696e673a2055736572206e6f7420617574686f726973656420746f207365742053546f6b656e20636f6e74726163744c69717569645374616b696e673a2055736572206e6f7420617574686f726973656420746f207365742055546f6b656e20636f6e74726163744c69717569645374616b696e673a20756e7374616b652065706f6368206e6f7420736574416363657373436f6e74726f6c3a2073656e646572206d75737420626520616e2061646d696e20746f207265766f6b65496e697469616c697a61626c653a20636f6e747261637420697320616c726561647920696e697469616c697a6564536166654d6174683a206d756c7469706c69636174696f6e206f766572666c6f7765d7a28e3265b37a6474929f336521b332c1681b933f6cb9f3376673440d862a4c69717569645374616b696e673a2055736572206e6f7420617574686f726973656420746f20706175736520636f6e7472616374732e4c69717569645374616b696e673a205374616b696e672063616e206f6e6c7920626520646f6e65206279205374616b65724c69717569645374616b696e673a2055736572206e6f7420617574686f726973656420746f20736574206d696e696d756d2076616c7565734c69717569645374616b696e673a204f6e6c79207374616b65722063616e2077697468647261774c69717569645374616b696e673a20496e737566666369656e742062616c616e636520666f72206163636f756e744c69717569645374616b696e673a20556e5374616b696e6720706572696f64207374696c6c2070656e64696e674c69717569645374616b696e673a2052657175697265732061206d696e207374616b6520616d6f756e744c69717569645374616b696e673a2055736572206e6f7420617574686f726973656420746f20756e706175736520636f6e7472616374732e4c69717569645374616b696e673a20756e7374616b652065706f63682070726576696f7573206e6f7420736574416363657373436f6e74726f6c3a2063616e206f6e6c792072656e6f756e636520726f6c657320666f722073656c66a26469706673582212208c80c417710f349b4ae1dc3b5f92e7e0018a4d9d21ba247537296e76d1a7a8cd64736f6c63430007060033",
  "immutableReferences": {},
  "source": "// SPDX-License-Identifier: UNLICENSED\npragma solidity ^0.7.0;\n\nimport \"@openzeppelin/contracts-upgradeable/math/SafeMathUpgradeable.sol\";\nimport \"@openzeppelin/contracts-upgradeable/access/AccessControlUpgradeable.sol\";\nimport \"@openzeppelin/contracts-upgradeable/utils/PausableUpgradeable.sol\";\nimport \"./interfaces/ISTokens.sol\";\nimport \"./interfaces/IUTokens.sol\";\nimport \"./interfaces/ILiquidStaking.sol\";\n\ncontract LiquidStaking is ILiquidStaking, PausableUpgradeable, AccessControlUpgradeable {\n\n    using SafeMathUpgradeable for uint256;\n\n    //Private instances of contracts to handle Utokens and Stokens\n    IUTokens private _uTokens;\n    ISTokens private _sTokens;\n\n    // defining the fees and minimum values\n    uint256 private _minStake;\n    uint256 private _minUnstake;\n    uint256 private _stakeFee;\n    uint256 private _unstakeFee;\n    uint256 private _valueDivisor;\n\n    bytes32 public constant PAUSER_ROLE = keccak256(\"PAUSER_ROLE\");\n\n    uint256 private _unstakingLockTime;\n    uint256 private _epochInterval;\n    uint256 private _unstakeEpoch;\n    uint256 private _unstakeEpochPrevious;\n\n    //Mapping to handle the Expiry period\n    mapping(address => uint256[]) private _unstakingExpiration;\n\n    //Mapping to handle the Expiry amount\n    mapping(address => uint256[]) private _unstakingAmount;\n\n    //mappint to handle a counter variable indicating from what index to start the loop.\n    mapping(address => uint256) internal _withdrawCounters;\n\n    /**\n   * @dev Constructor for initializing the LiquidStaking contract.\n   * @param uAddress - address of the UToken contract.\n   * @param sAddress - address of the SToken contract.\n   * @param pauserAddress - address of the pauser admin.\n   */\n    function initialize(address uAddress, address sAddress, address pauserAddress, uint256 valueDivisor) public virtual initializer  {\n        __AccessControl_init();\n        __Pausable_init();\n        _setupRole(DEFAULT_ADMIN_ROLE, _msgSender());\n        _setupRole(PAUSER_ROLE, pauserAddress);\n        setUTokensContract(uAddress);\n        setSTokensContract(sAddress);\n        _unstakingLockTime = 21 days;\n        _epochInterval = 3 days;\n        _valueDivisor = valueDivisor;\n    }\n\n    /**\n     * @dev Set 'fees', called from admin\n     * @param stakeFee: stake fee\n     * @param unstakeFee: unstake fee\n     *\n     * Emits a {SetFee} event with 'fee' set to the stake and unstake.\n     *\n     */\n    function setFees(uint256 stakeFee, uint256 unstakeFee) public virtual returns (bool success) {\n        require(hasRole(DEFAULT_ADMIN_ROLE, _msgSender()), \"LiquidStaking: User not authorised to set fees\");\n        _stakeFee = stakeFee;\n        _unstakeFee = unstakeFee;\n        emit SetFees(stakeFee, unstakeFee);\n        return true;\n    }\n\n    /**\n     * @dev get fees, min values and epoch props\n     *\n     */\n    function getStakeUnstakeProps() public view virtual returns (\n        uint256 stakeFee, uint256 unstakeFee, uint256 minStake, uint256 minUnstake, uint256 valueDivisor,\n        uint256 epochInterval, uint256 unstakeEpoch, uint256 unstakeEpochPrevious, uint256 unstakingLockTime\n    ) {\n        stakeFee = _stakeFee;\n        unstakeFee = _unstakeFee;\n        minStake = _minStake;\n        minUnstake = _minStake;\n        valueDivisor = _valueDivisor;\n        epochInterval= _epochInterval;\n        unstakeEpoch = _unstakeEpoch;\n        unstakeEpochPrevious = _unstakeEpochPrevious;\n        unstakingLockTime = _unstakingLockTime;\n    }\n\n    /**\n     * @dev Set 'minimum values', called from admin\n     * @param minStake: stake minimum value\n     * @param minUnstake: unstake minimum value\n     *\n     * Emits a {SetMinimumValues} event with 'minimum value' set to the stake and unstake.\n     *\n     */\n    function setMinimumValues(uint256 minStake, uint256 minUnstake) public virtual returns (bool success){\n        require(hasRole(DEFAULT_ADMIN_ROLE, _msgSender()), \"LiquidStaking: User not authorised to set minimum values\");\n        _minStake = minStake;\n        _minUnstake = minUnstake;\n        emit SetMinimumValues(minStake, minUnstake);\n        return true;\n    }\n\n    /**\n    * @dev Set 'unstake epoch', called from admin\n    * @param unstakeEpoch: unstake epoch\n    *\n    * Emits a {SetUnstakeEpoch} event with 'unstakeEpoch'\n    *\n    */\n    function setUnstakeEpoch(uint256 unstakeEpoch, uint256 unstakeEpochPrevious) public virtual returns (bool success){\n        require(hasRole(DEFAULT_ADMIN_ROLE, _msgSender()), \"LiquidStaking: User not authorised to set unstake epoch\");\n        _unstakeEpoch = unstakeEpoch;\n        _unstakeEpochPrevious = unstakeEpochPrevious;\n        emit SetUnstakeEpoch(unstakeEpoch, unstakeEpochPrevious);\n        return true;\n    }\n\n    /**\n     * @dev Set 'contract address', called from constructor\n     * @param uAddress: utoken contract address\n     *\n     * Emits a {SetContract} event with '_contract' set to the utoken contract address.\n     *\n     */\n    function setUTokensContract(address uAddress) public virtual override {\n        require(hasRole(DEFAULT_ADMIN_ROLE, _msgSender()), \"LiquidStaking: User not authorised to set UToken contract\");\n        _uTokens = IUTokens(uAddress);\n        emit SetUTokensContract(uAddress);\n    }\n\n    /**\n     * @dev Set 'contract address', called from constructor\n     * @param sAddress: stoken contract address\n     *\n     * Emits a {SetContract} event with '_contract' set to the stoken contract address.\n     *\n     */\n    function setSTokensContract(address sAddress) public virtual override {\n        require(hasRole(DEFAULT_ADMIN_ROLE, _msgSender()), \"LiquidStaking: User not authorised to set SToken contract\");\n        _sTokens = ISTokens(sAddress);\n        emit SetSTokensContract(sAddress);\n    }\n\n    /**\n    * @dev Stake utokens over the platform with address 'to' for desired 'utok'(Burn uTokens and Mint sTokens)\n    * @param to: user address for staking, utok: number of tokens to stake\n    *\n    *\n    * Requirements:\n    *\n    * - `utok` cannot be less than zero.\n    * - 'utok' cannot be more than balance\n    * - 'utok' plus new balance should be equal to the old balance\n    */\n    function stake(address to, uint256 utok) public virtual override whenNotPaused returns(bool)  {\n        // Check the supplied amount is greater than 0\n        require(utok>_minStake, \"LiquidStaking: Requires a min stake amount\");\n        require(to == _msgSender(), \"LiquidStaking: Staking can only be done by Staker\");\n        // require(hasRole(STAKER_ROLE, _msgSender()), \"LiquidStaking: Staking can only be done by Staker\");\n        // Check the current balance for uTokens is greater than the amount to be staked\n        uint256 _currentUTokenBalance = _uTokens.balanceOf(to);\n        require(_currentUTokenBalance>=utok, \"LiquidStaking: Insuffcient balance for account\");\n        uint256 finalTokens = (((utok.mul(100)).mul(_valueDivisor)).sub(_stakeFee)).div(_valueDivisor.mul(100));\n        emit StakeTokens(to, finalTokens, block.timestamp);\n        // Burn the uTokens as specified with the amount\n        _uTokens.burn(to, utok);\n        // Mint the sTokens for the account specified\n        _sTokens.mint(to, finalTokens);\n        return true;\n    }\n\n    /**\n     * @dev UnStake stokens over the platform with address 'to' for desired 'stok' (Burn sTokens and Mint uTokens with 21 days locking period)\n     * @param to: user address for staking, stok: number of tokens to unstake\n     *\n     *\n     * Requirements:\n     *\n     * - `stok` cannot be less than zero.\n     * - 'stok' cannot be more than balance\n     * - 'stok' plus new balance should be equal to the old balance\n     */\n    function unStake(address to, uint256 stok) public virtual override whenNotPaused returns(bool) {\n        // Check the supplied amount is greater than 0\n        require(to == _msgSender(), \"LiquidStaking: Unstaking can only be done by Stakerr\");\n        require(stok>_minUnstake, \"LiquidStaking: Requires a min unstake amount\");\n        require(_unstakeEpoch!=0, \"LiquidStaking: unstake epoch not set\");\n        require(_unstakeEpochPrevious!=0, \"LiquidStaking: unstake epoch previous not set\");\n        // Check the current balance for sTokens is greater than the amount to be unStaked\n        uint256 _currentSTokenBalance = _sTokens.balanceOf(to);\n        require(_currentSTokenBalance>=stok, \"LiquidStaking: Insuffcient balance for account\");\n        uint256 finalTokens = (((stok.mul(100)).mul(_valueDivisor)).sub(_unstakeFee)).div(_valueDivisor.mul(100));\n        // Burn the sTokens as specified with the amount\n        _sTokens.burn(to, stok);\n        uint256 _unstakeEpochTime = getUnstakeEpochTime();\n        //_unstakingExpiration[to].push((_unstakeEpochTime + block.timestamp) + _unstakingLockTime);\n        _unstakingExpiration[to].push((_unstakeEpochTime.add(block.timestamp)).add(_unstakingLockTime));\n        _unstakingAmount[to].push(finalTokens);\n        //emit UnstakeTokens(to, finalTokens, (_unstakeEpochTime + block.timestamp) + _unstakingLockTime, block.timestamp);\n        emit UnstakeTokens(to, finalTokens, ((_unstakeEpochTime.add(block.timestamp)).add(_unstakingLockTime)), block.timestamp);\n\n        return true;\n    }\n\n    /**\n     * @dev get unstake epoch time\n     */\n    function getUnstakeEpochTime() public view virtual returns (uint256 unstakeEpochTime_) {\n        uint256 _currentTime = block.timestamp;\n        if(_unstakeEpoch > _currentTime) return (_unstakeEpoch.sub(_currentTime));\n\n        uint256 _timeDiff = _currentTime.sub(_unstakeEpoch);\n        unstakeEpochTime_ = _timeDiff.mod(_epochInterval);\n        return unstakeEpochTime_;\n    }\n\n    /**\n     * @dev Lock the unstaked tokens for 21 days, user can withdraw the same (Mint uTokens with 21 days locking period)\n     *\n     * Requirements:\n     *\n     * - `current block timestamp` should be after 21 days from the period where unstaked function is called.\n     */\n    function withdrawUnstakedTokens(address staker) public virtual override whenNotPaused{\n        require(staker == _msgSender(), \"LiquidStaking: Only staker can withdraw\");\n        uint256 _withdrawBalance;\n        uint256 _unstakingExpirationLength = _unstakingExpiration[staker].length;\n        for (uint256 i=_withdrawCounters[_msgSender()]; i<_unstakingExpirationLength; i=i.add(1)) {\n            if (block.timestamp > _unstakingExpiration[staker][i]) {\n                _withdrawBalance = _withdrawBalance.add(_unstakingAmount[staker][i]);\n                _unstakingExpiration[staker][i] = 0;\n                _unstakingAmount[staker][i] = 0;\n                _withdrawCounters[_msgSender()]++;\n            }\n        }\n        require(_withdrawBalance > 0, \"LiquidStaking: UnStaking period still pending\");\n        emit WithdrawUnstakeTokens(staker, _withdrawBalance, block.timestamp);\n        _uTokens.mint(_msgSender(), _withdrawBalance);\n    }\n\n    /**\n     * @dev get Total Unbonded Tokens\n     * @param staker: account address\n     *\n     */\n    function getTotalUnbondedTokens(address staker) public view virtual returns (uint256 unbondingTokens) {\n        uint256 _unstakingExpirationLength = _unstakingExpiration[staker].length;\n        if(staker == _msgSender()){\n            for (uint256 i=0; i<_unstakingExpirationLength; i=i.add(1)) {\n                if (block.timestamp > _unstakingExpiration[staker][i]) {\n                    unbondingTokens = unbondingTokens.add(_unstakingAmount[staker][i]);\n                }\n            }\n        }\n        return unbondingTokens;\n    }\n\n    /**\n      * @dev Triggers stopped state.\n      *\n      * Requirements:\n      *\n      * - The contract must not be paused.\n      */\n    function pause() public virtual returns (bool success) {\n        require(hasRole(PAUSER_ROLE, _msgSender()), \"LiquidStaking: User not authorised to pause contracts.\");\n        _pause();\n        return true;\n    }\n\n    /**\n     * @dev Returns to normal state.\n     *\n     * Requirements:\n     *\n     * - The contract must be paused.\n     */\n    function unpause() public virtual returns (bool success) {\n        require(hasRole(PAUSER_ROLE, _msgSender()), \"LiquidStaking: User not authorised to unpause contracts.\");\n        _unpause();\n        return true;\n    }\n}",
  "sourcePath": "/home/aditimahesh/Documents/Work/Persistence/go/src/github.com/persistenceOne/pStakeSmartContracts/contracts/LiquidStaking.sol",
  "compiler": {
    "name": "solc",
    "version": "0.7.6+commit.7338295f.Emscripten.clang"
  },
  "schemaVersion": "3.3.4",
  "updatedAt": "2021-05-26T08:24:37.281Z",
  "networkType": "ethereum",
  "devdoc": {
    "kind": "dev",
    "methods": {
      "getRoleAdmin(bytes32)": {
        "details": "Returns the admin role that controls `role`. See {grantRole} and {revokeRole}. To change a role's admin, use {_setRoleAdmin}."
      },
      "getRoleMember(bytes32,uint256)": {
        "details": "Returns one of the accounts that have `role`. `index` must be a value between 0 and {getRoleMemberCount}, non-inclusive. Role bearers are not sorted in any particular way, and their ordering may change at any point. WARNING: When using {getRoleMember} and {getRoleMemberCount}, make sure you perform all queries on the same block. See the following https://forum.openzeppelin.com/t/iterating-over-elements-on-enumerableset-in-openzeppelin-contracts/2296[forum post] for more information."
      },
      "getRoleMemberCount(bytes32)": {
        "details": "Returns the number of accounts that have `role`. Can be used together with {getRoleMember} to enumerate all bearers of a role."
      },
      "getStakeUnstakeProps()": {
        "details": "get fees, min values and epoch props"
      },
      "getTotalUnbondedTokens(address)": {
        "details": "get Total Unbonded Tokens",
        "params": {
          "staker": ": account address"
        }
      },
      "getUnstakeEpochTime()": {
        "details": "get unstake epoch time"
      },
      "grantRole(bytes32,address)": {
        "details": "Grants `role` to `account`. If `account` had not been already granted `role`, emits a {RoleGranted} event. Requirements: - the caller must have ``role``'s admin role."
      },
      "hasRole(bytes32,address)": {
        "details": "Returns `true` if `account` has been granted `role`."
      },
      "initialize(address,address,address,uint256)": {
        "details": "Constructor for initializing the LiquidStaking contract.",
        "params": {
          "pauserAddress": "- address of the pauser admin.",
          "sAddress": "- address of the SToken contract.",
          "uAddress": "- address of the UToken contract."
        }
      },
      "pause()": {
        "details": "Triggers stopped state. Requirements: - The contract must not be paused."
      },
      "paused()": {
        "details": "Returns true if the contract is paused, and false otherwise."
      },
      "renounceRole(bytes32,address)": {
        "details": "Revokes `role` from the calling account. Roles are often managed via {grantRole} and {revokeRole}: this function's purpose is to provide a mechanism for accounts to lose their privileges if they are compromised (such as when a trusted device is misplaced). If the calling account had been granted `role`, emits a {RoleRevoked} event. Requirements: - the caller must be `account`."
      },
      "revokeRole(bytes32,address)": {
        "details": "Revokes `role` from `account`. If `account` had been granted `role`, emits a {RoleRevoked} event. Requirements: - the caller must have ``role``'s admin role."
      },
      "setFees(uint256,uint256)": {
        "details": "Set 'fees', called from admin",
        "params": {
          "stakeFee": ": stake fee",
          "unstakeFee": ": unstake fee Emits a {SetFee} event with 'fee' set to the stake and unstake."
        }
      },
      "setMinimumValues(uint256,uint256)": {
        "details": "Set 'minimum values', called from admin",
        "params": {
          "minStake": ": stake minimum value",
          "minUnstake": ": unstake minimum value Emits a {SetMinimumValues} event with 'minimum value' set to the stake and unstake."
        }
      },
      "setSTokensContract(address)": {
        "details": "Set 'contract address', called from constructor",
        "params": {
          "sAddress": ": stoken contract address Emits a {SetContract} event with '_contract' set to the stoken contract address."
        }
      },
      "setUTokensContract(address)": {
        "details": "Set 'contract address', called from constructor",
        "params": {
          "uAddress": ": utoken contract address Emits a {SetContract} event with '_contract' set to the utoken contract address."
        }
      },
      "setUnstakeEpoch(uint256,uint256)": {
        "details": "Set 'unstake epoch', called from admin",
        "params": {
          "unstakeEpoch": ": unstake epoch Emits a {SetUnstakeEpoch} event with 'unstakeEpoch'"
        }
      },
      "stake(address,uint256)": {
        "details": "Stake utokens over the platform with address 'to' for desired 'utok'(Burn uTokens and Mint sTokens)",
        "params": {
          "to": ": user address for staking, utok: number of tokens to stake Requirements: - `utok` cannot be less than zero. - 'utok' cannot be more than balance - 'utok' plus new balance should be equal to the old balance"
        }
      },
      "unStake(address,uint256)": {
        "details": "UnStake stokens over the platform with address 'to' for desired 'stok' (Burn sTokens and Mint uTokens with 21 days locking period)",
        "params": {
          "to": ": user address for staking, stok: number of tokens to unstake Requirements: - `stok` cannot be less than zero. - 'stok' cannot be more than balance - 'stok' plus new balance should be equal to the old balance"
        }
      },
      "unpause()": {
        "details": "Returns to normal state. Requirements: - The contract must be paused."
      },
      "withdrawUnstakedTokens(address)": {
        "details": "Lock the unstaked tokens for 21 days, user can withdraw the same (Mint uTokens with 21 days locking period) Requirements: - `current block timestamp` should be after 21 days from the period where unstaked function is called."
      }
    },
    "version": 1
  },
  "userdoc": {
    "kind": "user",
    "methods": {},
    "version": 1
  }
}