{
  "contractName": "LiquidStakingV2",
  "abi": [
    {
      "anonymous": false,
      "inputs": [
        {
          "indexed": false,
          "internalType": "address",
          "name": "account",
          "type": "address"
        }
      ],
      "name": "Paused",
      "type": "event"
    },
    {
      "anonymous": false,
      "inputs": [
        {
          "indexed": true,
          "internalType": "bytes32",
          "name": "role",
          "type": "bytes32"
        },
        {
          "indexed": true,
          "internalType": "bytes32",
          "name": "previousAdminRole",
          "type": "bytes32"
        },
        {
          "indexed": true,
          "internalType": "bytes32",
          "name": "newAdminRole",
          "type": "bytes32"
        }
      ],
      "name": "RoleAdminChanged",
      "type": "event"
    },
    {
      "anonymous": false,
      "inputs": [
        {
          "indexed": true,
          "internalType": "bytes32",
          "name": "role",
          "type": "bytes32"
        },
        {
          "indexed": true,
          "internalType": "address",
          "name": "account",
          "type": "address"
        },
        {
          "indexed": true,
          "internalType": "address",
          "name": "sender",
          "type": "address"
        }
      ],
      "name": "RoleGranted",
      "type": "event"
    },
    {
      "anonymous": false,
      "inputs": [
        {
          "indexed": true,
          "internalType": "bytes32",
          "name": "role",
          "type": "bytes32"
        },
        {
          "indexed": true,
          "internalType": "address",
          "name": "account",
          "type": "address"
        },
        {
          "indexed": true,
          "internalType": "address",
          "name": "sender",
          "type": "address"
        }
      ],
      "name": "RoleRevoked",
      "type": "event"
    },
    {
      "anonymous": false,
      "inputs": [
        {
          "indexed": true,
          "internalType": "uint256",
          "name": "batchingLimit",
          "type": "uint256"
        },
        {
          "indexed": false,
          "internalType": "uint256",
          "name": "timestamp",
          "type": "uint256"
        }
      ],
      "name": "SetBatchingLimit",
      "type": "event"
    },
    {
      "anonymous": false,
      "inputs": [
        {
          "indexed": true,
          "internalType": "uint256",
          "name": "stakeFee",
          "type": "uint256"
        },
        {
          "indexed": true,
          "internalType": "uint256",
          "name": "unstakeFee",
          "type": "uint256"
        }
      ],
      "name": "SetFees",
      "type": "event"
    },
    {
      "anonymous": false,
      "inputs": [
        {
          "indexed": true,
          "internalType": "uint256",
          "name": "minStake",
          "type": "uint256"
        },
        {
          "indexed": true,
          "internalType": "uint256",
          "name": "minUnstake",
          "type": "uint256"
        }
      ],
      "name": "SetMinimumValues",
      "type": "event"
    },
    {
      "anonymous": false,
      "inputs": [
        {
          "indexed": true,
          "internalType": "address",
          "name": "_contract",
          "type": "address"
        }
      ],
      "name": "SetSTokensContract",
      "type": "event"
    },
    {
      "anonymous": false,
      "inputs": [
        {
          "indexed": true,
          "internalType": "address",
          "name": "_contract",
          "type": "address"
        }
      ],
      "name": "SetUTokensContract",
      "type": "event"
    },
    {
      "anonymous": false,
      "inputs": [
        {
          "indexed": true,
          "internalType": "uint256",
          "name": "unstakeEpoch",
          "type": "uint256"
        },
        {
          "indexed": true,
          "internalType": "uint256",
          "name": "unstakeEpochPrevious",
          "type": "uint256"
        },
        {
          "indexed": true,
          "internalType": "uint256",
          "name": "epochInterval",
          "type": "uint256"
        }
      ],
      "name": "SetUnstakeEpoch",
      "type": "event"
    },
    {
      "anonymous": false,
      "inputs": [
        {
          "indexed": true,
          "internalType": "uint256",
          "name": "unstakingLockTime",
          "type": "uint256"
        }
      ],
      "name": "SetUnstakingLockTime",
      "type": "event"
    },
    {
      "anonymous": false,
      "inputs": [
        {
          "indexed": true,
          "internalType": "address",
          "name": "accountAddress",
          "type": "address"
        },
        {
          "indexed": true,
          "internalType": "uint256",
          "name": "tokens",
          "type": "uint256"
        },
        {
          "indexed": true,
          "internalType": "uint256",
          "name": "finalTokens",
          "type": "uint256"
        },
        {
          "indexed": false,
          "internalType": "uint256",
          "name": "timestamp",
          "type": "uint256"
        }
      ],
      "name": "StakeTokens",
      "type": "event"
    },
    {
      "anonymous": false,
      "inputs": [
        {
          "indexed": false,
          "internalType": "address",
          "name": "account",
          "type": "address"
        }
      ],
      "name": "Unpaused",
      "type": "event"
    },
    {
      "anonymous": false,
      "inputs": [
        {
          "indexed": true,
          "internalType": "address",
          "name": "accountAddress",
          "type": "address"
        },
        {
          "indexed": true,
          "internalType": "uint256",
          "name": "tokens",
          "type": "uint256"
        },
        {
          "indexed": true,
          "internalType": "uint256",
          "name": "finalTokens",
          "type": "uint256"
        },
        {
          "indexed": false,
          "internalType": "uint256",
          "name": "timestamp",
          "type": "uint256"
        }
      ],
      "name": "UnstakeTokens",
      "type": "event"
    },
    {
      "anonymous": false,
      "inputs": [
        {
          "indexed": true,
          "internalType": "address",
          "name": "accountAddress",
          "type": "address"
        },
        {
          "indexed": true,
          "internalType": "uint256",
          "name": "tokens",
          "type": "uint256"
        },
        {
          "indexed": false,
          "internalType": "uint256",
          "name": "timestamp",
          "type": "uint256"
        }
      ],
      "name": "WithdrawUnstakeTokens",
      "type": "event"
    },
    {
      "inputs": [],
      "name": "DEFAULT_ADMIN_ROLE",
      "outputs": [
        {
          "internalType": "bytes32",
          "name": "",
          "type": "bytes32"
        }
      ],
      "stateMutability": "view",
      "type": "function"
    },
    {
      "inputs": [],
      "name": "PAUSER_ROLE",
      "outputs": [
        {
          "internalType": "bytes32",
          "name": "",
          "type": "bytes32"
        }
      ],
      "stateMutability": "view",
      "type": "function"
    },
    {
      "inputs": [],
      "name": "_batchingLimit",
      "outputs": [
        {
          "internalType": "uint256",
          "name": "",
          "type": "uint256"
        }
      ],
      "stateMutability": "view",
      "type": "function"
    },
    {
      "inputs": [],
      "name": "_sTokens",
      "outputs": [
        {
          "internalType": "contract ISTokensV2",
          "name": "",
          "type": "address"
        }
      ],
      "stateMutability": "view",
      "type": "function"
    },
    {
      "inputs": [],
      "name": "_uTokens",
      "outputs": [
        {
          "internalType": "contract IUTokensV2",
          "name": "",
          "type": "address"
        }
      ],
      "stateMutability": "view",
      "type": "function"
    },
    {
      "inputs": [
        {
          "internalType": "address",
          "name": "",
          "type": "address"
        },
        {
          "internalType": "uint256",
          "name": "",
          "type": "uint256"
        }
      ],
      "name": "_unstakingAmount",
      "outputs": [
        {
          "internalType": "uint256",
          "name": "",
          "type": "uint256"
        }
      ],
      "stateMutability": "view",
      "type": "function"
    },
    {
      "inputs": [
        {
          "internalType": "address",
          "name": "",
          "type": "address"
        },
        {
          "internalType": "uint256",
          "name": "",
          "type": "uint256"
        }
      ],
      "name": "_unstakingExpiration",
      "outputs": [
        {
          "internalType": "uint256",
          "name": "",
          "type": "uint256"
        }
      ],
      "stateMutability": "view",
      "type": "function"
    },
    {
      "inputs": [],
      "name": "_valueDivisor",
      "outputs": [
        {
          "internalType": "uint256",
          "name": "",
          "type": "uint256"
        }
      ],
      "stateMutability": "view",
      "type": "function"
    },
    {
      "inputs": [],
      "name": "_version",
      "outputs": [
        {
          "internalType": "uint256",
          "name": "",
          "type": "uint256"
        }
      ],
      "stateMutability": "view",
      "type": "function"
    },
    {
      "inputs": [
        {
          "internalType": "address",
          "name": "",
          "type": "address"
        }
      ],
      "name": "_withdrawCounters",
      "outputs": [
        {
          "internalType": "uint256",
          "name": "",
          "type": "uint256"
        }
      ],
      "stateMutability": "view",
      "type": "function"
    },
    {
      "inputs": [
        {
          "internalType": "bytes32",
          "name": "role",
          "type": "bytes32"
        }
      ],
      "name": "getRoleAdmin",
      "outputs": [
        {
          "internalType": "bytes32",
          "name": "",
          "type": "bytes32"
        }
      ],
      "stateMutability": "view",
      "type": "function"
    },
    {
      "inputs": [
        {
          "internalType": "bytes32",
          "name": "role",
          "type": "bytes32"
        },
        {
          "internalType": "uint256",
          "name": "index",
          "type": "uint256"
        }
      ],
      "name": "getRoleMember",
      "outputs": [
        {
          "internalType": "address",
          "name": "",
          "type": "address"
        }
      ],
      "stateMutability": "view",
      "type": "function"
    },
    {
      "inputs": [
        {
          "internalType": "bytes32",
          "name": "role",
          "type": "bytes32"
        }
      ],
      "name": "getRoleMemberCount",
      "outputs": [
        {
          "internalType": "uint256",
          "name": "",
          "type": "uint256"
        }
      ],
      "stateMutability": "view",
      "type": "function"
    },
    {
      "inputs": [
        {
          "internalType": "bytes32",
          "name": "role",
          "type": "bytes32"
        },
        {
          "internalType": "address",
          "name": "account",
          "type": "address"
        }
      ],
      "name": "grantRole",
      "outputs": [],
      "stateMutability": "nonpayable",
      "type": "function"
    },
    {
      "inputs": [
        {
          "internalType": "bytes32",
          "name": "role",
          "type": "bytes32"
        },
        {
          "internalType": "address",
          "name": "account",
          "type": "address"
        }
      ],
      "name": "hasRole",
      "outputs": [
        {
          "internalType": "bool",
          "name": "",
          "type": "bool"
        }
      ],
      "stateMutability": "view",
      "type": "function"
    },
    {
      "inputs": [],
      "name": "paused",
      "outputs": [
        {
          "internalType": "bool",
          "name": "",
          "type": "bool"
        }
      ],
      "stateMutability": "view",
      "type": "function"
    },
    {
      "inputs": [
        {
          "internalType": "bytes32",
          "name": "role",
          "type": "bytes32"
        },
        {
          "internalType": "address",
          "name": "account",
          "type": "address"
        }
      ],
      "name": "renounceRole",
      "outputs": [],
      "stateMutability": "nonpayable",
      "type": "function"
    },
    {
      "inputs": [
        {
          "internalType": "bytes32",
          "name": "role",
          "type": "bytes32"
        },
        {
          "internalType": "address",
          "name": "account",
          "type": "address"
        }
      ],
      "name": "revokeRole",
      "outputs": [],
      "stateMutability": "nonpayable",
      "type": "function"
    },
    {
      "inputs": [
        {
          "internalType": "address",
          "name": "uAddress",
          "type": "address"
        },
        {
          "internalType": "address",
          "name": "sAddress",
          "type": "address"
        },
        {
          "internalType": "address",
          "name": "pauserAddress",
          "type": "address"
        },
        {
          "internalType": "uint256",
          "name": "unstakingLockTime",
          "type": "uint256"
        },
        {
          "internalType": "uint256",
          "name": "epochInterval",
          "type": "uint256"
        },
        {
          "internalType": "uint256",
          "name": "valueDivisor",
          "type": "uint256"
        }
      ],
      "name": "initialize",
      "outputs": [],
      "stateMutability": "nonpayable",
      "type": "function"
    },
    {
      "inputs": [
        {
          "internalType": "uint256",
          "name": "stakeFee",
          "type": "uint256"
        },
        {
          "internalType": "uint256",
          "name": "unstakeFee",
          "type": "uint256"
        }
      ],
      "name": "setFees",
      "outputs": [
        {
          "internalType": "bool",
          "name": "success",
          "type": "bool"
        }
      ],
      "stateMutability": "nonpayable",
      "type": "function"
    },
    {
      "inputs": [
        {
          "internalType": "uint256",
          "name": "unstakingLockTime",
          "type": "uint256"
        }
      ],
      "name": "setUnstakingLockTime",
      "outputs": [
        {
          "internalType": "bool",
          "name": "success",
          "type": "bool"
        }
      ],
      "stateMutability": "nonpayable",
      "type": "function"
    },
    {
      "inputs": [],
      "name": "getStakeUnstakeProps",
      "outputs": [
        {
          "internalType": "uint256",
          "name": "stakeFee",
          "type": "uint256"
        },
        {
          "internalType": "uint256",
          "name": "unstakeFee",
          "type": "uint256"
        },
        {
          "internalType": "uint256",
          "name": "minStake",
          "type": "uint256"
        },
        {
          "internalType": "uint256",
          "name": "minUnstake",
          "type": "uint256"
        },
        {
          "internalType": "uint256",
          "name": "valueDivisor",
          "type": "uint256"
        },
        {
          "internalType": "uint256",
          "name": "epochInterval",
          "type": "uint256"
        },
        {
          "internalType": "uint256",
          "name": "unstakeEpoch",
          "type": "uint256"
        },
        {
          "internalType": "uint256",
          "name": "unstakeEpochPrevious",
          "type": "uint256"
        },
        {
          "internalType": "uint256",
          "name": "unstakingLockTime",
          "type": "uint256"
        }
      ],
      "stateMutability": "view",
      "type": "function"
    },
    {
      "inputs": [
        {
          "internalType": "uint256",
          "name": "minStake",
          "type": "uint256"
        },
        {
          "internalType": "uint256",
          "name": "minUnstake",
          "type": "uint256"
        }
      ],
      "name": "setMinimumValues",
      "outputs": [
        {
          "internalType": "bool",
          "name": "success",
          "type": "bool"
        }
      ],
      "stateMutability": "nonpayable",
      "type": "function"
    },
    {
      "inputs": [
        {
          "internalType": "uint256",
          "name": "unstakeEpoch",
          "type": "uint256"
        },
        {
          "internalType": "uint256",
          "name": "unstakeEpochPrevious",
          "type": "uint256"
        },
        {
          "internalType": "uint256",
          "name": "epochInterval",
          "type": "uint256"
        }
      ],
      "name": "setUnstakeEpoch",
      "outputs": [
        {
          "internalType": "bool",
          "name": "success",
          "type": "bool"
        }
      ],
      "stateMutability": "nonpayable",
      "type": "function"
    },
    {
      "inputs": [
        {
          "internalType": "address",
          "name": "uAddress",
          "type": "address"
        }
      ],
      "name": "setUTokensContract",
      "outputs": [],
      "stateMutability": "nonpayable",
      "type": "function"
    },
    {
      "inputs": [
        {
          "internalType": "address",
          "name": "sAddress",
          "type": "address"
        }
      ],
      "name": "setSTokensContract",
      "outputs": [],
      "stateMutability": "nonpayable",
      "type": "function"
    },
    {
      "inputs": [
        {
          "internalType": "address",
          "name": "to",
          "type": "address"
        },
        {
          "internalType": "uint256",
          "name": "amount",
          "type": "uint256"
        }
      ],
      "name": "stake",
      "outputs": [
        {
          "internalType": "bool",
          "name": "",
          "type": "bool"
        }
      ],
      "stateMutability": "nonpayable",
      "type": "function"
    },
    {
      "inputs": [
        {
          "internalType": "address",
          "name": "to",
          "type": "address"
        },
        {
          "internalType": "uint256",
          "name": "amount",
          "type": "uint256"
        }
      ],
      "name": "unStake",
      "outputs": [
        {
          "internalType": "bool",
          "name": "",
          "type": "bool"
        }
      ],
      "stateMutability": "nonpayable",
      "type": "function"
    },
    {
      "inputs": [
        {
          "internalType": "uint256",
          "name": "_unstakeTimestamp",
          "type": "uint256"
        }
      ],
      "name": "getUnstakeEpochMilestone",
      "outputs": [
        {
          "internalType": "uint256",
          "name": "unstakeEpochMilestone",
          "type": "uint256"
        }
      ],
      "stateMutability": "view",
      "type": "function"
    },
    {
      "inputs": [
        {
          "internalType": "uint256",
          "name": "_unstakeTimestamp",
          "type": "uint256"
        }
      ],
      "name": "getUnstakeTime",
      "outputs": [
        {
          "internalType": "uint256",
          "name": "unstakeTime",
          "type": "uint256"
        },
        {
          "internalType": "uint256",
          "name": "unstakeEpoch",
          "type": "uint256"
        },
        {
          "internalType": "uint256",
          "name": "unstakeEpochPrevious",
          "type": "uint256"
        }
      ],
      "stateMutability": "view",
      "type": "function"
    },
    {
      "inputs": [
        {
          "internalType": "address",
          "name": "staker",
          "type": "address"
        }
      ],
      "name": "withdrawUnstakedTokens",
      "outputs": [],
      "stateMutability": "nonpayable",
      "type": "function"
    },
    {
      "inputs": [
        {
          "internalType": "address",
          "name": "staker",
          "type": "address"
        }
      ],
      "name": "getTotalUnbondedTokens",
      "outputs": [
        {
          "internalType": "uint256",
          "name": "unbondingTokens",
          "type": "uint256"
        }
      ],
      "stateMutability": "view",
      "type": "function"
    },
    {
      "inputs": [
        {
          "internalType": "address",
          "name": "staker",
          "type": "address"
        }
      ],
      "name": "getTotalUnbondingTokens",
      "outputs": [
        {
          "internalType": "uint256",
          "name": "unbondingTokens",
          "type": "uint256"
        }
      ],
      "stateMutability": "view",
      "type": "function"
    },
    {
      "inputs": [
        {
          "internalType": "uint256",
          "name": "batchingLimit",
          "type": "uint256"
        }
      ],
      "name": "setBatchingLimit",
      "outputs": [
        {
          "internalType": "bool",
          "name": "success",
          "type": "bool"
        }
      ],
      "stateMutability": "nonpayable",
      "type": "function"
    },
    {
      "inputs": [],
      "name": "getBatchingLimit",
      "outputs": [
        {
          "internalType": "uint256",
          "name": "batchingLimit",
          "type": "uint256"
        }
      ],
      "stateMutability": "view",
      "type": "function"
    },
    {
      "inputs": [],
      "name": "pause",
      "outputs": [
        {
          "internalType": "bool",
          "name": "success",
          "type": "bool"
        }
      ],
      "stateMutability": "nonpayable",
      "type": "function"
    },
    {
      "inputs": [],
      "name": "unpause",
      "outputs": [
        {
          "internalType": "bool",
          "name": "success",
          "type": "bool"
        }
      ],
      "stateMutability": "nonpayable",
      "type": "function"
    }
  ],
  "bytecode": "0x608060405234801561001057600080fd5b50612729806100206000396000f3fe608060405234801561001057600080fd5b50600436106102275760003560e01c80638456cb5911610130578063b17e3165116100b8578063d79cf55a1161007c578063d79cf55a1461066d578063d939381414610675578063e63ab1e9146106a1578063f3e6f94e146106a9578063f75f0cf6146106d557610227565b8063b17e3165146105d9578063b3deb34f146105ff578063bef1307c14610607578063ca15c87314610624578063d547741f1461064157610227565b806391d14854116100ff57806391d14854146105335780639b9eea461461055f5780639dc77cab1461057c578063a217fddf146105a5578063adc9772e146105ad57610227565b80638456cb59146104a757806385e32840146104af578063898a9664146104ea5780639010d07c1461051057610227565b80633e118dbe116101b35780635c975abb116101825780635c975abb14610405578063728a99ee1461040d578063728cdbca1461041557806378a2f0741461045d578063819020a01461048157610227565b80633e118dbe146103835780633f4ba83a1461038b57806351db00e71461039357806355f2323f146103b657610227565b806321bdf9e5116101fa57806321bdf9e5146102c0578063248a9ca3146102e85780632e31fab8146103055780632f2ff15d1461032b57806336568abe1461035757610227565b80630273b70d1461022c5780630b78f9c0146102645780630e4b29431461029b57806316027ed0146102b8575b600080fd5b6102526004803603602081101561024257600080fd5b50356001600160a01b0316610701565b60408051918252519081900360200190f35b6102876004803603604081101561027a57600080fd5b50803590602001356107d5565b604080519115158252519081900360200190f35b610287600480360360208110156102b157600080fd5b50356108d2565b61025261094f565b6102e6600480360360208110156102d657600080fd5b50356001600160a01b0316610955565b005b610252600480360360208110156102fe57600080fd5b50356109e6565b6102e66004803603602081101561031b57600080fd5b50356001600160a01b03166109fb565b6102e66004803603604081101561034157600080fd5b50803590602001356001600160a01b0316610a8c565b6102e66004803603604081101561036d57600080fd5b50803590602001356001600160a01b0316610af3565b610252610b54565b610287610b5a565b610287600480360360408110156103a957600080fd5b5080359060200135610bbe565b6103be610cbb565b60408051998a5260208a0198909852888801969096526060880194909452608087019290925260a086015260c085015260e084015261010083015251908190036101200190f35b610287610cde565b610252610ce7565b6102e6600480360360c081101561042b57600080fd5b506001600160a01b03813581169160208101358216916040820135169060608101359060808101359060a00135610ced565b610465610e08565b604080516001600160a01b039092168252519081900360200190f35b6102e66004803603602081101561049757600080fd5b50356001600160a01b0316610e17565b61028761114b565b6104cc600480360360208110156104c557600080fd5b50356111a9565b60408051938452602084019290925282820152519081900360600190f35b6102526004803603602081101561050057600080fd5b50356001600160a01b03166111f3565b6104656004803603604081101561052657600080fd5b5080359060200135611205565b6102876004803603604081101561054957600080fd5b50803590602001356001600160a01b0316611224565b6102526004803603602081101561057557600080fd5b503561123c565b6102876004803603606081101561059257600080fd5b50803590602081013590604001356112ea565b6102526113f7565b610287600480360360408110156105c357600080fd5b506001600160a01b0381351690602001356113fc565b610252600480360360208110156105ef57600080fd5b50356001600160a01b0316611723565b6102526117c5565b6102876004803603602081101561061d57600080fd5b50356117cb565b6102526004803603602081101561063a57600080fd5b5035611856565b6102e66004803603604081101561065757600080fd5b50803590602001356001600160a01b031661186d565b6104656118c6565b6102876004803603604081101561068b57600080fd5b506001600160a01b0381351690602001356118d5565b610252611bb1565b610252600480360360408110156106bf57600080fd5b506001600160a01b038135169060200135611bc3565b610252600480360360408110156106eb57600080fd5b506001600160a01b038135169060200135611bf4565b6001600160a01b038116600090815260a2602090815260408083205460a4909252822054805b828110156107cc576001600160a01b038516600090815260a260205260408120805461076891908490811061075857fe5b90600052602060002001546111a9565b505090508042106107b9576001600160a01b038616600090815260a36020526040902080546107b691908490811061079c57fe5b906000526020600020015486611c1090919063ffffffff16565b94505b506107c5816001611c10565b9050610727565b5050505b919050565b60006107e8816107e3611c6a565b611224565b61081f576040805162461bcd60e51b81526020600482015260036024820152624c513160e81b604482015290519081900360640190fd5b609d5461082d906064611c6e565b83111580610839575082155b801561085a5750609d5461084e906064611c6e565b8211158061085a575081155b610891576040805162461bcd60e51b815260206004820152600360248201526226289960e91b604482015290519081900360640190fd5b609b839055609c829055604051829084907f3be6e637f54f081a2dd12982cfd58481304fc98b604b18fa8ed4aa4e4a9d153290600090a35060015b92915050565b60006108e0816107e3611c6a565b610917576040805162461bcd60e51b81526020600482015260036024820152624c513360e81b604482015290519081900360640190fd5b609e82905560405182907ffced4450741ad45114dbc966176eb1d16dc4f2259bc864aa395736a7e8355bbb90600090a2506001919050565b60a65481565b61096260006107e3611c6a565b61099c576040805162461bcd60e51b8152602060048083019190915260248201526304c5131360e41b604482015290519081900360640190fd5b609780546001600160a01b0319166001600160a01b0383169081179091556040517ff745c285f36f88bea6af14d4d0f33dd9350cef7895216c1615b1caaee7857e0c90600090a250565b60009081526065602052604090206002015490565b610a0860006107e3611c6a565b610a42576040805162461bcd60e51b815260206004808301919091526024820152634c51313160e01b604482015290519081900360640190fd5b609880546001600160a01b0319166001600160a01b0383169081179091556040517fd0b9dbe26f676f4cdb02fc249c203baa0314cec79e18b4194dc862795a5de03f90600090a250565b600082815260656020526040902060020154610aaa906107e3611c6a565b610ae55760405162461bcd60e51b815260040180806020018281038252602f8152602001806125f7602f913960400191505060405180910390fd5b610aef8282611cc7565b5050565b610afb611c6a565b6001600160a01b0316816001600160a01b031614610b4a5760405162461bcd60e51b815260040180806020018281038252602f8152602001806126c5602f913960400191505060405180910390fd5b610aef8282611d30565b60a55481565b6000610b766000805160206126a58339815191526107e3611c6a565b610bb0576040805162461bcd60e51b815260206004808301919091526024820152634c51323360e01b604482015290519081900360640190fd5b610bb8611d99565b50600190565b6000610bcc816107e3611c6a565b610c03576040805162461bcd60e51b815260206004820152600360248201526213144d60ea1b604482015290519081900360640190fd5b6001831015610c3f576040805162461bcd60e51b81526020600482015260036024820152624c513560e81b604482015290519081900360640190fd5b6001821015610c7b576040805162461bcd60e51b815260206004820152600360248201526226289b60e91b604482015290519081900360640190fd5b6099839055609a829055604051829084907fa94d40347449ea19b873d64ed55c99772194c49791e82be5c2dc24e4c0044fe390600090a350600192915050565b609b54609c54609954609d54609f5460a05460a154609e54969795969495869590565b60335460ff1690565b609d5481565b600054610100900460ff1680610d065750610d06611e39565b80610d14575060005460ff16155b610d4f5760405162461bcd60e51b815260040180806020018281038252602e815260200180612656602e913960400191505060405180910390fd5b600054610100900460ff16158015610d7a576000805460ff1961ff0019909116610100171660011790555b610d82611e4a565b610d8a611efc565b610d9c6000610d97611c6a565b610ae5565b610db46000805160206126a583398151915286610ae5565b610dbd87610955565b610dc6866109fb565b610dcf846108d2565b50610ddb600180610bbe565b50609d829055610dec4280856112ea565b508015610dff576000805461ff00191690555b50505050505050565b6097546001600160a01b031681565b610e1f610cde565b15610e64576040805162461bcd60e51b815260206004820152601060248201526f14185d5cd8589b194e881c185d5cd95960821b604482015290519081900360640190fd5b610e6c611c6a565b6001600160a01b0316816001600160a01b031614610eba576040805162461bcd60e51b8152602060048083019190915260248201526304c5132360e41b604482015290519081900360640190fd5b6001600160a01b038116600090815260a4602052604081205460a65481908390610ee49083611c10565b6001600160a01b038616600090815260a2602052604090205411610f20576001600160a01b038516600090815260a26020526040902054610f2d565b60a654610f2d9084611c10565b9050825b81811015611034576001600160a01b038616600090815260a2602052604081208054610f6291908490811061075857fe5b50509050804210611021576001600160a01b038716600090815260a3602052604090208054610fb0919084908110610f9657fe5b906000526020600020015487611c1090919063ffffffff16565b6001600160a01b038816600090815260a26020526040902080549197509083908110610fd857fe5b600091825260208083209091018290556001600160a01b038916825260a390526040902080548390811061100857fe5b600091825260208220015561101e846001611c10565b93505b5061102d816001611c10565b9050610f31565b506001600160a01b038516600090815260a4602052604090208290558361108b576040805162461bcd60e51b815260206004808301919091526024820152634c51323160e01b604482015290519081900360640190fd5b60408051428152905185916001600160a01b038816917f31453b59c0eb931edc765cc2400876a524254457b5534d660c9da1d74ab4666b9181900360200190a3609754604080516340c10f1960e01b81526001600160a01b03888116600483015260248201889052915191909216916340c10f199160448083019260209291908290030181600087803b15801561112157600080fd5b505af1158015611135573d6000803e3d6000fd5b505050506040513d6020811015610dff57600080fd5b60006111676000805160206126a58339815191526107e3611c6a565b6111a1576040805162461bcd60e51b815260206004808301919091526024820152632628991960e11b604482015290519081900360640190fd5b610bb8611f99565b6000806000806111b88561123c565b9050806111c95760009350506111ec565b60a054925060a15491506111e8609e5482611c1090919063ffffffff16565b9350505b9193909250565b60a46020526000908152604090205481565b600082815260656020526040812061121d908361201c565b9392505050565b600082815260656020526040812061121d9083612028565b60008161124b575060006107d0565b60a05415801561125b575060a154155b806112665750609f54155b156112725750806107d0565b8160a0541115611285575060a0546107d0565b60006112a86112a160a15460a05461203d90919063ffffffff16565b8490611c10565b905060006112c160a0548361203d90919063ffffffff16565b90506112e2826112dc609f548461209a90919063ffffffff16565b90611c10565b949350505050565b60006112f8816107e3611c6a565b61132f576040805162461bcd60e51b81526020600482015260036024820152624c513760e81b604482015290519081900360640190fd5b8383111561136a576040805162461bcd60e51b8152602060048201526003602482015262098a2760eb1b604482015290519081900360640190fd5b8315801561137757508115155b156113af576040805162461bcd60e51b81526020600482015260036024820152624c513960e81b604482015290519081900360640190fd5b60a084905560a1839055609f8290556040518290849086907f342db083975cc0697d0f81d0876299ecbf95d909e920426089062e540904497c90600090a45060019392505050565b600081565b6000611406610cde565b1561144b576040805162461bcd60e51b815260206004820152601060248201526f14185d5cd8589b194e881c185d5cd95960821b604482015290519081900360640190fd5b611453611c6a565b6001600160a01b0316836001600160a01b0316146114a1576040805162461bcd60e51b815260206004808301919091526024820152632628989960e11b604482015290519081900360640190fd5b609754604080516370a0823160e01b81526001600160a01b038681166004830152915160009392909216916370a0823191602480820192602092909190829003018186803b1580156114f257600080fd5b505afa158015611506573d6000803e3d6000fd5b505050506040513d602081101561151c57600080fd5b5051609b54609d549192506000916115429160649161153c918891612101565b906121ba565b905060006115508583611c10565b9050609954851015611592576040805162461bcd60e51b815260206004808301919091526024820152634c51313360e01b604482015290519081900360640190fd5b808310156115d0576040805162461bcd60e51b8152602060048083019190915260248201526313144c4d60e21b604482015290519081900360640190fd5b8085876001600160a01b03167f5fe79871cd2431c06447cbcf2557091da5d2ed5bc640f1028f42665913786e42426040518082815260200191505060405180910390a460975460408051632770a7eb60e21b81526001600160a01b0389811660048301526024820185905291519190921691639dc29fac9160448083019260209291908290030181600087803b15801561166957600080fd5b505af115801561167d573d6000803e3d6000fd5b505050506040513d602081101561169357600080fd5b5050609854604080516340c10f1960e01b81526001600160a01b03898116600483015260248201899052915191909216916340c10f199160448083019260209291908290030181600087803b1580156116eb57600080fd5b505af11580156116ff573d6000803e3d6000fd5b505050506040513d602081101561171557600080fd5b506001979650505050505050565b6001600160a01b038116600090815260a2602090815260408083205460a4909252822054805b828110156107cc576001600160a01b038516600090815260a260205260408120805461177a91908490811061075857fe5b50509050804210156117b2576001600160a01b038616600090815260a36020526040902080546117af91908490811061079c57fe5b94505b506117be816001611c10565b9050611749565b60a65490565b60006117d9816107e3611c6a565b611813576040805162461bcd60e51b8152602060048083019190915260248201526313144c8d60e21b604482015290519081900360640190fd5b60a682905560408051428152905183917f3e0887a905af0c5764f2c25c201fa1b9595065cb7008f54fe7734fefdd8e88dc919081900360200190a2506001919050565b60008181526065602052604081206108cc90612221565b60008281526065602052604090206002015461188b906107e3611c6a565b610b4a5760405162461bcd60e51b81526004018080602001828103825260308152602001806126266030913960400191505060405180910390fd5b6098546001600160a01b031681565b60006118df610cde565b15611924576040805162461bcd60e51b815260206004820152601060248201526f14185d5cd8589b194e881c185d5cd95960821b604482015290519081900360640190fd5b61192c611c6a565b6001600160a01b0316836001600160a01b03161461197a576040805162461bcd60e51b815260206004808301919091526024820152634c51313560e01b604482015290519081900360640190fd5b609854604080516370a0823160e01b81526001600160a01b038681166004830152915160009392909216916370a0823191602480820192602092909190829003018186803b1580156119cb57600080fd5b505afa1580156119df573d6000803e3d6000fd5b505050506040513d60208110156119f557600080fd5b5051609c54609d54919250600091611a159160649161153c918891612101565b90506000611a238583611c10565b9050609a54851015611a65576040805162461bcd60e51b81526020600480830191909152602482015263098a262760e31b604482015290519081900360640190fd5b80831015611aa3576040805162461bcd60e51b815260206004808301919091526024820152634c51313960e01b604482015290519081900360640190fd5b60985460408051632770a7eb60e21b81526001600160a01b0389811660048301526024820185905291519190921691639dc29fac9160448083019260209291908290030181600087803b158015611af957600080fd5b505af1158015611b0d573d6000803e3d6000fd5b505050506040513d6020811015611b2357600080fd5b50506001600160a01b038616600081815260a26020908152604080832080546001818101835591855283852042910181905585855260a3845282852080549283018155855293839020018990558051928352518493899390927f98850af53deeaf736beb3ea22091c900e8e5cfdf8153342daa366dc1d83a39fd92918290030190a450600195945050505050565b6000805160206126a583398151915281565b60a26020528160005260406000208181548110611bdf57600080fd5b90600052602060002001600091509150505481565b60a36020528160005260406000208181548110611bdf57600080fd5b60008282018381101561121d576040805162461bcd60e51b815260206004820152601b60248201527f536166654d6174683a206164646974696f6e206f766572666c6f770000000000604482015290519081900360640190fd5b3390565b600082611c7d575060006108cc565b82820282848281611c8a57fe5b041461121d5760405162461bcd60e51b81526004018080602001828103825260218152602001806126846021913960400191505060405180910390fd5b6000828152606560205260409020611cdf908261222c565b15610aef57611cec611c6a565b6001600160a01b0316816001600160a01b0316837f2f8788117e7eff1d82e926ec794901d17c78024a50270940304540a733656f0d60405160405180910390a45050565b6000828152606560205260409020611d489082612241565b15610aef57611d55611c6a565b6001600160a01b0316816001600160a01b0316837ff6391f5c32d9c69d2a47ea670b442974b53935d1edc7fd64eb21e047a839171b60405160405180910390a45050565b611da1610cde565b611de9576040805162461bcd60e51b815260206004820152601460248201527314185d5cd8589b194e881b9bdd081c185d5cd95960621b604482015290519081900360640190fd5b6033805460ff191690557f5db9ee0a495bf2e6ff9c91a7834c1ba4fdd244a5e8aa4e537bd38aeae4b073aa611e1c611c6a565b604080516001600160a01b039092168252519081900360200190a1565b6000611e4430612256565b15905090565b600054610100900460ff1680611e635750611e63611e39565b80611e71575060005460ff16155b611eac5760405162461bcd60e51b815260040180806020018281038252602e815260200180612656602e913960400191505060405180910390fd5b600054610100900460ff16158015611ed7576000805460ff1961ff0019909116610100171660011790555b611edf61225c565b611ee761225c565b8015611ef9576000805461ff00191690555b50565b600054610100900460ff1680611f155750611f15611e39565b80611f23575060005460ff16155b611f5e5760405162461bcd60e51b815260040180806020018281038252602e815260200180612656602e913960400191505060405180910390fd5b600054610100900460ff16158015611f89576000805460ff1961ff0019909116610100171660011790555b611f9161225c565b611ee76122fc565b611fa1610cde565b15611fe6576040805162461bcd60e51b815260206004820152601060248201526f14185d5cd8589b194e881c185d5cd95960821b604482015290519081900360640190fd5b6033805460ff191660011790557f62e78cea01bee320cd4e420270b5ea74000d11b0c9f74754ebdbfc544b05a258611e1c611c6a565b600061121d83836123a7565b600061121d836001600160a01b03841661240b565b600082821115612094576040805162461bcd60e51b815260206004820152601e60248201527f536166654d6174683a207375627472616374696f6e206f766572666c6f770000604482015290519081900360640190fd5b50900390565b60008082116120f0576040805162461bcd60e51b815260206004820152601860248201527f536166654d6174683a206d6f64756c6f206279207a65726f0000000000000000604482015290519081900360640190fd5b8183816120f957fe5b069392505050565b60008060006121108686612423565b915091506000848061211e57fe5b868809905082811115612132576001820391505b9182900391816121505784838161214557fe5b04935050505061121d565b8482106121a4576040805162461bcd60e51b815260206004820152601a60248201527f46756c6c4d6174683a2046554c4c4449565f4f564552464c4f57000000000000604482015290519081900360640190fd5b6121af838387612450565b979650505050505050565b6000808211612210576040805162461bcd60e51b815260206004820152601a60248201527f536166654d6174683a206469766973696f6e206279207a65726f000000000000604482015290519081900360640190fd5b81838161221957fe5b049392505050565b60006108cc826124c0565b600061121d836001600160a01b0384166124c4565b600061121d836001600160a01b03841661250e565b3b151590565b600054610100900460ff16806122755750612275611e39565b80612283575060005460ff16155b6122be5760405162461bcd60e51b815260040180806020018281038252602e815260200180612656602e913960400191505060405180910390fd5b600054610100900460ff16158015611ee7576000805460ff1961ff0019909116610100171660011790558015611ef9576000805461ff001916905550565b600054610100900460ff16806123155750612315611e39565b80612323575060005460ff16155b61235e5760405162461bcd60e51b815260040180806020018281038252602e815260200180612656602e913960400191505060405180910390fd5b600054610100900460ff16158015612389576000805460ff1961ff0019909116610100171660011790555b6033805460ff191690558015611ef9576000805461ff001916905550565b815460009082106123e95760405162461bcd60e51b81526004018080602001828103825260228152602001806125d56022913960400191505060405180910390fd5b8260000182815481106123f857fe5b9060005260206000200154905092915050565b60009081526001919091016020526040902054151590565b6000808060001984860990508385029250828103915082811015612448576001820391505b509250929050565b6000818103821680838161246057fe5b04925080858161246c57fe5b04945080816000038161247b57fe5b60028581038087028203028087028203028087028203028087028203028087028203028087028203029586029003909402930460010193909302939093010292915050565b5490565b60006124d0838361240b565b612506575081546001818101845560008481526020808220909301849055845484825282860190935260409020919091556108cc565b5060006108cc565b600081815260018301602052604081205480156125ca578354600019808301919081019060009087908390811061254157fe5b906000526020600020015490508087600001848154811061255e57fe5b60009182526020808320909101929092558281526001898101909252604090209084019055865487908061258e57fe5b600190038181906000526020600020016000905590558660010160008781526020019081526020016000206000905560019450505050506108cc565b60009150506108cc56fe456e756d657261626c655365743a20696e646578206f7574206f6620626f756e6473416363657373436f6e74726f6c3a2073656e646572206d75737420626520616e2061646d696e20746f206772616e74416363657373436f6e74726f6c3a2073656e646572206d75737420626520616e2061646d696e20746f207265766f6b65496e697469616c697a61626c653a20636f6e747261637420697320616c726561647920696e697469616c697a6564536166654d6174683a206d756c7469706c69636174696f6e206f766572666c6f7765d7a28e3265b37a6474929f336521b332c1681b933f6cb9f3376673440d862a416363657373436f6e74726f6c3a2063616e206f6e6c792072656e6f756e636520726f6c657320666f722073656c66a26469706673582212207653b264622101b07ae427dd9c9d9ec89996b886c397567327f391fa52cbda1664736f6c63430007060033",
  "immutableReferences": {},
  "source": "/*\n Copyright [2019] - [2021], PERSISTENCE TECHNOLOGIES PTE. LTD. and the pStake-smartContracts contributors\n SPDX-License-Identifier: Apache-2.0\n*/\n\npragma solidity >=0.7.0;\n\nimport \"@openzeppelin/contracts-upgradeable/math/SafeMathUpgradeable.sol\";\nimport \"@openzeppelin/contracts-upgradeable/access/AccessControlUpgradeable.sol\";\nimport \"@openzeppelin/contracts-upgradeable/utils/PausableUpgradeable.sol\";\nimport \"./interfaces/ISTokensV2.sol\";\nimport \"./interfaces/IUTokensV2.sol\";\nimport \"./interfaces/ILiquidStakingV2.sol\";\nimport \"./libraries/FullMath.sol\";\n\ncontract LiquidStakingV2 is\n\tILiquidStakingV2,\n\tPausableUpgradeable,\n\tAccessControlUpgradeable\n{\n\tusing SafeMathUpgradeable for uint256;\n\tusing FullMath for uint256;\n\n\t//Private instances of contracts to handle Utokens and Stokens\n\tIUTokensV2 public _uTokens;\n\tISTokensV2 public _sTokens;\n\n\t// defining the fees and minimum values\n\tuint256 private _minStake;\n\tuint256 private _minUnstake;\n\tuint256 private _stakeFee;\n\tuint256 private _unstakeFee;\n\tuint256 public _valueDivisor;\n\n\t// constants defining access control ROLES\n\tbytes32 public constant PAUSER_ROLE = keccak256(\"PAUSER_ROLE\");\n\n\t// variables pertaining to unbonding logic\n\tuint256 private _unstakingLockTime;\n\tuint256 private _epochInterval;\n\tuint256 private _unstakeEpoch;\n\tuint256 private _unstakeEpochPrevious;\n\n\t//Mapping to handle the Expiry period\n\tmapping(address => uint256[]) public _unstakingExpiration;\n\n\t//Mapping to handle the Expiry amount\n\tmapping(address => uint256[]) public _unstakingAmount;\n\n\t//mappint to handle a counter variable indicating from what index to start the loop.\n\tmapping(address => uint256) public _withdrawCounters;\n\n\t// variable pertaining to contract upgrades versioning\n\tuint256 public _version;\n\n\tuint256 public _batchingLimit;\n\n\t/**\n\t * @dev Constructor for initializing the LiquidStaking contract.\n\t * @param uAddress - address of the UToken contract.\n\t * @param sAddress - address of the SToken contract.\n\t * @param pauserAddress - address of the pauser admin.\n\t * @param unstakingLockTime - varies from 21 hours to 21 days.\n\t * @param epochInterval - varies from 3 hours to 3 days.\n\t * @param valueDivisor - valueDivisor set to 10^9.\n\t */\n\tfunction initialize(\n\t\taddress uAddress,\n\t\taddress sAddress,\n\t\taddress pauserAddress,\n\t\tuint256 unstakingLockTime,\n\t\tuint256 epochInterval,\n\t\tuint256 valueDivisor\n\t) public virtual initializer {\n\t\t__AccessControl_init();\n\t\t__Pausable_init();\n\t\t_setupRole(DEFAULT_ADMIN_ROLE, _msgSender());\n\t\t_setupRole(PAUSER_ROLE, pauserAddress);\n\t\tsetUTokensContract(uAddress);\n\t\tsetSTokensContract(sAddress);\n\t\tsetUnstakingLockTime(unstakingLockTime);\n\t\tsetMinimumValues(1, 1);\n\t\t_valueDivisor = valueDivisor;\n\t\tsetUnstakeEpoch(block.timestamp, block.timestamp, epochInterval);\n\t}\n\n\t/**\n\t * @dev Set 'fees', called from admin\n\t * @param stakeFee: stake fee\n\t * @param unstakeFee: unstake fee\n\t *\n\t * Emits a {SetFees} event with 'fee' set to the stake and unstake.\n\t *\n\t */\n\tfunction setFees(uint256 stakeFee, uint256 unstakeFee)\n\t\tpublic\n\t\tvirtual\n\t\toverride\n\t\treturns (bool success)\n\t{\n\t\trequire(hasRole(DEFAULT_ADMIN_ROLE, _msgSender()), \"LQ1\");\n\t\t// range checks for fees. Since fee cannot be more than 100%, the max cap\n\t\t// is _valueDivisor * 100, which then brings the fees to 100 (percentage)\n\t\trequire(\n\t\t\t(stakeFee <= _valueDivisor.mul(100) || stakeFee == 0) &&\n\t\t\t\t(unstakeFee <= _valueDivisor.mul(100) || unstakeFee == 0),\n\t\t\t\"LQ2\"\n\t\t);\n\t\t_stakeFee = stakeFee;\n\t\t_unstakeFee = unstakeFee;\n\t\temit SetFees(stakeFee, unstakeFee);\n\t\treturn true;\n\t}\n\n\t/**\n\t * @dev Set 'unstake props', called from admin\n\t * @param unstakingLockTime: varies from 21 hours to 21 days\n\t *\n\t * Emits a {SetUnstakeProps} event with 'fee' set to the stake and unstake.\n\t *\n\t */\n\tfunction setUnstakingLockTime(uint256 unstakingLockTime)\n\t\tpublic\n\t\tvirtual\n\t\toverride\n\t\treturns (bool success)\n\t{\n\t\trequire(hasRole(DEFAULT_ADMIN_ROLE, _msgSender()), \"LQ3\");\n\t\t_unstakingLockTime = unstakingLockTime;\n\t\temit SetUnstakingLockTime(unstakingLockTime);\n\t\treturn true;\n\t}\n\n\t/**\n\t * @dev get fees, min values, value divisor and epoch props\n\t *\n\t */\n\tfunction getStakeUnstakeProps()\n\t\tpublic\n\t\tview\n\t\tvirtual\n\t\toverride\n\t\treturns (\n\t\t\tuint256 stakeFee,\n\t\t\tuint256 unstakeFee,\n\t\t\tuint256 minStake,\n\t\t\tuint256 minUnstake,\n\t\t\tuint256 valueDivisor,\n\t\t\tuint256 epochInterval,\n\t\t\tuint256 unstakeEpoch,\n\t\t\tuint256 unstakeEpochPrevious,\n\t\t\tuint256 unstakingLockTime\n\t\t)\n\t{\n\t\tstakeFee = _stakeFee;\n\t\tunstakeFee = _unstakeFee;\n\t\tminStake = _minStake;\n\t\tminUnstake = _minStake;\n\t\tvalueDivisor = _valueDivisor;\n\t\tepochInterval = _epochInterval;\n\t\tunstakeEpoch = _unstakeEpoch;\n\t\tunstakeEpochPrevious = _unstakeEpochPrevious;\n\t\tunstakingLockTime = _unstakingLockTime;\n\t}\n\n\t/**\n\t * @dev Set 'minimum values', called from admin\n\t * @param minStake: stake minimum value\n\t * @param minUnstake: unstake minimum value\n\t *\n\t * Emits a {SetMinimumValues} event with 'minimum value' set to the stake and unstake.\n\t *\n\t */\n\tfunction setMinimumValues(uint256 minStake, uint256 minUnstake)\n\t\tpublic\n\t\tvirtual\n\t\toverride\n\t\treturns (bool success)\n\t{\n\t\trequire(hasRole(DEFAULT_ADMIN_ROLE, _msgSender()), \"LQ4\");\n\t\trequire(minStake >= 1, \"LQ5\");\n\t\trequire(minUnstake >= 1, \"LQ6\");\n\t\t_minStake = minStake;\n\t\t_minUnstake = minUnstake;\n\t\temit SetMinimumValues(minStake, minUnstake);\n\t\treturn true;\n\t}\n\n\t/**\n\t * @dev Set 'unstake epoch', called from admin\n\t * @param unstakeEpoch: unstake epoch\n\t * @param unstakeEpochPrevious: unstake epoch previous(initially set to same value as unstakeEpoch)\n\t * @param epochInterval: varies from 3 hours to 3 days\n\t *\n\t * Emits a {SetUnstakeEpoch} event with 'unstakeEpoch'\n\t *\n\t */\n\tfunction setUnstakeEpoch(\n\t\tuint256 unstakeEpoch,\n\t\tuint256 unstakeEpochPrevious,\n\t\tuint256 epochInterval\n\t) public virtual override returns (bool success) {\n\t\trequire(hasRole(DEFAULT_ADMIN_ROLE, _msgSender()), \"LQ7\");\n\t\trequire(unstakeEpochPrevious <= unstakeEpoch, \"LQ8\");\n\t\tif (unstakeEpoch == 0 && epochInterval != 0) revert(\"LQ9\");\n\t\t_unstakeEpoch = unstakeEpoch;\n\t\t_unstakeEpochPrevious = unstakeEpochPrevious;\n\t\t_epochInterval = epochInterval;\n\t\temit SetUnstakeEpoch(unstakeEpoch, unstakeEpochPrevious, epochInterval);\n\t\treturn true;\n\t}\n\n\t/**\n\t * @dev Set 'contract address', called from constructor\n\t * @param uAddress: utoken contract address\n\t *\n\t * Emits a {SetUTokensContract} event with '_contract' set to the utoken contract address.\n\t *\n\t */\n\tfunction setUTokensContract(address uAddress) public virtual override {\n\t\trequire(hasRole(DEFAULT_ADMIN_ROLE, _msgSender()), \"LQ10\");\n\t\t_uTokens = IUTokensV2(uAddress);\n\t\temit SetUTokensContract(uAddress);\n\t}\n\n\t/**\n\t * @dev Set 'contract address', called from constructor\n\t * @param sAddress: stoken contract address\n\t *\n\t * Emits a {SetSTokensContract} event with '_contract' set to the stoken contract address.\n\t *\n\t */\n\tfunction setSTokensContract(address sAddress) public virtual override {\n\t\trequire(hasRole(DEFAULT_ADMIN_ROLE, _msgSender()), \"LQ11\");\n\t\t_sTokens = ISTokensV2(sAddress);\n\t\temit SetSTokensContract(sAddress);\n\t}\n\n\t/**\n\t * @dev Stake utokens over the platform with address 'to' for desired 'amount'(Burn uTokens and Mint sTokens)\n\t * @param to: user address for staking, amount: number of tokens to stake\n\t *\n\t *\n\t * Requirements:\n\t *\n\t * - `amount` cannot be less than zero.\n\t * - 'amount' cannot be more than balance\n\t * - 'amount' plus new balance should be equal to the old balance\n\t */\n\tfunction stake(address to, uint256 amount)\n\t\tpublic\n\t\tvirtual\n\t\toverride\n\t\twhenNotPaused\n\t\treturns (bool)\n\t{\n\t\t// Check the supplied amount is greater than minimum stake value\n\t\trequire(to == _msgSender(), \"LQ12\");\n\t\t// Check the current balance for uTokens is greater than the amount to be staked\n\t\tuint256 _currentUTokenBalance = _uTokens.balanceOf(to);\n\t\tuint256 _stakeFeeAmount = (amount.mulDiv(_stakeFee, _valueDivisor)).div(\n\t\t\t100\n\t\t);\n\t\tuint256 _finalTokens = amount.add(_stakeFeeAmount);\n\t\t// the value which should be greater than or equal to _minStake\n\t\t// is amount since minval applies to number of sTokens to be minted\n\t\trequire(amount >= _minStake, \"LQ13\");\n\t\trequire(_currentUTokenBalance >= _finalTokens, \"LQ14\");\n\t\temit StakeTokens(to, amount, _finalTokens, block.timestamp);\n\t\t// Burn the uTokens as specified with the amount\n\t\t_uTokens.burn(to, _finalTokens);\n\t\t// Mint the sTokens for the account specified\n\t\t_sTokens.mint(to, amount);\n\t\treturn true;\n\t}\n\n\t/**\n\t * @dev UnStake stokens over the platform with address 'to' for desired 'amount' (Burn sTokens and Mint uTokens with 21 days locking period)\n\t * @param to: user address for staking, amount: number of tokens to unstake\n\t *\n\t *\n\t * Requirements:\n\t *\n\t * - `amount` cannot be less than zero.\n\t * - 'amount' cannot be more than balance\n\t * - 'amount' plus new balance should be equal to the old balance\n\t */\n\tfunction unStake(address to, uint256 amount)\n\t\tpublic\n\t\tvirtual\n\t\toverride\n\t\twhenNotPaused\n\t\treturns (bool)\n\t{\n\t\t// Check the supplied amount is greater than 0\n\t\trequire(to == _msgSender(), \"LQ15\");\n\t\t// Check the current balance for sTokens is greater than the amount to be unStaked\n\t\tuint256 _currentSTokenBalance = _sTokens.balanceOf(to);\n\t\tuint256 _unstakeFeeAmount = (amount.mulDiv(_unstakeFee, _valueDivisor))\n\t\t\t.div(100);\n\t\tuint256 _finalTokens = amount.add(_unstakeFeeAmount);\n\t\t// the value which should be greater than or equal to _minSUnstake\n\t\t// is amount since minval applies to number of uTokens to be withdrawn\n\t\trequire(amount >= _minUnstake, \"LQ18\");\n\t\trequire(_currentSTokenBalance >= _finalTokens, \"LQ19\");\n\t\t// Burn the sTokens as specified with the amount\n\t\t_sTokens.burn(to, _finalTokens);\n\t\t_unstakingExpiration[to].push(block.timestamp);\n\t\t// array will hold amount and not _finalTokens because that is the amount of\n\t\t// uTokens pending to be credited after withdraw period\n\t\t_unstakingAmount[to].push(amount);\n\t\t// the event needs to capture _finalTokens that were and not amount\n\t\temit UnstakeTokens(to, amount, _finalTokens, block.timestamp);\n\n\t\treturn true;\n\t}\n\n\t/**\n\t * @dev returns the nearest epoch milestone in the future\n\t */\n\tfunction getUnstakeEpochMilestone(uint256 _unstakeTimestamp)\n\t\tpublic\n\t\tview\n\t\tvirtual\n\t\toverride\n\t\treturns (uint256 unstakeEpochMilestone)\n\t{\n\t\tif (_unstakeTimestamp == 0) return 0;\n\t\t// if epoch values are not relevant, then the epoch milestone is the unstake timestamp itself (backward compatibility)\n\t\tif (\n\t\t\t(_unstakeEpoch == 0 && _unstakeEpochPrevious == 0) ||\n\t\t\t_epochInterval == 0\n\t\t) return _unstakeTimestamp;\n\t\tif (_unstakeEpoch > _unstakeTimestamp) return (_unstakeEpoch);\n\t\tuint256 _referenceStartTime = (_unstakeTimestamp).add(\n\t\t\t_unstakeEpoch.sub(_unstakeEpochPrevious)\n\t\t);\n\t\tuint256 _timeDiff = _referenceStartTime.sub(_unstakeEpoch);\n\t\tunstakeEpochMilestone = (_timeDiff.mod(_epochInterval)).add(\n\t\t\t_referenceStartTime\n\t\t);\n\t\treturn (unstakeEpochMilestone);\n\t}\n\n\t/**\n\t * @dev returns the time left for unbonding to finish\n\t */\n\tfunction getUnstakeTime(uint256 _unstakeTimestamp)\n\t\tpublic\n\t\tview\n\t\tvirtual\n\t\toverride\n\t\treturns (\n\t\t\tuint256 unstakeTime,\n\t\t\tuint256 unstakeEpoch,\n\t\t\tuint256 unstakeEpochPrevious\n\t\t)\n\t{\n\t\tuint256 _unstakeEpochMilestone = getUnstakeEpochMilestone(\n\t\t\t_unstakeTimestamp\n\t\t);\n\t\tif (_unstakeEpochMilestone == 0)\n\t\t\treturn (0, unstakeEpoch, unstakeEpochPrevious);\n\t\tunstakeEpoch = _unstakeEpoch;\n\t\tunstakeEpochPrevious = _unstakeEpochPrevious;\n\t\t//adding unstakingLockTime with epoch difference\n\t\tunstakeTime = _unstakeEpochMilestone.add(_unstakingLockTime);\n\t\treturn (unstakeTime, unstakeEpoch, unstakeEpochPrevious);\n\t}\n\n\t/**\n\t * @dev Lock the unstaked tokens for 21 days, user can withdraw the same (Mint uTokens with 21 days locking period)\n\t *\n\t * @param staker: user address for withdraw\n\t *\n\t * Requirements:\n\t *\n\t * - `current block timestamp` should be after 21 days from the period where unstaked function is called.\n\t */\n\tfunction withdrawUnstakedTokens(address staker)\n\t\tpublic\n\t\tvirtual\n\t\toverride\n\t\twhenNotPaused\n\t{\n\t\trequire(staker == _msgSender(), \"LQ20\");\n\t\tuint256 _withdrawBalance;\n\t\tuint256 _counter = _withdrawCounters[staker];\n\t\tuint256 _counter2 = _withdrawCounters[staker];\n\t\tuint256 _unstakingExpirationLength = _unstakingExpiration[staker]\n\t\t\t.length > _batchingLimit.add(_counter)\n\t\t\t? _batchingLimit.add(_counter)\n\t\t\t: _unstakingExpiration[staker].length;\n\n\t\tfor (\n\t\t\tuint256 i = _counter;\n\t\t\ti < _unstakingExpirationLength;\n\t\t\ti = i.add(1)\n\t\t) {\n\t\t\t//get getUnstakeTime and compare it with current timestamp to check if 21 days + epoch difference has passed\n\t\t\t(uint256 _getUnstakeTime, , ) = getUnstakeTime(\n\t\t\t\t_unstakingExpiration[staker][i]\n\t\t\t);\n\t\t\tif (block.timestamp >= _getUnstakeTime) {\n\t\t\t\t//if 21 days + epoch difference has passed, then add the balance and then mint uTokens\n\t\t\t\t_withdrawBalance = _withdrawBalance.add(\n\t\t\t\t\t_unstakingAmount[staker][i]\n\t\t\t\t);\n\t\t\t\tdelete _unstakingExpiration[staker][i];\n\t\t\t\tdelete _unstakingAmount[staker][i];\n\t\t\t\t_counter2 = _counter2.add(1);\n\t\t\t}\n\t\t}\n\n\t\t// update _withdrawCounters[staker] only once outside for loop to save gas\n\t\t_withdrawCounters[staker] = _counter2;\n\t\trequire(_withdrawBalance > 0, \"LQ21\");\n\t\temit WithdrawUnstakeTokens(staker, _withdrawBalance, block.timestamp);\n\t\t_uTokens.mint(staker, _withdrawBalance);\n\t}\n\n\t/**\n\t * @dev get Total Unbonded Tokens\n\t * @param staker: account address\n\t *\n\t */\n\tfunction getTotalUnbondedTokens(address staker)\n\t\tpublic\n\t\tview\n\t\tvirtual\n\t\toverride\n\t\treturns (uint256 unbondingTokens)\n\t{\n\t\tuint256 _unstakingExpirationLength = _unstakingExpiration[staker]\n\t\t\t.length;\n\t\tuint256 _counter = _withdrawCounters[staker];\n\t\tfor (\n\t\t\tuint256 i = _counter;\n\t\t\ti < _unstakingExpirationLength;\n\t\t\ti = i.add(1)\n\t\t) {\n\t\t\t//get getUnstakeTime and compare it with current timestamp to check if 21 days + epoch difference has passed\n\t\t\t(uint256 _getUnstakeTime, , ) = getUnstakeTime(\n\t\t\t\t_unstakingExpiration[staker][i]\n\t\t\t);\n\t\t\tif (block.timestamp >= _getUnstakeTime) {\n\t\t\t\t//if 21 days + epoch difference has passed, then check the token amount and send back\n\t\t\t\tunbondingTokens = unbondingTokens.add(\n\t\t\t\t\t_unstakingAmount[staker][i]\n\t\t\t\t);\n\t\t\t}\n\t\t}\n\t\treturn unbondingTokens;\n\t}\n\n\t/**\n\t * @dev get Total Unbonding Tokens\n\t * @param staker: account address\n\t *\n\t */\n\tfunction getTotalUnbondingTokens(address staker)\n\t\tpublic\n\t\tview\n\t\tvirtual\n\t\toverride\n\t\treturns (uint256 unbondingTokens)\n\t{\n\t\tuint256 _unstakingExpirationLength = _unstakingExpiration[staker]\n\t\t\t.length;\n\t\tuint256 _counter = _withdrawCounters[staker];\n\t\tfor (\n\t\t\tuint256 i = _counter;\n\t\t\ti < _unstakingExpirationLength;\n\t\t\ti = i.add(1)\n\t\t) {\n\t\t\t//get getUnstakeTime and compare it with current timestamp to check if 21 days + epoch difference has passed\n\t\t\t(uint256 _getUnstakeTime, , ) = getUnstakeTime(\n\t\t\t\t_unstakingExpiration[staker][i]\n\t\t\t);\n\t\t\tif (block.timestamp < _getUnstakeTime) {\n\t\t\t\t//if 21 days + epoch difference have not passed, then check the token amount and send back\n\t\t\t\tunbondingTokens = unbondingTokens.add(\n\t\t\t\t\t_unstakingAmount[staker][i]\n\t\t\t\t);\n\t\t\t}\n\t\t}\n\t\treturn unbondingTokens;\n\t}\n\n\t/**\n\t * @dev Set 'fees', called from admin\n\t * Emits a {SetFees} event with 'fee' set to the stake and unstake.\n\t *\n\t */\n\tfunction setBatchingLimit(uint256 batchingLimit)\n\t\tpublic\n\t\tvirtual\n\t\toverride\n\t\treturns (bool success)\n\t{\n\t\trequire(hasRole(DEFAULT_ADMIN_ROLE, _msgSender()), \"LQ24\");\n\t\t_batchingLimit = batchingLimit;\n\t\temit SetBatchingLimit(batchingLimit, block.timestamp);\n\t\tsuccess = true;\n\t\treturn success;\n\t}\n\n\t/**\n\t * @dev get fees, min values, value divisor and epoch props\n\t *\n\t */\n\tfunction getBatchingLimit()\n\t\tpublic\n\t\tview\n\t\tvirtual\n\t\toverride\n\t\treturns (uint256 batchingLimit)\n\t{\n\t\tbatchingLimit = _batchingLimit;\n\t}\n\n\t/**\n\t * @dev Triggers stopped state.\n\t *\n\t * Requirements:\n\t *\n\t * - The contract must not be paused.\n\t */\n\tfunction pause() public virtual override returns (bool success) {\n\t\trequire(hasRole(PAUSER_ROLE, _msgSender()), \"LQ22\");\n\t\t_pause();\n\t\treturn true;\n\t}\n\n\t/**\n\t * @dev Returns to normal state.\n\t *\n\t * Requirements:\n\t *\n\t * - The contract must be paused.\n\t */\n\tfunction unpause() public virtual override returns (bool success) {\n\t\trequire(hasRole(PAUSER_ROLE, _msgSender()), \"LQ23\");\n\t\t_unpause();\n\t\treturn true;\n\t}\n}\n",
  "sourcePath": "/home/aditimahesh/Documents/Work/Persistence/go/src/github.com/persistenceOne/pStake-smartContracts/contracts/LiquidStakingV2.sol",
  "compiler": {
    "name": "solc",
    "version": "0.7.6+commit.7338295f.Emscripten.clang"
  },
  "schemaVersion": "3.4.3",
  "updatedAt": "2022-02-23T12:27:39.283Z",
  "devdoc": {
    "kind": "dev",
    "methods": {
      "getBatchingLimit()": {
        "details": "get fees, min values, value divisor and epoch props"
      },
      "getRoleAdmin(bytes32)": {
        "details": "Returns the admin role that controls `role`. See {grantRole} and {revokeRole}. To change a role's admin, use {_setRoleAdmin}."
      },
      "getRoleMember(bytes32,uint256)": {
        "details": "Returns one of the accounts that have `role`. `index` must be a value between 0 and {getRoleMemberCount}, non-inclusive. Role bearers are not sorted in any particular way, and their ordering may change at any point. WARNING: When using {getRoleMember} and {getRoleMemberCount}, make sure you perform all queries on the same block. See the following https://forum.openzeppelin.com/t/iterating-over-elements-on-enumerableset-in-openzeppelin-contracts/2296[forum post] for more information."
      },
      "getRoleMemberCount(bytes32)": {
        "details": "Returns the number of accounts that have `role`. Can be used together with {getRoleMember} to enumerate all bearers of a role."
      },
      "getStakeUnstakeProps()": {
        "details": "get fees, min values, value divisor and epoch props"
      },
      "getTotalUnbondedTokens(address)": {
        "details": "get Total Unbonded Tokens",
        "params": {
          "staker": ": account address"
        }
      },
      "getTotalUnbondingTokens(address)": {
        "details": "get Total Unbonding Tokens",
        "params": {
          "staker": ": account address"
        }
      },
      "getUnstakeEpochMilestone(uint256)": {
        "details": "returns the nearest epoch milestone in the future"
      },
      "getUnstakeTime(uint256)": {
        "details": "returns the time left for unbonding to finish"
      },
      "grantRole(bytes32,address)": {
        "details": "Grants `role` to `account`. If `account` had not been already granted `role`, emits a {RoleGranted} event. Requirements: - the caller must have ``role``'s admin role."
      },
      "hasRole(bytes32,address)": {
        "details": "Returns `true` if `account` has been granted `role`."
      },
      "initialize(address,address,address,uint256,uint256,uint256)": {
        "details": "Constructor for initializing the LiquidStaking contract.",
        "params": {
          "epochInterval": "- varies from 3 hours to 3 days.",
          "pauserAddress": "- address of the pauser admin.",
          "sAddress": "- address of the SToken contract.",
          "uAddress": "- address of the UToken contract.",
          "unstakingLockTime": "- varies from 21 hours to 21 days.",
          "valueDivisor": "- valueDivisor set to 10^9."
        }
      },
      "pause()": {
        "details": "Triggers stopped state. Requirements: - The contract must not be paused."
      },
      "paused()": {
        "details": "Returns true if the contract is paused, and false otherwise."
      },
      "renounceRole(bytes32,address)": {
        "details": "Revokes `role` from the calling account. Roles are often managed via {grantRole} and {revokeRole}: this function's purpose is to provide a mechanism for accounts to lose their privileges if they are compromised (such as when a trusted device is misplaced). If the calling account had been granted `role`, emits a {RoleRevoked} event. Requirements: - the caller must be `account`."
      },
      "revokeRole(bytes32,address)": {
        "details": "Revokes `role` from `account`. If `account` had been granted `role`, emits a {RoleRevoked} event. Requirements: - the caller must have ``role``'s admin role."
      },
      "setBatchingLimit(uint256)": {
        "details": "Set 'fees', called from admin Emits a {SetFees} event with 'fee' set to the stake and unstake."
      },
      "setFees(uint256,uint256)": {
        "details": "Set 'fees', called from admin",
        "params": {
          "stakeFee": ": stake fee",
          "unstakeFee": ": unstake fee Emits a {SetFees} event with 'fee' set to the stake and unstake."
        }
      },
      "setMinimumValues(uint256,uint256)": {
        "details": "Set 'minimum values', called from admin",
        "params": {
          "minStake": ": stake minimum value",
          "minUnstake": ": unstake minimum value Emits a {SetMinimumValues} event with 'minimum value' set to the stake and unstake."
        }
      },
      "setSTokensContract(address)": {
        "details": "Set 'contract address', called from constructor",
        "params": {
          "sAddress": ": stoken contract address Emits a {SetSTokensContract} event with '_contract' set to the stoken contract address."
        }
      },
      "setUTokensContract(address)": {
        "details": "Set 'contract address', called from constructor",
        "params": {
          "uAddress": ": utoken contract address Emits a {SetUTokensContract} event with '_contract' set to the utoken contract address."
        }
      },
      "setUnstakeEpoch(uint256,uint256,uint256)": {
        "details": "Set 'unstake epoch', called from admin",
        "params": {
          "epochInterval": ": varies from 3 hours to 3 days Emits a {SetUnstakeEpoch} event with 'unstakeEpoch'",
          "unstakeEpoch": ": unstake epoch",
          "unstakeEpochPrevious": ": unstake epoch previous(initially set to same value as unstakeEpoch)"
        }
      },
      "setUnstakingLockTime(uint256)": {
        "details": "Set 'unstake props', called from admin",
        "params": {
          "unstakingLockTime": ": varies from 21 hours to 21 days Emits a {SetUnstakeProps} event with 'fee' set to the stake and unstake."
        }
      },
      "stake(address,uint256)": {
        "details": "Stake utokens over the platform with address 'to' for desired 'amount'(Burn uTokens and Mint sTokens)",
        "params": {
          "to": ": user address for staking, amount: number of tokens to stake Requirements: - `amount` cannot be less than zero. - 'amount' cannot be more than balance - 'amount' plus new balance should be equal to the old balance"
        }
      },
      "unStake(address,uint256)": {
        "details": "UnStake stokens over the platform with address 'to' for desired 'amount' (Burn sTokens and Mint uTokens with 21 days locking period)",
        "params": {
          "to": ": user address for staking, amount: number of tokens to unstake Requirements: - `amount` cannot be less than zero. - 'amount' cannot be more than balance - 'amount' plus new balance should be equal to the old balance"
        }
      },
      "unpause()": {
        "details": "Returns to normal state. Requirements: - The contract must be paused."
      },
      "withdrawUnstakedTokens(address)": {
        "details": "Lock the unstaked tokens for 21 days, user can withdraw the same (Mint uTokens with 21 days locking period)",
        "params": {
          "staker": ": user address for withdraw Requirements: - `current block timestamp` should be after 21 days from the period where unstaked function is called."
        }
      }
    },
    "version": 1
  },
  "userdoc": {
    "kind": "user",
    "methods": {},
    "version": 1
  }
}