{
  "contractName": "LiquidStaking",
  "abi": [
    {
      "anonymous": false,
      "inputs": [
        {
          "indexed": false,
          "internalType": "address",
          "name": "account",
          "type": "address"
        }
      ],
      "name": "Paused",
      "type": "event"
    },
    {
      "anonymous": false,
      "inputs": [
        {
          "indexed": true,
          "internalType": "bytes32",
          "name": "role",
          "type": "bytes32"
        },
        {
          "indexed": true,
          "internalType": "bytes32",
          "name": "previousAdminRole",
          "type": "bytes32"
        },
        {
          "indexed": true,
          "internalType": "bytes32",
          "name": "newAdminRole",
          "type": "bytes32"
        }
      ],
      "name": "RoleAdminChanged",
      "type": "event"
    },
    {
      "anonymous": false,
      "inputs": [
        {
          "indexed": true,
          "internalType": "bytes32",
          "name": "role",
          "type": "bytes32"
        },
        {
          "indexed": true,
          "internalType": "address",
          "name": "account",
          "type": "address"
        },
        {
          "indexed": true,
          "internalType": "address",
          "name": "sender",
          "type": "address"
        }
      ],
      "name": "RoleGranted",
      "type": "event"
    },
    {
      "anonymous": false,
      "inputs": [
        {
          "indexed": true,
          "internalType": "bytes32",
          "name": "role",
          "type": "bytes32"
        },
        {
          "indexed": true,
          "internalType": "address",
          "name": "account",
          "type": "address"
        },
        {
          "indexed": true,
          "internalType": "address",
          "name": "sender",
          "type": "address"
        }
      ],
      "name": "RoleRevoked",
      "type": "event"
    },
    {
      "anonymous": false,
      "inputs": [
        {
          "indexed": false,
          "internalType": "uint256",
          "name": "stakeFee",
          "type": "uint256"
        },
        {
          "indexed": false,
          "internalType": "uint256",
          "name": "unstakeFee",
          "type": "uint256"
        }
      ],
      "name": "SetFees",
      "type": "event"
    },
    {
      "anonymous": false,
      "inputs": [
        {
          "indexed": false,
          "internalType": "uint256",
          "name": "minStake",
          "type": "uint256"
        },
        {
          "indexed": false,
          "internalType": "uint256",
          "name": "minUnstake",
          "type": "uint256"
        }
      ],
      "name": "SetMinimumValues",
      "type": "event"
    },
    {
      "anonymous": false,
      "inputs": [
        {
          "indexed": true,
          "internalType": "address",
          "name": "_contract",
          "type": "address"
        }
      ],
      "name": "SetSTokensContract",
      "type": "event"
    },
    {
      "anonymous": false,
      "inputs": [
        {
          "indexed": true,
          "internalType": "address",
          "name": "_contract",
          "type": "address"
        }
      ],
      "name": "SetUTokensContract",
      "type": "event"
    },
    {
      "anonymous": false,
      "inputs": [
        {
          "indexed": false,
          "internalType": "uint256",
          "name": "unstakeEpoch",
          "type": "uint256"
        },
        {
          "indexed": false,
          "internalType": "uint256",
          "name": "unstakeEpochPrevious",
          "type": "uint256"
        },
        {
          "indexed": false,
          "internalType": "uint256",
          "name": "epochInterval",
          "type": "uint256"
        }
      ],
      "name": "SetUnstakeEpoch",
      "type": "event"
    },
    {
      "anonymous": false,
      "inputs": [
        {
          "indexed": false,
          "internalType": "uint256",
          "name": "unstakingLockTime",
          "type": "uint256"
        }
      ],
      "name": "SetUnstakingLockTime",
      "type": "event"
    },
    {
      "anonymous": false,
      "inputs": [
        {
          "indexed": true,
          "internalType": "address",
          "name": "accountAddress",
          "type": "address"
        },
        {
          "indexed": false,
          "internalType": "uint256",
          "name": "tokens",
          "type": "uint256"
        },
        {
          "indexed": false,
          "internalType": "uint256",
          "name": "finalTokens",
          "type": "uint256"
        },
        {
          "indexed": false,
          "internalType": "uint256",
          "name": "timestamp",
          "type": "uint256"
        }
      ],
      "name": "StakeTokens",
      "type": "event"
    },
    {
      "anonymous": false,
      "inputs": [
        {
          "indexed": false,
          "internalType": "address",
          "name": "account",
          "type": "address"
        }
      ],
      "name": "Unpaused",
      "type": "event"
    },
    {
      "anonymous": false,
      "inputs": [
        {
          "indexed": true,
          "internalType": "address",
          "name": "accountAddress",
          "type": "address"
        },
        {
          "indexed": false,
          "internalType": "uint256",
          "name": "tokens",
          "type": "uint256"
        },
        {
          "indexed": false,
          "internalType": "uint256",
          "name": "finalTokens",
          "type": "uint256"
        },
        {
          "indexed": false,
          "internalType": "uint256",
          "name": "timestamp",
          "type": "uint256"
        }
      ],
      "name": "UnstakeTokens",
      "type": "event"
    },
    {
      "anonymous": false,
      "inputs": [
        {
          "indexed": true,
          "internalType": "address",
          "name": "accountAddress",
          "type": "address"
        },
        {
          "indexed": false,
          "internalType": "uint256",
          "name": "tokens",
          "type": "uint256"
        },
        {
          "indexed": false,
          "internalType": "uint256",
          "name": "timestamp",
          "type": "uint256"
        }
      ],
      "name": "WithdrawUnstakeTokens",
      "type": "event"
    },
    {
      "inputs": [],
      "name": "DEFAULT_ADMIN_ROLE",
      "outputs": [
        {
          "internalType": "bytes32",
          "name": "",
          "type": "bytes32"
        }
      ],
      "stateMutability": "view",
      "type": "function"
    },
    {
      "inputs": [],
      "name": "PAUSER_ROLE",
      "outputs": [
        {
          "internalType": "bytes32",
          "name": "",
          "type": "bytes32"
        }
      ],
      "stateMutability": "view",
      "type": "function"
    },
    {
      "inputs": [
        {
          "internalType": "bytes32",
          "name": "role",
          "type": "bytes32"
        }
      ],
      "name": "getRoleAdmin",
      "outputs": [
        {
          "internalType": "bytes32",
          "name": "",
          "type": "bytes32"
        }
      ],
      "stateMutability": "view",
      "type": "function"
    },
    {
      "inputs": [
        {
          "internalType": "bytes32",
          "name": "role",
          "type": "bytes32"
        },
        {
          "internalType": "uint256",
          "name": "index",
          "type": "uint256"
        }
      ],
      "name": "getRoleMember",
      "outputs": [
        {
          "internalType": "address",
          "name": "",
          "type": "address"
        }
      ],
      "stateMutability": "view",
      "type": "function"
    },
    {
      "inputs": [
        {
          "internalType": "bytes32",
          "name": "role",
          "type": "bytes32"
        }
      ],
      "name": "getRoleMemberCount",
      "outputs": [
        {
          "internalType": "uint256",
          "name": "",
          "type": "uint256"
        }
      ],
      "stateMutability": "view",
      "type": "function"
    },
    {
      "inputs": [
        {
          "internalType": "bytes32",
          "name": "role",
          "type": "bytes32"
        },
        {
          "internalType": "address",
          "name": "account",
          "type": "address"
        }
      ],
      "name": "grantRole",
      "outputs": [],
      "stateMutability": "nonpayable",
      "type": "function"
    },
    {
      "inputs": [
        {
          "internalType": "bytes32",
          "name": "role",
          "type": "bytes32"
        },
        {
          "internalType": "address",
          "name": "account",
          "type": "address"
        }
      ],
      "name": "hasRole",
      "outputs": [
        {
          "internalType": "bool",
          "name": "",
          "type": "bool"
        }
      ],
      "stateMutability": "view",
      "type": "function"
    },
    {
      "inputs": [],
      "name": "paused",
      "outputs": [
        {
          "internalType": "bool",
          "name": "",
          "type": "bool"
        }
      ],
      "stateMutability": "view",
      "type": "function"
    },
    {
      "inputs": [
        {
          "internalType": "bytes32",
          "name": "role",
          "type": "bytes32"
        },
        {
          "internalType": "address",
          "name": "account",
          "type": "address"
        }
      ],
      "name": "renounceRole",
      "outputs": [],
      "stateMutability": "nonpayable",
      "type": "function"
    },
    {
      "inputs": [
        {
          "internalType": "bytes32",
          "name": "role",
          "type": "bytes32"
        },
        {
          "internalType": "address",
          "name": "account",
          "type": "address"
        }
      ],
      "name": "revokeRole",
      "outputs": [],
      "stateMutability": "nonpayable",
      "type": "function"
    },
    {
      "inputs": [
        {
          "internalType": "address",
          "name": "uAddress",
          "type": "address"
        },
        {
          "internalType": "address",
          "name": "sAddress",
          "type": "address"
        },
        {
          "internalType": "address",
          "name": "pauserAddress",
          "type": "address"
        },
        {
          "internalType": "uint256",
          "name": "unstakingLockTime",
          "type": "uint256"
        },
        {
          "internalType": "uint256",
          "name": "epochInterval",
          "type": "uint256"
        },
        {
          "internalType": "uint256",
          "name": "valueDivisor",
          "type": "uint256"
        }
      ],
      "name": "initialize",
      "outputs": [],
      "stateMutability": "nonpayable",
      "type": "function"
    },
    {
      "inputs": [
        {
          "internalType": "uint256",
          "name": "stakeFee",
          "type": "uint256"
        },
        {
          "internalType": "uint256",
          "name": "unstakeFee",
          "type": "uint256"
        }
      ],
      "name": "setFees",
      "outputs": [
        {
          "internalType": "bool",
          "name": "success",
          "type": "bool"
        }
      ],
      "stateMutability": "nonpayable",
      "type": "function"
    },
    {
      "inputs": [
        {
          "internalType": "uint256",
          "name": "unstakingLockTime",
          "type": "uint256"
        }
      ],
      "name": "setUnstakingLockTime",
      "outputs": [
        {
          "internalType": "bool",
          "name": "success",
          "type": "bool"
        }
      ],
      "stateMutability": "nonpayable",
      "type": "function"
    },
    {
      "inputs": [],
      "name": "getStakeUnstakeProps",
      "outputs": [
        {
          "internalType": "uint256",
          "name": "stakeFee",
          "type": "uint256"
        },
        {
          "internalType": "uint256",
          "name": "unstakeFee",
          "type": "uint256"
        },
        {
          "internalType": "uint256",
          "name": "minStake",
          "type": "uint256"
        },
        {
          "internalType": "uint256",
          "name": "minUnstake",
          "type": "uint256"
        },
        {
          "internalType": "uint256",
          "name": "valueDivisor",
          "type": "uint256"
        },
        {
          "internalType": "uint256",
          "name": "epochInterval",
          "type": "uint256"
        },
        {
          "internalType": "uint256",
          "name": "unstakeEpoch",
          "type": "uint256"
        },
        {
          "internalType": "uint256",
          "name": "unstakeEpochPrevious",
          "type": "uint256"
        },
        {
          "internalType": "uint256",
          "name": "unstakingLockTime",
          "type": "uint256"
        }
      ],
      "stateMutability": "view",
      "type": "function"
    },
    {
      "inputs": [
        {
          "internalType": "uint256",
          "name": "minStake",
          "type": "uint256"
        },
        {
          "internalType": "uint256",
          "name": "minUnstake",
          "type": "uint256"
        }
      ],
      "name": "setMinimumValues",
      "outputs": [
        {
          "internalType": "bool",
          "name": "success",
          "type": "bool"
        }
      ],
      "stateMutability": "nonpayable",
      "type": "function"
    },
    {
      "inputs": [
        {
          "internalType": "uint256",
          "name": "unstakeEpoch",
          "type": "uint256"
        },
        {
          "internalType": "uint256",
          "name": "unstakeEpochPrevious",
          "type": "uint256"
        },
        {
          "internalType": "uint256",
          "name": "epochInterval",
          "type": "uint256"
        }
      ],
      "name": "setUnstakeEpoch",
      "outputs": [
        {
          "internalType": "bool",
          "name": "success",
          "type": "bool"
        }
      ],
      "stateMutability": "nonpayable",
      "type": "function"
    },
    {
      "inputs": [
        {
          "internalType": "address",
          "name": "uAddress",
          "type": "address"
        }
      ],
      "name": "setUTokensContract",
      "outputs": [],
      "stateMutability": "nonpayable",
      "type": "function"
    },
    {
      "inputs": [
        {
          "internalType": "address",
          "name": "sAddress",
          "type": "address"
        }
      ],
      "name": "setSTokensContract",
      "outputs": [],
      "stateMutability": "nonpayable",
      "type": "function"
    },
    {
      "inputs": [
        {
          "internalType": "address",
          "name": "to",
          "type": "address"
        },
        {
          "internalType": "uint256",
          "name": "amount",
          "type": "uint256"
        }
      ],
      "name": "stake",
      "outputs": [
        {
          "internalType": "bool",
          "name": "",
          "type": "bool"
        }
      ],
      "stateMutability": "nonpayable",
      "type": "function"
    },
    {
      "inputs": [
        {
          "internalType": "address",
          "name": "to",
          "type": "address"
        },
        {
          "internalType": "uint256",
          "name": "amount",
          "type": "uint256"
        }
      ],
      "name": "unStake",
      "outputs": [
        {
          "internalType": "bool",
          "name": "",
          "type": "bool"
        }
      ],
      "stateMutability": "nonpayable",
      "type": "function"
    },
    {
      "inputs": [
        {
          "internalType": "uint256",
          "name": "_unstakeTimestamp",
          "type": "uint256"
        }
      ],
      "name": "getUnstakeEpochMilestone",
      "outputs": [
        {
          "internalType": "uint256",
          "name": "unstakeEpochMilestone",
          "type": "uint256"
        }
      ],
      "stateMutability": "view",
      "type": "function"
    },
    {
      "inputs": [
        {
          "internalType": "uint256",
          "name": "_unstakeTimestamp",
          "type": "uint256"
        }
      ],
      "name": "getUnstakeTime",
      "outputs": [
        {
          "internalType": "uint256",
          "name": "unstakeTime",
          "type": "uint256"
        },
        {
          "internalType": "uint256",
          "name": "unstakeEpoch",
          "type": "uint256"
        },
        {
          "internalType": "uint256",
          "name": "unstakeEpochPrevious",
          "type": "uint256"
        }
      ],
      "stateMutability": "view",
      "type": "function"
    },
    {
      "inputs": [
        {
          "internalType": "address",
          "name": "staker",
          "type": "address"
        }
      ],
      "name": "withdrawUnstakedTokens",
      "outputs": [],
      "stateMutability": "nonpayable",
      "type": "function"
    },
    {
      "inputs": [
        {
          "internalType": "address",
          "name": "staker",
          "type": "address"
        }
      ],
      "name": "getTotalUnbondedTokens",
      "outputs": [
        {
          "internalType": "uint256",
          "name": "unbondingTokens",
          "type": "uint256"
        }
      ],
      "stateMutability": "view",
      "type": "function"
    },
    {
      "inputs": [
        {
          "internalType": "address",
          "name": "staker",
          "type": "address"
        }
      ],
      "name": "getTotalUnbondingTokens",
      "outputs": [
        {
          "internalType": "uint256",
          "name": "unbondingTokens",
          "type": "uint256"
        }
      ],
      "stateMutability": "view",
      "type": "function"
    },
    {
      "inputs": [],
      "name": "pause",
      "outputs": [
        {
          "internalType": "bool",
          "name": "success",
          "type": "bool"
        }
      ],
      "stateMutability": "nonpayable",
      "type": "function"
    },
    {
      "inputs": [],
      "name": "unpause",
      "outputs": [
        {
          "internalType": "bool",
          "name": "success",
          "type": "bool"
        }
      ],
      "stateMutability": "nonpayable",
      "type": "function"
    }
  ],
  "bytecode": "0x608060405234801561001057600080fd5b506124c3806100206000396000f3fe608060405234801561001057600080fd5b50600436106101a95760003560e01c8063819020a0116100f9578063a217fddf11610097578063ca15c87311610071578063ca15c8731461053b578063d547741f14610558578063d939381414610584578063e63ab1e9146105b0576101a9565b8063a217fddf146104e1578063adc9772e146104e9578063b17e316514610515576101a9565b80639010d07c116100d35780639010d07c1461043057806391d148541461046f5780639b9eea461461049b5780639dc77cab146104b8576101a9565b8063819020a0146103c75780638456cb59146103ed57806385e32840146103f5576101a9565b80632f2ff15d1161016657806351db00e71161014057806351db00e71461030557806355f2323f146103285780635c975abb14610377578063728cdbca1461037f576101a9565b80632f2ff15d146102a557806336568abe146102d15780633f4ba83a146102fd576101a9565b80630273b70d146101ae5780630b78f9c0146101e65780630e4b29431461021d57806321bdf9e51461023a578063248a9ca3146102625780632e31fab81461027f575b600080fd5b6101d4600480360360208110156101c457600080fd5b50356001600160a01b03166105b8565b60408051918252519081900360200190f35b610209600480360360408110156101fc57600080fd5b508035906020013561068c565b604080519115158252519081900360200190f35b6102096004803603602081101561023357600080fd5b5035610797565b6102606004803603602081101561025057600080fd5b50356001600160a01b031661081c565b005b6101d46004803603602081101561027857600080fd5b50356108ad565b6102606004803603602081101561029557600080fd5b50356001600160a01b03166108c2565b610260600480360360408110156102bb57600080fd5b50803590602001356001600160a01b0316610953565b610260600480360360408110156102e757600080fd5b50803590602001356001600160a01b03166109ba565b610209610a1b565b6102096004803603604081101561031b57600080fd5b5080359060200135610a7f565b610330610b8a565b60408051998a5260208a0198909852888801969096526060880194909452608087019290925260a086015260c085015260e084015261010083015251908190036101200190f35b610209610bad565b610260600480360360c081101561039557600080fd5b506001600160a01b03813581169160208101358216916040820135169060608101359060808101359060a00135610bb6565b610260600480360360208110156103dd57600080fd5b50356001600160a01b0316610cd1565b610209610fc2565b6104126004803603602081101561040b57600080fd5b5035611020565b60408051938452602084019290925282820152519081900360600190f35b6104536004803603604081101561044657600080fd5b508035906020013561106a565b604080516001600160a01b039092168252519081900360200190f35b6102096004803603604081101561048557600080fd5b50803590602001356001600160a01b0316611089565b6101d4600480360360208110156104b157600080fd5b50356110a1565b610209600480360360608110156104ce57600080fd5b508035906020810135906040013561114f565b6101d461126d565b610209600480360360408110156104ff57600080fd5b506001600160a01b038135169060200135611272565b6101d46004803603602081101561052b57600080fd5b50356001600160a01b03166115a1565b6101d46004803603602081101561055157600080fd5b5035611643565b6102606004803603604081101561056e57600080fd5b50803590602001356001600160a01b031661165a565b6102096004803603604081101561059a57600080fd5b506001600160a01b0381351690602001356116b3565b6101d4611998565b6001600160a01b038116600090815260a2602090815260408083205460a4909252822054805b82811015610683576001600160a01b038516600090815260a260205260408120805461061f91908490811061060f57fe5b9060005260206000200154611020565b50509050804210610670576001600160a01b038616600090815260a360205260409020805461066d91908490811061065357fe5b9060005260206000200154866119aa90919063ffffffff16565b94505b5061067c8160016119aa565b90506105de565b5050505b919050565b600061069f8161069a611a04565b611089565b6106d6576040805162461bcd60e51b81526020600482015260036024820152624c513160e81b604482015290519081900360640190fd5b609d546106e4906064611a08565b831115806106f0575082155b80156107115750609d54610705906064611a08565b82111580610711575081155b610748576040805162461bcd60e51b815260206004820152600360248201526226289960e91b604482015290519081900360640190fd5b609b839055609c829055604080518481526020810184905281517f3be6e637f54f081a2dd12982cfd58481304fc98b604b18fa8ed4aa4e4a9d1532929181900390910190a15060015b92915050565b60006107a58161069a611a04565b6107dc576040805162461bcd60e51b81526020600482015260036024820152624c513360e81b604482015290519081900360640190fd5b609e8290556040805183815290517ffced4450741ad45114dbc966176eb1d16dc4f2259bc864aa395736a7e8355bbb9181900360200190a1506001919050565b610829600061069a611a04565b610863576040805162461bcd60e51b8152602060048083019190915260248201526304c5131360e41b604482015290519081900360640190fd5b609780546001600160a01b0319166001600160a01b0383169081179091556040517ff745c285f36f88bea6af14d4d0f33dd9350cef7895216c1615b1caaee7857e0c90600090a250565b60009081526065602052604090206002015490565b6108cf600061069a611a04565b610909576040805162461bcd60e51b815260206004808301919091526024820152634c51313160e01b604482015290519081900360640190fd5b609880546001600160a01b0319166001600160a01b0383169081179091556040517fd0b9dbe26f676f4cdb02fc249c203baa0314cec79e18b4194dc862795a5de03f90600090a250565b6000828152606560205260409020600201546109719061069a611a04565b6109ac5760405162461bcd60e51b815260040180806020018281038252602f815260200180612391602f913960400191505060405180910390fd5b6109b68282611a61565b5050565b6109c2611a04565b6001600160a01b0316816001600160a01b031614610a115760405162461bcd60e51b815260040180806020018281038252602f81526020018061245f602f913960400191505060405180910390fd5b6109b68282611aca565b6000610a3760008051602061243f83398151915261069a611a04565b610a71576040805162461bcd60e51b815260206004808301919091526024820152634c51323360e01b604482015290519081900360640190fd5b610a79611b33565b50600190565b6000610a8d8161069a611a04565b610ac4576040805162461bcd60e51b815260206004820152600360248201526213144d60ea1b604482015290519081900360640190fd5b6001831015610b00576040805162461bcd60e51b81526020600482015260036024820152624c513560e81b604482015290519081900360640190fd5b6001821015610b3c576040805162461bcd60e51b815260206004820152600360248201526226289b60e91b604482015290519081900360640190fd5b6099839055609a829055604080518481526020810184905281517fa94d40347449ea19b873d64ed55c99772194c49791e82be5c2dc24e4c0044fe3929181900390910190a150600192915050565b609b54609c54609954609d54609f5460a05460a154609e54969795969495869590565b60335460ff1690565b600054610100900460ff1680610bcf5750610bcf611bd3565b80610bdd575060005460ff16155b610c185760405162461bcd60e51b815260040180806020018281038252602e8152602001806123f0602e913960400191505060405180910390fd5b600054610100900460ff16158015610c43576000805460ff1961ff0019909116610100171660011790555b610c4b611be4565b610c53611c96565b610c656000610c60611a04565b6109ac565b610c7d60008051602061243f833981519152866109ac565b610c868761081c565b610c8f866108c2565b610c9884610797565b50610ca4600180610a7f565b50609d829055610cb542808561114f565b508015610cc8576000805461ff00191690555b50505050505050565b610cd9610bad565b15610d1e576040805162461bcd60e51b815260206004820152601060248201526f14185d5cd8589b194e881c185d5cd95960821b604482015290519081900360640190fd5b610d26611a04565b6001600160a01b0316816001600160a01b031614610d74576040805162461bcd60e51b8152602060048083019190915260248201526304c5132360e41b604482015290519081900360640190fd5b6001600160a01b038116600090815260a2602090815260408083205460a4909252822054805b82811015610eb9576001600160a01b038516600090815260a2602052604081208054610dcb91908490811061060f57fe5b50509050804210610ea6576001600160a01b038616600090815260a3602052604090208054610dff91908490811061065357fe5b6001600160a01b038716600090815260a2602052604081208054929750909184908110610e2857fe5b60009182526020808320909101929092556001600160a01b038816815260a390915260408120805484908110610e5a57fe5b60009182526020808320909101929092556001600160a01b038816815260a49091526040902054610e8c9060016119aa565b6001600160a01b038716600090815260a460205260409020555b50610eb28160016119aa565b9050610d9a565b5060008311610ef8576040805162461bcd60e51b815260206004808301919091526024820152634c51323160e01b604482015290519081900360640190fd5b6040805184815242602082015281516001600160a01b038716927f31453b59c0eb931edc765cc2400876a524254457b5534d660c9da1d74ab4666b928290030190a2609754604080516340c10f1960e01b81526001600160a01b03878116600483015260248201879052915191909216916340c10f199160448083019260209291908290030181600087803b158015610f9057600080fd5b505af1158015610fa4573d6000803e3d6000fd5b505050506040513d6020811015610fba57600080fd5b505050505050565b6000610fde60008051602061243f83398151915261069a611a04565b611018576040805162461bcd60e51b815260206004808301919091526024820152632628991960e11b604482015290519081900360640190fd5b610a79611d33565b60008060008061102f856110a1565b905080611040576000935050611063565b60a054925060a154915061105f609e54826119aa90919063ffffffff16565b9350505b9193909250565b60008281526065602052604081206110829083611db6565b9392505050565b60008281526065602052604081206110829083611dc2565b6000816110b057506000610687565b60a0541580156110c0575060a154155b806110cb5750609f54155b156110d7575080610687565b8160a05411156110ea575060a054610687565b600061110d61110660a15460a054611dd790919063ffffffff16565b84906119aa565b9050600061112660a05483611dd790919063ffffffff16565b905061114782611141609f5484611e3490919063ffffffff16565b906119aa565b949350505050565b600061115d8161069a611a04565b611194576040805162461bcd60e51b81526020600482015260036024820152624c513760e81b604482015290519081900360640190fd5b838311156111cf576040805162461bcd60e51b8152602060048201526003602482015262098a2760eb1b604482015290519081900360640190fd5b831580156111dc57508115155b15611214576040805162461bcd60e51b81526020600482015260036024820152624c513960e81b604482015290519081900360640190fd5b60a084905560a1839055609f829055604080518581526020810185905280820184905290517f342db083975cc0697d0f81d0876299ecbf95d909e920426089062e540904497c9181900360600190a15060019392505050565b600081565b600061127c610bad565b156112c1576040805162461bcd60e51b815260206004820152601060248201526f14185d5cd8589b194e881c185d5cd95960821b604482015290519081900360640190fd5b6112c9611a04565b6001600160a01b0316836001600160a01b031614611317576040805162461bcd60e51b815260206004808301919091526024820152632628989960e11b604482015290519081900360640190fd5b609754604080516370a0823160e01b81526001600160a01b038681166004830152915160009392909216916370a0823191602480820192602092909190829003018186803b15801561136857600080fd5b505afa15801561137c573d6000803e3d6000fd5b505050506040513d602081101561139257600080fd5b5051609b54609d549192506000916113b8916064916113b2918891611e9b565b90611f54565b905060006113c685836119aa565b9050609954851015611408576040805162461bcd60e51b815260206004808301919091526024820152634c51313360e01b604482015290519081900360640190fd5b80831015611446576040805162461bcd60e51b8152602060048083019190915260248201526313144c4d60e21b604482015290519081900360640190fd5b6040805186815260208101839052428183015290516001600160a01b038816917f5fe79871cd2431c06447cbcf2557091da5d2ed5bc640f1028f42665913786e42919081900360600190a260975460408051632770a7eb60e21b81526001600160a01b0389811660048301526024820185905291519190921691639dc29fac9160448083019260209291908290030181600087803b1580156114e757600080fd5b505af11580156114fb573d6000803e3d6000fd5b505050506040513d602081101561151157600080fd5b5050609854604080516340c10f1960e01b81526001600160a01b03898116600483015260248201899052915191909216916340c10f199160448083019260209291908290030181600087803b15801561156957600080fd5b505af115801561157d573d6000803e3d6000fd5b505050506040513d602081101561159357600080fd5b506001979650505050505050565b6001600160a01b038116600090815260a2602090815260408083205460a4909252822054805b82811015610683576001600160a01b038516600090815260a26020526040812080546115f891908490811061060f57fe5b5050905080421015611630576001600160a01b038616600090815260a360205260409020805461162d91908490811061065357fe5b94505b5061163c8160016119aa565b90506115c7565b600081815260656020526040812061079190611fbb565b6000828152606560205260409020600201546116789061069a611a04565b610a115760405162461bcd60e51b81526004018080602001828103825260308152602001806123c06030913960400191505060405180910390fd5b60006116bd610bad565b15611702576040805162461bcd60e51b815260206004820152601060248201526f14185d5cd8589b194e881c185d5cd95960821b604482015290519081900360640190fd5b61170a611a04565b6001600160a01b0316836001600160a01b031614611758576040805162461bcd60e51b815260206004808301919091526024820152634c51313560e01b604482015290519081900360640190fd5b609854604080516370a0823160e01b81526001600160a01b038681166004830152915160009392909216916370a0823191602480820192602092909190829003018186803b1580156117a957600080fd5b505afa1580156117bd573d6000803e3d6000fd5b505050506040513d60208110156117d357600080fd5b5051609c54609d549192506000916117f3916064916113b2918891611e9b565b9050600061180185836119aa565b9050609a54851015611843576040805162461bcd60e51b81526020600480830191909152602482015263098a262760e31b604482015290519081900360640190fd5b80831015611881576040805162461bcd60e51b815260206004808301919091526024820152634c51313960e01b604482015290519081900360640190fd5b60985460408051632770a7eb60e21b81526001600160a01b0389811660048301526024820185905291519190921691639dc29fac9160448083019260209291908290030181600087803b1580156118d757600080fd5b505af11580156118eb573d6000803e3d6000fd5b505050506040513d602081101561190157600080fd5b50506001600160a01b038616600081815260a26020908152604080832080546001818101835591855283852042910181905585855260a38452828520805492830181558552938390200189905580518981529182018590528181019290925290517f98850af53deeaf736beb3ea22091c900e8e5cfdf8153342daa366dc1d83a39fd9181900360600190a250600195945050505050565b60008051602061243f83398151915281565b600082820183811015611082576040805162461bcd60e51b815260206004820152601b60248201527f536166654d6174683a206164646974696f6e206f766572666c6f770000000000604482015290519081900360640190fd5b3390565b600082611a1757506000610791565b82820282848281611a2457fe5b04146110825760405162461bcd60e51b815260040180806020018281038252602181526020018061241e6021913960400191505060405180910390fd5b6000828152606560205260409020611a799082611fc6565b156109b657611a86611a04565b6001600160a01b0316816001600160a01b0316837f2f8788117e7eff1d82e926ec794901d17c78024a50270940304540a733656f0d60405160405180910390a45050565b6000828152606560205260409020611ae29082611fdb565b156109b657611aef611a04565b6001600160a01b0316816001600160a01b0316837ff6391f5c32d9c69d2a47ea670b442974b53935d1edc7fd64eb21e047a839171b60405160405180910390a45050565b611b3b610bad565b611b83576040805162461bcd60e51b815260206004820152601460248201527314185d5cd8589b194e881b9bdd081c185d5cd95960621b604482015290519081900360640190fd5b6033805460ff191690557f5db9ee0a495bf2e6ff9c91a7834c1ba4fdd244a5e8aa4e537bd38aeae4b073aa611bb6611a04565b604080516001600160a01b039092168252519081900360200190a1565b6000611bde30611ff0565b15905090565b600054610100900460ff1680611bfd5750611bfd611bd3565b80611c0b575060005460ff16155b611c465760405162461bcd60e51b815260040180806020018281038252602e8152602001806123f0602e913960400191505060405180910390fd5b600054610100900460ff16158015611c71576000805460ff1961ff0019909116610100171660011790555b611c79611ff6565b611c81611ff6565b8015611c93576000805461ff00191690555b50565b600054610100900460ff1680611caf5750611caf611bd3565b80611cbd575060005460ff16155b611cf85760405162461bcd60e51b815260040180806020018281038252602e8152602001806123f0602e913960400191505060405180910390fd5b600054610100900460ff16158015611d23576000805460ff1961ff0019909116610100171660011790555b611d2b611ff6565b611c81612096565b611d3b610bad565b15611d80576040805162461bcd60e51b815260206004820152601060248201526f14185d5cd8589b194e881c185d5cd95960821b604482015290519081900360640190fd5b6033805460ff191660011790557f62e78cea01bee320cd4e420270b5ea74000d11b0c9f74754ebdbfc544b05a258611bb6611a04565b60006110828383612141565b6000611082836001600160a01b0384166121a5565b600082821115611e2e576040805162461bcd60e51b815260206004820152601e60248201527f536166654d6174683a207375627472616374696f6e206f766572666c6f770000604482015290519081900360640190fd5b50900390565b6000808211611e8a576040805162461bcd60e51b815260206004820152601860248201527f536166654d6174683a206d6f64756c6f206279207a65726f0000000000000000604482015290519081900360640190fd5b818381611e9357fe5b069392505050565b6000806000611eaa86866121bd565b9150915060008480611eb857fe5b868809905082811115611ecc576001820391505b918290039181611eea57848381611edf57fe5b049350505050611082565b848210611f3e576040805162461bcd60e51b815260206004820152601a60248201527f46756c6c4d6174683a2046554c4c4449565f4f564552464c4f57000000000000604482015290519081900360640190fd5b611f498383876121ea565b979650505050505050565b6000808211611faa576040805162461bcd60e51b815260206004820152601a60248201527f536166654d6174683a206469766973696f6e206279207a65726f000000000000604482015290519081900360640190fd5b818381611fb357fe5b049392505050565b60006107918261225a565b6000611082836001600160a01b03841661225e565b6000611082836001600160a01b0384166122a8565b3b151590565b600054610100900460ff168061200f575061200f611bd3565b8061201d575060005460ff16155b6120585760405162461bcd60e51b815260040180806020018281038252602e8152602001806123f0602e913960400191505060405180910390fd5b600054610100900460ff16158015611c81576000805460ff1961ff0019909116610100171660011790558015611c93576000805461ff001916905550565b600054610100900460ff16806120af57506120af611bd3565b806120bd575060005460ff16155b6120f85760405162461bcd60e51b815260040180806020018281038252602e8152602001806123f0602e913960400191505060405180910390fd5b600054610100900460ff16158015612123576000805460ff1961ff0019909116610100171660011790555b6033805460ff191690558015611c93576000805461ff001916905550565b815460009082106121835760405162461bcd60e51b815260040180806020018281038252602281526020018061236f6022913960400191505060405180910390fd5b82600001828154811061219257fe5b9060005260206000200154905092915050565b60009081526001919091016020526040902054151590565b60008080600019848609905083850292508281039150828110156121e2576001820391505b509250929050565b600081810382168083816121fa57fe5b04925080858161220657fe5b04945080816000038161221557fe5b60028581038087028203028087028203028087028203028087028203028087028203028087028203029586029003909402930460010193909302939093010292915050565b5490565b600061226a83836121a5565b6122a057508154600181810184556000848152602080822090930184905584548482528286019093526040902091909155610791565b506000610791565b6000818152600183016020526040812054801561236457835460001980830191908101906000908790839081106122db57fe5b90600052602060002001549050808760000184815481106122f857fe5b60009182526020808320909101929092558281526001898101909252604090209084019055865487908061232857fe5b60019003818190600052602060002001600090559055866001016000878152602001908152602001600020600090556001945050505050610791565b600091505061079156fe456e756d657261626c655365743a20696e646578206f7574206f6620626f756e6473416363657373436f6e74726f6c3a2073656e646572206d75737420626520616e2061646d696e20746f206772616e74416363657373436f6e74726f6c3a2073656e646572206d75737420626520616e2061646d696e20746f207265766f6b65496e697469616c697a61626c653a20636f6e747261637420697320616c726561647920696e697469616c697a6564536166654d6174683a206d756c7469706c69636174696f6e206f766572666c6f7765d7a28e3265b37a6474929f336521b332c1681b933f6cb9f3376673440d862a416363657373436f6e74726f6c3a2063616e206f6e6c792072656e6f756e636520726f6c657320666f722073656c66a26469706673582212208ed844eddd5c71184ae067e04c9af63de243783eafd1674e114e3e597c2565cc64736f6c63430007060033",
  "immutableReferences": {},
  "source": "/*\n Copyright [2019] - [2021], PERSISTENCE TECHNOLOGIES PTE. LTD. and the pStake-smartContracts contributors\n SPDX-License-Identifier: Apache-2.0\n*/\n\npragma solidity >= 0.7.0;\n\nimport \"@openzeppelin/contracts-upgradeable/math/SafeMathUpgradeable.sol\";\nimport \"@openzeppelin/contracts-upgradeable/access/AccessControlUpgradeable.sol\";\nimport \"@openzeppelin/contracts-upgradeable/utils/PausableUpgradeable.sol\";\nimport \"./interfaces/ISTokens.sol\";\nimport \"./interfaces/IUTokens.sol\";\nimport \"./interfaces/ILiquidStaking.sol\";\nimport \"./libraries/FullMath.sol\";\n\ncontract LiquidStaking is ILiquidStaking, PausableUpgradeable, AccessControlUpgradeable {\n\n\tusing SafeMathUpgradeable for uint256;\n\tusing FullMath for uint256;\n\n\t//Private instances of contracts to handle Utokens and Stokens\n\tIUTokens private _uTokens;\n\tISTokens private _sTokens;\n\n\t// defining the fees and minimum values\n\tuint256 private _minStake;\n\tuint256 private _minUnstake;\n\tuint256 private _stakeFee;\n\tuint256 private _unstakeFee;\n\tuint256 private _valueDivisor;\n\n\t// constants defining access control ROLES\n\tbytes32 public constant PAUSER_ROLE = keccak256(\"PAUSER_ROLE\");\n\n\t// variables pertaining to unbonding logic\n\tuint256 private _unstakingLockTime;\n\tuint256 private _epochInterval;\n\tuint256 private _unstakeEpoch;\n\tuint256 private _unstakeEpochPrevious;\n\n\t//Mapping to handle the Expiry period\n\tmapping(address => uint256[]) private _unstakingExpiration;\n\n\t//Mapping to handle the Expiry amount\n\tmapping(address => uint256[]) private _unstakingAmount;\n\n\t//mappint to handle a counter variable indicating from what index to start the loop.\n\tmapping(address => uint256) internal _withdrawCounters;\n\n\t/**\n   * @dev Constructor for initializing the LiquidStaking contract.\n   * @param uAddress - address of the UToken contract.\n   * @param sAddress - address of the SToken contract.\n   * @param pauserAddress - address of the pauser admin.\n   * @param unstakingLockTime - varies from 21 hours to 21 days.\n   * @param epochInterval - varies from 3 hours to 3 days.\n   * @param valueDivisor - valueDivisor set to 10^9.\n   */\n\tfunction initialize(address uAddress, address sAddress, address pauserAddress, uint256 unstakingLockTime, uint256 epochInterval, uint256 valueDivisor) public virtual initializer  {\n\t\t__AccessControl_init();\n\t\t__Pausable_init();\n\t\t_setupRole(DEFAULT_ADMIN_ROLE, _msgSender());\n\t\t_setupRole(PAUSER_ROLE, pauserAddress);\n\t\tsetUTokensContract(uAddress);\n\t\tsetSTokensContract(sAddress);\n\t\tsetUnstakingLockTime(unstakingLockTime);\n\t\tsetMinimumValues(1, 1);\n\t\t_valueDivisor = valueDivisor;\n\t\tsetUnstakeEpoch(block.timestamp, block.timestamp, epochInterval);\n\t}\n\n\t/**\n     * @dev Set 'fees', called from admin\n     * @param stakeFee: stake fee\n     * @param unstakeFee: unstake fee\n     *\n     * Emits a {SetFees} event with 'fee' set to the stake and unstake.\n     *\n     */\n\tfunction setFees(uint256 stakeFee, uint256 unstakeFee) public virtual returns (bool success) {\n\t\trequire(hasRole(DEFAULT_ADMIN_ROLE, _msgSender()), \"LQ1\");\n\t\t// range checks for fees. Since fee cannot be more than 100%, the max cap\n\t\t// is _valueDivisor * 100, which then brings the fees to 100 (percentage)\n\t\trequire((stakeFee <= _valueDivisor.mul(100) || stakeFee == 0) && (unstakeFee <= _valueDivisor.mul(100) || unstakeFee == 0), \"LQ2\");\n\t\t_stakeFee = stakeFee;\n\t\t_unstakeFee = unstakeFee;\n\t\temit SetFees(stakeFee, unstakeFee);\n\t\treturn true;\n\t}\n\n\t/**\n     * @dev Set 'unstake props', called from admin\n     * @param unstakingLockTime: varies from 21 hours to 21 days\n     *\n     * Emits a {SetUnstakeProps} event with 'fee' set to the stake and unstake.\n     *\n     */\n\tfunction setUnstakingLockTime(uint256 unstakingLockTime) public virtual returns (bool success) {\n\t\trequire(hasRole(DEFAULT_ADMIN_ROLE, _msgSender()), \"LQ3\");\n\t\t_unstakingLockTime = unstakingLockTime;\n\t\temit SetUnstakingLockTime(unstakingLockTime);\n\t\treturn true;\n\t}\n\n\t/**\n     * @dev get fees, min values, value divisor and epoch props\n     *\n     */\n\tfunction getStakeUnstakeProps() public view virtual returns (\n\t\tuint256 stakeFee, uint256 unstakeFee, uint256 minStake, uint256 minUnstake, uint256 valueDivisor,\n\t\tuint256 epochInterval, uint256 unstakeEpoch, uint256 unstakeEpochPrevious, uint256 unstakingLockTime\n\t) {\n\t\tstakeFee = _stakeFee;\n\t\tunstakeFee = _unstakeFee;\n\t\tminStake = _minStake;\n\t\tminUnstake = _minStake;\n\t\tvalueDivisor = _valueDivisor;\n\t\tepochInterval= _epochInterval;\n\t\tunstakeEpoch = _unstakeEpoch;\n\t\tunstakeEpochPrevious = _unstakeEpochPrevious;\n\t\tunstakingLockTime = _unstakingLockTime;\n\t}\n\n\t/**\n     * @dev Set 'minimum values', called from admin\n     * @param minStake: stake minimum value\n     * @param minUnstake: unstake minimum value\n     *\n     * Emits a {SetMinimumValues} event with 'minimum value' set to the stake and unstake.\n     *\n     */\n\tfunction setMinimumValues(uint256 minStake, uint256 minUnstake) public virtual returns (bool success){\n\t\trequire(hasRole(DEFAULT_ADMIN_ROLE, _msgSender()), \"LQ4\");\n\t\trequire(minStake >= 1, \"LQ5\");\n\t\trequire(minUnstake >= 1, \"LQ6\");\n\t\t_minStake = minStake;\n\t\t_minUnstake = minUnstake;\n\t\temit SetMinimumValues(minStake, minUnstake);\n\t\treturn true;\n\t}\n\n\t/**\n    * @dev Set 'unstake epoch', called from admin\n    * @param unstakeEpoch: unstake epoch\n    * @param unstakeEpochPrevious: unstake epoch previous(initially set to same value as unstakeEpoch)\n    * @param epochInterval: varies from 3 hours to 3 days\n    *\n    * Emits a {SetUnstakeEpoch} event with 'unstakeEpoch'\n    *\n    */\n\tfunction setUnstakeEpoch(uint256 unstakeEpoch, uint256 unstakeEpochPrevious, uint256 epochInterval) public virtual returns (bool success){\n\t\trequire(hasRole(DEFAULT_ADMIN_ROLE, _msgSender()), \"LQ7\");\n\t\trequire(unstakeEpochPrevious <= unstakeEpoch, \"LQ8\");\n\t\tif(unstakeEpoch == 0 && epochInterval != 0) revert(\"LQ9\");\n\t\t_unstakeEpoch = unstakeEpoch;\n\t\t_unstakeEpochPrevious = unstakeEpochPrevious;\n\t\t_epochInterval = epochInterval;\n\t\temit SetUnstakeEpoch(unstakeEpoch, unstakeEpochPrevious, epochInterval);\n\t\treturn true;\n\t}\n\n\t/**\n     * @dev Set 'contract address', called from constructor\n     * @param uAddress: utoken contract address\n     *\n     * Emits a {SetUTokensContract} event with '_contract' set to the utoken contract address.\n     *\n     */\n\tfunction setUTokensContract(address uAddress) public virtual override {\n\t\trequire(hasRole(DEFAULT_ADMIN_ROLE, _msgSender()), \"LQ10\");\n\t\t_uTokens = IUTokens(uAddress);\n\t\temit SetUTokensContract(uAddress);\n\t}\n\n\t/**\n     * @dev Set 'contract address', called from constructor\n     * @param sAddress: stoken contract address\n     *\n     * Emits a {SetSTokensContract} event with '_contract' set to the stoken contract address.\n     *\n     */\n\tfunction setSTokensContract(address sAddress) public virtual override {\n\t\trequire(hasRole(DEFAULT_ADMIN_ROLE, _msgSender()), \"LQ11\");\n\t\t_sTokens = ISTokens(sAddress);\n\t\temit SetSTokensContract(sAddress);\n\t}\n\n\t/**\n    * @dev Stake utokens over the platform with address 'to' for desired 'amount'(Burn uTokens and Mint sTokens)\n    * @param to: user address for staking, amount: number of tokens to stake\n    *\n    *\n    * Requirements:\n    *\n    * - `amount` cannot be less than zero.\n    * - 'amount' cannot be more than balance\n    * - 'amount' plus new balance should be equal to the old balance\n    */\n\tfunction stake(address to, uint256 amount) public virtual override whenNotPaused returns(bool)  {\n\t\t// Check the supplied amount is greater than minimum stake value\n\t\trequire(to == _msgSender(), \"LQ12\");\n\t\t// Check the current balance for uTokens is greater than the amount to be staked\n\t\tuint256 _currentUTokenBalance = _uTokens.balanceOf(to);\n\t\tuint256 _stakeFeeAmount = (amount.mulDiv(_stakeFee, _valueDivisor)).div(100);\n\t\tuint256 _finalTokens = amount.add(_stakeFeeAmount);\n\t\t// the value which should be greater than or equal to _minStake\n\t\t// is amount since minval applies to number of sTokens to be minted\n\t\trequire(amount >= _minStake, \"LQ13\");\n\t\trequire(_currentUTokenBalance >= _finalTokens, \"LQ14\");\n\t\temit StakeTokens(to, amount, _finalTokens, block.timestamp);\n\t\t// Burn the uTokens as specified with the amount\n\t\t_uTokens.burn(to, _finalTokens);\n\t\t// Mint the sTokens for the account specified\n\t\t_sTokens.mint(to, amount);\n\t\treturn true;\n\t}\n\n\t/**\n     * @dev UnStake stokens over the platform with address 'to' for desired 'amount' (Burn sTokens and Mint uTokens with 21 days locking period)\n     * @param to: user address for staking, amount: number of tokens to unstake\n     *\n     *\n     * Requirements:\n     *\n     * - `amount` cannot be less than zero.\n     * - 'amount' cannot be more than balance\n     * - 'amount' plus new balance should be equal to the old balance\n     */\n\tfunction unStake(address to, uint256 amount) public virtual override whenNotPaused returns(bool) {\n\t\t// Check the supplied amount is greater than 0\n\t\trequire(to == _msgSender(), \"LQ15\");\n\t\t// require(_unstakeEpoch!=0 && _unstakeEpochPrevious!=0, \"LQ16\");\n\t\t// Check the current balance for sTokens is greater than the amount to be unStaked\n\t\tuint256 _currentSTokenBalance = _sTokens.balanceOf(to);\n\t\tuint256 _unstakeFeeAmount = (amount.mulDiv(_unstakeFee, _valueDivisor)).div(100);\n\t\tuint256 _finalTokens = amount.add(_unstakeFeeAmount);\n\t\t// the value which should be greater than or equal to _minSUnstake\n\t\t// is amount since minval applies to number of uTokens to be withdrawn\n\t\trequire(amount >= _minUnstake, \"LQ18\");\n\t\trequire(_currentSTokenBalance >= _finalTokens, \"LQ19\");\n\t\t// Burn the sTokens as specified with the amount\n\t\t_sTokens.burn(to, _finalTokens);\n\t\t_unstakingExpiration[to].push(block.timestamp);\n\t\t// array will hold amount and not _finalTokens because that is the amount of\n\t\t// uTokens pending to be credited after withdraw period\n\t\t_unstakingAmount[to].push(amount);\n\t\t// the event needs to capture _finalTokens that were and not amount\n\t\temit UnstakeTokens(to, amount, _finalTokens, block.timestamp);\n\n\t\treturn true;\n\t}\n\n\t/**\n     * @dev returns the nearest epoch milestone in the future\n     */\n\tfunction getUnstakeEpochMilestone(uint256 _unstakeTimestamp) public view virtual override returns (uint256 unstakeEpochMilestone) {\n\t\tif(_unstakeTimestamp == 0) return 0;\n\t\t// if epoch values are not relevant, then the epoch milestone is the unstake timestamp itself (backward compatibility)\n\t\tif((_unstakeEpoch == 0 && _unstakeEpochPrevious == 0) || _epochInterval == 0) return _unstakeTimestamp;\n\t\tif(_unstakeEpoch > _unstakeTimestamp) return (_unstakeEpoch);\n\t\tuint256 _referenceStartTime = (_unstakeTimestamp).add(_unstakeEpoch.sub(_unstakeEpochPrevious));\n\t\tuint256 _timeDiff = _referenceStartTime.sub(_unstakeEpoch);\n\t\tunstakeEpochMilestone = (_timeDiff.mod(_epochInterval)).add(_referenceStartTime);\n\t\treturn (unstakeEpochMilestone);\n\t}\n\n\t/**\n     * @dev returns the time left for unbonding to finish\n     */\n\tfunction getUnstakeTime(uint256 _unstakeTimestamp) public view virtual override returns (uint256 unstakeTime ,uint256 unstakeEpoch, uint256 unstakeEpochPrevious) {\n\t\tuint256 _unstakeEpochMilestone = getUnstakeEpochMilestone(_unstakeTimestamp);\n\t\tif(_unstakeEpochMilestone == 0) return (0, unstakeEpoch, unstakeEpochPrevious);\n\t\tunstakeEpoch = _unstakeEpoch;\n\t\tunstakeEpochPrevious = _unstakeEpochPrevious;\n\t\t//adding unstakingLockTime with epoch difference\n\t\tunstakeTime = _unstakeEpochMilestone.add(_unstakingLockTime);\n\t\treturn (unstakeTime, unstakeEpoch, unstakeEpochPrevious);\n\t}\n\n\t/**\n     * @dev Lock the unstaked tokens for 21 days, user can withdraw the same (Mint uTokens with 21 days locking period)\n     *\n     * @param staker: user address for withdraw\n     *\n     * Requirements:\n     *\n     * - `current block timestamp` should be after 21 days from the period where unstaked function is called.\n     */\n\tfunction withdrawUnstakedTokens(address staker) public virtual override whenNotPaused{\n\t\trequire(staker == _msgSender(), \"LQ20\");\n\t\tuint256 _withdrawBalance;\n\t\tuint256 _unstakingExpirationLength = _unstakingExpiration[staker].length;\n\t\tuint256 _counter = _withdrawCounters[staker];\n\t\tfor (uint256 i=_counter; i<_unstakingExpirationLength; i=i.add(1)) {\n\t\t\t//get getUnstakeTime and compare it with current timestamp to check if 21 days + epoch difference has passed\n\t\t\t(uint256 _getUnstakeTime, , ) = getUnstakeTime(_unstakingExpiration[staker][i]);\n\t\t\tif (block.timestamp >= _getUnstakeTime) {\n\t\t\t\t//if 21 days + epoch difference has passed, then add the balance and then mint uTokens\n\t\t\t\t_withdrawBalance = _withdrawBalance.add(_unstakingAmount[staker][i]);\n\t\t\t\t_unstakingExpiration[staker][i] = 0;\n\t\t\t\t_unstakingAmount[staker][i] = 0;\n\t\t\t\t_withdrawCounters[staker] = _withdrawCounters[staker].add(1);\n\t\t\t}\n\t\t}\n\n\t\trequire(_withdrawBalance > 0, \"LQ21\");\n\t\temit WithdrawUnstakeTokens(staker, _withdrawBalance, block.timestamp);\n\t\t_uTokens.mint(staker, _withdrawBalance);\n\n\t}\n\n\t/**\n     * @dev get Total Unbonded Tokens\n     * @param staker: account address\n     *\n     */\n\tfunction getTotalUnbondedTokens(address staker) public view virtual override returns (uint256 unbondingTokens) {\n\t\tuint256 _unstakingExpirationLength = _unstakingExpiration[staker].length;\n\t\tuint256 _counter = _withdrawCounters[staker];\n\t\tfor (uint256 i=_counter; i<_unstakingExpirationLength; i=i.add(1)) {\n\t\t\t//get getUnstakeTime and compare it with current timestamp to check if 21 days + epoch difference has passed\n\t\t\t(uint256 _getUnstakeTime, , ) = getUnstakeTime(_unstakingExpiration[staker][i]);\n\t\t\tif (block.timestamp >= _getUnstakeTime) {\n\t\t\t\t//if 21 days + epoch difference has passed, then check the token amount and send back\n\t\t\t\tunbondingTokens = unbondingTokens.add(_unstakingAmount[staker][i]);\n\t\t\t}\n\t\t}\n\t\treturn unbondingTokens;\n\t}\n\n\t/**\n     * @dev get Total Unbonding Tokens\n     * @param staker: account address\n     *\n     */\n\tfunction getTotalUnbondingTokens(address staker) public view virtual override returns (uint256 unbondingTokens) {\n\t\tuint256 _unstakingExpirationLength = _unstakingExpiration[staker].length;\n\t\tuint256 _counter = _withdrawCounters[staker];\n\t\tfor (uint256 i=_counter; i<_unstakingExpirationLength; i=i.add(1)) {\n\t\t\t//get getUnstakeTime and compare it with current timestamp to check if 21 days + epoch difference has passed\n\t\t\t(uint256 _getUnstakeTime, , ) = getUnstakeTime(_unstakingExpiration[staker][i]);\n\t\t\tif (block.timestamp < _getUnstakeTime) {\n\t\t\t\t//if 21 days + epoch difference have not passed, then check the token amount and send back\n\t\t\t\tunbondingTokens = unbondingTokens.add(_unstakingAmount[staker][i]);\n\t\t\t}\n\t\t}\n\t\treturn unbondingTokens;\n\t}\n\n\t/**\n      * @dev Triggers stopped state.\n      *\n      * Requirements:\n      *\n      * - The contract must not be paused.\n      */\n\tfunction pause() public virtual returns (bool success) {\n\t\trequire(hasRole(PAUSER_ROLE, _msgSender()), \"LQ22\");\n\t\t_pause();\n\t\treturn true;\n\t}\n\n\t/**\n     * @dev Returns to normal state.\n     *\n     * Requirements:\n     *\n     * - The contract must be paused.\n     */\n\tfunction unpause() public virtual returns (bool success) {\n\t\trequire(hasRole(PAUSER_ROLE, _msgSender()), \"LQ23\");\n\t\t_unpause();\n\t\treturn true;\n\t}\n}",
  "sourcePath": "/home/aditimahesh/Documents/Work/Persistence/go/src/github.com/persistenceOne/pStake-smartContracts/contracts/LiquidStaking.sol",
  "compiler": {
    "name": "solc",
    "version": "0.7.6+commit.7338295f.Emscripten.clang"
  },
  "schemaVersion": "3.4.5",
  "updatedAt": "2022-02-23T16:56:03.547Z",
  "devdoc": {
    "kind": "dev",
    "methods": {
      "getRoleAdmin(bytes32)": {
        "details": "Returns the admin role that controls `role`. See {grantRole} and {revokeRole}. To change a role's admin, use {_setRoleAdmin}."
      },
      "getRoleMember(bytes32,uint256)": {
        "details": "Returns one of the accounts that have `role`. `index` must be a value between 0 and {getRoleMemberCount}, non-inclusive. Role bearers are not sorted in any particular way, and their ordering may change at any point. WARNING: When using {getRoleMember} and {getRoleMemberCount}, make sure you perform all queries on the same block. See the following https://forum.openzeppelin.com/t/iterating-over-elements-on-enumerableset-in-openzeppelin-contracts/2296[forum post] for more information."
      },
      "getRoleMemberCount(bytes32)": {
        "details": "Returns the number of accounts that have `role`. Can be used together with {getRoleMember} to enumerate all bearers of a role."
      },
      "getStakeUnstakeProps()": {
        "details": "get fees, min values, value divisor and epoch props"
      },
      "getTotalUnbondedTokens(address)": {
        "details": "get Total Unbonded Tokens",
        "params": {
          "staker": ": account address"
        }
      },
      "getTotalUnbondingTokens(address)": {
        "details": "get Total Unbonding Tokens",
        "params": {
          "staker": ": account address"
        }
      },
      "getUnstakeEpochMilestone(uint256)": {
        "details": "returns the nearest epoch milestone in the future"
      },
      "getUnstakeTime(uint256)": {
        "details": "returns the time left for unbonding to finish"
      },
      "grantRole(bytes32,address)": {
        "details": "Grants `role` to `account`. If `account` had not been already granted `role`, emits a {RoleGranted} event. Requirements: - the caller must have ``role``'s admin role."
      },
      "hasRole(bytes32,address)": {
        "details": "Returns `true` if `account` has been granted `role`."
      },
      "initialize(address,address,address,uint256,uint256,uint256)": {
        "details": "Constructor for initializing the LiquidStaking contract.",
        "params": {
          "epochInterval": "- varies from 3 hours to 3 days.",
          "pauserAddress": "- address of the pauser admin.",
          "sAddress": "- address of the SToken contract.",
          "uAddress": "- address of the UToken contract.",
          "unstakingLockTime": "- varies from 21 hours to 21 days.",
          "valueDivisor": "- valueDivisor set to 10^9."
        }
      },
      "pause()": {
        "details": "Triggers stopped state. Requirements: - The contract must not be paused."
      },
      "paused()": {
        "details": "Returns true if the contract is paused, and false otherwise."
      },
      "renounceRole(bytes32,address)": {
        "details": "Revokes `role` from the calling account. Roles are often managed via {grantRole} and {revokeRole}: this function's purpose is to provide a mechanism for accounts to lose their privileges if they are compromised (such as when a trusted device is misplaced). If the calling account had been granted `role`, emits a {RoleRevoked} event. Requirements: - the caller must be `account`."
      },
      "revokeRole(bytes32,address)": {
        "details": "Revokes `role` from `account`. If `account` had been granted `role`, emits a {RoleRevoked} event. Requirements: - the caller must have ``role``'s admin role."
      },
      "setFees(uint256,uint256)": {
        "details": "Set 'fees', called from admin",
        "params": {
          "stakeFee": ": stake fee",
          "unstakeFee": ": unstake fee Emits a {SetFees} event with 'fee' set to the stake and unstake."
        }
      },
      "setMinimumValues(uint256,uint256)": {
        "details": "Set 'minimum values', called from admin",
        "params": {
          "minStake": ": stake minimum value",
          "minUnstake": ": unstake minimum value Emits a {SetMinimumValues} event with 'minimum value' set to the stake and unstake."
        }
      },
      "setSTokensContract(address)": {
        "details": "Set 'contract address', called from constructor",
        "params": {
          "sAddress": ": stoken contract address Emits a {SetSTokensContract} event with '_contract' set to the stoken contract address."
        }
      },
      "setUTokensContract(address)": {
        "details": "Set 'contract address', called from constructor",
        "params": {
          "uAddress": ": utoken contract address Emits a {SetUTokensContract} event with '_contract' set to the utoken contract address."
        }
      },
      "setUnstakeEpoch(uint256,uint256,uint256)": {
        "details": "Set 'unstake epoch', called from admin",
        "params": {
          "epochInterval": ": varies from 3 hours to 3 days Emits a {SetUnstakeEpoch} event with 'unstakeEpoch'",
          "unstakeEpoch": ": unstake epoch",
          "unstakeEpochPrevious": ": unstake epoch previous(initially set to same value as unstakeEpoch)"
        }
      },
      "setUnstakingLockTime(uint256)": {
        "details": "Set 'unstake props', called from admin",
        "params": {
          "unstakingLockTime": ": varies from 21 hours to 21 days Emits a {SetUnstakeProps} event with 'fee' set to the stake and unstake."
        }
      },
      "stake(address,uint256)": {
        "details": "Stake utokens over the platform with address 'to' for desired 'amount'(Burn uTokens and Mint sTokens)",
        "params": {
          "to": ": user address for staking, amount: number of tokens to stake Requirements: - `amount` cannot be less than zero. - 'amount' cannot be more than balance - 'amount' plus new balance should be equal to the old balance"
        }
      },
      "unStake(address,uint256)": {
        "details": "UnStake stokens over the platform with address 'to' for desired 'amount' (Burn sTokens and Mint uTokens with 21 days locking period)",
        "params": {
          "to": ": user address for staking, amount: number of tokens to unstake Requirements: - `amount` cannot be less than zero. - 'amount' cannot be more than balance - 'amount' plus new balance should be equal to the old balance"
        }
      },
      "unpause()": {
        "details": "Returns to normal state. Requirements: - The contract must be paused."
      },
      "withdrawUnstakedTokens(address)": {
        "details": "Lock the unstaked tokens for 21 days, user can withdraw the same (Mint uTokens with 21 days locking period)",
        "params": {
          "staker": ": user address for withdraw Requirements: - `current block timestamp` should be after 21 days from the period where unstaked function is called."
        }
      }
    },
    "version": 1
  },
  "userdoc": {
    "kind": "user",
    "methods": {},
    "version": 1
  }
}