{
  "contractName": "LiquidStaking",
  "abi": [
    {
      "anonymous": false,
      "inputs": [
        {
          "indexed": false,
          "internalType": "address",
          "name": "account",
          "type": "address"
        }
      ],
      "name": "Paused",
      "type": "event"
    },
    {
      "anonymous": false,
      "inputs": [
        {
          "indexed": true,
          "internalType": "bytes32",
          "name": "role",
          "type": "bytes32"
        },
        {
          "indexed": true,
          "internalType": "bytes32",
          "name": "previousAdminRole",
          "type": "bytes32"
        },
        {
          "indexed": true,
          "internalType": "bytes32",
          "name": "newAdminRole",
          "type": "bytes32"
        }
      ],
      "name": "RoleAdminChanged",
      "type": "event"
    },
    {
      "anonymous": false,
      "inputs": [
        {
          "indexed": true,
          "internalType": "bytes32",
          "name": "role",
          "type": "bytes32"
        },
        {
          "indexed": true,
          "internalType": "address",
          "name": "account",
          "type": "address"
        },
        {
          "indexed": true,
          "internalType": "address",
          "name": "sender",
          "type": "address"
        }
      ],
      "name": "RoleGranted",
      "type": "event"
    },
    {
      "anonymous": false,
      "inputs": [
        {
          "indexed": true,
          "internalType": "bytes32",
          "name": "role",
          "type": "bytes32"
        },
        {
          "indexed": true,
          "internalType": "address",
          "name": "account",
          "type": "address"
        },
        {
          "indexed": true,
          "internalType": "address",
          "name": "sender",
          "type": "address"
        }
      ],
      "name": "RoleRevoked",
      "type": "event"
    },
    {
      "anonymous": false,
      "inputs": [
        {
          "indexed": true,
          "internalType": "address",
          "name": "_contract",
          "type": "address"
        }
      ],
      "name": "SetSTokensContract",
      "type": "event"
    },
    {
      "anonymous": false,
      "inputs": [
        {
          "indexed": true,
          "internalType": "address",
          "name": "_contract",
          "type": "address"
        }
      ],
      "name": "SetUTokensContract",
      "type": "event"
    },
    {
      "anonymous": false,
      "inputs": [
        {
          "indexed": true,
          "internalType": "address",
          "name": "_contract",
          "type": "address"
        }
      ],
      "name": "SetWrapperContract",
      "type": "event"
    },
    {
      "anonymous": false,
      "inputs": [
        {
          "indexed": true,
          "internalType": "address",
          "name": "accountAddress",
          "type": "address"
        },
        {
          "indexed": false,
          "internalType": "uint256",
          "name": "tokens",
          "type": "uint256"
        },
        {
          "indexed": false,
          "internalType": "uint256",
          "name": "timestamp",
          "type": "uint256"
        }
      ],
      "name": "StakeTokens",
      "type": "event"
    },
    {
      "anonymous": false,
      "inputs": [
        {
          "indexed": false,
          "internalType": "address",
          "name": "account",
          "type": "address"
        }
      ],
      "name": "Unpaused",
      "type": "event"
    },
    {
      "anonymous": false,
      "inputs": [
        {
          "indexed": true,
          "internalType": "address",
          "name": "accountAddress",
          "type": "address"
        },
        {
          "indexed": false,
          "internalType": "uint256",
          "name": "tokens",
          "type": "uint256"
        },
        {
          "indexed": false,
          "internalType": "uint256",
          "name": "timestamp",
          "type": "uint256"
        }
      ],
      "name": "UnstakeTokens",
      "type": "event"
    },
    {
      "anonymous": false,
      "inputs": [
        {
          "indexed": true,
          "internalType": "address",
          "name": "accountAddress",
          "type": "address"
        },
        {
          "indexed": false,
          "internalType": "uint256",
          "name": "tokens",
          "type": "uint256"
        },
        {
          "indexed": false,
          "internalType": "uint256",
          "name": "timestamp",
          "type": "uint256"
        }
      ],
      "name": "WithdrawUnstakeTokens",
      "type": "event"
    },
    {
      "inputs": [],
      "name": "BRIDGE_ADMIN_ROLE",
      "outputs": [
        {
          "internalType": "bytes32",
          "name": "",
          "type": "bytes32"
        }
      ],
      "stateMutability": "view",
      "type": "function"
    },
    {
      "inputs": [],
      "name": "DEFAULT_ADMIN_ROLE",
      "outputs": [
        {
          "internalType": "bytes32",
          "name": "",
          "type": "bytes32"
        }
      ],
      "stateMutability": "view",
      "type": "function"
    },
    {
      "inputs": [],
      "name": "PAUSER_ROLE",
      "outputs": [
        {
          "internalType": "bytes32",
          "name": "",
          "type": "bytes32"
        }
      ],
      "stateMutability": "view",
      "type": "function"
    },
    {
      "inputs": [
        {
          "internalType": "bytes32",
          "name": "role",
          "type": "bytes32"
        }
      ],
      "name": "getRoleAdmin",
      "outputs": [
        {
          "internalType": "bytes32",
          "name": "",
          "type": "bytes32"
        }
      ],
      "stateMutability": "view",
      "type": "function"
    },
    {
      "inputs": [
        {
          "internalType": "bytes32",
          "name": "role",
          "type": "bytes32"
        },
        {
          "internalType": "uint256",
          "name": "index",
          "type": "uint256"
        }
      ],
      "name": "getRoleMember",
      "outputs": [
        {
          "internalType": "address",
          "name": "",
          "type": "address"
        }
      ],
      "stateMutability": "view",
      "type": "function"
    },
    {
      "inputs": [
        {
          "internalType": "bytes32",
          "name": "role",
          "type": "bytes32"
        }
      ],
      "name": "getRoleMemberCount",
      "outputs": [
        {
          "internalType": "uint256",
          "name": "",
          "type": "uint256"
        }
      ],
      "stateMutability": "view",
      "type": "function"
    },
    {
      "inputs": [
        {
          "internalType": "bytes32",
          "name": "role",
          "type": "bytes32"
        },
        {
          "internalType": "address",
          "name": "account",
          "type": "address"
        }
      ],
      "name": "grantRole",
      "outputs": [],
      "stateMutability": "nonpayable",
      "type": "function"
    },
    {
      "inputs": [
        {
          "internalType": "bytes32",
          "name": "role",
          "type": "bytes32"
        },
        {
          "internalType": "address",
          "name": "account",
          "type": "address"
        }
      ],
      "name": "hasRole",
      "outputs": [
        {
          "internalType": "bool",
          "name": "",
          "type": "bool"
        }
      ],
      "stateMutability": "view",
      "type": "function"
    },
    {
      "inputs": [],
      "name": "paused",
      "outputs": [
        {
          "internalType": "bool",
          "name": "",
          "type": "bool"
        }
      ],
      "stateMutability": "view",
      "type": "function"
    },
    {
      "inputs": [
        {
          "internalType": "bytes32",
          "name": "role",
          "type": "bytes32"
        },
        {
          "internalType": "address",
          "name": "account",
          "type": "address"
        }
      ],
      "name": "renounceRole",
      "outputs": [],
      "stateMutability": "nonpayable",
      "type": "function"
    },
    {
      "inputs": [
        {
          "internalType": "bytes32",
          "name": "role",
          "type": "bytes32"
        },
        {
          "internalType": "address",
          "name": "account",
          "type": "address"
        }
      ],
      "name": "revokeRole",
      "outputs": [],
      "stateMutability": "nonpayable",
      "type": "function"
    },
    {
      "inputs": [
        {
          "internalType": "address",
          "name": "uAddress",
          "type": "address"
        },
        {
          "internalType": "address",
          "name": "sAddress",
          "type": "address"
        },
        {
          "internalType": "address",
          "name": "wrapperAddress",
          "type": "address"
        },
        {
          "internalType": "address",
          "name": "bridgeAdminAddress",
          "type": "address"
        },
        {
          "internalType": "address",
          "name": "pauserAddress",
          "type": "address"
        }
      ],
      "name": "initialize",
      "outputs": [],
      "stateMutability": "nonpayable",
      "type": "function"
    },
    {
      "inputs": [
        {
          "internalType": "address",
          "name": "uAddress",
          "type": "address"
        }
      ],
      "name": "setUTokensContract",
      "outputs": [],
      "stateMutability": "nonpayable",
      "type": "function"
    },
    {
      "inputs": [
        {
          "internalType": "address",
          "name": "sAddress",
          "type": "address"
        }
      ],
      "name": "setSTokensContract",
      "outputs": [],
      "stateMutability": "nonpayable",
      "type": "function"
    },
    {
      "inputs": [
        {
          "internalType": "address",
          "name": "wrapperAddress",
          "type": "address"
        }
      ],
      "name": "setWrapperContract",
      "outputs": [],
      "stateMutability": "nonpayable",
      "type": "function"
    },
    {
      "inputs": [
        {
          "internalType": "address",
          "name": "to",
          "type": "address"
        },
        {
          "internalType": "uint256",
          "name": "utok",
          "type": "uint256"
        }
      ],
      "name": "stake",
      "outputs": [
        {
          "internalType": "bool",
          "name": "",
          "type": "bool"
        }
      ],
      "stateMutability": "nonpayable",
      "type": "function"
    },
    {
      "inputs": [
        {
          "internalType": "address",
          "name": "to",
          "type": "address"
        },
        {
          "internalType": "uint256",
          "name": "stok",
          "type": "uint256"
        }
      ],
      "name": "unStake",
      "outputs": [
        {
          "internalType": "bool",
          "name": "",
          "type": "bool"
        }
      ],
      "stateMutability": "nonpayable",
      "type": "function"
    },
    {
      "inputs": [
        {
          "internalType": "address",
          "name": "staker",
          "type": "address"
        }
      ],
      "name": "withdrawUnstakedTokens",
      "outputs": [],
      "stateMutability": "nonpayable",
      "type": "function"
    },
    {
      "inputs": [
        {
          "internalType": "address",
          "name": "staker",
          "type": "address"
        }
      ],
      "name": "getTotalUnbondedTokens",
      "outputs": [
        {
          "internalType": "uint256",
          "name": "unbondingTokens",
          "type": "uint256"
        }
      ],
      "stateMutability": "view",
      "type": "function"
    },
    {
      "inputs": [],
      "name": "pause",
      "outputs": [
        {
          "internalType": "bool",
          "name": "success",
          "type": "bool"
        }
      ],
      "stateMutability": "nonpayable",
      "type": "function"
    },
    {
      "inputs": [],
      "name": "unpause",
      "outputs": [
        {
          "internalType": "bool",
          "name": "success",
          "type": "bool"
        }
      ],
      "stateMutability": "nonpayable",
      "type": "function"
    }
  ],
  "bytecode": "0x608060405234801561001057600080fd5b50611e27806100206000396000f3fe608060405234801561001057600080fd5b50600436106101375760003560e01c80635c975abb116100b8578063a217fddf1161007c578063a217fddf1461036a578063adc9772e14610372578063ca15c8731461039e578063d547741f146103bb578063d9393814146103e7578063e63ab1e91461041357610137565b80635c975abb146102c9578063819020a0146102d15780638456cb59146102f75780639010d07c146102ff57806391d148541461033e57610137565b80632e31fab8116100ff5780632e31fab8146102095780632f2ff15d1461022f57806336568abe1461025b5780633f4ba83a146102875780634e558127146102a357610137565b80630273b70d1461013c578063118c38c7146101745780631459457a1461017c57806321bdf9e5146101c6578063248a9ca3146101ec575b600080fd5b6101626004803603602081101561015257600080fd5b50356001600160a01b031661041b565b60408051918252519081900360200190f35b610162610527565b6101c4600480360360a081101561019257600080fd5b506001600160a01b0381358116916020810135821691604082013581169160608101358216916080909101351661054b565b005b6101c4600480360360208110156101dc57600080fd5b50356001600160a01b0316610678565b6101626004803603602081101561020257600080fd5b503561075c565b6101c46004803603602081101561021f57600080fd5b50356001600160a01b0316610771565b6101c46004803603604081101561024557600080fd5b50803590602001356001600160a01b0316610850565b6101c46004803603604081101561027157600080fd5b50803590602001356001600160a01b03166108b7565b61028f610918565b604080519115158252519081900360200190f35b6101c4600480360360208110156102b957600080fd5b50356001600160a01b031661097d565b61028f610a5c565b6101c4600480360360208110156102e757600080fd5b50356001600160a01b0316610a65565b61028f610d14565b6103226004803603604081101561031557600080fd5b5080359060200135610d73565b604080516001600160a01b039092168252519081900360200190f35b61028f6004803603604081101561035457600080fd5b50803590602001356001600160a01b0316610d94565b610162610dac565b61028f6004803603604081101561038857600080fd5b506001600160a01b038135169060200135610db1565b610162600480360360208110156103b457600080fd5b50356110a4565b6101c4600480360360408110156103d157600080fd5b50803590602001356001600160a01b03166110bb565b61028f600480360360408110156103fd57600080fd5b506001600160a01b038135169060200135611114565b6101626113d0565b6000610425610a5c565b1561046a576040805162461bcd60e51b815260206004820152601060248201526f14185d5cd8589b194e881c185d5cd95960821b604482015290519081900360640190fd5b6104726113e2565b6001600160a01b0316826001600160a01b031614156105225760005b6001600160a01b0383166000908152609b6020526040902054811015610520576001600160a01b0383166000908152609b602052604090208054829081106104d257fe5b9060005260206000200154421115610518576001600160a01b0383166000908152609c6020526040902080548290811061050857fe5b9060005260206000200154820191505b60010161048e565b505b919050565b7f751b795d24b92e3d92d1d0d8f2885f4e9c9c269da350af36ae6b49069babf4bf81565b600054610100900460ff168061056457506105646113e6565b80610572575060005460ff16155b6105ad5760405162461bcd60e51b815260040180806020018281038252602e815260200180611bdb602e913960400191505060405180910390fd5b600054610100900460ff161580156105d8576000805460ff1961ff0019909116610100171660011790555b6105e06113f7565b6105e86114a9565b6105fa60006105f56113e2565b6108a9565b6106247f751b795d24b92e3d92d1d0d8f2885f4e9c9c269da350af36ae6b49069babf4bf846108a9565b61063c600080516020611c43833981519152836108a9565b61064586610678565b61064e85610771565b6106578461097d565b621baf80609a558015610670576000805461ff00191690555b505050505050565b610680610a5c565b156106c5576040805162461bcd60e51b815260206004820152601060248201526f14185d5cd8589b194e881c185d5cd95960821b604482015290519081900360640190fd5b6106d760006106d26113e2565b610d94565b6107125760405162461bcd60e51b8152600401808060200182810382526039815260200180611b316039913960400191505060405180910390fd5b609780546001600160a01b0319166001600160a01b0383169081179091556040517ff745c285f36f88bea6af14d4d0f33dd9350cef7895216c1615b1caaee7857e0c90600090a250565b60009081526065602052604090206002015490565b610779610a5c565b156107be576040805162461bcd60e51b815260206004820152601060248201526f14185d5cd8589b194e881c185d5cd95960821b604482015290519081900360640190fd5b6107cb60006106d26113e2565b6108065760405162461bcd60e51b8152600401808060200182810382526039815260200180611af86039913960400191505060405180910390fd5b609880546001600160a01b0319166001600160a01b0383169081179091556040517fd0b9dbe26f676f4cdb02fc249c203baa0314cec79e18b4194dc862795a5de03f90600090a250565b60008281526065602052604090206002015461086e906106d26113e2565b6108a95760405162461bcd60e51b815260040180806020018281038252602f815260200180611ac9602f913960400191505060405180910390fd5b6108b38282611546565b5050565b6108bf6113e2565b6001600160a01b0316816001600160a01b03161461090e5760405162461bcd60e51b815260040180806020018281038252602f815260200180611dc3602f913960400191505060405180910390fd5b6108b382826115af565b6000610934600080516020611c438339815191526106d26113e2565b61096f5760405162461bcd60e51b8152600401808060200182810382526038815260200180611d4c6038913960400191505060405180910390fd5b610977611618565b50600190565b610985610a5c565b156109ca576040805162461bcd60e51b815260206004820152601060248201526f14185d5cd8589b194e881c185d5cd95960821b604482015290519081900360640190fd5b6109d760006106d26113e2565b610a125760405162461bcd60e51b815260040180806020018281038252603a815260200180611c09603a913960400191505060405180910390fd5b609980546001600160a01b0319166001600160a01b0383169081179091556040517fe64d0ea1a8162224d25416ba9164fe1dae6ec14e9f846220b287c0c1c9413e0590600090a250565b60335460ff1690565b610a6d610a5c565b15610ab2576040805162461bcd60e51b815260206004820152601060248201526f14185d5cd8589b194e881c185d5cd95960821b604482015290519081900360640190fd5b610aba6113e2565b6001600160a01b0316816001600160a01b031614610b095760405162461bcd60e51b8152600401808060200182810382526027815260200180611cca6027913960400191505060405180910390fd5b6000805b6001600160a01b0383166000908152609b6020526040902054811015610c02576001600160a01b0383166000908152609b60205260409020805482908110610b5157fe5b9060005260206000200154421115610bfa576001600160a01b0383166000908152609c60205260409020805482908110610b8757fe5b60009182526020808320909101546001600160a01b0386168352609b909152604082208054949091019383908110610bbb57fe5b60009182526020808320909101929092556001600160a01b0385168152609c90915260408120805483908110610bed57fe5b6000918252602090912001555b600101610b0d565b5060008111610c425760405162461bcd60e51b815260040180806020018281038252602d815260200180611d1f602d913960400191505060405180910390fd5b6040805182815242602082015281516001600160a01b038516927f31453b59c0eb931edc765cc2400876a524254457b5534d660c9da1d74ab4666b928290030190a26097546001600160a01b03166340c10f19610c9d6113e2565b836040518363ffffffff1660e01b815260040180836001600160a01b0316815260200182815260200192505050602060405180830381600087803b158015610ce457600080fd5b505af1158015610cf8573d6000803e3d6000fd5b505050506040513d6020811015610d0e57600080fd5b50505050565b6000610d30600080516020611c438339815191526106d26113e2565b610d6b5760405162461bcd60e51b8152600401808060200182810382526036815260200180611c636036913960400191505060405180910390fd5b6109776116b8565b6000828152606560205260408120610d8b908361173b565b90505b92915050565b6000828152606560205260408120610d8b9083611747565b600081565b6000610dbb610a5c565b15610e00576040805162461bcd60e51b815260206004820152601060248201526f14185d5cd8589b194e881c185d5cd95960821b604482015290519081900360640190fd5b60008211610e3f5760405162461bcd60e51b815260040180806020018281038252603f815260200180611d84603f913960400191505060405180910390fd5b610e476113e2565b6001600160a01b0316836001600160a01b031614610e965760405162461bcd60e51b8152600401808060200182810382526031815260200180611c996031913960400191505060405180910390fd5b609754604080516370a0823160e01b81526001600160a01b038681166004830152915160009392909216916370a0823191602480820192602092909190829003018186803b158015610ee757600080fd5b505afa158015610efb573d6000803e3d6000fd5b505050506040513d6020811015610f1157600080fd5b5051905082811015610f545760405162461bcd60e51b815260040180806020018281038252602e815260200180611cf1602e913960400191505060405180910390fd5b6040805184815242602082015281516001600160a01b038716927f106d46085b22b31d658796e9924cf39946b4105bdb86f8afba3d60d71c3cc591928290030190a260975460408051632770a7eb60e21b81526001600160a01b0387811660048301526024820187905291519190921691639dc29fac9160448083019260209291908290030181600087803b158015610fec57600080fd5b505af1158015611000573d6000803e3d6000fd5b505050506040513d602081101561101657600080fd5b5050609854604080516340c10f1960e01b81526001600160a01b03878116600483015260248201879052915191909216916340c10f199160448083019260209291908290030181600087803b15801561106e57600080fd5b505af1158015611082573d6000803e3d6000fd5b505050506040513d602081101561109857600080fd5b50600195945050505050565b6000818152606560205260408120610d8e9061175c565b6000828152606560205260409020600201546110d9906106d26113e2565b61090e5760405162461bcd60e51b8152600401808060200182810382526030815260200180611bab6030913960400191505060405180910390fd5b600061111e610a5c565b15611163576040805162461bcd60e51b815260206004820152601060248201526f14185d5cd8589b194e881c185d5cd95960821b604482015290519081900360640190fd5b61116b6113e2565b6001600160a01b0316836001600160a01b0316146111ba5760405162461bcd60e51b8152600401808060200182810382526034815260200180611a956034913960400191505060405180910390fd5b600082116111f95760405162461bcd60e51b8152600401808060200182810382526041815260200180611b6a6041913960600191505060405180910390fd5b609854604080516370a0823160e01b81526001600160a01b038681166004830152915160009392909216916370a0823191602480820192602092909190829003018186803b15801561124a57600080fd5b505afa15801561125e573d6000803e3d6000fd5b505050506040513d602081101561127457600080fd5b50519050828110156112b75760405162461bcd60e51b815260040180806020018281038252602e815260200180611cf1602e913960400191505060405180910390fd5b6040805184815242602082015281516001600160a01b038716927f5088bc45f380ed0275b374e62bdb9498bfc6b73641204086e7919df7b1b42c7c928290030190a260985460408051632770a7eb60e21b81526001600160a01b0387811660048301526024820187905291519190921691639dc29fac9160448083019260209291908290030181600087803b15801561134f57600080fd5b505af1158015611363573d6000803e3d6000fd5b505050506040513d602081101561137957600080fd5b505050506001600160a01b03919091166000818152609b60209081526040808320609a5481546001808201845592865284862042909201910155938352609c82528220805480850182559083529120019190915590565b600080516020611c4383398151915281565b3390565b60006113f130611767565b15905090565b600054610100900460ff168061141057506114106113e6565b8061141e575060005460ff16155b6114595760405162461bcd60e51b815260040180806020018281038252602e815260200180611bdb602e913960400191505060405180910390fd5b600054610100900460ff16158015611484576000805460ff1961ff0019909116610100171660011790555b61148c61176d565b61149461176d565b80156114a6576000805461ff00191690555b50565b600054610100900460ff16806114c257506114c26113e6565b806114d0575060005460ff16155b61150b5760405162461bcd60e51b815260040180806020018281038252602e815260200180611bdb602e913960400191505060405180910390fd5b600054610100900460ff16158015611536576000805460ff1961ff0019909116610100171660011790555b61153e61176d565b61149461180d565b600082815260656020526040902061155e90826118b8565b156108b35761156b6113e2565b6001600160a01b0316816001600160a01b0316837f2f8788117e7eff1d82e926ec794901d17c78024a50270940304540a733656f0d60405160405180910390a45050565b60008281526065602052604090206115c790826118cd565b156108b3576115d46113e2565b6001600160a01b0316816001600160a01b0316837ff6391f5c32d9c69d2a47ea670b442974b53935d1edc7fd64eb21e047a839171b60405160405180910390a45050565b611620610a5c565b611668576040805162461bcd60e51b815260206004820152601460248201527314185d5cd8589b194e881b9bdd081c185d5cd95960621b604482015290519081900360640190fd5b6033805460ff191690557f5db9ee0a495bf2e6ff9c91a7834c1ba4fdd244a5e8aa4e537bd38aeae4b073aa61169b6113e2565b604080516001600160a01b039092168252519081900360200190a1565b6116c0610a5c565b15611705576040805162461bcd60e51b815260206004820152601060248201526f14185d5cd8589b194e881c185d5cd95960821b604482015290519081900360640190fd5b6033805460ff191660011790557f62e78cea01bee320cd4e420270b5ea74000d11b0c9f74754ebdbfc544b05a25861169b6113e2565b6000610d8b83836118e2565b6000610d8b836001600160a01b038416611946565b6000610d8e8261195e565b3b151590565b600054610100900460ff168061178657506117866113e6565b80611794575060005460ff16155b6117cf5760405162461bcd60e51b815260040180806020018281038252602e815260200180611bdb602e913960400191505060405180910390fd5b600054610100900460ff16158015611494576000805460ff1961ff00199091166101001716600117905580156114a6576000805461ff001916905550565b600054610100900460ff168061182657506118266113e6565b80611834575060005460ff16155b61186f5760405162461bcd60e51b815260040180806020018281038252602e815260200180611bdb602e913960400191505060405180910390fd5b600054610100900460ff1615801561189a576000805460ff1961ff0019909116610100171660011790555b6033805460ff1916905580156114a6576000805461ff001916905550565b6000610d8b836001600160a01b038416611962565b6000610d8b836001600160a01b0384166119ac565b815460009082106119245760405162461bcd60e51b8152600401808060200182810382526022815260200180611a736022913960400191505060405180910390fd5b82600001828154811061193357fe5b9060005260206000200154905092915050565b60009081526001919091016020526040902054151590565b5490565b600061196e8383611946565b6119a457508154600181810184556000848152602080822090930184905584548482528286019093526040902091909155610d8e565b506000610d8e565b60008181526001830160205260408120548015611a6857835460001980830191908101906000908790839081106119df57fe5b90600052602060002001549050808760000184815481106119fc57fe5b600091825260208083209091019290925582815260018981019092526040902090840190558654879080611a2c57fe5b60019003818190600052602060002001600090559055866001016000878152602001908152602001600020600090556001945050505050610d8e565b6000915050610d8e56fe456e756d657261626c655365743a20696e646578206f7574206f6620626f756e64734c69717569645374616b696e673a20556e7374616b696e672063616e206f6e6c7920626520646f6e65206279205374616b657272416363657373436f6e74726f6c3a2073656e646572206d75737420626520616e2061646d696e20746f206772616e744c69717569645374616b696e673a2055736572206e6f7420617574686f726973656420746f207365742053546f6b656e20636f6e74726163744c69717569645374616b696e673a2055736572206e6f7420617574686f726973656420746f207365742055546f6b656e20636f6e74726163744c69717569645374616b696e673a204e756d626572206f6620756e7374616b656420746f6b656e732073686f756c642062652067726561746572207468616e2030416363657373436f6e74726f6c3a2073656e646572206d75737420626520616e2061646d696e20746f207265766f6b65496e697469616c697a61626c653a20636f6e747261637420697320616c726561647920696e697469616c697a65644c69717569645374616b696e673a2055736572206e6f7420617574686f726973656420746f20736574207772617070657220636f6e747261637465d7a28e3265b37a6474929f336521b332c1681b933f6cb9f3376673440d862a4c69717569645374616b696e673a2055736572206e6f7420617574686f726973656420746f20706175736520636f6e7472616374732e4c69717569645374616b696e673a205374616b696e672063616e206f6e6c7920626520646f6e65206279205374616b65724c69717569645374616b696e673a204f6e6c79207374616b65722063616e2077697468647261774c69717569645374616b696e673a20496e737566666369656e742062616c616e636520666f72206163636f756e744c69717569645374616b696e673a20556e5374616b696e6720706572696f64207374696c6c2070656e64696e674c69717569645374616b696e673a2055736572206e6f7420617574686f726973656420746f20756e706175736520636f6e7472616374732e4c69717569645374616b696e673a204e756d626572206f66207374616b656420746f6b656e732073686f756c642062652067726561746572207468616e2030416363657373436f6e74726f6c3a2063616e206f6e6c792072656e6f756e636520726f6c657320666f722073656c66a264697066735822122097565f758e30c66d9966d9c994d7e88296849df4a25fd27cc65037f51421742464736f6c63430007060033",
  "immutableReferences": {},
  "source": "// SPDX-License-Identifier: UNLICENSED\npragma solidity ^0.7.0;\n\nimport \"@openzeppelin/contracts-upgradeable/math/SafeMathUpgradeable.sol\";\nimport \"@openzeppelin/contracts-upgradeable/access/AccessControlUpgradeable.sol\";\nimport \"@openzeppelin/contracts-upgradeable/utils/PausableUpgradeable.sol\";\nimport \"./interfaces/ISTokens.sol\";\nimport \"./interfaces/IUTokens.sol\";\nimport \"./interfaces/ILiquidStaking.sol\";\nimport \"./interfaces/ITokenWrapper.sol\";\n\ncontract LiquidStaking is ILiquidStaking, PausableUpgradeable, AccessControlUpgradeable {\n\n    using SafeMathUpgradeable for uint256;\n\n    //Private instances of contracts to handle Utokens and Stokens\n    IUTokens private _uTokens;\n    ISTokens private _sTokens;\n    ITokenWrapper private _tokenWrapper;\n\n    bytes32 public constant BRIDGE_ADMIN_ROLE = keccak256(\"BRIDGE_ADMIN_ROLE\");\n    bytes32 public constant PAUSER_ROLE = keccak256(\"PAUSER_ROLE\");\n\n    uint256 _unstakinglockTime;\n\n    //Mapping to handle the Expiry period\n    mapping(address => uint256[]) _unstakingExpiration;\n\n    //Mapping to handle the Expiry amount\n    mapping(address => uint256[]) _unstakingAmount;\n\n    /**\n   * @dev Constructor for initializing the LiquidStaking contract.\n   * @param uAddress - address of the UToken contract.\n   * @param sAddress - address of the SToken contract.\n   * @param wrapperAddress - address of the tokenWrapper contract.\n   * @param bridgeAdminAddress - address of the bridge admin.\n   * @param pauserAddress - address of the pauser admin.\n   */\n    function initialize(address uAddress, address sAddress, address wrapperAddress, address bridgeAdminAddress, address pauserAddress) public virtual initializer  {\n        __AccessControl_init();\n        __Pausable_init();\n        _setupRole(DEFAULT_ADMIN_ROLE, _msgSender());\n        _setupRole(BRIDGE_ADMIN_ROLE, bridgeAdminAddress);\n        _setupRole(PAUSER_ROLE, pauserAddress);\n        setUTokensContract(uAddress);\n        setSTokensContract(sAddress);\n        setWrapperContract(wrapperAddress);\n        _unstakinglockTime = 21 days;\n    }\n\n    /**\n     * @dev Set 'contract address', called from constructor\n     * @param uAddress: utoken contract address\n     *\n     * Emits a {SetContract} event with '_contract' set to the utoken contract address.\n     *\n     */\n    function setUTokensContract(address uAddress) public virtual override whenNotPaused {\n        require(hasRole(DEFAULT_ADMIN_ROLE, _msgSender()), \"LiquidStaking: User not authorised to set UToken contract\");\n        _uTokens = IUTokens(uAddress);\n        emit SetUTokensContract(uAddress);\n    }\n\n    /**\n     * @dev Set 'contract address', called from constructor\n     * @param sAddress: stoken contract address\n     *\n     * Emits a {SetContract} event with '_contract' set to the stoken contract address.\n     *\n     */\n    function setSTokensContract(address sAddress) public virtual override whenNotPaused {\n        require(hasRole(DEFAULT_ADMIN_ROLE, _msgSender()), \"LiquidStaking: User not authorised to set SToken contract\");\n        _sTokens = ISTokens(sAddress);\n        emit SetSTokensContract(sAddress);\n    }\n    /*\n    * @dev Set 'contract address', called from constructor\n    * @param sAddress: stoken contract address\n    *\n    * Emits a {SetContract} event with '_contract' set to the stoken contract address.\n    *\n    */\n    function setWrapperContract(address wrapperAddress) public virtual override whenNotPaused {\n        require(hasRole(DEFAULT_ADMIN_ROLE, _msgSender()), \"LiquidStaking: User not authorised to set wrapper contract\");\n        _tokenWrapper = ITokenWrapper(wrapperAddress);\n        emit SetWrapperContract(wrapperAddress);\n    }\n\n    /**\n    * @dev Stake utokens over the platform with address 'to' for desired 'utok'(Burn uTokens and Mint sTokens)\n    * @param to: user address for staking, utok: number of tokens to stake\n    *\n    *\n    * Requirements:\n    *\n    * - `utok` cannot be less than zero.\n    * - 'utok' cannot be more than balance\n    * - 'utok' plus new balance should be equal to the old balance\n    */\n    function stake(address to, uint256 utok) public virtual override whenNotPaused returns(bool)  {\n        // Check the supplied amount is greater than 0\n        require(utok>0, \"LiquidStaking: Number of staked tokens should be greater than 0\");\n        require(to == _msgSender(), \"LiquidStaking: Staking can only be done by Staker\");\n        // require(hasRole(STAKER_ROLE, _msgSender()), \"LiquidStaking: Staking can only be done by Staker\");\n        // Check the current balance for uTokens is greater than the amount to be staked\n        uint256 _currentUTokenBalance = _uTokens.balanceOf(to);\n        require(_currentUTokenBalance>=utok, \"LiquidStaking: Insuffcient balance for account\");\n        emit StakeTokens(to, utok, block.timestamp);\n        // Burn the uTokens as specified with the amount\n        _uTokens.burn(to, utok);\n        // Mint the sTokens for the account specified\n        _sTokens.mint(to, utok);\n        return true;\n    }\n\n    /**\n     * @dev UnStake stokens over the platform with address 'to' for desired 'stok' (Burn sTokens and Mint uTokens with 21 days locking period)\n     * @param to: user address for staking, stok: number of tokens to unstake\n     *\n     *\n     * Requirements:\n     *\n     * - `stok` cannot be less than zero.\n     * - 'stok' cannot be more than balance\n     * - 'stok' plus new balance should be equal to the old balance\n     */\n    function unStake(address to, uint256 stok) public virtual override whenNotPaused returns(bool) {\n        // Check the supplied amount is greater than 0\n        require(to == _msgSender(), \"LiquidStaking: Unstaking can only be done by Stakerr\");\n        require(stok>0, \"LiquidStaking: Number of unstaked tokens should be greater than 0\");\n        // Check the current balance for sTokens is greater than the amount to be unStaked\n        uint256 _currentSTokenBalance = _sTokens.balanceOf(to);\n        require(_currentSTokenBalance>=stok, \"LiquidStaking: Insuffcient balance for account\");\n        emit UnstakeTokens(to, stok, block.timestamp);\n        // Burn the sTokens as specified with the amount\n        _sTokens.burn(to, stok);\n        _unstakingExpiration[to].push(block.timestamp + _unstakinglockTime);\n        _unstakingAmount[to].push(stok);\n        return true;\n    }\n\n    /**\n     * @dev Lock the unstaked tokens for 21 days, user can withdraw the same (Mint uTokens with 21 days locking period)\n     *\n     * Requirements:\n     *\n     * - `current block timestamp` should be after 21 days from the period where unstaked function is called.\n     */\n    function withdrawUnstakedTokens(address staker) public virtual override whenNotPaused{\n        require(staker == _msgSender(), \"LiquidStaking: Only staker can withdraw\");\n        // require(hasRole(STAKER_ROLE, _msgSender()), \"LiquidStaking: Only staker can withdrawr\");\n        uint256 _withdrawBalance;\n        for (uint256 i=0; i<_unstakingExpiration[staker].length; i++) {\n            if (block.timestamp > _unstakingExpiration[staker][i]) {\n                _withdrawBalance = _withdrawBalance + _unstakingAmount[staker][i];\n                _unstakingExpiration[staker][i] = 0;\n                _unstakingAmount[staker][i] = 0;\n            }\n        }\n        require(_withdrawBalance > 0, \"LiquidStaking: UnStaking period still pending\");\n        emit WithdrawUnstakeTokens(staker, _withdrawBalance, block.timestamp);\n        _uTokens.mint(_msgSender(), _withdrawBalance);\n    }\n\n    /**\n     * @dev get Total Unbonded Tokens\n     * @param staker: account address\n     *\n     */\n    function getTotalUnbondedTokens(address staker) public view virtual override whenNotPaused returns (uint256 unbondingTokens) {\n        if(staker == _msgSender()){\n            for (uint256 i=0; i<_unstakingExpiration[staker].length; i++) {\n                if (block.timestamp > _unstakingExpiration[staker][i]) {\n                    unbondingTokens = unbondingTokens + _unstakingAmount[staker][i];\n                }\n            }\n        }\n        return unbondingTokens;\n    }\n\n    /**\n      * @dev Triggers stopped state.\n      *\n      * Requirements:\n      *\n      * - The contract must not be paused.\n      */\n    function pause() public virtual override returns (bool success) {\n        require(hasRole(PAUSER_ROLE, _msgSender()), \"LiquidStaking: User not authorised to pause contracts.\");\n        _pause();\n        return true;\n    }\n\n    /**\n     * @dev Returns to normal state.\n     *\n     * Requirements:\n     *\n     * - The contract must be paused.\n     */\n    function unpause() public virtual override returns (bool success) {\n        require(hasRole(PAUSER_ROLE, _msgSender()), \"LiquidStaking: User not authorised to unpause contracts.\");\n        _unpause();\n        return true;\n    }\n}",
  "sourcePath": "/home/aditimahesh/Documents/Work/Persistence/go/src/github.com/persistenceOne/pStakeSmartContracts/contracts/LiquidStaking.sol",
  "compiler": {
    "name": "solc",
    "version": "0.7.6+commit.7338295f.Emscripten.clang"
  },
  "schemaVersion": "3.3.4",
  "updatedAt": "2021-03-31T06:39:49.059Z",
  "networkType": "ethereum",
  "devdoc": {
    "kind": "dev",
    "methods": {
      "getRoleAdmin(bytes32)": {
        "details": "Returns the admin role that controls `role`. See {grantRole} and {revokeRole}. To change a role's admin, use {_setRoleAdmin}."
      },
      "getRoleMember(bytes32,uint256)": {
        "details": "Returns one of the accounts that have `role`. `index` must be a value between 0 and {getRoleMemberCount}, non-inclusive. Role bearers are not sorted in any particular way, and their ordering may change at any point. WARNING: When using {getRoleMember} and {getRoleMemberCount}, make sure you perform all queries on the same block. See the following https://forum.openzeppelin.com/t/iterating-over-elements-on-enumerableset-in-openzeppelin-contracts/2296[forum post] for more information."
      },
      "getRoleMemberCount(bytes32)": {
        "details": "Returns the number of accounts that have `role`. Can be used together with {getRoleMember} to enumerate all bearers of a role."
      },
      "getTotalUnbondedTokens(address)": {
        "details": "get Total Unbonded Tokens",
        "params": {
          "staker": ": account address"
        }
      },
      "grantRole(bytes32,address)": {
        "details": "Grants `role` to `account`. If `account` had not been already granted `role`, emits a {RoleGranted} event. Requirements: - the caller must have ``role``'s admin role."
      },
      "hasRole(bytes32,address)": {
        "details": "Returns `true` if `account` has been granted `role`."
      },
      "initialize(address,address,address,address,address)": {
        "details": "Constructor for initializing the LiquidStaking contract.",
        "params": {
          "bridgeAdminAddress": "- address of the bridge admin.",
          "pauserAddress": "- address of the pauser admin.",
          "sAddress": "- address of the SToken contract.",
          "uAddress": "- address of the UToken contract.",
          "wrapperAddress": "- address of the tokenWrapper contract."
        }
      },
      "pause()": {
        "details": "Triggers stopped state. Requirements: - The contract must not be paused."
      },
      "paused()": {
        "details": "Returns true if the contract is paused, and false otherwise."
      },
      "renounceRole(bytes32,address)": {
        "details": "Revokes `role` from the calling account. Roles are often managed via {grantRole} and {revokeRole}: this function's purpose is to provide a mechanism for accounts to lose their privileges if they are compromised (such as when a trusted device is misplaced). If the calling account had been granted `role`, emits a {RoleRevoked} event. Requirements: - the caller must be `account`."
      },
      "revokeRole(bytes32,address)": {
        "details": "Revokes `role` from `account`. If `account` had been granted `role`, emits a {RoleRevoked} event. Requirements: - the caller must have ``role``'s admin role."
      },
      "setSTokensContract(address)": {
        "details": "Set 'contract address', called from constructor",
        "params": {
          "sAddress": ": stoken contract address Emits a {SetContract} event with '_contract' set to the stoken contract address."
        }
      },
      "setUTokensContract(address)": {
        "details": "Set 'contract address', called from constructor",
        "params": {
          "uAddress": ": utoken contract address Emits a {SetContract} event with '_contract' set to the utoken contract address."
        }
      },
      "setWrapperContract(address)": {
        "details": "Set PegTokens smart contract. Emits a {SetContract} event."
      },
      "stake(address,uint256)": {
        "details": "Stake utokens over the platform with address 'to' for desired 'utok'(Burn uTokens and Mint sTokens)",
        "params": {
          "to": ": user address for staking, utok: number of tokens to stake Requirements: - `utok` cannot be less than zero. - 'utok' cannot be more than balance - 'utok' plus new balance should be equal to the old balance"
        }
      },
      "unStake(address,uint256)": {
        "details": "UnStake stokens over the platform with address 'to' for desired 'stok' (Burn sTokens and Mint uTokens with 21 days locking period)",
        "params": {
          "to": ": user address for staking, stok: number of tokens to unstake Requirements: - `stok` cannot be less than zero. - 'stok' cannot be more than balance - 'stok' plus new balance should be equal to the old balance"
        }
      },
      "unpause()": {
        "details": "Returns to normal state. Requirements: - The contract must be paused."
      },
      "withdrawUnstakedTokens(address)": {
        "details": "Lock the unstaked tokens for 21 days, user can withdraw the same (Mint uTokens with 21 days locking period) Requirements: - `current block timestamp` should be after 21 days from the period where unstaked function is called."
      }
    },
    "version": 1
  },
  "userdoc": {
    "kind": "user",
    "methods": {},
    "version": 1
  }
}