{
  "contractName": "LiquidStaking",
  "abi": [
    {
      "anonymous": false,
      "inputs": [
        {
          "indexed": false,
          "internalType": "address",
          "name": "account",
          "type": "address"
        }
      ],
      "name": "Paused",
      "type": "event"
    },
    {
      "anonymous": false,
      "inputs": [
        {
          "indexed": true,
          "internalType": "bytes32",
          "name": "role",
          "type": "bytes32"
        },
        {
          "indexed": true,
          "internalType": "bytes32",
          "name": "previousAdminRole",
          "type": "bytes32"
        },
        {
          "indexed": true,
          "internalType": "bytes32",
          "name": "newAdminRole",
          "type": "bytes32"
        }
      ],
      "name": "RoleAdminChanged",
      "type": "event"
    },
    {
      "anonymous": false,
      "inputs": [
        {
          "indexed": true,
          "internalType": "bytes32",
          "name": "role",
          "type": "bytes32"
        },
        {
          "indexed": true,
          "internalType": "address",
          "name": "account",
          "type": "address"
        },
        {
          "indexed": true,
          "internalType": "address",
          "name": "sender",
          "type": "address"
        }
      ],
      "name": "RoleGranted",
      "type": "event"
    },
    {
      "anonymous": false,
      "inputs": [
        {
          "indexed": true,
          "internalType": "bytes32",
          "name": "role",
          "type": "bytes32"
        },
        {
          "indexed": true,
          "internalType": "address",
          "name": "account",
          "type": "address"
        },
        {
          "indexed": true,
          "internalType": "address",
          "name": "sender",
          "type": "address"
        }
      ],
      "name": "RoleRevoked",
      "type": "event"
    },
    {
      "anonymous": false,
      "inputs": [
        {
          "indexed": false,
          "internalType": "uint256",
          "name": "stakeFee",
          "type": "uint256"
        },
        {
          "indexed": false,
          "internalType": "uint256",
          "name": "unstakeFee",
          "type": "uint256"
        }
      ],
      "name": "SetFees",
      "type": "event"
    },
    {
      "anonymous": false,
      "inputs": [
        {
          "indexed": false,
          "internalType": "uint256",
          "name": "minStake",
          "type": "uint256"
        },
        {
          "indexed": false,
          "internalType": "uint256",
          "name": "minUnstake",
          "type": "uint256"
        }
      ],
      "name": "SetMinimumValues",
      "type": "event"
    },
    {
      "anonymous": false,
      "inputs": [
        {
          "indexed": true,
          "internalType": "address",
          "name": "_contract",
          "type": "address"
        }
      ],
      "name": "SetSTokensContract",
      "type": "event"
    },
    {
      "anonymous": false,
      "inputs": [
        {
          "indexed": true,
          "internalType": "address",
          "name": "_contract",
          "type": "address"
        }
      ],
      "name": "SetUTokensContract",
      "type": "event"
    },
    {
      "anonymous": false,
      "inputs": [
        {
          "indexed": false,
          "internalType": "uint256",
          "name": "unstakeEpoch",
          "type": "uint256"
        }
      ],
      "name": "SetUnstakeEpoch",
      "type": "event"
    },
    {
      "anonymous": false,
      "inputs": [
        {
          "indexed": true,
          "internalType": "address",
          "name": "_contract",
          "type": "address"
        }
      ],
      "name": "SetWrapperContract",
      "type": "event"
    },
    {
      "anonymous": false,
      "inputs": [
        {
          "indexed": true,
          "internalType": "address",
          "name": "accountAddress",
          "type": "address"
        },
        {
          "indexed": false,
          "internalType": "uint256",
          "name": "tokens",
          "type": "uint256"
        },
        {
          "indexed": false,
          "internalType": "uint256",
          "name": "timestamp",
          "type": "uint256"
        }
      ],
      "name": "StakeTokens",
      "type": "event"
    },
    {
      "anonymous": false,
      "inputs": [
        {
          "indexed": false,
          "internalType": "address",
          "name": "account",
          "type": "address"
        }
      ],
      "name": "Unpaused",
      "type": "event"
    },
    {
      "anonymous": false,
      "inputs": [
        {
          "indexed": true,
          "internalType": "address",
          "name": "accountAddress",
          "type": "address"
        },
        {
          "indexed": false,
          "internalType": "uint256",
          "name": "tokens",
          "type": "uint256"
        },
        {
          "indexed": false,
          "internalType": "uint256",
          "name": "timestamp",
          "type": "uint256"
        }
      ],
      "name": "UnstakeTokens",
      "type": "event"
    },
    {
      "anonymous": false,
      "inputs": [
        {
          "indexed": true,
          "internalType": "address",
          "name": "accountAddress",
          "type": "address"
        },
        {
          "indexed": false,
          "internalType": "uint256",
          "name": "tokens",
          "type": "uint256"
        },
        {
          "indexed": false,
          "internalType": "uint256",
          "name": "timestamp",
          "type": "uint256"
        }
      ],
      "name": "WithdrawUnstakeTokens",
      "type": "event"
    },
    {
      "inputs": [],
      "name": "DEFAULT_ADMIN_ROLE",
      "outputs": [
        {
          "internalType": "bytes32",
          "name": "",
          "type": "bytes32"
        }
      ],
      "stateMutability": "view",
      "type": "function",
      "constant": true
    },
    {
      "inputs": [],
      "name": "PAUSER_ROLE",
      "outputs": [
        {
          "internalType": "bytes32",
          "name": "",
          "type": "bytes32"
        }
      ],
      "stateMutability": "view",
      "type": "function",
      "constant": true
    },
    {
      "inputs": [
        {
          "internalType": "bytes32",
          "name": "role",
          "type": "bytes32"
        }
      ],
      "name": "getRoleAdmin",
      "outputs": [
        {
          "internalType": "bytes32",
          "name": "",
          "type": "bytes32"
        }
      ],
      "stateMutability": "view",
      "type": "function",
      "constant": true
    },
    {
      "inputs": [
        {
          "internalType": "bytes32",
          "name": "role",
          "type": "bytes32"
        },
        {
          "internalType": "uint256",
          "name": "index",
          "type": "uint256"
        }
      ],
      "name": "getRoleMember",
      "outputs": [
        {
          "internalType": "address",
          "name": "",
          "type": "address"
        }
      ],
      "stateMutability": "view",
      "type": "function",
      "constant": true
    },
    {
      "inputs": [
        {
          "internalType": "bytes32",
          "name": "role",
          "type": "bytes32"
        }
      ],
      "name": "getRoleMemberCount",
      "outputs": [
        {
          "internalType": "uint256",
          "name": "",
          "type": "uint256"
        }
      ],
      "stateMutability": "view",
      "type": "function",
      "constant": true
    },
    {
      "inputs": [
        {
          "internalType": "bytes32",
          "name": "role",
          "type": "bytes32"
        },
        {
          "internalType": "address",
          "name": "account",
          "type": "address"
        }
      ],
      "name": "grantRole",
      "outputs": [],
      "stateMutability": "nonpayable",
      "type": "function"
    },
    {
      "inputs": [
        {
          "internalType": "bytes32",
          "name": "role",
          "type": "bytes32"
        },
        {
          "internalType": "address",
          "name": "account",
          "type": "address"
        }
      ],
      "name": "hasRole",
      "outputs": [
        {
          "internalType": "bool",
          "name": "",
          "type": "bool"
        }
      ],
      "stateMutability": "view",
      "type": "function",
      "constant": true
    },
    {
      "inputs": [],
      "name": "paused",
      "outputs": [
        {
          "internalType": "bool",
          "name": "",
          "type": "bool"
        }
      ],
      "stateMutability": "view",
      "type": "function",
      "constant": true
    },
    {
      "inputs": [
        {
          "internalType": "bytes32",
          "name": "role",
          "type": "bytes32"
        },
        {
          "internalType": "address",
          "name": "account",
          "type": "address"
        }
      ],
      "name": "renounceRole",
      "outputs": [],
      "stateMutability": "nonpayable",
      "type": "function"
    },
    {
      "inputs": [
        {
          "internalType": "bytes32",
          "name": "role",
          "type": "bytes32"
        },
        {
          "internalType": "address",
          "name": "account",
          "type": "address"
        }
      ],
      "name": "revokeRole",
      "outputs": [],
      "stateMutability": "nonpayable",
      "type": "function"
    },
    {
      "inputs": [
        {
          "internalType": "address",
          "name": "uAddress",
          "type": "address"
        },
        {
          "internalType": "address",
          "name": "sAddress",
          "type": "address"
        },
        {
          "internalType": "address",
          "name": "wrapperAddress",
          "type": "address"
        },
        {
          "internalType": "address",
          "name": "pauserAddress",
          "type": "address"
        },
        {
          "internalType": "uint256",
          "name": "feeDivisor",
          "type": "uint256"
        }
      ],
      "name": "initialize",
      "outputs": [],
      "stateMutability": "nonpayable",
      "type": "function"
    },
    {
      "inputs": [
        {
          "internalType": "uint256",
          "name": "stakeFee",
          "type": "uint256"
        },
        {
          "internalType": "uint256",
          "name": "unstakeFee",
          "type": "uint256"
        }
      ],
      "name": "setFees",
      "outputs": [
        {
          "internalType": "bool",
          "name": "success",
          "type": "bool"
        }
      ],
      "stateMutability": "nonpayable",
      "type": "function"
    },
    {
      "inputs": [],
      "name": "getFeesAndMinimumValues",
      "outputs": [
        {
          "internalType": "uint256",
          "name": "stakeFee",
          "type": "uint256"
        },
        {
          "internalType": "uint256",
          "name": "unstakeFee",
          "type": "uint256"
        },
        {
          "internalType": "uint256",
          "name": "minStake",
          "type": "uint256"
        },
        {
          "internalType": "uint256",
          "name": "minUnstake",
          "type": "uint256"
        }
      ],
      "stateMutability": "view",
      "type": "function",
      "constant": true
    },
    {
      "inputs": [
        {
          "internalType": "uint256",
          "name": "minStake",
          "type": "uint256"
        },
        {
          "internalType": "uint256",
          "name": "minUnstake",
          "type": "uint256"
        }
      ],
      "name": "setMinimumValues",
      "outputs": [
        {
          "internalType": "bool",
          "name": "success",
          "type": "bool"
        }
      ],
      "stateMutability": "nonpayable",
      "type": "function"
    },
    {
      "inputs": [
        {
          "internalType": "uint256",
          "name": "unstakeEpoch",
          "type": "uint256"
        }
      ],
      "name": "setUnstakeEpoch",
      "outputs": [
        {
          "internalType": "bool",
          "name": "success",
          "type": "bool"
        }
      ],
      "stateMutability": "nonpayable",
      "type": "function"
    },
    {
      "inputs": [
        {
          "internalType": "address",
          "name": "uAddress",
          "type": "address"
        }
      ],
      "name": "setUTokensContract",
      "outputs": [],
      "stateMutability": "nonpayable",
      "type": "function"
    },
    {
      "inputs": [
        {
          "internalType": "address",
          "name": "sAddress",
          "type": "address"
        }
      ],
      "name": "setSTokensContract",
      "outputs": [],
      "stateMutability": "nonpayable",
      "type": "function"
    },
    {
      "inputs": [
        {
          "internalType": "address",
          "name": "wrapperAddress",
          "type": "address"
        }
      ],
      "name": "setWrapperContract",
      "outputs": [],
      "stateMutability": "nonpayable",
      "type": "function"
    },
    {
      "inputs": [
        {
          "internalType": "address",
          "name": "to",
          "type": "address"
        },
        {
          "internalType": "uint256",
          "name": "utok",
          "type": "uint256"
        }
      ],
      "name": "stake",
      "outputs": [
        {
          "internalType": "bool",
          "name": "",
          "type": "bool"
        }
      ],
      "stateMutability": "nonpayable",
      "type": "function"
    },
    {
      "inputs": [
        {
          "internalType": "address",
          "name": "to",
          "type": "address"
        },
        {
          "internalType": "uint256",
          "name": "stok",
          "type": "uint256"
        }
      ],
      "name": "unStake",
      "outputs": [
        {
          "internalType": "bool",
          "name": "",
          "type": "bool"
        }
      ],
      "stateMutability": "nonpayable",
      "type": "function"
    },
    {
      "inputs": [],
      "name": "getUnstakeEpochTime",
      "outputs": [
        {
          "internalType": "uint256",
          "name": "unstakeEpochTime_",
          "type": "uint256"
        }
      ],
      "stateMutability": "view",
      "type": "function",
      "constant": true
    },
    {
      "inputs": [
        {
          "internalType": "address",
          "name": "staker",
          "type": "address"
        }
      ],
      "name": "withdrawUnstakedTokens",
      "outputs": [],
      "stateMutability": "nonpayable",
      "type": "function"
    },
    {
      "inputs": [
        {
          "internalType": "address",
          "name": "staker",
          "type": "address"
        }
      ],
      "name": "getTotalUnbondedTokens",
      "outputs": [
        {
          "internalType": "uint256",
          "name": "unbondingTokens",
          "type": "uint256"
        }
      ],
      "stateMutability": "view",
      "type": "function",
      "constant": true
    },
    {
      "inputs": [],
      "name": "pause",
      "outputs": [
        {
          "internalType": "bool",
          "name": "success",
          "type": "bool"
        }
      ],
      "stateMutability": "nonpayable",
      "type": "function"
    },
    {
      "inputs": [],
      "name": "unpause",
      "outputs": [
        {
          "internalType": "bool",
          "name": "success",
          "type": "bool"
        }
      ],
      "stateMutability": "nonpayable",
      "type": "function"
    }
  ],
  "bytecode": "0x608060405234801561001057600080fd5b50612338806100206000396000f3fe608060405234801561001057600080fd5b50600436106101735760003560e01c8063819020a0116100de578063adc9772e11610097578063d939381411610071578063d93938141461043e578063e63ab1e91461046a578063f680f67614610472578063f7013ef6146104a057610173565b8063adc9772e146103c9578063ca15c873146103f5578063d547741f1461041257610173565b8063819020a0146103205780638456cb59146103465780639010d07c1461034e57806391d148541461038d578063a11bb00b146103b9578063a217fddf146103c157610173565b80632f2ff15d116101305780632f2ff15d1461026f57806336568abe1461029b5780633f4ba83a146102c75780634e558127146102cf57806351db00e7146102f55780635c975abb1461031857610173565b80630273b70d146101785780630b210ac1146101b05780630b78f9c0146101e157806321bdf9e514610204578063248a9ca31461022c5780632e31fab814610249575b600080fd5b61019e6004803603602081101561018e57600080fd5b50356001600160a01b03166104e6565b60408051918252519081900360200190f35b6101cd600480360360208110156101c657600080fd5b50356105c1565b604080519115158252519081900360200190f35b6101cd600480360360408110156101f757600080fd5b508035906020013561064f565b61022a6004803603602081101561021a57600080fd5b50356001600160a01b03166106e7565b005b61019e6004803603602081101561024257600080fd5b5035610779565b61022a6004803603602081101561025f57600080fd5b50356001600160a01b031661078e565b61022a6004803603604081101561028557600080fd5b50803590602001356001600160a01b0316610820565b61022a600480360360408110156102b157600080fd5b50803590602001356001600160a01b0316610887565b6101cd6108e8565b61022a600480360360208110156102e557600080fd5b50356001600160a01b031661094e565b6101cd6004803603604081101561030b57600080fd5b50803590602001356109e0565b6101cd610a77565b61022a6004803603602081101561033657600080fd5b50356001600160a01b0316610a80565b6101cd610d33565b6103716004803603604081101561036457600080fd5b5080359060200135610d92565b604080516001600160a01b039092168252519081900360200190f35b6101cd600480360360408110156103a357600080fd5b50803590602001356001600160a01b0316610db1565b61019e610dc9565b61019e610e23565b6101cd600480360360408110156103df57600080fd5b506001600160a01b038135169060200135610e28565b61019e6004803603602081101561040b57600080fd5b5035611170565b61022a6004803603604081101561042857600080fd5b50803590602001356001600160a01b0316611187565b6101cd6004803603604081101561045457600080fd5b506001600160a01b0381351690602001356111e0565b61019e61152d565b61047a61153f565b604080519485526020850193909352838301919091526060830152519081900360800190f35b61022a600480360360a08110156104b657600080fd5b506001600160a01b038135811691602081013582169160408201358116916060810135909116906080013561154e565b60006104f061165d565b6001600160a01b0316826001600160a01b031614156105bc5760005b6001600160a01b038316600090815260a260205260409020548110156105ba576001600160a01b038316600090815260a26020526040902080548290811061055057fe5b90600052602060002001544211156105a8576001600160a01b038316600090815260a36020526040902080546105a591908390811061058b57fe5b90600052602060002001548361166190919063ffffffff16565b91505b6105b3816001611661565b905061050c565b505b919050565b60006105d4816105cf61165d565b610db1565b61060f5760405162461bcd60e51b8152600401808060200182810382526037815260200180611f7d6037913960400191505060405180910390fd5b60a18290556040805183815290517f2bba5083554cb054a910a49064da432edf8ab48c269f3f56d0a4ce71cf27967d9181900360200190a1506001919050565b600061065d816105cf61165d565b6106985760405162461bcd60e51b815260040180806020018281038252602e815260200180611fb4602e913960400191505060405180910390fd5b609c839055609d829055604080518481526020810184905281517f3be6e637f54f081a2dd12982cfd58481304fc98b604b18fa8ed4aa4e4a9d1532929181900390910190a15060015b92915050565b6106f460006105cf61165d565b61072f5760405162461bcd60e51b815260040180806020018281038252603981526020018061201b6039913960400191505060405180910390fd5b609780546001600160a01b0319166001600160a01b0383169081179091556040517ff745c285f36f88bea6af14d4d0f33dd9350cef7895216c1615b1caaee7857e0c90600090a250565b60009081526065602052604090206002015490565b61079b60006105cf61165d565b6107d65760405162461bcd60e51b8152600401808060200182810382526039815260200180611fe26039913960400191505060405180910390fd5b609880546001600160a01b0319166001600160a01b0383169081179091556040517fd0b9dbe26f676f4cdb02fc249c203baa0314cec79e18b4194dc862795a5de03f90600090a250565b60008281526065602052604090206002015461083e906105cf61165d565b6108795760405162461bcd60e51b815260040180806020018281038252602f815260200180611f4e602f913960400191505060405180910390fd5b61088382826116bb565b5050565b61088f61165d565b6001600160a01b0316816001600160a01b0316146108de5760405162461bcd60e51b815260040180806020018281038252602f8152602001806122d4602f913960400191505060405180910390fd5b6108838282611724565b60006109046000805160206121318339815191526105cf61165d565b61093f5760405162461bcd60e51b815260040180806020018281038252603881526020018061229c6038913960400191505060405180910390fd5b61094761178d565b5060015b90565b61095b60006105cf61165d565b6109965760405162461bcd60e51b815260040180806020018281038252603a8152602001806120f7603a913960400191505060405180910390fd5b609980546001600160a01b0319166001600160a01b0383169081179091556040517fe64d0ea1a8162224d25416ba9164fe1dae6ec14e9f846220b287c0c1c9413e0590600090a250565b60006109ee816105cf61165d565b610a295760405162461bcd60e51b81526004018080602001828103825260388152602001806121b86038913960400191505060405180910390fd5b609a839055609b829055604080518481526020810184905281517fa94d40347449ea19b873d64ed55c99772194c49791e82be5c2dc24e4c0044fe3929181900390910190a150600192915050565b60335460ff1690565b610a88610a77565b15610acd576040805162461bcd60e51b815260206004820152601060248201526f14185d5cd8589b194e881c185d5cd95960821b604482015290519081900360640190fd5b610ad561165d565b6001600160a01b0316816001600160a01b031614610b245760405162461bcd60e51b81526004018080602001828103825260278152602001806121f06027913960400191505060405180910390fd5b6000805b6001600160a01b038316600090815260a26020526040902054811015610c21576001600160a01b038316600090815260a260205260409020805482908110610b6c57fe5b9060005260206000200154421115610c0f576001600160a01b038316600090815260a3602052604090208054610ba791908390811061058b57fe5b6001600160a01b038416600090815260a2602052604081208054929450909183908110610bd057fe5b60009182526020808320909101929092556001600160a01b038516815260a390915260408120805483908110610c0257fe5b6000918252602090912001555b610c1a816001611661565b9050610b28565b5060008111610c615760405162461bcd60e51b815260040180806020018281038252602d815260200180612245602d913960400191505060405180910390fd5b6040805182815242602082015281516001600160a01b038516927f31453b59c0eb931edc765cc2400876a524254457b5534d660c9da1d74ab4666b928290030190a26097546001600160a01b03166340c10f19610cbc61165d565b836040518363ffffffff1660e01b815260040180836001600160a01b0316815260200182815260200192505050602060405180830381600087803b158015610d0357600080fd5b505af1158015610d17573d6000803e3d6000fd5b505050506040513d6020811015610d2d57600080fd5b50505050565b6000610d4f6000805160206121318339815191526105cf61165d565b610d8a5760405162461bcd60e51b81526004018080602001828103825260368152602001806121516036913960400191505060405180910390fd5b61094761182d565b6000828152606560205260408120610daa90836118b0565b9392505050565b6000828152606560205260408120610daa90836118bc565b6000804290508060a1541115610dee5760a154610de690826118d1565b91505061094b565b6000610e0560a154836118d190919063ffffffff16565b9050610e1c60a0548261192e90919063ffffffff16565b9250505090565b600081565b6000610e32610a77565b15610e77576040805162461bcd60e51b815260206004820152601060248201526f14185d5cd8589b194e881c185d5cd95960821b604482015290519081900360640190fd5b609a548211610eb75760405162461bcd60e51b815260040180806020018281038252602a815260200180612272602a913960400191505060405180910390fd5b610ebf61165d565b6001600160a01b0316836001600160a01b031614610f0e5760405162461bcd60e51b81526004018080602001828103825260318152602001806121876031913960400191505060405180910390fd5b609754604080516370a0823160e01b81526001600160a01b038681166004830152915160009392909216916370a0823191602480820192602092909190829003018186803b158015610f5f57600080fd5b505afa158015610f73573d6000803e3d6000fd5b505050506040513d6020811015610f8957600080fd5b5051905082811015610fcc5760405162461bcd60e51b815260040180806020018281038252602e815260200180612217602e913960400191505060405180910390fd5b6000611019610fe76064609e5461199590919063ffffffff16565b611013609c5461100d609e5461100760648b61199590919063ffffffff16565b90611995565b906118d1565b906119ee565b6040805182815242602082015281519293506001600160a01b038816927f106d46085b22b31d658796e9924cf39946b4105bdb86f8afba3d60d71c3cc591929181900390910190a260975460408051632770a7eb60e21b81526001600160a01b0388811660048301526024820188905291519190921691639dc29fac9160448083019260209291908290030181600087803b1580156110b757600080fd5b505af11580156110cb573d6000803e3d6000fd5b505050506040513d60208110156110e157600080fd5b5050609854604080516340c10f1960e01b81526001600160a01b03888116600483015260248201859052915191909216916340c10f199160448083019260209291908290030181600087803b15801561113957600080fd5b505af115801561114d573d6000803e3d6000fd5b505050506040513d602081101561116357600080fd5b5060019695505050505050565b60008181526065602052604081206106e190611a55565b6000828152606560205260409020600201546111a5906105cf61165d565b6108de5760405162461bcd60e51b81526004018080602001828103825260308152602001806120786030913960400191505060405180910390fd5b60006111ea610a77565b1561122f576040805162461bcd60e51b815260206004820152601060248201526f14185d5cd8589b194e881c185d5cd95960821b604482015290519081900360640190fd5b61123761165d565b6001600160a01b0316836001600160a01b0316146112865760405162461bcd60e51b8152600401808060200182810382526034815260200180611f1a6034913960400191505060405180910390fd5b609b5482116112c65760405162461bcd60e51b815260040180806020018281038252602c815260200180611ecc602c913960400191505060405180910390fd5b60a1546113045760405162461bcd60e51b81526004018080602001828103825260248152602001806120546024913960400191505060405180910390fd5b609854604080516370a0823160e01b81526001600160a01b038681166004830152915160009392909216916370a0823191602480820192602092909190829003018186803b15801561135557600080fd5b505afa158015611369573d6000803e3d6000fd5b505050506040513d602081101561137f57600080fd5b50519050828110156113c25760405162461bcd60e51b815260040180806020018281038252602e815260200180612217602e913960400191505060405180910390fd5b60006113fd6113dd6064609e5461199590919063ffffffff16565b611013609d5461100d609e5461100760648b61199590919063ffffffff16565b60985460408051632770a7eb60e21b81526001600160a01b038981166004830152602482018990529151939450911691639dc29fac916044808201926020929091908290030181600087803b15801561145557600080fd5b505af1158015611469573d6000803e3d6000fd5b505050506040513d602081101561147f57600080fd5b506000905061148c610dc9565b6001600160a01b038716600081815260a260209081526040808320609f8054825460018181018555938752858720428a0192830191015586865260a3855283862080549384018155865294849020909101889055548151888152930191830191909152805193945091927f5088bc45f380ed0275b374e62bdb9498bfc6b73641204086e7919df7b1b42c7c929181900390910190a250600195945050505050565b60008051602061213183398151915281565b609c54609d54609a5480919293565b600054610100900460ff16806115675750611567611a60565b80611575575060005460ff16155b6115b05760405162461bcd60e51b815260040180806020018281038252602e8152602001806120a8602e913960400191505060405180910390fd5b600054610100900460ff161580156115db576000805460ff1961ff0019909116610100171660011790555b6115e3611a71565b6115eb611b23565b6115fd60006115f861165d565b610879565b61161560008051602061213183398151915284610879565b61161e866106e7565b6116278561078e565b6116308461094e565b621baf80609f556203f48060a055609e8290558015611655576000805461ff00191690555b505050505050565b3390565b600082820183811015610daa576040805162461bcd60e51b815260206004820152601b60248201527f536166654d6174683a206164646974696f6e206f766572666c6f770000000000604482015290519081900360640190fd5b60008281526065602052604090206116d39082611bc0565b15610883576116e061165d565b6001600160a01b0316816001600160a01b0316837f2f8788117e7eff1d82e926ec794901d17c78024a50270940304540a733656f0d60405160405180910390a45050565b600082815260656020526040902061173c9082611bd5565b156108835761174961165d565b6001600160a01b0316816001600160a01b0316837ff6391f5c32d9c69d2a47ea670b442974b53935d1edc7fd64eb21e047a839171b60405160405180910390a45050565b611795610a77565b6117dd576040805162461bcd60e51b815260206004820152601460248201527314185d5cd8589b194e881b9bdd081c185d5cd95960621b604482015290519081900360640190fd5b6033805460ff191690557f5db9ee0a495bf2e6ff9c91a7834c1ba4fdd244a5e8aa4e537bd38aeae4b073aa61181061165d565b604080516001600160a01b039092168252519081900360200190a1565b611835610a77565b1561187a576040805162461bcd60e51b815260206004820152601060248201526f14185d5cd8589b194e881c185d5cd95960821b604482015290519081900360640190fd5b6033805460ff191660011790557f62e78cea01bee320cd4e420270b5ea74000d11b0c9f74754ebdbfc544b05a25861181061165d565b6000610daa8383611bea565b6000610daa836001600160a01b038416611c4e565b600082821115611928576040805162461bcd60e51b815260206004820152601e60248201527f536166654d6174683a207375627472616374696f6e206f766572666c6f770000604482015290519081900360640190fd5b50900390565b6000808211611984576040805162461bcd60e51b815260206004820152601860248201527f536166654d6174683a206d6f64756c6f206279207a65726f0000000000000000604482015290519081900360640190fd5b81838161198d57fe5b069392505050565b6000826119a4575060006106e1565b828202828482816119b157fe5b0414610daa5760405162461bcd60e51b81526004018080602001828103825260218152602001806120d66021913960400191505060405180910390fd5b6000808211611a44576040805162461bcd60e51b815260206004820152601a60248201527f536166654d6174683a206469766973696f6e206279207a65726f000000000000604482015290519081900360640190fd5b818381611a4d57fe5b049392505050565b60006106e182611c66565b6000611a6b30611c6a565b15905090565b600054610100900460ff1680611a8a5750611a8a611a60565b80611a98575060005460ff16155b611ad35760405162461bcd60e51b815260040180806020018281038252602e8152602001806120a8602e913960400191505060405180910390fd5b600054610100900460ff16158015611afe576000805460ff1961ff0019909116610100171660011790555b611b06611c70565b611b0e611c70565b8015611b20576000805461ff00191690555b50565b600054610100900460ff1680611b3c5750611b3c611a60565b80611b4a575060005460ff16155b611b855760405162461bcd60e51b815260040180806020018281038252602e8152602001806120a8602e913960400191505060405180910390fd5b600054610100900460ff16158015611bb0576000805460ff1961ff0019909116610100171660011790555b611bb8611c70565b611b0e611d10565b6000610daa836001600160a01b038416611dbb565b6000610daa836001600160a01b038416611e05565b81546000908210611c2c5760405162461bcd60e51b8152600401808060200182810382526022815260200180611ef86022913960400191505060405180910390fd5b826000018281548110611c3b57fe5b9060005260206000200154905092915050565b60009081526001919091016020526040902054151590565b5490565b3b151590565b600054610100900460ff1680611c895750611c89611a60565b80611c97575060005460ff16155b611cd25760405162461bcd60e51b815260040180806020018281038252602e8152602001806120a8602e913960400191505060405180910390fd5b600054610100900460ff16158015611b0e576000805460ff1961ff0019909116610100171660011790558015611b20576000805461ff001916905550565b600054610100900460ff1680611d295750611d29611a60565b80611d37575060005460ff16155b611d725760405162461bcd60e51b815260040180806020018281038252602e8152602001806120a8602e913960400191505060405180910390fd5b600054610100900460ff16158015611d9d576000805460ff1961ff0019909116610100171660011790555b6033805460ff191690558015611b20576000805461ff001916905550565b6000611dc78383611c4e565b611dfd575081546001818101845560008481526020808220909301849055845484825282860190935260409020919091556106e1565b5060006106e1565b60008181526001830160205260408120548015611ec15783546000198083019190810190600090879083908110611e3857fe5b9060005260206000200154905080876000018481548110611e5557fe5b600091825260208083209091019290925582815260018981019092526040902090840190558654879080611e8557fe5b600190038181906000526020600020016000905590558660010160008781526020019081526020016000206000905560019450505050506106e1565b60009150506106e156fe4c69717569645374616b696e673a2052657175697265732061206d696e20756e7374616b6520616d6f756e74456e756d657261626c655365743a20696e646578206f7574206f6620626f756e64734c69717569645374616b696e673a20556e7374616b696e672063616e206f6e6c7920626520646f6e65206279205374616b657272416363657373436f6e74726f6c3a2073656e646572206d75737420626520616e2061646d696e20746f206772616e744c69717569645374616b696e673a2055736572206e6f7420617574686f726973656420746f2073657420756e7374616b652065706f63684c69717569645374616b696e673a2055736572206e6f7420617574686f726973656420746f2073657420666565734c69717569645374616b696e673a2055736572206e6f7420617574686f726973656420746f207365742053546f6b656e20636f6e74726163744c69717569645374616b696e673a2055736572206e6f7420617574686f726973656420746f207365742055546f6b656e20636f6e74726163744c69717569645374616b696e673a20756e7374616b652065706f6368206e6f7420736574416363657373436f6e74726f6c3a2073656e646572206d75737420626520616e2061646d696e20746f207265766f6b65496e697469616c697a61626c653a20636f6e747261637420697320616c726561647920696e697469616c697a6564536166654d6174683a206d756c7469706c69636174696f6e206f766572666c6f774c69717569645374616b696e673a2055736572206e6f7420617574686f726973656420746f20736574207772617070657220636f6e747261637465d7a28e3265b37a6474929f336521b332c1681b933f6cb9f3376673440d862a4c69717569645374616b696e673a2055736572206e6f7420617574686f726973656420746f20706175736520636f6e7472616374732e4c69717569645374616b696e673a205374616b696e672063616e206f6e6c7920626520646f6e65206279205374616b65724c69717569645374616b696e673a2055736572206e6f7420617574686f726973656420746f20736574206d696e696d756d2076616c7565734c69717569645374616b696e673a204f6e6c79207374616b65722063616e2077697468647261774c69717569645374616b696e673a20496e737566666369656e742062616c616e636520666f72206163636f756e744c69717569645374616b696e673a20556e5374616b696e6720706572696f64207374696c6c2070656e64696e674c69717569645374616b696e673a2052657175697265732061206d696e207374616b6520616d6f756e744c69717569645374616b696e673a2055736572206e6f7420617574686f726973656420746f20756e706175736520636f6e7472616374732e416363657373436f6e74726f6c3a2063616e206f6e6c792072656e6f756e636520726f6c657320666f722073656c66a264697066735822122051b19a6e8ef1d05cdfcbbad1d6ee09a86122abe5baf3a672931b47b7f43cdf8164736f6c63430007060033",
  "immutableReferences": {},
  "source": "// SPDX-License-Identifier: UNLICENSED\npragma solidity ^0.7.0;\n\nimport \"@openzeppelin/contracts-upgradeable/math/SafeMathUpgradeable.sol\";\nimport \"@openzeppelin/contracts-upgradeable/access/AccessControlUpgradeable.sol\";\nimport \"@openzeppelin/contracts-upgradeable/utils/PausableUpgradeable.sol\";\nimport \"./interfaces/ISTokens.sol\";\nimport \"./interfaces/IUTokens.sol\";\nimport \"./interfaces/ILiquidStaking.sol\";\nimport \"./interfaces/ITokenWrapper.sol\";\n\ncontract LiquidStaking is ILiquidStaking, PausableUpgradeable, AccessControlUpgradeable {\n\n    using SafeMathUpgradeable for uint256;\n\n    //Private instances of contracts to handle Utokens and Stokens\n    IUTokens private _uTokens;\n    ISTokens private _sTokens;\n    ITokenWrapper private _tokenWrapper;\n\n    // defining the fees and minimum values\n    uint256 private _minStake;\n    uint256 private _minUnstake;\n    uint256 private _stakeFee;\n    uint256 private _unstakeFee;\n    uint256 private _feeDivisor;\n\n    bytes32 public constant PAUSER_ROLE = keccak256(\"PAUSER_ROLE\");\n\n    uint256 _unstakinglockTime;\n    uint256 _epochInterval;\n    uint256 _unstakeEpoch;\n\n    //Mapping to handle the Expiry period\n    mapping(address => uint256[]) _unstakingExpiration;\n\n    //Mapping to handle the Expiry amount\n    mapping(address => uint256[]) _unstakingAmount;\n\n    /**\n   * @dev Constructor for initializing the LiquidStaking contract.\n   * @param uAddress - address of the UToken contract.\n   * @param sAddress - address of the SToken contract.\n   * @param wrapperAddress - address of the tokenWrapper contract.\n   * @param pauserAddress - address of the pauser admin.\n   */\n    function initialize(address uAddress, address sAddress, address wrapperAddress, address pauserAddress, uint256 feeDivisor) public virtual initializer  {\n        __AccessControl_init();\n        __Pausable_init();\n        _setupRole(DEFAULT_ADMIN_ROLE, _msgSender());\n        _setupRole(PAUSER_ROLE, pauserAddress);\n        setUTokensContract(uAddress);\n        setSTokensContract(sAddress);\n        setWrapperContract(wrapperAddress);\n        _unstakinglockTime = 21 days;\n        _epochInterval = 3 days;\n        _feeDivisor = feeDivisor;\n    }\n\n    /**\n     * @dev Set 'fees', called from admin\n     * @param stakeFee: stake fee\n     * @param unstakeFee: unstake fee\n     *\n     * Emits a {SetFee} event with 'fee' set to the stake and unstake.\n     *\n     */\n    function setFees(uint256 stakeFee, uint256 unstakeFee) public virtual returns (bool success) {\n        require(hasRole(DEFAULT_ADMIN_ROLE, _msgSender()), \"LiquidStaking: User not authorised to set fees\");\n        _stakeFee = stakeFee;\n        _unstakeFee = unstakeFee;\n        emit SetFees(stakeFee, unstakeFee);\n        return true;\n    }\n\n    /**\n     * @dev get fees\n     *\n     */\n    function getFeesAndMinimumValues() public view virtual returns (uint256 stakeFee, uint256 unstakeFee, uint256 minStake, uint256 minUnstake) {\n        stakeFee = _stakeFee;\n        unstakeFee = _unstakeFee;\n        minStake = _minStake;\n        minUnstake = _minStake;\n        return (stakeFee, unstakeFee, minStake, minUnstake);\n    }\n\n    /**\n     * @dev Set 'minimum values', called from admin\n     * @param minStake: stake minimum value\n     * @param minUnstake: unstake minimum value\n     *\n     * Emits a {SetMinimumValues} event with 'minimum value' set to the stake and unstake.\n     *\n     */\n    function setMinimumValues(uint256 minStake, uint256 minUnstake) public virtual returns (bool success){\n        require(hasRole(DEFAULT_ADMIN_ROLE, _msgSender()), \"LiquidStaking: User not authorised to set minimum values\");\n        _minStake = minStake;\n        _minUnstake = minUnstake;\n        emit SetMinimumValues(minStake, minUnstake);\n        return true;\n    }\n\n    /**\n    * @dev Set 'unstake epoch', called from admin\n    * @param unstakeEpoch: unstake epoch\n    *\n    * Emits a {SetUnstakeEpoch} event with 'unstakeEpoch'\n    *\n    */\n    function setUnstakeEpoch(uint256 unstakeEpoch) public virtual returns (bool success){\n        require(hasRole(DEFAULT_ADMIN_ROLE, _msgSender()), \"LiquidStaking: User not authorised to set unstake epoch\");\n        _unstakeEpoch = unstakeEpoch;\n        emit SetUnstakeEpoch(unstakeEpoch);\n        return true;\n    }\n\n    /**\n     * @dev Set 'contract address', called from constructor\n     * @param uAddress: utoken contract address\n     *\n     * Emits a {SetContract} event with '_contract' set to the utoken contract address.\n     *\n     */\n    function setUTokensContract(address uAddress) public virtual override {\n        require(hasRole(DEFAULT_ADMIN_ROLE, _msgSender()), \"LiquidStaking: User not authorised to set UToken contract\");\n        _uTokens = IUTokens(uAddress);\n        emit SetUTokensContract(uAddress);\n    }\n\n    /**\n     * @dev Set 'contract address', called from constructor\n     * @param sAddress: stoken contract address\n     *\n     * Emits a {SetContract} event with '_contract' set to the stoken contract address.\n     *\n     */\n    function setSTokensContract(address sAddress) public virtual override {\n        require(hasRole(DEFAULT_ADMIN_ROLE, _msgSender()), \"LiquidStaking: User not authorised to set SToken contract\");\n        _sTokens = ISTokens(sAddress);\n        emit SetSTokensContract(sAddress);\n    }\n    /*\n    * @dev Set 'contract address', called from constructor\n    * @param sAddress: stoken contract address\n    *\n    * Emits a {SetContract} event with '_contract' set to the stoken contract address.\n    *\n    */\n    function setWrapperContract(address wrapperAddress) public virtual override {\n        require(hasRole(DEFAULT_ADMIN_ROLE, _msgSender()), \"LiquidStaking: User not authorised to set wrapper contract\");\n        _tokenWrapper = ITokenWrapper(wrapperAddress);\n        emit SetWrapperContract(wrapperAddress);\n    }\n\n    /**\n    * @dev Stake utokens over the platform with address 'to' for desired 'utok'(Burn uTokens and Mint sTokens)\n    * @param to: user address for staking, utok: number of tokens to stake\n    *\n    *\n    * Requirements:\n    *\n    * - `utok` cannot be less than zero.\n    * - 'utok' cannot be more than balance\n    * - 'utok' plus new balance should be equal to the old balance\n    */\n    function stake(address to, uint256 utok) public virtual override whenNotPaused returns(bool)  {\n        // Check the supplied amount is greater than 0\n        require(utok>_minStake, \"LiquidStaking: Requires a min stake amount\");\n        require(to == _msgSender(), \"LiquidStaking: Staking can only be done by Staker\");\n        // require(hasRole(STAKER_ROLE, _msgSender()), \"LiquidStaking: Staking can only be done by Staker\");\n        // Check the current balance for uTokens is greater than the amount to be staked\n        uint256 _currentUTokenBalance = _uTokens.balanceOf(to);\n        require(_currentUTokenBalance>=utok, \"LiquidStaking: Insuffcient balance for account\");\n        uint256 finalTokens = (((utok.mul(100)).mul(_feeDivisor)).sub(_stakeFee)).div(_feeDivisor.mul(100));\n        emit StakeTokens(to, finalTokens, block.timestamp);\n        // Burn the uTokens as specified with the amount\n        _uTokens.burn(to, utok);\n        // Mint the sTokens for the account specified\n        _sTokens.mint(to, finalTokens);\n        return true;\n    }\n\n    /**\n     * @dev UnStake stokens over the platform with address 'to' for desired 'stok' (Burn sTokens and Mint uTokens with 21 days locking period)\n     * @param to: user address for staking, stok: number of tokens to unstake\n     *\n     *\n     * Requirements:\n     *\n     * - `stok` cannot be less than zero.\n     * - 'stok' cannot be more than balance\n     * - 'stok' plus new balance should be equal to the old balance\n     */\n    function unStake(address to, uint256 stok) public virtual override whenNotPaused returns(bool) {\n        // Check the supplied amount is greater than 0\n        require(to == _msgSender(), \"LiquidStaking: Unstaking can only be done by Stakerr\");\n        require(stok>_minUnstake, \"LiquidStaking: Requires a min unstake amount\");\n        require(_unstakeEpoch!=0, \"LiquidStaking: unstake epoch not set\");\n        // Check the current balance for sTokens is greater than the amount to be unStaked\n        uint256 _currentSTokenBalance = _sTokens.balanceOf(to);\n        require(_currentSTokenBalance>=stok, \"LiquidStaking: Insuffcient balance for account\");\n        uint256 finalTokens = (((stok.mul(100)).mul(_feeDivisor)).sub(_unstakeFee)).div(_feeDivisor.mul(100));\n        // Burn the sTokens as specified with the amount\n        _sTokens.burn(to, stok);\n        uint256 _unstakeEpochTime = getUnstakeEpochTime();\n        _unstakingExpiration[to].push((_unstakeEpochTime + block.timestamp) + _unstakinglockTime);\n        _unstakingAmount[to].push(finalTokens);\n        emit UnstakeTokens(to, finalTokens, (_unstakeEpochTime + block.timestamp) + _unstakinglockTime);\n        return true;\n    }\n\n    /**\n     * @dev get unstake epoch time\n     */\n    function getUnstakeEpochTime() public view virtual returns (uint256 unstakeEpochTime_) {\n        uint256 _currentTime = block.timestamp;\n        if(_unstakeEpoch > _currentTime) return (_unstakeEpoch.sub(_currentTime));\n\n        uint256 _timeDiff = _currentTime.sub(_unstakeEpoch);\n        unstakeEpochTime_ = _timeDiff.mod(_epochInterval);\n        return unstakeEpochTime_;\n    }\n\n    /**\n     * @dev Lock the unstaked tokens for 21 days, user can withdraw the same (Mint uTokens with 21 days locking period)\n     *\n     * Requirements:\n     *\n     * - `current block timestamp` should be after 21 days from the period where unstaked function is called.\n     */\n    function withdrawUnstakedTokens(address staker) public virtual override whenNotPaused{\n        require(staker == _msgSender(), \"LiquidStaking: Only staker can withdraw\");\n        // require(hasRole(STAKER_ROLE, _msgSender()), \"LiquidStaking: Only staker can withdraw\");\n        uint256 _withdrawBalance;\n        for (uint256 i=0; i<_unstakingExpiration[staker].length; i=i.add(1)) {\n            if (block.timestamp > _unstakingExpiration[staker][i]) {\n                _withdrawBalance = _withdrawBalance.add(_unstakingAmount[staker][i]);\n                _unstakingExpiration[staker][i] = 0;\n                _unstakingAmount[staker][i] = 0;\n            }\n        }\n        require(_withdrawBalance > 0, \"LiquidStaking: UnStaking period still pending\");\n        emit WithdrawUnstakeTokens(staker, _withdrawBalance, block.timestamp);\n        _uTokens.mint(_msgSender(), _withdrawBalance);\n    }\n\n    /**\n     * @dev get Total Unbonded Tokens\n     * @param staker: account address\n     *\n     */\n    function getTotalUnbondedTokens(address staker) public view virtual returns (uint256 unbondingTokens) {\n        if(staker == _msgSender()){\n            for (uint256 i=0; i<_unstakingExpiration[staker].length; i=i.add(1)) {\n                if (block.timestamp > _unstakingExpiration[staker][i]) {\n                    unbondingTokens = unbondingTokens.add(_unstakingAmount[staker][i]);\n                }\n            }\n        }\n        return unbondingTokens;\n    }\n\n    /**\n      * @dev Triggers stopped state.\n      *\n      * Requirements:\n      *\n      * - The contract must not be paused.\n      */\n    function pause() public virtual returns (bool success) {\n        require(hasRole(PAUSER_ROLE, _msgSender()), \"LiquidStaking: User not authorised to pause contracts.\");\n        _pause();\n        return true;\n    }\n\n    /**\n     * @dev Returns to normal state.\n     *\n     * Requirements:\n     *\n     * - The contract must be paused.\n     */\n    function unpause() public virtual returns (bool success) {\n        require(hasRole(PAUSER_ROLE, _msgSender()), \"LiquidStaking: User not authorised to unpause contracts.\");\n        _unpause();\n        return true;\n    }\n}",
  "sourcePath": "/home/aditimahesh/Documents/Work/Persistence/go/src/github.com/persistenceOne/pStakeSmartContracts/contracts/LiquidStaking.sol",
  "compiler": {
    "name": "solc",
    "version": "0.7.6+commit.7338295f.Emscripten.clang"
  },
  "schemaVersion": "3.3.4",
  "updatedAt": "2021-05-14T12:31:28.915Z",
  "networkType": "ethereum",
  "devdoc": {
    "kind": "dev",
    "methods": {
      "getFeesAndMinimumValues()": {
        "details": "get fees"
      },
      "getRoleAdmin(bytes32)": {
        "details": "Returns the admin role that controls `role`. See {grantRole} and {revokeRole}. To change a role's admin, use {_setRoleAdmin}."
      },
      "getRoleMember(bytes32,uint256)": {
        "details": "Returns one of the accounts that have `role`. `index` must be a value between 0 and {getRoleMemberCount}, non-inclusive. Role bearers are not sorted in any particular way, and their ordering may change at any point. WARNING: When using {getRoleMember} and {getRoleMemberCount}, make sure you perform all queries on the same block. See the following https://forum.openzeppelin.com/t/iterating-over-elements-on-enumerableset-in-openzeppelin-contracts/2296[forum post] for more information."
      },
      "getRoleMemberCount(bytes32)": {
        "details": "Returns the number of accounts that have `role`. Can be used together with {getRoleMember} to enumerate all bearers of a role."
      },
      "getTotalUnbondedTokens(address)": {
        "details": "get Total Unbonded Tokens",
        "params": {
          "staker": ": account address"
        }
      },
      "getUnstakeEpochTime()": {
        "details": "get unstake epoch time"
      },
      "grantRole(bytes32,address)": {
        "details": "Grants `role` to `account`. If `account` had not been already granted `role`, emits a {RoleGranted} event. Requirements: - the caller must have ``role``'s admin role."
      },
      "hasRole(bytes32,address)": {
        "details": "Returns `true` if `account` has been granted `role`."
      },
      "initialize(address,address,address,address,uint256)": {
        "details": "Constructor for initializing the LiquidStaking contract.",
        "params": {
          "pauserAddress": "- address of the pauser admin.",
          "sAddress": "- address of the SToken contract.",
          "uAddress": "- address of the UToken contract.",
          "wrapperAddress": "- address of the tokenWrapper contract."
        }
      },
      "pause()": {
        "details": "Triggers stopped state. Requirements: - The contract must not be paused."
      },
      "paused()": {
        "details": "Returns true if the contract is paused, and false otherwise."
      },
      "renounceRole(bytes32,address)": {
        "details": "Revokes `role` from the calling account. Roles are often managed via {grantRole} and {revokeRole}: this function's purpose is to provide a mechanism for accounts to lose their privileges if they are compromised (such as when a trusted device is misplaced). If the calling account had been granted `role`, emits a {RoleRevoked} event. Requirements: - the caller must be `account`."
      },
      "revokeRole(bytes32,address)": {
        "details": "Revokes `role` from `account`. If `account` had been granted `role`, emits a {RoleRevoked} event. Requirements: - the caller must have ``role``'s admin role."
      },
      "setFees(uint256,uint256)": {
        "details": "Set 'fees', called from admin",
        "params": {
          "stakeFee": ": stake fee",
          "unstakeFee": ": unstake fee Emits a {SetFee} event with 'fee' set to the stake and unstake."
        }
      },
      "setMinimumValues(uint256,uint256)": {
        "details": "Set 'minimum values', called from admin",
        "params": {
          "minStake": ": stake minimum value",
          "minUnstake": ": unstake minimum value Emits a {SetMinimumValues} event with 'minimum value' set to the stake and unstake."
        }
      },
      "setSTokensContract(address)": {
        "details": "Set 'contract address', called from constructor",
        "params": {
          "sAddress": ": stoken contract address Emits a {SetContract} event with '_contract' set to the stoken contract address."
        }
      },
      "setUTokensContract(address)": {
        "details": "Set 'contract address', called from constructor",
        "params": {
          "uAddress": ": utoken contract address Emits a {SetContract} event with '_contract' set to the utoken contract address."
        }
      },
      "setUnstakeEpoch(uint256)": {
        "details": "Set 'unstake epoch', called from admin",
        "params": {
          "unstakeEpoch": ": unstake epoch Emits a {SetUnstakeEpoch} event with 'unstakeEpoch'"
        }
      },
      "setWrapperContract(address)": {
        "details": "Set PegTokens smart contract. Emits a {SetContract} event."
      },
      "stake(address,uint256)": {
        "details": "Stake utokens over the platform with address 'to' for desired 'utok'(Burn uTokens and Mint sTokens)",
        "params": {
          "to": ": user address for staking, utok: number of tokens to stake Requirements: - `utok` cannot be less than zero. - 'utok' cannot be more than balance - 'utok' plus new balance should be equal to the old balance"
        }
      },
      "unStake(address,uint256)": {
        "details": "UnStake stokens over the platform with address 'to' for desired 'stok' (Burn sTokens and Mint uTokens with 21 days locking period)",
        "params": {
          "to": ": user address for staking, stok: number of tokens to unstake Requirements: - `stok` cannot be less than zero. - 'stok' cannot be more than balance - 'stok' plus new balance should be equal to the old balance"
        }
      },
      "unpause()": {
        "details": "Returns to normal state. Requirements: - The contract must be paused."
      },
      "withdrawUnstakedTokens(address)": {
        "details": "Lock the unstaked tokens for 21 days, user can withdraw the same (Mint uTokens with 21 days locking period) Requirements: - `current block timestamp` should be after 21 days from the period where unstaked function is called."
      }
    },
    "version": 1
  },
  "userdoc": {
    "kind": "user",
    "methods": {},
    "version": 1
  }
}