{
  "contractName": "LiquidStakingV4",
  "abi": [
    {
      "anonymous": false,
      "inputs": [
        {
          "indexed": false,
          "internalType": "address",
          "name": "account",
          "type": "address"
        }
      ],
      "name": "Paused",
      "type": "event"
    },
    {
      "anonymous": false,
      "inputs": [
        {
          "indexed": true,
          "internalType": "bytes32",
          "name": "role",
          "type": "bytes32"
        },
        {
          "indexed": true,
          "internalType": "bytes32",
          "name": "previousAdminRole",
          "type": "bytes32"
        },
        {
          "indexed": true,
          "internalType": "bytes32",
          "name": "newAdminRole",
          "type": "bytes32"
        }
      ],
      "name": "RoleAdminChanged",
      "type": "event"
    },
    {
      "anonymous": false,
      "inputs": [
        {
          "indexed": true,
          "internalType": "bytes32",
          "name": "role",
          "type": "bytes32"
        },
        {
          "indexed": true,
          "internalType": "address",
          "name": "account",
          "type": "address"
        },
        {
          "indexed": true,
          "internalType": "address",
          "name": "sender",
          "type": "address"
        }
      ],
      "name": "RoleGranted",
      "type": "event"
    },
    {
      "anonymous": false,
      "inputs": [
        {
          "indexed": true,
          "internalType": "bytes32",
          "name": "role",
          "type": "bytes32"
        },
        {
          "indexed": true,
          "internalType": "address",
          "name": "account",
          "type": "address"
        },
        {
          "indexed": true,
          "internalType": "address",
          "name": "sender",
          "type": "address"
        }
      ],
      "name": "RoleRevoked",
      "type": "event"
    },
    {
      "anonymous": false,
      "inputs": [
        {
          "indexed": true,
          "internalType": "uint256",
          "name": "batchingLimit",
          "type": "uint256"
        },
        {
          "indexed": false,
          "internalType": "uint256",
          "name": "timestamp",
          "type": "uint256"
        }
      ],
      "name": "SetBatchingLimit",
      "type": "event"
    },
    {
      "anonymous": false,
      "inputs": [
        {
          "indexed": true,
          "internalType": "uint256",
          "name": "stakeFee",
          "type": "uint256"
        },
        {
          "indexed": true,
          "internalType": "uint256",
          "name": "unstakeFee",
          "type": "uint256"
        }
      ],
      "name": "SetFees",
      "type": "event"
    },
    {
      "anonymous": false,
      "inputs": [
        {
          "indexed": false,
          "internalType": "bool",
          "name": "ifPause",
          "type": "bool"
        }
      ],
      "name": "SetFunctionPause",
      "type": "event"
    },
    {
      "anonymous": false,
      "inputs": [
        {
          "indexed": true,
          "internalType": "address",
          "name": "_contract",
          "type": "address"
        }
      ],
      "name": "SetMigrationAdminContract",
      "type": "event"
    },
    {
      "anonymous": false,
      "inputs": [
        {
          "indexed": true,
          "internalType": "uint256",
          "name": "minStake",
          "type": "uint256"
        },
        {
          "indexed": true,
          "internalType": "uint256",
          "name": "minUnstake",
          "type": "uint256"
        }
      ],
      "name": "SetMinimumValues",
      "type": "event"
    },
    {
      "anonymous": false,
      "inputs": [
        {
          "indexed": true,
          "internalType": "address",
          "name": "_contract",
          "type": "address"
        }
      ],
      "name": "SetSTokensContract",
      "type": "event"
    },
    {
      "anonymous": false,
      "inputs": [
        {
          "indexed": true,
          "internalType": "address",
          "name": "_contract",
          "type": "address"
        }
      ],
      "name": "SetTokenWrapperContract",
      "type": "event"
    },
    {
      "anonymous": false,
      "inputs": [
        {
          "indexed": true,
          "internalType": "address",
          "name": "_contract",
          "type": "address"
        }
      ],
      "name": "SetUTokensContract",
      "type": "event"
    },
    {
      "anonymous": false,
      "inputs": [
        {
          "indexed": true,
          "internalType": "uint256",
          "name": "unstakeEpoch",
          "type": "uint256"
        },
        {
          "indexed": true,
          "internalType": "uint256",
          "name": "unstakeEpochPrevious",
          "type": "uint256"
        },
        {
          "indexed": true,
          "internalType": "uint256",
          "name": "epochInterval",
          "type": "uint256"
        }
      ],
      "name": "SetUnstakeEpoch",
      "type": "event"
    },
    {
      "anonymous": false,
      "inputs": [
        {
          "indexed": true,
          "internalType": "uint256",
          "name": "unstakingLockTime",
          "type": "uint256"
        }
      ],
      "name": "SetUnstakingLockTime",
      "type": "event"
    },
    {
      "anonymous": false,
      "inputs": [
        {
          "indexed": false,
          "internalType": "address",
          "name": "to",
          "type": "address"
        },
        {
          "indexed": false,
          "internalType": "uint256",
          "name": "stakingAmount",
          "type": "uint256"
        },
        {
          "indexed": false,
          "internalType": "uint256",
          "name": "amountStaked",
          "type": "uint256"
        },
        {
          "indexed": false,
          "internalType": "uint256",
          "name": "wrappingAmount",
          "type": "uint256"
        },
        {
          "indexed": false,
          "internalType": "uint256",
          "name": "amountWrapped",
          "type": "uint256"
        },
        {
          "indexed": false,
          "internalType": "uint256",
          "name": "timestamp",
          "type": "uint256"
        }
      ],
      "name": "StakeDirect",
      "type": "event"
    },
    {
      "anonymous": false,
      "inputs": [
        {
          "indexed": false,
          "internalType": "address[]",
          "name": "toAddressses",
          "type": "address[]"
        },
        {
          "indexed": false,
          "internalType": "uint256[]",
          "name": "stakingAmounts",
          "type": "uint256[]"
        },
        {
          "indexed": false,
          "internalType": "uint256[]",
          "name": "amountsStaked",
          "type": "uint256[]"
        },
        {
          "indexed": false,
          "internalType": "uint256[]",
          "name": "wrappingAmounts",
          "type": "uint256[]"
        },
        {
          "indexed": false,
          "internalType": "uint256[]",
          "name": "amountsWrapped",
          "type": "uint256[]"
        },
        {
          "indexed": false,
          "internalType": "uint256",
          "name": "timestamp",
          "type": "uint256"
        }
      ],
      "name": "StakeDirectInBatch",
      "type": "event"
    },
    {
      "anonymous": false,
      "inputs": [
        {
          "indexed": true,
          "internalType": "address",
          "name": "accountAddress",
          "type": "address"
        },
        {
          "indexed": true,
          "internalType": "uint256",
          "name": "tokens",
          "type": "uint256"
        },
        {
          "indexed": true,
          "internalType": "uint256",
          "name": "finalTokens",
          "type": "uint256"
        },
        {
          "indexed": false,
          "internalType": "uint256",
          "name": "timestamp",
          "type": "uint256"
        }
      ],
      "name": "StakeTokens",
      "type": "event"
    },
    {
      "anonymous": false,
      "inputs": [
        {
          "indexed": false,
          "internalType": "address",
          "name": "account",
          "type": "address"
        }
      ],
      "name": "Unpaused",
      "type": "event"
    },
    {
      "anonymous": false,
      "inputs": [
        {
          "indexed": true,
          "internalType": "address",
          "name": "accountAddress",
          "type": "address"
        },
        {
          "indexed": true,
          "internalType": "uint256",
          "name": "tokens",
          "type": "uint256"
        },
        {
          "indexed": true,
          "internalType": "uint256",
          "name": "finalTokens",
          "type": "uint256"
        },
        {
          "indexed": false,
          "internalType": "uint256",
          "name": "timestamp",
          "type": "uint256"
        }
      ],
      "name": "UnstakeTokens",
      "type": "event"
    },
    {
      "anonymous": false,
      "inputs": [
        {
          "indexed": true,
          "internalType": "address",
          "name": "accountAddress",
          "type": "address"
        },
        {
          "indexed": true,
          "internalType": "uint256",
          "name": "tokens",
          "type": "uint256"
        },
        {
          "indexed": false,
          "internalType": "uint256",
          "name": "timestamp",
          "type": "uint256"
        }
      ],
      "name": "WithdrawUnstakeTokens",
      "type": "event"
    },
    {
      "inputs": [],
      "name": "BRIDGE_ADMIN_ROLE",
      "outputs": [
        {
          "internalType": "bytes32",
          "name": "",
          "type": "bytes32"
        }
      ],
      "stateMutability": "view",
      "type": "function"
    },
    {
      "inputs": [],
      "name": "DEFAULT_ADMIN_ROLE",
      "outputs": [
        {
          "internalType": "bytes32",
          "name": "",
          "type": "bytes32"
        }
      ],
      "stateMutability": "view",
      "type": "function"
    },
    {
      "inputs": [],
      "name": "PAUSER_ROLE",
      "outputs": [
        {
          "internalType": "bytes32",
          "name": "",
          "type": "bytes32"
        }
      ],
      "stateMutability": "view",
      "type": "function"
    },
    {
      "inputs": [],
      "name": "_batchingLimit",
      "outputs": [
        {
          "internalType": "uint256",
          "name": "",
          "type": "uint256"
        }
      ],
      "stateMutability": "view",
      "type": "function"
    },
    {
      "inputs": [],
      "name": "_migrationAdminContract",
      "outputs": [
        {
          "internalType": "address",
          "name": "",
          "type": "address"
        }
      ],
      "stateMutability": "view",
      "type": "function"
    },
    {
      "inputs": [],
      "name": "_sTokens",
      "outputs": [
        {
          "internalType": "contract ISTokensV2",
          "name": "",
          "type": "address"
        }
      ],
      "stateMutability": "view",
      "type": "function"
    },
    {
      "inputs": [],
      "name": "_tokenWrapperContract",
      "outputs": [
        {
          "internalType": "address",
          "name": "",
          "type": "address"
        }
      ],
      "stateMutability": "view",
      "type": "function"
    },
    {
      "inputs": [],
      "name": "_uTokens",
      "outputs": [
        {
          "internalType": "contract IUTokensV2",
          "name": "",
          "type": "address"
        }
      ],
      "stateMutability": "view",
      "type": "function"
    },
    {
      "inputs": [
        {
          "internalType": "address",
          "name": "",
          "type": "address"
        },
        {
          "internalType": "uint256",
          "name": "",
          "type": "uint256"
        }
      ],
      "name": "_unstakingAmount",
      "outputs": [
        {
          "internalType": "uint256",
          "name": "",
          "type": "uint256"
        }
      ],
      "stateMutability": "view",
      "type": "function"
    },
    {
      "inputs": [
        {
          "internalType": "address",
          "name": "",
          "type": "address"
        },
        {
          "internalType": "uint256",
          "name": "",
          "type": "uint256"
        }
      ],
      "name": "_unstakingExpiration",
      "outputs": [
        {
          "internalType": "uint256",
          "name": "",
          "type": "uint256"
        }
      ],
      "stateMutability": "view",
      "type": "function"
    },
    {
      "inputs": [],
      "name": "_valueDivisor",
      "outputs": [
        {
          "internalType": "uint256",
          "name": "",
          "type": "uint256"
        }
      ],
      "stateMutability": "view",
      "type": "function"
    },
    {
      "inputs": [],
      "name": "_version",
      "outputs": [
        {
          "internalType": "uint256",
          "name": "",
          "type": "uint256"
        }
      ],
      "stateMutability": "view",
      "type": "function"
    },
    {
      "inputs": [
        {
          "internalType": "address",
          "name": "",
          "type": "address"
        }
      ],
      "name": "_withdrawCounters",
      "outputs": [
        {
          "internalType": "uint256",
          "name": "",
          "type": "uint256"
        }
      ],
      "stateMutability": "view",
      "type": "function"
    },
    {
      "inputs": [
        {
          "internalType": "bytes32",
          "name": "role",
          "type": "bytes32"
        }
      ],
      "name": "getRoleAdmin",
      "outputs": [
        {
          "internalType": "bytes32",
          "name": "",
          "type": "bytes32"
        }
      ],
      "stateMutability": "view",
      "type": "function"
    },
    {
      "inputs": [
        {
          "internalType": "bytes32",
          "name": "role",
          "type": "bytes32"
        },
        {
          "internalType": "uint256",
          "name": "index",
          "type": "uint256"
        }
      ],
      "name": "getRoleMember",
      "outputs": [
        {
          "internalType": "address",
          "name": "",
          "type": "address"
        }
      ],
      "stateMutability": "view",
      "type": "function"
    },
    {
      "inputs": [
        {
          "internalType": "bytes32",
          "name": "role",
          "type": "bytes32"
        }
      ],
      "name": "getRoleMemberCount",
      "outputs": [
        {
          "internalType": "uint256",
          "name": "",
          "type": "uint256"
        }
      ],
      "stateMutability": "view",
      "type": "function"
    },
    {
      "inputs": [
        {
          "internalType": "bytes32",
          "name": "role",
          "type": "bytes32"
        },
        {
          "internalType": "address",
          "name": "account",
          "type": "address"
        }
      ],
      "name": "grantRole",
      "outputs": [],
      "stateMutability": "nonpayable",
      "type": "function"
    },
    {
      "inputs": [
        {
          "internalType": "bytes32",
          "name": "role",
          "type": "bytes32"
        },
        {
          "internalType": "address",
          "name": "account",
          "type": "address"
        }
      ],
      "name": "hasRole",
      "outputs": [
        {
          "internalType": "bool",
          "name": "",
          "type": "bool"
        }
      ],
      "stateMutability": "view",
      "type": "function"
    },
    {
      "inputs": [],
      "name": "paused",
      "outputs": [
        {
          "internalType": "bool",
          "name": "",
          "type": "bool"
        }
      ],
      "stateMutability": "view",
      "type": "function"
    },
    {
      "inputs": [
        {
          "internalType": "bytes32",
          "name": "role",
          "type": "bytes32"
        },
        {
          "internalType": "address",
          "name": "account",
          "type": "address"
        }
      ],
      "name": "renounceRole",
      "outputs": [],
      "stateMutability": "nonpayable",
      "type": "function"
    },
    {
      "inputs": [
        {
          "internalType": "bytes32",
          "name": "role",
          "type": "bytes32"
        },
        {
          "internalType": "address",
          "name": "account",
          "type": "address"
        }
      ],
      "name": "revokeRole",
      "outputs": [],
      "stateMutability": "nonpayable",
      "type": "function"
    },
    {
      "inputs": [
        {
          "internalType": "address",
          "name": "uAddress",
          "type": "address"
        },
        {
          "internalType": "address",
          "name": "sAddress",
          "type": "address"
        },
        {
          "internalType": "address",
          "name": "pauserAddress",
          "type": "address"
        },
        {
          "internalType": "uint256",
          "name": "unstakingLockTime",
          "type": "uint256"
        },
        {
          "internalType": "uint256",
          "name": "epochInterval",
          "type": "uint256"
        },
        {
          "internalType": "uint256",
          "name": "valueDivisor",
          "type": "uint256"
        }
      ],
      "name": "initialize",
      "outputs": [],
      "stateMutability": "nonpayable",
      "type": "function"
    },
    {
      "inputs": [
        {
          "internalType": "uint256",
          "name": "stakeFee",
          "type": "uint256"
        },
        {
          "internalType": "uint256",
          "name": "unstakeFee",
          "type": "uint256"
        }
      ],
      "name": "setFees",
      "outputs": [
        {
          "internalType": "bool",
          "name": "success",
          "type": "bool"
        }
      ],
      "stateMutability": "nonpayable",
      "type": "function"
    },
    {
      "inputs": [
        {
          "internalType": "uint256",
          "name": "unstakingLockTime",
          "type": "uint256"
        }
      ],
      "name": "setUnstakingLockTime",
      "outputs": [
        {
          "internalType": "bool",
          "name": "success",
          "type": "bool"
        }
      ],
      "stateMutability": "nonpayable",
      "type": "function"
    },
    {
      "inputs": [],
      "name": "getTokens",
      "outputs": [
        {
          "internalType": "address",
          "name": "sTokenAddress",
          "type": "address"
        },
        {
          "internalType": "address",
          "name": "uTokenAddress",
          "type": "address"
        }
      ],
      "stateMutability": "view",
      "type": "function"
    },
    {
      "inputs": [],
      "name": "getStakeUnstakeProps",
      "outputs": [
        {
          "internalType": "uint256",
          "name": "stakeFee",
          "type": "uint256"
        },
        {
          "internalType": "uint256",
          "name": "unstakeFee",
          "type": "uint256"
        },
        {
          "internalType": "uint256",
          "name": "minStake",
          "type": "uint256"
        },
        {
          "internalType": "uint256",
          "name": "minUnstake",
          "type": "uint256"
        },
        {
          "internalType": "uint256",
          "name": "valueDivisor",
          "type": "uint256"
        },
        {
          "internalType": "uint256",
          "name": "epochInterval",
          "type": "uint256"
        },
        {
          "internalType": "uint256",
          "name": "unstakeEpoch",
          "type": "uint256"
        },
        {
          "internalType": "uint256",
          "name": "unstakeEpochPrevious",
          "type": "uint256"
        },
        {
          "internalType": "uint256",
          "name": "unstakingLockTime",
          "type": "uint256"
        }
      ],
      "stateMutability": "view",
      "type": "function"
    },
    {
      "inputs": [
        {
          "internalType": "uint256",
          "name": "minStake",
          "type": "uint256"
        },
        {
          "internalType": "uint256",
          "name": "minUnstake",
          "type": "uint256"
        }
      ],
      "name": "setMinimumValues",
      "outputs": [
        {
          "internalType": "bool",
          "name": "success",
          "type": "bool"
        }
      ],
      "stateMutability": "nonpayable",
      "type": "function"
    },
    {
      "inputs": [
        {
          "internalType": "uint256",
          "name": "unstakeEpoch",
          "type": "uint256"
        },
        {
          "internalType": "uint256",
          "name": "unstakeEpochPrevious",
          "type": "uint256"
        },
        {
          "internalType": "uint256",
          "name": "epochInterval",
          "type": "uint256"
        }
      ],
      "name": "setUnstakeEpoch",
      "outputs": [
        {
          "internalType": "bool",
          "name": "success",
          "type": "bool"
        }
      ],
      "stateMutability": "nonpayable",
      "type": "function"
    },
    {
      "inputs": [
        {
          "internalType": "address",
          "name": "uAddress",
          "type": "address"
        }
      ],
      "name": "setUTokensContract",
      "outputs": [],
      "stateMutability": "nonpayable",
      "type": "function"
    },
    {
      "inputs": [
        {
          "internalType": "address",
          "name": "sAddress",
          "type": "address"
        }
      ],
      "name": "setSTokensContract",
      "outputs": [],
      "stateMutability": "nonpayable",
      "type": "function"
    },
    {
      "inputs": [
        {
          "internalType": "address",
          "name": "tokenWrapperContract",
          "type": "address"
        }
      ],
      "name": "setTokenWrapperContract",
      "outputs": [],
      "stateMutability": "nonpayable",
      "type": "function"
    },
    {
      "inputs": [
        {
          "internalType": "address",
          "name": "migrationAdminContract",
          "type": "address"
        }
      ],
      "name": "setMigrationAdminContract",
      "outputs": [],
      "stateMutability": "nonpayable",
      "type": "function"
    },
    {
      "inputs": [
        {
          "internalType": "address",
          "name": "to",
          "type": "address"
        },
        {
          "internalType": "uint256",
          "name": "stakingAmount",
          "type": "uint256"
        },
        {
          "internalType": "uint256",
          "name": "wrappingAmount",
          "type": "uint256"
        }
      ],
      "name": "stakeDirect",
      "outputs": [
        {
          "internalType": "uint256",
          "name": "amountStaked",
          "type": "uint256"
        },
        {
          "internalType": "uint256",
          "name": "amountWrapped",
          "type": "uint256"
        }
      ],
      "stateMutability": "nonpayable",
      "type": "function"
    },
    {
      "inputs": [
        {
          "internalType": "address[]",
          "name": "toAddressses",
          "type": "address[]"
        },
        {
          "internalType": "uint256[]",
          "name": "stakingAmounts",
          "type": "uint256[]"
        },
        {
          "internalType": "uint256[]",
          "name": "wrappingAmounts",
          "type": "uint256[]"
        }
      ],
      "name": "stakeDirectInBatch",
      "outputs": [
        {
          "internalType": "uint256[]",
          "name": "amountsStaked",
          "type": "uint256[]"
        },
        {
          "internalType": "uint256[]",
          "name": "amountsWrapped",
          "type": "uint256[]"
        }
      ],
      "stateMutability": "nonpayable",
      "type": "function"
    },
    {
      "inputs": [
        {
          "internalType": "address",
          "name": "to",
          "type": "address"
        },
        {
          "internalType": "uint256",
          "name": "amount",
          "type": "uint256"
        }
      ],
      "name": "stake",
      "outputs": [
        {
          "internalType": "uint256",
          "name": "amountStaked",
          "type": "uint256"
        }
      ],
      "stateMutability": "nonpayable",
      "type": "function"
    },
    {
      "inputs": [
        {
          "internalType": "address",
          "name": "to",
          "type": "address"
        },
        {
          "internalType": "uint256",
          "name": "amount",
          "type": "uint256"
        }
      ],
      "name": "unStake",
      "outputs": [
        {
          "internalType": "uint256",
          "name": "amountUnstaked",
          "type": "uint256"
        }
      ],
      "stateMutability": "nonpayable",
      "type": "function"
    },
    {
      "inputs": [
        {
          "internalType": "uint256",
          "name": "_unstakeTimestamp",
          "type": "uint256"
        }
      ],
      "name": "getUnstakeEpochMilestone",
      "outputs": [
        {
          "internalType": "uint256",
          "name": "unstakeEpochMilestone",
          "type": "uint256"
        }
      ],
      "stateMutability": "view",
      "type": "function"
    },
    {
      "inputs": [
        {
          "internalType": "uint256",
          "name": "_unstakeTimestamp",
          "type": "uint256"
        }
      ],
      "name": "getUnstakeTime",
      "outputs": [
        {
          "internalType": "uint256",
          "name": "unstakeTime",
          "type": "uint256"
        },
        {
          "internalType": "uint256",
          "name": "unstakeEpoch",
          "type": "uint256"
        },
        {
          "internalType": "uint256",
          "name": "unstakeEpochPrevious",
          "type": "uint256"
        }
      ],
      "stateMutability": "view",
      "type": "function"
    },
    {
      "inputs": [
        {
          "internalType": "address",
          "name": "staker",
          "type": "address"
        }
      ],
      "name": "withdrawUnstakedTokens",
      "outputs": [
        {
          "internalType": "uint256",
          "name": "withdrawBalance",
          "type": "uint256"
        }
      ],
      "stateMutability": "nonpayable",
      "type": "function"
    },
    {
      "inputs": [
        {
          "internalType": "address",
          "name": "staker",
          "type": "address"
        }
      ],
      "name": "getTotalUnbondedTokens",
      "outputs": [
        {
          "internalType": "uint256",
          "name": "unbondingTokens",
          "type": "uint256"
        }
      ],
      "stateMutability": "view",
      "type": "function"
    },
    {
      "inputs": [
        {
          "internalType": "address",
          "name": "staker",
          "type": "address"
        }
      ],
      "name": "getTotalUnbondingTokens",
      "outputs": [
        {
          "internalType": "uint256",
          "name": "unbondingTokens",
          "type": "uint256"
        }
      ],
      "stateMutability": "view",
      "type": "function"
    },
    {
      "inputs": [
        {
          "internalType": "uint256",
          "name": "batchingLimit",
          "type": "uint256"
        }
      ],
      "name": "setBatchingLimit",
      "outputs": [
        {
          "internalType": "bool",
          "name": "success",
          "type": "bool"
        }
      ],
      "stateMutability": "nonpayable",
      "type": "function"
    },
    {
      "inputs": [],
      "name": "getBatchingLimit",
      "outputs": [
        {
          "internalType": "uint256",
          "name": "batchingLimit",
          "type": "uint256"
        }
      ],
      "stateMutability": "view",
      "type": "function"
    },
    {
      "inputs": [],
      "name": "pause",
      "outputs": [
        {
          "internalType": "bool",
          "name": "success",
          "type": "bool"
        }
      ],
      "stateMutability": "nonpayable",
      "type": "function"
    },
    {
      "inputs": [],
      "name": "unpause",
      "outputs": [
        {
          "internalType": "bool",
          "name": "success",
          "type": "bool"
        }
      ],
      "stateMutability": "nonpayable",
      "type": "function"
    },
    {
      "inputs": [
        {
          "internalType": "bool",
          "name": "ifPause",
          "type": "bool"
        }
      ],
      "name": "setFunctionPause",
      "outputs": [],
      "stateMutability": "nonpayable",
      "type": "function"
    }
  ],
  "bytecode": "0x608060405234801561001057600080fd5b50613332806100206000396000f3fe608060405234801561001057600080fd5b506004361061028a5760003560e01c806385e328401161015c578063b17e3165116100ce578063d79cf55a11610087578063d79cf55a14610937578063d93938141461093f578063e321fca61461096b578063e63ab1e9146109b6578063f3e6f94e146109be578063f75f0cf6146109ea5761028a565b8063b17e31651461089b578063b3deb34f146108c1578063bef1307c146108c9578063ca15c873146108e6578063d061adab14610903578063d547741f1461090b5761028a565b806391d148541161012057806391d14854146107be5780639b9eea46146107ea5780639dc77cab14610807578063a217fddf14610830578063aa6ca80814610838578063adc9772e1461086f5761028a565b806385e32840146106f5578063898a9664146107305780638cef7ca2146107565780638e28310e146107755780639010d07c1461079b5761028a565b806336568abe116102005780635c975abb116101b95780635c975abb14610667578063728a99ee1461066f578063728cdbca1461067757806378a2f074146106bf578063819020a0146106c75780638456cb59146106ed5761028a565b806336568abe146105955780633e118dbe146105c15780633f4ba83a146105c957806351db00e7146105d157806355f2323f146105f45780635c5cfb37146106435761028a565b806316027ed01161025257806316027ed0146104d057806321bdf9e5146104d8578063248a9ca3146105005780632e31fab81461051d5780632f2ff15d1461054357806331b188cc1461056f5761028a565b80630273b70d1461028f5780630b78f9c0146102c75780630e4b2943146102fe57806310ef62f61461031b578063118c38c7146104c8575b600080fd5b6102b5600480360360208110156102a557600080fd5b50356001600160a01b0316610a16565b60408051918252519081900360200190f35b6102ea600480360360408110156102dd57600080fd5b5080359060200135610aea565b604080519115158252519081900360200190f35b6102ea6004803603602081101561031457600080fd5b5035610bd6565b61042f6004803603606081101561033157600080fd5b81019060208101813564010000000081111561034c57600080fd5b82018360208201111561035e57600080fd5b8035906020019184602083028401116401000000008311171561038057600080fd5b91939092909160208101903564010000000081111561039e57600080fd5b8201836020820111156103b057600080fd5b803590602001918460208302840111640100000000831117156103d257600080fd5b9193909290916020810190356401000000008111156103f057600080fd5b82018360208201111561040257600080fd5b8035906020019184602083028401116401000000008311171561042457600080fd5b509092509050610c53565b604051808060200180602001838103835285818151815260200191508051906020019060200280838360005b8381101561047357818101518382015260200161045b565b50505050905001838103825284818151815260200191508051906020019060200280838360005b838110156104b257818101518382015260200161049a565b5050505090500194505050505060405180910390f35b6102b5610f99565b6102b5610fbd565b6104fe600480360360208110156104ee57600080fd5b50356001600160a01b0316610fc3565b005b6102b56004803603602081101561051657600080fd5b5035611054565b6104fe6004803603602081101561053357600080fd5b50356001600160a01b0316611069565b6104fe6004803603604081101561055957600080fd5b50803590602001356001600160a01b03166110fa565b6104fe6004803603602081101561058557600080fd5b50356001600160a01b0316611161565b6104fe600480360360408110156105ab57600080fd5b50803590602001356001600160a01b03166111f2565b6102b5611253565b6102ea611259565b6102ea600480360360408110156105e757600080fd5b50803590602001356112bd565b6105fc6113ba565b60408051998a5260208a0198909852888801969096526060880194909452608087019290925260a086015260c085015260e084015261010083015251908190036101200190f35b61064b6113e8565b604080516001600160a01b039092168252519081900360200190f35b6102ea6113f7565b6102b5611400565b6104fe600480360360c081101561068d57600080fd5b506001600160a01b03813581169160208101358216916040820135169060608101359060808101359060a00135611406565b61064b611521565b6102b5600480360360208110156106dd57600080fd5b50356001600160a01b0316611530565b6102ea611881565b6107126004803603602081101561070b57600080fd5b50356118df565b60408051938452602084019290925282820152519081900360600190f35b6102b56004803603602081101561074657600080fd5b50356001600160a01b0316611929565b6104fe6004803603602081101561076c57600080fd5b5035151561193b565b6104fe6004803603602081101561078b57600080fd5b50356001600160a01b03166119e2565b61064b600480360360408110156107b157600080fd5b5080359060200135611a73565b6102ea600480360360408110156107d457600080fd5b50803590602001356001600160a01b0316611a92565b6102b56004803603602081101561080057600080fd5b5035611aaa565b6102ea6004803603606081101561081d57600080fd5b5080359060208101359060400135611b58565b6102b5611c65565b610840611c6a565b60405180836001600160a01b03168152602001826001600160a01b031681526020019250505060405180910390f35b6102b56004803603604081101561088557600080fd5b506001600160a01b038135169060200135611c81565b6102b5600480360360208110156108b157600080fd5b50356001600160a01b0316611fa7565b6102b5612049565b6102ea600480360360208110156108df57600080fd5b503561204f565b6102b5600480360360208110156108fc57600080fd5b50356120da565b61064b6120f1565b6104fe6004803603604081101561092157600080fd5b50803590602001356001600160a01b0316612100565b61064b612159565b6102b56004803603604081101561095557600080fd5b506001600160a01b038135169060200135612168565b61099d6004803603606081101561098157600080fd5b506001600160a01b038135169060208101359060400135612493565b6040805192835260208301919091528051918290030190f35b6102b5612573565b6102b5600480360360408110156109d457600080fd5b506001600160a01b038135169060200135612585565b6102b560048036036040811015610a0057600080fd5b506001600160a01b0381351690602001356125b6565b6001600160a01b038116600090815260a2602090815260408083205460a4909252822054805b82811015610ae1576001600160a01b038516600090815260a2602052604081208054610a7d919084908110610a6d57fe5b90600052602060002001546118df565b50509050804210610ace576001600160a01b038616600090815260a3602052604090208054610acb919084908110610ab157fe5b9060005260206000200154866125d290919063ffffffff16565b94505b50610ada8160016125d2565b9050610a3c565b5050505b919050565b6000610afd81610af861262c565b611a92565b610b34576040805162461bcd60e51b81526020600482015260036024820152624c513160e81b604482015290519081900360640190fd5b609d54610b42906064612630565b8311158015610b5e5750609d54610b5a906064612630565b8211155b610b95576040805162461bcd60e51b815260206004820152600360248201526226289960e91b604482015290519081900360640190fd5b609b839055609c829055604051829084907f3be6e637f54f081a2dd12982cfd58481304fc98b604b18fa8ed4aa4e4a9d153290600090a35060015b92915050565b6000610be481610af861262c565b610c1b576040805162461bcd60e51b81526020600482015260036024820152624c513360e81b604482015290519081900360640190fd5b609e82905560405182907ffced4450741ad45114dbc966176eb1d16dc4f2259bc864aa395736a7e8355bbb90600090a2506001919050565b606080610c827f751b795d24b92e3d92d1d0d8f2885f4e9c9c269da350af36ae6b49069babf4bf610af861262c565b610cbc576040805162461bcd60e51b81526020600480830191909152602482015263098a264760e31b604482015290519081900360640190fd5b8685148015610cca57508483145b610d04576040805162461bcd60e51b815260206004808301919091526024820152634c51323960e01b604482015290519081900360640190fd5b60008080898067ffffffffffffffff81118015610d2057600080fd5b50604051908082528060200260200182016040528015610d4a578160200160208202803683370190505b5095508067ffffffffffffffff81118015610d6457600080fd5b50604051908082528060200260200182016040528015610d8e578160200160208202803683370190505b509450600091505b80821015610e2c57610de88c8c84818110610dad57fe5b905060200201356001600160a01b03168b8b85818110610dc957fe5b905060200201358a8a86818110610ddc57fe5b90506020020135612689565b809450819550505083868381518110610dfd57fe5b60200260200101818152505082858381518110610e1657fe5b6020908102919091010152600190910190610d96565b7fae1ff5caf707784d6d12e6dd90a042ce2994fc6f3d32634ea155dd6e352ed6cc8c8c8c8c8a8d8d8c4260405180806020018060200180602001806020018060200187815260200186810386528f8f82818152602001925060200280828437600083820152601f01601f191690910187810386528d8152602090810191508e908e0280828437600081840152601f19601f82011690508083019250505086810384528b818151815260200191508051906020019060200280838360005b83811015610f01578181015183820152602001610ee9565b5050505090500186810383528a8a828181526020019250602002808284376000838201819052601f909101601f191690920188810384528a5181528a51602091820193828d0193509102908190849084905b83811015610f6b578181015183820152602001610f53565b505050509050019e50505050505050505050505050505060405180910390a150505050965096945050505050565b7f751b795d24b92e3d92d1d0d8f2885f4e9c9c269da350af36ae6b49069babf4bf81565b60a65481565b610fd06000610af861262c565b61100a576040805162461bcd60e51b8152602060048083019190915260248201526304c5131360e41b604482015290519081900360640190fd5b609780546001600160a01b0319166001600160a01b0383169081179091556040517ff745c285f36f88bea6af14d4d0f33dd9350cef7895216c1615b1caaee7857e0c90600090a250565b60009081526065602052604090206002015490565b6110766000610af861262c565b6110b0576040805162461bcd60e51b815260206004808301919091526024820152634c51313160e01b604482015290519081900360640190fd5b609880546001600160a01b0319166001600160a01b0383169081179091556040517fd0b9dbe26f676f4cdb02fc249c203baa0314cec79e18b4194dc862795a5de03f90600090a250565b60008281526065602052604090206002015461111890610af861262c565b6111535760405162461bcd60e51b815260040180806020018281038252602f815260200180613200602f913960400191505060405180910390fd5b61115d82826128d0565b5050565b61116e6000610af861262c565b6111a8576040805162461bcd60e51b815260206004808301919091526024820152634c51323760e01b604482015290519081900360640190fd5b60a780546001600160a01b0319166001600160a01b0383169081179091556040517f2f9f272420570ea07d7da789fdc59a50c36792d6ea4f49a4d218b6f2431d049290600090a250565b6111fa61262c565b6001600160a01b0316816001600160a01b0316146112495760405162461bcd60e51b815260040180806020018281038252602f8152602001806132ce602f913960400191505060405180910390fd5b61115d8282612939565b60a55481565b60006112756000805160206132ae833981519152610af861262c565b6112af576040805162461bcd60e51b815260206004808301919091526024820152634c51323360e01b604482015290519081900360640190fd5b6112b76129a2565b50600190565b60006112cb81610af861262c565b611302576040805162461bcd60e51b815260206004820152600360248201526213144d60ea1b604482015290519081900360640190fd5b600183101561133e576040805162461bcd60e51b81526020600482015260036024820152624c513560e81b604482015290519081900360640190fd5b600182101561137a576040805162461bcd60e51b815260206004820152600360248201526226289b60e91b604482015290519081900360640190fd5b6099839055609a829055604051829084907fa94d40347449ea19b873d64ed55c99772194c49791e82be5c2dc24e4c0044fe390600090a350600192915050565b609b54609c54609954609a54609d54609f5460a05460a154609e549798969795969495939492939192909190565b60a8546001600160a01b031681565b60335460ff1690565b609d5481565b600054610100900460ff168061141f575061141f612a42565b8061142d575060005460ff16155b6114685760405162461bcd60e51b815260040180806020018281038252602e81526020018061325f602e913960400191505060405180910390fd5b600054610100900460ff16158015611493576000805460ff1961ff0019909116610100171660011790555b61149b612a53565b6114a3612b05565b6114b560006114b061262c565b611153565b6114cd6000805160206132ae83398151915286611153565b6114d687610fc3565b6114df86611069565b6114e884610bd6565b506114f46001806112bd565b50609d829055611505428085611b58565b508015611518576000805461ff00191690555b50505050505050565b6097546001600160a01b031681565b600061153a6113f7565b1561157f576040805162461bcd60e51b815260206004820152601060248201526f14185d5cd8589b194e881c185d5cd95960821b604482015290519081900360640190fd5b61158761262c565b6001600160a01b0316826001600160a01b031614806115bb57506115a961262c565b60a8546001600160a01b039081169116145b6115f5576040805162461bcd60e51b8152602060048083019190915260248201526304c5132360e41b604482015290519081900360640190fd5b6001600160a01b038216600090815260a4602052604081205460a6549091829161161f90836125d2565b6001600160a01b038616600090815260a260205260409020541161165b576001600160a01b038516600090815260a26020526040902054611668565b60a65461166890846125d2565b9050825b81811015611768576001600160a01b038616600090815260a260205260408120805461169d919084908110610a6d57fe5b50509050804210611755576001600160a01b038716600090815260a36020526040902080546116eb9190849081106116d157fe5b9060005260206000200154876125d290919063ffffffff16565b6001600160a01b038816600090815260a2602052604090208054919750908390811061171357fe5b600091825260208083209091018290556001600160a01b038916825260a390526040902080548390811061174357fe5b60009182526020822001556001909301925b506117618160016125d2565b905061166c565b50600084116117a7576040805162461bcd60e51b815260206004808301919091526024820152634c51323160e01b604482015290519081900360640190fd5b60408051428152905185916001600160a01b038816917f31453b59c0eb931edc765cc2400876a524254457b5534d660c9da1d74ab4666b9181900360200190a36001600160a01b03808616600081815260a46020908152604080832087905560975481516340c10f1960e01b81526004810195909552602485018a905290519416936340c10f1993604480820194918390030190829087803b15801561184c57600080fd5b505af1158015611860573d6000803e3d6000fd5b505050506040513d602081101561187657600080fd5b509395945050505050565b600061189d6000805160206132ae833981519152610af861262c565b6118d7576040805162461bcd60e51b815260206004808301919091526024820152632628991960e11b604482015290519081900360640190fd5b6112b7612ba2565b6000806000806118ee85611aaa565b9050806118ff576000935050611922565b60a054925060a154915061191e609e54826125d290919063ffffffff16565b9350505b9193909250565b60a46020526000908152604090205481565b6119556000805160206132ae833981519152610af861262c565b61198f576040805162461bcd60e51b815260206004808301919091526024820152634c51333160e01b604482015290519081900360640190fd5b60a78054821515600160a01b810260ff60a01b199092169190911790915560408051918252517f97d1daa8dcb074b27aea81f7c80b02e7edef85204f10102a9d294d145d91e1839181900360200190a150565b6119ef6000610af861262c565b611a29576040805162461bcd60e51b8152602060048083019190915260248201526304c5133360e41b604482015290519081900360640190fd5b60a880546001600160a01b0319166001600160a01b0383169081179091556040517f545597c224dfe39b1297653b542efa078178b71f7545347e30c429780435940190600090a250565b6000828152606560205260408120611a8b9083612c25565b9392505050565b6000828152606560205260408120611a8b9083612c31565b600081611ab957506000610ae5565b60a054158015611ac9575060a154155b80611ad45750609f54155b15611ae0575080610ae5565b8160a0541115611af3575060a054610ae5565b6000611b16611b0f60a15460a054612c4690919063ffffffff16565b84906125d2565b90506000611b2f60a05483612c4690919063ffffffff16565b9050611b5082611b4a609f5484612ca390919063ffffffff16565b906125d2565b949350505050565b6000611b6681610af861262c565b611b9d576040805162461bcd60e51b81526020600482015260036024820152624c513760e81b604482015290519081900360640190fd5b83831115611bd8576040805162461bcd60e51b8152602060048201526003602482015262098a2760eb1b604482015290519081900360640190fd5b83158015611be557508115155b15611c1d576040805162461bcd60e51b81526020600482015260036024820152624c513960e81b604482015290519081900360640190fd5b60a084905560a1839055609f8290556040518290849086907f342db083975cc0697d0f81d0876299ecbf95d909e920426089062e540904497c90600090a45060019392505050565b600081565b6098546097546001600160a01b0391821692911690565b6000611c8b6113f7565b15611cd0576040805162461bcd60e51b815260206004820152601060248201526f14185d5cd8589b194e881c185d5cd95960821b604482015290519081900360640190fd5b611cd861262c565b6001600160a01b0316836001600160a01b031614611d26576040805162461bcd60e51b815260206004808301919091526024820152632628989960e11b604482015290519081900360640190fd5b609954821015611d66576040805162461bcd60e51b815260206004808301919091526024820152634c51313360e01b604482015290519081900360640190fd5b609754604080516370a0823160e01b81526001600160a01b038681166004830152915160009392909216916370a0823191602480820192602092909190829003018186803b158015611db757600080fd5b505afa158015611dcb573d6000803e3d6000fd5b505050506040513d6020811015611de157600080fd5b5051905082811015611e23576040805162461bcd60e51b8152602060048083019190915260248201526313144c4d60e21b604482015290519081900360640190fd5b6000611e496064611e43609b54609d5488612d0a9092919063ffffffff16565b90612dc3565b9050611e558482612c46565b92508383866001600160a01b03167f5fe79871cd2431c06447cbcf2557091da5d2ed5bc640f1028f42665913786e42426040518082815260200191505060405180910390a460975460408051632770a7eb60e21b81526001600160a01b0388811660048301526024820188905291519190921691639dc29fac9160448083019260209291908290030181600087803b158015611ef057600080fd5b505af1158015611f04573d6000803e3d6000fd5b505050506040513d6020811015611f1a57600080fd5b5050609854604080516340c10f1960e01b81526001600160a01b03888116600483015260248201879052915191909216916340c10f199160448083019260209291908290030181600087803b158015611f7257600080fd5b505af1158015611f86573d6000803e3d6000fd5b505050506040513d6020811015611f9c57600080fd5b509295945050505050565b6001600160a01b038116600090815260a2602090815260408083205460a4909252822054805b82811015610ae1576001600160a01b038516600090815260a2602052604081208054611ffe919084908110610a6d57fe5b5050905080421015612036576001600160a01b038616600090815260a3602052604090208054612033919084908110610ab157fe5b94505b506120428160016125d2565b9050611fcd565b60a65490565b600061205d81610af861262c565b612097576040805162461bcd60e51b8152602060048083019190915260248201526313144c8d60e21b604482015290519081900360640190fd5b60a682905560408051428152905183917f3e0887a905af0c5764f2c25c201fa1b9595065cb7008f54fe7734fefdd8e88dc919081900360200190a2506001919050565b6000818152606560205260408120610bd090612e2a565b60a7546001600160a01b031681565b60008281526065602052604090206002015461211e90610af861262c565b6112495760405162461bcd60e51b815260040180806020018281038252603081526020018061322f6030913960400191505060405180910390fd5b6098546001600160a01b031681565b60006121726113f7565b156121b7576040805162461bcd60e51b815260206004820152601060248201526f14185d5cd8589b194e881c185d5cd95960821b604482015290519081900360640190fd5b60a754600160a01b900460ff16156121ff576040805162461bcd60e51b815260206004808301919091526024820152632628999960e11b604482015290519081900360640190fd5b61220761262c565b6001600160a01b0316836001600160a01b031614612255576040805162461bcd60e51b815260206004808301919091526024820152634c51313560e01b604482015290519081900360640190fd5b609a54821015612295576040805162461bcd60e51b81526020600480830191909152602482015263098a262760e31b604482015290519081900360640190fd5b609854604080516370a0823160e01b81526001600160a01b038681166004830152915160009392909216916370a0823191602480820192602092909190829003018186803b1580156122e657600080fd5b505afa1580156122fa573d6000803e3d6000fd5b505050506040513d602081101561231057600080fd5b5051905082811015612352576040805162461bcd60e51b815260206004808301919091526024820152634c51313960e01b604482015290519081900360640190fd5b60006123726064611e43609c54609d5488612d0a9092919063ffffffff16565b905061237e8482612c46565b92508383866001600160a01b03167f98850af53deeaf736beb3ea22091c900e8e5cfdf8153342daa366dc1d83a39fd426040518082815260200191505060405180910390a460985460408051632770a7eb60e21b81526001600160a01b0388811660048301526024820188905291519190921691639dc29fac9160448083019260209291908290030181600087803b15801561241957600080fd5b505af115801561242d573d6000803e3d6000fd5b505050506040513d602081101561244357600080fd5b5050506001600160a01b03909316600081815260a2602090815260408083208054600181810183559185528385204291015593835260a38252822080549384018155825290200181905592915050565b6000806124c27f751b795d24b92e3d92d1d0d8f2885f4e9c9c269da350af36ae6b49069babf4bf610af861262c565b6124fc576040805162461bcd60e51b815260206004808301919091526024820152634c51323560e01b604482015290519081900360640190fd5b612507858585612689565b604080516001600160a01b03891681526020810188905280820184905260608101879052608081018390524260a082015290519294509092507f7fd980aad29d3d6256218a13a2d1d8dac5cf5d7411c1c122e2503923952eddd5919081900360c00190a1935093915050565b6000805160206132ae83398151915281565b60a260205281600052604060002081815481106125a157600080fd5b90600052602060002001600091509150505481565b60a360205281600052604060002081815481106125a157600080fd5b600082820183811015611a8b576040805162461bcd60e51b815260206004820152601b60248201527f536166654d6174683a206164646974696f6e206f766572666c6f770000000000604482015290519081900360640190fd5b3390565b60008261263f57506000610bd0565b8282028284828161264c57fe5b0414611a8b5760405162461bcd60e51b815260040180806020018281038252602181526020018061328d6021913960400191505060405180910390fd5b6000806001600160a01b038516158015906126ad5750831580156126ab575082155b155b6126e7576040805162461bcd60e51b815260206004808301919091526024820152632628991b60e11b604482015290519081900360640190fd5b60008060008061270b6064611e43609b54609d548c612d0a9092919063ffffffff16565b93506127178885612c46565b955060a760009054906101000a90046001600160a01b03166001600160a01b031663ec1893b46040518163ffffffff1660e01b815260040160a06040518083038186803b15801561276757600080fd5b505afa15801561277b573d6000803e3d6000fd5b505050506040513d60a081101561279157600080fd5b50805160809091015190925090506127af6064611e43898585612d0a565b92506127bb8784612c46565b609754604080516340c10f1960e01b81526001600160a01b038d811660048301526024820185905291519398509116916340c10f19916044808201926020929091908290030181600087803b15801561281357600080fd5b505af1158015612827573d6000803e3d6000fd5b505050506040513d602081101561283d57600080fd5b5050609854604080516340c10f1960e01b81526001600160a01b038c81166004830152602482018a9052915191909216916340c10f199160448083019260209291908290030181600087803b15801561289557600080fd5b505af11580156128a9573d6000803e3d6000fd5b505050506040513d60208110156128bf57600080fd5b509599949850939650505050505050565b60008281526065602052604090206128e89082612e35565b1561115d576128f561262c565b6001600160a01b0316816001600160a01b0316837f2f8788117e7eff1d82e926ec794901d17c78024a50270940304540a733656f0d60405160405180910390a45050565b60008281526065602052604090206129519082612e4a565b1561115d5761295e61262c565b6001600160a01b0316816001600160a01b0316837ff6391f5c32d9c69d2a47ea670b442974b53935d1edc7fd64eb21e047a839171b60405160405180910390a45050565b6129aa6113f7565b6129f2576040805162461bcd60e51b815260206004820152601460248201527314185d5cd8589b194e881b9bdd081c185d5cd95960621b604482015290519081900360640190fd5b6033805460ff191690557f5db9ee0a495bf2e6ff9c91a7834c1ba4fdd244a5e8aa4e537bd38aeae4b073aa612a2561262c565b604080516001600160a01b039092168252519081900360200190a1565b6000612a4d30612e5f565b15905090565b600054610100900460ff1680612a6c5750612a6c612a42565b80612a7a575060005460ff16155b612ab55760405162461bcd60e51b815260040180806020018281038252602e81526020018061325f602e913960400191505060405180910390fd5b600054610100900460ff16158015612ae0576000805460ff1961ff0019909116610100171660011790555b612ae8612e65565b612af0612e65565b8015612b02576000805461ff00191690555b50565b600054610100900460ff1680612b1e5750612b1e612a42565b80612b2c575060005460ff16155b612b675760405162461bcd60e51b815260040180806020018281038252602e81526020018061325f602e913960400191505060405180910390fd5b600054610100900460ff16158015612b92576000805460ff1961ff0019909116610100171660011790555b612b9a612e65565b612af0612f05565b612baa6113f7565b15612bef576040805162461bcd60e51b815260206004820152601060248201526f14185d5cd8589b194e881c185d5cd95960821b604482015290519081900360640190fd5b6033805460ff191660011790557f62e78cea01bee320cd4e420270b5ea74000d11b0c9f74754ebdbfc544b05a258612a2561262c565b6000611a8b8383612fb0565b6000611a8b836001600160a01b038416613014565b600082821115612c9d576040805162461bcd60e51b815260206004820152601e60248201527f536166654d6174683a207375627472616374696f6e206f766572666c6f770000604482015290519081900360640190fd5b50900390565b6000808211612cf9576040805162461bcd60e51b815260206004820152601860248201527f536166654d6174683a206d6f64756c6f206279207a65726f0000000000000000604482015290519081900360640190fd5b818381612d0257fe5b069392505050565b6000806000612d19868661302c565b9150915060008480612d2757fe5b868809905082811115612d3b576001820391505b918290039181612d5957848381612d4e57fe5b049350505050611a8b565b848210612dad576040805162461bcd60e51b815260206004820152601a60248201527f46756c6c4d6174683a2046554c4c4449565f4f564552464c4f57000000000000604482015290519081900360640190fd5b612db8838387613059565b979650505050505050565b6000808211612e19576040805162461bcd60e51b815260206004820152601a60248201527f536166654d6174683a206469766973696f6e206279207a65726f000000000000604482015290519081900360640190fd5b818381612e2257fe5b049392505050565b6000610bd0826130c9565b6000611a8b836001600160a01b0384166130cd565b6000611a8b836001600160a01b038416613117565b3b151590565b600054610100900460ff1680612e7e5750612e7e612a42565b80612e8c575060005460ff16155b612ec75760405162461bcd60e51b815260040180806020018281038252602e81526020018061325f602e913960400191505060405180910390fd5b600054610100900460ff16158015612af0576000805460ff1961ff0019909116610100171660011790558015612b02576000805461ff001916905550565b600054610100900460ff1680612f1e5750612f1e612a42565b80612f2c575060005460ff16155b612f675760405162461bcd60e51b815260040180806020018281038252602e81526020018061325f602e913960400191505060405180910390fd5b600054610100900460ff16158015612f92576000805460ff1961ff0019909116610100171660011790555b6033805460ff191690558015612b02576000805461ff001916905550565b81546000908210612ff25760405162461bcd60e51b81526004018080602001828103825260228152602001806131de6022913960400191505060405180910390fd5b82600001828154811061300157fe5b9060005260206000200154905092915050565b60009081526001919091016020526040902054151590565b6000808060001984860990508385029250828103915082811015613051576001820391505b509250929050565b6000818103821680838161306957fe5b04925080858161307557fe5b04945080816000038161308457fe5b60028581038087028203028087028203028087028203028087028203028087028203028087028203029586029003909402930460010193909302939093010292915050565b5490565b60006130d98383613014565b61310f57508154600181810184556000848152602080822090930184905584548482528286019093526040902091909155610bd0565b506000610bd0565b600081815260018301602052604081205480156131d3578354600019808301919081019060009087908390811061314a57fe5b906000526020600020015490508087600001848154811061316757fe5b60009182526020808320909101929092558281526001898101909252604090209084019055865487908061319757fe5b60019003818190600052602060002001600090559055866001016000878152602001908152602001600020600090556001945050505050610bd0565b6000915050610bd056fe456e756d657261626c655365743a20696e646578206f7574206f6620626f756e6473416363657373436f6e74726f6c3a2073656e646572206d75737420626520616e2061646d696e20746f206772616e74416363657373436f6e74726f6c3a2073656e646572206d75737420626520616e2061646d696e20746f207265766f6b65496e697469616c697a61626c653a20636f6e747261637420697320616c726561647920696e697469616c697a6564536166654d6174683a206d756c7469706c69636174696f6e206f766572666c6f7765d7a28e3265b37a6474929f336521b332c1681b933f6cb9f3376673440d862a416363657373436f6e74726f6c3a2063616e206f6e6c792072656e6f756e636520726f6c657320666f722073656c66a26469706673582212202298f841c2975ae3ee5f579dc32d56395fefeb43045574d5a219b8b207884b4d64736f6c63430007060033",
  "immutableReferences": {},
  "source": "/*\n Copyright [2019] - [2021], PERSISTENCE TECHNOLOGIES PTE. LTD. and the pStake-smartContracts contributors\n SPDX-License-Identifier: Apache-2.0\n*/\n\npragma solidity >=0.7.0;\n\nimport \"@openzeppelin/contracts-upgradeable/math/SafeMathUpgradeable.sol\";\nimport \"@openzeppelin/contracts-upgradeable/access/AccessControlUpgradeable.sol\";\nimport \"@openzeppelin/contracts-upgradeable/utils/PausableUpgradeable.sol\";\nimport \"./interfaces/ISTokensV2.sol\";\nimport \"./interfaces/IUTokensV2.sol\";\nimport \"./interfaces/ILiquidStakingV4.sol\";\nimport \"./interfaces/ITokenWrapperV3.sol\";\nimport \"./libraries/FullMath.sol\";\n\ncontract LiquidStakingV4 is\nILiquidStakingV4,\nPausableUpgradeable,\nAccessControlUpgradeable\n{\n    using SafeMathUpgradeable for uint256;\n    using FullMath for uint256;\n\n    //Private instances of contracts to handle Utokens and Stokens\n    IUTokensV2 public _uTokens;\n    ISTokensV2 public _sTokens;\n\n    // defining the fees and minimum values\n    uint256 private _minStake;\n    uint256 private _minUnstake;\n    uint256 private _stakeFee;\n    uint256 private _unstakeFee;\n    uint256 public _valueDivisor;\n\n    // constants defining access control ROLES\n    bytes32 public constant PAUSER_ROLE = keccak256(\"PAUSER_ROLE\");\n\n    // variables pertaining to unbonding logic\n    uint256 private _unstakingLockTime;\n    uint256 private _epochInterval;\n    uint256 private _unstakeEpoch;\n    uint256 private _unstakeEpochPrevious;\n\n    //Mapping to handle the Expiry period\n    mapping(address => uint256[]) public _unstakingExpiration;\n\n    //Mapping to handle the Expiry amount\n    mapping(address => uint256[]) public _unstakingAmount;\n\n    //mappint to handle a counter variable indicating from what index to start the loop.\n    mapping(address => uint256) public _withdrawCounters;\n\n    // variable pertaining to contract upgrades versioning\n    uint256 public _version;\n\n    // variable to limit iterations in dynamic arrays\n    uint256 public _batchingLimit;\n\n    // TokenWrapper contract address\n    address public override _tokenWrapperContract;\n\n    // BRIDGE_ADMIN role constant (needs to be set)\n    bytes32 public constant BRIDGE_ADMIN_ROLE = keccak256(\"BRIDGE_ADMIN_ROLE\");\n\n    //add pause for unstake function\n    bool private _ifPaused;\n\n    // MigrationAdmin contract address\n    address public override _migrationAdminContract;\n\n    /**\n     * @dev Constructor for initializing the LiquidStaking contract.\n\t * @param uAddress - address of the UToken contract.\n\t * @param sAddress - address of the SToken contract.\n\t * @param pauserAddress - address of the pauser admin.\n\t * @param unstakingLockTime - varies from 21 hours to 21 days.\n\t * @param epochInterval - varies from 3 hours to 3 days.\n\t * @param valueDivisor - valueDivisor set to 10^9.\n\t */\n    function initialize(\n        address uAddress,\n        address sAddress,\n        address pauserAddress,\n        uint256 unstakingLockTime,\n        uint256 epochInterval,\n        uint256 valueDivisor\n    ) public virtual initializer {\n        __AccessControl_init();\n        __Pausable_init();\n        _setupRole(DEFAULT_ADMIN_ROLE, _msgSender());\n        _setupRole(PAUSER_ROLE, pauserAddress);\n        setUTokensContract(uAddress);\n        setSTokensContract(sAddress);\n        setUnstakingLockTime(unstakingLockTime);\n        setMinimumValues(1, 1);\n        _valueDivisor = valueDivisor;\n        setUnstakeEpoch(block.timestamp, block.timestamp, epochInterval);\n    }\n\n    /**\n     * @dev Set 'fees', called from admin\n\t * @param stakeFee: stake fee\n\t * @param unstakeFee: unstake fee\n\t *\n\t * Emits a {SetFees} event with 'fee' set to the stake and unstake.\n\t *\n\t */\n    function setFees(uint256 stakeFee, uint256 unstakeFee)\n    public\n    virtual\n    override\n    returns (bool success)\n    {\n        require(hasRole(DEFAULT_ADMIN_ROLE, _msgSender()), \"LQ1\");\n        // range checks for fees. Since fee cannot be more than 100%, the max cap\n        // is _valueDivisor * 100, which then brings the fees to 100 (percentage)\n        require(\n            (stakeFee <= _valueDivisor.mul(100)) &&\n            (unstakeFee <= _valueDivisor.mul(100)),\n            \"LQ2\"\n        );\n        _stakeFee = stakeFee;\n        _unstakeFee = unstakeFee;\n        emit SetFees(stakeFee, unstakeFee);\n        return true;\n    }\n\n    /**\n     * @dev Set 'unstake props', called from admin\n\t * @param unstakingLockTime: varies from 21 hours to 21 days\n\t *\n\t * Emits a {SetUnstakeProps} event with 'fee' set to the stake and unstake.\n\t *\n\t */\n    function setUnstakingLockTime(uint256 unstakingLockTime)\n    public\n    virtual\n    override\n    returns (bool success)\n    {\n        require(hasRole(DEFAULT_ADMIN_ROLE, _msgSender()), \"LQ3\");\n        _unstakingLockTime = unstakingLockTime;\n        emit SetUnstakingLockTime(unstakingLockTime);\n        return true;\n    }\n\n    /**\n     * @dev get the SToken and UToken address\n\t *\n\t */\n    function getTokens()\n    public\n    view\n    virtual\n    override\n    returns (address sTokenAddress, address uTokenAddress)\n    {\n        sTokenAddress = address(_sTokens);\n        uTokenAddress = address(_uTokens);\n    }\n\n    /**\n     * @dev get fees, min values, value divisor and epoch props\n\t *\n\t */\n    function getStakeUnstakeProps()\n    public\n    view\n    virtual\n    override\n    returns (\n        uint256 stakeFee,\n        uint256 unstakeFee,\n        uint256 minStake,\n        uint256 minUnstake,\n        uint256 valueDivisor,\n        uint256 epochInterval,\n        uint256 unstakeEpoch,\n        uint256 unstakeEpochPrevious,\n        uint256 unstakingLockTime\n    )\n    {\n        stakeFee = _stakeFee;\n        unstakeFee = _unstakeFee;\n        minStake = _minStake;\n        minUnstake = _minUnstake;\n        valueDivisor = _valueDivisor;\n        epochInterval = _epochInterval;\n        unstakeEpoch = _unstakeEpoch;\n        unstakeEpochPrevious = _unstakeEpochPrevious;\n        unstakingLockTime = _unstakingLockTime;\n    }\n\n    /**\n     * @dev Set 'minimum values', called from admin\n\t * @param minStake: stake minimum value\n\t * @param minUnstake: unstake minimum value\n\t *\n\t * Emits a {SetMinimumValues} event with 'minimum value' set to the stake and unstake.\n\t * check the anchor integration staking operation for rewards liquidation before you set _minStake\n\t *\n\t */\n    function setMinimumValues(uint256 minStake, uint256 minUnstake)\n    public\n    virtual\n    override\n    returns (bool success)\n    {\n        require(hasRole(DEFAULT_ADMIN_ROLE, _msgSender()), \"LQ4\");\n        require(minStake >= 1, \"LQ5\");\n        require(minUnstake >= 1, \"LQ6\");\n        // check the anchor integration staking operation for rewards liquidation before you set _minStake\n        _minStake = minStake;\n        _minUnstake = minUnstake;\n        emit SetMinimumValues(minStake, minUnstake);\n        return true;\n    }\n\n    /**\n     * @dev Set 'unstake epoch', called from admin\n\t * @param unstakeEpoch: unstake epoch\n\t * @param unstakeEpochPrevious: unstake epoch previous(initially set to same value as unstakeEpoch)\n\t * @param epochInterval: varies from 3 hours to 3 days\n\t *\n\t * Emits a {SetUnstakeEpoch} event with 'unstakeEpoch'\n\t *\n\t */\n    function setUnstakeEpoch(\n        uint256 unstakeEpoch,\n        uint256 unstakeEpochPrevious,\n        uint256 epochInterval\n    ) public virtual override returns (bool success) {\n        require(hasRole(DEFAULT_ADMIN_ROLE, _msgSender()), \"LQ7\");\n        require(unstakeEpochPrevious <= unstakeEpoch, \"LQ8\");\n        if (unstakeEpoch == 0 && epochInterval != 0) revert(\"LQ9\");\n        _unstakeEpoch = unstakeEpoch;\n        _unstakeEpochPrevious = unstakeEpochPrevious;\n        _epochInterval = epochInterval;\n        emit SetUnstakeEpoch(unstakeEpoch, unstakeEpochPrevious, epochInterval);\n        return true;\n    }\n\n    /**\n     * @dev Set 'contract address', called from constructor\n\t * @param uAddress: utoken contract address\n\t *\n\t * Emits a {SetUTokensContract} event with '_contract' set to the utoken contract address.\n\t *\n\t */\n    function setUTokensContract(address uAddress) public virtual override {\n        require(hasRole(DEFAULT_ADMIN_ROLE, _msgSender()), \"LQ10\");\n        _uTokens = IUTokensV2(uAddress);\n        emit SetUTokensContract(uAddress);\n    }\n\n    /**\n     * @dev Set 'contract address', called from constructor\n\t * @param sAddress: stoken contract address\n\t *\n\t * Emits a {SetSTokensContract} event with '_contract' set to the stoken contract address.\n\t *\n\t */\n    function setSTokensContract(address sAddress) public virtual override {\n        require(hasRole(DEFAULT_ADMIN_ROLE, _msgSender()), \"LQ11\");\n        _sTokens = ISTokensV2(sAddress);\n        emit SetSTokensContract(sAddress);\n    }\n\n    /**\n     * @dev Set 'contract address', called from constructor\n\t * @param tokenWrapperContract: stoken contract address\n\t *\n\t * Emits a {SetTokenWrapperContract} event with '_contract' set to the stoken contract address.\n\t *\n\t */\n    function setTokenWrapperContract(address tokenWrapperContract)\n    public\n    virtual\n    override\n    {\n        require(hasRole(DEFAULT_ADMIN_ROLE, _msgSender()), \"LQ27\");\n        _tokenWrapperContract = tokenWrapperContract;\n        emit SetTokenWrapperContract(tokenWrapperContract);\n    }\n\n    /**\n     * @dev Set 'contract address', called from admin\n\t * @param migrationAdminContract: migration admin contract address\n\t *\n\t * Emits a {SetMigrationAdminContract} event with '_contract' set to the migration admin contract address.\n\t *\n\t */\n    function setMigrationAdminContract(address migrationAdminContract)\n    public\n    virtual\n    override\n    {\n        require(hasRole(DEFAULT_ADMIN_ROLE, _msgSender()), \"LQ30\");\n        _migrationAdminContract = migrationAdminContract;\n        emit SetMigrationAdminContract(migrationAdminContract);\n    }\n\n    /**\n     * @dev Stake utokens over the platform with address 'to' for desired 'amount'(Burn uTokens and Mint sTokens)\n\t * @param to: user address for staking, amount: number of tokens to stake\n\t * @param stakingAmount: amount to be converted to stkToken\n\t * @param wrappingAmount: amount to be converted to pToken\n\t *\n\t */\n    function _stakeDirect(\n        address to,\n        uint256 stakingAmount,\n        uint256 wrappingAmount\n    ) internal returns (uint256 amountStaked, uint256 amountWrapped) {\n        // require to addres to be non zero and stakingAmount & wrappingAmount to not be zero simultaneously\n        require(\n            to != address(0) && !(stakingAmount == 0 && wrappingAmount == 0),\n            \"LQ26\"\n        );\n        // factor the fee component and find the resultant STokens to be minted\n        uint256 stakeFeeAmount;\n        uint256 depositFeeAmount;\n        uint256 depositFee;\n        uint256 valueDivisor;\n\n        stakeFeeAmount = (stakingAmount.mulDiv(_stakeFee, _valueDivisor)).div(\n            100\n        );\n        amountStaked = stakingAmount.sub(stakeFeeAmount);\n\n        // get the deposit fee from the TokenWrapper contract\n        (depositFee, , , , valueDivisor) = ITokenWrapperV3(\n            _tokenWrapperContract\n        ).getProps();\n\n        // factor the fee component and find the resultant UTokens to be minted\n        depositFeeAmount = (wrappingAmount.mulDiv(depositFee, valueDivisor))\n        .div(100);\n        amountWrapped = wrappingAmount.sub(depositFeeAmount);\n\n        // perform the mint for the staked and the wrapped amounts\n        _uTokens.mint(to, amountWrapped);\n        _sTokens.mint(to, amountStaked);\n    }\n\n    /**\n     * @dev Stake utokens over the platform with address 'to' for desired 'amount'(Burn uTokens and Mint sTokens)\n\t * @param to: user address for staking, amount: number of tokens to stake\n\t * @param stakingAmount: amount to be converted to stkToken\n\t * @param wrappingAmount: amount to be converted to pToken\n\t *\n\t */\n    function stakeDirect(\n        address to,\n        uint256 stakingAmount,\n        uint256 wrappingAmount\n    )\n    public\n    virtual\n    override\n    returns (uint256 amountStaked, uint256 amountWrapped)\n    {\n        // only bridge admin is allowed to execute this function\n        require(hasRole(BRIDGE_ADMIN_ROLE, _msgSender()), \"LQ25\");\n\n        (amountStaked, amountWrapped) = _stakeDirect(\n            to,\n            stakingAmount,\n            wrappingAmount\n        );\n\n        emit StakeDirect(\n            to,\n            stakingAmount,\n            amountStaked,\n            wrappingAmount,\n            amountWrapped,\n            block.timestamp\n        );\n    }\n\n    /**\n     * @dev Stake utokens over the platform with address 'to' for desired 'amount'(Burn uTokens and Mint sTokens)\n\t * @param toAddressses: user addresses for staking, amount: number of tokens to stake\n\t * @param stakingAmounts: amounts to be converted to stkToken\n\t * @param wrappingAmounts: amounts to be converted to pToken\n\t *\n\t * Emits a {StakeDirectInBatch} event with 'to' set to address and 'amount' set to amount of tokens.\n\t */\n    function stakeDirectInBatch(\n        address[] calldata toAddressses,\n        uint256[] calldata stakingAmounts,\n        uint256[] calldata wrappingAmounts\n    )\n    external\n    virtual\n    override\n    returns (\n        uint256[] memory amountsStaked,\n        uint256[] memory amountsWrapped\n    )\n    {\n        // only bridge admin is allowed to execute this function\n        require(hasRole(BRIDGE_ADMIN_ROLE, _msgSender()), \"LQ28\");\n\n        // require the array sizes to be equal\n        require(\n            toAddressses.length == stakingAmounts.length &&\n            stakingAmounts.length == wrappingAmounts.length,\n            \"LQ29\"\n        );\n\n        uint256 amountStaked;\n        uint256 amountWrapped;\n        uint256 index;\n        uint256 arrayLength = toAddressses.length;\n        amountsStaked = new uint256[](arrayLength);\n        amountsWrapped = new uint256[](arrayLength);\n\n        for (index = 0; index < arrayLength; index++) {\n            (amountStaked, amountWrapped) = _stakeDirect(\n                toAddressses[index],\n                stakingAmounts[index],\n                wrappingAmounts[index]\n            );\n            amountsStaked[index] = amountStaked;\n            amountsWrapped[index] = amountWrapped;\n        }\n\n        emit StakeDirectInBatch(\n            toAddressses,\n            stakingAmounts,\n            amountsStaked,\n            wrappingAmounts,\n            amountsWrapped,\n            block.timestamp\n        );\n    }\n\n    /**\n     * @dev Stake utokens over the platform with address 'to' for desired 'amount'(Burn uTokens and Mint sTokens)\n\t * @param to: user address for staking, amount: number of tokens to stake\n\t *\n\t */\n    function stake(address to, uint256 amount)\n    public\n    virtual\n    override\n    whenNotPaused\n    returns (uint256 amountStaked)\n    {\n        // Check the supplied amount is greater than minimum stake value\n        require(to == _msgSender(), \"LQ12\");\n\n        // the value which should be greater than or equal to _minStake\n        // is amount since minval applies to number of sTokens to be minted\n        require(amount >= _minStake, \"LQ13\");\n\n        // Check the current balance for uTokens is greater than the amount to be staked\n        uint256 currentUTokenBalance = _uTokens.balanceOf(to);\n        require(currentUTokenBalance >= amount, \"LQ14\");\n\n        // calculate the amountStaked by deducting fee\n        uint256 stakeFeeAmount = (amount.mulDiv(_stakeFee, _valueDivisor)).div(\n            100\n        );\n        amountStaked = amount.sub(stakeFeeAmount);\n\n        // the event needs to capture both amountStaked and  amount\n        emit StakeTokens(to, amountStaked, amount, block.timestamp);\n\n        // Burn the uTokens as specified with the amount\n        _uTokens.burn(to, amount);\n\n        // Mint the sTokens for the account specified\n        _sTokens.mint(to, amountStaked);\n    }\n\n    /**\n     * @dev UnStake stokens over the platform with address 'to' for desired 'amount'\n\t * @param to: user address for staking, amount: number of tokens to unstake\n\t * @param amount: cumulative amount of STokens to be burned\n\t *\n\t */\n    function unStake(address to, uint256 amount)\n    public\n    virtual\n    override\n    whenNotPaused\n    returns (uint256 amountUnstaked)\n    {\n\n        //check if this function is paused\n        require(_ifPaused == false, \"LQ32\");\n\n        // Check the supplied amount is greater than 0\n        require(to == _msgSender(), \"LQ15\");\n\n        // the value which should be greater than or equal to _minSUnstake\n        // is amount since minval applies to number of uTokens to be withdrawn\n        require(amount >= _minUnstake, \"LQ18\");\n\n        // Check the current balance for sTokens is greater than the amount to be unStaked\n        uint256 currentSTokenBalance = _sTokens.balanceOf(to);\n        require(currentSTokenBalance >= amount, \"LQ19\");\n\n        // calculate the amountUnstaked by deducting fee\n        uint256 unstakeFeeAmount = (amount.mulDiv(_unstakeFee, _valueDivisor))\n        .div(100);\n        amountUnstaked = amount.sub(unstakeFeeAmount);\n\n        // the event needs to capture both amountUnstaked and  amount\n        emit UnstakeTokens(to, amountUnstaked, amount, block.timestamp);\n\n        // Burn the sTokens as specified with the amount\n        _sTokens.burn(to, amount);\n        _unstakingExpiration[to].push(block.timestamp);\n        // array will hold amount and not amountUnstaked because that is the amount of\n        // uTokens pending to be credited after withdraw period\n        _unstakingAmount[to].push(amountUnstaked);\n    }\n\n    /**\n     * @dev returns the nearest epoch milestone in the future\n\t */\n    function getUnstakeEpochMilestone(uint256 _unstakeTimestamp)\n    public\n    view\n    virtual\n    override\n    returns (uint256 unstakeEpochMilestone)\n    {\n        if (_unstakeTimestamp == 0) return 0;\n        // if epoch values are not relevant, then the epoch milestone is the unstake timestamp itself (backward compatibility)\n        if (\n            (_unstakeEpoch == 0 && _unstakeEpochPrevious == 0) ||\n            _epochInterval == 0\n        ) return _unstakeTimestamp;\n        if (_unstakeEpoch > _unstakeTimestamp) return (_unstakeEpoch);\n        uint256 _referenceStartTime = (_unstakeTimestamp).add(\n            _unstakeEpoch.sub(_unstakeEpochPrevious)\n        );\n        uint256 _timeDiff = _referenceStartTime.sub(_unstakeEpoch);\n        unstakeEpochMilestone = (_timeDiff.mod(_epochInterval)).add(\n            _referenceStartTime\n        );\n        return (unstakeEpochMilestone);\n    }\n\n    /**\n     * @dev returns the time left for unbonding to finish\n\t */\n    function getUnstakeTime(uint256 _unstakeTimestamp)\n    public\n    view\n    virtual\n    override\n    returns (\n        uint256 unstakeTime,\n        uint256 unstakeEpoch,\n        uint256 unstakeEpochPrevious\n    )\n    {\n        uint256 _unstakeEpochMilestone = getUnstakeEpochMilestone(\n            _unstakeTimestamp\n        );\n        if (_unstakeEpochMilestone == 0)\n            return (0, unstakeEpoch, unstakeEpochPrevious);\n        unstakeEpoch = _unstakeEpoch;\n        unstakeEpochPrevious = _unstakeEpochPrevious;\n        //adding unstakingLockTime with epoch difference\n        unstakeTime = _unstakeEpochMilestone.add(_unstakingLockTime);\n        return (unstakeTime, unstakeEpoch, unstakeEpochPrevious);\n    }\n\n    /**\n     * @dev Lock the unstaked tokens for 21 days, user can withdraw the same (Mint uTokens with 21 days locking period)\n\t *\n\t * @param staker: user address for withdraw\n\t *\n\t */\n    function withdrawUnstakedTokens(address staker)\n    public\n    virtual\n    override\n    whenNotPaused\n    returns (uint256 withdrawBalance)\n    {\n        require(staker == _msgSender() || _migrationAdminContract == _msgSender(), \"LQ20\");\n        uint256 counter = _withdrawCounters[staker];\n        uint256 counter2 = _withdrawCounters[staker];\n        uint256 unstakingExpirationLength = _unstakingExpiration[staker]\n        .length > _batchingLimit.add(counter)\n        ? _batchingLimit.add(counter)\n        : _unstakingExpiration[staker].length;\n\n        for (uint256 i = counter; i < unstakingExpirationLength; i = i.add(1)) {\n            //get getUnstakeTime and compare it with current timestamp to check if 21 days + epoch difference has passed\n            (uint256 _getUnstakeTime, , ) = getUnstakeTime(\n                _unstakingExpiration[staker][i]\n            );\n            if (block.timestamp >= _getUnstakeTime) {\n                //if 21 days + epoch difference has passed, then add the balance and then mint uTokens\n                withdrawBalance = withdrawBalance.add(\n                    _unstakingAmount[staker][i]\n                );\n                delete _unstakingExpiration[staker][i];\n                delete _unstakingAmount[staker][i];\n                counter2++;\n            }\n        }\n\n        // require withdrawBalance to be non zero\n        require(withdrawBalance > 0, \"LQ21\");\n\n        // emit an event\n        emit WithdrawUnstakeTokens(staker, withdrawBalance, block.timestamp);\n\n        // update _withdrawCounters[staker] only once outside for loop to save gas\n        _withdrawCounters[staker] = counter2;\n        _uTokens.mint(staker, withdrawBalance);\n    }\n\n    /**\n     * @dev get Total Unbonded Tokens\n\t * @param staker: account address\n\t *\n\t */\n    function getTotalUnbondedTokens(address staker)\n    public\n    view\n    virtual\n    override\n    returns (uint256 unbondingTokens)\n    {\n        uint256 _unstakingExpirationLength = _unstakingExpiration[staker]\n        .length;\n        uint256 _counter = _withdrawCounters[staker];\n        for (\n            uint256 i = _counter;\n            i < _unstakingExpirationLength;\n            i = i.add(1)\n        ) {\n            //get getUnstakeTime and compare it with current timestamp to check if 21 days + epoch difference has passed\n            (uint256 _getUnstakeTime, , ) = getUnstakeTime(\n                _unstakingExpiration[staker][i]\n            );\n            if (block.timestamp >= _getUnstakeTime) {\n                //if 21 days + epoch difference has passed, then check the token amount and send back\n                unbondingTokens = unbondingTokens.add(\n                    _unstakingAmount[staker][i]\n                );\n            }\n        }\n        return unbondingTokens;\n    }\n\n    /**\n     * @dev get Total Unbonding Tokens\n\t * @param staker: account address\n\t *\n\t */\n    function getTotalUnbondingTokens(address staker)\n    public\n    view\n    virtual\n    override\n    returns (uint256 unbondingTokens)\n    {\n        uint256 _unstakingExpirationLength = _unstakingExpiration[staker]\n        .length;\n        uint256 _counter = _withdrawCounters[staker];\n        for (\n            uint256 i = _counter;\n            i < _unstakingExpirationLength;\n            i = i.add(1)\n        ) {\n            //get getUnstakeTime and compare it with current timestamp to check if 21 days + epoch difference has passed\n            (uint256 _getUnstakeTime, , ) = getUnstakeTime(\n                _unstakingExpiration[staker][i]\n            );\n            if (block.timestamp < _getUnstakeTime) {\n                //if 21 days + epoch difference have not passed, then check the token amount and send back\n                unbondingTokens = unbondingTokens.add(\n                    _unstakingAmount[staker][i]\n                );\n            }\n        }\n        return unbondingTokens;\n    }\n\n    /**\n     * @dev Set 'batching limit', called from admin\n\t * Emits a {SetBatchingLimit} event.\n\t *\n\t */\n    function setBatchingLimit(uint256 batchingLimit)\n    public\n    virtual\n    override\n    returns (bool success)\n    {\n        require(hasRole(DEFAULT_ADMIN_ROLE, _msgSender()), \"LQ24\");\n        _batchingLimit = batchingLimit;\n        emit SetBatchingLimit(batchingLimit, block.timestamp);\n        success = true;\n        return success;\n    }\n\n    /**\n     * @dev get batching limit\n\t *\n\t */\n    function getBatchingLimit()\n    public\n    view\n    virtual\n    override\n    returns (uint256 batchingLimit)\n    {\n        batchingLimit = _batchingLimit;\n    }\n\n    /**\n     * @dev Triggers stopped state.\n\t *\n\t */\n    function pause() public virtual override returns (bool success) {\n        require(hasRole(PAUSER_ROLE, _msgSender()), \"LQ22\");\n        _pause();\n        return true;\n    }\n\n    /**\n     * @dev Returns to normal state.\n\t *\n\t */\n    function unpause() public virtual override returns (bool success) {\n        require(hasRole(PAUSER_ROLE, _msgSender()), \"LQ23\");\n        _unpause();\n        return true;\n    }\n\n    /**\n     * @dev Set 'function pause', called from pauser admin\n\t * @param ifPause: bool value\n\t *\n\t * Emits a {SetFunctionPause} event\n\t *\n\t */\n    function setFunctionPause(bool ifPause)\n    public\n    virtual\n    override\n    {\n        require(hasRole(PAUSER_ROLE, _msgSender()), \"LQ31\");\n        _ifPaused = ifPause;\n        emit SetFunctionPause(ifPause);\n    }\n}\n",
  "sourcePath": "/Users/aditimaheshwari/Documents/Work/Persistence/Codebase/persistenceOne/pStake-smartContracts/contracts/LiquidStakingV4.sol",
  "compiler": {
    "name": "solc",
    "version": "0.7.6+commit.7338295f.Emscripten.clang"
  },
  "schemaVersion": "3.4.3",
  "updatedAt": "2022-08-25T09:36:06.937Z",
  "devdoc": {
    "kind": "dev",
    "methods": {
      "getBatchingLimit()": {
        "details": "get batching limit"
      },
      "getRoleAdmin(bytes32)": {
        "details": "Returns the admin role that controls `role`. See {grantRole} and {revokeRole}. To change a role's admin, use {_setRoleAdmin}."
      },
      "getRoleMember(bytes32,uint256)": {
        "details": "Returns one of the accounts that have `role`. `index` must be a value between 0 and {getRoleMemberCount}, non-inclusive. Role bearers are not sorted in any particular way, and their ordering may change at any point. WARNING: When using {getRoleMember} and {getRoleMemberCount}, make sure you perform all queries on the same block. See the following https://forum.openzeppelin.com/t/iterating-over-elements-on-enumerableset-in-openzeppelin-contracts/2296[forum post] for more information."
      },
      "getRoleMemberCount(bytes32)": {
        "details": "Returns the number of accounts that have `role`. Can be used together with {getRoleMember} to enumerate all bearers of a role."
      },
      "getStakeUnstakeProps()": {
        "details": "get fees, min values, value divisor and epoch props"
      },
      "getTokens()": {
        "details": "get the SToken and UToken address"
      },
      "getTotalUnbondedTokens(address)": {
        "details": "get Total Unbonded Tokens",
        "params": {
          "staker": ": account address"
        }
      },
      "getTotalUnbondingTokens(address)": {
        "details": "get Total Unbonding Tokens",
        "params": {
          "staker": ": account address"
        }
      },
      "getUnstakeEpochMilestone(uint256)": {
        "details": "returns the nearest epoch milestone in the future"
      },
      "getUnstakeTime(uint256)": {
        "details": "returns the time left for unbonding to finish"
      },
      "grantRole(bytes32,address)": {
        "details": "Grants `role` to `account`. If `account` had not been already granted `role`, emits a {RoleGranted} event. Requirements: - the caller must have ``role``'s admin role."
      },
      "hasRole(bytes32,address)": {
        "details": "Returns `true` if `account` has been granted `role`."
      },
      "initialize(address,address,address,uint256,uint256,uint256)": {
        "details": "Constructor for initializing the LiquidStaking contract.",
        "params": {
          "epochInterval": "- varies from 3 hours to 3 days.",
          "pauserAddress": "- address of the pauser admin.",
          "sAddress": "- address of the SToken contract.",
          "uAddress": "- address of the UToken contract.",
          "unstakingLockTime": "- varies from 21 hours to 21 days.",
          "valueDivisor": "- valueDivisor set to 10^9."
        }
      },
      "pause()": {
        "details": "Triggers stopped state."
      },
      "paused()": {
        "details": "Returns true if the contract is paused, and false otherwise."
      },
      "renounceRole(bytes32,address)": {
        "details": "Revokes `role` from the calling account. Roles are often managed via {grantRole} and {revokeRole}: this function's purpose is to provide a mechanism for accounts to lose their privileges if they are compromised (such as when a trusted device is misplaced). If the calling account had been granted `role`, emits a {RoleRevoked} event. Requirements: - the caller must be `account`."
      },
      "revokeRole(bytes32,address)": {
        "details": "Revokes `role` from `account`. If `account` had been granted `role`, emits a {RoleRevoked} event. Requirements: - the caller must have ``role``'s admin role."
      },
      "setBatchingLimit(uint256)": {
        "details": "Set 'batching limit', called from admin Emits a {SetBatchingLimit} event."
      },
      "setFees(uint256,uint256)": {
        "details": "Set 'fees', called from admin",
        "params": {
          "stakeFee": ": stake fee",
          "unstakeFee": ": unstake fee Emits a {SetFees} event with 'fee' set to the stake and unstake."
        }
      },
      "setFunctionPause(bool)": {
        "details": "Set 'function pause', called from pauser admin",
        "params": {
          "ifPause": ": bool value Emits a {SetFunctionPause} event"
        }
      },
      "setMigrationAdminContract(address)": {
        "details": "Set 'contract address', called from admin",
        "params": {
          "migrationAdminContract": ": migration admin contract address Emits a {SetMigrationAdminContract} event with '_contract' set to the migration admin contract address."
        }
      },
      "setMinimumValues(uint256,uint256)": {
        "details": "Set 'minimum values', called from admin",
        "params": {
          "minStake": ": stake minimum value",
          "minUnstake": ": unstake minimum value Emits a {SetMinimumValues} event with 'minimum value' set to the stake and unstake. check the anchor integration staking operation for rewards liquidation before you set _minStake"
        }
      },
      "setSTokensContract(address)": {
        "details": "Set 'contract address', called from constructor",
        "params": {
          "sAddress": ": stoken contract address Emits a {SetSTokensContract} event with '_contract' set to the stoken contract address."
        }
      },
      "setTokenWrapperContract(address)": {
        "details": "Set 'contract address', called from constructor",
        "params": {
          "tokenWrapperContract": ": stoken contract address Emits a {SetTokenWrapperContract} event with '_contract' set to the stoken contract address."
        }
      },
      "setUTokensContract(address)": {
        "details": "Set 'contract address', called from constructor",
        "params": {
          "uAddress": ": utoken contract address Emits a {SetUTokensContract} event with '_contract' set to the utoken contract address."
        }
      },
      "setUnstakeEpoch(uint256,uint256,uint256)": {
        "details": "Set 'unstake epoch', called from admin",
        "params": {
          "epochInterval": ": varies from 3 hours to 3 days Emits a {SetUnstakeEpoch} event with 'unstakeEpoch'",
          "unstakeEpoch": ": unstake epoch",
          "unstakeEpochPrevious": ": unstake epoch previous(initially set to same value as unstakeEpoch)"
        }
      },
      "setUnstakingLockTime(uint256)": {
        "details": "Set 'unstake props', called from admin",
        "params": {
          "unstakingLockTime": ": varies from 21 hours to 21 days Emits a {SetUnstakeProps} event with 'fee' set to the stake and unstake."
        }
      },
      "stake(address,uint256)": {
        "details": "Stake utokens over the platform with address 'to' for desired 'amount'(Burn uTokens and Mint sTokens)",
        "params": {
          "to": ": user address for staking, amount: number of tokens to stake"
        }
      },
      "stakeDirect(address,uint256,uint256)": {
        "details": "Stake utokens over the platform with address 'to' for desired 'amount'(Burn uTokens and Mint sTokens)",
        "params": {
          "stakingAmount": ": amount to be converted to stkToken",
          "to": ": user address for staking, amount: number of tokens to stake",
          "wrappingAmount": ": amount to be converted to pToken"
        }
      },
      "stakeDirectInBatch(address[],uint256[],uint256[])": {
        "details": "Stake utokens over the platform with address 'to' for desired 'amount'(Burn uTokens and Mint sTokens)",
        "params": {
          "stakingAmounts": ": amounts to be converted to stkToken",
          "toAddressses": ": user addresses for staking, amount: number of tokens to stake",
          "wrappingAmounts": ": amounts to be converted to pToken Emits a {StakeDirectInBatch} event with 'to' set to address and 'amount' set to amount of tokens."
        }
      },
      "unStake(address,uint256)": {
        "details": "UnStake stokens over the platform with address 'to' for desired 'amount'",
        "params": {
          "amount": ": cumulative amount of STokens to be burned",
          "to": ": user address for staking, amount: number of tokens to unstake"
        }
      },
      "unpause()": {
        "details": "Returns to normal state."
      },
      "withdrawUnstakedTokens(address)": {
        "details": "Lock the unstaked tokens for 21 days, user can withdraw the same (Mint uTokens with 21 days locking period)",
        "params": {
          "staker": ": user address for withdraw"
        }
      }
    },
    "version": 1
  },
  "userdoc": {
    "kind": "user",
    "methods": {},
    "version": 1
  }
}