{
  "contractName": "LiquidStakingV2",
  "abi": [
    {
      "anonymous": false,
      "inputs": [
        {
          "indexed": false,
          "internalType": "address",
          "name": "account",
          "type": "address"
        }
      ],
      "name": "Paused",
      "type": "event"
    },
    {
      "anonymous": false,
      "inputs": [
        {
          "indexed": true,
          "internalType": "bytes32",
          "name": "role",
          "type": "bytes32"
        },
        {
          "indexed": true,
          "internalType": "bytes32",
          "name": "previousAdminRole",
          "type": "bytes32"
        },
        {
          "indexed": true,
          "internalType": "bytes32",
          "name": "newAdminRole",
          "type": "bytes32"
        }
      ],
      "name": "RoleAdminChanged",
      "type": "event"
    },
    {
      "anonymous": false,
      "inputs": [
        {
          "indexed": true,
          "internalType": "bytes32",
          "name": "role",
          "type": "bytes32"
        },
        {
          "indexed": true,
          "internalType": "address",
          "name": "account",
          "type": "address"
        },
        {
          "indexed": true,
          "internalType": "address",
          "name": "sender",
          "type": "address"
        }
      ],
      "name": "RoleGranted",
      "type": "event"
    },
    {
      "anonymous": false,
      "inputs": [
        {
          "indexed": true,
          "internalType": "bytes32",
          "name": "role",
          "type": "bytes32"
        },
        {
          "indexed": true,
          "internalType": "address",
          "name": "account",
          "type": "address"
        },
        {
          "indexed": true,
          "internalType": "address",
          "name": "sender",
          "type": "address"
        }
      ],
      "name": "RoleRevoked",
      "type": "event"
    },
    {
      "anonymous": false,
      "inputs": [
        {
          "indexed": false,
          "internalType": "uint256",
          "name": "stakeFee",
          "type": "uint256"
        },
        {
          "indexed": false,
          "internalType": "uint256",
          "name": "unstakeFee",
          "type": "uint256"
        }
      ],
      "name": "SetFees",
      "type": "event"
    },
    {
      "anonymous": false,
      "inputs": [
        {
          "indexed": false,
          "internalType": "uint256",
          "name": "minStake",
          "type": "uint256"
        },
        {
          "indexed": false,
          "internalType": "uint256",
          "name": "minUnstake",
          "type": "uint256"
        }
      ],
      "name": "SetMinimumValues",
      "type": "event"
    },
    {
      "anonymous": false,
      "inputs": [
        {
          "indexed": true,
          "internalType": "address",
          "name": "_contract",
          "type": "address"
        }
      ],
      "name": "SetSTokensContract",
      "type": "event"
    },
    {
      "anonymous": false,
      "inputs": [
        {
          "indexed": true,
          "internalType": "address",
          "name": "_contract",
          "type": "address"
        }
      ],
      "name": "SetUTokensContract",
      "type": "event"
    },
    {
      "anonymous": false,
      "inputs": [
        {
          "indexed": false,
          "internalType": "uint256",
          "name": "unstakeEpoch",
          "type": "uint256"
        },
        {
          "indexed": false,
          "internalType": "uint256",
          "name": "unstakeEpochPrevious",
          "type": "uint256"
        },
        {
          "indexed": false,
          "internalType": "uint256",
          "name": "epochInterval",
          "type": "uint256"
        }
      ],
      "name": "SetUnstakeEpoch",
      "type": "event"
    },
    {
      "anonymous": false,
      "inputs": [
        {
          "indexed": false,
          "internalType": "uint256",
          "name": "unstakingLockTime",
          "type": "uint256"
        }
      ],
      "name": "SetUnstakingLockTime",
      "type": "event"
    },
    {
      "anonymous": false,
      "inputs": [
        {
          "indexed": true,
          "internalType": "address",
          "name": "accountAddress",
          "type": "address"
        },
        {
          "indexed": false,
          "internalType": "uint256",
          "name": "tokens",
          "type": "uint256"
        },
        {
          "indexed": false,
          "internalType": "uint256",
          "name": "finalTokens",
          "type": "uint256"
        },
        {
          "indexed": false,
          "internalType": "uint256",
          "name": "timestamp",
          "type": "uint256"
        }
      ],
      "name": "StakeTokens",
      "type": "event"
    },
    {
      "anonymous": false,
      "inputs": [
        {
          "indexed": false,
          "internalType": "address",
          "name": "account",
          "type": "address"
        }
      ],
      "name": "Unpaused",
      "type": "event"
    },
    {
      "anonymous": false,
      "inputs": [
        {
          "indexed": true,
          "internalType": "address",
          "name": "accountAddress",
          "type": "address"
        },
        {
          "indexed": false,
          "internalType": "uint256",
          "name": "tokens",
          "type": "uint256"
        },
        {
          "indexed": false,
          "internalType": "uint256",
          "name": "finalTokens",
          "type": "uint256"
        },
        {
          "indexed": false,
          "internalType": "uint256",
          "name": "timestamp",
          "type": "uint256"
        }
      ],
      "name": "UnstakeTokens",
      "type": "event"
    },
    {
      "anonymous": false,
      "inputs": [
        {
          "indexed": true,
          "internalType": "address",
          "name": "accountAddress",
          "type": "address"
        },
        {
          "indexed": false,
          "internalType": "uint256",
          "name": "tokens",
          "type": "uint256"
        },
        {
          "indexed": false,
          "internalType": "uint256",
          "name": "timestamp",
          "type": "uint256"
        }
      ],
      "name": "WithdrawUnstakeTokens",
      "type": "event"
    },
    {
      "inputs": [],
      "name": "DEFAULT_ADMIN_ROLE",
      "outputs": [
        {
          "internalType": "bytes32",
          "name": "",
          "type": "bytes32"
        }
      ],
      "stateMutability": "view",
      "type": "function"
    },
    {
      "inputs": [],
      "name": "PAUSER_ROLE",
      "outputs": [
        {
          "internalType": "bytes32",
          "name": "",
          "type": "bytes32"
        }
      ],
      "stateMutability": "view",
      "type": "function"
    },
    {
      "inputs": [],
      "name": "_sTokens",
      "outputs": [
        {
          "internalType": "contract ISTokens",
          "name": "",
          "type": "address"
        }
      ],
      "stateMutability": "view",
      "type": "function"
    },
    {
      "inputs": [],
      "name": "_uTokens",
      "outputs": [
        {
          "internalType": "contract IUTokens",
          "name": "",
          "type": "address"
        }
      ],
      "stateMutability": "view",
      "type": "function"
    },
    {
      "inputs": [
        {
          "internalType": "address",
          "name": "",
          "type": "address"
        },
        {
          "internalType": "uint256",
          "name": "",
          "type": "uint256"
        }
      ],
      "name": "_unstakingAmount",
      "outputs": [
        {
          "internalType": "uint256",
          "name": "",
          "type": "uint256"
        }
      ],
      "stateMutability": "view",
      "type": "function"
    },
    {
      "inputs": [
        {
          "internalType": "address",
          "name": "",
          "type": "address"
        },
        {
          "internalType": "uint256",
          "name": "",
          "type": "uint256"
        }
      ],
      "name": "_unstakingExpiration",
      "outputs": [
        {
          "internalType": "uint256",
          "name": "",
          "type": "uint256"
        }
      ],
      "stateMutability": "view",
      "type": "function"
    },
    {
      "inputs": [],
      "name": "_valueDivisor",
      "outputs": [
        {
          "internalType": "uint256",
          "name": "",
          "type": "uint256"
        }
      ],
      "stateMutability": "view",
      "type": "function"
    },
    {
      "inputs": [
        {
          "internalType": "bytes32",
          "name": "role",
          "type": "bytes32"
        }
      ],
      "name": "getRoleAdmin",
      "outputs": [
        {
          "internalType": "bytes32",
          "name": "",
          "type": "bytes32"
        }
      ],
      "stateMutability": "view",
      "type": "function"
    },
    {
      "inputs": [
        {
          "internalType": "bytes32",
          "name": "role",
          "type": "bytes32"
        },
        {
          "internalType": "uint256",
          "name": "index",
          "type": "uint256"
        }
      ],
      "name": "getRoleMember",
      "outputs": [
        {
          "internalType": "address",
          "name": "",
          "type": "address"
        }
      ],
      "stateMutability": "view",
      "type": "function"
    },
    {
      "inputs": [
        {
          "internalType": "bytes32",
          "name": "role",
          "type": "bytes32"
        }
      ],
      "name": "getRoleMemberCount",
      "outputs": [
        {
          "internalType": "uint256",
          "name": "",
          "type": "uint256"
        }
      ],
      "stateMutability": "view",
      "type": "function"
    },
    {
      "inputs": [
        {
          "internalType": "bytes32",
          "name": "role",
          "type": "bytes32"
        },
        {
          "internalType": "address",
          "name": "account",
          "type": "address"
        }
      ],
      "name": "grantRole",
      "outputs": [],
      "stateMutability": "nonpayable",
      "type": "function"
    },
    {
      "inputs": [
        {
          "internalType": "bytes32",
          "name": "role",
          "type": "bytes32"
        },
        {
          "internalType": "address",
          "name": "account",
          "type": "address"
        }
      ],
      "name": "hasRole",
      "outputs": [
        {
          "internalType": "bool",
          "name": "",
          "type": "bool"
        }
      ],
      "stateMutability": "view",
      "type": "function"
    },
    {
      "inputs": [],
      "name": "paused",
      "outputs": [
        {
          "internalType": "bool",
          "name": "",
          "type": "bool"
        }
      ],
      "stateMutability": "view",
      "type": "function"
    },
    {
      "inputs": [
        {
          "internalType": "bytes32",
          "name": "role",
          "type": "bytes32"
        },
        {
          "internalType": "address",
          "name": "account",
          "type": "address"
        }
      ],
      "name": "renounceRole",
      "outputs": [],
      "stateMutability": "nonpayable",
      "type": "function"
    },
    {
      "inputs": [
        {
          "internalType": "bytes32",
          "name": "role",
          "type": "bytes32"
        },
        {
          "internalType": "address",
          "name": "account",
          "type": "address"
        }
      ],
      "name": "revokeRole",
      "outputs": [],
      "stateMutability": "nonpayable",
      "type": "function"
    },
    {
      "inputs": [
        {
          "internalType": "address",
          "name": "uAddress",
          "type": "address"
        },
        {
          "internalType": "address",
          "name": "sAddress",
          "type": "address"
        },
        {
          "internalType": "address",
          "name": "pauserAddress",
          "type": "address"
        },
        {
          "internalType": "uint256",
          "name": "unstakingLockTime",
          "type": "uint256"
        },
        {
          "internalType": "uint256",
          "name": "epochInterval",
          "type": "uint256"
        },
        {
          "internalType": "uint256",
          "name": "valueDivisor",
          "type": "uint256"
        }
      ],
      "name": "initialize",
      "outputs": [],
      "stateMutability": "nonpayable",
      "type": "function"
    },
    {
      "inputs": [
        {
          "internalType": "uint256",
          "name": "stakeFee",
          "type": "uint256"
        },
        {
          "internalType": "uint256",
          "name": "unstakeFee",
          "type": "uint256"
        }
      ],
      "name": "setFees",
      "outputs": [
        {
          "internalType": "bool",
          "name": "success",
          "type": "bool"
        }
      ],
      "stateMutability": "nonpayable",
      "type": "function"
    },
    {
      "inputs": [
        {
          "internalType": "uint256",
          "name": "unstakingLockTime",
          "type": "uint256"
        }
      ],
      "name": "setUnstakingLockTime",
      "outputs": [
        {
          "internalType": "bool",
          "name": "success",
          "type": "bool"
        }
      ],
      "stateMutability": "nonpayable",
      "type": "function"
    },
    {
      "inputs": [],
      "name": "getStakeUnstakeProps",
      "outputs": [
        {
          "internalType": "uint256",
          "name": "stakeFee",
          "type": "uint256"
        },
        {
          "internalType": "uint256",
          "name": "unstakeFee",
          "type": "uint256"
        },
        {
          "internalType": "uint256",
          "name": "minStake",
          "type": "uint256"
        },
        {
          "internalType": "uint256",
          "name": "minUnstake",
          "type": "uint256"
        },
        {
          "internalType": "uint256",
          "name": "valueDivisor",
          "type": "uint256"
        },
        {
          "internalType": "uint256",
          "name": "epochInterval",
          "type": "uint256"
        },
        {
          "internalType": "uint256",
          "name": "unstakeEpoch",
          "type": "uint256"
        },
        {
          "internalType": "uint256",
          "name": "unstakeEpochPrevious",
          "type": "uint256"
        },
        {
          "internalType": "uint256",
          "name": "unstakingLockTime",
          "type": "uint256"
        }
      ],
      "stateMutability": "view",
      "type": "function"
    },
    {
      "inputs": [
        {
          "internalType": "uint256",
          "name": "minStake",
          "type": "uint256"
        },
        {
          "internalType": "uint256",
          "name": "minUnstake",
          "type": "uint256"
        }
      ],
      "name": "setMinimumValues",
      "outputs": [
        {
          "internalType": "bool",
          "name": "success",
          "type": "bool"
        }
      ],
      "stateMutability": "nonpayable",
      "type": "function"
    },
    {
      "inputs": [
        {
          "internalType": "uint256",
          "name": "unstakeEpoch",
          "type": "uint256"
        },
        {
          "internalType": "uint256",
          "name": "unstakeEpochPrevious",
          "type": "uint256"
        },
        {
          "internalType": "uint256",
          "name": "epochInterval",
          "type": "uint256"
        }
      ],
      "name": "setUnstakeEpoch",
      "outputs": [
        {
          "internalType": "bool",
          "name": "success",
          "type": "bool"
        }
      ],
      "stateMutability": "nonpayable",
      "type": "function"
    },
    {
      "inputs": [
        {
          "internalType": "address",
          "name": "uAddress",
          "type": "address"
        }
      ],
      "name": "setUTokensContract",
      "outputs": [],
      "stateMutability": "nonpayable",
      "type": "function"
    },
    {
      "inputs": [
        {
          "internalType": "address",
          "name": "sAddress",
          "type": "address"
        }
      ],
      "name": "setSTokensContract",
      "outputs": [],
      "stateMutability": "nonpayable",
      "type": "function"
    },
    {
      "inputs": [
        {
          "internalType": "address",
          "name": "to",
          "type": "address"
        },
        {
          "internalType": "uint256",
          "name": "amount",
          "type": "uint256"
        }
      ],
      "name": "stake",
      "outputs": [
        {
          "internalType": "bool",
          "name": "",
          "type": "bool"
        }
      ],
      "stateMutability": "nonpayable",
      "type": "function"
    },
    {
      "inputs": [
        {
          "internalType": "address",
          "name": "to",
          "type": "address"
        },
        {
          "internalType": "uint256",
          "name": "amount",
          "type": "uint256"
        }
      ],
      "name": "unStake",
      "outputs": [
        {
          "internalType": "bool",
          "name": "",
          "type": "bool"
        }
      ],
      "stateMutability": "nonpayable",
      "type": "function"
    },
    {
      "inputs": [
        {
          "internalType": "uint256",
          "name": "_unstakeTimestamp",
          "type": "uint256"
        }
      ],
      "name": "getUnstakeEpochMilestone",
      "outputs": [
        {
          "internalType": "uint256",
          "name": "unstakeEpochMilestone",
          "type": "uint256"
        }
      ],
      "stateMutability": "view",
      "type": "function"
    },
    {
      "inputs": [
        {
          "internalType": "uint256",
          "name": "_unstakeTimestamp",
          "type": "uint256"
        }
      ],
      "name": "getUnstakeTime",
      "outputs": [
        {
          "internalType": "uint256",
          "name": "unstakeTime",
          "type": "uint256"
        },
        {
          "internalType": "uint256",
          "name": "unstakeEpoch",
          "type": "uint256"
        },
        {
          "internalType": "uint256",
          "name": "unstakeEpochPrevious",
          "type": "uint256"
        }
      ],
      "stateMutability": "view",
      "type": "function"
    },
    {
      "inputs": [
        {
          "internalType": "address",
          "name": "staker",
          "type": "address"
        }
      ],
      "name": "withdrawUnstakedTokens",
      "outputs": [],
      "stateMutability": "nonpayable",
      "type": "function"
    },
    {
      "inputs": [
        {
          "internalType": "address",
          "name": "staker",
          "type": "address"
        }
      ],
      "name": "getTotalUnbondedTokens",
      "outputs": [
        {
          "internalType": "uint256",
          "name": "unbondingTokens",
          "type": "uint256"
        }
      ],
      "stateMutability": "view",
      "type": "function"
    },
    {
      "inputs": [
        {
          "internalType": "address",
          "name": "staker",
          "type": "address"
        }
      ],
      "name": "getTotalUnbondingTokens",
      "outputs": [
        {
          "internalType": "uint256",
          "name": "unbondingTokens",
          "type": "uint256"
        }
      ],
      "stateMutability": "view",
      "type": "function"
    },
    {
      "inputs": [],
      "name": "pause",
      "outputs": [
        {
          "internalType": "bool",
          "name": "success",
          "type": "bool"
        }
      ],
      "stateMutability": "nonpayable",
      "type": "function"
    },
    {
      "inputs": [],
      "name": "unpause",
      "outputs": [
        {
          "internalType": "bool",
          "name": "success",
          "type": "bool"
        }
      ],
      "stateMutability": "nonpayable",
      "type": "function"
    }
  ],
  "bytecode": "0x608060405234801561001057600080fd5b506125eb806100206000396000f3fe608060405234801561001057600080fd5b50600436106101f05760003560e01c80638456cb591161010f578063b17e3165116100a2578063d939381411610071578063d9393814146105e3578063e63ab1e91461060f578063f3e6f94e14610617578063f75f0cf614610643576101f0565b8063b17e31651461056c578063ca15c87314610592578063d547741f146105af578063d79cf55a146105db576101f0565b80639b9eea46116100de5780639b9eea46146104f25780639dc77cab1461050f578063a217fddf14610538578063adc9772e14610540576101f0565b80638456cb591461046057806385e32840146104685780639010d07c146104a357806391d14854146104c6576101f0565b80633f4ba83a11610187578063728a99ee11610156578063728a99ee146103c6578063728cdbca146103ce57806378a2f07414610416578063819020a01461043a576101f0565b80633f4ba83a1461034457806351db00e71461034c57806355f2323f1461036f5780635c975abb146103be576101f0565b8063248a9ca3116101c3578063248a9ca3146102a95780632e31fab8146102c65780632f2ff15d146102ec57806336568abe14610318576101f0565b80630273b70d146101f55780630b78f9c01461022d5780630e4b29431461026457806321bdf9e514610281575b600080fd5b61021b6004803603602081101561020b57600080fd5b50356001600160a01b031661066f565b60408051918252519081900360200190f35b6102506004803603604081101561024357600080fd5b5080359060200135610743565b604080519115158252519081900360200190f35b6102506004803603602081101561027a57600080fd5b503561084e565b6102a76004803603602081101561029757600080fd5b50356001600160a01b03166108d3565b005b61021b600480360360208110156102bf57600080fd5b5035610964565b6102a7600480360360208110156102dc57600080fd5b50356001600160a01b0316610979565b6102a76004803603604081101561030257600080fd5b50803590602001356001600160a01b0316610a0a565b6102a76004803603604081101561032e57600080fd5b50803590602001356001600160a01b0316610a71565b610250610ad2565b6102506004803603604081101561036257600080fd5b5080359060200135610b36565b610377610c41565b60408051998a5260208a0198909852888801969096526060880194909452608087019290925260a086015260c085015260e084015261010083015251908190036101200190f35b610250610c64565b61021b610c6d565b6102a7600480360360c08110156103e457600080fd5b506001600160a01b03813581169160208101358216916040820135169060608101359060808101359060a00135610c73565b61041e610d8e565b604080516001600160a01b039092168252519081900360200190f35b6102a76004803603602081101561045057600080fd5b50356001600160a01b0316610d9d565b61025061108e565b6104856004803603602081101561047e57600080fd5b50356110ec565b60408051938452602084019290925282820152519081900360600190f35b61041e600480360360408110156104b957600080fd5b5080359060200135611136565b610250600480360360408110156104dc57600080fd5b50803590602001356001600160a01b0316611155565b61021b6004803603602081101561050857600080fd5b503561116d565b6102506004803603606081101561052557600080fd5b508035906020810135906040013561121b565b61021b611339565b6102506004803603604081101561055657600080fd5b506001600160a01b03813516906020013561133e565b61021b6004803603602081101561058257600080fd5b50356001600160a01b031661166d565b61021b600480360360208110156105a857600080fd5b503561170f565b6102a7600480360360408110156105c557600080fd5b50803590602001356001600160a01b0316611726565b61041e61177f565b610250600480360360408110156105f957600080fd5b506001600160a01b03813516906020013561178e565b61021b611a73565b61021b6004803603604081101561062d57600080fd5b506001600160a01b038135169060200135611a85565b61021b6004803603604081101561065957600080fd5b506001600160a01b038135169060200135611ab6565b6001600160a01b038116600090815260a2602090815260408083205460a4909252822054805b8281101561073a576001600160a01b038516600090815260a26020526040812080546106d69190849081106106c657fe5b90600052602060002001546110ec565b50509050804210610727576001600160a01b038616600090815260a360205260409020805461072491908490811061070a57fe5b906000526020600020015486611ad290919063ffffffff16565b94505b50610733816001611ad2565b9050610695565b5050505b919050565b600061075681610751611b2c565b611155565b61078d576040805162461bcd60e51b81526020600482015260036024820152624c513160e81b604482015290519081900360640190fd5b609d5461079b906064611b30565b831115806107a7575082155b80156107c85750609d546107bc906064611b30565b821115806107c8575081155b6107ff576040805162461bcd60e51b815260206004820152600360248201526226289960e91b604482015290519081900360640190fd5b609b839055609c829055604080518481526020810184905281517f3be6e637f54f081a2dd12982cfd58481304fc98b604b18fa8ed4aa4e4a9d1532929181900390910190a15060015b92915050565b600061085c81610751611b2c565b610893576040805162461bcd60e51b81526020600482015260036024820152624c513360e81b604482015290519081900360640190fd5b609e8290556040805183815290517ffced4450741ad45114dbc966176eb1d16dc4f2259bc864aa395736a7e8355bbb9181900360200190a1506001919050565b6108e06000610751611b2c565b61091a576040805162461bcd60e51b8152602060048083019190915260248201526304c5131360e41b604482015290519081900360640190fd5b609780546001600160a01b0319166001600160a01b0383169081179091556040517ff745c285f36f88bea6af14d4d0f33dd9350cef7895216c1615b1caaee7857e0c90600090a250565b60009081526065602052604090206002015490565b6109866000610751611b2c565b6109c0576040805162461bcd60e51b815260206004808301919091526024820152634c51313160e01b604482015290519081900360640190fd5b609880546001600160a01b0319166001600160a01b0383169081179091556040517fd0b9dbe26f676f4cdb02fc249c203baa0314cec79e18b4194dc862795a5de03f90600090a250565b600082815260656020526040902060020154610a2890610751611b2c565b610a635760405162461bcd60e51b815260040180806020018281038252602f8152602001806124b9602f913960400191505060405180910390fd5b610a6d8282611b89565b5050565b610a79611b2c565b6001600160a01b0316816001600160a01b031614610ac85760405162461bcd60e51b815260040180806020018281038252602f815260200180612587602f913960400191505060405180910390fd5b610a6d8282611bf2565b6000610aee600080516020612567833981519152610751611b2c565b610b28576040805162461bcd60e51b815260206004808301919091526024820152634c51323360e01b604482015290519081900360640190fd5b610b30611c5b565b50600190565b6000610b4481610751611b2c565b610b7b576040805162461bcd60e51b815260206004820152600360248201526213144d60ea1b604482015290519081900360640190fd5b6001831015610bb7576040805162461bcd60e51b81526020600482015260036024820152624c513560e81b604482015290519081900360640190fd5b6001821015610bf3576040805162461bcd60e51b815260206004820152600360248201526226289b60e91b604482015290519081900360640190fd5b6099839055609a829055604080518481526020810184905281517fa94d40347449ea19b873d64ed55c99772194c49791e82be5c2dc24e4c0044fe3929181900390910190a150600192915050565b609b54609c54609954609d54609f5460a05460a154609e54969795969495869590565b60335460ff1690565b609d5481565b600054610100900460ff1680610c8c5750610c8c611cfb565b80610c9a575060005460ff16155b610cd55760405162461bcd60e51b815260040180806020018281038252602e815260200180612518602e913960400191505060405180910390fd5b600054610100900460ff16158015610d00576000805460ff1961ff0019909116610100171660011790555b610d08611d0c565b610d10611dbe565b610d226000610d1d611b2c565b610a63565b610d3a60008051602061256783398151915286610a63565b610d43876108d3565b610d4c86610979565b610d558461084e565b50610d61600180610b36565b50609d829055610d7242808561121b565b508015610d85576000805461ff00191690555b50505050505050565b6097546001600160a01b031681565b610da5610c64565b15610dea576040805162461bcd60e51b815260206004820152601060248201526f14185d5cd8589b194e881c185d5cd95960821b604482015290519081900360640190fd5b610df2611b2c565b6001600160a01b0316816001600160a01b031614610e40576040805162461bcd60e51b8152602060048083019190915260248201526304c5132360e41b604482015290519081900360640190fd5b6001600160a01b038116600090815260a2602090815260408083205460a4909252822054805b82811015610f85576001600160a01b038516600090815260a2602052604081208054610e979190849081106106c657fe5b50509050804210610f72576001600160a01b038616600090815260a3602052604090208054610ecb91908490811061070a57fe5b6001600160a01b038716600090815260a2602052604081208054929750909184908110610ef457fe5b60009182526020808320909101929092556001600160a01b038816815260a390915260408120805484908110610f2657fe5b60009182526020808320909101929092556001600160a01b038816815260a49091526040902054610f58906001611ad2565b6001600160a01b038716600090815260a460205260409020555b50610f7e816001611ad2565b9050610e66565b5060008311610fc4576040805162461bcd60e51b815260206004808301919091526024820152634c51323160e01b604482015290519081900360640190fd5b6040805184815242602082015281516001600160a01b038716927f31453b59c0eb931edc765cc2400876a524254457b5534d660c9da1d74ab4666b928290030190a2609754604080516340c10f1960e01b81526001600160a01b03878116600483015260248201879052915191909216916340c10f199160448083019260209291908290030181600087803b15801561105c57600080fd5b505af1158015611070573d6000803e3d6000fd5b505050506040513d602081101561108657600080fd5b505050505050565b60006110aa600080516020612567833981519152610751611b2c565b6110e4576040805162461bcd60e51b815260206004808301919091526024820152632628991960e11b604482015290519081900360640190fd5b610b30611e5b565b6000806000806110fb8561116d565b90508061110c57600093505061112f565b60a054925060a154915061112b609e5482611ad290919063ffffffff16565b9350505b9193909250565b600082815260656020526040812061114e9083611ede565b9392505050565b600082815260656020526040812061114e9083611eea565b60008161117c5750600061073e565b60a05415801561118c575060a154155b806111975750609f54155b156111a357508061073e565b8160a05411156111b6575060a05461073e565b60006111d96111d260a15460a054611eff90919063ffffffff16565b8490611ad2565b905060006111f260a05483611eff90919063ffffffff16565b90506112138261120d609f5484611f5c90919063ffffffff16565b90611ad2565b949350505050565b600061122981610751611b2c565b611260576040805162461bcd60e51b81526020600482015260036024820152624c513760e81b604482015290519081900360640190fd5b8383111561129b576040805162461bcd60e51b8152602060048201526003602482015262098a2760eb1b604482015290519081900360640190fd5b831580156112a857508115155b156112e0576040805162461bcd60e51b81526020600482015260036024820152624c513960e81b604482015290519081900360640190fd5b60a084905560a1839055609f829055604080518581526020810185905280820184905290517f342db083975cc0697d0f81d0876299ecbf95d909e920426089062e540904497c9181900360600190a15060019392505050565b600081565b6000611348610c64565b1561138d576040805162461bcd60e51b815260206004820152601060248201526f14185d5cd8589b194e881c185d5cd95960821b604482015290519081900360640190fd5b611395611b2c565b6001600160a01b0316836001600160a01b0316146113e3576040805162461bcd60e51b815260206004808301919091526024820152632628989960e11b604482015290519081900360640190fd5b609754604080516370a0823160e01b81526001600160a01b038681166004830152915160009392909216916370a0823191602480820192602092909190829003018186803b15801561143457600080fd5b505afa158015611448573d6000803e3d6000fd5b505050506040513d602081101561145e57600080fd5b5051609b54609d549192506000916114849160649161147e918891611fc3565b9061207c565b905060006114928583611ad2565b90506099548510156114d4576040805162461bcd60e51b815260206004808301919091526024820152634c51313360e01b604482015290519081900360640190fd5b80831015611512576040805162461bcd60e51b8152602060048083019190915260248201526313144c4d60e21b604482015290519081900360640190fd5b6040805186815260208101839052428183015290516001600160a01b038816917f5fe79871cd2431c06447cbcf2557091da5d2ed5bc640f1028f42665913786e42919081900360600190a260975460408051632770a7eb60e21b81526001600160a01b0389811660048301526024820185905291519190921691639dc29fac9160448083019260209291908290030181600087803b1580156115b357600080fd5b505af11580156115c7573d6000803e3d6000fd5b505050506040513d60208110156115dd57600080fd5b5050609854604080516340c10f1960e01b81526001600160a01b03898116600483015260248201899052915191909216916340c10f199160448083019260209291908290030181600087803b15801561163557600080fd5b505af1158015611649573d6000803e3d6000fd5b505050506040513d602081101561165f57600080fd5b506001979650505050505050565b6001600160a01b038116600090815260a2602090815260408083205460a4909252822054805b8281101561073a576001600160a01b038516600090815260a26020526040812080546116c49190849081106106c657fe5b50509050804210156116fc576001600160a01b038616600090815260a36020526040902080546116f991908490811061070a57fe5b94505b50611708816001611ad2565b9050611693565b6000818152606560205260408120610848906120e3565b60008281526065602052604090206002015461174490610751611b2c565b610ac85760405162461bcd60e51b81526004018080602001828103825260308152602001806124e86030913960400191505060405180910390fd5b6098546001600160a01b031681565b6000611798610c64565b156117dd576040805162461bcd60e51b815260206004820152601060248201526f14185d5cd8589b194e881c185d5cd95960821b604482015290519081900360640190fd5b6117e5611b2c565b6001600160a01b0316836001600160a01b031614611833576040805162461bcd60e51b815260206004808301919091526024820152634c51313560e01b604482015290519081900360640190fd5b609854604080516370a0823160e01b81526001600160a01b038681166004830152915160009392909216916370a0823191602480820192602092909190829003018186803b15801561188457600080fd5b505afa158015611898573d6000803e3d6000fd5b505050506040513d60208110156118ae57600080fd5b5051609c54609d549192506000916118ce9160649161147e918891611fc3565b905060006118dc8583611ad2565b9050609a5485101561191e576040805162461bcd60e51b81526020600480830191909152602482015263098a262760e31b604482015290519081900360640190fd5b8083101561195c576040805162461bcd60e51b815260206004808301919091526024820152634c51313960e01b604482015290519081900360640190fd5b60985460408051632770a7eb60e21b81526001600160a01b0389811660048301526024820185905291519190921691639dc29fac9160448083019260209291908290030181600087803b1580156119b257600080fd5b505af11580156119c6573d6000803e3d6000fd5b505050506040513d60208110156119dc57600080fd5b50506001600160a01b038616600081815260a26020908152604080832080546001818101835591855283852042910181905585855260a38452828520805492830181558552938390200189905580518981529182018590528181019290925290517f98850af53deeaf736beb3ea22091c900e8e5cfdf8153342daa366dc1d83a39fd9181900360600190a250600195945050505050565b60008051602061256783398151915281565b60a26020528160005260406000208181548110611aa157600080fd5b90600052602060002001600091509150505481565b60a36020528160005260406000208181548110611aa157600080fd5b60008282018381101561114e576040805162461bcd60e51b815260206004820152601b60248201527f536166654d6174683a206164646974696f6e206f766572666c6f770000000000604482015290519081900360640190fd5b3390565b600082611b3f57506000610848565b82820282848281611b4c57fe5b041461114e5760405162461bcd60e51b81526004018080602001828103825260218152602001806125466021913960400191505060405180910390fd5b6000828152606560205260409020611ba190826120ee565b15610a6d57611bae611b2c565b6001600160a01b0316816001600160a01b0316837f2f8788117e7eff1d82e926ec794901d17c78024a50270940304540a733656f0d60405160405180910390a45050565b6000828152606560205260409020611c0a9082612103565b15610a6d57611c17611b2c565b6001600160a01b0316816001600160a01b0316837ff6391f5c32d9c69d2a47ea670b442974b53935d1edc7fd64eb21e047a839171b60405160405180910390a45050565b611c63610c64565b611cab576040805162461bcd60e51b815260206004820152601460248201527314185d5cd8589b194e881b9bdd081c185d5cd95960621b604482015290519081900360640190fd5b6033805460ff191690557f5db9ee0a495bf2e6ff9c91a7834c1ba4fdd244a5e8aa4e537bd38aeae4b073aa611cde611b2c565b604080516001600160a01b039092168252519081900360200190a1565b6000611d0630612118565b15905090565b600054610100900460ff1680611d255750611d25611cfb565b80611d33575060005460ff16155b611d6e5760405162461bcd60e51b815260040180806020018281038252602e815260200180612518602e913960400191505060405180910390fd5b600054610100900460ff16158015611d99576000805460ff1961ff0019909116610100171660011790555b611da161211e565b611da961211e565b8015611dbb576000805461ff00191690555b50565b600054610100900460ff1680611dd75750611dd7611cfb565b80611de5575060005460ff16155b611e205760405162461bcd60e51b815260040180806020018281038252602e815260200180612518602e913960400191505060405180910390fd5b600054610100900460ff16158015611e4b576000805460ff1961ff0019909116610100171660011790555b611e5361211e565b611da96121be565b611e63610c64565b15611ea8576040805162461bcd60e51b815260206004820152601060248201526f14185d5cd8589b194e881c185d5cd95960821b604482015290519081900360640190fd5b6033805460ff191660011790557f62e78cea01bee320cd4e420270b5ea74000d11b0c9f74754ebdbfc544b05a258611cde611b2c565b600061114e8383612269565b600061114e836001600160a01b0384166122cd565b600082821115611f56576040805162461bcd60e51b815260206004820152601e60248201527f536166654d6174683a207375627472616374696f6e206f766572666c6f770000604482015290519081900360640190fd5b50900390565b6000808211611fb2576040805162461bcd60e51b815260206004820152601860248201527f536166654d6174683a206d6f64756c6f206279207a65726f0000000000000000604482015290519081900360640190fd5b818381611fbb57fe5b069392505050565b6000806000611fd286866122e5565b9150915060008480611fe057fe5b868809905082811115611ff4576001820391505b9182900391816120125784838161200757fe5b04935050505061114e565b848210612066576040805162461bcd60e51b815260206004820152601a60248201527f46756c6c4d6174683a2046554c4c4449565f4f564552464c4f57000000000000604482015290519081900360640190fd5b612071838387612312565b979650505050505050565b60008082116120d2576040805162461bcd60e51b815260206004820152601a60248201527f536166654d6174683a206469766973696f6e206279207a65726f000000000000604482015290519081900360640190fd5b8183816120db57fe5b049392505050565b600061084882612382565b600061114e836001600160a01b038416612386565b600061114e836001600160a01b0384166123d0565b3b151590565b600054610100900460ff16806121375750612137611cfb565b80612145575060005460ff16155b6121805760405162461bcd60e51b815260040180806020018281038252602e815260200180612518602e913960400191505060405180910390fd5b600054610100900460ff16158015611da9576000805460ff1961ff0019909116610100171660011790558015611dbb576000805461ff001916905550565b600054610100900460ff16806121d757506121d7611cfb565b806121e5575060005460ff16155b6122205760405162461bcd60e51b815260040180806020018281038252602e815260200180612518602e913960400191505060405180910390fd5b600054610100900460ff1615801561224b576000805460ff1961ff0019909116610100171660011790555b6033805460ff191690558015611dbb576000805461ff001916905550565b815460009082106122ab5760405162461bcd60e51b81526004018080602001828103825260228152602001806124976022913960400191505060405180910390fd5b8260000182815481106122ba57fe5b9060005260206000200154905092915050565b60009081526001919091016020526040902054151590565b600080806000198486099050838502925082810391508281101561230a576001820391505b509250929050565b6000818103821680838161232257fe5b04925080858161232e57fe5b04945080816000038161233d57fe5b60028581038087028203028087028203028087028203028087028203028087028203028087028203029586029003909402930460010193909302939093010292915050565b5490565b600061239283836122cd565b6123c857508154600181810184556000848152602080822090930184905584548482528286019093526040902091909155610848565b506000610848565b6000818152600183016020526040812054801561248c578354600019808301919081019060009087908390811061240357fe5b906000526020600020015490508087600001848154811061242057fe5b60009182526020808320909101929092558281526001898101909252604090209084019055865487908061245057fe5b60019003818190600052602060002001600090559055866001016000878152602001908152602001600020600090556001945050505050610848565b600091505061084856fe456e756d657261626c655365743a20696e646578206f7574206f6620626f756e6473416363657373436f6e74726f6c3a2073656e646572206d75737420626520616e2061646d696e20746f206772616e74416363657373436f6e74726f6c3a2073656e646572206d75737420626520616e2061646d696e20746f207265766f6b65496e697469616c697a61626c653a20636f6e747261637420697320616c726561647920696e697469616c697a6564536166654d6174683a206d756c7469706c69636174696f6e206f766572666c6f7765d7a28e3265b37a6474929f336521b332c1681b933f6cb9f3376673440d862a416363657373436f6e74726f6c3a2063616e206f6e6c792072656e6f756e636520726f6c657320666f722073656c66a2646970667358221220bd69c972b5ca5f6f28f583bd7da3ba3dcd12f34a26f129fd90ec577289a3baff64736f6c63430007060033",
  "immutableReferences": {},
  "source": "// SPDX-License-Identifier: UNLICENSED\npragma solidity >=0.7.0;\n\nimport \"@openzeppelin/contracts-upgradeable/math/SafeMathUpgradeable.sol\";\nimport \"@openzeppelin/contracts-upgradeable/access/AccessControlUpgradeable.sol\";\nimport \"@openzeppelin/contracts-upgradeable/utils/PausableUpgradeable.sol\";\nimport \"./interfaces/ISTokens.sol\";\nimport \"./interfaces/IUTokens.sol\";\nimport \"./interfaces/ILiquidStaking.sol\";\nimport \"./libraries/FullMath.sol\";\n\ncontract LiquidStakingV2 is\n\tILiquidStaking,\n\tPausableUpgradeable,\n\tAccessControlUpgradeable\n{\n\tusing SafeMathUpgradeable for uint256;\n\tusing FullMath for uint256;\n\n\t//Private instances of contracts to handle Utokens and Stokens\n\tIUTokens public _uTokens;\n\tISTokens public _sTokens;\n\n\t// defining the fees and minimum values\n\tuint256 private _minStake;\n\tuint256 private _minUnstake;\n\tuint256 private _stakeFee;\n\tuint256 private _unstakeFee;\n\tuint256 public _valueDivisor;\n\n\t// constants defining access control ROLES\n\tbytes32 public constant PAUSER_ROLE = keccak256(\"PAUSER_ROLE\");\n\n\t// variables pertaining to unbonding logic\n\tuint256 private _unstakingLockTime;\n\tuint256 private _epochInterval;\n\tuint256 private _unstakeEpoch;\n\tuint256 private _unstakeEpochPrevious;\n\n\t//Mapping to handle the Expiry period\n\tmapping(address => uint256[]) public _unstakingExpiration;\n\n\t//Mapping to handle the Expiry amount\n\tmapping(address => uint256[]) public _unstakingAmount;\n\n\t//mappint to handle a counter variable indicating from what index to start the loop.\n\tmapping(address => uint256) private _withdrawCounters;\n\n\t// variable pertaining to contract upgrades versioning\n\tuint256 private _version;\n\n\t/**\n\t * @dev Constructor for initializing the LiquidStaking contract.\n\t * @param uAddress - address of the UToken contract.\n\t * @param sAddress - address of the SToken contract.\n\t * @param pauserAddress - address of the pauser admin.\n\t * @param unstakingLockTime - varies from 21 hours to 21 days.\n\t * @param epochInterval - varies from 3 hours to 3 days.\n\t * @param valueDivisor - valueDivisor set to 10^9.\n\t */\n\tfunction initialize(\n\t\taddress uAddress,\n\t\taddress sAddress,\n\t\taddress pauserAddress,\n\t\tuint256 unstakingLockTime,\n\t\tuint256 epochInterval,\n\t\tuint256 valueDivisor\n\t) public virtual initializer {\n\t\t__AccessControl_init();\n\t\t__Pausable_init();\n\t\t_setupRole(DEFAULT_ADMIN_ROLE, _msgSender());\n\t\t_setupRole(PAUSER_ROLE, pauserAddress);\n\t\tsetUTokensContract(uAddress);\n\t\tsetSTokensContract(sAddress);\n\t\tsetUnstakingLockTime(unstakingLockTime);\n\t\tsetMinimumValues(1, 1);\n\t\t_valueDivisor = valueDivisor;\n\t\tsetUnstakeEpoch(block.timestamp, block.timestamp, epochInterval);\n\t}\n\n\t/**\n\t * @dev Set 'fees', called from admin\n\t * @param stakeFee: stake fee\n\t * @param unstakeFee: unstake fee\n\t *\n\t * Emits a {SetFees} event with 'fee' set to the stake and unstake.\n\t *\n\t */\n\tfunction setFees(uint256 stakeFee, uint256 unstakeFee)\n\t\tpublic\n\t\tvirtual\n\t\treturns (bool success)\n\t{\n\t\trequire(hasRole(DEFAULT_ADMIN_ROLE, _msgSender()), \"LQ1\");\n\t\t// range checks for fees. Since fee cannot be more than 100%, the max cap\n\t\t// is _valueDivisor * 100, which then brings the fees to 100 (percentage)\n\t\trequire(\n\t\t\t(stakeFee <= _valueDivisor.mul(100) || stakeFee == 0) &&\n\t\t\t\t(unstakeFee <= _valueDivisor.mul(100) || unstakeFee == 0),\n\t\t\t\"LQ2\"\n\t\t);\n\t\t_stakeFee = stakeFee;\n\t\t_unstakeFee = unstakeFee;\n\t\temit SetFees(stakeFee, unstakeFee);\n\t\treturn true;\n\t}\n\n\t/**\n\t * @dev Set 'unstake props', called from admin\n\t * @param unstakingLockTime: varies from 21 hours to 21 days\n\t *\n\t * Emits a {SetUnstakeProps} event with 'fee' set to the stake and unstake.\n\t *\n\t */\n\tfunction setUnstakingLockTime(uint256 unstakingLockTime)\n\t\tpublic\n\t\tvirtual\n\t\treturns (bool success)\n\t{\n\t\trequire(hasRole(DEFAULT_ADMIN_ROLE, _msgSender()), \"LQ3\");\n\t\t_unstakingLockTime = unstakingLockTime;\n\t\temit SetUnstakingLockTime(unstakingLockTime);\n\t\treturn true;\n\t}\n\n\t/**\n\t * @dev get fees, min values, value divisor and epoch props\n\t *\n\t */\n\tfunction getStakeUnstakeProps()\n\t\tpublic\n\t\tview\n\t\tvirtual\n\t\treturns (\n\t\t\tuint256 stakeFee,\n\t\t\tuint256 unstakeFee,\n\t\t\tuint256 minStake,\n\t\t\tuint256 minUnstake,\n\t\t\tuint256 valueDivisor,\n\t\t\tuint256 epochInterval,\n\t\t\tuint256 unstakeEpoch,\n\t\t\tuint256 unstakeEpochPrevious,\n\t\t\tuint256 unstakingLockTime\n\t\t)\n\t{\n\t\tstakeFee = _stakeFee;\n\t\tunstakeFee = _unstakeFee;\n\t\tminStake = _minStake;\n\t\tminUnstake = _minStake;\n\t\tvalueDivisor = _valueDivisor;\n\t\tepochInterval = _epochInterval;\n\t\tunstakeEpoch = _unstakeEpoch;\n\t\tunstakeEpochPrevious = _unstakeEpochPrevious;\n\t\tunstakingLockTime = _unstakingLockTime;\n\t}\n\n\t/**\n\t * @dev Set 'minimum values', called from admin\n\t * @param minStake: stake minimum value\n\t * @param minUnstake: unstake minimum value\n\t *\n\t * Emits a {SetMinimumValues} event with 'minimum value' set to the stake and unstake.\n\t *\n\t */\n\tfunction setMinimumValues(uint256 minStake, uint256 minUnstake)\n\t\tpublic\n\t\tvirtual\n\t\treturns (bool success)\n\t{\n\t\trequire(hasRole(DEFAULT_ADMIN_ROLE, _msgSender()), \"LQ4\");\n\t\trequire(minStake >= 1, \"LQ5\");\n\t\trequire(minUnstake >= 1, \"LQ6\");\n\t\t_minStake = minStake;\n\t\t_minUnstake = minUnstake;\n\t\temit SetMinimumValues(minStake, minUnstake);\n\t\treturn true;\n\t}\n\n\t/**\n\t * @dev Set 'unstake epoch', called from admin\n\t * @param unstakeEpoch: unstake epoch\n\t * @param unstakeEpochPrevious: unstake epoch previous(initially set to same value as unstakeEpoch)\n\t * @param epochInterval: varies from 3 hours to 3 days\n\t *\n\t * Emits a {SetUnstakeEpoch} event with 'unstakeEpoch'\n\t *\n\t */\n\tfunction setUnstakeEpoch(\n\t\tuint256 unstakeEpoch,\n\t\tuint256 unstakeEpochPrevious,\n\t\tuint256 epochInterval\n\t) public virtual returns (bool success) {\n\t\trequire(hasRole(DEFAULT_ADMIN_ROLE, _msgSender()), \"LQ7\");\n\t\trequire(unstakeEpochPrevious <= unstakeEpoch, \"LQ8\");\n\t\t// require((unstakeEpoch == 0 && unstakeEpochPrevious == 0 && epochInterval == 0) || (unstakeEpoch != 0 && unstakeEpochPrevious != 0 && epochInterval != 0), \"LQ9\");\n\t\tif (unstakeEpoch == 0 && epochInterval != 0) revert(\"LQ9\");\n\t\t_unstakeEpoch = unstakeEpoch;\n\t\t_unstakeEpochPrevious = unstakeEpochPrevious;\n\t\t_epochInterval = epochInterval;\n\t\temit SetUnstakeEpoch(unstakeEpoch, unstakeEpochPrevious, epochInterval);\n\t\treturn true;\n\t}\n\n\t/**\n\t * @dev Set 'contract address', called from constructor\n\t * @param uAddress: utoken contract address\n\t *\n\t * Emits a {SetUTokensContract} event with '_contract' set to the utoken contract address.\n\t *\n\t */\n\tfunction setUTokensContract(address uAddress) public virtual override {\n\t\trequire(hasRole(DEFAULT_ADMIN_ROLE, _msgSender()), \"LQ10\");\n\t\t_uTokens = IUTokens(uAddress);\n\t\temit SetUTokensContract(uAddress);\n\t}\n\n\t/**\n\t * @dev Set 'contract address', called from constructor\n\t * @param sAddress: stoken contract address\n\t *\n\t * Emits a {SetSTokensContract} event with '_contract' set to the stoken contract address.\n\t *\n\t */\n\tfunction setSTokensContract(address sAddress) public virtual override {\n\t\trequire(hasRole(DEFAULT_ADMIN_ROLE, _msgSender()), \"LQ11\");\n\t\t_sTokens = ISTokens(sAddress);\n\t\temit SetSTokensContract(sAddress);\n\t}\n\n\t/**\n\t * @dev Stake utokens over the platform with address 'to' for desired 'amount'(Burn uTokens and Mint sTokens)\n\t * @param to: user address for staking, amount: number of tokens to stake\n\t *\n\t *\n\t * Requirements:\n\t *\n\t * - `amount` cannot be less than zero.\n\t * - 'amount' cannot be more than balance\n\t * - 'amount' plus new balance should be equal to the old balance\n\t */\n\tfunction stake(address to, uint256 amount)\n\t\tpublic\n\t\tvirtual\n\t\toverride\n\t\twhenNotPaused\n\t\treturns (bool)\n\t{\n\t\t// Check the supplied amount is greater than minimum stake value\n\t\trequire(to == _msgSender(), \"LQ12\");\n\t\t// Check the current balance for uTokens is greater than the amount to be staked\n\t\tuint256 _currentUTokenBalance = _uTokens.balanceOf(to);\n\t\tuint256 _stakeFeeAmount = (amount.mulDiv(_stakeFee, _valueDivisor)).div(\n\t\t\t100\n\t\t);\n\t\tuint256 _finalTokens = amount.add(_stakeFeeAmount);\n\t\t// the value which should be greater than or equal to _minStake\n\t\t// is amount since minval applies to number of sTokens to be minted\n\t\trequire(amount >= _minStake, \"LQ13\");\n\t\trequire(_currentUTokenBalance >= _finalTokens, \"LQ14\");\n\t\temit StakeTokens(to, amount, _finalTokens, block.timestamp);\n\t\t// Burn the uTokens as specified with the amount\n\t\t_uTokens.burn(to, _finalTokens);\n\t\t// Mint the sTokens for the account specified\n\t\t_sTokens.mint(to, amount);\n\t\treturn true;\n\t}\n\n\t/**\n\t * @dev UnStake stokens over the platform with address 'to' for desired 'amount' (Burn sTokens and Mint uTokens with 21 days locking period)\n\t * @param to: user address for staking, amount: number of tokens to unstake\n\t *\n\t *\n\t * Requirements:\n\t *\n\t * - `amount` cannot be less than zero.\n\t * - 'amount' cannot be more than balance\n\t * - 'amount' plus new balance should be equal to the old balance\n\t */\n\tfunction unStake(address to, uint256 amount)\n\t\tpublic\n\t\tvirtual\n\t\toverride\n\t\twhenNotPaused\n\t\treturns (bool)\n\t{\n\t\t// Check the supplied amount is greater than 0\n\t\trequire(to == _msgSender(), \"LQ15\");\n\t\t// require(_unstakeEpoch!=0 && _unstakeEpochPrevious!=0, \"LQ16\");\n\t\t// Check the current balance for sTokens is greater than the amount to be unStaked\n\t\tuint256 _currentSTokenBalance = _sTokens.balanceOf(to);\n\t\tuint256 _unstakeFeeAmount = (amount.mulDiv(_unstakeFee, _valueDivisor))\n\t\t\t.div(100);\n\t\tuint256 _finalTokens = amount.add(_unstakeFeeAmount);\n\t\t// the value which should be greater than or equal to _minSUnstake\n\t\t// is amount since minval applies to number of uTokens to be withdrawn\n\t\trequire(amount >= _minUnstake, \"LQ18\");\n\t\trequire(_currentSTokenBalance >= _finalTokens, \"LQ19\");\n\t\t// Burn the sTokens as specified with the amount\n\t\t_sTokens.burn(to, _finalTokens);\n\t\t_unstakingExpiration[to].push(block.timestamp);\n\t\t// array will hold amount and not _finalTokens because that is the amount of\n\t\t// uTokens pending to be credited after withdraw period\n\t\t_unstakingAmount[to].push(amount);\n\t\t// the event needs to capture _finalTokens that were and not amount\n\t\temit UnstakeTokens(to, amount, _finalTokens, block.timestamp);\n\n\t\treturn true;\n\t}\n\n\t/**\n\t * @dev returns the nearest epoch milestone in the future\n\t */\n\tfunction getUnstakeEpochMilestone(uint256 _unstakeTimestamp)\n\t\tpublic\n\t\tview\n\t\tvirtual\n\t\toverride\n\t\treturns (uint256 unstakeEpochMilestone)\n\t{\n\t\tif (_unstakeTimestamp == 0) return 0;\n\t\t// if epoch values are not relevant, then the epoch milestone is the unstake timestamp itself (backward compatibility)\n\t\tif (\n\t\t\t(_unstakeEpoch == 0 && _unstakeEpochPrevious == 0) ||\n\t\t\t_epochInterval == 0\n\t\t) return _unstakeTimestamp;\n\t\tif (_unstakeEpoch > _unstakeTimestamp) return (_unstakeEpoch);\n\t\tuint256 _referenceStartTime = (_unstakeTimestamp).add(\n\t\t\t_unstakeEpoch.sub(_unstakeEpochPrevious)\n\t\t);\n\t\tuint256 _timeDiff = _referenceStartTime.sub(_unstakeEpoch);\n\t\tunstakeEpochMilestone = (_timeDiff.mod(_epochInterval)).add(\n\t\t\t_referenceStartTime\n\t\t);\n\t\treturn (unstakeEpochMilestone);\n\t}\n\n\t/**\n\t * @dev returns the time left for unbonding to finish\n\t */\n\tfunction getUnstakeTime(uint256 _unstakeTimestamp)\n\t\tpublic\n\t\tview\n\t\tvirtual\n\t\toverride\n\t\treturns (\n\t\t\tuint256 unstakeTime,\n\t\t\tuint256 unstakeEpoch,\n\t\t\tuint256 unstakeEpochPrevious\n\t\t)\n\t{\n\t\tuint256 _unstakeEpochMilestone = getUnstakeEpochMilestone(\n\t\t\t_unstakeTimestamp\n\t\t);\n\t\tif (_unstakeEpochMilestone == 0)\n\t\t\treturn (0, unstakeEpoch, unstakeEpochPrevious);\n\t\tunstakeEpoch = _unstakeEpoch;\n\t\tunstakeEpochPrevious = _unstakeEpochPrevious;\n\t\t//adding unstakingLockTime with epoch difference\n\t\tunstakeTime = _unstakeEpochMilestone.add(_unstakingLockTime);\n\t\treturn (unstakeTime, unstakeEpoch, unstakeEpochPrevious);\n\t}\n\n\t/**\n\t * @dev Lock the unstaked tokens for 21 days, user can withdraw the same (Mint uTokens with 21 days locking period)\n\t *\n\t * @param staker: user address for withdraw\n\t *\n\t * Requirements:\n\t *\n\t * - `current block timestamp` should be after 21 days from the period where unstaked function is called.\n\t */\n\tfunction withdrawUnstakedTokens(address staker)\n\t\tpublic\n\t\tvirtual\n\t\toverride\n\t\twhenNotPaused\n\t{\n\t\trequire(staker == _msgSender(), \"LQ20\");\n\t\tuint256 _withdrawBalance;\n\t\tuint256 _unstakingExpirationLength = _unstakingExpiration[staker]\n\t\t\t.length;\n\t\tuint256 _counter = _withdrawCounters[staker];\n\t\tfor (\n\t\t\tuint256 i = _counter;\n\t\t\ti < _unstakingExpirationLength;\n\t\t\ti = i.add(1)\n\t\t) {\n\t\t\t//get getUnstakeTime and compare it with current timestamp to check if 21 days + epoch difference has passed\n\t\t\t(uint256 _getUnstakeTime, , ) = getUnstakeTime(\n\t\t\t\t_unstakingExpiration[staker][i]\n\t\t\t);\n\t\t\tif (block.timestamp >= _getUnstakeTime) {\n\t\t\t\t//if 21 days + epoch difference has passed, then add the balance and then mint uTokens\n\t\t\t\t_withdrawBalance = _withdrawBalance.add(\n\t\t\t\t\t_unstakingAmount[staker][i]\n\t\t\t\t);\n\t\t\t\t_unstakingExpiration[staker][i] = 0;\n\t\t\t\t_unstakingAmount[staker][i] = 0;\n\t\t\t\t_withdrawCounters[staker] = _withdrawCounters[staker].add(1);\n\t\t\t}\n\t\t}\n\n\t\trequire(_withdrawBalance > 0, \"LQ21\");\n\t\temit WithdrawUnstakeTokens(staker, _withdrawBalance, block.timestamp);\n\t\t_uTokens.mint(staker, _withdrawBalance);\n\t}\n\n\t/**\n\t * @dev get Total Unbonded Tokens\n\t * @param staker: account address\n\t *\n\t */\n\tfunction getTotalUnbondedTokens(address staker)\n\t\tpublic\n\t\tview\n\t\tvirtual\n\t\toverride\n\t\treturns (uint256 unbondingTokens)\n\t{\n\t\tuint256 _unstakingExpirationLength = _unstakingExpiration[staker]\n\t\t\t.length;\n\t\tuint256 _counter = _withdrawCounters[staker];\n\t\tfor (\n\t\t\tuint256 i = _counter;\n\t\t\ti < _unstakingExpirationLength;\n\t\t\ti = i.add(1)\n\t\t) {\n\t\t\t//get getUnstakeTime and compare it with current timestamp to check if 21 days + epoch difference has passed\n\t\t\t(uint256 _getUnstakeTime, , ) = getUnstakeTime(\n\t\t\t\t_unstakingExpiration[staker][i]\n\t\t\t);\n\t\t\tif (block.timestamp >= _getUnstakeTime) {\n\t\t\t\t//if 21 days + epoch difference has passed, then check the token amount and send back\n\t\t\t\tunbondingTokens = unbondingTokens.add(\n\t\t\t\t\t_unstakingAmount[staker][i]\n\t\t\t\t);\n\t\t\t}\n\t\t}\n\t\treturn unbondingTokens;\n\t}\n\n\t/**\n\t * @dev get Total Unbonding Tokens\n\t * @param staker: account address\n\t *\n\t */\n\tfunction getTotalUnbondingTokens(address staker)\n\t\tpublic\n\t\tview\n\t\tvirtual\n\t\toverride\n\t\treturns (uint256 unbondingTokens)\n\t{\n\t\tuint256 _unstakingExpirationLength = _unstakingExpiration[staker]\n\t\t\t.length;\n\t\tuint256 _counter = _withdrawCounters[staker];\n\t\tfor (\n\t\t\tuint256 i = _counter;\n\t\t\ti < _unstakingExpirationLength;\n\t\t\ti = i.add(1)\n\t\t) {\n\t\t\t//get getUnstakeTime and compare it with current timestamp to check if 21 days + epoch difference has passed\n\t\t\t(uint256 _getUnstakeTime, , ) = getUnstakeTime(\n\t\t\t\t_unstakingExpiration[staker][i]\n\t\t\t);\n\t\t\tif (block.timestamp < _getUnstakeTime) {\n\t\t\t\t//if 21 days + epoch difference have not passed, then check the token amount and send back\n\t\t\t\tunbondingTokens = unbondingTokens.add(\n\t\t\t\t\t_unstakingAmount[staker][i]\n\t\t\t\t);\n\t\t\t}\n\t\t}\n\t\treturn unbondingTokens;\n\t}\n\n\t/**\n\t * @dev Triggers stopped state.\n\t *\n\t * Requirements:\n\t *\n\t * - The contract must not be paused.\n\t */\n\tfunction pause() public virtual returns (bool success) {\n\t\trequire(hasRole(PAUSER_ROLE, _msgSender()), \"LQ22\");\n\t\t_pause();\n\t\treturn true;\n\t}\n\n\t/**\n\t * @dev Returns to normal state.\n\t *\n\t * Requirements:\n\t *\n\t * - The contract must be paused.\n\t */\n\tfunction unpause() public virtual returns (bool success) {\n\t\trequire(hasRole(PAUSER_ROLE, _msgSender()), \"LQ23\");\n\t\t_unpause();\n\t\treturn true;\n\t}\n}\n",
  "sourcePath": "C:\\Users\\Kamlesh\\Persistence\\pStake\\codebase\\pStake-smartContracts\\contracts\\LiquidStakingV2.sol",
  "compiler": {
    "name": "solc",
    "version": "0.7.6+commit.7338295f.Emscripten.clang"
  },
  "schemaVersion": "3.4.3",
  "updatedAt": "2021-08-20T16:34:20.428Z",
  "devdoc": {
    "kind": "dev",
    "methods": {
      "getRoleAdmin(bytes32)": {
        "details": "Returns the admin role that controls `role`. See {grantRole} and {revokeRole}. To change a role's admin, use {_setRoleAdmin}."
      },
      "getRoleMember(bytes32,uint256)": {
        "details": "Returns one of the accounts that have `role`. `index` must be a value between 0 and {getRoleMemberCount}, non-inclusive. Role bearers are not sorted in any particular way, and their ordering may change at any point. WARNING: When using {getRoleMember} and {getRoleMemberCount}, make sure you perform all queries on the same block. See the following https://forum.openzeppelin.com/t/iterating-over-elements-on-enumerableset-in-openzeppelin-contracts/2296[forum post] for more information."
      },
      "getRoleMemberCount(bytes32)": {
        "details": "Returns the number of accounts that have `role`. Can be used together with {getRoleMember} to enumerate all bearers of a role."
      },
      "getStakeUnstakeProps()": {
        "details": "get fees, min values, value divisor and epoch props"
      },
      "getTotalUnbondedTokens(address)": {
        "details": "get Total Unbonded Tokens",
        "params": {
          "staker": ": account address"
        }
      },
      "getTotalUnbondingTokens(address)": {
        "details": "get Total Unbonding Tokens",
        "params": {
          "staker": ": account address"
        }
      },
      "getUnstakeEpochMilestone(uint256)": {
        "details": "returns the nearest epoch milestone in the future"
      },
      "getUnstakeTime(uint256)": {
        "details": "returns the time left for unbonding to finish"
      },
      "grantRole(bytes32,address)": {
        "details": "Grants `role` to `account`. If `account` had not been already granted `role`, emits a {RoleGranted} event. Requirements: - the caller must have ``role``'s admin role."
      },
      "hasRole(bytes32,address)": {
        "details": "Returns `true` if `account` has been granted `role`."
      },
      "initialize(address,address,address,uint256,uint256,uint256)": {
        "details": "Constructor for initializing the LiquidStaking contract.",
        "params": {
          "epochInterval": "- varies from 3 hours to 3 days.",
          "pauserAddress": "- address of the pauser admin.",
          "sAddress": "- address of the SToken contract.",
          "uAddress": "- address of the UToken contract.",
          "unstakingLockTime": "- varies from 21 hours to 21 days.",
          "valueDivisor": "- valueDivisor set to 10^9."
        }
      },
      "pause()": {
        "details": "Triggers stopped state. Requirements: - The contract must not be paused."
      },
      "paused()": {
        "details": "Returns true if the contract is paused, and false otherwise."
      },
      "renounceRole(bytes32,address)": {
        "details": "Revokes `role` from the calling account. Roles are often managed via {grantRole} and {revokeRole}: this function's purpose is to provide a mechanism for accounts to lose their privileges if they are compromised (such as when a trusted device is misplaced). If the calling account had been granted `role`, emits a {RoleRevoked} event. Requirements: - the caller must be `account`."
      },
      "revokeRole(bytes32,address)": {
        "details": "Revokes `role` from `account`. If `account` had been granted `role`, emits a {RoleRevoked} event. Requirements: - the caller must have ``role``'s admin role."
      },
      "setFees(uint256,uint256)": {
        "details": "Set 'fees', called from admin",
        "params": {
          "stakeFee": ": stake fee",
          "unstakeFee": ": unstake fee Emits a {SetFees} event with 'fee' set to the stake and unstake."
        }
      },
      "setMinimumValues(uint256,uint256)": {
        "details": "Set 'minimum values', called from admin",
        "params": {
          "minStake": ": stake minimum value",
          "minUnstake": ": unstake minimum value Emits a {SetMinimumValues} event with 'minimum value' set to the stake and unstake."
        }
      },
      "setSTokensContract(address)": {
        "details": "Set 'contract address', called from constructor",
        "params": {
          "sAddress": ": stoken contract address Emits a {SetSTokensContract} event with '_contract' set to the stoken contract address."
        }
      },
      "setUTokensContract(address)": {
        "details": "Set 'contract address', called from constructor",
        "params": {
          "uAddress": ": utoken contract address Emits a {SetUTokensContract} event with '_contract' set to the utoken contract address."
        }
      },
      "setUnstakeEpoch(uint256,uint256,uint256)": {
        "details": "Set 'unstake epoch', called from admin",
        "params": {
          "epochInterval": ": varies from 3 hours to 3 days Emits a {SetUnstakeEpoch} event with 'unstakeEpoch'",
          "unstakeEpoch": ": unstake epoch",
          "unstakeEpochPrevious": ": unstake epoch previous(initially set to same value as unstakeEpoch)"
        }
      },
      "setUnstakingLockTime(uint256)": {
        "details": "Set 'unstake props', called from admin",
        "params": {
          "unstakingLockTime": ": varies from 21 hours to 21 days Emits a {SetUnstakeProps} event with 'fee' set to the stake and unstake."
        }
      },
      "stake(address,uint256)": {
        "details": "Stake utokens over the platform with address 'to' for desired 'amount'(Burn uTokens and Mint sTokens)",
        "params": {
          "to": ": user address for staking, amount: number of tokens to stake Requirements: - `amount` cannot be less than zero. - 'amount' cannot be more than balance - 'amount' plus new balance should be equal to the old balance"
        }
      },
      "unStake(address,uint256)": {
        "details": "UnStake stokens over the platform with address 'to' for desired 'amount' (Burn sTokens and Mint uTokens with 21 days locking period)",
        "params": {
          "to": ": user address for staking, amount: number of tokens to unstake Requirements: - `amount` cannot be less than zero. - 'amount' cannot be more than balance - 'amount' plus new balance should be equal to the old balance"
        }
      },
      "unpause()": {
        "details": "Returns to normal state. Requirements: - The contract must be paused."
      },
      "withdrawUnstakedTokens(address)": {
        "details": "Lock the unstaked tokens for 21 days, user can withdraw the same (Mint uTokens with 21 days locking period)",
        "params": {
          "staker": ": user address for withdraw Requirements: - `current block timestamp` should be after 21 days from the period where unstaked function is called."
        }
      }
    },
    "version": 1
  },
  "userdoc": {
    "kind": "user",
    "methods": {},
    "version": 1
  }
}