{
  "contractName": "LiquidStaking",
  "abi": [
    {
      "anonymous": false,
      "inputs": [
        {
          "indexed": false,
          "internalType": "address",
          "name": "account",
          "type": "address"
        }
      ],
      "name": "Paused",
      "type": "event"
    },
    {
      "anonymous": false,
      "inputs": [
        {
          "indexed": true,
          "internalType": "bytes32",
          "name": "role",
          "type": "bytes32"
        },
        {
          "indexed": true,
          "internalType": "bytes32",
          "name": "previousAdminRole",
          "type": "bytes32"
        },
        {
          "indexed": true,
          "internalType": "bytes32",
          "name": "newAdminRole",
          "type": "bytes32"
        }
      ],
      "name": "RoleAdminChanged",
      "type": "event"
    },
    {
      "anonymous": false,
      "inputs": [
        {
          "indexed": true,
          "internalType": "bytes32",
          "name": "role",
          "type": "bytes32"
        },
        {
          "indexed": true,
          "internalType": "address",
          "name": "account",
          "type": "address"
        },
        {
          "indexed": true,
          "internalType": "address",
          "name": "sender",
          "type": "address"
        }
      ],
      "name": "RoleGranted",
      "type": "event"
    },
    {
      "anonymous": false,
      "inputs": [
        {
          "indexed": true,
          "internalType": "bytes32",
          "name": "role",
          "type": "bytes32"
        },
        {
          "indexed": true,
          "internalType": "address",
          "name": "account",
          "type": "address"
        },
        {
          "indexed": true,
          "internalType": "address",
          "name": "sender",
          "type": "address"
        }
      ],
      "name": "RoleRevoked",
      "type": "event"
    },
    {
      "anonymous": false,
      "inputs": [
        {
          "indexed": false,
          "internalType": "uint256",
          "name": "stakeFee",
          "type": "uint256"
        },
        {
          "indexed": false,
          "internalType": "uint256",
          "name": "unstakeFee",
          "type": "uint256"
        }
      ],
      "name": "SetFees",
      "type": "event"
    },
    {
      "anonymous": false,
      "inputs": [
        {
          "indexed": false,
          "internalType": "uint256",
          "name": "minStake",
          "type": "uint256"
        },
        {
          "indexed": false,
          "internalType": "uint256",
          "name": "minUnstake",
          "type": "uint256"
        }
      ],
      "name": "SetMinimumValues",
      "type": "event"
    },
    {
      "anonymous": false,
      "inputs": [
        {
          "indexed": true,
          "internalType": "address",
          "name": "_contract",
          "type": "address"
        }
      ],
      "name": "SetSTokensContract",
      "type": "event"
    },
    {
      "anonymous": false,
      "inputs": [
        {
          "indexed": true,
          "internalType": "address",
          "name": "_contract",
          "type": "address"
        }
      ],
      "name": "SetUTokensContract",
      "type": "event"
    },
    {
      "anonymous": false,
      "inputs": [
        {
          "indexed": false,
          "internalType": "uint256",
          "name": "unstakeEpoch",
          "type": "uint256"
        }
      ],
      "name": "SetUnstakeEpoch",
      "type": "event"
    },
    {
      "anonymous": false,
      "inputs": [
        {
          "indexed": true,
          "internalType": "address",
          "name": "accountAddress",
          "type": "address"
        },
        {
          "indexed": false,
          "internalType": "uint256",
          "name": "tokens",
          "type": "uint256"
        },
        {
          "indexed": false,
          "internalType": "uint256",
          "name": "timestamp",
          "type": "uint256"
        }
      ],
      "name": "StakeTokens",
      "type": "event"
    },
    {
      "anonymous": false,
      "inputs": [
        {
          "indexed": false,
          "internalType": "address",
          "name": "account",
          "type": "address"
        }
      ],
      "name": "Unpaused",
      "type": "event"
    },
    {
      "anonymous": false,
      "inputs": [
        {
          "indexed": true,
          "internalType": "address",
          "name": "accountAddress",
          "type": "address"
        },
        {
          "indexed": false,
          "internalType": "uint256",
          "name": "tokens",
          "type": "uint256"
        },
        {
          "indexed": false,
          "internalType": "uint256",
          "name": "unstakeTimeData",
          "type": "uint256"
        },
        {
          "indexed": false,
          "internalType": "uint256",
          "name": "timestamp",
          "type": "uint256"
        }
      ],
      "name": "UnstakeTokens",
      "type": "event"
    },
    {
      "anonymous": false,
      "inputs": [
        {
          "indexed": true,
          "internalType": "address",
          "name": "accountAddress",
          "type": "address"
        },
        {
          "indexed": false,
          "internalType": "uint256",
          "name": "tokens",
          "type": "uint256"
        },
        {
          "indexed": false,
          "internalType": "uint256",
          "name": "timestamp",
          "type": "uint256"
        }
      ],
      "name": "WithdrawUnstakeTokens",
      "type": "event"
    },
    {
      "inputs": [],
      "name": "DEFAULT_ADMIN_ROLE",
      "outputs": [
        {
          "internalType": "bytes32",
          "name": "",
          "type": "bytes32"
        }
      ],
      "stateMutability": "view",
      "type": "function",
      "constant": true
    },
    {
      "inputs": [],
      "name": "PAUSER_ROLE",
      "outputs": [
        {
          "internalType": "bytes32",
          "name": "",
          "type": "bytes32"
        }
      ],
      "stateMutability": "view",
      "type": "function",
      "constant": true
    },
    {
      "inputs": [
        {
          "internalType": "bytes32",
          "name": "role",
          "type": "bytes32"
        }
      ],
      "name": "getRoleAdmin",
      "outputs": [
        {
          "internalType": "bytes32",
          "name": "",
          "type": "bytes32"
        }
      ],
      "stateMutability": "view",
      "type": "function",
      "constant": true
    },
    {
      "inputs": [
        {
          "internalType": "bytes32",
          "name": "role",
          "type": "bytes32"
        },
        {
          "internalType": "uint256",
          "name": "index",
          "type": "uint256"
        }
      ],
      "name": "getRoleMember",
      "outputs": [
        {
          "internalType": "address",
          "name": "",
          "type": "address"
        }
      ],
      "stateMutability": "view",
      "type": "function",
      "constant": true
    },
    {
      "inputs": [
        {
          "internalType": "bytes32",
          "name": "role",
          "type": "bytes32"
        }
      ],
      "name": "getRoleMemberCount",
      "outputs": [
        {
          "internalType": "uint256",
          "name": "",
          "type": "uint256"
        }
      ],
      "stateMutability": "view",
      "type": "function",
      "constant": true
    },
    {
      "inputs": [
        {
          "internalType": "bytes32",
          "name": "role",
          "type": "bytes32"
        },
        {
          "internalType": "address",
          "name": "account",
          "type": "address"
        }
      ],
      "name": "grantRole",
      "outputs": [],
      "stateMutability": "nonpayable",
      "type": "function"
    },
    {
      "inputs": [
        {
          "internalType": "bytes32",
          "name": "role",
          "type": "bytes32"
        },
        {
          "internalType": "address",
          "name": "account",
          "type": "address"
        }
      ],
      "name": "hasRole",
      "outputs": [
        {
          "internalType": "bool",
          "name": "",
          "type": "bool"
        }
      ],
      "stateMutability": "view",
      "type": "function",
      "constant": true
    },
    {
      "inputs": [],
      "name": "paused",
      "outputs": [
        {
          "internalType": "bool",
          "name": "",
          "type": "bool"
        }
      ],
      "stateMutability": "view",
      "type": "function",
      "constant": true
    },
    {
      "inputs": [
        {
          "internalType": "bytes32",
          "name": "role",
          "type": "bytes32"
        },
        {
          "internalType": "address",
          "name": "account",
          "type": "address"
        }
      ],
      "name": "renounceRole",
      "outputs": [],
      "stateMutability": "nonpayable",
      "type": "function"
    },
    {
      "inputs": [
        {
          "internalType": "bytes32",
          "name": "role",
          "type": "bytes32"
        },
        {
          "internalType": "address",
          "name": "account",
          "type": "address"
        }
      ],
      "name": "revokeRole",
      "outputs": [],
      "stateMutability": "nonpayable",
      "type": "function"
    },
    {
      "inputs": [
        {
          "internalType": "address",
          "name": "uAddress",
          "type": "address"
        },
        {
          "internalType": "address",
          "name": "sAddress",
          "type": "address"
        },
        {
          "internalType": "address",
          "name": "pauserAddress",
          "type": "address"
        },
        {
          "internalType": "uint256",
          "name": "feeDivisor",
          "type": "uint256"
        }
      ],
      "name": "initialize",
      "outputs": [],
      "stateMutability": "nonpayable",
      "type": "function"
    },
    {
      "inputs": [
        {
          "internalType": "uint256",
          "name": "stakeFee",
          "type": "uint256"
        },
        {
          "internalType": "uint256",
          "name": "unstakeFee",
          "type": "uint256"
        }
      ],
      "name": "setFees",
      "outputs": [
        {
          "internalType": "bool",
          "name": "success",
          "type": "bool"
        }
      ],
      "stateMutability": "nonpayable",
      "type": "function"
    },
    {
      "inputs": [],
      "name": "getStakeUnstakeProps",
      "outputs": [
        {
          "internalType": "uint256",
          "name": "stakeFee",
          "type": "uint256"
        },
        {
          "internalType": "uint256",
          "name": "unstakeFee",
          "type": "uint256"
        },
        {
          "internalType": "uint256",
          "name": "minStake",
          "type": "uint256"
        },
        {
          "internalType": "uint256",
          "name": "minUnstake",
          "type": "uint256"
        },
        {
          "internalType": "uint256",
          "name": "epochInterval",
          "type": "uint256"
        },
        {
          "internalType": "uint256",
          "name": "unstakeEpoch",
          "type": "uint256"
        },
        {
          "internalType": "uint256",
          "name": "unstakingLockTime",
          "type": "uint256"
        }
      ],
      "stateMutability": "view",
      "type": "function",
      "constant": true
    },
    {
      "inputs": [
        {
          "internalType": "uint256",
          "name": "minStake",
          "type": "uint256"
        },
        {
          "internalType": "uint256",
          "name": "minUnstake",
          "type": "uint256"
        }
      ],
      "name": "setMinimumValues",
      "outputs": [
        {
          "internalType": "bool",
          "name": "success",
          "type": "bool"
        }
      ],
      "stateMutability": "nonpayable",
      "type": "function"
    },
    {
      "inputs": [
        {
          "internalType": "uint256",
          "name": "unstakeEpoch",
          "type": "uint256"
        }
      ],
      "name": "setUnstakeEpoch",
      "outputs": [
        {
          "internalType": "bool",
          "name": "success",
          "type": "bool"
        }
      ],
      "stateMutability": "nonpayable",
      "type": "function"
    },
    {
      "inputs": [
        {
          "internalType": "address",
          "name": "uAddress",
          "type": "address"
        }
      ],
      "name": "setUTokensContract",
      "outputs": [],
      "stateMutability": "nonpayable",
      "type": "function"
    },
    {
      "inputs": [
        {
          "internalType": "address",
          "name": "sAddress",
          "type": "address"
        }
      ],
      "name": "setSTokensContract",
      "outputs": [],
      "stateMutability": "nonpayable",
      "type": "function"
    },
    {
      "inputs": [
        {
          "internalType": "address",
          "name": "to",
          "type": "address"
        },
        {
          "internalType": "uint256",
          "name": "utok",
          "type": "uint256"
        }
      ],
      "name": "stake",
      "outputs": [
        {
          "internalType": "bool",
          "name": "",
          "type": "bool"
        }
      ],
      "stateMutability": "nonpayable",
      "type": "function"
    },
    {
      "inputs": [
        {
          "internalType": "address",
          "name": "to",
          "type": "address"
        },
        {
          "internalType": "uint256",
          "name": "stok",
          "type": "uint256"
        }
      ],
      "name": "unStake",
      "outputs": [
        {
          "internalType": "bool",
          "name": "",
          "type": "bool"
        }
      ],
      "stateMutability": "nonpayable",
      "type": "function"
    },
    {
      "inputs": [],
      "name": "getUnstakeEpochTime",
      "outputs": [
        {
          "internalType": "uint256",
          "name": "unstakeEpochTime_",
          "type": "uint256"
        }
      ],
      "stateMutability": "view",
      "type": "function",
      "constant": true
    },
    {
      "inputs": [
        {
          "internalType": "address",
          "name": "staker",
          "type": "address"
        }
      ],
      "name": "withdrawUnstakedTokens",
      "outputs": [],
      "stateMutability": "nonpayable",
      "type": "function"
    },
    {
      "inputs": [
        {
          "internalType": "address",
          "name": "staker",
          "type": "address"
        }
      ],
      "name": "getTotalUnbondedTokens",
      "outputs": [
        {
          "internalType": "uint256",
          "name": "unbondingTokens",
          "type": "uint256"
        }
      ],
      "stateMutability": "view",
      "type": "function",
      "constant": true
    },
    {
      "inputs": [],
      "name": "pause",
      "outputs": [
        {
          "internalType": "bool",
          "name": "success",
          "type": "bool"
        }
      ],
      "stateMutability": "nonpayable",
      "type": "function"
    },
    {
      "inputs": [],
      "name": "unpause",
      "outputs": [
        {
          "internalType": "bool",
          "name": "success",
          "type": "bool"
        }
      ],
      "stateMutability": "nonpayable",
      "type": "function"
    }
  ],
  "bytecode": "0x608060405234801561001057600080fd5b5061229b806100206000396000f3fe608060405234801561001057600080fd5b50600436106101585760003560e01c8063819020a0116100c3578063adc9772e1161007c578063adc9772e146103c8578063ca15c873146103f4578063cf756fdf14610411578063d547741f1461044d578063d939381414610479578063e63ab1e9146104a557610158565b8063819020a01461031f5780638456cb59146103455780639010d07c1461034d57806391d148541461038c578063a11bb00b146103b8578063a217fddf146103c057610158565b80632f2ff15d116101155780632f2ff15d1461025457806336568abe146102805780633f4ba83a146102ac57806351db00e7146102b457806355f2323f146102d75780635c975abb1461031757610158565b80630273b70d1461015d5780630b210ac1146101955780630b78f9c0146101c657806321bdf9e5146101e9578063248a9ca3146102115780632e31fab81461022e575b600080fd5b6101836004803603602081101561017357600080fd5b50356001600160a01b03166104ad565b60408051918252519081900360200190f35b6101b2600480360360208110156101ab57600080fd5b5035610588565b604080519115158252519081900360200190f35b6101b2600480360360408110156101dc57600080fd5b5080359060200135610616565b61020f600480360360208110156101ff57600080fd5b50356001600160a01b03166106ae565b005b6101836004803603602081101561022757600080fd5b5035610740565b61020f6004803603602081101561024457600080fd5b50356001600160a01b0316610755565b61020f6004803603604081101561026a57600080fd5b50803590602001356001600160a01b03166107e7565b61020f6004803603604081101561029657600080fd5b50803590602001356001600160a01b031661084e565b6101b26108af565b6101b2600480360360408110156102ca57600080fd5b5080359060200135610915565b6102df6109ac565b604080519788526020880196909652868601949094526060860192909252608085015260a084015260c0830152519081900360e00190f35b6101b26109c9565b61020f6004803603602081101561033557600080fd5b50356001600160a01b03166109d2565b6101b2610ce1565b6103706004803603604081101561036357600080fd5b5080359060200135610d40565b604080516001600160a01b039092168252519081900360200190f35b6101b2600480360360408110156103a257600080fd5b50803590602001356001600160a01b0316610d5f565b610183610d77565b610183610dd1565b6101b2600480360360408110156103de57600080fd5b506001600160a01b038135169060200135610dd6565b6101836004803603602081101561040a57600080fd5b503561111e565b61020f6004803603608081101561042757600080fd5b506001600160a01b03813581169160208101358216916040820135169060600135611135565b61020f6004803603604081101561046357600080fd5b50803590602001356001600160a01b0316611239565b6101b26004803603604081101561048f57600080fd5b506001600160a01b038135169060200135611292565b6101836115e8565b6001600160a01b038116600090815260a160205260408120546104ce6115fa565b6001600160a01b0316836001600160a01b031614156105825760005b81811015610580576001600160a01b038416600090815260a16020526040902080548290811061051657fe5b906000526020600020015442111561056e576001600160a01b038416600090815260a260205260409020805461056b91908390811061055157fe5b9060005260206000200154846115fe90919063ffffffff16565b92505b6105798160016115fe565b90506104ea565b505b50919050565b600061059b816105966115fa565b610d5f565b6105d65760405162461bcd60e51b8152600401808060200182810382526037815260200180611f1a6037913960400191505060405180910390fd5b60a08290556040805183815290517f2bba5083554cb054a910a49064da432edf8ab48c269f3f56d0a4ce71cf27967d9181900360200190a1506001919050565b6000610624816105966115fa565b61065f5760405162461bcd60e51b815260040180806020018281038252602e815260200180611f51602e913960400191505060405180910390fd5b609b839055609c829055604080518481526020810184905281517f3be6e637f54f081a2dd12982cfd58481304fc98b604b18fa8ed4aa4e4a9d1532929181900390910190a15060015b92915050565b6106bb60006105966115fa565b6106f65760405162461bcd60e51b8152600401808060200182810382526039815260200180611fb86039913960400191505060405180910390fd5b609780546001600160a01b0319166001600160a01b0383169081179091556040517ff745c285f36f88bea6af14d4d0f33dd9350cef7895216c1615b1caaee7857e0c90600090a250565b60009081526065602052604090206002015490565b61076260006105966115fa565b61079d5760405162461bcd60e51b8152600401808060200182810382526039815260200180611f7f6039913960400191505060405180910390fd5b609880546001600160a01b0319166001600160a01b0383169081179091556040517fd0b9dbe26f676f4cdb02fc249c203baa0314cec79e18b4194dc862795a5de03f90600090a250565b600082815260656020526040902060020154610805906105966115fa565b6108405760405162461bcd60e51b815260040180806020018281038252602f815260200180611eeb602f913960400191505060405180910390fd5b61084a8282611658565b5050565b6108566115fa565b6001600160a01b0316816001600160a01b0316146108a55760405162461bcd60e51b815260040180806020018281038252602f815260200180612237602f913960400191505060405180910390fd5b61084a82826116c1565b60006108cb6000805160206120948339815191526105966115fa565b6109065760405162461bcd60e51b81526004018080602001828103825260388152602001806121ff6038913960400191505060405180910390fd5b61090e61172a565b5060015b90565b6000610923816105966115fa565b61095e5760405162461bcd60e51b815260040180806020018281038252603881526020018061211b6038913960400191505060405180910390fd5b6099839055609a829055604080518481526020810184905281517fa94d40347449ea19b873d64ed55c99772194c49791e82be5c2dc24e4c0044fe3929181900390910190a150600192915050565b609b54609c54609954609f5460a054609e54949593949293849390565b60335460ff1690565b6109da6109c9565b15610a1f576040805162461bcd60e51b815260206004820152601060248201526f14185d5cd8589b194e881c185d5cd95960821b604482015290519081900360640190fd5b610a276115fa565b6001600160a01b0316816001600160a01b031614610a765760405162461bcd60e51b81526004018080602001828103825260278152602001806121536027913960400191505060405180910390fd5b6001600160a01b038116600090815260a160205260408120548160a381610a9b6115fa565b6001600160a01b03166001600160a01b031681526020019081526020016000205490505b81811015610bce576001600160a01b038416600090815260a160205260409020805482908110610aeb57fe5b9060005260206000200154421115610bbc576001600160a01b038416600090815260a2602052604090208054610b2691908390811061055157fe5b6001600160a01b038516600090815260a1602052604081208054929550909183908110610b4f57fe5b60009182526020808320909101929092556001600160a01b038616815260a290915260408120805483908110610b8157fe5b906000526020600020018190555060a36000610b9b6115fa565b6001600160a01b031681526020810191909152604001600020805460010190555b610bc78160016115fe565b9050610abf565b5060008211610c0e5760405162461bcd60e51b815260040180806020018281038252602d8152602001806121a8602d913960400191505060405180910390fd5b6040805183815242602082015281516001600160a01b038616927f31453b59c0eb931edc765cc2400876a524254457b5534d660c9da1d74ab4666b928290030190a26097546001600160a01b03166340c10f19610c696115fa565b846040518363ffffffff1660e01b815260040180836001600160a01b0316815260200182815260200192505050602060405180830381600087803b158015610cb057600080fd5b505af1158015610cc4573d6000803e3d6000fd5b505050506040513d6020811015610cda57600080fd5b5050505050565b6000610cfd6000805160206120948339815191526105966115fa565b610d385760405162461bcd60e51b81526004018080602001828103825260368152602001806120b46036913960400191505060405180910390fd5b61090e6117ca565b6000828152606560205260408120610d58908361184d565b9392505050565b6000828152606560205260408120610d589083611859565b6000804290508060a0541115610d9c5760a054610d94908261186e565b915050610912565b6000610db360a0548361186e90919063ffffffff16565b9050610dca609f54826118cb90919063ffffffff16565b9250505090565b600081565b6000610de06109c9565b15610e25576040805162461bcd60e51b815260206004820152601060248201526f14185d5cd8589b194e881c185d5cd95960821b604482015290519081900360640190fd5b6099548211610e655760405162461bcd60e51b815260040180806020018281038252602a8152602001806121d5602a913960400191505060405180910390fd5b610e6d6115fa565b6001600160a01b0316836001600160a01b031614610ebc5760405162461bcd60e51b81526004018080602001828103825260318152602001806120ea6031913960400191505060405180910390fd5b609754604080516370a0823160e01b81526001600160a01b038681166004830152915160009392909216916370a0823191602480820192602092909190829003018186803b158015610f0d57600080fd5b505afa158015610f21573d6000803e3d6000fd5b505050506040513d6020811015610f3757600080fd5b5051905082811015610f7a5760405162461bcd60e51b815260040180806020018281038252602e81526020018061217a602e913960400191505060405180910390fd5b6000610fc7610f956064609d5461193290919063ffffffff16565b610fc1609b54610fbb609d54610fb560648b61193290919063ffffffff16565b90611932565b9061186e565b9061198b565b6040805182815242602082015281519293506001600160a01b038816927f106d46085b22b31d658796e9924cf39946b4105bdb86f8afba3d60d71c3cc591929181900390910190a260975460408051632770a7eb60e21b81526001600160a01b0388811660048301526024820188905291519190921691639dc29fac9160448083019260209291908290030181600087803b15801561106557600080fd5b505af1158015611079573d6000803e3d6000fd5b505050506040513d602081101561108f57600080fd5b5050609854604080516340c10f1960e01b81526001600160a01b03888116600483015260248201859052915191909216916340c10f199160448083019260209291908290030181600087803b1580156110e757600080fd5b505af11580156110fb573d6000803e3d6000fd5b505050506040513d602081101561111157600080fd5b5060019695505050505050565b60008181526065602052604081206106a8906119f2565b600054610100900460ff168061114e575061114e6119fd565b8061115c575060005460ff16155b6111975760405162461bcd60e51b815260040180806020018281038252602e815260200180612045602e913960400191505060405180910390fd5b600054610100900460ff161580156111c2576000805460ff1961ff0019909116610100171660011790555b6111ca611a0e565b6111d2611ac0565b6111e460006111df6115fa565b610840565b6111fc60008051602061209483398151915284610840565b611205856106ae565b61120e84610755565b621baf80609e556203f480609f55609d8290558015610cda576000805461ff00191690555050505050565b600082815260656020526040902060020154611257906105966115fa565b6108a55760405162461bcd60e51b81526004018080602001828103825260308152602001806120156030913960400191505060405180910390fd5b600061129c6109c9565b156112e1576040805162461bcd60e51b815260206004820152601060248201526f14185d5cd8589b194e881c185d5cd95960821b604482015290519081900360640190fd5b6112e96115fa565b6001600160a01b0316836001600160a01b0316146113385760405162461bcd60e51b8152600401808060200182810382526034815260200180611eb76034913960400191505060405180910390fd5b609a5482116113785760405162461bcd60e51b815260040180806020018281038252602c815260200180611e69602c913960400191505060405180910390fd5b60a0546113b65760405162461bcd60e51b8152600401808060200182810382526024815260200180611ff16024913960400191505060405180910390fd5b609854604080516370a0823160e01b81526001600160a01b038681166004830152915160009392909216916370a0823191602480820192602092909190829003018186803b15801561140757600080fd5b505afa15801561141b573d6000803e3d6000fd5b505050506040513d602081101561143157600080fd5b50519050828110156114745760405162461bcd60e51b815260040180806020018281038252602e81526020018061217a602e913960400191505060405180910390fd5b60006114af61148f6064609d5461193290919063ffffffff16565b610fc1609c54610fbb609d54610fb560648b61193290919063ffffffff16565b60985460408051632770a7eb60e21b81526001600160a01b038981166004830152602482018990529151939450911691639dc29fac916044808201926020929091908290030181600087803b15801561150757600080fd5b505af115801561151b573d6000803e3d6000fd5b505050506040513d602081101561153157600080fd5b506000905061153e610d77565b6001600160a01b038716600081815260a160209081526040808320609e805482546001818101855593875285872042808b01938401919092015587875260a286528487208054948501815587529585902090920189905554825189815291019281019290925281810192909252905192935090917f98850af53deeaf736beb3ea22091c900e8e5cfdf8153342daa366dc1d83a39fd9181900360600190a250600195945050505050565b60008051602061209483398151915281565b3390565b600082820183811015610d58576040805162461bcd60e51b815260206004820152601b60248201527f536166654d6174683a206164646974696f6e206f766572666c6f770000000000604482015290519081900360640190fd5b60008281526065602052604090206116709082611b5d565b1561084a5761167d6115fa565b6001600160a01b0316816001600160a01b0316837f2f8788117e7eff1d82e926ec794901d17c78024a50270940304540a733656f0d60405160405180910390a45050565b60008281526065602052604090206116d99082611b72565b1561084a576116e66115fa565b6001600160a01b0316816001600160a01b0316837ff6391f5c32d9c69d2a47ea670b442974b53935d1edc7fd64eb21e047a839171b60405160405180910390a45050565b6117326109c9565b61177a576040805162461bcd60e51b815260206004820152601460248201527314185d5cd8589b194e881b9bdd081c185d5cd95960621b604482015290519081900360640190fd5b6033805460ff191690557f5db9ee0a495bf2e6ff9c91a7834c1ba4fdd244a5e8aa4e537bd38aeae4b073aa6117ad6115fa565b604080516001600160a01b039092168252519081900360200190a1565b6117d26109c9565b15611817576040805162461bcd60e51b815260206004820152601060248201526f14185d5cd8589b194e881c185d5cd95960821b604482015290519081900360640190fd5b6033805460ff191660011790557f62e78cea01bee320cd4e420270b5ea74000d11b0c9f74754ebdbfc544b05a2586117ad6115fa565b6000610d588383611b87565b6000610d58836001600160a01b038416611beb565b6000828211156118c5576040805162461bcd60e51b815260206004820152601e60248201527f536166654d6174683a207375627472616374696f6e206f766572666c6f770000604482015290519081900360640190fd5b50900390565b6000808211611921576040805162461bcd60e51b815260206004820152601860248201527f536166654d6174683a206d6f64756c6f206279207a65726f0000000000000000604482015290519081900360640190fd5b81838161192a57fe5b069392505050565b600082611941575060006106a8565b8282028284828161194e57fe5b0414610d585760405162461bcd60e51b81526004018080602001828103825260218152602001806120736021913960400191505060405180910390fd5b60008082116119e1576040805162461bcd60e51b815260206004820152601a60248201527f536166654d6174683a206469766973696f6e206279207a65726f000000000000604482015290519081900360640190fd5b8183816119ea57fe5b049392505050565b60006106a882611c03565b6000611a0830611c07565b15905090565b600054610100900460ff1680611a275750611a276119fd565b80611a35575060005460ff16155b611a705760405162461bcd60e51b815260040180806020018281038252602e815260200180612045602e913960400191505060405180910390fd5b600054610100900460ff16158015611a9b576000805460ff1961ff0019909116610100171660011790555b611aa3611c0d565b611aab611c0d565b8015611abd576000805461ff00191690555b50565b600054610100900460ff1680611ad95750611ad96119fd565b80611ae7575060005460ff16155b611b225760405162461bcd60e51b815260040180806020018281038252602e815260200180612045602e913960400191505060405180910390fd5b600054610100900460ff16158015611b4d576000805460ff1961ff0019909116610100171660011790555b611b55611c0d565b611aab611cad565b6000610d58836001600160a01b038416611d58565b6000610d58836001600160a01b038416611da2565b81546000908210611bc95760405162461bcd60e51b8152600401808060200182810382526022815260200180611e956022913960400191505060405180910390fd5b826000018281548110611bd857fe5b9060005260206000200154905092915050565b60009081526001919091016020526040902054151590565b5490565b3b151590565b600054610100900460ff1680611c265750611c266119fd565b80611c34575060005460ff16155b611c6f5760405162461bcd60e51b815260040180806020018281038252602e815260200180612045602e913960400191505060405180910390fd5b600054610100900460ff16158015611aab576000805460ff1961ff0019909116610100171660011790558015611abd576000805461ff001916905550565b600054610100900460ff1680611cc65750611cc66119fd565b80611cd4575060005460ff16155b611d0f5760405162461bcd60e51b815260040180806020018281038252602e815260200180612045602e913960400191505060405180910390fd5b600054610100900460ff16158015611d3a576000805460ff1961ff0019909116610100171660011790555b6033805460ff191690558015611abd576000805461ff001916905550565b6000611d648383611beb565b611d9a575081546001818101845560008481526020808220909301849055845484825282860190935260409020919091556106a8565b5060006106a8565b60008181526001830160205260408120548015611e5e5783546000198083019190810190600090879083908110611dd557fe5b9060005260206000200154905080876000018481548110611df257fe5b600091825260208083209091019290925582815260018981019092526040902090840190558654879080611e2257fe5b600190038181906000526020600020016000905590558660010160008781526020019081526020016000206000905560019450505050506106a8565b60009150506106a856fe4c69717569645374616b696e673a2052657175697265732061206d696e20756e7374616b6520616d6f756e74456e756d657261626c655365743a20696e646578206f7574206f6620626f756e64734c69717569645374616b696e673a20556e7374616b696e672063616e206f6e6c7920626520646f6e65206279205374616b657272416363657373436f6e74726f6c3a2073656e646572206d75737420626520616e2061646d696e20746f206772616e744c69717569645374616b696e673a2055736572206e6f7420617574686f726973656420746f2073657420756e7374616b652065706f63684c69717569645374616b696e673a2055736572206e6f7420617574686f726973656420746f2073657420666565734c69717569645374616b696e673a2055736572206e6f7420617574686f726973656420746f207365742053546f6b656e20636f6e74726163744c69717569645374616b696e673a2055736572206e6f7420617574686f726973656420746f207365742055546f6b656e20636f6e74726163744c69717569645374616b696e673a20756e7374616b652065706f6368206e6f7420736574416363657373436f6e74726f6c3a2073656e646572206d75737420626520616e2061646d696e20746f207265766f6b65496e697469616c697a61626c653a20636f6e747261637420697320616c726561647920696e697469616c697a6564536166654d6174683a206d756c7469706c69636174696f6e206f766572666c6f7765d7a28e3265b37a6474929f336521b332c1681b933f6cb9f3376673440d862a4c69717569645374616b696e673a2055736572206e6f7420617574686f726973656420746f20706175736520636f6e7472616374732e4c69717569645374616b696e673a205374616b696e672063616e206f6e6c7920626520646f6e65206279205374616b65724c69717569645374616b696e673a2055736572206e6f7420617574686f726973656420746f20736574206d696e696d756d2076616c7565734c69717569645374616b696e673a204f6e6c79207374616b65722063616e2077697468647261774c69717569645374616b696e673a20496e737566666369656e742062616c616e636520666f72206163636f756e744c69717569645374616b696e673a20556e5374616b696e6720706572696f64207374696c6c2070656e64696e674c69717569645374616b696e673a2052657175697265732061206d696e207374616b6520616d6f756e744c69717569645374616b696e673a2055736572206e6f7420617574686f726973656420746f20756e706175736520636f6e7472616374732e416363657373436f6e74726f6c3a2063616e206f6e6c792072656e6f756e636520726f6c657320666f722073656c66a2646970667358221220e28a40dd26ef7e05f736dc1e07ab772fd129559b905e8e9afb337b5d31d47c3a64736f6c63430007060033",
  "immutableReferences": {},
  "source": "// SPDX-License-Identifier: UNLICENSED\npragma solidity ^0.7.0;\n\nimport \"@openzeppelin/contracts-upgradeable/math/SafeMathUpgradeable.sol\";\nimport \"@openzeppelin/contracts-upgradeable/access/AccessControlUpgradeable.sol\";\nimport \"@openzeppelin/contracts-upgradeable/utils/PausableUpgradeable.sol\";\nimport \"./interfaces/ISTokens.sol\";\nimport \"./interfaces/IUTokens.sol\";\nimport \"./interfaces/ILiquidStaking.sol\";\n\ncontract LiquidStaking is ILiquidStaking, PausableUpgradeable, AccessControlUpgradeable {\n\n    using SafeMathUpgradeable for uint256;\n\n    //Private instances of contracts to handle Utokens and Stokens\n    IUTokens private _uTokens;\n    ISTokens private _sTokens;\n\n    // defining the fees and minimum values\n    uint256 private _minStake;\n    uint256 private _minUnstake;\n    uint256 private _stakeFee;\n    uint256 private _unstakeFee;\n    uint256 private _feeDivisor;\n\n    bytes32 public constant PAUSER_ROLE = keccak256(\"PAUSER_ROLE\");\n\n    uint256 private _unstakingLockTime;\n    uint256 private _epochInterval;\n    uint256 private _unstakeEpoch;\n\n    //Mapping to handle the Expiry period\n    mapping(address => uint256[]) private _unstakingExpiration;\n\n    //Mapping to handle the Expiry amount\n    mapping(address => uint256[]) private _unstakingAmount;\n\n    //mappint to handle a counter variable indicating from what index to start the loop.\n    mapping(address => uint256) internal _withdrawCounters;\n\n    /**\n   * @dev Constructor for initializing the LiquidStaking contract.\n   * @param uAddress - address of the UToken contract.\n   * @param sAddress - address of the SToken contract.\n   * @param pauserAddress - address of the pauser admin.\n   */\n    function initialize(address uAddress, address sAddress, address pauserAddress, uint256 feeDivisor) public virtual initializer  {\n        __AccessControl_init();\n        __Pausable_init();\n        _setupRole(DEFAULT_ADMIN_ROLE, _msgSender());\n        _setupRole(PAUSER_ROLE, pauserAddress);\n        setUTokensContract(uAddress);\n        setSTokensContract(sAddress);\n        _unstakingLockTime = 21 days;\n        _epochInterval = 3 days;\n        _feeDivisor = feeDivisor;\n    }\n\n    /**\n     * @dev Set 'fees', called from admin\n     * @param stakeFee: stake fee\n     * @param unstakeFee: unstake fee\n     *\n     * Emits a {SetFee} event with 'fee' set to the stake and unstake.\n     *\n     */\n    function setFees(uint256 stakeFee, uint256 unstakeFee) public virtual returns (bool success) {\n        require(hasRole(DEFAULT_ADMIN_ROLE, _msgSender()), \"LiquidStaking: User not authorised to set fees\");\n        _stakeFee = stakeFee;\n        _unstakeFee = unstakeFee;\n        emit SetFees(stakeFee, unstakeFee);\n        return true;\n    }\n\n    /**\n     * @dev get fees\n     *\n     */\n    function getStakeUnstakeProps() public view virtual returns (uint256 stakeFee, uint256 unstakeFee, uint256 minStake, uint256 minUnstake, uint256 epochInterval, uint256 unstakeEpoch, uint256 unstakingLockTime) {\n        stakeFee = _stakeFee;\n        unstakeFee = _unstakeFee;\n        minStake = _minStake;\n        minUnstake = _minStake;\n        epochInterval= _epochInterval;\n        unstakeEpoch = _unstakeEpoch;\n        unstakingLockTime = _unstakingLockTime;\n    }\n\n    /**\n     * @dev Set 'minimum values', called from admin\n     * @param minStake: stake minimum value\n     * @param minUnstake: unstake minimum value\n     *\n     * Emits a {SetMinimumValues} event with 'minimum value' set to the stake and unstake.\n     *\n     */\n    function setMinimumValues(uint256 minStake, uint256 minUnstake) public virtual returns (bool success){\n        require(hasRole(DEFAULT_ADMIN_ROLE, _msgSender()), \"LiquidStaking: User not authorised to set minimum values\");\n        _minStake = minStake;\n        _minUnstake = minUnstake;\n        emit SetMinimumValues(minStake, minUnstake);\n        return true;\n    }\n\n    /**\n    * @dev Set 'unstake epoch', called from admin\n    * @param unstakeEpoch: unstake epoch\n    *\n    * Emits a {SetUnstakeEpoch} event with 'unstakeEpoch'\n    *\n    */\n    function setUnstakeEpoch(uint256 unstakeEpoch) public virtual returns (bool success){\n        require(hasRole(DEFAULT_ADMIN_ROLE, _msgSender()), \"LiquidStaking: User not authorised to set unstake epoch\");\n        _unstakeEpoch = unstakeEpoch;\n        emit SetUnstakeEpoch(unstakeEpoch);\n        return true;\n    }\n\n    /**\n     * @dev Set 'contract address', called from constructor\n     * @param uAddress: utoken contract address\n     *\n     * Emits a {SetContract} event with '_contract' set to the utoken contract address.\n     *\n     */\n    function setUTokensContract(address uAddress) public virtual override {\n        require(hasRole(DEFAULT_ADMIN_ROLE, _msgSender()), \"LiquidStaking: User not authorised to set UToken contract\");\n        _uTokens = IUTokens(uAddress);\n        emit SetUTokensContract(uAddress);\n    }\n\n    /**\n     * @dev Set 'contract address', called from constructor\n     * @param sAddress: stoken contract address\n     *\n     * Emits a {SetContract} event with '_contract' set to the stoken contract address.\n     *\n     */\n    function setSTokensContract(address sAddress) public virtual override {\n        require(hasRole(DEFAULT_ADMIN_ROLE, _msgSender()), \"LiquidStaking: User not authorised to set SToken contract\");\n        _sTokens = ISTokens(sAddress);\n        emit SetSTokensContract(sAddress);\n    }\n\n    /**\n    * @dev Stake utokens over the platform with address 'to' for desired 'utok'(Burn uTokens and Mint sTokens)\n    * @param to: user address for staking, utok: number of tokens to stake\n    *\n    *\n    * Requirements:\n    *\n    * - `utok` cannot be less than zero.\n    * - 'utok' cannot be more than balance\n    * - 'utok' plus new balance should be equal to the old balance\n    */\n    function stake(address to, uint256 utok) public virtual override whenNotPaused returns(bool)  {\n        // Check the supplied amount is greater than 0\n        require(utok>_minStake, \"LiquidStaking: Requires a min stake amount\");\n        require(to == _msgSender(), \"LiquidStaking: Staking can only be done by Staker\");\n        // require(hasRole(STAKER_ROLE, _msgSender()), \"LiquidStaking: Staking can only be done by Staker\");\n        // Check the current balance for uTokens is greater than the amount to be staked\n        uint256 _currentUTokenBalance = _uTokens.balanceOf(to);\n        require(_currentUTokenBalance>=utok, \"LiquidStaking: Insuffcient balance for account\");\n        uint256 finalTokens = (((utok.mul(100)).mul(_feeDivisor)).sub(_stakeFee)).div(_feeDivisor.mul(100));\n        emit StakeTokens(to, finalTokens, block.timestamp);\n        // Burn the uTokens as specified with the amount\n        _uTokens.burn(to, utok);\n        // Mint the sTokens for the account specified\n        _sTokens.mint(to, finalTokens);\n        return true;\n    }\n\n    /**\n     * @dev UnStake stokens over the platform with address 'to' for desired 'stok' (Burn sTokens and Mint uTokens with 21 days locking period)\n     * @param to: user address for staking, stok: number of tokens to unstake\n     *\n     *\n     * Requirements:\n     *\n     * - `stok` cannot be less than zero.\n     * - 'stok' cannot be more than balance\n     * - 'stok' plus new balance should be equal to the old balance\n     */\n    function unStake(address to, uint256 stok) public virtual override whenNotPaused returns(bool) {\n        // Check the supplied amount is greater than 0\n        require(to == _msgSender(), \"LiquidStaking: Unstaking can only be done by Stakerr\");\n        require(stok>_minUnstake, \"LiquidStaking: Requires a min unstake amount\");\n        require(_unstakeEpoch!=0, \"LiquidStaking: unstake epoch not set\");\n        // Check the current balance for sTokens is greater than the amount to be unStaked\n        uint256 _currentSTokenBalance = _sTokens.balanceOf(to);\n        require(_currentSTokenBalance>=stok, \"LiquidStaking: Insuffcient balance for account\");\n        uint256 finalTokens = (((stok.mul(100)).mul(_feeDivisor)).sub(_unstakeFee)).div(_feeDivisor.mul(100));\n        // Burn the sTokens as specified with the amount\n        _sTokens.burn(to, stok);\n        uint256 _unstakeEpochTime = getUnstakeEpochTime();\n        _unstakingExpiration[to].push((_unstakeEpochTime + block.timestamp) + _unstakingLockTime);\n        _unstakingAmount[to].push(finalTokens);\n        emit UnstakeTokens(to, finalTokens, (_unstakeEpochTime + block.timestamp) + _unstakingLockTime, block.timestamp);\n        return true;\n    }\n\n    /**\n     * @dev get unstake epoch time\n     */\n    function getUnstakeEpochTime() public view virtual returns (uint256 unstakeEpochTime_) {\n        uint256 _currentTime = block.timestamp;\n        if(_unstakeEpoch > _currentTime) return (_unstakeEpoch.sub(_currentTime));\n\n        uint256 _timeDiff = _currentTime.sub(_unstakeEpoch);\n        unstakeEpochTime_ = _timeDiff.mod(_epochInterval);\n        return unstakeEpochTime_;\n    }\n\n    /**\n     * @dev Lock the unstaked tokens for 21 days, user can withdraw the same (Mint uTokens with 21 days locking period)\n     *\n     * Requirements:\n     *\n     * - `current block timestamp` should be after 21 days from the period where unstaked function is called.\n     */\n    function withdrawUnstakedTokens(address staker) public virtual override whenNotPaused{\n        require(staker == _msgSender(), \"LiquidStaking: Only staker can withdraw\");\n        uint256 _withdrawBalance;\n        uint256 _unstakingExpirationLength = _unstakingExpiration[staker].length;\n        for (uint256 i=_withdrawCounters[_msgSender()]; i<_unstakingExpirationLength; i=i.add(1)) {\n            if (block.timestamp > _unstakingExpiration[staker][i]) {\n                _withdrawBalance = _withdrawBalance.add(_unstakingAmount[staker][i]);\n                _unstakingExpiration[staker][i] = 0;\n                _unstakingAmount[staker][i] = 0;\n                _withdrawCounters[_msgSender()]++;\n            }\n        }\n        require(_withdrawBalance > 0, \"LiquidStaking: UnStaking period still pending\");\n        emit WithdrawUnstakeTokens(staker, _withdrawBalance, block.timestamp);\n        _uTokens.mint(_msgSender(), _withdrawBalance);\n    }\n\n    /**\n     * @dev get Total Unbonded Tokens\n     * @param staker: account address\n     *\n     */\n    function getTotalUnbondedTokens(address staker) public view virtual returns (uint256 unbondingTokens) {\n        uint256 _unstakingExpirationLength = _unstakingExpiration[staker].length;\n        if(staker == _msgSender()){\n            for (uint256 i=0; i<_unstakingExpirationLength; i=i.add(1)) {\n                if (block.timestamp > _unstakingExpiration[staker][i]) {\n                    unbondingTokens = unbondingTokens.add(_unstakingAmount[staker][i]);\n                }\n            }\n        }\n        return unbondingTokens;\n    }\n\n    /**\n      * @dev Triggers stopped state.\n      *\n      * Requirements:\n      *\n      * - The contract must not be paused.\n      */\n    function pause() public virtual returns (bool success) {\n        require(hasRole(PAUSER_ROLE, _msgSender()), \"LiquidStaking: User not authorised to pause contracts.\");\n        _pause();\n        return true;\n    }\n\n    /**\n     * @dev Returns to normal state.\n     *\n     * Requirements:\n     *\n     * - The contract must be paused.\n     */\n    function unpause() public virtual returns (bool success) {\n        require(hasRole(PAUSER_ROLE, _msgSender()), \"LiquidStaking: User not authorised to unpause contracts.\");\n        _unpause();\n        return true;\n    }\n}",
  "sourcePath": "/home/aditimahesh/Documents/Work/Persistence/go/src/github.com/persistenceOne/pStakeSmartContracts/contracts/LiquidStaking.sol",
  "compiler": {
    "name": "solc",
    "version": "0.7.6+commit.7338295f.Emscripten.clang"
  },
  "schemaVersion": "3.3.4",
  "updatedAt": "2021-05-17T09:11:56.949Z",
  "networkType": "ethereum",
  "devdoc": {
    "kind": "dev",
    "methods": {
      "getRoleAdmin(bytes32)": {
        "details": "Returns the admin role that controls `role`. See {grantRole} and {revokeRole}. To change a role's admin, use {_setRoleAdmin}."
      },
      "getRoleMember(bytes32,uint256)": {
        "details": "Returns one of the accounts that have `role`. `index` must be a value between 0 and {getRoleMemberCount}, non-inclusive. Role bearers are not sorted in any particular way, and their ordering may change at any point. WARNING: When using {getRoleMember} and {getRoleMemberCount}, make sure you perform all queries on the same block. See the following https://forum.openzeppelin.com/t/iterating-over-elements-on-enumerableset-in-openzeppelin-contracts/2296[forum post] for more information."
      },
      "getRoleMemberCount(bytes32)": {
        "details": "Returns the number of accounts that have `role`. Can be used together with {getRoleMember} to enumerate all bearers of a role."
      },
      "getStakeUnstakeProps()": {
        "details": "get fees"
      },
      "getTotalUnbondedTokens(address)": {
        "details": "get Total Unbonded Tokens",
        "params": {
          "staker": ": account address"
        }
      },
      "getUnstakeEpochTime()": {
        "details": "get unstake epoch time"
      },
      "grantRole(bytes32,address)": {
        "details": "Grants `role` to `account`. If `account` had not been already granted `role`, emits a {RoleGranted} event. Requirements: - the caller must have ``role``'s admin role."
      },
      "hasRole(bytes32,address)": {
        "details": "Returns `true` if `account` has been granted `role`."
      },
      "initialize(address,address,address,uint256)": {
        "details": "Constructor for initializing the LiquidStaking contract.",
        "params": {
          "pauserAddress": "- address of the pauser admin.",
          "sAddress": "- address of the SToken contract.",
          "uAddress": "- address of the UToken contract."
        }
      },
      "pause()": {
        "details": "Triggers stopped state. Requirements: - The contract must not be paused."
      },
      "paused()": {
        "details": "Returns true if the contract is paused, and false otherwise."
      },
      "renounceRole(bytes32,address)": {
        "details": "Revokes `role` from the calling account. Roles are often managed via {grantRole} and {revokeRole}: this function's purpose is to provide a mechanism for accounts to lose their privileges if they are compromised (such as when a trusted device is misplaced). If the calling account had been granted `role`, emits a {RoleRevoked} event. Requirements: - the caller must be `account`."
      },
      "revokeRole(bytes32,address)": {
        "details": "Revokes `role` from `account`. If `account` had been granted `role`, emits a {RoleRevoked} event. Requirements: - the caller must have ``role``'s admin role."
      },
      "setFees(uint256,uint256)": {
        "details": "Set 'fees', called from admin",
        "params": {
          "stakeFee": ": stake fee",
          "unstakeFee": ": unstake fee Emits a {SetFee} event with 'fee' set to the stake and unstake."
        }
      },
      "setMinimumValues(uint256,uint256)": {
        "details": "Set 'minimum values', called from admin",
        "params": {
          "minStake": ": stake minimum value",
          "minUnstake": ": unstake minimum value Emits a {SetMinimumValues} event with 'minimum value' set to the stake and unstake."
        }
      },
      "setSTokensContract(address)": {
        "details": "Set 'contract address', called from constructor",
        "params": {
          "sAddress": ": stoken contract address Emits a {SetContract} event with '_contract' set to the stoken contract address."
        }
      },
      "setUTokensContract(address)": {
        "details": "Set 'contract address', called from constructor",
        "params": {
          "uAddress": ": utoken contract address Emits a {SetContract} event with '_contract' set to the utoken contract address."
        }
      },
      "setUnstakeEpoch(uint256)": {
        "details": "Set 'unstake epoch', called from admin",
        "params": {
          "unstakeEpoch": ": unstake epoch Emits a {SetUnstakeEpoch} event with 'unstakeEpoch'"
        }
      },
      "stake(address,uint256)": {
        "details": "Stake utokens over the platform with address 'to' for desired 'utok'(Burn uTokens and Mint sTokens)",
        "params": {
          "to": ": user address for staking, utok: number of tokens to stake Requirements: - `utok` cannot be less than zero. - 'utok' cannot be more than balance - 'utok' plus new balance should be equal to the old balance"
        }
      },
      "unStake(address,uint256)": {
        "details": "UnStake stokens over the platform with address 'to' for desired 'stok' (Burn sTokens and Mint uTokens with 21 days locking period)",
        "params": {
          "to": ": user address for staking, stok: number of tokens to unstake Requirements: - `stok` cannot be less than zero. - 'stok' cannot be more than balance - 'stok' plus new balance should be equal to the old balance"
        }
      },
      "unpause()": {
        "details": "Returns to normal state. Requirements: - The contract must be paused."
      },
      "withdrawUnstakedTokens(address)": {
        "details": "Lock the unstaked tokens for 21 days, user can withdraw the same (Mint uTokens with 21 days locking period) Requirements: - `current block timestamp` should be after 21 days from the period where unstaked function is called."
      }
    },
    "version": 1
  },
  "userdoc": {
    "kind": "user",
    "methods": {},
    "version": 1
  }
}