{
  "contractName": "LiquidStakingV3",
  "abi": [
    {
      "anonymous": false,
      "inputs": [
        {
          "indexed": false,
          "internalType": "address",
          "name": "account",
          "type": "address"
        }
      ],
      "name": "Paused",
      "type": "event"
    },
    {
      "anonymous": false,
      "inputs": [
        {
          "indexed": true,
          "internalType": "bytes32",
          "name": "role",
          "type": "bytes32"
        },
        {
          "indexed": true,
          "internalType": "bytes32",
          "name": "previousAdminRole",
          "type": "bytes32"
        },
        {
          "indexed": true,
          "internalType": "bytes32",
          "name": "newAdminRole",
          "type": "bytes32"
        }
      ],
      "name": "RoleAdminChanged",
      "type": "event"
    },
    {
      "anonymous": false,
      "inputs": [
        {
          "indexed": true,
          "internalType": "bytes32",
          "name": "role",
          "type": "bytes32"
        },
        {
          "indexed": true,
          "internalType": "address",
          "name": "account",
          "type": "address"
        },
        {
          "indexed": true,
          "internalType": "address",
          "name": "sender",
          "type": "address"
        }
      ],
      "name": "RoleGranted",
      "type": "event"
    },
    {
      "anonymous": false,
      "inputs": [
        {
          "indexed": true,
          "internalType": "bytes32",
          "name": "role",
          "type": "bytes32"
        },
        {
          "indexed": true,
          "internalType": "address",
          "name": "account",
          "type": "address"
        },
        {
          "indexed": true,
          "internalType": "address",
          "name": "sender",
          "type": "address"
        }
      ],
      "name": "RoleRevoked",
      "type": "event"
    },
    {
      "anonymous": false,
      "inputs": [
        {
          "indexed": false,
          "internalType": "uint256",
          "name": "batchingLimit",
          "type": "uint256"
        },
        {
          "indexed": false,
          "internalType": "uint256",
          "name": "timestamp",
          "type": "uint256"
        }
      ],
      "name": "SetBatchingLimit",
      "type": "event"
    },
    {
      "anonymous": false,
      "inputs": [
        {
          "indexed": false,
          "internalType": "uint256",
          "name": "stakeFee",
          "type": "uint256"
        },
        {
          "indexed": false,
          "internalType": "uint256",
          "name": "unstakeFee",
          "type": "uint256"
        }
      ],
      "name": "SetFees",
      "type": "event"
    },
    {
      "anonymous": false,
      "inputs": [
        {
          "indexed": false,
          "internalType": "uint256",
          "name": "minStake",
          "type": "uint256"
        },
        {
          "indexed": false,
          "internalType": "uint256",
          "name": "minUnstake",
          "type": "uint256"
        }
      ],
      "name": "SetMinimumValues",
      "type": "event"
    },
    {
      "anonymous": false,
      "inputs": [
        {
          "indexed": true,
          "internalType": "address",
          "name": "_contract",
          "type": "address"
        }
      ],
      "name": "SetSTokensContract",
      "type": "event"
    },
    {
      "anonymous": false,
      "inputs": [
        {
          "indexed": true,
          "internalType": "address",
          "name": "_contract",
          "type": "address"
        }
      ],
      "name": "SetUTokensContract",
      "type": "event"
    },
    {
      "anonymous": false,
      "inputs": [
        {
          "indexed": false,
          "internalType": "uint256",
          "name": "unstakeEpoch",
          "type": "uint256"
        },
        {
          "indexed": false,
          "internalType": "uint256",
          "name": "unstakeEpochPrevious",
          "type": "uint256"
        },
        {
          "indexed": false,
          "internalType": "uint256",
          "name": "epochInterval",
          "type": "uint256"
        }
      ],
      "name": "SetUnstakeEpoch",
      "type": "event"
    },
    {
      "anonymous": false,
      "inputs": [
        {
          "indexed": false,
          "internalType": "uint256",
          "name": "unstakingLockTime",
          "type": "uint256"
        }
      ],
      "name": "SetUnstakingLockTime",
      "type": "event"
    },
    {
      "anonymous": false,
      "inputs": [
        {
          "indexed": true,
          "internalType": "address",
          "name": "accountAddress",
          "type": "address"
        },
        {
          "indexed": false,
          "internalType": "uint256",
          "name": "tokens",
          "type": "uint256"
        },
        {
          "indexed": false,
          "internalType": "uint256",
          "name": "finalTokens",
          "type": "uint256"
        },
        {
          "indexed": false,
          "internalType": "uint256",
          "name": "timestamp",
          "type": "uint256"
        }
      ],
      "name": "StakeTokens",
      "type": "event"
    },
    {
      "anonymous": false,
      "inputs": [
        {
          "indexed": false,
          "internalType": "address",
          "name": "account",
          "type": "address"
        }
      ],
      "name": "Unpaused",
      "type": "event"
    },
    {
      "anonymous": false,
      "inputs": [
        {
          "indexed": true,
          "internalType": "address",
          "name": "accountAddress",
          "type": "address"
        },
        {
          "indexed": false,
          "internalType": "uint256",
          "name": "tokens",
          "type": "uint256"
        },
        {
          "indexed": false,
          "internalType": "uint256",
          "name": "finalTokens",
          "type": "uint256"
        },
        {
          "indexed": false,
          "internalType": "uint256",
          "name": "timestamp",
          "type": "uint256"
        }
      ],
      "name": "UnstakeTokens",
      "type": "event"
    },
    {
      "anonymous": false,
      "inputs": [
        {
          "indexed": true,
          "internalType": "address",
          "name": "accountAddress",
          "type": "address"
        },
        {
          "indexed": false,
          "internalType": "uint256",
          "name": "tokens",
          "type": "uint256"
        },
        {
          "indexed": false,
          "internalType": "uint256",
          "name": "timestamp",
          "type": "uint256"
        }
      ],
      "name": "WithdrawUnstakeTokens",
      "type": "event"
    },
    {
      "inputs": [],
      "name": "DEFAULT_ADMIN_ROLE",
      "outputs": [
        {
          "internalType": "bytes32",
          "name": "",
          "type": "bytes32"
        }
      ],
      "stateMutability": "view",
      "type": "function"
    },
    {
      "inputs": [],
      "name": "PAUSER_ROLE",
      "outputs": [
        {
          "internalType": "bytes32",
          "name": "",
          "type": "bytes32"
        }
      ],
      "stateMutability": "view",
      "type": "function"
    },
    {
      "inputs": [],
      "name": "_batchingLimit",
      "outputs": [
        {
          "internalType": "uint256",
          "name": "",
          "type": "uint256"
        }
      ],
      "stateMutability": "view",
      "type": "function"
    },
    {
      "inputs": [],
      "name": "_sTokens",
      "outputs": [
        {
          "internalType": "contract ISTokensV2",
          "name": "",
          "type": "address"
        }
      ],
      "stateMutability": "view",
      "type": "function"
    },
    {
      "inputs": [],
      "name": "_uTokens",
      "outputs": [
        {
          "internalType": "contract IUTokensV2",
          "name": "",
          "type": "address"
        }
      ],
      "stateMutability": "view",
      "type": "function"
    },
    {
      "inputs": [
        {
          "internalType": "address",
          "name": "",
          "type": "address"
        },
        {
          "internalType": "uint256",
          "name": "",
          "type": "uint256"
        }
      ],
      "name": "_unstakingAmount",
      "outputs": [
        {
          "internalType": "uint256",
          "name": "",
          "type": "uint256"
        }
      ],
      "stateMutability": "view",
      "type": "function"
    },
    {
      "inputs": [
        {
          "internalType": "address",
          "name": "",
          "type": "address"
        },
        {
          "internalType": "uint256",
          "name": "",
          "type": "uint256"
        }
      ],
      "name": "_unstakingExpiration",
      "outputs": [
        {
          "internalType": "uint256",
          "name": "",
          "type": "uint256"
        }
      ],
      "stateMutability": "view",
      "type": "function"
    },
    {
      "inputs": [],
      "name": "_valueDivisor",
      "outputs": [
        {
          "internalType": "uint256",
          "name": "",
          "type": "uint256"
        }
      ],
      "stateMutability": "view",
      "type": "function"
    },
    {
      "inputs": [],
      "name": "_version",
      "outputs": [
        {
          "internalType": "uint256",
          "name": "",
          "type": "uint256"
        }
      ],
      "stateMutability": "view",
      "type": "function"
    },
    {
      "inputs": [
        {
          "internalType": "address",
          "name": "",
          "type": "address"
        }
      ],
      "name": "_withdrawCounters",
      "outputs": [
        {
          "internalType": "uint256",
          "name": "",
          "type": "uint256"
        }
      ],
      "stateMutability": "view",
      "type": "function"
    },
    {
      "inputs": [
        {
          "internalType": "bytes32",
          "name": "role",
          "type": "bytes32"
        }
      ],
      "name": "getRoleAdmin",
      "outputs": [
        {
          "internalType": "bytes32",
          "name": "",
          "type": "bytes32"
        }
      ],
      "stateMutability": "view",
      "type": "function"
    },
    {
      "inputs": [
        {
          "internalType": "bytes32",
          "name": "role",
          "type": "bytes32"
        },
        {
          "internalType": "uint256",
          "name": "index",
          "type": "uint256"
        }
      ],
      "name": "getRoleMember",
      "outputs": [
        {
          "internalType": "address",
          "name": "",
          "type": "address"
        }
      ],
      "stateMutability": "view",
      "type": "function"
    },
    {
      "inputs": [
        {
          "internalType": "bytes32",
          "name": "role",
          "type": "bytes32"
        }
      ],
      "name": "getRoleMemberCount",
      "outputs": [
        {
          "internalType": "uint256",
          "name": "",
          "type": "uint256"
        }
      ],
      "stateMutability": "view",
      "type": "function"
    },
    {
      "inputs": [
        {
          "internalType": "bytes32",
          "name": "role",
          "type": "bytes32"
        },
        {
          "internalType": "address",
          "name": "account",
          "type": "address"
        }
      ],
      "name": "grantRole",
      "outputs": [],
      "stateMutability": "nonpayable",
      "type": "function"
    },
    {
      "inputs": [
        {
          "internalType": "bytes32",
          "name": "role",
          "type": "bytes32"
        },
        {
          "internalType": "address",
          "name": "account",
          "type": "address"
        }
      ],
      "name": "hasRole",
      "outputs": [
        {
          "internalType": "bool",
          "name": "",
          "type": "bool"
        }
      ],
      "stateMutability": "view",
      "type": "function"
    },
    {
      "inputs": [],
      "name": "paused",
      "outputs": [
        {
          "internalType": "bool",
          "name": "",
          "type": "bool"
        }
      ],
      "stateMutability": "view",
      "type": "function"
    },
    {
      "inputs": [
        {
          "internalType": "bytes32",
          "name": "role",
          "type": "bytes32"
        },
        {
          "internalType": "address",
          "name": "account",
          "type": "address"
        }
      ],
      "name": "renounceRole",
      "outputs": [],
      "stateMutability": "nonpayable",
      "type": "function"
    },
    {
      "inputs": [
        {
          "internalType": "bytes32",
          "name": "role",
          "type": "bytes32"
        },
        {
          "internalType": "address",
          "name": "account",
          "type": "address"
        }
      ],
      "name": "revokeRole",
      "outputs": [],
      "stateMutability": "nonpayable",
      "type": "function"
    },
    {
      "inputs": [
        {
          "internalType": "address",
          "name": "uAddress",
          "type": "address"
        },
        {
          "internalType": "address",
          "name": "sAddress",
          "type": "address"
        },
        {
          "internalType": "address",
          "name": "pauserAddress",
          "type": "address"
        },
        {
          "internalType": "uint256",
          "name": "unstakingLockTime",
          "type": "uint256"
        },
        {
          "internalType": "uint256",
          "name": "epochInterval",
          "type": "uint256"
        },
        {
          "internalType": "uint256",
          "name": "valueDivisor",
          "type": "uint256"
        }
      ],
      "name": "initialize",
      "outputs": [],
      "stateMutability": "nonpayable",
      "type": "function"
    },
    {
      "inputs": [
        {
          "internalType": "uint256",
          "name": "stakeFee",
          "type": "uint256"
        },
        {
          "internalType": "uint256",
          "name": "unstakeFee",
          "type": "uint256"
        }
      ],
      "name": "setFees",
      "outputs": [
        {
          "internalType": "bool",
          "name": "success",
          "type": "bool"
        }
      ],
      "stateMutability": "nonpayable",
      "type": "function"
    },
    {
      "inputs": [
        {
          "internalType": "uint256",
          "name": "batchingLimit",
          "type": "uint256"
        }
      ],
      "name": "setBatchingLimit",
      "outputs": [
        {
          "internalType": "bool",
          "name": "success",
          "type": "bool"
        }
      ],
      "stateMutability": "nonpayable",
      "type": "function"
    },
    {
      "inputs": [],
      "name": "getBatchingLimit",
      "outputs": [
        {
          "internalType": "uint256",
          "name": "batchingLimit",
          "type": "uint256"
        }
      ],
      "stateMutability": "view",
      "type": "function"
    },
    {
      "inputs": [
        {
          "internalType": "uint256",
          "name": "unstakingLockTime",
          "type": "uint256"
        }
      ],
      "name": "setUnstakingLockTime",
      "outputs": [
        {
          "internalType": "bool",
          "name": "success",
          "type": "bool"
        }
      ],
      "stateMutability": "nonpayable",
      "type": "function"
    },
    {
      "inputs": [],
      "name": "getStakeUnstakeProps",
      "outputs": [
        {
          "internalType": "uint256",
          "name": "stakeFee",
          "type": "uint256"
        },
        {
          "internalType": "uint256",
          "name": "unstakeFee",
          "type": "uint256"
        },
        {
          "internalType": "uint256",
          "name": "minStake",
          "type": "uint256"
        },
        {
          "internalType": "uint256",
          "name": "minUnstake",
          "type": "uint256"
        },
        {
          "internalType": "uint256",
          "name": "valueDivisor",
          "type": "uint256"
        },
        {
          "internalType": "uint256",
          "name": "epochInterval",
          "type": "uint256"
        },
        {
          "internalType": "uint256",
          "name": "unstakeEpoch",
          "type": "uint256"
        },
        {
          "internalType": "uint256",
          "name": "unstakeEpochPrevious",
          "type": "uint256"
        },
        {
          "internalType": "uint256",
          "name": "unstakingLockTime",
          "type": "uint256"
        }
      ],
      "stateMutability": "view",
      "type": "function"
    },
    {
      "inputs": [
        {
          "internalType": "uint256",
          "name": "minStake",
          "type": "uint256"
        },
        {
          "internalType": "uint256",
          "name": "minUnstake",
          "type": "uint256"
        }
      ],
      "name": "setMinimumValues",
      "outputs": [
        {
          "internalType": "bool",
          "name": "success",
          "type": "bool"
        }
      ],
      "stateMutability": "nonpayable",
      "type": "function"
    },
    {
      "inputs": [
        {
          "internalType": "uint256",
          "name": "unstakeEpoch",
          "type": "uint256"
        },
        {
          "internalType": "uint256",
          "name": "unstakeEpochPrevious",
          "type": "uint256"
        },
        {
          "internalType": "uint256",
          "name": "epochInterval",
          "type": "uint256"
        }
      ],
      "name": "setUnstakeEpoch",
      "outputs": [
        {
          "internalType": "bool",
          "name": "success",
          "type": "bool"
        }
      ],
      "stateMutability": "nonpayable",
      "type": "function"
    },
    {
      "inputs": [
        {
          "internalType": "address",
          "name": "uAddress",
          "type": "address"
        }
      ],
      "name": "setUTokensContract",
      "outputs": [],
      "stateMutability": "nonpayable",
      "type": "function"
    },
    {
      "inputs": [
        {
          "internalType": "address",
          "name": "sAddress",
          "type": "address"
        }
      ],
      "name": "setSTokensContract",
      "outputs": [],
      "stateMutability": "nonpayable",
      "type": "function"
    },
    {
      "inputs": [
        {
          "internalType": "address",
          "name": "to",
          "type": "address"
        },
        {
          "internalType": "uint256",
          "name": "amount",
          "type": "uint256"
        }
      ],
      "name": "stake",
      "outputs": [
        {
          "internalType": "bool",
          "name": "",
          "type": "bool"
        }
      ],
      "stateMutability": "nonpayable",
      "type": "function"
    },
    {
      "inputs": [
        {
          "internalType": "address",
          "name": "to",
          "type": "address"
        },
        {
          "internalType": "uint256",
          "name": "amount",
          "type": "uint256"
        }
      ],
      "name": "unStake",
      "outputs": [
        {
          "internalType": "bool",
          "name": "",
          "type": "bool"
        }
      ],
      "stateMutability": "nonpayable",
      "type": "function"
    },
    {
      "inputs": [
        {
          "internalType": "uint256",
          "name": "_unstakeTimestamp",
          "type": "uint256"
        }
      ],
      "name": "getUnstakeEpochMilestone",
      "outputs": [
        {
          "internalType": "uint256",
          "name": "unstakeEpochMilestone",
          "type": "uint256"
        }
      ],
      "stateMutability": "view",
      "type": "function"
    },
    {
      "inputs": [
        {
          "internalType": "uint256",
          "name": "_unstakeTimestamp",
          "type": "uint256"
        }
      ],
      "name": "getUnstakeTime",
      "outputs": [
        {
          "internalType": "uint256",
          "name": "unstakeTime",
          "type": "uint256"
        },
        {
          "internalType": "uint256",
          "name": "unstakeEpoch",
          "type": "uint256"
        },
        {
          "internalType": "uint256",
          "name": "unstakeEpochPrevious",
          "type": "uint256"
        }
      ],
      "stateMutability": "view",
      "type": "function"
    },
    {
      "inputs": [
        {
          "internalType": "address",
          "name": "staker",
          "type": "address"
        }
      ],
      "name": "withdrawUnstakedTokens",
      "outputs": [],
      "stateMutability": "nonpayable",
      "type": "function"
    },
    {
      "inputs": [
        {
          "internalType": "address",
          "name": "staker",
          "type": "address"
        }
      ],
      "name": "getTotalUnbondedTokens",
      "outputs": [
        {
          "internalType": "uint256",
          "name": "unbondingTokens",
          "type": "uint256"
        }
      ],
      "stateMutability": "view",
      "type": "function"
    },
    {
      "inputs": [
        {
          "internalType": "address",
          "name": "staker",
          "type": "address"
        }
      ],
      "name": "getTotalUnbondingTokens",
      "outputs": [
        {
          "internalType": "uint256",
          "name": "unbondingTokens",
          "type": "uint256"
        }
      ],
      "stateMutability": "view",
      "type": "function"
    },
    {
      "inputs": [],
      "name": "pause",
      "outputs": [
        {
          "internalType": "bool",
          "name": "success",
          "type": "bool"
        }
      ],
      "stateMutability": "nonpayable",
      "type": "function"
    },
    {
      "inputs": [],
      "name": "unpause",
      "outputs": [
        {
          "internalType": "bool",
          "name": "success",
          "type": "bool"
        }
      ],
      "stateMutability": "nonpayable",
      "type": "function"
    }
  ],
  "bytecode": "0x608060405234801561001057600080fd5b50612764806100206000396000f3fe608060405234801561001057600080fd5b50600436106102275760003560e01c80638456cb5911610130578063b17e3165116100b8578063d79cf55a1161007c578063d79cf55a1461066d578063d939381414610675578063e63ab1e9146106a1578063f3e6f94e146106a9578063f75f0cf6146106d557610227565b8063b17e3165146105d9578063b3deb34f146105ff578063bef1307c14610607578063ca15c87314610624578063d547741f1461064157610227565b806391d14854116100ff57806391d14854146105335780639b9eea461461055f5780639dc77cab1461057c578063a217fddf146105a5578063adc9772e146105ad57610227565b80638456cb59146104a757806385e32840146104af578063898a9664146104ea5780639010d07c1461051057610227565b80633e118dbe116101b35780635c975abb116101825780635c975abb14610405578063728a99ee1461040d578063728cdbca1461041557806378a2f0741461045d578063819020a01461048157610227565b80633e118dbe146103835780633f4ba83a1461038b57806351db00e71461039357806355f2323f146103b657610227565b806321bdf9e5116101fa57806321bdf9e5146102c0578063248a9ca3146102e85780632e31fab8146103055780632f2ff15d1461032b57806336568abe1461035757610227565b80630273b70d1461022c5780630b78f9c0146102645780630e4b29431461029b57806316027ed0146102b8575b600080fd5b6102526004803603602081101561024257600080fd5b50356001600160a01b0316610701565b60408051918252519081900360200190f35b6102876004803603604081101561027a57600080fd5b50803590602001356107d5565b604080519115158252519081900360200190f35b610287600480360360208110156102b157600080fd5b50356108e0565b610252610965565b6102e6600480360360208110156102d657600080fd5b50356001600160a01b031661096b565b005b610252600480360360208110156102fe57600080fd5b50356109fc565b6102e66004803603602081101561031b57600080fd5b50356001600160a01b0316610a11565b6102e66004803603604081101561034157600080fd5b50803590602001356001600160a01b0316610aa2565b6102e66004803603604081101561036d57600080fd5b50803590602001356001600160a01b0316610b09565b610252610b6a565b610287610b70565b610287600480360360408110156103a957600080fd5b5080359060200135610bd4565b6103be610cdf565b60408051998a5260208a0198909852888801969096526060880194909452608087019290925260a086015260c085015260e084015261010083015251908190036101200190f35b610287610d02565b610252610d0b565b6102e6600480360360c081101561042b57600080fd5b506001600160a01b03813581169160208101358216916040820135169060608101359060808101359060a00135610d11565b610465610e2c565b604080516001600160a01b039092168252519081900360200190f35b6102e66004803603602081101561049757600080fd5b50356001600160a01b0316610e3b565b610287611160565b6104cc600480360360208110156104c557600080fd5b50356111be565b60408051938452602084019290925282820152519081900360600190f35b6102526004803603602081101561050057600080fd5b50356001600160a01b0316611208565b6104656004803603604081101561052657600080fd5b508035906020013561121a565b6102876004803603604081101561054957600080fd5b50803590602001356001600160a01b0316611239565b6102526004803603602081101561057557600080fd5b5035611251565b6102876004803603606081101561059257600080fd5b50803590602081013590604001356112ff565b61025261141d565b610287600480360360408110156105c357600080fd5b506001600160a01b038135169060200135611422565b610252600480360360208110156105ef57600080fd5b50356001600160a01b0316611751565b6102526117f3565b6102876004803603602081101561061d57600080fd5b50356117f9565b6102526004803603602081101561063a57600080fd5b5035611888565b6102e66004803603604081101561065757600080fd5b50803590602001356001600160a01b031661189f565b6104656118f8565b6102876004803603604081101561068b57600080fd5b506001600160a01b038135169060200135611907565b610252611bec565b610252600480360360408110156106bf57600080fd5b506001600160a01b038135169060200135611bfe565b610252600480360360408110156106eb57600080fd5b506001600160a01b038135169060200135611c2f565b6001600160a01b038116600090815260a2602090815260408083205460a4909252822054805b828110156107cc576001600160a01b038516600090815260a260205260408120805461076891908490811061075857fe5b90600052602060002001546111be565b505090508042106107b9576001600160a01b038616600090815260a36020526040902080546107b691908490811061079c57fe5b906000526020600020015486611c4b90919063ffffffff16565b94505b506107c5816001611c4b565b9050610727565b5050505b919050565b60006107e8816107e3611ca5565b611239565b61081f576040805162461bcd60e51b81526020600482015260036024820152624c513160e81b604482015290519081900360640190fd5b609d5461082d906064611ca9565b83111580610839575082155b801561085a5750609d5461084e906064611ca9565b8211158061085a575081155b610891576040805162461bcd60e51b815260206004820152600360248201526226289960e91b604482015290519081900360640190fd5b609b839055609c829055604080518481526020810184905281517f3be6e637f54f081a2dd12982cfd58481304fc98b604b18fa8ed4aa4e4a9d1532929181900390910190a15060015b92915050565b60006108ee816107e3611ca5565b610925576040805162461bcd60e51b81526020600482015260036024820152624c513360e81b604482015290519081900360640190fd5b609e8290556040805183815290517ffced4450741ad45114dbc966176eb1d16dc4f2259bc864aa395736a7e8355bbb9181900360200190a1506001919050565b60a65481565b61097860006107e3611ca5565b6109b2576040805162461bcd60e51b8152602060048083019190915260248201526304c5131360e41b604482015290519081900360640190fd5b609780546001600160a01b0319166001600160a01b0383169081179091556040517ff745c285f36f88bea6af14d4d0f33dd9350cef7895216c1615b1caaee7857e0c90600090a250565b60009081526065602052604090206002015490565b610a1e60006107e3611ca5565b610a58576040805162461bcd60e51b815260206004808301919091526024820152634c51313160e01b604482015290519081900360640190fd5b609880546001600160a01b0319166001600160a01b0383169081179091556040517fd0b9dbe26f676f4cdb02fc249c203baa0314cec79e18b4194dc862795a5de03f90600090a250565b600082815260656020526040902060020154610ac0906107e3611ca5565b610afb5760405162461bcd60e51b815260040180806020018281038252602f815260200180612632602f913960400191505060405180910390fd5b610b058282611d02565b5050565b610b11611ca5565b6001600160a01b0316816001600160a01b031614610b605760405162461bcd60e51b815260040180806020018281038252602f815260200180612700602f913960400191505060405180910390fd5b610b058282611d6b565b60a55481565b6000610b8c6000805160206126e08339815191526107e3611ca5565b610bc6576040805162461bcd60e51b815260206004808301919091526024820152634c51323360e01b604482015290519081900360640190fd5b610bce611dd4565b50600190565b6000610be2816107e3611ca5565b610c19576040805162461bcd60e51b815260206004820152600360248201526213144d60ea1b604482015290519081900360640190fd5b6001831015610c55576040805162461bcd60e51b81526020600482015260036024820152624c513560e81b604482015290519081900360640190fd5b6001821015610c91576040805162461bcd60e51b815260206004820152600360248201526226289b60e91b604482015290519081900360640190fd5b6099839055609a829055604080518481526020810184905281517fa94d40347449ea19b873d64ed55c99772194c49791e82be5c2dc24e4c0044fe3929181900390910190a150600192915050565b609b54609c54609954609d54609f5460a05460a154609e54969795969495869590565b60335460ff1690565b609d5481565b600054610100900460ff1680610d2a5750610d2a611e74565b80610d38575060005460ff16155b610d735760405162461bcd60e51b815260040180806020018281038252602e815260200180612691602e913960400191505060405180910390fd5b600054610100900460ff16158015610d9e576000805460ff1961ff0019909116610100171660011790555b610da6611e85565b610dae611f37565b610dc06000610dbb611ca5565b610afb565b610dd86000805160206126e083398151915286610afb565b610de18761096b565b610dea86610a11565b610df3846108e0565b50610dff600180610bd4565b50609d829055610e104280856112ff565b508015610e23576000805461ff00191690555b50505050505050565b6097546001600160a01b031681565b610e43610d02565b15610e88576040805162461bcd60e51b815260206004820152601060248201526f14185d5cd8589b194e881c185d5cd95960821b604482015290519081900360640190fd5b610e90611ca5565b6001600160a01b0316816001600160a01b031614610ede576040805162461bcd60e51b8152602060048083019190915260248201526304c5132360e41b604482015290519081900360640190fd5b60a6546001600160a01b038216600090815260a260205260408120549091829111610f21576001600160a01b038316600090815260a26020526040902054610f25565b60a6545b6001600160a01b038416600090815260a4602052604090205490915080805b83811015611047576001600160a01b038616600090815260a2602052604081208054610f7591908490811061075857fe5b50509050804210611034576001600160a01b038716600090815260a3602052604090208054610fc3919084908110610fa957fe5b906000526020600020015487611c4b90919063ffffffff16565b6001600160a01b038816600090815260a26020526040902080549197509083908110610feb57fe5b600091825260208083209091018290556001600160a01b038916825260a390526040902080548390811061101b57fe5b6000918252602082200155611031836001611c4b565b92505b50611040816001611c4b565b9050610f44565b506001600160a01b038516600090815260a4602052604090208190558361109e576040805162461bcd60e51b815260206004808301919091526024820152634c51323160e01b604482015290519081900360640190fd5b6040805185815242602082015281516001600160a01b038816927f31453b59c0eb931edc765cc2400876a524254457b5534d660c9da1d74ab4666b928290030190a2609754604080516340c10f1960e01b81526001600160a01b03888116600483015260248201889052915191909216916340c10f199160448083019260209291908290030181600087803b15801561113657600080fd5b505af115801561114a573d6000803e3d6000fd5b505050506040513d6020811015610e2357600080fd5b600061117c6000805160206126e08339815191526107e3611ca5565b6111b6576040805162461bcd60e51b815260206004808301919091526024820152632628991960e11b604482015290519081900360640190fd5b610bce611fd4565b6000806000806111cd85611251565b9050806111de576000935050611201565b60a054925060a15491506111fd609e5482611c4b90919063ffffffff16565b9350505b9193909250565b60a46020526000908152604090205481565b60008281526065602052604081206112329083612057565b9392505050565b60008281526065602052604081206112329083612063565b600081611260575060006107d0565b60a054158015611270575060a154155b8061127b5750609f54155b156112875750806107d0565b8160a054111561129a575060a0546107d0565b60006112bd6112b660a15460a05461207890919063ffffffff16565b8490611c4b565b905060006112d660a0548361207890919063ffffffff16565b90506112f7826112f1609f54846120d590919063ffffffff16565b90611c4b565b949350505050565b600061130d816107e3611ca5565b611344576040805162461bcd60e51b81526020600482015260036024820152624c513760e81b604482015290519081900360640190fd5b8383111561137f576040805162461bcd60e51b8152602060048201526003602482015262098a2760eb1b604482015290519081900360640190fd5b8315801561138c57508115155b156113c4576040805162461bcd60e51b81526020600482015260036024820152624c513960e81b604482015290519081900360640190fd5b60a084905560a1839055609f829055604080518581526020810185905280820184905290517f342db083975cc0697d0f81d0876299ecbf95d909e920426089062e540904497c9181900360600190a15060019392505050565b600081565b600061142c610d02565b15611471576040805162461bcd60e51b815260206004820152601060248201526f14185d5cd8589b194e881c185d5cd95960821b604482015290519081900360640190fd5b611479611ca5565b6001600160a01b0316836001600160a01b0316146114c7576040805162461bcd60e51b815260206004808301919091526024820152632628989960e11b604482015290519081900360640190fd5b609754604080516370a0823160e01b81526001600160a01b038681166004830152915160009392909216916370a0823191602480820192602092909190829003018186803b15801561151857600080fd5b505afa15801561152c573d6000803e3d6000fd5b505050506040513d602081101561154257600080fd5b5051609b54609d549192506000916115689160649161156291889161213c565b906121f5565b905060006115768583611c4b565b90506099548510156115b8576040805162461bcd60e51b815260206004808301919091526024820152634c51313360e01b604482015290519081900360640190fd5b808310156115f6576040805162461bcd60e51b8152602060048083019190915260248201526313144c4d60e21b604482015290519081900360640190fd5b6040805186815260208101839052428183015290516001600160a01b038816917f5fe79871cd2431c06447cbcf2557091da5d2ed5bc640f1028f42665913786e42919081900360600190a260975460408051632770a7eb60e21b81526001600160a01b0389811660048301526024820185905291519190921691639dc29fac9160448083019260209291908290030181600087803b15801561169757600080fd5b505af11580156116ab573d6000803e3d6000fd5b505050506040513d60208110156116c157600080fd5b5050609854604080516340c10f1960e01b81526001600160a01b03898116600483015260248201899052915191909216916340c10f199160448083019260209291908290030181600087803b15801561171957600080fd5b505af115801561172d573d6000803e3d6000fd5b505050506040513d602081101561174357600080fd5b506001979650505050505050565b6001600160a01b038116600090815260a2602090815260408083205460a4909252822054805b828110156107cc576001600160a01b038516600090815260a26020526040812080546117a891908490811061075857fe5b50509050804210156117e0576001600160a01b038616600090815260a36020526040902080546117dd91908490811061079c57fe5b94505b506117ec816001611c4b565b9050611777565b60a65490565b6000611807816107e3611ca5565b611841576040805162461bcd60e51b8152602060048083019190915260248201526304c5133360e41b604482015290519081900360640190fd5b60a68290556040805183815242602082015281517f3e0887a905af0c5764f2c25c201fa1b9595065cb7008f54fe7734fefdd8e88dc929181900390910190a1506001919050565b60008181526065602052604081206108da9061225c565b6000828152606560205260409020600201546118bd906107e3611ca5565b610b605760405162461bcd60e51b81526004018080602001828103825260308152602001806126616030913960400191505060405180910390fd5b6098546001600160a01b031681565b6000611911610d02565b15611956576040805162461bcd60e51b815260206004820152601060248201526f14185d5cd8589b194e881c185d5cd95960821b604482015290519081900360640190fd5b61195e611ca5565b6001600160a01b0316836001600160a01b0316146119ac576040805162461bcd60e51b815260206004808301919091526024820152634c51313560e01b604482015290519081900360640190fd5b609854604080516370a0823160e01b81526001600160a01b038681166004830152915160009392909216916370a0823191602480820192602092909190829003018186803b1580156119fd57600080fd5b505afa158015611a11573d6000803e3d6000fd5b505050506040513d6020811015611a2757600080fd5b5051609c54609d54919250600091611a479160649161156291889161213c565b90506000611a558583611c4b565b9050609a54851015611a97576040805162461bcd60e51b81526020600480830191909152602482015263098a262760e31b604482015290519081900360640190fd5b80831015611ad5576040805162461bcd60e51b815260206004808301919091526024820152634c51313960e01b604482015290519081900360640190fd5b60985460408051632770a7eb60e21b81526001600160a01b0389811660048301526024820185905291519190921691639dc29fac9160448083019260209291908290030181600087803b158015611b2b57600080fd5b505af1158015611b3f573d6000803e3d6000fd5b505050506040513d6020811015611b5557600080fd5b50506001600160a01b038616600081815260a26020908152604080832080546001818101835591855283852042910181905585855260a38452828520805492830181558552938390200189905580518981529182018590528181019290925290517f98850af53deeaf736beb3ea22091c900e8e5cfdf8153342daa366dc1d83a39fd9181900360600190a250600195945050505050565b6000805160206126e083398151915281565b60a26020528160005260406000208181548110611c1a57600080fd5b90600052602060002001600091509150505481565b60a36020528160005260406000208181548110611c1a57600080fd5b600082820183811015611232576040805162461bcd60e51b815260206004820152601b60248201527f536166654d6174683a206164646974696f6e206f766572666c6f770000000000604482015290519081900360640190fd5b3390565b600082611cb8575060006108da565b82820282848281611cc557fe5b04146112325760405162461bcd60e51b81526004018080602001828103825260218152602001806126bf6021913960400191505060405180910390fd5b6000828152606560205260409020611d1a9082612267565b15610b0557611d27611ca5565b6001600160a01b0316816001600160a01b0316837f2f8788117e7eff1d82e926ec794901d17c78024a50270940304540a733656f0d60405160405180910390a45050565b6000828152606560205260409020611d83908261227c565b15610b0557611d90611ca5565b6001600160a01b0316816001600160a01b0316837ff6391f5c32d9c69d2a47ea670b442974b53935d1edc7fd64eb21e047a839171b60405160405180910390a45050565b611ddc610d02565b611e24576040805162461bcd60e51b815260206004820152601460248201527314185d5cd8589b194e881b9bdd081c185d5cd95960621b604482015290519081900360640190fd5b6033805460ff191690557f5db9ee0a495bf2e6ff9c91a7834c1ba4fdd244a5e8aa4e537bd38aeae4b073aa611e57611ca5565b604080516001600160a01b039092168252519081900360200190a1565b6000611e7f30612291565b15905090565b600054610100900460ff1680611e9e5750611e9e611e74565b80611eac575060005460ff16155b611ee75760405162461bcd60e51b815260040180806020018281038252602e815260200180612691602e913960400191505060405180910390fd5b600054610100900460ff16158015611f12576000805460ff1961ff0019909116610100171660011790555b611f1a612297565b611f22612297565b8015611f34576000805461ff00191690555b50565b600054610100900460ff1680611f505750611f50611e74565b80611f5e575060005460ff16155b611f995760405162461bcd60e51b815260040180806020018281038252602e815260200180612691602e913960400191505060405180910390fd5b600054610100900460ff16158015611fc4576000805460ff1961ff0019909116610100171660011790555b611fcc612297565b611f22612337565b611fdc610d02565b15612021576040805162461bcd60e51b815260206004820152601060248201526f14185d5cd8589b194e881c185d5cd95960821b604482015290519081900360640190fd5b6033805460ff191660011790557f62e78cea01bee320cd4e420270b5ea74000d11b0c9f74754ebdbfc544b05a258611e57611ca5565b600061123283836123e2565b6000611232836001600160a01b038416612446565b6000828211156120cf576040805162461bcd60e51b815260206004820152601e60248201527f536166654d6174683a207375627472616374696f6e206f766572666c6f770000604482015290519081900360640190fd5b50900390565b600080821161212b576040805162461bcd60e51b815260206004820152601860248201527f536166654d6174683a206d6f64756c6f206279207a65726f0000000000000000604482015290519081900360640190fd5b81838161213457fe5b069392505050565b600080600061214b868661245e565b915091506000848061215957fe5b86880990508281111561216d576001820391505b91829003918161218b5784838161218057fe5b049350505050611232565b8482106121df576040805162461bcd60e51b815260206004820152601a60248201527f46756c6c4d6174683a2046554c4c4449565f4f564552464c4f57000000000000604482015290519081900360640190fd5b6121ea83838761248b565b979650505050505050565b600080821161224b576040805162461bcd60e51b815260206004820152601a60248201527f536166654d6174683a206469766973696f6e206279207a65726f000000000000604482015290519081900360640190fd5b81838161225457fe5b049392505050565b60006108da826124fb565b6000611232836001600160a01b0384166124ff565b6000611232836001600160a01b038416612549565b3b151590565b600054610100900460ff16806122b057506122b0611e74565b806122be575060005460ff16155b6122f95760405162461bcd60e51b815260040180806020018281038252602e815260200180612691602e913960400191505060405180910390fd5b600054610100900460ff16158015611f22576000805460ff1961ff0019909116610100171660011790558015611f34576000805461ff001916905550565b600054610100900460ff16806123505750612350611e74565b8061235e575060005460ff16155b6123995760405162461bcd60e51b815260040180806020018281038252602e815260200180612691602e913960400191505060405180910390fd5b600054610100900460ff161580156123c4576000805460ff1961ff0019909116610100171660011790555b6033805460ff191690558015611f34576000805461ff001916905550565b815460009082106124245760405162461bcd60e51b81526004018080602001828103825260228152602001806126106022913960400191505060405180910390fd5b82600001828154811061243357fe5b9060005260206000200154905092915050565b60009081526001919091016020526040902054151590565b6000808060001984860990508385029250828103915082811015612483576001820391505b509250929050565b6000818103821680838161249b57fe5b0492508085816124a757fe5b0494508081600003816124b657fe5b60028581038087028203028087028203028087028203028087028203028087028203028087028203029586029003909402930460010193909302939093010292915050565b5490565b600061250b8383612446565b612541575081546001818101845560008481526020808220909301849055845484825282860190935260409020919091556108da565b5060006108da565b60008181526001830160205260408120548015612605578354600019808301919081019060009087908390811061257c57fe5b906000526020600020015490508087600001848154811061259957fe5b6000918252602080832090910192909255828152600189810190925260409020908401905586548790806125c957fe5b600190038181906000526020600020016000905590558660010160008781526020019081526020016000206000905560019450505050506108da565b60009150506108da56fe456e756d657261626c655365743a20696e646578206f7574206f6620626f756e6473416363657373436f6e74726f6c3a2073656e646572206d75737420626520616e2061646d696e20746f206772616e74416363657373436f6e74726f6c3a2073656e646572206d75737420626520616e2061646d696e20746f207265766f6b65496e697469616c697a61626c653a20636f6e747261637420697320616c726561647920696e697469616c697a6564536166654d6174683a206d756c7469706c69636174696f6e206f766572666c6f7765d7a28e3265b37a6474929f336521b332c1681b933f6cb9f3376673440d862a416363657373436f6e74726f6c3a2063616e206f6e6c792072656e6f756e636520726f6c657320666f722073656c66a2646970667358221220b138d493097c17be4d9adafa0031b4d6145863f0660941e68258429ffa84892c64736f6c63430007060033",
  "immutableReferences": {},
  "source": "// SPDX-License-Identifier: UNLICENSED\npragma solidity >=0.7.0;\n\nimport \"@openzeppelin/contracts-upgradeable/math/SafeMathUpgradeable.sol\";\nimport \"@openzeppelin/contracts-upgradeable/access/AccessControlUpgradeable.sol\";\nimport \"@openzeppelin/contracts-upgradeable/utils/PausableUpgradeable.sol\";\nimport \"./interfaces/ISTokensV2.sol\";\nimport \"./interfaces/IUTokensV2.sol\";\nimport \"./interfaces/ILiquidStakingV3.sol\";\nimport \"./libraries/FullMath.sol\";\n\ncontract LiquidStakingV3 is\n\tILiquidStakingV3,\n\tPausableUpgradeable,\n\tAccessControlUpgradeable\n{\n\tusing SafeMathUpgradeable for uint256;\n\tusing FullMath for uint256;\n\n\t//Private instances of contracts to handle Utokens and Stokens\n\tIUTokensV2 public _uTokens;\n\tISTokensV2 public _sTokens;\n\n\t// defining the fees and minimum values\n\tuint256 private _minStake;\n\tuint256 private _minUnstake;\n\tuint256 private _stakeFee;\n\tuint256 private _unstakeFee;\n\tuint256 public _valueDivisor;\n\n\t// constants defining access control ROLES\n\tbytes32 public constant PAUSER_ROLE = keccak256(\"PAUSER_ROLE\");\n\n\t// variables pertaining to unbonding logic\n\tuint256 private _unstakingLockTime;\n\tuint256 private _epochInterval;\n\tuint256 private _unstakeEpoch;\n\tuint256 private _unstakeEpochPrevious;\n\n\t//Mapping to handle the Expiry period\n\tmapping(address => uint256[]) public _unstakingExpiration;\n\n\t//Mapping to handle the Expiry amount\n\tmapping(address => uint256[]) public _unstakingAmount;\n\n\t//mappint to handle a counter variable indicating from what index to start the loop.\n\tmapping(address => uint256) public _withdrawCounters;\n\n\t// variable pertaining to contract upgrades versioning\n\tuint256 public _version;\n\n\tuint256 public _batchingLimit;\n\n\t/**\n\t * @dev Constructor for initializing the LiquidStaking contract.\n\t * @param uAddress - address of the UToken contract.\n\t * @param sAddress - address of the SToken contract.\n\t * @param pauserAddress - address of the pauser admin.\n\t * @param unstakingLockTime - varies from 21 hours to 21 days.\n\t * @param epochInterval - varies from 3 hours to 3 days.\n\t * @param valueDivisor - valueDivisor set to 10^9.\n\t */\n\tfunction initialize(\n\t\taddress uAddress,\n\t\taddress sAddress,\n\t\taddress pauserAddress,\n\t\tuint256 unstakingLockTime,\n\t\tuint256 epochInterval,\n\t\tuint256 valueDivisor\n\t) public virtual initializer {\n\t\t__AccessControl_init();\n\t\t__Pausable_init();\n\t\t_setupRole(DEFAULT_ADMIN_ROLE, _msgSender());\n\t\t_setupRole(PAUSER_ROLE, pauserAddress);\n\t\tsetUTokensContract(uAddress);\n\t\tsetSTokensContract(sAddress);\n\t\tsetUnstakingLockTime(unstakingLockTime);\n\t\tsetMinimumValues(1, 1);\n\t\t_valueDivisor = valueDivisor;\n\t\tsetUnstakeEpoch(block.timestamp, block.timestamp, epochInterval);\n\t}\n\n\t/**\n\t * @dev Set 'fees', called from admin\n\t * @param stakeFee: stake fee\n\t * @param unstakeFee: unstake fee\n\t *\n\t * Emits a {SetFees} event with 'fee' set to the stake and unstake.\n\t *\n\t */\n\tfunction setFees(uint256 stakeFee, uint256 unstakeFee)\n\t\tpublic\n\t\tvirtual\n\t\toverride\n\t\treturns (bool success)\n\t{\n\t\trequire(hasRole(DEFAULT_ADMIN_ROLE, _msgSender()), \"LQ1\");\n\t\t// range checks for fees. Since fee cannot be more than 100%, the max cap\n\t\t// is _valueDivisor * 100, which then brings the fees to 100 (percentage)\n\t\trequire(\n\t\t\t(stakeFee <= _valueDivisor.mul(100) || stakeFee == 0) &&\n\t\t\t\t(unstakeFee <= _valueDivisor.mul(100) || unstakeFee == 0),\n\t\t\t\"LQ2\"\n\t\t);\n\t\t_stakeFee = stakeFee;\n\t\t_unstakeFee = unstakeFee;\n\t\temit SetFees(stakeFee, unstakeFee);\n\t\treturn true;\n\t}\n\n\t/**\n\t * @dev Set 'fees', called from admin\n\t * Emits a {SetFees} event with 'fee' set to the stake and unstake.\n\t *\n\t */\n\tfunction setBatchingLimit(uint256 batchingLimit)\n\t\tpublic\n\t\tvirtual\n\t\toverride\n\t\treturns (bool success)\n\t{\n\t\trequire(hasRole(DEFAULT_ADMIN_ROLE, _msgSender()), \"LQ30\");\n\t\t_batchingLimit = batchingLimit;\n\t\temit SetBatchingLimit(batchingLimit, block.timestamp);\n\t\tsuccess = true;\n\t\treturn success;\n\t}\n\n\t/**\n\t * @dev get fees, min values, value divisor and epoch props\n\t *\n\t */\n\tfunction getBatchingLimit()\n\t\tpublic\n\t\tview\n\t\tvirtual\n\t\toverride\n\t\treturns (uint256 batchingLimit)\n\t{\n\t\tbatchingLimit = _batchingLimit;\n\t}\n\n\t/**\n\t * @dev Set 'unstake props', called from admin\n\t * @param unstakingLockTime: varies from 21 hours to 21 days\n\t *\n\t * Emits a {SetUnstakeProps} event with 'fee' set to the stake and unstake.\n\t *\n\t */\n\tfunction setUnstakingLockTime(uint256 unstakingLockTime)\n\t\tpublic\n\t\tvirtual\n\t\toverride\n\t\treturns (bool success)\n\t{\n\t\trequire(hasRole(DEFAULT_ADMIN_ROLE, _msgSender()), \"LQ3\");\n\t\t_unstakingLockTime = unstakingLockTime;\n\t\temit SetUnstakingLockTime(unstakingLockTime);\n\t\treturn true;\n\t}\n\n\t/**\n\t * @dev get fees, min values, value divisor and epoch props\n\t *\n\t */\n\tfunction getStakeUnstakeProps()\n\t\tpublic\n\t\tview\n\t\tvirtual\n\t\toverride\n\t\treturns (\n\t\t\tuint256 stakeFee,\n\t\t\tuint256 unstakeFee,\n\t\t\tuint256 minStake,\n\t\t\tuint256 minUnstake,\n\t\t\tuint256 valueDivisor,\n\t\t\tuint256 epochInterval,\n\t\t\tuint256 unstakeEpoch,\n\t\t\tuint256 unstakeEpochPrevious,\n\t\t\tuint256 unstakingLockTime\n\t\t)\n\t{\n\t\tstakeFee = _stakeFee;\n\t\tunstakeFee = _unstakeFee;\n\t\tminStake = _minStake;\n\t\tminUnstake = _minStake;\n\t\tvalueDivisor = _valueDivisor;\n\t\tepochInterval = _epochInterval;\n\t\tunstakeEpoch = _unstakeEpoch;\n\t\tunstakeEpochPrevious = _unstakeEpochPrevious;\n\t\tunstakingLockTime = _unstakingLockTime;\n\t}\n\n\t/**\n\t * @dev Set 'minimum values', called from admin\n\t * @param minStake: stake minimum value\n\t * @param minUnstake: unstake minimum value\n\t *\n\t * Emits a {SetMinimumValues} event with 'minimum value' set to the stake and unstake.\n\t *\n\t */\n\tfunction setMinimumValues(uint256 minStake, uint256 minUnstake)\n\t\tpublic\n\t\tvirtual\n\t\toverride\n\t\treturns (bool success)\n\t{\n\t\trequire(hasRole(DEFAULT_ADMIN_ROLE, _msgSender()), \"LQ4\");\n\t\trequire(minStake >= 1, \"LQ5\");\n\t\trequire(minUnstake >= 1, \"LQ6\");\n\t\t_minStake = minStake;\n\t\t_minUnstake = minUnstake;\n\t\temit SetMinimumValues(minStake, minUnstake);\n\t\treturn true;\n\t}\n\n\t/**\n\t * @dev Set 'unstake epoch', called from admin\n\t * @param unstakeEpoch: unstake epoch\n\t * @param unstakeEpochPrevious: unstake epoch previous(initially set to same value as unstakeEpoch)\n\t * @param epochInterval: varies from 3 hours to 3 days\n\t *\n\t * Emits a {SetUnstakeEpoch} event with 'unstakeEpoch'\n\t *\n\t */\n\tfunction setUnstakeEpoch(\n\t\tuint256 unstakeEpoch,\n\t\tuint256 unstakeEpochPrevious,\n\t\tuint256 epochInterval\n\t) public virtual override returns (bool success) {\n\t\trequire(hasRole(DEFAULT_ADMIN_ROLE, _msgSender()), \"LQ7\");\n\t\trequire(unstakeEpochPrevious <= unstakeEpoch, \"LQ8\");\n\t\t// require((unstakeEpoch == 0 && unstakeEpochPrevious == 0 && epochInterval == 0) || (unstakeEpoch != 0 && unstakeEpochPrevious != 0 && epochInterval != 0), \"LQ9\");\n\t\tif (unstakeEpoch == 0 && epochInterval != 0) revert(\"LQ9\");\n\t\t_unstakeEpoch = unstakeEpoch;\n\t\t_unstakeEpochPrevious = unstakeEpochPrevious;\n\t\t_epochInterval = epochInterval;\n\t\temit SetUnstakeEpoch(unstakeEpoch, unstakeEpochPrevious, epochInterval);\n\t\treturn true;\n\t}\n\n\t/**\n\t * @dev Set 'contract address', called from constructor\n\t * @param uAddress: utoken contract address\n\t *\n\t * Emits a {SetUTokensContract} event with '_contract' set to the utoken contract address.\n\t *\n\t */\n\tfunction setUTokensContract(address uAddress) public virtual override {\n\t\trequire(hasRole(DEFAULT_ADMIN_ROLE, _msgSender()), \"LQ10\");\n\t\t_uTokens = IUTokensV2(uAddress);\n\t\temit SetUTokensContract(uAddress);\n\t}\n\n\t/**\n\t * @dev Set 'contract address', called from constructor\n\t * @param sAddress: stoken contract address\n\t *\n\t * Emits a {SetSTokensContract} event with '_contract' set to the stoken contract address.\n\t *\n\t */\n\tfunction setSTokensContract(address sAddress) public virtual override {\n\t\trequire(hasRole(DEFAULT_ADMIN_ROLE, _msgSender()), \"LQ11\");\n\t\t_sTokens = ISTokensV2(sAddress);\n\t\temit SetSTokensContract(sAddress);\n\t}\n\n\t/**\n\t * @dev Stake utokens over the platform with address 'to' for desired 'amount'(Burn uTokens and Mint sTokens)\n\t * @param to: user address for staking, amount: number of tokens to stake\n\t *\n\t *\n\t * Requirements:\n\t *\n\t * - `amount` cannot be less than zero.\n\t * - 'amount' cannot be more than balance\n\t * - 'amount' plus new balance should be equal to the old balance\n\t */\n\tfunction stake(address to, uint256 amount)\n\t\tpublic\n\t\tvirtual\n\t\toverride\n\t\twhenNotPaused\n\t\treturns (bool)\n\t{\n\t\t// Check the supplied amount is greater than minimum stake value\n\t\trequire(to == _msgSender(), \"LQ12\");\n\t\t// Check the current balance for uTokens is greater than the amount to be staked\n\t\tuint256 _currentUTokenBalance = _uTokens.balanceOf(to);\n\t\tuint256 _stakeFeeAmount = (amount.mulDiv(_stakeFee, _valueDivisor)).div(\n\t\t\t100\n\t\t);\n\t\tuint256 _finalTokens = amount.add(_stakeFeeAmount);\n\t\t// the value which should be greater than or equal to _minStake\n\t\t// is amount since minval applies to number of sTokens to be minted\n\t\trequire(amount >= _minStake, \"LQ13\");\n\t\trequire(_currentUTokenBalance >= _finalTokens, \"LQ14\");\n\t\temit StakeTokens(to, amount, _finalTokens, block.timestamp);\n\t\t// Burn the uTokens as specified with the amount\n\t\t_uTokens.burn(to, _finalTokens);\n\t\t// Mint the sTokens for the account specified\n\t\t_sTokens.mint(to, amount);\n\t\treturn true;\n\t}\n\n\t/**\n\t * @dev UnStake stokens over the platform with address 'to' for desired 'amount' (Burn sTokens and Mint uTokens with 21 days locking period)\n\t * @param to: user address for staking, amount: number of tokens to unstake\n\t *\n\t *\n\t * Requirements:\n\t *\n\t * - `amount` cannot be less than zero.\n\t * - 'amount' cannot be more than balance\n\t * - 'amount' plus new balance should be equal to the old balance\n\t */\n\tfunction unStake(address to, uint256 amount)\n\t\tpublic\n\t\tvirtual\n\t\toverride\n\t\twhenNotPaused\n\t\treturns (bool)\n\t{\n\t\t// Check the supplied amount is greater than 0\n\t\trequire(to == _msgSender(), \"LQ15\");\n\t\t// require(_unstakeEpoch!=0 && _unstakeEpochPrevious!=0, \"LQ16\");\n\t\t// Check the current balance for sTokens is greater than the amount to be unStaked\n\t\tuint256 _currentSTokenBalance = _sTokens.balanceOf(to);\n\t\tuint256 _unstakeFeeAmount = (amount.mulDiv(_unstakeFee, _valueDivisor))\n\t\t\t.div(100);\n\t\tuint256 _finalTokens = amount.add(_unstakeFeeAmount);\n\t\t// the value which should be greater than or equal to _minSUnstake\n\t\t// is amount since minval applies to number of uTokens to be withdrawn\n\t\trequire(amount >= _minUnstake, \"LQ18\");\n\t\trequire(_currentSTokenBalance >= _finalTokens, \"LQ19\");\n\t\t// Burn the sTokens as specified with the amount\n\t\t_sTokens.burn(to, _finalTokens);\n\t\t_unstakingExpiration[to].push(block.timestamp);\n\t\t// array will hold amount and not _finalTokens because that is the amount of\n\t\t// uTokens pending to be credited after withdraw period\n\t\t_unstakingAmount[to].push(amount);\n\t\t// the event needs to capture _finalTokens that were and not amount\n\t\temit UnstakeTokens(to, amount, _finalTokens, block.timestamp);\n\n\t\treturn true;\n\t}\n\n\t/**\n\t * @dev returns the nearest epoch milestone in the future\n\t */\n\tfunction getUnstakeEpochMilestone(uint256 _unstakeTimestamp)\n\t\tpublic\n\t\tview\n\t\tvirtual\n\t\toverride\n\t\treturns (uint256 unstakeEpochMilestone)\n\t{\n\t\tif (_unstakeTimestamp == 0) return 0;\n\t\t// if epoch values are not relevant, then the epoch milestone is the unstake timestamp itself (backward compatibility)\n\t\tif (\n\t\t\t(_unstakeEpoch == 0 && _unstakeEpochPrevious == 0) ||\n\t\t\t_epochInterval == 0\n\t\t) return _unstakeTimestamp;\n\t\tif (_unstakeEpoch > _unstakeTimestamp) return (_unstakeEpoch);\n\t\tuint256 _referenceStartTime = (_unstakeTimestamp).add(\n\t\t\t_unstakeEpoch.sub(_unstakeEpochPrevious)\n\t\t);\n\t\tuint256 _timeDiff = _referenceStartTime.sub(_unstakeEpoch);\n\t\tunstakeEpochMilestone = (_timeDiff.mod(_epochInterval)).add(\n\t\t\t_referenceStartTime\n\t\t);\n\t\treturn (unstakeEpochMilestone);\n\t}\n\n\t/**\n\t * @dev returns the time left for unbonding to finish\n\t */\n\tfunction getUnstakeTime(uint256 _unstakeTimestamp)\n\t\tpublic\n\t\tview\n\t\tvirtual\n\t\toverride\n\t\treturns (\n\t\t\tuint256 unstakeTime,\n\t\t\tuint256 unstakeEpoch,\n\t\t\tuint256 unstakeEpochPrevious\n\t\t)\n\t{\n\t\tuint256 _unstakeEpochMilestone = getUnstakeEpochMilestone(\n\t\t\t_unstakeTimestamp\n\t\t);\n\t\tif (_unstakeEpochMilestone == 0)\n\t\t\treturn (0, unstakeEpoch, unstakeEpochPrevious);\n\t\tunstakeEpoch = _unstakeEpoch;\n\t\tunstakeEpochPrevious = _unstakeEpochPrevious;\n\t\t//adding unstakingLockTime with epoch difference\n\t\tunstakeTime = _unstakeEpochMilestone.add(_unstakingLockTime);\n\t\treturn (unstakeTime, unstakeEpoch, unstakeEpochPrevious);\n\t}\n\n\t/**\n\t * @dev Lock the unstaked tokens for 21 days, user can withdraw the same (Mint uTokens with 21 days locking period)\n\t *\n\t * @param staker: user address for withdraw\n\t *\n\t * Requirements:\n\t *\n\t * - `current block timestamp` should be after 21 days from the period where unstaked function is called.\n\t */\n\tfunction withdrawUnstakedTokens(address staker)\n\t\tpublic\n\t\tvirtual\n\t\toverride\n\t\twhenNotPaused\n\t{\n\t\trequire(staker == _msgSender(), \"LQ20\");\n\t\tuint256 _withdrawBalance;\n\t\tuint256 _unstakingExpirationLength = _unstakingExpiration[staker]\n\t\t\t.length > _batchingLimit\n\t\t\t? _batchingLimit\n\t\t\t: _unstakingExpiration[staker].length;\n\t\tuint256 _counter = _withdrawCounters[staker];\n\t\tuint256 _counter2 = _withdrawCounters[staker];\n\t\tfor (\n\t\t\tuint256 i = _counter;\n\t\t\ti < _unstakingExpirationLength;\n\t\t\ti = i.add(1)\n\t\t) {\n\t\t\t//get getUnstakeTime and compare it with current timestamp to check if 21 days + epoch difference has passed\n\t\t\t(uint256 _getUnstakeTime, , ) = getUnstakeTime(\n\t\t\t\t_unstakingExpiration[staker][i]\n\t\t\t);\n\t\t\tif (block.timestamp >= _getUnstakeTime) {\n\t\t\t\t//if 21 days + epoch difference has passed, then add the balance and then mint uTokens\n\t\t\t\t_withdrawBalance = _withdrawBalance.add(\n\t\t\t\t\t_unstakingAmount[staker][i]\n\t\t\t\t);\n\t\t\t\tdelete _unstakingExpiration[staker][i];\n\t\t\t\tdelete _unstakingAmount[staker][i];\n\t\t\t\t_counter2 = _counter2.add(1);\n\t\t\t\t// _withdrawCounters[staker] = _withdrawCounters[staker].add(1);\n\t\t\t}\n\t\t}\n\n\t\t_withdrawCounters[staker] = _counter2;\n\t\trequire(_withdrawBalance > 0, \"LQ21\");\n\t\temit WithdrawUnstakeTokens(staker, _withdrawBalance, block.timestamp);\n\t\t_uTokens.mint(staker, _withdrawBalance);\n\t}\n\n\t/**\n\t * @dev get Total Unbonded Tokens\n\t * @param staker: account address\n\t *\n\t */\n\tfunction getTotalUnbondedTokens(address staker)\n\t\tpublic\n\t\tview\n\t\tvirtual\n\t\toverride\n\t\treturns (uint256 unbondingTokens)\n\t{\n\t\tuint256 _unstakingExpirationLength = _unstakingExpiration[staker]\n\t\t\t.length;\n\t\tuint256 _counter = _withdrawCounters[staker];\n\t\tfor (\n\t\t\tuint256 i = _counter;\n\t\t\ti < _unstakingExpirationLength;\n\t\t\ti = i.add(1)\n\t\t) {\n\t\t\t//get getUnstakeTime and compare it with current timestamp to check if 21 days + epoch difference has passed\n\t\t\t(uint256 _getUnstakeTime, , ) = getUnstakeTime(\n\t\t\t\t_unstakingExpiration[staker][i]\n\t\t\t);\n\t\t\tif (block.timestamp >= _getUnstakeTime) {\n\t\t\t\t//if 21 days + epoch difference has passed, then check the token amount and send back\n\t\t\t\tunbondingTokens = unbondingTokens.add(\n\t\t\t\t\t_unstakingAmount[staker][i]\n\t\t\t\t);\n\t\t\t}\n\t\t}\n\t\treturn unbondingTokens;\n\t}\n\n\t/**\n\t * @dev get Total Unbonding Tokens\n\t * @param staker: account address\n\t *\n\t */\n\tfunction getTotalUnbondingTokens(address staker)\n\t\tpublic\n\t\tview\n\t\tvirtual\n\t\toverride\n\t\treturns (uint256 unbondingTokens)\n\t{\n\t\tuint256 _unstakingExpirationLength = _unstakingExpiration[staker]\n\t\t\t.length;\n\t\tuint256 _counter = _withdrawCounters[staker];\n\t\tfor (\n\t\t\tuint256 i = _counter;\n\t\t\ti < _unstakingExpirationLength;\n\t\t\ti = i.add(1)\n\t\t) {\n\t\t\t//get getUnstakeTime and compare it with current timestamp to check if 21 days + epoch difference has passed\n\t\t\t(uint256 _getUnstakeTime, , ) = getUnstakeTime(\n\t\t\t\t_unstakingExpiration[staker][i]\n\t\t\t);\n\t\t\tif (block.timestamp < _getUnstakeTime) {\n\t\t\t\t//if 21 days + epoch difference have not passed, then check the token amount and send back\n\t\t\t\tunbondingTokens = unbondingTokens.add(\n\t\t\t\t\t_unstakingAmount[staker][i]\n\t\t\t\t);\n\t\t\t}\n\t\t}\n\t\treturn unbondingTokens;\n\t}\n\n\t/**\n\t * @dev Triggers stopped state.\n\t *\n\t * Requirements:\n\t *\n\t * - The contract must not be paused.\n\t */\n\tfunction pause() public virtual override returns (bool success) {\n\t\trequire(hasRole(PAUSER_ROLE, _msgSender()), \"LQ22\");\n\t\t_pause();\n\t\treturn true;\n\t}\n\n\t/**\n\t * @dev Returns to normal state.\n\t *\n\t * Requirements:\n\t *\n\t * - The contract must be paused.\n\t */\n\tfunction unpause() public virtual override returns (bool success) {\n\t\trequire(hasRole(PAUSER_ROLE, _msgSender()), \"LQ23\");\n\t\t_unpause();\n\t\treturn true;\n\t}\n}\n",
  "sourcePath": "C:\\Users\\Kamlesh\\Persistence\\pStake\\codebase\\pStake-smartContracts\\contracts\\LiquidStakingV3.sol",
  "compiler": {
    "name": "solc",
    "version": "0.7.6+commit.7338295f.Emscripten.clang"
  },
  "schemaVersion": "3.4.3",
  "updatedAt": "2021-09-20T14:54:42.033Z",
  "devdoc": {
    "kind": "dev",
    "methods": {
      "getBatchingLimit()": {
        "details": "get fees, min values, value divisor and epoch props"
      },
      "getRoleAdmin(bytes32)": {
        "details": "Returns the admin role that controls `role`. See {grantRole} and {revokeRole}. To change a role's admin, use {_setRoleAdmin}."
      },
      "getRoleMember(bytes32,uint256)": {
        "details": "Returns one of the accounts that have `role`. `index` must be a value between 0 and {getRoleMemberCount}, non-inclusive. Role bearers are not sorted in any particular way, and their ordering may change at any point. WARNING: When using {getRoleMember} and {getRoleMemberCount}, make sure you perform all queries on the same block. See the following https://forum.openzeppelin.com/t/iterating-over-elements-on-enumerableset-in-openzeppelin-contracts/2296[forum post] for more information."
      },
      "getRoleMemberCount(bytes32)": {
        "details": "Returns the number of accounts that have `role`. Can be used together with {getRoleMember} to enumerate all bearers of a role."
      },
      "getStakeUnstakeProps()": {
        "details": "get fees, min values, value divisor and epoch props"
      },
      "getTotalUnbondedTokens(address)": {
        "details": "get Total Unbonded Tokens",
        "params": {
          "staker": ": account address"
        }
      },
      "getTotalUnbondingTokens(address)": {
        "details": "get Total Unbonding Tokens",
        "params": {
          "staker": ": account address"
        }
      },
      "getUnstakeEpochMilestone(uint256)": {
        "details": "returns the nearest epoch milestone in the future"
      },
      "getUnstakeTime(uint256)": {
        "details": "returns the time left for unbonding to finish"
      },
      "grantRole(bytes32,address)": {
        "details": "Grants `role` to `account`. If `account` had not been already granted `role`, emits a {RoleGranted} event. Requirements: - the caller must have ``role``'s admin role."
      },
      "hasRole(bytes32,address)": {
        "details": "Returns `true` if `account` has been granted `role`."
      },
      "initialize(address,address,address,uint256,uint256,uint256)": {
        "details": "Constructor for initializing the LiquidStaking contract.",
        "params": {
          "epochInterval": "- varies from 3 hours to 3 days.",
          "pauserAddress": "- address of the pauser admin.",
          "sAddress": "- address of the SToken contract.",
          "uAddress": "- address of the UToken contract.",
          "unstakingLockTime": "- varies from 21 hours to 21 days.",
          "valueDivisor": "- valueDivisor set to 10^9."
        }
      },
      "pause()": {
        "details": "Triggers stopped state. Requirements: - The contract must not be paused."
      },
      "paused()": {
        "details": "Returns true if the contract is paused, and false otherwise."
      },
      "renounceRole(bytes32,address)": {
        "details": "Revokes `role` from the calling account. Roles are often managed via {grantRole} and {revokeRole}: this function's purpose is to provide a mechanism for accounts to lose their privileges if they are compromised (such as when a trusted device is misplaced). If the calling account had been granted `role`, emits a {RoleRevoked} event. Requirements: - the caller must be `account`."
      },
      "revokeRole(bytes32,address)": {
        "details": "Revokes `role` from `account`. If `account` had been granted `role`, emits a {RoleRevoked} event. Requirements: - the caller must have ``role``'s admin role."
      },
      "setBatchingLimit(uint256)": {
        "details": "Set 'fees', called from admin Emits a {SetFees} event with 'fee' set to the stake and unstake."
      },
      "setFees(uint256,uint256)": {
        "details": "Set 'fees', called from admin",
        "params": {
          "stakeFee": ": stake fee",
          "unstakeFee": ": unstake fee Emits a {SetFees} event with 'fee' set to the stake and unstake."
        }
      },
      "setMinimumValues(uint256,uint256)": {
        "details": "Set 'minimum values', called from admin",
        "params": {
          "minStake": ": stake minimum value",
          "minUnstake": ": unstake minimum value Emits a {SetMinimumValues} event with 'minimum value' set to the stake and unstake."
        }
      },
      "setSTokensContract(address)": {
        "details": "Set 'contract address', called from constructor",
        "params": {
          "sAddress": ": stoken contract address Emits a {SetSTokensContract} event with '_contract' set to the stoken contract address."
        }
      },
      "setUTokensContract(address)": {
        "details": "Set 'contract address', called from constructor",
        "params": {
          "uAddress": ": utoken contract address Emits a {SetUTokensContract} event with '_contract' set to the utoken contract address."
        }
      },
      "setUnstakeEpoch(uint256,uint256,uint256)": {
        "details": "Set 'unstake epoch', called from admin",
        "params": {
          "epochInterval": ": varies from 3 hours to 3 days Emits a {SetUnstakeEpoch} event with 'unstakeEpoch'",
          "unstakeEpoch": ": unstake epoch",
          "unstakeEpochPrevious": ": unstake epoch previous(initially set to same value as unstakeEpoch)"
        }
      },
      "setUnstakingLockTime(uint256)": {
        "details": "Set 'unstake props', called from admin",
        "params": {
          "unstakingLockTime": ": varies from 21 hours to 21 days Emits a {SetUnstakeProps} event with 'fee' set to the stake and unstake."
        }
      },
      "stake(address,uint256)": {
        "details": "Stake utokens over the platform with address 'to' for desired 'amount'(Burn uTokens and Mint sTokens)",
        "params": {
          "to": ": user address for staking, amount: number of tokens to stake Requirements: - `amount` cannot be less than zero. - 'amount' cannot be more than balance - 'amount' plus new balance should be equal to the old balance"
        }
      },
      "unStake(address,uint256)": {
        "details": "UnStake stokens over the platform with address 'to' for desired 'amount' (Burn sTokens and Mint uTokens with 21 days locking period)",
        "params": {
          "to": ": user address for staking, amount: number of tokens to unstake Requirements: - `amount` cannot be less than zero. - 'amount' cannot be more than balance - 'amount' plus new balance should be equal to the old balance"
        }
      },
      "unpause()": {
        "details": "Returns to normal state. Requirements: - The contract must be paused."
      },
      "withdrawUnstakedTokens(address)": {
        "details": "Lock the unstaked tokens for 21 days, user can withdraw the same (Mint uTokens with 21 days locking period)",
        "params": {
          "staker": ": user address for withdraw Requirements: - `current block timestamp` should be after 21 days from the period where unstaked function is called."
        }
      }
    },
    "version": 1
  },
  "userdoc": {
    "kind": "user",
    "methods": {},
    "version": 1
  }
}