{
  "contractName": "LiquidStaking",
  "abi": [
    {
      "anonymous": false,
      "inputs": [
        {
          "indexed": false,
          "internalType": "address",
          "name": "account",
          "type": "address"
        }
      ],
      "name": "Paused",
      "type": "event"
    },
    {
      "anonymous": false,
      "inputs": [
        {
          "indexed": true,
          "internalType": "bytes32",
          "name": "role",
          "type": "bytes32"
        },
        {
          "indexed": true,
          "internalType": "bytes32",
          "name": "previousAdminRole",
          "type": "bytes32"
        },
        {
          "indexed": true,
          "internalType": "bytes32",
          "name": "newAdminRole",
          "type": "bytes32"
        }
      ],
      "name": "RoleAdminChanged",
      "type": "event"
    },
    {
      "anonymous": false,
      "inputs": [
        {
          "indexed": true,
          "internalType": "bytes32",
          "name": "role",
          "type": "bytes32"
        },
        {
          "indexed": true,
          "internalType": "address",
          "name": "account",
          "type": "address"
        },
        {
          "indexed": true,
          "internalType": "address",
          "name": "sender",
          "type": "address"
        }
      ],
      "name": "RoleGranted",
      "type": "event"
    },
    {
      "anonymous": false,
      "inputs": [
        {
          "indexed": true,
          "internalType": "bytes32",
          "name": "role",
          "type": "bytes32"
        },
        {
          "indexed": true,
          "internalType": "address",
          "name": "account",
          "type": "address"
        },
        {
          "indexed": true,
          "internalType": "address",
          "name": "sender",
          "type": "address"
        }
      ],
      "name": "RoleRevoked",
      "type": "event"
    },
    {
      "anonymous": false,
      "inputs": [
        {
          "indexed": false,
          "internalType": "uint256",
          "name": "stakeFee",
          "type": "uint256"
        },
        {
          "indexed": false,
          "internalType": "uint256",
          "name": "unstakeFee",
          "type": "uint256"
        }
      ],
      "name": "SetFees",
      "type": "event"
    },
    {
      "anonymous": false,
      "inputs": [
        {
          "indexed": false,
          "internalType": "uint256",
          "name": "minStake",
          "type": "uint256"
        },
        {
          "indexed": false,
          "internalType": "uint256",
          "name": "minUnstake",
          "type": "uint256"
        }
      ],
      "name": "SetMinimumValues",
      "type": "event"
    },
    {
      "anonymous": false,
      "inputs": [
        {
          "indexed": true,
          "internalType": "address",
          "name": "_contract",
          "type": "address"
        }
      ],
      "name": "SetSTokensContract",
      "type": "event"
    },
    {
      "anonymous": false,
      "inputs": [
        {
          "indexed": true,
          "internalType": "address",
          "name": "_contract",
          "type": "address"
        }
      ],
      "name": "SetUTokensContract",
      "type": "event"
    },
    {
      "anonymous": false,
      "inputs": [
        {
          "indexed": false,
          "internalType": "uint256",
          "name": "unstakeEpoch",
          "type": "uint256"
        },
        {
          "indexed": false,
          "internalType": "uint256",
          "name": "unstakeEpochPrevious",
          "type": "uint256"
        },
        {
          "indexed": false,
          "internalType": "uint256",
          "name": "epochInterval",
          "type": "uint256"
        }
      ],
      "name": "SetUnstakeEpoch",
      "type": "event"
    },
    {
      "anonymous": false,
      "inputs": [
        {
          "indexed": false,
          "internalType": "uint256",
          "name": "unstakingLockTime",
          "type": "uint256"
        }
      ],
      "name": "SetUnstakingLockTime",
      "type": "event"
    },
    {
      "anonymous": false,
      "inputs": [
        {
          "indexed": true,
          "internalType": "address",
          "name": "accountAddress",
          "type": "address"
        },
        {
          "indexed": false,
          "internalType": "uint256",
          "name": "tokens",
          "type": "uint256"
        },
        {
          "indexed": false,
          "internalType": "uint256",
          "name": "finalTokens",
          "type": "uint256"
        },
        {
          "indexed": false,
          "internalType": "uint256",
          "name": "timestamp",
          "type": "uint256"
        }
      ],
      "name": "StakeTokens",
      "type": "event"
    },
    {
      "anonymous": false,
      "inputs": [
        {
          "indexed": false,
          "internalType": "address",
          "name": "account",
          "type": "address"
        }
      ],
      "name": "Unpaused",
      "type": "event"
    },
    {
      "anonymous": false,
      "inputs": [
        {
          "indexed": true,
          "internalType": "address",
          "name": "accountAddress",
          "type": "address"
        },
        {
          "indexed": false,
          "internalType": "uint256",
          "name": "tokens",
          "type": "uint256"
        },
        {
          "indexed": false,
          "internalType": "uint256",
          "name": "finalTokens",
          "type": "uint256"
        },
        {
          "indexed": false,
          "internalType": "uint256",
          "name": "timestamp",
          "type": "uint256"
        }
      ],
      "name": "UnstakeTokens",
      "type": "event"
    },
    {
      "anonymous": false,
      "inputs": [
        {
          "indexed": true,
          "internalType": "address",
          "name": "accountAddress",
          "type": "address"
        },
        {
          "indexed": false,
          "internalType": "uint256",
          "name": "tokens",
          "type": "uint256"
        },
        {
          "indexed": false,
          "internalType": "uint256",
          "name": "timestamp",
          "type": "uint256"
        }
      ],
      "name": "WithdrawUnstakeTokens",
      "type": "event"
    },
    {
      "inputs": [],
      "name": "DEFAULT_ADMIN_ROLE",
      "outputs": [
        {
          "internalType": "bytes32",
          "name": "",
          "type": "bytes32"
        }
      ],
      "stateMutability": "view",
      "type": "function",
      "constant": true
    },
    {
      "inputs": [],
      "name": "PAUSER_ROLE",
      "outputs": [
        {
          "internalType": "bytes32",
          "name": "",
          "type": "bytes32"
        }
      ],
      "stateMutability": "view",
      "type": "function",
      "constant": true
    },
    {
      "inputs": [
        {
          "internalType": "bytes32",
          "name": "role",
          "type": "bytes32"
        }
      ],
      "name": "getRoleAdmin",
      "outputs": [
        {
          "internalType": "bytes32",
          "name": "",
          "type": "bytes32"
        }
      ],
      "stateMutability": "view",
      "type": "function",
      "constant": true
    },
    {
      "inputs": [
        {
          "internalType": "bytes32",
          "name": "role",
          "type": "bytes32"
        },
        {
          "internalType": "uint256",
          "name": "index",
          "type": "uint256"
        }
      ],
      "name": "getRoleMember",
      "outputs": [
        {
          "internalType": "address",
          "name": "",
          "type": "address"
        }
      ],
      "stateMutability": "view",
      "type": "function",
      "constant": true
    },
    {
      "inputs": [
        {
          "internalType": "bytes32",
          "name": "role",
          "type": "bytes32"
        }
      ],
      "name": "getRoleMemberCount",
      "outputs": [
        {
          "internalType": "uint256",
          "name": "",
          "type": "uint256"
        }
      ],
      "stateMutability": "view",
      "type": "function",
      "constant": true
    },
    {
      "inputs": [
        {
          "internalType": "bytes32",
          "name": "role",
          "type": "bytes32"
        },
        {
          "internalType": "address",
          "name": "account",
          "type": "address"
        }
      ],
      "name": "grantRole",
      "outputs": [],
      "stateMutability": "nonpayable",
      "type": "function"
    },
    {
      "inputs": [
        {
          "internalType": "bytes32",
          "name": "role",
          "type": "bytes32"
        },
        {
          "internalType": "address",
          "name": "account",
          "type": "address"
        }
      ],
      "name": "hasRole",
      "outputs": [
        {
          "internalType": "bool",
          "name": "",
          "type": "bool"
        }
      ],
      "stateMutability": "view",
      "type": "function",
      "constant": true
    },
    {
      "inputs": [],
      "name": "paused",
      "outputs": [
        {
          "internalType": "bool",
          "name": "",
          "type": "bool"
        }
      ],
      "stateMutability": "view",
      "type": "function",
      "constant": true
    },
    {
      "inputs": [
        {
          "internalType": "bytes32",
          "name": "role",
          "type": "bytes32"
        },
        {
          "internalType": "address",
          "name": "account",
          "type": "address"
        }
      ],
      "name": "renounceRole",
      "outputs": [],
      "stateMutability": "nonpayable",
      "type": "function"
    },
    {
      "inputs": [
        {
          "internalType": "bytes32",
          "name": "role",
          "type": "bytes32"
        },
        {
          "internalType": "address",
          "name": "account",
          "type": "address"
        }
      ],
      "name": "revokeRole",
      "outputs": [],
      "stateMutability": "nonpayable",
      "type": "function"
    },
    {
      "inputs": [
        {
          "internalType": "address",
          "name": "uAddress",
          "type": "address"
        },
        {
          "internalType": "address",
          "name": "sAddress",
          "type": "address"
        },
        {
          "internalType": "address",
          "name": "pauserAddress",
          "type": "address"
        },
        {
          "internalType": "uint256",
          "name": "unstakingLockTime",
          "type": "uint256"
        },
        {
          "internalType": "uint256",
          "name": "epochInterval",
          "type": "uint256"
        },
        {
          "internalType": "uint256",
          "name": "valueDivisor",
          "type": "uint256"
        }
      ],
      "name": "initialize",
      "outputs": [],
      "stateMutability": "nonpayable",
      "type": "function"
    },
    {
      "inputs": [
        {
          "internalType": "uint256",
          "name": "stakeFee",
          "type": "uint256"
        },
        {
          "internalType": "uint256",
          "name": "unstakeFee",
          "type": "uint256"
        }
      ],
      "name": "setFees",
      "outputs": [
        {
          "internalType": "bool",
          "name": "success",
          "type": "bool"
        }
      ],
      "stateMutability": "nonpayable",
      "type": "function"
    },
    {
      "inputs": [
        {
          "internalType": "uint256",
          "name": "unstakingLockTime",
          "type": "uint256"
        }
      ],
      "name": "setUnstakingLockTime",
      "outputs": [
        {
          "internalType": "bool",
          "name": "success",
          "type": "bool"
        }
      ],
      "stateMutability": "nonpayable",
      "type": "function"
    },
    {
      "inputs": [],
      "name": "getStakeUnstakeProps",
      "outputs": [
        {
          "internalType": "uint256",
          "name": "stakeFee",
          "type": "uint256"
        },
        {
          "internalType": "uint256",
          "name": "unstakeFee",
          "type": "uint256"
        },
        {
          "internalType": "uint256",
          "name": "minStake",
          "type": "uint256"
        },
        {
          "internalType": "uint256",
          "name": "minUnstake",
          "type": "uint256"
        },
        {
          "internalType": "uint256",
          "name": "valueDivisor",
          "type": "uint256"
        },
        {
          "internalType": "uint256",
          "name": "epochInterval",
          "type": "uint256"
        },
        {
          "internalType": "uint256",
          "name": "unstakeEpoch",
          "type": "uint256"
        },
        {
          "internalType": "uint256",
          "name": "unstakeEpochPrevious",
          "type": "uint256"
        },
        {
          "internalType": "uint256",
          "name": "unstakingLockTime",
          "type": "uint256"
        }
      ],
      "stateMutability": "view",
      "type": "function",
      "constant": true
    },
    {
      "inputs": [
        {
          "internalType": "uint256",
          "name": "minStake",
          "type": "uint256"
        },
        {
          "internalType": "uint256",
          "name": "minUnstake",
          "type": "uint256"
        }
      ],
      "name": "setMinimumValues",
      "outputs": [
        {
          "internalType": "bool",
          "name": "success",
          "type": "bool"
        }
      ],
      "stateMutability": "nonpayable",
      "type": "function"
    },
    {
      "inputs": [
        {
          "internalType": "uint256",
          "name": "unstakeEpoch",
          "type": "uint256"
        },
        {
          "internalType": "uint256",
          "name": "unstakeEpochPrevious",
          "type": "uint256"
        },
        {
          "internalType": "uint256",
          "name": "epochInterval",
          "type": "uint256"
        }
      ],
      "name": "setUnstakeEpoch",
      "outputs": [
        {
          "internalType": "bool",
          "name": "success",
          "type": "bool"
        }
      ],
      "stateMutability": "nonpayable",
      "type": "function"
    },
    {
      "inputs": [
        {
          "internalType": "address",
          "name": "uAddress",
          "type": "address"
        }
      ],
      "name": "setUTokensContract",
      "outputs": [],
      "stateMutability": "nonpayable",
      "type": "function"
    },
    {
      "inputs": [
        {
          "internalType": "address",
          "name": "sAddress",
          "type": "address"
        }
      ],
      "name": "setSTokensContract",
      "outputs": [],
      "stateMutability": "nonpayable",
      "type": "function"
    },
    {
      "inputs": [
        {
          "internalType": "address",
          "name": "to",
          "type": "address"
        },
        {
          "internalType": "uint256",
          "name": "amount",
          "type": "uint256"
        }
      ],
      "name": "stake",
      "outputs": [
        {
          "internalType": "bool",
          "name": "",
          "type": "bool"
        }
      ],
      "stateMutability": "nonpayable",
      "type": "function"
    },
    {
      "inputs": [
        {
          "internalType": "address",
          "name": "to",
          "type": "address"
        },
        {
          "internalType": "uint256",
          "name": "amount",
          "type": "uint256"
        }
      ],
      "name": "unStake",
      "outputs": [
        {
          "internalType": "bool",
          "name": "",
          "type": "bool"
        }
      ],
      "stateMutability": "nonpayable",
      "type": "function"
    },
    {
      "inputs": [
        {
          "internalType": "uint256",
          "name": "_unstakeTimestamp",
          "type": "uint256"
        }
      ],
      "name": "getUnstakeEpochMilestone",
      "outputs": [
        {
          "internalType": "uint256",
          "name": "unstakeEpochMilestone",
          "type": "uint256"
        }
      ],
      "stateMutability": "view",
      "type": "function",
      "constant": true
    },
    {
      "inputs": [
        {
          "internalType": "uint256",
          "name": "_unstakeTimestamp",
          "type": "uint256"
        }
      ],
      "name": "getUnstakeTime",
      "outputs": [
        {
          "internalType": "uint256",
          "name": "unstakeTime",
          "type": "uint256"
        },
        {
          "internalType": "uint256",
          "name": "unstakeEpoch",
          "type": "uint256"
        },
        {
          "internalType": "uint256",
          "name": "unstakeEpochPrevious",
          "type": "uint256"
        }
      ],
      "stateMutability": "view",
      "type": "function",
      "constant": true
    },
    {
      "inputs": [
        {
          "internalType": "address",
          "name": "staker",
          "type": "address"
        }
      ],
      "name": "withdrawUnstakedTokens",
      "outputs": [],
      "stateMutability": "nonpayable",
      "type": "function"
    },
    {
      "inputs": [
        {
          "internalType": "address",
          "name": "staker",
          "type": "address"
        }
      ],
      "name": "getTotalUnbondedTokens",
      "outputs": [
        {
          "internalType": "uint256",
          "name": "unbondingTokens",
          "type": "uint256"
        }
      ],
      "stateMutability": "view",
      "type": "function",
      "constant": true
    },
    {
      "inputs": [],
      "name": "pause",
      "outputs": [
        {
          "internalType": "bool",
          "name": "success",
          "type": "bool"
        }
      ],
      "stateMutability": "nonpayable",
      "type": "function"
    },
    {
      "inputs": [],
      "name": "unpause",
      "outputs": [
        {
          "internalType": "bool",
          "name": "success",
          "type": "bool"
        }
      ],
      "stateMutability": "nonpayable",
      "type": "function"
    }
  ],
  "bytecode": "0x608060405234801561001057600080fd5b5061246e806100206000396000f3fe608060405234801561001057600080fd5b506004361061018e5760003560e01c8063819020a0116100de5780639dc77cab11610097578063ca15c87311610071578063ca15c873146104fa578063d547741f14610517578063d939381414610543578063e63ab1e91461056f5761018e565b80639dc77cab1461049d578063a217fddf146104c6578063adc9772e146104ce5761018e565b8063819020a0146103ac5780638456cb59146103d257806385e32840146103da5780639010d07c1461041557806391d14854146104545780639b9eea46146104805761018e565b80632f2ff15d1161014b57806351db00e71161012557806351db00e7146102ea57806355f2323f1461030d5780635c975abb1461035c578063728cdbca146103645761018e565b80632f2ff15d1461028a57806336568abe146102b65780633f4ba83a146102e25761018e565b80630273b70d146101935780630b78f9c0146101cb5780630e4b29431461020257806321bdf9e51461021f578063248a9ca3146102475780632e31fab814610264575b600080fd5b6101b9600480360360208110156101a957600080fd5b50356001600160a01b0316610577565b60408051918252519081900360200190f35b6101ee600480360360408110156101e157600080fd5b5080359060200135610649565b604080519115158252519081900360200190f35b6101ee6004803603602081101561021857600080fd5b5035610754565b6102456004803603602081101561023557600080fd5b50356001600160a01b03166107d9565b005b6101b96004803603602081101561025d57600080fd5b503561086a565b6102456004803603602081101561027a57600080fd5b50356001600160a01b031661087f565b610245600480360360408110156102a057600080fd5b50803590602001356001600160a01b0316610910565b610245600480360360408110156102cc57600080fd5b50803590602001356001600160a01b0316610977565b6101ee6109d8565b6101ee6004803603604081101561030057600080fd5b5080359060200135610a3c565b610315610b47565b60408051998a5260208a0198909852888801969096526060880194909452608087019290925260a086015260c085015260e084015261010083015251908190036101200190f35b6101ee610b6a565b610245600480360360c081101561037a57600080fd5b506001600160a01b03813581169160208101358216916040820135169060608101359060808101359060a00135610b73565b610245600480360360208110156103c257600080fd5b50356001600160a01b0316610c8e565b6101ee610f9a565b6103f7600480360360208110156103f057600080fd5b5035610ff8565b60408051938452602084019290925282820152519081900360600190f35b6104386004803603604081101561042b57600080fd5b5080359060200135611042565b604080516001600160a01b039092168252519081900360200190f35b6101ee6004803603604081101561046a57600080fd5b50803590602001356001600160a01b0316611061565b6101b96004803603602081101561049657600080fd5b5035611079565b6101ee600480360360608110156104b357600080fd5b5080359060208101359060400135611127565b6101b9611245565b6101ee600480360360408110156104e457600080fd5b506001600160a01b03813516906020013561124a565b6101b96004803603602081101561051057600080fd5b5035611577565b6102456004803603604081101561052d57600080fd5b50803590602001356001600160a01b031661158e565b6101ee6004803603604081101561055957600080fd5b506001600160a01b0381351690602001356115e7565b6101b9611943565b6001600160a01b038116600090815260a2602090815260408083205460a49092528220545b81811015610641576001600160a01b038416600090815260a26020526040812080546105dd9190849081106105cd57fe5b9060005260206000200154610ff8565b5050905080421061062e576001600160a01b038516600090815260a360205260409020805461062b91908490811061061157fe5b90600052602060002001548561195590919063ffffffff16565b93505b5061063a816001611955565b905061059c565b50505b919050565b600061065c816106576119af565b611061565b610693576040805162461bcd60e51b81526020600482015260036024820152624c513160e81b604482015290519081900360640190fd5b609d546106a19060646119b3565b831115806106c55750821580156106c55750609d546106c19060646119b3565b8211155b806106ce575081155b610705576040805162461bcd60e51b815260206004820152600360248201526226289960e91b604482015290519081900360640190fd5b609b839055609c829055604080518481526020810184905281517f3be6e637f54f081a2dd12982cfd58481304fc98b604b18fa8ed4aa4e4a9d1532929181900390910190a15060015b92915050565b6000610762816106576119af565b610799576040805162461bcd60e51b81526020600482015260036024820152624c513360e81b604482015290519081900360640190fd5b609e8290556040805183815290517ffced4450741ad45114dbc966176eb1d16dc4f2259bc864aa395736a7e8355bbb9181900360200190a1506001919050565b6107e660006106576119af565b610820576040805162461bcd60e51b8152602060048083019190915260248201526304c5131360e41b604482015290519081900360640190fd5b609780546001600160a01b0319166001600160a01b0383169081179091556040517ff745c285f36f88bea6af14d4d0f33dd9350cef7895216c1615b1caaee7857e0c90600090a250565b60009081526065602052604090206002015490565b61088c60006106576119af565b6108c6576040805162461bcd60e51b815260206004808301919091526024820152634c51313160e01b604482015290519081900360640190fd5b609880546001600160a01b0319166001600160a01b0383169081179091556040517fd0b9dbe26f676f4cdb02fc249c203baa0314cec79e18b4194dc862795a5de03f90600090a250565b60008281526065602052604090206002015461092e906106576119af565b6109695760405162461bcd60e51b815260040180806020018281038252602f81526020018061233c602f913960400191505060405180910390fd5b6109738282611a0c565b5050565b61097f6119af565b6001600160a01b0316816001600160a01b0316146109ce5760405162461bcd60e51b815260040180806020018281038252602f81526020018061240a602f913960400191505060405180910390fd5b6109738282611a75565b60006109f46000805160206123ea8339815191526106576119af565b610a2e576040805162461bcd60e51b815260206004808301919091526024820152634c51323360e01b604482015290519081900360640190fd5b610a36611ade565b50600190565b6000610a4a816106576119af565b610a81576040805162461bcd60e51b815260206004820152600360248201526213144d60ea1b604482015290519081900360640190fd5b6001831015610abd576040805162461bcd60e51b81526020600482015260036024820152624c513560e81b604482015290519081900360640190fd5b6001821015610af9576040805162461bcd60e51b815260206004820152600360248201526226289b60e91b604482015290519081900360640190fd5b6099839055609a829055604080518481526020810184905281517fa94d40347449ea19b873d64ed55c99772194c49791e82be5c2dc24e4c0044fe3929181900390910190a150600192915050565b609b54609c54609954609d54609f5460a05460a154609e54969795969495869590565b60335460ff1690565b600054610100900460ff1680610b8c5750610b8c611b7e565b80610b9a575060005460ff16155b610bd55760405162461bcd60e51b815260040180806020018281038252602e81526020018061239b602e913960400191505060405180910390fd5b600054610100900460ff16158015610c00576000805460ff1961ff0019909116610100171660011790555b610c08611b8f565b610c10611c41565b610c226000610c1d6119af565b610969565b610c3a6000805160206123ea83398151915286610969565b610c43876107d9565b610c4c8661087f565b610c5584610754565b50610c61600180610a3c565b50609d829055610c72428085611127565b508015610c85576000805461ff00191690555b50505050505050565b610c96610b6a565b15610cdb576040805162461bcd60e51b815260206004820152601060248201526f14185d5cd8589b194e881c185d5cd95960821b604482015290519081900360640190fd5b610ce36119af565b6001600160a01b0316816001600160a01b031614610d31576040805162461bcd60e51b8152602060048083019190915260248201526304c5132360e41b604482015290519081900360640190fd5b6001600160a01b038116600090815260a260205260408120548160a481610d566119af565b6001600160a01b03166001600160a01b031681526020019081526020016000205490505b81811015610e88576001600160a01b038416600090815260a2602052604081208054610dab9190849081106105cd57fe5b50509050804210610e75576001600160a01b038516600090815260a3602052604090208054610ddf91908490811061061157fe5b6001600160a01b038616600090815260a2602052604081208054929650909184908110610e0857fe5b60009182526020808320909101929092556001600160a01b038716815260a390915260408120805484908110610e3a57fe5b906000526020600020018190555060a46000610e546119af565b6001600160a01b031681526020810191909152604001600020805460010190555b50610e81816001611955565b9050610d7a565b5060008211610ec7576040805162461bcd60e51b815260206004808301919091526024820152634c51323160e01b604482015290519081900360640190fd5b6040805183815242602082015281516001600160a01b038616927f31453b59c0eb931edc765cc2400876a524254457b5534d660c9da1d74ab4666b928290030190a26097546001600160a01b03166340c10f19610f226119af565b846040518363ffffffff1660e01b815260040180836001600160a01b0316815260200182815260200192505050602060405180830381600087803b158015610f6957600080fd5b505af1158015610f7d573d6000803e3d6000fd5b505050506040513d6020811015610f9357600080fd5b5050505050565b6000610fb66000805160206123ea8339815191526106576119af565b610ff0576040805162461bcd60e51b815260206004808301919091526024820152632628991960e11b604482015290519081900360640190fd5b610a36611cde565b60008060008061100785611079565b90508061101857600093505061103b565b60a054925060a1549150611037609e548261195590919063ffffffff16565b9350505b9193909250565b600082815260656020526040812061105a9083611d61565b9392505050565b600082815260656020526040812061105a9083611d6d565b60008161108857506000610644565b60a054158015611098575060a154155b806110a35750609f54155b156110af575080610644565b8160a05411156110c2575060a054610644565b60006110e56110de60a15460a054611d8290919063ffffffff16565b8490611955565b905060006110fe60a05483611d8290919063ffffffff16565b905061111f82611119609f5484611ddf90919063ffffffff16565b90611955565b949350505050565b6000611135816106576119af565b61116c576040805162461bcd60e51b81526020600482015260036024820152624c513760e81b604482015290519081900360640190fd5b838311156111a7576040805162461bcd60e51b8152602060048201526003602482015262098a2760eb1b604482015290519081900360640190fd5b831580156111b457508115155b156111ec576040805162461bcd60e51b81526020600482015260036024820152624c513960e81b604482015290519081900360640190fd5b60a084905560a1839055609f829055604080518581526020810185905280820184905290517f342db083975cc0697d0f81d0876299ecbf95d909e920426089062e540904497c9181900360600190a15060019392505050565b600081565b6000611254610b6a565b15611299576040805162461bcd60e51b815260206004820152601060248201526f14185d5cd8589b194e881c185d5cd95960821b604482015290519081900360640190fd5b6112a16119af565b6001600160a01b0316836001600160a01b0316146112ef576040805162461bcd60e51b815260206004808301919091526024820152632628989960e11b604482015290519081900360640190fd5b609754604080516370a0823160e01b81526001600160a01b038681166004830152915160009392909216916370a0823191602480820192602092909190829003018186803b15801561134057600080fd5b505afa158015611354573d6000803e3d6000fd5b505050506040513d602081101561136a57600080fd5b5051609b54609d54919250600091611383918691611e46565b9050600061139c611395836064611eff565b8690611955565b90506099548510156113de576040805162461bcd60e51b815260206004808301919091526024820152634c51313360e01b604482015290519081900360640190fd5b8083101561141c576040805162461bcd60e51b8152602060048083019190915260248201526313144c4d60e21b604482015290519081900360640190fd5b6040805186815260208101839052428183015290516001600160a01b038816917f5fe79871cd2431c06447cbcf2557091da5d2ed5bc640f1028f42665913786e42919081900360600190a260975460408051632770a7eb60e21b81526001600160a01b0389811660048301526024820185905291519190921691639dc29fac9160448083019260209291908290030181600087803b1580156114bd57600080fd5b505af11580156114d1573d6000803e3d6000fd5b505050506040513d60208110156114e757600080fd5b5050609854604080516340c10f1960e01b81526001600160a01b03898116600483015260248201899052915191909216916340c10f199160448083019260209291908290030181600087803b15801561153f57600080fd5b505af1158015611553573d6000803e3d6000fd5b505050506040513d602081101561156957600080fd5b506001979650505050505050565b600081815260656020526040812061074e90611f66565b6000828152606560205260409020600201546115ac906106576119af565b6109ce5760405162461bcd60e51b815260040180806020018281038252603081526020018061236b6030913960400191505060405180910390fd5b60006115f1610b6a565b15611636576040805162461bcd60e51b815260206004820152601060248201526f14185d5cd8589b194e881c185d5cd95960821b604482015290519081900360640190fd5b61163e6119af565b6001600160a01b0316836001600160a01b03161461168c576040805162461bcd60e51b815260206004808301919091526024820152634c51313560e01b604482015290519081900360640190fd5b60a0546116c9576040805162461bcd60e51b815260206004808301919091526024820152632628989b60e11b604482015290519081900360640190fd5b60a154611706576040805162461bcd60e51b815260206004808301919091526024820152634c51313760e01b604482015290519081900360640190fd5b609854604080516370a0823160e01b81526001600160a01b038681166004830152915160009392909216916370a0823191602480820192602092909190829003018186803b15801561175757600080fd5b505afa15801561176b573d6000803e3d6000fd5b505050506040513d602081101561178157600080fd5b5051609c54609d5491925060009161179a918691611e46565b905060006117ac611395836064611eff565b9050609a548510156117ee576040805162461bcd60e51b81526020600480830191909152602482015263098a262760e31b604482015290519081900360640190fd5b8083101561182c576040805162461bcd60e51b815260206004808301919091526024820152634c51313960e01b604482015290519081900360640190fd5b60985460408051632770a7eb60e21b81526001600160a01b0389811660048301526024820185905291519190921691639dc29fac9160448083019260209291908290030181600087803b15801561188257600080fd5b505af1158015611896573d6000803e3d6000fd5b505050506040513d60208110156118ac57600080fd5b50506001600160a01b038616600081815260a26020908152604080832080546001818101835591855283852042910181905585855260a38452828520805492830181558552938390200189905580518981529182018590528181019290925290517f98850af53deeaf736beb3ea22091c900e8e5cfdf8153342daa366dc1d83a39fd9181900360600190a250600195945050505050565b6000805160206123ea83398151915281565b60008282018381101561105a576040805162461bcd60e51b815260206004820152601b60248201527f536166654d6174683a206164646974696f6e206f766572666c6f770000000000604482015290519081900360640190fd5b3390565b6000826119c25750600061074e565b828202828482816119cf57fe5b041461105a5760405162461bcd60e51b81526004018080602001828103825260218152602001806123c96021913960400191505060405180910390fd5b6000828152606560205260409020611a249082611f71565b1561097357611a316119af565b6001600160a01b0316816001600160a01b0316837f2f8788117e7eff1d82e926ec794901d17c78024a50270940304540a733656f0d60405160405180910390a45050565b6000828152606560205260409020611a8d9082611f86565b1561097357611a9a6119af565b6001600160a01b0316816001600160a01b0316837ff6391f5c32d9c69d2a47ea670b442974b53935d1edc7fd64eb21e047a839171b60405160405180910390a45050565b611ae6610b6a565b611b2e576040805162461bcd60e51b815260206004820152601460248201527314185d5cd8589b194e881b9bdd081c185d5cd95960621b604482015290519081900360640190fd5b6033805460ff191690557f5db9ee0a495bf2e6ff9c91a7834c1ba4fdd244a5e8aa4e537bd38aeae4b073aa611b616119af565b604080516001600160a01b039092168252519081900360200190a1565b6000611b8930611f9b565b15905090565b600054610100900460ff1680611ba85750611ba8611b7e565b80611bb6575060005460ff16155b611bf15760405162461bcd60e51b815260040180806020018281038252602e81526020018061239b602e913960400191505060405180910390fd5b600054610100900460ff16158015611c1c576000805460ff1961ff0019909116610100171660011790555b611c24611fa1565b611c2c611fa1565b8015611c3e576000805461ff00191690555b50565b600054610100900460ff1680611c5a5750611c5a611b7e565b80611c68575060005460ff16155b611ca35760405162461bcd60e51b815260040180806020018281038252602e81526020018061239b602e913960400191505060405180910390fd5b600054610100900460ff16158015611cce576000805460ff1961ff0019909116610100171660011790555b611cd6611fa1565b611c2c612041565b611ce6610b6a565b15611d2b576040805162461bcd60e51b815260206004820152601060248201526f14185d5cd8589b194e881c185d5cd95960821b604482015290519081900360640190fd5b6033805460ff191660011790557f62e78cea01bee320cd4e420270b5ea74000d11b0c9f74754ebdbfc544b05a258611b616119af565b600061105a83836120ec565b600061105a836001600160a01b038416612150565b600082821115611dd9576040805162461bcd60e51b815260206004820152601e60248201527f536166654d6174683a207375627472616374696f6e206f766572666c6f770000604482015290519081900360640190fd5b50900390565b6000808211611e35576040805162461bcd60e51b815260206004820152601860248201527f536166654d6174683a206d6f64756c6f206279207a65726f0000000000000000604482015290519081900360640190fd5b818381611e3e57fe5b069392505050565b6000806000611e558686612168565b9150915060008480611e6357fe5b868809905082811115611e77576001820391505b918290039181611e9557848381611e8a57fe5b04935050505061105a565b848210611ee9576040805162461bcd60e51b815260206004820152601a60248201527f46756c6c4d6174683a2046554c4c4449565f4f564552464c4f57000000000000604482015290519081900360640190fd5b611ef4838387612195565b979650505050505050565b6000808211611f55576040805162461bcd60e51b815260206004820152601a60248201527f536166654d6174683a206469766973696f6e206279207a65726f000000000000604482015290519081900360640190fd5b818381611f5e57fe5b049392505050565b600061074e82612205565b600061105a836001600160a01b038416612209565b600061105a836001600160a01b038416612253565b3b151590565b600054610100900460ff1680611fba5750611fba611b7e565b80611fc8575060005460ff16155b6120035760405162461bcd60e51b815260040180806020018281038252602e81526020018061239b602e913960400191505060405180910390fd5b600054610100900460ff16158015611c2c576000805460ff1961ff0019909116610100171660011790558015611c3e576000805461ff001916905550565b600054610100900460ff168061205a575061205a611b7e565b80612068575060005460ff16155b6120a35760405162461bcd60e51b815260040180806020018281038252602e81526020018061239b602e913960400191505060405180910390fd5b600054610100900460ff161580156120ce576000805460ff1961ff0019909116610100171660011790555b6033805460ff191690558015611c3e576000805461ff001916905550565b8154600090821061212e5760405162461bcd60e51b815260040180806020018281038252602281526020018061231a6022913960400191505060405180910390fd5b82600001828154811061213d57fe5b9060005260206000200154905092915050565b60009081526001919091016020526040902054151590565b600080806000198486099050838502925082810391508281101561218d576001820391505b509250929050565b600081810382168083816121a557fe5b0492508085816121b157fe5b0494508081600003816121c057fe5b60028581038087028203028087028203028087028203028087028203028087028203028087028203029586029003909402930460010193909302939093010292915050565b5490565b60006122158383612150565b61224b5750815460018181018455600084815260208082209093018490558454848252828601909352604090209190915561074e565b50600061074e565b6000818152600183016020526040812054801561230f578354600019808301919081019060009087908390811061228657fe5b90600052602060002001549050808760000184815481106122a357fe5b6000918252602080832090910192909255828152600189810190925260409020908401905586548790806122d357fe5b6001900381819060005260206000200160009055905586600101600087815260200190815260200160002060009055600194505050505061074e565b600091505061074e56fe456e756d657261626c655365743a20696e646578206f7574206f6620626f756e6473416363657373436f6e74726f6c3a2073656e646572206d75737420626520616e2061646d696e20746f206772616e74416363657373436f6e74726f6c3a2073656e646572206d75737420626520616e2061646d696e20746f207265766f6b65496e697469616c697a61626c653a20636f6e747261637420697320616c726561647920696e697469616c697a6564536166654d6174683a206d756c7469706c69636174696f6e206f766572666c6f7765d7a28e3265b37a6474929f336521b332c1681b933f6cb9f3376673440d862a416363657373436f6e74726f6c3a2063616e206f6e6c792072656e6f756e636520726f6c657320666f722073656c66a26469706673582212206b988f4ff4157cb11fd0b01b4fa9376e8f255cd76a2eee44d6003dc055c1ffd164736f6c63430007060033",
  "immutableReferences": {},
  "source": "// SPDX-License-Identifier: UNLICENSED\npragma solidity >= 0.7.0;\n\nimport \"@openzeppelin/contracts-upgradeable/math/SafeMathUpgradeable.sol\";\nimport \"@openzeppelin/contracts-upgradeable/access/AccessControlUpgradeable.sol\";\nimport \"@openzeppelin/contracts-upgradeable/utils/PausableUpgradeable.sol\";\nimport \"./interfaces/ISTokens.sol\";\nimport \"./interfaces/IUTokens.sol\";\nimport \"./interfaces/ILiquidStaking.sol\";\nimport \"./libraries/FullMath.sol\";\n\ncontract LiquidStaking is ILiquidStaking, PausableUpgradeable, AccessControlUpgradeable {\n\n    using SafeMathUpgradeable for uint256;\n    using FullMath for uint256;\n\n    //Private instances of contracts to handle Utokens and Stokens\n    IUTokens private _uTokens;\n    ISTokens private _sTokens;\n\n    // defining the fees and minimum values\n    uint256 private _minStake;\n    uint256 private _minUnstake;\n    uint256 private _stakeFee;\n    uint256 private _unstakeFee;\n    uint256 private _valueDivisor;\n\n    bytes32 public constant PAUSER_ROLE = keccak256(\"PAUSER_ROLE\");\n\n    uint256 private _unstakingLockTime;\n    uint256 private _epochInterval;\n    uint256 private _unstakeEpoch;\n    uint256 private _unstakeEpochPrevious;\n\n    //Mapping to handle the Expiry period\n    mapping(address => uint256[]) private _unstakingExpiration;\n\n    //Mapping to handle the Expiry amount\n    mapping(address => uint256[]) private _unstakingAmount;\n\n    //mappint to handle a counter variable indicating from what index to start the loop.\n    mapping(address => uint256) internal _withdrawCounters;\n\n    /**\n   * @dev Constructor for initializing the LiquidStaking contract.\n   * @param uAddress - address of the UToken contract.\n   * @param sAddress - address of the SToken contract.\n   * @param pauserAddress - address of the pauser admin.\n   * @param unstakingLockTime - varies from 21 hours to 21 days.\n   * @param epochInterval - varies from 3 hours to 3 days.\n   * @param valueDivisor - valueDivisor set to 10^9.\n   */\n    function initialize(address uAddress, address sAddress, address pauserAddress, uint256 unstakingLockTime, uint256 epochInterval, uint256 valueDivisor) public virtual initializer  {\n        __AccessControl_init();\n        __Pausable_init();\n        _setupRole(DEFAULT_ADMIN_ROLE, _msgSender());\n        _setupRole(PAUSER_ROLE, pauserAddress);\n        setUTokensContract(uAddress);\n        setSTokensContract(sAddress);\n        setUnstakingLockTime(unstakingLockTime);\n        setMinimumValues(1, 1);\n        _valueDivisor = valueDivisor;\n        setUnstakeEpoch(block.timestamp, block.timestamp, epochInterval);\n    }\n\n    /**\n     * @dev Set 'fees', called from admin\n     * @param stakeFee: stake fee\n     * @param unstakeFee: unstake fee\n     *\n     * Emits a {SetFees} event with 'fee' set to the stake and unstake.\n     *\n     */\n    function setFees(uint256 stakeFee, uint256 unstakeFee) public virtual returns (bool success) {\n        require(hasRole(DEFAULT_ADMIN_ROLE, _msgSender()), \"LQ1\");\n        // range checks for fees. Since fee cannot be more than 100%, the max cap \n        // is _valueDivisor * 100, which then brings the fees to 100 (percentage) \n        require(stakeFee <= _valueDivisor.mul(100) || stakeFee == 0 && unstakeFee <= _valueDivisor.mul(100) || unstakeFee == 0, \"LQ2\");\n        _stakeFee = stakeFee;\n        _unstakeFee = unstakeFee;\n        emit SetFees(stakeFee, unstakeFee);\n        return true;\n    }\n\n    /**\n     * @dev Set 'unstake props', called from admin\n     * @param unstakingLockTime: varies from 21 hours to 21 days\n     *\n     * Emits a {SetUnstakeProps} event with 'fee' set to the stake and unstake.\n     * \n     */\n    function setUnstakingLockTime(uint256 unstakingLockTime) public virtual returns (bool success) {\n        require(hasRole(DEFAULT_ADMIN_ROLE, _msgSender()), \"LQ3\");\n        _unstakingLockTime = unstakingLockTime;\n        emit SetUnstakingLockTime(unstakingLockTime);\n        return true;\n    }\n\n    /**\n     * @dev get fees, min values, value divisor and epoch props\n     *\n     */\n    function getStakeUnstakeProps() public view virtual returns (\n        uint256 stakeFee, uint256 unstakeFee, uint256 minStake, uint256 minUnstake, uint256 valueDivisor,\n        uint256 epochInterval, uint256 unstakeEpoch, uint256 unstakeEpochPrevious, uint256 unstakingLockTime\n    ) {\n        stakeFee = _stakeFee;\n        unstakeFee = _unstakeFee;\n        minStake = _minStake;\n        minUnstake = _minStake;\n        valueDivisor = _valueDivisor;\n        epochInterval= _epochInterval;\n        unstakeEpoch = _unstakeEpoch;\n        unstakeEpochPrevious = _unstakeEpochPrevious;\n        unstakingLockTime = _unstakingLockTime;\n    }\n\n    /**\n     * @dev Set 'minimum values', called from admin\n     * @param minStake: stake minimum value\n     * @param minUnstake: unstake minimum value\n     *\n     * Emits a {SetMinimumValues} event with 'minimum value' set to the stake and unstake.\n     *\n     */\n    function setMinimumValues(uint256 minStake, uint256 minUnstake) public virtual returns (bool success){\n        require(hasRole(DEFAULT_ADMIN_ROLE, _msgSender()), \"LQ4\");\n        require(minStake >= 1, \"LQ5\");\n        require(minUnstake >= 1, \"LQ6\");\n        _minStake = minStake;\n        _minUnstake = minUnstake;\n        emit SetMinimumValues(minStake, minUnstake);\n        return true;\n    }\n\n    /**\n    * @dev Set 'unstake epoch', called from admin\n    * @param unstakeEpoch: unstake epoch\n    * @param unstakeEpochPrevious: unstake epoch previous(initially set to same value as unstakeEpoch)\n    * @param epochInterval: varies from 3 hours to 3 days\n    *\n    * Emits a {SetUnstakeEpoch} event with 'unstakeEpoch'\n    *\n    */\n    function setUnstakeEpoch(uint256 unstakeEpoch, uint256 unstakeEpochPrevious, uint256 epochInterval) public virtual returns (bool success){\n        require(hasRole(DEFAULT_ADMIN_ROLE, _msgSender()), \"LQ7\");\n        require(unstakeEpochPrevious <= unstakeEpoch, \"LQ8\");\n        if(unstakeEpoch == 0 && epochInterval != 0) revert(\"LQ9\");\n        _unstakeEpoch = unstakeEpoch;\n        _unstakeEpochPrevious = unstakeEpochPrevious;\n        _epochInterval = epochInterval;\n        emit SetUnstakeEpoch(unstakeEpoch, unstakeEpochPrevious, epochInterval);\n        return true;\n    }\n\n    /**\n     * @dev Set 'contract address', called from constructor\n     * @param uAddress: utoken contract address\n     *\n     * Emits a {SetUTokensContract} event with '_contract' set to the utoken contract address.\n     *\n     */\n    function setUTokensContract(address uAddress) public virtual override {\n        require(hasRole(DEFAULT_ADMIN_ROLE, _msgSender()), \"LQ10\");\n        _uTokens = IUTokens(uAddress);\n        emit SetUTokensContract(uAddress);\n    }\n\n    /**\n     * @dev Set 'contract address', called from constructor\n     * @param sAddress: stoken contract address\n     *\n     * Emits a {SetSTokensContract} event with '_contract' set to the stoken contract address.\n     *\n     */\n    function setSTokensContract(address sAddress) public virtual override {\n        require(hasRole(DEFAULT_ADMIN_ROLE, _msgSender()), \"LQ11\");\n        _sTokens = ISTokens(sAddress);\n        emit SetSTokensContract(sAddress);\n    }\n\n    /**\n    * @dev Stake utokens over the platform with address 'to' for desired 'amount'(Burn uTokens and Mint sTokens)\n    * @param to: user address for staking, amount: number of tokens to stake\n    *\n    *\n    * Requirements:\n    *\n    * - `amount` cannot be less than zero.\n    * - 'amount' cannot be more than balance\n    * - 'amount' plus new balance should be equal to the old balance\n    */\n    function stake(address to, uint256 amount) public virtual override whenNotPaused returns(bool)  {\n        // Check the supplied amount is greater than minimum stake value\n        require(to == _msgSender(), \"LQ12\");\n        // Check the current balance for uTokens is greater than the amount to be staked\n        uint256 _currentUTokenBalance = _uTokens.balanceOf(to);\n       // uint256 _finalTokens = amount.add((amount.mul(_stakeFee)).div(_valueDivisor.mul(100)));\n        uint256 _temp = amount.mulDiv(_stakeFee, _valueDivisor);\n        uint256 _finalTokens = amount.add(_temp.div(100));\n        // the value which should be greater than or equal to _minStake\n        // is amount since minval applies to number of sTokens to be minted\n        require(amount >= _minStake, \"LQ13\");\n        // uint256 finalTokens = (((amount.mul(100)).mul(_valueDivisor)).sub(_stakeFee)).div(_valueDivisor.mul(100));\n        require(_currentUTokenBalance >= _finalTokens, \"LQ14\");\n        emit StakeTokens(to, amount, _finalTokens, block.timestamp);\n        // Burn the uTokens as specified with the amount\n        _uTokens.burn(to, _finalTokens);\n        // Mint the sTokens for the account specified\n        _sTokens.mint(to, amount);\n        return true;\n    }\n\n    /**\n     * @dev UnStake stokens over the platform with address 'to' for desired 'amount' (Burn sTokens and Mint uTokens with 21 days locking period)\n     * @param to: user address for staking, amount: number of tokens to unstake\n     *\n     *\n     * Requirements:\n     *\n     * - `amount` cannot be less than zero.\n     * - 'amount' cannot be more than balance\n     * - 'amount' plus new balance should be equal to the old balance\n     */\n    function unStake(address to, uint256 amount) public virtual override whenNotPaused returns(bool) {\n        // Check the supplied amount is greater than 0\n        require(to == _msgSender(), \"LQ15\");\n        require(_unstakeEpoch!=0, \"LQ16\");\n        require(_unstakeEpochPrevious!=0, \"LQ17\");\n        // Check the current balance for sTokens is greater than the amount to be unStaked\n        uint256 _currentSTokenBalance = _sTokens.balanceOf(to);\n        //uint256 _finalTokens = amount.add((amount.mul(_unstakeFee)).div(_valueDivisor.mul(100)));\n        uint256 _temp = amount.mulDiv(_unstakeFee, _valueDivisor);\n        uint256 _finalTokens = amount.add(_temp.div(100));\n        // the value which should be greater than or equal to _minSUnstake\n        // is amount since minval applies to number of uTokens to be withdrawn\n        require(amount >= _minUnstake, \"LQ18\");\n        require(_currentSTokenBalance >= _finalTokens, \"LQ19\");\n        // uint256 _finalTokens = (((amount.mul(100)).mul(_valueDivisor)).sub(_unstakeFee)).div(_valueDivisor.mul(100));\n        // Burn the sTokens as specified with the amount\n        _sTokens.burn(to, _finalTokens);\n        _unstakingExpiration[to].push(block.timestamp);\n        // array will hold amount and not _finalTokens because that is the amount of \n        // uTokens pending to be credited after withdraw period\n        _unstakingAmount[to].push(amount);\n        // the event needs to capture _finalTokens that were and not amount\n        emit UnstakeTokens(to, amount, _finalTokens, block.timestamp);\n\n        return true;\n    }\n\n    /**\n     * @dev returns the nearest epoch milestone in the future\n     */\n    function getUnstakeEpochMilestone(uint256 _unstakeTimestamp) public view virtual returns (uint256 unstakeEpochMilestone) {\n        if(_unstakeTimestamp == 0) return 0;\n        // if epoch values are not relevant, then the epoch milestone is the unstake timestamp itself (backward compatibility)\n        if((_unstakeEpoch == 0 && _unstakeEpochPrevious == 0) || _epochInterval == 0) return _unstakeTimestamp;\n        if(_unstakeEpoch > _unstakeTimestamp) return (_unstakeEpoch);\n        uint256 _referenceStartTime = (_unstakeTimestamp).add(_unstakeEpoch.sub(_unstakeEpochPrevious));\n        uint256 _timeDiff = _referenceStartTime.sub(_unstakeEpoch);\n        unstakeEpochMilestone = (_timeDiff.mod(_epochInterval)).add(_referenceStartTime);\n        return (unstakeEpochMilestone);\n    }\n\n    /**\n     * @dev returns the time left for unbonding to finish\n     */\n    function getUnstakeTime(uint256 _unstakeTimestamp) public view virtual returns (uint256 unstakeTime ,uint256 unstakeEpoch, uint256 unstakeEpochPrevious) {\n        uint256 _unstakeEpochMilestone = getUnstakeEpochMilestone(_unstakeTimestamp);\n        if(_unstakeEpochMilestone == 0) return (0, unstakeEpoch, unstakeEpochPrevious);\n        unstakeEpoch = _unstakeEpoch;\n        unstakeEpochPrevious = _unstakeEpochPrevious;\n        //adding unstakingLockTime with epoch difference\n        unstakeTime = _unstakeEpochMilestone.add(_unstakingLockTime);\n        return (unstakeTime, unstakeEpoch, unstakeEpochPrevious);\n    }\n\n    /**\n     * @dev Lock the unstaked tokens for 21 days, user can withdraw the same (Mint uTokens with 21 days locking period)\n     *\n     * @param staker: user address for withdraw\n     *\n     * Requirements:\n     *\n     * - `current block timestamp` should be after 21 days from the period where unstaked function is called.\n     */\n    function withdrawUnstakedTokens(address staker) public virtual override whenNotPaused{\n        require(staker == _msgSender(), \"LQ20\");\n        uint256 _withdrawBalance;\n        uint256 _unstakingExpirationLength = _unstakingExpiration[staker].length;\n        for (uint256 i=_withdrawCounters[_msgSender()]; i<_unstakingExpirationLength; i=i.add(1)) {\n            //get getUnstakeTime and compare it with current timestamp to check if 21 days + epoch difference has passed\n            (uint256 _getUnstakeTime, , ) = getUnstakeTime(_unstakingExpiration[staker][i]);\n            if (block.timestamp >= _getUnstakeTime) {\n                //if 21 days + epoch difference has passed, then add the balance and then mint uTokens\n                _withdrawBalance = _withdrawBalance.add(_unstakingAmount[staker][i]);\n                _unstakingExpiration[staker][i] = 0;\n                _unstakingAmount[staker][i] = 0;\n                _withdrawCounters[_msgSender()]++;\n            }\n        }\n        require(_withdrawBalance > 0, \"LQ21\");\n        emit WithdrawUnstakeTokens(staker, _withdrawBalance, block.timestamp);\n        _uTokens.mint(_msgSender(), _withdrawBalance);\n    }\n\n    /**\n     * @dev get Total Unbonded Tokens\n     * @param staker: account address\n     *\n     */\n    function getTotalUnbondedTokens(address staker) public view virtual returns (uint256 unbondingTokens) {\n        uint256 _unstakingExpirationLength = _unstakingExpiration[staker].length;\n            for (uint256 i=_withdrawCounters[staker]; i<_unstakingExpirationLength; i=i.add(1)) {\n                //get getUnstakeTime and compare it with current timestamp to check if 21 days + epoch difference has passed\n                (uint256 _getUnstakeTime, , ) = getUnstakeTime(_unstakingExpiration[staker][i]);\n                if (block.timestamp >= _getUnstakeTime) {\n                    //if 21 days + epoch difference has passed, then check the token amount and send back\n                    unbondingTokens = unbondingTokens.add(_unstakingAmount[staker][i]);\n                }\n            }\n        return unbondingTokens;\n    }\n\n    /**\n      * @dev Triggers stopped state.\n      *\n      * Requirements:\n      *\n      * - The contract must not be paused.\n      */\n    function pause() public virtual returns (bool success) {\n        require(hasRole(PAUSER_ROLE, _msgSender()), \"LQ22\");\n        _pause();\n        return true;\n    }\n\n    /**\n     * @dev Returns to normal state.\n     *\n     * Requirements:\n     *\n     * - The contract must be paused.\n     */\n    function unpause() public virtual returns (bool success) {\n        require(hasRole(PAUSER_ROLE, _msgSender()), \"LQ23\");\n        _unpause();\n        return true;\n    }\n}",
  "sourcePath": "/home/aditimahesh/Documents/Work/Persistence/go/src/github.com/persistenceOne/pStakeSmartContracts/contracts/LiquidStaking.sol",
  "compiler": {
    "name": "solc",
    "version": "0.7.6+commit.7338295f.Emscripten.clang"
  },
  "schemaVersion": "3.3.4",
  "updatedAt": "2021-07-05T12:11:56.719Z",
  "networkType": "ethereum",
  "devdoc": {
    "kind": "dev",
    "methods": {
      "getRoleAdmin(bytes32)": {
        "details": "Returns the admin role that controls `role`. See {grantRole} and {revokeRole}. To change a role's admin, use {_setRoleAdmin}."
      },
      "getRoleMember(bytes32,uint256)": {
        "details": "Returns one of the accounts that have `role`. `index` must be a value between 0 and {getRoleMemberCount}, non-inclusive. Role bearers are not sorted in any particular way, and their ordering may change at any point. WARNING: When using {getRoleMember} and {getRoleMemberCount}, make sure you perform all queries on the same block. See the following https://forum.openzeppelin.com/t/iterating-over-elements-on-enumerableset-in-openzeppelin-contracts/2296[forum post] for more information."
      },
      "getRoleMemberCount(bytes32)": {
        "details": "Returns the number of accounts that have `role`. Can be used together with {getRoleMember} to enumerate all bearers of a role."
      },
      "getStakeUnstakeProps()": {
        "details": "get fees, min values, value divisor and epoch props"
      },
      "getTotalUnbondedTokens(address)": {
        "details": "get Total Unbonded Tokens",
        "params": {
          "staker": ": account address"
        }
      },
      "getUnstakeEpochMilestone(uint256)": {
        "details": "returns the nearest epoch milestone in the future"
      },
      "getUnstakeTime(uint256)": {
        "details": "returns the time left for unbonding to finish"
      },
      "grantRole(bytes32,address)": {
        "details": "Grants `role` to `account`. If `account` had not been already granted `role`, emits a {RoleGranted} event. Requirements: - the caller must have ``role``'s admin role."
      },
      "hasRole(bytes32,address)": {
        "details": "Returns `true` if `account` has been granted `role`."
      },
      "initialize(address,address,address,uint256,uint256,uint256)": {
        "details": "Constructor for initializing the LiquidStaking contract.",
        "params": {
          "epochInterval": "- varies from 3 hours to 3 days.",
          "pauserAddress": "- address of the pauser admin.",
          "sAddress": "- address of the SToken contract.",
          "uAddress": "- address of the UToken contract.",
          "unstakingLockTime": "- varies from 21 hours to 21 days.",
          "valueDivisor": "- valueDivisor set to 10^9."
        }
      },
      "pause()": {
        "details": "Triggers stopped state. Requirements: - The contract must not be paused."
      },
      "paused()": {
        "details": "Returns true if the contract is paused, and false otherwise."
      },
      "renounceRole(bytes32,address)": {
        "details": "Revokes `role` from the calling account. Roles are often managed via {grantRole} and {revokeRole}: this function's purpose is to provide a mechanism for accounts to lose their privileges if they are compromised (such as when a trusted device is misplaced). If the calling account had been granted `role`, emits a {RoleRevoked} event. Requirements: - the caller must be `account`."
      },
      "revokeRole(bytes32,address)": {
        "details": "Revokes `role` from `account`. If `account` had been granted `role`, emits a {RoleRevoked} event. Requirements: - the caller must have ``role``'s admin role."
      },
      "setFees(uint256,uint256)": {
        "details": "Set 'fees', called from admin",
        "params": {
          "stakeFee": ": stake fee",
          "unstakeFee": ": unstake fee Emits a {SetFees} event with 'fee' set to the stake and unstake."
        }
      },
      "setMinimumValues(uint256,uint256)": {
        "details": "Set 'minimum values', called from admin",
        "params": {
          "minStake": ": stake minimum value",
          "minUnstake": ": unstake minimum value Emits a {SetMinimumValues} event with 'minimum value' set to the stake and unstake."
        }
      },
      "setSTokensContract(address)": {
        "details": "Set 'contract address', called from constructor",
        "params": {
          "sAddress": ": stoken contract address Emits a {SetSTokensContract} event with '_contract' set to the stoken contract address."
        }
      },
      "setUTokensContract(address)": {
        "details": "Set 'contract address', called from constructor",
        "params": {
          "uAddress": ": utoken contract address Emits a {SetUTokensContract} event with '_contract' set to the utoken contract address."
        }
      },
      "setUnstakeEpoch(uint256,uint256,uint256)": {
        "details": "Set 'unstake epoch', called from admin",
        "params": {
          "epochInterval": ": varies from 3 hours to 3 days Emits a {SetUnstakeEpoch} event with 'unstakeEpoch'",
          "unstakeEpoch": ": unstake epoch",
          "unstakeEpochPrevious": ": unstake epoch previous(initially set to same value as unstakeEpoch)"
        }
      },
      "setUnstakingLockTime(uint256)": {
        "details": "Set 'unstake props', called from admin",
        "params": {
          "unstakingLockTime": ": varies from 21 hours to 21 days Emits a {SetUnstakeProps} event with 'fee' set to the stake and unstake. "
        }
      },
      "stake(address,uint256)": {
        "details": "Stake utokens over the platform with address 'to' for desired 'amount'(Burn uTokens and Mint sTokens)",
        "params": {
          "to": ": user address for staking, amount: number of tokens to stake Requirements: - `amount` cannot be less than zero. - 'amount' cannot be more than balance - 'amount' plus new balance should be equal to the old balance"
        }
      },
      "unStake(address,uint256)": {
        "details": "UnStake stokens over the platform with address 'to' for desired 'amount' (Burn sTokens and Mint uTokens with 21 days locking period)",
        "params": {
          "to": ": user address for staking, amount: number of tokens to unstake Requirements: - `amount` cannot be less than zero. - 'amount' cannot be more than balance - 'amount' plus new balance should be equal to the old balance"
        }
      },
      "unpause()": {
        "details": "Returns to normal state. Requirements: - The contract must be paused."
      },
      "withdrawUnstakedTokens(address)": {
        "details": "Lock the unstaked tokens for 21 days, user can withdraw the same (Mint uTokens with 21 days locking period)",
        "params": {
          "staker": ": user address for withdraw Requirements: - `current block timestamp` should be after 21 days from the period where unstaked function is called."
        }
      }
    },
    "version": 1
  },
  "userdoc": {
    "kind": "user",
    "methods": {},
    "version": 1
  }
}