{
  "contractName": "LiquidStakingV3",
  "abi": [
    {
      "anonymous": false,
      "inputs": [
        {
          "indexed": false,
          "internalType": "address",
          "name": "account",
          "type": "address"
        }
      ],
      "name": "Paused",
      "type": "event"
    },
    {
      "anonymous": false,
      "inputs": [
        {
          "indexed": true,
          "internalType": "bytes32",
          "name": "role",
          "type": "bytes32"
        },
        {
          "indexed": true,
          "internalType": "bytes32",
          "name": "previousAdminRole",
          "type": "bytes32"
        },
        {
          "indexed": true,
          "internalType": "bytes32",
          "name": "newAdminRole",
          "type": "bytes32"
        }
      ],
      "name": "RoleAdminChanged",
      "type": "event"
    },
    {
      "anonymous": false,
      "inputs": [
        {
          "indexed": true,
          "internalType": "bytes32",
          "name": "role",
          "type": "bytes32"
        },
        {
          "indexed": true,
          "internalType": "address",
          "name": "account",
          "type": "address"
        },
        {
          "indexed": true,
          "internalType": "address",
          "name": "sender",
          "type": "address"
        }
      ],
      "name": "RoleGranted",
      "type": "event"
    },
    {
      "anonymous": false,
      "inputs": [
        {
          "indexed": true,
          "internalType": "bytes32",
          "name": "role",
          "type": "bytes32"
        },
        {
          "indexed": true,
          "internalType": "address",
          "name": "account",
          "type": "address"
        },
        {
          "indexed": true,
          "internalType": "address",
          "name": "sender",
          "type": "address"
        }
      ],
      "name": "RoleRevoked",
      "type": "event"
    },
    {
      "anonymous": false,
      "inputs": [
        {
          "indexed": true,
          "internalType": "uint256",
          "name": "batchingLimit",
          "type": "uint256"
        },
        {
          "indexed": false,
          "internalType": "uint256",
          "name": "timestamp",
          "type": "uint256"
        }
      ],
      "name": "SetBatchingLimit",
      "type": "event"
    },
    {
      "anonymous": false,
      "inputs": [
        {
          "indexed": true,
          "internalType": "uint256",
          "name": "stakeFee",
          "type": "uint256"
        },
        {
          "indexed": true,
          "internalType": "uint256",
          "name": "unstakeFee",
          "type": "uint256"
        }
      ],
      "name": "SetFees",
      "type": "event"
    },
    {
      "anonymous": false,
      "inputs": [
        {
          "indexed": true,
          "internalType": "uint256",
          "name": "minStake",
          "type": "uint256"
        },
        {
          "indexed": true,
          "internalType": "uint256",
          "name": "minUnstake",
          "type": "uint256"
        }
      ],
      "name": "SetMinimumValues",
      "type": "event"
    },
    {
      "anonymous": false,
      "inputs": [
        {
          "indexed": true,
          "internalType": "address",
          "name": "_contract",
          "type": "address"
        }
      ],
      "name": "SetSTokensContract",
      "type": "event"
    },
    {
      "anonymous": false,
      "inputs": [
        {
          "indexed": true,
          "internalType": "address",
          "name": "_contract",
          "type": "address"
        }
      ],
      "name": "SetTokenWrapperContract",
      "type": "event"
    },
    {
      "anonymous": false,
      "inputs": [
        {
          "indexed": true,
          "internalType": "address",
          "name": "_contract",
          "type": "address"
        }
      ],
      "name": "SetUTokensContract",
      "type": "event"
    },
    {
      "anonymous": false,
      "inputs": [
        {
          "indexed": true,
          "internalType": "uint256",
          "name": "unstakeEpoch",
          "type": "uint256"
        },
        {
          "indexed": true,
          "internalType": "uint256",
          "name": "unstakeEpochPrevious",
          "type": "uint256"
        },
        {
          "indexed": true,
          "internalType": "uint256",
          "name": "epochInterval",
          "type": "uint256"
        }
      ],
      "name": "SetUnstakeEpoch",
      "type": "event"
    },
    {
      "anonymous": false,
      "inputs": [
        {
          "indexed": true,
          "internalType": "uint256",
          "name": "unstakingLockTime",
          "type": "uint256"
        }
      ],
      "name": "SetUnstakingLockTime",
      "type": "event"
    },
    {
      "anonymous": false,
      "inputs": [
        {
          "indexed": false,
          "internalType": "address",
          "name": "to",
          "type": "address"
        },
        {
          "indexed": false,
          "internalType": "uint256",
          "name": "stakingAmount",
          "type": "uint256"
        },
        {
          "indexed": false,
          "internalType": "uint256",
          "name": "amountStaked",
          "type": "uint256"
        },
        {
          "indexed": false,
          "internalType": "uint256",
          "name": "wrappingAmount",
          "type": "uint256"
        },
        {
          "indexed": false,
          "internalType": "uint256",
          "name": "amountWrapped",
          "type": "uint256"
        },
        {
          "indexed": false,
          "internalType": "uint256",
          "name": "timestamp",
          "type": "uint256"
        }
      ],
      "name": "StakeDirect",
      "type": "event"
    },
    {
      "anonymous": false,
      "inputs": [
        {
          "indexed": false,
          "internalType": "address[]",
          "name": "toAddressses",
          "type": "address[]"
        },
        {
          "indexed": false,
          "internalType": "uint256[]",
          "name": "stakingAmounts",
          "type": "uint256[]"
        },
        {
          "indexed": false,
          "internalType": "uint256[]",
          "name": "amountsStaked",
          "type": "uint256[]"
        },
        {
          "indexed": false,
          "internalType": "uint256[]",
          "name": "wrappingAmounts",
          "type": "uint256[]"
        },
        {
          "indexed": false,
          "internalType": "uint256[]",
          "name": "amountsWrapped",
          "type": "uint256[]"
        },
        {
          "indexed": false,
          "internalType": "uint256",
          "name": "timestamp",
          "type": "uint256"
        }
      ],
      "name": "StakeDirectInBatch",
      "type": "event"
    },
    {
      "anonymous": false,
      "inputs": [
        {
          "indexed": true,
          "internalType": "address",
          "name": "accountAddress",
          "type": "address"
        },
        {
          "indexed": true,
          "internalType": "uint256",
          "name": "tokens",
          "type": "uint256"
        },
        {
          "indexed": true,
          "internalType": "uint256",
          "name": "finalTokens",
          "type": "uint256"
        },
        {
          "indexed": false,
          "internalType": "uint256",
          "name": "timestamp",
          "type": "uint256"
        }
      ],
      "name": "StakeTokens",
      "type": "event"
    },
    {
      "anonymous": false,
      "inputs": [
        {
          "indexed": false,
          "internalType": "address",
          "name": "account",
          "type": "address"
        }
      ],
      "name": "Unpaused",
      "type": "event"
    },
    {
      "anonymous": false,
      "inputs": [
        {
          "indexed": true,
          "internalType": "address",
          "name": "accountAddress",
          "type": "address"
        },
        {
          "indexed": true,
          "internalType": "uint256",
          "name": "tokens",
          "type": "uint256"
        },
        {
          "indexed": true,
          "internalType": "uint256",
          "name": "finalTokens",
          "type": "uint256"
        },
        {
          "indexed": false,
          "internalType": "uint256",
          "name": "timestamp",
          "type": "uint256"
        }
      ],
      "name": "UnstakeTokens",
      "type": "event"
    },
    {
      "anonymous": false,
      "inputs": [
        {
          "indexed": true,
          "internalType": "address",
          "name": "accountAddress",
          "type": "address"
        },
        {
          "indexed": true,
          "internalType": "uint256",
          "name": "tokens",
          "type": "uint256"
        },
        {
          "indexed": false,
          "internalType": "uint256",
          "name": "timestamp",
          "type": "uint256"
        }
      ],
      "name": "WithdrawUnstakeTokens",
      "type": "event"
    },
    {
      "inputs": [],
      "name": "BRIDGE_ADMIN_ROLE",
      "outputs": [
        {
          "internalType": "bytes32",
          "name": "",
          "type": "bytes32"
        }
      ],
      "stateMutability": "view",
      "type": "function"
    },
    {
      "inputs": [],
      "name": "DEFAULT_ADMIN_ROLE",
      "outputs": [
        {
          "internalType": "bytes32",
          "name": "",
          "type": "bytes32"
        }
      ],
      "stateMutability": "view",
      "type": "function"
    },
    {
      "inputs": [],
      "name": "PAUSER_ROLE",
      "outputs": [
        {
          "internalType": "bytes32",
          "name": "",
          "type": "bytes32"
        }
      ],
      "stateMutability": "view",
      "type": "function"
    },
    {
      "inputs": [],
      "name": "_batchingLimit",
      "outputs": [
        {
          "internalType": "uint256",
          "name": "",
          "type": "uint256"
        }
      ],
      "stateMutability": "view",
      "type": "function"
    },
    {
      "inputs": [],
      "name": "_sTokens",
      "outputs": [
        {
          "internalType": "contract ISTokensV2",
          "name": "",
          "type": "address"
        }
      ],
      "stateMutability": "view",
      "type": "function"
    },
    {
      "inputs": [],
      "name": "_tokenWrapperContract",
      "outputs": [
        {
          "internalType": "address",
          "name": "",
          "type": "address"
        }
      ],
      "stateMutability": "view",
      "type": "function"
    },
    {
      "inputs": [],
      "name": "_uTokens",
      "outputs": [
        {
          "internalType": "contract IUTokensV2",
          "name": "",
          "type": "address"
        }
      ],
      "stateMutability": "view",
      "type": "function"
    },
    {
      "inputs": [
        {
          "internalType": "address",
          "name": "",
          "type": "address"
        },
        {
          "internalType": "uint256",
          "name": "",
          "type": "uint256"
        }
      ],
      "name": "_unstakingAmount",
      "outputs": [
        {
          "internalType": "uint256",
          "name": "",
          "type": "uint256"
        }
      ],
      "stateMutability": "view",
      "type": "function"
    },
    {
      "inputs": [
        {
          "internalType": "address",
          "name": "",
          "type": "address"
        },
        {
          "internalType": "uint256",
          "name": "",
          "type": "uint256"
        }
      ],
      "name": "_unstakingExpiration",
      "outputs": [
        {
          "internalType": "uint256",
          "name": "",
          "type": "uint256"
        }
      ],
      "stateMutability": "view",
      "type": "function"
    },
    {
      "inputs": [],
      "name": "_valueDivisor",
      "outputs": [
        {
          "internalType": "uint256",
          "name": "",
          "type": "uint256"
        }
      ],
      "stateMutability": "view",
      "type": "function"
    },
    {
      "inputs": [],
      "name": "_version",
      "outputs": [
        {
          "internalType": "uint256",
          "name": "",
          "type": "uint256"
        }
      ],
      "stateMutability": "view",
      "type": "function"
    },
    {
      "inputs": [
        {
          "internalType": "address",
          "name": "",
          "type": "address"
        }
      ],
      "name": "_withdrawCounters",
      "outputs": [
        {
          "internalType": "uint256",
          "name": "",
          "type": "uint256"
        }
      ],
      "stateMutability": "view",
      "type": "function"
    },
    {
      "inputs": [
        {
          "internalType": "bytes32",
          "name": "role",
          "type": "bytes32"
        }
      ],
      "name": "getRoleAdmin",
      "outputs": [
        {
          "internalType": "bytes32",
          "name": "",
          "type": "bytes32"
        }
      ],
      "stateMutability": "view",
      "type": "function"
    },
    {
      "inputs": [
        {
          "internalType": "bytes32",
          "name": "role",
          "type": "bytes32"
        },
        {
          "internalType": "uint256",
          "name": "index",
          "type": "uint256"
        }
      ],
      "name": "getRoleMember",
      "outputs": [
        {
          "internalType": "address",
          "name": "",
          "type": "address"
        }
      ],
      "stateMutability": "view",
      "type": "function"
    },
    {
      "inputs": [
        {
          "internalType": "bytes32",
          "name": "role",
          "type": "bytes32"
        }
      ],
      "name": "getRoleMemberCount",
      "outputs": [
        {
          "internalType": "uint256",
          "name": "",
          "type": "uint256"
        }
      ],
      "stateMutability": "view",
      "type": "function"
    },
    {
      "inputs": [
        {
          "internalType": "bytes32",
          "name": "role",
          "type": "bytes32"
        },
        {
          "internalType": "address",
          "name": "account",
          "type": "address"
        }
      ],
      "name": "grantRole",
      "outputs": [],
      "stateMutability": "nonpayable",
      "type": "function"
    },
    {
      "inputs": [
        {
          "internalType": "bytes32",
          "name": "role",
          "type": "bytes32"
        },
        {
          "internalType": "address",
          "name": "account",
          "type": "address"
        }
      ],
      "name": "hasRole",
      "outputs": [
        {
          "internalType": "bool",
          "name": "",
          "type": "bool"
        }
      ],
      "stateMutability": "view",
      "type": "function"
    },
    {
      "inputs": [],
      "name": "paused",
      "outputs": [
        {
          "internalType": "bool",
          "name": "",
          "type": "bool"
        }
      ],
      "stateMutability": "view",
      "type": "function"
    },
    {
      "inputs": [
        {
          "internalType": "bytes32",
          "name": "role",
          "type": "bytes32"
        },
        {
          "internalType": "address",
          "name": "account",
          "type": "address"
        }
      ],
      "name": "renounceRole",
      "outputs": [],
      "stateMutability": "nonpayable",
      "type": "function"
    },
    {
      "inputs": [
        {
          "internalType": "bytes32",
          "name": "role",
          "type": "bytes32"
        },
        {
          "internalType": "address",
          "name": "account",
          "type": "address"
        }
      ],
      "name": "revokeRole",
      "outputs": [],
      "stateMutability": "nonpayable",
      "type": "function"
    },
    {
      "inputs": [
        {
          "internalType": "address",
          "name": "uAddress",
          "type": "address"
        },
        {
          "internalType": "address",
          "name": "sAddress",
          "type": "address"
        },
        {
          "internalType": "address",
          "name": "pauserAddress",
          "type": "address"
        },
        {
          "internalType": "uint256",
          "name": "unstakingLockTime",
          "type": "uint256"
        },
        {
          "internalType": "uint256",
          "name": "epochInterval",
          "type": "uint256"
        },
        {
          "internalType": "uint256",
          "name": "valueDivisor",
          "type": "uint256"
        }
      ],
      "name": "initialize",
      "outputs": [],
      "stateMutability": "nonpayable",
      "type": "function"
    },
    {
      "inputs": [
        {
          "internalType": "uint256",
          "name": "stakeFee",
          "type": "uint256"
        },
        {
          "internalType": "uint256",
          "name": "unstakeFee",
          "type": "uint256"
        }
      ],
      "name": "setFees",
      "outputs": [
        {
          "internalType": "bool",
          "name": "success",
          "type": "bool"
        }
      ],
      "stateMutability": "nonpayable",
      "type": "function"
    },
    {
      "inputs": [
        {
          "internalType": "uint256",
          "name": "unstakingLockTime",
          "type": "uint256"
        }
      ],
      "name": "setUnstakingLockTime",
      "outputs": [
        {
          "internalType": "bool",
          "name": "success",
          "type": "bool"
        }
      ],
      "stateMutability": "nonpayable",
      "type": "function"
    },
    {
      "inputs": [],
      "name": "getTokens",
      "outputs": [
        {
          "internalType": "address",
          "name": "sTokenAddress",
          "type": "address"
        },
        {
          "internalType": "address",
          "name": "uTokenAddress",
          "type": "address"
        }
      ],
      "stateMutability": "view",
      "type": "function"
    },
    {
      "inputs": [],
      "name": "getStakeUnstakeProps",
      "outputs": [
        {
          "internalType": "uint256",
          "name": "stakeFee",
          "type": "uint256"
        },
        {
          "internalType": "uint256",
          "name": "unstakeFee",
          "type": "uint256"
        },
        {
          "internalType": "uint256",
          "name": "minStake",
          "type": "uint256"
        },
        {
          "internalType": "uint256",
          "name": "minUnstake",
          "type": "uint256"
        },
        {
          "internalType": "uint256",
          "name": "valueDivisor",
          "type": "uint256"
        },
        {
          "internalType": "uint256",
          "name": "epochInterval",
          "type": "uint256"
        },
        {
          "internalType": "uint256",
          "name": "unstakeEpoch",
          "type": "uint256"
        },
        {
          "internalType": "uint256",
          "name": "unstakeEpochPrevious",
          "type": "uint256"
        },
        {
          "internalType": "uint256",
          "name": "unstakingLockTime",
          "type": "uint256"
        }
      ],
      "stateMutability": "view",
      "type": "function"
    },
    {
      "inputs": [
        {
          "internalType": "uint256",
          "name": "minStake",
          "type": "uint256"
        },
        {
          "internalType": "uint256",
          "name": "minUnstake",
          "type": "uint256"
        }
      ],
      "name": "setMinimumValues",
      "outputs": [
        {
          "internalType": "bool",
          "name": "success",
          "type": "bool"
        }
      ],
      "stateMutability": "nonpayable",
      "type": "function"
    },
    {
      "inputs": [
        {
          "internalType": "uint256",
          "name": "unstakeEpoch",
          "type": "uint256"
        },
        {
          "internalType": "uint256",
          "name": "unstakeEpochPrevious",
          "type": "uint256"
        },
        {
          "internalType": "uint256",
          "name": "epochInterval",
          "type": "uint256"
        }
      ],
      "name": "setUnstakeEpoch",
      "outputs": [
        {
          "internalType": "bool",
          "name": "success",
          "type": "bool"
        }
      ],
      "stateMutability": "nonpayable",
      "type": "function"
    },
    {
      "inputs": [
        {
          "internalType": "address",
          "name": "uAddress",
          "type": "address"
        }
      ],
      "name": "setUTokensContract",
      "outputs": [],
      "stateMutability": "nonpayable",
      "type": "function"
    },
    {
      "inputs": [
        {
          "internalType": "address",
          "name": "sAddress",
          "type": "address"
        }
      ],
      "name": "setSTokensContract",
      "outputs": [],
      "stateMutability": "nonpayable",
      "type": "function"
    },
    {
      "inputs": [
        {
          "internalType": "address",
          "name": "tokenWrapperContract",
          "type": "address"
        }
      ],
      "name": "setTokenWrapperContract",
      "outputs": [],
      "stateMutability": "nonpayable",
      "type": "function"
    },
    {
      "inputs": [
        {
          "internalType": "address",
          "name": "to",
          "type": "address"
        },
        {
          "internalType": "uint256",
          "name": "stakingAmount",
          "type": "uint256"
        },
        {
          "internalType": "uint256",
          "name": "wrappingAmount",
          "type": "uint256"
        }
      ],
      "name": "stakeDirect",
      "outputs": [
        {
          "internalType": "uint256",
          "name": "amountStaked",
          "type": "uint256"
        },
        {
          "internalType": "uint256",
          "name": "amountWrapped",
          "type": "uint256"
        }
      ],
      "stateMutability": "nonpayable",
      "type": "function"
    },
    {
      "inputs": [
        {
          "internalType": "address[]",
          "name": "toAddressses",
          "type": "address[]"
        },
        {
          "internalType": "uint256[]",
          "name": "stakingAmounts",
          "type": "uint256[]"
        },
        {
          "internalType": "uint256[]",
          "name": "wrappingAmounts",
          "type": "uint256[]"
        }
      ],
      "name": "stakeDirectInBatch",
      "outputs": [
        {
          "internalType": "uint256[]",
          "name": "amountsStaked",
          "type": "uint256[]"
        },
        {
          "internalType": "uint256[]",
          "name": "amountsWrapped",
          "type": "uint256[]"
        }
      ],
      "stateMutability": "nonpayable",
      "type": "function"
    },
    {
      "inputs": [
        {
          "internalType": "address",
          "name": "to",
          "type": "address"
        },
        {
          "internalType": "uint256",
          "name": "amount",
          "type": "uint256"
        }
      ],
      "name": "stake",
      "outputs": [
        {
          "internalType": "uint256",
          "name": "amountStaked",
          "type": "uint256"
        }
      ],
      "stateMutability": "nonpayable",
      "type": "function"
    },
    {
      "inputs": [
        {
          "internalType": "address",
          "name": "to",
          "type": "address"
        },
        {
          "internalType": "uint256",
          "name": "amount",
          "type": "uint256"
        }
      ],
      "name": "unStake",
      "outputs": [
        {
          "internalType": "uint256",
          "name": "amountUnstaked",
          "type": "uint256"
        }
      ],
      "stateMutability": "nonpayable",
      "type": "function"
    },
    {
      "inputs": [
        {
          "internalType": "uint256",
          "name": "_unstakeTimestamp",
          "type": "uint256"
        }
      ],
      "name": "getUnstakeEpochMilestone",
      "outputs": [
        {
          "internalType": "uint256",
          "name": "unstakeEpochMilestone",
          "type": "uint256"
        }
      ],
      "stateMutability": "view",
      "type": "function"
    },
    {
      "inputs": [
        {
          "internalType": "uint256",
          "name": "_unstakeTimestamp",
          "type": "uint256"
        }
      ],
      "name": "getUnstakeTime",
      "outputs": [
        {
          "internalType": "uint256",
          "name": "unstakeTime",
          "type": "uint256"
        },
        {
          "internalType": "uint256",
          "name": "unstakeEpoch",
          "type": "uint256"
        },
        {
          "internalType": "uint256",
          "name": "unstakeEpochPrevious",
          "type": "uint256"
        }
      ],
      "stateMutability": "view",
      "type": "function"
    },
    {
      "inputs": [
        {
          "internalType": "address",
          "name": "staker",
          "type": "address"
        }
      ],
      "name": "withdrawUnstakedTokens",
      "outputs": [
        {
          "internalType": "uint256",
          "name": "withdrawBalance",
          "type": "uint256"
        }
      ],
      "stateMutability": "nonpayable",
      "type": "function"
    },
    {
      "inputs": [
        {
          "internalType": "address",
          "name": "staker",
          "type": "address"
        }
      ],
      "name": "getTotalUnbondedTokens",
      "outputs": [
        {
          "internalType": "uint256",
          "name": "unbondingTokens",
          "type": "uint256"
        }
      ],
      "stateMutability": "view",
      "type": "function"
    },
    {
      "inputs": [
        {
          "internalType": "address",
          "name": "staker",
          "type": "address"
        }
      ],
      "name": "getTotalUnbondingTokens",
      "outputs": [
        {
          "internalType": "uint256",
          "name": "unbondingTokens",
          "type": "uint256"
        }
      ],
      "stateMutability": "view",
      "type": "function"
    },
    {
      "inputs": [
        {
          "internalType": "uint256",
          "name": "batchingLimit",
          "type": "uint256"
        }
      ],
      "name": "setBatchingLimit",
      "outputs": [
        {
          "internalType": "bool",
          "name": "success",
          "type": "bool"
        }
      ],
      "stateMutability": "nonpayable",
      "type": "function"
    },
    {
      "inputs": [],
      "name": "getBatchingLimit",
      "outputs": [
        {
          "internalType": "uint256",
          "name": "batchingLimit",
          "type": "uint256"
        }
      ],
      "stateMutability": "view",
      "type": "function"
    },
    {
      "inputs": [],
      "name": "pause",
      "outputs": [
        {
          "internalType": "bool",
          "name": "success",
          "type": "bool"
        }
      ],
      "stateMutability": "nonpayable",
      "type": "function"
    },
    {
      "inputs": [],
      "name": "unpause",
      "outputs": [
        {
          "internalType": "bool",
          "name": "success",
          "type": "bool"
        }
      ],
      "stateMutability": "nonpayable",
      "type": "function"
    }
  ],
  "bytecode": "0x608060405234801561001057600080fd5b50613126806100206000396000f3fe608060405234801561001057600080fd5b50600436106102695760003560e01c80638456cb5911610151578063b3deb34f116100c3578063d79cf55a11610087578063d79cf55a146108c9578063d9393814146108d1578063e321fca6146108fd578063e63ab1e914610948578063f3e6f94e14610950578063f75f0cf61461097c57610269565b8063b3deb34f14610853578063bef1307c1461085b578063ca15c87314610878578063d061adab14610895578063d547741f1461089d57610269565b80639b9eea46116101155780639b9eea461461077c5780639dc77cab14610799578063a217fddf146107c2578063aa6ca808146107ca578063adc9772e14610801578063b17e31651461082d57610269565b80638456cb59146106c457806385e32840146106cc578063898a9664146107075780639010d07c1461072d57806391d148541461075057610269565b806331b188cc116101ea57806355f2323f116101ae57806355f2323f146105d35780635c975abb14610622578063728a99ee1461062a578063728cdbca1461063257806378a2f0741461067a578063819020a01461069e57610269565b806331b188cc1461054e57806336568abe146105745780633e118dbe146105a05780633f4ba83a146105a857806351db00e7146105b057610269565b806316027ed01161023157806316027ed0146104af57806321bdf9e5146104b7578063248a9ca3146104df5780632e31fab8146104fc5780632f2ff15d1461052257610269565b80630273b70d1461026e5780630b78f9c0146102a65780630e4b2943146102dd57806310ef62f6146102fa578063118c38c7146104a7575b600080fd5b6102946004803603602081101561028457600080fd5b50356001600160a01b03166109a8565b60408051918252519081900360200190f35b6102c9600480360360408110156102bc57600080fd5b5080359060200135610a7c565b604080519115158252519081900360200190f35b6102c9600480360360208110156102f357600080fd5b5035610b79565b61040e6004803603606081101561031057600080fd5b81019060208101813564010000000081111561032b57600080fd5b82018360208201111561033d57600080fd5b8035906020019184602083028401116401000000008311171561035f57600080fd5b91939092909160208101903564010000000081111561037d57600080fd5b82018360208201111561038f57600080fd5b803590602001918460208302840111640100000000831117156103b157600080fd5b9193909290916020810190356401000000008111156103cf57600080fd5b8201836020820111156103e157600080fd5b8035906020019184602083028401116401000000008311171561040357600080fd5b509092509050610bf6565b604051808060200180602001838103835285818151815260200191508051906020019060200280838360005b8381101561045257818101518382015260200161043a565b50505050905001838103825284818151815260200191508051906020019060200280838360005b83811015610491578181015183820152602001610479565b5050505090500194505050505060405180910390f35b610294610f3c565b610294610f60565b6104dd600480360360208110156104cd57600080fd5b50356001600160a01b0316610f66565b005b610294600480360360208110156104f557600080fd5b5035610ff7565b6104dd6004803603602081101561051257600080fd5b50356001600160a01b031661100c565b6104dd6004803603604081101561053857600080fd5b50803590602001356001600160a01b031661109d565b6104dd6004803603602081101561056457600080fd5b50356001600160a01b0316611104565b6104dd6004803603604081101561058a57600080fd5b50803590602001356001600160a01b0316611195565b6102946111f6565b6102c96111fc565b6102c9600480360360408110156105c657600080fd5b5080359060200135611260565b6105db61135d565b60408051998a5260208a0198909852888801969096526060880194909452608087019290925260a086015260c085015260e084015261010083015251908190036101200190f35b6102c961138b565b610294611394565b6104dd600480360360c081101561064857600080fd5b506001600160a01b03813581169160208101358216916040820135169060608101359060808101359060a0013561139a565b6106826114b5565b604080516001600160a01b039092168252519081900360200190f35b610294600480360360208110156106b457600080fd5b50356001600160a01b03166114c4565b6102c96117f5565b6106e9600480360360208110156106e257600080fd5b5035611853565b60408051938452602084019290925282820152519081900360600190f35b6102946004803603602081101561071d57600080fd5b50356001600160a01b031661189d565b6106826004803603604081101561074357600080fd5b50803590602001356118af565b6102c96004803603604081101561076657600080fd5b50803590602001356001600160a01b03166118ce565b6102946004803603602081101561079257600080fd5b50356118e6565b6102c9600480360360608110156107af57600080fd5b5080359060208101359060400135611994565b610294611aa1565b6107d2611aa6565b60405180836001600160a01b03168152602001826001600160a01b031681526020019250505060405180910390f35b6102946004803603604081101561081757600080fd5b506001600160a01b038135169060200135611abd565b6102946004803603602081101561084357600080fd5b50356001600160a01b0316611de3565b610294611e85565b6102c96004803603602081101561087157600080fd5b5035611e8b565b6102946004803603602081101561088e57600080fd5b5035611f16565b610682611f2d565b6104dd600480360360408110156108b357600080fd5b50803590602001356001600160a01b0316611f3c565b610682611f95565b610294600480360360408110156108e757600080fd5b506001600160a01b038135169060200135611fa4565b61092f6004803603606081101561091357600080fd5b506001600160a01b038135169060208101359060400135612287565b6040805192835260208301919091528051918290030190f35b610294612367565b6102946004803603604081101561096657600080fd5b506001600160a01b038135169060200135612379565b6102946004803603604081101561099257600080fd5b506001600160a01b0381351690602001356123aa565b6001600160a01b038116600090815260a2602090815260408083205460a4909252822054805b82811015610a73576001600160a01b038516600090815260a2602052604081208054610a0f9190849081106109ff57fe5b9060005260206000200154611853565b50509050804210610a60576001600160a01b038616600090815260a3602052604090208054610a5d919084908110610a4357fe5b9060005260206000200154866123c690919063ffffffff16565b94505b50610a6c8160016123c6565b90506109ce565b5050505b919050565b6000610a8f81610a8a612420565b6118ce565b610ac6576040805162461bcd60e51b81526020600482015260036024820152624c513160e81b604482015290519081900360640190fd5b609d54610ad4906064612424565b83111580610ae0575082155b8015610b015750609d54610af5906064612424565b82111580610b01575081155b610b38576040805162461bcd60e51b815260206004820152600360248201526226289960e91b604482015290519081900360640190fd5b609b839055609c829055604051829084907f3be6e637f54f081a2dd12982cfd58481304fc98b604b18fa8ed4aa4e4a9d153290600090a35060015b92915050565b6000610b8781610a8a612420565b610bbe576040805162461bcd60e51b81526020600482015260036024820152624c513360e81b604482015290519081900360640190fd5b609e82905560405182907ffced4450741ad45114dbc966176eb1d16dc4f2259bc864aa395736a7e8355bbb90600090a2506001919050565b606080610c257f751b795d24b92e3d92d1d0d8f2885f4e9c9c269da350af36ae6b49069babf4bf610a8a612420565b610c5f576040805162461bcd60e51b81526020600480830191909152602482015263098a264760e31b604482015290519081900360640190fd5b8685148015610c6d57508483145b610ca7576040805162461bcd60e51b815260206004808301919091526024820152634c51323960e01b604482015290519081900360640190fd5b60008080898067ffffffffffffffff81118015610cc357600080fd5b50604051908082528060200260200182016040528015610ced578160200160208202803683370190505b5095508067ffffffffffffffff81118015610d0757600080fd5b50604051908082528060200260200182016040528015610d31578160200160208202803683370190505b509450600091505b80821015610dcf57610d8b8c8c84818110610d5057fe5b905060200201356001600160a01b03168b8b85818110610d6c57fe5b905060200201358a8a86818110610d7f57fe5b9050602002013561247d565b809450819550505083868381518110610da057fe5b60200260200101818152505082858381518110610db957fe5b6020908102919091010152600190910190610d39565b7fae1ff5caf707784d6d12e6dd90a042ce2994fc6f3d32634ea155dd6e352ed6cc8c8c8c8c8a8d8d8c4260405180806020018060200180602001806020018060200187815260200186810386528f8f82818152602001925060200280828437600083820152601f01601f191690910187810386528d8152602090810191508e908e0280828437600081840152601f19601f82011690508083019250505086810384528b818151815260200191508051906020019060200280838360005b83811015610ea4578181015183820152602001610e8c565b5050505090500186810383528a8a828181526020019250602002808284376000838201819052601f909101601f191690920188810384528a5181528a51602091820193828d0193509102908190849084905b83811015610f0e578181015183820152602001610ef6565b505050509050019e50505050505050505050505050505060405180910390a150505050965096945050505050565b7f751b795d24b92e3d92d1d0d8f2885f4e9c9c269da350af36ae6b49069babf4bf81565b60a65481565b610f736000610a8a612420565b610fad576040805162461bcd60e51b8152602060048083019190915260248201526304c5131360e41b604482015290519081900360640190fd5b609780546001600160a01b0319166001600160a01b0383169081179091556040517ff745c285f36f88bea6af14d4d0f33dd9350cef7895216c1615b1caaee7857e0c90600090a250565b60009081526065602052604090206002015490565b6110196000610a8a612420565b611053576040805162461bcd60e51b815260206004808301919091526024820152634c51313160e01b604482015290519081900360640190fd5b609880546001600160a01b0319166001600160a01b0383169081179091556040517fd0b9dbe26f676f4cdb02fc249c203baa0314cec79e18b4194dc862795a5de03f90600090a250565b6000828152606560205260409020600201546110bb90610a8a612420565b6110f65760405162461bcd60e51b815260040180806020018281038252602f815260200180612ff4602f913960400191505060405180910390fd5b61110082826126c4565b5050565b6111116000610a8a612420565b61114b576040805162461bcd60e51b815260206004808301919091526024820152634c51323760e01b604482015290519081900360640190fd5b60a780546001600160a01b0319166001600160a01b0383169081179091556040517f2f9f272420570ea07d7da789fdc59a50c36792d6ea4f49a4d218b6f2431d049290600090a250565b61119d612420565b6001600160a01b0316816001600160a01b0316146111ec5760405162461bcd60e51b815260040180806020018281038252602f8152602001806130c2602f913960400191505060405180910390fd5b611100828261272d565b60a55481565b60006112186000805160206130a2833981519152610a8a612420565b611252576040805162461bcd60e51b815260206004808301919091526024820152634c51323360e01b604482015290519081900360640190fd5b61125a612796565b50600190565b600061126e81610a8a612420565b6112a5576040805162461bcd60e51b815260206004820152600360248201526213144d60ea1b604482015290519081900360640190fd5b60018310156112e1576040805162461bcd60e51b81526020600482015260036024820152624c513560e81b604482015290519081900360640190fd5b600182101561131d576040805162461bcd60e51b815260206004820152600360248201526226289b60e91b604482015290519081900360640190fd5b6099839055609a829055604051829084907fa94d40347449ea19b873d64ed55c99772194c49791e82be5c2dc24e4c0044fe390600090a350600192915050565b609b54609c54609954609a54609d54609f5460a05460a154609e549798969795969495939492939192909190565b60335460ff1690565b609d5481565b600054610100900460ff16806113b357506113b3612836565b806113c1575060005460ff16155b6113fc5760405162461bcd60e51b815260040180806020018281038252602e815260200180613053602e913960400191505060405180910390fd5b600054610100900460ff16158015611427576000805460ff1961ff0019909116610100171660011790555b61142f612847565b6114376128f9565b6114496000611444612420565b6110f6565b6114616000805160206130a2833981519152866110f6565b61146a87610f66565b6114738661100c565b61147c84610b79565b50611488600180611260565b50609d829055611499428085611994565b5080156114ac576000805461ff00191690555b50505050505050565b6097546001600160a01b031681565b60006114ce61138b565b15611513576040805162461bcd60e51b815260206004820152601060248201526f14185d5cd8589b194e881c185d5cd95960821b604482015290519081900360640190fd5b61151b612420565b6001600160a01b0316826001600160a01b031614611569576040805162461bcd60e51b8152602060048083019190915260248201526304c5132360e41b604482015290519081900360640190fd5b6001600160a01b038216600090815260a4602052604081205460a6549091829161159390836123c6565b6001600160a01b038616600090815260a26020526040902054116115cf576001600160a01b038516600090815260a260205260409020546115dc565b60a6546115dc90846123c6565b9050825b818110156116dc576001600160a01b038616600090815260a26020526040812080546116119190849081106109ff57fe5b505090508042106116c9576001600160a01b038716600090815260a360205260409020805461165f91908490811061164557fe5b9060005260206000200154876123c690919063ffffffff16565b6001600160a01b038816600090815260a2602052604090208054919750908390811061168757fe5b600091825260208083209091018290556001600160a01b038916825260a39052604090208054839081106116b757fe5b60009182526020822001556001909301925b506116d58160016123c6565b90506115e0565b506000841161171b576040805162461bcd60e51b815260206004808301919091526024820152634c51323160e01b604482015290519081900360640190fd5b60408051428152905185916001600160a01b038816917f31453b59c0eb931edc765cc2400876a524254457b5534d660c9da1d74ab4666b9181900360200190a36001600160a01b03808616600081815260a46020908152604080832087905560975481516340c10f1960e01b81526004810195909552602485018a905290519416936340c10f1993604480820194918390030190829087803b1580156117c057600080fd5b505af11580156117d4573d6000803e3d6000fd5b505050506040513d60208110156117ea57600080fd5b509395945050505050565b60006118116000805160206130a2833981519152610a8a612420565b61184b576040805162461bcd60e51b815260206004808301919091526024820152632628991960e11b604482015290519081900360640190fd5b61125a612996565b600080600080611862856118e6565b905080611873576000935050611896565b60a054925060a1549150611892609e54826123c690919063ffffffff16565b9350505b9193909250565b60a46020526000908152604090205481565b60008281526065602052604081206118c79083612a19565b9392505050565b60008281526065602052604081206118c79083612a25565b6000816118f557506000610a77565b60a054158015611905575060a154155b806119105750609f54155b1561191c575080610a77565b8160a054111561192f575060a054610a77565b600061195261194b60a15460a054612a3a90919063ffffffff16565b84906123c6565b9050600061196b60a05483612a3a90919063ffffffff16565b905061198c82611986609f5484612a9790919063ffffffff16565b906123c6565b949350505050565b60006119a281610a8a612420565b6119d9576040805162461bcd60e51b81526020600482015260036024820152624c513760e81b604482015290519081900360640190fd5b83831115611a14576040805162461bcd60e51b8152602060048201526003602482015262098a2760eb1b604482015290519081900360640190fd5b83158015611a2157508115155b15611a59576040805162461bcd60e51b81526020600482015260036024820152624c513960e81b604482015290519081900360640190fd5b60a084905560a1839055609f8290556040518290849086907f342db083975cc0697d0f81d0876299ecbf95d909e920426089062e540904497c90600090a45060019392505050565b600081565b6098546097546001600160a01b0391821692911690565b6000611ac761138b565b15611b0c576040805162461bcd60e51b815260206004820152601060248201526f14185d5cd8589b194e881c185d5cd95960821b604482015290519081900360640190fd5b611b14612420565b6001600160a01b0316836001600160a01b031614611b62576040805162461bcd60e51b815260206004808301919091526024820152632628989960e11b604482015290519081900360640190fd5b609954821015611ba2576040805162461bcd60e51b815260206004808301919091526024820152634c51313360e01b604482015290519081900360640190fd5b609754604080516370a0823160e01b81526001600160a01b038681166004830152915160009392909216916370a0823191602480820192602092909190829003018186803b158015611bf357600080fd5b505afa158015611c07573d6000803e3d6000fd5b505050506040513d6020811015611c1d57600080fd5b5051905082811015611c5f576040805162461bcd60e51b8152602060048083019190915260248201526313144c4d60e21b604482015290519081900360640190fd5b6000611c856064611c7f609b54609d5488612afe9092919063ffffffff16565b90612bb7565b9050611c918482612a3a565b92508383866001600160a01b03167f5fe79871cd2431c06447cbcf2557091da5d2ed5bc640f1028f42665913786e42426040518082815260200191505060405180910390a460975460408051632770a7eb60e21b81526001600160a01b0388811660048301526024820188905291519190921691639dc29fac9160448083019260209291908290030181600087803b158015611d2c57600080fd5b505af1158015611d40573d6000803e3d6000fd5b505050506040513d6020811015611d5657600080fd5b5050609854604080516340c10f1960e01b81526001600160a01b03888116600483015260248201879052915191909216916340c10f199160448083019260209291908290030181600087803b158015611dae57600080fd5b505af1158015611dc2573d6000803e3d6000fd5b505050506040513d6020811015611dd857600080fd5b509295945050505050565b6001600160a01b038116600090815260a2602090815260408083205460a4909252822054805b82811015610a73576001600160a01b038516600090815260a2602052604081208054611e3a9190849081106109ff57fe5b5050905080421015611e72576001600160a01b038616600090815260a3602052604090208054611e6f919084908110610a4357fe5b94505b50611e7e8160016123c6565b9050611e09565b60a65490565b6000611e9981610a8a612420565b611ed3576040805162461bcd60e51b8152602060048083019190915260248201526313144c8d60e21b604482015290519081900360640190fd5b60a682905560408051428152905183917f3e0887a905af0c5764f2c25c201fa1b9595065cb7008f54fe7734fefdd8e88dc919081900360200190a2506001919050565b6000818152606560205260408120610b7390612c1e565b60a7546001600160a01b031681565b600082815260656020526040902060020154611f5a90610a8a612420565b6111ec5760405162461bcd60e51b81526004018080602001828103825260308152602001806130236030913960400191505060405180910390fd5b6098546001600160a01b031681565b6000611fae61138b565b15611ff3576040805162461bcd60e51b815260206004820152601060248201526f14185d5cd8589b194e881c185d5cd95960821b604482015290519081900360640190fd5b611ffb612420565b6001600160a01b0316836001600160a01b031614612049576040805162461bcd60e51b815260206004808301919091526024820152634c51313560e01b604482015290519081900360640190fd5b609a54821015612089576040805162461bcd60e51b81526020600480830191909152602482015263098a262760e31b604482015290519081900360640190fd5b609854604080516370a0823160e01b81526001600160a01b038681166004830152915160009392909216916370a0823191602480820192602092909190829003018186803b1580156120da57600080fd5b505afa1580156120ee573d6000803e3d6000fd5b505050506040513d602081101561210457600080fd5b5051905082811015612146576040805162461bcd60e51b815260206004808301919091526024820152634c51313960e01b604482015290519081900360640190fd5b60006121666064611c7f609c54609d5488612afe9092919063ffffffff16565b90506121728482612a3a565b92508383866001600160a01b03167f98850af53deeaf736beb3ea22091c900e8e5cfdf8153342daa366dc1d83a39fd426040518082815260200191505060405180910390a460985460408051632770a7eb60e21b81526001600160a01b0388811660048301526024820188905291519190921691639dc29fac9160448083019260209291908290030181600087803b15801561220d57600080fd5b505af1158015612221573d6000803e3d6000fd5b505050506040513d602081101561223757600080fd5b5050506001600160a01b03909316600081815260a2602090815260408083208054600181810183559185528385204291015593835260a38252822080549384018155825290200181905592915050565b6000806122b67f751b795d24b92e3d92d1d0d8f2885f4e9c9c269da350af36ae6b49069babf4bf610a8a612420565b6122f0576040805162461bcd60e51b815260206004808301919091526024820152634c51323560e01b604482015290519081900360640190fd5b6122fb85858561247d565b604080516001600160a01b03891681526020810188905280820184905260608101879052608081018390524260a082015290519294509092507f7fd980aad29d3d6256218a13a2d1d8dac5cf5d7411c1c122e2503923952eddd5919081900360c00190a1935093915050565b6000805160206130a283398151915281565b60a2602052816000526040600020818154811061239557600080fd5b90600052602060002001600091509150505481565b60a3602052816000526040600020818154811061239557600080fd5b6000828201838110156118c7576040805162461bcd60e51b815260206004820152601b60248201527f536166654d6174683a206164646974696f6e206f766572666c6f770000000000604482015290519081900360640190fd5b3390565b60008261243357506000610b73565b8282028284828161244057fe5b04146118c75760405162461bcd60e51b81526004018080602001828103825260218152602001806130816021913960400191505060405180910390fd5b6000806001600160a01b038516158015906124a157508315801561249f575082155b155b6124db576040805162461bcd60e51b815260206004808301919091526024820152632628991b60e11b604482015290519081900360640190fd5b6000806000806124ff6064611c7f609b54609d548c612afe9092919063ffffffff16565b935061250b8885612a3a565b955060a760009054906101000a90046001600160a01b03166001600160a01b031663ec1893b46040518163ffffffff1660e01b815260040160a06040518083038186803b15801561255b57600080fd5b505afa15801561256f573d6000803e3d6000fd5b505050506040513d60a081101561258557600080fd5b50805160809091015190925090506125a36064611c7f898585612afe565b92506125af8784612a3a565b609754604080516340c10f1960e01b81526001600160a01b038d811660048301526024820185905291519398509116916340c10f19916044808201926020929091908290030181600087803b15801561260757600080fd5b505af115801561261b573d6000803e3d6000fd5b505050506040513d602081101561263157600080fd5b5050609854604080516340c10f1960e01b81526001600160a01b038c81166004830152602482018a9052915191909216916340c10f199160448083019260209291908290030181600087803b15801561268957600080fd5b505af115801561269d573d6000803e3d6000fd5b505050506040513d60208110156126b357600080fd5b509599949850939650505050505050565b60008281526065602052604090206126dc9082612c29565b15611100576126e9612420565b6001600160a01b0316816001600160a01b0316837f2f8788117e7eff1d82e926ec794901d17c78024a50270940304540a733656f0d60405160405180910390a45050565b60008281526065602052604090206127459082612c3e565b1561110057612752612420565b6001600160a01b0316816001600160a01b0316837ff6391f5c32d9c69d2a47ea670b442974b53935d1edc7fd64eb21e047a839171b60405160405180910390a45050565b61279e61138b565b6127e6576040805162461bcd60e51b815260206004820152601460248201527314185d5cd8589b194e881b9bdd081c185d5cd95960621b604482015290519081900360640190fd5b6033805460ff191690557f5db9ee0a495bf2e6ff9c91a7834c1ba4fdd244a5e8aa4e537bd38aeae4b073aa612819612420565b604080516001600160a01b039092168252519081900360200190a1565b600061284130612c53565b15905090565b600054610100900460ff16806128605750612860612836565b8061286e575060005460ff16155b6128a95760405162461bcd60e51b815260040180806020018281038252602e815260200180613053602e913960400191505060405180910390fd5b600054610100900460ff161580156128d4576000805460ff1961ff0019909116610100171660011790555b6128dc612c59565b6128e4612c59565b80156128f6576000805461ff00191690555b50565b600054610100900460ff16806129125750612912612836565b80612920575060005460ff16155b61295b5760405162461bcd60e51b815260040180806020018281038252602e815260200180613053602e913960400191505060405180910390fd5b600054610100900460ff16158015612986576000805460ff1961ff0019909116610100171660011790555b61298e612c59565b6128e4612cf9565b61299e61138b565b156129e3576040805162461bcd60e51b815260206004820152601060248201526f14185d5cd8589b194e881c185d5cd95960821b604482015290519081900360640190fd5b6033805460ff191660011790557f62e78cea01bee320cd4e420270b5ea74000d11b0c9f74754ebdbfc544b05a258612819612420565b60006118c78383612da4565b60006118c7836001600160a01b038416612e08565b600082821115612a91576040805162461bcd60e51b815260206004820152601e60248201527f536166654d6174683a207375627472616374696f6e206f766572666c6f770000604482015290519081900360640190fd5b50900390565b6000808211612aed576040805162461bcd60e51b815260206004820152601860248201527f536166654d6174683a206d6f64756c6f206279207a65726f0000000000000000604482015290519081900360640190fd5b818381612af657fe5b069392505050565b6000806000612b0d8686612e20565b9150915060008480612b1b57fe5b868809905082811115612b2f576001820391505b918290039181612b4d57848381612b4257fe5b0493505050506118c7565b848210612ba1576040805162461bcd60e51b815260206004820152601a60248201527f46756c6c4d6174683a2046554c4c4449565f4f564552464c4f57000000000000604482015290519081900360640190fd5b612bac838387612e4d565b979650505050505050565b6000808211612c0d576040805162461bcd60e51b815260206004820152601a60248201527f536166654d6174683a206469766973696f6e206279207a65726f000000000000604482015290519081900360640190fd5b818381612c1657fe5b049392505050565b6000610b7382612ebd565b60006118c7836001600160a01b038416612ec1565b60006118c7836001600160a01b038416612f0b565b3b151590565b600054610100900460ff1680612c725750612c72612836565b80612c80575060005460ff16155b612cbb5760405162461bcd60e51b815260040180806020018281038252602e815260200180613053602e913960400191505060405180910390fd5b600054610100900460ff161580156128e4576000805460ff1961ff00199091166101001716600117905580156128f6576000805461ff001916905550565b600054610100900460ff1680612d125750612d12612836565b80612d20575060005460ff16155b612d5b5760405162461bcd60e51b815260040180806020018281038252602e815260200180613053602e913960400191505060405180910390fd5b600054610100900460ff16158015612d86576000805460ff1961ff0019909116610100171660011790555b6033805460ff1916905580156128f6576000805461ff001916905550565b81546000908210612de65760405162461bcd60e51b8152600401808060200182810382526022815260200180612fd26022913960400191505060405180910390fd5b826000018281548110612df557fe5b9060005260206000200154905092915050565b60009081526001919091016020526040902054151590565b6000808060001984860990508385029250828103915082811015612e45576001820391505b509250929050565b60008181038216808381612e5d57fe5b049250808581612e6957fe5b049450808160000381612e7857fe5b60028581038087028203028087028203028087028203028087028203028087028203028087028203029586029003909402930460010193909302939093010292915050565b5490565b6000612ecd8383612e08565b612f0357508154600181810184556000848152602080822090930184905584548482528286019093526040902091909155610b73565b506000610b73565b60008181526001830160205260408120548015612fc75783546000198083019190810190600090879083908110612f3e57fe5b9060005260206000200154905080876000018481548110612f5b57fe5b600091825260208083209091019290925582815260018981019092526040902090840190558654879080612f8b57fe5b60019003818190600052602060002001600090559055866001016000878152602001908152602001600020600090556001945050505050610b73565b6000915050610b7356fe456e756d657261626c655365743a20696e646578206f7574206f6620626f756e6473416363657373436f6e74726f6c3a2073656e646572206d75737420626520616e2061646d696e20746f206772616e74416363657373436f6e74726f6c3a2073656e646572206d75737420626520616e2061646d696e20746f207265766f6b65496e697469616c697a61626c653a20636f6e747261637420697320616c726561647920696e697469616c697a6564536166654d6174683a206d756c7469706c69636174696f6e206f766572666c6f7765d7a28e3265b37a6474929f336521b332c1681b933f6cb9f3376673440d862a416363657373436f6e74726f6c3a2063616e206f6e6c792072656e6f756e636520726f6c657320666f722073656c66a264697066735822122053a5344fe70cd54bdfd4a399a204c313e0c9606faa093b89ff3f30c41538d20b64736f6c63430007060033",
  "immutableReferences": {},
  "source": "// SPDX-License-Identifier: UNLICENSED\npragma solidity >=0.7.0;\n\nimport \"@openzeppelin/contracts-upgradeable/math/SafeMathUpgradeable.sol\";\nimport \"@openzeppelin/contracts-upgradeable/access/AccessControlUpgradeable.sol\";\nimport \"@openzeppelin/contracts-upgradeable/utils/PausableUpgradeable.sol\";\nimport \"./interfaces/ISTokensV2.sol\";\nimport \"./interfaces/IUTokensV2.sol\";\nimport \"./interfaces/ILiquidStakingV3.sol\";\nimport \"./interfaces/ITokenWrapperV3.sol\";\nimport \"./libraries/FullMath.sol\";\n\ncontract LiquidStakingV3 is\nILiquidStakingV3,\nPausableUpgradeable,\nAccessControlUpgradeable\n{\n    using SafeMathUpgradeable for uint256;\n    using FullMath for uint256;\n\n    //Private instances of contracts to handle Utokens and Stokens\n    IUTokensV2 public _uTokens;\n    ISTokensV2 public _sTokens;\n\n    // defining the fees and minimum values\n    uint256 private _minStake;\n    uint256 private _minUnstake;\n    uint256 private _stakeFee;\n    uint256 private _unstakeFee;\n    uint256 public _valueDivisor;\n\n    // constants defining access control ROLES\n    bytes32 public constant PAUSER_ROLE = keccak256(\"PAUSER_ROLE\");\n\n    // variables pertaining to unbonding logic\n    uint256 private _unstakingLockTime;\n    uint256 private _epochInterval;\n    uint256 private _unstakeEpoch;\n    uint256 private _unstakeEpochPrevious;\n\n    //Mapping to handle the Expiry period\n    mapping(address => uint256[]) public _unstakingExpiration;\n\n    //Mapping to handle the Expiry amount\n    mapping(address => uint256[]) public _unstakingAmount;\n\n    //mappint to handle a counter variable indicating from what index to start the loop.\n    mapping(address => uint256) public _withdrawCounters;\n\n    // variable pertaining to contract upgrades versioning\n    uint256 public _version;\n\n    // variable to limit iterations in dynamic arrays\n    uint256 public _batchingLimit;\n\n    // TokenWrapper contract address\n    address public override _tokenWrapperContract;\n\n    // BRIDGE_ADMIN role constant (needs to be set)\n    bytes32 public constant BRIDGE_ADMIN_ROLE = keccak256(\"BRIDGE_ADMIN_ROLE\");\n\n    /**\n     * @dev Constructor for initializing the LiquidStaking contract.\n     * @param uAddress - address of the UToken contract.\n     * @param sAddress - address of the SToken contract.\n     * @param pauserAddress - address of the pauser admin.\n     * @param unstakingLockTime - varies from 21 hours to 21 days.\n     * @param epochInterval - varies from 3 hours to 3 days.\n     * @param valueDivisor - valueDivisor set to 10^9.\n     */\n    function initialize(\n    address uAddress,\n    address sAddress,\n    address pauserAddress,\n    uint256 unstakingLockTime,\n    uint256 epochInterval,\n    uint256 valueDivisor\n    ) public virtual initializer {\n    __AccessControl_init();\n    __Pausable_init();\n    _setupRole(DEFAULT_ADMIN_ROLE, _msgSender());\n    _setupRole(PAUSER_ROLE, pauserAddress);\n    setUTokensContract(uAddress);\n    setSTokensContract(sAddress);\n    setUnstakingLockTime(unstakingLockTime);\n    setMinimumValues(1, 1);\n    _valueDivisor = valueDivisor;\n    setUnstakeEpoch(block.timestamp, block.timestamp, epochInterval);\n    }\n\n    /**\n     * @dev Set 'fees', called from admin\n     * @param stakeFee: stake fee\n     * @param unstakeFee: unstake fee\n     *\n     * Emits a {SetFees} event with 'fee' set to the stake and unstake.\n     *\n     */\n    function setFees(uint256 stakeFee, uint256 unstakeFee)\n    public\n    virtual\n    override\n    returns (bool success)\n    {\n    require(hasRole(DEFAULT_ADMIN_ROLE, _msgSender()), \"LQ1\");\n    // range checks for fees. Since fee cannot be more than 100%, the max cap\n    // is _valueDivisor * 100, which then brings the fees to 100 (percentage)\n    require(\n    (stakeFee <= _valueDivisor.mul(100) || stakeFee == 0) &&\n    (unstakeFee <= _valueDivisor.mul(100) || unstakeFee == 0),\n    \"LQ2\"\n    );\n    _stakeFee = stakeFee;\n    _unstakeFee = unstakeFee;\n    emit SetFees(stakeFee, unstakeFee);\n    return true;\n    }\n\n    /**\n     * @dev Set 'unstake props', called from admin\n     * @param unstakingLockTime: varies from 21 hours to 21 days\n     *\n     * Emits a {SetUnstakeProps} event with 'fee' set to the stake and unstake.\n     *\n     */\n    function setUnstakingLockTime(uint256 unstakingLockTime)\n    public\n    virtual\n    override\n    returns (bool success)\n    {\n    require(hasRole(DEFAULT_ADMIN_ROLE, _msgSender()), \"LQ3\");\n    _unstakingLockTime = unstakingLockTime;\n    emit SetUnstakingLockTime(unstakingLockTime);\n    return true;\n    }\n\n    /**\n     * @dev get the SToken and UToken address\n     *\n     */\n    function getTokens()\n    public\n    view\n    virtual\n    override\n    returns (address sTokenAddress, address uTokenAddress)\n    {\n    sTokenAddress = address(_sTokens);\n    uTokenAddress = address(_uTokens);\n    }\n\n    /**\n     * @dev get fees, min values, value divisor and epoch props\n     *\n     */\n    function getStakeUnstakeProps()\n    public\n    view\n    virtual\n    override\n    returns (\n    uint256 stakeFee,\n    uint256 unstakeFee,\n    uint256 minStake,\n    uint256 minUnstake,\n    uint256 valueDivisor,\n    uint256 epochInterval,\n    uint256 unstakeEpoch,\n    uint256 unstakeEpochPrevious,\n    uint256 unstakingLockTime\n    )\n    {\n    stakeFee = _stakeFee;\n    unstakeFee = _unstakeFee;\n    minStake = _minStake;\n    minUnstake = _minUnstake;\n    valueDivisor = _valueDivisor;\n    epochInterval = _epochInterval;\n    unstakeEpoch = _unstakeEpoch;\n    unstakeEpochPrevious = _unstakeEpochPrevious;\n    unstakingLockTime = _unstakingLockTime;\n    }\n\n    /**\n     * @dev Set 'minimum values', called from admin\n     * @param minStake: stake minimum value\n     * @param minUnstake: unstake minimum value\n     *\n     * Emits a {SetMinimumValues} event with 'minimum value' set to the stake and unstake.\n     * check the anchor integration staking operation for rewards liquidation before you set _minStake\n     *\n     */\n    function setMinimumValues(uint256 minStake, uint256 minUnstake)\n    public\n    virtual\n    override\n    returns (bool success)\n    {\n    require(hasRole(DEFAULT_ADMIN_ROLE, _msgSender()), \"LQ4\");\n    require(minStake >= 1, \"LQ5\");\n    require(minUnstake >= 1, \"LQ6\");\n    // check the anchor integration staking operation for rewards liquidation before you set _minStake\n    _minStake = minStake;\n    _minUnstake = minUnstake;\n    emit SetMinimumValues(minStake, minUnstake);\n    return true;\n    }\n\n    /**\n     * @dev Set 'unstake epoch', called from admin\n     * @param unstakeEpoch: unstake epoch\n     * @param unstakeEpochPrevious: unstake epoch previous(initially set to same value as unstakeEpoch)\n     * @param epochInterval: varies from 3 hours to 3 days\n     *\n     * Emits a {SetUnstakeEpoch} event with 'unstakeEpoch'\n     *\n     */\n    function setUnstakeEpoch(\n    uint256 unstakeEpoch,\n    uint256 unstakeEpochPrevious,\n    uint256 epochInterval\n    ) public virtual override returns (bool success) {\n    require(hasRole(DEFAULT_ADMIN_ROLE, _msgSender()), \"LQ7\");\n    require(unstakeEpochPrevious <= unstakeEpoch, \"LQ8\");\n    // require((unstakeEpoch == 0 && unstakeEpochPrevious == 0 && epochInterval == 0) || (unstakeEpoch != 0 && unstakeEpochPrevious != 0 && epochInterval != 0), \"LQ9\");\n    if (unstakeEpoch == 0 && epochInterval != 0) revert(\"LQ9\");\n    _unstakeEpoch = unstakeEpoch;\n    _unstakeEpochPrevious = unstakeEpochPrevious;\n    _epochInterval = epochInterval;\n    emit SetUnstakeEpoch(unstakeEpoch, unstakeEpochPrevious, epochInterval);\n    return true;\n    }\n\n    /**\n     * @dev Set 'contract address', called from constructor\n     * @param uAddress: utoken contract address\n     *\n     * Emits a {SetUTokensContract} event with '_contract' set to the utoken contract address.\n     *\n     */\n    function setUTokensContract(address uAddress) public virtual override {\n    require(hasRole(DEFAULT_ADMIN_ROLE, _msgSender()), \"LQ10\");\n    _uTokens = IUTokensV2(uAddress);\n    emit SetUTokensContract(uAddress);\n    }\n\n    /**\n     * @dev Set 'contract address', called from constructor\n     * @param sAddress: stoken contract address\n     *\n     * Emits a {SetSTokensContract} event with '_contract' set to the stoken contract address.\n     *\n     */\n    function setSTokensContract(address sAddress) public virtual override {\n    require(hasRole(DEFAULT_ADMIN_ROLE, _msgSender()), \"LQ11\");\n    _sTokens = ISTokensV2(sAddress);\n    emit SetSTokensContract(sAddress);\n    }\n\n    /**\n     * @dev Set 'contract address', called from constructor\n     * @param tokenWrapperContract: stoken contract address\n     *\n     * Emits a {SetTokenWrapperContract} event with '_contract' set to the stoken contract address.\n     *\n     */\n    function setTokenWrapperContract(address tokenWrapperContract)\n    public\n    virtual\n    override\n    {\n    require(hasRole(DEFAULT_ADMIN_ROLE, _msgSender()), \"LQ27\");\n    _tokenWrapperContract = tokenWrapperContract;\n    emit SetTokenWrapperContract(tokenWrapperContract);\n    }\n\n    /**\n     * @dev Stake utokens over the platform with address 'to' for desired 'amount'(Burn uTokens and Mint sTokens)\n     * @param to: user address for staking, amount: number of tokens to stake\n     * @param stakingAmount: amount to be converted to stkToken\n     * @param wrappingAmount: amount to be converted to pToken\n     *\n     */\n    function _stakeDirect(\n    address to,\n    uint256 stakingAmount,\n    uint256 wrappingAmount\n    ) internal returns (uint256 amountStaked, uint256 amountWrapped) {\n    // require to addres to be non zero and stakingAmount & wrappingAmount to not be zero simultaneously\n    require(\n    to != address(0) && !(stakingAmount == 0 && wrappingAmount == 0),\n    \"LQ26\"\n    );\n    // factor the fee component and find the resultant STokens to be minted\n    uint256 stakeFeeAmount;\n    uint256 depositFeeAmount;\n    uint256 depositFee;\n    uint256 valueDivisor;\n\n    stakeFeeAmount = (stakingAmount.mulDiv(_stakeFee, _valueDivisor)).div(\n    100\n    );\n    amountStaked = stakingAmount.sub(stakeFeeAmount);\n\n    // get the deposit fee from the TokenWrapper contract\n    (depositFee, , , , valueDivisor) = ITokenWrapperV3(\n    _tokenWrapperContract\n    ).getProps();\n\n    // factor the fee component and find the resultant UTokens to be minted\n    depositFeeAmount = (wrappingAmount.mulDiv(depositFee, valueDivisor))\n    .div(100);\n    amountWrapped = wrappingAmount.sub(depositFeeAmount);\n\n    // perform the mint for the staked and the wrapped amounts\n    _uTokens.mint(to, amountWrapped);\n    _sTokens.mint(to, amountStaked);\n    }\n\n    /**\n     * @dev Stake utokens over the platform with address 'to' for desired 'amount'(Burn uTokens and Mint sTokens)\n     * @param to: user address for staking, amount: number of tokens to stake\n     * @param stakingAmount: amount to be converted to stkToken\n     * @param wrappingAmount: amount to be converted to pToken\n     *\n     */\n    function stakeDirect(\n    address to,\n    uint256 stakingAmount,\n    uint256 wrappingAmount\n    )\n    public\n    virtual\n    override\n    returns (uint256 amountStaked, uint256 amountWrapped)\n    {\n    // only bridge admin is allowed to execute this function\n    require(hasRole(BRIDGE_ADMIN_ROLE, _msgSender()), \"LQ25\");\n\n    (amountStaked, amountWrapped) = _stakeDirect(\n    to,\n    stakingAmount,\n    wrappingAmount\n    );\n\n    emit StakeDirect(\n    to,\n    stakingAmount,\n    amountStaked,\n    wrappingAmount,\n    amountWrapped,\n    block.timestamp\n    );\n    }\n\n    /**\n     * @dev Stake utokens over the platform with address 'to' for desired 'amount'(Burn uTokens and Mint sTokens)\n     * @param toAddressses: user addresses for staking, amount: number of tokens to stake\n     * @param stakingAmounts: amounts to be converted to stkToken\n     * @param wrappingAmounts: amounts to be converted to pToken\n     *\n     * Emits a {StakeDirectInBatch} event with 'to' set to address and 'amount' set to amount of tokens.\n     */\n    function stakeDirectInBatch(\n    address[] calldata toAddressses,\n    uint256[] calldata stakingAmounts,\n    uint256[] calldata wrappingAmounts\n    )\n    external\n    virtual\n    override\n    returns (\n    uint256[] memory amountsStaked,\n    uint256[] memory amountsWrapped\n    )\n    {\n    // only bridge admin is allowed to execute this function\n    require(hasRole(BRIDGE_ADMIN_ROLE, _msgSender()), \"LQ28\");\n\n    // require the array sizes to be equal\n    require(\n    toAddressses.length == stakingAmounts.length &&\n    stakingAmounts.length == wrappingAmounts.length,\n    \"LQ29\"\n    );\n\n    uint256 amountStaked;\n    uint256 amountWrapped;\n    uint256 index;\n    uint256 arrayLength = toAddressses.length;\n    amountsStaked = new uint256[](arrayLength);\n    amountsWrapped = new uint256[](arrayLength);\n\n    for (index = 0; index < arrayLength; index++) {\n    (amountStaked, amountWrapped) = _stakeDirect(\n    toAddressses[index],\n    stakingAmounts[index],\n    wrappingAmounts[index]\n    );\n    amountsStaked[index] = amountStaked;\n    amountsWrapped[index] = amountWrapped;\n    }\n\n    emit StakeDirectInBatch(\n    toAddressses,\n    stakingAmounts,\n    amountsStaked,\n    wrappingAmounts,\n    amountsWrapped,\n    block.timestamp\n    );\n    }\n\n    /**\n     * @dev Stake utokens over the platform with address 'to' for desired 'amount'(Burn uTokens and Mint sTokens)\n     * @param to: user address for staking, amount: number of tokens to stake\n     *\n     */\n    function stake(address to, uint256 amount)\n    public\n    virtual\n    override\n    whenNotPaused\n    returns (uint256 amountStaked)\n    {\n    // Check the supplied amount is greater than minimum stake value\n    require(to == _msgSender(), \"LQ12\");\n\n    // the value which should be greater than or equal to _minStake\n    // is amount since minval applies to number of sTokens to be minted\n    require(amount >= _minStake, \"LQ13\");\n\n    // Check the current balance for uTokens is greater than the amount to be staked\n    uint256 currentUTokenBalance = _uTokens.balanceOf(to);\n    require(currentUTokenBalance >= amount, \"LQ14\");\n\n    // calculate the amountStaked by deducting fee\n    uint256 stakeFeeAmount = (amount.mulDiv(_stakeFee, _valueDivisor)).div(\n    100\n    );\n    amountStaked = amount.sub(stakeFeeAmount);\n\n    // the event needs to capture both amountStaked and  amount\n    emit StakeTokens(to, amountStaked, amount, block.timestamp);\n\n    // Burn the uTokens as specified with the amount\n    _uTokens.burn(to, amount);\n\n    // Mint the sTokens for the account specified\n    _sTokens.mint(to, amountStaked);\n    }\n\n    /**\n     * @dev UnStake stokens over the platform with address 'to' for desired 'amount'\n     * @param to: user address for staking, amount: number of tokens to unstake\n     * @param amount: cumulative amount of STokens to be burned\n     *\n     */\n    function unStake(address to, uint256 amount)\n    public\n    virtual\n    override\n    whenNotPaused\n    returns (uint256 amountUnstaked)\n    {\n    // Check the supplied amount is greater than 0\n    require(to == _msgSender(), \"LQ15\");\n\n    // the value which should be greater than or equal to _minSUnstake\n    // is amount since minval applies to number of uTokens to be withdrawn\n    require(amount >= _minUnstake, \"LQ18\");\n\n    // require(_unstakeEpoch!=0 && _unstakeEpochPrevious!=0, \"LQ16\");\n    // Check the current balance for sTokens is greater than the amount to be unStaked\n    uint256 currentSTokenBalance = _sTokens.balanceOf(to);\n    require(currentSTokenBalance >= amount, \"LQ19\");\n\n    // calculate the amountUnstaked by deducting fee\n    uint256 unstakeFeeAmount = (amount.mulDiv(_unstakeFee, _valueDivisor))\n    .div(100);\n    amountUnstaked = amount.sub(unstakeFeeAmount);\n\n    // the event needs to capture both amountUnstaked and  amount\n    emit UnstakeTokens(to, amountUnstaked, amount, block.timestamp);\n\n    // Burn the sTokens as specified with the amount\n    _sTokens.burn(to, amount);\n    _unstakingExpiration[to].push(block.timestamp);\n    // array will hold amount and not amountUnstaked because that is the amount of\n    // uTokens pending to be credited after withdraw period\n    _unstakingAmount[to].push(amountUnstaked);\n    }\n\n    /**\n     * @dev returns the nearest epoch milestone in the future\n     */\n    function getUnstakeEpochMilestone(uint256 _unstakeTimestamp)\n    public\n    view\n    virtual\n    override\n    returns (uint256 unstakeEpochMilestone)\n    {\n    if (_unstakeTimestamp == 0) return 0;\n    // if epoch values are not relevant, then the epoch milestone is the unstake timestamp itself (backward compatibility)\n    if (\n    (_unstakeEpoch == 0 && _unstakeEpochPrevious == 0) ||\n    _epochInterval == 0\n    ) return _unstakeTimestamp;\n    if (_unstakeEpoch > _unstakeTimestamp) return (_unstakeEpoch);\n    uint256 _referenceStartTime = (_unstakeTimestamp).add(\n    _unstakeEpoch.sub(_unstakeEpochPrevious)\n    );\n    uint256 _timeDiff = _referenceStartTime.sub(_unstakeEpoch);\n    unstakeEpochMilestone = (_timeDiff.mod(_epochInterval)).add(\n    _referenceStartTime\n    );\n    return (unstakeEpochMilestone);\n    }\n\n    /**\n     * @dev returns the time left for unbonding to finish\n     */\n    function getUnstakeTime(uint256 _unstakeTimestamp)\n    public\n    view\n    virtual\n    override\n    returns (\n    uint256 unstakeTime,\n    uint256 unstakeEpoch,\n    uint256 unstakeEpochPrevious\n    )\n    {\n    uint256 _unstakeEpochMilestone = getUnstakeEpochMilestone(\n    _unstakeTimestamp\n    );\n    if (_unstakeEpochMilestone == 0)\n    return (0, unstakeEpoch, unstakeEpochPrevious);\n    unstakeEpoch = _unstakeEpoch;\n    unstakeEpochPrevious = _unstakeEpochPrevious;\n    //adding unstakingLockTime with epoch difference\n    unstakeTime = _unstakeEpochMilestone.add(_unstakingLockTime);\n    return (unstakeTime, unstakeEpoch, unstakeEpochPrevious);\n    }\n\n    /**\n     * @dev Lock the unstaked tokens for 21 days, user can withdraw the same (Mint uTokens with 21 days locking period)\n     *\n     * @param staker: user address for withdraw\n     *\n     */\n    function withdrawUnstakedTokens(address staker)\n    public\n    virtual\n    override\n    whenNotPaused\n    returns (uint256 withdrawBalance)\n    {\n    require(staker == _msgSender(), \"LQ20\");\n    uint256 counter = _withdrawCounters[staker];\n    uint256 counter2 = _withdrawCounters[staker];\n    uint256 unstakingExpirationLength = _unstakingExpiration[staker]\n    .length > _batchingLimit.add(counter)\n    ? _batchingLimit.add(counter)\n    : _unstakingExpiration[staker].length;\n\n    for (uint256 i = counter; i < unstakingExpirationLength; i = i.add(1)) {\n    //get getUnstakeTime and compare it with current timestamp to check if 21 days + epoch difference has passed\n    (uint256 _getUnstakeTime, , ) = getUnstakeTime(\n    _unstakingExpiration[staker][i]\n    );\n    if (block.timestamp >= _getUnstakeTime) {\n    //if 21 days + epoch difference has passed, then add the balance and then mint uTokens\n    withdrawBalance = withdrawBalance.add(\n    _unstakingAmount[staker][i]\n    );\n    delete _unstakingExpiration[staker][i];\n    delete _unstakingAmount[staker][i];\n    counter2++;\n    // _withdrawCounters[staker] = _withdrawCounters[staker].add(1);\n    }\n    }\n\n    // require withdrawBalance to be non zero\n    require(withdrawBalance > 0, \"LQ21\");\n\n    // emit an event\n    emit WithdrawUnstakeTokens(staker, withdrawBalance, block.timestamp);\n\n    // update _withdrawCounters[staker] only once outside for loop to save gas\n    _withdrawCounters[staker] = counter2;\n    _uTokens.mint(staker, withdrawBalance);\n    }\n\n    /**\n     * @dev get Total Unbonded Tokens\n     * @param staker: account address\n     *\n     */\n    function getTotalUnbondedTokens(address staker)\n    public\n    view\n    virtual\n    override\n    returns (uint256 unbondingTokens)\n    {\n    uint256 _unstakingExpirationLength = _unstakingExpiration[staker]\n    .length;\n    uint256 _counter = _withdrawCounters[staker];\n    for (\n    uint256 i = _counter;\n    i < _unstakingExpirationLength;\n    i = i.add(1)\n    ) {\n    //get getUnstakeTime and compare it with current timestamp to check if 21 days + epoch difference has passed\n    (uint256 _getUnstakeTime, , ) = getUnstakeTime(\n    _unstakingExpiration[staker][i]\n    );\n    if (block.timestamp >= _getUnstakeTime) {\n    //if 21 days + epoch difference has passed, then check the token amount and send back\n    unbondingTokens = unbondingTokens.add(\n    _unstakingAmount[staker][i]\n    );\n    }\n    }\n    return unbondingTokens;\n    }\n\n    /**\n     * @dev get Total Unbonding Tokens\n     * @param staker: account address\n     *\n     */\n    function getTotalUnbondingTokens(address staker)\n    public\n    view\n    virtual\n    override\n    returns (uint256 unbondingTokens)\n    {\n    uint256 _unstakingExpirationLength = _unstakingExpiration[staker]\n    .length;\n    uint256 _counter = _withdrawCounters[staker];\n    for (\n    uint256 i = _counter;\n    i < _unstakingExpirationLength;\n    i = i.add(1)\n    ) {\n    //get getUnstakeTime and compare it with current timestamp to check if 21 days + epoch difference has passed\n    (uint256 _getUnstakeTime, , ) = getUnstakeTime(\n    _unstakingExpiration[staker][i]\n    );\n    if (block.timestamp < _getUnstakeTime) {\n    //if 21 days + epoch difference have not passed, then check the token amount and send back\n    unbondingTokens = unbondingTokens.add(\n    _unstakingAmount[staker][i]\n    );\n    }\n    }\n    return unbondingTokens;\n    }\n\n    /**\n     * @dev Set 'batching limit', called from admin\n     * Emits a {SetBatchingLimit} event.\n     *\n     */\n    function setBatchingLimit(uint256 batchingLimit)\n    public\n    virtual\n    override\n    returns (bool success)\n    {\n    require(hasRole(DEFAULT_ADMIN_ROLE, _msgSender()), \"LQ24\");\n    _batchingLimit = batchingLimit;\n    emit SetBatchingLimit(batchingLimit, block.timestamp);\n    success = true;\n    return success;\n    }\n\n    /**\n     * @dev get batching limit\n     *\n     */\n    function getBatchingLimit()\n    public\n    view\n    virtual\n    override\n    returns (uint256 batchingLimit)\n    {\n    batchingLimit = _batchingLimit;\n    }\n\n    /**\n     * @dev Triggers stopped state.\n     *\n     */\n    function pause() public virtual override returns (bool success) {\n    require(hasRole(PAUSER_ROLE, _msgSender()), \"LQ22\");\n    _pause();\n    return true;\n    }\n\n    /**\n     * @dev Returns to normal state.\n     *\n     */\n    function unpause() public virtual override returns (bool success) {\n    require(hasRole(PAUSER_ROLE, _msgSender()), \"LQ23\");\n    _unpause();\n    return true;\n    }\n}",
  "sourcePath": "/home/aditimahesh/Documents/Work/Persistence/go/src/github.com/persistenceOne/pStake-smartContracts/contracts/LiquidStakingV3.sol",
  "compiler": {
    "name": "solc",
    "version": "0.7.6+commit.7338295f.Emscripten.clang"
  },
  "schemaVersion": "3.4.3",
  "updatedAt": "2021-11-30T07:16:26.109Z",
  "devdoc": {
    "kind": "dev",
    "methods": {
      "getBatchingLimit()": {
        "details": "get batching limit"
      },
      "getRoleAdmin(bytes32)": {
        "details": "Returns the admin role that controls `role`. See {grantRole} and {revokeRole}. To change a role's admin, use {_setRoleAdmin}."
      },
      "getRoleMember(bytes32,uint256)": {
        "details": "Returns one of the accounts that have `role`. `index` must be a value between 0 and {getRoleMemberCount}, non-inclusive. Role bearers are not sorted in any particular way, and their ordering may change at any point. WARNING: When using {getRoleMember} and {getRoleMemberCount}, make sure you perform all queries on the same block. See the following https://forum.openzeppelin.com/t/iterating-over-elements-on-enumerableset-in-openzeppelin-contracts/2296[forum post] for more information."
      },
      "getRoleMemberCount(bytes32)": {
        "details": "Returns the number of accounts that have `role`. Can be used together with {getRoleMember} to enumerate all bearers of a role."
      },
      "getStakeUnstakeProps()": {
        "details": "get fees, min values, value divisor and epoch props"
      },
      "getTokens()": {
        "details": "get the SToken and UToken address"
      },
      "getTotalUnbondedTokens(address)": {
        "details": "get Total Unbonded Tokens",
        "params": {
          "staker": ": account address"
        }
      },
      "getTotalUnbondingTokens(address)": {
        "details": "get Total Unbonding Tokens",
        "params": {
          "staker": ": account address"
        }
      },
      "getUnstakeEpochMilestone(uint256)": {
        "details": "returns the nearest epoch milestone in the future"
      },
      "getUnstakeTime(uint256)": {
        "details": "returns the time left for unbonding to finish"
      },
      "grantRole(bytes32,address)": {
        "details": "Grants `role` to `account`. If `account` had not been already granted `role`, emits a {RoleGranted} event. Requirements: - the caller must have ``role``'s admin role."
      },
      "hasRole(bytes32,address)": {
        "details": "Returns `true` if `account` has been granted `role`."
      },
      "initialize(address,address,address,uint256,uint256,uint256)": {
        "details": "Constructor for initializing the LiquidStaking contract.",
        "params": {
          "epochInterval": "- varies from 3 hours to 3 days.",
          "pauserAddress": "- address of the pauser admin.",
          "sAddress": "- address of the SToken contract.",
          "uAddress": "- address of the UToken contract.",
          "unstakingLockTime": "- varies from 21 hours to 21 days.",
          "valueDivisor": "- valueDivisor set to 10^9."
        }
      },
      "pause()": {
        "details": "Triggers stopped state."
      },
      "paused()": {
        "details": "Returns true if the contract is paused, and false otherwise."
      },
      "renounceRole(bytes32,address)": {
        "details": "Revokes `role` from the calling account. Roles are often managed via {grantRole} and {revokeRole}: this function's purpose is to provide a mechanism for accounts to lose their privileges if they are compromised (such as when a trusted device is misplaced). If the calling account had been granted `role`, emits a {RoleRevoked} event. Requirements: - the caller must be `account`."
      },
      "revokeRole(bytes32,address)": {
        "details": "Revokes `role` from `account`. If `account` had been granted `role`, emits a {RoleRevoked} event. Requirements: - the caller must have ``role``'s admin role."
      },
      "setBatchingLimit(uint256)": {
        "details": "Set 'batching limit', called from admin Emits a {SetBatchingLimit} event."
      },
      "setFees(uint256,uint256)": {
        "details": "Set 'fees', called from admin",
        "params": {
          "stakeFee": ": stake fee",
          "unstakeFee": ": unstake fee Emits a {SetFees} event with 'fee' set to the stake and unstake."
        }
      },
      "setMinimumValues(uint256,uint256)": {
        "details": "Set 'minimum values', called from admin",
        "params": {
          "minStake": ": stake minimum value",
          "minUnstake": ": unstake minimum value Emits a {SetMinimumValues} event with 'minimum value' set to the stake and unstake. check the anchor integration staking operation for rewards liquidation before you set _minStake"
        }
      },
      "setSTokensContract(address)": {
        "details": "Set 'contract address', called from constructor",
        "params": {
          "sAddress": ": stoken contract address Emits a {SetSTokensContract} event with '_contract' set to the stoken contract address."
        }
      },
      "setTokenWrapperContract(address)": {
        "details": "Set 'contract address', called from constructor",
        "params": {
          "tokenWrapperContract": ": stoken contract address Emits a {SetTokenWrapperContract} event with '_contract' set to the stoken contract address."
        }
      },
      "setUTokensContract(address)": {
        "details": "Set 'contract address', called from constructor",
        "params": {
          "uAddress": ": utoken contract address Emits a {SetUTokensContract} event with '_contract' set to the utoken contract address."
        }
      },
      "setUnstakeEpoch(uint256,uint256,uint256)": {
        "details": "Set 'unstake epoch', called from admin",
        "params": {
          "epochInterval": ": varies from 3 hours to 3 days Emits a {SetUnstakeEpoch} event with 'unstakeEpoch'",
          "unstakeEpoch": ": unstake epoch",
          "unstakeEpochPrevious": ": unstake epoch previous(initially set to same value as unstakeEpoch)"
        }
      },
      "setUnstakingLockTime(uint256)": {
        "details": "Set 'unstake props', called from admin",
        "params": {
          "unstakingLockTime": ": varies from 21 hours to 21 days Emits a {SetUnstakeProps} event with 'fee' set to the stake and unstake."
        }
      },
      "stake(address,uint256)": {
        "details": "Stake utokens over the platform with address 'to' for desired 'amount'(Burn uTokens and Mint sTokens)",
        "params": {
          "to": ": user address for staking, amount: number of tokens to stake"
        }
      },
      "stakeDirect(address,uint256,uint256)": {
        "details": "Stake utokens over the platform with address 'to' for desired 'amount'(Burn uTokens and Mint sTokens)",
        "params": {
          "stakingAmount": ": amount to be converted to stkToken",
          "to": ": user address for staking, amount: number of tokens to stake",
          "wrappingAmount": ": amount to be converted to pToken"
        }
      },
      "stakeDirectInBatch(address[],uint256[],uint256[])": {
        "details": "Stake utokens over the platform with address 'to' for desired 'amount'(Burn uTokens and Mint sTokens)",
        "params": {
          "stakingAmounts": ": amounts to be converted to stkToken",
          "toAddressses": ": user addresses for staking, amount: number of tokens to stake",
          "wrappingAmounts": ": amounts to be converted to pToken Emits a {StakeDirectInBatch} event with 'to' set to address and 'amount' set to amount of tokens."
        }
      },
      "unStake(address,uint256)": {
        "details": "UnStake stokens over the platform with address 'to' for desired 'amount'",
        "params": {
          "amount": ": cumulative amount of STokens to be burned",
          "to": ": user address for staking, amount: number of tokens to unstake"
        }
      },
      "unpause()": {
        "details": "Returns to normal state."
      },
      "withdrawUnstakedTokens(address)": {
        "details": "Lock the unstaked tokens for 21 days, user can withdraw the same (Mint uTokens with 21 days locking period)",
        "params": {
          "staker": ": user address for withdraw"
        }
      }
    },
    "version": 1
  },
  "userdoc": {
    "kind": "user",
    "methods": {},
    "version": 1
  }
}