{
  "contractName": "LiquidStaking",
  "abi": [
    {
      "anonymous": false,
      "inputs": [
        {
          "indexed": false,
          "internalType": "address",
          "name": "account",
          "type": "address"
        }
      ],
      "name": "Paused",
      "type": "event"
    },
    {
      "anonymous": false,
      "inputs": [
        {
          "indexed": true,
          "internalType": "bytes32",
          "name": "role",
          "type": "bytes32"
        },
        {
          "indexed": true,
          "internalType": "bytes32",
          "name": "previousAdminRole",
          "type": "bytes32"
        },
        {
          "indexed": true,
          "internalType": "bytes32",
          "name": "newAdminRole",
          "type": "bytes32"
        }
      ],
      "name": "RoleAdminChanged",
      "type": "event"
    },
    {
      "anonymous": false,
      "inputs": [
        {
          "indexed": true,
          "internalType": "bytes32",
          "name": "role",
          "type": "bytes32"
        },
        {
          "indexed": true,
          "internalType": "address",
          "name": "account",
          "type": "address"
        },
        {
          "indexed": true,
          "internalType": "address",
          "name": "sender",
          "type": "address"
        }
      ],
      "name": "RoleGranted",
      "type": "event"
    },
    {
      "anonymous": false,
      "inputs": [
        {
          "indexed": true,
          "internalType": "bytes32",
          "name": "role",
          "type": "bytes32"
        },
        {
          "indexed": true,
          "internalType": "address",
          "name": "account",
          "type": "address"
        },
        {
          "indexed": true,
          "internalType": "address",
          "name": "sender",
          "type": "address"
        }
      ],
      "name": "RoleRevoked",
      "type": "event"
    },
    {
      "anonymous": false,
      "inputs": [
        {
          "indexed": false,
          "internalType": "uint256",
          "name": "stakeFee",
          "type": "uint256"
        },
        {
          "indexed": false,
          "internalType": "uint256",
          "name": "unstakeFee",
          "type": "uint256"
        }
      ],
      "name": "SetFees",
      "type": "event"
    },
    {
      "anonymous": false,
      "inputs": [
        {
          "indexed": false,
          "internalType": "uint256",
          "name": "minStake",
          "type": "uint256"
        },
        {
          "indexed": false,
          "internalType": "uint256",
          "name": "minUnstake",
          "type": "uint256"
        }
      ],
      "name": "SetMinimumValues",
      "type": "event"
    },
    {
      "anonymous": false,
      "inputs": [
        {
          "indexed": true,
          "internalType": "address",
          "name": "_contract",
          "type": "address"
        }
      ],
      "name": "SetSTokensContract",
      "type": "event"
    },
    {
      "anonymous": false,
      "inputs": [
        {
          "indexed": true,
          "internalType": "address",
          "name": "_contract",
          "type": "address"
        }
      ],
      "name": "SetUTokensContract",
      "type": "event"
    },
    {
      "anonymous": false,
      "inputs": [
        {
          "indexed": true,
          "internalType": "address",
          "name": "_contract",
          "type": "address"
        }
      ],
      "name": "SetWrapperContract",
      "type": "event"
    },
    {
      "anonymous": false,
      "inputs": [
        {
          "indexed": true,
          "internalType": "address",
          "name": "accountAddress",
          "type": "address"
        },
        {
          "indexed": false,
          "internalType": "uint256",
          "name": "tokens",
          "type": "uint256"
        },
        {
          "indexed": false,
          "internalType": "uint256",
          "name": "timestamp",
          "type": "uint256"
        }
      ],
      "name": "StakeTokens",
      "type": "event"
    },
    {
      "anonymous": false,
      "inputs": [
        {
          "indexed": false,
          "internalType": "address",
          "name": "account",
          "type": "address"
        }
      ],
      "name": "Unpaused",
      "type": "event"
    },
    {
      "anonymous": false,
      "inputs": [
        {
          "indexed": true,
          "internalType": "address",
          "name": "accountAddress",
          "type": "address"
        },
        {
          "indexed": false,
          "internalType": "uint256",
          "name": "tokens",
          "type": "uint256"
        },
        {
          "indexed": false,
          "internalType": "uint256",
          "name": "timestamp",
          "type": "uint256"
        }
      ],
      "name": "UnstakeTokens",
      "type": "event"
    },
    {
      "anonymous": false,
      "inputs": [
        {
          "indexed": true,
          "internalType": "address",
          "name": "accountAddress",
          "type": "address"
        },
        {
          "indexed": false,
          "internalType": "uint256",
          "name": "tokens",
          "type": "uint256"
        },
        {
          "indexed": false,
          "internalType": "uint256",
          "name": "timestamp",
          "type": "uint256"
        }
      ],
      "name": "WithdrawUnstakeTokens",
      "type": "event"
    },
    {
      "inputs": [],
      "name": "DEFAULT_ADMIN_ROLE",
      "outputs": [
        {
          "internalType": "bytes32",
          "name": "",
          "type": "bytes32"
        }
      ],
      "stateMutability": "view",
      "type": "function",
      "constant": true
    },
    {
      "inputs": [],
      "name": "PAUSER_ROLE",
      "outputs": [
        {
          "internalType": "bytes32",
          "name": "",
          "type": "bytes32"
        }
      ],
      "stateMutability": "view",
      "type": "function",
      "constant": true
    },
    {
      "inputs": [
        {
          "internalType": "bytes32",
          "name": "role",
          "type": "bytes32"
        }
      ],
      "name": "getRoleAdmin",
      "outputs": [
        {
          "internalType": "bytes32",
          "name": "",
          "type": "bytes32"
        }
      ],
      "stateMutability": "view",
      "type": "function",
      "constant": true
    },
    {
      "inputs": [
        {
          "internalType": "bytes32",
          "name": "role",
          "type": "bytes32"
        },
        {
          "internalType": "uint256",
          "name": "index",
          "type": "uint256"
        }
      ],
      "name": "getRoleMember",
      "outputs": [
        {
          "internalType": "address",
          "name": "",
          "type": "address"
        }
      ],
      "stateMutability": "view",
      "type": "function",
      "constant": true
    },
    {
      "inputs": [
        {
          "internalType": "bytes32",
          "name": "role",
          "type": "bytes32"
        }
      ],
      "name": "getRoleMemberCount",
      "outputs": [
        {
          "internalType": "uint256",
          "name": "",
          "type": "uint256"
        }
      ],
      "stateMutability": "view",
      "type": "function",
      "constant": true
    },
    {
      "inputs": [
        {
          "internalType": "bytes32",
          "name": "role",
          "type": "bytes32"
        },
        {
          "internalType": "address",
          "name": "account",
          "type": "address"
        }
      ],
      "name": "grantRole",
      "outputs": [],
      "stateMutability": "nonpayable",
      "type": "function"
    },
    {
      "inputs": [
        {
          "internalType": "bytes32",
          "name": "role",
          "type": "bytes32"
        },
        {
          "internalType": "address",
          "name": "account",
          "type": "address"
        }
      ],
      "name": "hasRole",
      "outputs": [
        {
          "internalType": "bool",
          "name": "",
          "type": "bool"
        }
      ],
      "stateMutability": "view",
      "type": "function",
      "constant": true
    },
    {
      "inputs": [],
      "name": "paused",
      "outputs": [
        {
          "internalType": "bool",
          "name": "",
          "type": "bool"
        }
      ],
      "stateMutability": "view",
      "type": "function",
      "constant": true
    },
    {
      "inputs": [
        {
          "internalType": "bytes32",
          "name": "role",
          "type": "bytes32"
        },
        {
          "internalType": "address",
          "name": "account",
          "type": "address"
        }
      ],
      "name": "renounceRole",
      "outputs": [],
      "stateMutability": "nonpayable",
      "type": "function"
    },
    {
      "inputs": [
        {
          "internalType": "bytes32",
          "name": "role",
          "type": "bytes32"
        },
        {
          "internalType": "address",
          "name": "account",
          "type": "address"
        }
      ],
      "name": "revokeRole",
      "outputs": [],
      "stateMutability": "nonpayable",
      "type": "function"
    },
    {
      "inputs": [
        {
          "internalType": "address",
          "name": "uAddress",
          "type": "address"
        },
        {
          "internalType": "address",
          "name": "sAddress",
          "type": "address"
        },
        {
          "internalType": "address",
          "name": "wrapperAddress",
          "type": "address"
        },
        {
          "internalType": "address",
          "name": "pauserAddress",
          "type": "address"
        },
        {
          "internalType": "uint256",
          "name": "feeDivisor",
          "type": "uint256"
        }
      ],
      "name": "initialize",
      "outputs": [],
      "stateMutability": "nonpayable",
      "type": "function"
    },
    {
      "inputs": [
        {
          "internalType": "uint256",
          "name": "stakeFee",
          "type": "uint256"
        },
        {
          "internalType": "uint256",
          "name": "unstakeFee",
          "type": "uint256"
        }
      ],
      "name": "setFees",
      "outputs": [],
      "stateMutability": "nonpayable",
      "type": "function"
    },
    {
      "inputs": [],
      "name": "getFees",
      "outputs": [
        {
          "internalType": "uint256",
          "name": "stakeFee",
          "type": "uint256"
        },
        {
          "internalType": "uint256",
          "name": "unstakeFee",
          "type": "uint256"
        }
      ],
      "stateMutability": "view",
      "type": "function",
      "constant": true
    },
    {
      "inputs": [
        {
          "internalType": "uint256",
          "name": "minStake",
          "type": "uint256"
        },
        {
          "internalType": "uint256",
          "name": "minUnstake",
          "type": "uint256"
        }
      ],
      "name": "setMinimumValues",
      "outputs": [],
      "stateMutability": "nonpayable",
      "type": "function"
    },
    {
      "inputs": [],
      "name": "getMinimumValues",
      "outputs": [
        {
          "internalType": "uint256",
          "name": "minStake",
          "type": "uint256"
        },
        {
          "internalType": "uint256",
          "name": "minUnstake",
          "type": "uint256"
        }
      ],
      "stateMutability": "view",
      "type": "function",
      "constant": true
    },
    {
      "inputs": [
        {
          "internalType": "address",
          "name": "uAddress",
          "type": "address"
        }
      ],
      "name": "setUTokensContract",
      "outputs": [],
      "stateMutability": "nonpayable",
      "type": "function"
    },
    {
      "inputs": [
        {
          "internalType": "address",
          "name": "sAddress",
          "type": "address"
        }
      ],
      "name": "setSTokensContract",
      "outputs": [],
      "stateMutability": "nonpayable",
      "type": "function"
    },
    {
      "inputs": [
        {
          "internalType": "address",
          "name": "wrapperAddress",
          "type": "address"
        }
      ],
      "name": "setWrapperContract",
      "outputs": [],
      "stateMutability": "nonpayable",
      "type": "function"
    },
    {
      "inputs": [
        {
          "internalType": "address",
          "name": "to",
          "type": "address"
        },
        {
          "internalType": "uint256",
          "name": "utok",
          "type": "uint256"
        }
      ],
      "name": "stake",
      "outputs": [
        {
          "internalType": "bool",
          "name": "",
          "type": "bool"
        }
      ],
      "stateMutability": "nonpayable",
      "type": "function"
    },
    {
      "inputs": [
        {
          "internalType": "address",
          "name": "to",
          "type": "address"
        },
        {
          "internalType": "uint256",
          "name": "stok",
          "type": "uint256"
        }
      ],
      "name": "unStake",
      "outputs": [
        {
          "internalType": "bool",
          "name": "",
          "type": "bool"
        }
      ],
      "stateMutability": "nonpayable",
      "type": "function"
    },
    {
      "inputs": [],
      "name": "getUnstakeEpochTime",
      "outputs": [
        {
          "internalType": "uint256",
          "name": "unstakeEpochTime_",
          "type": "uint256"
        }
      ],
      "stateMutability": "view",
      "type": "function",
      "constant": true
    },
    {
      "inputs": [
        {
          "internalType": "address",
          "name": "staker",
          "type": "address"
        }
      ],
      "name": "withdrawUnstakedTokens",
      "outputs": [],
      "stateMutability": "nonpayable",
      "type": "function"
    },
    {
      "inputs": [
        {
          "internalType": "address",
          "name": "staker",
          "type": "address"
        }
      ],
      "name": "getTotalUnbondedTokens",
      "outputs": [
        {
          "internalType": "uint256",
          "name": "unbondingTokens",
          "type": "uint256"
        }
      ],
      "stateMutability": "view",
      "type": "function",
      "constant": true
    },
    {
      "inputs": [],
      "name": "pause",
      "outputs": [
        {
          "internalType": "bool",
          "name": "success",
          "type": "bool"
        }
      ],
      "stateMutability": "nonpayable",
      "type": "function"
    },
    {
      "inputs": [],
      "name": "unpause",
      "outputs": [
        {
          "internalType": "bool",
          "name": "success",
          "type": "bool"
        }
      ],
      "stateMutability": "nonpayable",
      "type": "function"
    }
  ],
  "bytecode": "0x608060405234801561001057600080fd5b50612234806100206000396000f3fe608060405234801561001057600080fd5b50600436106101735760003560e01c80638456cb59116100de578063b34ccebc11610097578063d939381411610071578063d939381414610442578063db8d55f11461046e578063e63ab1e914610476578063f7013ef61461047e57610173565b8063b34ccebc146103d8578063ca15c873146103f9578063d547741f1461041657610173565b80638456cb59146103295780639010d07c1461033157806391d1485414610370578063a11bb00b1461039c578063a217fddf146103a4578063adc9772e146103ac57610173565b806336568abe1161013057806336568abe1461026a5780633f4ba83a146102965780634e558127146102b257806351db00e7146102d85780635c975abb146102fb578063819020a01461030357610173565b80630273b70d146101785780630b78f9c0146101b057806321bdf9e5146101d5578063248a9ca3146101fb5780632e31fab8146102185780632f2ff15d1461023e575b600080fd5b61019e6004803603602081101561018e57600080fd5b50356001600160a01b03166104c4565b60408051918252519081900360200190f35b6101d3600480360360408110156101c657600080fd5b508035906020013561059f565b005b6101d3600480360360208110156101eb57600080fd5b50356001600160a01b0316610635565b61019e6004803603602081101561021157600080fd5b50356106c7565b6101d36004803603602081101561022e57600080fd5b50356001600160a01b03166106dc565b6101d36004803603604081101561025457600080fd5b50803590602001356001600160a01b031661076e565b6101d36004803603604081101561028057600080fd5b50803590602001356001600160a01b03166107d5565b61029e610836565b604080519115158252519081900360200190f35b6101d3600480360360208110156102c857600080fd5b50356001600160a01b031661089c565b6101d3600480360360408110156102ee57600080fd5b508035906020013561092e565b61029e6109bf565b6101d36004803603602081101561031957600080fd5b50356001600160a01b03166109c8565b61029e610c7b565b6103546004803603604081101561034757600080fd5b5080359060200135610cda565b604080516001600160a01b039092168252519081900360200190f35b61029e6004803603604081101561038657600080fd5b50803590602001356001600160a01b0316610cfb565b61019e610d13565b61019e610d6d565b61029e600480360360408110156103c257600080fd5b506001600160a01b038135169060200135610d72565b6103e06110b9565b6040805192835260208301919091528051918290030190f35b61019e6004803603602081101561040f57600080fd5b50356110c0565b6101d36004803603604081101561042c57600080fd5b50803590602001356001600160a01b03166110d7565b61029e6004803603604081101561045857600080fd5b506001600160a01b038135169060200135611130565b6103e0611447565b61019e611451565b6101d3600480360360a081101561049457600080fd5b506001600160a01b0381358116916020810135821691604082013581169160608101359091169060800135611463565b60006104ce61158a565b6001600160a01b0316826001600160a01b0316141561059a5760005b6001600160a01b038316600090815260a26020526040902054811015610598576001600160a01b038316600090815260a26020526040902080548290811061052e57fe5b9060005260206000200154421115610586576001600160a01b038316600090815260a360205260409020805461058391908390811061056957fe5b90600052602060002001548361158e90919063ffffffff16565b91505b61059181600161158e565b90506104ea565b505b919050565b6105b160006105ac61158a565b610cfb565b6105ec5760405162461bcd60e51b815260040180806020018281038252602e815260200180611e7e602e913960400191505060405180910390fd5b609c829055609d819055604080518381526020810183905281517f3be6e637f54f081a2dd12982cfd58481304fc98b604b18fa8ed4aa4e4a9d1532929181900390910190a15050565b61064260006105ac61158a565b61067d5760405162461bcd60e51b8152600401808060200182810382526039815260200180611ee56039913960400191505060405180910390fd5b609780546001600160a01b0319166001600160a01b0383169081179091556040517ff745c285f36f88bea6af14d4d0f33dd9350cef7895216c1615b1caaee7857e0c90600090a250565b60009081526065602052604090206002015490565b6106e960006105ac61158a565b6107245760405162461bcd60e51b8152600401808060200182810382526039815260200180611eac6039913960400191505060405180910390fd5b609880546001600160a01b0319166001600160a01b0383169081179091556040517fd0b9dbe26f676f4cdb02fc249c203baa0314cec79e18b4194dc862795a5de03f90600090a250565b60008281526065602052604090206002015461078c906105ac61158a565b6107c75760405162461bcd60e51b815260040180806020018281038252602f815260200180611e4f602f913960400191505060405180910390fd5b6107d182826115e8565b5050565b6107dd61158a565b6001600160a01b0316816001600160a01b03161461082c5760405162461bcd60e51b815260040180806020018281038252602f8152602001806121d0602f913960400191505060405180910390fd5b6107d18282611651565b60006108526000805160206120188339815191526105ac61158a565b61088d5760405162461bcd60e51b81526004018080602001828103825260388152602001806121596038913960400191505060405180910390fd5b6108956116ba565b5060015b90565b6108a960006105ac61158a565b6108e45760405162461bcd60e51b815260040180806020018281038252603a815260200180611fde603a913960400191505060405180910390fd5b609980546001600160a01b0319166001600160a01b0383169081179091556040517fe64d0ea1a8162224d25416ba9164fe1dae6ec14e9f846220b287c0c1c9413e0590600090a250565b61093b60006105ac61158a565b6109765760405162461bcd60e51b815260040180806020018281038252603881526020018061209f6038913960400191505060405180910390fd5b609a829055609b819055604080518381526020810183905281517fa94d40347449ea19b873d64ed55c99772194c49791e82be5c2dc24e4c0044fe3929181900390910190a15050565b60335460ff1690565b6109d06109bf565b15610a15576040805162461bcd60e51b815260206004820152601060248201526f14185d5cd8589b194e881c185d5cd95960821b604482015290519081900360640190fd5b610a1d61158a565b6001600160a01b0316816001600160a01b031614610a6c5760405162461bcd60e51b81526004018080602001828103825260278152602001806120d76027913960400191505060405180910390fd5b6000805b6001600160a01b038316600090815260a26020526040902054811015610b69576001600160a01b038316600090815260a260205260409020805482908110610ab457fe5b9060005260206000200154421115610b57576001600160a01b038316600090815260a3602052604090208054610aef91908390811061056957fe5b6001600160a01b038416600090815260a2602052604081208054929450909183908110610b1857fe5b60009182526020808320909101929092556001600160a01b038516815260a390915260408120805483908110610b4a57fe5b6000918252602090912001555b610b6281600161158e565b9050610a70565b5060008111610ba95760405162461bcd60e51b815260040180806020018281038252602d81526020018061212c602d913960400191505060405180910390fd5b6040805182815242602082015281516001600160a01b038516927f31453b59c0eb931edc765cc2400876a524254457b5534d660c9da1d74ab4666b928290030190a26097546001600160a01b03166340c10f19610c0461158a565b836040518363ffffffff1660e01b815260040180836001600160a01b0316815260200182815260200192505050602060405180830381600087803b158015610c4b57600080fd5b505af1158015610c5f573d6000803e3d6000fd5b505050506040513d6020811015610c7557600080fd5b50505050565b6000610c976000805160206120188339815191526105ac61158a565b610cd25760405162461bcd60e51b81526004018080602001828103825260368152602001806120386036913960400191505060405180910390fd5b61089561175a565b6000828152606560205260408120610cf290836117dd565b90505b92915050565b6000828152606560205260408120610cf290836117e9565b6000804290508060a1541115610d385760a154610d3090826117fe565b915050610899565b6000610d4f60a154836117fe90919063ffffffff16565b9050610d6660a0548261185b90919063ffffffff16565b9250505090565b600081565b6000610d7c6109bf565b15610dc1576040805162461bcd60e51b815260206004820152601060248201526f14185d5cd8589b194e881c185d5cd95960821b604482015290519081900360640190fd5b60008211610e005760405162461bcd60e51b815260040180806020018281038252603f815260200180612191603f913960400191505060405180910390fd5b610e0861158a565b6001600160a01b0316836001600160a01b031614610e575760405162461bcd60e51b815260040180806020018281038252603181526020018061206e6031913960400191505060405180910390fd5b609754604080516370a0823160e01b81526001600160a01b038681166004830152915160009392909216916370a0823191602480820192602092909190829003018186803b158015610ea857600080fd5b505afa158015610ebc573d6000803e3d6000fd5b505050506040513d6020811015610ed257600080fd5b5051905082811015610f155760405162461bcd60e51b815260040180806020018281038252602e8152602001806120fe602e913960400191505060405180910390fd5b6000610f62610f306064609e546118c290919063ffffffff16565b610f5c609c54610f56609e54610f5060648b6118c290919063ffffffff16565b906118c2565b906117fe565b9061191b565b6040805182815242602082015281519293506001600160a01b038816927f106d46085b22b31d658796e9924cf39946b4105bdb86f8afba3d60d71c3cc591929181900390910190a260975460408051632770a7eb60e21b81526001600160a01b0388811660048301526024820185905291519190921691639dc29fac9160448083019260209291908290030181600087803b15801561100057600080fd5b505af1158015611014573d6000803e3d6000fd5b505050506040513d602081101561102a57600080fd5b5050609854604080516340c10f1960e01b81526001600160a01b03888116600483015260248201859052915191909216916340c10f199160448083019260209291908290030181600087803b15801561108257600080fd5b505af1158015611096573d6000803e3d6000fd5b505050506040513d60208110156110ac57600080fd5b5060019695505050505050565b609a548091565b6000818152606560205260408120610cf590611982565b6000828152606560205260409020600201546110f5906105ac61158a565b61082c5760405162461bcd60e51b8152600401808060200182810382526030815260200180611f5f6030913960400191505060405180910390fd5b600061113a6109bf565b1561117f576040805162461bcd60e51b815260206004820152601060248201526f14185d5cd8589b194e881c185d5cd95960821b604482015290519081900360640190fd5b61118761158a565b6001600160a01b0316836001600160a01b0316146111d65760405162461bcd60e51b8152600401808060200182810382526034815260200180611e1b6034913960400191505060405180910390fd5b600082116112155760405162461bcd60e51b8152600401808060200182810382526041815260200180611f1e6041913960600191505060405180910390fd5b609854604080516370a0823160e01b81526001600160a01b038681166004830152915160009392909216916370a0823191602480820192602092909190829003018186803b15801561126657600080fd5b505afa15801561127a573d6000803e3d6000fd5b505050506040513d602081101561129057600080fd5b50519050828110156112d35760405162461bcd60e51b815260040180806020018281038252602e8152602001806120fe602e913960400191505060405180910390fd5b600061130e6112ee6064609e546118c290919063ffffffff16565b610f5c609d54610f56609e54610f5060648b6118c290919063ffffffff16565b6040805182815242602082015281519293506001600160a01b038816927f5088bc45f380ed0275b374e62bdb9498bfc6b73641204086e7919df7b1b42c7c929181900390910190a260985460408051632770a7eb60e21b81526001600160a01b0388811660048301526024820185905291519190921691639dc29fac9160448083019260209291908290030181600087803b1580156113ac57600080fd5b505af11580156113c0573d6000803e3d6000fd5b505050506040513d60208110156113d657600080fd5b50600090506113e3610d13565b420160a18190556001600160a01b038716600081815260a260209081526040808320609f548154600181810184559286528486209190970196019590955592825260a381529181208054808501825590825291902001929092555091505092915050565b609c54609d549091565b60008051602061201883398151915281565b600054610100900460ff168061147c575061147c61198d565b8061148a575060005460ff16155b6114c55760405162461bcd60e51b815260040180806020018281038252602e815260200180611f8f602e913960400191505060405180910390fd5b600054610100900460ff161580156114f0576000805460ff1961ff0019909116610100171660011790555b6114f861199e565b611500611a50565b611512600061150d61158a565b6107c7565b61152a600080516020612018833981519152846107c7565b61153386610635565b61153c856106dc565b6115458461089c565b621baf80609f556203f48060a0554260a155609e8290556000609a819055609b819055609c819055609d558015611582576000805461ff00191690555b505050505050565b3390565b600082820183811015610cf2576040805162461bcd60e51b815260206004820152601b60248201527f536166654d6174683a206164646974696f6e206f766572666c6f770000000000604482015290519081900360640190fd5b60008281526065602052604090206116009082611aed565b156107d15761160d61158a565b6001600160a01b0316816001600160a01b0316837f2f8788117e7eff1d82e926ec794901d17c78024a50270940304540a733656f0d60405160405180910390a45050565b60008281526065602052604090206116699082611b02565b156107d15761167661158a565b6001600160a01b0316816001600160a01b0316837ff6391f5c32d9c69d2a47ea670b442974b53935d1edc7fd64eb21e047a839171b60405160405180910390a45050565b6116c26109bf565b61170a576040805162461bcd60e51b815260206004820152601460248201527314185d5cd8589b194e881b9bdd081c185d5cd95960621b604482015290519081900360640190fd5b6033805460ff191690557f5db9ee0a495bf2e6ff9c91a7834c1ba4fdd244a5e8aa4e537bd38aeae4b073aa61173d61158a565b604080516001600160a01b039092168252519081900360200190a1565b6117626109bf565b156117a7576040805162461bcd60e51b815260206004820152601060248201526f14185d5cd8589b194e881c185d5cd95960821b604482015290519081900360640190fd5b6033805460ff191660011790557f62e78cea01bee320cd4e420270b5ea74000d11b0c9f74754ebdbfc544b05a25861173d61158a565b6000610cf28383611b17565b6000610cf2836001600160a01b038416611b7b565b600082821115611855576040805162461bcd60e51b815260206004820152601e60248201527f536166654d6174683a207375627472616374696f6e206f766572666c6f770000604482015290519081900360640190fd5b50900390565b60008082116118b1576040805162461bcd60e51b815260206004820152601860248201527f536166654d6174683a206d6f64756c6f206279207a65726f0000000000000000604482015290519081900360640190fd5b8183816118ba57fe5b069392505050565b6000826118d157506000610cf5565b828202828482816118de57fe5b0414610cf25760405162461bcd60e51b8152600401808060200182810382526021815260200180611fbd6021913960400191505060405180910390fd5b6000808211611971576040805162461bcd60e51b815260206004820152601a60248201527f536166654d6174683a206469766973696f6e206279207a65726f000000000000604482015290519081900360640190fd5b81838161197a57fe5b049392505050565b6000610cf582611b93565b600061199830611b97565b15905090565b600054610100900460ff16806119b757506119b761198d565b806119c5575060005460ff16155b611a005760405162461bcd60e51b815260040180806020018281038252602e815260200180611f8f602e913960400191505060405180910390fd5b600054610100900460ff16158015611a2b576000805460ff1961ff0019909116610100171660011790555b611a33611b9d565b611a3b611b9d565b8015611a4d576000805461ff00191690555b50565b600054610100900460ff1680611a695750611a6961198d565b80611a77575060005460ff16155b611ab25760405162461bcd60e51b815260040180806020018281038252602e815260200180611f8f602e913960400191505060405180910390fd5b600054610100900460ff16158015611add576000805460ff1961ff0019909116610100171660011790555b611ae5611b9d565b611a3b611c3d565b6000610cf2836001600160a01b038416611ce8565b6000610cf2836001600160a01b038416611d32565b81546000908210611b595760405162461bcd60e51b8152600401808060200182810382526022815260200180611df96022913960400191505060405180910390fd5b826000018281548110611b6857fe5b9060005260206000200154905092915050565b60009081526001919091016020526040902054151590565b5490565b3b151590565b600054610100900460ff1680611bb65750611bb661198d565b80611bc4575060005460ff16155b611bff5760405162461bcd60e51b815260040180806020018281038252602e815260200180611f8f602e913960400191505060405180910390fd5b600054610100900460ff16158015611a3b576000805460ff1961ff0019909116610100171660011790558015611a4d576000805461ff001916905550565b600054610100900460ff1680611c565750611c5661198d565b80611c64575060005460ff16155b611c9f5760405162461bcd60e51b815260040180806020018281038252602e815260200180611f8f602e913960400191505060405180910390fd5b600054610100900460ff16158015611cca576000805460ff1961ff0019909116610100171660011790555b6033805460ff191690558015611a4d576000805461ff001916905550565b6000611cf48383611b7b565b611d2a57508154600181810184556000848152602080822090930184905584548482528286019093526040902091909155610cf5565b506000610cf5565b60008181526001830160205260408120548015611dee5783546000198083019190810190600090879083908110611d6557fe5b9060005260206000200154905080876000018481548110611d8257fe5b600091825260208083209091019290925582815260018981019092526040902090840190558654879080611db257fe5b60019003818190600052602060002001600090559055866001016000878152602001908152602001600020600090556001945050505050610cf5565b6000915050610cf556fe456e756d657261626c655365743a20696e646578206f7574206f6620626f756e64734c69717569645374616b696e673a20556e7374616b696e672063616e206f6e6c7920626520646f6e65206279205374616b657272416363657373436f6e74726f6c3a2073656e646572206d75737420626520616e2061646d696e20746f206772616e744c69717569645374616b696e673a2055736572206e6f7420617574686f726973656420746f2073657420666565734c69717569645374616b696e673a2055736572206e6f7420617574686f726973656420746f207365742053546f6b656e20636f6e74726163744c69717569645374616b696e673a2055736572206e6f7420617574686f726973656420746f207365742055546f6b656e20636f6e74726163744c69717569645374616b696e673a204e756d626572206f6620756e7374616b656420746f6b656e732073686f756c642062652067726561746572207468616e2030416363657373436f6e74726f6c3a2073656e646572206d75737420626520616e2061646d696e20746f207265766f6b65496e697469616c697a61626c653a20636f6e747261637420697320616c726561647920696e697469616c697a6564536166654d6174683a206d756c7469706c69636174696f6e206f766572666c6f774c69717569645374616b696e673a2055736572206e6f7420617574686f726973656420746f20736574207772617070657220636f6e747261637465d7a28e3265b37a6474929f336521b332c1681b933f6cb9f3376673440d862a4c69717569645374616b696e673a2055736572206e6f7420617574686f726973656420746f20706175736520636f6e7472616374732e4c69717569645374616b696e673a205374616b696e672063616e206f6e6c7920626520646f6e65206279205374616b65724c69717569645374616b696e673a2055736572206e6f7420617574686f726973656420746f20736574206d696e696d756d2076616c7565734c69717569645374616b696e673a204f6e6c79207374616b65722063616e2077697468647261774c69717569645374616b696e673a20496e737566666369656e742062616c616e636520666f72206163636f756e744c69717569645374616b696e673a20556e5374616b696e6720706572696f64207374696c6c2070656e64696e674c69717569645374616b696e673a2055736572206e6f7420617574686f726973656420746f20756e706175736520636f6e7472616374732e4c69717569645374616b696e673a204e756d626572206f66207374616b656420746f6b656e732073686f756c642062652067726561746572207468616e2030416363657373436f6e74726f6c3a2063616e206f6e6c792072656e6f756e636520726f6c657320666f722073656c66a26469706673582212204493888f3ed6174ed5d6fea5147a1d1d2412a5aa38f1045908c332939028e9d864736f6c63430007060033",
  "immutableReferences": {},
  "source": "// SPDX-License-Identifier: UNLICENSED\npragma solidity ^0.7.0;\n\nimport \"@openzeppelin/contracts-upgradeable/math/SafeMathUpgradeable.sol\";\nimport \"@openzeppelin/contracts-upgradeable/access/AccessControlUpgradeable.sol\";\nimport \"@openzeppelin/contracts-upgradeable/utils/PausableUpgradeable.sol\";\nimport \"./interfaces/ISTokens.sol\";\nimport \"./interfaces/IUTokens.sol\";\nimport \"./interfaces/ILiquidStaking.sol\";\nimport \"./interfaces/ITokenWrapper.sol\";\n\ncontract LiquidStaking is ILiquidStaking, PausableUpgradeable, AccessControlUpgradeable {\n\n    using SafeMathUpgradeable for uint256;\n\n    //Private instances of contracts to handle Utokens and Stokens\n    IUTokens private _uTokens;\n    ISTokens private _sTokens;\n    ITokenWrapper private _tokenWrapper;\n\n    // defining the fees and minimum values\n    uint256 private _minStake;\n    uint256 private _minUnstake;\n    uint256 private _stakeFee;\n    uint256 private _unstakeFee;\n    uint256 private _feeDivisor;\n\n    bytes32 public constant PAUSER_ROLE = keccak256(\"PAUSER_ROLE\");\n\n    uint256 _unstakinglockTime;\n    uint256 _epochInterval;\n    uint256 _nextEpochMilestone;\n\n    //Mapping to handle the Expiry period\n    mapping(address => uint256[]) _unstakingExpiration;\n\n    //Mapping to handle the Expiry amount\n    mapping(address => uint256[]) _unstakingAmount;\n\n    /**\n   * @dev Constructor for initializing the LiquidStaking contract.\n   * @param uAddress - address of the UToken contract.\n   * @param sAddress - address of the SToken contract.\n   * @param wrapperAddress - address of the tokenWrapper contract.\n   * @param pauserAddress - address of the pauser admin.\n   */\n    function initialize(address uAddress, address sAddress, address wrapperAddress, address pauserAddress, uint256 feeDivisor) public virtual initializer  {\n        __AccessControl_init();\n        __Pausable_init();\n        _setupRole(DEFAULT_ADMIN_ROLE, _msgSender());\n        _setupRole(PAUSER_ROLE, pauserAddress);\n        setUTokensContract(uAddress);\n        setSTokensContract(sAddress);\n        setWrapperContract(wrapperAddress);\n        _unstakinglockTime = 21 days;\n        _epochInterval = 3 days;\n        _nextEpochMilestone = block.timestamp;\n        _feeDivisor = feeDivisor;\n        _minStake = 0;\n        _minUnstake = 0;\n        _stakeFee = 0;\n        _unstakeFee = 0;\n    }\n\n    /**\n     * @dev Set 'fees', called from admin\n     * @param stakeFee: stake fee\n     * @param unstakeFee: unstake fee\n     *\n     * Emits a {SetFee} event with 'fee' set to the stake and unstake.\n     *\n     */\n    function setFees(uint256 stakeFee, uint256 unstakeFee) public virtual override {\n        require(hasRole(DEFAULT_ADMIN_ROLE, _msgSender()), \"LiquidStaking: User not authorised to set fees\");\n        _stakeFee = stakeFee;\n        _unstakeFee = unstakeFee;\n        emit SetFees(stakeFee, unstakeFee);\n    }\n\n    /**\n     * @dev get fees\n     *\n     */\n    function getFees() public view virtual returns (uint256 stakeFee, uint256 unstakeFee) {\n        stakeFee = _stakeFee;\n        unstakeFee = _unstakeFee;\n        return (stakeFee, unstakeFee);\n    }\n\n    /**\n     * @dev Set 'minimum values', called from admin\n     * @param minStake: stake minimum value\n     * @param minUnstake: unstake minimum value\n     *\n     * Emits a {SetMinimumValues} event with 'minimum value' set to the stake and unstake.\n     *\n     */\n    function setMinimumValues(uint256 minStake, uint256 minUnstake) public virtual override {\n        require(hasRole(DEFAULT_ADMIN_ROLE, _msgSender()), \"LiquidStaking: User not authorised to set minimum values\");\n        _minStake = minStake;\n        _minUnstake = minUnstake;\n        emit SetMinimumValues(minStake, minUnstake);\n    }\n\n    /**\n     * @dev get fees\n     *\n     */\n    function getMinimumValues() public view virtual returns (uint256 minStake, uint256 minUnstake) {\n        minStake = _minStake;\n        minUnstake = _minStake;\n        return (minStake, minUnstake);\n    }\n\n    /**\n     * @dev Set 'contract address', called from constructor\n     * @param uAddress: utoken contract address\n     *\n     * Emits a {SetContract} event with '_contract' set to the utoken contract address.\n     *\n     */\n    function setUTokensContract(address uAddress) public virtual override {\n        require(hasRole(DEFAULT_ADMIN_ROLE, _msgSender()), \"LiquidStaking: User not authorised to set UToken contract\");\n        _uTokens = IUTokens(uAddress);\n        emit SetUTokensContract(uAddress);\n    }\n\n    /**\n     * @dev Set 'contract address', called from constructor\n     * @param sAddress: stoken contract address\n     *\n     * Emits a {SetContract} event with '_contract' set to the stoken contract address.\n     *\n     */\n    function setSTokensContract(address sAddress) public virtual override {\n        require(hasRole(DEFAULT_ADMIN_ROLE, _msgSender()), \"LiquidStaking: User not authorised to set SToken contract\");\n        _sTokens = ISTokens(sAddress);\n        emit SetSTokensContract(sAddress);\n    }\n    /*\n    * @dev Set 'contract address', called from constructor\n    * @param sAddress: stoken contract address\n    *\n    * Emits a {SetContract} event with '_contract' set to the stoken contract address.\n    *\n    */\n    function setWrapperContract(address wrapperAddress) public virtual override {\n        require(hasRole(DEFAULT_ADMIN_ROLE, _msgSender()), \"LiquidStaking: User not authorised to set wrapper contract\");\n        _tokenWrapper = ITokenWrapper(wrapperAddress);\n        emit SetWrapperContract(wrapperAddress);\n    }\n\n    /**\n    * @dev Stake utokens over the platform with address 'to' for desired 'utok'(Burn uTokens and Mint sTokens)\n    * @param to: user address for staking, utok: number of tokens to stake\n    *\n    *\n    * Requirements:\n    *\n    * - `utok` cannot be less than zero.\n    * - 'utok' cannot be more than balance\n    * - 'utok' plus new balance should be equal to the old balance\n    */\n    function stake(address to, uint256 utok) public virtual override whenNotPaused returns(bool)  {\n        // Check the supplied amount is greater than 0\n        require(utok>0, \"LiquidStaking: Number of staked tokens should be greater than 0\");\n        require(to == _msgSender(), \"LiquidStaking: Staking can only be done by Staker\");\n        // require(hasRole(STAKER_ROLE, _msgSender()), \"LiquidStaking: Staking can only be done by Staker\");\n        // Check the current balance for uTokens is greater than the amount to be staked\n        uint256 _currentUTokenBalance = _uTokens.balanceOf(to);\n        require(_currentUTokenBalance>=utok, \"LiquidStaking: Insuffcient balance for account\");\n        uint256 finalTokens = (((utok.mul(100)).mul(_feeDivisor)).sub(_stakeFee)).div(_feeDivisor.mul(100));\n        emit StakeTokens(to, finalTokens, block.timestamp);\n        // Burn the uTokens as specified with the amount\n        _uTokens.burn(to, finalTokens);\n        // Mint the sTokens for the account specified\n        _sTokens.mint(to, finalTokens);\n        return true;\n    }\n\n    /**\n     * @dev UnStake stokens over the platform with address 'to' for desired 'stok' (Burn sTokens and Mint uTokens with 21 days locking period)\n     * @param to: user address for staking, stok: number of tokens to unstake\n     *\n     *\n     * Requirements:\n     *\n     * - `stok` cannot be less than zero.\n     * - 'stok' cannot be more than balance\n     * - 'stok' plus new balance should be equal to the old balance\n     */\n    function unStake(address to, uint256 stok) public virtual override whenNotPaused returns(bool) {\n        // Check the supplied amount is greater than 0\n        require(to == _msgSender(), \"LiquidStaking: Unstaking can only be done by Stakerr\");\n        require(stok>0, \"LiquidStaking: Number of unstaked tokens should be greater than 0\");\n        // Check the current balance for sTokens is greater than the amount to be unStaked\n        uint256 _currentSTokenBalance = _sTokens.balanceOf(to);\n        require(_currentSTokenBalance>=stok, \"LiquidStaking: Insuffcient balance for account\");\n        uint256 finalTokens = (((stok.mul(100)).mul(_feeDivisor)).sub(_unstakeFee)).div(_feeDivisor.mul(100));\n        emit UnstakeTokens(to, finalTokens, block.timestamp);\n        // Burn the sTokens as specified with the amount\n        _sTokens.burn(to, finalTokens);\n        uint256 _unstakeEpochTime = getUnstakeEpochTime();\n        _nextEpochMilestone = _unstakeEpochTime + block.timestamp;\n        _unstakingExpiration[to].push(_nextEpochMilestone + _unstakinglockTime);\n        _unstakingAmount[to].push(finalTokens);\n        return true;\n    }\n\n    /**\n     * @dev get unstake epoch time\n     */\n    function getUnstakeEpochTime() public view virtual returns (uint256 unstakeEpochTime_) {\n        uint256 _currentTime = block.timestamp;\n        if(_nextEpochMilestone > _currentTime) return (_nextEpochMilestone.sub(_currentTime));\n\n        uint256 _timeDiff = _currentTime.sub(_nextEpochMilestone);\n        unstakeEpochTime_ = _timeDiff.mod(_epochInterval);\n        return unstakeEpochTime_;\n    }\n\n    /**\n     * @dev Lock the unstaked tokens for 21 days, user can withdraw the same (Mint uTokens with 21 days locking period)\n     *\n     * Requirements:\n     *\n     * - `current block timestamp` should be after 21 days from the period where unstaked function is called.\n     */\n    function withdrawUnstakedTokens(address staker) public virtual override whenNotPaused{\n        require(staker == _msgSender(), \"LiquidStaking: Only staker can withdraw\");\n        // require(hasRole(STAKER_ROLE, _msgSender()), \"LiquidStaking: Only staker can withdraw\");\n        uint256 _withdrawBalance;\n        for (uint256 i=0; i<_unstakingExpiration[staker].length; i=i.add(1)) {\n            if (block.timestamp > _unstakingExpiration[staker][i]) {\n                _withdrawBalance = _withdrawBalance.add(_unstakingAmount[staker][i]);\n                _unstakingExpiration[staker][i] = 0;\n                _unstakingAmount[staker][i] = 0;\n            }\n        }\n        require(_withdrawBalance > 0, \"LiquidStaking: UnStaking period still pending\");\n        emit WithdrawUnstakeTokens(staker, _withdrawBalance, block.timestamp);\n        _uTokens.mint(_msgSender(), _withdrawBalance);\n    }\n\n    /**\n     * @dev get Total Unbonded Tokens\n     * @param staker: account address\n     *\n     */\n    function getTotalUnbondedTokens(address staker) public view virtual returns (uint256 unbondingTokens) {\n        if(staker == _msgSender()){\n            for (uint256 i=0; i<_unstakingExpiration[staker].length; i=i.add(1)) {\n                if (block.timestamp > _unstakingExpiration[staker][i]) {\n                    unbondingTokens = unbondingTokens.add(_unstakingAmount[staker][i]);\n                }\n            }\n        }\n        return unbondingTokens;\n    }\n\n    /**\n      * @dev Triggers stopped state.\n      *\n      * Requirements:\n      *\n      * - The contract must not be paused.\n      */\n    function pause() public virtual override returns (bool success) {\n        require(hasRole(PAUSER_ROLE, _msgSender()), \"LiquidStaking: User not authorised to pause contracts.\");\n        _pause();\n        return true;\n    }\n\n    /**\n     * @dev Returns to normal state.\n     *\n     * Requirements:\n     *\n     * - The contract must be paused.\n     */\n    function unpause() public virtual override returns (bool success) {\n        require(hasRole(PAUSER_ROLE, _msgSender()), \"LiquidStaking: User not authorised to unpause contracts.\");\n        _unpause();\n        return true;\n    }\n}",
  "sourcePath": "/home/aditimahesh/Documents/Work/Persistence/go/src/github.com/persistenceOne/pStakeSmartContracts/contracts/LiquidStaking.sol",
  "compiler": {
    "name": "solc",
    "version": "0.7.6+commit.7338295f.Emscripten.clang"
  },
  "schemaVersion": "3.3.4",
  "updatedAt": "2021-05-13T10:18:11.801Z",
  "networkType": "ethereum",
  "devdoc": {
    "kind": "dev",
    "methods": {
      "getFees()": {
        "details": "get fees"
      },
      "getMinimumValues()": {
        "details": "get fees"
      },
      "getRoleAdmin(bytes32)": {
        "details": "Returns the admin role that controls `role`. See {grantRole} and {revokeRole}. To change a role's admin, use {_setRoleAdmin}."
      },
      "getRoleMember(bytes32,uint256)": {
        "details": "Returns one of the accounts that have `role`. `index` must be a value between 0 and {getRoleMemberCount}, non-inclusive. Role bearers are not sorted in any particular way, and their ordering may change at any point. WARNING: When using {getRoleMember} and {getRoleMemberCount}, make sure you perform all queries on the same block. See the following https://forum.openzeppelin.com/t/iterating-over-elements-on-enumerableset-in-openzeppelin-contracts/2296[forum post] for more information."
      },
      "getRoleMemberCount(bytes32)": {
        "details": "Returns the number of accounts that have `role`. Can be used together with {getRoleMember} to enumerate all bearers of a role."
      },
      "getTotalUnbondedTokens(address)": {
        "details": "get Total Unbonded Tokens",
        "params": {
          "staker": ": account address"
        }
      },
      "getUnstakeEpochTime()": {
        "details": "get unstake epoch time"
      },
      "grantRole(bytes32,address)": {
        "details": "Grants `role` to `account`. If `account` had not been already granted `role`, emits a {RoleGranted} event. Requirements: - the caller must have ``role``'s admin role."
      },
      "hasRole(bytes32,address)": {
        "details": "Returns `true` if `account` has been granted `role`."
      },
      "initialize(address,address,address,address,uint256)": {
        "details": "Constructor for initializing the LiquidStaking contract.",
        "params": {
          "pauserAddress": "- address of the pauser admin.",
          "sAddress": "- address of the SToken contract.",
          "uAddress": "- address of the UToken contract.",
          "wrapperAddress": "- address of the tokenWrapper contract."
        }
      },
      "pause()": {
        "details": "Triggers stopped state. Requirements: - The contract must not be paused."
      },
      "paused()": {
        "details": "Returns true if the contract is paused, and false otherwise."
      },
      "renounceRole(bytes32,address)": {
        "details": "Revokes `role` from the calling account. Roles are often managed via {grantRole} and {revokeRole}: this function's purpose is to provide a mechanism for accounts to lose their privileges if they are compromised (such as when a trusted device is misplaced). If the calling account had been granted `role`, emits a {RoleRevoked} event. Requirements: - the caller must be `account`."
      },
      "revokeRole(bytes32,address)": {
        "details": "Revokes `role` from `account`. If `account` had been granted `role`, emits a {RoleRevoked} event. Requirements: - the caller must have ``role``'s admin role."
      },
      "setFees(uint256,uint256)": {
        "details": "Set 'fees', called from admin",
        "params": {
          "stakeFee": ": stake fee",
          "unstakeFee": ": unstake fee Emits a {SetFee} event with 'fee' set to the stake and unstake."
        }
      },
      "setMinimumValues(uint256,uint256)": {
        "details": "Set 'minimum values', called from admin",
        "params": {
          "minStake": ": stake minimum value",
          "minUnstake": ": unstake minimum value Emits a {SetMinimumValues} event with 'minimum value' set to the stake and unstake."
        }
      },
      "setSTokensContract(address)": {
        "details": "Set 'contract address', called from constructor",
        "params": {
          "sAddress": ": stoken contract address Emits a {SetContract} event with '_contract' set to the stoken contract address."
        }
      },
      "setUTokensContract(address)": {
        "details": "Set 'contract address', called from constructor",
        "params": {
          "uAddress": ": utoken contract address Emits a {SetContract} event with '_contract' set to the utoken contract address."
        }
      },
      "setWrapperContract(address)": {
        "details": "Set PegTokens smart contract. Emits a {SetContract} event."
      },
      "stake(address,uint256)": {
        "details": "Stake utokens over the platform with address 'to' for desired 'utok'(Burn uTokens and Mint sTokens)",
        "params": {
          "to": ": user address for staking, utok: number of tokens to stake Requirements: - `utok` cannot be less than zero. - 'utok' cannot be more than balance - 'utok' plus new balance should be equal to the old balance"
        }
      },
      "unStake(address,uint256)": {
        "details": "UnStake stokens over the platform with address 'to' for desired 'stok' (Burn sTokens and Mint uTokens with 21 days locking period)",
        "params": {
          "to": ": user address for staking, stok: number of tokens to unstake Requirements: - `stok` cannot be less than zero. - 'stok' cannot be more than balance - 'stok' plus new balance should be equal to the old balance"
        }
      },
      "unpause()": {
        "details": "Returns to normal state. Requirements: - The contract must be paused."
      },
      "withdrawUnstakedTokens(address)": {
        "details": "Lock the unstaked tokens for 21 days, user can withdraw the same (Mint uTokens with 21 days locking period) Requirements: - `current block timestamp` should be after 21 days from the period where unstaked function is called."
      }
    },
    "version": 1
  },
  "userdoc": {
    "kind": "user",
    "methods": {},
    "version": 1
  }
}