{
  "contractName": "MigrationAdminV2",
  "abi": [
    {
      "anonymous": false,
      "inputs": [
        {
          "indexed": true,
          "internalType": "address",
          "name": "accountAddress",
          "type": "address"
        },
        {
          "indexed": false,
          "internalType": "uint256",
          "name": "currentSTokenBalance",
          "type": "uint256"
        }
      ],
      "name": "BurnSTokensEvent",
      "type": "event"
    },
    {
      "anonymous": false,
      "inputs": [
        {
          "indexed": true,
          "internalType": "address",
          "name": "accountAddress",
          "type": "address"
        }
      ],
      "name": "ClaimPendingRewardsEvent",
      "type": "event"
    },
    {
      "anonymous": false,
      "inputs": [
        {
          "indexed": true,
          "internalType": "address",
          "name": "accountAddress",
          "type": "address"
        }
      ],
      "name": "ClaimUnbondedRewardsEvent",
      "type": "event"
    },
    {
      "anonymous": false,
      "inputs": [
        {
          "indexed": false,
          "internalType": "address",
          "name": "account",
          "type": "address"
        }
      ],
      "name": "Paused",
      "type": "event"
    },
    {
      "anonymous": false,
      "inputs": [
        {
          "indexed": true,
          "internalType": "bytes32",
          "name": "role",
          "type": "bytes32"
        },
        {
          "indexed": true,
          "internalType": "bytes32",
          "name": "previousAdminRole",
          "type": "bytes32"
        },
        {
          "indexed": true,
          "internalType": "bytes32",
          "name": "newAdminRole",
          "type": "bytes32"
        }
      ],
      "name": "RoleAdminChanged",
      "type": "event"
    },
    {
      "anonymous": false,
      "inputs": [
        {
          "indexed": true,
          "internalType": "bytes32",
          "name": "role",
          "type": "bytes32"
        },
        {
          "indexed": true,
          "internalType": "address",
          "name": "account",
          "type": "address"
        },
        {
          "indexed": true,
          "internalType": "address",
          "name": "sender",
          "type": "address"
        }
      ],
      "name": "RoleGranted",
      "type": "event"
    },
    {
      "anonymous": false,
      "inputs": [
        {
          "indexed": true,
          "internalType": "bytes32",
          "name": "role",
          "type": "bytes32"
        },
        {
          "indexed": true,
          "internalType": "address",
          "name": "account",
          "type": "address"
        },
        {
          "indexed": true,
          "internalType": "address",
          "name": "sender",
          "type": "address"
        }
      ],
      "name": "RoleRevoked",
      "type": "event"
    },
    {
      "anonymous": false,
      "inputs": [
        {
          "indexed": true,
          "internalType": "address",
          "name": "_contract",
          "type": "address"
        }
      ],
      "name": "SetSTokensContract",
      "type": "event"
    },
    {
      "anonymous": false,
      "inputs": [
        {
          "indexed": true,
          "internalType": "address",
          "name": "_contract",
          "type": "address"
        }
      ],
      "name": "SetTokenWrapperContract",
      "type": "event"
    },
    {
      "anonymous": false,
      "inputs": [
        {
          "indexed": true,
          "internalType": "address",
          "name": "_contract",
          "type": "address"
        }
      ],
      "name": "SetUTokensContract",
      "type": "event"
    },
    {
      "anonymous": false,
      "inputs": [
        {
          "indexed": false,
          "internalType": "address",
          "name": "account",
          "type": "address"
        }
      ],
      "name": "Unpaused",
      "type": "event"
    },
    {
      "anonymous": false,
      "inputs": [
        {
          "indexed": true,
          "internalType": "address",
          "name": "accountAddress",
          "type": "address"
        },
        {
          "indexed": false,
          "internalType": "uint256",
          "name": "currentUTokenBalance",
          "type": "uint256"
        },
        {
          "indexed": false,
          "internalType": "string",
          "name": "toChainAddress",
          "type": "string"
        }
      ],
      "name": "WithdrawUTokensEvent",
      "type": "event"
    },
    {
      "inputs": [],
      "name": "DEFAULT_ADMIN_ROLE",
      "outputs": [
        {
          "internalType": "bytes32",
          "name": "",
          "type": "bytes32"
        }
      ],
      "stateMutability": "view",
      "type": "function",
      "constant": true
    },
    {
      "inputs": [],
      "name": "PAUSER_ROLE",
      "outputs": [
        {
          "internalType": "bytes32",
          "name": "",
          "type": "bytes32"
        }
      ],
      "stateMutability": "view",
      "type": "function",
      "constant": true
    },
    {
      "inputs": [],
      "name": "_sTokens",
      "outputs": [
        {
          "internalType": "contract ISTokensV3",
          "name": "",
          "type": "address"
        }
      ],
      "stateMutability": "view",
      "type": "function",
      "constant": true
    },
    {
      "inputs": [],
      "name": "_tokenWrapper",
      "outputs": [
        {
          "internalType": "contract ITokenWrapperV3",
          "name": "",
          "type": "address"
        }
      ],
      "stateMutability": "view",
      "type": "function",
      "constant": true
    },
    {
      "inputs": [],
      "name": "_uTokens",
      "outputs": [
        {
          "internalType": "contract IUTokensV3",
          "name": "",
          "type": "address"
        }
      ],
      "stateMutability": "view",
      "type": "function",
      "constant": true
    },
    {
      "inputs": [],
      "name": "controlDigitBytes",
      "outputs": [
        {
          "internalType": "bytes",
          "name": "",
          "type": "bytes"
        }
      ],
      "stateMutability": "view",
      "type": "function",
      "constant": true
    },
    {
      "inputs": [],
      "name": "dataBytesSize",
      "outputs": [
        {
          "internalType": "uint256",
          "name": "",
          "type": "uint256"
        }
      ],
      "stateMutability": "view",
      "type": "function",
      "constant": true
    },
    {
      "inputs": [
        {
          "internalType": "bytes32",
          "name": "role",
          "type": "bytes32"
        }
      ],
      "name": "getRoleAdmin",
      "outputs": [
        {
          "internalType": "bytes32",
          "name": "",
          "type": "bytes32"
        }
      ],
      "stateMutability": "view",
      "type": "function",
      "constant": true
    },
    {
      "inputs": [
        {
          "internalType": "bytes32",
          "name": "role",
          "type": "bytes32"
        },
        {
          "internalType": "uint256",
          "name": "index",
          "type": "uint256"
        }
      ],
      "name": "getRoleMember",
      "outputs": [
        {
          "internalType": "address",
          "name": "",
          "type": "address"
        }
      ],
      "stateMutability": "view",
      "type": "function",
      "constant": true
    },
    {
      "inputs": [
        {
          "internalType": "bytes32",
          "name": "role",
          "type": "bytes32"
        }
      ],
      "name": "getRoleMemberCount",
      "outputs": [
        {
          "internalType": "uint256",
          "name": "",
          "type": "uint256"
        }
      ],
      "stateMutability": "view",
      "type": "function",
      "constant": true
    },
    {
      "inputs": [
        {
          "internalType": "bytes32",
          "name": "role",
          "type": "bytes32"
        },
        {
          "internalType": "address",
          "name": "account",
          "type": "address"
        }
      ],
      "name": "grantRole",
      "outputs": [],
      "stateMutability": "nonpayable",
      "type": "function"
    },
    {
      "inputs": [
        {
          "internalType": "bytes32",
          "name": "role",
          "type": "bytes32"
        },
        {
          "internalType": "address",
          "name": "account",
          "type": "address"
        }
      ],
      "name": "hasRole",
      "outputs": [
        {
          "internalType": "bool",
          "name": "",
          "type": "bool"
        }
      ],
      "stateMutability": "view",
      "type": "function",
      "constant": true
    },
    {
      "inputs": [],
      "name": "hrpBytes",
      "outputs": [
        {
          "internalType": "bytes",
          "name": "",
          "type": "bytes"
        }
      ],
      "stateMutability": "view",
      "type": "function",
      "constant": true
    },
    {
      "inputs": [],
      "name": "paused",
      "outputs": [
        {
          "internalType": "bool",
          "name": "",
          "type": "bool"
        }
      ],
      "stateMutability": "view",
      "type": "function",
      "constant": true
    },
    {
      "inputs": [
        {
          "internalType": "bytes32",
          "name": "role",
          "type": "bytes32"
        },
        {
          "internalType": "address",
          "name": "account",
          "type": "address"
        }
      ],
      "name": "renounceRole",
      "outputs": [],
      "stateMutability": "nonpayable",
      "type": "function"
    },
    {
      "inputs": [
        {
          "internalType": "bytes32",
          "name": "role",
          "type": "bytes32"
        },
        {
          "internalType": "address",
          "name": "account",
          "type": "address"
        }
      ],
      "name": "revokeRole",
      "outputs": [],
      "stateMutability": "nonpayable",
      "type": "function"
    },
    {
      "inputs": [
        {
          "internalType": "address",
          "name": "uAddress",
          "type": "address"
        },
        {
          "internalType": "address",
          "name": "sAddress",
          "type": "address"
        },
        {
          "internalType": "address",
          "name": "tokenWrapperAddress",
          "type": "address"
        },
        {
          "internalType": "address",
          "name": "pauserAddress",
          "type": "address"
        }
      ],
      "name": "initialize",
      "outputs": [],
      "stateMutability": "nonpayable",
      "type": "function"
    },
    {
      "inputs": [
        {
          "internalType": "address",
          "name": "uAddress",
          "type": "address"
        }
      ],
      "name": "setUTokensContract",
      "outputs": [],
      "stateMutability": "nonpayable",
      "type": "function"
    },
    {
      "inputs": [
        {
          "internalType": "address",
          "name": "sAddress",
          "type": "address"
        }
      ],
      "name": "setSTokensContract",
      "outputs": [],
      "stateMutability": "nonpayable",
      "type": "function"
    },
    {
      "inputs": [
        {
          "internalType": "address",
          "name": "tokenWrapperAddress",
          "type": "address"
        }
      ],
      "name": "setTokenWrapperContract",
      "outputs": [],
      "stateMutability": "nonpayable",
      "type": "function"
    },
    {
      "inputs": [
        {
          "internalType": "address",
          "name": "accountAddress",
          "type": "address"
        },
        {
          "internalType": "string",
          "name": "toChainAddress",
          "type": "string"
        }
      ],
      "name": "Migrate",
      "outputs": [
        {
          "internalType": "bool",
          "name": "success",
          "type": "bool"
        }
      ],
      "stateMutability": "nonpayable",
      "type": "function"
    },
    {
      "inputs": [],
      "name": "pause",
      "outputs": [
        {
          "internalType": "bool",
          "name": "success",
          "type": "bool"
        }
      ],
      "stateMutability": "nonpayable",
      "type": "function"
    },
    {
      "inputs": [],
      "name": "unpause",
      "outputs": [
        {
          "internalType": "bool",
          "name": "success",
          "type": "bool"
        }
      ],
      "stateMutability": "nonpayable",
      "type": "function"
    },
    {
      "inputs": [
        {
          "internalType": "bytes",
          "name": "_hrpBytes",
          "type": "bytes"
        }
      ],
      "name": "setHRPBytes",
      "outputs": [
        {
          "internalType": "bool",
          "name": "success",
          "type": "bool"
        }
      ],
      "stateMutability": "nonpayable",
      "type": "function"
    }
  ],
  "bytecode": "0x608060405234801561001057600080fd5b506122e0806100206000396000f3fe608060405234801561001057600080fd5b50600436106101585760003560e01c806391d14854116100c3578063d37f55981161007c578063d37f5598146104fd578063d547741f14610505578063d79cf55a14610531578063e3ac914b14610539578063e63ab1e914610541578063f8c8765e1461054957610158565b806391d14854146102d357806398fcda85146102ff578063a217fddf146103b5578063a53dcd72146103bd578063aedfab3c1461043a578063ca15c873146104e057610158565b806336568abe1161011557806336568abe146102505780633f4ba83a1461027c5780635c975abb1461029857806378a2f074146102a05780638456cb59146102a85780639010d07c146102b057610158565b806302c67b601461015d57806321bdf9e514610181578063248a9ca3146101a95780632e31fab8146101d85780632f2ff15d146101fe57806331b188cc1461022a575b600080fd5b610165610587565b604080516001600160a01b039092168252519081900360200190f35b6101a76004803603602081101561019757600080fd5b50356001600160a01b0316610596565b005b6101c6600480360360208110156101bf57600080fd5b5035610629565b60408051918252519081900360200190f35b6101a7600480360360208110156101ee57600080fd5b50356001600160a01b0316610641565b6101a76004803603604081101561021457600080fd5b50803590602001356001600160a01b03166106cf565b6101a76004803603602081101561024057600080fd5b50356001600160a01b0316610736565b6101a76004803603604081101561026657600080fd5b50803590602001356001600160a01b03166107c4565b610284610825565b604080519115158252519081900360200190f35b610284610886565b61016561088f565b61028461089e565b610165600480360360408110156102c657600080fd5b50803590602001356108f9565b610284600480360360408110156102e957600080fd5b50803590602001356001600160a01b031661091a565b6102846004803603604081101561031557600080fd5b6001600160a01b03823516919081019060408101602082013564010000000081111561034057600080fd5b82018360208201111561035257600080fd5b8035906020019184600183028401116401000000008311171561037457600080fd5b91908080601f016020809104026020016040519081016040528093929190818152602001838380828437600092019190915250929550610932945050505050565b6101c6610dcd565b6103c5610dd2565b6040805160208082528351818301528351919283929083019185019080838360005b838110156103ff5781810151838201526020016103e7565b50505050905090810190601f16801561042c5780820380516001836020036101000a031916815260200191505b509250505060405180910390f35b6102846004803603602081101561045057600080fd5b81019060208101813564010000000081111561046b57600080fd5b82018360208201111561047d57600080fd5b8035906020019184600183028401116401000000008311171561049f57600080fd5b91908080601f016020809104026020016040519081016040528093929190818152602001838380828437600092019190915250929550610e60945050505050565b6101c6600480360360208110156104f657600080fd5b5035610ec1565b6103c5610ed8565b6101a76004803603604081101561051b57600080fd5b50803590602001356001600160a01b0316610f33565b610165610f8c565b6101c6610f9b565b6101c6610fa1565b6101a76004803603608081101561055f57600080fd5b506001600160a01b038135811691602081013582169160408201358116916060013516610fb3565b6099546001600160a01b031681565b6105a860006105a361110a565b61091a565b6105df576040805162461bcd60e51b81526020600482015260036024820152624d413160e81b604482015290519081900360640190fd5b609780546001600160a01b0319166001600160a01b0383169081179091556040517ff745c285f36f88bea6af14d4d0f33dd9350cef7895216c1615b1caaee7857e0c90600090a250565b6000818152606560205260409020600201545b919050565b61064e60006105a361110a565b610685576040805162461bcd60e51b815260206004820152600360248201526226a09960e91b604482015290519081900360640190fd5b609880546001600160a01b0319166001600160a01b0383169081179091556040517fd0b9dbe26f676f4cdb02fc249c203baa0314cec79e18b4194dc862795a5de03f90600090a250565b6000828152606560205260409020600201546106ed906105a361110a565b6107285760405162461bcd60e51b815260040180806020018281038252602f8152602001806121af602f913960400191505060405180910390fd5b610732828261110e565b5050565b61074360006105a361110a565b61077a576040805162461bcd60e51b81526020600482015260036024820152624d413360e81b604482015290519081900360640190fd5b609980546001600160a01b0319166001600160a01b0383169081179091556040517f2f9f272420570ea07d7da789fdc59a50c36792d6ea4f49a4d218b6f2431d049290600090a250565b6107cc61110a565b6001600160a01b0316816001600160a01b03161461081b5760405162461bcd60e51b815260040180806020018281038252602f81526020018061225c602f913960400191505060405180910390fd5b6107328282611177565b600061084160008051602061223c8339815191526105a361110a565b610878576040805162461bcd60e51b815260206004820152600360248201526209a82760eb1b604482015290519081900360640190fd5b6108806111e0565b50600190565b60335460ff1690565b6097546001600160a01b031681565b60006108ba60008051602061223c8339815191526105a361110a565b6108f1576040805162461bcd60e51b81526020600482015260036024820152624d413760e81b604482015290519081900360640190fd5b610880611280565b60008281526065602052604081206109119083611303565b90505b92915050565b6000828152606560205260408120610911908361130f565b600061093c61110a565b6001600160a01b0316836001600160a01b031614610987576040805162461bcd60e51b81526020600482015260036024820152624d413560e81b604482015290519081900360640190fd5b609a805460408051602060026001851615610100026000190190941693909304601f8101849004840282018401909252818152600093610ab69391929091830182828015610a165780601f106109eb57610100808354040283529160200191610a16565b820191906000526020600020905b8154815290600101906020018083116109f957829003601f168201915b5050609b8054604080516020601f6002600019610100600188161502019095169490940493840181900481028201810190925282815295509193509150830182828015610aa45780601f10610a7957610100808354040283529160200191610aa4565b820191906000526020600020905b815481529060010190602001808311610a8757829003601f168201915b5050609c548995949350915050611324565b9050600181151514610af5576040805162461bcd60e51b815260206004820152600360248201526226a09b60e91b604482015290519081900360640190fd5b609854604080516364ab867560e01b81526001600160a01b038781166004830152915191909216916364ab86759160248083019260209291908290030181600087803b158015610b4457600080fd5b505af1158015610b58573d6000803e3d6000fd5b505050506040513d6020811015610b6e57600080fd5b50506040516001600160a01b038516907f3ce76091fe99d13ed35d6f2fb35abe5986f4499adbe050e7c78ed442d4f28cbd90600090a2609754604080516370a0823160e01b81526001600160a01b038781166004830152915160009392909216916370a0823191602480820192602092909190829003018186803b158015610bf557600080fd5b505afa158015610c09573d6000803e3d6000fd5b505050506040513d6020811015610c1f57600080fd5b5051609954604051632145f74f60e11b81526001600160a01b038881166004830190815260248301859052606060448401908152895160648501528951959650919093169363428bee9e938a9387938b93909160840190602085019080838360005b83811015610c99578181015183820152602001610c81565b50505050905090810190601f168015610cc65780820380516001836020036101000a031916815260200191505b50945050505050602060405180830381600087803b158015610ce757600080fd5b505af1158015610cfb573d6000803e3d6000fd5b505050506040513d6020811015610d1157600080fd5b505060408051828152602081810183815287519383019390935286516001600160a01b038916937f4f4d8f18694e977d000a45e7f6a3389e58e6929e9b421ea97afe01389b5dea1c9386938a93919291606084019185019080838360005b83811015610d87578181015183820152602001610d6f565b50505050905090810190601f168015610db45780820380516001836020036101000a031916815260200191505b50935050505060405180910390a2506001949350505050565b600081565b609b805460408051602060026001851615610100026000190190941693909304601f81018490048402820184019092528181529291830182828015610e585780601f10610e2d57610100808354040283529160200191610e58565b820191906000526020600020905b815481529060010190602001808311610e3b57829003601f168201915b505050505081565b6000610e6e816105a361110a565b610ea5576040805162461bcd60e51b81526020600482015260036024820152624d413960e81b604482015290519081900360640190fd5b8151610eb890609a9060208501906120eb565b50600192915050565b60008181526065602052604081206109149061143b565b609a805460408051602060026001851615610100026000190190941693909304601f81018490048402820184019092528181529291830182828015610e585780601f10610e2d57610100808354040283529160200191610e58565b600082815260656020526040902060020154610f51906105a361110a565b61081b5760405162461bcd60e51b81526004018080602001828103825260308152602001806121de6030913960400191505060405180910390fd5b6098546001600160a01b031681565b609c5481565b60008051602061223c83398151915281565b600054610100900460ff1680610fcc5750610fcc611446565b80610fda575060005460ff16155b6110155760405162461bcd60e51b815260040180806020018281038252602e81526020018061220e602e913960400191505060405180910390fd5b600054610100900460ff16158015611040576000805460ff1961ff0019909116610100171660011790555b611048611457565b611050611509565b611062600061105d61110a565b610728565b61107a60008051602061223c83398151915283610728565b61108385610596565b61108c84610641565b61109583610736565b60408051808201909152600680825265636f736d6f7360d01b60209092019182526110c291609a916120eb565b50604080518082019091526001808252603160f81b60209092019182526110eb91609b916120eb565b506026609c558015611103576000805461ff00191690555b5050505050565b3390565b600082815260656020526040902061112690826115a6565b156107325761113361110a565b6001600160a01b0316816001600160a01b0316837f2f8788117e7eff1d82e926ec794901d17c78024a50270940304540a733656f0d60405160405180910390a45050565b600082815260656020526040902061118f90826115bb565b156107325761119c61110a565b6001600160a01b0316816001600160a01b0316837ff6391f5c32d9c69d2a47ea670b442974b53935d1edc7fd64eb21e047a839171b60405160405180910390a45050565b6111e8610886565b611230576040805162461bcd60e51b815260206004820152601460248201527314185d5cd8589b194e881b9bdd081c185d5cd95960621b604482015290519081900360640190fd5b6033805460ff191690557f5db9ee0a495bf2e6ff9c91a7834c1ba4fdd244a5e8aa4e537bd38aeae4b073aa61126361110a565b604080516001600160a01b039092168252519081900360200190a1565b611288610886565b156112cd576040805162461bcd60e51b815260206004820152601060248201526f14185d5cd8589b194e881c185d5cd95960821b604482015290519081900360640190fd5b6033805460ff191660011790557f62e78cea01bee320cd4e420270b5ea74000d11b0c9f74754ebdbfc544b05a25861126361110a565b600061091183836115d0565b6000610911836001600160a01b038416611634565b82516000908590829061133a908390839061164c565b90506113468187611755565b61135557600092505050611433565b8051600090611367908490600161164c565b90506113738187611755565b6113835760009350505050611433565b60006113a5835160010160018551875103038661164c9092919063ffffffff16565b9050858151146113bc576000945050505050611433565b825184516000916113d89187916001810191036006190161164c565b905060006113e5826117b9565b90508051600014156114005760009650505050505050611433565b600061140b86611914565b9050600061141982846119a9565b905060006114278683611755565b99505050505050505050505b949350505050565b600061091482611a8e565b600061145130611a92565b15905090565b600054610100900460ff16806114705750611470611446565b8061147e575060005460ff16155b6114b95760405162461bcd60e51b815260040180806020018281038252602e81526020018061220e602e913960400191505060405180910390fd5b600054610100900460ff161580156114e4576000805460ff1961ff0019909116610100171660011790555b6114ec611a98565b6114f4611a98565b8015611506576000805461ff00191690555b50565b600054610100900460ff16806115225750611522611446565b80611530575060005460ff16155b61156b5760405162461bcd60e51b815260040180806020018281038252602e81526020018061220e602e913960400191505060405180910390fd5b600054610100900460ff16158015611596576000805460ff1961ff0019909116610100171660011790555b61159e611a98565b6114f4611b38565b6000610911836001600160a01b038416611be3565b6000610911836001600160a01b038416611c2d565b815460009082106116125760405162461bcd60e51b815260040180806020018281038252602281526020018061218d6022913960400191505060405180910390fd5b82600001828154811061162157fe5b9060005260206000200154905092915050565b60009081526001919091016020526040902054151590565b60608182601f011015611697576040805162461bcd60e51b815260206004820152600e60248201526d736c6963655f6f766572666c6f7760901b604482015290519081900360640190fd5b818301845110156116e3576040805162461bcd60e51b8152602060048201526011602482015270736c6963655f6f75744f66426f756e647360781b604482015290519081900360640190fd5b606082158015611702576040519150600082526020820160405261174c565b6040519150601f8416801560200281840101858101878315602002848b0101015b8183101561173b578051835260209283019201611723565b5050858452601f01601f1916604052505b50949350505050565b81518151600091600191811480831461177157600092506117af565b600160208701838101602088015b6002848385100114156117aa57805183511461179e5760009650600093505b6020928301920161177f565b505050505b5090949350505050565b6060815167ffffffffffffffff811180156117d357600080fd5b506040519080825280602002602001820160405280156117fd578160200160208202803683370190505b50905060606000805b845181101561190c57600091505b60405180604001604052806020815260200160008051602061228b833981519152815250518210156118b55760405180604001604052806020815260200160008051602061228b833981519152815250828151811061186f57fe5b602001015160f81c60f81b6001600160f81b03191685828151811061189057fe5b01602001516001600160f81b03191614156118aa576118b5565b600190910190611814565b60405180604001604052806020815260200160008051602061228b833981519152815250518214156118ec5782935050505061063c565b818482815181106118f957fe5b6020908102919091010152600101611806565b505050919050565b6060815167ffffffffffffffff8111801561192e57600080fd5b50604051908082528060200260200182016040528015611958578160200160208202803683370190505b50905060005b82518110156119a35782818151811061197357fe5b602001015160f81c60f81b60f81c60ff1682828151811061199057fe5b602090810291909101015260010161195e565b50919050565b606060006119c0836119bb8686611cf3565b611d90565b90506000815167ffffffffffffffff811180156119dc57600080fd5b506040519080825280601f01601f191660200182016040528015611a07576020820181803683370190505b50905060005b825181101561174c5760405180604001604052806020815260200160008051602061228b833981519152815250838281518110611a4657fe5b602002602001015181518110611a5857fe5b602001015160f81c60f81b828281518110611a6f57fe5b60200101906001600160f81b031916908160001a905350600101611a0d565b5490565b3b151590565b600054610100900460ff1680611ab15750611ab1611446565b80611abf575060005460ff16155b611afa5760405162461bcd60e51b815260040180806020018281038252602e81526020018061220e602e913960400191505060405180910390fd5b600054610100900460ff161580156114f4576000805460ff1961ff0019909116610100171660011790558015611506576000805461ff001916905550565b600054610100900460ff1680611b515750611b51611446565b80611b5f575060005460ff16155b611b9a5760405162461bcd60e51b815260040180806020018281038252602e81526020018061220e602e913960400191505060405180910390fd5b600054610100900460ff16158015611bc5576000805460ff1961ff0019909116610100171660011790555b6033805460ff191690558015611506576000805461ff001916905550565b6000611bef8383611634565b611c2557508154600181810184556000848152602080822090930184905584548482528286019093526040902091909155610914565b506000610914565b60008181526001830160205260408120548015611ce95783546000198083019190810190600090879083908110611c6057fe5b9060005260206000200154905080876000018481548110611c7d57fe5b600091825260208083209091019290925582815260018981019092526040902090840190558654879080611cad57fe5b60019003818190600052602060002001600090559055866001016000878152602001908152602001600020600090556001945050505050610914565b6000915050610914565b60606000611d15611d0c611d0686611e63565b85611d90565b60006006611f60565b90506000611d2282612026565b60408051600680825260e082019092526001929092189250600091906020820160c08036833701905050905060005b6006811015611d86578060050360050283901c601f16828281518110611d7357fe5b6020908102919091010152600101611d51565b5095945050505050565b60606000825184510167ffffffffffffffff81118015611daf57600080fd5b50604051908082528060200260200182016040528015611dd9578160200160208202803683370190505b50905060005b8451811015611e1b57848181518110611df457fe5b6020026020010151828281518110611e0857fe5b6020908102919091010152600101611ddf565b60005b84518110156117af578451600182019186918110611e3857fe5b6020026020010151838380600101945081518110611e5257fe5b602002602001018181525050611e1e565b60606000825183510160010167ffffffffffffffff81118015611e8557600080fd5b50604051908082528060200260200182016040528015611eaf578160200160208202803683370190505b50905060005b8351811015611ef5576005848281518110611ecc57fe5b6020026020010151901c828281518110611ee257fe5b6020908102919091010152600101611eb5565b50600081845181518110611f0557fe5b60200260200101818152505060005b8351811015611f5957838181518110611f2957fe5b6020026020010151601f16828551830160010181518110611f4657fe5b6020908102919091010152600101611f14565b5092915050565b606060008285510167ffffffffffffffff81118015611f7e57600080fd5b50604051908082528060200260200182016040528015611fa8578160200160208202803683370190505b50905060005b8551811015611fea57858181518110611fc357fe5b6020026020010151828281518110611fd757fe5b6020908102919091010152600101611fae565b60005b8481101561201b578583838060010194508151811061200857fe5b6020908102919091010152600101611fed565b509095945050505050565b6040805160a081018252633b6a57b281526326508e6d6020820152631ea119fa91810191909152633d4233dd6060820152632a1462b360808201526000906001825b84518110156120e3576000601983901c905085828151811061208657fe5b60200260200101516005846301ffffff16901b18925060005b60058110156120d957600182821c811614156120d1578481600581106120c157fe5b602002015163ffffffff16841893505b60010161209f565b5050600101612068565b509392505050565b828054600181600116156101000203166002900490600052602060002090601f0160209004810192826121215760008555612167565b82601f1061213a57805160ff1916838001178555612167565b82800160010185558215612167579182015b8281111561216757825182559160200191906001019061214c565b50612173929150612177565b5090565b5b80821115612173576000815560010161217856fe456e756d657261626c655365743a20696e646578206f7574206f6620626f756e6473416363657373436f6e74726f6c3a2073656e646572206d75737420626520616e2061646d696e20746f206772616e74416363657373436f6e74726f6c3a2073656e646572206d75737420626520616e2061646d696e20746f207265766f6b65496e697469616c697a61626c653a20636f6e747261637420697320616c726561647920696e697469616c697a656465d7a28e3265b37a6474929f336521b332c1681b933f6cb9f3376673440d862a416363657373436f6e74726f6c3a2063616e206f6e6c792072656e6f756e636520726f6c657320666f722073656c6671707a7279397838676632747664773073336a6e35346b686365366d7561376ca2646970667358221220bb0c50b72ca4a626f0e99945aa4de438bc4b308366c8efcd64c49311c5f2448364736f6c63430007060033",
  "immutableReferences": {},
  "source": "/*\n Copyright [2019] - [2021], PERSISTENCE TECHNOLOGIES PTE. LTD. and the pStake-smartContracts contributors\n SPDX-License-Identifier: Apache-2.0\n*/\n\npragma solidity >=0.7.0;\n\nimport \"@openzeppelin/contracts-upgradeable/utils/PausableUpgradeable.sol\";\nimport \"@openzeppelin/contracts-upgradeable/access/AccessControlUpgradeable.sol\";\nimport \"./interfaces/IUTokensV3.sol\";\nimport \"./interfaces/ISTokensV3.sol\";\nimport \"./interfaces/ITokenWrapperV3.sol\";\nimport \"./interfaces/IMigrationAdminV2.sol\";\nimport \"./libraries/Bech32.sol\";\n\ncontract MigrationAdminV2 is\nIMigrationAdminV2,\nPausableUpgradeable,\nAccessControlUpgradeable\n{\n    using Bech32 for string;\n\n    //Private instances of contracts to handle Utokens\n    IUTokensV3 public _uTokens;\n    ISTokensV3 public _sTokens;\n    ITokenWrapperV3 public _tokenWrapper;\n\n    // constants defining access control ROLES\n    bytes32 public constant PAUSER_ROLE = keccak256(\"PAUSER_ROLE\");\n\n    //variables defining bech32 validation attributes\n    bytes public hrpBytes;\n    bytes public controlDigitBytes;\n    uint256 public dataBytesSize;\n\n    /*\n     * @dev Constructor for initializing the TokenWrapper contract.\n\t * @param uAddress - address of the UToken contract.\n\t * @param bridgeAdminAddress - address of the bridge admin.\n\t * @param pauserAddress - address of the pauser admin.\n\t * @param valueDivisor - valueDivisor set to 10^9.\n\t */\n    function initialize(\n        address uAddress,\n        address sAddress,\n        address tokenWrapperAddress,\n        address pauserAddress\n    ) public virtual initializer {\n        __AccessControl_init();\n        __Pausable_init();\n        _setupRole(DEFAULT_ADMIN_ROLE, _msgSender());\n        _setupRole(PAUSER_ROLE, pauserAddress);\n        setUTokensContract(uAddress);\n        setSTokensContract(sAddress);\n        setTokenWrapperContract(tokenWrapperAddress);\n        // setting bech32 validation attributes\n        hrpBytes = \"cosmos\";\n        controlDigitBytes = \"1\";\n        dataBytesSize = 38;\n    }\n\n    /*\n     * @dev Set 'contract address', called for utokens smart contract\n\t * @param sAddress: utoken contract address\n\t *\n\t * Emits a {SetUTokensContract} event with '_contract' set to the utoken contract address.\n\t *\n\t */\n    function setUTokensContract(address uAddress) public virtual override {\n        require(hasRole(DEFAULT_ADMIN_ROLE, _msgSender()), \"MA1\");\n        _uTokens = IUTokensV3(uAddress);\n        emit SetUTokensContract(uAddress);\n    }\n\n    /*\n     * @dev Set 'contract address', called for stokens smart contract\n\t * @param sAddress: stoken contract address\n\t *\n\t * Emits a {SetSTokensContract} event with '_contract' set to the stoken contract address.\n\t *\n\t */\n    function setSTokensContract(address sAddress) public virtual override {\n        require(hasRole(DEFAULT_ADMIN_ROLE, _msgSender()), \"MA2\");\n        _sTokens = ISTokensV3(sAddress);\n        emit SetSTokensContract(sAddress);\n    }\n\n    /*\n     * @dev Set 'contract address', called for tokenWrapper smart contract\n\t * @param sAddress: tokenWrapper contract address\n\t *\n\t * Emits a {SetTokenWrapperContract} event with '_contract' set to the tokenWrapper contract address.\n\t *\n\t */\n    function setTokenWrapperContract(address tokenWrapperAddress) public virtual override {\n        require(hasRole(DEFAULT_ADMIN_ROLE, _msgSender()), \"MA3\");\n        _tokenWrapper = ITokenWrapperV3(tokenWrapperAddress);\n        emit SetTokenWrapperContract(tokenWrapperAddress);\n    }\n\n    /**\n\t * @dev Migrating tokens\n\t * @param accountAddress: users address\n\t * @param toChainAddress: cosmos address\n\t *\n\t * Emits a {SetFees} event with 'fee' set to the withdraw.\n\t *\n\t */\n    function Migrate(address accountAddress, string memory toChainAddress)\n    public\n    virtual\n    override\n    returns (bool success)\n    {\n        require(accountAddress == _msgSender(), \"MA5\");\n        //check if toChainAddress is valid address as per Bech32 Validation\n        bool isAddressValid = toChainAddress.isBech32AddressValid(\n            hrpBytes,\n            controlDigitBytes,\n            dataBytesSize\n        );\n        require(isAddressValid == true, \"MA6\");\n\n        //claim pending rewards\n        _sTokens.calculateRewards(accountAddress);\n        emit ClaimPendingRewardsEvent(accountAddress);\n\n        //withdraw uTokens\n        // require user to hold enough UTokens balance\n        uint256 currentUTokenBalance = _uTokens.balanceOf(accountAddress);\n        _tokenWrapper.withdrawUTokens(accountAddress, currentUTokenBalance, toChainAddress);\n        emit WithdrawUTokensEvent(accountAddress, currentUTokenBalance, toChainAddress);\n        return true;\n    }\n\n    /**\n     * @dev Triggers stopped state.\n\t *\n\t */\n    function pause() public virtual override returns (bool success) {\n        require(hasRole(PAUSER_ROLE, _msgSender()), \"MA7\");\n        _pause();\n        return true;\n    }\n\n    /**\n     * @dev Returns to normal state.\n\t *\n\t */\n    function unpause() public virtual override returns (bool success) {\n        require(hasRole(PAUSER_ROLE, _msgSender()), \"MA8\");\n        _unpause();\n        return true;\n    }\n\n    /*\n     * @dev Set 'hrp bytes', called to check bech32 address\n\t * @param _hrpBytes: bech32 prefix\n\t */\n    function setHRPBytes(bytes memory _hrpBytes) public virtual override returns (bool success) {\n        require(hasRole(DEFAULT_ADMIN_ROLE, _msgSender()), \"MA9\");\n        hrpBytes = _hrpBytes;\n        return true;\n    }\n}\n",
  "sourcePath": "/Users/aditimaheshwari/Documents/Work/Persistence/Codebase/persistenceOne/pStake-smartContracts/contracts/MigrationAdminV2.sol",
  "compiler": {
    "name": "solc",
    "version": "0.7.6+commit.7338295f.Emscripten.clang"
  },
  "schemaVersion": "3.4.3",
  "updatedAt": "2022-08-16T09:17:51.441Z",
  "networkType": "ethereum",
  "devdoc": {
    "kind": "dev",
    "methods": {
      "Migrate(address,string)": {
        "details": "Migrating tokens",
        "params": {
          "accountAddress": ": users address",
          "toChainAddress": ": cosmos address Emits a {SetFees} event with 'fee' set to the withdraw."
        }
      },
      "getRoleAdmin(bytes32)": {
        "details": "Returns the admin role that controls `role`. See {grantRole} and {revokeRole}. To change a role's admin, use {_setRoleAdmin}."
      },
      "getRoleMember(bytes32,uint256)": {
        "details": "Returns one of the accounts that have `role`. `index` must be a value between 0 and {getRoleMemberCount}, non-inclusive. Role bearers are not sorted in any particular way, and their ordering may change at any point. WARNING: When using {getRoleMember} and {getRoleMemberCount}, make sure you perform all queries on the same block. See the following https://forum.openzeppelin.com/t/iterating-over-elements-on-enumerableset-in-openzeppelin-contracts/2296[forum post] for more information."
      },
      "getRoleMemberCount(bytes32)": {
        "details": "Returns the number of accounts that have `role`. Can be used together with {getRoleMember} to enumerate all bearers of a role."
      },
      "grantRole(bytes32,address)": {
        "details": "Grants `role` to `account`. If `account` had not been already granted `role`, emits a {RoleGranted} event. Requirements: - the caller must have ``role``'s admin role."
      },
      "hasRole(bytes32,address)": {
        "details": "Returns `true` if `account` has been granted `role`."
      },
      "pause()": {
        "details": "Triggers stopped state."
      },
      "paused()": {
        "details": "Returns true if the contract is paused, and false otherwise."
      },
      "renounceRole(bytes32,address)": {
        "details": "Revokes `role` from the calling account. Roles are often managed via {grantRole} and {revokeRole}: this function's purpose is to provide a mechanism for accounts to lose their privileges if they are compromised (such as when a trusted device is misplaced). If the calling account had been granted `role`, emits a {RoleRevoked} event. Requirements: - the caller must be `account`."
      },
      "revokeRole(bytes32,address)": {
        "details": "Revokes `role` from `account`. If `account` had been granted `role`, emits a {RoleRevoked} event. Requirements: - the caller must have ``role``'s admin role."
      },
      "setSTokensContract(address)": {
        "details": "Set STokens smart contract. Emits a {SetSTokensContract} event."
      },
      "setUTokensContract(address)": {
        "details": "Set UTokens smart contract. Emits a {SetUTokensContract} event."
      },
      "unpause()": {
        "details": "Returns to normal state."
      }
    },
    "version": 1
  },
  "userdoc": {
    "kind": "user",
    "methods": {},
    "version": 1
  }
}