{
  "contractName": "MigrationAdminV4",
  "abi": [
    {
      "anonymous": false,
      "inputs": [
        {
          "indexed": true,
          "internalType": "address",
          "name": "accountAddress",
          "type": "address"
        },
        {
          "indexed": false,
          "internalType": "uint256",
          "name": "currentSTokenBalance",
          "type": "uint256"
        }
      ],
      "name": "BurnSTokensEvent",
      "type": "event"
    },
    {
      "anonymous": false,
      "inputs": [
        {
          "indexed": true,
          "internalType": "address",
          "name": "accountAddress",
          "type": "address"
        }
      ],
      "name": "ClaimPendingRewardsEvent",
      "type": "event"
    },
    {
      "anonymous": false,
      "inputs": [
        {
          "indexed": true,
          "internalType": "address",
          "name": "accountAddress",
          "type": "address"
        }
      ],
      "name": "ClaimUnbondedRewardsEvent",
      "type": "event"
    },
    {
      "anonymous": false,
      "inputs": [
        {
          "indexed": false,
          "internalType": "address",
          "name": "account",
          "type": "address"
        }
      ],
      "name": "Paused",
      "type": "event"
    },
    {
      "anonymous": false,
      "inputs": [
        {
          "indexed": true,
          "internalType": "bytes32",
          "name": "role",
          "type": "bytes32"
        },
        {
          "indexed": true,
          "internalType": "bytes32",
          "name": "previousAdminRole",
          "type": "bytes32"
        },
        {
          "indexed": true,
          "internalType": "bytes32",
          "name": "newAdminRole",
          "type": "bytes32"
        }
      ],
      "name": "RoleAdminChanged",
      "type": "event"
    },
    {
      "anonymous": false,
      "inputs": [
        {
          "indexed": true,
          "internalType": "bytes32",
          "name": "role",
          "type": "bytes32"
        },
        {
          "indexed": true,
          "internalType": "address",
          "name": "account",
          "type": "address"
        },
        {
          "indexed": true,
          "internalType": "address",
          "name": "sender",
          "type": "address"
        }
      ],
      "name": "RoleGranted",
      "type": "event"
    },
    {
      "anonymous": false,
      "inputs": [
        {
          "indexed": true,
          "internalType": "bytes32",
          "name": "role",
          "type": "bytes32"
        },
        {
          "indexed": true,
          "internalType": "address",
          "name": "account",
          "type": "address"
        },
        {
          "indexed": true,
          "internalType": "address",
          "name": "sender",
          "type": "address"
        }
      ],
      "name": "RoleRevoked",
      "type": "event"
    },
    {
      "anonymous": false,
      "inputs": [
        {
          "indexed": true,
          "internalType": "address",
          "name": "_contract",
          "type": "address"
        }
      ],
      "name": "SetLiquidStakingContract",
      "type": "event"
    },
    {
      "anonymous": false,
      "inputs": [
        {
          "indexed": true,
          "internalType": "address",
          "name": "accountAddress",
          "type": "address"
        },
        {
          "indexed": false,
          "internalType": "uint256",
          "name": "currentSTokenBalance",
          "type": "uint256"
        },
        {
          "indexed": false,
          "internalType": "uint256",
          "name": "currentUTokenBalance",
          "type": "uint256"
        },
        {
          "indexed": false,
          "internalType": "string",
          "name": "toCosmosChainAddress",
          "type": "string"
        },
        {
          "indexed": false,
          "internalType": "string",
          "name": "toPersistenceChainAddress",
          "type": "string"
        }
      ],
      "name": "SetMigrationCompleteEvent",
      "type": "event"
    },
    {
      "anonymous": false,
      "inputs": [
        {
          "indexed": true,
          "internalType": "address",
          "name": "_contract",
          "type": "address"
        }
      ],
      "name": "SetSTokensContract",
      "type": "event"
    },
    {
      "anonymous": false,
      "inputs": [
        {
          "indexed": true,
          "internalType": "address",
          "name": "_contract",
          "type": "address"
        }
      ],
      "name": "SetTokenWrapperContract",
      "type": "event"
    },
    {
      "anonymous": false,
      "inputs": [
        {
          "indexed": true,
          "internalType": "address",
          "name": "_contract",
          "type": "address"
        }
      ],
      "name": "SetUTokensContract",
      "type": "event"
    },
    {
      "anonymous": false,
      "inputs": [
        {
          "indexed": false,
          "internalType": "address",
          "name": "account",
          "type": "address"
        }
      ],
      "name": "Unpaused",
      "type": "event"
    },
    {
      "anonymous": false,
      "inputs": [
        {
          "indexed": true,
          "internalType": "address",
          "name": "accountAddress",
          "type": "address"
        },
        {
          "indexed": false,
          "internalType": "uint256",
          "name": "currentUTokenBalance",
          "type": "uint256"
        },
        {
          "indexed": false,
          "internalType": "string",
          "name": "toCosmosChainAddress",
          "type": "string"
        }
      ],
      "name": "WithdrawUTokensEvent",
      "type": "event"
    },
    {
      "inputs": [],
      "name": "DEFAULT_ADMIN_ROLE",
      "outputs": [
        {
          "internalType": "bytes32",
          "name": "",
          "type": "bytes32"
        }
      ],
      "stateMutability": "view",
      "type": "function"
    },
    {
      "inputs": [],
      "name": "PAUSER_ROLE",
      "outputs": [
        {
          "internalType": "bytes32",
          "name": "",
          "type": "bytes32"
        }
      ],
      "stateMutability": "view",
      "type": "function"
    },
    {
      "inputs": [],
      "name": "_liquidStakingContract",
      "outputs": [
        {
          "internalType": "address",
          "name": "",
          "type": "address"
        }
      ],
      "stateMutability": "view",
      "type": "function"
    },
    {
      "inputs": [],
      "name": "_sTokens",
      "outputs": [
        {
          "internalType": "contract ISTokensV3",
          "name": "",
          "type": "address"
        }
      ],
      "stateMutability": "view",
      "type": "function"
    },
    {
      "inputs": [],
      "name": "_tokenWrapper",
      "outputs": [
        {
          "internalType": "contract ITokenWrapperV5",
          "name": "",
          "type": "address"
        }
      ],
      "stateMutability": "view",
      "type": "function"
    },
    {
      "inputs": [],
      "name": "_uTokens",
      "outputs": [
        {
          "internalType": "contract IUTokensV3",
          "name": "",
          "type": "address"
        }
      ],
      "stateMutability": "view",
      "type": "function"
    },
    {
      "inputs": [],
      "name": "controlDigitBytes",
      "outputs": [
        {
          "internalType": "bytes",
          "name": "",
          "type": "bytes"
        }
      ],
      "stateMutability": "view",
      "type": "function"
    },
    {
      "inputs": [],
      "name": "cosmosHrpBytes",
      "outputs": [
        {
          "internalType": "bytes",
          "name": "",
          "type": "bytes"
        }
      ],
      "stateMutability": "view",
      "type": "function"
    },
    {
      "inputs": [],
      "name": "dataBytesSize",
      "outputs": [
        {
          "internalType": "uint256",
          "name": "",
          "type": "uint256"
        }
      ],
      "stateMutability": "view",
      "type": "function"
    },
    {
      "inputs": [
        {
          "internalType": "bytes32",
          "name": "role",
          "type": "bytes32"
        }
      ],
      "name": "getRoleAdmin",
      "outputs": [
        {
          "internalType": "bytes32",
          "name": "",
          "type": "bytes32"
        }
      ],
      "stateMutability": "view",
      "type": "function"
    },
    {
      "inputs": [
        {
          "internalType": "bytes32",
          "name": "role",
          "type": "bytes32"
        },
        {
          "internalType": "uint256",
          "name": "index",
          "type": "uint256"
        }
      ],
      "name": "getRoleMember",
      "outputs": [
        {
          "internalType": "address",
          "name": "",
          "type": "address"
        }
      ],
      "stateMutability": "view",
      "type": "function"
    },
    {
      "inputs": [
        {
          "internalType": "bytes32",
          "name": "role",
          "type": "bytes32"
        }
      ],
      "name": "getRoleMemberCount",
      "outputs": [
        {
          "internalType": "uint256",
          "name": "",
          "type": "uint256"
        }
      ],
      "stateMutability": "view",
      "type": "function"
    },
    {
      "inputs": [
        {
          "internalType": "bytes32",
          "name": "role",
          "type": "bytes32"
        },
        {
          "internalType": "address",
          "name": "account",
          "type": "address"
        }
      ],
      "name": "grantRole",
      "outputs": [],
      "stateMutability": "nonpayable",
      "type": "function"
    },
    {
      "inputs": [
        {
          "internalType": "bytes32",
          "name": "role",
          "type": "bytes32"
        },
        {
          "internalType": "address",
          "name": "account",
          "type": "address"
        }
      ],
      "name": "hasRole",
      "outputs": [
        {
          "internalType": "bool",
          "name": "",
          "type": "bool"
        }
      ],
      "stateMutability": "view",
      "type": "function"
    },
    {
      "inputs": [],
      "name": "hrpBytes",
      "outputs": [
        {
          "internalType": "bytes",
          "name": "",
          "type": "bytes"
        }
      ],
      "stateMutability": "view",
      "type": "function"
    },
    {
      "inputs": [],
      "name": "paused",
      "outputs": [
        {
          "internalType": "bool",
          "name": "",
          "type": "bool"
        }
      ],
      "stateMutability": "view",
      "type": "function"
    },
    {
      "inputs": [
        {
          "internalType": "bytes32",
          "name": "role",
          "type": "bytes32"
        },
        {
          "internalType": "address",
          "name": "account",
          "type": "address"
        }
      ],
      "name": "renounceRole",
      "outputs": [],
      "stateMutability": "nonpayable",
      "type": "function"
    },
    {
      "inputs": [
        {
          "internalType": "bytes32",
          "name": "role",
          "type": "bytes32"
        },
        {
          "internalType": "address",
          "name": "account",
          "type": "address"
        }
      ],
      "name": "revokeRole",
      "outputs": [],
      "stateMutability": "nonpayable",
      "type": "function"
    },
    {
      "inputs": [
        {
          "internalType": "address",
          "name": "uAddress",
          "type": "address"
        },
        {
          "internalType": "address",
          "name": "sAddress",
          "type": "address"
        },
        {
          "internalType": "address",
          "name": "tokenWrapperAddress",
          "type": "address"
        },
        {
          "internalType": "address",
          "name": "pauserAddress",
          "type": "address"
        }
      ],
      "name": "initialize",
      "outputs": [],
      "stateMutability": "nonpayable",
      "type": "function"
    },
    {
      "inputs": [
        {
          "internalType": "address",
          "name": "uAddress",
          "type": "address"
        }
      ],
      "name": "setUTokensContract",
      "outputs": [],
      "stateMutability": "nonpayable",
      "type": "function"
    },
    {
      "inputs": [
        {
          "internalType": "address",
          "name": "sAddress",
          "type": "address"
        }
      ],
      "name": "setSTokensContract",
      "outputs": [],
      "stateMutability": "nonpayable",
      "type": "function"
    },
    {
      "inputs": [
        {
          "internalType": "address",
          "name": "tokenWrapperAddress",
          "type": "address"
        }
      ],
      "name": "setTokenWrapperContract",
      "outputs": [],
      "stateMutability": "nonpayable",
      "type": "function"
    },
    {
      "inputs": [
        {
          "internalType": "address",
          "name": "liquidStakingAddress",
          "type": "address"
        }
      ],
      "name": "setLiquidStakingContract",
      "outputs": [],
      "stateMutability": "nonpayable",
      "type": "function"
    },
    {
      "inputs": [
        {
          "internalType": "address",
          "name": "accountAddress",
          "type": "address"
        },
        {
          "internalType": "string",
          "name": "toChainAddress",
          "type": "string"
        },
        {
          "internalType": "string",
          "name": "toCosmosChainAddress",
          "type": "string"
        }
      ],
      "name": "Migrate",
      "outputs": [
        {
          "internalType": "bool",
          "name": "success",
          "type": "bool"
        }
      ],
      "stateMutability": "nonpayable",
      "type": "function"
    },
    {
      "inputs": [],
      "name": "pause",
      "outputs": [
        {
          "internalType": "bool",
          "name": "success",
          "type": "bool"
        }
      ],
      "stateMutability": "nonpayable",
      "type": "function"
    },
    {
      "inputs": [],
      "name": "unpause",
      "outputs": [
        {
          "internalType": "bool",
          "name": "success",
          "type": "bool"
        }
      ],
      "stateMutability": "nonpayable",
      "type": "function"
    },
    {
      "inputs": [
        {
          "internalType": "bytes",
          "name": "_hrpBytes",
          "type": "bytes"
        }
      ],
      "name": "setHRPBytes",
      "outputs": [
        {
          "internalType": "bool",
          "name": "success",
          "type": "bool"
        }
      ],
      "stateMutability": "nonpayable",
      "type": "function"
    },
    {
      "inputs": [
        {
          "internalType": "bytes",
          "name": "_hrpBytes",
          "type": "bytes"
        }
      ],
      "name": "setCosmosHRPBytes",
      "outputs": [
        {
          "internalType": "bool",
          "name": "success",
          "type": "bool"
        }
      ],
      "stateMutability": "nonpayable",
      "type": "function"
    }
  ],
  "bytecode": "0x608060405234801561001057600080fd5b50612a35806100206000396000f3fe608060405234801561001057600080fd5b50600436106101c35760003560e01c80638456cb59116100f9578063ca15c87311610097578063d79cf55a11610071578063d79cf55a146106f7578063e3ac914b146106ff578063e63ab1e914610707578063f8c8765e1461070f576101c3565b8063ca15c873146106a6578063d37f5598146106c3578063d547741f146106cb576101c3565b80639bd1700e116100d35780639bd1700e1461054e578063a217fddf146105f2578063a53dcd72146105fa578063aedfab3c14610602576101c3565b80638456cb59146104f75780639010d07c146104ff57806391d1485414610522576101c3565b806331b188cc1161016657806358f8943e1161014057806358f8943e146104b95780635c975abb146104df57806378a2f074146104e7578063793105d8146104ef576101c3565b806331b188cc1461045f57806336568abe146104855780633f4ba83a146104b1576101c3565b806321bdf9e5116101a257806321bdf9e5146103b6578063248a9ca3146103de5780632e31fab81461040d5780632f2ff15d14610433576101c3565b8062359ab9146101c857806302c67b60146103155780630f06171814610339575b600080fd5b610301600480360360608110156101de57600080fd5b6001600160a01b038235169190810190604081016020820135600160201b81111561020857600080fd5b82018360208201111561021a57600080fd5b803590602001918460018302840111600160201b8311171561023b57600080fd5b91908080601f0160208091040260200160405190810160405280939291908181526020018383808284376000920191909152509295949360208101935035915050600160201b81111561028d57600080fd5b82018360208201111561029f57600080fd5b803590602001918460018302840111600160201b831117156102c057600080fd5b91908080601f01602080910402602001604051908101604052809392919081815260200183838082843760009201919091525092955061074d945050505050565b604080519115158252519081900360200190f35b61031d611021565b604080516001600160a01b039092168252519081900360200190f35b610341611030565b6040805160208082528351818301528351919283929083019185019080838360005b8381101561037b578181015183820152602001610363565b50505050905090810190601f1680156103a85780820380516001836020036101000a031916815260200191505b509250505060405180910390f35b6103dc600480360360208110156103cc57600080fd5b50356001600160a01b03166110be565b005b6103fb600480360360208110156103f457600080fd5b5035611151565b60408051918252519081900360200190f35b6103dc6004803603602081101561042357600080fd5b50356001600160a01b0316611169565b6103dc6004803603604081101561044957600080fd5b50803590602001356001600160a01b03166111f7565b6103dc6004803603602081101561047557600080fd5b50356001600160a01b031661125e565b6103dc6004803603604081101561049b57600080fd5b50803590602001356001600160a01b03166112ec565b61030161134d565b6103dc600480360360208110156104cf57600080fd5b50356001600160a01b03166113ae565b61030161143f565b61031d611448565b61031d611457565b610301611466565b61031d6004803603604081101561051557600080fd5b50803590602001356114c1565b6103016004803603604081101561053857600080fd5b50803590602001356001600160a01b03166114e2565b6103016004803603602081101561056457600080fd5b810190602081018135600160201b81111561057e57600080fd5b82018360208201111561059057600080fd5b803590602001918460018302840111600160201b831117156105b157600080fd5b91908080601f0160208091040260200160405190810160405280939291908181526020018383808284376000920191909152509295506114fa945050505050565b6103fb61155e565b610341611563565b6103016004803603602081101561061857600080fd5b810190602081018135600160201b81111561063257600080fd5b82018360208201111561064457600080fd5b803590602001918460018302840111600160201b8311171561066557600080fd5b91908080601f0160208091040260200160405190810160405280939291908181526020018383808284376000920191909152509295506115be945050505050565b6103fb600480360360208110156106bc57600080fd5b5035611616565b61034161162d565b6103dc600480360360408110156106e157600080fd5b50803590602001356001600160a01b0316611688565b61031d6116e1565b6103fb6116f0565b6103fb6116f6565b6103dc6004803603608081101561072557600080fd5b506001600160a01b038135811691602081013582169160408201358116916060013516611708565b600061075761185f565b6001600160a01b0316846001600160a01b0316146107a2576040805162461bcd60e51b81526020600482015260036024820152624d413560e81b604482015290519081900360640190fd5b609a805460408051602060026001851615610100026000190190941693909304601f81018490048402820184019092528181526000936108d193919290918301828280156108315780601f1061080657610100808354040283529160200191610831565b820191906000526020600020905b81548152906001019060200180831161081457829003601f168201915b5050609b8054604080516020601f60026000196101006001881615020190951694909404938401819004810282018101909252828152955091935091508301828280156108bf5780601f10610894576101008083540402835291602001916108bf565b820191906000526020600020905b8154815290600101906020018083116108a257829003601f168201915b5050609c548a95949350915050611863565b9050600181151514610910576040805162461bcd60e51b815260206004820152600360248201526226a09b60e91b604482015290519081900360640190fd5b609d805460408051602060026001851615610100026000190190941693909304601f810184900484028201840190925281815260009361097493919290918301828280156108315780601f1061080657610100808354040283529160200191610831565b90506001811515146109b6576040805162461bcd60e51b815260206004808301919091526024820152634d41313160e01b604482015290519081900360640190fd5b609854604080516364ab867560e01b81526001600160a01b038981166004830152915191909216916364ab86759160248083019260209291908290030181600087803b158015610a0557600080fd5b505af1158015610a19573d6000803e3d6000fd5b505050506040513d6020811015610a2f57600080fd5b50506040516001600160a01b038716907f3ce76091fe99d13ed35d6f2fb35abe5986f4499adbe050e7c78ed442d4f28cbd90600090a2609e5460408051630273b70d60e01b81526001600160a01b03898116600483015291516000939290921691630273b70d91602480820192602092909190829003018186803b158015610ab657600080fd5b505afa158015610aca573d6000803e3d6000fd5b505050506040513d6020811015610ae057600080fd5b505190508015610b9a57609e546040805163040c810560e51b81526001600160a01b038a811660048301529151919092169163819020a09160248083019260209291908290030181600087803b158015610b3957600080fd5b505af1158015610b4d573d6000803e3d6000fd5b505050506040513d6020811015610b6357600080fd5b50506040516001600160a01b038816907f8fd06ec0d3d2129524d4113d5ceaa7c51e3e58f789323ca39c101cfc15332caa90600090a25b609754604080516370a0823160e01b81526001600160a01b038a81166004830152915160009392909216916370a0823191602480820192602092909190829003018186803b158015610beb57600080fd5b505afa158015610bff573d6000803e3d6000fd5b505050506040513d6020811015610c1557600080fd5b5051609954604051632145f74f60e11b81526001600160a01b038b811660048301908152602483018590526060604484019081528b5160648501528b51959650919093169363428bee9e938d9387938d93909160840190602085019080838360005b83811015610c8f578181015183820152602001610c77565b50505050905090810190601f168015610cbc5780820380516001836020036101000a031916815260200191505b50945050505050602060405180830381600087803b158015610cdd57600080fd5b505af1158015610cf1573d6000803e3d6000fd5b505050506040513d6020811015610d0757600080fd5b50506040805182815260208181018381528a519383019390935289516001600160a01b038c16937f4f4d8f18694e977d000a45e7f6a3389e58e6929e9b421ea97afe01389b5dea1c9386938d93919291606084019185019080838360005b83811015610d7d578181015183820152602001610d65565b50505050905090810190601f168015610daa5780820380516001836020036101000a031916815260200191505b50935050505060405180910390a2609854604080516370a0823160e01b81526001600160a01b038b81166004830152915160009392909216916370a0823191602480820192602092909190829003018186803b158015610e0957600080fd5b505afa158015610e1d573d6000803e3d6000fd5b505050506040513d6020811015610e3357600080fd5b505160985460408051632770a7eb60e21b81526001600160a01b038d81166004830152602482018590529151939450911691639dc29fac916044808201926020929091908290030181600087803b158015610e8d57600080fd5b505af1158015610ea1573d6000803e3d6000fd5b505050506040513d6020811015610eb757600080fd5b50506040805182815290516001600160a01b038b16917f1b7807c1c7a1a3599870f501baed4109db6b6bee72316453a6859e56cc0fad8a919081900360200190a2886001600160a01b03167fd442b3c1faf6a5e8f0110772607f97d772fb8ed3076bc89df4508f7e4f923d8c82848a8c604051808581526020018481526020018060200180602001838103835285818151815260200191508051906020019080838360005b83811015610f74578181015183820152602001610f5c565b50505050905090810190601f168015610fa15780820380516001836020036101000a031916815260200191505b50838103825284518152845160209182019186019080838360005b83811015610fd4578181015183820152602001610fbc565b50505050905090810190601f1680156110015780820380516001836020036101000a031916815260200191505b50965050505050505060405180910390a250600198975050505050505050565b6099546001600160a01b031681565b609d805460408051602060026001851615610100026000190190941693909304601f810184900484028201840190925281815292918301828280156110b65780601f1061108b576101008083540402835291602001916110b6565b820191906000526020600020905b81548152906001019060200180831161109957829003601f168201915b505050505081565b6110d060006110cb61185f565b6114e2565b611107576040805162461bcd60e51b81526020600482015260036024820152624d413160e81b604482015290519081900360640190fd5b609780546001600160a01b0319166001600160a01b0383169081179091556040517ff745c285f36f88bea6af14d4d0f33dd9350cef7895216c1615b1caaee7857e0c90600090a250565b6000818152606560205260409020600201545b919050565b61117660006110cb61185f565b6111ad576040805162461bcd60e51b815260206004820152600360248201526226a09960e91b604482015290519081900360640190fd5b609880546001600160a01b0319166001600160a01b0383169081179091556040517fd0b9dbe26f676f4cdb02fc249c203baa0314cec79e18b4194dc862795a5de03f90600090a250565b600082815260656020526040902060020154611215906110cb61185f565b6112505760405162461bcd60e51b815260040180806020018281038252602f815260200180612904602f913960400191505060405180910390fd5b61125a828261197a565b5050565b61126b60006110cb61185f565b6112a2576040805162461bcd60e51b81526020600482015260036024820152624d413360e81b604482015290519081900360640190fd5b609980546001600160a01b0319166001600160a01b0383169081179091556040517f2f9f272420570ea07d7da789fdc59a50c36792d6ea4f49a4d218b6f2431d049290600090a250565b6112f461185f565b6001600160a01b0316816001600160a01b0316146113435760405162461bcd60e51b815260040180806020018281038252602f8152602001806129b1602f913960400191505060405180910390fd5b61125a82826119e3565b60006113696000805160206129918339815191526110cb61185f565b6113a0576040805162461bcd60e51b815260206004820152600360248201526209a82760eb1b604482015290519081900360640190fd5b6113a8611a4c565b50600190565b6113bb60006110cb61185f565b6113f5576040805162461bcd60e51b8152602060048083019190915260248201526326a0989960e11b604482015290519081900360640190fd5b609e80546001600160a01b0319166001600160a01b0383169081179091556040517f57fded54c0f01b7b2c662bd89530d6916e48149e02da384db87d1a67306be87190600090a250565b60335460ff1690565b6097546001600160a01b031681565b609e546001600160a01b031681565b60006114826000805160206129918339815191526110cb61185f565b6114b9576040805162461bcd60e51b81526020600482015260036024820152624d413760e81b604482015290519081900360640190fd5b6113a8611aec565b60008281526065602052604081206114d99083611b6f565b90505b92915050565b60008281526065602052604081206114d99083611b7b565b6000611508816110cb61185f565b611542576040805162461bcd60e51b8152602060048083019190915260248201526304d4131360e41b604482015290519081900360640190fd5b815161155590609d906020850190612840565b50600192915050565b600081565b609b805460408051602060026001851615610100026000190190941693909304601f810184900484028201840190925281815292918301828280156110b65780601f1061108b576101008083540402835291602001916110b6565b60006115cc816110cb61185f565b611603576040805162461bcd60e51b81526020600482015260036024820152624d413960e81b604482015290519081900360640190fd5b815161155590609a906020850190612840565b60008181526065602052604081206114dc90611b90565b609a805460408051602060026001851615610100026000190190941693909304601f810184900484028201840190925281815292918301828280156110b65780601f1061108b576101008083540402835291602001916110b6565b6000828152606560205260409020600201546116a6906110cb61185f565b6113435760405162461bcd60e51b81526004018080602001828103825260308152602001806129336030913960400191505060405180910390fd5b6098546001600160a01b031681565b609c5481565b60008051602061299183398151915281565b600054610100900460ff16806117215750611721611b9b565b8061172f575060005460ff16155b61176a5760405162461bcd60e51b815260040180806020018281038252602e815260200180612963602e913960400191505060405180910390fd5b600054610100900460ff16158015611795576000805460ff1961ff0019909116610100171660011790555b61179d611bac565b6117a5611c5e565b6117b760006117b261185f565b611250565b6117cf60008051602061299183398151915283611250565b6117d8856110be565b6117e184611169565b6117ea8361125e565b60408051808201909152600680825265636f736d6f7360d01b602090920191825261181791609a91612840565b50604080518082019091526001808252603160f81b602090920191825261184091609b91612840565b506026609c558015611858576000805461ff00191690555b5050505050565b3390565b8251600090859082906118799083908390611cfb565b90506118858187611e04565b61189457600092505050611972565b80516000906118a69084906001611cfb565b90506118b28187611e04565b6118c25760009350505050611972565b60006118e48351600101600185518751030386611cfb9092919063ffffffff16565b9050858151146118fb576000945050505050611972565b8251845160009161191791879160018101910360061901611cfb565b9050600061192482611e68565b905080516000141561193f5760009650505050505050611972565b600061194a86611fc3565b905060006119588284612058565b905060006119668683611e04565b99505050505050505050505b949350505050565b6000828152606560205260409020611992908261213d565b1561125a5761199f61185f565b6001600160a01b0316816001600160a01b0316837f2f8788117e7eff1d82e926ec794901d17c78024a50270940304540a733656f0d60405160405180910390a45050565b60008281526065602052604090206119fb9082612152565b1561125a57611a0861185f565b6001600160a01b0316816001600160a01b0316837ff6391f5c32d9c69d2a47ea670b442974b53935d1edc7fd64eb21e047a839171b60405160405180910390a45050565b611a5461143f565b611a9c576040805162461bcd60e51b815260206004820152601460248201527314185d5cd8589b194e881b9bdd081c185d5cd95960621b604482015290519081900360640190fd5b6033805460ff191690557f5db9ee0a495bf2e6ff9c91a7834c1ba4fdd244a5e8aa4e537bd38aeae4b073aa611acf61185f565b604080516001600160a01b039092168252519081900360200190a1565b611af461143f565b15611b39576040805162461bcd60e51b815260206004820152601060248201526f14185d5cd8589b194e881c185d5cd95960821b604482015290519081900360640190fd5b6033805460ff191660011790557f62e78cea01bee320cd4e420270b5ea74000d11b0c9f74754ebdbfc544b05a258611acf61185f565b60006114d98383612167565b60006114d9836001600160a01b0384166121cb565b60006114dc826121e3565b6000611ba6306121e7565b15905090565b600054610100900460ff1680611bc55750611bc5611b9b565b80611bd3575060005460ff16155b611c0e5760405162461bcd60e51b815260040180806020018281038252602e815260200180612963602e913960400191505060405180910390fd5b600054610100900460ff16158015611c39576000805460ff1961ff0019909116610100171660011790555b611c416121ed565b611c496121ed565b8015611c5b576000805461ff00191690555b50565b600054610100900460ff1680611c775750611c77611b9b565b80611c85575060005460ff16155b611cc05760405162461bcd60e51b815260040180806020018281038252602e815260200180612963602e913960400191505060405180910390fd5b600054610100900460ff16158015611ceb576000805460ff1961ff0019909116610100171660011790555b611cf36121ed565b611c4961228d565b60608182601f011015611d46576040805162461bcd60e51b815260206004820152600e60248201526d736c6963655f6f766572666c6f7760901b604482015290519081900360640190fd5b81830184511015611d92576040805162461bcd60e51b8152602060048201526011602482015270736c6963655f6f75744f66426f756e647360781b604482015290519081900360640190fd5b606082158015611db15760405191506000825260208201604052611dfb565b6040519150601f8416801560200281840101858101878315602002848b0101015b81831015611dea578051835260209283019201611dd2565b5050858452601f01601f1916604052505b50949350505050565b815181516000916001918114808314611e205760009250611e5e565b600160208701838101602088015b600284838510011415611e59578051835114611e4d5760009650600093505b60209283019201611e2e565b505050505b5090949350505050565b6060815167ffffffffffffffff81118015611e8257600080fd5b50604051908082528060200260200182016040528015611eac578160200160208202803683370190505b50905060606000805b8451811015611fbb57600091505b6040518060400160405280602081526020016000805160206129e083398151915281525051821015611f64576040518060400160405280602081526020016000805160206129e08339815191528152508281518110611f1e57fe5b602001015160f81c60f81b6001600160f81b031916858281518110611f3f57fe5b01602001516001600160f81b0319161415611f5957611f64565b600190910190611ec3565b6040518060400160405280602081526020016000805160206129e083398151915281525051821415611f9b57829350505050611164565b81848281518110611fa857fe5b6020908102919091010152600101611eb5565b505050919050565b6060815167ffffffffffffffff81118015611fdd57600080fd5b50604051908082528060200260200182016040528015612007578160200160208202803683370190505b50905060005b82518110156120525782818151811061202257fe5b602001015160f81c60f81b60f81c60ff1682828151811061203f57fe5b602090810291909101015260010161200d565b50919050565b6060600061206f8361206a8686612338565b6123d5565b90506000815167ffffffffffffffff8111801561208b57600080fd5b506040519080825280601f01601f1916602001820160405280156120b6576020820181803683370190505b50905060005b8251811015611dfb576040518060400160405280602081526020016000805160206129e08339815191528152508382815181106120f557fe5b60200260200101518151811061210757fe5b602001015160f81c60f81b82828151811061211e57fe5b60200101906001600160f81b031916908160001a9053506001016120bc565b60006114d9836001600160a01b0384166124a8565b60006114d9836001600160a01b0384166124f2565b815460009082106121a95760405162461bcd60e51b81526004018080602001828103825260228152602001806128e26022913960400191505060405180910390fd5b8260000182815481106121b857fe5b9060005260206000200154905092915050565b60009081526001919091016020526040902054151590565b5490565b3b151590565b600054610100900460ff16806122065750612206611b9b565b80612214575060005460ff16155b61224f5760405162461bcd60e51b815260040180806020018281038252602e815260200180612963602e913960400191505060405180910390fd5b600054610100900460ff16158015611c49576000805460ff1961ff0019909116610100171660011790558015611c5b576000805461ff001916905550565b600054610100900460ff16806122a657506122a6611b9b565b806122b4575060005460ff16155b6122ef5760405162461bcd60e51b815260040180806020018281038252602e815260200180612963602e913960400191505060405180910390fd5b600054610100900460ff1615801561231a576000805460ff1961ff0019909116610100171660011790555b6033805460ff191690558015611c5b576000805461ff001916905550565b6060600061235a61235161234b866125b8565b856123d5565b600060066126b5565b905060006123678261277b565b60408051600680825260e082019092526001929092189250600091906020820160c08036833701905050905060005b60068110156123cb578060050360050283901c601f168282815181106123b857fe5b6020908102919091010152600101612396565b5095945050505050565b60606000825184510167ffffffffffffffff811180156123f457600080fd5b5060405190808252806020026020018201604052801561241e578160200160208202803683370190505b50905060005b84518110156124605784818151811061243957fe5b602002602001015182828151811061244d57fe5b6020908102919091010152600101612424565b60005b8451811015611e5e57845160018201918691811061247d57fe5b602002602001015183838060010194508151811061249757fe5b602002602001018181525050612463565b60006124b483836121cb565b6124ea575081546001818101845560008481526020808220909301849055845484825282860190935260409020919091556114dc565b5060006114dc565b600081815260018301602052604081205480156125ae578354600019808301919081019060009087908390811061252557fe5b906000526020600020015490508087600001848154811061254257fe5b60009182526020808320909101929092558281526001898101909252604090209084019055865487908061257257fe5b600190038181906000526020600020016000905590558660010160008781526020019081526020016000206000905560019450505050506114dc565b60009150506114dc565b60606000825183510160010167ffffffffffffffff811180156125da57600080fd5b50604051908082528060200260200182016040528015612604578160200160208202803683370190505b50905060005b835181101561264a57600584828151811061262157fe5b6020026020010151901c82828151811061263757fe5b602090810291909101015260010161260a565b5060008184518151811061265a57fe5b60200260200101818152505060005b83518110156126ae5783818151811061267e57fe5b6020026020010151601f1682855183016001018151811061269b57fe5b6020908102919091010152600101612669565b5092915050565b606060008285510167ffffffffffffffff811180156126d357600080fd5b506040519080825280602002602001820160405280156126fd578160200160208202803683370190505b50905060005b855181101561273f5785818151811061271857fe5b602002602001015182828151811061272c57fe5b6020908102919091010152600101612703565b60005b84811015612770578583838060010194508151811061275d57fe5b6020908102919091010152600101612742565b509095945050505050565b6040805160a081018252633b6a57b281526326508e6d6020820152631ea119fa91810191909152633d4233dd6060820152632a1462b360808201526000906001825b8451811015612838576000601983901c90508582815181106127db57fe5b60200260200101516005846301ffffff16901b18925060005b600581101561282e57600182821c811614156128265784816005811061281657fe5b602002015163ffffffff16841893505b6001016127f4565b50506001016127bd565b509392505050565b828054600181600116156101000203166002900490600052602060002090601f01602090048101928261287657600085556128bc565b82601f1061288f57805160ff19168380011785556128bc565b828001600101855582156128bc579182015b828111156128bc5782518255916020019190600101906128a1565b506128c89291506128cc565b5090565b5b808211156128c857600081556001016128cd56fe456e756d657261626c655365743a20696e646578206f7574206f6620626f756e6473416363657373436f6e74726f6c3a2073656e646572206d75737420626520616e2061646d696e20746f206772616e74416363657373436f6e74726f6c3a2073656e646572206d75737420626520616e2061646d696e20746f207265766f6b65496e697469616c697a61626c653a20636f6e747261637420697320616c726561647920696e697469616c697a656465d7a28e3265b37a6474929f336521b332c1681b933f6cb9f3376673440d862a416363657373436f6e74726f6c3a2063616e206f6e6c792072656e6f756e636520726f6c657320666f722073656c6671707a7279397838676632747664773073336a6e35346b686365366d7561376ca26469706673582212206b095971c2936ac82e30f049f848045810fd1878d2bfe10593d0858f735db0ce64736f6c63430007060033",
  "immutableReferences": {},
  "source": "/*\n Copyright [2019] - [2021], PERSISTENCE TECHNOLOGIES PTE. LTD. and the pStake-smartContracts contributors\n SPDX-License-Identifier: Apache-2.0\n*/\n\npragma solidity >=0.7.0;\n\nimport \"@openzeppelin/contracts-upgradeable/utils/PausableUpgradeable.sol\";\nimport \"@openzeppelin/contracts-upgradeable/access/AccessControlUpgradeable.sol\";\nimport \"./interfaces/IUTokensV3.sol\";\nimport \"./interfaces/ISTokensV3.sol\";\nimport \"./interfaces/ITokenWrapperV5.sol\";\nimport \"./interfaces/IMigrationAdminV3.sol\";\nimport \"./interfaces/ILiquidStakingV4.sol\";\nimport \"./libraries/Bech32.sol\";\n\ncontract MigrationAdminV4 is\nIMigrationAdminV3,\nPausableUpgradeable,\nAccessControlUpgradeable\n{\n    using Bech32 for string;\n\n    //Private instances of contracts to handle Utokens\n    IUTokensV3 public _uTokens;\n    ISTokensV3 public _sTokens;\n    ITokenWrapperV5 public _tokenWrapper;\n\n    // constants defining access control ROLES\n    bytes32 public constant PAUSER_ROLE = keccak256(\"PAUSER_ROLE\");\n\n    //variables defining bech32 validation attributes\n    bytes public hrpBytes;\n    bytes public controlDigitBytes;\n    uint256 public dataBytesSize;\n    bytes public cosmosHrpBytes;\n\n    // Liquid staking contract address\n    address public override _liquidStakingContract;\n\n    /*\n     * @dev Constructor for initializing the TokenWrapper contract.\n\t * @param uAddress - address of the UToken contract.\n\t * @param bridgeAdminAddress - address of the bridge admin.\n\t * @param pauserAddress - address of the pauser admin.\n\t * @param valueDivisor - valueDivisor set to 10^9.\n\t */\n    function initialize(\n        address uAddress,\n        address sAddress,\n        address tokenWrapperAddress,\n        address pauserAddress\n    ) public virtual initializer {\n        __AccessControl_init();\n        __Pausable_init();\n        _setupRole(DEFAULT_ADMIN_ROLE, _msgSender());\n        _setupRole(PAUSER_ROLE, pauserAddress);\n        setUTokensContract(uAddress);\n        setSTokensContract(sAddress);\n        setTokenWrapperContract(tokenWrapperAddress);\n        // setting bech32 validation attributes\n        hrpBytes = \"cosmos\";\n        controlDigitBytes = \"1\";\n        dataBytesSize = 38;\n    }\n\n    /*\n     * @dev Set 'contract address', called for utokens smart contract\n\t * @param sAddress: utoken contract address\n\t *\n\t * Emits a {SetUTokensContract} event with '_contract' set to the utoken contract address.\n\t *\n\t */\n    function setUTokensContract(address uAddress) public virtual override {\n        require(hasRole(DEFAULT_ADMIN_ROLE, _msgSender()), \"MA1\");\n        _uTokens = IUTokensV3(uAddress);\n        emit SetUTokensContract(uAddress);\n    }\n\n    /*\n     * @dev Set 'contract address', called for stokens smart contract\n\t * @param sAddress: stoken contract address\n\t *\n\t * Emits a {SetSTokensContract} event with '_contract' set to the stoken contract address.\n\t *\n\t */\n    function setSTokensContract(address sAddress) public virtual override {\n        require(hasRole(DEFAULT_ADMIN_ROLE, _msgSender()), \"MA2\");\n        _sTokens = ISTokensV3(sAddress);\n        emit SetSTokensContract(sAddress);\n    }\n\n    /*\n     * @dev Set 'contract address', called for tokenWrapper smart contract\n\t * @param sAddress: tokenWrapper contract address\n\t *\n\t * Emits a {SetTokenWrapperContract} event with '_contract' set to the tokenWrapper contract address.\n\t *\n\t */\n    function setTokenWrapperContract(address tokenWrapperAddress) public virtual override {\n        require(hasRole(DEFAULT_ADMIN_ROLE, _msgSender()), \"MA3\");\n        _tokenWrapper = ITokenWrapperV5(tokenWrapperAddress);\n        emit SetTokenWrapperContract(tokenWrapperAddress);\n    }\n\n    /*\n     * @dev Set 'contract address', called for liquid staking smart contract\n\t * @param liquidStakingAddress: liquid staking contract address\n\t *\n\t * Emits a {SetLiquidStakingContract} event with '_contract' set to the liquid staking contract address.\n\t *\n\t */\n    function setLiquidStakingContract(address liquidStakingAddress) public virtual override {\n        require(hasRole(DEFAULT_ADMIN_ROLE, _msgSender()), \"MA12\");\n        _liquidStakingContract = liquidStakingAddress;\n        emit SetLiquidStakingContract(liquidStakingAddress);\n    }\n\n    /**\n\t * @dev Migrating tokens\n\t * @param accountAddress: users address\n\t * @param toChainAddress: cosmos address\n\t *\n\t * Emits a {SetFees} event with 'fee' set to the withdraw.\n\t *\n\t */\n    function Migrate(address accountAddress, string memory toChainAddress, string memory toCosmosChainAddress)\n    public\n    virtual\n    override\n    returns (bool success)\n    {\n        require(accountAddress == _msgSender(), \"MA5\");\n        //check if toChainAddress is valid address as per Bech32 Validation\n        bool isAddressValid = toChainAddress.isBech32AddressValid(\n            hrpBytes,\n            controlDigitBytes,\n            dataBytesSize\n        );\n        require(isAddressValid == true, \"MA6\");\n\n        bool isCosmosAddressValid = toCosmosChainAddress.isBech32AddressValid(\n            cosmosHrpBytes,\n            controlDigitBytes,\n            dataBytesSize\n        );\n        require(isCosmosAddressValid == true, \"MA11\");\n\n        //claim pending rewards\n        _sTokens.calculateRewards(accountAddress);\n        emit ClaimPendingRewardsEvent(accountAddress);\n\n        //claim unbonded tokens only when token amount is greater than 0\n        uint256 currentUnbondedTokens = ILiquidStakingV4(_liquidStakingContract).getTotalUnbondedTokens(accountAddress);\n        if(currentUnbondedTokens > 0){\n            ILiquidStakingV4(_liquidStakingContract).withdrawUnstakedTokens(accountAddress);\n            emit ClaimUnbondedRewardsEvent(accountAddress);\n        }\n\n        //withdraw uTokens\n        // require user to hold enough UTokens balance\n        uint256 currentUTokenBalance = _uTokens.balanceOf(accountAddress);\n        _tokenWrapper.withdrawUTokens(accountAddress, currentUTokenBalance, toCosmosChainAddress);\n        emit WithdrawUTokensEvent(accountAddress, currentUTokenBalance, toChainAddress);\n\n        //burn sTokens\n        // require user to hold enough STokens balance\n        uint256 currentSTokenBalance = _sTokens.balanceOf(accountAddress);\n        _sTokens.burn(accountAddress, currentSTokenBalance);\n        emit BurnSTokensEvent(accountAddress, currentSTokenBalance);\n\n        emit SetMigrationCompleteEvent(accountAddress, currentSTokenBalance, currentUTokenBalance, toCosmosChainAddress, toChainAddress);\n        return true;\n    }\n\n    /**\n     * @dev Triggers stopped state.\n\t *\n\t */\n    function pause() public virtual override returns (bool success) {\n        require(hasRole(PAUSER_ROLE, _msgSender()), \"MA7\");\n        _pause();\n        return true;\n    }\n\n    /**\n     * @dev Returns to normal state.\n\t *\n\t */\n    function unpause() public virtual override returns (bool success) {\n        require(hasRole(PAUSER_ROLE, _msgSender()), \"MA8\");\n        _unpause();\n        return true;\n    }\n\n    /*\n     * @dev Set 'hrp bytes', called to check bech32 address\n\t * @param _hrpBytes: persistence bech32 prefix\n\t */\n    function setHRPBytes(bytes memory _hrpBytes) public virtual override returns (bool success) {\n        require(hasRole(DEFAULT_ADMIN_ROLE, _msgSender()), \"MA9\");\n        hrpBytes = _hrpBytes;\n        return true;\n    }\n\n    /*\n     * @dev Set 'hrp bytes', called to check bech32 address\n\t * @param _hrpBytes: bech32 prefix\n\t */\n    function setCosmosHRPBytes(bytes memory _hrpBytes) public virtual override returns (bool success) {\n        require(hasRole(DEFAULT_ADMIN_ROLE, _msgSender()), \"MA10\");\n        cosmosHrpBytes = _hrpBytes;\n        return true;\n    }\n}\n",
  "sourcePath": "/Users/aditimaheshwari/Documents/Work/Persistence/Codebase/persistenceOne/pStake-smartContracts/contracts/MigrationAdminV4.sol",
  "compiler": {
    "name": "solc",
    "version": "0.7.6+commit.7338295f.Emscripten.clang"
  },
  "schemaVersion": "3.4.3",
  "updatedAt": "2022-09-14T10:28:33.550Z",
  "devdoc": {
    "kind": "dev",
    "methods": {
      "Migrate(address,string,string)": {
        "details": "Migrating tokens",
        "params": {
          "accountAddress": ": users address",
          "toChainAddress": ": cosmos address Emits a {SetFees} event with 'fee' set to the withdraw."
        }
      },
      "getRoleAdmin(bytes32)": {
        "details": "Returns the admin role that controls `role`. See {grantRole} and {revokeRole}. To change a role's admin, use {_setRoleAdmin}."
      },
      "getRoleMember(bytes32,uint256)": {
        "details": "Returns one of the accounts that have `role`. `index` must be a value between 0 and {getRoleMemberCount}, non-inclusive. Role bearers are not sorted in any particular way, and their ordering may change at any point. WARNING: When using {getRoleMember} and {getRoleMemberCount}, make sure you perform all queries on the same block. See the following https://forum.openzeppelin.com/t/iterating-over-elements-on-enumerableset-in-openzeppelin-contracts/2296[forum post] for more information."
      },
      "getRoleMemberCount(bytes32)": {
        "details": "Returns the number of accounts that have `role`. Can be used together with {getRoleMember} to enumerate all bearers of a role."
      },
      "grantRole(bytes32,address)": {
        "details": "Grants `role` to `account`. If `account` had not been already granted `role`, emits a {RoleGranted} event. Requirements: - the caller must have ``role``'s admin role."
      },
      "hasRole(bytes32,address)": {
        "details": "Returns `true` if `account` has been granted `role`."
      },
      "pause()": {
        "details": "Triggers stopped state."
      },
      "paused()": {
        "details": "Returns true if the contract is paused, and false otherwise."
      },
      "renounceRole(bytes32,address)": {
        "details": "Revokes `role` from the calling account. Roles are often managed via {grantRole} and {revokeRole}: this function's purpose is to provide a mechanism for accounts to lose their privileges if they are compromised (such as when a trusted device is misplaced). If the calling account had been granted `role`, emits a {RoleRevoked} event. Requirements: - the caller must be `account`."
      },
      "revokeRole(bytes32,address)": {
        "details": "Revokes `role` from `account`. If `account` had been granted `role`, emits a {RoleRevoked} event. Requirements: - the caller must have ``role``'s admin role."
      },
      "setSTokensContract(address)": {
        "details": "Set STokens smart contract. Emits a {SetSTokensContract} event."
      },
      "setUTokensContract(address)": {
        "details": "Set UTokens smart contract. Emits a {SetUTokensContract} event."
      },
      "unpause()": {
        "details": "Returns to normal state."
      }
    },
    "version": 1
  },
  "userdoc": {
    "kind": "user",
    "methods": {},
    "version": 1
  }
}