{
  "contractName": "MigrationAdmin",
  "abi": [
    {
      "anonymous": false,
      "inputs": [
        {
          "indexed": true,
          "internalType": "address",
          "name": "accountAddress",
          "type": "address"
        },
        {
          "indexed": false,
          "internalType": "uint256",
          "name": "currentSTokenBalance",
          "type": "uint256"
        }
      ],
      "name": "BurnSTokensEvent",
      "type": "event"
    },
    {
      "anonymous": false,
      "inputs": [
        {
          "indexed": true,
          "internalType": "address",
          "name": "accountAddress",
          "type": "address"
        }
      ],
      "name": "ClaimPendingRewardsEvent",
      "type": "event"
    },
    {
      "anonymous": false,
      "inputs": [
        {
          "indexed": true,
          "internalType": "address",
          "name": "accountAddress",
          "type": "address"
        }
      ],
      "name": "ClaimUnbondedRewardsEvent",
      "type": "event"
    },
    {
      "anonymous": false,
      "inputs": [
        {
          "indexed": false,
          "internalType": "address",
          "name": "account",
          "type": "address"
        }
      ],
      "name": "Paused",
      "type": "event"
    },
    {
      "anonymous": false,
      "inputs": [
        {
          "indexed": true,
          "internalType": "bytes32",
          "name": "role",
          "type": "bytes32"
        },
        {
          "indexed": true,
          "internalType": "bytes32",
          "name": "previousAdminRole",
          "type": "bytes32"
        },
        {
          "indexed": true,
          "internalType": "bytes32",
          "name": "newAdminRole",
          "type": "bytes32"
        }
      ],
      "name": "RoleAdminChanged",
      "type": "event"
    },
    {
      "anonymous": false,
      "inputs": [
        {
          "indexed": true,
          "internalType": "bytes32",
          "name": "role",
          "type": "bytes32"
        },
        {
          "indexed": true,
          "internalType": "address",
          "name": "account",
          "type": "address"
        },
        {
          "indexed": true,
          "internalType": "address",
          "name": "sender",
          "type": "address"
        }
      ],
      "name": "RoleGranted",
      "type": "event"
    },
    {
      "anonymous": false,
      "inputs": [
        {
          "indexed": true,
          "internalType": "bytes32",
          "name": "role",
          "type": "bytes32"
        },
        {
          "indexed": true,
          "internalType": "address",
          "name": "account",
          "type": "address"
        },
        {
          "indexed": true,
          "internalType": "address",
          "name": "sender",
          "type": "address"
        }
      ],
      "name": "RoleRevoked",
      "type": "event"
    },
    {
      "anonymous": false,
      "inputs": [
        {
          "indexed": true,
          "internalType": "address",
          "name": "_contract",
          "type": "address"
        }
      ],
      "name": "SetSTokensContract",
      "type": "event"
    },
    {
      "anonymous": false,
      "inputs": [
        {
          "indexed": true,
          "internalType": "address",
          "name": "_contract",
          "type": "address"
        }
      ],
      "name": "SetTokenWrapperContract",
      "type": "event"
    },
    {
      "anonymous": false,
      "inputs": [
        {
          "indexed": true,
          "internalType": "address",
          "name": "_contract",
          "type": "address"
        }
      ],
      "name": "SetUTokensContract",
      "type": "event"
    },
    {
      "anonymous": false,
      "inputs": [
        {
          "indexed": false,
          "internalType": "address",
          "name": "account",
          "type": "address"
        }
      ],
      "name": "Unpaused",
      "type": "event"
    },
    {
      "anonymous": false,
      "inputs": [
        {
          "indexed": true,
          "internalType": "address",
          "name": "accountAddress",
          "type": "address"
        },
        {
          "indexed": false,
          "internalType": "uint256",
          "name": "currentUTokenBalance",
          "type": "uint256"
        },
        {
          "indexed": false,
          "internalType": "string",
          "name": "toChainAddress",
          "type": "string"
        }
      ],
      "name": "WithdrawUTokensEvent",
      "type": "event"
    },
    {
      "inputs": [],
      "name": "DEFAULT_ADMIN_ROLE",
      "outputs": [
        {
          "internalType": "bytes32",
          "name": "",
          "type": "bytes32"
        }
      ],
      "stateMutability": "view",
      "type": "function"
    },
    {
      "inputs": [],
      "name": "PAUSER_ROLE",
      "outputs": [
        {
          "internalType": "bytes32",
          "name": "",
          "type": "bytes32"
        }
      ],
      "stateMutability": "view",
      "type": "function"
    },
    {
      "inputs": [],
      "name": "_sTokens",
      "outputs": [
        {
          "internalType": "contract ISTokensV3",
          "name": "",
          "type": "address"
        }
      ],
      "stateMutability": "view",
      "type": "function"
    },
    {
      "inputs": [],
      "name": "_tokenWrapper",
      "outputs": [
        {
          "internalType": "contract ITokenWrapperV3",
          "name": "",
          "type": "address"
        }
      ],
      "stateMutability": "view",
      "type": "function"
    },
    {
      "inputs": [],
      "name": "_uTokens",
      "outputs": [
        {
          "internalType": "contract IUTokensV3",
          "name": "",
          "type": "address"
        }
      ],
      "stateMutability": "view",
      "type": "function"
    },
    {
      "inputs": [],
      "name": "controlDigitBytes",
      "outputs": [
        {
          "internalType": "bytes",
          "name": "",
          "type": "bytes"
        }
      ],
      "stateMutability": "view",
      "type": "function"
    },
    {
      "inputs": [],
      "name": "dataBytesSize",
      "outputs": [
        {
          "internalType": "uint256",
          "name": "",
          "type": "uint256"
        }
      ],
      "stateMutability": "view",
      "type": "function"
    },
    {
      "inputs": [
        {
          "internalType": "bytes32",
          "name": "role",
          "type": "bytes32"
        }
      ],
      "name": "getRoleAdmin",
      "outputs": [
        {
          "internalType": "bytes32",
          "name": "",
          "type": "bytes32"
        }
      ],
      "stateMutability": "view",
      "type": "function"
    },
    {
      "inputs": [
        {
          "internalType": "bytes32",
          "name": "role",
          "type": "bytes32"
        },
        {
          "internalType": "uint256",
          "name": "index",
          "type": "uint256"
        }
      ],
      "name": "getRoleMember",
      "outputs": [
        {
          "internalType": "address",
          "name": "",
          "type": "address"
        }
      ],
      "stateMutability": "view",
      "type": "function"
    },
    {
      "inputs": [
        {
          "internalType": "bytes32",
          "name": "role",
          "type": "bytes32"
        }
      ],
      "name": "getRoleMemberCount",
      "outputs": [
        {
          "internalType": "uint256",
          "name": "",
          "type": "uint256"
        }
      ],
      "stateMutability": "view",
      "type": "function"
    },
    {
      "inputs": [
        {
          "internalType": "bytes32",
          "name": "role",
          "type": "bytes32"
        },
        {
          "internalType": "address",
          "name": "account",
          "type": "address"
        }
      ],
      "name": "grantRole",
      "outputs": [],
      "stateMutability": "nonpayable",
      "type": "function"
    },
    {
      "inputs": [
        {
          "internalType": "bytes32",
          "name": "role",
          "type": "bytes32"
        },
        {
          "internalType": "address",
          "name": "account",
          "type": "address"
        }
      ],
      "name": "hasRole",
      "outputs": [
        {
          "internalType": "bool",
          "name": "",
          "type": "bool"
        }
      ],
      "stateMutability": "view",
      "type": "function"
    },
    {
      "inputs": [],
      "name": "hrpBytes",
      "outputs": [
        {
          "internalType": "bytes",
          "name": "",
          "type": "bytes"
        }
      ],
      "stateMutability": "view",
      "type": "function"
    },
    {
      "inputs": [],
      "name": "paused",
      "outputs": [
        {
          "internalType": "bool",
          "name": "",
          "type": "bool"
        }
      ],
      "stateMutability": "view",
      "type": "function"
    },
    {
      "inputs": [
        {
          "internalType": "bytes32",
          "name": "role",
          "type": "bytes32"
        },
        {
          "internalType": "address",
          "name": "account",
          "type": "address"
        }
      ],
      "name": "renounceRole",
      "outputs": [],
      "stateMutability": "nonpayable",
      "type": "function"
    },
    {
      "inputs": [
        {
          "internalType": "bytes32",
          "name": "role",
          "type": "bytes32"
        },
        {
          "internalType": "address",
          "name": "account",
          "type": "address"
        }
      ],
      "name": "revokeRole",
      "outputs": [],
      "stateMutability": "nonpayable",
      "type": "function"
    },
    {
      "inputs": [
        {
          "internalType": "address",
          "name": "uAddress",
          "type": "address"
        },
        {
          "internalType": "address",
          "name": "sAddress",
          "type": "address"
        },
        {
          "internalType": "address",
          "name": "tokenWrapperAddress",
          "type": "address"
        },
        {
          "internalType": "address",
          "name": "pauserAddress",
          "type": "address"
        }
      ],
      "name": "initialize",
      "outputs": [],
      "stateMutability": "nonpayable",
      "type": "function"
    },
    {
      "inputs": [
        {
          "internalType": "address",
          "name": "uAddress",
          "type": "address"
        }
      ],
      "name": "setUTokensContract",
      "outputs": [],
      "stateMutability": "nonpayable",
      "type": "function"
    },
    {
      "inputs": [
        {
          "internalType": "address",
          "name": "sAddress",
          "type": "address"
        }
      ],
      "name": "setSTokensContract",
      "outputs": [],
      "stateMutability": "nonpayable",
      "type": "function"
    },
    {
      "inputs": [
        {
          "internalType": "address",
          "name": "tokenWrapperAddress",
          "type": "address"
        }
      ],
      "name": "setTokenWrapperContract",
      "outputs": [],
      "stateMutability": "nonpayable",
      "type": "function"
    },
    {
      "inputs": [
        {
          "internalType": "address",
          "name": "accountAddress",
          "type": "address"
        },
        {
          "internalType": "string",
          "name": "toChainAddress",
          "type": "string"
        }
      ],
      "name": "Migrate",
      "outputs": [
        {
          "internalType": "bool",
          "name": "success",
          "type": "bool"
        }
      ],
      "stateMutability": "nonpayable",
      "type": "function"
    },
    {
      "inputs": [],
      "name": "pause",
      "outputs": [
        {
          "internalType": "bool",
          "name": "success",
          "type": "bool"
        }
      ],
      "stateMutability": "nonpayable",
      "type": "function"
    },
    {
      "inputs": [],
      "name": "unpause",
      "outputs": [
        {
          "internalType": "bool",
          "name": "success",
          "type": "bool"
        }
      ],
      "stateMutability": "nonpayable",
      "type": "function"
    }
  ],
  "bytecode": "0x608060405234801561001057600080fd5b506121ce806100206000396000f3fe608060405234801561001057600080fd5b506004361061014d5760003560e01c80639010d07c116100c3578063d37f55981161007c578063d37f55981461044c578063d547741f14610454578063d79cf55a14610480578063e3ac914b14610488578063e63ab1e914610490578063f8c8765e146104985761014d565b80639010d07c146102a557806391d14854146102c857806398fcda85146102f4578063a217fddf146103aa578063a53dcd72146103b2578063ca15c8731461042f5761014d565b806331b188cc1161011557806331b188cc1461021f57806336568abe146102455780633f4ba83a146102715780635c975abb1461028d57806378a2f074146102955780638456cb591461029d5761014d565b806302c67b601461015257806321bdf9e514610176578063248a9ca31461019e5780632e31fab8146101cd5780632f2ff15d146101f3575b600080fd5b61015a6104d6565b604080516001600160a01b039092168252519081900360200190f35b61019c6004803603602081101561018c57600080fd5b50356001600160a01b03166104e5565b005b6101bb600480360360208110156101b457600080fd5b5035610578565b60408051918252519081900360200190f35b61019c600480360360208110156101e357600080fd5b50356001600160a01b0316610590565b61019c6004803603604081101561020957600080fd5b50803590602001356001600160a01b031661061e565b61019c6004803603602081101561023557600080fd5b50356001600160a01b0316610685565b61019c6004803603604081101561025b57600080fd5b50803590602001356001600160a01b0316610713565b610279610774565b604080519115158252519081900360200190f35b6102796107d5565b61015a6107de565b6102796107ed565b61015a600480360360408110156102bb57600080fd5b5080359060200135610848565b610279600480360360408110156102de57600080fd5b50803590602001356001600160a01b0316610869565b6102796004803603604081101561030a57600080fd5b6001600160a01b03823516919081019060408101602082013564010000000081111561033557600080fd5b82018360208201111561034757600080fd5b8035906020019184600183028401116401000000008311171561036957600080fd5b91908080601f016020809104026020016040519081016040528093929190818152602001838380828437600092019190915250929550610881945050505050565b6101bb610d1c565b6103ba610d21565b6040805160208082528351818301528351919283929083019185019080838360005b838110156103f45781810151838201526020016103dc565b50505050905090810190601f1680156104215780820380516001836020036101000a031916815260200191505b509250505060405180910390f35b6101bb6004803603602081101561044557600080fd5b5035610daf565b6103ba610dc6565b61019c6004803603604081101561046a57600080fd5b50803590602001356001600160a01b0316610e21565b61015a610e7a565b6101bb610e89565b6101bb610e8f565b61019c600480360360808110156104ae57600080fd5b506001600160a01b038135811691602081013582169160408201358116916060013516610ea1565b6099546001600160a01b031681565b6104f760006104f2610ff8565b610869565b61052e576040805162461bcd60e51b81526020600482015260036024820152624d413160e81b604482015290519081900360640190fd5b609780546001600160a01b0319166001600160a01b0383169081179091556040517ff745c285f36f88bea6af14d4d0f33dd9350cef7895216c1615b1caaee7857e0c90600090a250565b6000818152606560205260409020600201545b919050565b61059d60006104f2610ff8565b6105d4576040805162461bcd60e51b815260206004820152600360248201526226a09960e91b604482015290519081900360640190fd5b609880546001600160a01b0319166001600160a01b0383169081179091556040517fd0b9dbe26f676f4cdb02fc249c203baa0314cec79e18b4194dc862795a5de03f90600090a250565b60008281526065602052604090206002015461063c906104f2610ff8565b6106775760405162461bcd60e51b815260040180806020018281038252602f81526020018061209d602f913960400191505060405180910390fd5b6106818282610ffc565b5050565b61069260006104f2610ff8565b6106c9576040805162461bcd60e51b81526020600482015260036024820152624d413360e81b604482015290519081900360640190fd5b609980546001600160a01b0319166001600160a01b0383169081179091556040517f2f9f272420570ea07d7da789fdc59a50c36792d6ea4f49a4d218b6f2431d049290600090a250565b61071b610ff8565b6001600160a01b0316816001600160a01b03161461076a5760405162461bcd60e51b815260040180806020018281038252602f81526020018061214a602f913960400191505060405180910390fd5b6106818282611065565b600061079060008051602061212a8339815191526104f2610ff8565b6107c7576040805162461bcd60e51b815260206004820152600360248201526209a82760eb1b604482015290519081900360640190fd5b6107cf6110ce565b50600190565b60335460ff1690565b6097546001600160a01b031681565b600061080960008051602061212a8339815191526104f2610ff8565b610840576040805162461bcd60e51b81526020600482015260036024820152624d413760e81b604482015290519081900360640190fd5b6107cf61116e565b600082815260656020526040812061086090836111f1565b90505b92915050565b600082815260656020526040812061086090836111fd565b600061088b610ff8565b6001600160a01b0316836001600160a01b0316146108d6576040805162461bcd60e51b81526020600482015260036024820152624d413560e81b604482015290519081900360640190fd5b609a805460408051602060026001851615610100026000190190941693909304601f8101849004840282018401909252818152600093610a0593919290918301828280156109655780601f1061093a57610100808354040283529160200191610965565b820191906000526020600020905b81548152906001019060200180831161094857829003601f168201915b5050609b8054604080516020601f60026000196101006001881615020190951694909404938401819004810282018101909252828152955091935091508301828280156109f35780601f106109c8576101008083540402835291602001916109f3565b820191906000526020600020905b8154815290600101906020018083116109d657829003601f168201915b5050609c548995949350915050611212565b9050600181151514610a44576040805162461bcd60e51b815260206004820152600360248201526226a09b60e91b604482015290519081900360640190fd5b609854604080516364ab867560e01b81526001600160a01b038781166004830152915191909216916364ab86759160248083019260209291908290030181600087803b158015610a9357600080fd5b505af1158015610aa7573d6000803e3d6000fd5b505050506040513d6020811015610abd57600080fd5b50506040516001600160a01b038516907f3ce76091fe99d13ed35d6f2fb35abe5986f4499adbe050e7c78ed442d4f28cbd90600090a2609754604080516370a0823160e01b81526001600160a01b038781166004830152915160009392909216916370a0823191602480820192602092909190829003018186803b158015610b4457600080fd5b505afa158015610b58573d6000803e3d6000fd5b505050506040513d6020811015610b6e57600080fd5b5051609954604051632145f74f60e11b81526001600160a01b038881166004830190815260248301859052606060448401908152895160648501528951959650919093169363428bee9e938a9387938b93909160840190602085019080838360005b83811015610be8578181015183820152602001610bd0565b50505050905090810190601f168015610c155780820380516001836020036101000a031916815260200191505b50945050505050602060405180830381600087803b158015610c3657600080fd5b505af1158015610c4a573d6000803e3d6000fd5b505050506040513d6020811015610c6057600080fd5b505060408051828152602081810183815287519383019390935286516001600160a01b038916937f4f4d8f18694e977d000a45e7f6a3389e58e6929e9b421ea97afe01389b5dea1c9386938a93919291606084019185019080838360005b83811015610cd6578181015183820152602001610cbe565b50505050905090810190601f168015610d035780820380516001836020036101000a031916815260200191505b50935050505060405180910390a2506001949350505050565b600081565b609b805460408051602060026001851615610100026000190190941693909304601f81018490048402820184019092528181529291830182828015610da75780601f10610d7c57610100808354040283529160200191610da7565b820191906000526020600020905b815481529060010190602001808311610d8a57829003601f168201915b505050505081565b600081815260656020526040812061086390611329565b609a805460408051602060026001851615610100026000190190941693909304601f81018490048402820184019092528181529291830182828015610da75780601f10610d7c57610100808354040283529160200191610da7565b600082815260656020526040902060020154610e3f906104f2610ff8565b61076a5760405162461bcd60e51b81526004018080602001828103825260308152602001806120cc6030913960400191505060405180910390fd5b6098546001600160a01b031681565b609c5481565b60008051602061212a83398151915281565b600054610100900460ff1680610eba5750610eba611334565b80610ec8575060005460ff16155b610f035760405162461bcd60e51b815260040180806020018281038252602e8152602001806120fc602e913960400191505060405180910390fd5b600054610100900460ff16158015610f2e576000805460ff1961ff0019909116610100171660011790555b610f36611345565b610f3e6113f7565b610f506000610f4b610ff8565b610677565b610f6860008051602061212a83398151915283610677565b610f71856104e5565b610f7a84610590565b610f8383610685565b60408051808201909152600680825265636f736d6f7360d01b6020909201918252610fb091609a91611fd9565b50604080518082019091526001808252603160f81b6020909201918252610fd991609b91611fd9565b506026609c558015610ff1576000805461ff00191690555b5050505050565b3390565b60008281526065602052604090206110149082611494565b1561068157611021610ff8565b6001600160a01b0316816001600160a01b0316837f2f8788117e7eff1d82e926ec794901d17c78024a50270940304540a733656f0d60405160405180910390a45050565b600082815260656020526040902061107d90826114a9565b156106815761108a610ff8565b6001600160a01b0316816001600160a01b0316837ff6391f5c32d9c69d2a47ea670b442974b53935d1edc7fd64eb21e047a839171b60405160405180910390a45050565b6110d66107d5565b61111e576040805162461bcd60e51b815260206004820152601460248201527314185d5cd8589b194e881b9bdd081c185d5cd95960621b604482015290519081900360640190fd5b6033805460ff191690557f5db9ee0a495bf2e6ff9c91a7834c1ba4fdd244a5e8aa4e537bd38aeae4b073aa611151610ff8565b604080516001600160a01b039092168252519081900360200190a1565b6111766107d5565b156111bb576040805162461bcd60e51b815260206004820152601060248201526f14185d5cd8589b194e881c185d5cd95960821b604482015290519081900360640190fd5b6033805460ff191660011790557f62e78cea01bee320cd4e420270b5ea74000d11b0c9f74754ebdbfc544b05a258611151610ff8565b600061086083836114be565b6000610860836001600160a01b038416611522565b825160009085908290611228908390839061153a565b90506112348187611643565b61124357600092505050611321565b8051600090611255908490600161153a565b90506112618187611643565b6112715760009350505050611321565b6000611293835160010160018551875103038661153a9092919063ffffffff16565b9050858151146112aa576000945050505050611321565b825184516000916112c69187916001810191036006190161153a565b905060006112d3826116a7565b90508051600014156112ee5760009650505050505050611321565b60006112f986611802565b905060006113078284611897565b905060006113158683611643565b99505050505050505050505b949350505050565b60006108638261197c565b600061133f30611980565b15905090565b600054610100900460ff168061135e575061135e611334565b8061136c575060005460ff16155b6113a75760405162461bcd60e51b815260040180806020018281038252602e8152602001806120fc602e913960400191505060405180910390fd5b600054610100900460ff161580156113d2576000805460ff1961ff0019909116610100171660011790555b6113da611986565b6113e2611986565b80156113f4576000805461ff00191690555b50565b600054610100900460ff16806114105750611410611334565b8061141e575060005460ff16155b6114595760405162461bcd60e51b815260040180806020018281038252602e8152602001806120fc602e913960400191505060405180910390fd5b600054610100900460ff16158015611484576000805460ff1961ff0019909116610100171660011790555b61148c611986565b6113e2611a26565b6000610860836001600160a01b038416611ad1565b6000610860836001600160a01b038416611b1b565b815460009082106115005760405162461bcd60e51b815260040180806020018281038252602281526020018061207b6022913960400191505060405180910390fd5b82600001828154811061150f57fe5b9060005260206000200154905092915050565b60009081526001919091016020526040902054151590565b60608182601f011015611585576040805162461bcd60e51b815260206004820152600e60248201526d736c6963655f6f766572666c6f7760901b604482015290519081900360640190fd5b818301845110156115d1576040805162461bcd60e51b8152602060048201526011602482015270736c6963655f6f75744f66426f756e647360781b604482015290519081900360640190fd5b6060821580156115f0576040519150600082526020820160405261163a565b6040519150601f8416801560200281840101858101878315602002848b0101015b81831015611629578051835260209283019201611611565b5050858452601f01601f1916604052505b50949350505050565b81518151600091600191811480831461165f576000925061169d565b600160208701838101602088015b60028483851001141561169857805183511461168c5760009650600093505b6020928301920161166d565b505050505b5090949350505050565b6060815167ffffffffffffffff811180156116c157600080fd5b506040519080825280602002602001820160405280156116eb578160200160208202803683370190505b50905060606000805b84518110156117fa57600091505b604051806040016040528060208152602001600080516020612179833981519152815250518210156117a357604051806040016040528060208152602001600080516020612179833981519152815250828151811061175d57fe5b602001015160f81c60f81b6001600160f81b03191685828151811061177e57fe5b01602001516001600160f81b0319161415611798576117a3565b600190910190611702565b604051806040016040528060208152602001600080516020612179833981519152815250518214156117da5782935050505061058b565b818482815181106117e757fe5b60209081029190910101526001016116f4565b505050919050565b6060815167ffffffffffffffff8111801561181c57600080fd5b50604051908082528060200260200182016040528015611846578160200160208202803683370190505b50905060005b82518110156118915782818151811061186157fe5b602001015160f81c60f81b60f81c60ff1682828151811061187e57fe5b602090810291909101015260010161184c565b50919050565b606060006118ae836118a98686611be1565b611c7e565b90506000815167ffffffffffffffff811180156118ca57600080fd5b506040519080825280601f01601f1916602001820160405280156118f5576020820181803683370190505b50905060005b825181101561163a5760405180604001604052806020815260200160008051602061217983398151915281525083828151811061193457fe5b60200260200101518151811061194657fe5b602001015160f81c60f81b82828151811061195d57fe5b60200101906001600160f81b031916908160001a9053506001016118fb565b5490565b3b151590565b600054610100900460ff168061199f575061199f611334565b806119ad575060005460ff16155b6119e85760405162461bcd60e51b815260040180806020018281038252602e8152602001806120fc602e913960400191505060405180910390fd5b600054610100900460ff161580156113e2576000805460ff1961ff00199091166101001716600117905580156113f4576000805461ff001916905550565b600054610100900460ff1680611a3f5750611a3f611334565b80611a4d575060005460ff16155b611a885760405162461bcd60e51b815260040180806020018281038252602e8152602001806120fc602e913960400191505060405180910390fd5b600054610100900460ff16158015611ab3576000805460ff1961ff0019909116610100171660011790555b6033805460ff1916905580156113f4576000805461ff001916905550565b6000611add8383611522565b611b1357508154600181810184556000848152602080822090930184905584548482528286019093526040902091909155610863565b506000610863565b60008181526001830160205260408120548015611bd75783546000198083019190810190600090879083908110611b4e57fe5b9060005260206000200154905080876000018481548110611b6b57fe5b600091825260208083209091019290925582815260018981019092526040902090840190558654879080611b9b57fe5b60019003818190600052602060002001600090559055866001016000878152602001908152602001600020600090556001945050505050610863565b6000915050610863565b60606000611c03611bfa611bf486611d51565b85611c7e565b60006006611e4e565b90506000611c1082611f14565b60408051600680825260e082019092526001929092189250600091906020820160c08036833701905050905060005b6006811015611c74578060050360050283901c601f16828281518110611c6157fe5b6020908102919091010152600101611c3f565b5095945050505050565b60606000825184510167ffffffffffffffff81118015611c9d57600080fd5b50604051908082528060200260200182016040528015611cc7578160200160208202803683370190505b50905060005b8451811015611d0957848181518110611ce257fe5b6020026020010151828281518110611cf657fe5b6020908102919091010152600101611ccd565b60005b845181101561169d578451600182019186918110611d2657fe5b6020026020010151838380600101945081518110611d4057fe5b602002602001018181525050611d0c565b60606000825183510160010167ffffffffffffffff81118015611d7357600080fd5b50604051908082528060200260200182016040528015611d9d578160200160208202803683370190505b50905060005b8351811015611de3576005848281518110611dba57fe5b6020026020010151901c828281518110611dd057fe5b6020908102919091010152600101611da3565b50600081845181518110611df357fe5b60200260200101818152505060005b8351811015611e4757838181518110611e1757fe5b6020026020010151601f16828551830160010181518110611e3457fe5b6020908102919091010152600101611e02565b5092915050565b606060008285510167ffffffffffffffff81118015611e6c57600080fd5b50604051908082528060200260200182016040528015611e96578160200160208202803683370190505b50905060005b8551811015611ed857858181518110611eb157fe5b6020026020010151828281518110611ec557fe5b6020908102919091010152600101611e9c565b60005b84811015611f095785838380600101945081518110611ef657fe5b6020908102919091010152600101611edb565b509095945050505050565b6040805160a081018252633b6a57b281526326508e6d6020820152631ea119fa91810191909152633d4233dd6060820152632a1462b360808201526000906001825b8451811015611fd1576000601983901c9050858281518110611f7457fe5b60200260200101516005846301ffffff16901b18925060005b6005811015611fc757600182821c81161415611fbf57848160058110611faf57fe5b602002015163ffffffff16841893505b600101611f8d565b5050600101611f56565b509392505050565b828054600181600116156101000203166002900490600052602060002090601f01602090048101928261200f5760008555612055565b82601f1061202857805160ff1916838001178555612055565b82800160010185558215612055579182015b8281111561205557825182559160200191906001019061203a565b50612061929150612065565b5090565b5b80821115612061576000815560010161206656fe456e756d657261626c655365743a20696e646578206f7574206f6620626f756e6473416363657373436f6e74726f6c3a2073656e646572206d75737420626520616e2061646d696e20746f206772616e74416363657373436f6e74726f6c3a2073656e646572206d75737420626520616e2061646d696e20746f207265766f6b65496e697469616c697a61626c653a20636f6e747261637420697320616c726561647920696e697469616c697a656465d7a28e3265b37a6474929f336521b332c1681b933f6cb9f3376673440d862a416363657373436f6e74726f6c3a2063616e206f6e6c792072656e6f756e636520726f6c657320666f722073656c6671707a7279397838676632747664773073336a6e35346b686365366d7561376ca2646970667358221220a5281f73c00391251c99f46c6bda6ac704acd5fc50688fbff6fe6a0636c86b6064736f6c63430007060033",
  "immutableReferences": {},
  "source": "/*\n Copyright [2019] - [2021], PERSISTENCE TECHNOLOGIES PTE. LTD. and the pStake-smartContracts contributors\n SPDX-License-Identifier: Apache-2.0\n*/\n\npragma solidity >=0.7.0;\n\nimport \"@openzeppelin/contracts-upgradeable/utils/PausableUpgradeable.sol\";\nimport \"@openzeppelin/contracts-upgradeable/access/AccessControlUpgradeable.sol\";\nimport \"./interfaces/IUTokensV3.sol\";\nimport \"./interfaces/ISTokensV3.sol\";\nimport \"./interfaces/ITokenWrapperV3.sol\";\nimport \"./interfaces/IMigrationAdmin.sol\";\nimport \"./libraries/Bech32.sol\";\n\ncontract MigrationAdmin is\nIMigrationAdmin,\nPausableUpgradeable,\nAccessControlUpgradeable\n{\n    using Bech32 for string;\n\n    //Private instances of contracts to handle Utokens\n    IUTokensV3 public _uTokens;\n    ISTokensV3 public _sTokens;\n    ITokenWrapperV3 public _tokenWrapper;\n\n    // constants defining access control ROLES\n    bytes32 public constant PAUSER_ROLE = keccak256(\"PAUSER_ROLE\");\n\n    //variables defining bech32 validation attributes\n    bytes public hrpBytes;\n    bytes public controlDigitBytes;\n    uint256 public dataBytesSize;\n\n    /*\n     * @dev Constructor for initializing the TokenWrapper contract.\n\t * @param uAddress - address of the UToken contract.\n\t * @param bridgeAdminAddress - address of the bridge admin.\n\t * @param pauserAddress - address of the pauser admin.\n\t * @param valueDivisor - valueDivisor set to 10^9.\n\t */\n    function initialize(\n        address uAddress,\n        address sAddress,\n        address tokenWrapperAddress,\n        address pauserAddress\n    ) public virtual initializer {\n        __AccessControl_init();\n        __Pausable_init();\n        _setupRole(DEFAULT_ADMIN_ROLE, _msgSender());\n        _setupRole(PAUSER_ROLE, pauserAddress);\n        setUTokensContract(uAddress);\n        setSTokensContract(sAddress);\n        setTokenWrapperContract(tokenWrapperAddress);\n        // setting bech32 validation attributes\n        hrpBytes = \"cosmos\";\n        controlDigitBytes = \"1\";\n        dataBytesSize = 38;\n    }\n\n    /*\n     * @dev Set 'contract address', called for utokens smart contract\n\t * @param sAddress: utoken contract address\n\t *\n\t * Emits a {SetUTokensContract} event with '_contract' set to the utoken contract address.\n\t *\n\t */\n    function setUTokensContract(address uAddress) public virtual override {\n        require(hasRole(DEFAULT_ADMIN_ROLE, _msgSender()), \"MA1\");\n        _uTokens = IUTokensV3(uAddress);\n        emit SetUTokensContract(uAddress);\n    }\n\n    /*\n     * @dev Set 'contract address', called for stokens smart contract\n\t * @param sAddress: stoken contract address\n\t *\n\t * Emits a {SetSTokensContract} event with '_contract' set to the stoken contract address.\n\t *\n\t */\n    function setSTokensContract(address sAddress) public virtual override {\n        require(hasRole(DEFAULT_ADMIN_ROLE, _msgSender()), \"MA2\");\n        _sTokens = ISTokensV3(sAddress);\n        emit SetSTokensContract(sAddress);\n    }\n\n    /*\n     * @dev Set 'contract address', called for tokenWrapper smart contract\n\t * @param sAddress: tokenWrapper contract address\n\t *\n\t * Emits a {SetTokenWrapperContract} event with '_contract' set to the tokenWrapper contract address.\n\t *\n\t */\n    function setTokenWrapperContract(address tokenWrapperAddress) public virtual override {\n        require(hasRole(DEFAULT_ADMIN_ROLE, _msgSender()), \"MA3\");\n        _tokenWrapper = ITokenWrapperV3(tokenWrapperAddress);\n        emit SetTokenWrapperContract(tokenWrapperAddress);\n    }\n\n    /**\n\t * @dev Migrating tokens\n\t * @param accountAddress: users address\n\t * @param toChainAddress: cosmos address\n\t *\n\t * Emits a {SetFees} event with 'fee' set to the withdraw.\n\t *\n\t */\n    function Migrate(address accountAddress, string memory toChainAddress)\n    public\n    virtual\n    override\n    returns (bool success)\n    {\n        require(accountAddress == _msgSender(), \"MA5\");\n        //check if toChainAddress is valid address as per Bech32 Validation\n        bool isAddressValid = toChainAddress.isBech32AddressValid(\n            hrpBytes,\n            controlDigitBytes,\n            dataBytesSize\n        );\n        require(isAddressValid == true, \"MA6\");\n\n        //claim pending rewards\n        _sTokens.calculateRewards(accountAddress);\n        emit ClaimPendingRewardsEvent(accountAddress);\n\n        //withdraw uTokens\n        // require user to hold enough UTokens balance\n        uint256 currentUTokenBalance = _uTokens.balanceOf(accountAddress);\n        _tokenWrapper.withdrawUTokens(accountAddress, currentUTokenBalance, toChainAddress);\n        emit WithdrawUTokensEvent(accountAddress, currentUTokenBalance, toChainAddress);\n        return true;\n    }\n\n    /**\n     * @dev Triggers stopped state.\n\t *\n\t */\n    function pause() public virtual override returns (bool success) {\n        require(hasRole(PAUSER_ROLE, _msgSender()), \"MA7\");\n        _pause();\n        return true;\n    }\n\n    /**\n     * @dev Returns to normal state.\n\t *\n\t */\n    function unpause() public virtual override returns (bool success) {\n        require(hasRole(PAUSER_ROLE, _msgSender()), \"MA8\");\n        _unpause();\n        return true;\n    }\n}\n",
  "sourcePath": "/Users/aditimaheshwari/Documents/Work/Persistence/Codebase/persistenceOne/pStake-smartContracts/contracts/MigrationAdmin.sol",
  "compiler": {
    "name": "solc",
    "version": "0.7.6+commit.7338295f.Emscripten.clang"
  },
  "schemaVersion": "3.4.3",
  "updatedAt": "2022-08-16T09:17:51.449Z",
  "networkType": "ethereum",
  "devdoc": {
    "kind": "dev",
    "methods": {
      "Migrate(address,string)": {
        "details": "Migrating tokens",
        "params": {
          "accountAddress": ": users address",
          "toChainAddress": ": cosmos address Emits a {SetFees} event with 'fee' set to the withdraw."
        }
      },
      "getRoleAdmin(bytes32)": {
        "details": "Returns the admin role that controls `role`. See {grantRole} and {revokeRole}. To change a role's admin, use {_setRoleAdmin}."
      },
      "getRoleMember(bytes32,uint256)": {
        "details": "Returns one of the accounts that have `role`. `index` must be a value between 0 and {getRoleMemberCount}, non-inclusive. Role bearers are not sorted in any particular way, and their ordering may change at any point. WARNING: When using {getRoleMember} and {getRoleMemberCount}, make sure you perform all queries on the same block. See the following https://forum.openzeppelin.com/t/iterating-over-elements-on-enumerableset-in-openzeppelin-contracts/2296[forum post] for more information."
      },
      "getRoleMemberCount(bytes32)": {
        "details": "Returns the number of accounts that have `role`. Can be used together with {getRoleMember} to enumerate all bearers of a role."
      },
      "grantRole(bytes32,address)": {
        "details": "Grants `role` to `account`. If `account` had not been already granted `role`, emits a {RoleGranted} event. Requirements: - the caller must have ``role``'s admin role."
      },
      "hasRole(bytes32,address)": {
        "details": "Returns `true` if `account` has been granted `role`."
      },
      "pause()": {
        "details": "Triggers stopped state."
      },
      "paused()": {
        "details": "Returns true if the contract is paused, and false otherwise."
      },
      "renounceRole(bytes32,address)": {
        "details": "Revokes `role` from the calling account. Roles are often managed via {grantRole} and {revokeRole}: this function's purpose is to provide a mechanism for accounts to lose their privileges if they are compromised (such as when a trusted device is misplaced). If the calling account had been granted `role`, emits a {RoleRevoked} event. Requirements: - the caller must be `account`."
      },
      "revokeRole(bytes32,address)": {
        "details": "Revokes `role` from `account`. If `account` had been granted `role`, emits a {RoleRevoked} event. Requirements: - the caller must have ``role``'s admin role."
      },
      "setSTokensContract(address)": {
        "details": "Set STokens smart contract. Emits a {SetSTokensContract} event."
      },
      "setUTokensContract(address)": {
        "details": "Set UTokens smart contract. Emits a {SetUTokensContract} event."
      },
      "unpause()": {
        "details": "Returns to normal state."
      }
    },
    "version": 1
  },
  "userdoc": {
    "kind": "user",
    "methods": {},
    "version": 1
  }
}