{
  "contractName": "MigrationAdminV5",
  "abi": [
    {
      "anonymous": false,
      "inputs": [
        {
          "indexed": true,
          "internalType": "address",
          "name": "accountAddress",
          "type": "address"
        },
        {
          "indexed": false,
          "internalType": "uint256",
          "name": "currentSTokenBalance",
          "type": "uint256"
        }
      ],
      "name": "BurnSTokensEvent",
      "type": "event"
    },
    {
      "anonymous": false,
      "inputs": [
        {
          "indexed": true,
          "internalType": "address",
          "name": "accountAddress",
          "type": "address"
        }
      ],
      "name": "ClaimPendingRewardsEvent",
      "type": "event"
    },
    {
      "anonymous": false,
      "inputs": [
        {
          "indexed": true,
          "internalType": "address",
          "name": "accountAddress",
          "type": "address"
        }
      ],
      "name": "ClaimUnbondedRewardsEvent",
      "type": "event"
    },
    {
      "anonymous": false,
      "inputs": [
        {
          "indexed": false,
          "internalType": "address",
          "name": "account",
          "type": "address"
        }
      ],
      "name": "Paused",
      "type": "event"
    },
    {
      "anonymous": false,
      "inputs": [
        {
          "indexed": true,
          "internalType": "bytes32",
          "name": "role",
          "type": "bytes32"
        },
        {
          "indexed": true,
          "internalType": "bytes32",
          "name": "previousAdminRole",
          "type": "bytes32"
        },
        {
          "indexed": true,
          "internalType": "bytes32",
          "name": "newAdminRole",
          "type": "bytes32"
        }
      ],
      "name": "RoleAdminChanged",
      "type": "event"
    },
    {
      "anonymous": false,
      "inputs": [
        {
          "indexed": true,
          "internalType": "bytes32",
          "name": "role",
          "type": "bytes32"
        },
        {
          "indexed": true,
          "internalType": "address",
          "name": "account",
          "type": "address"
        },
        {
          "indexed": true,
          "internalType": "address",
          "name": "sender",
          "type": "address"
        }
      ],
      "name": "RoleGranted",
      "type": "event"
    },
    {
      "anonymous": false,
      "inputs": [
        {
          "indexed": true,
          "internalType": "bytes32",
          "name": "role",
          "type": "bytes32"
        },
        {
          "indexed": true,
          "internalType": "address",
          "name": "account",
          "type": "address"
        },
        {
          "indexed": true,
          "internalType": "address",
          "name": "sender",
          "type": "address"
        }
      ],
      "name": "RoleRevoked",
      "type": "event"
    },
    {
      "anonymous": false,
      "inputs": [
        {
          "indexed": true,
          "internalType": "address",
          "name": "_contract",
          "type": "address"
        }
      ],
      "name": "SetLiquidStakingContract",
      "type": "event"
    },
    {
      "anonymous": false,
      "inputs": [
        {
          "indexed": true,
          "internalType": "address",
          "name": "accountAddress",
          "type": "address"
        },
        {
          "indexed": false,
          "internalType": "uint256",
          "name": "currentUTokenBalance",
          "type": "uint256"
        },
        {
          "indexed": false,
          "internalType": "string",
          "name": "toCosmosChainAddress",
          "type": "string"
        }
      ],
      "name": "SetMigrationCompleteEvent",
      "type": "event"
    },
    {
      "anonymous": false,
      "inputs": [
        {
          "indexed": true,
          "internalType": "address",
          "name": "_contract",
          "type": "address"
        }
      ],
      "name": "SetSTokensContract",
      "type": "event"
    },
    {
      "anonymous": false,
      "inputs": [
        {
          "indexed": true,
          "internalType": "address",
          "name": "_contract",
          "type": "address"
        }
      ],
      "name": "SetTokenWrapperContract",
      "type": "event"
    },
    {
      "anonymous": false,
      "inputs": [
        {
          "indexed": true,
          "internalType": "address",
          "name": "_contract",
          "type": "address"
        }
      ],
      "name": "SetUTokensContract",
      "type": "event"
    },
    {
      "anonymous": false,
      "inputs": [
        {
          "indexed": false,
          "internalType": "address",
          "name": "account",
          "type": "address"
        }
      ],
      "name": "Unpaused",
      "type": "event"
    },
    {
      "anonymous": false,
      "inputs": [
        {
          "indexed": true,
          "internalType": "address",
          "name": "accountAddress",
          "type": "address"
        },
        {
          "indexed": false,
          "internalType": "uint256",
          "name": "currentUTokenBalance",
          "type": "uint256"
        },
        {
          "indexed": false,
          "internalType": "string",
          "name": "toCosmosChainAddress",
          "type": "string"
        }
      ],
      "name": "WithdrawUTokensEvent",
      "type": "event"
    },
    {
      "inputs": [],
      "name": "DEFAULT_ADMIN_ROLE",
      "outputs": [
        {
          "internalType": "bytes32",
          "name": "",
          "type": "bytes32"
        }
      ],
      "stateMutability": "view",
      "type": "function"
    },
    {
      "inputs": [],
      "name": "PAUSER_ROLE",
      "outputs": [
        {
          "internalType": "bytes32",
          "name": "",
          "type": "bytes32"
        }
      ],
      "stateMutability": "view",
      "type": "function"
    },
    {
      "inputs": [],
      "name": "_liquidStakingContract",
      "outputs": [
        {
          "internalType": "address",
          "name": "",
          "type": "address"
        }
      ],
      "stateMutability": "view",
      "type": "function"
    },
    {
      "inputs": [],
      "name": "_sTokens",
      "outputs": [
        {
          "internalType": "contract ISTokensV3",
          "name": "",
          "type": "address"
        }
      ],
      "stateMutability": "view",
      "type": "function"
    },
    {
      "inputs": [],
      "name": "_tokenWrapper",
      "outputs": [
        {
          "internalType": "contract ITokenWrapperV5",
          "name": "",
          "type": "address"
        }
      ],
      "stateMutability": "view",
      "type": "function"
    },
    {
      "inputs": [],
      "name": "_uTokens",
      "outputs": [
        {
          "internalType": "contract IUTokensV3",
          "name": "",
          "type": "address"
        }
      ],
      "stateMutability": "view",
      "type": "function"
    },
    {
      "inputs": [],
      "name": "controlDigitBytes",
      "outputs": [
        {
          "internalType": "bytes",
          "name": "",
          "type": "bytes"
        }
      ],
      "stateMutability": "view",
      "type": "function"
    },
    {
      "inputs": [],
      "name": "cosmosHrpBytes",
      "outputs": [
        {
          "internalType": "bytes",
          "name": "",
          "type": "bytes"
        }
      ],
      "stateMutability": "view",
      "type": "function"
    },
    {
      "inputs": [],
      "name": "dataBytesSize",
      "outputs": [
        {
          "internalType": "uint256",
          "name": "",
          "type": "uint256"
        }
      ],
      "stateMutability": "view",
      "type": "function"
    },
    {
      "inputs": [
        {
          "internalType": "bytes32",
          "name": "role",
          "type": "bytes32"
        }
      ],
      "name": "getRoleAdmin",
      "outputs": [
        {
          "internalType": "bytes32",
          "name": "",
          "type": "bytes32"
        }
      ],
      "stateMutability": "view",
      "type": "function"
    },
    {
      "inputs": [
        {
          "internalType": "bytes32",
          "name": "role",
          "type": "bytes32"
        },
        {
          "internalType": "uint256",
          "name": "index",
          "type": "uint256"
        }
      ],
      "name": "getRoleMember",
      "outputs": [
        {
          "internalType": "address",
          "name": "",
          "type": "address"
        }
      ],
      "stateMutability": "view",
      "type": "function"
    },
    {
      "inputs": [
        {
          "internalType": "bytes32",
          "name": "role",
          "type": "bytes32"
        }
      ],
      "name": "getRoleMemberCount",
      "outputs": [
        {
          "internalType": "uint256",
          "name": "",
          "type": "uint256"
        }
      ],
      "stateMutability": "view",
      "type": "function"
    },
    {
      "inputs": [
        {
          "internalType": "bytes32",
          "name": "role",
          "type": "bytes32"
        },
        {
          "internalType": "address",
          "name": "account",
          "type": "address"
        }
      ],
      "name": "grantRole",
      "outputs": [],
      "stateMutability": "nonpayable",
      "type": "function"
    },
    {
      "inputs": [
        {
          "internalType": "bytes32",
          "name": "role",
          "type": "bytes32"
        },
        {
          "internalType": "address",
          "name": "account",
          "type": "address"
        }
      ],
      "name": "hasRole",
      "outputs": [
        {
          "internalType": "bool",
          "name": "",
          "type": "bool"
        }
      ],
      "stateMutability": "view",
      "type": "function"
    },
    {
      "inputs": [],
      "name": "hrpBytes",
      "outputs": [
        {
          "internalType": "bytes",
          "name": "",
          "type": "bytes"
        }
      ],
      "stateMutability": "view",
      "type": "function"
    },
    {
      "inputs": [],
      "name": "paused",
      "outputs": [
        {
          "internalType": "bool",
          "name": "",
          "type": "bool"
        }
      ],
      "stateMutability": "view",
      "type": "function"
    },
    {
      "inputs": [
        {
          "internalType": "bytes32",
          "name": "role",
          "type": "bytes32"
        },
        {
          "internalType": "address",
          "name": "account",
          "type": "address"
        }
      ],
      "name": "renounceRole",
      "outputs": [],
      "stateMutability": "nonpayable",
      "type": "function"
    },
    {
      "inputs": [
        {
          "internalType": "bytes32",
          "name": "role",
          "type": "bytes32"
        },
        {
          "internalType": "address",
          "name": "account",
          "type": "address"
        }
      ],
      "name": "revokeRole",
      "outputs": [],
      "stateMutability": "nonpayable",
      "type": "function"
    },
    {
      "inputs": [
        {
          "internalType": "address",
          "name": "uAddress",
          "type": "address"
        },
        {
          "internalType": "address",
          "name": "sAddress",
          "type": "address"
        },
        {
          "internalType": "address",
          "name": "tokenWrapperAddress",
          "type": "address"
        },
        {
          "internalType": "address",
          "name": "pauserAddress",
          "type": "address"
        }
      ],
      "name": "initialize",
      "outputs": [],
      "stateMutability": "nonpayable",
      "type": "function"
    },
    {
      "inputs": [
        {
          "internalType": "address",
          "name": "uAddress",
          "type": "address"
        }
      ],
      "name": "setUTokensContract",
      "outputs": [],
      "stateMutability": "nonpayable",
      "type": "function"
    },
    {
      "inputs": [
        {
          "internalType": "address",
          "name": "sAddress",
          "type": "address"
        }
      ],
      "name": "setSTokensContract",
      "outputs": [],
      "stateMutability": "nonpayable",
      "type": "function"
    },
    {
      "inputs": [
        {
          "internalType": "address",
          "name": "tokenWrapperAddress",
          "type": "address"
        }
      ],
      "name": "setTokenWrapperContract",
      "outputs": [],
      "stateMutability": "nonpayable",
      "type": "function"
    },
    {
      "inputs": [
        {
          "internalType": "address",
          "name": "liquidStakingAddress",
          "type": "address"
        }
      ],
      "name": "setLiquidStakingContract",
      "outputs": [],
      "stateMutability": "nonpayable",
      "type": "function"
    },
    {
      "inputs": [
        {
          "internalType": "address",
          "name": "accountAddress",
          "type": "address"
        },
        {
          "internalType": "string",
          "name": "toCosmosChainAddress",
          "type": "string"
        }
      ],
      "name": "Migrate",
      "outputs": [
        {
          "internalType": "bool",
          "name": "success",
          "type": "bool"
        }
      ],
      "stateMutability": "nonpayable",
      "type": "function"
    },
    {
      "inputs": [],
      "name": "pause",
      "outputs": [
        {
          "internalType": "bool",
          "name": "success",
          "type": "bool"
        }
      ],
      "stateMutability": "nonpayable",
      "type": "function"
    },
    {
      "inputs": [],
      "name": "unpause",
      "outputs": [
        {
          "internalType": "bool",
          "name": "success",
          "type": "bool"
        }
      ],
      "stateMutability": "nonpayable",
      "type": "function"
    },
    {
      "inputs": [
        {
          "internalType": "bytes",
          "name": "_hrpBytes",
          "type": "bytes"
        }
      ],
      "name": "setHRPBytes",
      "outputs": [
        {
          "internalType": "bool",
          "name": "success",
          "type": "bool"
        }
      ],
      "stateMutability": "nonpayable",
      "type": "function"
    },
    {
      "inputs": [
        {
          "internalType": "bytes",
          "name": "_hrpBytes",
          "type": "bytes"
        }
      ],
      "name": "setCosmosHRPBytes",
      "outputs": [
        {
          "internalType": "bool",
          "name": "success",
          "type": "bool"
        }
      ],
      "stateMutability": "nonpayable",
      "type": "function"
    }
  ],
  "bytecode": "0x608060405234801561001057600080fd5b50612762806100206000396000f3fe608060405234801561001057600080fd5b50600436106101c45760003560e01c80639010d07c116100f9578063ca15c87311610097578063d79cf55a11610071578063d79cf55a14610679578063e3ac914b14610681578063e63ab1e914610689578063f8c8765e14610691576101c4565b8063ca15c87314610628578063d37f559814610645578063d547741f1461064d576101c4565b80639bd1700e116100d35780639bd1700e146104cc578063a217fddf14610572578063a53dcd721461057a578063aedfab3c14610582576101c4565b80639010d07c146103c757806391d14854146103ea57806398fcda8514610416576101c4565b806336568abe116101665780635c975abb116101405780635c975abb146103a757806378a2f074146103af578063793105d8146103b75780638456cb59146103bf576101c4565b806336568abe146103395780633f4ba83a1461036557806358f8943e14610381576101c4565b8063248a9ca3116101a2578063248a9ca3146102925780632e31fab8146102c15780632f2ff15d146102e757806331b188cc14610313576101c4565b806302c67b60146101c95780630f061718146101ed57806321bdf9e51461026a575b600080fd5b6101d16106cf565b604080516001600160a01b039092168252519081900360200190f35b6101f56106de565b6040805160208082528351818301528351919283929083019185019080838360005b8381101561022f578181015183820152602001610217565b50505050905090810190601f16801561025c5780820380516001836020036101000a031916815260200191505b509250505060405180910390f35b6102906004803603602081101561028057600080fd5b50356001600160a01b031661076c565b005b6102af600480360360208110156102a857600080fd5b50356107ff565b60408051918252519081900360200190f35b610290600480360360208110156102d757600080fd5b50356001600160a01b0316610817565b610290600480360360408110156102fd57600080fd5b50803590602001356001600160a01b03166108a5565b6102906004803603602081101561032957600080fd5b50356001600160a01b031661090c565b6102906004803603604081101561034f57600080fd5b50803590602001356001600160a01b031661099a565b61036d6109fb565b604080519115158252519081900360200190f35b6102906004803603602081101561039757600080fd5b50356001600160a01b0316610a5c565b61036d610aed565b6101d1610af6565b6101d1610b05565b61036d610b14565b6101d1600480360360408110156103dd57600080fd5b5080359060200135610b6f565b61036d6004803603604081101561040057600080fd5b50803590602001356001600160a01b0316610b90565b61036d6004803603604081101561042c57600080fd5b6001600160a01b03823516919081019060408101602082013564010000000081111561045757600080fd5b82018360208201111561046957600080fd5b8035906020019184600183028401116401000000008311171561048b57600080fd5b91908080601f016020809104026020016040519081016040528093929190818152602001838380828437600092019190915250929550610ba8945050505050565b61036d600480360360208110156104e257600080fd5b8101906020810181356401000000008111156104fd57600080fd5b82018360208201111561050f57600080fd5b8035906020019184600183028401116401000000008311171561053157600080fd5b91908080601f016020809104026020016040519081016040528093929190818152602001838380828437600092019190915250929550611227945050505050565b6102af61128b565b6101f5611290565b61036d6004803603602081101561059857600080fd5b8101906020810181356401000000008111156105b357600080fd5b8201836020820111156105c557600080fd5b803590602001918460018302840111640100000000831117156105e757600080fd5b91908080601f0160208091040260200160405190810160405280939291908181526020018383808284376000920191909152509295506112eb945050505050565b6102af6004803603602081101561063e57600080fd5b5035611343565b6101f561135a565b6102906004803603604081101561066357600080fd5b50803590602001356001600160a01b03166113b5565b6101d161140e565b6102af61141d565b6102af611423565b610290600480360360808110156106a757600080fd5b506001600160a01b038135811691602081013582169160408201358116916060013516611435565b6099546001600160a01b031681565b609d805460408051602060026001851615610100026000190190941693909304601f810184900484028201840190925281815292918301828280156107645780601f1061073957610100808354040283529160200191610764565b820191906000526020600020905b81548152906001019060200180831161074757829003601f168201915b505050505081565b61077e600061077961158c565b610b90565b6107b5576040805162461bcd60e51b81526020600482015260036024820152624d413160e81b604482015290519081900360640190fd5b609780546001600160a01b0319166001600160a01b0383169081179091556040517ff745c285f36f88bea6af14d4d0f33dd9350cef7895216c1615b1caaee7857e0c90600090a250565b6000818152606560205260409020600201545b919050565b610824600061077961158c565b61085b576040805162461bcd60e51b815260206004820152600360248201526226a09960e91b604482015290519081900360640190fd5b609880546001600160a01b0319166001600160a01b0383169081179091556040517fd0b9dbe26f676f4cdb02fc249c203baa0314cec79e18b4194dc862795a5de03f90600090a250565b6000828152606560205260409020600201546108c39061077961158c565b6108fe5760405162461bcd60e51b815260040180806020018281038252602f815260200180612631602f913960400191505060405180910390fd5b6109088282611590565b5050565b610919600061077961158c565b610950576040805162461bcd60e51b81526020600482015260036024820152624d413360e81b604482015290519081900360640190fd5b609980546001600160a01b0319166001600160a01b0383169081179091556040517f2f9f272420570ea07d7da789fdc59a50c36792d6ea4f49a4d218b6f2431d049290600090a250565b6109a261158c565b6001600160a01b0316816001600160a01b0316146109f15760405162461bcd60e51b815260040180806020018281038252602f8152602001806126de602f913960400191505060405180910390fd5b61090882826115f9565b6000610a176000805160206126be83398151915261077961158c565b610a4e576040805162461bcd60e51b815260206004820152600360248201526209a82760eb1b604482015290519081900360640190fd5b610a56611662565b50600190565b610a69600061077961158c565b610aa3576040805162461bcd60e51b8152602060048083019190915260248201526326a0989960e11b604482015290519081900360640190fd5b609e80546001600160a01b0319166001600160a01b0383169081179091556040517f57fded54c0f01b7b2c662bd89530d6916e48149e02da384db87d1a67306be87190600090a250565b60335460ff1690565b6097546001600160a01b031681565b609e546001600160a01b031681565b6000610b306000805160206126be83398151915261077961158c565b610b67576040805162461bcd60e51b81526020600482015260036024820152624d413760e81b604482015290519081900360640190fd5b610a56611702565b6000828152606560205260408120610b879083611785565b90505b92915050565b6000828152606560205260408120610b879083611791565b6000610bb261158c565b6001600160a01b0316836001600160a01b031614610bfd576040805162461bcd60e51b81526020600482015260036024820152624d413560e81b604482015290519081900360640190fd5b609d805460408051602060026001851615610100026000190190941693909304601f8101849004840282018401909252818152600093610d2c9391929091830182828015610c8c5780601f10610c6157610100808354040283529160200191610c8c565b820191906000526020600020905b815481529060010190602001808311610c6f57829003601f168201915b5050609b8054604080516020601f6002600019610100600188161502019095169490940493840181900481028201810190925282815295509193509150830182828015610d1a5780601f10610cef57610100808354040283529160200191610d1a565b820191906000526020600020905b815481529060010190602001808311610cfd57829003601f168201915b5050609c5489959493509150506117a6565b9050600181151514610d6e576040805162461bcd60e51b815260206004808301919091526024820152634d41313160e01b604482015290519081900360640190fd5b609854604080516364ab867560e01b81526001600160a01b038781166004830152915191909216916364ab86759160248083019260209291908290030181600087803b158015610dbd57600080fd5b505af1158015610dd1573d6000803e3d6000fd5b505050506040513d6020811015610de757600080fd5b50506040516001600160a01b038516907f3ce76091fe99d13ed35d6f2fb35abe5986f4499adbe050e7c78ed442d4f28cbd90600090a2609e5460408051630273b70d60e01b81526001600160a01b03878116600483015291516000939290921691630273b70d91602480820192602092909190829003018186803b158015610e6e57600080fd5b505afa158015610e82573d6000803e3d6000fd5b505050506040513d6020811015610e9857600080fd5b505190508015610f5257609e546040805163040c810560e51b81526001600160a01b0388811660048301529151919092169163819020a09160248083019260209291908290030181600087803b158015610ef157600080fd5b505af1158015610f05573d6000803e3d6000fd5b505050506040513d6020811015610f1b57600080fd5b50506040516001600160a01b038616907f8fd06ec0d3d2129524d4113d5ceaa7c51e3e58f789323ca39c101cfc15332caa90600090a25b609754604080516370a0823160e01b81526001600160a01b038881166004830152915160009392909216916370a0823191602480820192602092909190829003018186803b158015610fa357600080fd5b505afa158015610fb7573d6000803e3d6000fd5b505050506040513d6020811015610fcd57600080fd5b5051609954604051632145f74f60e11b81526001600160a01b0389811660048301908152602483018590526060604484019081528a5160648501528a51959650919093169363428bee9e938b9387938c93909160840190602085019080838360005b8381101561104757818101518382015260200161102f565b50505050905090810190601f1680156110745780820380516001836020036101000a031916815260200191505b50945050505050602060405180830381600087803b15801561109557600080fd5b505af11580156110a9573d6000803e3d6000fd5b505050506040513d60208110156110bf57600080fd5b505060408051828152602081810183815288519383019390935287516001600160a01b038a16937f4f4d8f18694e977d000a45e7f6a3389e58e6929e9b421ea97afe01389b5dea1c9386938b93919291606084019185019080838360005b8381101561113557818101518382015260200161111d565b50505050905090810190601f1680156111625780820380516001836020036101000a031916815260200191505b50935050505060405180910390a2856001600160a01b03167f01d12b8c46f5f101ba25555d392c69cab7984a20fc15cf8f4a23a05813e5334382876040518083815260200180602001828103825283818151815260200191508051906020019080838360005b838110156111e05781810151838201526020016111c8565b50505050905090810190601f16801561120d5780820380516001836020036101000a031916815260200191505b50935050505060405180910390a250600195945050505050565b60006112358161077961158c565b61126f576040805162461bcd60e51b8152602060048083019190915260248201526304d4131360e41b604482015290519081900360640190fd5b815161128290609d90602085019061256d565b50600192915050565b600081565b609b805460408051602060026001851615610100026000190190941693909304601f810184900484028201840190925281815292918301828280156107645780601f1061073957610100808354040283529160200191610764565b60006112f98161077961158c565b611330576040805162461bcd60e51b81526020600482015260036024820152624d413960e81b604482015290519081900360640190fd5b815161128290609a90602085019061256d565b6000818152606560205260408120610b8a906118bd565b609a805460408051602060026001851615610100026000190190941693909304601f810184900484028201840190925281815292918301828280156107645780601f1061073957610100808354040283529160200191610764565b6000828152606560205260409020600201546113d39061077961158c565b6109f15760405162461bcd60e51b81526004018080602001828103825260308152602001806126606030913960400191505060405180910390fd5b6098546001600160a01b031681565b609c5481565b6000805160206126be83398151915281565b600054610100900460ff168061144e575061144e6118c8565b8061145c575060005460ff16155b6114975760405162461bcd60e51b815260040180806020018281038252602e815260200180612690602e913960400191505060405180910390fd5b600054610100900460ff161580156114c2576000805460ff1961ff0019909116610100171660011790555b6114ca6118d9565b6114d261198b565b6114e460006114df61158c565b6108fe565b6114fc6000805160206126be833981519152836108fe565b6115058561076c565b61150e84610817565b6115178361090c565b60408051808201909152600680825265636f736d6f7360d01b602090920191825261154491609a9161256d565b50604080518082019091526001808252603160f81b602090920191825261156d91609b9161256d565b506026609c558015611585576000805461ff00191690555b5050505050565b3390565b60008281526065602052604090206115a89082611a28565b15610908576115b561158c565b6001600160a01b0316816001600160a01b0316837f2f8788117e7eff1d82e926ec794901d17c78024a50270940304540a733656f0d60405160405180910390a45050565b60008281526065602052604090206116119082611a3d565b156109085761161e61158c565b6001600160a01b0316816001600160a01b0316837ff6391f5c32d9c69d2a47ea670b442974b53935d1edc7fd64eb21e047a839171b60405160405180910390a45050565b61166a610aed565b6116b2576040805162461bcd60e51b815260206004820152601460248201527314185d5cd8589b194e881b9bdd081c185d5cd95960621b604482015290519081900360640190fd5b6033805460ff191690557f5db9ee0a495bf2e6ff9c91a7834c1ba4fdd244a5e8aa4e537bd38aeae4b073aa6116e561158c565b604080516001600160a01b039092168252519081900360200190a1565b61170a610aed565b1561174f576040805162461bcd60e51b815260206004820152601060248201526f14185d5cd8589b194e881c185d5cd95960821b604482015290519081900360640190fd5b6033805460ff191660011790557f62e78cea01bee320cd4e420270b5ea74000d11b0c9f74754ebdbfc544b05a2586116e561158c565b6000610b878383611a52565b6000610b87836001600160a01b038416611ab6565b8251600090859082906117bc9083908390611ace565b90506117c88187611bd7565b6117d7576000925050506118b5565b80516000906117e99084906001611ace565b90506117f58187611bd7565b61180557600093505050506118b5565b60006118278351600101600185518751030386611ace9092919063ffffffff16565b90508581511461183e5760009450505050506118b5565b8251845160009161185a91879160018101910360061901611ace565b9050600061186782611c3b565b905080516000141561188257600096505050505050506118b5565b600061188d86611d96565b9050600061189b8284611e2b565b905060006118a98683611bd7565b99505050505050505050505b949350505050565b6000610b8a82611f10565b60006118d330611f14565b15905090565b600054610100900460ff16806118f257506118f26118c8565b80611900575060005460ff16155b61193b5760405162461bcd60e51b815260040180806020018281038252602e815260200180612690602e913960400191505060405180910390fd5b600054610100900460ff16158015611966576000805460ff1961ff0019909116610100171660011790555b61196e611f1a565b611976611f1a565b8015611988576000805461ff00191690555b50565b600054610100900460ff16806119a457506119a46118c8565b806119b2575060005460ff16155b6119ed5760405162461bcd60e51b815260040180806020018281038252602e815260200180612690602e913960400191505060405180910390fd5b600054610100900460ff16158015611a18576000805460ff1961ff0019909116610100171660011790555b611a20611f1a565b611976611fba565b6000610b87836001600160a01b038416612065565b6000610b87836001600160a01b0384166120af565b81546000908210611a945760405162461bcd60e51b815260040180806020018281038252602281526020018061260f6022913960400191505060405180910390fd5b826000018281548110611aa357fe5b9060005260206000200154905092915050565b60009081526001919091016020526040902054151590565b60608182601f011015611b19576040805162461bcd60e51b815260206004820152600e60248201526d736c6963655f6f766572666c6f7760901b604482015290519081900360640190fd5b81830184511015611b65576040805162461bcd60e51b8152602060048201526011602482015270736c6963655f6f75744f66426f756e647360781b604482015290519081900360640190fd5b606082158015611b845760405191506000825260208201604052611bce565b6040519150601f8416801560200281840101858101878315602002848b0101015b81831015611bbd578051835260209283019201611ba5565b5050858452601f01601f1916604052505b50949350505050565b815181516000916001918114808314611bf35760009250611c31565b600160208701838101602088015b600284838510011415611c2c578051835114611c205760009650600093505b60209283019201611c01565b505050505b5090949350505050565b6060815167ffffffffffffffff81118015611c5557600080fd5b50604051908082528060200260200182016040528015611c7f578160200160208202803683370190505b50905060606000805b8451811015611d8e57600091505b60405180604001604052806020815260200160008051602061270d83398151915281525051821015611d375760405180604001604052806020815260200160008051602061270d8339815191528152508281518110611cf157fe5b602001015160f81c60f81b6001600160f81b031916858281518110611d1257fe5b01602001516001600160f81b0319161415611d2c57611d37565b600190910190611c96565b60405180604001604052806020815260200160008051602061270d83398151915281525051821415611d6e57829350505050610812565b81848281518110611d7b57fe5b6020908102919091010152600101611c88565b505050919050565b6060815167ffffffffffffffff81118015611db057600080fd5b50604051908082528060200260200182016040528015611dda578160200160208202803683370190505b50905060005b8251811015611e2557828181518110611df557fe5b602001015160f81c60f81b60f81c60ff16828281518110611e1257fe5b6020908102919091010152600101611de0565b50919050565b60606000611e4283611e3d8686612175565b612212565b90506000815167ffffffffffffffff81118015611e5e57600080fd5b506040519080825280601f01601f191660200182016040528015611e89576020820181803683370190505b50905060005b8251811015611bce5760405180604001604052806020815260200160008051602061270d833981519152815250838281518110611ec857fe5b602002602001015181518110611eda57fe5b602001015160f81c60f81b828281518110611ef157fe5b60200101906001600160f81b031916908160001a905350600101611e8f565b5490565b3b151590565b600054610100900460ff1680611f335750611f336118c8565b80611f41575060005460ff16155b611f7c5760405162461bcd60e51b815260040180806020018281038252602e815260200180612690602e913960400191505060405180910390fd5b600054610100900460ff16158015611976576000805460ff1961ff0019909116610100171660011790558015611988576000805461ff001916905550565b600054610100900460ff1680611fd35750611fd36118c8565b80611fe1575060005460ff16155b61201c5760405162461bcd60e51b815260040180806020018281038252602e815260200180612690602e913960400191505060405180910390fd5b600054610100900460ff16158015612047576000805460ff1961ff0019909116610100171660011790555b6033805460ff191690558015611988576000805461ff001916905550565b60006120718383611ab6565b6120a757508154600181810184556000848152602080822090930184905584548482528286019093526040902091909155610b8a565b506000610b8a565b6000818152600183016020526040812054801561216b57835460001980830191908101906000908790839081106120e257fe5b90600052602060002001549050808760000184815481106120ff57fe5b60009182526020808320909101929092558281526001898101909252604090209084019055865487908061212f57fe5b60019003818190600052602060002001600090559055866001016000878152602001908152602001600020600090556001945050505050610b8a565b6000915050610b8a565b6060600061219761218e612188866122e5565b85612212565b600060066123e2565b905060006121a4826124a8565b60408051600680825260e082019092526001929092189250600091906020820160c08036833701905050905060005b6006811015612208578060050360050283901c601f168282815181106121f557fe5b60209081029190910101526001016121d3565b5095945050505050565b60606000825184510167ffffffffffffffff8111801561223157600080fd5b5060405190808252806020026020018201604052801561225b578160200160208202803683370190505b50905060005b845181101561229d5784818151811061227657fe5b602002602001015182828151811061228a57fe5b6020908102919091010152600101612261565b60005b8451811015611c315784516001820191869181106122ba57fe5b60200260200101518383806001019450815181106122d457fe5b6020026020010181815250506122a0565b60606000825183510160010167ffffffffffffffff8111801561230757600080fd5b50604051908082528060200260200182016040528015612331578160200160208202803683370190505b50905060005b835181101561237757600584828151811061234e57fe5b6020026020010151901c82828151811061236457fe5b6020908102919091010152600101612337565b5060008184518151811061238757fe5b60200260200101818152505060005b83518110156123db578381815181106123ab57fe5b6020026020010151601f168285518301600101815181106123c857fe5b6020908102919091010152600101612396565b5092915050565b606060008285510167ffffffffffffffff8111801561240057600080fd5b5060405190808252806020026020018201604052801561242a578160200160208202803683370190505b50905060005b855181101561246c5785818151811061244557fe5b602002602001015182828151811061245957fe5b6020908102919091010152600101612430565b60005b8481101561249d578583838060010194508151811061248a57fe5b602090810291909101015260010161246f565b509095945050505050565b6040805160a081018252633b6a57b281526326508e6d6020820152631ea119fa91810191909152633d4233dd6060820152632a1462b360808201526000906001825b8451811015612565576000601983901c905085828151811061250857fe5b60200260200101516005846301ffffff16901b18925060005b600581101561255b57600182821c811614156125535784816005811061254357fe5b602002015163ffffffff16841893505b600101612521565b50506001016124ea565b509392505050565b828054600181600116156101000203166002900490600052602060002090601f0160209004810192826125a357600085556125e9565b82601f106125bc57805160ff19168380011785556125e9565b828001600101855582156125e9579182015b828111156125e95782518255916020019190600101906125ce565b506125f59291506125f9565b5090565b5b808211156125f557600081556001016125fa56fe456e756d657261626c655365743a20696e646578206f7574206f6620626f756e6473416363657373436f6e74726f6c3a2073656e646572206d75737420626520616e2061646d696e20746f206772616e74416363657373436f6e74726f6c3a2073656e646572206d75737420626520616e2061646d696e20746f207265766f6b65496e697469616c697a61626c653a20636f6e747261637420697320616c726561647920696e697469616c697a656465d7a28e3265b37a6474929f336521b332c1681b933f6cb9f3376673440d862a416363657373436f6e74726f6c3a2063616e206f6e6c792072656e6f756e636520726f6c657320666f722073656c6671707a7279397838676632747664773073336a6e35346b686365366d7561376ca26469706673582212200cb41e9c01147f964be47e19122672bbbd172604395d3728cf7c7bd2c6617f6c64736f6c63430007060033",
  "immutableReferences": {},
  "source": "/*\n Copyright [2019] - [2021], PERSISTENCE TECHNOLOGIES PTE. LTD. and the pStake-smartContracts contributors\n SPDX-License-Identifier: Apache-2.0\n*/\n\npragma solidity >=0.7.0;\n\nimport \"@openzeppelin/contracts-upgradeable/utils/PausableUpgradeable.sol\";\nimport \"@openzeppelin/contracts-upgradeable/access/AccessControlUpgradeable.sol\";\nimport \"./interfaces/IUTokensV3.sol\";\nimport \"./interfaces/ISTokensV3.sol\";\nimport \"./interfaces/ITokenWrapperV5.sol\";\nimport \"./interfaces/IMigrationAdminV4.sol\";\nimport \"./interfaces/ILiquidStakingV4.sol\";\nimport \"./libraries/Bech32.sol\";\n\ncontract MigrationAdminV5 is\nIMigrationAdminV4,\nPausableUpgradeable,\nAccessControlUpgradeable\n{\n    using Bech32 for string;\n\n    //Private instances of contracts to handle Utokens\n    IUTokensV3 public _uTokens;\n    ISTokensV3 public _sTokens;\n    ITokenWrapperV5 public _tokenWrapper;\n\n    // constants defining access control ROLES\n    bytes32 public constant PAUSER_ROLE = keccak256(\"PAUSER_ROLE\");\n\n    //variables defining bech32 validation attributes\n    bytes public hrpBytes;\n    bytes public controlDigitBytes;\n    uint256 public dataBytesSize;\n    bytes public cosmosHrpBytes;\n\n    // Liquid staking contract address\n    address public override _liquidStakingContract;\n\n    /*\n     * @dev Constructor for initializing the TokenWrapper contract.\n\t * @param uAddress - address of the UToken contract.\n\t * @param bridgeAdminAddress - address of the bridge admin.\n\t * @param pauserAddress - address of the pauser admin.\n\t * @param valueDivisor - valueDivisor set to 10^9.\n\t */\n    function initialize(\n        address uAddress,\n        address sAddress,\n        address tokenWrapperAddress,\n        address pauserAddress\n    ) public virtual initializer {\n        __AccessControl_init();\n        __Pausable_init();\n        _setupRole(DEFAULT_ADMIN_ROLE, _msgSender());\n        _setupRole(PAUSER_ROLE, pauserAddress);\n        setUTokensContract(uAddress);\n        setSTokensContract(sAddress);\n        setTokenWrapperContract(tokenWrapperAddress);\n        // setting bech32 validation attributes\n        hrpBytes = \"cosmos\";\n        controlDigitBytes = \"1\";\n        dataBytesSize = 38;\n    }\n\n    /*\n     * @dev Set 'contract address', called for utokens smart contract\n\t * @param sAddress: utoken contract address\n\t *\n\t * Emits a {SetUTokensContract} event with '_contract' set to the utoken contract address.\n\t *\n\t */\n    function setUTokensContract(address uAddress) public virtual override {\n        require(hasRole(DEFAULT_ADMIN_ROLE, _msgSender()), \"MA1\");\n        _uTokens = IUTokensV3(uAddress);\n        emit SetUTokensContract(uAddress);\n    }\n\n    /*\n     * @dev Set 'contract address', called for stokens smart contract\n\t * @param sAddress: stoken contract address\n\t *\n\t * Emits a {SetSTokensContract} event with '_contract' set to the stoken contract address.\n\t *\n\t */\n    function setSTokensContract(address sAddress) public virtual override {\n        require(hasRole(DEFAULT_ADMIN_ROLE, _msgSender()), \"MA2\");\n        _sTokens = ISTokensV3(sAddress);\n        emit SetSTokensContract(sAddress);\n    }\n\n    /*\n     * @dev Set 'contract address', called for tokenWrapper smart contract\n\t * @param sAddress: tokenWrapper contract address\n\t *\n\t * Emits a {SetTokenWrapperContract} event with '_contract' set to the tokenWrapper contract address.\n\t *\n\t */\n    function setTokenWrapperContract(address tokenWrapperAddress) public virtual override {\n        require(hasRole(DEFAULT_ADMIN_ROLE, _msgSender()), \"MA3\");\n        _tokenWrapper = ITokenWrapperV5(tokenWrapperAddress);\n        emit SetTokenWrapperContract(tokenWrapperAddress);\n    }\n\n    /*\n     * @dev Set 'contract address', called for liquid staking smart contract\n\t * @param liquidStakingAddress: liquid staking contract address\n\t *\n\t * Emits a {SetLiquidStakingContract} event with '_contract' set to the liquid staking contract address.\n\t *\n\t */\n    function setLiquidStakingContract(address liquidStakingAddress) public virtual override {\n        require(hasRole(DEFAULT_ADMIN_ROLE, _msgSender()), \"MA12\");\n        _liquidStakingContract = liquidStakingAddress;\n        emit SetLiquidStakingContract(liquidStakingAddress);\n    }\n\n    /**\n\t * @dev Migrating tokens\n\t * @param accountAddress: users address\n\t * @param toCosmosChainAddress: cosmos address\n\t *\n\t * Emits a {SetMigrationCompleteEvent} event.\n\t *\n\t */\n    function Migrate(address accountAddress, string memory toCosmosChainAddress)\n    public\n    virtual\n    override\n    returns (bool success)\n    {\n        require(accountAddress == _msgSender(), \"MA5\");\n\n        bool isCosmosAddressValid = toCosmosChainAddress.isBech32AddressValid(\n            cosmosHrpBytes,\n            controlDigitBytes,\n            dataBytesSize\n        );\n        require(isCosmosAddressValid == true, \"MA11\");\n\n        //claim pending rewards\n        _sTokens.calculateRewards(accountAddress);\n        emit ClaimPendingRewardsEvent(accountAddress);\n\n        //claim unbonded tokens only when token amount is greater than 0\n        uint256 currentUnbondedTokens = ILiquidStakingV4(_liquidStakingContract).getTotalUnbondedTokens(accountAddress);\n        if(currentUnbondedTokens > 0){\n            ILiquidStakingV4(_liquidStakingContract).withdrawUnstakedTokens(accountAddress);\n            emit ClaimUnbondedRewardsEvent(accountAddress);\n        }\n\n        //withdraw uTokens\n        // require user to hold enough UTokens balance\n        uint256 currentUTokenBalance = _uTokens.balanceOf(accountAddress);\n        _tokenWrapper.withdrawUTokens(accountAddress, currentUTokenBalance, toCosmosChainAddress);\n        emit WithdrawUTokensEvent(accountAddress, currentUTokenBalance, toCosmosChainAddress);\n\n        emit SetMigrationCompleteEvent(accountAddress, currentUTokenBalance, toCosmosChainAddress);\n        return true;\n    }\n\n    /**\n     * @dev Triggers stopped state.\n\t *\n\t */\n    function pause() public virtual override returns (bool success) {\n        require(hasRole(PAUSER_ROLE, _msgSender()), \"MA7\");\n        _pause();\n        return true;\n    }\n\n    /**\n     * @dev Returns to normal state.\n\t *\n\t */\n    function unpause() public virtual override returns (bool success) {\n        require(hasRole(PAUSER_ROLE, _msgSender()), \"MA8\");\n        _unpause();\n        return true;\n    }\n\n    /*\n     * @dev Set 'hrp bytes', called to check bech32 address\n\t * @param _hrpBytes: persistence bech32 prefix\n\t */\n    function setHRPBytes(bytes memory _hrpBytes) public virtual override returns (bool success) {\n        require(hasRole(DEFAULT_ADMIN_ROLE, _msgSender()), \"MA9\");\n        hrpBytes = _hrpBytes;\n        return true;\n    }\n\n    /*\n     * @dev Set 'hrp bytes', called to check bech32 address\n\t * @param _hrpBytes: bech32 prefix\n\t */\n    function setCosmosHRPBytes(bytes memory _hrpBytes) public virtual override returns (bool success) {\n        require(hasRole(DEFAULT_ADMIN_ROLE, _msgSender()), \"MA10\");\n        cosmosHrpBytes = _hrpBytes;\n        return true;\n    }\n}\n",
  "sourcePath": "/Users/aditimaheshwari/Documents/Work/Persistence/Codebase/persistenceOne/pStake-smartContracts/contracts/MigrationAdminV5.sol",
  "compiler": {
    "name": "solc",
    "version": "0.7.6+commit.7338295f.Emscripten.clang"
  },
  "schemaVersion": "3.4.3",
  "updatedAt": "2022-09-14T10:30:15.819Z",
  "networkType": "ethereum",
  "devdoc": {
    "kind": "dev",
    "methods": {
      "Migrate(address,string)": {
        "details": "Migrating tokens",
        "params": {
          "accountAddress": ": users address",
          "toCosmosChainAddress": ": cosmos address Emits a {SetMigrationCompleteEvent} event."
        }
      },
      "getRoleAdmin(bytes32)": {
        "details": "Returns the admin role that controls `role`. See {grantRole} and {revokeRole}. To change a role's admin, use {_setRoleAdmin}."
      },
      "getRoleMember(bytes32,uint256)": {
        "details": "Returns one of the accounts that have `role`. `index` must be a value between 0 and {getRoleMemberCount}, non-inclusive. Role bearers are not sorted in any particular way, and their ordering may change at any point. WARNING: When using {getRoleMember} and {getRoleMemberCount}, make sure you perform all queries on the same block. See the following https://forum.openzeppelin.com/t/iterating-over-elements-on-enumerableset-in-openzeppelin-contracts/2296[forum post] for more information."
      },
      "getRoleMemberCount(bytes32)": {
        "details": "Returns the number of accounts that have `role`. Can be used together with {getRoleMember} to enumerate all bearers of a role."
      },
      "grantRole(bytes32,address)": {
        "details": "Grants `role` to `account`. If `account` had not been already granted `role`, emits a {RoleGranted} event. Requirements: - the caller must have ``role``'s admin role."
      },
      "hasRole(bytes32,address)": {
        "details": "Returns `true` if `account` has been granted `role`."
      },
      "pause()": {
        "details": "Triggers stopped state."
      },
      "paused()": {
        "details": "Returns true if the contract is paused, and false otherwise."
      },
      "renounceRole(bytes32,address)": {
        "details": "Revokes `role` from the calling account. Roles are often managed via {grantRole} and {revokeRole}: this function's purpose is to provide a mechanism for accounts to lose their privileges if they are compromised (such as when a trusted device is misplaced). If the calling account had been granted `role`, emits a {RoleRevoked} event. Requirements: - the caller must be `account`."
      },
      "revokeRole(bytes32,address)": {
        "details": "Revokes `role` from `account`. If `account` had been granted `role`, emits a {RoleRevoked} event. Requirements: - the caller must have ``role``'s admin role."
      },
      "setSTokensContract(address)": {
        "details": "Set STokens smart contract. Emits a {SetSTokensContract} event."
      },
      "setUTokensContract(address)": {
        "details": "Set UTokens smart contract. Emits a {SetUTokensContract} event."
      },
      "unpause()": {
        "details": "Returns to normal state."
      }
    },
    "version": 1
  },
  "userdoc": {
    "kind": "user",
    "methods": {},
    "version": 1
  }
}