{
  "contractName": "PSTAKE",
  "abi": [
    {
      "anonymous": false,
      "inputs": [
        {
          "indexed": true,
          "internalType": "address",
          "name": "owner",
          "type": "address"
        },
        {
          "indexed": true,
          "internalType": "address",
          "name": "spender",
          "type": "address"
        },
        {
          "indexed": false,
          "internalType": "uint256",
          "name": "value",
          "type": "uint256"
        }
      ],
      "name": "Approval",
      "type": "event"
    },
    {
      "anonymous": false,
      "inputs": [
        {
          "indexed": true,
          "internalType": "address",
          "name": "accountAddress",
          "type": "address"
        },
        {
          "indexed": false,
          "internalType": "uint256",
          "name": "tokens",
          "type": "uint256"
        },
        {
          "indexed": false,
          "internalType": "uint256",
          "name": "timestamp",
          "type": "uint256"
        }
      ],
      "name": "CalculateRewards",
      "type": "event"
    },
    {
      "anonymous": false,
      "inputs": [
        {
          "indexed": false,
          "internalType": "address",
          "name": "account",
          "type": "address"
        }
      ],
      "name": "Paused",
      "type": "event"
    },
    {
      "anonymous": false,
      "inputs": [
        {
          "indexed": true,
          "internalType": "bytes32",
          "name": "role",
          "type": "bytes32"
        },
        {
          "indexed": true,
          "internalType": "bytes32",
          "name": "previousAdminRole",
          "type": "bytes32"
        },
        {
          "indexed": true,
          "internalType": "bytes32",
          "name": "newAdminRole",
          "type": "bytes32"
        }
      ],
      "name": "RoleAdminChanged",
      "type": "event"
    },
    {
      "anonymous": false,
      "inputs": [
        {
          "indexed": true,
          "internalType": "bytes32",
          "name": "role",
          "type": "bytes32"
        },
        {
          "indexed": true,
          "internalType": "address",
          "name": "account",
          "type": "address"
        },
        {
          "indexed": true,
          "internalType": "address",
          "name": "sender",
          "type": "address"
        }
      ],
      "name": "RoleGranted",
      "type": "event"
    },
    {
      "anonymous": false,
      "inputs": [
        {
          "indexed": true,
          "internalType": "bytes32",
          "name": "role",
          "type": "bytes32"
        },
        {
          "indexed": true,
          "internalType": "address",
          "name": "account",
          "type": "address"
        },
        {
          "indexed": true,
          "internalType": "address",
          "name": "sender",
          "type": "address"
        }
      ],
      "name": "RoleRevoked",
      "type": "event"
    },
    {
      "anonymous": false,
      "inputs": [
        {
          "indexed": true,
          "internalType": "address",
          "name": "_contract",
          "type": "address"
        }
      ],
      "name": "SetLiquidStakingContract",
      "type": "event"
    },
    {
      "anonymous": false,
      "inputs": [
        {
          "indexed": true,
          "internalType": "address",
          "name": "_contract",
          "type": "address"
        }
      ],
      "name": "SetStakeLPCoreContract",
      "type": "event"
    },
    {
      "anonymous": false,
      "inputs": [
        {
          "indexed": true,
          "internalType": "address",
          "name": "_contract",
          "type": "address"
        }
      ],
      "name": "SetTokenWrapperContract",
      "type": "event"
    },
    {
      "anonymous": false,
      "inputs": [
        {
          "indexed": true,
          "internalType": "address",
          "name": "_contract",
          "type": "address"
        }
      ],
      "name": "SetUTokensContract",
      "type": "event"
    },
    {
      "anonymous": false,
      "inputs": [
        {
          "indexed": true,
          "internalType": "address",
          "name": "from",
          "type": "address"
        },
        {
          "indexed": true,
          "internalType": "address",
          "name": "to",
          "type": "address"
        },
        {
          "indexed": false,
          "internalType": "uint256",
          "name": "value",
          "type": "uint256"
        }
      ],
      "name": "Transfer",
      "type": "event"
    },
    {
      "anonymous": false,
      "inputs": [
        {
          "indexed": true,
          "internalType": "address",
          "name": "accountAddress",
          "type": "address"
        },
        {
          "indexed": false,
          "internalType": "uint256",
          "name": "tokens",
          "type": "uint256"
        },
        {
          "indexed": false,
          "internalType": "uint256",
          "name": "timestamp",
          "type": "uint256"
        }
      ],
      "name": "TriggeredCalculateRewards",
      "type": "event"
    },
    {
      "anonymous": false,
      "inputs": [
        {
          "indexed": false,
          "internalType": "address",
          "name": "account",
          "type": "address"
        }
      ],
      "name": "Unpaused",
      "type": "event"
    },
    {
      "inputs": [],
      "name": "DEFAULT_ADMIN_ROLE",
      "outputs": [
        {
          "internalType": "bytes32",
          "name": "",
          "type": "bytes32"
        }
      ],
      "stateMutability": "view",
      "type": "function"
    },
    {
      "inputs": [],
      "name": "PAUSER_ROLE",
      "outputs": [
        {
          "internalType": "bytes32",
          "name": "",
          "type": "bytes32"
        }
      ],
      "stateMutability": "view",
      "type": "function"
    },
    {
      "inputs": [
        {
          "internalType": "address",
          "name": "owner",
          "type": "address"
        },
        {
          "internalType": "address",
          "name": "spender",
          "type": "address"
        }
      ],
      "name": "allowance",
      "outputs": [
        {
          "internalType": "uint256",
          "name": "",
          "type": "uint256"
        }
      ],
      "stateMutability": "view",
      "type": "function"
    },
    {
      "inputs": [
        {
          "internalType": "address",
          "name": "spender",
          "type": "address"
        },
        {
          "internalType": "uint256",
          "name": "amount",
          "type": "uint256"
        }
      ],
      "name": "approve",
      "outputs": [
        {
          "internalType": "bool",
          "name": "",
          "type": "bool"
        }
      ],
      "stateMutability": "nonpayable",
      "type": "function"
    },
    {
      "inputs": [
        {
          "internalType": "address",
          "name": "account",
          "type": "address"
        }
      ],
      "name": "balanceOf",
      "outputs": [
        {
          "internalType": "uint256",
          "name": "",
          "type": "uint256"
        }
      ],
      "stateMutability": "view",
      "type": "function"
    },
    {
      "inputs": [],
      "name": "decimals",
      "outputs": [
        {
          "internalType": "uint8",
          "name": "",
          "type": "uint8"
        }
      ],
      "stateMutability": "view",
      "type": "function"
    },
    {
      "inputs": [
        {
          "internalType": "address",
          "name": "spender",
          "type": "address"
        },
        {
          "internalType": "uint256",
          "name": "subtractedValue",
          "type": "uint256"
        }
      ],
      "name": "decreaseAllowance",
      "outputs": [
        {
          "internalType": "bool",
          "name": "",
          "type": "bool"
        }
      ],
      "stateMutability": "nonpayable",
      "type": "function"
    },
    {
      "inputs": [
        {
          "internalType": "bytes32",
          "name": "role",
          "type": "bytes32"
        }
      ],
      "name": "getRoleAdmin",
      "outputs": [
        {
          "internalType": "bytes32",
          "name": "",
          "type": "bytes32"
        }
      ],
      "stateMutability": "view",
      "type": "function"
    },
    {
      "inputs": [
        {
          "internalType": "bytes32",
          "name": "role",
          "type": "bytes32"
        },
        {
          "internalType": "uint256",
          "name": "index",
          "type": "uint256"
        }
      ],
      "name": "getRoleMember",
      "outputs": [
        {
          "internalType": "address",
          "name": "",
          "type": "address"
        }
      ],
      "stateMutability": "view",
      "type": "function"
    },
    {
      "inputs": [
        {
          "internalType": "bytes32",
          "name": "role",
          "type": "bytes32"
        }
      ],
      "name": "getRoleMemberCount",
      "outputs": [
        {
          "internalType": "uint256",
          "name": "",
          "type": "uint256"
        }
      ],
      "stateMutability": "view",
      "type": "function"
    },
    {
      "inputs": [
        {
          "internalType": "bytes32",
          "name": "role",
          "type": "bytes32"
        },
        {
          "internalType": "address",
          "name": "account",
          "type": "address"
        }
      ],
      "name": "grantRole",
      "outputs": [],
      "stateMutability": "nonpayable",
      "type": "function"
    },
    {
      "inputs": [
        {
          "internalType": "bytes32",
          "name": "role",
          "type": "bytes32"
        },
        {
          "internalType": "address",
          "name": "account",
          "type": "address"
        }
      ],
      "name": "hasRole",
      "outputs": [
        {
          "internalType": "bool",
          "name": "",
          "type": "bool"
        }
      ],
      "stateMutability": "view",
      "type": "function"
    },
    {
      "inputs": [
        {
          "internalType": "address",
          "name": "spender",
          "type": "address"
        },
        {
          "internalType": "uint256",
          "name": "addedValue",
          "type": "uint256"
        }
      ],
      "name": "increaseAllowance",
      "outputs": [
        {
          "internalType": "bool",
          "name": "",
          "type": "bool"
        }
      ],
      "stateMutability": "nonpayable",
      "type": "function"
    },
    {
      "inputs": [],
      "name": "name",
      "outputs": [
        {
          "internalType": "string",
          "name": "",
          "type": "string"
        }
      ],
      "stateMutability": "view",
      "type": "function"
    },
    {
      "inputs": [],
      "name": "paused",
      "outputs": [
        {
          "internalType": "bool",
          "name": "",
          "type": "bool"
        }
      ],
      "stateMutability": "view",
      "type": "function"
    },
    {
      "inputs": [
        {
          "internalType": "bytes32",
          "name": "role",
          "type": "bytes32"
        },
        {
          "internalType": "address",
          "name": "account",
          "type": "address"
        }
      ],
      "name": "renounceRole",
      "outputs": [],
      "stateMutability": "nonpayable",
      "type": "function"
    },
    {
      "inputs": [
        {
          "internalType": "bytes32",
          "name": "role",
          "type": "bytes32"
        },
        {
          "internalType": "address",
          "name": "account",
          "type": "address"
        }
      ],
      "name": "revokeRole",
      "outputs": [],
      "stateMutability": "nonpayable",
      "type": "function"
    },
    {
      "inputs": [],
      "name": "symbol",
      "outputs": [
        {
          "internalType": "string",
          "name": "",
          "type": "string"
        }
      ],
      "stateMutability": "view",
      "type": "function"
    },
    {
      "inputs": [],
      "name": "totalSupply",
      "outputs": [
        {
          "internalType": "uint256",
          "name": "",
          "type": "uint256"
        }
      ],
      "stateMutability": "view",
      "type": "function"
    },
    {
      "inputs": [
        {
          "internalType": "address",
          "name": "recipient",
          "type": "address"
        },
        {
          "internalType": "uint256",
          "name": "amount",
          "type": "uint256"
        }
      ],
      "name": "transfer",
      "outputs": [
        {
          "internalType": "bool",
          "name": "",
          "type": "bool"
        }
      ],
      "stateMutability": "nonpayable",
      "type": "function"
    },
    {
      "inputs": [
        {
          "internalType": "address",
          "name": "sender",
          "type": "address"
        },
        {
          "internalType": "address",
          "name": "recipient",
          "type": "address"
        },
        {
          "internalType": "uint256",
          "name": "amount",
          "type": "uint256"
        }
      ],
      "name": "transferFrom",
      "outputs": [
        {
          "internalType": "bool",
          "name": "",
          "type": "bool"
        }
      ],
      "stateMutability": "nonpayable",
      "type": "function"
    },
    {
      "inputs": [
        {
          "internalType": "address",
          "name": "pauserAddress",
          "type": "address"
        }
      ],
      "name": "initialize",
      "outputs": [],
      "stateMutability": "nonpayable",
      "type": "function"
    },
    {
      "inputs": [
        {
          "internalType": "address",
          "name": "to",
          "type": "address"
        },
        {
          "internalType": "uint256",
          "name": "tokens",
          "type": "uint256"
        }
      ],
      "name": "mint",
      "outputs": [
        {
          "internalType": "bool",
          "name": "success",
          "type": "bool"
        }
      ],
      "stateMutability": "nonpayable",
      "type": "function"
    },
    {
      "inputs": [
        {
          "internalType": "address",
          "name": "stakeLPCoreContract",
          "type": "address"
        }
      ],
      "name": "setStakeLPCoreContract",
      "outputs": [],
      "stateMutability": "nonpayable",
      "type": "function"
    },
    {
      "inputs": [],
      "name": "pause",
      "outputs": [
        {
          "internalType": "bool",
          "name": "success",
          "type": "bool"
        }
      ],
      "stateMutability": "nonpayable",
      "type": "function"
    },
    {
      "inputs": [],
      "name": "unpause",
      "outputs": [
        {
          "internalType": "bool",
          "name": "success",
          "type": "bool"
        }
      ],
      "stateMutability": "nonpayable",
      "type": "function"
    }
  ],
  "bytecode": "0x608060405234801561001057600080fd5b50611c48806100206000396000f3fe608060405234801561001057600080fd5b506004361061018e5760003560e01c806370a08231116100de578063a457c2d711610097578063ca15c87311610071578063ca15c873146104ea578063d547741f14610507578063dd62ed3e14610533578063e63ab1e9146105615761018e565b8063a457c2d71461046c578063a9059cbb14610498578063c4d66de8146104c45761018e565b806370a08231146103c35780638456cb59146103e95780639010d07c146103f157806391d148541461043057806395d89b411461045c578063a217fddf146104645761018e565b8063313ce5671161014b5780633f4ba83a116101255780633f4ba83a1461036157806340c10f19146103695780635c975abb146103955780636b0a93561461039d5761018e565b8063313ce567146102eb57806336568abe1461030957806339509351146103355761018e565b806306fdde0314610193578063095ea7b31461021057806318160ddd1461025057806323b872dd1461026a578063248a9ca3146102a05780632f2ff15d146102bd575b600080fd5b61019b610569565b6040805160208082528351818301528351919283929083019185019080838360005b838110156101d55781810151838201526020016101bd565b50505050905090810190601f1680156102025780820380516001836020036101000a031916815260200191505b509250505060405180910390f35b61023c6004803603604081101561022657600080fd5b506001600160a01b0381351690602001356105ff565b604080519115158252519081900360200190f35b61025861061d565b60408051918252519081900360200190f35b61023c6004803603606081101561028057600080fd5b506001600160a01b03813581169160208101359091169060400135610623565b610258600480360360208110156102b657600080fd5b50356106aa565b6102e9600480360360408110156102d357600080fd5b50803590602001356001600160a01b03166106bf565b005b6102f361072b565b6040805160ff9092168252519081900360200190f35b6102e96004803603604081101561031f57600080fd5b50803590602001356001600160a01b0316610734565b61023c6004803603604081101561034b57600080fd5b506001600160a01b038135169060200135610795565b61023c6107e3565b61023c6004803603604081101561037f57600080fd5b506001600160a01b038135169060200135610844565b61023c6108a6565b6102e9600480360360208110156103b357600080fd5b50356001600160a01b03166108af565b610258600480360360208110156103d957600080fd5b50356001600160a01b031661093d565b61023c610958565b6104146004803603604081101561040757600080fd5b50803590602001356109b3565b604080516001600160a01b039092168252519081900360200190f35b61023c6004803603604081101561044657600080fd5b50803590602001356001600160a01b03166109d2565b61019b6109ea565b610258610a4b565b61023c6004803603604081101561048257600080fd5b506001600160a01b038135169060200135610a50565b61023c600480360360408110156104ae57600080fd5b506001600160a01b038135169060200135610ab8565b6102e9600480360360208110156104da57600080fd5b50356001600160a01b0316610acc565b6102586004803603602081101561050057600080fd5b5035610c1a565b6102e96004803603604081101561051d57600080fd5b50803590602001356001600160a01b0316610c31565b6102586004803603604081101561054957600080fd5b506001600160a01b0381358116916020013516610c8a565b610258610cb5565b60368054604080516020601f60026000196101006001881615020190951694909404938401819004810282018101909252828152606093909290918301828280156105f55780601f106105ca576101008083540402835291602001916105f5565b820191906000526020600020905b8154815290600101906020018083116105d857829003601f168201915b5050505050905090565b600061061361060c610cc7565b8484610ccb565b5060015b92915050565b60355490565b6000610630848484610db7565b6106a08461063c610cc7565b61069b85604051806060016040528060288152602001611b2e602891396001600160a01b038a1660009081526034602052604081209061067a610cc7565b6001600160a01b031681526020810191909152604001600020549190610f14565b610ccb565b5060019392505050565b60009081526097602052604090206002015490565b6000828152609760205260409020600201546106e2906106dd610cc7565b6109d2565b61071d5760405162461bcd60e51b815260040180806020018281038252602f815260200180611a59602f913960400191505060405180910390fd5b6107278282610fab565b5050565b60385460ff1690565b61073c610cc7565b6001600160a01b0316816001600160a01b03161461078b5760405162461bcd60e51b815260040180806020018281038252602f815260200180611be4602f913960400191505060405180910390fd5b6107278282611014565b60006106136107a2610cc7565b8461069b85603460006107b3610cc7565b6001600160a01b03908116825260208083019390935260409182016000908120918c16815292529020549061107d565b60006107ff600080516020611b568339815191526106dd610cc7565b610836576040805162461bcd60e51b81526020600482015260036024820152621414cd60ea1b604482015290519081900360640190fd5b61083e6110d7565b50600190565b60c9546000906001600160a01b031661085b610cc7565b6001600160a01b03161461089c576040805162461bcd60e51b815260206004820152600360248201526250533160e81b604482015290519081900360640190fd5b6106138383611177565b60655460ff1690565b6108bc60006106dd610cc7565b6108f3576040805162461bcd60e51b815260206004820152600360248201526228299960e91b604482015290519081900360640190fd5b60c980546001600160a01b0319166001600160a01b0383169081179091556040517f956e636358b715ce07711e6cde8321e45298a1393051158ee3940beac0b9e40190600090a250565b6001600160a01b031660009081526033602052604090205490565b6000610974600080516020611b568339815191526106dd610cc7565b6109ab576040805162461bcd60e51b815260206004820152600360248201526250533360e81b604482015290519081900360640190fd5b61083e611269565b60008281526097602052604081206109cb90836112ec565b9392505050565b60008281526097602052604081206109cb90836112f8565b60378054604080516020601f60026000196101006001881615020190951694909404938401819004810282018101909252828152606093909290918301828280156105f55780601f106105ca576101008083540402835291602001916105f5565b600081565b6000610613610a5d610cc7565b8461069b85604051806060016040528060258152602001611bbf6025913960346000610a87610cc7565b6001600160a01b03908116825260208083019390935260409182016000908120918d16815292529020549190610f14565b6000610613610ac5610cc7565b8484610db7565b600054610100900460ff1680610ae55750610ae561130d565b80610af3575060005460ff16155b610b2e5760405162461bcd60e51b815260040180806020018281038252602e815260200180611b00602e913960400191505060405180910390fd5b600054610100900460ff16158015610b59576000805460ff1961ff0019909116610100171660011790555b610ba56040518060400160405280600c81526020016b3829aa20a5a2902a37b5b2b760a11b81525060405180604001604052806006815260200165505354414b4560d01b81525061131e565b610bad6113d4565b610bb5611486565b610bc76000610bc2610cc7565b61071d565b610bdf600080516020611b568339815191528361071d565b610be96012611523565b610c05610bf4610cc7565b6a0422ca8b0a00a425000000611177565b8015610727576000805461ff00191690555050565b600081815260976020526040812061061790611539565b600082815260976020526040902060020154610c4f906106dd610cc7565b61078b5760405162461bcd60e51b8152600401808060200182810382526030815260200180611ad06030913960400191505060405180910390fd5b6001600160a01b03918216600090815260346020908152604080832093909416825291909152205490565b600080516020611b5683398151915281565b3390565b6001600160a01b038316610d105760405162461bcd60e51b8152600401808060200182810382526024815260200180611b9b6024913960400191505060405180910390fd5b6001600160a01b038216610d555760405162461bcd60e51b8152600401808060200182810382526022815260200180611a886022913960400191505060405180910390fd5b6001600160a01b03808416600081815260346020908152604080832094871680845294825291829020859055815185815291517f8c5be1e5ebec7d5bd14f71427d1e84f3dd0314c0f7b2291e5b200ac8c7c3b9259281900390910190a3505050565b6001600160a01b038316610dfc5760405162461bcd60e51b8152600401808060200182810382526025815260200180611b766025913960400191505060405180910390fd5b6001600160a01b038216610e415760405162461bcd60e51b8152600401808060200182810382526023815260200180611a366023913960400191505060405180910390fd5b610e4c838383611544565b610e8981604051806060016040528060268152602001611aaa602691396001600160a01b0386166000908152603360205260409020549190610f14565b6001600160a01b038085166000908152603360205260408082209390935590841681522054610eb8908261107d565b6001600160a01b0380841660008181526033602090815260409182902094909455805185815290519193928716927fddf252ad1be2c89b69c2b068fc378daa952ba7f163c4a11628f55a4df523b3ef92918290030190a3505050565b60008184841115610fa35760405162461bcd60e51b81526004018080602001828103825283818151815260200191508051906020019080838360005b83811015610f68578181015183820152602001610f50565b50505050905090810190601f168015610f955780820380516001836020036101000a031916815260200191505b509250505060405180910390fd5b505050900390565b6000828152609760205260409020610fc3908261158f565b1561072757610fd0610cc7565b6001600160a01b0316816001600160a01b0316837f2f8788117e7eff1d82e926ec794901d17c78024a50270940304540a733656f0d60405160405180910390a45050565b600082815260976020526040902061102c90826115a4565b1561072757611039610cc7565b6001600160a01b0316816001600160a01b0316837ff6391f5c32d9c69d2a47ea670b442974b53935d1edc7fd64eb21e047a839171b60405160405180910390a45050565b6000828201838110156109cb576040805162461bcd60e51b815260206004820152601b60248201527f536166654d6174683a206164646974696f6e206f766572666c6f770000000000604482015290519081900360640190fd5b6110df6108a6565b611127576040805162461bcd60e51b815260206004820152601460248201527314185d5cd8589b194e881b9bdd081c185d5cd95960621b604482015290519081900360640190fd5b6065805460ff191690557f5db9ee0a495bf2e6ff9c91a7834c1ba4fdd244a5e8aa4e537bd38aeae4b073aa61115a610cc7565b604080516001600160a01b039092168252519081900360200190a1565b6001600160a01b0382166111d2576040805162461bcd60e51b815260206004820152601f60248201527f45524332303a206d696e7420746f20746865207a65726f206164647265737300604482015290519081900360640190fd5b6111de60008383611544565b6035546111eb908261107d565b6035556001600160a01b038216600090815260336020526040902054611211908261107d565b6001600160a01b03831660008181526033602090815260408083209490945583518581529351929391927fddf252ad1be2c89b69c2b068fc378daa952ba7f163c4a11628f55a4df523b3ef9281900390910190a35050565b6112716108a6565b156112b6576040805162461bcd60e51b815260206004820152601060248201526f14185d5cd8589b194e881c185d5cd95960821b604482015290519081900360640190fd5b6065805460ff191660011790557f62e78cea01bee320cd4e420270b5ea74000d11b0c9f74754ebdbfc544b05a25861115a610cc7565b60006109cb83836115b9565b60006109cb836001600160a01b03841661161d565b600061131830611635565b15905090565b600054610100900460ff1680611337575061133761130d565b80611345575060005460ff16155b6113805760405162461bcd60e51b815260040180806020018281038252602e815260200180611b00602e913960400191505060405180910390fd5b600054610100900460ff161580156113ab576000805460ff1961ff0019909116610100171660011790555b6113b361163b565b6113bd83836116db565b80156113cf576000805461ff00191690555b505050565b600054610100900460ff16806113ed57506113ed61130d565b806113fb575060005460ff16155b6114365760405162461bcd60e51b815260040180806020018281038252602e815260200180611b00602e913960400191505060405180910390fd5b600054610100900460ff16158015611461576000805460ff1961ff0019909116610100171660011790555b61146961163b565b61147161163b565b8015611483576000805461ff00191690555b50565b600054610100900460ff168061149f575061149f61130d565b806114ad575060005460ff16155b6114e85760405162461bcd60e51b815260040180806020018281038252602e815260200180611b00602e913960400191505060405180910390fd5b600054610100900460ff16158015611513576000805460ff1961ff0019909116610100171660011790555b61151b61163b565b6114716117b3565b6038805460ff191660ff92909216919091179055565b60006106178261185e565b61154c6108a6565b15611584576040805162461bcd60e51b815260206004820152600360248201526250533560e81b604482015290519081900360640190fd5b6113cf8383836113cf565b60006109cb836001600160a01b038416611862565b60006109cb836001600160a01b0384166118ac565b815460009082106115fb5760405162461bcd60e51b8152600401808060200182810382526022815260200180611a146022913960400191505060405180910390fd5b82600001828154811061160a57fe5b9060005260206000200154905092915050565b60009081526001919091016020526040902054151590565b3b151590565b600054610100900460ff1680611654575061165461130d565b80611662575060005460ff16155b61169d5760405162461bcd60e51b815260040180806020018281038252602e815260200180611b00602e913960400191505060405180910390fd5b600054610100900460ff16158015611471576000805460ff1961ff0019909116610100171660011790558015611483576000805461ff001916905550565b600054610100900460ff16806116f457506116f461130d565b80611702575060005460ff16155b61173d5760405162461bcd60e51b815260040180806020018281038252602e815260200180611b00602e913960400191505060405180910390fd5b600054610100900460ff16158015611768576000805460ff1961ff0019909116610100171660011790555b825161177b906036906020860190611972565b50815161178f906037906020850190611972565b506038805460ff1916601217905580156113cf576000805461ff0019169055505050565b600054610100900460ff16806117cc57506117cc61130d565b806117da575060005460ff16155b6118155760405162461bcd60e51b815260040180806020018281038252602e815260200180611b00602e913960400191505060405180910390fd5b600054610100900460ff16158015611840576000805460ff1961ff0019909116610100171660011790555b6065805460ff191690558015611483576000805461ff001916905550565b5490565b600061186e838361161d565b6118a457508154600181810184556000848152602080822090930184905584548482528286019093526040902091909155610617565b506000610617565b6000818152600183016020526040812054801561196857835460001980830191908101906000908790839081106118df57fe5b90600052602060002001549050808760000184815481106118fc57fe5b60009182526020808320909101929092558281526001898101909252604090209084019055865487908061192c57fe5b60019003818190600052602060002001600090559055866001016000878152602001908152602001600020600090556001945050505050610617565b6000915050610617565b828054600181600116156101000203166002900490600052602060002090601f0160209004810192826119a857600085556119ee565b82601f106119c157805160ff19168380011785556119ee565b828001600101855582156119ee579182015b828111156119ee5782518255916020019190600101906119d3565b506119fa9291506119fe565b5090565b5b808211156119fa57600081556001016119ff56fe456e756d657261626c655365743a20696e646578206f7574206f6620626f756e647345524332303a207472616e7366657220746f20746865207a65726f2061646472657373416363657373436f6e74726f6c3a2073656e646572206d75737420626520616e2061646d696e20746f206772616e7445524332303a20617070726f766520746f20746865207a65726f206164647265737345524332303a207472616e7366657220616d6f756e7420657863656564732062616c616e6365416363657373436f6e74726f6c3a2073656e646572206d75737420626520616e2061646d696e20746f207265766f6b65496e697469616c697a61626c653a20636f6e747261637420697320616c726561647920696e697469616c697a656445524332303a207472616e7366657220616d6f756e74206578636565647320616c6c6f77616e636565d7a28e3265b37a6474929f336521b332c1681b933f6cb9f3376673440d862a45524332303a207472616e736665722066726f6d20746865207a65726f206164647265737345524332303a20617070726f76652066726f6d20746865207a65726f206164647265737345524332303a2064656372656173656420616c6c6f77616e63652062656c6f77207a65726f416363657373436f6e74726f6c3a2063616e206f6e6c792072656e6f756e636520726f6c657320666f722073656c66a26469706673582212204246c3d1d856d5b729958f66d5cf72123116da9235eab76eeaea72d5517f024364736f6c63430007060033",
  "immutableReferences": {},
  "source": "// SPDX-License-Identifier: UNLICENSED\npragma solidity >= 0.7.0;\n\nimport \"@openzeppelin/contracts-upgradeable/token/ERC20/ERC20Upgradeable.sol\";\nimport \"@openzeppelin/contracts-upgradeable/utils/PausableUpgradeable.sol\";\nimport \"@openzeppelin/contracts-upgradeable/access/AccessControlUpgradeable.sol\";\nimport \"./interfaces/IPSTAKE.sol\";\n\ncontract PSTAKE is IPSTAKE, ERC20Upgradeable, PausableUpgradeable, AccessControlUpgradeable {\n\n    // constants defining access control ROLES\n    bytes32 public constant PAUSER_ROLE = keccak256(\"PAUSER_ROLE\");\n\n    // variables capturing data of other contracts in the product\n    address private _stakeLPCoreContract;\n\n    /**\n   * @dev Constructor for initializing the UToken contract.\n   * @param pauserAddress - address of the pauser admin.\n   */\n    function initialize(address pauserAddress) public virtual initializer {\n        __ERC20_init(\"pSTAKE Token\", \"PSTAKE\");\n        __AccessControl_init();\n        __Pausable_init();\n        _setupRole(DEFAULT_ADMIN_ROLE, _msgSender());\n        _setupRole(PAUSER_ROLE, pauserAddress);\n        // PSTAKE IS A SIMPLE ERC20 TOKEN HENCE 18 DECIMAL PLACES\n        _setupDecimals(18);\n        // pre-allocate some tokens to an admin address which will air drop PSTAKE tokens\n        // to each of holder contracts. This is only for testnet purpose. in Mainnet, we \n        // will use a vesting contract to allocate tokens to admin in a certain schedule\n        _mint(_msgSender(), 5000000000000000000000000);\n    }\n\n    /**\n    * @dev Mint new PSTAKE for the provided 'address' and 'amount'\n    * @param to: account address, tokens: number of tokens\n    *\n    * Emits a {MintTokens} event with 'to' set to address and 'tokens' set to amount of tokens.\n    *\n    * Requirements:\n    *\n    * - `amount` cannot be less than zero.\n    *\n    */\n    function mint(address to, uint256 tokens) public virtual override returns (bool success) {\n        require((_msgSender() == _stakeLPCoreContract), \"PS1\");  // minted by STokens contract\n\n        _mint(to, tokens);\n        return true;\n    }\n\n    /*\n     * @dev Burn utokens for the provided 'address' and 'amount'\n     * @param from: account address, tokens: number of tokens\n     *\n     * Emits a {BurnTokens} event with 'from' set to address and 'tokens' set to amount of tokens.\n     *\n     * Requirements:\n     *\n     * - `amount` cannot be less than zero.\n     *\n     */\n    /* function burn(address from, uint256 tokens) public virtual override returns (bool success) {\n        require((tx.origin == from && _msgSender()==_liquidStakingContract) ||  // staking operation\n        (tx.origin == from && _msgSender() == _wrapperContract), \"UT2\"); // unwrap operation\n        _burn(from, tokens);\n        return true;\n    } */\n\n\n    /*\n     * @dev Set 'contract address', for liquid staking smart contract\n     * @param liquidStakingContract: liquidStaking contract address\n     *\n     * Emits a {SetLiquidStakingContract} event with '_contract' set to the liquidStaking contract address.\n     *\n     */\n    function setStakeLPCoreContract(address stakeLPCoreContract) public virtual override {\n        require(hasRole(DEFAULT_ADMIN_ROLE, _msgSender()), \"PS2\");\n        _stakeLPCoreContract = stakeLPCoreContract;\n        emit SetStakeLPCoreContract(stakeLPCoreContract);\n    }\n\n    /**\n      * @dev Triggers stopped state.\n      *\n      * Requirements:\n      *\n      * - The contract must not be paused.\n      */\n    function pause() public virtual returns (bool success) {\n        require(hasRole(PAUSER_ROLE, _msgSender()), \"PS3\");\n        _pause();\n        return true;\n    }\n\n    /**\n     * @dev Returns to normal state.\n     *\n     * Requirements:\n     *\n     * - The contract must be paused.\n     */\n    function unpause() public virtual returns (bool success) {\n        require(hasRole(PAUSER_ROLE, _msgSender()), \"PS4\");\n        _unpause();\n        return true;\n    }\n\n    /**\n     * @dev Hook that is called before any transfer of tokens. This includes\n     * minting and burning.\n     *\n     * Calling conditions:\n     *\n     * - when `from` and `to` are both non-zero, `amount` of ``from``'s tokens\n     * will be to transferred to `to`.\n     * - when `from` is zero, `amount` tokens will be minted for `to`.\n     * - when `to` is zero, `amount` of ``from``'s tokens will be burned.\n     * - `from` and `to` are never both zero.\n     *\n     */\n    function _beforeTokenTransfer(address from, address to, uint256 amount) internal virtual override {\n        require(!paused(), \"PS5\");\n        super._beforeTokenTransfer(from, to, amount);\n    }\n}",
  "sourcePath": "C:/Users/Kamlesh/Persistence/pStake/codebase/pStake-smartContracts/contracts/PSTAKE.sol",
  "compiler": {
    "name": "solc",
    "version": "0.7.6+commit.7338295f.Emscripten.clang"
  },
  "schemaVersion": "3.3.4",
  "updatedAt": "2021-08-06T03:04:02.151Z",
  "devdoc": {
    "kind": "dev",
    "methods": {
      "allowance(address,address)": {
        "details": "See {IERC20-allowance}."
      },
      "approve(address,uint256)": {
        "details": "See {IERC20-approve}. Requirements: - `spender` cannot be the zero address."
      },
      "balanceOf(address)": {
        "details": "See {IERC20-balanceOf}."
      },
      "decimals()": {
        "details": "Returns the number of decimals used to get its user representation. For example, if `decimals` equals `2`, a balance of `505` tokens should be displayed to a user as `5,05` (`505 / 10 ** 2`). Tokens usually opt for a value of 18, imitating the relationship between Ether and Wei. This is the value {ERC20} uses, unless {_setupDecimals} is called. NOTE: This information is only used for _display_ purposes: it in no way affects any of the arithmetic of the contract, including {IERC20-balanceOf} and {IERC20-transfer}."
      },
      "decreaseAllowance(address,uint256)": {
        "details": "Atomically decreases the allowance granted to `spender` by the caller. This is an alternative to {approve} that can be used as a mitigation for problems described in {IERC20-approve}. Emits an {Approval} event indicating the updated allowance. Requirements: - `spender` cannot be the zero address. - `spender` must have allowance for the caller of at least `subtractedValue`."
      },
      "getRoleAdmin(bytes32)": {
        "details": "Returns the admin role that controls `role`. See {grantRole} and {revokeRole}. To change a role's admin, use {_setRoleAdmin}."
      },
      "getRoleMember(bytes32,uint256)": {
        "details": "Returns one of the accounts that have `role`. `index` must be a value between 0 and {getRoleMemberCount}, non-inclusive. Role bearers are not sorted in any particular way, and their ordering may change at any point. WARNING: When using {getRoleMember} and {getRoleMemberCount}, make sure you perform all queries on the same block. See the following https://forum.openzeppelin.com/t/iterating-over-elements-on-enumerableset-in-openzeppelin-contracts/2296[forum post] for more information."
      },
      "getRoleMemberCount(bytes32)": {
        "details": "Returns the number of accounts that have `role`. Can be used together with {getRoleMember} to enumerate all bearers of a role."
      },
      "grantRole(bytes32,address)": {
        "details": "Grants `role` to `account`. If `account` had not been already granted `role`, emits a {RoleGranted} event. Requirements: - the caller must have ``role``'s admin role."
      },
      "hasRole(bytes32,address)": {
        "details": "Returns `true` if `account` has been granted `role`."
      },
      "increaseAllowance(address,uint256)": {
        "details": "Atomically increases the allowance granted to `spender` by the caller. This is an alternative to {approve} that can be used as a mitigation for problems described in {IERC20-approve}. Emits an {Approval} event indicating the updated allowance. Requirements: - `spender` cannot be the zero address."
      },
      "initialize(address)": {
        "details": "Constructor for initializing the UToken contract.",
        "params": {
          "pauserAddress": "- address of the pauser admin."
        }
      },
      "mint(address,uint256)": {
        "details": "Mint new PSTAKE for the provided 'address' and 'amount'",
        "params": {
          "to": ": account address, tokens: number of tokens Emits a {MintTokens} event with 'to' set to address and 'tokens' set to amount of tokens. Requirements: - `amount` cannot be less than zero."
        }
      },
      "name()": {
        "details": "Returns the name of the token."
      },
      "pause()": {
        "details": "Triggers stopped state. Requirements: - The contract must not be paused."
      },
      "paused()": {
        "details": "Returns true if the contract is paused, and false otherwise."
      },
      "renounceRole(bytes32,address)": {
        "details": "Revokes `role` from the calling account. Roles are often managed via {grantRole} and {revokeRole}: this function's purpose is to provide a mechanism for accounts to lose their privileges if they are compromised (such as when a trusted device is misplaced). If the calling account had been granted `role`, emits a {RoleRevoked} event. Requirements: - the caller must be `account`."
      },
      "revokeRole(bytes32,address)": {
        "details": "Revokes `role` from `account`. If `account` had been granted `role`, emits a {RoleRevoked} event. Requirements: - the caller must have ``role``'s admin role."
      },
      "setStakeLPCoreContract(address)": {
        "details": "Set LiquidStaking smart contract."
      },
      "symbol()": {
        "details": "Returns the symbol of the token, usually a shorter version of the name."
      },
      "totalSupply()": {
        "details": "See {IERC20-totalSupply}."
      },
      "transfer(address,uint256)": {
        "details": "See {IERC20-transfer}. Requirements: - `recipient` cannot be the zero address. - the caller must have a balance of at least `amount`."
      },
      "transferFrom(address,address,uint256)": {
        "details": "See {IERC20-transferFrom}. Emits an {Approval} event indicating the updated allowance. This is not required by the EIP. See the note at the beginning of {ERC20}. Requirements: - `sender` and `recipient` cannot be the zero address. - `sender` must have a balance of at least `amount`. - the caller must have allowance for ``sender``'s tokens of at least `amount`."
      },
      "unpause()": {
        "details": "Returns to normal state. Requirements: - The contract must be paused."
      }
    },
    "version": 1
  },
  "userdoc": {
    "kind": "user",
    "methods": {},
    "version": 1
  }
}