{
  "contractName": "PSTAKE",
  "abi": [
    {
      "anonymous": false,
      "inputs": [
        {
          "indexed": true,
          "internalType": "address",
          "name": "owner",
          "type": "address"
        },
        {
          "indexed": true,
          "internalType": "address",
          "name": "spender",
          "type": "address"
        },
        {
          "indexed": false,
          "internalType": "uint256",
          "name": "value",
          "type": "uint256"
        }
      ],
      "name": "Approval",
      "type": "event"
    },
    {
      "anonymous": false,
      "inputs": [
        {
          "indexed": true,
          "internalType": "address",
          "name": "accountAddress",
          "type": "address"
        },
        {
          "indexed": false,
          "internalType": "uint256",
          "name": "tokens",
          "type": "uint256"
        },
        {
          "indexed": false,
          "internalType": "uint256",
          "name": "timestamp",
          "type": "uint256"
        }
      ],
      "name": "CalculateRewards",
      "type": "event"
    },
    {
      "anonymous": false,
      "inputs": [
        {
          "indexed": false,
          "internalType": "address",
          "name": "account",
          "type": "address"
        }
      ],
      "name": "Paused",
      "type": "event"
    },
    {
      "anonymous": false,
      "inputs": [
        {
          "indexed": true,
          "internalType": "bytes32",
          "name": "role",
          "type": "bytes32"
        },
        {
          "indexed": true,
          "internalType": "bytes32",
          "name": "previousAdminRole",
          "type": "bytes32"
        },
        {
          "indexed": true,
          "internalType": "bytes32",
          "name": "newAdminRole",
          "type": "bytes32"
        }
      ],
      "name": "RoleAdminChanged",
      "type": "event"
    },
    {
      "anonymous": false,
      "inputs": [
        {
          "indexed": true,
          "internalType": "bytes32",
          "name": "role",
          "type": "bytes32"
        },
        {
          "indexed": true,
          "internalType": "address",
          "name": "account",
          "type": "address"
        },
        {
          "indexed": true,
          "internalType": "address",
          "name": "sender",
          "type": "address"
        }
      ],
      "name": "RoleGranted",
      "type": "event"
    },
    {
      "anonymous": false,
      "inputs": [
        {
          "indexed": true,
          "internalType": "bytes32",
          "name": "role",
          "type": "bytes32"
        },
        {
          "indexed": true,
          "internalType": "address",
          "name": "account",
          "type": "address"
        },
        {
          "indexed": true,
          "internalType": "address",
          "name": "sender",
          "type": "address"
        }
      ],
      "name": "RoleRevoked",
      "type": "event"
    },
    {
      "anonymous": false,
      "inputs": [
        {
          "indexed": true,
          "internalType": "address",
          "name": "_contract",
          "type": "address"
        }
      ],
      "name": "SetLiquidStakingContract",
      "type": "event"
    },
    {
      "anonymous": false,
      "inputs": [
        {
          "indexed": true,
          "internalType": "address",
          "name": "_contract",
          "type": "address"
        }
      ],
      "name": "SetStakeLPCoreContract",
      "type": "event"
    },
    {
      "anonymous": false,
      "inputs": [
        {
          "indexed": true,
          "internalType": "address",
          "name": "_contract",
          "type": "address"
        }
      ],
      "name": "SetTokenWrapperContract",
      "type": "event"
    },
    {
      "anonymous": false,
      "inputs": [
        {
          "indexed": true,
          "internalType": "address",
          "name": "_contract",
          "type": "address"
        }
      ],
      "name": "SetUTokensContract",
      "type": "event"
    },
    {
      "anonymous": false,
      "inputs": [
        {
          "indexed": true,
          "internalType": "address",
          "name": "from",
          "type": "address"
        },
        {
          "indexed": true,
          "internalType": "address",
          "name": "to",
          "type": "address"
        },
        {
          "indexed": false,
          "internalType": "uint256",
          "name": "value",
          "type": "uint256"
        }
      ],
      "name": "Transfer",
      "type": "event"
    },
    {
      "anonymous": false,
      "inputs": [
        {
          "indexed": true,
          "internalType": "address",
          "name": "accountAddress",
          "type": "address"
        },
        {
          "indexed": false,
          "internalType": "uint256",
          "name": "tokens",
          "type": "uint256"
        },
        {
          "indexed": false,
          "internalType": "uint256",
          "name": "timestamp",
          "type": "uint256"
        }
      ],
      "name": "TriggeredCalculateRewards",
      "type": "event"
    },
    {
      "anonymous": false,
      "inputs": [
        {
          "indexed": false,
          "internalType": "address",
          "name": "account",
          "type": "address"
        }
      ],
      "name": "Unpaused",
      "type": "event"
    },
    {
      "inputs": [],
      "name": "DEFAULT_ADMIN_ROLE",
      "outputs": [
        {
          "internalType": "bytes32",
          "name": "",
          "type": "bytes32"
        }
      ],
      "stateMutability": "view",
      "type": "function"
    },
    {
      "inputs": [],
      "name": "PAUSER_ROLE",
      "outputs": [
        {
          "internalType": "bytes32",
          "name": "",
          "type": "bytes32"
        }
      ],
      "stateMutability": "view",
      "type": "function"
    },
    {
      "inputs": [
        {
          "internalType": "address",
          "name": "owner",
          "type": "address"
        },
        {
          "internalType": "address",
          "name": "spender",
          "type": "address"
        }
      ],
      "name": "allowance",
      "outputs": [
        {
          "internalType": "uint256",
          "name": "",
          "type": "uint256"
        }
      ],
      "stateMutability": "view",
      "type": "function"
    },
    {
      "inputs": [
        {
          "internalType": "address",
          "name": "spender",
          "type": "address"
        },
        {
          "internalType": "uint256",
          "name": "amount",
          "type": "uint256"
        }
      ],
      "name": "approve",
      "outputs": [
        {
          "internalType": "bool",
          "name": "",
          "type": "bool"
        }
      ],
      "stateMutability": "nonpayable",
      "type": "function"
    },
    {
      "inputs": [
        {
          "internalType": "address",
          "name": "account",
          "type": "address"
        }
      ],
      "name": "balanceOf",
      "outputs": [
        {
          "internalType": "uint256",
          "name": "",
          "type": "uint256"
        }
      ],
      "stateMutability": "view",
      "type": "function"
    },
    {
      "inputs": [],
      "name": "decimals",
      "outputs": [
        {
          "internalType": "uint8",
          "name": "",
          "type": "uint8"
        }
      ],
      "stateMutability": "view",
      "type": "function"
    },
    {
      "inputs": [
        {
          "internalType": "address",
          "name": "spender",
          "type": "address"
        },
        {
          "internalType": "uint256",
          "name": "subtractedValue",
          "type": "uint256"
        }
      ],
      "name": "decreaseAllowance",
      "outputs": [
        {
          "internalType": "bool",
          "name": "",
          "type": "bool"
        }
      ],
      "stateMutability": "nonpayable",
      "type": "function"
    },
    {
      "inputs": [
        {
          "internalType": "bytes32",
          "name": "role",
          "type": "bytes32"
        }
      ],
      "name": "getRoleAdmin",
      "outputs": [
        {
          "internalType": "bytes32",
          "name": "",
          "type": "bytes32"
        }
      ],
      "stateMutability": "view",
      "type": "function"
    },
    {
      "inputs": [
        {
          "internalType": "bytes32",
          "name": "role",
          "type": "bytes32"
        },
        {
          "internalType": "uint256",
          "name": "index",
          "type": "uint256"
        }
      ],
      "name": "getRoleMember",
      "outputs": [
        {
          "internalType": "address",
          "name": "",
          "type": "address"
        }
      ],
      "stateMutability": "view",
      "type": "function"
    },
    {
      "inputs": [
        {
          "internalType": "bytes32",
          "name": "role",
          "type": "bytes32"
        }
      ],
      "name": "getRoleMemberCount",
      "outputs": [
        {
          "internalType": "uint256",
          "name": "",
          "type": "uint256"
        }
      ],
      "stateMutability": "view",
      "type": "function"
    },
    {
      "inputs": [
        {
          "internalType": "bytes32",
          "name": "role",
          "type": "bytes32"
        },
        {
          "internalType": "address",
          "name": "account",
          "type": "address"
        }
      ],
      "name": "grantRole",
      "outputs": [],
      "stateMutability": "nonpayable",
      "type": "function"
    },
    {
      "inputs": [
        {
          "internalType": "bytes32",
          "name": "role",
          "type": "bytes32"
        },
        {
          "internalType": "address",
          "name": "account",
          "type": "address"
        }
      ],
      "name": "hasRole",
      "outputs": [
        {
          "internalType": "bool",
          "name": "",
          "type": "bool"
        }
      ],
      "stateMutability": "view",
      "type": "function"
    },
    {
      "inputs": [
        {
          "internalType": "address",
          "name": "spender",
          "type": "address"
        },
        {
          "internalType": "uint256",
          "name": "addedValue",
          "type": "uint256"
        }
      ],
      "name": "increaseAllowance",
      "outputs": [
        {
          "internalType": "bool",
          "name": "",
          "type": "bool"
        }
      ],
      "stateMutability": "nonpayable",
      "type": "function"
    },
    {
      "inputs": [],
      "name": "name",
      "outputs": [
        {
          "internalType": "string",
          "name": "",
          "type": "string"
        }
      ],
      "stateMutability": "view",
      "type": "function"
    },
    {
      "inputs": [],
      "name": "paused",
      "outputs": [
        {
          "internalType": "bool",
          "name": "",
          "type": "bool"
        }
      ],
      "stateMutability": "view",
      "type": "function"
    },
    {
      "inputs": [
        {
          "internalType": "bytes32",
          "name": "role",
          "type": "bytes32"
        },
        {
          "internalType": "address",
          "name": "account",
          "type": "address"
        }
      ],
      "name": "renounceRole",
      "outputs": [],
      "stateMutability": "nonpayable",
      "type": "function"
    },
    {
      "inputs": [
        {
          "internalType": "bytes32",
          "name": "role",
          "type": "bytes32"
        },
        {
          "internalType": "address",
          "name": "account",
          "type": "address"
        }
      ],
      "name": "revokeRole",
      "outputs": [],
      "stateMutability": "nonpayable",
      "type": "function"
    },
    {
      "inputs": [],
      "name": "symbol",
      "outputs": [
        {
          "internalType": "string",
          "name": "",
          "type": "string"
        }
      ],
      "stateMutability": "view",
      "type": "function"
    },
    {
      "inputs": [],
      "name": "totalSupply",
      "outputs": [
        {
          "internalType": "uint256",
          "name": "",
          "type": "uint256"
        }
      ],
      "stateMutability": "view",
      "type": "function"
    },
    {
      "inputs": [
        {
          "internalType": "address",
          "name": "recipient",
          "type": "address"
        },
        {
          "internalType": "uint256",
          "name": "amount",
          "type": "uint256"
        }
      ],
      "name": "transfer",
      "outputs": [
        {
          "internalType": "bool",
          "name": "",
          "type": "bool"
        }
      ],
      "stateMutability": "nonpayable",
      "type": "function"
    },
    {
      "inputs": [
        {
          "internalType": "address",
          "name": "sender",
          "type": "address"
        },
        {
          "internalType": "address",
          "name": "recipient",
          "type": "address"
        },
        {
          "internalType": "uint256",
          "name": "amount",
          "type": "uint256"
        }
      ],
      "name": "transferFrom",
      "outputs": [
        {
          "internalType": "bool",
          "name": "",
          "type": "bool"
        }
      ],
      "stateMutability": "nonpayable",
      "type": "function"
    },
    {
      "inputs": [
        {
          "internalType": "address",
          "name": "defaultAdminAddress",
          "type": "address"
        },
        {
          "internalType": "address",
          "name": "pauserAddress",
          "type": "address"
        }
      ],
      "name": "initialize",
      "outputs": [],
      "stateMutability": "nonpayable",
      "type": "function"
    },
    {
      "inputs": [
        {
          "internalType": "address",
          "name": "to",
          "type": "address"
        },
        {
          "internalType": "uint256",
          "name": "tokens",
          "type": "uint256"
        }
      ],
      "name": "mint",
      "outputs": [
        {
          "internalType": "bool",
          "name": "success",
          "type": "bool"
        }
      ],
      "stateMutability": "nonpayable",
      "type": "function"
    },
    {
      "inputs": [
        {
          "internalType": "address",
          "name": "stakeLPCoreContract",
          "type": "address"
        }
      ],
      "name": "setStakeLPCoreContract",
      "outputs": [],
      "stateMutability": "nonpayable",
      "type": "function"
    },
    {
      "inputs": [],
      "name": "pause",
      "outputs": [
        {
          "internalType": "bool",
          "name": "success",
          "type": "bool"
        }
      ],
      "stateMutability": "nonpayable",
      "type": "function"
    },
    {
      "inputs": [],
      "name": "unpause",
      "outputs": [
        {
          "internalType": "bool",
          "name": "success",
          "type": "bool"
        }
      ],
      "stateMutability": "nonpayable",
      "type": "function"
    }
  ],
  "bytecode": "0x608060405234801561001057600080fd5b50611c1d806100206000396000f3fe608060405234801561001057600080fd5b506004361061018e5760003560e01c80636b0a9356116100de578063a217fddf11610097578063ca15c87311610071578063ca15c873146104f2578063d547741f1461050f578063dd62ed3e1461053b578063e63ab1e9146105695761018e565b8063a217fddf14610492578063a457c2d71461049a578063a9059cbb146104c65761018e565b80636b0a9356146103cb57806370a08231146103f15780638456cb59146104175780639010d07c1461041f57806391d148541461045e57806395d89b411461048a5761018e565b8063313ce5671161014b5780633f4ba83a116101255780633f4ba83a1461036157806340c10f1914610369578063485cc955146103955780635c975abb146103c35761018e565b8063313ce567146102eb57806336568abe1461030957806339509351146103355761018e565b806306fdde0314610193578063095ea7b31461021057806318160ddd1461025057806323b872dd1461026a578063248a9ca3146102a05780632f2ff15d146102bd575b600080fd5b61019b610571565b6040805160208082528351818301528351919283929083019185019080838360005b838110156101d55781810151838201526020016101bd565b50505050905090810190601f1680156102025780820380516001836020036101000a031916815260200191505b509250505060405180910390f35b61023c6004803603604081101561022657600080fd5b506001600160a01b038135169060200135610607565b604080519115158252519081900360200190f35b610258610625565b60408051918252519081900360200190f35b61023c6004803603606081101561028057600080fd5b506001600160a01b0381358116916020810135909116906040013561062b565b610258600480360360208110156102b657600080fd5b50356106b2565b6102e9600480360360408110156102d357600080fd5b50803590602001356001600160a01b03166106c7565b005b6102f3610733565b6040805160ff9092168252519081900360200190f35b6102e96004803603604081101561031f57600080fd5b50803590602001356001600160a01b031661073c565b61023c6004803603604081101561034b57600080fd5b506001600160a01b03813516906020013561079d565b61023c6107eb565b61023c6004803603604081101561037f57600080fd5b506001600160a01b03813516906020013561084c565b6102e9600480360360408110156103ab57600080fd5b506001600160a01b03813581169160200135166108ae565b61023c6109e0565b6102e9600480360360208110156103e157600080fd5b50356001600160a01b03166109e9565b6102586004803603602081101561040757600080fd5b50356001600160a01b0316610a77565b61023c610a92565b6104426004803603604081101561043557600080fd5b5080359060200135610aed565b604080516001600160a01b039092168252519081900360200190f35b61023c6004803603604081101561047457600080fd5b50803590602001356001600160a01b0316610b0c565b61019b610b24565b610258610b85565b61023c600480360360408110156104b057600080fd5b506001600160a01b038135169060200135610b8a565b61023c600480360360408110156104dc57600080fd5b506001600160a01b038135169060200135610bf2565b6102586004803603602081101561050857600080fd5b5035610c06565b6102e96004803603604081101561052557600080fd5b50803590602001356001600160a01b0316610c1d565b6102586004803603604081101561055157600080fd5b506001600160a01b0381358116916020013516610c76565b610258610ca1565b60368054604080516020601f60026000196101006001881615020190951694909404938401819004810282018101909252828152606093909290918301828280156105fd5780601f106105d2576101008083540402835291602001916105fd565b820191906000526020600020905b8154815290600101906020018083116105e057829003601f168201915b5050505050905090565b600061061b610614610cb3565b8484610cb7565b5060015b92915050565b60355490565b6000610638848484610da3565b6106a884610644610cb3565b6106a385604051806060016040528060288152602001611b03602891396001600160a01b038a16600090815260346020526040812090610682610cb3565b6001600160a01b031681526020810191909152604001600020549190610f00565b610cb7565b5060019392505050565b60009081526097602052604090206002015490565b6000828152609760205260409020600201546106ea906106e5610cb3565b610b0c565b6107255760405162461bcd60e51b815260040180806020018281038252602f815260200180611a2e602f913960400191505060405180910390fd5b61072f8282610f97565b5050565b60385460ff1690565b610744610cb3565b6001600160a01b0316816001600160a01b0316146107935760405162461bcd60e51b815260040180806020018281038252602f815260200180611bb9602f913960400191505060405180910390fd5b61072f8282611000565b600061061b6107aa610cb3565b846106a385603460006107bb610cb3565b6001600160a01b03908116825260208083019390935260409182016000908120918c168152925290205490611069565b6000610807600080516020611b2b8339815191526106e5610cb3565b61083e576040805162461bcd60e51b81526020600482015260036024820152621414cd60ea1b604482015290519081900360640190fd5b6108466110c3565b50600190565b60c9546000906001600160a01b0316610863610cb3565b6001600160a01b0316146108a4576040805162461bcd60e51b815260206004820152600360248201526250533160e81b604482015290519081900360640190fd5b61061b8383611163565b600054610100900460ff16806108c757506108c7611255565b806108d5575060005460ff16155b6109105760405162461bcd60e51b815260040180806020018281038252602e815260200180611ad5602e913960400191505060405180910390fd5b600054610100900460ff1615801561093b576000805460ff1961ff0019909116610100171660011790555b61098c60405180604001604052806012815260200171705354414b45205065676765642041544f4d60701b815250604051806040016040528060058152602001647041544f4d60d81b815250611266565b610994611305565b61099c6113b7565b6109a7600084610725565b6109bf600080516020611b2b83398151915283610725565b6109c96012611454565b80156109db576000805461ff00191690555b505050565b60655460ff1690565b6109f660006106e5610cb3565b610a2d576040805162461bcd60e51b815260206004820152600360248201526228299960e91b604482015290519081900360640190fd5b60c980546001600160a01b0319166001600160a01b0383169081179091556040517f956e636358b715ce07711e6cde8321e45298a1393051158ee3940beac0b9e40190600090a250565b6001600160a01b031660009081526033602052604090205490565b6000610aae600080516020611b2b8339815191526106e5610cb3565b610ae5576040805162461bcd60e51b815260206004820152600360248201526250533360e81b604482015290519081900360640190fd5b61084661146a565b6000828152609760205260408120610b0590836114ed565b9392505050565b6000828152609760205260408120610b0590836114f9565b60378054604080516020601f60026000196101006001881615020190951694909404938401819004810282018101909252828152606093909290918301828280156105fd5780601f106105d2576101008083540402835291602001916105fd565b600081565b600061061b610b97610cb3565b846106a385604051806060016040528060258152602001611b946025913960346000610bc1610cb3565b6001600160a01b03908116825260208083019390935260409182016000908120918d16815292529020549190610f00565b600061061b610bff610cb3565b8484610da3565b600081815260976020526040812061061f9061150e565b600082815260976020526040902060020154610c3b906106e5610cb3565b6107935760405162461bcd60e51b8152600401808060200182810382526030815260200180611aa56030913960400191505060405180910390fd5b6001600160a01b03918216600090815260346020908152604080832093909416825291909152205490565b600080516020611b2b83398151915281565b3390565b6001600160a01b038316610cfc5760405162461bcd60e51b8152600401808060200182810382526024815260200180611b706024913960400191505060405180910390fd5b6001600160a01b038216610d415760405162461bcd60e51b8152600401808060200182810382526022815260200180611a5d6022913960400191505060405180910390fd5b6001600160a01b03808416600081815260346020908152604080832094871680845294825291829020859055815185815291517f8c5be1e5ebec7d5bd14f71427d1e84f3dd0314c0f7b2291e5b200ac8c7c3b9259281900390910190a3505050565b6001600160a01b038316610de85760405162461bcd60e51b8152600401808060200182810382526025815260200180611b4b6025913960400191505060405180910390fd5b6001600160a01b038216610e2d5760405162461bcd60e51b8152600401808060200182810382526023815260200180611a0b6023913960400191505060405180910390fd5b610e38838383611519565b610e7581604051806060016040528060268152602001611a7f602691396001600160a01b0386166000908152603360205260409020549190610f00565b6001600160a01b038085166000908152603360205260408082209390935590841681522054610ea49082611069565b6001600160a01b0380841660008181526033602090815260409182902094909455805185815290519193928716927fddf252ad1be2c89b69c2b068fc378daa952ba7f163c4a11628f55a4df523b3ef92918290030190a3505050565b60008184841115610f8f5760405162461bcd60e51b81526004018080602001828103825283818151815260200191508051906020019080838360005b83811015610f54578181015183820152602001610f3c565b50505050905090810190601f168015610f815780820380516001836020036101000a031916815260200191505b509250505060405180910390fd5b505050900390565b6000828152609760205260409020610faf9082611564565b1561072f57610fbc610cb3565b6001600160a01b0316816001600160a01b0316837f2f8788117e7eff1d82e926ec794901d17c78024a50270940304540a733656f0d60405160405180910390a45050565b60008281526097602052604090206110189082611579565b1561072f57611025610cb3565b6001600160a01b0316816001600160a01b0316837ff6391f5c32d9c69d2a47ea670b442974b53935d1edc7fd64eb21e047a839171b60405160405180910390a45050565b600082820183811015610b05576040805162461bcd60e51b815260206004820152601b60248201527f536166654d6174683a206164646974696f6e206f766572666c6f770000000000604482015290519081900360640190fd5b6110cb6109e0565b611113576040805162461bcd60e51b815260206004820152601460248201527314185d5cd8589b194e881b9bdd081c185d5cd95960621b604482015290519081900360640190fd5b6065805460ff191690557f5db9ee0a495bf2e6ff9c91a7834c1ba4fdd244a5e8aa4e537bd38aeae4b073aa611146610cb3565b604080516001600160a01b039092168252519081900360200190a1565b6001600160a01b0382166111be576040805162461bcd60e51b815260206004820152601f60248201527f45524332303a206d696e7420746f20746865207a65726f206164647265737300604482015290519081900360640190fd5b6111ca60008383611519565b6035546111d79082611069565b6035556001600160a01b0382166000908152603360205260409020546111fd9082611069565b6001600160a01b03831660008181526033602090815260408083209490945583518581529351929391927fddf252ad1be2c89b69c2b068fc378daa952ba7f163c4a11628f55a4df523b3ef9281900390910190a35050565b60006112603061158e565b15905090565b600054610100900460ff168061127f575061127f611255565b8061128d575060005460ff16155b6112c85760405162461bcd60e51b815260040180806020018281038252602e815260200180611ad5602e913960400191505060405180910390fd5b600054610100900460ff161580156112f3576000805460ff1961ff0019909116610100171660011790555b6112fb611594565b6109c98383611634565b600054610100900460ff168061131e575061131e611255565b8061132c575060005460ff16155b6113675760405162461bcd60e51b815260040180806020018281038252602e815260200180611ad5602e913960400191505060405180910390fd5b600054610100900460ff16158015611392576000805460ff1961ff0019909116610100171660011790555b61139a611594565b6113a2611594565b80156113b4576000805461ff00191690555b50565b600054610100900460ff16806113d057506113d0611255565b806113de575060005460ff16155b6114195760405162461bcd60e51b815260040180806020018281038252602e815260200180611ad5602e913960400191505060405180910390fd5b600054610100900460ff16158015611444576000805460ff1961ff0019909116610100171660011790555b61144c611594565b6113a261170c565b6038805460ff191660ff92909216919091179055565b6114726109e0565b156114b7576040805162461bcd60e51b815260206004820152601060248201526f14185d5cd8589b194e881c185d5cd95960821b604482015290519081900360640190fd5b6065805460ff191660011790557f62e78cea01bee320cd4e420270b5ea74000d11b0c9f74754ebdbfc544b05a258611146610cb3565b6000610b0583836117b7565b6000610b05836001600160a01b03841661181b565b600061061f82611833565b6115216109e0565b15611559576040805162461bcd60e51b815260206004820152600360248201526250533560e81b604482015290519081900360640190fd5b6109db8383836109db565b6000610b05836001600160a01b038416611837565b6000610b05836001600160a01b038416611881565b3b151590565b600054610100900460ff16806115ad57506115ad611255565b806115bb575060005460ff16155b6115f65760405162461bcd60e51b815260040180806020018281038252602e815260200180611ad5602e913960400191505060405180910390fd5b600054610100900460ff161580156113a2576000805460ff1961ff00199091166101001716600117905580156113b4576000805461ff001916905550565b600054610100900460ff168061164d575061164d611255565b8061165b575060005460ff16155b6116965760405162461bcd60e51b815260040180806020018281038252602e815260200180611ad5602e913960400191505060405180910390fd5b600054610100900460ff161580156116c1576000805460ff1961ff0019909116610100171660011790555b82516116d4906036906020860190611947565b5081516116e8906037906020850190611947565b506038805460ff1916601217905580156109db576000805461ff0019169055505050565b600054610100900460ff16806117255750611725611255565b80611733575060005460ff16155b61176e5760405162461bcd60e51b815260040180806020018281038252602e815260200180611ad5602e913960400191505060405180910390fd5b600054610100900460ff16158015611799576000805460ff1961ff0019909116610100171660011790555b6065805460ff1916905580156113b4576000805461ff001916905550565b815460009082106117f95760405162461bcd60e51b81526004018080602001828103825260228152602001806119e96022913960400191505060405180910390fd5b82600001828154811061180857fe5b9060005260206000200154905092915050565b60009081526001919091016020526040902054151590565b5490565b6000611843838361181b565b6118795750815460018181018455600084815260208082209093018490558454848252828601909352604090209190915561061f565b50600061061f565b6000818152600183016020526040812054801561193d57835460001980830191908101906000908790839081106118b457fe5b90600052602060002001549050808760000184815481106118d157fe5b60009182526020808320909101929092558281526001898101909252604090209084019055865487908061190157fe5b6001900381819060005260206000200160009055905586600101600087815260200190815260200160002060009055600194505050505061061f565b600091505061061f565b828054600181600116156101000203166002900490600052602060002090601f01602090048101928261197d57600085556119c3565b82601f1061199657805160ff19168380011785556119c3565b828001600101855582156119c3579182015b828111156119c35782518255916020019190600101906119a8565b506119cf9291506119d3565b5090565b5b808211156119cf57600081556001016119d456fe456e756d657261626c655365743a20696e646578206f7574206f6620626f756e647345524332303a207472616e7366657220746f20746865207a65726f2061646472657373416363657373436f6e74726f6c3a2073656e646572206d75737420626520616e2061646d696e20746f206772616e7445524332303a20617070726f766520746f20746865207a65726f206164647265737345524332303a207472616e7366657220616d6f756e7420657863656564732062616c616e6365416363657373436f6e74726f6c3a2073656e646572206d75737420626520616e2061646d696e20746f207265766f6b65496e697469616c697a61626c653a20636f6e747261637420697320616c726561647920696e697469616c697a656445524332303a207472616e7366657220616d6f756e74206578636565647320616c6c6f77616e636565d7a28e3265b37a6474929f336521b332c1681b933f6cb9f3376673440d862a45524332303a207472616e736665722066726f6d20746865207a65726f206164647265737345524332303a20617070726f76652066726f6d20746865207a65726f206164647265737345524332303a2064656372656173656420616c6c6f77616e63652062656c6f77207a65726f416363657373436f6e74726f6c3a2063616e206f6e6c792072656e6f756e636520726f6c657320666f722073656c66a26469706673582212209f627c4d9ac638052ef9ad2d936ea508b7d9c8ba18bf99aa17654277c311292064736f6c63430007060033",
  "immutableReferences": {},
  "source": "// SPDX-License-Identifier: UNLICENSED\npragma solidity >= 0.7.0;\n\nimport \"@openzeppelin/contracts-upgradeable/token/ERC20/ERC20Upgradeable.sol\";\nimport \"@openzeppelin/contracts-upgradeable/utils/PausableUpgradeable.sol\";\nimport \"@openzeppelin/contracts-upgradeable/access/AccessControlUpgradeable.sol\";\nimport \"./interfaces/IPSTAKE.sol\";\n\ncontract PSTAKE is IPSTAKE, ERC20Upgradeable, PausableUpgradeable, AccessControlUpgradeable {\n\n    // constants defining access control ROLES\n    bytes32 public constant PAUSER_ROLE = keccak256(\"PAUSER_ROLE\");\n\n    // variables capturing data of other contracts in the product\n    address private _stakeLPCoreContract;\n\n    /**\n   * @dev Constructor for initializing the UToken contract.\n   * @param pauserAddress - address of the pauser admin.\n   */\n    function initialize(address defaultAdminAddress, address pauserAddress) public virtual initializer {\n        __ERC20_init(\"pSTAKE Pegged ATOM\", \"pATOM\");\n        __AccessControl_init();\n        __Pausable_init();\n        _setupRole(DEFAULT_ADMIN_ROLE, defaultAdminAddress);\n        _setupRole(PAUSER_ROLE, pauserAddress);\n        // PSTAKE IS A SIMPLE ERC20 TOKEN HENCE 18 DECIMAL PLACES\n        _setupDecimals(18);\n    }\n\n    /**\n    * @dev Mint new PSTAKE for the provided 'address' and 'amount'\n    * @param to: account address, tokens: number of tokens\n    *\n    * Emits a {MintTokens} event with 'to' set to address and 'tokens' set to amount of tokens.\n    *\n    * Requirements:\n    *\n    * - `amount` cannot be less than zero.\n    *\n    */\n    function mint(address to, uint256 tokens) public virtual override returns (bool success) {\n        require((_msgSender() == _stakeLPCoreContract), \"PS1\");  // minted by STokens contract\n\n        _mint(to, tokens);\n        return true;\n    }\n\n    /*\n     * @dev Burn utokens for the provided 'address' and 'amount'\n     * @param from: account address, tokens: number of tokens\n     *\n     * Emits a {BurnTokens} event with 'from' set to address and 'tokens' set to amount of tokens.\n     *\n     * Requirements:\n     *\n     * - `amount` cannot be less than zero.\n     *\n     */\n    /* function burn(address from, uint256 tokens) public virtual override returns (bool success) {\n        require((tx.origin == from && _msgSender()==_liquidStakingContract) ||  // staking operation\n        (tx.origin == from && _msgSender() == _wrapperContract), \"UT2\"); // unwrap operation\n        _burn(from, tokens);\n        return true;\n    } */\n\n\n    /*\n     * @dev Set 'contract address', for liquid staking smart contract\n     * @param liquidStakingContract: liquidStaking contract address\n     *\n     * Emits a {SetLiquidStakingContract} event with '_contract' set to the liquidStaking contract address.\n     *\n     */\n    function setStakeLPCoreContract(address stakeLPCoreContract) public virtual override {\n        require(hasRole(DEFAULT_ADMIN_ROLE, _msgSender()), \"PS2\");\n        _stakeLPCoreContract = stakeLPCoreContract;\n        emit SetStakeLPCoreContract(stakeLPCoreContract);\n    }\n\n    /**\n      * @dev Triggers stopped state.\n      *\n      * Requirements:\n      *\n      * - The contract must not be paused.\n      */\n    function pause() public virtual returns (bool success) {\n        require(hasRole(PAUSER_ROLE, _msgSender()), \"PS3\");\n        _pause();\n        return true;\n    }\n\n    /**\n     * @dev Returns to normal state.\n     *\n     * Requirements:\n     *\n     * - The contract must be paused.\n     */\n    function unpause() public virtual returns (bool success) {\n        require(hasRole(PAUSER_ROLE, _msgSender()), \"PS4\");\n        _unpause();\n        return true;\n    }\n\n    /**\n     * @dev Hook that is called before any transfer of tokens. This includes\n     * minting and burning.\n     *\n     * Calling conditions:\n     *\n     * - when `from` and `to` are both non-zero, `amount` of ``from``'s tokens\n     * will be to transferred to `to`.\n     * - when `from` is zero, `amount` tokens will be minted for `to`.\n     * - when `to` is zero, `amount` of ``from``'s tokens will be burned.\n     * - `from` and `to` are never both zero.\n     *\n     */\n    function _beforeTokenTransfer(address from, address to, uint256 amount) internal virtual override {\n        require(!paused(), \"PS5\");\n        super._beforeTokenTransfer(from, to, amount);\n    }\n}",
  "sourcePath": "/home/aditimahesh/Documents/Work/Persistence/go/src/github.com/persistenceOne/pStakeSmartContracts/contracts/PSTAKE.sol",
  "compiler": {
    "name": "solc",
    "version": "0.7.6+commit.7338295f.Emscripten.clang"
  },
  "schemaVersion": "3.3.4",
  "updatedAt": "2021-07-13T15:31:21.250Z",
  "devdoc": {
    "kind": "dev",
    "methods": {
      "allowance(address,address)": {
        "details": "See {IERC20-allowance}."
      },
      "approve(address,uint256)": {
        "details": "See {IERC20-approve}. Requirements: - `spender` cannot be the zero address."
      },
      "balanceOf(address)": {
        "details": "See {IERC20-balanceOf}."
      },
      "decimals()": {
        "details": "Returns the number of decimals used to get its user representation. For example, if `decimals` equals `2`, a balance of `505` tokens should be displayed to a user as `5,05` (`505 / 10 ** 2`). Tokens usually opt for a value of 18, imitating the relationship between Ether and Wei. This is the value {ERC20} uses, unless {_setupDecimals} is called. NOTE: This information is only used for _display_ purposes: it in no way affects any of the arithmetic of the contract, including {IERC20-balanceOf} and {IERC20-transfer}."
      },
      "decreaseAllowance(address,uint256)": {
        "details": "Atomically decreases the allowance granted to `spender` by the caller. This is an alternative to {approve} that can be used as a mitigation for problems described in {IERC20-approve}. Emits an {Approval} event indicating the updated allowance. Requirements: - `spender` cannot be the zero address. - `spender` must have allowance for the caller of at least `subtractedValue`."
      },
      "getRoleAdmin(bytes32)": {
        "details": "Returns the admin role that controls `role`. See {grantRole} and {revokeRole}. To change a role's admin, use {_setRoleAdmin}."
      },
      "getRoleMember(bytes32,uint256)": {
        "details": "Returns one of the accounts that have `role`. `index` must be a value between 0 and {getRoleMemberCount}, non-inclusive. Role bearers are not sorted in any particular way, and their ordering may change at any point. WARNING: When using {getRoleMember} and {getRoleMemberCount}, make sure you perform all queries on the same block. See the following https://forum.openzeppelin.com/t/iterating-over-elements-on-enumerableset-in-openzeppelin-contracts/2296[forum post] for more information."
      },
      "getRoleMemberCount(bytes32)": {
        "details": "Returns the number of accounts that have `role`. Can be used together with {getRoleMember} to enumerate all bearers of a role."
      },
      "grantRole(bytes32,address)": {
        "details": "Grants `role` to `account`. If `account` had not been already granted `role`, emits a {RoleGranted} event. Requirements: - the caller must have ``role``'s admin role."
      },
      "hasRole(bytes32,address)": {
        "details": "Returns `true` if `account` has been granted `role`."
      },
      "increaseAllowance(address,uint256)": {
        "details": "Atomically increases the allowance granted to `spender` by the caller. This is an alternative to {approve} that can be used as a mitigation for problems described in {IERC20-approve}. Emits an {Approval} event indicating the updated allowance. Requirements: - `spender` cannot be the zero address."
      },
      "initialize(address,address)": {
        "details": "Constructor for initializing the UToken contract.",
        "params": {
          "pauserAddress": "- address of the pauser admin."
        }
      },
      "mint(address,uint256)": {
        "details": "Mint new PSTAKE for the provided 'address' and 'amount'",
        "params": {
          "to": ": account address, tokens: number of tokens Emits a {MintTokens} event with 'to' set to address and 'tokens' set to amount of tokens. Requirements: - `amount` cannot be less than zero."
        }
      },
      "name()": {
        "details": "Returns the name of the token."
      },
      "pause()": {
        "details": "Triggers stopped state. Requirements: - The contract must not be paused."
      },
      "paused()": {
        "details": "Returns true if the contract is paused, and false otherwise."
      },
      "renounceRole(bytes32,address)": {
        "details": "Revokes `role` from the calling account. Roles are often managed via {grantRole} and {revokeRole}: this function's purpose is to provide a mechanism for accounts to lose their privileges if they are compromised (such as when a trusted device is misplaced). If the calling account had been granted `role`, emits a {RoleRevoked} event. Requirements: - the caller must be `account`."
      },
      "revokeRole(bytes32,address)": {
        "details": "Revokes `role` from `account`. If `account` had been granted `role`, emits a {RoleRevoked} event. Requirements: - the caller must have ``role``'s admin role."
      },
      "setStakeLPCoreContract(address)": {
        "details": "Set LiquidStaking smart contract."
      },
      "symbol()": {
        "details": "Returns the symbol of the token, usually a shorter version of the name."
      },
      "totalSupply()": {
        "details": "See {IERC20-totalSupply}."
      },
      "transfer(address,uint256)": {
        "details": "See {IERC20-transfer}. Requirements: - `recipient` cannot be the zero address. - the caller must have a balance of at least `amount`."
      },
      "transferFrom(address,address,uint256)": {
        "details": "See {IERC20-transferFrom}. Emits an {Approval} event indicating the updated allowance. This is not required by the EIP. See the note at the beginning of {ERC20}. Requirements: - `sender` and `recipient` cannot be the zero address. - `sender` must have a balance of at least `amount`. - the caller must have allowance for ``sender``'s tokens of at least `amount`."
      },
      "unpause()": {
        "details": "Returns to normal state. Requirements: - The contract must be paused."
      }
    },
    "version": 1
  },
  "userdoc": {
    "kind": "user",
    "methods": {},
    "version": 1
  }
}