{
  "contractName": "PSTAKE",
  "abi": [
    {
      "anonymous": false,
      "inputs": [
        {
          "indexed": true,
          "internalType": "address",
          "name": "owner",
          "type": "address"
        },
        {
          "indexed": true,
          "internalType": "address",
          "name": "spender",
          "type": "address"
        },
        {
          "indexed": false,
          "internalType": "uint256",
          "name": "value",
          "type": "uint256"
        }
      ],
      "name": "Approval",
      "type": "event"
    },
    {
      "anonymous": false,
      "inputs": [
        {
          "indexed": true,
          "internalType": "address",
          "name": "accountAddress",
          "type": "address"
        },
        {
          "indexed": false,
          "internalType": "uint256",
          "name": "tokens",
          "type": "uint256"
        },
        {
          "indexed": false,
          "internalType": "uint256",
          "name": "timestamp",
          "type": "uint256"
        }
      ],
      "name": "CalculateRewards",
      "type": "event"
    },
    {
      "anonymous": false,
      "inputs": [
        {
          "indexed": false,
          "internalType": "address",
          "name": "account",
          "type": "address"
        }
      ],
      "name": "Paused",
      "type": "event"
    },
    {
      "anonymous": false,
      "inputs": [
        {
          "indexed": true,
          "internalType": "bytes32",
          "name": "role",
          "type": "bytes32"
        },
        {
          "indexed": true,
          "internalType": "bytes32",
          "name": "previousAdminRole",
          "type": "bytes32"
        },
        {
          "indexed": true,
          "internalType": "bytes32",
          "name": "newAdminRole",
          "type": "bytes32"
        }
      ],
      "name": "RoleAdminChanged",
      "type": "event"
    },
    {
      "anonymous": false,
      "inputs": [
        {
          "indexed": true,
          "internalType": "bytes32",
          "name": "role",
          "type": "bytes32"
        },
        {
          "indexed": true,
          "internalType": "address",
          "name": "account",
          "type": "address"
        },
        {
          "indexed": true,
          "internalType": "address",
          "name": "sender",
          "type": "address"
        }
      ],
      "name": "RoleGranted",
      "type": "event"
    },
    {
      "anonymous": false,
      "inputs": [
        {
          "indexed": true,
          "internalType": "bytes32",
          "name": "role",
          "type": "bytes32"
        },
        {
          "indexed": true,
          "internalType": "address",
          "name": "account",
          "type": "address"
        },
        {
          "indexed": true,
          "internalType": "address",
          "name": "sender",
          "type": "address"
        }
      ],
      "name": "RoleRevoked",
      "type": "event"
    },
    {
      "anonymous": false,
      "inputs": [
        {
          "indexed": true,
          "internalType": "address",
          "name": "_contract",
          "type": "address"
        }
      ],
      "name": "SetLiquidStakingContract",
      "type": "event"
    },
    {
      "anonymous": false,
      "inputs": [
        {
          "indexed": true,
          "internalType": "address",
          "name": "_contract",
          "type": "address"
        }
      ],
      "name": "SetStakeLPCoreContract",
      "type": "event"
    },
    {
      "anonymous": false,
      "inputs": [
        {
          "indexed": true,
          "internalType": "address",
          "name": "_contract",
          "type": "address"
        }
      ],
      "name": "SetTokenWrapperContract",
      "type": "event"
    },
    {
      "anonymous": false,
      "inputs": [
        {
          "indexed": true,
          "internalType": "address",
          "name": "_contract",
          "type": "address"
        }
      ],
      "name": "SetUTokensContract",
      "type": "event"
    },
    {
      "anonymous": false,
      "inputs": [
        {
          "indexed": true,
          "internalType": "address",
          "name": "from",
          "type": "address"
        },
        {
          "indexed": true,
          "internalType": "address",
          "name": "to",
          "type": "address"
        },
        {
          "indexed": false,
          "internalType": "uint256",
          "name": "value",
          "type": "uint256"
        }
      ],
      "name": "Transfer",
      "type": "event"
    },
    {
      "anonymous": false,
      "inputs": [
        {
          "indexed": true,
          "internalType": "address",
          "name": "accountAddress",
          "type": "address"
        },
        {
          "indexed": false,
          "internalType": "uint256",
          "name": "tokens",
          "type": "uint256"
        },
        {
          "indexed": false,
          "internalType": "uint256",
          "name": "timestamp",
          "type": "uint256"
        }
      ],
      "name": "TriggeredCalculateRewards",
      "type": "event"
    },
    {
      "anonymous": false,
      "inputs": [
        {
          "indexed": false,
          "internalType": "address",
          "name": "account",
          "type": "address"
        }
      ],
      "name": "Unpaused",
      "type": "event"
    },
    {
      "inputs": [],
      "name": "DEFAULT_ADMIN_ROLE",
      "outputs": [
        {
          "internalType": "bytes32",
          "name": "",
          "type": "bytes32"
        }
      ],
      "stateMutability": "view",
      "type": "function"
    },
    {
      "inputs": [],
      "name": "PAUSER_ROLE",
      "outputs": [
        {
          "internalType": "bytes32",
          "name": "",
          "type": "bytes32"
        }
      ],
      "stateMutability": "view",
      "type": "function"
    },
    {
      "inputs": [
        {
          "internalType": "address",
          "name": "owner",
          "type": "address"
        },
        {
          "internalType": "address",
          "name": "spender",
          "type": "address"
        }
      ],
      "name": "allowance",
      "outputs": [
        {
          "internalType": "uint256",
          "name": "",
          "type": "uint256"
        }
      ],
      "stateMutability": "view",
      "type": "function"
    },
    {
      "inputs": [
        {
          "internalType": "address",
          "name": "spender",
          "type": "address"
        },
        {
          "internalType": "uint256",
          "name": "amount",
          "type": "uint256"
        }
      ],
      "name": "approve",
      "outputs": [
        {
          "internalType": "bool",
          "name": "",
          "type": "bool"
        }
      ],
      "stateMutability": "nonpayable",
      "type": "function"
    },
    {
      "inputs": [
        {
          "internalType": "address",
          "name": "account",
          "type": "address"
        }
      ],
      "name": "balanceOf",
      "outputs": [
        {
          "internalType": "uint256",
          "name": "",
          "type": "uint256"
        }
      ],
      "stateMutability": "view",
      "type": "function"
    },
    {
      "inputs": [],
      "name": "decimals",
      "outputs": [
        {
          "internalType": "uint8",
          "name": "",
          "type": "uint8"
        }
      ],
      "stateMutability": "view",
      "type": "function"
    },
    {
      "inputs": [
        {
          "internalType": "address",
          "name": "spender",
          "type": "address"
        },
        {
          "internalType": "uint256",
          "name": "subtractedValue",
          "type": "uint256"
        }
      ],
      "name": "decreaseAllowance",
      "outputs": [
        {
          "internalType": "bool",
          "name": "",
          "type": "bool"
        }
      ],
      "stateMutability": "nonpayable",
      "type": "function"
    },
    {
      "inputs": [
        {
          "internalType": "bytes32",
          "name": "role",
          "type": "bytes32"
        }
      ],
      "name": "getRoleAdmin",
      "outputs": [
        {
          "internalType": "bytes32",
          "name": "",
          "type": "bytes32"
        }
      ],
      "stateMutability": "view",
      "type": "function"
    },
    {
      "inputs": [
        {
          "internalType": "bytes32",
          "name": "role",
          "type": "bytes32"
        },
        {
          "internalType": "uint256",
          "name": "index",
          "type": "uint256"
        }
      ],
      "name": "getRoleMember",
      "outputs": [
        {
          "internalType": "address",
          "name": "",
          "type": "address"
        }
      ],
      "stateMutability": "view",
      "type": "function"
    },
    {
      "inputs": [
        {
          "internalType": "bytes32",
          "name": "role",
          "type": "bytes32"
        }
      ],
      "name": "getRoleMemberCount",
      "outputs": [
        {
          "internalType": "uint256",
          "name": "",
          "type": "uint256"
        }
      ],
      "stateMutability": "view",
      "type": "function"
    },
    {
      "inputs": [
        {
          "internalType": "bytes32",
          "name": "role",
          "type": "bytes32"
        },
        {
          "internalType": "address",
          "name": "account",
          "type": "address"
        }
      ],
      "name": "grantRole",
      "outputs": [],
      "stateMutability": "nonpayable",
      "type": "function"
    },
    {
      "inputs": [
        {
          "internalType": "bytes32",
          "name": "role",
          "type": "bytes32"
        },
        {
          "internalType": "address",
          "name": "account",
          "type": "address"
        }
      ],
      "name": "hasRole",
      "outputs": [
        {
          "internalType": "bool",
          "name": "",
          "type": "bool"
        }
      ],
      "stateMutability": "view",
      "type": "function"
    },
    {
      "inputs": [
        {
          "internalType": "address",
          "name": "spender",
          "type": "address"
        },
        {
          "internalType": "uint256",
          "name": "addedValue",
          "type": "uint256"
        }
      ],
      "name": "increaseAllowance",
      "outputs": [
        {
          "internalType": "bool",
          "name": "",
          "type": "bool"
        }
      ],
      "stateMutability": "nonpayable",
      "type": "function"
    },
    {
      "inputs": [],
      "name": "name",
      "outputs": [
        {
          "internalType": "string",
          "name": "",
          "type": "string"
        }
      ],
      "stateMutability": "view",
      "type": "function"
    },
    {
      "inputs": [],
      "name": "paused",
      "outputs": [
        {
          "internalType": "bool",
          "name": "",
          "type": "bool"
        }
      ],
      "stateMutability": "view",
      "type": "function"
    },
    {
      "inputs": [
        {
          "internalType": "bytes32",
          "name": "role",
          "type": "bytes32"
        },
        {
          "internalType": "address",
          "name": "account",
          "type": "address"
        }
      ],
      "name": "renounceRole",
      "outputs": [],
      "stateMutability": "nonpayable",
      "type": "function"
    },
    {
      "inputs": [
        {
          "internalType": "bytes32",
          "name": "role",
          "type": "bytes32"
        },
        {
          "internalType": "address",
          "name": "account",
          "type": "address"
        }
      ],
      "name": "revokeRole",
      "outputs": [],
      "stateMutability": "nonpayable",
      "type": "function"
    },
    {
      "inputs": [],
      "name": "symbol",
      "outputs": [
        {
          "internalType": "string",
          "name": "",
          "type": "string"
        }
      ],
      "stateMutability": "view",
      "type": "function"
    },
    {
      "inputs": [],
      "name": "totalSupply",
      "outputs": [
        {
          "internalType": "uint256",
          "name": "",
          "type": "uint256"
        }
      ],
      "stateMutability": "view",
      "type": "function"
    },
    {
      "inputs": [
        {
          "internalType": "address",
          "name": "recipient",
          "type": "address"
        },
        {
          "internalType": "uint256",
          "name": "amount",
          "type": "uint256"
        }
      ],
      "name": "transfer",
      "outputs": [
        {
          "internalType": "bool",
          "name": "",
          "type": "bool"
        }
      ],
      "stateMutability": "nonpayable",
      "type": "function"
    },
    {
      "inputs": [
        {
          "internalType": "address",
          "name": "sender",
          "type": "address"
        },
        {
          "internalType": "address",
          "name": "recipient",
          "type": "address"
        },
        {
          "internalType": "uint256",
          "name": "amount",
          "type": "uint256"
        }
      ],
      "name": "transferFrom",
      "outputs": [
        {
          "internalType": "bool",
          "name": "",
          "type": "bool"
        }
      ],
      "stateMutability": "nonpayable",
      "type": "function"
    },
    {
      "inputs": [
        {
          "internalType": "address",
          "name": "bridgeAdminAddress",
          "type": "address"
        },
        {
          "internalType": "address",
          "name": "pauserAddress",
          "type": "address"
        }
      ],
      "name": "initialize",
      "outputs": [],
      "stateMutability": "nonpayable",
      "type": "function"
    },
    {
      "inputs": [
        {
          "internalType": "address",
          "name": "to",
          "type": "address"
        }
      ],
      "name": "getLastUserRewardTimestamp",
      "outputs": [
        {
          "internalType": "uint256",
          "name": "lastUserRewardTimestamp",
          "type": "uint256"
        }
      ],
      "stateMutability": "view",
      "type": "function"
    },
    {
      "inputs": [
        {
          "internalType": "address",
          "name": "to",
          "type": "address"
        },
        {
          "internalType": "uint256",
          "name": "tokens",
          "type": "uint256"
        }
      ],
      "name": "mint",
      "outputs": [
        {
          "internalType": "bool",
          "name": "success",
          "type": "bool"
        }
      ],
      "stateMutability": "nonpayable",
      "type": "function"
    },
    {
      "inputs": [
        {
          "internalType": "address",
          "name": "to",
          "type": "address"
        }
      ],
      "name": "calculatePendingRewards",
      "outputs": [
        {
          "internalType": "uint256",
          "name": "pendingRewards",
          "type": "uint256"
        },
        {
          "internalType": "uint256",
          "name": "updatedLPTimeShare",
          "type": "uint256"
        }
      ],
      "stateMutability": "view",
      "type": "function"
    },
    {
      "inputs": [
        {
          "internalType": "address",
          "name": "to",
          "type": "address"
        }
      ],
      "name": "calculateRewards",
      "outputs": [
        {
          "internalType": "bool",
          "name": "success",
          "type": "bool"
        }
      ],
      "stateMutability": "nonpayable",
      "type": "function"
    },
    {
      "inputs": [
        {
          "internalType": "address",
          "name": "liquidStakingContract",
          "type": "address"
        }
      ],
      "name": "setLiquidStakingContract",
      "outputs": [],
      "stateMutability": "nonpayable",
      "type": "function"
    },
    {
      "inputs": [
        {
          "internalType": "address",
          "name": "tokenWrapperContract",
          "type": "address"
        }
      ],
      "name": "setTokenWrapperContract",
      "outputs": [],
      "stateMutability": "nonpayable",
      "type": "function"
    },
    {
      "inputs": [
        {
          "internalType": "address",
          "name": "stakeLPCoreContract",
          "type": "address"
        }
      ],
      "name": "setStakeLPCoreContract",
      "outputs": [],
      "stateMutability": "nonpayable",
      "type": "function"
    },
    {
      "inputs": [
        {
          "internalType": "address",
          "name": "uTokenContract",
          "type": "address"
        }
      ],
      "name": "setUTokensContract",
      "outputs": [],
      "stateMutability": "nonpayable",
      "type": "function"
    },
    {
      "inputs": [],
      "name": "pause",
      "outputs": [
        {
          "internalType": "bool",
          "name": "success",
          "type": "bool"
        }
      ],
      "stateMutability": "nonpayable",
      "type": "function"
    },
    {
      "inputs": [],
      "name": "unpause",
      "outputs": [
        {
          "internalType": "bool",
          "name": "success",
          "type": "bool"
        }
      ],
      "stateMutability": "nonpayable",
      "type": "function"
    }
  ],
  "bytecode": "0x608060405234801561001057600080fd5b506124f0806100206000396000f3fe608060405234801561001057600080fd5b50600436106101f05760003560e01c80635c975abb1161010f578063a217fddf116100a2578063d547741f11610071578063d547741f14610648578063dd62ed3e14610674578063e4df5918146106a2578063e63ab1e9146106c8576101f0565b8063a217fddf146105cb578063a457c2d7146105d3578063a9059cbb146105ff578063ca15c8731461062b576101f0565b80638456cb59116100de5780638456cb59146105505780639010d07c1461055857806391d148541461059757806395d89b41146105c3576101f0565b80635c975abb146104d657806364ab8675146104de5780636b0a93561461050457806370a082311461052a576101f0565b8063313ce567116101875780633f4ba83a116101565780633f4ba83a1461044e57806340c10f1914610456578063485cc9551461048257806358f8943e146104b0576101f0565b8063313ce567146103b257806331b188cc146103d057806336568abe146103f65780633950935114610422576101f0565b806321bdf9e5116101c357806321bdf9e51461030b57806323b872dd14610333578063248a9ca3146103695780632f2ff15d14610386576101f0565b806306fdde03146101f5578063095ea7b314610272578063097aad10146102b257806318160ddd146102f1575b600080fd5b6101fd6106d0565b6040805160208082528351818301528351919283929083019185019080838360005b8381101561023757818101518382015260200161021f565b50505050905090810190601f1680156102645780820380516001836020036101000a031916815260200191505b509250505060405180910390f35b61029e6004803603604081101561028857600080fd5b506001600160a01b038135169060200135610766565b604080519115158252519081900360200190f35b6102d8600480360360208110156102c857600080fd5b50356001600160a01b0316610784565b6040805192835260208301919091528051918290030190f35b6102f96107c1565b60408051918252519081900360200190f35b6103316004803603602081101561032157600080fd5b50356001600160a01b03166107c7565b005b61029e6004803603606081101561034957600080fd5b506001600160a01b0381358116916020810135909116906040013561085d565b6102f96004803603602081101561037f57600080fd5b50356108e5565b6103316004803603604081101561039c57600080fd5b50803590602001356001600160a01b03166108fa565b6103ba610961565b6040805160ff9092168252519081900360200190f35b610331600480360360208110156103e657600080fd5b50356001600160a01b031661096a565b6103316004803603604081101561040c57600080fd5b50803590602001356001600160a01b0316610a01565b61029e6004803603604081101561043857600080fd5b506001600160a01b038135169060200135610a62565b61029e610ab0565b61029e6004803603604081101561046c57600080fd5b506001600160a01b038135169060200135610b11565b6103316004803603604081101561049857600080fd5b506001600160a01b0381358116916020013516610b73565b610331600480360360208110156104c657600080fd5b50356001600160a01b0316610cac565b61029e610d3d565b61029e600480360360208110156104f457600080fd5b50356001600160a01b0316610d46565b6103316004803603602081101561051a57600080fd5b50356001600160a01b0316610e44565b6102f96004803603602081101561054057600080fd5b50356001600160a01b0316610ed2565b61029e610eed565b61057b6004803603604081101561056e57600080fd5b5080359060200135610f48565b604080516001600160a01b039092168252519081900360200190f35b61029e600480360360408110156105ad57600080fd5b50803590602001356001600160a01b0316610f60565b6101fd610f78565b6102f9610fd9565b61029e600480360360408110156105e957600080fd5b506001600160a01b038135169060200135610fde565b61029e6004803603604081101561061557600080fd5b506001600160a01b038135169060200135611046565b6102f96004803603602081101561064157600080fd5b503561105a565b6103316004803603604081101561065e57600080fd5b50803590602001356001600160a01b0316611071565b6102f96004803603604081101561068a57600080fd5b506001600160a01b03813581169160200135166110ca565b6102f9600480360360208110156106b857600080fd5b50356001600160a01b03166110f5565b6102f9611110565b60368054604080516020601f600260001961010060018816150201909516949094049384018190048102820181019092528281526060939092909183018282801561075c5780601f106107315761010080835404028352916020019161075c565b820191906000526020600020905b81548152906001019060200180831161073f57829003601f168201915b5050505050905090565b600061077a610773611122565b8484611126565b5060015b92915050565b6001600160a01b038116600090815260cc60205260408120548190816107a985610ed2565b90506107b58183611212565b90945092505050915091565b60355490565b6107d960006107d4611122565b610f60565b610813576040805162461bcd60e51b8152602060048083019190915260248201526314d50c4d60e21b604482015290519081900360640190fd5b60cf80546001600160a01b0319166001600160a01b0383169081179091556040517ff745c285f36f88bea6af14d4d0f33dd9350cef7895216c1615b1caaee7857e0c90600090a250565b600061086a848484611307565b6108da84610876611122565b6108d5856040518060600160405280602881526020016123d6602891396001600160a01b038a166000908152603460205260408120906108b4611122565b6001600160a01b031681526020810191909152604001600020549190611464565b611126565b5060015b9392505050565b60009081526097602052604090206002015490565b600082815260976020526040902060020154610918906107d4611122565b6109535760405162461bcd60e51b815260040180806020018281038252602f8152602001806122e0602f913960400191505060405180910390fd5b61095d82826114fb565b5050565b60385460ff1690565b61097760006107d4611122565b6109b1576040805162461bcd60e51b815260206004808301919091526024820152635354313560e01b604482015290519081900360640190fd5b60ca80546001600160a01b0319166001600160a01b0383811691909117918290556040519116907f2f9f272420570ea07d7da789fdc59a50c36792d6ea4f49a4d218b6f2431d049290600090a250565b610a09611122565b6001600160a01b0316816001600160a01b031614610a585760405162461bcd60e51b815260040180806020018281038252602f81526020018061248c602f913960400191505060405180910390fd5b61095d8282611564565b600061077a610a6f611122565b846108d58560346000610a80611122565b6001600160a01b03908116825260208083019390935260409182016000908120918c1681529252902054906115cd565b6000610acc6000805160206123fe8339815191526107d4611122565b610b03576040805162461bcd60e51b815260206004820152600360248201526255543760e81b604482015290519081900360640190fd5b610b0b611627565b50600190565b60cb546000906001600160a01b0316610b28611122565b6001600160a01b031614610b69576040805162461bcd60e51b815260206004820152600360248201526255543160e81b604482015290519081900360640190fd5b61077a83836116c7565b600054610100900460ff1680610b8c5750610b8c6117b9565b80610b9a575060005460ff16155b610bd55760405162461bcd60e51b815260040180806020018281038252602e815260200180612387602e913960400191505060405180910390fd5b600054610100900460ff16158015610c00576000805460ff1961ff0019909116610100171660011790555b610c5160405180604001604052806012815260200171705354414b45205065676765642041544f4d60701b815250604051806040016040528060058152602001647041544f4d60d81b8152506117ca565b610c59611869565b610c6161191b565b610c736000610c6e611122565b610953565b610c8b6000805160206123fe83398151915283610953565b610c9560126119b8565b8015610ca7576000805461ff00191690555b505050565b610cb960006107d4611122565b610cf3576040805162461bcd60e51b815260206004808301919091526024820152635354313560e01b604482015290519081900360640190fd5b60c980546001600160a01b0319166001600160a01b0383169081179091556040517f57fded54c0f01b7b2c662bd89530d6916e48149e02da384db87d1a67306be87190600090a250565b60655460ff1690565b6000610d50610d3d565b15610d95576040805162461bcd60e51b815260206004820152601060248201526f14185d5cd8589b194e881c185d5cd95960821b604482015290519081900360640190fd5b610d9d611122565b6001600160a01b0316826001600160a01b031614610de8576040805162461bcd60e51b815260206004820152600360248201526253543560e81b604482015290519081900360640190fd5b6000610df3836119ce565b6040805182815242602082015281519293506001600160a01b038616927fd0194489832efa41a56f4a4add6fbbe260998cbcff0b43c953af28b545ca7a01929181900390910190a250600192915050565b610e5160006107d4611122565b610e88576040805162461bcd60e51b815260206004820152600360248201526215550d60ea1b604482015290519081900360640190fd5b60cb80546001600160a01b0319166001600160a01b0383169081179091556040517f956e636358b715ce07711e6cde8321e45298a1393051158ee3940beac0b9e40190600090a250565b6001600160a01b031660009081526033602052604090205490565b6000610f096000805160206123fe8339815191526107d4611122565b610f40576040805162461bcd60e51b81526020600482015260036024820152622aaa1b60e91b604482015290519081900360640190fd5b610b0b611ad8565b60008281526097602052604081206108de9083611b5b565b60008281526097602052604081206108de9083611b67565b60378054604080516020601f600260001961010060018816150201909516949094049384018190048102820181019092528281526060939092909183018282801561075c5780601f106107315761010080835404028352916020019161075c565b600081565b600061077a610feb611122565b846108d5856040518060600160405280602581526020016124676025913960346000611015611122565b6001600160a01b03908116825260208083019390935260409182016000908120918d16815292529020549190611464565b600061077a611053611122565b8484611307565b600081815260976020526040812061077e90611b7c565b60008281526097602052604090206002015461108f906107d4611122565b610a585760405162461bcd60e51b81526004018080602001828103825260308152602001806123576030913960400191505060405180910390fd5b6001600160a01b03918216600090815260346020908152604080832093909416825291909152205490565b6001600160a01b0316600090815260cc602052604090205490565b6000805160206123fe83398151915281565b3390565b6001600160a01b03831661116b5760405162461bcd60e51b81526004018080602001828103825260248152602001806124436024913960400191505060405180910390fd5b6001600160a01b0382166111b05760405162461bcd60e51b815260040180806020018281038252602281526020018061230f6022913960400191505060405180910390fd5b6001600160a01b03808416600081815260346020908152604080832094871680845294825291829020859055815185815291517f8c5be1e5ebec7d5bd14f71427d1e84f3dd0314c0f7b2291e5b200ac8c7c3b9259281900390910190a3505050565b600080600061121f6107c1565b60ce5460cf54604080516370a0823160e01b8152306004820152905193945091926000926001600160a01b03909216916370a08231916024808301926020929190829003018186803b15801561127457600080fd5b505afa158015611288573d6000803e3d6000fd5b505050506040513d602081101561129e57600080fd5b505160ce549091506112c9906112c0906112b9904290611b87565b8590611be4565b60cd54906115cd565b935060006112e16112da4289611b87565b8990611be4565b90506112ee828287611c3d565b95506112fa8582611b87565b9450505050509250929050565b6001600160a01b03831661134c5760405162461bcd60e51b815260040180806020018281038252602581526020018061241e6025913960400191505060405180910390fd5b6001600160a01b0382166113915760405162461bcd60e51b81526004018080602001828103825260238152602001806122bd6023913960400191505060405180910390fd5b61139c838383611cf6565b6113d981604051806060016040528060268152602001612331602691396001600160a01b0386166000908152603360205260409020549190611464565b6001600160a01b03808516600090815260336020526040808220939093559084168152205461140890826115cd565b6001600160a01b0380841660008181526033602090815260409182902094909455805185815290519193928716927fddf252ad1be2c89b69c2b068fc378daa952ba7f163c4a11628f55a4df523b3ef92918290030190a3505050565b600081848411156114f35760405162461bcd60e51b81526004018080602001828103825283818151815260200191508051906020019080838360005b838110156114b85781810151838201526020016114a0565b50505050905090810190601f1680156114e55780820380516001836020036101000a031916815260200191505b509250505060405180910390fd5b505050900390565b60008281526097602052604090206115139082611d79565b1561095d57611520611122565b6001600160a01b0316816001600160a01b0316837f2f8788117e7eff1d82e926ec794901d17c78024a50270940304540a733656f0d60405160405180910390a45050565b600082815260976020526040902061157c9082611d8e565b1561095d57611589611122565b6001600160a01b0316816001600160a01b0316837ff6391f5c32d9c69d2a47ea670b442974b53935d1edc7fd64eb21e047a839171b60405160405180910390a45050565b6000828201838110156108de576040805162461bcd60e51b815260206004820152601b60248201527f536166654d6174683a206164646974696f6e206f766572666c6f770000000000604482015290519081900360640190fd5b61162f610d3d565b611677576040805162461bcd60e51b815260206004820152601460248201527314185d5cd8589b194e881b9bdd081c185d5cd95960621b604482015290519081900360640190fd5b6065805460ff191690557f5db9ee0a495bf2e6ff9c91a7834c1ba4fdd244a5e8aa4e537bd38aeae4b073aa6116aa611122565b604080516001600160a01b039092168252519081900360200190a1565b6001600160a01b038216611722576040805162461bcd60e51b815260206004820152601f60248201527f45524332303a206d696e7420746f20746865207a65726f206164647265737300604482015290519081900360640190fd5b61172e60008383611cf6565b60355461173b90826115cd565b6035556001600160a01b03821660009081526033602052604090205461176190826115cd565b6001600160a01b03831660008181526033602090815260408083209490945583518581529351929391927fddf252ad1be2c89b69c2b068fc378daa952ba7f163c4a11628f55a4df523b3ef9281900390910190a35050565b60006117c430611da3565b15905090565b600054610100900460ff16806117e357506117e36117b9565b806117f1575060005460ff16155b61182c5760405162461bcd60e51b815260040180806020018281038252602e815260200180612387602e913960400191505060405180910390fd5b600054610100900460ff16158015611857576000805460ff1961ff0019909116610100171660011790555b61185f611da9565b610c958383611e49565b600054610100900460ff168061188257506118826117b9565b80611890575060005460ff16155b6118cb5760405162461bcd60e51b815260040180806020018281038252602e815260200180612387602e913960400191505060405180910390fd5b600054610100900460ff161580156118f6576000805460ff1961ff0019909116610100171660011790555b6118fe611da9565b611906611da9565b8015611918576000805461ff00191690555b50565b600054610100900460ff168061193457506119346117b9565b80611942575060005460ff16155b61197d5760405162461bcd60e51b815260040180806020018281038252602e815260200180612387602e913960400191505060405180910390fd5b600054610100900460ff161580156119a8576000805460ff1961ff0019909116610100171660011790555b6119b0611da9565b611906611f21565b6038805460ff191660ff92909216919091179055565b60008060006119dc84610784565b6001600160a01b038616600090815260cc60205260409020429081905560cd82905560ce5590925090508115611a8f5760cf546040805163a9059cbb60e01b81526001600160a01b038781166004830152602482018690529151919092169163a9059cbb9160448083019260209291908290030181600087803b158015611a6257600080fd5b505af1158015611a76573d6000803e3d6000fd5b505050506040513d6020811015611a8c57600080fd5b50505b6040805183815242602082015281516001600160a01b038716927f01ea729deb12fa912e813101b1da8b7c1500f7f26c912a612221a02af6a56220928290030190a25092915050565b611ae0610d3d565b15611b25576040805162461bcd60e51b815260206004820152601060248201526f14185d5cd8589b194e881c185d5cd95960821b604482015290519081900360640190fd5b6065805460ff191660011790557f62e78cea01bee320cd4e420270b5ea74000d11b0c9f74754ebdbfc544b05a2586116aa611122565b60006108de8383611fcc565b60006108de836001600160a01b038416612030565b600061077e82612048565b600082821115611bde576040805162461bcd60e51b815260206004820152601e60248201527f536166654d6174683a207375627472616374696f6e206f766572666c6f770000604482015290519081900360640190fd5b50900390565b600082611bf35750600061077e565b82820282848281611c0057fe5b04146108de5760405162461bcd60e51b81526004018080602001828103825260218152602001806123b56021913960400191505060405180910390fd5b6000806000611c4c868661204c565b9150915060008480611c5a57fe5b868809905082811115611c6e576001820391505b918290039181611c8c57848381611c8157fe5b0493505050506108de565b848210611ce0576040805162461bcd60e51b815260206004820152601a60248201527f46756c6c4d6174683a2046554c4c4449565f4f564552464c4f57000000000000604482015290519081900360640190fd5b611ceb838387612079565b979650505050505050565b611cfe610d3d565b15611d36576040805162461bcd60e51b81526020600482015260036024820152620aaa8760eb1b604482015290519081900360640190fd5b611d41838383610ca7565b6001600160a01b03831615611d5b57611d59836119ce565b505b6001600160a01b03821615610ca757611d73836119ce565b50505050565b60006108de836001600160a01b0384166120e9565b60006108de836001600160a01b038416612133565b3b151590565b600054610100900460ff1680611dc25750611dc26117b9565b80611dd0575060005460ff16155b611e0b5760405162461bcd60e51b815260040180806020018281038252602e815260200180612387602e913960400191505060405180910390fd5b600054610100900460ff16158015611906576000805460ff1961ff0019909116610100171660011790558015611918576000805461ff001916905550565b600054610100900460ff1680611e625750611e626117b9565b80611e70575060005460ff16155b611eab5760405162461bcd60e51b815260040180806020018281038252602e815260200180612387602e913960400191505060405180910390fd5b600054610100900460ff16158015611ed6576000805460ff1961ff0019909116610100171660011790555b8251611ee99060369060208601906121f9565b508151611efd9060379060208501906121f9565b506038805460ff191660121790558015610ca7576000805461ff0019169055505050565b600054610100900460ff1680611f3a5750611f3a6117b9565b80611f48575060005460ff16155b611f835760405162461bcd60e51b815260040180806020018281038252602e815260200180612387602e913960400191505060405180910390fd5b600054610100900460ff16158015611fae576000805460ff1961ff0019909116610100171660011790555b6065805460ff191690558015611918576000805461ff001916905550565b8154600090821061200e5760405162461bcd60e51b815260040180806020018281038252602281526020018061229b6022913960400191505060405180910390fd5b82600001828154811061201d57fe5b9060005260206000200154905092915050565b60009081526001919091016020526040902054151590565b5490565b6000808060001984860990508385029250828103915082811015612071576001820391505b509250929050565b6000818103821680838161208957fe5b04925080858161209557fe5b0494508081600003816120a457fe5b60028581038087028203028087028203028087028203028087028203028087028203028087028203029586029003909402930460010193909302939093010292915050565b60006120f58383612030565b61212b5750815460018181018455600084815260208082209093018490558454848252828601909352604090209190915561077e565b50600061077e565b600081815260018301602052604081205480156121ef578354600019808301919081019060009087908390811061216657fe5b906000526020600020015490508087600001848154811061218357fe5b6000918252602080832090910192909255828152600189810190925260409020908401905586548790806121b357fe5b6001900381819060005260206000200160009055905586600101600087815260200190815260200160002060009055600194505050505061077e565b600091505061077e565b828054600181600116156101000203166002900490600052602060002090601f01602090048101928261222f5760008555612275565b82601f1061224857805160ff1916838001178555612275565b82800160010185558215612275579182015b8281111561227557825182559160200191906001019061225a565b50612281929150612285565b5090565b5b80821115612281576000815560010161228656fe456e756d657261626c655365743a20696e646578206f7574206f6620626f756e647345524332303a207472616e7366657220746f20746865207a65726f2061646472657373416363657373436f6e74726f6c3a2073656e646572206d75737420626520616e2061646d696e20746f206772616e7445524332303a20617070726f766520746f20746865207a65726f206164647265737345524332303a207472616e7366657220616d6f756e7420657863656564732062616c616e6365416363657373436f6e74726f6c3a2073656e646572206d75737420626520616e2061646d696e20746f207265766f6b65496e697469616c697a61626c653a20636f6e747261637420697320616c726561647920696e697469616c697a6564536166654d6174683a206d756c7469706c69636174696f6e206f766572666c6f7745524332303a207472616e7366657220616d6f756e74206578636565647320616c6c6f77616e636565d7a28e3265b37a6474929f336521b332c1681b933f6cb9f3376673440d862a45524332303a207472616e736665722066726f6d20746865207a65726f206164647265737345524332303a20617070726f76652066726f6d20746865207a65726f206164647265737345524332303a2064656372656173656420616c6c6f77616e63652062656c6f77207a65726f416363657373436f6e74726f6c3a2063616e206f6e6c792072656e6f756e636520726f6c657320666f722073656c66a26469706673582212202bfadf298ef665b44811353bda9121c214d254967db50441666b02595baf965064736f6c63430007060033",
  "immutableReferences": {},
  "source": "// SPDX-License-Identifier: UNLICENSED\npragma solidity >= 0.7.0;\n\nimport \"@openzeppelin/contracts-upgradeable/token/ERC20/ERC20Upgradeable.sol\";\nimport \"@openzeppelin/contracts-upgradeable/math/SafeMathUpgradeable.sol\";\nimport \"@openzeppelin/contracts-upgradeable/utils/PausableUpgradeable.sol\";\nimport \"@openzeppelin/contracts-upgradeable/access/AccessControlUpgradeable.sol\";\nimport \"./interfaces/IPSTAKE.sol\";\nimport \"./interfaces/IUTokens.sol\";\nimport \"./libraries/FullMath.sol\";\n\ncontract PSTAKE is IPSTAKE, ERC20Upgradeable, PausableUpgradeable, AccessControlUpgradeable {\n\n    using SafeMathUpgradeable for uint256;\n    using FullMath for uint256;\n\n\n    // constants defining access control ROLES\n    bytes32 public constant PAUSER_ROLE = keccak256(\"PAUSER_ROLE\");\n\n    // variables capturing data of other contracts in the product\n    address private _liquidStakingContract;\n    address private _wrapperContract;\n    address private _stakeLPCoreContract;\n    // last timestamp when rewards were disbursed for a user\n    mapping(address => uint256) private _lastUserRewardTimestamp;\n    // LPTimeShare of total supply of PSTAKE\n    uint256 private _pStakeLPTimeShare;\n    // last timestamp when LPTimeShare was calculated for total supply\n    uint256 private _lastLPTimeShareTimestamp;\n    // define UToken contract object to 'transfer' reward from this to user\n    IUTokens private _uTokens;\n\n    /**\n   * @dev Constructor for initializing the UToken contract.\n   * @param bridgeAdminAddress - address of the bridge admin.\n   * @param pauserAddress - address of the pauser admin.\n   */\n    function initialize(address bridgeAdminAddress, address pauserAddress) public virtual initializer {\n        __ERC20_init(\"pSTAKE Pegged ATOM\", \"pATOM\");\n        __AccessControl_init();\n        __Pausable_init();\n        _setupRole(DEFAULT_ADMIN_ROLE, _msgSender());\n        _setupRole(PAUSER_ROLE, pauserAddress);\n        // PSTAKE IS A SIMPLE ERC20 TOKEN HENCE 18 DECIMAL PLACES\n        _setupDecimals(18);\n    }\n\n    /**\n     * @dev get rewards till timestamp\n     * @param to: account address\n     */\n    function getLastUserRewardTimestamp(address to) public view virtual returns (uint256 lastUserRewardTimestamp) {\n        lastUserRewardTimestamp = _lastUserRewardTimestamp[to];\n    }\n\n    /**\n    * @dev Mint new PSTAKE for the provided 'address' and 'amount'\n    * @param to: account address, tokens: number of tokens\n    *\n    * Emits a {MintTokens} event with 'to' set to address and 'tokens' set to amount of tokens.\n    *\n    * Requirements:\n    *\n    * - `amount` cannot be less than zero.\n    *\n    */\n    function mint(address to, uint256 tokens) public virtual override returns (bool success) {\n        require((_msgSender() == _stakeLPCoreContract), \"UT1\");  // minted by STokens contract\n\n        _mint(to, tokens);\n        return true;\n    }\n\n    /*\n     * @dev Burn PSTAKE for the provided 'address' and 'amount'\n     * @param from: account address, tokens: number of tokens\n     *\n     * Emits a {BurnTokens} event with 'from' set to address and 'tokens' set to amount of tokens.\n     *\n     * Requirements:\n     *\n     * - `amount` cannot be less than zero.\n     *\n     */\n    /* function burn(address from, uint256 tokens) public virtual override returns (bool success) {\n        require((tx.origin == from && _msgSender()==_liquidStakingContract) ||  (tx.origin == from && _msgSender() == _wrapperContract), \"UT2\");\n        _burn(from, tokens);\n        return true;\n    } */\n\n    /**\n     * @dev Calculate pending rewards from the provided 'principal' & 'lastRewardTimestamp'. The rate is the moving reward rate.\n     * @param principal: principal amount\n     * @param lastRewardTimestamp: timestamp of last reward calculation performed\n     */\n    function _calculatePendingRewards(uint256 principal, uint256 lastRewardTimestamp) internal view returns (uint256 pendingRewards, uint256 updatedLPTimeShare){\n\n        uint256 _pStakeTotalSupply = totalSupply();\n\n        uint256 _lastLPTimeShareTimestampLocal = _lastLPTimeShareTimestamp;\n\n        uint256 _rewardPool = _uTokens.balanceOf(address(this));\n\n        // get the total LPTimeShare of PSTAKE total supply, \n        // including the new LPTimeShare generated from _lastLPTimeShareTimestamp since now\n        updatedLPTimeShare = _pStakeLPTimeShare.add(_pStakeTotalSupply.mul(block.timestamp.sub(_lastLPTimeShareTimestamp)));\n\n        uint256 _userLPTimeShare = principal.mul(block.timestamp.sub(lastRewardTimestamp));\n\n        // calculate pending rewards\n        pendingRewards = _rewardPool.mulDiv(_userLPTimeShare, updatedLPTimeShare);\n        updatedLPTimeShare = updatedLPTimeShare.sub(_userLPTimeShare);\n\n        return (pendingRewards, updatedLPTimeShare);\n    }\n\n     /**\n     * @dev Calculate pending rewards for the provided 'address'. The rate is the moving reward rate.\n     * @param to: account address\n     */\n    function calculatePendingRewards(address to) public view virtual returns (uint256 pendingRewards, uint256 updatedLPTimeShare){\n        // Get the time in number of blocks\n        uint256 _lastRewardTimestamp = _lastUserRewardTimestamp[to];\n        // Get the balance of the account\n        uint256 _balance = balanceOf(to);\n        // calculate pending rewards using _calculatePendingRewards\n        (pendingRewards, updatedLPTimeShare) = _calculatePendingRewards(_balance, _lastRewardTimestamp);\n\n        return (pendingRewards, updatedLPTimeShare);\n    }\n\n    /**\n     * @dev Calculate rewards for the provided 'address'\n     * @param to: account address\n     */\n    function _calculateRewards(address to) internal returns (uint256){\n        // Calculate the rewards pending\n        (uint256 _reward, uint256 _updatedLPTimeShare) = calculatePendingRewards(to);\n\n        // Set the new stakedBlock to the current, \n        // as per Checks-Effects-Interactions pattern\n        _lastUserRewardTimestamp[to] = block.timestamp;\n\n        _pStakeLPTimeShare = _updatedLPTimeShare;\n\n        _lastLPTimeShareTimestamp = block.timestamp;\n\n        // mint uTokens only if reward is greater than zero\n        if(_reward > 0) {\n            // transfer the new rewards generated to the recipient's address\n            _uTokens.transfer(to, _reward);\n        }\n\n        emit CalculateRewards(to, _reward, block.timestamp);\n        return _reward;\n    }\n\n    /**\n     * @dev Calculate rewards for the provided 'address'\n     * @param to: account address\n     *\n     * Emits a {TriggeredCalculateRewards} event with 'to' set to address, 'reward' set to amount of tokens and 'timestamp'\n     *\n     */\n    function calculateRewards(address to) public virtual whenNotPaused returns (bool success) {\n        require(to == _msgSender(), \"ST5\");\n        uint256 reward =  _calculateRewards(to);\n        emit TriggeredCalculateRewards(to, reward, block.timestamp);\n        return true;\n    }\n\n    /*\n     * @dev Set 'contract address', called from constructor\n     * @param liquidStakingContract: liquidStaking contract address\n     *\n     * Emits a {SetLiquidStakingContract} event with '_contract' set to the liquidStaking contract address.\n     *\n     */\n    //This function need to be called after deployment, only admin can call the same\n    function setLiquidStakingContract(address liquidStakingContract) public virtual{\n        require(hasRole(DEFAULT_ADMIN_ROLE, _msgSender()), \"ST15\");\n        _liquidStakingContract = liquidStakingContract;\n        emit SetLiquidStakingContract(liquidStakingContract);\n    }\n\n    /*\n     * @dev Set 'contract address', called from constructor\n     * @param tokenWrapperContract: token wrapper contract address\n     *\n     * Emits a {SetTokenWrapperContract} event with '_contract' set to the token wrapper contract address.\n     *\n     */\n    //This function need to be called after deployment, only admin can call the same\n    function setTokenWrapperContract(address tokenWrapperContract) public virtual{\n        require(hasRole(DEFAULT_ADMIN_ROLE, _msgSender()), \"ST15\");\n        _wrapperContract = tokenWrapperContract;\n        emit SetTokenWrapperContract(_wrapperContract);\n    }\n\n    /*\n     * @dev Set 'contract address', for liquid staking smart contract\n     * @param liquidStakingContract: liquidStaking contract address\n     *\n     * Emits a {SetLiquidStakingContract} event with '_contract' set to the liquidStaking contract address.\n     *\n     */\n    function setStakeLPCoreContract(address stakeLPCoreContract) public virtual override{\n        require(hasRole(DEFAULT_ADMIN_ROLE, _msgSender()), \"UT4\");\n        _stakeLPCoreContract = stakeLPCoreContract;\n        emit SetStakeLPCoreContract(stakeLPCoreContract);\n    }\n\n    /*\n    * @dev Set 'contract address', called from constructor\n    * @param uTokenContract: utoken contract address\n    *\n    * Emits a {SetUTokensContract} event with '_contract' set to the utoken contract address.\n    *\n    */\n    function setUTokensContract(address uTokenContract) public virtual {\n        require(hasRole(DEFAULT_ADMIN_ROLE, _msgSender()), \"ST14\");\n        _uTokens = IUTokens(uTokenContract);\n        emit SetUTokensContract(uTokenContract);\n    }\n\n    /**\n      * @dev Triggers stopped state.\n      *\n      * Requirements:\n      *\n      * - The contract must not be paused.\n      */\n    function pause() public virtual returns (bool success) {\n        require(hasRole(PAUSER_ROLE, _msgSender()), \"UT6\");\n        _pause();\n        return true;\n    }\n\n    /**\n     * @dev Returns to normal state.\n     *\n     * Requirements:\n     *\n     * - The contract must be paused.\n     */\n    function unpause() public virtual returns (bool success) {\n        require(hasRole(PAUSER_ROLE, _msgSender()), \"UT7\");\n        _unpause();\n        return true;\n    }\n\n    /**\n     * @dev Hook that is called before any transfer of tokens. This includes\n     * minting and burning.\n     *\n     * Calling conditions:\n     *\n     * - when `from` and `to` are both non-zero, `amount` of ``from``'s tokens\n     * will be to transferred to `to`.\n     * - when `from` is zero, `amount` tokens will be minted for `to`.\n     * - when `to` is zero, `amount` of ``from``'s tokens will be burned.\n     * - `from` and `to` are never both zero.\n     *\n     */\n    function _beforeTokenTransfer(address from, address to, uint256 amount) internal virtual override {\n        require(!paused(), \"UT8\");\n        super._beforeTokenTransfer(from, to, amount);\n\n        if(from != address(0)){\n            _calculateRewards(from);\n        }\n\n         if(to != address(0)){\n            _calculateRewards(from);\n        }\n    }\n}",
  "sourcePath": "/home/aditimahesh/Documents/Work/Persistence/go/src/github.com/persistenceOne/pStakeSmartContracts/contracts/PSTAKE2.sol",
  "compiler": {
    "name": "solc",
    "version": "0.7.6+commit.7338295f.Emscripten.clang"
  },
  "schemaVersion": "3.3.4",
  "updatedAt": "2021-07-07T13:02:30.455Z",
  "devdoc": {
    "kind": "dev",
    "methods": {
      "allowance(address,address)": {
        "details": "See {IERC20-allowance}."
      },
      "approve(address,uint256)": {
        "details": "See {IERC20-approve}. Requirements: - `spender` cannot be the zero address."
      },
      "balanceOf(address)": {
        "details": "See {IERC20-balanceOf}."
      },
      "calculatePendingRewards(address)": {
        "details": "Calculate pending rewards for the provided 'address'. The rate is the moving reward rate.",
        "params": {
          "to": ": account address"
        }
      },
      "calculateRewards(address)": {
        "details": "Calculate rewards for the provided 'address'",
        "params": {
          "to": ": account address Emits a {TriggeredCalculateRewards} event with 'to' set to address, 'reward' set to amount of tokens and 'timestamp'"
        }
      },
      "decimals()": {
        "details": "Returns the number of decimals used to get its user representation. For example, if `decimals` equals `2`, a balance of `505` tokens should be displayed to a user as `5,05` (`505 / 10 ** 2`). Tokens usually opt for a value of 18, imitating the relationship between Ether and Wei. This is the value {ERC20} uses, unless {_setupDecimals} is called. NOTE: This information is only used for _display_ purposes: it in no way affects any of the arithmetic of the contract, including {IERC20-balanceOf} and {IERC20-transfer}."
      },
      "decreaseAllowance(address,uint256)": {
        "details": "Atomically decreases the allowance granted to `spender` by the caller. This is an alternative to {approve} that can be used as a mitigation for problems described in {IERC20-approve}. Emits an {Approval} event indicating the updated allowance. Requirements: - `spender` cannot be the zero address. - `spender` must have allowance for the caller of at least `subtractedValue`."
      },
      "getLastUserRewardTimestamp(address)": {
        "details": "get rewards till timestamp",
        "params": {
          "to": ": account address"
        }
      },
      "getRoleAdmin(bytes32)": {
        "details": "Returns the admin role that controls `role`. See {grantRole} and {revokeRole}. To change a role's admin, use {_setRoleAdmin}."
      },
      "getRoleMember(bytes32,uint256)": {
        "details": "Returns one of the accounts that have `role`. `index` must be a value between 0 and {getRoleMemberCount}, non-inclusive. Role bearers are not sorted in any particular way, and their ordering may change at any point. WARNING: When using {getRoleMember} and {getRoleMemberCount}, make sure you perform all queries on the same block. See the following https://forum.openzeppelin.com/t/iterating-over-elements-on-enumerableset-in-openzeppelin-contracts/2296[forum post] for more information."
      },
      "getRoleMemberCount(bytes32)": {
        "details": "Returns the number of accounts that have `role`. Can be used together with {getRoleMember} to enumerate all bearers of a role."
      },
      "grantRole(bytes32,address)": {
        "details": "Grants `role` to `account`. If `account` had not been already granted `role`, emits a {RoleGranted} event. Requirements: - the caller must have ``role``'s admin role."
      },
      "hasRole(bytes32,address)": {
        "details": "Returns `true` if `account` has been granted `role`."
      },
      "increaseAllowance(address,uint256)": {
        "details": "Atomically increases the allowance granted to `spender` by the caller. This is an alternative to {approve} that can be used as a mitigation for problems described in {IERC20-approve}. Emits an {Approval} event indicating the updated allowance. Requirements: - `spender` cannot be the zero address."
      },
      "initialize(address,address)": {
        "details": "Constructor for initializing the UToken contract.",
        "params": {
          "bridgeAdminAddress": "- address of the bridge admin.",
          "pauserAddress": "- address of the pauser admin."
        }
      },
      "mint(address,uint256)": {
        "details": "Mint new PSTAKE for the provided 'address' and 'amount'",
        "params": {
          "to": ": account address, tokens: number of tokens Emits a {MintTokens} event with 'to' set to address and 'tokens' set to amount of tokens. Requirements: - `amount` cannot be less than zero."
        }
      },
      "name()": {
        "details": "Returns the name of the token."
      },
      "pause()": {
        "details": "Triggers stopped state. Requirements: - The contract must not be paused."
      },
      "paused()": {
        "details": "Returns true if the contract is paused, and false otherwise."
      },
      "renounceRole(bytes32,address)": {
        "details": "Revokes `role` from the calling account. Roles are often managed via {grantRole} and {revokeRole}: this function's purpose is to provide a mechanism for accounts to lose their privileges if they are compromised (such as when a trusted device is misplaced). If the calling account had been granted `role`, emits a {RoleRevoked} event. Requirements: - the caller must be `account`."
      },
      "revokeRole(bytes32,address)": {
        "details": "Revokes `role` from `account`. If `account` had been granted `role`, emits a {RoleRevoked} event. Requirements: - the caller must have ``role``'s admin role."
      },
      "setStakeLPCoreContract(address)": {
        "details": "Set LiquidStaking smart contract."
      },
      "symbol()": {
        "details": "Returns the symbol of the token, usually a shorter version of the name."
      },
      "totalSupply()": {
        "details": "See {IERC20-totalSupply}."
      },
      "transfer(address,uint256)": {
        "details": "See {IERC20-transfer}. Requirements: - `recipient` cannot be the zero address. - the caller must have a balance of at least `amount`."
      },
      "transferFrom(address,address,uint256)": {
        "details": "See {IERC20-transferFrom}. Emits an {Approval} event indicating the updated allowance. This is not required by the EIP. See the note at the beginning of {ERC20}. Requirements: - `sender` and `recipient` cannot be the zero address. - `sender` must have a balance of at least `amount`. - the caller must have allowance for ``sender``'s tokens of at least `amount`."
      },
      "unpause()": {
        "details": "Returns to normal state. Requirements: - The contract must be paused."
      }
    },
    "version": 1
  },
  "userdoc": {
    "kind": "user",
    "methods": {},
    "version": 1
  }
}