{
  "contractName": "PSTAKE",
  "abi": [
    {
      "anonymous": false,
      "inputs": [
        {
          "indexed": true,
          "internalType": "address",
          "name": "owner",
          "type": "address"
        },
        {
          "indexed": true,
          "internalType": "address",
          "name": "spender",
          "type": "address"
        },
        {
          "indexed": false,
          "internalType": "uint256",
          "name": "value",
          "type": "uint256"
        }
      ],
      "name": "Approval",
      "type": "event"
    },
    {
      "anonymous": false,
      "inputs": [
        {
          "indexed": true,
          "internalType": "address",
          "name": "accountAddress",
          "type": "address"
        },
        {
          "indexed": false,
          "internalType": "uint256",
          "name": "tokens",
          "type": "uint256"
        },
        {
          "indexed": false,
          "internalType": "uint256",
          "name": "timestamp",
          "type": "uint256"
        }
      ],
      "name": "CalculateRewards",
      "type": "event"
    },
    {
      "anonymous": false,
      "inputs": [
        {
          "indexed": false,
          "internalType": "address",
          "name": "account",
          "type": "address"
        }
      ],
      "name": "Paused",
      "type": "event"
    },
    {
      "anonymous": false,
      "inputs": [
        {
          "indexed": true,
          "internalType": "bytes32",
          "name": "role",
          "type": "bytes32"
        },
        {
          "indexed": true,
          "internalType": "bytes32",
          "name": "previousAdminRole",
          "type": "bytes32"
        },
        {
          "indexed": true,
          "internalType": "bytes32",
          "name": "newAdminRole",
          "type": "bytes32"
        }
      ],
      "name": "RoleAdminChanged",
      "type": "event"
    },
    {
      "anonymous": false,
      "inputs": [
        {
          "indexed": true,
          "internalType": "bytes32",
          "name": "role",
          "type": "bytes32"
        },
        {
          "indexed": true,
          "internalType": "address",
          "name": "account",
          "type": "address"
        },
        {
          "indexed": true,
          "internalType": "address",
          "name": "sender",
          "type": "address"
        }
      ],
      "name": "RoleGranted",
      "type": "event"
    },
    {
      "anonymous": false,
      "inputs": [
        {
          "indexed": true,
          "internalType": "bytes32",
          "name": "role",
          "type": "bytes32"
        },
        {
          "indexed": true,
          "internalType": "address",
          "name": "account",
          "type": "address"
        },
        {
          "indexed": true,
          "internalType": "address",
          "name": "sender",
          "type": "address"
        }
      ],
      "name": "RoleRevoked",
      "type": "event"
    },
    {
      "anonymous": false,
      "inputs": [
        {
          "indexed": true,
          "internalType": "address",
          "name": "_contract",
          "type": "address"
        }
      ],
      "name": "SetLiquidStakingContract",
      "type": "event"
    },
    {
      "anonymous": false,
      "inputs": [
        {
          "indexed": true,
          "internalType": "address",
          "name": "_contract",
          "type": "address"
        }
      ],
      "name": "SetStakeLPCoreContract",
      "type": "event"
    },
    {
      "anonymous": false,
      "inputs": [
        {
          "indexed": true,
          "internalType": "address",
          "name": "_contract",
          "type": "address"
        }
      ],
      "name": "SetTokenWrapperContract",
      "type": "event"
    },
    {
      "anonymous": false,
      "inputs": [
        {
          "indexed": true,
          "internalType": "address",
          "name": "_contract",
          "type": "address"
        }
      ],
      "name": "SetUTokensContract",
      "type": "event"
    },
    {
      "anonymous": false,
      "inputs": [
        {
          "indexed": true,
          "internalType": "address",
          "name": "from",
          "type": "address"
        },
        {
          "indexed": true,
          "internalType": "address",
          "name": "to",
          "type": "address"
        },
        {
          "indexed": false,
          "internalType": "uint256",
          "name": "value",
          "type": "uint256"
        }
      ],
      "name": "Transfer",
      "type": "event"
    },
    {
      "anonymous": false,
      "inputs": [
        {
          "indexed": true,
          "internalType": "address",
          "name": "accountAddress",
          "type": "address"
        },
        {
          "indexed": false,
          "internalType": "uint256",
          "name": "tokens",
          "type": "uint256"
        },
        {
          "indexed": false,
          "internalType": "uint256",
          "name": "timestamp",
          "type": "uint256"
        }
      ],
      "name": "TriggeredCalculateRewards",
      "type": "event"
    },
    {
      "anonymous": false,
      "inputs": [
        {
          "indexed": false,
          "internalType": "address",
          "name": "account",
          "type": "address"
        }
      ],
      "name": "Unpaused",
      "type": "event"
    },
    {
      "inputs": [],
      "name": "DEFAULT_ADMIN_ROLE",
      "outputs": [
        {
          "internalType": "bytes32",
          "name": "",
          "type": "bytes32"
        }
      ],
      "stateMutability": "view",
      "type": "function"
    },
    {
      "inputs": [],
      "name": "PAUSER_ROLE",
      "outputs": [
        {
          "internalType": "bytes32",
          "name": "",
          "type": "bytes32"
        }
      ],
      "stateMutability": "view",
      "type": "function"
    },
    {
      "inputs": [],
      "name": "_stakeLPCoreContract",
      "outputs": [
        {
          "internalType": "address",
          "name": "",
          "type": "address"
        }
      ],
      "stateMutability": "view",
      "type": "function"
    },
    {
      "inputs": [
        {
          "internalType": "address",
          "name": "owner",
          "type": "address"
        },
        {
          "internalType": "address",
          "name": "spender",
          "type": "address"
        }
      ],
      "name": "allowance",
      "outputs": [
        {
          "internalType": "uint256",
          "name": "",
          "type": "uint256"
        }
      ],
      "stateMutability": "view",
      "type": "function"
    },
    {
      "inputs": [
        {
          "internalType": "address",
          "name": "spender",
          "type": "address"
        },
        {
          "internalType": "uint256",
          "name": "amount",
          "type": "uint256"
        }
      ],
      "name": "approve",
      "outputs": [
        {
          "internalType": "bool",
          "name": "",
          "type": "bool"
        }
      ],
      "stateMutability": "nonpayable",
      "type": "function"
    },
    {
      "inputs": [
        {
          "internalType": "address",
          "name": "account",
          "type": "address"
        }
      ],
      "name": "balanceOf",
      "outputs": [
        {
          "internalType": "uint256",
          "name": "",
          "type": "uint256"
        }
      ],
      "stateMutability": "view",
      "type": "function"
    },
    {
      "inputs": [],
      "name": "decimals",
      "outputs": [
        {
          "internalType": "uint8",
          "name": "",
          "type": "uint8"
        }
      ],
      "stateMutability": "view",
      "type": "function"
    },
    {
      "inputs": [
        {
          "internalType": "address",
          "name": "spender",
          "type": "address"
        },
        {
          "internalType": "uint256",
          "name": "subtractedValue",
          "type": "uint256"
        }
      ],
      "name": "decreaseAllowance",
      "outputs": [
        {
          "internalType": "bool",
          "name": "",
          "type": "bool"
        }
      ],
      "stateMutability": "nonpayable",
      "type": "function"
    },
    {
      "inputs": [
        {
          "internalType": "bytes32",
          "name": "role",
          "type": "bytes32"
        }
      ],
      "name": "getRoleAdmin",
      "outputs": [
        {
          "internalType": "bytes32",
          "name": "",
          "type": "bytes32"
        }
      ],
      "stateMutability": "view",
      "type": "function"
    },
    {
      "inputs": [
        {
          "internalType": "bytes32",
          "name": "role",
          "type": "bytes32"
        },
        {
          "internalType": "uint256",
          "name": "index",
          "type": "uint256"
        }
      ],
      "name": "getRoleMember",
      "outputs": [
        {
          "internalType": "address",
          "name": "",
          "type": "address"
        }
      ],
      "stateMutability": "view",
      "type": "function"
    },
    {
      "inputs": [
        {
          "internalType": "bytes32",
          "name": "role",
          "type": "bytes32"
        }
      ],
      "name": "getRoleMemberCount",
      "outputs": [
        {
          "internalType": "uint256",
          "name": "",
          "type": "uint256"
        }
      ],
      "stateMutability": "view",
      "type": "function"
    },
    {
      "inputs": [
        {
          "internalType": "bytes32",
          "name": "role",
          "type": "bytes32"
        },
        {
          "internalType": "address",
          "name": "account",
          "type": "address"
        }
      ],
      "name": "grantRole",
      "outputs": [],
      "stateMutability": "nonpayable",
      "type": "function"
    },
    {
      "inputs": [
        {
          "internalType": "bytes32",
          "name": "role",
          "type": "bytes32"
        },
        {
          "internalType": "address",
          "name": "account",
          "type": "address"
        }
      ],
      "name": "hasRole",
      "outputs": [
        {
          "internalType": "bool",
          "name": "",
          "type": "bool"
        }
      ],
      "stateMutability": "view",
      "type": "function"
    },
    {
      "inputs": [
        {
          "internalType": "address",
          "name": "spender",
          "type": "address"
        },
        {
          "internalType": "uint256",
          "name": "addedValue",
          "type": "uint256"
        }
      ],
      "name": "increaseAllowance",
      "outputs": [
        {
          "internalType": "bool",
          "name": "",
          "type": "bool"
        }
      ],
      "stateMutability": "nonpayable",
      "type": "function"
    },
    {
      "inputs": [],
      "name": "name",
      "outputs": [
        {
          "internalType": "string",
          "name": "",
          "type": "string"
        }
      ],
      "stateMutability": "view",
      "type": "function"
    },
    {
      "inputs": [],
      "name": "paused",
      "outputs": [
        {
          "internalType": "bool",
          "name": "",
          "type": "bool"
        }
      ],
      "stateMutability": "view",
      "type": "function"
    },
    {
      "inputs": [
        {
          "internalType": "bytes32",
          "name": "role",
          "type": "bytes32"
        },
        {
          "internalType": "address",
          "name": "account",
          "type": "address"
        }
      ],
      "name": "renounceRole",
      "outputs": [],
      "stateMutability": "nonpayable",
      "type": "function"
    },
    {
      "inputs": [
        {
          "internalType": "bytes32",
          "name": "role",
          "type": "bytes32"
        },
        {
          "internalType": "address",
          "name": "account",
          "type": "address"
        }
      ],
      "name": "revokeRole",
      "outputs": [],
      "stateMutability": "nonpayable",
      "type": "function"
    },
    {
      "inputs": [],
      "name": "symbol",
      "outputs": [
        {
          "internalType": "string",
          "name": "",
          "type": "string"
        }
      ],
      "stateMutability": "view",
      "type": "function"
    },
    {
      "inputs": [],
      "name": "totalSupply",
      "outputs": [
        {
          "internalType": "uint256",
          "name": "",
          "type": "uint256"
        }
      ],
      "stateMutability": "view",
      "type": "function"
    },
    {
      "inputs": [
        {
          "internalType": "address",
          "name": "recipient",
          "type": "address"
        },
        {
          "internalType": "uint256",
          "name": "amount",
          "type": "uint256"
        }
      ],
      "name": "transfer",
      "outputs": [
        {
          "internalType": "bool",
          "name": "",
          "type": "bool"
        }
      ],
      "stateMutability": "nonpayable",
      "type": "function"
    },
    {
      "inputs": [
        {
          "internalType": "address",
          "name": "sender",
          "type": "address"
        },
        {
          "internalType": "address",
          "name": "recipient",
          "type": "address"
        },
        {
          "internalType": "uint256",
          "name": "amount",
          "type": "uint256"
        }
      ],
      "name": "transferFrom",
      "outputs": [
        {
          "internalType": "bool",
          "name": "",
          "type": "bool"
        }
      ],
      "stateMutability": "nonpayable",
      "type": "function"
    },
    {
      "inputs": [
        {
          "internalType": "address",
          "name": "pauserAddress",
          "type": "address"
        }
      ],
      "name": "initialize",
      "outputs": [],
      "stateMutability": "nonpayable",
      "type": "function"
    },
    {
      "inputs": [
        {
          "internalType": "address",
          "name": "stakeLPCoreContract",
          "type": "address"
        }
      ],
      "name": "setStakeLPCoreContract",
      "outputs": [],
      "stateMutability": "nonpayable",
      "type": "function"
    },
    {
      "inputs": [],
      "name": "pause",
      "outputs": [
        {
          "internalType": "bool",
          "name": "success",
          "type": "bool"
        }
      ],
      "stateMutability": "nonpayable",
      "type": "function"
    },
    {
      "inputs": [],
      "name": "unpause",
      "outputs": [
        {
          "internalType": "bool",
          "name": "success",
          "type": "bool"
        }
      ],
      "stateMutability": "nonpayable",
      "type": "function"
    }
  ],
  "bytecode": "0x608060405234801561001057600080fd5b50611bd1806100206000396000f3fe608060405234801561001057600080fd5b506004361061018e5760003560e01c806370a08231116100de578063a457c2d711610097578063ca15c87311610071578063ca15c873146104c6578063d547741f146104e3578063dd62ed3e1461050f578063e63ab1e91461053d5761018e565b8063a457c2d714610448578063a9059cbb14610474578063c4d66de8146104a05761018e565b806370a08231146103bb5780638456cb59146103e15780639010d07c146103e957806391d148541461040c57806395d89b4114610438578063a217fddf146104405761018e565b8063313ce5671161014b578063395093511161012557806339509351146103595780633f4ba83a146103855780635c975abb1461038d5780636b0a9356146103955761018e565b8063313ce567146102eb578063334e0abe1461030957806336568abe1461032d5761018e565b806306fdde0314610193578063095ea7b31461021057806318160ddd1461025057806323b872dd1461026a578063248a9ca3146102a05780632f2ff15d146102bd575b600080fd5b61019b610545565b6040805160208082528351818301528351919283929083019185019080838360005b838110156101d55781810151838201526020016101bd565b50505050905090810190601f1680156102025780820380516001836020036101000a031916815260200191505b509250505060405180910390f35b61023c6004803603604081101561022657600080fd5b506001600160a01b0381351690602001356105db565b604080519115158252519081900360200190f35b6102586105f9565b60408051918252519081900360200190f35b61023c6004803603606081101561028057600080fd5b506001600160a01b038135811691602081013590911690604001356105ff565b610258600480360360208110156102b657600080fd5b5035610686565b6102e9600480360360408110156102d357600080fd5b50803590602001356001600160a01b031661069b565b005b6102f3610707565b6040805160ff9092168252519081900360200190f35b610311610710565b604080516001600160a01b039092168252519081900360200190f35b6102e96004803603604081101561034357600080fd5b50803590602001356001600160a01b031661071f565b61023c6004803603604081101561036f57600080fd5b506001600160a01b038135169060200135610780565b61023c6107ce565b61023c61082f565b6102e9600480360360208110156103ab57600080fd5b50356001600160a01b0316610838565b610258600480360360208110156103d157600080fd5b50356001600160a01b03166108c6565b61023c6108e1565b610311600480360360408110156103ff57600080fd5b508035906020013561093c565b61023c6004803603604081101561042257600080fd5b50803590602001356001600160a01b031661095b565b61019b610973565b6102586109d4565b61023c6004803603604081101561045e57600080fd5b506001600160a01b0381351690602001356109d9565b61023c6004803603604081101561048a57600080fd5b506001600160a01b038135169060200135610a41565b6102e9600480360360208110156104b657600080fd5b50356001600160a01b0316610a55565b610258600480360360208110156104dc57600080fd5b5035610ba3565b6102e9600480360360408110156104f957600080fd5b50803590602001356001600160a01b0316610bba565b6102586004803603604081101561052557600080fd5b506001600160a01b0381358116916020013516610c13565b610258610c3e565b60368054604080516020601f60026000196101006001881615020190951694909404938401819004810282018101909252828152606093909290918301828280156105d15780601f106105a6576101008083540402835291602001916105d1565b820191906000526020600020905b8154815290600101906020018083116105b457829003601f168201915b5050505050905090565b60006105ef6105e8610c50565b8484610c54565b5060015b92915050565b60355490565b600061060c848484610d40565b61067c84610618610c50565b61067785604051806060016040528060288152602001611ab7602891396001600160a01b038a16600090815260346020526040812090610656610c50565b6001600160a01b031681526020810191909152604001600020549190610e9d565b610c54565b5060019392505050565b60009081526097602052604090206002015490565b6000828152609760205260409020600201546106be906106b9610c50565b61095b565b6106f95760405162461bcd60e51b815260040180806020018281038252602f8152602001806119e2602f913960400191505060405180910390fd5b6107038282610f34565b5050565b60385460ff1690565b60c9546001600160a01b031681565b610727610c50565b6001600160a01b0316816001600160a01b0316146107765760405162461bcd60e51b815260040180806020018281038252602f815260200180611b6d602f913960400191505060405180910390fd5b6107038282610f9d565b60006105ef61078d610c50565b84610677856034600061079e610c50565b6001600160a01b03908116825260208083019390935260409182016000908120918c168152925290205490611006565b60006107ea600080516020611adf8339815191526106b9610c50565b610821576040805162461bcd60e51b81526020600482015260036024820152621414cd60ea1b604482015290519081900360640190fd5b610829611060565b50600190565b60655460ff1690565b61084560006106b9610c50565b61087c576040805162461bcd60e51b815260206004820152600360248201526228299960e91b604482015290519081900360640190fd5b60c980546001600160a01b0319166001600160a01b0383169081179091556040517f956e636358b715ce07711e6cde8321e45298a1393051158ee3940beac0b9e40190600090a250565b6001600160a01b031660009081526033602052604090205490565b60006108fd600080516020611adf8339815191526106b9610c50565b610934576040805162461bcd60e51b815260206004820152600360248201526250533360e81b604482015290519081900360640190fd5b610829611100565b60008281526097602052604081206109549083611183565b9392505050565b6000828152609760205260408120610954908361118f565b60378054604080516020601f60026000196101006001881615020190951694909404938401819004810282018101909252828152606093909290918301828280156105d15780601f106105a6576101008083540402835291602001916105d1565b600081565b60006105ef6109e6610c50565b8461067785604051806060016040528060258152602001611b486025913960346000610a10610c50565b6001600160a01b03908116825260208083019390935260409182016000908120918d16815292529020549190610e9d565b60006105ef610a4e610c50565b8484610d40565b600054610100900460ff1680610a6e5750610a6e6111a4565b80610a7c575060005460ff16155b610ab75760405162461bcd60e51b815260040180806020018281038252602e815260200180611a89602e913960400191505060405180910390fd5b600054610100900460ff16158015610ae2576000805460ff1961ff0019909116610100171660011790555b610b2e6040518060400160405280600c81526020016b3829aa20a5a2902a37b5b2b760a11b81525060405180604001604052806006815260200165505354414b4560d01b8152506111b5565b610b3661126b565b610b3e61131d565b610b506000610b4b610c50565b6106f9565b610b68600080516020611adf833981519152836106f9565b610b7260126113ba565b610b8e610b7d610c50565b6a0422ca8b0a00a4250000006113d0565b8015610703576000805461ff00191690555050565b60008181526097602052604081206105f3906114c2565b600082815260976020526040902060020154610bd8906106b9610c50565b6107765760405162461bcd60e51b8152600401808060200182810382526030815260200180611a596030913960400191505060405180910390fd5b6001600160a01b03918216600090815260346020908152604080832093909416825291909152205490565b600080516020611adf83398151915281565b3390565b6001600160a01b038316610c995760405162461bcd60e51b8152600401808060200182810382526024815260200180611b246024913960400191505060405180910390fd5b6001600160a01b038216610cde5760405162461bcd60e51b8152600401808060200182810382526022815260200180611a116022913960400191505060405180910390fd5b6001600160a01b03808416600081815260346020908152604080832094871680845294825291829020859055815185815291517f8c5be1e5ebec7d5bd14f71427d1e84f3dd0314c0f7b2291e5b200ac8c7c3b9259281900390910190a3505050565b6001600160a01b038316610d855760405162461bcd60e51b8152600401808060200182810382526025815260200180611aff6025913960400191505060405180910390fd5b6001600160a01b038216610dca5760405162461bcd60e51b81526004018080602001828103825260238152602001806119bf6023913960400191505060405180910390fd5b610dd58383836114cd565b610e1281604051806060016040528060268152602001611a33602691396001600160a01b0386166000908152603360205260409020549190610e9d565b6001600160a01b038085166000908152603360205260408082209390935590841681522054610e419082611006565b6001600160a01b0380841660008181526033602090815260409182902094909455805185815290519193928716927fddf252ad1be2c89b69c2b068fc378daa952ba7f163c4a11628f55a4df523b3ef92918290030190a3505050565b60008184841115610f2c5760405162461bcd60e51b81526004018080602001828103825283818151815260200191508051906020019080838360005b83811015610ef1578181015183820152602001610ed9565b50505050905090810190601f168015610f1e5780820380516001836020036101000a031916815260200191505b509250505060405180910390fd5b505050900390565b6000828152609760205260409020610f4c9082611518565b1561070357610f59610c50565b6001600160a01b0316816001600160a01b0316837f2f8788117e7eff1d82e926ec794901d17c78024a50270940304540a733656f0d60405160405180910390a45050565b6000828152609760205260409020610fb5908261152d565b1561070357610fc2610c50565b6001600160a01b0316816001600160a01b0316837ff6391f5c32d9c69d2a47ea670b442974b53935d1edc7fd64eb21e047a839171b60405160405180910390a45050565b600082820183811015610954576040805162461bcd60e51b815260206004820152601b60248201527f536166654d6174683a206164646974696f6e206f766572666c6f770000000000604482015290519081900360640190fd5b61106861082f565b6110b0576040805162461bcd60e51b815260206004820152601460248201527314185d5cd8589b194e881b9bdd081c185d5cd95960621b604482015290519081900360640190fd5b6065805460ff191690557f5db9ee0a495bf2e6ff9c91a7834c1ba4fdd244a5e8aa4e537bd38aeae4b073aa6110e3610c50565b604080516001600160a01b039092168252519081900360200190a1565b61110861082f565b1561114d576040805162461bcd60e51b815260206004820152601060248201526f14185d5cd8589b194e881c185d5cd95960821b604482015290519081900360640190fd5b6065805460ff191660011790557f62e78cea01bee320cd4e420270b5ea74000d11b0c9f74754ebdbfc544b05a2586110e3610c50565b60006109548383611542565b6000610954836001600160a01b0384166115a6565b60006111af306115be565b15905090565b600054610100900460ff16806111ce57506111ce6111a4565b806111dc575060005460ff16155b6112175760405162461bcd60e51b815260040180806020018281038252602e815260200180611a89602e913960400191505060405180910390fd5b600054610100900460ff16158015611242576000805460ff1961ff0019909116610100171660011790555b61124a6115c4565b6112548383611664565b8015611266576000805461ff00191690555b505050565b600054610100900460ff168061128457506112846111a4565b80611292575060005460ff16155b6112cd5760405162461bcd60e51b815260040180806020018281038252602e815260200180611a89602e913960400191505060405180910390fd5b600054610100900460ff161580156112f8576000805460ff1961ff0019909116610100171660011790555b6113006115c4565b6113086115c4565b801561131a576000805461ff00191690555b50565b600054610100900460ff168061133657506113366111a4565b80611344575060005460ff16155b61137f5760405162461bcd60e51b815260040180806020018281038252602e815260200180611a89602e913960400191505060405180910390fd5b600054610100900460ff161580156113aa576000805460ff1961ff0019909116610100171660011790555b6113b26115c4565b61130861173c565b6038805460ff191660ff92909216919091179055565b6001600160a01b03821661142b576040805162461bcd60e51b815260206004820152601f60248201527f45524332303a206d696e7420746f20746865207a65726f206164647265737300604482015290519081900360640190fd5b611437600083836114cd565b6035546114449082611006565b6035556001600160a01b03821660009081526033602052604090205461146a9082611006565b6001600160a01b03831660008181526033602090815260408083209490945583518581529351929391927fddf252ad1be2c89b69c2b068fc378daa952ba7f163c4a11628f55a4df523b3ef9281900390910190a35050565b60006105f3826117e7565b6114d561082f565b1561150d576040805162461bcd60e51b815260206004820152600360248201526250533560e81b604482015290519081900360640190fd5b611266838383611266565b6000610954836001600160a01b0384166117eb565b6000610954836001600160a01b038416611835565b815460009082106115845760405162461bcd60e51b815260040180806020018281038252602281526020018061199d6022913960400191505060405180910390fd5b82600001828154811061159357fe5b9060005260206000200154905092915050565b60009081526001919091016020526040902054151590565b3b151590565b600054610100900460ff16806115dd57506115dd6111a4565b806115eb575060005460ff16155b6116265760405162461bcd60e51b815260040180806020018281038252602e815260200180611a89602e913960400191505060405180910390fd5b600054610100900460ff16158015611308576000805460ff1961ff001990911661010017166001179055801561131a576000805461ff001916905550565b600054610100900460ff168061167d575061167d6111a4565b8061168b575060005460ff16155b6116c65760405162461bcd60e51b815260040180806020018281038252602e815260200180611a89602e913960400191505060405180910390fd5b600054610100900460ff161580156116f1576000805460ff1961ff0019909116610100171660011790555b82516117049060369060208601906118fb565b5081516117189060379060208501906118fb565b506038805460ff191660121790558015611266576000805461ff0019169055505050565b600054610100900460ff168061175557506117556111a4565b80611763575060005460ff16155b61179e5760405162461bcd60e51b815260040180806020018281038252602e815260200180611a89602e913960400191505060405180910390fd5b600054610100900460ff161580156117c9576000805460ff1961ff0019909116610100171660011790555b6065805460ff19169055801561131a576000805461ff001916905550565b5490565b60006117f783836115a6565b61182d575081546001818101845560008481526020808220909301849055845484825282860190935260409020919091556105f3565b5060006105f3565b600081815260018301602052604081205480156118f1578354600019808301919081019060009087908390811061186857fe5b906000526020600020015490508087600001848154811061188557fe5b6000918252602080832090910192909255828152600189810190925260409020908401905586548790806118b557fe5b600190038181906000526020600020016000905590558660010160008781526020019081526020016000206000905560019450505050506105f3565b60009150506105f3565b828054600181600116156101000203166002900490600052602060002090601f0160209004810192826119315760008555611977565b82601f1061194a57805160ff1916838001178555611977565b82800160010185558215611977579182015b8281111561197757825182559160200191906001019061195c565b50611983929150611987565b5090565b5b80821115611983576000815560010161198856fe456e756d657261626c655365743a20696e646578206f7574206f6620626f756e647345524332303a207472616e7366657220746f20746865207a65726f2061646472657373416363657373436f6e74726f6c3a2073656e646572206d75737420626520616e2061646d696e20746f206772616e7445524332303a20617070726f766520746f20746865207a65726f206164647265737345524332303a207472616e7366657220616d6f756e7420657863656564732062616c616e6365416363657373436f6e74726f6c3a2073656e646572206d75737420626520616e2061646d696e20746f207265766f6b65496e697469616c697a61626c653a20636f6e747261637420697320616c726561647920696e697469616c697a656445524332303a207472616e7366657220616d6f756e74206578636565647320616c6c6f77616e636565d7a28e3265b37a6474929f336521b332c1681b933f6cb9f3376673440d862a45524332303a207472616e736665722066726f6d20746865207a65726f206164647265737345524332303a20617070726f76652066726f6d20746865207a65726f206164647265737345524332303a2064656372656173656420616c6c6f77616e63652062656c6f77207a65726f416363657373436f6e74726f6c3a2063616e206f6e6c792072656e6f756e636520726f6c657320666f722073656c66a26469706673582212200967dd7903084316db86553afad02bf0eb56b66e5e6842a603b823507ae9dd9664736f6c63430007060033",
  "immutableReferences": {},
  "source": "// SPDX-License-Identifier: UNLICENSED\npragma solidity >=0.7.0;\n\nimport \"@openzeppelin/contracts-upgradeable/token/ERC20/ERC20Upgradeable.sol\";\nimport \"@openzeppelin/contracts-upgradeable/utils/PausableUpgradeable.sol\";\nimport \"@openzeppelin/contracts-upgradeable/access/AccessControlUpgradeable.sol\";\nimport \"./interfaces/IPSTAKE.sol\";\n\ncontract PSTAKE is\n\tIPSTAKE,\n\tERC20Upgradeable,\n\tPausableUpgradeable,\n\tAccessControlUpgradeable\n{\n\t// constants defining access control ROLES\n\tbytes32 public constant PAUSER_ROLE = keccak256(\"PAUSER_ROLE\");\n\n\t// variables capturing data of other contracts in the product\n\taddress public _stakeLPCoreContract;\n\n\t/**\n\t * @dev Constructor for initializing the UToken contract.\n\t * @param pauserAddress - address of the pauser admin.\n\t */\n\tfunction initialize(address pauserAddress) public virtual initializer {\n\t\t__ERC20_init(\"pSTAKE Token\", \"PSTAKE\");\n\t\t__AccessControl_init();\n\t\t__Pausable_init();\n\t\t_setupRole(DEFAULT_ADMIN_ROLE, _msgSender());\n\t\t_setupRole(PAUSER_ROLE, pauserAddress);\n\t\t// PSTAKE IS A SIMPLE ERC20 TOKEN HENCE 18 DECIMAL PLACES\n\t\t_setupDecimals(18);\n\t\t// pre-allocate some tokens to an admin address which will air drop PSTAKE tokens\n\t\t// to each of holder contracts. This is only for testnet purpose. in Mainnet, we\n\t\t// will use a vesting contract to allocate tokens to admin in a certain schedule\n\t\t_mint(_msgSender(), 5000000000000000000000000);\n\t}\n\n\t/**\n\t * @dev Mint new PSTAKE for the provided 'address' and 'amount'\n\t * \n\t *\n\t * Emits a {MintTokens} event with 'to' set to address and 'tokens' set to amount of tokens.\n\t *\n\t * Requirements:\n\t *\n\t * - `amount` cannot be less than zero.\n\t *\n\t */\n\t/* function mint(address to, uint256 tokens) public virtual override returns (bool success) {\n        require(_msgSender() == _stakeLPCoreContract, \"PS1\");  // minted by STokens contract\n\n        _mint(to, tokens);\n        return true;\n    } */\n\n\t/*\n\t * @dev Burn utokens for the provided 'address' and 'amount'\n\t * @param from: account address, tokens: number of tokens\n\t *\n\t * Emits a {BurnTokens} event with 'from' set to address and 'tokens' set to amount of tokens.\n\t *\n\t * Requirements:\n\t *\n\t * - `amount` cannot be less than zero.\n\t *\n\t */\n\t/* function burn(address from, uint256 tokens) public virtual override returns (bool success) {\n        require((tx.origin == from && _msgSender()==_liquidStakingContract) ||  // staking operation\n        (tx.origin == from && _msgSender() == _wrapperContract), \"UT2\"); // unwrap operation\n        _burn(from, tokens);\n        return true;\n    } */\n\n\t/*\n\t * @dev Set 'contract address', for liquid staking smart contract\n\t * @param liquidStakingContract: liquidStaking contract address\n\t *\n\t * Emits a {SetLiquidStakingContract} event with '_contract' set to the liquidStaking contract address.\n\t *\n\t */\n\tfunction setStakeLPCoreContract(address stakeLPCoreContract)\n\t\tpublic\n\t\tvirtual\n\t\toverride\n\t{\n\t\trequire(hasRole(DEFAULT_ADMIN_ROLE, _msgSender()), \"PS2\");\n\t\t_stakeLPCoreContract = stakeLPCoreContract;\n\t\temit SetStakeLPCoreContract(stakeLPCoreContract);\n\t}\n\n\t/**\n\t * @dev Triggers stopped state.\n\t *\n\t * Requirements:\n\t *\n\t * - The contract must not be paused.\n\t */\n\tfunction pause() public virtual returns (bool success) {\n\t\trequire(hasRole(PAUSER_ROLE, _msgSender()), \"PS3\");\n\t\t_pause();\n\t\treturn true;\n\t}\n\n\t/**\n\t * @dev Returns to normal state.\n\t *\n\t * Requirements:\n\t *\n\t * - The contract must be paused.\n\t */\n\tfunction unpause() public virtual returns (bool success) {\n\t\trequire(hasRole(PAUSER_ROLE, _msgSender()), \"PS4\");\n\t\t_unpause();\n\t\treturn true;\n\t}\n\n\t/**\n\t * @dev Hook that is called before any transfer of tokens. This includes\n\t * minting and burning.\n\t *\n\t * Calling conditions:\n\t *\n\t * - when `from` and `to` are both non-zero, `amount` of ``from``'s tokens\n\t * will be to transferred to `to`.\n\t * - when `from` is zero, `amount` tokens will be minted for `to`.\n\t * - when `to` is zero, `amount` of ``from``'s tokens will be burned.\n\t * - `from` and `to` are never both zero.\n\t *\n\t */\n\tfunction _beforeTokenTransfer(\n\t\taddress from,\n\t\taddress to,\n\t\tuint256 amount\n\t) internal virtual override {\n\t\trequire(!paused(), \"PS5\");\n\t\tsuper._beforeTokenTransfer(from, to, amount);\n\t}\n}\n",
  "sourcePath": "C:\\Users\\Kamlesh\\Persistence\\pStake\\codebase\\pStake-smartContracts\\contracts\\PSTAKE.sol",
  "compiler": {
    "name": "solc",
    "version": "0.7.6+commit.7338295f.Emscripten.clang"
  },
  "schemaVersion": "3.4.3",
  "updatedAt": "2021-08-14T08:42:14.338Z",
  "devdoc": {
    "kind": "dev",
    "methods": {
      "allowance(address,address)": {
        "details": "See {IERC20-allowance}."
      },
      "approve(address,uint256)": {
        "details": "See {IERC20-approve}. Requirements: - `spender` cannot be the zero address."
      },
      "balanceOf(address)": {
        "details": "See {IERC20-balanceOf}."
      },
      "decimals()": {
        "details": "Returns the number of decimals used to get its user representation. For example, if `decimals` equals `2`, a balance of `505` tokens should be displayed to a user as `5,05` (`505 / 10 ** 2`). Tokens usually opt for a value of 18, imitating the relationship between Ether and Wei. This is the value {ERC20} uses, unless {_setupDecimals} is called. NOTE: This information is only used for _display_ purposes: it in no way affects any of the arithmetic of the contract, including {IERC20-balanceOf} and {IERC20-transfer}."
      },
      "decreaseAllowance(address,uint256)": {
        "details": "Atomically decreases the allowance granted to `spender` by the caller. This is an alternative to {approve} that can be used as a mitigation for problems described in {IERC20-approve}. Emits an {Approval} event indicating the updated allowance. Requirements: - `spender` cannot be the zero address. - `spender` must have allowance for the caller of at least `subtractedValue`."
      },
      "getRoleAdmin(bytes32)": {
        "details": "Returns the admin role that controls `role`. See {grantRole} and {revokeRole}. To change a role's admin, use {_setRoleAdmin}."
      },
      "getRoleMember(bytes32,uint256)": {
        "details": "Returns one of the accounts that have `role`. `index` must be a value between 0 and {getRoleMemberCount}, non-inclusive. Role bearers are not sorted in any particular way, and their ordering may change at any point. WARNING: When using {getRoleMember} and {getRoleMemberCount}, make sure you perform all queries on the same block. See the following https://forum.openzeppelin.com/t/iterating-over-elements-on-enumerableset-in-openzeppelin-contracts/2296[forum post] for more information."
      },
      "getRoleMemberCount(bytes32)": {
        "details": "Returns the number of accounts that have `role`. Can be used together with {getRoleMember} to enumerate all bearers of a role."
      },
      "grantRole(bytes32,address)": {
        "details": "Grants `role` to `account`. If `account` had not been already granted `role`, emits a {RoleGranted} event. Requirements: - the caller must have ``role``'s admin role."
      },
      "hasRole(bytes32,address)": {
        "details": "Returns `true` if `account` has been granted `role`."
      },
      "increaseAllowance(address,uint256)": {
        "details": "Atomically increases the allowance granted to `spender` by the caller. This is an alternative to {approve} that can be used as a mitigation for problems described in {IERC20-approve}. Emits an {Approval} event indicating the updated allowance. Requirements: - `spender` cannot be the zero address."
      },
      "initialize(address)": {
        "details": "Constructor for initializing the UToken contract.",
        "params": {
          "pauserAddress": "- address of the pauser admin."
        }
      },
      "name()": {
        "details": "Returns the name of the token."
      },
      "pause()": {
        "details": "Triggers stopped state. Requirements: - The contract must not be paused."
      },
      "paused()": {
        "details": "Returns true if the contract is paused, and false otherwise."
      },
      "renounceRole(bytes32,address)": {
        "details": "Revokes `role` from the calling account. Roles are often managed via {grantRole} and {revokeRole}: this function's purpose is to provide a mechanism for accounts to lose their privileges if they are compromised (such as when a trusted device is misplaced). If the calling account had been granted `role`, emits a {RoleRevoked} event. Requirements: - the caller must be `account`."
      },
      "revokeRole(bytes32,address)": {
        "details": "Revokes `role` from `account`. If `account` had been granted `role`, emits a {RoleRevoked} event. Requirements: - the caller must have ``role``'s admin role."
      },
      "setStakeLPCoreContract(address)": {
        "details": "Mint new PSTAKE for the provided 'address' and 'amount'  Emits a {MintTokens} event with 'to' set to address and 'tokens' set to amount of tokens. Requirements: - `amount` cannot be less than zero."
      },
      "symbol()": {
        "details": "Returns the symbol of the token, usually a shorter version of the name."
      },
      "totalSupply()": {
        "details": "See {IERC20-totalSupply}."
      },
      "transfer(address,uint256)": {
        "details": "See {IERC20-transfer}. Requirements: - `recipient` cannot be the zero address. - the caller must have a balance of at least `amount`."
      },
      "transferFrom(address,address,uint256)": {
        "details": "See {IERC20-transferFrom}. Emits an {Approval} event indicating the updated allowance. This is not required by the EIP. See the note at the beginning of {ERC20}. Requirements: - `sender` and `recipient` cannot be the zero address. - `sender` must have a balance of at least `amount`. - the caller must have allowance for ``sender``'s tokens of at least `amount`."
      },
      "unpause()": {
        "details": "Returns to normal state. Requirements: - The contract must be paused."
      }
    },
    "version": 1
  },
  "userdoc": {
    "kind": "user",
    "methods": {},
    "version": 1
  }
}