{
  "contractName": "RewardEmissionV2",
  "abi": [
    {
      "anonymous": false,
      "inputs": [
        {
          "indexed": false,
          "internalType": "address",
          "name": "account",
          "type": "address"
        }
      ],
      "name": "Paused",
      "type": "event"
    },
    {
      "anonymous": false,
      "inputs": [
        {
          "indexed": false,
          "internalType": "address",
          "name": "whitelistedAddress",
          "type": "address"
        },
        {
          "indexed": false,
          "internalType": "address[]",
          "name": "stkContractAddresses",
          "type": "address[]"
        },
        {
          "indexed": false,
          "internalType": "address",
          "name": "holderContractAddressLocal",
          "type": "address"
        },
        {
          "indexed": false,
          "internalType": "address",
          "name": "lpContractAddressLocal",
          "type": "address"
        },
        {
          "indexed": false,
          "internalType": "uint256",
          "name": "lastHolderRewardTimestamp",
          "type": "uint256"
        },
        {
          "indexed": false,
          "internalType": "uint256",
          "name": "timestamp",
          "type": "uint256"
        }
      ],
      "name": "RemoveWhitelistedAddress",
      "type": "event"
    },
    {
      "anonymous": false,
      "inputs": [
        {
          "indexed": true,
          "internalType": "bytes32",
          "name": "role",
          "type": "bytes32"
        },
        {
          "indexed": true,
          "internalType": "bytes32",
          "name": "previousAdminRole",
          "type": "bytes32"
        },
        {
          "indexed": true,
          "internalType": "bytes32",
          "name": "newAdminRole",
          "type": "bytes32"
        }
      ],
      "name": "RoleAdminChanged",
      "type": "event"
    },
    {
      "anonymous": false,
      "inputs": [
        {
          "indexed": true,
          "internalType": "bytes32",
          "name": "role",
          "type": "bytes32"
        },
        {
          "indexed": true,
          "internalType": "address",
          "name": "account",
          "type": "address"
        },
        {
          "indexed": true,
          "internalType": "address",
          "name": "sender",
          "type": "address"
        }
      ],
      "name": "RoleGranted",
      "type": "event"
    },
    {
      "anonymous": false,
      "inputs": [
        {
          "indexed": true,
          "internalType": "bytes32",
          "name": "role",
          "type": "bytes32"
        },
        {
          "indexed": true,
          "internalType": "address",
          "name": "account",
          "type": "address"
        },
        {
          "indexed": true,
          "internalType": "address",
          "name": "sender",
          "type": "address"
        }
      ],
      "name": "RoleRevoked",
      "type": "event"
    },
    {
      "anonymous": false,
      "inputs": [
        {
          "indexed": true,
          "internalType": "address",
          "name": "whitelistedAddress",
          "type": "address"
        },
        {
          "indexed": false,
          "internalType": "uint256",
          "name": "rewardTimestamp",
          "type": "uint256"
        }
      ],
      "name": "SetLastHolderRewardTimestamp",
      "type": "event"
    },
    {
      "anonymous": false,
      "inputs": [
        {
          "indexed": false,
          "internalType": "address",
          "name": "whitelistedAddress",
          "type": "address"
        },
        {
          "indexed": false,
          "internalType": "address[]",
          "name": "sTokenAddressses",
          "type": "address[]"
        },
        {
          "indexed": false,
          "internalType": "address",
          "name": "holderContractAddress",
          "type": "address"
        },
        {
          "indexed": false,
          "internalType": "address",
          "name": "lpContractAddress",
          "type": "address"
        },
        {
          "indexed": false,
          "internalType": "uint256",
          "name": "timestamp",
          "type": "uint256"
        }
      ],
      "name": "SetWhitelistedAddress",
      "type": "event"
    },
    {
      "anonymous": false,
      "inputs": [
        {
          "indexed": false,
          "internalType": "address",
          "name": "account",
          "type": "address"
        }
      ],
      "name": "Unpaused",
      "type": "event"
    },
    {
      "inputs": [],
      "name": "DEFAULT_ADMIN_ROLE",
      "outputs": [
        {
          "internalType": "bytes32",
          "name": "",
          "type": "bytes32"
        }
      ],
      "stateMutability": "view",
      "type": "function"
    },
    {
      "inputs": [],
      "name": "PAUSER_ROLE",
      "outputs": [
        {
          "internalType": "bytes32",
          "name": "",
          "type": "bytes32"
        }
      ],
      "stateMutability": "view",
      "type": "function"
    },
    {
      "inputs": [
        {
          "internalType": "address",
          "name": "",
          "type": "address"
        }
      ],
      "name": "_holderContractAddress",
      "outputs": [
        {
          "internalType": "address",
          "name": "",
          "type": "address"
        }
      ],
      "stateMutability": "view",
      "type": "function"
    },
    {
      "inputs": [
        {
          "internalType": "address",
          "name": "",
          "type": "address"
        },
        {
          "internalType": "uint256",
          "name": "",
          "type": "uint256"
        }
      ],
      "name": "_holderWhitelists",
      "outputs": [
        {
          "internalType": "address",
          "name": "",
          "type": "address"
        }
      ],
      "stateMutability": "view",
      "type": "function"
    },
    {
      "inputs": [
        {
          "internalType": "address",
          "name": "",
          "type": "address"
        }
      ],
      "name": "_lastHolderRewardTimestamp",
      "outputs": [
        {
          "internalType": "uint256",
          "name": "",
          "type": "uint256"
        }
      ],
      "stateMutability": "view",
      "type": "function"
    },
    {
      "inputs": [
        {
          "internalType": "address",
          "name": "",
          "type": "address"
        }
      ],
      "name": "_lpContractAddress",
      "outputs": [
        {
          "internalType": "address",
          "name": "",
          "type": "address"
        }
      ],
      "stateMutability": "view",
      "type": "function"
    },
    {
      "inputs": [
        {
          "internalType": "address",
          "name": "",
          "type": "address"
        },
        {
          "internalType": "uint256",
          "name": "",
          "type": "uint256"
        }
      ],
      "name": "_stkContractAddresses",
      "outputs": [
        {
          "internalType": "address",
          "name": "",
          "type": "address"
        }
      ],
      "stateMutability": "view",
      "type": "function"
    },
    {
      "inputs": [],
      "name": "_version",
      "outputs": [
        {
          "internalType": "uint256",
          "name": "",
          "type": "uint256"
        }
      ],
      "stateMutability": "view",
      "type": "function"
    },
    {
      "inputs": [
        {
          "internalType": "bytes32",
          "name": "role",
          "type": "bytes32"
        }
      ],
      "name": "getRoleAdmin",
      "outputs": [
        {
          "internalType": "bytes32",
          "name": "",
          "type": "bytes32"
        }
      ],
      "stateMutability": "view",
      "type": "function"
    },
    {
      "inputs": [
        {
          "internalType": "bytes32",
          "name": "role",
          "type": "bytes32"
        },
        {
          "internalType": "uint256",
          "name": "index",
          "type": "uint256"
        }
      ],
      "name": "getRoleMember",
      "outputs": [
        {
          "internalType": "address",
          "name": "",
          "type": "address"
        }
      ],
      "stateMutability": "view",
      "type": "function"
    },
    {
      "inputs": [
        {
          "internalType": "bytes32",
          "name": "role",
          "type": "bytes32"
        }
      ],
      "name": "getRoleMemberCount",
      "outputs": [
        {
          "internalType": "uint256",
          "name": "",
          "type": "uint256"
        }
      ],
      "stateMutability": "view",
      "type": "function"
    },
    {
      "inputs": [
        {
          "internalType": "bytes32",
          "name": "role",
          "type": "bytes32"
        },
        {
          "internalType": "address",
          "name": "account",
          "type": "address"
        }
      ],
      "name": "grantRole",
      "outputs": [],
      "stateMutability": "nonpayable",
      "type": "function"
    },
    {
      "inputs": [
        {
          "internalType": "bytes32",
          "name": "role",
          "type": "bytes32"
        },
        {
          "internalType": "address",
          "name": "account",
          "type": "address"
        }
      ],
      "name": "hasRole",
      "outputs": [
        {
          "internalType": "bool",
          "name": "",
          "type": "bool"
        }
      ],
      "stateMutability": "view",
      "type": "function"
    },
    {
      "inputs": [],
      "name": "paused",
      "outputs": [
        {
          "internalType": "bool",
          "name": "",
          "type": "bool"
        }
      ],
      "stateMutability": "view",
      "type": "function"
    },
    {
      "inputs": [
        {
          "internalType": "bytes32",
          "name": "role",
          "type": "bytes32"
        },
        {
          "internalType": "address",
          "name": "account",
          "type": "address"
        }
      ],
      "name": "renounceRole",
      "outputs": [],
      "stateMutability": "nonpayable",
      "type": "function"
    },
    {
      "inputs": [
        {
          "internalType": "bytes32",
          "name": "role",
          "type": "bytes32"
        },
        {
          "internalType": "address",
          "name": "account",
          "type": "address"
        }
      ],
      "name": "revokeRole",
      "outputs": [],
      "stateMutability": "nonpayable",
      "type": "function"
    },
    {
      "inputs": [
        {
          "internalType": "address",
          "name": "pauserAddress",
          "type": "address"
        }
      ],
      "name": "initialize",
      "outputs": [],
      "stateMutability": "nonpayable",
      "type": "function"
    },
    {
      "inputs": [
        {
          "internalType": "address",
          "name": "whitelistedAddress",
          "type": "address"
        },
        {
          "internalType": "address",
          "name": "sTokenAddress",
          "type": "address"
        }
      ],
      "name": "isContractWhitelisted",
      "outputs": [
        {
          "internalType": "bool",
          "name": "result",
          "type": "bool"
        }
      ],
      "stateMutability": "view",
      "type": "function"
    },
    {
      "inputs": [
        {
          "internalType": "address",
          "name": "whitelistedAddress",
          "type": "address"
        }
      ],
      "name": "getwhitelistedData",
      "outputs": [
        {
          "internalType": "address",
          "name": "holderAddress",
          "type": "address"
        },
        {
          "internalType": "address",
          "name": "lpAddress",
          "type": "address"
        },
        {
          "internalType": "address[]",
          "name": "stkContractAddresses",
          "type": "address[]"
        },
        {
          "internalType": "address[]",
          "name": "pContractAddresses",
          "type": "address[]"
        },
        {
          "internalType": "uint256",
          "name": "lastHolderRewardTimestamp",
          "type": "uint256"
        }
      ],
      "stateMutability": "view",
      "type": "function"
    },
    {
      "inputs": [
        {
          "internalType": "address",
          "name": "holderAddress",
          "type": "address"
        }
      ],
      "name": "getHolderData",
      "outputs": [
        {
          "internalType": "address[]",
          "name": "holderWhitelists",
          "type": "address[]"
        },
        {
          "internalType": "address",
          "name": "lpContractAddress",
          "type": "address"
        },
        {
          "internalType": "address[]",
          "name": "stkContractAddresses",
          "type": "address[]"
        },
        {
          "internalType": "address[]",
          "name": "pContractAddresses",
          "type": "address[]"
        }
      ],
      "stateMutability": "view",
      "type": "function"
    },
    {
      "inputs": [
        {
          "internalType": "address",
          "name": "whitelistedAddress",
          "type": "address"
        },
        {
          "internalType": "uint256",
          "name": "rewardTimestamp",
          "type": "uint256"
        }
      ],
      "name": "setLastHolderRewardTimestamp",
      "outputs": [
        {
          "internalType": "bool",
          "name": "success",
          "type": "bool"
        }
      ],
      "stateMutability": "nonpayable",
      "type": "function"
    },
    {
      "inputs": [
        {
          "internalType": "address",
          "name": "whitelistedAddress",
          "type": "address"
        },
        {
          "internalType": "address",
          "name": "sTokenAddress",
          "type": "address"
        }
      ],
      "name": "getPendingHolderRewardsData",
      "outputs": [
        {
          "internalType": "uint256",
          "name": "sTokenSupply",
          "type": "uint256"
        },
        {
          "internalType": "uint256",
          "name": "lastHolderRewardTimestamp",
          "type": "uint256"
        },
        {
          "internalType": "address",
          "name": "holderAddress",
          "type": "address"
        },
        {
          "internalType": "address",
          "name": "lpAddress",
          "type": "address"
        }
      ],
      "stateMutability": "view",
      "type": "function"
    },
    {
      "inputs": [
        {
          "internalType": "address",
          "name": "whitelistedAddress",
          "type": "address"
        },
        {
          "internalType": "address[]",
          "name": "sTokenAddresses",
          "type": "address[]"
        },
        {
          "internalType": "address",
          "name": "holderContractAddress",
          "type": "address"
        },
        {
          "internalType": "address",
          "name": "lpContractAddress",
          "type": "address"
        }
      ],
      "name": "setWhitelistedAddress",
      "outputs": [
        {
          "internalType": "bool",
          "name": "success",
          "type": "bool"
        }
      ],
      "stateMutability": "nonpayable",
      "type": "function"
    },
    {
      "inputs": [
        {
          "internalType": "address",
          "name": "whitelistedAddress",
          "type": "address"
        }
      ],
      "name": "removeWhitelistedAddress",
      "outputs": [
        {
          "internalType": "bool",
          "name": "success",
          "type": "bool"
        }
      ],
      "stateMutability": "nonpayable",
      "type": "function"
    },
    {
      "inputs": [],
      "name": "pause",
      "outputs": [
        {
          "internalType": "bool",
          "name": "success",
          "type": "bool"
        }
      ],
      "stateMutability": "nonpayable",
      "type": "function"
    },
    {
      "inputs": [],
      "name": "unpause",
      "outputs": [
        {
          "internalType": "bool",
          "name": "success",
          "type": "bool"
        }
      ],
      "stateMutability": "nonpayable",
      "type": "function"
    }
  ],
  "bytecode": "0x608060405234801561001057600080fd5b506124f2806100206000396000f3fe608060405234801561001057600080fd5b506004361061018e5760003560e01c80638456cb59116100de578063c4d66de811610097578063d547741f11610071578063d547741f14610663578063da6b7ec71461068f578063e63ab1e9146106b5578063eab573dc146106bd5761018e565b8063c4d66de8146105f4578063ca15c8731461061a578063d21b1ff4146106375761018e565b80638456cb591461054157806386f6fef7146105495780639010d07c1461057757806391d148541461059a578063a217fddf146105c6578063b8ecc2a9146105ce5761018e565b80633e118dbe1161014b578063530cd5ab11610125578063530cd5ab1461048a5780635c975abb146104b057806360253751146104b85780636890125b146104e45761018e565b80633e118dbe146104385780633f4ba83a146104405780633f7398a8146104485761018e565b806307d17a1714610193578063112af4f614610279578063248a9ca3146102b95780632f2ff15d146102e857806336568abe1461031657806336bbacad14610342575b600080fd5b6101b9600480360360208110156101a957600080fd5b50356001600160a01b0316610786565b60405180866001600160a01b03168152602001856001600160a01b031681526020018060200180602001848152602001838103835286818151815260200191508051906020019060200280838360005b83811015610221578181015183820152602001610209565b50505050905001838103825285818151815260200191508051906020019060200280838360005b83811015610260578181015183820152602001610248565b5050505090500197505050505050505060405180910390f35b6102a56004803603604081101561028f57600080fd5b506001600160a01b03813516906020013561093e565b604080519115158252519081900360200190f35b6102d6600480360360208110156102cf57600080fd5b50356109e6565b60408051918252519081900360200190f35b610314600480360360408110156102fe57600080fd5b50803590602001356001600160a01b03166109fb565b005b6103146004803603604081101561032c57600080fd5b50803590602001356001600160a01b0316610a67565b6103686004803603602081101561035857600080fd5b50356001600160a01b0316610ac8565b6040518080602001856001600160a01b031681526020018060200180602001848103845288818151815260200191508051906020019060200280838360005b838110156103bf5781810151838201526020016103a7565b50505050905001848103835286818151815260200191508051906020019060200280838360005b838110156103fe5781810151838201526020016103e6565b5050505091909101858103835286518152865160209182019250818801910280838360008315610260578181015183820152602001610248565b6102d6610df1565b6102a5610df7565b61046e6004803603602081101561045e57600080fd5b50356001600160a01b0316610e5b565b604080516001600160a01b039092168252519081900360200190f35b6102a5600480360360208110156104a057600080fd5b50356001600160a01b0316610e76565b6102a5611270565b61046e600480360360408110156104ce57600080fd5b506001600160a01b038135169060200135611279565b610512600480360360408110156104fa57600080fd5b506001600160a01b03813581169160200135166112b1565b6040805194855260208501939093526001600160a01b0391821684840152166060830152519081900360800190f35b6102a5611408565b6102a56004803603604081101561055f57600080fd5b506001600160a01b0381358116916020013516611466565b61046e6004803603604081101561058d57600080fd5b5080359060200135611557565b6102a5600480360360408110156105b057600080fd5b50803590602001356001600160a01b0316611576565b6102d661158e565b6102d6600480360360208110156105e457600080fd5b50356001600160a01b0316611593565b6103146004803603602081101561060a57600080fd5b50356001600160a01b03166115a5565b6102d66004803603602081101561063057600080fd5b5035611686565b61046e6004803603604081101561064d57600080fd5b506001600160a01b03813516906020013561169d565b6103146004803603604081101561067957600080fd5b50803590602001356001600160a01b03166116b9565b61046e600480360360208110156106a557600080fd5b50356001600160a01b0316611712565b6102d661172d565b6102a5600480360360808110156106d357600080fd5b6001600160a01b0382351691908101906040810160208201356401000000008111156106fe57600080fd5b82018360208201111561071057600080fd5b8035906020019184602083028401116401000000008311171561073257600080fd5b919080806020026020016040519081016040528093929190818152602001838360200280828437600092019190915250929550506001600160a01b03833581169450602090930135909216915061173f9050565b6001600160a01b03808216600090815260996020908152604080832054609a835281842054609b84528285208054845181870281018701909552808552928716969190911694606094859491939192919083018282801561081057602002820191906000526020600020905b81546001600160a01b031681526001909101906020018083116107f2575b505050506001600160a01b0388166000908152609c6020526040902054825192955092505067ffffffffffffffff8111801561084b57600080fd5b50604051908082528060200260200182016040528015610875578160200160208202803683370190505b50915060005b83518110156109345783818151811061089057fe5b60200260200101516001600160a01b0316633d9e0c056040518163ffffffff1660e01b815260040160206040518083038186803b1580156108d057600080fd5b505afa1580156108e4573d6000803e3d6000fd5b505050506040513d60208110156108fa57600080fd5b5051835184908390811061090a57fe5b6001600160a01b039092166020928302919091019091015261092d816001611c45565b905061087b565b5091939590929450565b6000806109528461094d611c9f565b611466565b90508061098c576040805162461bcd60e51b815260206004820152600360248201526252453160e81b604482015290519081900360640190fd5b6001600160a01b0384166000818152609c6020908152604091829020869055815186815291517f20b5a9016e8ecb6982fe7fc4e3eb556c26678f5f14936942d69d24fba99f1e469281900390910190a25060019392505050565b60009081526065602052604090206002015490565b600082815260656020526040902060020154610a1e90610a19611c9f565b611576565b610a595760405162461bcd60e51b815260040180806020018281038252602f8152602001806123e1602f913960400191505060405180910390fd5b610a638282611ca3565b5050565b610a6f611c9f565b6001600160a01b0316816001600160a01b031614610abe5760405162461bcd60e51b815260040180806020018281038252602f81526020018061248e602f913960400191505060405180910390fd5b610a638282611d0c565b60606000606080609d6000866001600160a01b03166001600160a01b03168152602001908152602001600020805480602002602001604051908101604052809291908181526020018280548015610b4857602002820191906000526020600020905b81546001600160a01b03168152600190910190602001808311610b2a575b5050835193975050508115159050610b605750610dea565b60008080805b84811015610c1a57888181518110610b7a57fe5b6020908102919091018101516001600160a01b038082166000908152609a9093526040909220549095501615610bc8576001600160a01b038085166000908152609a60205260409020541697505b6001600160a01b0384166000908152609b6020526040902054821015610c08576001600160a01b0384166000908152609b60205260409020549092509050815b610c13816001611c45565b9050610b66565b508067ffffffffffffffff81118015610c3257600080fd5b50604051908082528060200260200182016040528015610c5c578160200160208202803683370190505b509550878281518110610c6b57fe5b60200260200101519250855167ffffffffffffffff81118015610c8d57600080fd5b50604051908082528060200260200182016040528015610cb7578160200160208202803683370190505b50945060005b8651811015610de4576001600160a01b0384166000908152609b60205260409020805482908110610cea57fe5b9060005260206000200160009054906101000a90046001600160a01b0316878281518110610d1457fe5b60200260200101906001600160a01b031690816001600160a01b031681525050868181518110610d4057fe5b60200260200101516001600160a01b0316633d9e0c056040518163ffffffff1660e01b815260040160206040518083038186803b158015610d8057600080fd5b505afa158015610d94573d6000803e3d6000fd5b505050506040513d6020811015610daa57600080fd5b50518651879083908110610dba57fe5b6001600160a01b0390921660209283029190910190910152610ddd816001611c45565b9050610cbd565b50505050505b9193509193565b609e5481565b6000610e1360008051602061246e833981519152610a19611c9f565b610e4d576040805162461bcd60e51b815260206004808301919091526024820152635354313560e01b604482015290519081900360640190fd5b610e55611d75565b50600190565b6099602052600090815260409020546001600160a01b031681565b6000610e8481610a19611c9f565b610ebe576040805162461bcd60e51b815260206004808301919091526024820152630535431360e41b604482015290519081900360640190fd5b6001600160a01b038216610f02576040805162461bcd60e51b815260206004808301919091526024820152635354313160e01b604482015290519081900360640190fd5b610f0d609783611e15565b506001600160a01b03808316600090815260996020908152604080832054609a835281842054609b8452828520805484518187028101870190955280855292871696919091169493909190830182828015610f9157602002820191906000526020600020905b81546001600160a01b03168152600190910190602001808311610f73575b5050506001600160a01b0388166000908152609c60209081526040808320546099835281842080546001600160a01b0319908116909155609a845282852080549091169055609b909252822094955093610fed9350915061238c565b6001600160a01b038087166000908152609c602090815260408083208390559287168252609d90529081205481905b80821015611083576001600160a01b038781166000908152609d602052604090208054918b16918490811061104d57fe5b6000918252602090912001546001600160a01b031614156110715760019250611083565b61107c826001611c45565b915061101c565b82156111a957611094816001611e2a565b8214156110e3576001600160a01b0387166000908152609d602052604090208054806110bc57fe5b600082815260209020810160001990810180546001600160a01b03191690550190556111a9565b6001600160a01b0387166000908152609d60205260409020611106826001611e2a565b8154811061111057fe5b60009182526020808320909101546001600160a01b038a81168452609d909252604090922080549190921691908490811061114757fe5b600091825260208083209190910180546001600160a01b0319166001600160a01b039485161790559189168152609d9091526040902080548061118657fe5b600082815260209020810160001990810180546001600160a01b03191690550190555b7fb9efa8277b04b4bb5da4dbb4f7e4edb4ded0dcff2fc79d468dbe3b1215b041b689868989884260405180876001600160a01b0316815260200180602001866001600160a01b03168152602001856001600160a01b03168152602001848152602001838152602001828103825287818151815260200191508051906020019060200280838360005b83811015611249578181015183820152602001611231565b5050505090500197505050505050505060405180910390a150600198975050505050505050565b60335460ff1690565b609d602052816000526040600020818154811061129557600080fd5b6000918252602090912001546001600160a01b03169150829050565b60008060008060006112c38787611466565b9050806112d057506113ff565b6000806000806112df8b610786565b9450509350935093506000805b835181101561133d578b6001600160a01b031684828151811061130b57fe5b60200260200101516001600160a01b0316141561132b576001915061133d565b611336816001611c45565b90506112ec565b5080801561135357506001600160a01b03881615155b801561136757506001600160a01b03871615155b156113f857876001600160a01b031663f5560db08d6040518263ffffffff1660e01b815260040180826001600160a01b0316815260200191505060206040518083038186803b1580156113b957600080fd5b505afa1580156113cd573d6000803e3d6000fd5b505050506040513d60208110156113e357600080fd5b50519950909750929550909350849184919087905b5050505050505b92959194509250565b600061142460008051602061246e833981519152610a19611c9f565b61145e576040805162461bcd60e51b8152602060048083019190915260248201526314d50c4d60e21b604482015290519081900360640190fd5b610e55611e87565b6000611473609784611f0a565b6001600160a01b0384166000908152609b60209081526040808320805482518185028101850190935280835294955092939092918301828280156114e057602002820191906000526020600020905b81546001600160a01b031681526001909101906020018083116114c2575b5050835193945060009250829150505b8281101561154057856001600160a01b031684828151811061150e57fe5b60200260200101516001600160a01b0316141561152e5760019150611540565b611539816001611c45565b90506114f0565b5083801561154b5750805b93505050505b92915050565b600082815260656020526040812061156f9083611f1f565b9392505050565b600082815260656020526040812061156f9083611f0a565b600081565b609c6020526000908152604090205481565b600054610100900460ff16806115be57506115be611f2b565b806115cc575060005460ff16155b6116075760405162461bcd60e51b815260040180806020018281038252602e815260200180612440602e913960400191505060405180910390fd5b600054610100900460ff16158015611632576000805460ff1961ff0019909116610100171660011790555b61163a611f3c565b611642611fee565b611654600061164f611c9f565b610a59565b61166c60008051602061246e83398151915283610a59565b6001609e558015610a63576000805461ff00191690555050565b60008181526065602052604081206115519061208b565b609b602052816000526040600020818154811061129557600080fd5b6000828152606560205260409020600201546116d790610a19611c9f565b610abe5760405162461bcd60e51b81526004018080602001828103825260308152602001806124106030913960400191505060405180910390fd5b609a602052600090815260409020546001600160a01b031681565b60008051602061246e83398151915281565b600061174d81610a19611c9f565b611784576040805162461bcd60e51b81526020600482015260036024820152620a48a760eb1b604482015290519081900360640190fd5b6001600160a01b0385161580159061179c5750835115155b6117d3576040805162461bcd60e51b815260206004820152600360248201526252453960e81b604482015290519081900360640190fd5b6117de609786611f0a565b6117ef576117ed609786612096565b505b6001600160a01b03858116600090815260996020908152604080832080546001600160a01b031990811689871617909155609a9092528220805490911692851692909217909155808061184188610786565b509293505050506001600160a01b0386161561185d578561185f565b805b6001600160a01b0381166000908152609d60205260408120549093509091505b808310156118e6576001600160a01b038281166000908152609d602052604090208054918b1691859081106118b057fe5b6000918252602090912001546001600160a01b031614156118d457600193506118e6565b6118df836001611c45565b925061187f565b6001600160a01b0387161580156118fa5750835b15611a1f5761190a816001611e2a565b831415611959576001600160a01b0382166000908152609d6020526040902080548061193257fe5b600082815260209020810160001990810180546001600160a01b0319169055019055611a1f565b6001600160a01b0382166000908152609d6020526040902061197c826001611e2a565b8154811061198657fe5b60009182526020808320909101546001600160a01b038581168452609d90925260409092208054919092169190859081106119bd57fe5b600091825260208083209190910180546001600160a01b0319166001600160a01b039485161790559184168152609d909152604090208054806119fc57fe5b600082815260209020810160001990810180546001600160a01b03191690550190555b6001600160a01b03871615801590611a35575083155b15611a79576001600160a01b038781166000908152609d602090815260408220805460018101825590835291200180546001600160a01b031916918b169190911790555b6001600160a01b0389166000908152609b6020526040902054606090611b855760005b8951811015611b805760006001600160a01b03168a8281518110611abc57fe5b60200260200101516001600160a01b03161415611b09576040805162461bcd60e51b815260206004808301919091526024820152630524531360e41b604482015290519081900360640190fd5b6001600160a01b038b166000908152609b602052604090208a518b9083908110611b2f57fe5b60209081029190910181015182546001808201855560009485529290932090920180546001600160a01b0319166001600160a01b0390931692909217909155611b79908290611c45565b9050611a9c565b508890505b7f898021085aa6760dfff39976b4928c90f897cf85216261ef8a3746d755ef53dc8a828a8a4260405180866001600160a01b0316815260200180602001856001600160a01b03168152602001846001600160a01b03168152602001838152602001828103825286818151815260200191508051906020019060200280838360005b83811015611c1e578181015183820152602001611c06565b50505050905001965050505050505060405180910390a15060019998505050505050505050565b60008282018381101561156f576040805162461bcd60e51b815260206004820152601b60248201527f536166654d6174683a206164646974696f6e206f766572666c6f770000000000604482015290519081900360640190fd5b3390565b6000828152606560205260409020611cbb9082612096565b15610a6357611cc8611c9f565b6001600160a01b0316816001600160a01b0316837f2f8788117e7eff1d82e926ec794901d17c78024a50270940304540a733656f0d60405160405180910390a45050565b6000828152606560205260409020611d249082611e15565b15610a6357611d31611c9f565b6001600160a01b0316816001600160a01b0316837ff6391f5c32d9c69d2a47ea670b442974b53935d1edc7fd64eb21e047a839171b60405160405180910390a45050565b611d7d611270565b611dc5576040805162461bcd60e51b815260206004820152601460248201527314185d5cd8589b194e881b9bdd081c185d5cd95960621b604482015290519081900360640190fd5b6033805460ff191690557f5db9ee0a495bf2e6ff9c91a7834c1ba4fdd244a5e8aa4e537bd38aeae4b073aa611df8611c9f565b604080516001600160a01b039092168252519081900360200190a1565b600061156f836001600160a01b0384166120ab565b600082821115611e81576040805162461bcd60e51b815260206004820152601e60248201527f536166654d6174683a207375627472616374696f6e206f766572666c6f770000604482015290519081900360640190fd5b50900390565b611e8f611270565b15611ed4576040805162461bcd60e51b815260206004820152601060248201526f14185d5cd8589b194e881c185d5cd95960821b604482015290519081900360640190fd5b6033805460ff191660011790557f62e78cea01bee320cd4e420270b5ea74000d11b0c9f74754ebdbfc544b05a258611df8611c9f565b600061156f836001600160a01b038416612171565b600061156f8383612189565b6000611f36306121ed565b15905090565b600054610100900460ff1680611f555750611f55611f2b565b80611f63575060005460ff16155b611f9e5760405162461bcd60e51b815260040180806020018281038252602e815260200180612440602e913960400191505060405180910390fd5b600054610100900460ff16158015611fc9576000805460ff1961ff0019909116610100171660011790555b611fd16121f3565b611fd96121f3565b8015611feb576000805461ff00191690555b50565b600054610100900460ff16806120075750612007611f2b565b80612015575060005460ff16155b6120505760405162461bcd60e51b815260040180806020018281038252602e815260200180612440602e913960400191505060405180910390fd5b600054610100900460ff1615801561207b576000805460ff1961ff0019909116610100171660011790555b6120836121f3565b611fd9612293565b60006115518261233e565b600061156f836001600160a01b038416612342565b6000818152600183016020526040812054801561216757835460001980830191908101906000908790839081106120de57fe5b90600052602060002001549050808760000184815481106120fb57fe5b60009182526020808320909101929092558281526001898101909252604090209084019055865487908061212b57fe5b60019003818190600052602060002001600090559055866001016000878152602001908152602001600020600090556001945050505050611551565b6000915050611551565b60009081526001919091016020526040902054151590565b815460009082106121cb5760405162461bcd60e51b81526004018080602001828103825260228152602001806123bf6022913960400191505060405180910390fd5b8260000182815481106121da57fe5b9060005260206000200154905092915050565b3b151590565b600054610100900460ff168061220c575061220c611f2b565b8061221a575060005460ff16155b6122555760405162461bcd60e51b815260040180806020018281038252602e815260200180612440602e913960400191505060405180910390fd5b600054610100900460ff16158015611fd9576000805460ff1961ff0019909116610100171660011790558015611feb576000805461ff001916905550565b600054610100900460ff16806122ac57506122ac611f2b565b806122ba575060005460ff16155b6122f55760405162461bcd60e51b815260040180806020018281038252602e815260200180612440602e913960400191505060405180910390fd5b600054610100900460ff16158015612320576000805460ff1961ff0019909116610100171660011790555b6033805460ff191690558015611feb576000805461ff001916905550565b5490565b600061234e8383612171565b61238457508154600181810184556000848152602080822090930184905584548482528286019093526040902091909155611551565b506000611551565b5080546000825590600052602060002090810190611feb91905b808211156123ba57600081556001016123a6565b509056fe456e756d657261626c655365743a20696e646578206f7574206f6620626f756e6473416363657373436f6e74726f6c3a2073656e646572206d75737420626520616e2061646d696e20746f206772616e74416363657373436f6e74726f6c3a2073656e646572206d75737420626520616e2061646d696e20746f207265766f6b65496e697469616c697a61626c653a20636f6e747261637420697320616c726561647920696e697469616c697a656465d7a28e3265b37a6474929f336521b332c1681b933f6cb9f3376673440d862a416363657373436f6e74726f6c3a2063616e206f6e6c792072656e6f756e636520726f6c657320666f722073656c66a2646970667358221220a48fa55714597b005737bf3cf1b9e0b67fe3dae7c92d105772ad95e579c9afef64736f6c63430007060033",
  "immutableReferences": {},
  "source": "// SPDX-License-Identifier: UNLICENSED\npragma solidity >=0.7.0;\n\nimport \"@openzeppelin/contracts-upgradeable/math/SafeMathUpgradeable.sol\";\nimport \"@openzeppelin/contracts-upgradeable/utils/PausableUpgradeable.sol\";\nimport \"@openzeppelin/contracts-upgradeable/utils/EnumerableSetUpgradeable.sol\";\nimport \"@openzeppelin/contracts-upgradeable/access/AccessControlUpgradeable.sol\";\nimport \"./interfaces/IHolderV2.sol\";\nimport \"./interfaces/ISTokensV3.sol\";\nimport \"./interfaces/IRewardEmissionV2.sol\";\n\ncontract RewardEmissionV2 is\n\tIRewardEmissionV2,\n\tPausableUpgradeable,\n\tAccessControlUpgradeable\n{\n\tusing SafeMathUpgradeable for uint256;\n\tusing EnumerableSetUpgradeable for EnumerableSetUpgradeable.AddressSet;\n\n\t// constants defining access control ROLES\n\tbytes32 public constant PAUSER_ROLE = keccak256(\"PAUSER_ROLE\");\n\n\t// variables pertaining to holder logic for whitelisted addresses & StakeLP\n\t// deposit contract address for STokens in a DeFi product\n\tEnumerableSetUpgradeable.AddressSet private _whitelistedAddresses;\n\t// Holder contract address for this whitelisted contract. Many can point to one Holder contract\n\tmapping(address => address) public _holderContractAddress;\n\t// LP Token contract address which might be different from whitelisted contract, for a whitelisted contract\n\tmapping(address => address) public _lpContractAddress;\n\t// array of stkToken contract addresses associated with a whitelisted contract, for scenarios\n\t// where both the pair of tokens happen to be stkTokens\n\tmapping(address => address[]) public _stkContractAddresses;\n\t// last timestamp when the holder reward calculation was performed for updating reward pool,\n\t// for a whitelisted contract\n\tmapping(address => uint256) public _lastHolderRewardTimestamp;\n\t// list of whitelisted addresses for a particular holder contract\n\tmapping(address => address[]) public _holderWhitelists;\n\t// variable pertaining to contract upgrades versioning\n\tuint256 public _version;\n\n\t/**\n\t * @dev Constructor for initializing the SToken contract.\n\t * @param pauserAddress - address of the pauser admin.\n\t */\n\tfunction initialize(address pauserAddress) public virtual initializer {\n\t\t__AccessControl_init();\n\t\t__Pausable_init();\n\t\t_setupRole(DEFAULT_ADMIN_ROLE, _msgSender());\n\t\t_setupRole(PAUSER_ROLE, pauserAddress);\n\t\t_version = 1;\n\t}\n\n\t/**\n\t * @dev Calculate pending rewards for the provided 'address'. The rate is the moving reward rate.\n\t * @param whitelistedAddress: whitelisted contract address\n\t * @param sTokenAddress: stkToken contract address\n\t */\n\tfunction isContractWhitelisted(\n\t\taddress whitelistedAddress,\n\t\taddress sTokenAddress\n\t) public view virtual override returns (bool result) {\n\t\tresult = _whitelistedAddresses.contains(whitelistedAddress);\n\t\taddress[] memory stkContractAddresses = _stkContractAddresses[\n\t\t\twhitelistedAddress\n\t\t];\n\t\tuint256 stkContractAddressesLength = stkContractAddresses.length;\n\t\tbool result2;\n\t\tfor (uint256 i = 0; i < stkContractAddressesLength; i = i.add(1)) {\n\t\t\tif (stkContractAddresses[i] == sTokenAddress) {\n\t\t\t\tresult2 = true;\n\t\t\t\tbreak;\n\t\t\t}\n\t\t}\n\t\tresult = result && result2;\n\t\treturn result;\n\t}\n\n\t/**\n\t * @dev Calculate pending rewards for the provided 'address'. The rate is the moving reward rate.\n\t * @param whitelistedAddress: contract address\n\t */\n\tfunction getwhitelistedData(address whitelistedAddress)\n\t\tpublic\n\t\tview\n\t\tvirtual\n\t\toverride\n\t\treturns (\n\t\t\taddress holderAddress,\n\t\t\taddress lpAddress,\n\t\t\taddress[] memory stkContractAddresses,\n\t\t\taddress[] memory pContractAddresses,\n\t\t\tuint256 lastHolderRewardTimestamp\n\t\t)\n\t{\n\t\t// Get the time in number of blocks\n\t\tholderAddress = _holderContractAddress[whitelistedAddress];\n\t\tlpAddress = _lpContractAddress[whitelistedAddress];\n\t\tstkContractAddresses = _stkContractAddresses[whitelistedAddress];\n\t\tlastHolderRewardTimestamp = _lastHolderRewardTimestamp[\n\t\t\twhitelistedAddress\n\t\t];\n\t\t// allocate pContractAddresses from the corresponding stkContractAddresses\n\t\tpContractAddresses = new address[](stkContractAddresses.length);\n\t\tfor (uint256 j = 0; j < stkContractAddresses.length; j = j.add(1)) {\n\t\t\tpContractAddresses[j] = ISTokensV3(stkContractAddresses[j])\n\t\t\t\t.getUTokenAddress();\n\t\t}\n\t}\n\n\t/**\n\t * @dev Calculate pending rewards for the provided 'address'. The rate is the moving reward rate.\n\t * @param holderAddress: contract address\n\t */\n\tfunction getHolderData(address holderAddress)\n\t\tpublic\n\t\tview\n\t\tvirtual\n\t\toverride\n\t\treturns (\n\t\t\taddress[] memory holderWhitelists,\n\t\t\taddress lpContractAddress,\n\t\t\taddress[] memory stkContractAddresses,\n\t\t\taddress[] memory pContractAddresses\n\t\t)\n\t{\n\t\tholderWhitelists = _holderWhitelists[holderAddress];\n\t\tuint256 holderWhitelistsLength = holderWhitelists.length;\n\t\t// if there are no whitelisted addresses associated with the holder contract then return\n\t\tif (holderWhitelistsLength == 0) {\n\t\t\treturn (\n\t\t\t\tholderWhitelists,\n\t\t\t\tlpContractAddress,\n\t\t\t\tstkContractAddresses,\n\t\t\t\tpContractAddresses\n\t\t\t);\n\t\t}\n\t\taddress whitelistedContract;\n\t\tuint256 index;\n\t\tuint256 size;\n\t\tfor (uint256 i = 0; i < holderWhitelistsLength; i = i.add(1)) {\n\t\t\twhitelistedContract = holderWhitelists[i];\n\t\t\tif (_lpContractAddress[whitelistedContract] != address(0)) {\n\t\t\t\t// allocate the lpContract address, which is supposed to be the same for all whitelisted addresses\n\t\t\t\t// associated with the holder contract\n\t\t\t\tlpContractAddress = _lpContractAddress[whitelistedContract];\n\t\t\t}\n\t\t\t// get the list of all stkToken addresses from the various whitelisted addresses\n\t\t\t// associated with the holder contract. some whitelisted addresses may have less while\n\t\t\t// other may have more stkToken addresses\n\t\t\tif (_stkContractAddresses[whitelistedContract].length > size) {\n\t\t\t\tindex = i;\n\t\t\t\tsize = _stkContractAddresses[whitelistedContract].length;\n\t\t\t}\n\t\t}\n\n\t\tstkContractAddresses = new address[](size);\n\t\twhitelistedContract = holderWhitelists[index];\n\n\t\t// allocate stkContractAddresses and then  pContractAddresses from the corresponding stkContractAddresses\n\t\tpContractAddresses = new address[](stkContractAddresses.length);\n\n\t\tfor (uint256 j = 0; j < stkContractAddresses.length; j = j.add(1)) {\n\t\t\tstkContractAddresses[j] = _stkContractAddresses[\n\t\t\t\twhitelistedContract\n\t\t\t][j];\n\t\t\tpContractAddresses[j] = ISTokensV3(stkContractAddresses[j])\n\t\t\t\t.getUTokenAddress();\n\t\t}\n\t}\n\n\t/*\n\t * @dev set reward rate called by admin\n\t * @param rewardRate: reward rate\n\t * Requirements:\n\t * - `rate` cannot be less than or equal to zero.\n\t */\n\tfunction setLastHolderRewardTimestamp(\n\t\taddress whitelistedAddress,\n\t\tuint256 rewardTimestamp\n\t) public virtual override returns (bool success) {\n\t\t// check if msgSender is an STokenContract address which is part of whitelistedAddress\n\t\tbool isSTokenValid = isContractWhitelisted(\n\t\t\twhitelistedAddress,\n\t\t\t_msgSender()\n\t\t);\n\t\trequire(isSTokenValid, \"RE1\");\n\t\t_lastHolderRewardTimestamp[whitelistedAddress] = rewardTimestamp;\n\t\temit SetLastHolderRewardTimestamp(whitelistedAddress, rewardTimestamp);\n\t\tsuccess = true;\n\t}\n\n\t/**\n\t * @dev Calculate pending rewards for the provided 'address'. The rate is the moving reward rate.\n\t * @param whitelistedAddress: whitelisted contract address\n\t * @param sTokenAddress: stkToken contract address\n\t */\n\tfunction getPendingHolderRewardsData(\n\t\taddress whitelistedAddress,\n\t\taddress sTokenAddress\n\t)\n\t\tpublic\n\t\tview\n\t\tvirtual\n\t\toverride\n\t\treturns (\n\t\t\tuint256 sTokenSupply,\n\t\t\tuint256 lastHolderRewardTimestamp,\n\t\t\taddress holderAddress,\n\t\t\taddress lpAddress\n\t\t)\n\t{\n\t\t// holderContract and lpContract (lp token contract) need to be validated together because\n\t\t// it might not be practical to setup holder to collect reward pool but not StakeLP to distribute reward\n\t\t// since the reward distribution calculation starts the minute reward pool is created\n\t\tbool isToContractWhitelisted = isContractWhitelisted(\n\t\t\twhitelistedAddress,\n\t\t\tsTokenAddress\n\t\t);\n\t\tif (!isToContractWhitelisted) {\n\t\t\treturn (\n\t\t\t\tsTokenSupply,\n\t\t\t\tlastHolderRewardTimestamp,\n\t\t\t\tholderAddress,\n\t\t\t\tlpAddress\n\t\t\t);\n\t\t}\n\n\t\t(\n\t\t\taddress holderAddressLocal,\n\t\t\taddress lpAddressLocal,\n\t\t\taddress[] memory stkContractAddresses,\n\t\t\t,\n\t\t\tuint256 lastHolderRewardTimestampLocal\n\t\t) = getwhitelistedData(whitelistedAddress);\n\n\t\tbool isSTokenContractValid = false;\n\t\t// check if the stkContractAddress matches the one returned by array\n\t\tfor (uint256 i = 0; i < stkContractAddresses.length; i = i.add(1)) {\n\t\t\tif (stkContractAddresses[i] == sTokenAddress) {\n\t\t\t\tisSTokenContractValid = true;\n\t\t\t\tbreak;\n\t\t\t}\n\t\t}\n\n\t\t// check require conditions for null values\n\t\tif (\n\t\t\tisSTokenContractValid &&\n\t\t\tholderAddress != address(0) &&\n\t\t\tlpAddress != address(0)\n\t\t) {\n\t\t\tsTokenSupply = IHolderV2(holderAddress).getSTokenSupply(\n\t\t\t\twhitelistedAddress\n\t\t\t);\n\t\t\tholderAddress = holderAddressLocal;\n\t\t\tlpAddress = lpAddressLocal;\n\t\t\tlastHolderRewardTimestamp = lastHolderRewardTimestampLocal;\n\t\t}\n\t}\n\n\t/*\n\t * @dev Set 'whitelisted address', performed by admin only\n\t * @param whitelistedAddress: contract address of the whitelisted party\n\t *\n\t * Emits a {setWhitelistedAddress} event\n\t *\n\t */\n\tfunction setWhitelistedAddress(\n\t\taddress whitelistedAddress,\n\t\taddress[] memory sTokenAddresses,\n\t\taddress holderContractAddress,\n\t\taddress lpContractAddress\n\t) public virtual override returns (bool success) {\n\t\trequire(hasRole(DEFAULT_ADMIN_ROLE, _msgSender()), \"RE8\");\n\t\t// lpTokenERC20ContractAddress or sTokenReserveContractAddress can be address(0) but not whitelistedAddress\n\t\trequire(\n\t\t\twhitelistedAddress != address(0) && sTokenAddresses.length != 0,\n\t\t\t\"RE9\"\n\t\t);\n\n\t\t// add the whitelistedAddress if it isn't already available\n\t\tif (!_whitelistedAddresses.contains(whitelistedAddress))\n\t\t\t_whitelistedAddresses.add(whitelistedAddress);\n\n\t\t// add the holder and lp contract addresses corresponding to the whitelistedAddress\n\t\t_holderContractAddress[whitelistedAddress] = holderContractAddress;\n\t\t_lpContractAddress[whitelistedAddress] = lpContractAddress;\n\n\t\t// ADD TO, OR REMOVE FROM _holderWhitelists\n\t\t// check if whitelistedAddress already exists in _holderWhitelists\n\t\tbool whitelistedAddressExists;\n\t\tuint256 j;\n\t\t(address holderAddressLocal, , , , ) = getwhitelistedData(\n\t\t\twhitelistedAddress\n\t\t);\n\n\t\tholderAddressLocal = holderContractAddress == address(0)\n\t\t\t? holderAddressLocal\n\t\t\t: holderContractAddress;\n\n\t\tuint256 holderWhitelistsLength = _holderWhitelists[holderAddressLocal]\n\t\t\t.length;\n\n\t\tfor (j = 0; j < holderWhitelistsLength; j = j.add(1)) {\n\t\t\tif (\n\t\t\t\t_holderWhitelists[holderAddressLocal][j] == whitelistedAddress\n\t\t\t) {\n\t\t\t\twhitelistedAddressExists = true;\n\t\t\t\tbreak;\n\t\t\t}\n\t\t}\n\n\t\t// if holderAddress is address(0), then remove the whitelistedAddress from the array\n\t\t// else add the whitelistedAddress to the array\n\t\tif (holderContractAddress == address(0) && whitelistedAddressExists) {\n\t\t\t// remove whitelistedAddress from the _holderWhitelists\n\n\t\t\t// if the index of whitelistedAddress is the last one then just pop array\n\t\t\tif (j == holderWhitelistsLength.sub(1)) {\n\t\t\t\t_holderWhitelists[holderAddressLocal].pop();\n\t\t\t} else {\n\t\t\t\t// else replace the value in the index location with the value in the last index then pop array\n\t\t\t\t_holderWhitelists[holderAddressLocal][j] = _holderWhitelists[\n\t\t\t\t\tholderAddressLocal\n\t\t\t\t][holderWhitelistsLength.sub(1)];\n\t\t\t\t_holderWhitelists[holderAddressLocal].pop();\n\t\t\t}\n\t\t}\n\n\t\t// if whitelisted contract doesnt already exist then include it in the array\n\t\tif (holderContractAddress != address(0) && !whitelistedAddressExists) {\n\t\t\t// add the whitelistedAddress to the _holderWhitelists array\n\t\t\t_holderWhitelists[holderContractAddress].push(whitelistedAddress);\n\t\t}\n\n\t\t// ADD TO _stkContractAddresses\n\t\t// check if sTokenAddress already exists\n\t\taddress[] memory sTokenAddressesLocal;\n\t\tif (_stkContractAddresses[whitelistedAddress].length == 0) {\n\t\t\t// check if all the sTokenAddresses provided are non zero\n\t\t\tfor (uint256 i = 0; i < sTokenAddresses.length; i = i.add(1)) {\n\t\t\t\trequire(sTokenAddresses[i] != address(0), \"RE10\");\n\t\t\t\t_stkContractAddresses[whitelistedAddress].push(\n\t\t\t\t\tsTokenAddresses[i]\n\t\t\t\t);\n\t\t\t}\n\t\t\t// save the sTokenAddresses to a local emit variable\n\t\t\tsTokenAddressesLocal = sTokenAddresses;\n\t\t}\n\n\t\temit SetWhitelistedAddress(\n\t\t\twhitelistedAddress,\n\t\t\tsTokenAddressesLocal,\n\t\t\tholderContractAddress,\n\t\t\tlpContractAddress,\n\t\t\tblock.timestamp\n\t\t);\n\t\tsuccess = true;\n\t\treturn success;\n\t}\n\n\t/*\n\t * @dev remove 'whitelisted address', performed by admin only\n\t * @param whitelistedAddress: contract address of the whitelisted party\n\t * @param holderContractAddress: holder contract address of the corresponding whitelistedAddress\n\t *\n\t * Emits a {RemoveWhitelistedAddress} event\n\t *\n\t */\n\tfunction removeWhitelistedAddress(address whitelistedAddress)\n\t\tpublic\n\t\tvirtual\n\t\toverride\n\t\treturns (bool success)\n\t{\n\t\trequire(hasRole(DEFAULT_ADMIN_ROLE, _msgSender()), \"ST10\");\n\t\trequire(whitelistedAddress != address(0), \"ST11\");\n\t\t// remove whitelistedAddress from the list\n\t\t_whitelistedAddresses.remove(whitelistedAddress);\n\t\taddress holderContractAddressLocal = _holderContractAddress[\n\t\t\twhitelistedAddress\n\t\t];\n\t\taddress lpContractAddressLocal = _lpContractAddress[whitelistedAddress];\n\t\taddress[] memory stkContractAddresses = _stkContractAddresses[\n\t\t\twhitelistedAddress\n\t\t];\n\n\t\tuint256 lastHolderRewardTimestamp = _lastHolderRewardTimestamp[\n\t\t\twhitelistedAddress\n\t\t];\n\n\t\t// delete holder contract values\n\t\tdelete _holderContractAddress[whitelistedAddress];\n\t\tdelete _lpContractAddress[whitelistedAddress];\n\t\tdelete _stkContractAddresses[whitelistedAddress];\n\t\tdelete _lastHolderRewardTimestamp[whitelistedAddress];\n\n\t\t// remove whitelisted address from _holderWhitelists\n\t\tbool whitelistedAddressExists;\n\t\tuint256 j;\n\t\tuint256 holderWhitelistsLength = _holderWhitelists[\n\t\t\tholderContractAddressLocal\n\t\t].length;\n\t\tfor (j = 0; j < holderWhitelistsLength; j = j.add(1)) {\n\t\t\tif (\n\t\t\t\t_holderWhitelists[holderContractAddressLocal][j] ==\n\t\t\t\twhitelistedAddress\n\t\t\t) {\n\t\t\t\twhitelistedAddressExists = true;\n\t\t\t\tbreak;\n\t\t\t}\n\t\t}\n\n\t\t// if holderAddress is address(0), then remove the whitelistedAddress from the array\n\t\t// else add the whitelistedAddress to the array\n\t\tif (whitelistedAddressExists) {\n\t\t\t// if the index of whitelistedAddress is the last one then just pop array\n\t\t\tif (j == holderWhitelistsLength.sub(1)) {\n\t\t\t\t_holderWhitelists[holderContractAddressLocal].pop();\n\t\t\t} else {\n\t\t\t\t// else replace the value in the index location with the value in the last index then pop array\n\t\t\t\t_holderWhitelists[holderContractAddressLocal][\n\t\t\t\t\tj\n\t\t\t\t] = _holderWhitelists[holderContractAddressLocal][\n\t\t\t\t\tholderWhitelistsLength.sub(1)\n\t\t\t\t];\n\t\t\t\t_holderWhitelists[holderContractAddressLocal].pop();\n\t\t\t}\n\t\t}\n\n\t\t// emit event and return\n\t\temit RemoveWhitelistedAddress(\n\t\t\twhitelistedAddress,\n\t\t\tstkContractAddresses,\n\t\t\tholderContractAddressLocal,\n\t\t\tlpContractAddressLocal,\n\t\t\tlastHolderRewardTimestamp,\n\t\t\tblock.timestamp\n\t\t);\n\n\t\tsuccess = true;\n\t\treturn success;\n\t}\n\n\t/**\n\t * @dev Triggers stopped state.\n\t *\n\t * Requirements:\n\t *\n\t * - The contract must not be paused.\n\t */\n\tfunction pause() public virtual override returns (bool success) {\n\t\trequire(hasRole(PAUSER_ROLE, _msgSender()), \"ST14\");\n\t\t_pause();\n\t\treturn true;\n\t}\n\n\t/**\n\t * @dev Returns to normal state.\n\t *\n\t * Requirements:\n\t *\n\t * - The contract must be paused.\n\t */\n\tfunction unpause() public virtual override returns (bool success) {\n\t\trequire(hasRole(PAUSER_ROLE, _msgSender()), \"ST15\");\n\t\t_unpause();\n\t\treturn true;\n\t}\n}\n",
  "sourcePath": "C:\\Users\\Kamlesh\\Persistence\\pStake\\codebase\\pStake-smartContracts\\contracts\\RewardEmissionV2.sol",
  "compiler": {
    "name": "solc",
    "version": "0.7.6+commit.7338295f.Emscripten.clang"
  },
  "schemaVersion": "3.4.3",
  "updatedAt": "2021-09-21T09:55:43.918Z",
  "devdoc": {
    "kind": "dev",
    "methods": {
      "getHolderData(address)": {
        "details": "Calculate pending rewards for the provided 'address'. The rate is the moving reward rate.",
        "params": {
          "holderAddress": ": contract address"
        }
      },
      "getPendingHolderRewardsData(address,address)": {
        "details": "Calculate pending rewards for the provided 'address'. The rate is the moving reward rate.",
        "params": {
          "sTokenAddress": ": stkToken contract address",
          "whitelistedAddress": ": whitelisted contract address"
        }
      },
      "getRoleAdmin(bytes32)": {
        "details": "Returns the admin role that controls `role`. See {grantRole} and {revokeRole}. To change a role's admin, use {_setRoleAdmin}."
      },
      "getRoleMember(bytes32,uint256)": {
        "details": "Returns one of the accounts that have `role`. `index` must be a value between 0 and {getRoleMemberCount}, non-inclusive. Role bearers are not sorted in any particular way, and their ordering may change at any point. WARNING: When using {getRoleMember} and {getRoleMemberCount}, make sure you perform all queries on the same block. See the following https://forum.openzeppelin.com/t/iterating-over-elements-on-enumerableset-in-openzeppelin-contracts/2296[forum post] for more information."
      },
      "getRoleMemberCount(bytes32)": {
        "details": "Returns the number of accounts that have `role`. Can be used together with {getRoleMember} to enumerate all bearers of a role."
      },
      "getwhitelistedData(address)": {
        "details": "Calculate pending rewards for the provided 'address'. The rate is the moving reward rate.",
        "params": {
          "whitelistedAddress": ": contract address"
        }
      },
      "grantRole(bytes32,address)": {
        "details": "Grants `role` to `account`. If `account` had not been already granted `role`, emits a {RoleGranted} event. Requirements: - the caller must have ``role``'s admin role."
      },
      "hasRole(bytes32,address)": {
        "details": "Returns `true` if `account` has been granted `role`."
      },
      "initialize(address)": {
        "details": "Constructor for initializing the SToken contract.",
        "params": {
          "pauserAddress": "- address of the pauser admin."
        }
      },
      "isContractWhitelisted(address,address)": {
        "details": "Calculate pending rewards for the provided 'address'. The rate is the moving reward rate.",
        "params": {
          "sTokenAddress": ": stkToken contract address",
          "whitelistedAddress": ": whitelisted contract address"
        }
      },
      "pause()": {
        "details": "Triggers stopped state. Requirements: - The contract must not be paused."
      },
      "paused()": {
        "details": "Returns true if the contract is paused, and false otherwise."
      },
      "renounceRole(bytes32,address)": {
        "details": "Revokes `role` from the calling account. Roles are often managed via {grantRole} and {revokeRole}: this function's purpose is to provide a mechanism for accounts to lose their privileges if they are compromised (such as when a trusted device is misplaced). If the calling account had been granted `role`, emits a {RoleRevoked} event. Requirements: - the caller must be `account`."
      },
      "revokeRole(bytes32,address)": {
        "details": "Revokes `role` from `account`. If `account` had been granted `role`, emits a {RoleRevoked} event. Requirements: - the caller must have ``role``'s admin role."
      },
      "unpause()": {
        "details": "Returns to normal state. Requirements: - The contract must be paused."
      }
    },
    "version": 1
  },
  "userdoc": {
    "kind": "user",
    "methods": {},
    "version": 1
  }
}