{
  "contractName": "RewardEmission",
  "abi": [
    {
      "anonymous": false,
      "inputs": [
        {
          "indexed": false,
          "internalType": "address",
          "name": "account",
          "type": "address"
        }
      ],
      "name": "Paused",
      "type": "event"
    },
    {
      "anonymous": false,
      "inputs": [
        {
          "indexed": false,
          "internalType": "address",
          "name": "whitelistedAddress",
          "type": "address"
        },
        {
          "indexed": false,
          "internalType": "address[]",
          "name": "stkContractAddresses",
          "type": "address[]"
        },
        {
          "indexed": false,
          "internalType": "address",
          "name": "_holderContractAddressLocal",
          "type": "address"
        },
        {
          "indexed": false,
          "internalType": "address",
          "name": "_lpContractAddressLocal",
          "type": "address"
        },
        {
          "indexed": false,
          "internalType": "uint256",
          "name": "timestamp",
          "type": "uint256"
        }
      ],
      "name": "RemoveWhitelistedAddress",
      "type": "event"
    },
    {
      "anonymous": false,
      "inputs": [
        {
          "indexed": true,
          "internalType": "bytes32",
          "name": "role",
          "type": "bytes32"
        },
        {
          "indexed": true,
          "internalType": "bytes32",
          "name": "previousAdminRole",
          "type": "bytes32"
        },
        {
          "indexed": true,
          "internalType": "bytes32",
          "name": "newAdminRole",
          "type": "bytes32"
        }
      ],
      "name": "RoleAdminChanged",
      "type": "event"
    },
    {
      "anonymous": false,
      "inputs": [
        {
          "indexed": true,
          "internalType": "bytes32",
          "name": "role",
          "type": "bytes32"
        },
        {
          "indexed": true,
          "internalType": "address",
          "name": "account",
          "type": "address"
        },
        {
          "indexed": true,
          "internalType": "address",
          "name": "sender",
          "type": "address"
        }
      ],
      "name": "RoleGranted",
      "type": "event"
    },
    {
      "anonymous": false,
      "inputs": [
        {
          "indexed": true,
          "internalType": "bytes32",
          "name": "role",
          "type": "bytes32"
        },
        {
          "indexed": true,
          "internalType": "address",
          "name": "account",
          "type": "address"
        },
        {
          "indexed": true,
          "internalType": "address",
          "name": "sender",
          "type": "address"
        }
      ],
      "name": "RoleRevoked",
      "type": "event"
    },
    {
      "anonymous": false,
      "inputs": [
        {
          "indexed": true,
          "internalType": "address",
          "name": "whitelistedAddress",
          "type": "address"
        },
        {
          "indexed": false,
          "internalType": "uint256",
          "name": "rewardTimestamp",
          "type": "uint256"
        }
      ],
      "name": "SetLastHolderRewardTimestamp",
      "type": "event"
    },
    {
      "anonymous": false,
      "inputs": [
        {
          "indexed": false,
          "internalType": "address",
          "name": "whitelistedAddress",
          "type": "address"
        },
        {
          "indexed": false,
          "internalType": "address[]",
          "name": "sTokenAddressses",
          "type": "address[]"
        },
        {
          "indexed": false,
          "internalType": "address",
          "name": "holderContractAddress",
          "type": "address"
        },
        {
          "indexed": false,
          "internalType": "address",
          "name": "lpContractAddress",
          "type": "address"
        },
        {
          "indexed": false,
          "internalType": "uint256",
          "name": "timestamp",
          "type": "uint256"
        }
      ],
      "name": "SetWhitelistedAddress",
      "type": "event"
    },
    {
      "anonymous": false,
      "inputs": [
        {
          "indexed": false,
          "internalType": "address",
          "name": "account",
          "type": "address"
        }
      ],
      "name": "Unpaused",
      "type": "event"
    },
    {
      "inputs": [],
      "name": "DEFAULT_ADMIN_ROLE",
      "outputs": [
        {
          "internalType": "bytes32",
          "name": "",
          "type": "bytes32"
        }
      ],
      "stateMutability": "view",
      "type": "function"
    },
    {
      "inputs": [],
      "name": "PAUSER_ROLE",
      "outputs": [
        {
          "internalType": "bytes32",
          "name": "",
          "type": "bytes32"
        }
      ],
      "stateMutability": "view",
      "type": "function"
    },
    {
      "inputs": [
        {
          "internalType": "address",
          "name": "",
          "type": "address"
        }
      ],
      "name": "_holderContractAddress",
      "outputs": [
        {
          "internalType": "address",
          "name": "",
          "type": "address"
        }
      ],
      "stateMutability": "view",
      "type": "function"
    },
    {
      "inputs": [
        {
          "internalType": "address",
          "name": "",
          "type": "address"
        }
      ],
      "name": "_lastHolderRewardTimestamp",
      "outputs": [
        {
          "internalType": "uint256",
          "name": "",
          "type": "uint256"
        }
      ],
      "stateMutability": "view",
      "type": "function"
    },
    {
      "inputs": [
        {
          "internalType": "address",
          "name": "",
          "type": "address"
        }
      ],
      "name": "_lpContractAddress",
      "outputs": [
        {
          "internalType": "address",
          "name": "",
          "type": "address"
        }
      ],
      "stateMutability": "view",
      "type": "function"
    },
    {
      "inputs": [
        {
          "internalType": "address",
          "name": "",
          "type": "address"
        },
        {
          "internalType": "uint256",
          "name": "",
          "type": "uint256"
        }
      ],
      "name": "_stkContractAddresses",
      "outputs": [
        {
          "internalType": "address",
          "name": "",
          "type": "address"
        }
      ],
      "stateMutability": "view",
      "type": "function"
    },
    {
      "inputs": [],
      "name": "_version",
      "outputs": [
        {
          "internalType": "uint256",
          "name": "",
          "type": "uint256"
        }
      ],
      "stateMutability": "view",
      "type": "function"
    },
    {
      "inputs": [
        {
          "internalType": "bytes32",
          "name": "role",
          "type": "bytes32"
        }
      ],
      "name": "getRoleAdmin",
      "outputs": [
        {
          "internalType": "bytes32",
          "name": "",
          "type": "bytes32"
        }
      ],
      "stateMutability": "view",
      "type": "function"
    },
    {
      "inputs": [
        {
          "internalType": "bytes32",
          "name": "role",
          "type": "bytes32"
        },
        {
          "internalType": "uint256",
          "name": "index",
          "type": "uint256"
        }
      ],
      "name": "getRoleMember",
      "outputs": [
        {
          "internalType": "address",
          "name": "",
          "type": "address"
        }
      ],
      "stateMutability": "view",
      "type": "function"
    },
    {
      "inputs": [
        {
          "internalType": "bytes32",
          "name": "role",
          "type": "bytes32"
        }
      ],
      "name": "getRoleMemberCount",
      "outputs": [
        {
          "internalType": "uint256",
          "name": "",
          "type": "uint256"
        }
      ],
      "stateMutability": "view",
      "type": "function"
    },
    {
      "inputs": [
        {
          "internalType": "bytes32",
          "name": "role",
          "type": "bytes32"
        },
        {
          "internalType": "address",
          "name": "account",
          "type": "address"
        }
      ],
      "name": "grantRole",
      "outputs": [],
      "stateMutability": "nonpayable",
      "type": "function"
    },
    {
      "inputs": [
        {
          "internalType": "bytes32",
          "name": "role",
          "type": "bytes32"
        },
        {
          "internalType": "address",
          "name": "account",
          "type": "address"
        }
      ],
      "name": "hasRole",
      "outputs": [
        {
          "internalType": "bool",
          "name": "",
          "type": "bool"
        }
      ],
      "stateMutability": "view",
      "type": "function"
    },
    {
      "inputs": [],
      "name": "paused",
      "outputs": [
        {
          "internalType": "bool",
          "name": "",
          "type": "bool"
        }
      ],
      "stateMutability": "view",
      "type": "function"
    },
    {
      "inputs": [
        {
          "internalType": "bytes32",
          "name": "role",
          "type": "bytes32"
        },
        {
          "internalType": "address",
          "name": "account",
          "type": "address"
        }
      ],
      "name": "renounceRole",
      "outputs": [],
      "stateMutability": "nonpayable",
      "type": "function"
    },
    {
      "inputs": [
        {
          "internalType": "bytes32",
          "name": "role",
          "type": "bytes32"
        },
        {
          "internalType": "address",
          "name": "account",
          "type": "address"
        }
      ],
      "name": "revokeRole",
      "outputs": [],
      "stateMutability": "nonpayable",
      "type": "function"
    },
    {
      "inputs": [
        {
          "internalType": "address",
          "name": "pauserAddress",
          "type": "address"
        }
      ],
      "name": "initialize",
      "outputs": [],
      "stateMutability": "nonpayable",
      "type": "function"
    },
    {
      "inputs": [
        {
          "internalType": "address",
          "name": "whitelistedAddress",
          "type": "address"
        },
        {
          "internalType": "address",
          "name": "sTokenAddress",
          "type": "address"
        }
      ],
      "name": "isContractWhitelisted",
      "outputs": [
        {
          "internalType": "bool",
          "name": "result",
          "type": "bool"
        }
      ],
      "stateMutability": "view",
      "type": "function"
    },
    {
      "inputs": [
        {
          "internalType": "address",
          "name": "whitelistedAddress",
          "type": "address"
        }
      ],
      "name": "getwhitelistedData",
      "outputs": [
        {
          "internalType": "address",
          "name": "holderAddress",
          "type": "address"
        },
        {
          "internalType": "address",
          "name": "lpAddress",
          "type": "address"
        },
        {
          "internalType": "address[]",
          "name": "stkContractAddresses",
          "type": "address[]"
        },
        {
          "internalType": "address[]",
          "name": "pContractAddresses",
          "type": "address[]"
        },
        {
          "internalType": "uint256",
          "name": "lastHolderRewardTimestamp",
          "type": "uint256"
        }
      ],
      "stateMutability": "view",
      "type": "function"
    },
    {
      "inputs": [
        {
          "internalType": "address",
          "name": "holderAddress",
          "type": "address"
        }
      ],
      "name": "getHolderData",
      "outputs": [
        {
          "internalType": "address[]",
          "name": "holderWhitelists",
          "type": "address[]"
        },
        {
          "internalType": "address",
          "name": "lpContractAddress",
          "type": "address"
        },
        {
          "internalType": "address[]",
          "name": "stkContractAddresses",
          "type": "address[]"
        },
        {
          "internalType": "address[]",
          "name": "pContractAddresses",
          "type": "address[]"
        }
      ],
      "stateMutability": "view",
      "type": "function"
    },
    {
      "inputs": [
        {
          "internalType": "address",
          "name": "whitelistedAddress",
          "type": "address"
        },
        {
          "internalType": "uint256",
          "name": "rewardTimestamp",
          "type": "uint256"
        }
      ],
      "name": "setLastHolderRewardTimestamp",
      "outputs": [
        {
          "internalType": "bool",
          "name": "success",
          "type": "bool"
        }
      ],
      "stateMutability": "nonpayable",
      "type": "function"
    },
    {
      "inputs": [
        {
          "internalType": "address",
          "name": "whitelistedAddress",
          "type": "address"
        },
        {
          "internalType": "address",
          "name": "sTokenAddress",
          "type": "address"
        }
      ],
      "name": "getPendingHolderRewardsData",
      "outputs": [
        {
          "internalType": "uint256",
          "name": "sTokenSupply",
          "type": "uint256"
        },
        {
          "internalType": "uint256",
          "name": "lastHolderRewardTimestamp",
          "type": "uint256"
        },
        {
          "internalType": "address",
          "name": "holderAddress",
          "type": "address"
        },
        {
          "internalType": "address",
          "name": "lpAddress",
          "type": "address"
        }
      ],
      "stateMutability": "view",
      "type": "function"
    },
    {
      "inputs": [
        {
          "internalType": "address",
          "name": "whitelistedAddress",
          "type": "address"
        },
        {
          "internalType": "address[]",
          "name": "sTokenAddresses",
          "type": "address[]"
        },
        {
          "internalType": "address",
          "name": "holderContractAddress",
          "type": "address"
        },
        {
          "internalType": "address",
          "name": "lpContractAddress",
          "type": "address"
        }
      ],
      "name": "setWhitelistedAddress",
      "outputs": [
        {
          "internalType": "bool",
          "name": "success",
          "type": "bool"
        }
      ],
      "stateMutability": "nonpayable",
      "type": "function"
    },
    {
      "inputs": [
        {
          "internalType": "address",
          "name": "whitelistedAddress",
          "type": "address"
        }
      ],
      "name": "removeWhitelistedAddress",
      "outputs": [
        {
          "internalType": "bool",
          "name": "success",
          "type": "bool"
        }
      ],
      "stateMutability": "nonpayable",
      "type": "function"
    },
    {
      "inputs": [],
      "name": "pause",
      "outputs": [
        {
          "internalType": "bool",
          "name": "success",
          "type": "bool"
        }
      ],
      "stateMutability": "nonpayable",
      "type": "function"
    },
    {
      "inputs": [],
      "name": "unpause",
      "outputs": [
        {
          "internalType": "bool",
          "name": "success",
          "type": "bool"
        }
      ],
      "stateMutability": "nonpayable",
      "type": "function"
    }
  ],
  "bytecode": "0x608060405234801561001057600080fd5b5061241e806100206000396000f3fe608060405234801561001057600080fd5b50600436106101735760003560e01c80638456cb59116100de578063c4d66de811610097578063d547741f11610071578063d547741f1461061c578063da6b7ec714610648578063e63ab1e91461066e578063eab573dc1461067657610173565b8063c4d66de8146105ad578063ca15c873146105d3578063d21b1ff4146105f057610173565b80638456cb59146104fa57806386f6fef7146105025780639010d07c1461053057806391d1485414610553578063a217fddf1461057f578063b8ecc2a91461058757610173565b80633e118dbe116101305780633e118dbe1461041d5780633f4ba83a146104255780633f7398a81461042d578063530cd5ab1461046f5780635c975abb146104955780636890125b1461049d57610173565b806307d17a1714610178578063112af4f61461025e578063248a9ca31461029e5780632f2ff15d146102cd57806336568abe146102fb57806336bbacad14610327575b600080fd5b61019e6004803603602081101561018e57600080fd5b50356001600160a01b031661073f565b60405180866001600160a01b03168152602001856001600160a01b031681526020018060200180602001848152602001838103835286818151815260200191508051906020019060200280838360005b838110156102065781810151838201526020016101ee565b50505050905001838103825285818151815260200191508051906020019060200280838360005b8381101561024557818101518382015260200161022d565b5050505090500197505050505050505060405180910390f35b61028a6004803603604081101561027457600080fd5b506001600160a01b0381351690602001356108f7565b604080519115158252519081900360200190f35b6102bb600480360360208110156102b457600080fd5b503561099f565b60408051918252519081900360200190f35b6102f9600480360360408110156102e357600080fd5b50803590602001356001600160a01b03166109b4565b005b6102f96004803603604081101561031157600080fd5b50803590602001356001600160a01b0316610a20565b61034d6004803603602081101561033d57600080fd5b50356001600160a01b0316610a81565b6040518080602001856001600160a01b031681526020018060200180602001848103845288818151815260200191508051906020019060200280838360005b838110156103a457818101518382015260200161038c565b50505050905001848103835286818151815260200191508051906020019060200280838360005b838110156103e35781810151838201526020016103cb565b505050509190910185810383528651815286516020918201925081880191028083836000831561024557818101518382015260200161022d565b6102bb610daa565b61028a610db0565b6104536004803603602081101561044357600080fd5b50356001600160a01b0316610e14565b604080516001600160a01b039092168252519081900360200190f35b61028a6004803603602081101561048557600080fd5b50356001600160a01b0316610e2f565b61028a611203565b6104cb600480360360408110156104b357600080fd5b506001600160a01b038135811691602001351661120c565b6040805194855260208501939093526001600160a01b0391821684840152166060830152519081900360800190f35b61028a611363565b61028a6004803603604081101561051857600080fd5b506001600160a01b03813581169160200135166113c1565b6104536004803603604081101561054657600080fd5b50803590602001356114b2565b61028a6004803603604081101561056957600080fd5b50803590602001356001600160a01b03166114d1565b6102bb6114e9565b6102bb6004803603602081101561059d57600080fd5b50356001600160a01b03166114ee565b6102f9600480360360208110156105c357600080fd5b50356001600160a01b0316611500565b6102bb600480360360208110156105e957600080fd5b50356115e1565b6104536004803603604081101561060657600080fd5b506001600160a01b0381351690602001356115f8565b6102f96004803603604081101561063257600080fd5b50803590602001356001600160a01b0316611630565b6104536004803603602081101561065e57600080fd5b50356001600160a01b0316611689565b6102bb6116a4565b61028a6004803603608081101561068c57600080fd5b6001600160a01b0382351691908101906040810160208201356401000000008111156106b757600080fd5b8201836020820111156106c957600080fd5b803590602001918460208302840111640100000000831117156106eb57600080fd5b919080806020026020016040519081016040528093929190818152602001838360200280828437600092019190915250929550506001600160a01b0383358116945060209093013590921691506116b69050565b6001600160a01b03808216600090815260996020908152604080832054609a835281842054609b8452828520805484518187028101870190955280855292871696919091169460609485949193919291908301828280156107c957602002820191906000526020600020905b81546001600160a01b031681526001909101906020018083116107ab575b505050506001600160a01b0388166000908152609c6020526040902054825192955092505067ffffffffffffffff8111801561080457600080fd5b5060405190808252806020026020018201604052801561082e578160200160208202803683370190505b50915060005b83518110156108ed5783818151811061084957fe5b60200260200101516001600160a01b0316633d9e0c056040518163ffffffff1660e01b815260040160206040518083038186803b15801561088957600080fd5b505afa15801561089d573d6000803e3d6000fd5b505050506040513d60208110156108b357600080fd5b505183518490839081106108c357fe5b6001600160a01b03909216602092830291909101909101526108e6816001611b71565b9050610834565b5091939590929450565b60008061090b84610906611bcb565b6113c1565b905080610945576040805162461bcd60e51b815260206004820152600360248201526252453160e81b604482015290519081900360640190fd5b6001600160a01b0384166000818152609c6020908152604091829020869055815186815291517f20b5a9016e8ecb6982fe7fc4e3eb556c26678f5f14936942d69d24fba99f1e469281900390910190a25060019392505050565b60009081526065602052604090206002015490565b6000828152606560205260409020600201546109d7906109d2611bcb565b6114d1565b610a125760405162461bcd60e51b815260040180806020018281038252602f81526020018061230d602f913960400191505060405180910390fd5b610a1c8282611bcf565b5050565b610a28611bcb565b6001600160a01b0316816001600160a01b031614610a775760405162461bcd60e51b815260040180806020018281038252602f8152602001806123ba602f913960400191505060405180910390fd5b610a1c8282611c38565b60606000606080609d6000866001600160a01b03166001600160a01b03168152602001908152602001600020805480602002602001604051908101604052809291908181526020018280548015610b0157602002820191906000526020600020905b81546001600160a01b03168152600190910190602001808311610ae3575b5050835193975050508115159050610b195750610da3565b60008080805b84811015610bd357888181518110610b3357fe5b6020908102919091018101516001600160a01b038082166000908152609a9093526040909220549095501615610b81576001600160a01b038085166000908152609a60205260409020541697505b6001600160a01b0384166000908152609b6020526040902054821015610bc1576001600160a01b0384166000908152609b60205260409020549092509050815b610bcc816001611b71565b9050610b1f565b508067ffffffffffffffff81118015610beb57600080fd5b50604051908082528060200260200182016040528015610c15578160200160208202803683370190505b509550878281518110610c2457fe5b60200260200101519250855167ffffffffffffffff81118015610c4657600080fd5b50604051908082528060200260200182016040528015610c70578160200160208202803683370190505b50945060005b8651811015610d9d576001600160a01b0384166000908152609b60205260409020805482908110610ca357fe5b9060005260206000200160009054906101000a90046001600160a01b0316878281518110610ccd57fe5b60200260200101906001600160a01b031690816001600160a01b031681525050868181518110610cf957fe5b60200260200101516001600160a01b0316633d9e0c056040518163ffffffff1660e01b815260040160206040518083038186803b158015610d3957600080fd5b505afa158015610d4d573d6000803e3d6000fd5b505050506040513d6020811015610d6357600080fd5b50518651879083908110610d7357fe5b6001600160a01b0390921660209283029190910190910152610d96816001611b71565b9050610c76565b50505050505b9193509193565b609e5481565b6000610dcc60008051602061239a8339815191526109d2611bcb565b610e06576040805162461bcd60e51b815260206004808301919091526024820152635354313560e01b604482015290519081900360640190fd5b610e0e611ca1565b50600190565b6099602052600090815260409020546001600160a01b031681565b6000610e3d816109d2611bcb565b610e77576040805162461bcd60e51b815260206004808301919091526024820152630535431360e41b604482015290519081900360640190fd5b6001600160a01b038216610ebb576040805162461bcd60e51b815260206004808301919091526024820152635354313160e01b604482015290519081900360640190fd5b610ec6609783611d41565b506001600160a01b03808316600090815260996020908152604080832054609a835281842054609b8452828520805484518187028101870190955280855292871696919091169493909190830182828015610f4a57602002820191906000526020600020905b81546001600160a01b03168152600190910190602001808311610f2c575b505050506001600160a01b038716600090815260996020908152604080832080546001600160a01b0319908116909155609a835281842080549091169055609b9091528120929350610f9d9291506122b8565b6001600160a01b0383166000908152609d602052604081205481905b80821015611020576001600160a01b038681166000908152609d602052604090208054918a169184908110610fea57fe5b6000918252602090912001546001600160a01b0316141561100e5760019250611020565b611019826001611b71565b9150610fb9565b821561114657611031816001611d56565b821415611080576001600160a01b0386166000908152609d6020526040902080548061105957fe5b600082815260209020810160001990810180546001600160a01b0319169055019055611146565b6001600160a01b0386166000908152609d602052604090206110a3826001611d56565b815481106110ad57fe5b60009182526020808320909101546001600160a01b038981168452609d90925260409092208054919092169190849081106110e457fe5b600091825260208083209190910180546001600160a01b0319166001600160a01b039485161790559188168152609d9091526040902080548061112357fe5b600082815260209020810160001990810180546001600160a01b03191690550190555b7e0b0c842032f0df66627cc868416962be4c408d010c1e9a12a02c410671ae58888588884260405180866001600160a01b0316815260200180602001856001600160a01b03168152602001846001600160a01b03168152602001838152602001828103825286818151815260200191508051906020019060200280838360005b838110156111de5781810151838201526020016111c6565b50505050905001965050505050505060405180910390a1506001979650505050505050565b60335460ff1690565b600080600080600061121e87876113c1565b90508061122b575061135a565b60008060008061123a8b61073f565b9450509350935093506000805b8351811015611298578b6001600160a01b031684828151811061126657fe5b60200260200101516001600160a01b031614156112865760019150611298565b611291816001611b71565b9050611247565b508080156112ae57506001600160a01b03881615155b80156112c257506001600160a01b03871615155b1561135357876001600160a01b031663f5560db08d6040518263ffffffff1660e01b815260040180826001600160a01b0316815260200191505060206040518083038186803b15801561131457600080fd5b505afa158015611328573d6000803e3d6000fd5b505050506040513d602081101561133e57600080fd5b50519950909750929550909350849184919087905b5050505050505b92959194509250565b600061137f60008051602061239a8339815191526109d2611bcb565b6113b9576040805162461bcd60e51b8152602060048083019190915260248201526314d50c4d60e21b604482015290519081900360640190fd5b610e0e611db3565b60006113ce609784611e36565b6001600160a01b0384166000908152609b602090815260408083208054825181850281018501909352808352949550929390929183018282801561143b57602002820191906000526020600020905b81546001600160a01b0316815260019091019060200180831161141d575b5050835193945060009250829150505b8281101561149b57856001600160a01b031684828151811061146957fe5b60200260200101516001600160a01b03161415611489576001915061149b565b611494816001611b71565b905061144b565b508380156114a65750805b93505050505b92915050565b60008281526065602052604081206114ca9083611e4b565b9392505050565b60008281526065602052604081206114ca9083611e36565b600081565b609c6020526000908152604090205481565b600054610100900460ff16806115195750611519611e57565b80611527575060005460ff16155b6115625760405162461bcd60e51b815260040180806020018281038252602e81526020018061236c602e913960400191505060405180910390fd5b600054610100900460ff1615801561158d576000805460ff1961ff0019909116610100171660011790555b611595611e68565b61159d611f1a565b6115af60006115aa611bcb565b610a12565b6115c760008051602061239a83398151915283610a12565b6001609e558015610a1c576000805461ff00191690555050565b60008181526065602052604081206114ac90611fb7565b609b602052816000526040600020818154811061161457600080fd5b6000918252602090912001546001600160a01b03169150829050565b60008281526065602052604090206002015461164e906109d2611bcb565b610a775760405162461bcd60e51b815260040180806020018281038252603081526020018061233c6030913960400191505060405180910390fd5b609a602052600090815260409020546001600160a01b031681565b60008051602061239a83398151915281565b60006116c4816109d2611bcb565b6116fb576040805162461bcd60e51b81526020600482015260036024820152620a48a760eb1b604482015290519081900360640190fd5b6001600160a01b038516158015906117135750835115155b61174a576040805162461bcd60e51b815260206004820152600360248201526252453960e81b604482015290519081900360640190fd5b611755609786611e36565b61176657611764609786611fc2565b505b6001600160a01b03808616600090815260996020908152604080832080548589166001600160a01b03199182168117909255609a845282852080549689169690911695909517909455928252609d90529081205481905b80821015611824576001600160a01b038681166000908152609d602052604090208054918a1691849081106117ee57fe5b6000918252602090912001546001600160a01b031614156118125760019250611824565b61181d826001611b71565b91506117bd565b6001600160a01b0386161580156118385750825b156119795760006118488961073f565b505050509050611862600183611d5690919063ffffffff16565b8314156118b1576001600160a01b0381166000908152609d6020526040902080548061188a57fe5b600082815260209020810160001990810180546001600160a01b0319169055019055611977565b6001600160a01b0381166000908152609d602052604090206118d4836001611d56565b815481106118de57fe5b60009182526020808320909101546001600160a01b038481168452609d909252604090922080549190921691908590811061191557fe5b600091825260208083209190910180546001600160a01b0319166001600160a01b039485161790559183168152609d9091526040902080548061195457fe5b600082815260209020810160001990810180546001600160a01b03191690550190555b505b6001600160a01b0386161580159061198f575082155b156119d3576001600160a01b038681166000908152609d602090815260408220805460018101825590835291200180546001600160a01b031916918a169190911790555b6001600160a01b0388166000908152609b6020526040902054611ad95760005b8751811015611ad75760006001600160a01b0316888281518110611a1357fe5b60200260200101516001600160a01b03161415611a60576040805162461bcd60e51b815260206004808301919091526024820152630524531360e41b604482015290519081900360640190fd5b6001600160a01b0389166000908152609b602052604090208851899083908110611a8657fe5b60209081029190910181015182546001808201855560009485529290932090920180546001600160a01b0319166001600160a01b0390931692909217909155611ad0908290611b71565b90506119f3565b505b7f898021085aa6760dfff39976b4928c90f897cf85216261ef8a3746d755ef53dc888888884260405180866001600160a01b0316815260200180602001856001600160a01b03168152602001846001600160a01b0316815260200183815260200182810382528681815181526020019150805190602001906020028083836000838110156111de5781810151838201526020016111c6565b6000828201838110156114ca576040805162461bcd60e51b815260206004820152601b60248201527f536166654d6174683a206164646974696f6e206f766572666c6f770000000000604482015290519081900360640190fd5b3390565b6000828152606560205260409020611be79082611fc2565b15610a1c57611bf4611bcb565b6001600160a01b0316816001600160a01b0316837f2f8788117e7eff1d82e926ec794901d17c78024a50270940304540a733656f0d60405160405180910390a45050565b6000828152606560205260409020611c509082611d41565b15610a1c57611c5d611bcb565b6001600160a01b0316816001600160a01b0316837ff6391f5c32d9c69d2a47ea670b442974b53935d1edc7fd64eb21e047a839171b60405160405180910390a45050565b611ca9611203565b611cf1576040805162461bcd60e51b815260206004820152601460248201527314185d5cd8589b194e881b9bdd081c185d5cd95960621b604482015290519081900360640190fd5b6033805460ff191690557f5db9ee0a495bf2e6ff9c91a7834c1ba4fdd244a5e8aa4e537bd38aeae4b073aa611d24611bcb565b604080516001600160a01b039092168252519081900360200190a1565b60006114ca836001600160a01b038416611fd7565b600082821115611dad576040805162461bcd60e51b815260206004820152601e60248201527f536166654d6174683a207375627472616374696f6e206f766572666c6f770000604482015290519081900360640190fd5b50900390565b611dbb611203565b15611e00576040805162461bcd60e51b815260206004820152601060248201526f14185d5cd8589b194e881c185d5cd95960821b604482015290519081900360640190fd5b6033805460ff191660011790557f62e78cea01bee320cd4e420270b5ea74000d11b0c9f74754ebdbfc544b05a258611d24611bcb565b60006114ca836001600160a01b03841661209d565b60006114ca83836120b5565b6000611e6230612119565b15905090565b600054610100900460ff1680611e815750611e81611e57565b80611e8f575060005460ff16155b611eca5760405162461bcd60e51b815260040180806020018281038252602e81526020018061236c602e913960400191505060405180910390fd5b600054610100900460ff16158015611ef5576000805460ff1961ff0019909116610100171660011790555b611efd61211f565b611f0561211f565b8015611f17576000805461ff00191690555b50565b600054610100900460ff1680611f335750611f33611e57565b80611f41575060005460ff16155b611f7c5760405162461bcd60e51b815260040180806020018281038252602e81526020018061236c602e913960400191505060405180910390fd5b600054610100900460ff16158015611fa7576000805460ff1961ff0019909116610100171660011790555b611faf61211f565b611f056121bf565b60006114ac8261226a565b60006114ca836001600160a01b03841661226e565b60008181526001830160205260408120548015612093578354600019808301919081019060009087908390811061200a57fe5b906000526020600020015490508087600001848154811061202757fe5b60009182526020808320909101929092558281526001898101909252604090209084019055865487908061205757fe5b600190038181906000526020600020016000905590558660010160008781526020019081526020016000206000905560019450505050506114ac565b60009150506114ac565b60009081526001919091016020526040902054151590565b815460009082106120f75760405162461bcd60e51b81526004018080602001828103825260228152602001806122eb6022913960400191505060405180910390fd5b82600001828154811061210657fe5b9060005260206000200154905092915050565b3b151590565b600054610100900460ff16806121385750612138611e57565b80612146575060005460ff16155b6121815760405162461bcd60e51b815260040180806020018281038252602e81526020018061236c602e913960400191505060405180910390fd5b600054610100900460ff16158015611f05576000805460ff1961ff0019909116610100171660011790558015611f17576000805461ff001916905550565b600054610100900460ff16806121d857506121d8611e57565b806121e6575060005460ff16155b6122215760405162461bcd60e51b815260040180806020018281038252602e81526020018061236c602e913960400191505060405180910390fd5b600054610100900460ff1615801561224c576000805460ff1961ff0019909116610100171660011790555b6033805460ff191690558015611f17576000805461ff001916905550565b5490565b600061227a838361209d565b6122b0575081546001818101845560008481526020808220909301849055845484825282860190935260409020919091556114ac565b5060006114ac565b5080546000825590600052602060002090810190611f1791905b808211156122e657600081556001016122d2565b509056fe456e756d657261626c655365743a20696e646578206f7574206f6620626f756e6473416363657373436f6e74726f6c3a2073656e646572206d75737420626520616e2061646d696e20746f206772616e74416363657373436f6e74726f6c3a2073656e646572206d75737420626520616e2061646d696e20746f207265766f6b65496e697469616c697a61626c653a20636f6e747261637420697320616c726561647920696e697469616c697a656465d7a28e3265b37a6474929f336521b332c1681b933f6cb9f3376673440d862a416363657373436f6e74726f6c3a2063616e206f6e6c792072656e6f756e636520726f6c657320666f722073656c66a2646970667358221220cec12c2232774e205391941a7841854225c047fee46e22d3b25c690c90de6c4364736f6c63430007060033",
  "immutableReferences": {},
  "source": "// SPDX-License-Identifier: UNLICENSED\npragma solidity >=0.7.0;\n\nimport \"@openzeppelin/contracts-upgradeable/math/SafeMathUpgradeable.sol\";\nimport \"@openzeppelin/contracts-upgradeable/utils/PausableUpgradeable.sol\";\nimport \"@openzeppelin/contracts-upgradeable/utils/EnumerableSetUpgradeable.sol\";\nimport \"@openzeppelin/contracts-upgradeable/access/AccessControlUpgradeable.sol\";\nimport \"./interfaces/IHolderV2.sol\";\nimport \"./interfaces/ISTokensV3.sol\";\nimport \"./interfaces/IRewardEmission.sol\";\n\ncontract RewardEmission is\n\tIRewardEmission,\n\tPausableUpgradeable,\n\tAccessControlUpgradeable\n{\n\tusing SafeMathUpgradeable for uint256;\n\tusing EnumerableSetUpgradeable for EnumerableSetUpgradeable.AddressSet;\n\n\t// constants defining access control ROLES\n\tbytes32 public constant PAUSER_ROLE = keccak256(\"PAUSER_ROLE\");\n\n\t// variables pertaining to holder logic for whitelisted addresses & StakeLP\n\t// deposit contract address for STokens in a DeFi product\n\tEnumerableSetUpgradeable.AddressSet private _whitelistedAddresses;\n\t// Holder contract address for this whitelisted contract. Many can point to one Holder contract\n\tmapping(address => address) public _holderContractAddress;\n\t// LP Token contract address which might be different from whitelisted contract, for a whitelisted contract\n\tmapping(address => address) public _lpContractAddress;\n\t// array of stkToken contract addresses associated with a whitelisted contract, for scenarios\n\t// where both the pair of tokens happen to be stkTokens\n\tmapping(address => address[]) public _stkContractAddresses;\n\t// last timestamp when the holder reward calculation was performed for updating reward pool,\n\t// for a whitelisted contract\n\tmapping(address => uint256) public _lastHolderRewardTimestamp;\n\t// list of whitelisted addresses for a particular holder contract\n\tmapping(address => address[]) _holderWhitelists;\n\t// variable pertaining to contract upgrades versioning\n\tuint256 public _version;\n\n\t/**\n\t * @dev Constructor for initializing the SToken contract.\n\t * @param pauserAddress - address of the pauser admin.\n\t */\n\tfunction initialize(address pauserAddress) public virtual initializer {\n\t\t__AccessControl_init();\n\t\t__Pausable_init();\n\t\t_setupRole(DEFAULT_ADMIN_ROLE, _msgSender());\n\t\t_setupRole(PAUSER_ROLE, pauserAddress);\n\t\t_version = 1;\n\t}\n\n\t/**\n\t * @dev Calculate pending rewards for the provided 'address'. The rate is the moving reward rate.\n\t * @param whitelistedAddress: whitelisted contract address\n\t * @param sTokenAddress: stkToken contract address\n\t */\n\tfunction isContractWhitelisted(\n\t\taddress whitelistedAddress,\n\t\taddress sTokenAddress\n\t) public view virtual override returns (bool result) {\n\t\tresult = _whitelistedAddresses.contains(whitelistedAddress);\n\t\taddress[] memory stkContractAddresses = _stkContractAddresses[\n\t\t\twhitelistedAddress\n\t\t];\n\t\tuint256 stkContractAddressesLength = stkContractAddresses.length;\n\t\tbool result2;\n\t\tfor (uint256 i = 0; i < stkContractAddressesLength; i = i.add(1)) {\n\t\t\tif (stkContractAddresses[i] == sTokenAddress) {\n\t\t\t\tresult2 = true;\n\t\t\t\tbreak;\n\t\t\t}\n\t\t}\n\t\tresult = result && result2;\n\t\treturn result;\n\t}\n\n\t/**\n\t * @dev Calculate pending rewards for the provided 'address'. The rate is the moving reward rate.\n\t * @param whitelistedAddress: contract address\n\t */\n\tfunction getwhitelistedData(address whitelistedAddress)\n\t\tpublic\n\t\tview\n\t\tvirtual\n\t\toverride\n\t\treturns (\n\t\t\taddress holderAddress,\n\t\t\taddress lpAddress,\n\t\t\taddress[] memory stkContractAddresses,\n\t\t\taddress[] memory pContractAddresses,\n\t\t\tuint256 lastHolderRewardTimestamp\n\t\t)\n\t{\n\t\t// Get the time in number of blocks\n\t\tholderAddress = _holderContractAddress[whitelistedAddress];\n\t\tlpAddress = _lpContractAddress[whitelistedAddress];\n\t\tstkContractAddresses = _stkContractAddresses[whitelistedAddress];\n\t\tlastHolderRewardTimestamp = _lastHolderRewardTimestamp[\n\t\t\twhitelistedAddress\n\t\t];\n\t\t// allocate pContractAddresses from the corresponding stkContractAddresses\n\t\tpContractAddresses = new address[](stkContractAddresses.length);\n\t\tfor (uint256 j = 0; j < stkContractAddresses.length; j = j.add(1)) {\n\t\t\tpContractAddresses[j] = ISTokensV3(stkContractAddresses[j])\n\t\t\t\t.getUTokenAddress();\n\t\t}\n\t}\n\n\t/**\n\t * @dev Calculate pending rewards for the provided 'address'. The rate is the moving reward rate.\n\t * @param holderAddress: contract address\n\t */\n\tfunction getHolderData(address holderAddress)\n\t\tpublic\n\t\tview\n\t\tvirtual\n\t\toverride\n\t\treturns (\n\t\t\taddress[] memory holderWhitelists,\n\t\t\taddress lpContractAddress,\n\t\t\taddress[] memory stkContractAddresses,\n\t\t\taddress[] memory pContractAddresses\n\t\t)\n\t{\n\t\tholderWhitelists = _holderWhitelists[holderAddress];\n\t\tuint256 holderWhitelistsLength = holderWhitelists.length;\n\t\t// if there are no whitelisted addresses associated with the holder contract then return\n\t\tif (holderWhitelistsLength == 0) {\n\t\t\treturn (\n\t\t\t\tholderWhitelists,\n\t\t\t\tlpContractAddress,\n\t\t\t\tstkContractAddresses,\n\t\t\t\tpContractAddresses\n\t\t\t);\n\t\t}\n\t\taddress whitelistedContract;\n\t\tuint256 index;\n\t\tuint256 size;\n\t\tfor (uint256 i = 0; i < holderWhitelistsLength; i = i.add(1)) {\n\t\t\twhitelistedContract = holderWhitelists[i];\n\t\t\tif (_lpContractAddress[whitelistedContract] != address(0)) {\n\t\t\t\t// allocate the lpContract address, which is supposed to be the same for all whitelisted addresses\n\t\t\t\t// associated with the holder contract\n\t\t\t\tlpContractAddress = _lpContractAddress[whitelistedContract];\n\t\t\t}\n\t\t\t// get the list of all stkToken addresses from the various whitelisted addresses\n\t\t\t// associated with the holder contract. some whitelisted addresses may have less while\n\t\t\t// other may have more stkToken addresses\n\t\t\tif (_stkContractAddresses[whitelistedContract].length > size) {\n\t\t\t\tindex = i;\n\t\t\t\tsize = _stkContractAddresses[whitelistedContract].length;\n\t\t\t}\n\t\t}\n\n\t\tstkContractAddresses = new address[](size);\n\t\twhitelistedContract = holderWhitelists[index];\n\n\t\t// allocate stkContractAddresses and then  pContractAddresses from the corresponding stkContractAddresses\n\t\tpContractAddresses = new address[](stkContractAddresses.length);\n\n\t\tfor (uint256 j = 0; j < stkContractAddresses.length; j = j.add(1)) {\n\t\t\tstkContractAddresses[j] = _stkContractAddresses[\n\t\t\t\twhitelistedContract\n\t\t\t][j];\n\t\t\tpContractAddresses[j] = ISTokensV3(stkContractAddresses[j])\n\t\t\t\t.getUTokenAddress();\n\t\t}\n\t}\n\n\t/*\n\t * @dev set reward rate called by admin\n\t * @param rewardRate: reward rate\n\t * Requirements:\n\t * - `rate` cannot be less than or equal to zero.\n\t */\n\tfunction setLastHolderRewardTimestamp(\n\t\taddress whitelistedAddress,\n\t\tuint256 rewardTimestamp\n\t) public virtual override returns (bool success) {\n\t\t// check if msgSender is an STokenContract address which is part of whitelistedAddress\n\t\tbool isSTokenValid = isContractWhitelisted(\n\t\t\twhitelistedAddress,\n\t\t\t_msgSender()\n\t\t);\n\t\trequire(isSTokenValid, \"RE1\");\n\t\t_lastHolderRewardTimestamp[whitelistedAddress] = rewardTimestamp;\n\t\temit SetLastHolderRewardTimestamp(whitelistedAddress, rewardTimestamp);\n\t\tsuccess = true;\n\t}\n\n\t/**\n\t * @dev Calculate pending rewards for the provided 'address'. The rate is the moving reward rate.\n\t * @param whitelistedAddress: whitelisted contract address\n\t * @param sTokenAddress: stkToken contract address\n\t */\n\tfunction getPendingHolderRewardsData(\n\t\taddress whitelistedAddress,\n\t\taddress sTokenAddress\n\t)\n\t\tpublic\n\t\tview\n\t\tvirtual\n\t\toverride\n\t\treturns (\n\t\t\tuint256 sTokenSupply,\n\t\t\tuint256 lastHolderRewardTimestamp,\n\t\t\taddress holderAddress,\n\t\t\taddress lpAddress\n\t\t)\n\t{\n\t\t// holderContract and lpContract (lp token contract) need to be validated together because\n\t\t// it might not be practical to setup holder to collect reward pool but not StakeLP to distribute reward\n\t\t// since the reward distribution calculation starts the minute reward pool is created\n\t\tbool isToContractWhitelisted = isContractWhitelisted(\n\t\t\twhitelistedAddress,\n\t\t\tsTokenAddress\n\t\t);\n\t\tif (!isToContractWhitelisted) {\n\t\t\treturn (\n\t\t\t\tsTokenSupply,\n\t\t\t\tlastHolderRewardTimestamp,\n\t\t\t\tholderAddress,\n\t\t\t\tlpAddress\n\t\t\t);\n\t\t}\n\n\t\t(\n\t\t\taddress holderAddressLocal,\n\t\t\taddress lpAddressLocal,\n\t\t\taddress[] memory stkContractAddresses,\n\t\t\t,\n\t\t\tuint256 lastHolderRewardTimestampLocal\n\t\t) = getwhitelistedData(whitelistedAddress);\n\n\t\tbool isSTokenContractValid = false;\n\t\t// check if the stkContractAddress matches the one returned by array\n\t\tfor (uint256 i = 0; i < stkContractAddresses.length; i = i.add(1)) {\n\t\t\tif (stkContractAddresses[i] == sTokenAddress) {\n\t\t\t\tisSTokenContractValid = true;\n\t\t\t\tbreak;\n\t\t\t}\n\t\t}\n\n\t\t// check require conditions for null values\n\t\tif (\n\t\t\tisSTokenContractValid &&\n\t\t\tholderAddress != address(0) &&\n\t\t\tlpAddress != address(0)\n\t\t) {\n\t\t\tsTokenSupply = IHolderV2(holderAddress).getSTokenSupply(\n\t\t\t\twhitelistedAddress\n\t\t\t);\n\t\t\tholderAddress = holderAddressLocal;\n\t\t\tlpAddress = lpAddressLocal;\n\t\t\tlastHolderRewardTimestamp = lastHolderRewardTimestampLocal;\n\t\t}\n\t}\n\n\t/*\n\t * @dev Set 'whitelisted address', performed by admin only\n\t * @param whitelistedAddress: contract address of the whitelisted party\n\t *\n\t * Emits a {setWhitelistedAddress} event\n\t *\n\t */\n\tfunction setWhitelistedAddress(\n\t\taddress whitelistedAddress,\n\t\taddress[] memory sTokenAddresses,\n\t\taddress holderContractAddress,\n\t\taddress lpContractAddress\n\t) public virtual override returns (bool success) {\n\t\trequire(hasRole(DEFAULT_ADMIN_ROLE, _msgSender()), \"RE8\");\n\t\t// lpTokenERC20ContractAddress or sTokenReserveContractAddress can be address(0) but not whitelistedAddress\n\t\trequire(\n\t\t\twhitelistedAddress != address(0) && sTokenAddresses.length != 0,\n\t\t\t\"RE9\"\n\t\t);\n\n\t\t// add the whitelistedAddress if it isn't already available\n\t\tif (!_whitelistedAddresses.contains(whitelistedAddress))\n\t\t\t_whitelistedAddresses.add(whitelistedAddress);\n\n\t\t// add the holder and lp contract addresses corresponding to the whitelistedAddress\n\t\t_holderContractAddress[whitelistedAddress] = holderContractAddress;\n\t\t_lpContractAddress[whitelistedAddress] = lpContractAddress;\n\n\t\t// ADD TO, OR REMOVE FROM _holderWhitelists\n\t\t// check if whitelistedAddress already exists in _holderWhitelists\n\t\tbool whitelistedAddressExists;\n\t\tuint256 j;\n\t\tuint256 holderWhitelistsLength = _holderWhitelists[\n\t\t\tholderContractAddress\n\t\t].length;\n\t\tfor (j = 0; j < holderWhitelistsLength; j = j.add(1)) {\n\t\t\tif (\n\t\t\t\t_holderWhitelists[holderContractAddress][j] ==\n\t\t\t\twhitelistedAddress\n\t\t\t) {\n\t\t\t\twhitelistedAddressExists = true;\n\t\t\t\tbreak;\n\t\t\t}\n\t\t}\n\n\t\t// if holderAddress is address(0), then remove the whitelistedAddress from the array\n\t\t// else add the whitelistedAddress to the array\n\t\tif (holderContractAddress == address(0) && whitelistedAddressExists) {\n\t\t\t// remove whitelistedAddress from the _holderWhitelists\n\t\t\t(address holderAddressLocal, , , , ) = getwhitelistedData(\n\t\t\t\twhitelistedAddress\n\t\t\t);\n\t\t\t// if the index of whitelistedAddress is the last one then just pop array\n\t\t\tif (j == holderWhitelistsLength.sub(1)) {\n\t\t\t\t_holderWhitelists[holderAddressLocal].pop();\n\t\t\t} else {\n\t\t\t\t// else replace the value in the index location with the value in the last index then pop array\n\t\t\t\t_holderWhitelists[holderAddressLocal][j] = _holderWhitelists[\n\t\t\t\t\tholderAddressLocal\n\t\t\t\t][holderWhitelistsLength.sub(1)];\n\t\t\t\t_holderWhitelists[holderAddressLocal].pop();\n\t\t\t}\n\t\t}\n\n\t\t// if sTokenAddress doesnt already exist then include it in the array\n\t\tif (holderContractAddress != address(0) && !whitelistedAddressExists) {\n\t\t\t// add the whitelistedAddress to the _holderWhitelists array\n\t\t\t_holderWhitelists[holderContractAddress].push(whitelistedAddress);\n\t\t}\n\n\t\t// ADD TO _stkContractAddresses\n\t\t// check if sTokenAddress already exists\n\t\tif (_stkContractAddresses[whitelistedAddress].length == 0) {\n\t\t\t// check if all the sTokenAddresses provided are non zero\n\t\t\tfor (uint256 i = 0; i < sTokenAddresses.length; i = i.add(1)) {\n\t\t\t\trequire(sTokenAddresses[i] != address(0), \"RE10\");\n\t\t\t\t_stkContractAddresses[whitelistedAddress].push(\n\t\t\t\t\tsTokenAddresses[i]\n\t\t\t\t);\n\t\t\t}\n\t\t}\n\n\t\temit SetWhitelistedAddress(\n\t\t\twhitelistedAddress,\n\t\t\tsTokenAddresses,\n\t\t\tholderContractAddress,\n\t\t\tlpContractAddress,\n\t\t\tblock.timestamp\n\t\t);\n\t\tsuccess = true;\n\t\treturn success;\n\t}\n\n\t/*\n\t * @dev remove 'whitelisted address', performed by admin only\n\t * @param whitelistedAddress: contract address of the whitelisted party\n\t * @param holderContractAddress: holder contract address of the corresponding whitelistedAddress\n\t *\n\t * Emits a {RemoveWhitelistedAddress} event\n\t *\n\t */\n\tfunction removeWhitelistedAddress(address whitelistedAddress)\n\t\tpublic\n\t\tvirtual\n\t\toverride\n\t\treturns (bool success)\n\t{\n\t\trequire(hasRole(DEFAULT_ADMIN_ROLE, _msgSender()), \"ST10\");\n\t\trequire(whitelistedAddress != address(0), \"ST11\");\n\t\t// remove whitelistedAddress from the list\n\t\t_whitelistedAddresses.remove(whitelistedAddress);\n\t\taddress _holderContractAddressLocal = _holderContractAddress[\n\t\t\twhitelistedAddress\n\t\t];\n\t\taddress _lpContractAddressLocal = _lpContractAddress[\n\t\t\twhitelistedAddress\n\t\t];\n\t\taddress[] memory stkContractAddresses = _stkContractAddresses[\n\t\t\twhitelistedAddress\n\t\t];\n\n\t\t// delete holder contract values\n\t\tdelete _holderContractAddress[whitelistedAddress];\n\t\tdelete _lpContractAddress[whitelistedAddress];\n\t\tdelete _stkContractAddresses[whitelistedAddress];\n\n\t\t// remove whitelisted address from _holderWhitelists\n\t\tbool whitelistedAddressExists;\n\t\tuint256 j;\n\t\tuint256 holderWhitelistsLength = _holderWhitelists[\n\t\t\t_holderContractAddressLocal\n\t\t].length;\n\t\tfor (j = 0; j < holderWhitelistsLength; j = j.add(1)) {\n\t\t\tif (\n\t\t\t\t_holderWhitelists[_holderContractAddressLocal][j] ==\n\t\t\t\twhitelistedAddress\n\t\t\t) {\n\t\t\t\twhitelistedAddressExists = true;\n\t\t\t\tbreak;\n\t\t\t}\n\t\t}\n\n\t\t// if holderAddress is address(0), then remove the whitelistedAddress from the array\n\t\t// else add the whitelistedAddress to the array\n\t\tif (whitelistedAddressExists) {\n\t\t\t// if the index of whitelistedAddress is the last one then just pop array\n\t\t\tif (j == holderWhitelistsLength.sub(1)) {\n\t\t\t\t_holderWhitelists[_holderContractAddressLocal].pop();\n\t\t\t} else {\n\t\t\t\t// else replace the value in the index location with the value in the last index then pop array\n\t\t\t\t_holderWhitelists[_holderContractAddressLocal][\n\t\t\t\t\tj\n\t\t\t\t] = _holderWhitelists[_holderContractAddressLocal][\n\t\t\t\t\tholderWhitelistsLength.sub(1)\n\t\t\t\t];\n\t\t\t\t_holderWhitelists[_holderContractAddressLocal].pop();\n\t\t\t}\n\t\t}\n\n\t\t// emit event and return\n\t\temit RemoveWhitelistedAddress(\n\t\t\twhitelistedAddress,\n\t\t\tstkContractAddresses,\n\t\t\t_holderContractAddressLocal,\n\t\t\t_lpContractAddressLocal,\n\t\t\tblock.timestamp\n\t\t);\n\t\tsuccess = true;\n\t\treturn success;\n\t}\n\n\t/**\n\t * @dev Triggers stopped state.\n\t *\n\t * Requirements:\n\t *\n\t * - The contract must not be paused.\n\t */\n\tfunction pause() public virtual override returns (bool success) {\n\t\trequire(hasRole(PAUSER_ROLE, _msgSender()), \"ST14\");\n\t\t_pause();\n\t\treturn true;\n\t}\n\n\t/**\n\t * @dev Returns to normal state.\n\t *\n\t * Requirements:\n\t *\n\t * - The contract must be paused.\n\t */\n\tfunction unpause() public virtual override returns (bool success) {\n\t\trequire(hasRole(PAUSER_ROLE, _msgSender()), \"ST15\");\n\t\t_unpause();\n\t\treturn true;\n\t}\n}\n",
  "sourcePath": "C:\\Users\\Kamlesh\\Persistence\\pStake\\codebase\\pStake-smartContracts\\contracts\\RewardEmission.sol",
  "compiler": {
    "name": "solc",
    "version": "0.7.6+commit.7338295f.Emscripten.clang"
  },
  "schemaVersion": "3.4.3",
  "updatedAt": "2021-09-20T13:43:15.683Z",
  "devdoc": {
    "kind": "dev",
    "methods": {
      "getHolderData(address)": {
        "details": "Calculate pending rewards for the provided 'address'. The rate is the moving reward rate.",
        "params": {
          "holderAddress": ": contract address"
        }
      },
      "getPendingHolderRewardsData(address,address)": {
        "details": "Calculate pending rewards for the provided 'address'. The rate is the moving reward rate.",
        "params": {
          "sTokenAddress": ": stkToken contract address",
          "whitelistedAddress": ": whitelisted contract address"
        }
      },
      "getRoleAdmin(bytes32)": {
        "details": "Returns the admin role that controls `role`. See {grantRole} and {revokeRole}. To change a role's admin, use {_setRoleAdmin}."
      },
      "getRoleMember(bytes32,uint256)": {
        "details": "Returns one of the accounts that have `role`. `index` must be a value between 0 and {getRoleMemberCount}, non-inclusive. Role bearers are not sorted in any particular way, and their ordering may change at any point. WARNING: When using {getRoleMember} and {getRoleMemberCount}, make sure you perform all queries on the same block. See the following https://forum.openzeppelin.com/t/iterating-over-elements-on-enumerableset-in-openzeppelin-contracts/2296[forum post] for more information."
      },
      "getRoleMemberCount(bytes32)": {
        "details": "Returns the number of accounts that have `role`. Can be used together with {getRoleMember} to enumerate all bearers of a role."
      },
      "getwhitelistedData(address)": {
        "details": "Calculate pending rewards for the provided 'address'. The rate is the moving reward rate.",
        "params": {
          "whitelistedAddress": ": contract address"
        }
      },
      "grantRole(bytes32,address)": {
        "details": "Grants `role` to `account`. If `account` had not been already granted `role`, emits a {RoleGranted} event. Requirements: - the caller must have ``role``'s admin role."
      },
      "hasRole(bytes32,address)": {
        "details": "Returns `true` if `account` has been granted `role`."
      },
      "initialize(address)": {
        "details": "Constructor for initializing the SToken contract.",
        "params": {
          "pauserAddress": "- address of the pauser admin."
        }
      },
      "isContractWhitelisted(address,address)": {
        "details": "Calculate pending rewards for the provided 'address'. The rate is the moving reward rate.",
        "params": {
          "sTokenAddress": ": stkToken contract address",
          "whitelistedAddress": ": whitelisted contract address"
        }
      },
      "pause()": {
        "details": "Triggers stopped state. Requirements: - The contract must not be paused."
      },
      "paused()": {
        "details": "Returns true if the contract is paused, and false otherwise."
      },
      "renounceRole(bytes32,address)": {
        "details": "Revokes `role` from the calling account. Roles are often managed via {grantRole} and {revokeRole}: this function's purpose is to provide a mechanism for accounts to lose their privileges if they are compromised (such as when a trusted device is misplaced). If the calling account had been granted `role`, emits a {RoleRevoked} event. Requirements: - the caller must be `account`."
      },
      "revokeRole(bytes32,address)": {
        "details": "Revokes `role` from `account`. If `account` had been granted `role`, emits a {RoleRevoked} event. Requirements: - the caller must have ``role``'s admin role."
      },
      "unpause()": {
        "details": "Returns to normal state. Requirements: - The contract must be paused."
      }
    },
    "version": 1
  },
  "userdoc": {
    "kind": "user",
    "methods": {},
    "version": 1
  }
}