{
  "contractName": "StakeLPCoreV4",
  "abi": [
    {
      "anonymous": false,
      "inputs": [
        {
          "indexed": false,
          "internalType": "address",
          "name": "lpToken",
          "type": "address"
        },
        {
          "indexed": false,
          "internalType": "uint256",
          "name": "amount",
          "type": "uint256"
        },
        {
          "indexed": false,
          "internalType": "uint256",
          "name": "rewards",
          "type": "uint256"
        },
        {
          "indexed": false,
          "internalType": "uint256",
          "name": "liquidity",
          "type": "uint256"
        }
      ],
      "name": "AddLiquidity",
      "type": "event"
    },
    {
      "anonymous": false,
      "inputs": [
        {
          "indexed": true,
          "internalType": "address",
          "name": "holderAddress",
          "type": "address"
        },
        {
          "indexed": true,
          "internalType": "address",
          "name": "lpToken",
          "type": "address"
        },
        {
          "indexed": false,
          "internalType": "uint256",
          "name": "amount",
          "type": "uint256"
        },
        {
          "indexed": true,
          "internalType": "address",
          "name": "to",
          "type": "address"
        },
        {
          "indexed": false,
          "internalType": "uint256",
          "name": "liquidity",
          "type": "uint256"
        },
        {
          "indexed": false,
          "internalType": "uint256",
          "name": "reward",
          "type": "uint256"
        }
      ],
      "name": "CalculateRewardsAndLiquidity",
      "type": "event"
    },
    {
      "anonymous": false,
      "inputs": [
        {
          "indexed": false,
          "internalType": "address",
          "name": "account",
          "type": "address"
        }
      ],
      "name": "Paused",
      "type": "event"
    },
    {
      "anonymous": false,
      "inputs": [
        {
          "indexed": false,
          "internalType": "address",
          "name": "lpToken",
          "type": "address"
        },
        {
          "indexed": false,
          "internalType": "uint256",
          "name": "amount",
          "type": "uint256"
        },
        {
          "indexed": false,
          "internalType": "uint256",
          "name": "rewards",
          "type": "uint256"
        },
        {
          "indexed": false,
          "internalType": "uint256",
          "name": "liquidity",
          "type": "uint256"
        }
      ],
      "name": "RemoveLiquidity",
      "type": "event"
    },
    {
      "anonymous": false,
      "inputs": [
        {
          "indexed": true,
          "internalType": "bytes32",
          "name": "role",
          "type": "bytes32"
        },
        {
          "indexed": true,
          "internalType": "bytes32",
          "name": "previousAdminRole",
          "type": "bytes32"
        },
        {
          "indexed": true,
          "internalType": "bytes32",
          "name": "newAdminRole",
          "type": "bytes32"
        }
      ],
      "name": "RoleAdminChanged",
      "type": "event"
    },
    {
      "anonymous": false,
      "inputs": [
        {
          "indexed": true,
          "internalType": "bytes32",
          "name": "role",
          "type": "bytes32"
        },
        {
          "indexed": true,
          "internalType": "address",
          "name": "account",
          "type": "address"
        },
        {
          "indexed": true,
          "internalType": "address",
          "name": "sender",
          "type": "address"
        }
      ],
      "name": "RoleGranted",
      "type": "event"
    },
    {
      "anonymous": false,
      "inputs": [
        {
          "indexed": true,
          "internalType": "bytes32",
          "name": "role",
          "type": "bytes32"
        },
        {
          "indexed": true,
          "internalType": "address",
          "name": "account",
          "type": "address"
        },
        {
          "indexed": true,
          "internalType": "address",
          "name": "sender",
          "type": "address"
        }
      ],
      "name": "RoleRevoked",
      "type": "event"
    },
    {
      "anonymous": false,
      "inputs": [
        {
          "indexed": true,
          "internalType": "address",
          "name": "_contract",
          "type": "address"
        }
      ],
      "name": "SetPSTAKEContract",
      "type": "event"
    },
    {
      "anonymous": false,
      "inputs": [
        {
          "indexed": true,
          "internalType": "address",
          "name": "_contract",
          "type": "address"
        }
      ],
      "name": "SetSTokensContract",
      "type": "event"
    },
    {
      "anonymous": false,
      "inputs": [
        {
          "indexed": true,
          "internalType": "address",
          "name": "_contract",
          "type": "address"
        }
      ],
      "name": "SetUTokensContract",
      "type": "event"
    },
    {
      "anonymous": false,
      "inputs": [
        {
          "indexed": false,
          "internalType": "address",
          "name": "account",
          "type": "address"
        }
      ],
      "name": "Unpaused",
      "type": "event"
    },
    {
      "inputs": [],
      "name": "DEFAULT_ADMIN_ROLE",
      "outputs": [
        {
          "internalType": "bytes32",
          "name": "",
          "type": "bytes32"
        }
      ],
      "stateMutability": "view",
      "type": "function"
    },
    {
      "inputs": [],
      "name": "PAUSER_ROLE",
      "outputs": [
        {
          "internalType": "bytes32",
          "name": "",
          "type": "bytes32"
        }
      ],
      "stateMutability": "view",
      "type": "function"
    },
    {
      "inputs": [
        {
          "internalType": "address",
          "name": "",
          "type": "address"
        }
      ],
      "name": "_lastLPTimeShare",
      "outputs": [
        {
          "internalType": "uint256",
          "name": "",
          "type": "uint256"
        }
      ],
      "stateMutability": "view",
      "type": "function"
    },
    {
      "inputs": [
        {
          "internalType": "address",
          "name": "",
          "type": "address"
        }
      ],
      "name": "_lastLPTimeShareTimestamp",
      "outputs": [
        {
          "internalType": "uint256",
          "name": "",
          "type": "uint256"
        }
      ],
      "stateMutability": "view",
      "type": "function"
    },
    {
      "inputs": [
        {
          "internalType": "address",
          "name": "",
          "type": "address"
        },
        {
          "internalType": "address",
          "name": "",
          "type": "address"
        }
      ],
      "name": "_lastLiquidityTimestamp",
      "outputs": [
        {
          "internalType": "uint256",
          "name": "",
          "type": "uint256"
        }
      ],
      "stateMutability": "view",
      "type": "function"
    },
    {
      "inputs": [
        {
          "internalType": "address",
          "name": "",
          "type": "address"
        },
        {
          "internalType": "address",
          "name": "",
          "type": "address"
        }
      ],
      "name": "_lpBalance",
      "outputs": [
        {
          "internalType": "uint256",
          "name": "",
          "type": "uint256"
        }
      ],
      "stateMutability": "view",
      "type": "function"
    },
    {
      "inputs": [
        {
          "internalType": "address",
          "name": "",
          "type": "address"
        }
      ],
      "name": "_lpSupply",
      "outputs": [
        {
          "internalType": "uint256",
          "name": "",
          "type": "uint256"
        }
      ],
      "stateMutability": "view",
      "type": "function"
    },
    {
      "inputs": [],
      "name": "_pstakeTokens",
      "outputs": [
        {
          "internalType": "contract IPSTAKE",
          "name": "",
          "type": "address"
        }
      ],
      "stateMutability": "view",
      "type": "function"
    },
    {
      "inputs": [],
      "name": "_sTokens",
      "outputs": [
        {
          "internalType": "contract ISTokens",
          "name": "",
          "type": "address"
        }
      ],
      "stateMutability": "view",
      "type": "function"
    },
    {
      "inputs": [],
      "name": "_uTokens",
      "outputs": [
        {
          "internalType": "contract IUTokens",
          "name": "",
          "type": "address"
        }
      ],
      "stateMutability": "view",
      "type": "function"
    },
    {
      "inputs": [
        {
          "internalType": "bytes32",
          "name": "role",
          "type": "bytes32"
        }
      ],
      "name": "getRoleAdmin",
      "outputs": [
        {
          "internalType": "bytes32",
          "name": "",
          "type": "bytes32"
        }
      ],
      "stateMutability": "view",
      "type": "function"
    },
    {
      "inputs": [
        {
          "internalType": "bytes32",
          "name": "role",
          "type": "bytes32"
        },
        {
          "internalType": "uint256",
          "name": "index",
          "type": "uint256"
        }
      ],
      "name": "getRoleMember",
      "outputs": [
        {
          "internalType": "address",
          "name": "",
          "type": "address"
        }
      ],
      "stateMutability": "view",
      "type": "function"
    },
    {
      "inputs": [
        {
          "internalType": "bytes32",
          "name": "role",
          "type": "bytes32"
        }
      ],
      "name": "getRoleMemberCount",
      "outputs": [
        {
          "internalType": "uint256",
          "name": "",
          "type": "uint256"
        }
      ],
      "stateMutability": "view",
      "type": "function"
    },
    {
      "inputs": [
        {
          "internalType": "bytes32",
          "name": "role",
          "type": "bytes32"
        },
        {
          "internalType": "address",
          "name": "account",
          "type": "address"
        }
      ],
      "name": "grantRole",
      "outputs": [],
      "stateMutability": "nonpayable",
      "type": "function"
    },
    {
      "inputs": [
        {
          "internalType": "bytes32",
          "name": "role",
          "type": "bytes32"
        },
        {
          "internalType": "address",
          "name": "account",
          "type": "address"
        }
      ],
      "name": "hasRole",
      "outputs": [
        {
          "internalType": "bool",
          "name": "",
          "type": "bool"
        }
      ],
      "stateMutability": "view",
      "type": "function"
    },
    {
      "inputs": [],
      "name": "paused",
      "outputs": [
        {
          "internalType": "bool",
          "name": "",
          "type": "bool"
        }
      ],
      "stateMutability": "view",
      "type": "function"
    },
    {
      "inputs": [
        {
          "internalType": "bytes32",
          "name": "role",
          "type": "bytes32"
        },
        {
          "internalType": "address",
          "name": "account",
          "type": "address"
        }
      ],
      "name": "renounceRole",
      "outputs": [],
      "stateMutability": "nonpayable",
      "type": "function"
    },
    {
      "inputs": [
        {
          "internalType": "bytes32",
          "name": "role",
          "type": "bytes32"
        },
        {
          "internalType": "address",
          "name": "account",
          "type": "address"
        }
      ],
      "name": "revokeRole",
      "outputs": [],
      "stateMutability": "nonpayable",
      "type": "function"
    },
    {
      "inputs": [
        {
          "internalType": "address",
          "name": "uAddress",
          "type": "address"
        },
        {
          "internalType": "address",
          "name": "sAddress",
          "type": "address"
        },
        {
          "internalType": "address",
          "name": "pStakeAddress",
          "type": "address"
        },
        {
          "internalType": "address",
          "name": "pauserAddress",
          "type": "address"
        }
      ],
      "name": "initialize",
      "outputs": [],
      "stateMutability": "nonpayable",
      "type": "function"
    },
    {
      "inputs": [
        {
          "internalType": "address",
          "name": "lpToken",
          "type": "address"
        },
        {
          "internalType": "address",
          "name": "to",
          "type": "address"
        }
      ],
      "name": "calculatePendingRewardsAndLiquidity",
      "outputs": [
        {
          "internalType": "uint256",
          "name": "liquidity",
          "type": "uint256"
        },
        {
          "internalType": "uint256",
          "name": "reward",
          "type": "uint256"
        },
        {
          "internalType": "uint256",
          "name": "updatedSupplyLPTimeshare",
          "type": "uint256"
        }
      ],
      "stateMutability": "view",
      "type": "function"
    },
    {
      "inputs": [
        {
          "internalType": "address",
          "name": "lpToken",
          "type": "address"
        },
        {
          "internalType": "uint256",
          "name": "amount",
          "type": "uint256"
        }
      ],
      "name": "addLiquidity",
      "outputs": [
        {
          "internalType": "uint256",
          "name": "liquidity",
          "type": "uint256"
        },
        {
          "internalType": "uint256",
          "name": "rewards",
          "type": "uint256"
        }
      ],
      "stateMutability": "nonpayable",
      "type": "function"
    },
    {
      "inputs": [
        {
          "internalType": "address",
          "name": "lpToken",
          "type": "address"
        },
        {
          "internalType": "uint256",
          "name": "amount",
          "type": "uint256"
        }
      ],
      "name": "removeLiquidity",
      "outputs": [
        {
          "internalType": "uint256",
          "name": "liquidity",
          "type": "uint256"
        },
        {
          "internalType": "uint256",
          "name": "rewards",
          "type": "uint256"
        }
      ],
      "stateMutability": "nonpayable",
      "type": "function"
    },
    {
      "inputs": [
        {
          "internalType": "address",
          "name": "uAddress",
          "type": "address"
        }
      ],
      "name": "setUTokensContract",
      "outputs": [],
      "stateMutability": "nonpayable",
      "type": "function"
    },
    {
      "inputs": [
        {
          "internalType": "address",
          "name": "sAddress",
          "type": "address"
        }
      ],
      "name": "setSTokensContract",
      "outputs": [],
      "stateMutability": "nonpayable",
      "type": "function"
    },
    {
      "inputs": [
        {
          "internalType": "address",
          "name": "pstakeAddress",
          "type": "address"
        }
      ],
      "name": "setPSTAKEContract",
      "outputs": [],
      "stateMutability": "nonpayable",
      "type": "function"
    },
    {
      "inputs": [],
      "name": "pause",
      "outputs": [
        {
          "internalType": "bool",
          "name": "success",
          "type": "bool"
        }
      ],
      "stateMutability": "nonpayable",
      "type": "function"
    },
    {
      "inputs": [],
      "name": "unpause",
      "outputs": [
        {
          "internalType": "bool",
          "name": "success",
          "type": "bool"
        }
      ],
      "stateMutability": "nonpayable",
      "type": "function"
    }
  ],
  "bytecode": "0x608060405234801561001057600080fd5b50611f9a806100206000396000f3fe608060405234801561001057600080fd5b50600436106101a95760003560e01c80639010d07c116100f9578063cce3dffd11610097578063d79cf55a11610071578063d79cf55a14610524578063e40c3f541461052c578063e63ab1e914610534578063f8c8765e1461053c576101a9565b8063cce3dffd1461047e578063d43e52a9146104ac578063d547741f146104f8576101a9565b8063a217fddf116100d3578063a217fddf14610405578063b29bad131461040d578063c0818a521461043b578063ca15c87314610461576101a9565b80639010d07c1461038a57806391d14854146103ad578063a201ccf6146103d9576101a9565b80633f4ba83a116101665780635c975abb116101405780635c975abb1461033057806378a2f074146103385780637a19ec711461035c5780638456cb5914610382576101a9565b80633f4ba83a146102a957806345d644cd146102c557806356688700146102eb576101a9565b806321bdf9e5146101ae578063228d9eae146101d6578063248a9ca3146101fc5780632e31fab81461022b5780632f2ff15d1461025157806336568abe1461027d575b600080fd5b6101d4600480360360208110156101c457600080fd5b50356001600160a01b031661057a565b005b6101d4600480360360208110156101ec57600080fd5b50356001600160a01b031661060d565b6102196004803603602081101561021257600080fd5b503561069e565b60408051918252519081900360200190f35b6101d46004803603602081101561024157600080fd5b50356001600160a01b03166106b3565b6101d46004803603604081101561026757600080fd5b50803590602001356001600160a01b0316610744565b6101d46004803603604081101561029357600080fd5b50803590602001356001600160a01b03166107ab565b6102b161080c565b604080519115158252519081900360200190f35b610219600480360360208110156102db57600080fd5b50356001600160a01b0316610870565b6103176004803603604081101561030157600080fd5b506001600160a01b038135169060200135610882565b6040805192835260208301919091528051918290030190f35b6102b1610af7565b610340610b00565b604080516001600160a01b039092168252519081900360200190f35b6102196004803603602081101561037257600080fd5b50356001600160a01b0316610b0f565b6102b1610b21565b610340600480360360408110156103a057600080fd5b5080359060200135610b7f565b6102b1600480360360408110156103c357600080fd5b50803590602001356001600160a01b0316610ba0565b610317600480360360408110156103ef57600080fd5b506001600160a01b038135169060200135610bb8565b610219610e8e565b6102196004803603604081101561042357600080fd5b506001600160a01b0381358116916020013516610e93565b6102196004803603602081101561045157600080fd5b50356001600160a01b0316610eb0565b6102196004803603602081101561047757600080fd5b5035610ec2565b6102196004803603604081101561049457600080fd5b506001600160a01b0381358116916020013516610ed9565b6104da600480360360408110156104c257600080fd5b506001600160a01b0381358116916020013516610ef6565b60408051938452602084019290925282820152519081900360600190f35b6101d46004803603604081101561050e57600080fd5b50803590602001356001600160a01b03166110e2565b61034061113b565b61034061114a565b610219611159565b6101d46004803603608081101561055257600080fd5b506001600160a01b03813581169160208101358216916040820135811691606001351661116b565b61058c6000610587611266565b610ba0565b6105c3576040805162461bcd60e51b81526020600482015260036024820152624c503960e81b604482015290519081900360640190fd5b609c80546001600160a01b0319166001600160a01b0383169081179091556040517ff745c285f36f88bea6af14d4d0f33dd9350cef7895216c1615b1caaee7857e0c90600090a250565b61061a6000610587611266565b610654576040805162461bcd60e51b815260206004808301919091526024820152634c50313160e01b604482015290519081900360640190fd5b609e80546001600160a01b0319166001600160a01b0383169081179091556040517f2321c893a63891a056e19e865d785f953c42f766bab444a8bcabd3673cee3d1d90600090a250565b60009081526065602052604090206002015490565b6106c06000610587611266565b6106fa576040805162461bcd60e51b8152602060048083019190915260248201526304c5031360e41b604482015290519081900360640190fd5b609d80546001600160a01b0319166001600160a01b0383169081179091556040517fd0b9dbe26f676f4cdb02fc249c203baa0314cec79e18b4194dc862795a5de03f90600090a250565b60008281526065602052604090206002015461076290610587611266565b61079d5760405162461bcd60e51b815260040180806020018281038252602f815260200180611e37602f913960400191505060405180910390fd5b6107a7828261126a565b5050565b6107b3611266565b6001600160a01b0316816001600160a01b0316146108025760405162461bcd60e51b815260040180806020018281038252602f815260200180611f36602f913960400191505060405180910390fd5b6107a782826112d3565b6000610828600080516020611f16833981519152610587611266565b610862576040805162461bcd60e51b815260206004808301919091526024820152634c50313360e01b604482015290519081900360640190fd5b61086a61133c565b50600190565b60986020526000908152604090205481565b60008061088d610af7565b156108d2576040805162461bcd60e51b815260206004820152601060248201526f14185d5cd8589b194e881c185d5cd95960821b604482015290519081900360640190fd5b6000831180156108ea57506001600160a01b03841615155b610921576040805162461bcd60e51b815260206004820152600360248201526213140d60ea1b604482015290519081900360640190fd5b609d546040805163602b82c560e11b81526001600160a01b0387811660048301528251600094859492169263c057058a926024808301939192829003018186803b15801561096e57600080fd5b505afa158015610982573d6000803e3d6000fd5b505050506040513d604081101561099857600080fd5b50805160209091015190925090508180156109bb57506001600160a01b03811615155b6109f2576040805162461bcd60e51b81526020600482015260036024820152624c503560e81b604482015290519081900360640190fd5b60006109fc611266565b9050610a098288836113dc565b95509350610a1987823089611536565b6001600160a01b03808816600090815260976020908152604080832093851683529290522054610a499087611692565b6001600160a01b0380891660008181526097602090815260408083209487168352938152838220949094559081526098909252902054610a899087611692565b6001600160a01b0388166000818152609860209081526040918290209390935580519182529181018890528082018690526060810187905290517fbeb3885786d637a474cbc287c0a44587231633a077f0bd30354d5a4b18996fce9181900360800190a15050509250929050565b60335460ff1690565b609c546001600160a01b031681565b609a6020526000908152604090205481565b6000610b3d600080516020611f16833981519152610587611266565b610b77576040805162461bcd60e51b815260206004808301919091526024820152632628189960e11b604482015290519081900360640190fd5b61086a6116ec565b6000828152606560205260408120610b97908361176f565b90505b92915050565b6000828152606560205260408120610b97908361177b565b600080610bc3610af7565b15610c08576040805162461bcd60e51b815260206004820152601060248201526f14185d5cd8589b194e881c185d5cd95960821b604482015290519081900360640190fd5b600083118015610c2057506001600160a01b03841615155b610c57576040805162461bcd60e51b815260206004820152600360248201526226281b60e91b604482015290519081900360640190fd5b609d546040805163602b82c560e11b81526001600160a01b0387811660048301528251600094859492169263c057058a926024808301939192829003018186803b158015610ca457600080fd5b505afa158015610cb8573d6000803e3d6000fd5b505050506040513d6040811015610cce57600080fd5b5080516020909101519092509050818015610cf157506001600160a01b03811615155b610d28576040805162461bcd60e51b81526020600482015260036024820152624c503560e81b604482015290519081900360640190fd5b6000610d32611266565b6001600160a01b03808916600090815260976020908152604080832093851683529290522054909150861115610d95576040805162461bcd60e51b8152602060048201526003602482015262098a0760eb1b604482015290519081900360640190fd5b610da08288836113dc565b95509350610db087308389611536565b6001600160a01b03808816600090815260976020908152604080832093851683529290522054610de09087611790565b6001600160a01b0380891660008181526097602090815260408083209487168352938152838220949094559081526098909252902054610e209087611790565b6001600160a01b0388166000818152609860209081526040918290209390935580519182529181018890528082018690526060810187905290517f59c3a0b60c6ab7deb62e1440c9e72441db6db7dfe514dba8cb18e60c0d896efa9181900360800190a15050509250929050565b600081565b609b60209081526000928352604080842090915290825290205481565b60996020526000908152604090205481565b6000818152606560205260408120610b9a906117ed565b609760209081526000928352604080842090915290825290205481565b6001600160a01b038083166000818152609760209081526040808320948616808452948252808320549383526098825280832054609b8352818420958452949091528120549092839283929091908390610f5c90610f55904290611790565b84906117f8565b6001600160a01b0389166000908152609a602052604081205491925090610f8890610f55904290611790565b6001600160a01b038a1660009081526099602052604081205491925090610faf9083611692565b9050610fbb8184611790565b955080156110d657609c54604080516370a0823160e01b815230600482015290516000926001600160a01b0316916370a08231916024808301926020929190829003018186803b15801561100e57600080fd5b505afa158015611022573d6000803e3d6000fd5b505050506040513d602081101561103857600080fd5b50519050611047818584611851565b609e54604080516370a0823160e01b81523060048201529051929a506000926001600160a01b03909216916370a0823191602480820192602092909190829003018186803b15801561109857600080fd5b505afa1580156110ac573d6000803e3d6000fd5b505050506040513d60208110156110c257600080fd5b505190506110d1818685611851565b995050505b50505050509250925092565b60008281526065602052604090206002015461110090610587611266565b6108025760405162461bcd60e51b8152600401808060200182810382526030815260200180611e976030913960400191505060405180910390fd5b609d546001600160a01b031681565b609e546001600160a01b031681565b600080516020611f1683398151915281565b600054610100900460ff1680611184575061118461190c565b80611192575060005460ff16155b6111cd5760405162461bcd60e51b815260040180806020018281038252602e815260200180611ec7602e913960400191505060405180910390fd5b600054610100900460ff161580156111f8576000805460ff1961ff0019909116610100171660011790555b61120061191d565b6112086119cf565b61121a6000611215611266565b61079d565b611232600080516020611f168339815191528361079d565b61123b8561057a565b611244846106b3565b61124d8361060d565b801561125f576000805461ff00191690555b5050505050565b3390565b60008281526065602052604090206112829082611a6c565b156107a75761128f611266565b6001600160a01b0316816001600160a01b0316837f2f8788117e7eff1d82e926ec794901d17c78024a50270940304540a733656f0d60405160405180910390a45050565b60008281526065602052604090206112eb9082611a81565b156107a7576112f8611266565b6001600160a01b0316816001600160a01b0316837ff6391f5c32d9c69d2a47ea670b442974b53935d1edc7fd64eb21e047a839171b60405160405180910390a45050565b611344610af7565b61138c576040805162461bcd60e51b815260206004820152601460248201527314185d5cd8589b194e881b9bdd081c185d5cd95960621b604482015290519081900360640190fd5b6033805460ff191690557f5db9ee0a495bf2e6ff9c91a7834c1ba4fdd244a5e8aa4e537bd38aeae4b073aa6113bf611266565b604080516001600160a01b039092168252519081900360200190a1565b60008060006113eb8585610ef6565b6001600160a01b038089166000818152609b60209081526040808320948c1683529381528382204290819055928252609a8152838220929092556099909152208190559194509250905082156114b157609e546040805163d1660f9960e01b81526001600160a01b03928316600482015286831660248201526044810186905290519188169163d1660f999160648082019260009290919082900301818387803b15801561149857600080fd5b505af11580156114ac573d6000803e3d6000fd5b505050505b811561152d57609c546040805163d1660f9960e01b81526001600160a01b03928316600482015286831660248201526044810185905290519188169163d1660f999160648082019260009290919082900301818387803b15801561151457600080fd5b505af1158015611528573d6000803e3d6000fd5b505050505b50935093915050565b604080516001600160a01b0385811660248301528481166044830152606480830185905283518084039091018152608490920183526020820180516001600160e01b03166323b872dd60e01b178152925182516000948594938a169392918291908083835b602083106115ba5780518252601f19909201916020918201910161159b565b6001836020036101000a0380198251168184511680821785525050505050509050019150506000604051808303816000865af19150503d806000811461161c576040519150601f19603f3d011682016040523d82523d6000602084013e611621565b606091505b509150915081801561164f57508051158061164f575080806020019051602081101561164c57600080fd5b50515b61168a5760405162461bcd60e51b8152600401808060200182810382526031815260200180611e666031913960400191505060405180910390fd5b505050505050565b600082820183811015610b97576040805162461bcd60e51b815260206004820152601b60248201527f536166654d6174683a206164646974696f6e206f766572666c6f770000000000604482015290519081900360640190fd5b6116f4610af7565b15611739576040805162461bcd60e51b815260206004820152601060248201526f14185d5cd8589b194e881c185d5cd95960821b604482015290519081900360640190fd5b6033805460ff191660011790557f62e78cea01bee320cd4e420270b5ea74000d11b0c9f74754ebdbfc544b05a2586113bf611266565b6000610b978383611a96565b6000610b97836001600160a01b038416611afa565b6000828211156117e7576040805162461bcd60e51b815260206004820152601e60248201527f536166654d6174683a207375627472616374696f6e206f766572666c6f770000604482015290519081900360640190fd5b50900390565b6000610b9a82611b12565b60008261180757506000610b9a565b8282028284828161181457fe5b0414610b975760405162461bcd60e51b8152600401808060200182810382526021815260200180611ef56021913960400191505060405180910390fd5b60008060006118608686611b16565b915091506000848061186e57fe5b868809905082811115611882576001820391505b9182900391816118a05784838161189557fe5b049350505050611905565b8482106118f4576040805162461bcd60e51b815260206004820152601a60248201527f46756c6c4d6174683a2046554c4c4449565f4f564552464c4f57000000000000604482015290519081900360640190fd5b6118ff838387611b43565b93505050505b9392505050565b600061191730611bb3565b15905090565b600054610100900460ff1680611936575061193661190c565b80611944575060005460ff16155b61197f5760405162461bcd60e51b815260040180806020018281038252602e815260200180611ec7602e913960400191505060405180910390fd5b600054610100900460ff161580156119aa576000805460ff1961ff0019909116610100171660011790555b6119b2611bb9565b6119ba611bb9565b80156119cc576000805461ff00191690555b50565b600054610100900460ff16806119e857506119e861190c565b806119f6575060005460ff16155b611a315760405162461bcd60e51b815260040180806020018281038252602e815260200180611ec7602e913960400191505060405180910390fd5b600054610100900460ff16158015611a5c576000805460ff1961ff0019909116610100171660011790555b611a64611bb9565b6119ba611c59565b6000610b97836001600160a01b038416611d04565b6000610b97836001600160a01b038416611d4e565b81546000908210611ad85760405162461bcd60e51b8152600401808060200182810382526022815260200180611e156022913960400191505060405180910390fd5b826000018281548110611ae757fe5b9060005260206000200154905092915050565b60009081526001919091016020526040902054151590565b5490565b6000808060001984860990508385029250828103915082811015611b3b576001820391505b509250929050565b60008181038216808381611b5357fe5b049250808581611b5f57fe5b049450808160000381611b6e57fe5b60028581038087028203028087028203028087028203028087028203028087028203028087028203029586029003909402930460010193909302939093010292915050565b3b151590565b600054610100900460ff1680611bd25750611bd261190c565b80611be0575060005460ff16155b611c1b5760405162461bcd60e51b815260040180806020018281038252602e815260200180611ec7602e913960400191505060405180910390fd5b600054610100900460ff161580156119ba576000805460ff1961ff00199091166101001716600117905580156119cc576000805461ff001916905550565b600054610100900460ff1680611c725750611c7261190c565b80611c80575060005460ff16155b611cbb5760405162461bcd60e51b815260040180806020018281038252602e815260200180611ec7602e913960400191505060405180910390fd5b600054610100900460ff16158015611ce6576000805460ff1961ff0019909116610100171660011790555b6033805460ff1916905580156119cc576000805461ff001916905550565b6000611d108383611afa565b611d4657508154600181810184556000848152602080822090930184905584548482528286019093526040902091909155610b9a565b506000610b9a565b60008181526001830160205260408120548015611e0a5783546000198083019190810190600090879083908110611d8157fe5b9060005260206000200154905080876000018481548110611d9e57fe5b600091825260208083209091019290925582815260018981019092526040902090840190558654879080611dce57fe5b60019003818190600052602060002001600090559055866001016000878152602001908152602001600020600090556001945050505050610b9a565b6000915050610b9a56fe456e756d657261626c655365743a20696e646578206f7574206f6620626f756e6473416363657373436f6e74726f6c3a2073656e646572206d75737420626520616e2061646d696e20746f206772616e745472616e7366657248656c7065723a3a7472616e7366657246726f6d3a207472616e7366657246726f6d206661696c6564416363657373436f6e74726f6c3a2073656e646572206d75737420626520616e2061646d696e20746f207265766f6b65496e697469616c697a61626c653a20636f6e747261637420697320616c726561647920696e697469616c697a6564536166654d6174683a206d756c7469706c69636174696f6e206f766572666c6f7765d7a28e3265b37a6474929f336521b332c1681b933f6cb9f3376673440d862a416363657373436f6e74726f6c3a2063616e206f6e6c792072656e6f756e636520726f6c657320666f722073656c66a264697066735822122010b48360a7f8f9cb3617f4c0c8fe38086675e3532879e0542117c69cf665ac5c64736f6c63430007060033",
  "immutableReferences": {},
  "source": "// SPDX-License-Identifier: UNLICENSED\npragma solidity >=0.7.0;\n\nimport \"@openzeppelin/contracts-upgradeable/math/SafeMathUpgradeable.sol\";\nimport \"@openzeppelin/contracts-upgradeable/access/AccessControlUpgradeable.sol\";\nimport \"@openzeppelin/contracts-upgradeable/utils/PausableUpgradeable.sol\";\nimport \"./interfaces/ISTokens.sol\";\nimport \"./interfaces/IUTokens.sol\";\nimport \"./interfaces/IPSTAKE.sol\";\nimport \"./interfaces/IHolder.sol\";\nimport \"./interfaces/IStakeLPCore.sol\";\nimport \"./libraries/TransferHelper.sol\";\nimport \"./libraries/FullMath.sol\";\n\ncontract StakeLPCoreV4 is\n\tIStakeLPCore,\n\tPausableUpgradeable,\n\tAccessControlUpgradeable\n{\n\tusing SafeMathUpgradeable for uint256;\n\tusing FullMath for uint256;\n\n\t// constant pertaining to access roles\n\tbytes32 public constant PAUSER_ROLE = keccak256(\"PAUSER_ROLE\");\n\n\t// balance of user for an LP Token\n\tmapping(address => mapping(address => uint256)) public _lpBalance;\n\t// supply for an LP Token\n\tmapping(address => uint256) public _lpSupply;\n\t// last recorded total LPTimeShare\n\tmapping(address => uint256) public _lastLPTimeShare;\n\t// last recorded timestamp when rewards were disbursed\n\tmapping(address => uint256) public _lastLPTimeShareTimestamp;\n\t// last recorded timestamp when PSTAKE tokens were disbursed\n\tmapping(address => mapping(address => uint256))\n\t\tpublic _lastLiquidityTimestamp;\n\n\t//Private instances of contracts to handle Utokens and Stokens\n\tIUTokens public _uTokens;\n\tISTokens public _sTokens;\n\tIPSTAKE public _pstakeTokens;\n\n\t/**\n\t * @dev Constructor for initializing the LiquidStaking contract.\n\t * @param uAddress - address of the UToken contract.\n\t * @param sAddress - address of the SToken contract.\n\t * @param pStakeAddress - address of the pStake contract address.\n\t */\n\tfunction initialize(\n\t\taddress uAddress,\n\t\taddress sAddress,\n\t\taddress pStakeAddress,\n\t\taddress pauserAddress\n\t) public virtual initializer {\n\t\t__AccessControl_init();\n\t\t__Pausable_init();\n\t\t_setupRole(DEFAULT_ADMIN_ROLE, _msgSender());\n\t\t_setupRole(PAUSER_ROLE, pauserAddress);\n\t\tsetUTokensContract(uAddress);\n\t\tsetSTokensContract(sAddress);\n\t\tsetPSTAKEContract(pStakeAddress);\n\t\t// _lastLPTimeShareTimestamp = block.timestamp;\n\t}\n\n\t/*\n\t * @dev calculate liquidity and reward tokens and disburse to user\n\t * @param lpToken: lp token contract address\n\t * @param to: user address\n\t * @param liquidityWeightFactor: coming as an argument for further calculations\n\t * @param rewardWeightFactor: coming as an argument for further calculations\n\t * @param valueDivisor: coming as an argument for further calculations\n\t */\n\tfunction calculatePendingRewardsAndLiquidity(address lpToken, address to)\n\t\tpublic\n\t\tview\n\t\treturns (\n\t\t\tuint256 liquidity,\n\t\t\tuint256 reward,\n\t\t\tuint256 updatedSupplyLPTimeshare\n\t\t)\n\t{\n\t\t// get the balance of user's LP token\n\t\tuint256 _lpBalanceUser = _lpBalance[lpToken][to];\n\t\tuint256 _lpSupplyContract = _lpSupply[lpToken];\n\n\t\t// calculate the LPTimeShare of the user's LP Token\n\t\tuint256 _userLPTimeShare = (\n\t\t\t_lpBalanceUser.mul(\n\t\t\t\tblock.timestamp.sub(_lastLiquidityTimestamp[lpToken][to])\n\t\t\t)\n\t\t);\n\n\t\t// calculate the LPTimeShare of the sum of supply of all LP Tokens\n\t\tuint256 _newSupplyLPTimeShare = (\n\t\t\t_lpSupplyContract.mul(\n\t\t\t\tblock.timestamp.sub(_lastLPTimeShareTimestamp[lpToken])\n\t\t\t)\n\t\t);\n\t\tuint256 _totalSupplyLPTimeShare = _lastLPTimeShare[lpToken].add(\n\t\t\t_newSupplyLPTimeShare\n\t\t);\n\t\t// is the remaining LPTimeShare of the total supply after the tokens for the user has been dispatched\n\t\tupdatedSupplyLPTimeshare = _totalSupplyLPTimeShare.sub(\n\t\t\t_userLPTimeShare\n\t\t);\n\n\t\tif (_totalSupplyLPTimeShare > 0) {\n\t\t\t// calculate users new reward tokens\n\t\t\tuint256 _rewardPool = _uTokens.balanceOf(address(this));\n\t\t\treward = _rewardPool.mulDiv(\n\t\t\t\t_userLPTimeShare,\n\t\t\t\t_totalSupplyLPTimeShare\n\t\t\t);\n\n\t\t\t// calculate users new liquidity tokens\n\t\t\tuint256 _liquidityPool = _pstakeTokens.balanceOf(address(this));\n\t\t\tliquidity = _liquidityPool.mulDiv(\n\t\t\t\t_userLPTimeShare,\n\t\t\t\t_totalSupplyLPTimeShare\n\t\t\t);\n\t\t}\n\t}\n\n\t/*\n\t * @dev calculate liquidity and reward tokens and disburse to user\n\t * @param lpToken: lp token contract address\n\t * @param to: user address\n\t * @param liquidityWeightFactor: coming as an argument for further calculations\n\t * @param rewardWeightFactor: coming as an argument for further calculations\n\t * @param valueDivisor: coming as an argument for further calculations\n\t */\n\tfunction _calculateRewardsAndLiquidity(\n\t\taddress holderAddress,\n\t\taddress lpToken,\n\t\taddress to\n\t) internal returns (uint256 liquidity, uint256 reward) {\n\t\tuint256 updatedSupplyLPTimeshare;\n\t\t(\n\t\t\tliquidity,\n\t\t\treward,\n\t\t\tupdatedSupplyLPTimeshare\n\t\t) = calculatePendingRewardsAndLiquidity(lpToken, to);\n\n\t\t// update last timestamps and LPTimeShares as per Checks-Effects-Interactions pattern\n\t\t_lastLiquidityTimestamp[lpToken][to] = block.timestamp;\n\t\t_lastLPTimeShareTimestamp[lpToken] = block.timestamp;\n\t\t_lastLPTimeShare[lpToken] = updatedSupplyLPTimeshare;\n\n\t\t// DISBURSE THE LIQUIDITY TOKENS TO USER (transfer)\n\t\tif (liquidity > 0)\n\t\t\tIHolder(holderAddress).safeTransfer(\n\t\t\t\taddress(_pstakeTokens),\n\t\t\t\tto,\n\t\t\t\tliquidity\n\t\t\t);\n\n\t\t// DISBURSE THE REWARD TOKENS TO USER (transfer)\n\t\tif (reward > 0)\n\t\t\tIHolder(holderAddress).safeTransfer(address(_uTokens), to, reward);\n\t}\n\n\t/*\n\t * @dev calculate liquidity and reward tokens and disburse to user\n\t * @param lpToken: lp token contract address\n\t * @param amount: token amount\n\t */\n\tfunction calculateRewardsAndLiquidity(address lpToken, uint256 amount)\n\t\tinternal\n\t\twhenNotPaused\n\t\treturns (uint256 liquidity, uint256 reward)\n\t{\n\t\t// check for validity of arguments\n\t\trequire(amount > 0 && lpToken != address(0), \"LP2\");\n\n\t\t// check if lpToken contract of DeFi product address is whitelisted and has valid holder contract\n\t\t(bool _isContractWhitelisted, address _holderAddress) = _sTokens\n\t\t\t.isContractWhitelisted(lpToken);\n\t\trequire(_isContractWhitelisted && _holderAddress != address(0), \"LP5\");\n\n\t\t// calculate liquidity and reward tokens and disburse to user\n\t\t(liquidity, reward) = _calculateRewardsAndLiquidity(\n\t\t\t_holderAddress,\n\t\t\tlpToken,\n\t\t\t_msgSender()\n\t\t);\n\t\tCalculateRewardsAndLiquidity(\n\t\t\t_holderAddress,\n\t\t\tlpToken,\n\t\t\tamount,\n\t\t\t_msgSender(),\n\t\t\tliquidity,\n\t\t\treward\n\t\t);\n\t}\n\n\t/*\n\t * @dev adding the liquidity\n\t * @param lpToken: lp token contract address\n\t * @param amount: token amount\n\t *\n\t * Emits a {AddLiquidity} event with 'lpToken, amount, rewards and liquidity'\n\t *\n\t */\n\tfunction addLiquidity(address lpToken, uint256 amount)\n\t\tpublic\n\t\tvirtual\n\t\toverride\n\t\twhenNotPaused\n\t\treturns (uint256 liquidity, uint256 rewards)\n\t{\n\t\t// check for validity of arguments\n\t\trequire(amount > 0 && lpToken != address(0), \"LP4\");\n\n\t\t// check if lpToken contract of DeFi product address is whitelisted and has valid holder contract\n\t\t(bool _isContractWhitelisted, address _holderAddress) = _sTokens\n\t\t\t.isContractWhitelisted(lpToken);\n\t\trequire(_isContractWhitelisted && _holderAddress != address(0), \"LP5\");\n\n\t\taddress messageSender = _msgSender();\n\n\t\t// calculate liquidity and reward tokens and disburse to user\n\t\t(rewards, liquidity) = _calculateRewardsAndLiquidity(\n\t\t\t_holderAddress,\n\t\t\tlpToken,\n\t\t\tmessageSender\n\t\t);\n\t\t// finally transfer the new LP Tokens to the StakeLP contract\n\t\tTransferHelper.safeTransferFrom(\n\t\t\tlpToken,\n\t\t\tmessageSender,\n\t\t\taddress(this),\n\t\t\tamount\n\t\t);\n\t\t// update the user balance\n\t\t_lpBalance[lpToken][messageSender] = _lpBalance[lpToken][messageSender]\n\t\t\t.add(amount);\n\t\t// update the supply of lp tokens for reward and liquidity calculation\n\t\t_lpSupply[lpToken] = _lpSupply[lpToken].add(amount);\n\t\temit AddLiquidity(lpToken, amount, rewards, liquidity);\n\t}\n\n\t/*\n\t * @dev removing the liquidity\n\t * @param lpToken: lp token contract address\n\t * @param amount: token amount\n\t *\n\t * Emits a {RemoveLiquidity} event with 'lpToken, amount, rewards and liquidity'\n\t *\n\t */\n\tfunction removeLiquidity(address lpToken, uint256 amount)\n\t\tpublic\n\t\tvirtual\n\t\toverride\n\t\twhenNotPaused\n\t\treturns (uint256 liquidity, uint256 rewards)\n\t{\n\t\t// check for validity of arguments\n\t\trequire(amount > 0 && lpToken != address(0), \"LP6\");\n\n\t\t// check if lpToken contract of DeFi product address is whitelisted and has valid holder contract\n\t\t(bool _isContractWhitelisted, address _holderAddress) = _sTokens\n\t\t\t.isContractWhitelisted(lpToken);\n\t\trequire(_isContractWhitelisted && _holderAddress != address(0), \"LP5\");\n\n\t\taddress messageSender = _msgSender();\n\n\t\t// check if suffecient balance is there\n\t\trequire(_lpBalance[lpToken][messageSender] >= amount, \"LP8\");\n\n\t\t// calculate liquidity and reward tokens and disburse to user\n\t\t(rewards, liquidity) = _calculateRewardsAndLiquidity(\n\t\t\t_holderAddress,\n\t\t\tlpToken,\n\t\t\tmessageSender\n\t\t);\n\t\t// finally transfer the LP Tokens to the user\n\t\tTransferHelper.safeTransferFrom(\n\t\t\tlpToken,\n\t\t\taddress(this),\n\t\t\tmessageSender,\n\t\t\tamount\n\t\t);\n\t\t// update the user balance\n\t\t_lpBalance[lpToken][messageSender] = _lpBalance[lpToken][messageSender]\n\t\t\t.sub(amount);\n\t\t// update the supply of lp tokens for reward and liquidity calculation\n\t\t_lpSupply[lpToken] = _lpSupply[lpToken].sub(amount);\n\t\temit RemoveLiquidity(lpToken, amount, rewards, liquidity);\n\t}\n\n\t/**\n\t * @dev Set 'contract address', called from constructor\n\t * @param uAddress: utoken contract address\n\t *\n\t * Emits a {SetUTokensContract} event with '_contract' set to the utoken contract address.\n\t *\n\t */\n\tfunction setUTokensContract(address uAddress) public virtual override {\n\t\trequire(hasRole(DEFAULT_ADMIN_ROLE, _msgSender()), \"LP9\");\n\t\t_uTokens = IUTokens(uAddress);\n\t\temit SetUTokensContract(uAddress);\n\t}\n\n\t/**\n\t * @dev Set 'contract address', called from constructor\n\t * @param sAddress: stoken contract address\n\t *\n\t * Emits a {SetSTokensContract} event with '_contract' set to the stoken contract address.\n\t *\n\t */\n\tfunction setSTokensContract(address sAddress) public virtual override {\n\t\trequire(hasRole(DEFAULT_ADMIN_ROLE, _msgSender()), \"LP10\");\n\t\t_sTokens = ISTokens(sAddress);\n\t\temit SetSTokensContract(sAddress);\n\t}\n\n\t/**\n\t * @dev Set 'contract address', called from constructor\n\t * @param pstakeAddress: pStake contract address\n\t *\n\t * Emits a {SetPSTAKEContract} event with '_contract' set to the stoken contract address.\n\t *\n\t */\n\tfunction setPSTAKEContract(address pstakeAddress) public virtual override {\n\t\trequire(hasRole(DEFAULT_ADMIN_ROLE, _msgSender()), \"LP11\");\n\t\t_pstakeTokens = IPSTAKE(pstakeAddress);\n\t\temit SetPSTAKEContract(pstakeAddress);\n\t}\n\n\t/**\n\t * @dev Triggers stopped state.\n\t *\n\t * Requirements:\n\t *\n\t * - The contract must not be paused.\n\t */\n\tfunction pause() public virtual returns (bool success) {\n\t\trequire(hasRole(PAUSER_ROLE, _msgSender()), \"LP12\");\n\t\t_pause();\n\t\treturn true;\n\t}\n\n\t/**\n\t * @dev Returns to normal state.\n\t *\n\t * Requirements:\n\t *\n\t * - The contract must be paused.\n\t */\n\tfunction unpause() public virtual returns (bool success) {\n\t\trequire(hasRole(PAUSER_ROLE, _msgSender()), \"LP13\");\n\t\t_unpause();\n\t\treturn true;\n\t}\n}\n",
  "sourcePath": "C:\\Users\\Kamlesh\\Persistence\\pStake\\codebase\\pStake-smartContracts\\contracts\\StakeLPCoreV4.sol",
  "compiler": {
    "name": "solc",
    "version": "0.7.6+commit.7338295f.Emscripten.clang"
  },
  "schemaVersion": "3.4.3",
  "updatedAt": "2021-09-16T09:49:10.031Z",
  "devdoc": {
    "kind": "dev",
    "methods": {
      "addLiquidity(address,uint256)": {
        "details": "adds liquidity Returns a uint256"
      },
      "getRoleAdmin(bytes32)": {
        "details": "Returns the admin role that controls `role`. See {grantRole} and {revokeRole}. To change a role's admin, use {_setRoleAdmin}."
      },
      "getRoleMember(bytes32,uint256)": {
        "details": "Returns one of the accounts that have `role`. `index` must be a value between 0 and {getRoleMemberCount}, non-inclusive. Role bearers are not sorted in any particular way, and their ordering may change at any point. WARNING: When using {getRoleMember} and {getRoleMemberCount}, make sure you perform all queries on the same block. See the following https://forum.openzeppelin.com/t/iterating-over-elements-on-enumerableset-in-openzeppelin-contracts/2296[forum post] for more information."
      },
      "getRoleMemberCount(bytes32)": {
        "details": "Returns the number of accounts that have `role`. Can be used together with {getRoleMember} to enumerate all bearers of a role."
      },
      "grantRole(bytes32,address)": {
        "details": "Grants `role` to `account`. If `account` had not been already granted `role`, emits a {RoleGranted} event. Requirements: - the caller must have ``role``'s admin role."
      },
      "hasRole(bytes32,address)": {
        "details": "Returns `true` if `account` has been granted `role`."
      },
      "initialize(address,address,address,address)": {
        "details": "Constructor for initializing the LiquidStaking contract.",
        "params": {
          "pStakeAddress": "- address of the pStake contract address.",
          "sAddress": "- address of the SToken contract.",
          "uAddress": "- address of the UToken contract."
        }
      },
      "pause()": {
        "details": "Triggers stopped state. Requirements: - The contract must not be paused."
      },
      "paused()": {
        "details": "Returns true if the contract is paused, and false otherwise."
      },
      "removeLiquidity(address,uint256)": {
        "details": "remove liquidity Returns a uint256"
      },
      "renounceRole(bytes32,address)": {
        "details": "Revokes `role` from the calling account. Roles are often managed via {grantRole} and {revokeRole}: this function's purpose is to provide a mechanism for accounts to lose their privileges if they are compromised (such as when a trusted device is misplaced). If the calling account had been granted `role`, emits a {RoleRevoked} event. Requirements: - the caller must be `account`."
      },
      "revokeRole(bytes32,address)": {
        "details": "Revokes `role` from `account`. If `account` had been granted `role`, emits a {RoleRevoked} event. Requirements: - the caller must have ``role``'s admin role."
      },
      "setPSTAKEContract(address)": {
        "details": "Set 'contract address', called from constructor",
        "params": {
          "pstakeAddress": ": pStake contract address Emits a {SetPSTAKEContract} event with '_contract' set to the stoken contract address."
        }
      },
      "setSTokensContract(address)": {
        "details": "Set 'contract address', called from constructor",
        "params": {
          "sAddress": ": stoken contract address Emits a {SetSTokensContract} event with '_contract' set to the stoken contract address."
        }
      },
      "setUTokensContract(address)": {
        "details": "Set 'contract address', called from constructor",
        "params": {
          "uAddress": ": utoken contract address Emits a {SetUTokensContract} event with '_contract' set to the utoken contract address."
        }
      },
      "unpause()": {
        "details": "Returns to normal state. Requirements: - The contract must be paused."
      }
    },
    "version": 1
  },
  "userdoc": {
    "kind": "user",
    "methods": {},
    "version": 1
  }
}