{
  "contractName": "StakeLPCoreV8",
  "abi": [
    {
      "anonymous": false,
      "inputs": [
        {
          "indexed": false,
          "internalType": "address",
          "name": "lpToken",
          "type": "address"
        },
        {
          "indexed": false,
          "internalType": "uint256",
          "name": "amount",
          "type": "uint256"
        },
        {
          "indexed": false,
          "internalType": "uint256",
          "name": "timestamp",
          "type": "uint256"
        }
      ],
      "name": "AddLiquidity",
      "type": "event"
    },
    {
      "anonymous": false,
      "inputs": [
        {
          "indexed": true,
          "internalType": "address",
          "name": "holderAddress",
          "type": "address"
        },
        {
          "indexed": true,
          "internalType": "address",
          "name": "lpToken",
          "type": "address"
        },
        {
          "indexed": true,
          "internalType": "address",
          "name": "to",
          "type": "address"
        },
        {
          "indexed": false,
          "internalType": "uint256",
          "name": "reward",
          "type": "uint256"
        },
        {
          "indexed": false,
          "internalType": "uint256[]",
          "name": "otherRewardAmounts",
          "type": "uint256[]"
        },
        {
          "indexed": false,
          "internalType": "address[]",
          "name": "otherRewardTokens",
          "type": "address[]"
        },
        {
          "indexed": false,
          "internalType": "uint256",
          "name": "timestamp",
          "type": "uint256"
        }
      ],
      "name": "CalculateRewards",
      "type": "event"
    },
    {
      "anonymous": false,
      "inputs": [
        {
          "indexed": false,
          "internalType": "address",
          "name": "account",
          "type": "address"
        }
      ],
      "name": "Paused",
      "type": "event"
    },
    {
      "anonymous": false,
      "inputs": [
        {
          "indexed": false,
          "internalType": "address",
          "name": "holderContractAddress",
          "type": "address"
        },
        {
          "indexed": false,
          "internalType": "uint256",
          "name": "timestamp",
          "type": "uint256"
        }
      ],
      "name": "RemoveHolderAddressForRewards",
      "type": "event"
    },
    {
      "anonymous": false,
      "inputs": [
        {
          "indexed": false,
          "internalType": "address[]",
          "name": "holderContractAddresses",
          "type": "address[]"
        },
        {
          "indexed": false,
          "internalType": "uint256",
          "name": "timestamp",
          "type": "uint256"
        }
      ],
      "name": "RemoveHolderAddressesForRewards",
      "type": "event"
    },
    {
      "anonymous": false,
      "inputs": [
        {
          "indexed": false,
          "internalType": "address",
          "name": "lpToken",
          "type": "address"
        },
        {
          "indexed": false,
          "internalType": "uint256",
          "name": "amount",
          "type": "uint256"
        },
        {
          "indexed": false,
          "internalType": "uint256",
          "name": "timestamp",
          "type": "uint256"
        }
      ],
      "name": "RemoveLiquidity",
      "type": "event"
    },
    {
      "anonymous": false,
      "inputs": [
        {
          "indexed": false,
          "internalType": "address",
          "name": "holderContractAddress",
          "type": "address"
        },
        {
          "indexed": false,
          "internalType": "address[]",
          "name": "rewardTokenContractAddress",
          "type": "address[]"
        },
        {
          "indexed": false,
          "internalType": "uint256",
          "name": "timestamp",
          "type": "uint256"
        }
      ],
      "name": "RemoveTokenContractForRewards",
      "type": "event"
    },
    {
      "anonymous": false,
      "inputs": [
        {
          "indexed": false,
          "internalType": "address[]",
          "name": "holderContractAddresses",
          "type": "address[]"
        },
        {
          "indexed": false,
          "internalType": "address[]",
          "name": "rewardTokenContractAddress",
          "type": "address[]"
        },
        {
          "indexed": false,
          "internalType": "uint256",
          "name": "timestamp",
          "type": "uint256"
        }
      ],
      "name": "RemoveTokenContractsForRewards",
      "type": "event"
    },
    {
      "anonymous": false,
      "inputs": [
        {
          "indexed": true,
          "internalType": "bytes32",
          "name": "role",
          "type": "bytes32"
        },
        {
          "indexed": true,
          "internalType": "bytes32",
          "name": "previousAdminRole",
          "type": "bytes32"
        },
        {
          "indexed": true,
          "internalType": "bytes32",
          "name": "newAdminRole",
          "type": "bytes32"
        }
      ],
      "name": "RoleAdminChanged",
      "type": "event"
    },
    {
      "anonymous": false,
      "inputs": [
        {
          "indexed": true,
          "internalType": "bytes32",
          "name": "role",
          "type": "bytes32"
        },
        {
          "indexed": true,
          "internalType": "address",
          "name": "account",
          "type": "address"
        },
        {
          "indexed": true,
          "internalType": "address",
          "name": "sender",
          "type": "address"
        }
      ],
      "name": "RoleGranted",
      "type": "event"
    },
    {
      "anonymous": false,
      "inputs": [
        {
          "indexed": true,
          "internalType": "bytes32",
          "name": "role",
          "type": "bytes32"
        },
        {
          "indexed": true,
          "internalType": "address",
          "name": "account",
          "type": "address"
        },
        {
          "indexed": true,
          "internalType": "address",
          "name": "sender",
          "type": "address"
        }
      ],
      "name": "RoleRevoked",
      "type": "event"
    },
    {
      "anonymous": false,
      "inputs": [
        {
          "indexed": false,
          "internalType": "address",
          "name": "holderContractAddress",
          "type": "address"
        },
        {
          "indexed": false,
          "internalType": "address[]",
          "name": "rewardTokenContractAddress",
          "type": "address[]"
        },
        {
          "indexed": false,
          "internalType": "uint256[]",
          "name": "rewardTokenEmissions",
          "type": "uint256[]"
        },
        {
          "indexed": false,
          "internalType": "uint256",
          "name": "timestamp",
          "type": "uint256"
        }
      ],
      "name": "SetHolderAddressForRewards",
      "type": "event"
    },
    {
      "anonymous": false,
      "inputs": [
        {
          "indexed": false,
          "internalType": "address[]",
          "name": "holderContractAddresses",
          "type": "address[]"
        },
        {
          "indexed": false,
          "internalType": "address[]",
          "name": "rewardTokenContractAddress",
          "type": "address[]"
        },
        {
          "indexed": false,
          "internalType": "uint256[]",
          "name": "rewardTokenEmissions",
          "type": "uint256[]"
        },
        {
          "indexed": false,
          "internalType": "uint256",
          "name": "timestamp",
          "type": "uint256"
        }
      ],
      "name": "SetHolderAddressesForRewards",
      "type": "event"
    },
    {
      "anonymous": false,
      "inputs": [
        {
          "indexed": true,
          "internalType": "address",
          "name": "_contract",
          "type": "address"
        }
      ],
      "name": "SetPSTAKEContract",
      "type": "event"
    },
    {
      "anonymous": false,
      "inputs": [
        {
          "indexed": true,
          "internalType": "address",
          "name": "_contract",
          "type": "address"
        }
      ],
      "name": "SetSTokensContract",
      "type": "event"
    },
    {
      "anonymous": false,
      "inputs": [
        {
          "indexed": true,
          "internalType": "address",
          "name": "_contract",
          "type": "address"
        }
      ],
      "name": "SetUTokensContract",
      "type": "event"
    },
    {
      "anonymous": false,
      "inputs": [
        {
          "indexed": true,
          "internalType": "address",
          "name": "holderAddress",
          "type": "address"
        },
        {
          "indexed": true,
          "internalType": "address",
          "name": "lpToken",
          "type": "address"
        },
        {
          "indexed": true,
          "internalType": "address",
          "name": "to",
          "type": "address"
        },
        {
          "indexed": false,
          "internalType": "uint256",
          "name": "reward",
          "type": "uint256"
        },
        {
          "indexed": false,
          "internalType": "uint256[]",
          "name": "otherRewardAmounts",
          "type": "uint256[]"
        },
        {
          "indexed": false,
          "internalType": "address[]",
          "name": "otherRewardTokens",
          "type": "address[]"
        },
        {
          "indexed": false,
          "internalType": "uint256",
          "name": "timestamp",
          "type": "uint256"
        }
      ],
      "name": "TriggeredCalculateRewards",
      "type": "event"
    },
    {
      "anonymous": false,
      "inputs": [
        {
          "indexed": true,
          "internalType": "address",
          "name": "holderAddress",
          "type": "address"
        },
        {
          "indexed": true,
          "internalType": "address",
          "name": "lpToken",
          "type": "address"
        },
        {
          "indexed": true,
          "internalType": "address",
          "name": "to",
          "type": "address"
        },
        {
          "indexed": false,
          "internalType": "uint256",
          "name": "reward",
          "type": "uint256"
        },
        {
          "indexed": false,
          "internalType": "uint256",
          "name": "holderReward",
          "type": "uint256"
        },
        {
          "indexed": false,
          "internalType": "uint256[]",
          "name": "otherRewardAmounts",
          "type": "uint256[]"
        },
        {
          "indexed": false,
          "internalType": "address[]",
          "name": "otherRewardTokens",
          "type": "address[]"
        },
        {
          "indexed": false,
          "internalType": "uint256",
          "name": "timestamp",
          "type": "uint256"
        }
      ],
      "name": "TriggeredCalculateSyncedRewards",
      "type": "event"
    },
    {
      "anonymous": false,
      "inputs": [
        {
          "indexed": false,
          "internalType": "address",
          "name": "account",
          "type": "address"
        }
      ],
      "name": "Unpaused",
      "type": "event"
    },
    {
      "inputs": [],
      "name": "DEFAULT_ADMIN_ROLE",
      "outputs": [
        {
          "internalType": "bytes32",
          "name": "",
          "type": "bytes32"
        }
      ],
      "stateMutability": "view",
      "type": "function"
    },
    {
      "inputs": [],
      "name": "PAUSER_ROLE",
      "outputs": [
        {
          "internalType": "bytes32",
          "name": "",
          "type": "bytes32"
        }
      ],
      "stateMutability": "view",
      "type": "function"
    },
    {
      "inputs": [
        {
          "internalType": "address",
          "name": "",
          "type": "address"
        }
      ],
      "name": "_lastLPTimeShare",
      "outputs": [
        {
          "internalType": "uint256",
          "name": "",
          "type": "uint256"
        }
      ],
      "stateMutability": "view",
      "type": "function"
    },
    {
      "inputs": [
        {
          "internalType": "address",
          "name": "",
          "type": "address"
        }
      ],
      "name": "_lastLPTimeShareTimestamp",
      "outputs": [
        {
          "internalType": "uint256",
          "name": "",
          "type": "uint256"
        }
      ],
      "stateMutability": "view",
      "type": "function"
    },
    {
      "inputs": [
        {
          "internalType": "address",
          "name": "",
          "type": "address"
        },
        {
          "internalType": "address",
          "name": "",
          "type": "address"
        }
      ],
      "name": "_lastLiquidityTimestamp",
      "outputs": [
        {
          "internalType": "uint256",
          "name": "",
          "type": "uint256"
        }
      ],
      "stateMutability": "view",
      "type": "function"
    },
    {
      "inputs": [
        {
          "internalType": "address",
          "name": "",
          "type": "address"
        },
        {
          "internalType": "address",
          "name": "",
          "type": "address"
        }
      ],
      "name": "_lastRewardPoolBalance",
      "outputs": [
        {
          "internalType": "uint256",
          "name": "",
          "type": "uint256"
        }
      ],
      "stateMutability": "view",
      "type": "function"
    },
    {
      "inputs": [
        {
          "internalType": "address",
          "name": "",
          "type": "address"
        },
        {
          "internalType": "address",
          "name": "",
          "type": "address"
        }
      ],
      "name": "_lastRewardPoolBalanceTimestamp",
      "outputs": [
        {
          "internalType": "uint256",
          "name": "",
          "type": "uint256"
        }
      ],
      "stateMutability": "view",
      "type": "function"
    },
    {
      "inputs": [
        {
          "internalType": "address",
          "name": "",
          "type": "address"
        },
        {
          "internalType": "address",
          "name": "",
          "type": "address"
        }
      ],
      "name": "_lpBalance",
      "outputs": [
        {
          "internalType": "uint256",
          "name": "",
          "type": "uint256"
        }
      ],
      "stateMutability": "view",
      "type": "function"
    },
    {
      "inputs": [
        {
          "internalType": "address",
          "name": "",
          "type": "address"
        }
      ],
      "name": "_lpSupply",
      "outputs": [
        {
          "internalType": "uint256",
          "name": "",
          "type": "uint256"
        }
      ],
      "stateMutability": "view",
      "type": "function"
    },
    {
      "inputs": [],
      "name": "_pstakeTokens",
      "outputs": [
        {
          "internalType": "contract IPSTAKE",
          "name": "",
          "type": "address"
        }
      ],
      "stateMutability": "view",
      "type": "function"
    },
    {
      "inputs": [
        {
          "internalType": "address",
          "name": "",
          "type": "address"
        },
        {
          "internalType": "address",
          "name": "",
          "type": "address"
        }
      ],
      "name": "_rewardTokenEmission",
      "outputs": [
        {
          "internalType": "uint256",
          "name": "",
          "type": "uint256"
        }
      ],
      "stateMutability": "view",
      "type": "function"
    },
    {
      "inputs": [
        {
          "internalType": "address",
          "name": "",
          "type": "address"
        },
        {
          "internalType": "uint256",
          "name": "",
          "type": "uint256"
        }
      ],
      "name": "_rewardTokenList",
      "outputs": [
        {
          "internalType": "address",
          "name": "",
          "type": "address"
        }
      ],
      "stateMutability": "view",
      "type": "function"
    },
    {
      "inputs": [
        {
          "internalType": "address",
          "name": "",
          "type": "address"
        },
        {
          "internalType": "address",
          "name": "",
          "type": "address"
        }
      ],
      "name": "_rewardTokenListIndex",
      "outputs": [
        {
          "internalType": "uint256",
          "name": "",
          "type": "uint256"
        }
      ],
      "stateMutability": "view",
      "type": "function"
    },
    {
      "inputs": [],
      "name": "_sTokens",
      "outputs": [
        {
          "internalType": "contract ISTokens",
          "name": "",
          "type": "address"
        }
      ],
      "stateMutability": "view",
      "type": "function"
    },
    {
      "inputs": [],
      "name": "_uTokens",
      "outputs": [
        {
          "internalType": "contract IUTokens",
          "name": "",
          "type": "address"
        }
      ],
      "stateMutability": "view",
      "type": "function"
    },
    {
      "inputs": [],
      "name": "_valueDivisor",
      "outputs": [
        {
          "internalType": "uint256",
          "name": "",
          "type": "uint256"
        }
      ],
      "stateMutability": "view",
      "type": "function"
    },
    {
      "inputs": [
        {
          "internalType": "bytes32",
          "name": "role",
          "type": "bytes32"
        }
      ],
      "name": "getRoleAdmin",
      "outputs": [
        {
          "internalType": "bytes32",
          "name": "",
          "type": "bytes32"
        }
      ],
      "stateMutability": "view",
      "type": "function"
    },
    {
      "inputs": [
        {
          "internalType": "bytes32",
          "name": "role",
          "type": "bytes32"
        },
        {
          "internalType": "uint256",
          "name": "index",
          "type": "uint256"
        }
      ],
      "name": "getRoleMember",
      "outputs": [
        {
          "internalType": "address",
          "name": "",
          "type": "address"
        }
      ],
      "stateMutability": "view",
      "type": "function"
    },
    {
      "inputs": [
        {
          "internalType": "bytes32",
          "name": "role",
          "type": "bytes32"
        }
      ],
      "name": "getRoleMemberCount",
      "outputs": [
        {
          "internalType": "uint256",
          "name": "",
          "type": "uint256"
        }
      ],
      "stateMutability": "view",
      "type": "function"
    },
    {
      "inputs": [
        {
          "internalType": "bytes32",
          "name": "role",
          "type": "bytes32"
        },
        {
          "internalType": "address",
          "name": "account",
          "type": "address"
        }
      ],
      "name": "grantRole",
      "outputs": [],
      "stateMutability": "nonpayable",
      "type": "function"
    },
    {
      "inputs": [
        {
          "internalType": "bytes32",
          "name": "role",
          "type": "bytes32"
        },
        {
          "internalType": "address",
          "name": "account",
          "type": "address"
        }
      ],
      "name": "hasRole",
      "outputs": [
        {
          "internalType": "bool",
          "name": "",
          "type": "bool"
        }
      ],
      "stateMutability": "view",
      "type": "function"
    },
    {
      "inputs": [],
      "name": "paused",
      "outputs": [
        {
          "internalType": "bool",
          "name": "",
          "type": "bool"
        }
      ],
      "stateMutability": "view",
      "type": "function"
    },
    {
      "inputs": [
        {
          "internalType": "bytes32",
          "name": "role",
          "type": "bytes32"
        },
        {
          "internalType": "address",
          "name": "account",
          "type": "address"
        }
      ],
      "name": "renounceRole",
      "outputs": [],
      "stateMutability": "nonpayable",
      "type": "function"
    },
    {
      "inputs": [
        {
          "internalType": "bytes32",
          "name": "role",
          "type": "bytes32"
        },
        {
          "internalType": "address",
          "name": "account",
          "type": "address"
        }
      ],
      "name": "revokeRole",
      "outputs": [],
      "stateMutability": "nonpayable",
      "type": "function"
    },
    {
      "inputs": [
        {
          "internalType": "address",
          "name": "uAddress",
          "type": "address"
        },
        {
          "internalType": "address",
          "name": "sAddress",
          "type": "address"
        },
        {
          "internalType": "address",
          "name": "pStakeAddress",
          "type": "address"
        },
        {
          "internalType": "address",
          "name": "pauserAddress",
          "type": "address"
        },
        {
          "internalType": "uint256",
          "name": "valueDivisor",
          "type": "uint256"
        }
      ],
      "name": "initialize",
      "outputs": [],
      "stateMutability": "nonpayable",
      "type": "function"
    },
    {
      "inputs": [],
      "name": "upgradeToV8",
      "outputs": [],
      "stateMutability": "nonpayable",
      "type": "function"
    },
    {
      "inputs": [
        {
          "internalType": "address",
          "name": "holderAddress",
          "type": "address"
        },
        {
          "internalType": "address",
          "name": "lpToken",
          "type": "address"
        },
        {
          "internalType": "address",
          "name": "to",
          "type": "address"
        }
      ],
      "name": "calculatePendingRewards",
      "outputs": [
        {
          "internalType": "uint256",
          "name": "reward",
          "type": "uint256"
        },
        {
          "internalType": "uint256[]",
          "name": "otherRewardAmounts",
          "type": "uint256[]"
        },
        {
          "internalType": "address[]",
          "name": "otherRewardTokens",
          "type": "address[]"
        },
        {
          "internalType": "uint256[]",
          "name": "updatedRewardPoolBalances",
          "type": "uint256[]"
        },
        {
          "internalType": "uint256",
          "name": "updatedSupplyLPTimeshare",
          "type": "uint256"
        }
      ],
      "stateMutability": "view",
      "type": "function"
    },
    {
      "inputs": [
        {
          "internalType": "address",
          "name": "whitelistedAddress",
          "type": "address"
        }
      ],
      "name": "calculateRewards",
      "outputs": [
        {
          "internalType": "uint256",
          "name": "reward",
          "type": "uint256"
        },
        {
          "internalType": "uint256[]",
          "name": "otherRewardAmounts",
          "type": "uint256[]"
        },
        {
          "internalType": "address[]",
          "name": "otherRewardTokens",
          "type": "address[]"
        }
      ],
      "stateMutability": "nonpayable",
      "type": "function"
    },
    {
      "inputs": [
        {
          "internalType": "address",
          "name": "whitelistedAddress",
          "type": "address"
        }
      ],
      "name": "calculateSyncedRewards",
      "outputs": [
        {
          "internalType": "uint256",
          "name": "reward",
          "type": "uint256"
        },
        {
          "internalType": "uint256",
          "name": "holderReward",
          "type": "uint256"
        },
        {
          "internalType": "uint256[]",
          "name": "otherRewardAmounts",
          "type": "uint256[]"
        },
        {
          "internalType": "address[]",
          "name": "otherRewardTokens",
          "type": "address[]"
        }
      ],
      "stateMutability": "nonpayable",
      "type": "function"
    },
    {
      "inputs": [
        {
          "internalType": "address",
          "name": "whitelistedAddress",
          "type": "address"
        },
        {
          "internalType": "uint256",
          "name": "amount",
          "type": "uint256"
        }
      ],
      "name": "addLiquidity",
      "outputs": [
        {
          "internalType": "bool",
          "name": "success",
          "type": "bool"
        }
      ],
      "stateMutability": "nonpayable",
      "type": "function"
    },
    {
      "inputs": [
        {
          "internalType": "address",
          "name": "whitelistedAddress",
          "type": "address"
        },
        {
          "internalType": "uint256",
          "name": "amount",
          "type": "uint256"
        }
      ],
      "name": "removeLiquidity",
      "outputs": [
        {
          "internalType": "bool",
          "name": "success",
          "type": "bool"
        }
      ],
      "stateMutability": "nonpayable",
      "type": "function"
    },
    {
      "inputs": [
        {
          "internalType": "address",
          "name": "uAddress",
          "type": "address"
        }
      ],
      "name": "setUTokensContract",
      "outputs": [],
      "stateMutability": "nonpayable",
      "type": "function"
    },
    {
      "inputs": [
        {
          "internalType": "address",
          "name": "sAddress",
          "type": "address"
        }
      ],
      "name": "setSTokensContract",
      "outputs": [],
      "stateMutability": "nonpayable",
      "type": "function"
    },
    {
      "inputs": [
        {
          "internalType": "address",
          "name": "pstakeAddress",
          "type": "address"
        }
      ],
      "name": "setPSTAKEContract",
      "outputs": [],
      "stateMutability": "nonpayable",
      "type": "function"
    },
    {
      "inputs": [
        {
          "internalType": "address",
          "name": "holderContractAddress",
          "type": "address"
        },
        {
          "internalType": "address[]",
          "name": "rewardTokenContractAddresses",
          "type": "address[]"
        },
        {
          "internalType": "uint256[]",
          "name": "rewardTokenEmissions",
          "type": "uint256[]"
        }
      ],
      "name": "setHolderAddressForRewards",
      "outputs": [
        {
          "internalType": "bool",
          "name": "success",
          "type": "bool"
        }
      ],
      "stateMutability": "nonpayable",
      "type": "function"
    },
    {
      "inputs": [
        {
          "internalType": "address[]",
          "name": "holderContractAddresses",
          "type": "address[]"
        },
        {
          "internalType": "address[]",
          "name": "rewardTokenContractAddresses",
          "type": "address[]"
        },
        {
          "internalType": "uint256[]",
          "name": "rewardTokenEmissions",
          "type": "uint256[]"
        }
      ],
      "name": "setHolderAddressesForRewards",
      "outputs": [
        {
          "internalType": "bool",
          "name": "success",
          "type": "bool"
        }
      ],
      "stateMutability": "nonpayable",
      "type": "function"
    },
    {
      "inputs": [
        {
          "internalType": "address",
          "name": "holderContractAddress",
          "type": "address"
        }
      ],
      "name": "removeHolderAddressForRewards",
      "outputs": [
        {
          "internalType": "bool",
          "name": "success",
          "type": "bool"
        }
      ],
      "stateMutability": "nonpayable",
      "type": "function"
    },
    {
      "inputs": [
        {
          "internalType": "address[]",
          "name": "holderContractAddresses",
          "type": "address[]"
        }
      ],
      "name": "removeHolderAddressesForRewards",
      "outputs": [
        {
          "internalType": "bool",
          "name": "success",
          "type": "bool"
        }
      ],
      "stateMutability": "nonpayable",
      "type": "function"
    },
    {
      "inputs": [
        {
          "internalType": "address",
          "name": "holderContractAddress",
          "type": "address"
        },
        {
          "internalType": "address[]",
          "name": "rewardTokenContractAddresses",
          "type": "address[]"
        }
      ],
      "name": "removeTokenContractForRewards",
      "outputs": [
        {
          "internalType": "bool",
          "name": "success",
          "type": "bool"
        }
      ],
      "stateMutability": "nonpayable",
      "type": "function"
    },
    {
      "inputs": [
        {
          "internalType": "address[]",
          "name": "holderContractAddresses",
          "type": "address[]"
        },
        {
          "internalType": "address[]",
          "name": "rewardTokenContractAddresses",
          "type": "address[]"
        }
      ],
      "name": "removeTokenContractsForRewards",
      "outputs": [
        {
          "internalType": "bool",
          "name": "success",
          "type": "bool"
        }
      ],
      "stateMutability": "nonpayable",
      "type": "function"
    },
    {
      "inputs": [],
      "name": "pause",
      "outputs": [
        {
          "internalType": "bool",
          "name": "success",
          "type": "bool"
        }
      ],
      "stateMutability": "nonpayable",
      "type": "function"
    },
    {
      "inputs": [],
      "name": "unpause",
      "outputs": [
        {
          "internalType": "bool",
          "name": "success",
          "type": "bool"
        }
      ],
      "stateMutability": "nonpayable",
      "type": "function"
    }
  ],
  "bytecode": "0x608060405234801561001057600080fd5b5061469a806100206000396000f3fe608060405234801561001057600080fd5b506004361061025e5760003560e01c80637fb25edc11610146578063b29bad13116100c3578063d547741f11610087578063d547741f14610e38578063d79cf55a14610e64578063e40c3f5414610e6c578063e63ab1e914610e74578063e6a4bcae14610e7c578063f7013ef614610eaa5761025e565b8063b29bad1314610d73578063c0818a5214610da1578063c60d36c014610dc7578063ca15c87314610ded578063cce3dffd14610e0a5761025e565b8063954a2c841161010a578063954a2c8414610bd65780639611b5de14610d09578063a201ccf614610d37578063a217fddf14610d63578063abf5d5b214610d6b5761025e565b80637fb25edc14610a2d5780638456cb5914610b515780638546934614610b595780639010d07c14610b8757806391d1485414610baa5761025e565b806345d644cd116101df578063693a4613116101a3578063693a4613146108e0578063695bc02f14610981578063728a99ee146109c957806376af31d6146109d157806378a2f074146109ff5780637a19ec7114610a075761025e565b806345d644cd1461069d57806346043a1a146106c357806356688700146107e65780635c975abb1461081257806364ab86751461081a5761025e565b80632cea1dce116102265780632cea1dce1461054a5780632e31fab8146106175780632f2ff15d1461063d57806336568abe146106695780633f4ba83a146106955761025e565b806302a944d314610263578063086181de1461032857806321bdf9e5146104cd578063228d9eae146104f5578063248a9ca31461051b575b600080fd5b6103146004803603604081101561027957600080fd5b6001600160a01b038235169190810190604081016020820135600160201b8111156102a357600080fd5b8201836020820111156102b557600080fd5b803590602001918460208302840111600160201b831117156102d657600080fd5b919080806020026020016040519081016040528093929190818152602001838360200280828437600092019190915250929550610ef0945050505050565b604080519115158252519081900360200190f35b6103146004803603606081101561033e57600080fd5b810190602081018135600160201b81111561035857600080fd5b82018360208201111561036a57600080fd5b803590602001918460208302840111600160201b8311171561038b57600080fd5b9190808060200260200160405190810160405280939291908181526020018383602002808284376000920191909152509295949360208101935035915050600160201b8111156103da57600080fd5b8201836020820111156103ec57600080fd5b803590602001918460208302840111600160201b8311171561040d57600080fd5b9190808060200260200160405190810160405280939291908181526020018383602002808284376000920191909152509295949360208101935035915050600160201b81111561045c57600080fd5b82018360208201111561046e57600080fd5b803590602001918460208302840111600160201b8311171561048f57600080fd5b919080806020026020016040519081016040528093929190818152602001838360200280828437600092019190915250929550611024945050505050565b6104f3600480360360208110156104e357600080fd5b50356001600160a01b0316611264565b005b6104f36004803603602081101561050b57600080fd5b50356001600160a01b03166112f2565b6105386004803603602081101561053157600080fd5b5035611383565b60408051918252519081900360200190f35b6105706004803603602081101561056057600080fd5b50356001600160a01b0316611398565b604051808581526020018481526020018060200180602001838103835285818151815260200191508051906020019060200280838360005b838110156105c05781810151838201526020016105a8565b50505050905001838103825284818151815260200191508051906020019060200280838360005b838110156105ff5781810151838201526020016105e7565b50505050905001965050505050505060405180910390f35b6104f36004803603602081101561062d57600080fd5b50356001600160a01b03166116a1565b6104f36004803603604081101561065357600080fd5b50803590602001356001600160a01b0316611732565b6104f36004803603604081101561067f57600080fd5b50803590602001356001600160a01b0316611799565b6103146117fa565b610538600480360360208110156106b357600080fd5b50356001600160a01b031661185e565b610314600480360360408110156106d957600080fd5b810190602081018135600160201b8111156106f357600080fd5b82018360208201111561070557600080fd5b803590602001918460208302840111600160201b8311171561072657600080fd5b9190808060200260200160405190810160405280939291908181526020018383602002808284376000920191909152509295949360208101935035915050600160201b81111561077557600080fd5b82018360208201111561078757600080fd5b803590602001918460208302840111600160201b831117156107a857600080fd5b919080806020026020016040519081016040528093929190818152602001838360200280828437600092019190915250929550611870945050505050565b610314600480360360408110156107fc57600080fd5b506001600160a01b038135169060200135611a27565b610314611ca1565b6108406004803603602081101561083057600080fd5b50356001600160a01b0316611caa565b604051808481526020018060200180602001838103835285818151815260200191508051906020019060200280838360005b8381101561088a578181015183820152602001610872565b50505050905001838103825284818151815260200191508051906020019060200280838360005b838110156108c95781810151838201526020016108b1565b505050509050019550505050505060405180910390f35b610314600480360360208110156108f657600080fd5b810190602081018135600160201b81111561091057600080fd5b82018360208201111561092257600080fd5b803590602001918460208302840111600160201b8311171561094357600080fd5b919080806020026020016040519081016040528093929190818152602001838360200280828437600092019190915250929550611f28945050505050565b6109ad6004803603604081101561099757600080fd5b506001600160a01b038135169060200135612097565b604080516001600160a01b039092168252519081900360200190f35b6105386120cf565b610538600480360360408110156109e757600080fd5b506001600160a01b03813581169160200135166120d5565b6109ad6120f2565b61053860048036036020811015610a1d57600080fd5b50356001600160a01b0316612101565b610a6560048036036060811015610a4357600080fd5b506001600160a01b038135811691602081013582169160409091013516612113565b60405180868152602001806020018060200180602001858152602001848103845288818151815260200191508051906020019060200280838360005b83811015610ab9578181015183820152602001610aa1565b50505050905001848103835287818151815260200191508051906020019060200280838360005b83811015610af8578181015183820152602001610ae0565b50505050905001848103825286818151815260200191508051906020019060200280838360005b83811015610b37578181015183820152602001610b1f565b505050509050019850505050505050505060405180910390f35b6103146122b5565b61053860048036036040811015610b6f57600080fd5b506001600160a01b0381358116916020013516612313565b6109ad60048036036040811015610b9d57600080fd5b5080359060200135612330565b61031460048036036040811015610bc057600080fd5b50803590602001356001600160a01b0316612348565b61031460048036036060811015610bec57600080fd5b6001600160a01b038235169190810190604081016020820135600160201b811115610c1657600080fd5b820183602082011115610c2857600080fd5b803590602001918460208302840111600160201b83111715610c4957600080fd5b9190808060200260200160405190810160405280939291908181526020018383602002808284376000920191909152509295949360208101935035915050600160201b811115610c9857600080fd5b820183602082011115610caa57600080fd5b803590602001918460208302840111600160201b83111715610ccb57600080fd5b919080806020026020016040519081016040528093929190818152602001838360200280828437600092019190915250929550612360945050505050565b61053860048036036040811015610d1f57600080fd5b506001600160a01b03813581169160200135166124e5565b61031460048036036040811015610d4d57600080fd5b506001600160a01b038135169060200135612502565b6105386127dc565b6104f36127e1565b61053860048036036040811015610d8957600080fd5b506001600160a01b0381358116916020013516612831565b61053860048036036020811015610db757600080fd5b50356001600160a01b031661284e565b61031460048036036020811015610ddd57600080fd5b50356001600160a01b0316612860565b61053860048036036020811015610e0357600080fd5b5035612941565b61053860048036036040811015610e2057600080fd5b506001600160a01b0381358116916020013516612958565b6104f360048036036040811015610e4e57600080fd5b50803590602001356001600160a01b0316612975565b6109ad6129ce565b6109ad6129dd565b6105386129ec565b61053860048036036040811015610e9257600080fd5b506001600160a01b03813581169160200135166129fe565b6104f3600480360360a0811015610ec057600080fd5b506001600160a01b0381358116916020810135821691604082013581169160608101359091169060800135612a1b565b6000610f0381610efe612b1c565b612348565b610f3d576040805162461bcd60e51b815260206004808301919091526024820152634c50313560e01b604482015290519081900360640190fd5b6001600160a01b038316610f81576040805162461bcd60e51b8152602060048083019190915260248201526313140c4d60e21b604482015290519081900360640190fd5b610f8b8383612b20565b507f34de4f14698e626f620b385be40bc495347dd1007bf32d636ea22cd33ede60fb83834260405180846001600160a01b0316815260200180602001838152602001828103825284818151815260200191508051906020019060200280838360005b83811015611005578181015183820152602001610fed565b5050505090500194505050505060405180910390a15060015b92915050565b600061103281610efe612b1c565b61106c576040805162461bcd60e51b815260206004808301919091526024820152632628189b60e11b604482015290519081900360640190fd5b81518351146110ab576040805162461bcd60e51b815260206004808301919091526024820152634c50313760e01b604482015290519081900360640190fd5b835160005b8181101561114d5760006001600160a01b03168682815181106110cf57fe5b60200260200101516001600160a01b0316141561111c576040805162461bcd60e51b81526020600480830191909152602482015263098a062760e31b604482015290519081900360640190fd5b61113a86828151811061112b57fe5b60200260200101518686612dc3565b50611146816001612fd4565b90506110b0565b7f7ec5357451b115cb25c279bac7749e0e2f8cda1cd588ef7487980fff69a633a88686864260405180806020018060200180602001858152602001848103845288818151815260200191508051906020019060200280838360005b838110156111c05781810151838201526020016111a8565b50505050905001848103835287818151815260200191508051906020019060200280838360005b838110156111ff5781810151838201526020016111e7565b50505050905001848103825286818151815260200191508051906020019060200280838360005b8381101561123e578181015183820152602001611226565b5050505090500197505050505050505060405180910390a16001925050505b9392505050565b6112716000610efe612b1c565b6112a8576040805162461bcd60e51b81526020600482015260036024820152624c503960e81b604482015290519081900360640190fd5b609c80546001600160a01b0319166001600160a01b0383169081179091556040517ff745c285f36f88bea6af14d4d0f33dd9350cef7895216c1615b1caaee7857e0c90600090a250565b6112ff6000610efe612b1c565b611339576040805162461bcd60e51b815260206004808301919091526024820152634c50313160e01b604482015290519081900360640190fd5b609e80546001600160a01b0319166001600160a01b0383169081179091556040517f2321c893a63891a056e19e865d785f953c42f766bab444a8bcabd3673cee3d1d90600090a250565b60009081526065602052604090206002015490565b6000806060806113a6611ca1565b156113eb576040805162461bcd60e51b815260206004820152601060248201526f14185d5cd8589b194e881c185d5cd95960821b604482015290519081900360640190fd5b6001600160a01b03851661142c576040805162461bcd60e51b815260206004820152600360248201526226281960e91b604482015290519081900360640190fd5b609d54604080516336bbacad60e01b81526001600160a01b0388811660048301529151600093849316916336bbacad916024808301926060929190829003018186803b15801561147b57600080fd5b505afa15801561148f573d6000803e3d6000fd5b505050506040513d60608110156114a557600080fd5b50805160209091015190925090506001600160a01b038116158015906114d357506001600160a01b03821615155b61150a576040805162461bcd60e51b81526020600482015260036024820152624c503160e81b604482015290519081900360640190fd5b609d546040805163136b3b9760e11b81526001600160a01b038a81166004830152915191909216916326d6772e9160248083019260209291908290030181600087803b15801561155957600080fd5b505af115801561156d573d6000803e3d6000fd5b505050506040513d602081101561158357600080fd5b505194506115998282611594612b1c565b61302e565b919750945092506115a8612b1c565b6001600160a01b0316816001600160a01b0316836001600160a01b03167f62baf6efc5d359135858da73a77b0f8917148dd28ae5247013d71c30005e74c48989898942604051808681526020018581526020018060200180602001848152602001838103835286818151815260200191508051906020019060200280838360005b83811015611641578181015183820152602001611629565b50505050905001838103825285818151815260200191508051906020019060200280838360005b83811015611680578181015183820152602001611668565b5050505090500197505050505050505060405180910390a450509193509193565b6116ae6000610efe612b1c565b6116e8576040805162461bcd60e51b8152602060048083019190915260248201526304c5031360e41b604482015290519081900360640190fd5b609d80546001600160a01b0319166001600160a01b0383169081179091556040517fd0b9dbe26f676f4cdb02fc249c203baa0314cec79e18b4194dc862795a5de03f90600090a250565b60008281526065602052604090206002015461175090610efe612b1c565b61178b5760405162461bcd60e51b815260040180806020018281038252602f81526020018061450a602f913960400191505060405180910390fd5b611795828261341b565b5050565b6117a1612b1c565b6001600160a01b0316816001600160a01b0316146117f05760405162461bcd60e51b815260040180806020018281038252602f815260200180614636602f913960400191505060405180910390fd5b6117958282613484565b60006118166000805160206145e9833981519152610efe612b1c565b611850576040805162461bcd60e51b815260206004808301919091526024820152634c50313360e01b604482015290519081900360640190fd5b6118586134ed565b50600190565b60986020526000908152604090205481565b600061187e81610efe612b1c565b6118b8576040805162461bcd60e51b815260206004808301919091526024820152632628189b60e11b604482015290519081900360640190fd5b825160005b818110156119595760006001600160a01b03168582815181106118dc57fe5b60200260200101516001600160a01b03161415611929576040805162461bcd60e51b81526020600480830191909152602482015263098a062760e31b604482015290519081900360640190fd5b61194685828151811061193857fe5b602002602001015185612b20565b50611952816001612fd4565b90506118bd565b7f1a817f256e3f5f06636889cc94ae6c075363c5b9d5fc39f398c4e66dd2e25da3858542604051808060200180602001848152602001838103835286818151815260200191508051906020019060200280838360005b838110156119c75781810151838201526020016119af565b50505050905001838103825285818151815260200191508051906020019060200280838360005b83811015611a065781810151838201526020016119ee565b505050509050019550505050505060405180910390a1506001949350505050565b6000611a31611ca1565b15611a76576040805162461bcd60e51b815260206004820152601060248201526f14185d5cd8589b194e881c185d5cd95960821b604482015290519081900360640190fd5b600082118015611a8e57506001600160a01b03831615155b611ac5576040805162461bcd60e51b81526020600482015260036024820152624c503360e81b604482015290519081900360640190fd5b609d54604080516336bbacad60e01b81526001600160a01b0386811660048301529151600093849316916336bbacad916024808301926060929190829003018186803b158015611b1457600080fd5b505afa158015611b28573d6000803e3d6000fd5b505050506040513d6060811015611b3e57600080fd5b50805160209091015190925090506001600160a01b03821615801590611b6c57506001600160a01b03811615155b611ba3576040805162461bcd60e51b815260206004820152600360248201526213140d60ea1b604482015290519081900360640190fd5b6000611bad612b1c565b9050611bba83838361302e565b505050611bc98282308861358d565b6001600160a01b03808316600090815260976020908152604080832093851683529290522054611bf99086612fd4565b6001600160a01b0380841660008181526097602090815260408083209487168352938152838220949094559081526098909252902054611c399086612fd4565b6001600160a01b038316600081815260986020908152604091829020939093558051918252918101879052428183015290517f06239653922ac7bea6aa2b19dc486b9361821d37712eb796adfd38d81de278ca9181900360600190a150600195945050505050565b60335460ff1690565b6000606080611cb7611ca1565b15611cfc576040805162461bcd60e51b815260206004820152601060248201526f14185d5cd8589b194e881c185d5cd95960821b604482015290519081900360640190fd5b6001600160a01b038416611d3d576040805162461bcd60e51b815260206004820152600360248201526226281960e91b604482015290519081900360640190fd5b609d54604080516336bbacad60e01b81526001600160a01b0387811660048301529151600093849316916336bbacad916024808301926060929190829003018186803b158015611d8c57600080fd5b505afa158015611da0573d6000803e3d6000fd5b505050506040513d6060811015611db657600080fd5b50805160209091015190925090506001600160a01b03811615801590611de457506001600160a01b03821615155b611e1b576040805162461bcd60e51b81526020600482015260036024820152624c503160e81b604482015290519081900360640190fd5b611e288282611594612b1c565b91965094509250611e37612b1c565b6001600160a01b0316816001600160a01b0316836001600160a01b03167f1d4337feb77b9f8c7af6a5c1ba6c5ff4bb28ffde97edfd1266c55c69b6a33ee688888842604051808581526020018060200180602001848152602001838103835286818151815260200191508051906020019060200280838360005b83811015611ec9578181015183820152602001611eb1565b50505050905001838103825285818151815260200191508051906020019060200280838360005b83811015611f08578181015183820152602001611ef0565b50505050905001965050505050505060405180910390a450509193909250565b6000611f3681610efe612b1c565b611f70576040805162461bcd60e51b815260206004808301919091526024820152632628189b60e11b604482015290519081900360640190fd5b815160005b818110156120105760006001600160a01b0316848281518110611f9457fe5b60200260200101516001600160a01b03161415611fe1576040805162461bcd60e51b81526020600480830191909152602482015263098a062760e31b604482015290519081900360640190fd5b611ffd848281518110611ff057fe5b60200260200101516136e1565b50612009816001612fd4565b9050611f75565b7f8abb48de7987af675e8e74eabfea997525a59a90578fd480a4421400949eb1e284426040518080602001838152602001828103825284818151815260200191508051906020019060200280838360005b83811015612079578181015183820152602001612061565b50505050905001935050505060405180910390a15060019392505050565b60a260205281600052604060002081815481106120b357600080fd5b6000918252602090912001546001600160a01b03169150829050565b60a45481565b60a560209081526000928352604080842090915290825290205481565b609c546001600160a01b031681565b609a6020526000908152604090205481565b6001600160a01b038083166000908152609b6020908152604080832093851683529290529081205460609081908190849081906121819061215590429061385f565b6001600160a01b03808b166000908152609760209081526040808320938d1683529290522054906138bc565b6001600160a01b0389166000908152609a6020526040812054919250906121cc906121ad90429061385f565b6001600160a01b038b16600090815260986020526040902054906138bc565b6001600160a01b038a16600090815260996020526040812054919250906121f39083612fd4565b90506121ff818461385f565b9350801561229557609c54604080516370a0823160e01b81526001600160a01b038e81166004830152915160009392909216916370a0823191602480820192602092909190829003018186803b15801561225857600080fd5b505afa15801561226c573d6000803e3d6000fd5b505050506040513d602081101561228257600080fd5b50519050612291818584613915565b9850505b6122a08b84836139ce565b999d919c509a50979850929695505050505050565b60006122d16000805160206145e9833981519152610efe612b1c565b61230b576040805162461bcd60e51b815260206004808301919091526024820152632628189960e11b604482015290519081900360640190fd5b611858613dab565b60a660209081526000928352604080842090915290825290205481565b600082815260656020526040812061125d9083613e2e565b600082815260656020526040812061125d9083613e3a565b600061236e81610efe612b1c565b6123a8576040805162461bcd60e51b815260206004808301919091526024820152634c50313560e01b604482015290519081900360640190fd5b6001600160a01b038416158015906123c1575081518351145b6123fb576040805162461bcd60e51b8152602060048083019190915260248201526313140c4d60e21b604482015290519081900360640190fd5b612406848484612dc3565b507fbbd7d8fdbdd56485d60ec284b8a952dfe746dca8f89789450c55ebf306a5f0448484844260405180856001600160a01b031681526020018060200180602001848152602001838103835286818151815260200191508051906020019060200280838360005b8381101561248557818101518382015260200161246d565b50505050905001838103825285818151815260200191508051906020019060200280838360005b838110156124c45781810151838201526020016124ac565b50505050905001965050505050505060405180910390a15060019392505050565b60a760209081526000928352604080842090915290825290205481565b600061250c611ca1565b15612551576040805162461bcd60e51b815260206004820152601060248201526f14185d5cd8589b194e881c185d5cd95960821b604482015290519081900360640190fd5b60008211801561256957506001600160a01b03831615155b6125a0576040805162461bcd60e51b815260206004820152600360248201526226281b60e91b604482015290519081900360640190fd5b609d54604080516336bbacad60e01b81526001600160a01b0386811660048301529151600093849316916336bbacad916024808301926060929190829003018186803b1580156125ef57600080fd5b505afa158015612603573d6000803e3d6000fd5b505050506040513d606081101561261957600080fd5b50805160209091015190925090506001600160a01b0382161580159061264757506001600160a01b03811615155b61267e576040805162461bcd60e51b81526020600482015260036024820152624c503760e81b604482015290519081900360640190fd5b6000612688612b1c565b6001600160a01b038084166000908152609760209081526040808320938516835292905220549091508511156126eb576040805162461bcd60e51b8152602060048201526003602482015262098a0760eb1b604482015290519081900360640190fd5b6126f683838361302e565b505050612704828287613e4f565b6001600160a01b03808316600090815260976020908152604080832093851683529290522054612734908661385f565b6001600160a01b0380841660008181526097602090815260408083209487168352938152838220949094559081526098909252902054612774908661385f565b6001600160a01b038316600081815260986020908152604091829020939093558051918252918101879052428183015290517f0fbf06c058b90cb038a618f8c2acbf6145f8b3570fd1fa56abb8f0f3f05b36e89181900360600190a150600195945050505050565b600081565b6008609f541061281e576040805162461bcd60e51b81526020600482015260036024820152624c503560e81b604482015290519081900360640190fd5b6008609f55670de0b6b3a764000060a455565b609b60209081526000928352604080842090915290825290205481565b60996020526000908152604090205481565b600061286e81610efe612b1c565b6128a8576040805162461bcd60e51b815260206004808301919091526024820152634c50313560e01b604482015290519081900360640190fd5b6001600160a01b0382166128ec576040805162461bcd60e51b8152602060048083019190915260248201526313140c4d60e21b604482015290519081900360640190fd5b6128f5826136e1565b50604080516001600160a01b038416815242602082015281517fd744a3fa6a93b484759281ba764d3c88077b4a4c17b9509f9849abcd4d4ff60a929181900390910190a1506001919050565b600081815260656020526040812061101e90613fa2565b609760209081526000928352604080842090915290825290205481565b60008281526065602052604090206002015461299390610efe612b1c565b6117f05760405162461bcd60e51b815260040180806020018281038252603081526020018061456a6030913960400191505060405180910390fd5b609d546001600160a01b031681565b609e546001600160a01b031681565b6000805160206145e983398151915281565b60a360209081526000928352604080842090915290825290205481565b600054610100900460ff1680612a345750612a34613fad565b80612a42575060005460ff16155b612a7d5760405162461bcd60e51b815260040180806020018281038252602e81526020018061459a602e913960400191505060405180910390fd5b600054610100900460ff16158015612aa8576000805460ff1961ff0019909116610100171660011790555b612ab0613fbe565b612ab8614070565b612aca6000612ac5612b1c565b61178b565b612ae26000805160206145e98339815191528461178b565b612aeb86611264565b612af4856116a1565b612afd846112f2565b60a48290558015612b14576000805461ff00191690555b505050505050565b3390565b805160009081905b80821015612db85760006001600160a01b0316848381518110612b4757fe5b60200260200101516001600160a01b031614612da6576001600160a01b038516600090815260a36020526040812085518290879086908110612b8557fe5b60200260200101516001600160a01b03166001600160a01b031681526020019081526020016000205490506000811115612da4576001600160a01b038616600090815260a26020526040902054811415612c21576001600160a01b038616600090815260a260205260409020805480612bfa57fe5b600082815260209020810160001990810180546001600160a01b0319169055019055612cef565b6001600160a01b038616600090815260a2602052604090208054612c4690600161385f565b81548110612c5057fe5b60009182526020808320909101546001600160a01b03898116845260a29092526040909220911690612c8383600161385f565b81548110612c8d57fe5b600091825260208083209190910180546001600160a01b0319166001600160a01b03948516179055918816815260a290915260409020805480612ccc57fe5b600082815260209020810160001990810180546001600160a01b03191690550190555b6001600160a01b038616600090815260a3602052604081208651909190879086908110612d1857fe5b60200260200101516001600160a01b03166001600160a01b031681526020019081526020016000206000905560a56000876001600160a01b03166001600160a01b031681526020019081526020016000206000868581518110612d7757fe5b60200260200101516001600160a01b03166001600160a01b03168152602001908152602001600020600090555b505b612db1826001612fd4565b9150612b28565b506001949350505050565b6000612dd060a085613e3a565b612de157612ddf60a08561410d565b505b82516000905b80821015612fc85760006001600160a01b0316858381518110612e0657fe5b60200260200101516001600160a01b031614612f27576001600160a01b038616600090815260a3602052604081208651909190879085908110612e4557fe5b60200260200101516001600160a01b03166001600160a01b031681526020019081526020016000205460001415612f27576001600160a01b038616600090815260a2602052604090208551869084908110612e9c57fe5b602090810291909101810151825460018101845560009384528284200180546001600160a01b0319166001600160a01b039283161790558816825260a2815260408083205460a39092528220875191929091889086908110612efa57fe5b60200260200101516001600160a01b03166001600160a01b03168152602001908152602001600020819055505b838281518110612f3357fe5b6020026020010151600014612fb657838281518110612f4e57fe5b602002602001015160a56000886001600160a01b03166001600160a01b031681526020019081526020016000206000878581518110612f8957fe5b60200260200101516001600160a01b03166001600160a01b03168152602001908152602001600020819055505b612fc1826001612fd4565b9150612de7565b50600195945050505050565b60008282018381101561125d576040805162461bcd60e51b815260206004820152601b60248201527f536166654d6174683a206164646974696f6e206f766572666c6f770000000000604482015290519081900360640190fd5b600060608060606000613042888888612113565b809550819650829750839850849950505050505042609b6000896001600160a01b03166001600160a01b031681526020019081526020016000206000886001600160a01b03166001600160a01b031681526020019081526020016000208190555042609a6000896001600160a01b03166001600160a01b03168152602001908152602001600020819055508060996000896001600160a01b03166001600160a01b0316815260200190815260200160002081905550600085111561317657609c546040805163d1660f9960e01b81526001600160a01b0392831660048201528883166024820152604481018890529051918a169163d1660f999160648082019260009290919082900301818387803b15801561315d57600080fd5b505af1158015613171573d6000803e3d6000fd5b505050505b82516000905b8082101561332457600086838151811061319257fe5b6020026020010151111561324757896001600160a01b031663d1660f998684815181106131bb57fe5b60200260200101518a8986815181106131d057fe5b60200260200101516040518463ffffffff1660e01b815260040180846001600160a01b03168152602001836001600160a01b031681526020018281526020019350505050600060405180830381600087803b15801561322e57600080fd5b505af1158015613242573d6000803e3d6000fd5b505050505b83828151811061325357fe5b602002602001015160a660008c6001600160a01b03166001600160a01b03168152602001908152602001600020600087858151811061328e57fe5b60200260200101516001600160a01b03166001600160a01b03168152602001908152602001600020819055504260a760008c6001600160a01b03166001600160a01b0316815260200190815260200160002060008785815181106132ee57fe5b6020908102919091018101516001600160a01b031682528101919091526040016000205561331d826001612fd4565b915061317c565b876001600160a01b0316896001600160a01b03168b6001600160a01b03167f93428cc4daaf2da532795f8fdd28db8726732f7165411583d4338497d4977fbb8a8a8a42604051808581526020018060200180602001848152602001838103835286818151815260200191508051906020019060200280838360005b838110156133b757818101518382015260200161339f565b50505050905001838103825285818151815260200191508051906020019060200280838360005b838110156133f65781810151838201526020016133de565b50505050905001965050505050505060405180910390a4505050505b93509350939050565b6000828152606560205260409020613433908261410d565b1561179557613440612b1c565b6001600160a01b0316816001600160a01b0316837f2f8788117e7eff1d82e926ec794901d17c78024a50270940304540a733656f0d60405160405180910390a45050565b600082815260656020526040902061349c9082614122565b15611795576134a9612b1c565b6001600160a01b0316816001600160a01b0316837ff6391f5c32d9c69d2a47ea670b442974b53935d1edc7fd64eb21e047a839171b60405160405180910390a45050565b6134f5611ca1565b61353d576040805162461bcd60e51b815260206004820152601460248201527314185d5cd8589b194e881b9bdd081c185d5cd95960621b604482015290519081900360640190fd5b6033805460ff191690557f5db9ee0a495bf2e6ff9c91a7834c1ba4fdd244a5e8aa4e537bd38aeae4b073aa613570612b1c565b604080516001600160a01b039092168252519081900360200190a1565b604080516001600160a01b0385811660248301528481166044830152606480830185905283518084039091018152608490920183526020820180516001600160e01b03166323b872dd60e01b178152925182516000948594938a169392918291908083835b602083106136115780518252601f1990920191602091820191016135f2565b6001836020036101000a0380198251168184511680821785525050505050509050019150506000604051808303816000865af19150503d8060008114613673576040519150601f19603f3d011682016040523d82523d6000602084013e613678565b606091505b50915091508180156136a65750805115806136a657508080602001905160208110156136a357600080fd5b50515b612b145760405162461bcd60e51b81526004018080602001828103825260318152602001806145396031913960400191505060405180910390fd5b60006136ee60a083614122565b506001600160a01b038216600090815260a2602090815260408083208054825181850281018501909352808352919290919083018282801561375957602002820191906000526020600020905b81546001600160a01b0316815260019091019060200180831161373b575b505083519394506000925050505b8181101561383e576001600160a01b038516600090815260a360205260408120845190919085908490811061379857fe5b60200260200101516001600160a01b03166001600160a01b031681526020019081526020016000206000905560a56000866001600160a01b03166001600160a01b0316815260200190815260200160002060008483815181106137f757fe5b60200260200101516001600160a01b03166001600160a01b0316815260200190815260200160002060009055613837600182612fd490919063ffffffff16565b9050613767565b6001600160a01b038516600090815260a260205260408120612db8916144b5565b6000828211156138b6576040805162461bcd60e51b815260206004820152601e60248201527f536166654d6174683a207375627472616374696f6e206f766572666c6f770000604482015290519081900360640190fd5b50900390565b6000826138cb5750600061101e565b828202828482816138d857fe5b041461125d5760405162461bcd60e51b81526004018080602001828103825260218152602001806145c86021913960400191505060405180910390fd5b60008060006139248686614137565b915091506000848061393257fe5b868809905082811115613946576001820391505b9182900391816139645784838161395957fe5b04935050505061125d565b8482106139b8576040805162461bcd60e51b815260206004820152601a60248201527f46756c6c4d6174683a2046554c4c4449565f4f564552464c4f57000000000000604482015290519081900360640190fd5b6139c3838387614164565b979650505050505050565b606080808315613412576001600160a01b038616600090815260a260205260409020548067ffffffffffffffff81118015613a0857600080fd5b50604051908082528060200260200182016040528015613a32578160200160208202803683370190505b5093508067ffffffffffffffff81118015613a4c57600080fd5b50604051908082528060200260200182016040528015613a76578160200160208202803683370190505b5092508067ffffffffffffffff81118015613a9057600080fd5b50604051908082528060200260200182016040528015613aba578160200160208202803683370190505b50915060008060008060005b85811015613d9c576001600160a01b038c16600090815260a260205260409020805482908110613af257fe5b9060005260206000200160009054906101000a90046001600160a01b0316888281518110613b1c57fe5b60200260200101906001600160a01b031690816001600160a01b03168152505060a560008d6001600160a01b03166001600160a01b031681526020019081526020016000206000898381518110613b6f57fe5b60200260200101516001600160a01b03166001600160a01b03168152602001908152602001600020549450613c0860a760008e6001600160a01b03166001600160a01b0316815260200190815260200160002060008a8481518110613bd057fe5b60200260200101516001600160a01b03166001600160a01b03168152602001908152602001600020544261385f90919063ffffffff16565b9150613c8260a660008e6001600160a01b03166001600160a01b0316815260200190815260200160002060008a8481518110613c4057fe5b60200260200101516001600160a01b03166001600160a01b0316815260200190815260200160002054613c7c84886138bc90919063ffffffff16565b90612fd4565b9250878181518110613c9057fe5b60200260200101516001600160a01b03166370a082318d6040518263ffffffff1660e01b815260040180826001600160a01b0316815260200191505060206040518083038186803b158015613ce457600080fd5b505afa158015613cf8573d6000803e3d6000fd5b505050506040513d6020811015613d0e57600080fd5b50519350838311613d1f5782613d21565b835b92508215613d4d57613d34838c8c613915565b898281518110613d4057fe5b6020026020010181815250505b613d73898281518110613d5c57fe5b60200260200101518461385f90919063ffffffff16565b878281518110613d7f57fe5b6020908102919091010152613d95816001612fd4565b9050613ac6565b50505050505093509350939050565b613db3611ca1565b15613df8576040805162461bcd60e51b815260206004820152601060248201526f14185d5cd8589b194e881c185d5cd95960821b604482015290519081900360640190fd5b6033805460ff191660011790557f62e78cea01bee320cd4e420270b5ea74000d11b0c9f74754ebdbfc544b05a258613570612b1c565b600061125d83836141d4565b600061125d836001600160a01b038416614238565b604080516001600160a01b038481166024830152604480830185905283518084039091018152606490920183526020820180516001600160e01b031663a9059cbb60e01b1781529251825160009485949389169392918291908083835b60208310613ecb5780518252601f199092019160209182019101613eac565b6001836020036101000a0380198251168184511680821785525050505050509050019150506000604051808303816000865af19150503d8060008114613f2d576040519150601f19603f3d011682016040523d82523d6000602084013e613f32565b606091505b5091509150818015613f60575080511580613f605750808060200190516020811015613f5d57600080fd5b50515b613f9b5760405162461bcd60e51b815260040180806020018281038252602d815260200180614609602d913960400191505060405180910390fd5b5050505050565b600061101e82614250565b6000613fb830614254565b15905090565b600054610100900460ff1680613fd75750613fd7613fad565b80613fe5575060005460ff16155b6140205760405162461bcd60e51b815260040180806020018281038252602e81526020018061459a602e913960400191505060405180910390fd5b600054610100900460ff1615801561404b576000805460ff1961ff0019909116610100171660011790555b61405361425a565b61405b61425a565b801561406d576000805461ff00191690555b50565b600054610100900460ff16806140895750614089613fad565b80614097575060005460ff16155b6140d25760405162461bcd60e51b815260040180806020018281038252602e81526020018061459a602e913960400191505060405180910390fd5b600054610100900460ff161580156140fd576000805460ff1961ff0019909116610100171660011790555b61410561425a565b61405b6142fa565b600061125d836001600160a01b0384166143a5565b600061125d836001600160a01b0384166143ef565b600080806000198486099050838502925082810391508281101561415c576001820391505b509250929050565b6000818103821680838161417457fe5b04925080858161418057fe5b04945080816000038161418f57fe5b60028581038087028203028087028203028087028203028087028203028087028203028087028203029586029003909402930460010193909302939093010292915050565b815460009082106142165760405162461bcd60e51b81526004018080602001828103825260228152602001806144e86022913960400191505060405180910390fd5b82600001828154811061422557fe5b9060005260206000200154905092915050565b60009081526001919091016020526040902054151590565b5490565b3b151590565b600054610100900460ff16806142735750614273613fad565b80614281575060005460ff16155b6142bc5760405162461bcd60e51b815260040180806020018281038252602e81526020018061459a602e913960400191505060405180910390fd5b600054610100900460ff1615801561405b576000805460ff1961ff001990911661010017166001179055801561406d576000805461ff001916905550565b600054610100900460ff16806143135750614313613fad565b80614321575060005460ff16155b61435c5760405162461bcd60e51b815260040180806020018281038252602e81526020018061459a602e913960400191505060405180910390fd5b600054610100900460ff16158015614387576000805460ff1961ff0019909116610100171660011790555b6033805460ff19169055801561406d576000805461ff001916905550565b60006143b18383614238565b6143e75750815460018181018455600084815260208082209093018490558454848252828601909352604090209190915561101e565b50600061101e565b600081815260018301602052604081205480156144ab578354600019808301919081019060009087908390811061442257fe5b906000526020600020015490508087600001848154811061443f57fe5b60009182526020808320909101929092558281526001898101909252604090209084019055865487908061446f57fe5b6001900381819060005260206000200160009055905586600101600087815260200190815260200160002060009055600194505050505061101e565b600091505061101e565b508054600082559060005260206000209081019061406d91905b808211156144e357600081556001016144cf565b509056fe456e756d657261626c655365743a20696e646578206f7574206f6620626f756e6473416363657373436f6e74726f6c3a2073656e646572206d75737420626520616e2061646d696e20746f206772616e745472616e7366657248656c7065723a3a7472616e7366657246726f6d3a207472616e7366657246726f6d206661696c6564416363657373436f6e74726f6c3a2073656e646572206d75737420626520616e2061646d696e20746f207265766f6b65496e697469616c697a61626c653a20636f6e747261637420697320616c726561647920696e697469616c697a6564536166654d6174683a206d756c7469706c69636174696f6e206f766572666c6f7765d7a28e3265b37a6474929f336521b332c1681b933f6cb9f3376673440d862a5472616e7366657248656c7065723a3a736166655472616e736665723a207472616e73666572206661696c6564416363657373436f6e74726f6c3a2063616e206f6e6c792072656e6f756e636520726f6c657320666f722073656c66a26469706673582212201dfbbb988324b9ab8c6292ad02a5977c636c9ac42234b8cb25f7a8fafe84214b64736f6c63430007060033",
  "immutableReferences": {},
  "source": "// SPDX-License-Identifier: UNLICENSED\npragma solidity >=0.7.0;\n\nimport \"@openzeppelin/contracts-upgradeable/math/SafeMathUpgradeable.sol\";\nimport \"@openzeppelin/contracts-upgradeable/access/AccessControlUpgradeable.sol\";\nimport \"@openzeppelin/contracts-upgradeable/utils/PausableUpgradeable.sol\";\nimport \"@openzeppelin/contracts-upgradeable/utils/EnumerableSetUpgradeable.sol\";\nimport \"@openzeppelin/contracts-upgradeable/token/ERC20/ERC20Upgradeable.sol\";\nimport \"./interfaces/ISTokens.sol\";\nimport \"./interfaces/IUTokens.sol\";\nimport \"./interfaces/IPSTAKE.sol\";\nimport \"./interfaces/IHolder.sol\";\nimport \"./interfaces/IStakeLPCore.sol\";\nimport \"./libraries/TransferHelper.sol\";\nimport \"./libraries/FullMath.sol\";\n\ncontract StakeLPCoreV8 is\n\tIStakeLPCore,\n\tPausableUpgradeable,\n\tAccessControlUpgradeable\n{\n\tusing SafeMathUpgradeable for uint256;\n\tusing FullMath for uint256;\n\tusing EnumerableSetUpgradeable for EnumerableSetUpgradeable.AddressSet;\n\n\t// constant pertaining to access roles\n\tbytes32 public constant PAUSER_ROLE = keccak256(\"PAUSER_ROLE\");\n\n\t// variables pertaining to calculation LP TimeShare\n\t// balance of user for an LP Token\n\tmapping(address => mapping(address => uint256)) public _lpBalance;\n\t// supply for an LP Token\n\tmapping(address => uint256) public _lpSupply;\n\t// last updated total LPTimeShare\n\tmapping(address => uint256) public _lastLPTimeShare;\n\t// last recorded timestamp when total LPTimeShare was updated\n\tmapping(address => uint256) public _lastLPTimeShareTimestamp;\n\t// last recorded timestamp when user's LPTimeShare was updated\n\tmapping(address => mapping(address => uint256))\n\t\tpublic _lastLiquidityTimestamp;\n\n\t//Private instances of contracts to handle Utokens and Stokens\n\tIUTokens public _uTokens;\n\tISTokens public _sTokens;\n\tIPSTAKE public _pstakeTokens;\n\n\t// variable pertaining to contract upgrades versioning\n\tuint256 private _version;\n\n\t// variables pertaining to maintaining reward tokens and amounts to be disbursed\n\t// List of Holder Contract Addresses\n\tEnumerableSetUpgradeable.AddressSet private _holderContractList;\n\t// list of reward tokens enabled, for a specific holder contract\n\tmapping(address => address[]) public _rewardTokenList;\n\t// index of reward token address in the _rewardTokenList array, for a specific holder contract\n\tmapping(address => mapping(address => uint256))\n\t\tpublic _rewardTokenListIndex;\n\t// valueDivisor to store fractional values for various reward attributes like _rewardTokenEmission\n\tuint256 public _valueDivisor;\n\t// emission (per second) of reward token into the 'reward pool', for a specific holder contract\n\tmapping(address => mapping(address => uint256)) public _rewardTokenEmission;\n\t// last updated reward pool balance, for a specific reward token, for a specific holder contract\n\tmapping(address => mapping(address => uint256))\n\t\tpublic _lastRewardPoolBalance;\n\t// last recorded timestamp when the reward pool balance was updated,\n\t// for a specific reward token, for a specific holder contract\n\tmapping(address => mapping(address => uint256))\n\t\tpublic _lastRewardPoolBalanceTimestamp;\n\n\t/**\n\t * @dev Constructor for initializing the LiquidStaking contract.\n\t * @param uAddress - address of the UToken contract.\n\t * @param sAddress - address of the SToken contract.\n\t * @param pStakeAddress - address of the pStake contract address.\n\n\t */\n\tfunction initialize(\n\t\taddress uAddress,\n\t\taddress sAddress,\n\t\taddress pStakeAddress,\n\t\taddress pauserAddress,\n\t\tuint256 valueDivisor\n\t) public virtual initializer {\n\t\t__AccessControl_init();\n\t\t__Pausable_init();\n\t\t_setupRole(DEFAULT_ADMIN_ROLE, _msgSender());\n\t\t_setupRole(PAUSER_ROLE, pauserAddress);\n\t\tsetUTokensContract(uAddress);\n\t\tsetSTokensContract(sAddress);\n\t\tsetPSTAKEContract(pStakeAddress);\n\t\t_valueDivisor = valueDivisor;\n\t}\n\n\tfunction upgradeToV8() public {\n\t\trequire(_version < 8, \"LP5\");\n\t\t_version = 8;\n\t\t_valueDivisor = 1e18;\n\t}\n\n\t/*\n\t * @dev calculate liquidity and reward tokens and disburse to user\n\t * @param lpToken: lp token contract address\n\t * @param to: user address\n\t * @param liquidityWeightFactor: coming as an argument for further calculations\n\t * @param rewardWeightFactor: coming as an argument for further calculations\n\t * @param valueDivisor: coming as an argument for further calculations\n\t */\n\tfunction calculatePendingRewards(\n\t\taddress holderAddress,\n\t\taddress lpToken,\n\t\taddress to\n\t)\n\t\tpublic\n\t\tview\n\t\treturns (\n\t\t\tuint256 reward,\n\t\t\tuint256[] memory otherRewardAmounts,\n\t\t\taddress[] memory otherRewardTokens,\n\t\t\tuint256[] memory updatedRewardPoolBalances,\n\t\t\tuint256 updatedSupplyLPTimeshare\n\t\t)\n\t{\n\t\t// calculate the LPTimeShare of the user's LP Token\n\t\tuint256 _userLPTimeShare = (\n\t\t\t(_lpBalance[lpToken][to]).mul(\n\t\t\t\tblock.timestamp.sub(_lastLiquidityTimestamp[lpToken][to])\n\t\t\t)\n\t\t);\n\n\t\t// calculate the LPTimeShare of the sum of supply of all LP Tokens\n\t\tuint256 _newSupplyLPTimeShare = (\n\t\t\t(_lpSupply[lpToken]).mul(\n\t\t\t\tblock.timestamp.sub(_lastLPTimeShareTimestamp[lpToken])\n\t\t\t)\n\t\t);\n\t\tuint256 _totalSupplyLPTimeShare = _lastLPTimeShare[lpToken].add(\n\t\t\t_newSupplyLPTimeShare\n\t\t);\n\t\t// calculate the remaining LPTimeShare of the total supply after the tokens for the user has been dispatched\n\t\tupdatedSupplyLPTimeshare = _totalSupplyLPTimeShare.sub(\n\t\t\t_userLPTimeShare\n\t\t);\n\n\t\t// calculate the rewardPool and reward\n\t\tif (_totalSupplyLPTimeShare > 0) {\n\t\t\t// calculate users new reward tokens. reward pool will be total balance of Holder Contract\n\t\t\tuint256 _rewardPool = _uTokens.balanceOf(holderAddress);\n\t\t\treward = _rewardPool.mulDiv(\n\t\t\t\t_userLPTimeShare,\n\t\t\t\t_totalSupplyLPTimeShare\n\t\t\t);\n\t\t}\n\n\t\t(\n\t\t\totherRewardAmounts,\n\t\t\totherRewardTokens,\n\t\t\tupdatedRewardPoolBalances\n\t\t) = _calculateOtherPendingRewards(\n\t\t\tholderAddress,\n\t\t\t_userLPTimeShare,\n\t\t\t_totalSupplyLPTimeShare\n\t\t);\n\t}\n\n\tfunction _calculateOtherPendingRewards(\n\t\taddress holderAddress,\n\t\tuint256 _userLPTimeShare,\n\t\tuint256 _totalSupplyLPTimeShare\n\t)\n\t\tinternal\n\t\tview\n\t\treturns (\n\t\t\tuint256[] memory otherRewardAmounts,\n\t\t\taddress[] memory otherRewardTokens,\n\t\t\tuint256[] memory updatedRewardPoolBalances\n\t\t)\n\t{\n\t\tif (_totalSupplyLPTimeShare > 0) {\n\t\t\tuint256 _rewardTokenListLength = _rewardTokenList[holderAddress]\n\t\t\t\t.length;\n\t\t\totherRewardAmounts = new uint256[](_rewardTokenListLength);\n\t\t\totherRewardTokens = new address[](_rewardTokenListLength);\n\t\t\tupdatedRewardPoolBalances = new uint256[](_rewardTokenListLength);\n\n\t\t\tuint256 _rewardEmissionLocal;\n\t\t\tuint256 _rewardPoolReserve;\n\t\t\tuint256 _updatedRewardPool;\n\t\t\tuint256 _rewardEmissionInterval;\n\n\t\t\tfor (uint256 i = 0; i < _rewardTokenListLength; i = i.add(1)) {\n\t\t\t\totherRewardTokens[i] = _rewardTokenList[holderAddress][i];\n\t\t\t\t_rewardEmissionLocal = _rewardTokenEmission[holderAddress][\n\t\t\t\t\totherRewardTokens[i]\n\t\t\t\t];\n\t\t\t\t_rewardEmissionInterval = block.timestamp.sub(\n\t\t\t\t\t_lastRewardPoolBalanceTimestamp[holderAddress][\n\t\t\t\t\t\totherRewardTokens[i]\n\t\t\t\t\t]\n\t\t\t\t);\n\t\t\t\t// calculate the updated reward pool to be considered for user's reward share calculation\n\t\t\t\t_updatedRewardPool = (\n\t\t\t\t\t_rewardEmissionLocal.mul(_rewardEmissionInterval)\n\t\t\t\t).add(\n\t\t\t\t\t\t_lastRewardPoolBalance[holderAddress][\n\t\t\t\t\t\t\totherRewardTokens[i]\n\t\t\t\t\t\t]\n\t\t\t\t\t);\n\n\t\t\t\t_rewardPoolReserve = ERC20Upgradeable(otherRewardTokens[i])\n\t\t\t\t\t.balanceOf(holderAddress);\n\n\t\t\t\t_updatedRewardPool = _updatedRewardPool > _rewardPoolReserve\n\t\t\t\t\t? _rewardPoolReserve\n\t\t\t\t\t: _updatedRewardPool;\n\n\t\t\t\tif (_updatedRewardPool > 0) {\n\t\t\t\t\t// calculate user's reward for that particular reward token\n\t\t\t\t\totherRewardAmounts[i] = _updatedRewardPool.mulDiv(\n\t\t\t\t\t\t_userLPTimeShare,\n\t\t\t\t\t\t_totalSupplyLPTimeShare\n\t\t\t\t\t);\n\t\t\t\t}\n\n\t\t\t\t// calculated updated reward pool balance after subtracting user's reward\n\t\t\t\tupdatedRewardPoolBalances[i] = _updatedRewardPool.sub(\n\t\t\t\t\totherRewardAmounts[i]\n\t\t\t\t);\n\t\t\t}\n\t\t}\n\t}\n\n\t/*\n\t * @dev calculate reward tokens and disburse to user\n\t * @param lpToken: lp token contract address\n\t * @param to: user address\n\t * @param liquidityWeightFactor: coming as an argument for further calculations\n\t * @param rewardWeightFactor: coming as an argument for further calculations\n\t * @param valueDivisor: coming as an argument for further calculations\n\t */\n\tfunction _calculateRewards(\n\t\taddress holderAddress,\n\t\taddress lpToken,\n\t\taddress to\n\t)\n\t\tinternal\n\t\treturns (\n\t\t\tuint256 reward,\n\t\t\tuint256[] memory otherRewardAmounts,\n\t\t\taddress[] memory otherRewardTokens\n\t\t)\n\t{\n\t\tuint256[] memory updatedRewardPoolBalances;\n\t\tuint256 updatedSupplyLPTimeshare;\n\n\t\t(\n\t\t\treward,\n\t\t\totherRewardAmounts,\n\t\t\totherRewardTokens,\n\t\t\tupdatedRewardPoolBalances,\n\t\t\tupdatedSupplyLPTimeshare\n\t\t) = calculatePendingRewards(holderAddress, lpToken, to);\n\n\t\t// update last timestamps and LPTimeShares as per Checks-Effects-Interactions pattern\n\t\t_lastLiquidityTimestamp[lpToken][to] = block.timestamp;\n\t\t_lastLPTimeShareTimestamp[lpToken] = block.timestamp;\n\t\t_lastLPTimeShare[lpToken] = updatedSupplyLPTimeshare;\n\n\t\t// DISBURSE THE REWARD TOKENS TO USER (transfer)\n\t\tif (reward > 0)\n\t\t\tIHolder(holderAddress).safeTransfer(address(_uTokens), to, reward);\n\n\t\t// DISBURSE THE OTHER REWARD TOKENS TO USER (transfer)\n\t\tuint256 i;\n\t\tuint256 otherRewardTokensLength = otherRewardTokens.length;\n\t\tfor (i = 0; i < otherRewardTokensLength; i = i.add(1)) {\n\t\t\t// dispatch the rewards for that specific token\n\t\t\tif (otherRewardAmounts[i] > 0) {\n\t\t\t\tIHolder(holderAddress).safeTransfer(\n\t\t\t\t\totherRewardTokens[i],\n\t\t\t\t\tto,\n\t\t\t\t\totherRewardAmounts[i]\n\t\t\t\t);\n\t\t\t}\n\t\t\t//  update the reward pool balance and last timestamp\n\t\t\t//  corresonding to that particular reward token\n\t\t\t_lastRewardPoolBalance[holderAddress][\n\t\t\t\totherRewardTokens[i]\n\t\t\t] = updatedRewardPoolBalances[i];\n\t\t\t_lastRewardPoolBalanceTimestamp[holderAddress][\n\t\t\t\totherRewardTokens[i]\n\t\t\t] = block.timestamp;\n\t\t}\n\n\t\temit CalculateRewards(\n\t\t\tholderAddress,\n\t\t\tlpToken,\n\t\t\tto,\n\t\t\treward,\n\t\t\totherRewardAmounts,\n\t\t\totherRewardTokens,\n\t\t\tblock.timestamp\n\t\t);\n\n\t\treturn (reward, otherRewardAmounts, otherRewardTokens);\n\t}\n\n\t/*\n\t * @dev calculate liquidity and reward tokens and disburse to user\n\t * @param lpToken: lp token contract address\n\t * @param amount: token amount\n\t */\n\tfunction calculateRewards(address whitelistedAddress)\n\t\tpublic\n\t\toverride\n\t\twhenNotPaused\n\t\treturns (\n\t\t\tuint256 reward,\n\t\t\tuint256[] memory otherRewardAmounts,\n\t\t\taddress[] memory otherRewardTokens\n\t\t)\n\t{\n\t\t// check for validity of arguments\n\t\trequire(whitelistedAddress != address(0), \"LP2\");\n\n\t\t// check if lpToken contract of DeFi product address is whitelisted and has valid holder contract\n\t\t(address _holderAddress, address _lpToken, ) = _sTokens.getHolderData(\n\t\t\twhitelistedAddress\n\t\t);\n\n\t\t// (bool _isContractWhitelisted, address _holderAddress) = _sTokens.isContractWhitelisted(_lpToken);\n\t\trequire(_lpToken != address(0) && _holderAddress != address(0), \"LP1\");\n\n\t\t// calculate liquidity and reward tokens and disburse to user\n\t\t(reward, otherRewardAmounts, otherRewardTokens) = _calculateRewards(\n\t\t\t_holderAddress,\n\t\t\t_lpToken,\n\t\t\t_msgSender()\n\t\t);\n\n\t\temit TriggeredCalculateRewards(\n\t\t\t_holderAddress,\n\t\t\t_lpToken,\n\t\t\t_msgSender(),\n\t\t\treward,\n\t\t\totherRewardAmounts,\n\t\t\totherRewardTokens,\n\t\t\tblock.timestamp\n\t\t);\n\n\t\treturn (reward, otherRewardAmounts, otherRewardTokens);\n\t}\n\n\t/*\n\t * @dev calculate liquidity and reward tokens and disburse to user\n\t * @param lpToken: lp token contract address\n\t * @param amount: token amount\n\t */\n\tfunction calculateSyncedRewards(address whitelistedAddress)\n\t\tpublic\n\t\toverride\n\t\twhenNotPaused\n\t\treturns (\n\t\t\tuint256 reward,\n\t\t\tuint256 holderReward,\n\t\t\tuint256[] memory otherRewardAmounts,\n\t\t\taddress[] memory otherRewardTokens\n\t\t)\n\t{\n\t\t// check for validity of arguments\n\t\trequire(whitelistedAddress != address(0), \"LP2\");\n\n\t\t// check if lpToken contract of DeFi product address is whitelisted and has valid holder contract\n\t\t(address _holderAddress, address _lpToken, ) = _sTokens.getHolderData(\n\t\t\twhitelistedAddress\n\t\t);\n\n\t\t// (bool _isContractWhitelisted, address _holderAddress) = _sTokens.isContractWhitelisted(_lpToken);\n\t\trequire(_lpToken != address(0) && _holderAddress != address(0), \"LP1\");\n\n\t\t// initiate calculateHolderRewards first, using STokens contract\n\t\t// to sync the reward pool in holder contract with rewards from whitelisted contract\n\t\tholderReward = _sTokens.calculateHolderRewards(whitelistedAddress);\n\n\t\t// now initiate the _calculateRewards to distribute to the user\n\t\t// calculate liquidity and reward tokens and disburse to user\n\t\t(reward, otherRewardAmounts, otherRewardTokens) = _calculateRewards(\n\t\t\t_holderAddress,\n\t\t\t_lpToken,\n\t\t\t_msgSender()\n\t\t);\n\n\t\temit TriggeredCalculateSyncedRewards(\n\t\t\t_holderAddress,\n\t\t\t_lpToken,\n\t\t\t_msgSender(),\n\t\t\treward,\n\t\t\tholderReward,\n\t\t\totherRewardAmounts,\n\t\t\totherRewardTokens,\n\t\t\tblock.timestamp\n\t\t);\n\n\t\treturn (reward, holderReward, otherRewardAmounts, otherRewardTokens);\n\t}\n\n\t/*\n\t * @dev adding the liquidity\n\t * @param lpToken: lp token contract address\n\t * @param amount: token amount\n\t *\n\t * Emits a {AddLiquidity} event with 'lpToken, amount, rewards and liquidity'\n\t *\n\t */\n\tfunction addLiquidity(address whitelistedAddress, uint256 amount)\n\t\tpublic\n\t\tvirtual\n\t\toverride\n\t\twhenNotPaused\n\t\treturns (bool success)\n\t{\n\t\t// check for validity of arguments\n\t\trequire(amount > 0 && whitelistedAddress != address(0), \"LP3\");\n\n\t\t// check if lpToken contract of DeFi product address is whitelisted and has valid holder contract\n\t\t// (bool _isContractWhitelisted, address _holderAddress) = _sTokens.isContractWhitelisted(_lpToken);\n\t\t(address _holderAddress, address _lpToken, ) = _sTokens.getHolderData(\n\t\t\twhitelistedAddress\n\t\t);\n\t\trequire(_holderAddress != address(0) && _lpToken != address(0), \"LP4\");\n\t\taddress messageSender = _msgSender();\n\n\t\t// calculate liquidity and reward tokens and disburse to user\n\t\t_calculateRewards(_holderAddress, _lpToken, messageSender);\n\t\t// finally transfer the new LP Tokens to the StakeLP contract\n\t\tTransferHelper.safeTransferFrom(\n\t\t\t_lpToken,\n\t\t\tmessageSender,\n\t\t\taddress(this),\n\t\t\tamount\n\t\t);\n\n\t\t// update the user balance\n\t\t_lpBalance[_lpToken][messageSender] = _lpBalance[_lpToken][\n\t\t\tmessageSender\n\t\t].add(amount);\n\t\t// update the supply of lp tokens for reward and liquidity calculation\n\t\t_lpSupply[_lpToken] = _lpSupply[_lpToken].add(amount);\n\n\t\t// emit an event\n\t\temit AddLiquidity(_lpToken, amount, block.timestamp);\n\t\tsuccess = true;\n\t\treturn success;\n\t}\n\n\t/*\n\t * @dev removing the liquidity\n\t * @param lpToken: lp token contract address\n\t * @param amount: token amount\n\t *\n\t * Emits a {RemoveLiquidity} event with 'lpToken, amount, rewards and liquidity'\n\t *\n\t */\n\tfunction removeLiquidity(address whitelistedAddress, uint256 amount)\n\t\tpublic\n\t\tvirtual\n\t\toverride\n\t\twhenNotPaused\n\t\treturns (bool success)\n\t{\n\t\t// check for validity of arguments\n\t\trequire(amount > 0 && whitelistedAddress != address(0), \"LP6\");\n\n\t\t// check if lpToken contract of DeFi product address is whitelisted and has valid holder contract\n\t\t// (bool _isContractWhitelisted, address _holderAddress) = _sTokens.isContractWhitelisted(lpToken);\n\t\t(address _holderAddress, address _lpToken, ) = _sTokens.getHolderData(\n\t\t\twhitelistedAddress\n\t\t);\n\t\trequire(_holderAddress != address(0) && _lpToken != address(0), \"LP7\");\n\t\taddress messageSender = _msgSender();\n\n\t\t// check if suffecient balance is there\n\t\trequire(_lpBalance[_lpToken][messageSender] >= amount, \"LP8\");\n\n\t\t// calculate liquidity and reward tokens and disburse to user\n\t\t_calculateRewards(_holderAddress, _lpToken, messageSender);\n\n\t\t// finally transfer the LP Tokens to the user\n\t\tTransferHelper.safeTransfer(_lpToken, messageSender, amount);\n\n\t\t// update the user balance\n\t\t_lpBalance[_lpToken][messageSender] = _lpBalance[_lpToken][\n\t\t\tmessageSender\n\t\t].sub(amount);\n\t\t// update the supply of lp tokens for reward and liquidity calculation\n\t\t_lpSupply[_lpToken] = _lpSupply[_lpToken].sub(amount);\n\n\t\temit RemoveLiquidity(_lpToken, amount, block.timestamp);\n\t\tsuccess = true;\n\t\treturn success;\n\t}\n\n\t/**\n\t * @dev Set 'contract address', called from constructor\n\t * @param uAddress: utoken contract address\n\t *\n\t * Emits a {SetUTokensContract} event with '_contract' set to the utoken contract address.\n\t *\n\t */\n\tfunction setUTokensContract(address uAddress) public virtual override {\n\t\trequire(hasRole(DEFAULT_ADMIN_ROLE, _msgSender()), \"LP9\");\n\t\t_uTokens = IUTokens(uAddress);\n\t\temit SetUTokensContract(uAddress);\n\t}\n\n\t/**\n\t * @dev Set 'contract address', called from constructor\n\t * @param sAddress: stoken contract address\n\t *\n\t * Emits a {SetSTokensContract} event with '_contract' set to the stoken contract address.\n\t *\n\t */\n\tfunction setSTokensContract(address sAddress) public virtual override {\n\t\trequire(hasRole(DEFAULT_ADMIN_ROLE, _msgSender()), \"LP10\");\n\t\t_sTokens = ISTokens(sAddress);\n\t\temit SetSTokensContract(sAddress);\n\t}\n\n\t/**\n\t * @dev Set 'contract address', called from constructor\n\t * @param pstakeAddress: pStake contract address\n\t *\n\t * Emits a {SetPSTAKEContract} event with '_contract' set to the stoken contract address.\n\t *\n\t */\n\tfunction setPSTAKEContract(address pstakeAddress) public virtual override {\n\t\trequire(hasRole(DEFAULT_ADMIN_ROLE, _msgSender()), \"LP11\");\n\t\t_pstakeTokens = IPSTAKE(pstakeAddress);\n\t\temit SetPSTAKEContract(pstakeAddress);\n\t}\n\n\t/*\n\t * @dev calculate liquidity and reward tokens and disburse to user\n\t * @param lpToken: lp token contract address\n\t * @param amount: token amount\n\t */\n\tfunction _setHolderAddressForRewards(\n\t\taddress holderContractAddress,\n\t\taddress[] memory rewardTokenContractAddresses,\n\t\tuint256[] memory rewardTokenEmissions\n\t) internal returns (bool success) {\n\t\t// add the Holder Contract address if it isn't already available\n\t\tif (!_holderContractList.contains(holderContractAddress)) {\n\t\t\t_holderContractList.add(holderContractAddress);\n\t\t}\n\n\t\tuint256 i;\n\t\tuint256 _rewardTokenContractAddressesLength = rewardTokenContractAddresses\n\t\t\t\t.length;\n\t\tfor (i = 0; i < _rewardTokenContractAddressesLength; i = i.add(1)) {\n\t\t\t// add the Token Contract addresss to the reward tokens list for the Holder Contract\n\t\t\tif (rewardTokenContractAddresses[i] != address(0)) {\n\t\t\t\t// search if the reward token contract is already part of list\n\t\t\t\tif (\n\t\t\t\t\t_rewardTokenListIndex[holderContractAddress][\n\t\t\t\t\t\trewardTokenContractAddresses[i]\n\t\t\t\t\t] == 0\n\t\t\t\t) {\n\t\t\t\t\t_rewardTokenList[holderContractAddress].push(\n\t\t\t\t\t\trewardTokenContractAddresses[i]\n\t\t\t\t\t);\n\t\t\t\t\t_rewardTokenListIndex[holderContractAddress][\n\t\t\t\t\t\trewardTokenContractAddresses[i]\n\t\t\t\t\t] = _rewardTokenList[holderContractAddress].length;\n\t\t\t\t}\n\t\t\t}\n\t\t\t// add the reward token emission value to the mapping\n\t\t\tif (rewardTokenEmissions[i] != 0) {\n\t\t\t\t_rewardTokenEmission[holderContractAddress][\n\t\t\t\t\trewardTokenContractAddresses[i]\n\t\t\t\t] = rewardTokenEmissions[i];\n\t\t\t}\n\t\t}\n\t\tsuccess = true;\n\t\treturn success;\n\t}\n\n\t/*\n\t * @dev calculate liquidity and reward tokens and disburse to user\n\t * @param lpToken: lp token contract address\n\t * @param amount: token amount\n\t */\n\tfunction setHolderAddressForRewards(\n\t\taddress holderContractAddress,\n\t\taddress[] memory rewardTokenContractAddresses,\n\t\tuint256[] memory rewardTokenEmissions\n\t) public returns (bool success) {\n\t\trequire(hasRole(DEFAULT_ADMIN_ROLE, _msgSender()), \"LP15\");\n\t\t// check if the holder contract address is not zero\n\t\trequire(\n\t\t\tholderContractAddress != address(0) &&\n\t\t\t\trewardTokenContractAddresses.length ==\n\t\t\t\trewardTokenEmissions.length,\n\t\t\t\"LP14\"\n\t\t);\n\t\t_setHolderAddressForRewards(\n\t\t\tholderContractAddress,\n\t\t\trewardTokenContractAddresses,\n\t\t\trewardTokenEmissions\n\t\t);\n\t\t// emit an event capturing the action\n\t\temit SetHolderAddressForRewards(\n\t\t\tholderContractAddress,\n\t\t\trewardTokenContractAddresses,\n\t\t\trewardTokenEmissions,\n\t\t\tblock.timestamp\n\t\t);\n\n\t\tsuccess = true;\n\t\treturn success;\n\t}\n\n\t/*\n\t * @dev calculate liquidity and reward tokens and disburse to user\n\t * @param lpToken: lp token contract address\n\t * @param amount: token amount\n\t */\n\tfunction setHolderAddressesForRewards(\n\t\taddress[] memory holderContractAddresses,\n\t\taddress[] memory rewardTokenContractAddresses,\n\t\tuint256[] memory rewardTokenEmissions\n\t) public returns (bool success) {\n\t\trequire(hasRole(DEFAULT_ADMIN_ROLE, _msgSender()), \"LP16\");\n\t\trequire(\n\t\t\trewardTokenContractAddresses.length == rewardTokenEmissions.length,\n\t\t\t\"LP17\"\n\t\t);\n\t\tuint256 _holderContractAddressesLength = holderContractAddresses.length;\n\t\tuint256 i;\n\t\tfor (i = 0; i < _holderContractAddressesLength; i = i.add(1)) {\n\t\t\trequire(holderContractAddresses[i] != address(0), \"LP18\");\n\t\t\t_setHolderAddressForRewards(\n\t\t\t\tholderContractAddresses[i],\n\t\t\t\trewardTokenContractAddresses,\n\t\t\t\trewardTokenEmissions\n\t\t\t);\n\t\t}\n\n\t\t// emit an event capturing the action\n\t\temit SetHolderAddressesForRewards(\n\t\t\tholderContractAddresses,\n\t\t\trewardTokenContractAddresses,\n\t\t\trewardTokenEmissions,\n\t\t\tblock.timestamp\n\t\t);\n\n\t\tsuccess = true;\n\t\treturn success;\n\t}\n\n\t/*\n\t * @dev calculate liquidity and reward tokens and disburse to user\n\t * @param lpToken: lp token contract address\n\t * @param amount: token amount\n\t */\n\tfunction _removeHolderAddressForRewards(address holderContractAddress)\n\t\tinternal\n\t\treturns (bool success)\n\t{\n\t\t// delete holder contract from enumerable set\n\t\t_holderContractList.remove(holderContractAddress);\n\t\t// get the list of token contracts and remove the index values, and their emissions\n\t\taddress[] memory _rewardTokenListLocal = _rewardTokenList[\n\t\t\tholderContractAddress\n\t\t];\n\t\tuint256 _rewardTokenListLength = _rewardTokenListLocal.length;\n\t\tuint256 i;\n\t\tfor (i = 0; i < _rewardTokenListLength; i = i.add(1)) {\n\t\t\tdelete _rewardTokenListIndex[holderContractAddress][\n\t\t\t\t_rewardTokenListLocal[i]\n\t\t\t];\n\t\t\tdelete _rewardTokenEmission[holderContractAddress][\n\t\t\t\t_rewardTokenListLocal[i]\n\t\t\t];\n\t\t}\n\t\t// delete the list of token contract addresses\n\t\tdelete _rewardTokenList[holderContractAddress];\n\n\t\tsuccess = true;\n\t\treturn success;\n\t}\n\n\t/*\n\t * @dev calculate liquidity and reward tokens and disburse to user\n\t * @param lpToken: lp token contract address\n\t * @param amount: token amount\n\t */\n\tfunction removeHolderAddressForRewards(address holderContractAddress)\n\t\tpublic\n\t\treturns (bool success)\n\t{\n\t\trequire(hasRole(DEFAULT_ADMIN_ROLE, _msgSender()), \"LP15\");\n\t\t// check if the holder contract address is not zero\n\t\trequire(holderContractAddress != address(0), \"LP14\");\n\n\t\t_removeHolderAddressForRewards(holderContractAddress);\n\t\t// emit an event capturing the action\n\t\temit RemoveHolderAddressForRewards(\n\t\t\tholderContractAddress,\n\t\t\tblock.timestamp\n\t\t);\n\n\t\tsuccess = true;\n\t\treturn success;\n\t}\n\n\t/*\n\t * @dev calculate liquidity and reward tokens and disburse to user\n\t * @param lpToken: lp token contract address\n\t * @param amount: token amount\n\t */\n\tfunction removeHolderAddressesForRewards(\n\t\taddress[] memory holderContractAddresses\n\t) public returns (bool success) {\n\t\trequire(hasRole(DEFAULT_ADMIN_ROLE, _msgSender()), \"LP16\");\n\t\tuint256 _holderContractAddressesLength = holderContractAddresses.length;\n\t\tuint256 i;\n\t\tfor (i = 0; i < _holderContractAddressesLength; i = i.add(1)) {\n\t\t\trequire(holderContractAddresses[i] != address(0), \"LP18\");\n\t\t\t_removeHolderAddressForRewards(holderContractAddresses[i]);\n\t\t}\n\n\t\t// emit an event capturing the action\n\t\temit RemoveHolderAddressesForRewards(\n\t\t\tholderContractAddresses,\n\t\t\tblock.timestamp\n\t\t);\n\n\t\tsuccess = true;\n\t\treturn success;\n\t}\n\n\t/*\n\t * @dev calculate liquidity and reward tokens and disburse to user\n\t * @param lpToken: lp token contract address\n\t * @param amount: token amount\n\t */\n\tfunction _removeTokenContractForRewards(\n\t\taddress holderContractAddress,\n\t\taddress[] memory rewardTokenContractAddresses\n\t) internal returns (bool success) {\n\t\tuint256 i;\n\t\tuint256 _rewardTokenContractAddressesLength = rewardTokenContractAddresses\n\t\t\t\t.length;\n\t\tfor (i = 0; i < _rewardTokenContractAddressesLength; i = i.add(1)) {\n\t\t\tif (rewardTokenContractAddresses[i] != address(0)) {\n\t\t\t\t// remove the token address from the list\n\t\t\t\tuint256 rewardTokenListIndexLocal = _rewardTokenListIndex[\n\t\t\t\t\tholderContractAddress\n\t\t\t\t][rewardTokenContractAddresses[i]];\n\t\t\t\tif (rewardTokenListIndexLocal > 0) {\n\t\t\t\t\tif (\n\t\t\t\t\t\trewardTokenListIndexLocal ==\n\t\t\t\t\t\t_rewardTokenList[holderContractAddress].length\n\t\t\t\t\t) {\n\t\t\t\t\t\t_rewardTokenList[holderContractAddress].pop();\n\t\t\t\t\t} else {\n\t\t\t\t\t\t_rewardTokenList[holderContractAddress][\n\t\t\t\t\t\t\trewardTokenListIndexLocal.sub(1)\n\t\t\t\t\t\t] = _rewardTokenList[holderContractAddress][\n\t\t\t\t\t\t\t_rewardTokenList[holderContractAddress].length.sub(\n\t\t\t\t\t\t\t\t1\n\t\t\t\t\t\t\t)\n\t\t\t\t\t\t];\n\t\t\t\t\t\t_rewardTokenList[holderContractAddress].pop();\n\t\t\t\t\t}\n\n\t\t\t\t\t// delete the index value\n\t\t\t\t\tdelete _rewardTokenListIndex[holderContractAddress][\n\t\t\t\t\t\trewardTokenContractAddresses[i]\n\t\t\t\t\t];\n\n\t\t\t\t\t// delete the emission value\n\t\t\t\t\tdelete _rewardTokenEmission[holderContractAddress][\n\t\t\t\t\t\trewardTokenContractAddresses[i]\n\t\t\t\t\t];\n\t\t\t\t}\n\t\t\t}\n\t\t}\n\n\t\tsuccess = true;\n\t\treturn success;\n\t}\n\n\t/*\n\t * @dev calculate liquidity and reward tokens and disburse to user\n\t * @param lpToken: lp token contract address\n\t * @param amount: token amount\n\t */\n\tfunction removeTokenContractForRewards(\n\t\taddress holderContractAddress,\n\t\taddress[] memory rewardTokenContractAddresses\n\t) public returns (bool success) {\n\t\trequire(hasRole(DEFAULT_ADMIN_ROLE, _msgSender()), \"LP15\");\n\t\t// check if the holder contract address is not zero\n\t\trequire(holderContractAddress != address(0), \"LP14\");\n\t\t_removeTokenContractForRewards(\n\t\t\tholderContractAddress,\n\t\t\trewardTokenContractAddresses\n\t\t);\n\t\t// emit an event capturing the action\n\t\temit RemoveTokenContractForRewards(\n\t\t\tholderContractAddress,\n\t\t\trewardTokenContractAddresses,\n\t\t\tblock.timestamp\n\t\t);\n\n\t\tsuccess = true;\n\t\treturn success;\n\t}\n\n\t/*\n\t * @dev calculate liquidity and reward tokens and disburse to user\n\t * @param lpToken: lp token contract address\n\t * @param amount: token amount\n\t */\n\tfunction removeTokenContractsForRewards(\n\t\taddress[] memory holderContractAddresses,\n\t\taddress[] memory rewardTokenContractAddresses\n\t) public returns (bool success) {\n\t\trequire(hasRole(DEFAULT_ADMIN_ROLE, _msgSender()), \"LP16\");\n\t\tuint256 _holderContractAddressesLength = holderContractAddresses.length;\n\t\tuint256 i;\n\t\tfor (i = 0; i < _holderContractAddressesLength; i = i.add(1)) {\n\t\t\trequire(holderContractAddresses[i] != address(0), \"LP18\");\n\t\t\t_removeTokenContractForRewards(\n\t\t\t\tholderContractAddresses[i],\n\t\t\t\trewardTokenContractAddresses\n\t\t\t);\n\t\t}\n\n\t\t// emit an event capturing the action\n\t\temit RemoveTokenContractsForRewards(\n\t\t\tholderContractAddresses,\n\t\t\trewardTokenContractAddresses,\n\t\t\tblock.timestamp\n\t\t);\n\n\t\tsuccess = true;\n\t\treturn success;\n\t}\n\n\t/**\n\t * @dev Triggers stopped state.\n\t *\n\t * Requirements:\n\t *\n\t * - The contract must not be paused.\n\t */\n\tfunction pause() public virtual returns (bool success) {\n\t\trequire(hasRole(PAUSER_ROLE, _msgSender()), \"LP12\");\n\t\t_pause();\n\t\treturn true;\n\t}\n\n\t/**\n\t * @dev Returns to normal state.\n\t *\n\t * Requirements:\n\t *\n\t * - The contract must be paused.\n\t */\n\tfunction unpause() public virtual returns (bool success) {\n\t\trequire(hasRole(PAUSER_ROLE, _msgSender()), \"LP13\");\n\t\t_unpause();\n\t\treturn true;\n\t}\n}\n",
  "sourcePath": "C:\\Users\\Kamlesh\\Persistence\\pStake\\codebase\\pStake-smartContracts\\contracts\\StakeLPCoreV8.sol",
  "compiler": {
    "name": "solc",
    "version": "0.7.6+commit.7338295f.Emscripten.clang"
  },
  "schemaVersion": "3.4.3",
  "updatedAt": "2021-08-20T16:34:20.512Z",
  "devdoc": {
    "kind": "dev",
    "methods": {
      "calculateRewards(address)": {
        "details": "remove liquidity Returns a uint256"
      },
      "calculateSyncedRewards(address)": {
        "details": "remove liquidity Returns a uint256"
      },
      "getRoleAdmin(bytes32)": {
        "details": "Returns the admin role that controls `role`. See {grantRole} and {revokeRole}. To change a role's admin, use {_setRoleAdmin}."
      },
      "getRoleMember(bytes32,uint256)": {
        "details": "Returns one of the accounts that have `role`. `index` must be a value between 0 and {getRoleMemberCount}, non-inclusive. Role bearers are not sorted in any particular way, and their ordering may change at any point. WARNING: When using {getRoleMember} and {getRoleMemberCount}, make sure you perform all queries on the same block. See the following https://forum.openzeppelin.com/t/iterating-over-elements-on-enumerableset-in-openzeppelin-contracts/2296[forum post] for more information."
      },
      "getRoleMemberCount(bytes32)": {
        "details": "Returns the number of accounts that have `role`. Can be used together with {getRoleMember} to enumerate all bearers of a role."
      },
      "grantRole(bytes32,address)": {
        "details": "Grants `role` to `account`. If `account` had not been already granted `role`, emits a {RoleGranted} event. Requirements: - the caller must have ``role``'s admin role."
      },
      "hasRole(bytes32,address)": {
        "details": "Returns `true` if `account` has been granted `role`."
      },
      "initialize(address,address,address,address,uint256)": {
        "details": "Constructor for initializing the LiquidStaking contract.",
        "params": {
          "pStakeAddress": "- address of the pStake contract address.",
          "sAddress": "- address of the SToken contract.",
          "uAddress": "- address of the UToken contract."
        }
      },
      "pause()": {
        "details": "Triggers stopped state. Requirements: - The contract must not be paused."
      },
      "paused()": {
        "details": "Returns true if the contract is paused, and false otherwise."
      },
      "renounceRole(bytes32,address)": {
        "details": "Revokes `role` from the calling account. Roles are often managed via {grantRole} and {revokeRole}: this function's purpose is to provide a mechanism for accounts to lose their privileges if they are compromised (such as when a trusted device is misplaced). If the calling account had been granted `role`, emits a {RoleRevoked} event. Requirements: - the caller must be `account`."
      },
      "revokeRole(bytes32,address)": {
        "details": "Revokes `role` from `account`. If `account` had been granted `role`, emits a {RoleRevoked} event. Requirements: - the caller must have ``role``'s admin role."
      },
      "setPSTAKEContract(address)": {
        "details": "Set 'contract address', called from constructor",
        "params": {
          "pstakeAddress": ": pStake contract address Emits a {SetPSTAKEContract} event with '_contract' set to the stoken contract address."
        }
      },
      "setSTokensContract(address)": {
        "details": "Set 'contract address', called from constructor",
        "params": {
          "sAddress": ": stoken contract address Emits a {SetSTokensContract} event with '_contract' set to the stoken contract address."
        }
      },
      "setUTokensContract(address)": {
        "details": "Set 'contract address', called from constructor",
        "params": {
          "uAddress": ": utoken contract address Emits a {SetUTokensContract} event with '_contract' set to the utoken contract address."
        }
      },
      "unpause()": {
        "details": "Returns to normal state. Requirements: - The contract must be paused."
      }
    },
    "version": 1
  },
  "userdoc": {
    "kind": "user",
    "methods": {},
    "version": 1
  }
}