{
  "contractName": "StakeLPCoreV8",
  "abi": [
    {
      "anonymous": false,
      "inputs": [
        {
          "indexed": false,
          "internalType": "address",
          "name": "lpToken",
          "type": "address"
        },
        {
          "indexed": false,
          "internalType": "uint256",
          "name": "amount",
          "type": "uint256"
        },
        {
          "indexed": false,
          "internalType": "uint256",
          "name": "timestamp",
          "type": "uint256"
        }
      ],
      "name": "AddLiquidity",
      "type": "event"
    },
    {
      "anonymous": false,
      "inputs": [
        {
          "indexed": false,
          "internalType": "address",
          "name": "holderAddress",
          "type": "address"
        },
        {
          "indexed": false,
          "internalType": "address",
          "name": "lpToken",
          "type": "address"
        },
        {
          "indexed": false,
          "internalType": "uint256",
          "name": "amount",
          "type": "uint256"
        },
        {
          "indexed": false,
          "internalType": "address",
          "name": "to",
          "type": "address"
        },
        {
          "indexed": false,
          "internalType": "uint256",
          "name": "liquidity",
          "type": "uint256"
        },
        {
          "indexed": false,
          "internalType": "uint256",
          "name": "reward",
          "type": "uint256"
        }
      ],
      "name": "CalculateRewardsAndLiquidity",
      "type": "event"
    },
    {
      "anonymous": false,
      "inputs": [
        {
          "indexed": true,
          "internalType": "address",
          "name": "holderAddress",
          "type": "address"
        },
        {
          "indexed": true,
          "internalType": "address",
          "name": "lpToken",
          "type": "address"
        },
        {
          "indexed": true,
          "internalType": "address",
          "name": "to",
          "type": "address"
        },
        {
          "indexed": false,
          "internalType": "uint256",
          "name": "tokens",
          "type": "uint256"
        },
        {
          "indexed": false,
          "internalType": "uint256[]",
          "name": "otherRewardAmounts",
          "type": "uint256[]"
        },
        {
          "indexed": false,
          "internalType": "address[]",
          "name": "otherRewardTokens",
          "type": "address[]"
        },
        {
          "indexed": false,
          "internalType": "uint256",
          "name": "timestamp",
          "type": "uint256"
        }
      ],
      "name": "CalculateRewardsStakeLP",
      "type": "event"
    },
    {
      "anonymous": false,
      "inputs": [
        {
          "indexed": false,
          "internalType": "address",
          "name": "account",
          "type": "address"
        }
      ],
      "name": "Paused",
      "type": "event"
    },
    {
      "anonymous": false,
      "inputs": [
        {
          "indexed": false,
          "internalType": "address",
          "name": "holderContractAddress",
          "type": "address"
        },
        {
          "indexed": false,
          "internalType": "uint256",
          "name": "timestamp",
          "type": "uint256"
        }
      ],
      "name": "RemoveHolderAddressForRewards",
      "type": "event"
    },
    {
      "anonymous": false,
      "inputs": [
        {
          "indexed": false,
          "internalType": "address[]",
          "name": "holderContractAddresses",
          "type": "address[]"
        },
        {
          "indexed": false,
          "internalType": "uint256",
          "name": "timestamp",
          "type": "uint256"
        }
      ],
      "name": "RemoveHolderAddressesForRewards",
      "type": "event"
    },
    {
      "anonymous": false,
      "inputs": [
        {
          "indexed": false,
          "internalType": "address",
          "name": "lpToken",
          "type": "address"
        },
        {
          "indexed": false,
          "internalType": "uint256",
          "name": "amount",
          "type": "uint256"
        },
        {
          "indexed": false,
          "internalType": "uint256",
          "name": "timestamp",
          "type": "uint256"
        }
      ],
      "name": "RemoveLiquidity",
      "type": "event"
    },
    {
      "anonymous": false,
      "inputs": [
        {
          "indexed": false,
          "internalType": "address",
          "name": "holderContractAddress",
          "type": "address"
        },
        {
          "indexed": false,
          "internalType": "address[]",
          "name": "rewardTokenContractAddress",
          "type": "address[]"
        },
        {
          "indexed": false,
          "internalType": "uint256",
          "name": "timestamp",
          "type": "uint256"
        }
      ],
      "name": "RemoveTokenContractForRewards",
      "type": "event"
    },
    {
      "anonymous": false,
      "inputs": [
        {
          "indexed": false,
          "internalType": "address[]",
          "name": "holderContractAddresses",
          "type": "address[]"
        },
        {
          "indexed": false,
          "internalType": "address[]",
          "name": "rewardTokenContractAddress",
          "type": "address[]"
        },
        {
          "indexed": false,
          "internalType": "uint256",
          "name": "timestamp",
          "type": "uint256"
        }
      ],
      "name": "RemoveTokenContractsForRewards",
      "type": "event"
    },
    {
      "anonymous": false,
      "inputs": [
        {
          "indexed": true,
          "internalType": "bytes32",
          "name": "role",
          "type": "bytes32"
        },
        {
          "indexed": true,
          "internalType": "bytes32",
          "name": "previousAdminRole",
          "type": "bytes32"
        },
        {
          "indexed": true,
          "internalType": "bytes32",
          "name": "newAdminRole",
          "type": "bytes32"
        }
      ],
      "name": "RoleAdminChanged",
      "type": "event"
    },
    {
      "anonymous": false,
      "inputs": [
        {
          "indexed": true,
          "internalType": "bytes32",
          "name": "role",
          "type": "bytes32"
        },
        {
          "indexed": true,
          "internalType": "address",
          "name": "account",
          "type": "address"
        },
        {
          "indexed": true,
          "internalType": "address",
          "name": "sender",
          "type": "address"
        }
      ],
      "name": "RoleGranted",
      "type": "event"
    },
    {
      "anonymous": false,
      "inputs": [
        {
          "indexed": true,
          "internalType": "bytes32",
          "name": "role",
          "type": "bytes32"
        },
        {
          "indexed": true,
          "internalType": "address",
          "name": "account",
          "type": "address"
        },
        {
          "indexed": true,
          "internalType": "address",
          "name": "sender",
          "type": "address"
        }
      ],
      "name": "RoleRevoked",
      "type": "event"
    },
    {
      "anonymous": false,
      "inputs": [
        {
          "indexed": false,
          "internalType": "address",
          "name": "holderContractAddress",
          "type": "address"
        },
        {
          "indexed": false,
          "internalType": "address[]",
          "name": "rewardTokenContractAddress",
          "type": "address[]"
        },
        {
          "indexed": false,
          "internalType": "uint256[]",
          "name": "rewardTokenEmissions",
          "type": "uint256[]"
        },
        {
          "indexed": false,
          "internalType": "uint256",
          "name": "timestamp",
          "type": "uint256"
        }
      ],
      "name": "SetHolderAddressForRewards",
      "type": "event"
    },
    {
      "anonymous": false,
      "inputs": [
        {
          "indexed": false,
          "internalType": "address[]",
          "name": "holderContractAddresses",
          "type": "address[]"
        },
        {
          "indexed": false,
          "internalType": "address[]",
          "name": "rewardTokenContractAddress",
          "type": "address[]"
        },
        {
          "indexed": false,
          "internalType": "uint256[]",
          "name": "rewardTokenEmissions",
          "type": "uint256[]"
        },
        {
          "indexed": false,
          "internalType": "uint256",
          "name": "timestamp",
          "type": "uint256"
        }
      ],
      "name": "SetHolderAddressesForRewards",
      "type": "event"
    },
    {
      "anonymous": false,
      "inputs": [
        {
          "indexed": true,
          "internalType": "address",
          "name": "_contract",
          "type": "address"
        }
      ],
      "name": "SetPSTAKEContract",
      "type": "event"
    },
    {
      "anonymous": false,
      "inputs": [
        {
          "indexed": true,
          "internalType": "address",
          "name": "_contract",
          "type": "address"
        }
      ],
      "name": "SetSTokensContract",
      "type": "event"
    },
    {
      "anonymous": false,
      "inputs": [
        {
          "indexed": true,
          "internalType": "address",
          "name": "_contract",
          "type": "address"
        }
      ],
      "name": "SetUTokensContract",
      "type": "event"
    },
    {
      "anonymous": false,
      "inputs": [
        {
          "indexed": true,
          "internalType": "address",
          "name": "holderAddress",
          "type": "address"
        },
        {
          "indexed": true,
          "internalType": "address",
          "name": "lpToken",
          "type": "address"
        },
        {
          "indexed": true,
          "internalType": "address",
          "name": "to",
          "type": "address"
        },
        {
          "indexed": false,
          "internalType": "uint256",
          "name": "tokens",
          "type": "uint256"
        },
        {
          "indexed": false,
          "internalType": "uint256[]",
          "name": "otherRewardAmounts",
          "type": "uint256[]"
        },
        {
          "indexed": false,
          "internalType": "address[]",
          "name": "otherRewardTokens",
          "type": "address[]"
        },
        {
          "indexed": false,
          "internalType": "uint256",
          "name": "timestamp",
          "type": "uint256"
        }
      ],
      "name": "TriggeredCalculateRewardsStakeLP",
      "type": "event"
    },
    {
      "anonymous": false,
      "inputs": [
        {
          "indexed": true,
          "internalType": "address",
          "name": "holderAddress",
          "type": "address"
        },
        {
          "indexed": true,
          "internalType": "address",
          "name": "lpToken",
          "type": "address"
        },
        {
          "indexed": true,
          "internalType": "address",
          "name": "to",
          "type": "address"
        },
        {
          "indexed": false,
          "internalType": "uint256",
          "name": "reward",
          "type": "uint256"
        },
        {
          "indexed": false,
          "internalType": "uint256",
          "name": "holderReward",
          "type": "uint256"
        },
        {
          "indexed": false,
          "internalType": "uint256[]",
          "name": "otherRewardAmounts",
          "type": "uint256[]"
        },
        {
          "indexed": false,
          "internalType": "address[]",
          "name": "otherRewardTokens",
          "type": "address[]"
        },
        {
          "indexed": false,
          "internalType": "uint256",
          "name": "timestamp",
          "type": "uint256"
        }
      ],
      "name": "TriggeredCalculateSyncedRewards",
      "type": "event"
    },
    {
      "anonymous": false,
      "inputs": [
        {
          "indexed": false,
          "internalType": "address",
          "name": "account",
          "type": "address"
        }
      ],
      "name": "Unpaused",
      "type": "event"
    },
    {
      "inputs": [],
      "name": "DEFAULT_ADMIN_ROLE",
      "outputs": [
        {
          "internalType": "bytes32",
          "name": "",
          "type": "bytes32"
        }
      ],
      "stateMutability": "view",
      "type": "function"
    },
    {
      "inputs": [],
      "name": "PAUSER_ROLE",
      "outputs": [
        {
          "internalType": "bytes32",
          "name": "",
          "type": "bytes32"
        }
      ],
      "stateMutability": "view",
      "type": "function"
    },
    {
      "inputs": [
        {
          "internalType": "address",
          "name": "",
          "type": "address"
        }
      ],
      "name": "_lastLPTimeShare",
      "outputs": [
        {
          "internalType": "uint256",
          "name": "",
          "type": "uint256"
        }
      ],
      "stateMutability": "view",
      "type": "function"
    },
    {
      "inputs": [
        {
          "internalType": "address",
          "name": "",
          "type": "address"
        }
      ],
      "name": "_lastLPTimeShareTimestamp",
      "outputs": [
        {
          "internalType": "uint256",
          "name": "",
          "type": "uint256"
        }
      ],
      "stateMutability": "view",
      "type": "function"
    },
    {
      "inputs": [
        {
          "internalType": "address",
          "name": "",
          "type": "address"
        },
        {
          "internalType": "address",
          "name": "",
          "type": "address"
        }
      ],
      "name": "_lastLiquidityTimestamp",
      "outputs": [
        {
          "internalType": "uint256",
          "name": "",
          "type": "uint256"
        }
      ],
      "stateMutability": "view",
      "type": "function"
    },
    {
      "inputs": [
        {
          "internalType": "address",
          "name": "",
          "type": "address"
        },
        {
          "internalType": "address",
          "name": "",
          "type": "address"
        }
      ],
      "name": "_lastRewardPoolBalance",
      "outputs": [
        {
          "internalType": "uint256",
          "name": "",
          "type": "uint256"
        }
      ],
      "stateMutability": "view",
      "type": "function"
    },
    {
      "inputs": [
        {
          "internalType": "address",
          "name": "",
          "type": "address"
        },
        {
          "internalType": "address",
          "name": "",
          "type": "address"
        }
      ],
      "name": "_lastRewardPoolBalanceTimestamp",
      "outputs": [
        {
          "internalType": "uint256",
          "name": "",
          "type": "uint256"
        }
      ],
      "stateMutability": "view",
      "type": "function"
    },
    {
      "inputs": [
        {
          "internalType": "address",
          "name": "",
          "type": "address"
        },
        {
          "internalType": "address",
          "name": "",
          "type": "address"
        }
      ],
      "name": "_lpBalance",
      "outputs": [
        {
          "internalType": "uint256",
          "name": "",
          "type": "uint256"
        }
      ],
      "stateMutability": "view",
      "type": "function"
    },
    {
      "inputs": [
        {
          "internalType": "address",
          "name": "",
          "type": "address"
        }
      ],
      "name": "_lpSupply",
      "outputs": [
        {
          "internalType": "uint256",
          "name": "",
          "type": "uint256"
        }
      ],
      "stateMutability": "view",
      "type": "function"
    },
    {
      "inputs": [
        {
          "internalType": "address",
          "name": "",
          "type": "address"
        },
        {
          "internalType": "address",
          "name": "",
          "type": "address"
        }
      ],
      "name": "_rewardTokenEmission",
      "outputs": [
        {
          "internalType": "uint256",
          "name": "",
          "type": "uint256"
        }
      ],
      "stateMutability": "view",
      "type": "function"
    },
    {
      "inputs": [
        {
          "internalType": "address",
          "name": "",
          "type": "address"
        },
        {
          "internalType": "uint256",
          "name": "",
          "type": "uint256"
        }
      ],
      "name": "_rewardTokenList",
      "outputs": [
        {
          "internalType": "address",
          "name": "",
          "type": "address"
        }
      ],
      "stateMutability": "view",
      "type": "function"
    },
    {
      "inputs": [
        {
          "internalType": "address",
          "name": "",
          "type": "address"
        },
        {
          "internalType": "address",
          "name": "",
          "type": "address"
        }
      ],
      "name": "_rewardTokenListIndex",
      "outputs": [
        {
          "internalType": "uint256",
          "name": "",
          "type": "uint256"
        }
      ],
      "stateMutability": "view",
      "type": "function"
    },
    {
      "inputs": [],
      "name": "_sTokens",
      "outputs": [
        {
          "internalType": "contract ISTokensV2",
          "name": "",
          "type": "address"
        }
      ],
      "stateMutability": "view",
      "type": "function"
    },
    {
      "inputs": [],
      "name": "_uTokens",
      "outputs": [
        {
          "internalType": "contract IUTokensV2",
          "name": "",
          "type": "address"
        }
      ],
      "stateMutability": "view",
      "type": "function"
    },
    {
      "inputs": [],
      "name": "_valueDivisor",
      "outputs": [
        {
          "internalType": "uint256",
          "name": "",
          "type": "uint256"
        }
      ],
      "stateMutability": "view",
      "type": "function"
    },
    {
      "inputs": [],
      "name": "_version",
      "outputs": [
        {
          "internalType": "uint256",
          "name": "",
          "type": "uint256"
        }
      ],
      "stateMutability": "view",
      "type": "function"
    },
    {
      "inputs": [
        {
          "internalType": "bytes32",
          "name": "role",
          "type": "bytes32"
        }
      ],
      "name": "getRoleAdmin",
      "outputs": [
        {
          "internalType": "bytes32",
          "name": "",
          "type": "bytes32"
        }
      ],
      "stateMutability": "view",
      "type": "function"
    },
    {
      "inputs": [
        {
          "internalType": "bytes32",
          "name": "role",
          "type": "bytes32"
        },
        {
          "internalType": "uint256",
          "name": "index",
          "type": "uint256"
        }
      ],
      "name": "getRoleMember",
      "outputs": [
        {
          "internalType": "address",
          "name": "",
          "type": "address"
        }
      ],
      "stateMutability": "view",
      "type": "function"
    },
    {
      "inputs": [
        {
          "internalType": "bytes32",
          "name": "role",
          "type": "bytes32"
        }
      ],
      "name": "getRoleMemberCount",
      "outputs": [
        {
          "internalType": "uint256",
          "name": "",
          "type": "uint256"
        }
      ],
      "stateMutability": "view",
      "type": "function"
    },
    {
      "inputs": [
        {
          "internalType": "bytes32",
          "name": "role",
          "type": "bytes32"
        },
        {
          "internalType": "address",
          "name": "account",
          "type": "address"
        }
      ],
      "name": "grantRole",
      "outputs": [],
      "stateMutability": "nonpayable",
      "type": "function"
    },
    {
      "inputs": [
        {
          "internalType": "bytes32",
          "name": "role",
          "type": "bytes32"
        },
        {
          "internalType": "address",
          "name": "account",
          "type": "address"
        }
      ],
      "name": "hasRole",
      "outputs": [
        {
          "internalType": "bool",
          "name": "",
          "type": "bool"
        }
      ],
      "stateMutability": "view",
      "type": "function"
    },
    {
      "inputs": [],
      "name": "paused",
      "outputs": [
        {
          "internalType": "bool",
          "name": "",
          "type": "bool"
        }
      ],
      "stateMutability": "view",
      "type": "function"
    },
    {
      "inputs": [
        {
          "internalType": "bytes32",
          "name": "role",
          "type": "bytes32"
        },
        {
          "internalType": "address",
          "name": "account",
          "type": "address"
        }
      ],
      "name": "renounceRole",
      "outputs": [],
      "stateMutability": "nonpayable",
      "type": "function"
    },
    {
      "inputs": [
        {
          "internalType": "bytes32",
          "name": "role",
          "type": "bytes32"
        },
        {
          "internalType": "address",
          "name": "account",
          "type": "address"
        }
      ],
      "name": "revokeRole",
      "outputs": [],
      "stateMutability": "nonpayable",
      "type": "function"
    },
    {
      "inputs": [
        {
          "internalType": "address",
          "name": "uAddress",
          "type": "address"
        },
        {
          "internalType": "address",
          "name": "sAddress",
          "type": "address"
        },
        {
          "internalType": "address",
          "name": "pauserAddress",
          "type": "address"
        },
        {
          "internalType": "uint256",
          "name": "valueDivisor",
          "type": "uint256"
        }
      ],
      "name": "initialize",
      "outputs": [],
      "stateMutability": "nonpayable",
      "type": "function"
    },
    {
      "inputs": [],
      "name": "upgradeToV8",
      "outputs": [],
      "stateMutability": "nonpayable",
      "type": "function"
    },
    {
      "inputs": [
        {
          "internalType": "address",
          "name": "holderAddress",
          "type": "address"
        },
        {
          "internalType": "address",
          "name": "lpToken",
          "type": "address"
        },
        {
          "internalType": "address",
          "name": "to",
          "type": "address"
        }
      ],
      "name": "calculatePendingRewards",
      "outputs": [
        {
          "internalType": "uint256",
          "name": "reward",
          "type": "uint256"
        },
        {
          "internalType": "uint256[]",
          "name": "otherRewardAmounts",
          "type": "uint256[]"
        },
        {
          "internalType": "address[]",
          "name": "otherRewardTokens",
          "type": "address[]"
        },
        {
          "internalType": "uint256[]",
          "name": "updatedRewardPoolBalances",
          "type": "uint256[]"
        },
        {
          "internalType": "uint256",
          "name": "updatedSupplyLPTimeshare",
          "type": "uint256"
        }
      ],
      "stateMutability": "view",
      "type": "function"
    },
    {
      "inputs": [
        {
          "internalType": "address",
          "name": "whitelistedAddress",
          "type": "address"
        }
      ],
      "name": "calculateRewards",
      "outputs": [
        {
          "internalType": "uint256",
          "name": "reward",
          "type": "uint256"
        },
        {
          "internalType": "uint256[]",
          "name": "otherRewardAmounts",
          "type": "uint256[]"
        },
        {
          "internalType": "address[]",
          "name": "otherRewardTokens",
          "type": "address[]"
        }
      ],
      "stateMutability": "nonpayable",
      "type": "function"
    },
    {
      "inputs": [
        {
          "internalType": "address",
          "name": "whitelistedAddress",
          "type": "address"
        }
      ],
      "name": "calculateSyncedRewards",
      "outputs": [
        {
          "internalType": "uint256",
          "name": "reward",
          "type": "uint256"
        },
        {
          "internalType": "uint256",
          "name": "holderReward",
          "type": "uint256"
        },
        {
          "internalType": "uint256[]",
          "name": "otherRewardAmounts",
          "type": "uint256[]"
        },
        {
          "internalType": "address[]",
          "name": "otherRewardTokens",
          "type": "address[]"
        }
      ],
      "stateMutability": "nonpayable",
      "type": "function"
    },
    {
      "inputs": [
        {
          "internalType": "address",
          "name": "whitelistedAddress",
          "type": "address"
        },
        {
          "internalType": "uint256",
          "name": "amount",
          "type": "uint256"
        }
      ],
      "name": "addLiquidity",
      "outputs": [
        {
          "internalType": "bool",
          "name": "success",
          "type": "bool"
        }
      ],
      "stateMutability": "nonpayable",
      "type": "function"
    },
    {
      "inputs": [
        {
          "internalType": "address",
          "name": "whitelistedAddress",
          "type": "address"
        },
        {
          "internalType": "uint256",
          "name": "amount",
          "type": "uint256"
        }
      ],
      "name": "removeLiquidity",
      "outputs": [
        {
          "internalType": "bool",
          "name": "success",
          "type": "bool"
        }
      ],
      "stateMutability": "nonpayable",
      "type": "function"
    },
    {
      "inputs": [
        {
          "internalType": "address",
          "name": "uAddress",
          "type": "address"
        }
      ],
      "name": "setUTokensContract",
      "outputs": [],
      "stateMutability": "nonpayable",
      "type": "function"
    },
    {
      "inputs": [
        {
          "internalType": "address",
          "name": "sAddress",
          "type": "address"
        }
      ],
      "name": "setSTokensContract",
      "outputs": [],
      "stateMutability": "nonpayable",
      "type": "function"
    },
    {
      "inputs": [
        {
          "internalType": "address",
          "name": "holderContractAddress",
          "type": "address"
        },
        {
          "internalType": "address[]",
          "name": "rewardTokenContractAddresses",
          "type": "address[]"
        },
        {
          "internalType": "uint256[]",
          "name": "rewardTokenEmissions",
          "type": "uint256[]"
        }
      ],
      "name": "setHolderAddressForRewards",
      "outputs": [
        {
          "internalType": "bool",
          "name": "success",
          "type": "bool"
        }
      ],
      "stateMutability": "nonpayable",
      "type": "function"
    },
    {
      "inputs": [
        {
          "internalType": "address[]",
          "name": "holderContractAddresses",
          "type": "address[]"
        },
        {
          "internalType": "address[]",
          "name": "rewardTokenContractAddresses",
          "type": "address[]"
        },
        {
          "internalType": "uint256[]",
          "name": "rewardTokenEmissions",
          "type": "uint256[]"
        }
      ],
      "name": "setHolderAddressesForRewards",
      "outputs": [
        {
          "internalType": "bool",
          "name": "success",
          "type": "bool"
        }
      ],
      "stateMutability": "nonpayable",
      "type": "function"
    },
    {
      "inputs": [
        {
          "internalType": "address",
          "name": "holderContractAddress",
          "type": "address"
        }
      ],
      "name": "removeHolderAddressForRewards",
      "outputs": [
        {
          "internalType": "bool",
          "name": "success",
          "type": "bool"
        }
      ],
      "stateMutability": "nonpayable",
      "type": "function"
    },
    {
      "inputs": [
        {
          "internalType": "address[]",
          "name": "holderContractAddresses",
          "type": "address[]"
        }
      ],
      "name": "removeHolderAddressesForRewards",
      "outputs": [
        {
          "internalType": "bool",
          "name": "success",
          "type": "bool"
        }
      ],
      "stateMutability": "nonpayable",
      "type": "function"
    },
    {
      "inputs": [
        {
          "internalType": "address",
          "name": "holderContractAddress",
          "type": "address"
        },
        {
          "internalType": "address[]",
          "name": "rewardTokenContractAddresses",
          "type": "address[]"
        }
      ],
      "name": "removeTokenContractForRewards",
      "outputs": [
        {
          "internalType": "bool",
          "name": "success",
          "type": "bool"
        }
      ],
      "stateMutability": "nonpayable",
      "type": "function"
    },
    {
      "inputs": [
        {
          "internalType": "address[]",
          "name": "holderContractAddresses",
          "type": "address[]"
        },
        {
          "internalType": "address[]",
          "name": "rewardTokenContractAddresses",
          "type": "address[]"
        }
      ],
      "name": "removeTokenContractsForRewards",
      "outputs": [
        {
          "internalType": "bool",
          "name": "success",
          "type": "bool"
        }
      ],
      "stateMutability": "nonpayable",
      "type": "function"
    },
    {
      "inputs": [],
      "name": "pause",
      "outputs": [
        {
          "internalType": "bool",
          "name": "success",
          "type": "bool"
        }
      ],
      "stateMutability": "nonpayable",
      "type": "function"
    },
    {
      "inputs": [],
      "name": "unpause",
      "outputs": [
        {
          "internalType": "bool",
          "name": "success",
          "type": "bool"
        }
      ],
      "stateMutability": "nonpayable",
      "type": "function"
    }
  ],
  "bytecode": "0x608060405234801561001057600080fd5b506145bc806100206000396000f3fe608060405234801561001057600080fd5b50600436106102535760003560e01c80637a19ec7111610146578063abf5d5b2116100c3578063cce3dffd11610087578063cce3dffd14610de1578063cf756fdf14610e0f578063d547741f14610e4b578063d79cf55a14610e77578063e63ab1e914610e7f578063e6a4bcae14610e8757610253565b8063abf5d5b214610d42578063b29bad1314610d4a578063c0818a5214610d78578063c60d36c014610d9e578063ca15c87314610dc457610253565b806391d148541161010a57806391d1485414610b81578063954a2c8414610bad5780639611b5de14610ce0578063a201ccf614610d0e578063a217fddf14610d3a57610253565b80637a19ec71146109de5780637fb25edc14610a045780638456cb5914610b285780638546934614610b305780639010d07c14610b5e57610253565b806345d644cd116101d4578063693a461311610198578063693a4613146108b7578063695bc02f14610958578063728a99ee146109a057806376af31d6146109a857806378a2f074146109d657610253565b806345d644cd1461067457806346043a1a1461069a57806356688700146107bd5780635c975abb146107e957806364ab8675146107f157610253565b80632e31fab81161021b5780632e31fab8146105e65780632f2ff15d1461060c57806336568abe146106385780633e118dbe146106645780633f4ba83a1461066c57610253565b806302a944d314610258578063086181de1461031d57806321bdf9e5146104c2578063248a9ca3146104ea5780632cea1dce14610519575b600080fd5b6103096004803603604081101561026e57600080fd5b6001600160a01b038235169190810190604081016020820135600160201b81111561029857600080fd5b8201836020820111156102aa57600080fd5b803590602001918460208302840111600160201b831117156102cb57600080fd5b919080806020026020016040519081016040528093929190818152602001838360200280828437600092019190915250929550610eb5945050505050565b604080519115158252519081900360200190f35b6103096004803603606081101561033357600080fd5b810190602081018135600160201b81111561034d57600080fd5b82018360208201111561035f57600080fd5b803590602001918460208302840111600160201b8311171561038057600080fd5b9190808060200260200160405190810160405280939291908181526020018383602002808284376000920191909152509295949360208101935035915050600160201b8111156103cf57600080fd5b8201836020820111156103e157600080fd5b803590602001918460208302840111600160201b8311171561040257600080fd5b9190808060200260200160405190810160405280939291908181526020018383602002808284376000920191909152509295949360208101935035915050600160201b81111561045157600080fd5b82018360208201111561046357600080fd5b803590602001918460208302840111600160201b8311171561048457600080fd5b919080806020026020016040519081016040528093929190818152602001838360200280828437600092019190915250929550610fe9945050505050565b6104e8600480360360208110156104d857600080fd5b50356001600160a01b0316611229565b005b6105076004803603602081101561050057600080fd5b50356112b7565b60408051918252519081900360200190f35b61053f6004803603602081101561052f57600080fd5b50356001600160a01b03166112cc565b604051808581526020018481526020018060200180602001838103835285818151815260200191508051906020019060200280838360005b8381101561058f578181015183820152602001610577565b50505050905001838103825284818151815260200191508051906020019060200280838360005b838110156105ce5781810151838201526020016105b6565b50505050905001965050505050505060405180910390f35b6104e8600480360360208110156105fc57600080fd5b50356001600160a01b03166115d5565b6104e86004803603604081101561062257600080fd5b50803590602001356001600160a01b0316611666565b6104e86004803603604081101561064e57600080fd5b50803590602001356001600160a01b03166116cd565b61050761172e565b610309611734565b6105076004803603602081101561068a57600080fd5b50356001600160a01b0316611798565b610309600480360360408110156106b057600080fd5b810190602081018135600160201b8111156106ca57600080fd5b8201836020820111156106dc57600080fd5b803590602001918460208302840111600160201b831117156106fd57600080fd5b9190808060200260200160405190810160405280939291908181526020018383602002808284376000920191909152509295949360208101935035915050600160201b81111561074c57600080fd5b82018360208201111561075e57600080fd5b803590602001918460208302840111600160201b8311171561077f57600080fd5b9190808060200260200160405190810160405280939291908181526020018383602002808284376000920191909152509295506117aa945050505050565b610309600480360360408110156107d357600080fd5b506001600160a01b038135169060200135611961565b610309611bdb565b6108176004803603602081101561080757600080fd5b50356001600160a01b0316611be4565b604051808481526020018060200180602001838103835285818151815260200191508051906020019060200280838360005b83811015610861578181015183820152602001610849565b50505050905001838103825284818151815260200191508051906020019060200280838360005b838110156108a0578181015183820152602001610888565b505050509050019550505050505060405180910390f35b610309600480360360208110156108cd57600080fd5b810190602081018135600160201b8111156108e757600080fd5b8201836020820111156108f957600080fd5b803590602001918460208302840111600160201b8311171561091a57600080fd5b919080806020026020016040519081016040528093929190818152602001838360200280828437600092019190915250929550611e62945050505050565b6109846004803603604081101561096e57600080fd5b506001600160a01b038135169060200135611fd1565b604080516001600160a01b039092168252519081900360200190f35b610507612009565b610507600480360360408110156109be57600080fd5b506001600160a01b038135811691602001351661200f565b61098461202c565b610507600480360360208110156109f457600080fd5b50356001600160a01b031661203b565b610a3c60048036036060811015610a1a57600080fd5b506001600160a01b03813581169160208101358216916040909101351661204d565b60405180868152602001806020018060200180602001858152602001848103845288818151815260200191508051906020019060200280838360005b83811015610a90578181015183820152602001610a78565b50505050905001848103835287818151815260200191508051906020019060200280838360005b83811015610acf578181015183820152602001610ab7565b50505050905001848103825286818151815260200191508051906020019060200280838360005b83811015610b0e578181015183820152602001610af6565b505050509050019850505050505050505060405180910390f35b6103096121ef565b61050760048036036040811015610b4657600080fd5b506001600160a01b038135811691602001351661224d565b61098460048036036040811015610b7457600080fd5b508035906020013561226a565b61030960048036036040811015610b9757600080fd5b50803590602001356001600160a01b0316612282565b61030960048036036060811015610bc357600080fd5b6001600160a01b038235169190810190604081016020820135600160201b811115610bed57600080fd5b820183602082011115610bff57600080fd5b803590602001918460208302840111600160201b83111715610c2057600080fd5b9190808060200260200160405190810160405280939291908181526020018383602002808284376000920191909152509295949360208101935035915050600160201b811115610c6f57600080fd5b820183602082011115610c8157600080fd5b803590602001918460208302840111600160201b83111715610ca257600080fd5b91908080602002602001604051908101604052809392919081815260200183836020028082843760009201919091525092955061229a945050505050565b61050760048036036040811015610cf657600080fd5b506001600160a01b038135811691602001351661241f565b61030960048036036040811015610d2457600080fd5b506001600160a01b03813516906020013561243c565b610507612716565b6104e861271b565b61050760048036036040811015610d6057600080fd5b506001600160a01b038135811691602001351661276b565b61050760048036036020811015610d8e57600080fd5b50356001600160a01b0316612788565b61030960048036036020811015610db457600080fd5b50356001600160a01b031661279a565b61050760048036036020811015610dda57600080fd5b503561287b565b61050760048036036040811015610df757600080fd5b506001600160a01b0381358116916020013516612892565b6104e860048036036080811015610e2557600080fd5b506001600160a01b038135811691602081013582169160408201351690606001356128af565b6104e860048036036040811015610e6157600080fd5b50803590602001356001600160a01b03166129a6565b6109846129ff565b610507612a0e565b61050760048036036040811015610e9d57600080fd5b506001600160a01b0381358116916020013516612a20565b6000610ec881610ec3612a3d565b612282565b610f02576040805162461bcd60e51b815260206004808301919091526024820152634c50313560e01b604482015290519081900360640190fd5b6001600160a01b038316610f46576040805162461bcd60e51b8152602060048083019190915260248201526313140c4d60e21b604482015290519081900360640190fd5b610f508383612a41565b507f34de4f14698e626f620b385be40bc495347dd1007bf32d636ea22cd33ede60fb83834260405180846001600160a01b0316815260200180602001838152602001828103825284818151815260200191508051906020019060200280838360005b83811015610fca578181015183820152602001610fb2565b5050505090500194505050505060405180910390a15060015b92915050565b6000610ff781610ec3612a3d565b611031576040805162461bcd60e51b815260206004808301919091526024820152632628189b60e11b604482015290519081900360640190fd5b8151835114611070576040805162461bcd60e51b815260206004808301919091526024820152634c50313760e01b604482015290519081900360640190fd5b835160005b818110156111125760006001600160a01b031686828151811061109457fe5b60200260200101516001600160a01b031614156110e1576040805162461bcd60e51b81526020600480830191909152602482015263098a062760e31b604482015290519081900360640190fd5b6110ff8682815181106110f057fe5b60200260200101518686612ce4565b5061110b816001612ef5565b9050611075565b7f7ec5357451b115cb25c279bac7749e0e2f8cda1cd588ef7487980fff69a633a88686864260405180806020018060200180602001858152602001848103845288818151815260200191508051906020019060200280838360005b8381101561118557818101518382015260200161116d565b50505050905001848103835287818151815260200191508051906020019060200280838360005b838110156111c45781810151838201526020016111ac565b50505050905001848103825286818151815260200191508051906020019060200280838360005b838110156112035781810151838201526020016111eb565b5050505090500197505050505050505060405180910390a16001925050505b9392505050565b6112366000610ec3612a3d565b61126d576040805162461bcd60e51b81526020600482015260036024820152624c503960e81b604482015290519081900360640190fd5b609c80546001600160a01b0319166001600160a01b0383169081179091556040517ff745c285f36f88bea6af14d4d0f33dd9350cef7895216c1615b1caaee7857e0c90600090a250565b60009081526065602052604090206002015490565b6000806060806112da611bdb565b1561131f576040805162461bcd60e51b815260206004820152601060248201526f14185d5cd8589b194e881c185d5cd95960821b604482015290519081900360640190fd5b6001600160a01b038516611360576040805162461bcd60e51b815260206004820152600360248201526226281960e91b604482015290519081900360640190fd5b609d54604080516336bbacad60e01b81526001600160a01b0388811660048301529151600093849316916336bbacad916024808301926060929190829003018186803b1580156113af57600080fd5b505afa1580156113c3573d6000803e3d6000fd5b505050506040513d60608110156113d957600080fd5b50805160209091015190925090506001600160a01b0381161580159061140757506001600160a01b03821615155b61143e576040805162461bcd60e51b81526020600482015260036024820152624c503160e81b604482015290519081900360640190fd5b609d546040805163136b3b9760e11b81526001600160a01b038a81166004830152915191909216916326d6772e9160248083019260209291908290030181600087803b15801561148d57600080fd5b505af11580156114a1573d6000803e3d6000fd5b505050506040513d60208110156114b757600080fd5b505194506114cd82826114c8612a3d565b612f4f565b919750945092506114dc612a3d565b6001600160a01b0316816001600160a01b0316836001600160a01b03167f62baf6efc5d359135858da73a77b0f8917148dd28ae5247013d71c30005e74c48989898942604051808681526020018581526020018060200180602001848152602001838103835286818151815260200191508051906020019060200280838360005b8381101561157557818101518382015260200161155d565b50505050905001838103825285818151815260200191508051906020019060200280838360005b838110156115b457818101518382015260200161159c565b5050505090500197505050505050505060405180910390a450509193509193565b6115e26000610ec3612a3d565b61161c576040805162461bcd60e51b8152602060048083019190915260248201526304c5031360e41b604482015290519081900360640190fd5b609d80546001600160a01b0319166001600160a01b0383169081179091556040517fd0b9dbe26f676f4cdb02fc249c203baa0314cec79e18b4194dc862795a5de03f90600090a250565b60008281526065602052604090206002015461168490610ec3612a3d565b6116bf5760405162461bcd60e51b815260040180806020018281038252602f81526020018061442c602f913960400191505060405180910390fd5b6116c9828261333c565b5050565b6116d5612a3d565b6001600160a01b0316816001600160a01b0316146117245760405162461bcd60e51b815260040180806020018281038252602f815260200180614558602f913960400191505060405180910390fd5b6116c982826133a5565b609e5481565b600061175060008051602061450b833981519152610ec3612a3d565b61178a576040805162461bcd60e51b815260206004808301919091526024820152634c50313360e01b604482015290519081900360640190fd5b61179261340e565b50600190565b60986020526000908152604090205481565b60006117b881610ec3612a3d565b6117f2576040805162461bcd60e51b815260206004808301919091526024820152632628189b60e11b604482015290519081900360640190fd5b825160005b818110156118935760006001600160a01b031685828151811061181657fe5b60200260200101516001600160a01b03161415611863576040805162461bcd60e51b81526020600480830191909152602482015263098a062760e31b604482015290519081900360640190fd5b61188085828151811061187257fe5b602002602001015185612a41565b5061188c816001612ef5565b90506117f7565b7f1a817f256e3f5f06636889cc94ae6c075363c5b9d5fc39f398c4e66dd2e25da3858542604051808060200180602001848152602001838103835286818151815260200191508051906020019060200280838360005b838110156119015781810151838201526020016118e9565b50505050905001838103825285818151815260200191508051906020019060200280838360005b83811015611940578181015183820152602001611928565b505050509050019550505050505060405180910390a1506001949350505050565b600061196b611bdb565b156119b0576040805162461bcd60e51b815260206004820152601060248201526f14185d5cd8589b194e881c185d5cd95960821b604482015290519081900360640190fd5b6000821180156119c857506001600160a01b03831615155b6119ff576040805162461bcd60e51b81526020600482015260036024820152624c503360e81b604482015290519081900360640190fd5b609d54604080516336bbacad60e01b81526001600160a01b0386811660048301529151600093849316916336bbacad916024808301926060929190829003018186803b158015611a4e57600080fd5b505afa158015611a62573d6000803e3d6000fd5b505050506040513d6060811015611a7857600080fd5b50805160209091015190925090506001600160a01b03821615801590611aa657506001600160a01b03811615155b611add576040805162461bcd60e51b815260206004820152600360248201526213140d60ea1b604482015290519081900360640190fd5b6000611ae7612a3d565b9050611af4838383612f4f565b505050611b03828230886134ae565b6001600160a01b03808316600090815260976020908152604080832093851683529290522054611b339086612ef5565b6001600160a01b0380841660008181526097602090815260408083209487168352938152838220949094559081526098909252902054611b739086612ef5565b6001600160a01b038316600081815260986020908152604091829020939093558051918252918101879052428183015290517f06239653922ac7bea6aa2b19dc486b9361821d37712eb796adfd38d81de278ca9181900360600190a150600195945050505050565b60335460ff1690565b6000606080611bf1611bdb565b15611c36576040805162461bcd60e51b815260206004820152601060248201526f14185d5cd8589b194e881c185d5cd95960821b604482015290519081900360640190fd5b6001600160a01b038416611c77576040805162461bcd60e51b815260206004820152600360248201526226281960e91b604482015290519081900360640190fd5b609d54604080516336bbacad60e01b81526001600160a01b0387811660048301529151600093849316916336bbacad916024808301926060929190829003018186803b158015611cc657600080fd5b505afa158015611cda573d6000803e3d6000fd5b505050506040513d6060811015611cf057600080fd5b50805160209091015190925090506001600160a01b03811615801590611d1e57506001600160a01b03821615155b611d55576040805162461bcd60e51b81526020600482015260036024820152624c503160e81b604482015290519081900360640190fd5b611d6282826114c8612a3d565b91965094509250611d71612a3d565b6001600160a01b0316816001600160a01b0316836001600160a01b03167f072c93d4404245b5361a2ee1909f19dff84848dcd0b0138b5edcd0b1a02e1ee688888842604051808581526020018060200180602001848152602001838103835286818151815260200191508051906020019060200280838360005b83811015611e03578181015183820152602001611deb565b50505050905001838103825285818151815260200191508051906020019060200280838360005b83811015611e42578181015183820152602001611e2a565b50505050905001965050505050505060405180910390a450509193909250565b6000611e7081610ec3612a3d565b611eaa576040805162461bcd60e51b815260206004808301919091526024820152632628189b60e11b604482015290519081900360640190fd5b815160005b81811015611f4a5760006001600160a01b0316848281518110611ece57fe5b60200260200101516001600160a01b03161415611f1b576040805162461bcd60e51b81526020600480830191909152602482015263098a062760e31b604482015290519081900360640190fd5b611f37848281518110611f2a57fe5b602002602001015161360a565b50611f43816001612ef5565b9050611eaf565b7f8abb48de7987af675e8e74eabfea997525a59a90578fd480a4421400949eb1e284426040518080602001838152602001828103825284818151815260200191508051906020019060200280838360005b83811015611fb3578181015183820152602001611f9b565b50505050905001935050505060405180910390a15060019392505050565b60a16020528160005260406000208181548110611fed57600080fd5b6000918252602090912001546001600160a01b03169150829050565b60a35481565b60a460209081526000928352604080842090915290825290205481565b609c546001600160a01b031681565b609a6020526000908152604090205481565b6001600160a01b038083166000908152609b6020908152604080832093851683529290529081205460609081908190849081906120bb9061208f904290613788565b6001600160a01b03808b166000908152609760209081526040808320938d1683529290522054906137e5565b6001600160a01b0389166000908152609a602052604081205491925090612106906120e7904290613788565b6001600160a01b038b16600090815260986020526040902054906137e5565b6001600160a01b038a166000908152609960205260408120549192509061212d9083612ef5565b90506121398184613788565b935080156121cf57609c54604080516370a0823160e01b81526001600160a01b038e81166004830152915160009392909216916370a0823191602480820192602092909190829003018186803b15801561219257600080fd5b505afa1580156121a6573d6000803e3d6000fd5b505050506040513d60208110156121bc57600080fd5b505190506121cb81858461383e565b9850505b6121da8b84836138f7565b999d919c509a50979850929695505050505050565b600061220b60008051602061450b833981519152610ec3612a3d565b612245576040805162461bcd60e51b815260206004808301919091526024820152632628189960e11b604482015290519081900360640190fd5b611792613cd4565b60a560209081526000928352604080842090915290825290205481565b60008281526065602052604081206112229083613d57565b60008281526065602052604081206112229083613d63565b60006122a881610ec3612a3d565b6122e2576040805162461bcd60e51b815260206004808301919091526024820152634c50313560e01b604482015290519081900360640190fd5b6001600160a01b038416158015906122fb575081518351145b612335576040805162461bcd60e51b8152602060048083019190915260248201526313140c4d60e21b604482015290519081900360640190fd5b612340848484612ce4565b507fbbd7d8fdbdd56485d60ec284b8a952dfe746dca8f89789450c55ebf306a5f0448484844260405180856001600160a01b031681526020018060200180602001848152602001838103835286818151815260200191508051906020019060200280838360005b838110156123bf5781810151838201526020016123a7565b50505050905001838103825285818151815260200191508051906020019060200280838360005b838110156123fe5781810151838201526020016123e6565b50505050905001965050505050505060405180910390a15060019392505050565b60a660209081526000928352604080842090915290825290205481565b6000612446611bdb565b1561248b576040805162461bcd60e51b815260206004820152601060248201526f14185d5cd8589b194e881c185d5cd95960821b604482015290519081900360640190fd5b6000821180156124a357506001600160a01b03831615155b6124da576040805162461bcd60e51b815260206004820152600360248201526226281b60e91b604482015290519081900360640190fd5b609d54604080516336bbacad60e01b81526001600160a01b0386811660048301529151600093849316916336bbacad916024808301926060929190829003018186803b15801561252957600080fd5b505afa15801561253d573d6000803e3d6000fd5b505050506040513d606081101561255357600080fd5b50805160209091015190925090506001600160a01b0382161580159061258157506001600160a01b03811615155b6125b8576040805162461bcd60e51b81526020600482015260036024820152624c503760e81b604482015290519081900360640190fd5b60006125c2612a3d565b6001600160a01b03808416600090815260976020908152604080832093851683529290522054909150851115612625576040805162461bcd60e51b8152602060048201526003602482015262098a0760eb1b604482015290519081900360640190fd5b612630838383612f4f565b50505061263e828287613d78565b6001600160a01b0380831660009081526097602090815260408083209385168352929052205461266e9086613788565b6001600160a01b03808416600081815260976020908152604080832094871683529381528382209490945590815260989092529020546126ae9086613788565b6001600160a01b038316600081815260986020908152604091829020939093558051918252918101879052428183015290517f0fbf06c058b90cb038a618f8c2acbf6145f8b3570fd1fa56abb8f0f3f05b36e89181900360600190a150600195945050505050565b600081565b6008609e5410612758576040805162461bcd60e51b81526020600482015260036024820152624c503560e81b604482015290519081900360640190fd5b6008609e55670de0b6b3a764000060a355565b609b60209081526000928352604080842090915290825290205481565b60996020526000908152604090205481565b60006127a881610ec3612a3d565b6127e2576040805162461bcd60e51b815260206004808301919091526024820152634c50313560e01b604482015290519081900360640190fd5b6001600160a01b038216612826576040805162461bcd60e51b8152602060048083019190915260248201526313140c4d60e21b604482015290519081900360640190fd5b61282f8261360a565b50604080516001600160a01b038416815242602082015281517fd744a3fa6a93b484759281ba764d3c88077b4a4c17b9509f9849abcd4d4ff60a929181900390910190a1506001919050565b6000818152606560205260408120610fe390613ec4565b609760209081526000928352604080842090915290825290205481565b600054610100900460ff16806128c857506128c8613ecf565b806128d6575060005460ff16155b6129115760405162461bcd60e51b815260040180806020018281038252602e8152602001806144bc602e913960400191505060405180910390fd5b600054610100900460ff1615801561293c576000805460ff1961ff0019909116610100171660011790555b612944613ee0565b61294c613f92565b61295e6000612959612a3d565b6116bf565b61297660008051602061450b833981519152846116bf565b61297f85611229565b612988846115d5565b60a3829055801561299f576000805461ff00191690555b5050505050565b6000828152606560205260409020600201546129c490610ec3612a3d565b6117245760405162461bcd60e51b815260040180806020018281038252603081526020018061448c6030913960400191505060405180910390fd5b609d546001600160a01b031681565b60008051602061450b83398151915281565b60a260209081526000928352604080842090915290825290205481565b3390565b805160009081905b80821015612cd95760006001600160a01b0316848381518110612a6857fe5b60200260200101516001600160a01b031614612cc7576001600160a01b038516600090815260a26020526040812085518290879086908110612aa657fe5b60200260200101516001600160a01b03166001600160a01b031681526020019081526020016000205490506000811115612cc5576001600160a01b038616600090815260a16020526040902054811415612b42576001600160a01b038616600090815260a160205260409020805480612b1b57fe5b600082815260209020810160001990810180546001600160a01b0319169055019055612c10565b6001600160a01b038616600090815260a1602052604090208054612b67906001613788565b81548110612b7157fe5b60009182526020808320909101546001600160a01b03898116845260a19092526040909220911690612ba4836001613788565b81548110612bae57fe5b600091825260208083209190910180546001600160a01b0319166001600160a01b03948516179055918816815260a190915260409020805480612bed57fe5b600082815260209020810160001990810180546001600160a01b03191690550190555b6001600160a01b038616600090815260a2602052604081208651909190879086908110612c3957fe5b60200260200101516001600160a01b03166001600160a01b031681526020019081526020016000206000905560a46000876001600160a01b03166001600160a01b031681526020019081526020016000206000868581518110612c9857fe5b60200260200101516001600160a01b03166001600160a01b03168152602001908152602001600020600090555b505b612cd2826001612ef5565b9150612a49565b506001949350505050565b6000612cf1609f85613d63565b612d0257612d00609f8561402f565b505b82516000905b80821015612ee95760006001600160a01b0316858381518110612d2757fe5b60200260200101516001600160a01b031614612e48576001600160a01b038616600090815260a2602052604081208651909190879085908110612d6657fe5b60200260200101516001600160a01b03166001600160a01b031681526020019081526020016000205460001415612e48576001600160a01b038616600090815260a1602052604090208551869084908110612dbd57fe5b602090810291909101810151825460018101845560009384528284200180546001600160a01b0319166001600160a01b039283161790558816825260a1815260408083205460a29092528220875191929091889086908110612e1b57fe5b60200260200101516001600160a01b03166001600160a01b03168152602001908152602001600020819055505b838281518110612e5457fe5b6020026020010151600014612ed757838281518110612e6f57fe5b602002602001015160a46000886001600160a01b03166001600160a01b031681526020019081526020016000206000878581518110612eaa57fe5b60200260200101516001600160a01b03166001600160a01b03168152602001908152602001600020819055505b612ee2826001612ef5565b9150612d08565b50600195945050505050565b600082820183811015611222576040805162461bcd60e51b815260206004820152601b60248201527f536166654d6174683a206164646974696f6e206f766572666c6f770000000000604482015290519081900360640190fd5b600060608060606000612f6388888861204d565b809550819650829750839850849950505050505042609b6000896001600160a01b03166001600160a01b031681526020019081526020016000206000886001600160a01b03166001600160a01b031681526020019081526020016000208190555042609a6000896001600160a01b03166001600160a01b03168152602001908152602001600020819055508060996000896001600160a01b03166001600160a01b0316815260200190815260200160002081905550600085111561309757609c546040805163d1660f9960e01b81526001600160a01b0392831660048201528883166024820152604481018890529051918a169163d1660f999160648082019260009290919082900301818387803b15801561307e57600080fd5b505af1158015613092573d6000803e3d6000fd5b505050505b82516000905b808210156132455760008683815181106130b357fe5b6020026020010151111561316857896001600160a01b031663d1660f998684815181106130dc57fe5b60200260200101518a8986815181106130f157fe5b60200260200101516040518463ffffffff1660e01b815260040180846001600160a01b03168152602001836001600160a01b031681526020018281526020019350505050600060405180830381600087803b15801561314f57600080fd5b505af1158015613163573d6000803e3d6000fd5b505050505b83828151811061317457fe5b602002602001015160a560008c6001600160a01b03166001600160a01b0316815260200190815260200160002060008785815181106131af57fe5b60200260200101516001600160a01b03166001600160a01b03168152602001908152602001600020819055504260a660008c6001600160a01b03166001600160a01b03168152602001908152602001600020600087858151811061320f57fe5b6020908102919091018101516001600160a01b031682528101919091526040016000205561323e826001612ef5565b915061309d565b876001600160a01b0316896001600160a01b03168b6001600160a01b03167fcbb6d50d10178b9daccb93b7468ed310ed382e4db2c2f8b7a27e37e872d71fbb8a8a8a42604051808581526020018060200180602001848152602001838103835286818151815260200191508051906020019060200280838360005b838110156132d85781810151838201526020016132c0565b50505050905001838103825285818151815260200191508051906020019060200280838360005b838110156133175781810151838201526020016132ff565b50505050905001965050505050505060405180910390a4505050505b93509350939050565b6000828152606560205260409020613354908261402f565b156116c957613361612a3d565b6001600160a01b0316816001600160a01b0316837f2f8788117e7eff1d82e926ec794901d17c78024a50270940304540a733656f0d60405160405180910390a45050565b60008281526065602052604090206133bd9082614044565b156116c9576133ca612a3d565b6001600160a01b0316816001600160a01b0316837ff6391f5c32d9c69d2a47ea670b442974b53935d1edc7fd64eb21e047a839171b60405160405180910390a45050565b613416611bdb565b61345e576040805162461bcd60e51b815260206004820152601460248201527314185d5cd8589b194e881b9bdd081c185d5cd95960621b604482015290519081900360640190fd5b6033805460ff191690557f5db9ee0a495bf2e6ff9c91a7834c1ba4fdd244a5e8aa4e537bd38aeae4b073aa613491612a3d565b604080516001600160a01b039092168252519081900360200190a1565b604080516001600160a01b0385811660248301528481166044830152606480830185905283518084039091018152608490920183526020820180516001600160e01b03166323b872dd60e01b178152925182516000948594938a169392918291908083835b602083106135325780518252601f199092019160209182019101613513565b6001836020036101000a0380198251168184511680821785525050505050509050019150506000604051808303816000865af19150503d8060008114613594576040519150601f19603f3d011682016040523d82523d6000602084013e613599565b606091505b50915091508180156135c75750805115806135c757508080602001905160208110156135c457600080fd5b50515b6136025760405162461bcd60e51b815260040180806020018281038252603181526020018061445b6031913960400191505060405180910390fd5b505050505050565b6000613617609f83614044565b506001600160a01b038216600090815260a1602090815260408083208054825181850281018501909352808352919290919083018282801561368257602002820191906000526020600020905b81546001600160a01b03168152600190910190602001808311613664575b505083519394506000925050505b81811015613767576001600160a01b038516600090815260a26020526040812084519091908590849081106136c157fe5b60200260200101516001600160a01b03166001600160a01b031681526020019081526020016000206000905560a46000866001600160a01b03166001600160a01b03168152602001908152602001600020600084838151811061372057fe5b60200260200101516001600160a01b03166001600160a01b0316815260200190815260200160002060009055613760600182612ef590919063ffffffff16565b9050613690565b6001600160a01b038516600090815260a160205260408120612cd9916143d7565b6000828211156137df576040805162461bcd60e51b815260206004820152601e60248201527f536166654d6174683a207375627472616374696f6e206f766572666c6f770000604482015290519081900360640190fd5b50900390565b6000826137f457506000610fe3565b8282028284828161380157fe5b04146112225760405162461bcd60e51b81526004018080602001828103825260218152602001806144ea6021913960400191505060405180910390fd5b600080600061384d8686614059565b915091506000848061385b57fe5b86880990508281111561386f576001820391505b91829003918161388d5784838161388257fe5b049350505050611222565b8482106138e1576040805162461bcd60e51b815260206004820152601a60248201527f46756c6c4d6174683a2046554c4c4449565f4f564552464c4f57000000000000604482015290519081900360640190fd5b6138ec838387614086565b979650505050505050565b606080808315613333576001600160a01b038616600090815260a160205260409020548067ffffffffffffffff8111801561393157600080fd5b5060405190808252806020026020018201604052801561395b578160200160208202803683370190505b5093508067ffffffffffffffff8111801561397557600080fd5b5060405190808252806020026020018201604052801561399f578160200160208202803683370190505b5092508067ffffffffffffffff811180156139b957600080fd5b506040519080825280602002602001820160405280156139e3578160200160208202803683370190505b50915060008060008060005b85811015613cc5576001600160a01b038c16600090815260a160205260409020805482908110613a1b57fe5b9060005260206000200160009054906101000a90046001600160a01b0316888281518110613a4557fe5b60200260200101906001600160a01b031690816001600160a01b03168152505060a460008d6001600160a01b03166001600160a01b031681526020019081526020016000206000898381518110613a9857fe5b60200260200101516001600160a01b03166001600160a01b03168152602001908152602001600020549450613b3160a660008e6001600160a01b03166001600160a01b0316815260200190815260200160002060008a8481518110613af957fe5b60200260200101516001600160a01b03166001600160a01b03168152602001908152602001600020544261378890919063ffffffff16565b9150613bab60a560008e6001600160a01b03166001600160a01b0316815260200190815260200160002060008a8481518110613b6957fe5b60200260200101516001600160a01b03166001600160a01b0316815260200190815260200160002054613ba584886137e590919063ffffffff16565b90612ef5565b9250878181518110613bb957fe5b60200260200101516001600160a01b03166370a082318d6040518263ffffffff1660e01b815260040180826001600160a01b0316815260200191505060206040518083038186803b158015613c0d57600080fd5b505afa158015613c21573d6000803e3d6000fd5b505050506040513d6020811015613c3757600080fd5b50519350838311613c485782613c4a565b835b92508215613c7657613c5d838c8c61383e565b898281518110613c6957fe5b6020026020010181815250505b613c9c898281518110613c8557fe5b60200260200101518461378890919063ffffffff16565b878281518110613ca857fe5b6020908102919091010152613cbe816001612ef5565b90506139ef565b50505050505093509350939050565b613cdc611bdb565b15613d21576040805162461bcd60e51b815260206004820152601060248201526f14185d5cd8589b194e881c185d5cd95960821b604482015290519081900360640190fd5b6033805460ff191660011790557f62e78cea01bee320cd4e420270b5ea74000d11b0c9f74754ebdbfc544b05a258613491612a3d565b600061122283836140f6565b6000611222836001600160a01b03841661415a565b604080516001600160a01b038481166024830152604480830185905283518084039091018152606490920183526020820180516001600160e01b031663a9059cbb60e01b1781529251825160009485949389169392918291908083835b60208310613df45780518252601f199092019160209182019101613dd5565b6001836020036101000a0380198251168184511680821785525050505050509050019150506000604051808303816000865af19150503d8060008114613e56576040519150601f19603f3d011682016040523d82523d6000602084013e613e5b565b606091505b5091509150818015613e89575080511580613e895750808060200190516020811015613e8657600080fd5b50515b61299f5760405162461bcd60e51b815260040180806020018281038252602d81526020018061452b602d913960400191505060405180910390fd5b6000610fe382614172565b6000613eda30614176565b15905090565b600054610100900460ff1680613ef95750613ef9613ecf565b80613f07575060005460ff16155b613f425760405162461bcd60e51b815260040180806020018281038252602e8152602001806144bc602e913960400191505060405180910390fd5b600054610100900460ff16158015613f6d576000805460ff1961ff0019909116610100171660011790555b613f7561417c565b613f7d61417c565b8015613f8f576000805461ff00191690555b50565b600054610100900460ff1680613fab5750613fab613ecf565b80613fb9575060005460ff16155b613ff45760405162461bcd60e51b815260040180806020018281038252602e8152602001806144bc602e913960400191505060405180910390fd5b600054610100900460ff1615801561401f576000805460ff1961ff0019909116610100171660011790555b61402761417c565b613f7d61421c565b6000611222836001600160a01b0384166142c7565b6000611222836001600160a01b038416614311565b600080806000198486099050838502925082810391508281101561407e576001820391505b509250929050565b6000818103821680838161409657fe5b0492508085816140a257fe5b0494508081600003816140b157fe5b60028581038087028203028087028203028087028203028087028203028087028203028087028203029586029003909402930460010193909302939093010292915050565b815460009082106141385760405162461bcd60e51b815260040180806020018281038252602281526020018061440a6022913960400191505060405180910390fd5b82600001828154811061414757fe5b9060005260206000200154905092915050565b60009081526001919091016020526040902054151590565b5490565b3b151590565b600054610100900460ff16806141955750614195613ecf565b806141a3575060005460ff16155b6141de5760405162461bcd60e51b815260040180806020018281038252602e8152602001806144bc602e913960400191505060405180910390fd5b600054610100900460ff16158015613f7d576000805460ff1961ff0019909116610100171660011790558015613f8f576000805461ff001916905550565b600054610100900460ff16806142355750614235613ecf565b80614243575060005460ff16155b61427e5760405162461bcd60e51b815260040180806020018281038252602e8152602001806144bc602e913960400191505060405180910390fd5b600054610100900460ff161580156142a9576000805460ff1961ff0019909116610100171660011790555b6033805460ff191690558015613f8f576000805461ff001916905550565b60006142d3838361415a565b61430957508154600181810184556000848152602080822090930184905584548482528286019093526040902091909155610fe3565b506000610fe3565b600081815260018301602052604081205480156143cd578354600019808301919081019060009087908390811061434457fe5b906000526020600020015490508087600001848154811061436157fe5b60009182526020808320909101929092558281526001898101909252604090209084019055865487908061439157fe5b60019003818190600052602060002001600090559055866001016000878152602001908152602001600020600090556001945050505050610fe3565b6000915050610fe3565b5080546000825590600052602060002090810190613f8f91905b8082111561440557600081556001016143f1565b509056fe456e756d657261626c655365743a20696e646578206f7574206f6620626f756e6473416363657373436f6e74726f6c3a2073656e646572206d75737420626520616e2061646d696e20746f206772616e745472616e7366657248656c7065723a3a7472616e7366657246726f6d3a207472616e7366657246726f6d206661696c6564416363657373436f6e74726f6c3a2073656e646572206d75737420626520616e2061646d696e20746f207265766f6b65496e697469616c697a61626c653a20636f6e747261637420697320616c726561647920696e697469616c697a6564536166654d6174683a206d756c7469706c69636174696f6e206f766572666c6f7765d7a28e3265b37a6474929f336521b332c1681b933f6cb9f3376673440d862a5472616e7366657248656c7065723a3a736166655472616e736665723a207472616e73666572206661696c6564416363657373436f6e74726f6c3a2063616e206f6e6c792072656e6f756e636520726f6c657320666f722073656c66a2646970667358221220b56284cf9b89bb3614d190100059ec684d31abedb8199398aaf2c54880d9a56564736f6c63430007060033",
  "immutableReferences": {},
  "source": "// SPDX-License-Identifier: UNLICENSED\npragma solidity >=0.7.0;\n\nimport \"@openzeppelin/contracts-upgradeable/math/SafeMathUpgradeable.sol\";\nimport \"@openzeppelin/contracts-upgradeable/access/AccessControlUpgradeable.sol\";\nimport \"@openzeppelin/contracts-upgradeable/utils/PausableUpgradeable.sol\";\nimport \"@openzeppelin/contracts-upgradeable/utils/EnumerableSetUpgradeable.sol\";\nimport \"@openzeppelin/contracts-upgradeable/token/ERC20/ERC20Upgradeable.sol\";\nimport \"./interfaces/ISTokensV2.sol\";\nimport \"./interfaces/IUTokensV2.sol\";\nimport \"./interfaces/IHolderV2.sol\";\nimport \"./interfaces/IPSTAKE.sol\";\nimport \"./interfaces/IStakeLPCoreV2.sol\";\nimport \"./libraries/TransferHelper.sol\";\nimport \"./libraries/FullMath.sol\";\n\ncontract StakeLPCoreV8 is\n\tIStakeLPCoreV2,\n\tPausableUpgradeable,\n\tAccessControlUpgradeable\n{\n\tusing SafeMathUpgradeable for uint256;\n\tusing FullMath for uint256;\n\tusing EnumerableSetUpgradeable for EnumerableSetUpgradeable.AddressSet;\n\n\t// constant pertaining to access roles\n\tbytes32 public constant PAUSER_ROLE = keccak256(\"PAUSER_ROLE\");\n\n\t// variables pertaining to calculation LP TimeShare\n\t// balance of user for an LP Token\n\tmapping(address => mapping(address => uint256)) public _lpBalance;\n\t// supply for an LP Token\n\tmapping(address => uint256) public _lpSupply;\n\t// last updated total LPTimeShare\n\tmapping(address => uint256) public _lastLPTimeShare;\n\t// last recorded timestamp when total LPTimeShare was updated\n\tmapping(address => uint256) public _lastLPTimeShareTimestamp;\n\t// last recorded timestamp when user's LPTimeShare was updated\n\tmapping(address => mapping(address => uint256))\n\t\tpublic _lastLiquidityTimestamp;\n\n\t//Private instances of contracts to handle Utokens and Stokens\n\tIUTokensV2 public _uTokens;\n\tISTokensV2 public _sTokens;\n\n\t// variable pertaining to contract upgrades versioning\n\tuint256 public _version;\n\n\t// variables pertaining to maintaining reward tokens and amounts to be disbursed\n\t// List of Holder Contract Addresses\n\tEnumerableSetUpgradeable.AddressSet private _holderContractList;\n\t// list of reward tokens enabled, for a specific holder contract\n\tmapping(address => address[]) public _rewardTokenList;\n\t// index of reward token address in the _rewardTokenList array, for a specific holder contract\n\tmapping(address => mapping(address => uint256))\n\t\tpublic _rewardTokenListIndex;\n\t// valueDivisor to store fractional values for various reward attributes like _rewardTokenEmission\n\tuint256 public _valueDivisor;\n\t// emission (per second) of reward token into the 'reward pool', for a specific holder contract\n\tmapping(address => mapping(address => uint256)) public _rewardTokenEmission;\n\t// last updated reward pool balance, for a specific reward token, for a specific holder contract\n\tmapping(address => mapping(address => uint256))\n\t\tpublic _lastRewardPoolBalance;\n\t// last recorded timestamp when the reward pool balance was updated,\n\t// for a specific reward token, for a specific holder contract\n\tmapping(address => mapping(address => uint256))\n\t\tpublic _lastRewardPoolBalanceTimestamp;\n\n\t/**\n\t * @dev Constructor for initializing the LiquidStaking contract.\n\t * @param uAddress - address of the UToken contract.\n\t * @param sAddress - address of the SToken contract.\n\n\t */\n\tfunction initialize(\n\t\taddress uAddress,\n\t\taddress sAddress,\n\t\taddress pauserAddress,\n\t\tuint256 valueDivisor\n\t) public virtual initializer {\n\t\t__AccessControl_init();\n\t\t__Pausable_init();\n\t\t_setupRole(DEFAULT_ADMIN_ROLE, _msgSender());\n\t\t_setupRole(PAUSER_ROLE, pauserAddress);\n\t\tsetUTokensContract(uAddress);\n\t\tsetSTokensContract(sAddress);\n\t\t_valueDivisor = valueDivisor;\n\t}\n\n\tfunction upgradeToV8() public {\n\t\trequire(_version < 8, \"LP5\");\n\t\t_version = 8;\n\t\t_valueDivisor = 1e18;\n\t}\n\n\t/*\n\t * @dev calculate liquidity and reward tokens and disburse to user\n\t * @param lpToken: lp token contract address\n\t * @param to: user address\n\t * @param liquidityWeightFactor: coming as an argument for further calculations\n\t * @param rewardWeightFactor: coming as an argument for further calculations\n\t * @param valueDivisor: coming as an argument for further calculations\n\t */\n\tfunction calculatePendingRewards(\n\t\taddress holderAddress,\n\t\taddress lpToken,\n\t\taddress to\n\t)\n\t\tpublic\n\t\tview\n\t\tvirtual\n\t\toverride\n\t\treturns (\n\t\t\tuint256 reward,\n\t\t\tuint256[] memory otherRewardAmounts,\n\t\t\taddress[] memory otherRewardTokens,\n\t\t\tuint256[] memory updatedRewardPoolBalances,\n\t\t\tuint256 updatedSupplyLPTimeshare\n\t\t)\n\t{\n\t\t// calculate the LPTimeShare of the user's LP Token\n\t\tuint256 _userLPTimeShare = (\n\t\t\t(_lpBalance[lpToken][to]).mul(\n\t\t\t\tblock.timestamp.sub(_lastLiquidityTimestamp[lpToken][to])\n\t\t\t)\n\t\t);\n\n\t\t// calculate the LPTimeShare of the sum of supply of all LP Tokens\n\t\tuint256 _newSupplyLPTimeShare = (\n\t\t\t(_lpSupply[lpToken]).mul(\n\t\t\t\tblock.timestamp.sub(_lastLPTimeShareTimestamp[lpToken])\n\t\t\t)\n\t\t);\n\t\tuint256 _totalSupplyLPTimeShare = _lastLPTimeShare[lpToken].add(\n\t\t\t_newSupplyLPTimeShare\n\t\t);\n\t\t// calculate the remaining LPTimeShare of the total supply after the tokens for the user has been dispatched\n\t\tupdatedSupplyLPTimeshare = _totalSupplyLPTimeShare.sub(\n\t\t\t_userLPTimeShare\n\t\t);\n\n\t\t// calculate the rewardPool and reward\n\t\tif (_totalSupplyLPTimeShare > 0) {\n\t\t\t// calculate users new reward tokens. reward pool will be total balance of Holder Contract\n\t\t\tuint256 _rewardPool = _uTokens.balanceOf(holderAddress);\n\t\t\treward = _rewardPool.mulDiv(\n\t\t\t\t_userLPTimeShare,\n\t\t\t\t_totalSupplyLPTimeShare\n\t\t\t);\n\t\t}\n\n\t\t(\n\t\t\totherRewardAmounts,\n\t\t\totherRewardTokens,\n\t\t\tupdatedRewardPoolBalances\n\t\t) = _calculateOtherPendingRewards(\n\t\t\tholderAddress,\n\t\t\t_userLPTimeShare,\n\t\t\t_totalSupplyLPTimeShare\n\t\t);\n\t}\n\n\tfunction _calculateOtherPendingRewards(\n\t\taddress holderAddress,\n\t\tuint256 _userLPTimeShare,\n\t\tuint256 _totalSupplyLPTimeShare\n\t)\n\t\tinternal\n\t\tview\n\t\treturns (\n\t\t\tuint256[] memory otherRewardAmounts,\n\t\t\taddress[] memory otherRewardTokens,\n\t\t\tuint256[] memory updatedRewardPoolBalances\n\t\t)\n\t{\n\t\tif (_totalSupplyLPTimeShare > 0) {\n\t\t\tuint256 _rewardTokenListLength = _rewardTokenList[holderAddress]\n\t\t\t\t.length;\n\t\t\totherRewardAmounts = new uint256[](_rewardTokenListLength);\n\t\t\totherRewardTokens = new address[](_rewardTokenListLength);\n\t\t\tupdatedRewardPoolBalances = new uint256[](_rewardTokenListLength);\n\n\t\t\tuint256 _rewardEmissionLocal;\n\t\t\tuint256 _rewardPoolReserve;\n\t\t\tuint256 _updatedRewardPool;\n\t\t\tuint256 _rewardEmissionInterval;\n\n\t\t\tfor (uint256 i = 0; i < _rewardTokenListLength; i = i.add(1)) {\n\t\t\t\totherRewardTokens[i] = _rewardTokenList[holderAddress][i];\n\t\t\t\t_rewardEmissionLocal = _rewardTokenEmission[holderAddress][\n\t\t\t\t\totherRewardTokens[i]\n\t\t\t\t];\n\t\t\t\t_rewardEmissionInterval = block.timestamp.sub(\n\t\t\t\t\t_lastRewardPoolBalanceTimestamp[holderAddress][\n\t\t\t\t\t\totherRewardTokens[i]\n\t\t\t\t\t]\n\t\t\t\t);\n\t\t\t\t// calculate the updated reward pool to be considered for user's reward share calculation\n\t\t\t\t_updatedRewardPool = (\n\t\t\t\t\t_rewardEmissionLocal.mul(_rewardEmissionInterval)\n\t\t\t\t).add(\n\t\t\t\t\t\t_lastRewardPoolBalance[holderAddress][\n\t\t\t\t\t\t\totherRewardTokens[i]\n\t\t\t\t\t\t]\n\t\t\t\t\t);\n\n\t\t\t\t_rewardPoolReserve = ERC20Upgradeable(otherRewardTokens[i])\n\t\t\t\t\t.balanceOf(holderAddress);\n\n\t\t\t\t_updatedRewardPool = _updatedRewardPool > _rewardPoolReserve\n\t\t\t\t\t? _rewardPoolReserve\n\t\t\t\t\t: _updatedRewardPool;\n\n\t\t\t\tif (_updatedRewardPool > 0) {\n\t\t\t\t\t// calculate user's reward for that particular reward token\n\t\t\t\t\totherRewardAmounts[i] = _updatedRewardPool.mulDiv(\n\t\t\t\t\t\t_userLPTimeShare,\n\t\t\t\t\t\t_totalSupplyLPTimeShare\n\t\t\t\t\t);\n\t\t\t\t}\n\n\t\t\t\t// calculated updated reward pool balance after subtracting user's reward\n\t\t\t\tupdatedRewardPoolBalances[i] = _updatedRewardPool.sub(\n\t\t\t\t\totherRewardAmounts[i]\n\t\t\t\t);\n\t\t\t}\n\t\t}\n\t}\n\n\t/*\n\t * @dev calculate reward tokens and disburse to user\n\t * @param lpToken: lp token contract address\n\t * @param to: user address\n\t * @param liquidityWeightFactor: coming as an argument for further calculations\n\t * @param rewardWeightFactor: coming as an argument for further calculations\n\t * @param valueDivisor: coming as an argument for further calculations\n\t */\n\tfunction _calculateRewards(\n\t\taddress holderAddress,\n\t\taddress lpToken,\n\t\taddress to\n\t)\n\t\tinternal\n\t\treturns (\n\t\t\tuint256 reward,\n\t\t\tuint256[] memory otherRewardAmounts,\n\t\t\taddress[] memory otherRewardTokens\n\t\t)\n\t{\n\t\tuint256[] memory updatedRewardPoolBalances;\n\t\tuint256 updatedSupplyLPTimeshare;\n\n\t\t(\n\t\t\treward,\n\t\t\totherRewardAmounts,\n\t\t\totherRewardTokens,\n\t\t\tupdatedRewardPoolBalances,\n\t\t\tupdatedSupplyLPTimeshare\n\t\t) = calculatePendingRewards(holderAddress, lpToken, to);\n\n\t\t// update last timestamps and LPTimeShares as per Checks-Effects-Interactions pattern\n\t\t_lastLiquidityTimestamp[lpToken][to] = block.timestamp;\n\t\t_lastLPTimeShareTimestamp[lpToken] = block.timestamp;\n\t\t_lastLPTimeShare[lpToken] = updatedSupplyLPTimeshare;\n\n\t\t// DISBURSE THE REWARD TOKENS TO USER (transfer)\n\t\tif (reward > 0)\n\t\t\tIHolderV2(holderAddress).safeTransfer(\n\t\t\t\taddress(_uTokens),\n\t\t\t\tto,\n\t\t\t\treward\n\t\t\t);\n\n\t\t// DISBURSE THE OTHER REWARD TOKENS TO USER (transfer)\n\t\tuint256 i;\n\t\tuint256 otherRewardTokensLength = otherRewardTokens.length;\n\t\tfor (i = 0; i < otherRewardTokensLength; i = i.add(1)) {\n\t\t\t// dispatch the rewards for that specific token\n\t\t\tif (otherRewardAmounts[i] > 0) {\n\t\t\t\tIHolderV2(holderAddress).safeTransfer(\n\t\t\t\t\totherRewardTokens[i],\n\t\t\t\t\tto,\n\t\t\t\t\totherRewardAmounts[i]\n\t\t\t\t);\n\t\t\t}\n\t\t\t//  update the reward pool balance and last timestamp\n\t\t\t//  corresonding to that particular reward token\n\t\t\t_lastRewardPoolBalance[holderAddress][\n\t\t\t\totherRewardTokens[i]\n\t\t\t] = updatedRewardPoolBalances[i];\n\t\t\t_lastRewardPoolBalanceTimestamp[holderAddress][\n\t\t\t\totherRewardTokens[i]\n\t\t\t] = block.timestamp;\n\t\t}\n\n\t\temit CalculateRewardsStakeLP(\n\t\t\tholderAddress,\n\t\t\tlpToken,\n\t\t\tto,\n\t\t\treward,\n\t\t\totherRewardAmounts,\n\t\t\totherRewardTokens,\n\t\t\tblock.timestamp\n\t\t);\n\n\t\treturn (reward, otherRewardAmounts, otherRewardTokens);\n\t}\n\n\t/*\n\t * @dev calculate liquidity and reward tokens and disburse to user\n\t * @param lpToken: lp token contract address\n\t * @param amount: token amount\n\t */\n\tfunction calculateRewards(address whitelistedAddress)\n\t\tpublic\n\t\tvirtual\n\t\toverride\n\t\twhenNotPaused\n\t\treturns (\n\t\t\tuint256 reward,\n\t\t\tuint256[] memory otherRewardAmounts,\n\t\t\taddress[] memory otherRewardTokens\n\t\t)\n\t{\n\t\t// check for validity of arguments\n\t\trequire(whitelistedAddress != address(0), \"LP2\");\n\n\t\t// check if lpToken contract of DeFi product address is whitelisted and has valid holder contract\n\t\t(address _holderAddress, address _lpToken, ) = _sTokens.getHolderData(\n\t\t\twhitelistedAddress\n\t\t);\n\n\t\t// (bool _isContractWhitelisted, address _holderAddress) = _sTokens.isContractWhitelisted(_lpToken);\n\t\trequire(_lpToken != address(0) && _holderAddress != address(0), \"LP1\");\n\n\t\t// calculate liquidity and reward tokens and disburse to user\n\t\t(reward, otherRewardAmounts, otherRewardTokens) = _calculateRewards(\n\t\t\t_holderAddress,\n\t\t\t_lpToken,\n\t\t\t_msgSender()\n\t\t);\n\n\t\temit TriggeredCalculateRewardsStakeLP(\n\t\t\t_holderAddress,\n\t\t\t_lpToken,\n\t\t\t_msgSender(),\n\t\t\treward,\n\t\t\totherRewardAmounts,\n\t\t\totherRewardTokens,\n\t\t\tblock.timestamp\n\t\t);\n\n\t\treturn (reward, otherRewardAmounts, otherRewardTokens);\n\t}\n\n\t/*\n\t * @dev calculate liquidity and reward tokens and disburse to user\n\t * @param lpToken: lp token contract address\n\t * @param amount: token amount\n\t */\n\tfunction calculateSyncedRewards(address whitelistedAddress)\n\t\tpublic\n\t\tvirtual\n\t\toverride\n\t\twhenNotPaused\n\t\treturns (\n\t\t\tuint256 reward,\n\t\t\tuint256 holderReward,\n\t\t\tuint256[] memory otherRewardAmounts,\n\t\t\taddress[] memory otherRewardTokens\n\t\t)\n\t{\n\t\t// check for validity of arguments\n\t\trequire(whitelistedAddress != address(0), \"LP2\");\n\n\t\t// check if lpToken contract of DeFi product address is whitelisted and has valid holder contract\n\t\t(address _holderAddress, address _lpToken, ) = _sTokens.getHolderData(\n\t\t\twhitelistedAddress\n\t\t);\n\n\t\t// (bool _isContractWhitelisted, address _holderAddress) = _sTokens.isContractWhitelisted(_lpToken);\n\t\trequire(_lpToken != address(0) && _holderAddress != address(0), \"LP1\");\n\n\t\t// initiate calculateHolderRewards first, using STokens contract\n\t\t// to sync the reward pool in holder contract with rewards from whitelisted contract\n\t\tholderReward = _sTokens.calculateHolderRewards(whitelistedAddress);\n\n\t\t// now initiate the _calculateRewards to distribute to the user\n\t\t// calculate liquidity and reward tokens and disburse to user\n\t\t(reward, otherRewardAmounts, otherRewardTokens) = _calculateRewards(\n\t\t\t_holderAddress,\n\t\t\t_lpToken,\n\t\t\t_msgSender()\n\t\t);\n\n\t\temit TriggeredCalculateSyncedRewards(\n\t\t\t_holderAddress,\n\t\t\t_lpToken,\n\t\t\t_msgSender(),\n\t\t\treward,\n\t\t\tholderReward,\n\t\t\totherRewardAmounts,\n\t\t\totherRewardTokens,\n\t\t\tblock.timestamp\n\t\t);\n\n\t\treturn (reward, holderReward, otherRewardAmounts, otherRewardTokens);\n\t}\n\n\t/*\n\t * @dev adding the liquidity\n\t * @param lpToken: lp token contract address\n\t * @param amount: token amount\n\t *\n\t * Emits a {AddLiquidity} event with 'lpToken, amount, rewards and liquidity'\n\t *\n\t */\n\tfunction addLiquidity(address whitelistedAddress, uint256 amount)\n\t\tpublic\n\t\tvirtual\n\t\toverride\n\t\twhenNotPaused\n\t\treturns (bool success)\n\t{\n\t\t// check for validity of arguments\n\t\trequire(amount > 0 && whitelistedAddress != address(0), \"LP3\");\n\n\t\t// check if lpToken contract of DeFi product address is whitelisted and has valid holder contract\n\t\t// (bool _isContractWhitelisted, address _holderAddress) = _sTokens.isContractWhitelisted(_lpToken);\n\t\t(address _holderAddress, address _lpToken, ) = _sTokens.getHolderData(\n\t\t\twhitelistedAddress\n\t\t);\n\t\trequire(_holderAddress != address(0) && _lpToken != address(0), \"LP4\");\n\t\taddress messageSender = _msgSender();\n\n\t\t// calculate liquidity and reward tokens and disburse to user\n\t\t_calculateRewards(_holderAddress, _lpToken, messageSender);\n\t\t// finally transfer the new LP Tokens to the StakeLP contract\n\t\tTransferHelper.safeTransferFrom(\n\t\t\t_lpToken,\n\t\t\tmessageSender,\n\t\t\taddress(this),\n\t\t\tamount\n\t\t);\n\n\t\t// update the user balance\n\t\t_lpBalance[_lpToken][messageSender] = _lpBalance[_lpToken][\n\t\t\tmessageSender\n\t\t].add(amount);\n\t\t// update the supply of lp tokens for reward and liquidity calculation\n\t\t_lpSupply[_lpToken] = _lpSupply[_lpToken].add(amount);\n\n\t\t// emit an event\n\t\temit AddLiquidity(_lpToken, amount, block.timestamp);\n\t\tsuccess = true;\n\t\treturn success;\n\t}\n\n\t/*\n\t * @dev removing the liquidity\n\t * @param lpToken: lp token contract address\n\t * @param amount: token amount\n\t *\n\t * Emits a {RemoveLiquidity} event with 'lpToken, amount, rewards and liquidity'\n\t *\n\t */\n\tfunction removeLiquidity(address whitelistedAddress, uint256 amount)\n\t\tpublic\n\t\tvirtual\n\t\toverride\n\t\twhenNotPaused\n\t\treturns (bool success)\n\t{\n\t\t// check for validity of arguments\n\t\trequire(amount > 0 && whitelistedAddress != address(0), \"LP6\");\n\n\t\t// check if lpToken contract of DeFi product address is whitelisted and has valid holder contract\n\t\t// (bool _isContractWhitelisted, address _holderAddress) = _sTokens.isContractWhitelisted(lpToken);\n\t\t(address _holderAddress, address _lpToken, ) = _sTokens.getHolderData(\n\t\t\twhitelistedAddress\n\t\t);\n\t\trequire(_holderAddress != address(0) && _lpToken != address(0), \"LP7\");\n\t\taddress messageSender = _msgSender();\n\n\t\t// check if suffecient balance is there\n\t\trequire(_lpBalance[_lpToken][messageSender] >= amount, \"LP8\");\n\n\t\t// calculate liquidity and reward tokens and disburse to user\n\t\t_calculateRewards(_holderAddress, _lpToken, messageSender);\n\n\t\t// finally transfer the LP Tokens to the user\n\t\tTransferHelper.safeTransfer(_lpToken, messageSender, amount);\n\n\t\t// update the user balance\n\t\t_lpBalance[_lpToken][messageSender] = _lpBalance[_lpToken][\n\t\t\tmessageSender\n\t\t].sub(amount);\n\t\t// update the supply of lp tokens for reward and liquidity calculation\n\t\t_lpSupply[_lpToken] = _lpSupply[_lpToken].sub(amount);\n\n\t\temit RemoveLiquidity(_lpToken, amount, block.timestamp);\n\t\tsuccess = true;\n\t\treturn success;\n\t}\n\n\t/**\n\t * @dev Set 'contract address', called from constructor\n\t * @param uAddress: utoken contract address\n\t *\n\t * Emits a {SetUTokensContract} event with '_contract' set to the utoken contract address.\n\t *\n\t */\n\tfunction setUTokensContract(address uAddress) public virtual override {\n\t\trequire(hasRole(DEFAULT_ADMIN_ROLE, _msgSender()), \"LP9\");\n\t\t_uTokens = IUTokensV2(uAddress);\n\t\temit SetUTokensContract(uAddress);\n\t}\n\n\t/**\n\t * @dev Set 'contract address', called from constructor\n\t * @param sAddress: stoken contract address\n\t *\n\t * Emits a {SetSTokensContract} event with '_contract' set to the stoken contract address.\n\t *\n\t */\n\tfunction setSTokensContract(address sAddress) public virtual override {\n\t\trequire(hasRole(DEFAULT_ADMIN_ROLE, _msgSender()), \"LP10\");\n\t\t_sTokens = ISTokensV2(sAddress);\n\t\temit SetSTokensContract(sAddress);\n\t}\n\n\t/*\n\t * @dev calculate liquidity and reward tokens and disburse to user\n\t * @param lpToken: lp token contract address\n\t * @param amount: token amount\n\t */\n\tfunction _setHolderAddressForRewards(\n\t\taddress holderContractAddress,\n\t\taddress[] memory rewardTokenContractAddresses,\n\t\tuint256[] memory rewardTokenEmissions\n\t) internal returns (bool success) {\n\t\t// add the Holder Contract address if it isn't already available\n\t\tif (!_holderContractList.contains(holderContractAddress)) {\n\t\t\t_holderContractList.add(holderContractAddress);\n\t\t}\n\n\t\tuint256 i;\n\t\tuint256 _rewardTokenContractAddressesLength = rewardTokenContractAddresses\n\t\t\t\t.length;\n\t\tfor (i = 0; i < _rewardTokenContractAddressesLength; i = i.add(1)) {\n\t\t\t// add the Token Contract addresss to the reward tokens list for the Holder Contract\n\t\t\tif (rewardTokenContractAddresses[i] != address(0)) {\n\t\t\t\t// search if the reward token contract is already part of list\n\t\t\t\tif (\n\t\t\t\t\t_rewardTokenListIndex[holderContractAddress][\n\t\t\t\t\t\trewardTokenContractAddresses[i]\n\t\t\t\t\t] == 0\n\t\t\t\t) {\n\t\t\t\t\t_rewardTokenList[holderContractAddress].push(\n\t\t\t\t\t\trewardTokenContractAddresses[i]\n\t\t\t\t\t);\n\t\t\t\t\t_rewardTokenListIndex[holderContractAddress][\n\t\t\t\t\t\trewardTokenContractAddresses[i]\n\t\t\t\t\t] = _rewardTokenList[holderContractAddress].length;\n\t\t\t\t}\n\t\t\t}\n\t\t\t// add the reward token emission value to the mapping\n\t\t\tif (rewardTokenEmissions[i] != 0) {\n\t\t\t\t_rewardTokenEmission[holderContractAddress][\n\t\t\t\t\trewardTokenContractAddresses[i]\n\t\t\t\t] = rewardTokenEmissions[i];\n\t\t\t}\n\t\t}\n\t\tsuccess = true;\n\t\treturn success;\n\t}\n\n\t/*\n\t * @dev calculate liquidity and reward tokens and disburse to user\n\t * @param lpToken: lp token contract address\n\t * @param amount: token amount\n\t */\n\tfunction setHolderAddressForRewards(\n\t\taddress holderContractAddress,\n\t\taddress[] memory rewardTokenContractAddresses,\n\t\tuint256[] memory rewardTokenEmissions\n\t) public override returns (bool success) {\n\t\trequire(hasRole(DEFAULT_ADMIN_ROLE, _msgSender()), \"LP15\");\n\t\t// check if the holder contract address is not zero\n\t\trequire(\n\t\t\tholderContractAddress != address(0) &&\n\t\t\t\trewardTokenContractAddresses.length ==\n\t\t\t\trewardTokenEmissions.length,\n\t\t\t\"LP14\"\n\t\t);\n\t\t_setHolderAddressForRewards(\n\t\t\tholderContractAddress,\n\t\t\trewardTokenContractAddresses,\n\t\t\trewardTokenEmissions\n\t\t);\n\t\t// emit an event capturing the action\n\t\temit SetHolderAddressForRewards(\n\t\t\tholderContractAddress,\n\t\t\trewardTokenContractAddresses,\n\t\t\trewardTokenEmissions,\n\t\t\tblock.timestamp\n\t\t);\n\n\t\tsuccess = true;\n\t\treturn success;\n\t}\n\n\t/*\n\t * @dev calculate liquidity and reward tokens and disburse to user\n\t * @param lpToken: lp token contract address\n\t * @param amount: token amount\n\t */\n\tfunction setHolderAddressesForRewards(\n\t\taddress[] memory holderContractAddresses,\n\t\taddress[] memory rewardTokenContractAddresses,\n\t\tuint256[] memory rewardTokenEmissions\n\t) public override returns (bool success) {\n\t\trequire(hasRole(DEFAULT_ADMIN_ROLE, _msgSender()), \"LP16\");\n\t\trequire(\n\t\t\trewardTokenContractAddresses.length == rewardTokenEmissions.length,\n\t\t\t\"LP17\"\n\t\t);\n\t\tuint256 _holderContractAddressesLength = holderContractAddresses.length;\n\t\tuint256 i;\n\t\tfor (i = 0; i < _holderContractAddressesLength; i = i.add(1)) {\n\t\t\trequire(holderContractAddresses[i] != address(0), \"LP18\");\n\t\t\t_setHolderAddressForRewards(\n\t\t\t\tholderContractAddresses[i],\n\t\t\t\trewardTokenContractAddresses,\n\t\t\t\trewardTokenEmissions\n\t\t\t);\n\t\t}\n\n\t\t// emit an event capturing the action\n\t\temit SetHolderAddressesForRewards(\n\t\t\tholderContractAddresses,\n\t\t\trewardTokenContractAddresses,\n\t\t\trewardTokenEmissions,\n\t\t\tblock.timestamp\n\t\t);\n\n\t\tsuccess = true;\n\t\treturn success;\n\t}\n\n\t/*\n\t * @dev calculate liquidity and reward tokens and disburse to user\n\t * @param lpToken: lp token contract address\n\t * @param amount: token amount\n\t */\n\tfunction _removeHolderAddressForRewards(address holderContractAddress)\n\t\tinternal\n\t\treturns (bool success)\n\t{\n\t\t// delete holder contract from enumerable set\n\t\t_holderContractList.remove(holderContractAddress);\n\t\t// get the list of token contracts and remove the index values, and their emissions\n\t\taddress[] memory _rewardTokenListLocal = _rewardTokenList[\n\t\t\tholderContractAddress\n\t\t];\n\t\tuint256 _rewardTokenListLength = _rewardTokenListLocal.length;\n\t\tuint256 i;\n\t\tfor (i = 0; i < _rewardTokenListLength; i = i.add(1)) {\n\t\t\tdelete _rewardTokenListIndex[holderContractAddress][\n\t\t\t\t_rewardTokenListLocal[i]\n\t\t\t];\n\t\t\tdelete _rewardTokenEmission[holderContractAddress][\n\t\t\t\t_rewardTokenListLocal[i]\n\t\t\t];\n\t\t}\n\t\t// delete the list of token contract addresses\n\t\tdelete _rewardTokenList[holderContractAddress];\n\n\t\tsuccess = true;\n\t\treturn success;\n\t}\n\n\t/*\n\t * @dev calculate liquidity and reward tokens and disburse to user\n\t * @param lpToken: lp token contract address\n\t * @param amount: token amount\n\t */\n\tfunction removeHolderAddressForRewards(address holderContractAddress)\n\t\tpublic\n\t\toverride\n\t\treturns (bool success)\n\t{\n\t\trequire(hasRole(DEFAULT_ADMIN_ROLE, _msgSender()), \"LP15\");\n\t\t// check if the holder contract address is not zero\n\t\trequire(holderContractAddress != address(0), \"LP14\");\n\n\t\t_removeHolderAddressForRewards(holderContractAddress);\n\t\t// emit an event capturing the action\n\t\temit RemoveHolderAddressForRewards(\n\t\t\tholderContractAddress,\n\t\t\tblock.timestamp\n\t\t);\n\n\t\tsuccess = true;\n\t\treturn success;\n\t}\n\n\t/*\n\t * @dev calculate liquidity and reward tokens and disburse to user\n\t * @param lpToken: lp token contract address\n\t * @param amount: token amount\n\t */\n\tfunction removeHolderAddressesForRewards(\n\t\taddress[] memory holderContractAddresses\n\t) public override returns (bool success) {\n\t\trequire(hasRole(DEFAULT_ADMIN_ROLE, _msgSender()), \"LP16\");\n\t\tuint256 _holderContractAddressesLength = holderContractAddresses.length;\n\t\tuint256 i;\n\t\tfor (i = 0; i < _holderContractAddressesLength; i = i.add(1)) {\n\t\t\trequire(holderContractAddresses[i] != address(0), \"LP18\");\n\t\t\t_removeHolderAddressForRewards(holderContractAddresses[i]);\n\t\t}\n\n\t\t// emit an event capturing the action\n\t\temit RemoveHolderAddressesForRewards(\n\t\t\tholderContractAddresses,\n\t\t\tblock.timestamp\n\t\t);\n\n\t\tsuccess = true;\n\t\treturn success;\n\t}\n\n\t/*\n\t * @dev calculate liquidity and reward tokens and disburse to user\n\t * @param lpToken: lp token contract address\n\t * @param amount: token amount\n\t */\n\tfunction _removeTokenContractForRewards(\n\t\taddress holderContractAddress,\n\t\taddress[] memory rewardTokenContractAddresses\n\t) internal returns (bool success) {\n\t\tuint256 i;\n\t\tuint256 _rewardTokenContractAddressesLength = rewardTokenContractAddresses\n\t\t\t\t.length;\n\t\tfor (i = 0; i < _rewardTokenContractAddressesLength; i = i.add(1)) {\n\t\t\tif (rewardTokenContractAddresses[i] != address(0)) {\n\t\t\t\t// remove the token address from the list\n\t\t\t\tuint256 rewardTokenListIndexLocal = _rewardTokenListIndex[\n\t\t\t\t\tholderContractAddress\n\t\t\t\t][rewardTokenContractAddresses[i]];\n\t\t\t\tif (rewardTokenListIndexLocal > 0) {\n\t\t\t\t\tif (\n\t\t\t\t\t\trewardTokenListIndexLocal ==\n\t\t\t\t\t\t_rewardTokenList[holderContractAddress].length\n\t\t\t\t\t) {\n\t\t\t\t\t\t_rewardTokenList[holderContractAddress].pop();\n\t\t\t\t\t} else {\n\t\t\t\t\t\t_rewardTokenList[holderContractAddress][\n\t\t\t\t\t\t\trewardTokenListIndexLocal.sub(1)\n\t\t\t\t\t\t] = _rewardTokenList[holderContractAddress][\n\t\t\t\t\t\t\t_rewardTokenList[holderContractAddress].length.sub(\n\t\t\t\t\t\t\t\t1\n\t\t\t\t\t\t\t)\n\t\t\t\t\t\t];\n\t\t\t\t\t\t_rewardTokenList[holderContractAddress].pop();\n\t\t\t\t\t}\n\n\t\t\t\t\t// delete the index value\n\t\t\t\t\tdelete _rewardTokenListIndex[holderContractAddress][\n\t\t\t\t\t\trewardTokenContractAddresses[i]\n\t\t\t\t\t];\n\n\t\t\t\t\t// delete the emission value\n\t\t\t\t\tdelete _rewardTokenEmission[holderContractAddress][\n\t\t\t\t\t\trewardTokenContractAddresses[i]\n\t\t\t\t\t];\n\t\t\t\t}\n\t\t\t}\n\t\t}\n\n\t\tsuccess = true;\n\t\treturn success;\n\t}\n\n\t/*\n\t * @dev calculate liquidity and reward tokens and disburse to user\n\t * @param lpToken: lp token contract address\n\t * @param amount: token amount\n\t */\n\tfunction removeTokenContractForRewards(\n\t\taddress holderContractAddress,\n\t\taddress[] memory rewardTokenContractAddresses\n\t) public override returns (bool success) {\n\t\trequire(hasRole(DEFAULT_ADMIN_ROLE, _msgSender()), \"LP15\");\n\t\t// check if the holder contract address is not zero\n\t\trequire(holderContractAddress != address(0), \"LP14\");\n\t\t_removeTokenContractForRewards(\n\t\t\tholderContractAddress,\n\t\t\trewardTokenContractAddresses\n\t\t);\n\t\t// emit an event capturing the action\n\t\temit RemoveTokenContractForRewards(\n\t\t\tholderContractAddress,\n\t\t\trewardTokenContractAddresses,\n\t\t\tblock.timestamp\n\t\t);\n\n\t\tsuccess = true;\n\t\treturn success;\n\t}\n\n\t/*\n\t * @dev calculate liquidity and reward tokens and disburse to user\n\t * @param lpToken: lp token contract address\n\t * @param amount: token amount\n\t */\n\tfunction removeTokenContractsForRewards(\n\t\taddress[] memory holderContractAddresses,\n\t\taddress[] memory rewardTokenContractAddresses\n\t) public override returns (bool success) {\n\t\trequire(hasRole(DEFAULT_ADMIN_ROLE, _msgSender()), \"LP16\");\n\t\tuint256 _holderContractAddressesLength = holderContractAddresses.length;\n\t\tuint256 i;\n\t\tfor (i = 0; i < _holderContractAddressesLength; i = i.add(1)) {\n\t\t\trequire(holderContractAddresses[i] != address(0), \"LP18\");\n\t\t\t_removeTokenContractForRewards(\n\t\t\t\tholderContractAddresses[i],\n\t\t\t\trewardTokenContractAddresses\n\t\t\t);\n\t\t}\n\n\t\t// emit an event capturing the action\n\t\temit RemoveTokenContractsForRewards(\n\t\t\tholderContractAddresses,\n\t\t\trewardTokenContractAddresses,\n\t\t\tblock.timestamp\n\t\t);\n\n\t\tsuccess = true;\n\t\treturn success;\n\t}\n\n\t/**\n\t * @dev Triggers stopped state.\n\t *\n\t * Requirements:\n\t *\n\t * - The contract must not be paused.\n\t */\n\tfunction pause() public virtual override returns (bool success) {\n\t\trequire(hasRole(PAUSER_ROLE, _msgSender()), \"LP12\");\n\t\t_pause();\n\t\treturn true;\n\t}\n\n\t/**\n\t * @dev Returns to normal state.\n\t *\n\t * Requirements:\n\t *\n\t * - The contract must be paused.\n\t */\n\tfunction unpause() public virtual override returns (bool success) {\n\t\trequire(hasRole(PAUSER_ROLE, _msgSender()), \"LP13\");\n\t\t_unpause();\n\t\treturn true;\n\t}\n}\n",
  "sourcePath": "C:\\Users\\Kamlesh\\Persistence\\pStake\\codebase\\pStake-smartContracts\\contracts\\StakeLPCoreV8.sol",
  "compiler": {
    "name": "solc",
    "version": "0.7.6+commit.7338295f.Emscripten.clang"
  },
  "schemaVersion": "3.4.3",
  "updatedAt": "2021-08-31T04:24:30.617Z",
  "devdoc": {
    "kind": "dev",
    "methods": {
      "calculateRewards(address)": {
        "details": "remove liquidity Returns a uint256"
      },
      "calculateSyncedRewards(address)": {
        "details": "remove liquidity Returns a uint256"
      },
      "getRoleAdmin(bytes32)": {
        "details": "Returns the admin role that controls `role`. See {grantRole} and {revokeRole}. To change a role's admin, use {_setRoleAdmin}."
      },
      "getRoleMember(bytes32,uint256)": {
        "details": "Returns one of the accounts that have `role`. `index` must be a value between 0 and {getRoleMemberCount}, non-inclusive. Role bearers are not sorted in any particular way, and their ordering may change at any point. WARNING: When using {getRoleMember} and {getRoleMemberCount}, make sure you perform all queries on the same block. See the following https://forum.openzeppelin.com/t/iterating-over-elements-on-enumerableset-in-openzeppelin-contracts/2296[forum post] for more information."
      },
      "getRoleMemberCount(bytes32)": {
        "details": "Returns the number of accounts that have `role`. Can be used together with {getRoleMember} to enumerate all bearers of a role."
      },
      "grantRole(bytes32,address)": {
        "details": "Grants `role` to `account`. If `account` had not been already granted `role`, emits a {RoleGranted} event. Requirements: - the caller must have ``role``'s admin role."
      },
      "hasRole(bytes32,address)": {
        "details": "Returns `true` if `account` has been granted `role`."
      },
      "initialize(address,address,address,uint256)": {
        "details": "Constructor for initializing the LiquidStaking contract.",
        "params": {
          "sAddress": "- address of the SToken contract.",
          "uAddress": "- address of the UToken contract."
        }
      },
      "pause()": {
        "details": "Triggers stopped state. Requirements: - The contract must not be paused."
      },
      "paused()": {
        "details": "Returns true if the contract is paused, and false otherwise."
      },
      "renounceRole(bytes32,address)": {
        "details": "Revokes `role` from the calling account. Roles are often managed via {grantRole} and {revokeRole}: this function's purpose is to provide a mechanism for accounts to lose their privileges if they are compromised (such as when a trusted device is misplaced). If the calling account had been granted `role`, emits a {RoleRevoked} event. Requirements: - the caller must be `account`."
      },
      "revokeRole(bytes32,address)": {
        "details": "Revokes `role` from `account`. If `account` had been granted `role`, emits a {RoleRevoked} event. Requirements: - the caller must have ``role``'s admin role."
      },
      "setSTokensContract(address)": {
        "details": "Set 'contract address', called from constructor",
        "params": {
          "sAddress": ": stoken contract address Emits a {SetSTokensContract} event with '_contract' set to the stoken contract address."
        }
      },
      "setUTokensContract(address)": {
        "details": "Set 'contract address', called from constructor",
        "params": {
          "uAddress": ": utoken contract address Emits a {SetUTokensContract} event with '_contract' set to the utoken contract address."
        }
      },
      "unpause()": {
        "details": "Returns to normal state. Requirements: - The contract must be paused."
      }
    },
    "version": 1
  },
  "userdoc": {
    "kind": "user",
    "methods": {},
    "version": 1
  }
}