{
  "contractName": "StakeLPCore",
  "abi": [
    {
      "anonymous": false,
      "inputs": [
        {
          "indexed": false,
          "internalType": "address",
          "name": "lpToken",
          "type": "address"
        },
        {
          "indexed": false,
          "internalType": "uint256",
          "name": "amount",
          "type": "uint256"
        },
        {
          "indexed": false,
          "internalType": "uint256",
          "name": "rewards",
          "type": "uint256"
        },
        {
          "indexed": false,
          "internalType": "uint256",
          "name": "liquidity",
          "type": "uint256"
        }
      ],
      "name": "AddLiquidity",
      "type": "event"
    },
    {
      "anonymous": false,
      "inputs": [
        {
          "indexed": true,
          "internalType": "address",
          "name": "holderAddress",
          "type": "address"
        },
        {
          "indexed": true,
          "internalType": "address",
          "name": "lpToken",
          "type": "address"
        },
        {
          "indexed": false,
          "internalType": "uint256",
          "name": "amount",
          "type": "uint256"
        },
        {
          "indexed": true,
          "internalType": "address",
          "name": "to",
          "type": "address"
        },
        {
          "indexed": false,
          "internalType": "uint256",
          "name": "liquidity",
          "type": "uint256"
        },
        {
          "indexed": false,
          "internalType": "uint256",
          "name": "reward",
          "type": "uint256"
        }
      ],
      "name": "CalculateRewardsAndLiquidity",
      "type": "event"
    },
    {
      "anonymous": false,
      "inputs": [
        {
          "indexed": false,
          "internalType": "address",
          "name": "account",
          "type": "address"
        }
      ],
      "name": "Paused",
      "type": "event"
    },
    {
      "anonymous": false,
      "inputs": [
        {
          "indexed": false,
          "internalType": "address",
          "name": "lpToken",
          "type": "address"
        },
        {
          "indexed": false,
          "internalType": "uint256",
          "name": "amount",
          "type": "uint256"
        },
        {
          "indexed": false,
          "internalType": "uint256",
          "name": "rewards",
          "type": "uint256"
        },
        {
          "indexed": false,
          "internalType": "uint256",
          "name": "liquidity",
          "type": "uint256"
        }
      ],
      "name": "RemoveLiquidity",
      "type": "event"
    },
    {
      "anonymous": false,
      "inputs": [
        {
          "indexed": true,
          "internalType": "bytes32",
          "name": "role",
          "type": "bytes32"
        },
        {
          "indexed": true,
          "internalType": "bytes32",
          "name": "previousAdminRole",
          "type": "bytes32"
        },
        {
          "indexed": true,
          "internalType": "bytes32",
          "name": "newAdminRole",
          "type": "bytes32"
        }
      ],
      "name": "RoleAdminChanged",
      "type": "event"
    },
    {
      "anonymous": false,
      "inputs": [
        {
          "indexed": true,
          "internalType": "bytes32",
          "name": "role",
          "type": "bytes32"
        },
        {
          "indexed": true,
          "internalType": "address",
          "name": "account",
          "type": "address"
        },
        {
          "indexed": true,
          "internalType": "address",
          "name": "sender",
          "type": "address"
        }
      ],
      "name": "RoleGranted",
      "type": "event"
    },
    {
      "anonymous": false,
      "inputs": [
        {
          "indexed": true,
          "internalType": "bytes32",
          "name": "role",
          "type": "bytes32"
        },
        {
          "indexed": true,
          "internalType": "address",
          "name": "account",
          "type": "address"
        },
        {
          "indexed": true,
          "internalType": "address",
          "name": "sender",
          "type": "address"
        }
      ],
      "name": "RoleRevoked",
      "type": "event"
    },
    {
      "anonymous": false,
      "inputs": [
        {
          "indexed": true,
          "internalType": "address",
          "name": "_contract",
          "type": "address"
        }
      ],
      "name": "SetPSTAKEContract",
      "type": "event"
    },
    {
      "anonymous": false,
      "inputs": [
        {
          "indexed": true,
          "internalType": "address",
          "name": "_contract",
          "type": "address"
        }
      ],
      "name": "SetSTokensContract",
      "type": "event"
    },
    {
      "anonymous": false,
      "inputs": [
        {
          "indexed": true,
          "internalType": "address",
          "name": "_contract",
          "type": "address"
        }
      ],
      "name": "SetUTokensContract",
      "type": "event"
    },
    {
      "anonymous": false,
      "inputs": [
        {
          "indexed": false,
          "internalType": "address",
          "name": "account",
          "type": "address"
        }
      ],
      "name": "Unpaused",
      "type": "event"
    },
    {
      "inputs": [],
      "name": "DEFAULT_ADMIN_ROLE",
      "outputs": [
        {
          "internalType": "bytes32",
          "name": "",
          "type": "bytes32"
        }
      ],
      "stateMutability": "view",
      "type": "function"
    },
    {
      "inputs": [],
      "name": "PAUSER_ROLE",
      "outputs": [
        {
          "internalType": "bytes32",
          "name": "",
          "type": "bytes32"
        }
      ],
      "stateMutability": "view",
      "type": "function"
    },
    {
      "inputs": [
        {
          "internalType": "bytes32",
          "name": "role",
          "type": "bytes32"
        }
      ],
      "name": "getRoleAdmin",
      "outputs": [
        {
          "internalType": "bytes32",
          "name": "",
          "type": "bytes32"
        }
      ],
      "stateMutability": "view",
      "type": "function"
    },
    {
      "inputs": [
        {
          "internalType": "bytes32",
          "name": "role",
          "type": "bytes32"
        },
        {
          "internalType": "uint256",
          "name": "index",
          "type": "uint256"
        }
      ],
      "name": "getRoleMember",
      "outputs": [
        {
          "internalType": "address",
          "name": "",
          "type": "address"
        }
      ],
      "stateMutability": "view",
      "type": "function"
    },
    {
      "inputs": [
        {
          "internalType": "bytes32",
          "name": "role",
          "type": "bytes32"
        }
      ],
      "name": "getRoleMemberCount",
      "outputs": [
        {
          "internalType": "uint256",
          "name": "",
          "type": "uint256"
        }
      ],
      "stateMutability": "view",
      "type": "function"
    },
    {
      "inputs": [
        {
          "internalType": "bytes32",
          "name": "role",
          "type": "bytes32"
        },
        {
          "internalType": "address",
          "name": "account",
          "type": "address"
        }
      ],
      "name": "grantRole",
      "outputs": [],
      "stateMutability": "nonpayable",
      "type": "function"
    },
    {
      "inputs": [
        {
          "internalType": "bytes32",
          "name": "role",
          "type": "bytes32"
        },
        {
          "internalType": "address",
          "name": "account",
          "type": "address"
        }
      ],
      "name": "hasRole",
      "outputs": [
        {
          "internalType": "bool",
          "name": "",
          "type": "bool"
        }
      ],
      "stateMutability": "view",
      "type": "function"
    },
    {
      "inputs": [],
      "name": "paused",
      "outputs": [
        {
          "internalType": "bool",
          "name": "",
          "type": "bool"
        }
      ],
      "stateMutability": "view",
      "type": "function"
    },
    {
      "inputs": [
        {
          "internalType": "bytes32",
          "name": "role",
          "type": "bytes32"
        },
        {
          "internalType": "address",
          "name": "account",
          "type": "address"
        }
      ],
      "name": "renounceRole",
      "outputs": [],
      "stateMutability": "nonpayable",
      "type": "function"
    },
    {
      "inputs": [
        {
          "internalType": "bytes32",
          "name": "role",
          "type": "bytes32"
        },
        {
          "internalType": "address",
          "name": "account",
          "type": "address"
        }
      ],
      "name": "revokeRole",
      "outputs": [],
      "stateMutability": "nonpayable",
      "type": "function"
    },
    {
      "inputs": [
        {
          "internalType": "address",
          "name": "uAddress",
          "type": "address"
        },
        {
          "internalType": "address",
          "name": "sAddress",
          "type": "address"
        },
        {
          "internalType": "address",
          "name": "pStakeAddress",
          "type": "address"
        },
        {
          "internalType": "address",
          "name": "defaultAdminAddress",
          "type": "address"
        },
        {
          "internalType": "address",
          "name": "pauserAddress",
          "type": "address"
        }
      ],
      "name": "initialize",
      "outputs": [],
      "stateMutability": "nonpayable",
      "type": "function"
    },
    {
      "inputs": [
        {
          "internalType": "address",
          "name": "lpToken",
          "type": "address"
        },
        {
          "internalType": "address",
          "name": "to",
          "type": "address"
        }
      ],
      "name": "calculatePendingRewardsAndLiquidity",
      "outputs": [
        {
          "internalType": "uint256",
          "name": "liquidity",
          "type": "uint256"
        },
        {
          "internalType": "uint256",
          "name": "reward",
          "type": "uint256"
        },
        {
          "internalType": "uint256",
          "name": "updatedSupplyLPTimeshare",
          "type": "uint256"
        }
      ],
      "stateMutability": "view",
      "type": "function"
    },
    {
      "inputs": [
        {
          "internalType": "address",
          "name": "lpToken",
          "type": "address"
        },
        {
          "internalType": "uint256",
          "name": "amount",
          "type": "uint256"
        }
      ],
      "name": "addLiquidity",
      "outputs": [
        {
          "internalType": "uint256",
          "name": "liquidity",
          "type": "uint256"
        },
        {
          "internalType": "uint256",
          "name": "rewards",
          "type": "uint256"
        }
      ],
      "stateMutability": "nonpayable",
      "type": "function"
    },
    {
      "inputs": [
        {
          "internalType": "address",
          "name": "lpToken",
          "type": "address"
        },
        {
          "internalType": "uint256",
          "name": "amount",
          "type": "uint256"
        }
      ],
      "name": "removeLiquidity",
      "outputs": [
        {
          "internalType": "uint256",
          "name": "liquidity",
          "type": "uint256"
        },
        {
          "internalType": "uint256",
          "name": "rewards",
          "type": "uint256"
        }
      ],
      "stateMutability": "nonpayable",
      "type": "function"
    },
    {
      "inputs": [
        {
          "internalType": "address",
          "name": "uAddress",
          "type": "address"
        }
      ],
      "name": "setUTokensContract",
      "outputs": [],
      "stateMutability": "nonpayable",
      "type": "function"
    },
    {
      "inputs": [
        {
          "internalType": "address",
          "name": "sAddress",
          "type": "address"
        }
      ],
      "name": "setSTokensContract",
      "outputs": [],
      "stateMutability": "nonpayable",
      "type": "function"
    },
    {
      "inputs": [
        {
          "internalType": "address",
          "name": "pstakeAddress",
          "type": "address"
        }
      ],
      "name": "setPSTAKEContract",
      "outputs": [],
      "stateMutability": "nonpayable",
      "type": "function"
    },
    {
      "inputs": [],
      "name": "pause",
      "outputs": [
        {
          "internalType": "bool",
          "name": "success",
          "type": "bool"
        }
      ],
      "stateMutability": "nonpayable",
      "type": "function"
    },
    {
      "inputs": [],
      "name": "unpause",
      "outputs": [
        {
          "internalType": "bool",
          "name": "success",
          "type": "bool"
        }
      ],
      "stateMutability": "nonpayable",
      "type": "function"
    }
  ],
  "bytecode": "0x608060405234801561001057600080fd5b50611d8a806100206000396000f3fe608060405234801561001057600080fd5b50600436106101215760003560e01c80635c975abb116100ad578063a217fddf11610071578063a217fddf14610371578063ca15c87314610379578063d43e52a914610396578063d547741f146103e2578063e63ab1e91461040e57610121565b80635c975abb146102ca5780638456cb59146102d25780639010d07c146102da57806391d1485414610319578063a201ccf61461034557610121565b80632e31fab8116100f45780632e31fab8146101eb5780632f2ff15d1461021157806336568abe1461023d5780633f4ba83a14610269578063566887001461028557610121565b80631459457a1461012657806321bdf9e514610170578063228d9eae14610196578063248a9ca3146101bc575b600080fd5b61016e600480360360a081101561013c57600080fd5b506001600160a01b03813581169160208101358216916040820135811691606081013582169160809091013516610416565b005b61016e6004803603602081101561018657600080fd5b50356001600160a01b031661050b565b61016e600480360360208110156101ac57600080fd5b50356001600160a01b031661059e565b6101d9600480360360208110156101d257600080fd5b503561062f565b60408051918252519081900360200190f35b61016e6004803603602081101561020157600080fd5b50356001600160a01b0316610644565b61016e6004803603604081101561022757600080fd5b50803590602001356001600160a01b03166106d5565b61016e6004803603604081101561025357600080fd5b50803590602001356001600160a01b031661073c565b61027161079d565b604080519115158252519081900360200190f35b6102b16004803603604081101561029b57600080fd5b506001600160a01b038135169060200135610801565b6040805192835260208301919091528051918290030190f35b610271610a77565b610271610a80565b6102fd600480360360408110156102f057600080fd5b5080359060200135610ade565b604080516001600160a01b039092168252519081900360200190f35b6102716004803603604081101561032f57600080fd5b50803590602001356001600160a01b0316610aff565b6102b16004803603604081101561035b57600080fd5b506001600160a01b038135169060200135610b17565b6101d9610dee565b6101d96004803603602081101561038f57600080fd5b5035610df3565b6103c4600480360360408110156103ac57600080fd5b506001600160a01b0381358116916020013516610e0a565b60408051938452602084019290925282820152519081900360600190f35b61016e600480360360408110156103f857600080fd5b50803590602001356001600160a01b0316610ff3565b6101d961104c565b600054610100900460ff168061042f575061042f61105e565b8061043d575060005460ff16155b6104785760405162461bcd60e51b815260040180806020018281038252602e815260200180611cb7602e913960400191505060405180910390fd5b600054610100900460ff161580156104a3576000805460ff1961ff0019909116610100171660011790555b6104ab61106f565b6104b3611121565b6104be60008461072e565b6104d6600080516020611d068339815191528361072e565b6104df8661050b565b6104e885610644565b6104f18461059e565b8015610503576000805461ff00191690555b505050505050565b61051d60006105186111be565b610aff565b610554576040805162461bcd60e51b81526020600482015260036024820152624c503960e81b604482015290519081900360640190fd5b609c80546001600160a01b0319166001600160a01b0383169081179091556040517ff745c285f36f88bea6af14d4d0f33dd9350cef7895216c1615b1caaee7857e0c90600090a250565b6105ab60006105186111be565b6105e5576040805162461bcd60e51b815260206004808301919091526024820152634c50313160e01b604482015290519081900360640190fd5b609e80546001600160a01b0319166001600160a01b0383169081179091556040517f2321c893a63891a056e19e865d785f953c42f766bab444a8bcabd3673cee3d1d90600090a250565b60009081526065602052604090206002015490565b61065160006105186111be565b61068b576040805162461bcd60e51b8152602060048083019190915260248201526304c5031360e41b604482015290519081900360640190fd5b609d80546001600160a01b0319166001600160a01b0383169081179091556040517fd0b9dbe26f676f4cdb02fc249c203baa0314cec79e18b4194dc862795a5de03f90600090a250565b6000828152606560205260409020600201546106f3906105186111be565b61072e5760405162461bcd60e51b815260040180806020018281038252602f815260200180611c27602f913960400191505060405180910390fd5b61073882826111c2565b5050565b6107446111be565b6001600160a01b0316816001600160a01b0316146107935760405162461bcd60e51b815260040180806020018281038252602f815260200180611d26602f913960400191505060405180910390fd5b610738828261122b565b60006107b9600080516020611d068339815191526105186111be565b6107f3576040805162461bcd60e51b815260206004808301919091526024820152634c50313360e01b604482015290519081900360640190fd5b6107fb611294565b50600190565b60008061080c610a77565b15610851576040805162461bcd60e51b815260206004820152601060248201526f14185d5cd8589b194e881c185d5cd95960821b604482015290519081900360640190fd5b60008311801561086957506001600160a01b03841615155b6108a0576040805162461bcd60e51b815260206004820152600360248201526213140d60ea1b604482015290519081900360640190fd5b609d546040805163602b82c560e11b81526001600160a01b0387811660048301528251600094859492169263c057058a92602480830193919282900301818787803b1580156108ee57600080fd5b505af1158015610902573d6000803e3d6000fd5b505050506040513d604081101561091857600080fd5b508051602090910151909250905081801561093b57506001600160a01b03811615155b610972576040805162461bcd60e51b81526020600482015260036024820152624c503560e81b604482015290519081900360640190fd5b600061097c6111be565b9050610989828883611334565b955093506109998782308961148e565b6001600160a01b038088166000908152609760209081526040808320938516835292905220546109c990876115e2565b6001600160a01b0380891660008181526097602090815260408083209487168352938152838220949094559081526098909252902054610a0990876115e2565b6001600160a01b0388166000818152609860209081526040918290209390935580519182529181018890528082018690526060810187905290517fbeb3885786d637a474cbc287c0a44587231633a077f0bd30354d5a4b18996fce9181900360800190a15050509250929050565b60335460ff1690565b6000610a9c600080516020611d068339815191526105186111be565b610ad6576040805162461bcd60e51b815260206004808301919091526024820152632628189960e11b604482015290519081900360640190fd5b6107fb61163c565b6000828152606560205260408120610af690836116bf565b90505b92915050565b6000828152606560205260408120610af690836116cb565b600080610b22610a77565b15610b67576040805162461bcd60e51b815260206004820152601060248201526f14185d5cd8589b194e881c185d5cd95960821b604482015290519081900360640190fd5b600083118015610b7f57506001600160a01b03841615155b610bb6576040805162461bcd60e51b815260206004820152600360248201526226281b60e91b604482015290519081900360640190fd5b609d546040805163602b82c560e11b81526001600160a01b0387811660048301528251600094859492169263c057058a92602480830193919282900301818787803b158015610c0457600080fd5b505af1158015610c18573d6000803e3d6000fd5b505050506040513d6040811015610c2e57600080fd5b5080516020909101519092509050818015610c5157506001600160a01b03811615155b610c88576040805162461bcd60e51b81526020600482015260036024820152624c503560e81b604482015290519081900360640190fd5b6000610c926111be565b6001600160a01b03808916600090815260976020908152604080832093851683529290522054909150861115610cf5576040805162461bcd60e51b8152602060048201526003602482015262098a0760eb1b604482015290519081900360640190fd5b610d00828883611334565b95509350610d108730838961148e565b6001600160a01b03808816600090815260976020908152604080832093851683529290522054610d4090876116e0565b6001600160a01b0380891660008181526097602090815260408083209487168352938152838220949094559081526098909252902054610d8090876116e0565b6001600160a01b0388166000818152609860209081526040918290209390935580519182529181018890528082018690526060810187905290517f59c3a0b60c6ab7deb62e1440c9e72441db6db7dfe514dba8cb18e60c0d896efa9181900360800190a15050509250929050565b600081565b6000818152606560205260408120610af99061173d565b6001600160a01b038083166000818152609760209081526040808320948616808452948252808320549383526098825280832054609b8352818420958452949091528120549092839283929091908390610e7090610e699042906116e0565b8490611748565b6001600160a01b0389166000908152609a602052604081205491925090610e9c90610e699042906116e0565b6001600160a01b038a1660009081526099602052604081205491925090610ec390836115e2565b9050610ecf81836116e0565b609c54604080516370a0823160e01b815230600482015290519298506000926001600160a01b03909216916370a0823191602480820192602092909190829003018186803b158015610f2057600080fd5b505afa158015610f34573d6000803e3d6000fd5b505050506040513d6020811015610f4a57600080fd5b50519050610f598185846117a1565b609e54604080516370a0823160e01b81523060048201529051929a506000926001600160a01b03909216916370a0823191602480820192602092909190829003018186803b158015610faa57600080fd5b505afa158015610fbe573d6000803e3d6000fd5b505050506040513d6020811015610fd457600080fd5b50519050610fe38186856117a1565b9950505050505050509250925092565b600082815260656020526040902060020154611011906105186111be565b6107935760405162461bcd60e51b8152600401808060200182810382526030815260200180611c876030913960400191505060405180910390fd5b600080516020611d0683398151915281565b60006110693061185c565b15905090565b600054610100900460ff1680611088575061108861105e565b80611096575060005460ff16155b6110d15760405162461bcd60e51b815260040180806020018281038252602e815260200180611cb7602e913960400191505060405180910390fd5b600054610100900460ff161580156110fc576000805460ff1961ff0019909116610100171660011790555b611104611862565b61110c611862565b801561111e576000805461ff00191690555b50565b600054610100900460ff168061113a575061113a61105e565b80611148575060005460ff16155b6111835760405162461bcd60e51b815260040180806020018281038252602e815260200180611cb7602e913960400191505060405180910390fd5b600054610100900460ff161580156111ae576000805460ff1961ff0019909116610100171660011790555b6111b6611862565b61110c611902565b3390565b60008281526065602052604090206111da90826119ad565b15610738576111e76111be565b6001600160a01b0316816001600160a01b0316837f2f8788117e7eff1d82e926ec794901d17c78024a50270940304540a733656f0d60405160405180910390a45050565b600082815260656020526040902061124390826119c2565b15610738576112506111be565b6001600160a01b0316816001600160a01b0316837ff6391f5c32d9c69d2a47ea670b442974b53935d1edc7fd64eb21e047a839171b60405160405180910390a45050565b61129c610a77565b6112e4576040805162461bcd60e51b815260206004820152601460248201527314185d5cd8589b194e881b9bdd081c185d5cd95960621b604482015290519081900360640190fd5b6033805460ff191690557f5db9ee0a495bf2e6ff9c91a7834c1ba4fdd244a5e8aa4e537bd38aeae4b073aa6113176111be565b604080516001600160a01b039092168252519081900360200190a1565b60008060006113438585610e0a565b6001600160a01b038089166000818152609b60209081526040808320948c1683529381528382204290819055928252609a81528382209290925560999091522081905591945092509050821561140957609e546040805163d1660f9960e01b81526001600160a01b03928316600482015286831660248201526044810186905290519188169163d1660f999160648082019260009290919082900301818387803b1580156113f057600080fd5b505af1158015611404573d6000803e3d6000fd5b505050505b811561148557609c546040805163d1660f9960e01b81526001600160a01b03928316600482015286831660248201526044810185905290519188169163d1660f999160648082019260009290919082900301818387803b15801561146c57600080fd5b505af1158015611480573d6000803e3d6000fd5b505050505b50935093915050565b604080516001600160a01b0385811660248301528481166044830152606480830185905283518084039091018152608490920183526020820180516001600160e01b03166323b872dd60e01b178152925182516000948594938a169392918291908083835b602083106115125780518252601f1990920191602091820191016114f3565b6001836020036101000a0380198251168184511680821785525050505050509050019150506000604051808303816000865af19150503d8060008114611574576040519150601f19603f3d011682016040523d82523d6000602084013e611579565b606091505b50915091508180156115a75750805115806115a757508080602001905160208110156115a457600080fd5b50515b6105035760405162461bcd60e51b8152600401808060200182810382526031815260200180611c566031913960400191505060405180910390fd5b600082820183811015610af6576040805162461bcd60e51b815260206004820152601b60248201527f536166654d6174683a206164646974696f6e206f766572666c6f770000000000604482015290519081900360640190fd5b611644610a77565b15611689576040805162461bcd60e51b815260206004820152601060248201526f14185d5cd8589b194e881c185d5cd95960821b604482015290519081900360640190fd5b6033805460ff191660011790557f62e78cea01bee320cd4e420270b5ea74000d11b0c9f74754ebdbfc544b05a2586113176111be565b6000610af683836119d7565b6000610af6836001600160a01b038416611a3b565b600082821115611737576040805162461bcd60e51b815260206004820152601e60248201527f536166654d6174683a207375627472616374696f6e206f766572666c6f770000604482015290519081900360640190fd5b50900390565b6000610af982611a53565b60008261175757506000610af9565b8282028284828161176457fe5b0414610af65760405162461bcd60e51b8152600401808060200182810382526021815260200180611ce56021913960400191505060405180910390fd5b60008060006117b08686611a57565b91509150600084806117be57fe5b8688099050828111156117d2576001820391505b9182900391816117f0578483816117e557fe5b049350505050611855565b848210611844576040805162461bcd60e51b815260206004820152601a60248201527f46756c6c4d6174683a2046554c4c4449565f4f564552464c4f57000000000000604482015290519081900360640190fd5b61184f838387611a84565b93505050505b9392505050565b3b151590565b600054610100900460ff168061187b575061187b61105e565b80611889575060005460ff16155b6118c45760405162461bcd60e51b815260040180806020018281038252602e815260200180611cb7602e913960400191505060405180910390fd5b600054610100900460ff1615801561110c576000805460ff1961ff001990911661010017166001179055801561111e576000805461ff001916905550565b600054610100900460ff168061191b575061191b61105e565b80611929575060005460ff16155b6119645760405162461bcd60e51b815260040180806020018281038252602e815260200180611cb7602e913960400191505060405180910390fd5b600054610100900460ff1615801561198f576000805460ff1961ff0019909116610100171660011790555b6033805460ff19169055801561111e576000805461ff001916905550565b6000610af6836001600160a01b038416611af4565b6000610af6836001600160a01b038416611b3e565b81546000908210611a195760405162461bcd60e51b8152600401808060200182810382526022815260200180611c056022913960400191505060405180910390fd5b826000018281548110611a2857fe5b9060005260206000200154905092915050565b60009081526001919091016020526040902054151590565b5490565b6000808060001984860990508385029250828103915082811015611a7c576001820391505b509250929050565b60008181038216808381611a9457fe5b049250808581611aa057fe5b049450808160000381611aaf57fe5b60028581038087028203028087028203028087028203028087028203028087028203028087028203029586029003909402930460010193909302939093010292915050565b6000611b008383611a3b565b611b3657508154600181810184556000848152602080822090930184905584548482528286019093526040902091909155610af9565b506000610af9565b60008181526001830160205260408120548015611bfa5783546000198083019190810190600090879083908110611b7157fe5b9060005260206000200154905080876000018481548110611b8e57fe5b600091825260208083209091019290925582815260018981019092526040902090840190558654879080611bbe57fe5b60019003818190600052602060002001600090559055866001016000878152602001908152602001600020600090556001945050505050610af9565b6000915050610af956fe456e756d657261626c655365743a20696e646578206f7574206f6620626f756e6473416363657373436f6e74726f6c3a2073656e646572206d75737420626520616e2061646d696e20746f206772616e745472616e7366657248656c7065723a3a7472616e7366657246726f6d3a207472616e7366657246726f6d206661696c6564416363657373436f6e74726f6c3a2073656e646572206d75737420626520616e2061646d696e20746f207265766f6b65496e697469616c697a61626c653a20636f6e747261637420697320616c726561647920696e697469616c697a6564536166654d6174683a206d756c7469706c69636174696f6e206f766572666c6f7765d7a28e3265b37a6474929f336521b332c1681b933f6cb9f3376673440d862a416363657373436f6e74726f6c3a2063616e206f6e6c792072656e6f756e636520726f6c657320666f722073656c66a26469706673582212201ae6f851a8eda0106d9aeed8d866505e31b1258421a1ba166c74ed93d14a28a064736f6c63430007060033",
  "immutableReferences": {},
  "source": "// SPDX-License-Identifier: UNLICENSED\npragma solidity >= 0.7.0;\n\nimport \"@openzeppelin/contracts-upgradeable/math/SafeMathUpgradeable.sol\";\nimport \"@openzeppelin/contracts-upgradeable/access/AccessControlUpgradeable.sol\";\nimport \"@openzeppelin/contracts-upgradeable/utils/PausableUpgradeable.sol\";\nimport \"./interfaces/ISTokens.sol\";\nimport \"./interfaces/IUTokens.sol\";\nimport \"./interfaces/IPSTAKE.sol\";\nimport \"./interfaces/IHolder.sol\";\nimport \"./interfaces/IStakeLPCore.sol\";\nimport \"./libraries/TransferHelper.sol\";\nimport \"./libraries/FullMath.sol\";\n\ncontract StakeLPCore is IStakeLPCore, PausableUpgradeable, AccessControlUpgradeable {\n\n    using SafeMathUpgradeable for uint256;\n    using FullMath for uint256;\n    \n    // constant pertaining to access roles\n    bytes32 public constant PAUSER_ROLE = keccak256(\"PAUSER_ROLE\");\n\n    // balance of user for an LP Token \n    mapping(address => mapping(address => uint256)) private _lpBalance;\n    // supply for an LP Token\n    mapping(address => uint256) private _lpSupply;\n    // last recorded total LPTimeShare\n    mapping(address => uint256) private _lastLPTimeShare;\n    // last recorded timestamp when rewards were disbursed\n    mapping(address => uint256) private _lastLPTimeShareTimestamp;\n    // last recorded timestamp when PSTAKE tokens were disbursed\n    mapping(address => mapping(address => uint256)) private _lastLiquidityTimestamp; \n\n    //Private instances of contracts to handle Utokens and Stokens\n    IUTokens private _uTokens;\n    ISTokens private _sTokens;\n    IPSTAKE private _pstakeTokens;\n\n    /**\n   * @dev Constructor for initializing the LiquidStaking contract.\n   * @param uAddress - address of the UToken contract.\n   * @param sAddress - address of the SToken contract.\n   * @param pStakeAddress - address of the pStake contract address.\n   */\n    function initialize(address uAddress, address sAddress, address pStakeAddress, address defaultAdminAddress, address pauserAddress) public virtual initializer  {\n        __AccessControl_init();\n        __Pausable_init();\n        _setupRole(DEFAULT_ADMIN_ROLE, defaultAdminAddress);\n        _setupRole(PAUSER_ROLE, pauserAddress);        \n        setUTokensContract(uAddress);\n        setSTokensContract(sAddress);\n        setPSTAKEContract(pStakeAddress);\n        // _lastLPTimeShareTimestamp = block.timestamp;\n    }\n\n    /*\n     * @dev calculate liquidity and reward tokens and disburse to user\n     * @param lpToken: lp token contract address\n     * @param to: user address\n     * @param liquidityWeightFactor: coming as an argument for further calculations\n     * @param rewardWeightFactor: coming as an argument for further calculations\n     * @param valueDivisor: coming as an argument for further calculations\n     */\n    function calculatePendingRewardsAndLiquidity(address lpToken, address to) public view returns (uint256 liquidity, uint256 reward, uint256 updatedSupplyLPTimeshare){\n        // get the balance of user's LP token\n        uint256 _lpBalanceUser = _lpBalance[lpToken][to];\n        uint256 _lpSupplyContract = _lpSupply[lpToken];\n\n        // calculate the LPTimeShare of the user's LP Token\n        uint256 _userLPTimeShare = (_lpBalanceUser.mul(block.timestamp.sub(_lastLiquidityTimestamp[lpToken][to])));\n\n        // calculate the LPTimeShare of the sum of supply of all LP Tokens\n        uint256 _newSupplyLPTimeShare = (_lpSupplyContract.mul(block.timestamp.sub(_lastLPTimeShareTimestamp[lpToken])));\n        uint256 _totalSupplyLPTimeShare = _lastLPTimeShare[lpToken].add(_newSupplyLPTimeShare);\n        updatedSupplyLPTimeshare = _totalSupplyLPTimeShare.sub(_newSupplyLPTimeShare);\n\n        // calculate users new reward tokens\n        uint256 _rewardPool = _uTokens.balanceOf(address(this));\n        reward = _rewardPool.mulDiv(_userLPTimeShare, _totalSupplyLPTimeShare);\n\n        // calculate users new liquidity tokens\n        uint256 _liquidityPool = _pstakeTokens.balanceOf(address(this));\n        liquidity = _liquidityPool.mulDiv(_userLPTimeShare, _totalSupplyLPTimeShare);\n    }\n\n    /*\n     * @dev calculate liquidity and reward tokens and disburse to user\n     * @param lpToken: lp token contract address\n     * @param to: user address\n     * @param liquidityWeightFactor: coming as an argument for further calculations\n     * @param rewardWeightFactor: coming as an argument for further calculations\n     * @param valueDivisor: coming as an argument for further calculations\n     */\n    function _calculateRewardsAndLiquidity(address holderAddress, address lpToken, address to) internal returns (uint256 liquidity, uint256 reward){\n        uint256 updatedSupplyLPTimeshare;\n        (liquidity, reward, updatedSupplyLPTimeshare) = calculatePendingRewardsAndLiquidity(lpToken, to);\n\n        // update last timestamps and LPTimeShares as per Checks-Effects-Interactions pattern\n        _lastLiquidityTimestamp[lpToken][to] = block.timestamp;\n        _lastLPTimeShareTimestamp[lpToken] = block.timestamp;\n        _lastLPTimeShare[lpToken] = updatedSupplyLPTimeshare;\n\n        // DISBURSE THE LIQUIDITY TOKENS TO USER (transfer)\n        if(liquidity > 0)\n        IHolder(holderAddress).safeTransfer(address(_pstakeTokens), to, liquidity);\n\n        // DISBURSE THE REWARD TOKENS TO USER (transfer)\n        if(reward > 0)\n        IHolder(holderAddress).safeTransfer(address(_uTokens), to, reward);\n    }\n\n    /*\n     * @dev calculate liquidity and reward tokens and disburse to user\n     * @param lpToken: lp token contract address\n     * @param amount: token amount\n     */\n    function calculateRewardsAndLiquidity(address lpToken, uint256 amount) internal whenNotPaused returns (uint256 liquidity, uint256 reward){\n        // check for validity of arguments\n        require(amount > 0 && lpToken != address(0), \"LP2\");\n\n        // check if lpToken contract of DeFi product address is whitelisted and has valid holder contract\n        (bool _isContractWhitelisted, address _holderAddress) = _sTokens.isContractWhitelisted(lpToken);\n        require(_isContractWhitelisted && _holderAddress != address(0), \"LP5\");\n        \n        // calculate liquidity and reward tokens and disburse to user\n        (liquidity, reward) = _calculateRewardsAndLiquidity(_holderAddress, lpToken, _msgSender());\n        CalculateRewardsAndLiquidity(_holderAddress, lpToken, amount, _msgSender(), liquidity, reward);\n    }\n\n    /*\n     * @dev adding the liquidity\n     * @param lpToken: lp token contract address\n     * @param amount: token amount\n     *\n     * Emits a {AddLiquidity} event with 'lpToken, amount, rewards and liquidity'\n     *\n     */\n    function addLiquidity(\n        address lpToken,\n        uint256 amount\n    ) public virtual override whenNotPaused returns (uint256 liquidity, uint256 rewards) {\n        // check for validity of arguments\n        require(amount > 0 && lpToken != address(0), \"LP4\");\n\n        // check if lpToken contract of DeFi product address is whitelisted and has valid holder contract\n        (bool _isContractWhitelisted, address _holderAddress) = _sTokens.isContractWhitelisted(lpToken);\n        require(_isContractWhitelisted && _holderAddress != address(0), \"LP5\");\n\n        address messageSender = _msgSender();\n\n        // calculate liquidity and reward tokens and disburse to user\n        (rewards, liquidity) = _calculateRewardsAndLiquidity(_holderAddress, lpToken, messageSender);\n        // finally transfer the new LP Tokens to the StakeLP contract\n        TransferHelper.safeTransferFrom(lpToken, messageSender, address(this), amount);\n        // update the user balance\n        _lpBalance[lpToken][messageSender] = _lpBalance[lpToken][messageSender].add(amount);\n        // update the supply of lp tokens for reward and liquidity calculation\n        _lpSupply[lpToken] = _lpSupply[lpToken].add(amount);\n        emit AddLiquidity(lpToken, amount, rewards, liquidity);\n    }\n\n    /*\n    * @dev removing the liquidity\n    * @param lpToken: lp token contract address\n    * @param amount: token amount\n    *\n    * Emits a {RemoveLiquidity} event with 'lpToken, amount, rewards and liquidity'\n    *\n    */\n    function removeLiquidity(\n        address lpToken,\n        uint256 amount\n    ) public virtual override whenNotPaused returns (uint256 liquidity, uint256 rewards) {\n        // check for validity of arguments\n        require(amount > 0 && lpToken != address(0), \"LP6\");\n\n        // check if lpToken contract of DeFi product address is whitelisted and has valid holder contract\n        (bool _isContractWhitelisted, address _holderAddress) = _sTokens.isContractWhitelisted(lpToken);\n        require(_isContractWhitelisted && _holderAddress != address(0), \"LP5\");\n\n        address messageSender = _msgSender();\n\n        // check if suffecient balance is there\n        require(_lpBalance[lpToken][messageSender] >= amount, \"LP8\");\n\n        // calculate liquidity and reward tokens and disburse to user\n        (rewards, liquidity) = _calculateRewardsAndLiquidity(_holderAddress, lpToken, messageSender);\n        // finally transfer the LP Tokens to the user\n        TransferHelper.safeTransferFrom(lpToken, address(this), messageSender, amount);\n        // update the user balance\n        _lpBalance[lpToken][messageSender] = _lpBalance[lpToken][messageSender].sub(amount);\n        // update the supply of lp tokens for reward and liquidity calculation\n        _lpSupply[lpToken] = _lpSupply[lpToken].sub(amount);\n        emit RemoveLiquidity(lpToken, amount, rewards, liquidity);\n    }\n\n    /**\n     * @dev Set 'contract address', called from constructor\n     * @param uAddress: utoken contract address\n     *\n     * Emits a {SetUTokensContract} event with '_contract' set to the utoken contract address.\n     *\n     */\n    function setUTokensContract(address uAddress) public virtual override {\n        require(hasRole(DEFAULT_ADMIN_ROLE, _msgSender()), \"LP9\");\n        _uTokens = IUTokens(uAddress);\n        emit SetUTokensContract(uAddress);\n    }\n\n    /**\n     * @dev Set 'contract address', called from constructor\n     * @param sAddress: stoken contract address\n     *\n     * Emits a {SetSTokensContract} event with '_contract' set to the stoken contract address.\n     *\n     */\n    function setSTokensContract(address sAddress) public virtual override {\n        require(hasRole(DEFAULT_ADMIN_ROLE, _msgSender()), \"LP10\");\n        _sTokens = ISTokens(sAddress);\n        emit SetSTokensContract(sAddress);\n    }\n\n    /**\n     * @dev Set 'contract address', called from constructor\n     * @param pstakeAddress: pStake contract address\n     *\n     * Emits a {SetPSTAKEContract} event with '_contract' set to the stoken contract address.\n     *\n     */\n    function setPSTAKEContract(address pstakeAddress) public virtual override {\n        require(hasRole(DEFAULT_ADMIN_ROLE, _msgSender()), \"LP11\");\n        _pstakeTokens = IPSTAKE(pstakeAddress);\n        emit SetPSTAKEContract(pstakeAddress);\n    }\n\n    /**\n      * @dev Triggers stopped state.\n      *\n      * Requirements:\n      *\n      * - The contract must not be paused.\n      */\n    function pause() public virtual returns (bool success) {\n        require(hasRole(PAUSER_ROLE, _msgSender()), \"LP12\");\n        _pause();\n        return true;\n    }\n\n    /**\n     * @dev Returns to normal state.\n     *\n     * Requirements:\n     *\n     * - The contract must be paused.\n     */\n    function unpause() public virtual returns (bool success) {\n        require(hasRole(PAUSER_ROLE, _msgSender()), \"LP13\");\n        _unpause();\n        return true;\n    }\n}",
  "sourcePath": "/home/aditimahesh/Documents/Work/Persistence/go/src/github.com/persistenceOne/pStakeSmartContracts/contracts/StakeLPCore.sol",
  "compiler": {
    "name": "solc",
    "version": "0.7.6+commit.7338295f.Emscripten.clang"
  },
  "schemaVersion": "3.3.4",
  "updatedAt": "2021-07-10T16:07:17.544Z",
  "devdoc": {
    "kind": "dev",
    "methods": {
      "addLiquidity(address,uint256)": {
        "details": "adds liquidity Returns a uint256"
      },
      "getRoleAdmin(bytes32)": {
        "details": "Returns the admin role that controls `role`. See {grantRole} and {revokeRole}. To change a role's admin, use {_setRoleAdmin}."
      },
      "getRoleMember(bytes32,uint256)": {
        "details": "Returns one of the accounts that have `role`. `index` must be a value between 0 and {getRoleMemberCount}, non-inclusive. Role bearers are not sorted in any particular way, and their ordering may change at any point. WARNING: When using {getRoleMember} and {getRoleMemberCount}, make sure you perform all queries on the same block. See the following https://forum.openzeppelin.com/t/iterating-over-elements-on-enumerableset-in-openzeppelin-contracts/2296[forum post] for more information."
      },
      "getRoleMemberCount(bytes32)": {
        "details": "Returns the number of accounts that have `role`. Can be used together with {getRoleMember} to enumerate all bearers of a role."
      },
      "grantRole(bytes32,address)": {
        "details": "Grants `role` to `account`. If `account` had not been already granted `role`, emits a {RoleGranted} event. Requirements: - the caller must have ``role``'s admin role."
      },
      "hasRole(bytes32,address)": {
        "details": "Returns `true` if `account` has been granted `role`."
      },
      "initialize(address,address,address,address,address)": {
        "details": "Constructor for initializing the LiquidStaking contract.",
        "params": {
          "pStakeAddress": "- address of the pStake contract address.",
          "sAddress": "- address of the SToken contract.",
          "uAddress": "- address of the UToken contract."
        }
      },
      "pause()": {
        "details": "Triggers stopped state. Requirements: - The contract must not be paused."
      },
      "paused()": {
        "details": "Returns true if the contract is paused, and false otherwise."
      },
      "removeLiquidity(address,uint256)": {
        "details": "remove liquidity Returns a uint256"
      },
      "renounceRole(bytes32,address)": {
        "details": "Revokes `role` from the calling account. Roles are often managed via {grantRole} and {revokeRole}: this function's purpose is to provide a mechanism for accounts to lose their privileges if they are compromised (such as when a trusted device is misplaced). If the calling account had been granted `role`, emits a {RoleRevoked} event. Requirements: - the caller must be `account`."
      },
      "revokeRole(bytes32,address)": {
        "details": "Revokes `role` from `account`. If `account` had been granted `role`, emits a {RoleRevoked} event. Requirements: - the caller must have ``role``'s admin role."
      },
      "setPSTAKEContract(address)": {
        "details": "Set 'contract address', called from constructor",
        "params": {
          "pstakeAddress": ": pStake contract address Emits a {SetPSTAKEContract} event with '_contract' set to the stoken contract address."
        }
      },
      "setSTokensContract(address)": {
        "details": "Set 'contract address', called from constructor",
        "params": {
          "sAddress": ": stoken contract address Emits a {SetSTokensContract} event with '_contract' set to the stoken contract address."
        }
      },
      "setUTokensContract(address)": {
        "details": "Set 'contract address', called from constructor",
        "params": {
          "uAddress": ": utoken contract address Emits a {SetUTokensContract} event with '_contract' set to the utoken contract address."
        }
      },
      "unpause()": {
        "details": "Returns to normal state. Requirements: - The contract must be paused."
      }
    },
    "version": 1
  },
  "userdoc": {
    "kind": "user",
    "methods": {},
    "version": 1
  }
}