{
  "contractName": "StakeLPCore",
  "abi": [
    {
      "anonymous": false,
      "inputs": [
        {
          "indexed": false,
          "internalType": "address",
          "name": "lpToken",
          "type": "address"
        },
        {
          "indexed": false,
          "internalType": "uint256",
          "name": "amount",
          "type": "uint256"
        },
        {
          "indexed": false,
          "internalType": "uint256",
          "name": "rewards",
          "type": "uint256"
        },
        {
          "indexed": false,
          "internalType": "uint256",
          "name": "liquidity",
          "type": "uint256"
        }
      ],
      "name": "AddLiquidity",
      "type": "event"
    },
    {
      "anonymous": false,
      "inputs": [
        {
          "indexed": true,
          "internalType": "address",
          "name": "holderAddress",
          "type": "address"
        },
        {
          "indexed": true,
          "internalType": "address",
          "name": "lpToken",
          "type": "address"
        },
        {
          "indexed": false,
          "internalType": "uint256",
          "name": "amount",
          "type": "uint256"
        },
        {
          "indexed": true,
          "internalType": "address",
          "name": "to",
          "type": "address"
        },
        {
          "indexed": false,
          "internalType": "uint256",
          "name": "liquidity",
          "type": "uint256"
        },
        {
          "indexed": false,
          "internalType": "uint256",
          "name": "reward",
          "type": "uint256"
        }
      ],
      "name": "CalculateRewardsAndLiquidity",
      "type": "event"
    },
    {
      "anonymous": false,
      "inputs": [
        {
          "indexed": false,
          "internalType": "address",
          "name": "account",
          "type": "address"
        }
      ],
      "name": "Paused",
      "type": "event"
    },
    {
      "anonymous": false,
      "inputs": [
        {
          "indexed": false,
          "internalType": "address",
          "name": "lpToken",
          "type": "address"
        },
        {
          "indexed": false,
          "internalType": "uint256",
          "name": "amount",
          "type": "uint256"
        },
        {
          "indexed": false,
          "internalType": "uint256",
          "name": "rewards",
          "type": "uint256"
        },
        {
          "indexed": false,
          "internalType": "uint256",
          "name": "liquidity",
          "type": "uint256"
        }
      ],
      "name": "RemoveLiquidity",
      "type": "event"
    },
    {
      "anonymous": false,
      "inputs": [
        {
          "indexed": true,
          "internalType": "bytes32",
          "name": "role",
          "type": "bytes32"
        },
        {
          "indexed": true,
          "internalType": "bytes32",
          "name": "previousAdminRole",
          "type": "bytes32"
        },
        {
          "indexed": true,
          "internalType": "bytes32",
          "name": "newAdminRole",
          "type": "bytes32"
        }
      ],
      "name": "RoleAdminChanged",
      "type": "event"
    },
    {
      "anonymous": false,
      "inputs": [
        {
          "indexed": true,
          "internalType": "bytes32",
          "name": "role",
          "type": "bytes32"
        },
        {
          "indexed": true,
          "internalType": "address",
          "name": "account",
          "type": "address"
        },
        {
          "indexed": true,
          "internalType": "address",
          "name": "sender",
          "type": "address"
        }
      ],
      "name": "RoleGranted",
      "type": "event"
    },
    {
      "anonymous": false,
      "inputs": [
        {
          "indexed": true,
          "internalType": "bytes32",
          "name": "role",
          "type": "bytes32"
        },
        {
          "indexed": true,
          "internalType": "address",
          "name": "account",
          "type": "address"
        },
        {
          "indexed": true,
          "internalType": "address",
          "name": "sender",
          "type": "address"
        }
      ],
      "name": "RoleRevoked",
      "type": "event"
    },
    {
      "anonymous": false,
      "inputs": [
        {
          "indexed": true,
          "internalType": "address",
          "name": "_contract",
          "type": "address"
        }
      ],
      "name": "SetPSTAKEContract",
      "type": "event"
    },
    {
      "anonymous": false,
      "inputs": [
        {
          "indexed": true,
          "internalType": "address",
          "name": "_contract",
          "type": "address"
        }
      ],
      "name": "SetSTokensContract",
      "type": "event"
    },
    {
      "anonymous": false,
      "inputs": [
        {
          "indexed": true,
          "internalType": "address",
          "name": "_contract",
          "type": "address"
        }
      ],
      "name": "SetUTokensContract",
      "type": "event"
    },
    {
      "anonymous": false,
      "inputs": [
        {
          "indexed": false,
          "internalType": "address",
          "name": "account",
          "type": "address"
        }
      ],
      "name": "Unpaused",
      "type": "event"
    },
    {
      "inputs": [],
      "name": "DEFAULT_ADMIN_ROLE",
      "outputs": [
        {
          "internalType": "bytes32",
          "name": "",
          "type": "bytes32"
        }
      ],
      "stateMutability": "view",
      "type": "function"
    },
    {
      "inputs": [],
      "name": "PAUSER_ROLE",
      "outputs": [
        {
          "internalType": "bytes32",
          "name": "",
          "type": "bytes32"
        }
      ],
      "stateMutability": "view",
      "type": "function"
    },
    {
      "inputs": [
        {
          "internalType": "bytes32",
          "name": "role",
          "type": "bytes32"
        }
      ],
      "name": "getRoleAdmin",
      "outputs": [
        {
          "internalType": "bytes32",
          "name": "",
          "type": "bytes32"
        }
      ],
      "stateMutability": "view",
      "type": "function"
    },
    {
      "inputs": [
        {
          "internalType": "bytes32",
          "name": "role",
          "type": "bytes32"
        },
        {
          "internalType": "uint256",
          "name": "index",
          "type": "uint256"
        }
      ],
      "name": "getRoleMember",
      "outputs": [
        {
          "internalType": "address",
          "name": "",
          "type": "address"
        }
      ],
      "stateMutability": "view",
      "type": "function"
    },
    {
      "inputs": [
        {
          "internalType": "bytes32",
          "name": "role",
          "type": "bytes32"
        }
      ],
      "name": "getRoleMemberCount",
      "outputs": [
        {
          "internalType": "uint256",
          "name": "",
          "type": "uint256"
        }
      ],
      "stateMutability": "view",
      "type": "function"
    },
    {
      "inputs": [
        {
          "internalType": "bytes32",
          "name": "role",
          "type": "bytes32"
        },
        {
          "internalType": "address",
          "name": "account",
          "type": "address"
        }
      ],
      "name": "grantRole",
      "outputs": [],
      "stateMutability": "nonpayable",
      "type": "function"
    },
    {
      "inputs": [
        {
          "internalType": "bytes32",
          "name": "role",
          "type": "bytes32"
        },
        {
          "internalType": "address",
          "name": "account",
          "type": "address"
        }
      ],
      "name": "hasRole",
      "outputs": [
        {
          "internalType": "bool",
          "name": "",
          "type": "bool"
        }
      ],
      "stateMutability": "view",
      "type": "function"
    },
    {
      "inputs": [],
      "name": "paused",
      "outputs": [
        {
          "internalType": "bool",
          "name": "",
          "type": "bool"
        }
      ],
      "stateMutability": "view",
      "type": "function"
    },
    {
      "inputs": [
        {
          "internalType": "bytes32",
          "name": "role",
          "type": "bytes32"
        },
        {
          "internalType": "address",
          "name": "account",
          "type": "address"
        }
      ],
      "name": "renounceRole",
      "outputs": [],
      "stateMutability": "nonpayable",
      "type": "function"
    },
    {
      "inputs": [
        {
          "internalType": "bytes32",
          "name": "role",
          "type": "bytes32"
        },
        {
          "internalType": "address",
          "name": "account",
          "type": "address"
        }
      ],
      "name": "revokeRole",
      "outputs": [],
      "stateMutability": "nonpayable",
      "type": "function"
    },
    {
      "inputs": [
        {
          "internalType": "address",
          "name": "uAddress",
          "type": "address"
        },
        {
          "internalType": "address",
          "name": "sAddress",
          "type": "address"
        },
        {
          "internalType": "address",
          "name": "pStakeAddress",
          "type": "address"
        },
        {
          "internalType": "address",
          "name": "pauserAddress",
          "type": "address"
        }
      ],
      "name": "initialize",
      "outputs": [],
      "stateMutability": "nonpayable",
      "type": "function"
    },
    {
      "inputs": [
        {
          "internalType": "address",
          "name": "lpToken",
          "type": "address"
        },
        {
          "internalType": "address",
          "name": "to",
          "type": "address"
        }
      ],
      "name": "calculatePendingRewardsAndLiquidity",
      "outputs": [
        {
          "internalType": "uint256",
          "name": "liquidity",
          "type": "uint256"
        },
        {
          "internalType": "uint256",
          "name": "reward",
          "type": "uint256"
        },
        {
          "internalType": "uint256",
          "name": "updatedSupplyLPTimeshare",
          "type": "uint256"
        }
      ],
      "stateMutability": "view",
      "type": "function"
    },
    {
      "inputs": [
        {
          "internalType": "address",
          "name": "lpToken",
          "type": "address"
        },
        {
          "internalType": "uint256",
          "name": "amount",
          "type": "uint256"
        }
      ],
      "name": "addLiquidity",
      "outputs": [
        {
          "internalType": "uint256",
          "name": "liquidity",
          "type": "uint256"
        },
        {
          "internalType": "uint256",
          "name": "rewards",
          "type": "uint256"
        }
      ],
      "stateMutability": "nonpayable",
      "type": "function"
    },
    {
      "inputs": [
        {
          "internalType": "address",
          "name": "lpToken",
          "type": "address"
        },
        {
          "internalType": "uint256",
          "name": "amount",
          "type": "uint256"
        }
      ],
      "name": "removeLiquidity",
      "outputs": [
        {
          "internalType": "uint256",
          "name": "liquidity",
          "type": "uint256"
        },
        {
          "internalType": "uint256",
          "name": "rewards",
          "type": "uint256"
        }
      ],
      "stateMutability": "nonpayable",
      "type": "function"
    },
    {
      "inputs": [
        {
          "internalType": "address",
          "name": "uAddress",
          "type": "address"
        }
      ],
      "name": "setUTokensContract",
      "outputs": [],
      "stateMutability": "nonpayable",
      "type": "function"
    },
    {
      "inputs": [
        {
          "internalType": "address",
          "name": "sAddress",
          "type": "address"
        }
      ],
      "name": "setSTokensContract",
      "outputs": [],
      "stateMutability": "nonpayable",
      "type": "function"
    },
    {
      "inputs": [
        {
          "internalType": "address",
          "name": "pstakeAddress",
          "type": "address"
        }
      ],
      "name": "setPSTAKEContract",
      "outputs": [],
      "stateMutability": "nonpayable",
      "type": "function"
    },
    {
      "inputs": [],
      "name": "pause",
      "outputs": [
        {
          "internalType": "bool",
          "name": "success",
          "type": "bool"
        }
      ],
      "stateMutability": "nonpayable",
      "type": "function"
    },
    {
      "inputs": [],
      "name": "unpause",
      "outputs": [
        {
          "internalType": "bool",
          "name": "success",
          "type": "bool"
        }
      ],
      "stateMutability": "nonpayable",
      "type": "function"
    }
  ],
  "bytecode": "0x608060405234801561001057600080fd5b50611d8e806100206000396000f3fe608060405234801561001057600080fd5b50600436106101215760003560e01c80638456cb59116100ad578063ca15c87311610071578063ca15c87314610331578063d43e52a91461034e578063d547741f1461039a578063e63ab1e9146103c6578063f8c8765e146103ce57610121565b80638456cb591461028a5780639010d07c1461029257806391d14854146102d1578063a201ccf6146102fd578063a217fddf1461032957610121565b80632f2ff15d116100f45780632f2ff15d146101c957806336568abe146101f55780633f4ba83a14610221578063566887001461023d5780635c975abb1461028257610121565b806321bdf9e514610126578063228d9eae1461014e578063248a9ca3146101745780632e31fab8146101a3575b600080fd5b61014c6004803603602081101561013c57600080fd5b50356001600160a01b031661040c565b005b61014c6004803603602081101561016457600080fd5b50356001600160a01b031661049f565b6101916004803603602081101561018a57600080fd5b5035610530565b60408051918252519081900360200190f35b61014c600480360360208110156101b957600080fd5b50356001600160a01b0316610545565b61014c600480360360408110156101df57600080fd5b50803590602001356001600160a01b03166105d6565b61014c6004803603604081101561020b57600080fd5b50803590602001356001600160a01b031661063d565b61022961069e565b604080519115158252519081900360200190f35b6102696004803603604081101561025357600080fd5b506001600160a01b038135169060200135610702565b6040805192835260208301919091528051918290030190f35b610229610978565b610229610981565b6102b5600480360360408110156102a857600080fd5b50803590602001356109df565b604080516001600160a01b039092168252519081900360200190f35b610229600480360360408110156102e757600080fd5b50803590602001356001600160a01b0316610a00565b6102696004803603604081101561031357600080fd5b506001600160a01b038135169060200135610a18565b610191610cef565b6101916004803603602081101561034757600080fd5b5035610cf4565b61037c6004803603604081101561036457600080fd5b506001600160a01b0381358116916020013516610d0b565b60408051938452602084019290925282820152519081900360600190f35b61014c600480360360408110156103b057600080fd5b50803590602001356001600160a01b0316610ef4565b610191610f4d565b61014c600480360360808110156103e457600080fd5b506001600160a01b038135811691602081013582169160408201358116916060013516610f5f565b61041e600061041961105a565b610a00565b610455576040805162461bcd60e51b81526020600482015260036024820152624c503960e81b604482015290519081900360640190fd5b609c80546001600160a01b0319166001600160a01b0383169081179091556040517ff745c285f36f88bea6af14d4d0f33dd9350cef7895216c1615b1caaee7857e0c90600090a250565b6104ac600061041961105a565b6104e6576040805162461bcd60e51b815260206004808301919091526024820152634c50313160e01b604482015290519081900360640190fd5b609e80546001600160a01b0319166001600160a01b0383169081179091556040517f2321c893a63891a056e19e865d785f953c42f766bab444a8bcabd3673cee3d1d90600090a250565b60009081526065602052604090206002015490565b610552600061041961105a565b61058c576040805162461bcd60e51b8152602060048083019190915260248201526304c5031360e41b604482015290519081900360640190fd5b609d80546001600160a01b0319166001600160a01b0383169081179091556040517fd0b9dbe26f676f4cdb02fc249c203baa0314cec79e18b4194dc862795a5de03f90600090a250565b6000828152606560205260409020600201546105f49061041961105a565b61062f5760405162461bcd60e51b815260040180806020018281038252602f815260200180611c2b602f913960400191505060405180910390fd5b610639828261105e565b5050565b61064561105a565b6001600160a01b0316816001600160a01b0316146106945760405162461bcd60e51b815260040180806020018281038252602f815260200180611d2a602f913960400191505060405180910390fd5b61063982826110c7565b60006106ba600080516020611d0a83398151915261041961105a565b6106f4576040805162461bcd60e51b815260206004808301919091526024820152634c50313360e01b604482015290519081900360640190fd5b6106fc611130565b50600190565b60008061070d610978565b15610752576040805162461bcd60e51b815260206004820152601060248201526f14185d5cd8589b194e881c185d5cd95960821b604482015290519081900360640190fd5b60008311801561076a57506001600160a01b03841615155b6107a1576040805162461bcd60e51b815260206004820152600360248201526213140d60ea1b604482015290519081900360640190fd5b609d546040805163602b82c560e11b81526001600160a01b0387811660048301528251600094859492169263c057058a92602480830193919282900301818787803b1580156107ef57600080fd5b505af1158015610803573d6000803e3d6000fd5b505050506040513d604081101561081957600080fd5b508051602090910151909250905081801561083c57506001600160a01b03811615155b610873576040805162461bcd60e51b81526020600482015260036024820152624c503560e81b604482015290519081900360640190fd5b600061087d61105a565b905061088a8288836111d0565b9550935061089a8782308961132a565b6001600160a01b038088166000908152609760209081526040808320938516835292905220546108ca9087611486565b6001600160a01b038089166000818152609760209081526040808320948716835293815283822094909455908152609890925290205461090a9087611486565b6001600160a01b0388166000818152609860209081526040918290209390935580519182529181018890528082018690526060810187905290517fbeb3885786d637a474cbc287c0a44587231633a077f0bd30354d5a4b18996fce9181900360800190a15050509250929050565b60335460ff1690565b600061099d600080516020611d0a83398151915261041961105a565b6109d7576040805162461bcd60e51b815260206004808301919091526024820152632628189960e11b604482015290519081900360640190fd5b6106fc6114e0565b60008281526065602052604081206109f79083611563565b90505b92915050565b60008281526065602052604081206109f7908361156f565b600080610a23610978565b15610a68576040805162461bcd60e51b815260206004820152601060248201526f14185d5cd8589b194e881c185d5cd95960821b604482015290519081900360640190fd5b600083118015610a8057506001600160a01b03841615155b610ab7576040805162461bcd60e51b815260206004820152600360248201526226281b60e91b604482015290519081900360640190fd5b609d546040805163602b82c560e11b81526001600160a01b0387811660048301528251600094859492169263c057058a92602480830193919282900301818787803b158015610b0557600080fd5b505af1158015610b19573d6000803e3d6000fd5b505050506040513d6040811015610b2f57600080fd5b5080516020909101519092509050818015610b5257506001600160a01b03811615155b610b89576040805162461bcd60e51b81526020600482015260036024820152624c503560e81b604482015290519081900360640190fd5b6000610b9361105a565b6001600160a01b03808916600090815260976020908152604080832093851683529290522054909150861115610bf6576040805162461bcd60e51b8152602060048201526003602482015262098a0760eb1b604482015290519081900360640190fd5b610c018288836111d0565b95509350610c118730838961132a565b6001600160a01b03808816600090815260976020908152604080832093851683529290522054610c419087611584565b6001600160a01b0380891660008181526097602090815260408083209487168352938152838220949094559081526098909252902054610c819087611584565b6001600160a01b0388166000818152609860209081526040918290209390935580519182529181018890528082018690526060810187905290517f59c3a0b60c6ab7deb62e1440c9e72441db6db7dfe514dba8cb18e60c0d896efa9181900360800190a15050509250929050565b600081565b60008181526065602052604081206109fa906115e1565b6001600160a01b038083166000818152609760209081526040808320948616808452948252808320549383526098825280832054609b8352818420958452949091528120549092839283929091908390610d7190610d6a904290611584565b84906115ec565b6001600160a01b0389166000908152609a602052604081205491925090610d9d90610d6a904290611584565b6001600160a01b038a1660009081526099602052604081205491925090610dc49083611486565b9050610dd08183611584565b609c54604080516370a0823160e01b815230600482015290519298506000926001600160a01b03909216916370a0823191602480820192602092909190829003018186803b158015610e2157600080fd5b505afa158015610e35573d6000803e3d6000fd5b505050506040513d6020811015610e4b57600080fd5b50519050610e5a818584611645565b609e54604080516370a0823160e01b81523060048201529051929a506000926001600160a01b03909216916370a0823191602480820192602092909190829003018186803b158015610eab57600080fd5b505afa158015610ebf573d6000803e3d6000fd5b505050506040513d6020811015610ed557600080fd5b50519050610ee4818685611645565b9950505050505050509250925092565b600082815260656020526040902060020154610f129061041961105a565b6106945760405162461bcd60e51b8152600401808060200182810382526030815260200180611c8b6030913960400191505060405180910390fd5b600080516020611d0a83398151915281565b600054610100900460ff1680610f785750610f78611700565b80610f86575060005460ff16155b610fc15760405162461bcd60e51b815260040180806020018281038252602e815260200180611cbb602e913960400191505060405180910390fd5b600054610100900460ff16158015610fec576000805460ff1961ff0019909116610100171660011790555b610ff4611711565b610ffc6117c3565b61100e600061100961105a565b61062f565b611026600080516020611d0a8339815191528361062f565b61102f8561040c565b61103884610545565b6110418361049f565b8015611053576000805461ff00191690555b5050505050565b3390565b60008281526065602052604090206110769082611860565b156106395761108361105a565b6001600160a01b0316816001600160a01b0316837f2f8788117e7eff1d82e926ec794901d17c78024a50270940304540a733656f0d60405160405180910390a45050565b60008281526065602052604090206110df9082611875565b15610639576110ec61105a565b6001600160a01b0316816001600160a01b0316837ff6391f5c32d9c69d2a47ea670b442974b53935d1edc7fd64eb21e047a839171b60405160405180910390a45050565b611138610978565b611180576040805162461bcd60e51b815260206004820152601460248201527314185d5cd8589b194e881b9bdd081c185d5cd95960621b604482015290519081900360640190fd5b6033805460ff191690557f5db9ee0a495bf2e6ff9c91a7834c1ba4fdd244a5e8aa4e537bd38aeae4b073aa6111b361105a565b604080516001600160a01b039092168252519081900360200190a1565b60008060006111df8585610d0b565b6001600160a01b038089166000818152609b60209081526040808320948c1683529381528382204290819055928252609a8152838220929092556099909152208190559194509250905082156112a557609e546040805163d1660f9960e01b81526001600160a01b03928316600482015286831660248201526044810186905290519188169163d1660f999160648082019260009290919082900301818387803b15801561128c57600080fd5b505af11580156112a0573d6000803e3d6000fd5b505050505b811561132157609c546040805163d1660f9960e01b81526001600160a01b03928316600482015286831660248201526044810185905290519188169163d1660f999160648082019260009290919082900301818387803b15801561130857600080fd5b505af115801561131c573d6000803e3d6000fd5b505050505b50935093915050565b604080516001600160a01b0385811660248301528481166044830152606480830185905283518084039091018152608490920183526020820180516001600160e01b03166323b872dd60e01b178152925182516000948594938a169392918291908083835b602083106113ae5780518252601f19909201916020918201910161138f565b6001836020036101000a0380198251168184511680821785525050505050509050019150506000604051808303816000865af19150503d8060008114611410576040519150601f19603f3d011682016040523d82523d6000602084013e611415565b606091505b5091509150818015611443575080511580611443575080806020019051602081101561144057600080fd5b50515b61147e5760405162461bcd60e51b8152600401808060200182810382526031815260200180611c5a6031913960400191505060405180910390fd5b505050505050565b6000828201838110156109f7576040805162461bcd60e51b815260206004820152601b60248201527f536166654d6174683a206164646974696f6e206f766572666c6f770000000000604482015290519081900360640190fd5b6114e8610978565b1561152d576040805162461bcd60e51b815260206004820152601060248201526f14185d5cd8589b194e881c185d5cd95960821b604482015290519081900360640190fd5b6033805460ff191660011790557f62e78cea01bee320cd4e420270b5ea74000d11b0c9f74754ebdbfc544b05a2586111b361105a565b60006109f7838361188a565b60006109f7836001600160a01b0384166118ee565b6000828211156115db576040805162461bcd60e51b815260206004820152601e60248201527f536166654d6174683a207375627472616374696f6e206f766572666c6f770000604482015290519081900360640190fd5b50900390565b60006109fa82611906565b6000826115fb575060006109fa565b8282028284828161160857fe5b04146109f75760405162461bcd60e51b8152600401808060200182810382526021815260200180611ce96021913960400191505060405180910390fd5b6000806000611654868661190a565b915091506000848061166257fe5b868809905082811115611676576001820391505b9182900391816116945784838161168957fe5b0493505050506116f9565b8482106116e8576040805162461bcd60e51b815260206004820152601a60248201527f46756c6c4d6174683a2046554c4c4449565f4f564552464c4f57000000000000604482015290519081900360640190fd5b6116f3838387611937565b93505050505b9392505050565b600061170b306119a7565b15905090565b600054610100900460ff168061172a575061172a611700565b80611738575060005460ff16155b6117735760405162461bcd60e51b815260040180806020018281038252602e815260200180611cbb602e913960400191505060405180910390fd5b600054610100900460ff1615801561179e576000805460ff1961ff0019909116610100171660011790555b6117a66119ad565b6117ae6119ad565b80156117c0576000805461ff00191690555b50565b600054610100900460ff16806117dc57506117dc611700565b806117ea575060005460ff16155b6118255760405162461bcd60e51b815260040180806020018281038252602e815260200180611cbb602e913960400191505060405180910390fd5b600054610100900460ff16158015611850576000805460ff1961ff0019909116610100171660011790555b6118586119ad565b6117ae611a4d565b60006109f7836001600160a01b038416611af8565b60006109f7836001600160a01b038416611b42565b815460009082106118cc5760405162461bcd60e51b8152600401808060200182810382526022815260200180611c096022913960400191505060405180910390fd5b8260000182815481106118db57fe5b9060005260206000200154905092915050565b60009081526001919091016020526040902054151590565b5490565b600080806000198486099050838502925082810391508281101561192f576001820391505b509250929050565b6000818103821680838161194757fe5b04925080858161195357fe5b04945080816000038161196257fe5b60028581038087028203028087028203028087028203028087028203028087028203028087028203029586029003909402930460010193909302939093010292915050565b3b151590565b600054610100900460ff16806119c657506119c6611700565b806119d4575060005460ff16155b611a0f5760405162461bcd60e51b815260040180806020018281038252602e815260200180611cbb602e913960400191505060405180910390fd5b600054610100900460ff161580156117ae576000805460ff1961ff00199091166101001716600117905580156117c0576000805461ff001916905550565b600054610100900460ff1680611a665750611a66611700565b80611a74575060005460ff16155b611aaf5760405162461bcd60e51b815260040180806020018281038252602e815260200180611cbb602e913960400191505060405180910390fd5b600054610100900460ff16158015611ada576000805460ff1961ff0019909116610100171660011790555b6033805460ff1916905580156117c0576000805461ff001916905550565b6000611b0483836118ee565b611b3a575081546001818101845560008481526020808220909301849055845484825282860190935260409020919091556109fa565b5060006109fa565b60008181526001830160205260408120548015611bfe5783546000198083019190810190600090879083908110611b7557fe5b9060005260206000200154905080876000018481548110611b9257fe5b600091825260208083209091019290925582815260018981019092526040902090840190558654879080611bc257fe5b600190038181906000526020600020016000905590558660010160008781526020019081526020016000206000905560019450505050506109fa565b60009150506109fa56fe456e756d657261626c655365743a20696e646578206f7574206f6620626f756e6473416363657373436f6e74726f6c3a2073656e646572206d75737420626520616e2061646d696e20746f206772616e745472616e7366657248656c7065723a3a7472616e7366657246726f6d3a207472616e7366657246726f6d206661696c6564416363657373436f6e74726f6c3a2073656e646572206d75737420626520616e2061646d696e20746f207265766f6b65496e697469616c697a61626c653a20636f6e747261637420697320616c726561647920696e697469616c697a6564536166654d6174683a206d756c7469706c69636174696f6e206f766572666c6f7765d7a28e3265b37a6474929f336521b332c1681b933f6cb9f3376673440d862a416363657373436f6e74726f6c3a2063616e206f6e6c792072656e6f756e636520726f6c657320666f722073656c66a26469706673582212208ade4a1bb73b00573bdd2dba005c41119fe19d0d29f987eac00dace97890c3c664736f6c63430007060033",
  "immutableReferences": {},
  "source": "// SPDX-License-Identifier: UNLICENSED\npragma solidity >= 0.7.0;\n\nimport \"@openzeppelin/contracts-upgradeable/math/SafeMathUpgradeable.sol\";\nimport \"@openzeppelin/contracts-upgradeable/access/AccessControlUpgradeable.sol\";\nimport \"@openzeppelin/contracts-upgradeable/utils/PausableUpgradeable.sol\";\nimport \"./interfaces/ISTokens.sol\";\nimport \"./interfaces/IUTokens.sol\";\nimport \"./interfaces/IPSTAKE.sol\";\nimport \"./interfaces/IHolder.sol\";\nimport \"./interfaces/IStakeLPCore.sol\";\nimport \"./libraries/TransferHelper.sol\";\nimport \"./libraries/FullMath.sol\";\n\ncontract StakeLPCore is IStakeLPCore, PausableUpgradeable, AccessControlUpgradeable {\n\n    using SafeMathUpgradeable for uint256;\n    using FullMath for uint256;\n    \n    // constant pertaining to access roles\n    bytes32 public constant PAUSER_ROLE = keccak256(\"PAUSER_ROLE\");\n\n    // balance of user for an LP Token \n    mapping(address => mapping(address => uint256)) private _lpBalance;\n    // supply for an LP Token\n    mapping(address => uint256) private _lpSupply;\n    // last recorded total LPTimeShare\n    mapping(address => uint256) private _lastLPTimeShare;\n    // last recorded timestamp when rewards were disbursed\n    mapping(address => uint256) private _lastLPTimeShareTimestamp;\n    // last recorded timestamp when PSTAKE tokens were disbursed\n    mapping(address => mapping(address => uint256)) private _lastLiquidityTimestamp; \n\n    //Private instances of contracts to handle Utokens and Stokens\n    IUTokens private _uTokens;\n    ISTokens private _sTokens;\n    IPSTAKE private _pstakeTokens;\n\n    /**\n   * @dev Constructor for initializing the LiquidStaking contract.\n   * @param uAddress - address of the UToken contract.\n   * @param sAddress - address of the SToken contract.\n   * @param pStakeAddress - address of the pStake contract address.\n   */\n    function initialize(address uAddress, address sAddress, address pStakeAddress, address pauserAddress) public virtual initializer  {\n        __AccessControl_init();\n        __Pausable_init();\n        _setupRole(DEFAULT_ADMIN_ROLE, _msgSender());\n        _setupRole(PAUSER_ROLE, pauserAddress);        \n        setUTokensContract(uAddress);\n        setSTokensContract(sAddress);\n        setPSTAKEContract(pStakeAddress);\n        // _lastLPTimeShareTimestamp = block.timestamp;\n    }\n\n    /*\n     * @dev calculate liquidity and reward tokens and disburse to user\n     * @param lpToken: lp token contract address\n     * @param to: user address\n     * @param liquidityWeightFactor: coming as an argument for further calculations\n     * @param rewardWeightFactor: coming as an argument for further calculations\n     * @param valueDivisor: coming as an argument for further calculations\n     */\n    function calculatePendingRewardsAndLiquidity(address lpToken, address to) public view returns (uint256 liquidity, uint256 reward, uint256 updatedSupplyLPTimeshare){\n        // get the balance of user's LP token\n        uint256 _lpBalanceUser = _lpBalance[lpToken][to];\n        uint256 _lpSupplyContract = _lpSupply[lpToken];\n\n        // calculate the LPTimeShare of the user's LP Token\n        uint256 _userLPTimeShare = (_lpBalanceUser.mul(block.timestamp.sub(_lastLiquidityTimestamp[lpToken][to])));\n\n        // calculate the LPTimeShare of the sum of supply of all LP Tokens\n        uint256 _newSupplyLPTimeShare = (_lpSupplyContract.mul(block.timestamp.sub(_lastLPTimeShareTimestamp[lpToken])));\n        uint256 _totalSupplyLPTimeShare = _lastLPTimeShare[lpToken].add(_newSupplyLPTimeShare);\n        updatedSupplyLPTimeshare = _totalSupplyLPTimeShare.sub(_newSupplyLPTimeShare);\n\n        // calculate users new reward tokens\n        uint256 _rewardPool = _uTokens.balanceOf(address(this));\n        reward = _rewardPool.mulDiv(_userLPTimeShare, _totalSupplyLPTimeShare);\n\n        // calculate users new liquidity tokens\n        uint256 _liquidityPool = _pstakeTokens.balanceOf(address(this));\n        liquidity = _liquidityPool.mulDiv(_userLPTimeShare, _totalSupplyLPTimeShare);\n    }\n\n    /*\n     * @dev calculate liquidity and reward tokens and disburse to user\n     * @param lpToken: lp token contract address\n     * @param to: user address\n     * @param liquidityWeightFactor: coming as an argument for further calculations\n     * @param rewardWeightFactor: coming as an argument for further calculations\n     * @param valueDivisor: coming as an argument for further calculations\n     */\n    function _calculateRewardsAndLiquidity(address holderAddress, address lpToken, address to) internal returns (uint256 liquidity, uint256 reward){\n        uint256 updatedSupplyLPTimeshare;\n        (liquidity, reward, updatedSupplyLPTimeshare) = calculatePendingRewardsAndLiquidity(lpToken, to);\n\n        // update last timestamps and LPTimeShares as per Checks-Effects-Interactions pattern\n        _lastLiquidityTimestamp[lpToken][to] = block.timestamp;\n        _lastLPTimeShareTimestamp[lpToken] = block.timestamp;\n        _lastLPTimeShare[lpToken] = updatedSupplyLPTimeshare;\n\n        // DISBURSE THE LIQUIDITY TOKENS TO USER (transfer)\n        if(liquidity > 0)\n        IHolder(holderAddress).safeTransfer(address(_pstakeTokens), to, liquidity);\n\n        // DISBURSE THE REWARD TOKENS TO USER (transfer)\n        if(reward > 0)\n        IHolder(holderAddress).safeTransfer(address(_uTokens), to, reward);\n    }\n\n    /*\n     * @dev calculate liquidity and reward tokens and disburse to user\n     * @param lpToken: lp token contract address\n     * @param amount: token amount\n     */\n    function calculateRewardsAndLiquidity(address lpToken, uint256 amount) internal whenNotPaused returns (uint256 liquidity, uint256 reward){\n        // check for validity of arguments\n        require(amount > 0 && lpToken != address(0), \"LP2\");\n\n        // check if lpToken contract of DeFi product address is whitelisted and has valid holder contract\n        (bool _isContractWhitelisted, address _holderAddress) = _sTokens.isContractWhitelisted(lpToken);\n        require(_isContractWhitelisted && _holderAddress != address(0), \"LP5\");\n        \n        // calculate liquidity and reward tokens and disburse to user\n        (liquidity, reward) = _calculateRewardsAndLiquidity(_holderAddress, lpToken, _msgSender());\n        CalculateRewardsAndLiquidity(_holderAddress, lpToken, amount, _msgSender(), liquidity, reward);\n    }\n\n    /*\n     * @dev adding the liquidity\n     * @param lpToken: lp token contract address\n     * @param amount: token amount\n     *\n     * Emits a {AddLiquidity} event with 'lpToken, amount, rewards and liquidity'\n     *\n     */\n    function addLiquidity(\n        address lpToken,\n        uint256 amount\n    ) public virtual override whenNotPaused returns (uint256 liquidity, uint256 rewards) {\n        // check for validity of arguments\n        require(amount > 0 && lpToken != address(0), \"LP4\");\n\n        // check if lpToken contract of DeFi product address is whitelisted and has valid holder contract\n        (bool _isContractWhitelisted, address _holderAddress) = _sTokens.isContractWhitelisted(lpToken);\n        require(_isContractWhitelisted && _holderAddress != address(0), \"LP5\");\n\n        address messageSender = _msgSender();\n\n        // calculate liquidity and reward tokens and disburse to user\n        (rewards, liquidity) = _calculateRewardsAndLiquidity(_holderAddress, lpToken, messageSender);\n        // finally transfer the new LP Tokens to the StakeLP contract\n        TransferHelper.safeTransferFrom(lpToken, messageSender, address(this), amount);\n        // update the user balance\n        _lpBalance[lpToken][messageSender] = _lpBalance[lpToken][messageSender].add(amount);\n        // update the supply of lp tokens for reward and liquidity calculation\n        _lpSupply[lpToken] = _lpSupply[lpToken].add(amount);\n        emit AddLiquidity(lpToken, amount, rewards, liquidity);\n    }\n\n    /*\n    * @dev removing the liquidity\n    * @param lpToken: lp token contract address\n    * @param amount: token amount\n    *\n    * Emits a {RemoveLiquidity} event with 'lpToken, amount, rewards and liquidity'\n    *\n    */\n    function removeLiquidity(\n        address lpToken,\n        uint256 amount\n    ) public virtual override whenNotPaused returns (uint256 liquidity, uint256 rewards) {\n        // check for validity of arguments\n        require(amount > 0 && lpToken != address(0), \"LP6\");\n\n        // check if lpToken contract of DeFi product address is whitelisted and has valid holder contract\n        (bool _isContractWhitelisted, address _holderAddress) = _sTokens.isContractWhitelisted(lpToken);\n        require(_isContractWhitelisted && _holderAddress != address(0), \"LP5\");\n\n        address messageSender = _msgSender();\n\n        // check if suffecient balance is there\n        require(_lpBalance[lpToken][messageSender] >= amount, \"LP8\");\n\n        // calculate liquidity and reward tokens and disburse to user\n        (rewards, liquidity) = _calculateRewardsAndLiquidity(_holderAddress, lpToken, messageSender);\n        // finally transfer the LP Tokens to the user\n        TransferHelper.safeTransferFrom(lpToken, address(this), messageSender, amount);\n        // update the user balance\n        _lpBalance[lpToken][messageSender] = _lpBalance[lpToken][messageSender].sub(amount);\n        // update the supply of lp tokens for reward and liquidity calculation\n        _lpSupply[lpToken] = _lpSupply[lpToken].sub(amount);\n        emit RemoveLiquidity(lpToken, amount, rewards, liquidity);\n    }\n\n    /**\n     * @dev Set 'contract address', called from constructor\n     * @param uAddress: utoken contract address\n     *\n     * Emits a {SetUTokensContract} event with '_contract' set to the utoken contract address.\n     *\n     */\n    function setUTokensContract(address uAddress) public virtual override {\n        require(hasRole(DEFAULT_ADMIN_ROLE, _msgSender()), \"LP9\");\n        _uTokens = IUTokens(uAddress);\n        emit SetUTokensContract(uAddress);\n    }\n\n    /**\n     * @dev Set 'contract address', called from constructor\n     * @param sAddress: stoken contract address\n     *\n     * Emits a {SetSTokensContract} event with '_contract' set to the stoken contract address.\n     *\n     */\n    function setSTokensContract(address sAddress) public virtual override {\n        require(hasRole(DEFAULT_ADMIN_ROLE, _msgSender()), \"LP10\");\n        _sTokens = ISTokens(sAddress);\n        emit SetSTokensContract(sAddress);\n    }\n\n    /**\n     * @dev Set 'contract address', called from constructor\n     * @param pstakeAddress: pStake contract address\n     *\n     * Emits a {SetPSTAKEContract} event with '_contract' set to the stoken contract address.\n     *\n     */\n    function setPSTAKEContract(address pstakeAddress) public virtual override {\n        require(hasRole(DEFAULT_ADMIN_ROLE, _msgSender()), \"LP11\");\n        _pstakeTokens = IPSTAKE(pstakeAddress);\n        emit SetPSTAKEContract(pstakeAddress);\n    }\n\n    /**\n      * @dev Triggers stopped state.\n      *\n      * Requirements:\n      *\n      * - The contract must not be paused.\n      */\n    function pause() public virtual returns (bool success) {\n        require(hasRole(PAUSER_ROLE, _msgSender()), \"LP12\");\n        _pause();\n        return true;\n    }\n\n    /**\n     * @dev Returns to normal state.\n     *\n     * Requirements:\n     *\n     * - The contract must be paused.\n     */\n    function unpause() public virtual returns (bool success) {\n        require(hasRole(PAUSER_ROLE, _msgSender()), \"LP13\");\n        _unpause();\n        return true;\n    }\n}",
  "sourcePath": "/home/aditimahesh/Documents/Work/Persistence/go/src/github.com/persistenceOne/pStakeSmartContracts/contracts/StakeLPCore.sol",
  "compiler": {
    "name": "solc",
    "version": "0.7.6+commit.7338295f.Emscripten.clang"
  },
  "schemaVersion": "3.3.4",
  "updatedAt": "2021-07-10T10:42:56.459Z",
  "devdoc": {
    "kind": "dev",
    "methods": {
      "addLiquidity(address,uint256)": {
        "details": "adds liquidity Returns a uint256"
      },
      "getRoleAdmin(bytes32)": {
        "details": "Returns the admin role that controls `role`. See {grantRole} and {revokeRole}. To change a role's admin, use {_setRoleAdmin}."
      },
      "getRoleMember(bytes32,uint256)": {
        "details": "Returns one of the accounts that have `role`. `index` must be a value between 0 and {getRoleMemberCount}, non-inclusive. Role bearers are not sorted in any particular way, and their ordering may change at any point. WARNING: When using {getRoleMember} and {getRoleMemberCount}, make sure you perform all queries on the same block. See the following https://forum.openzeppelin.com/t/iterating-over-elements-on-enumerableset-in-openzeppelin-contracts/2296[forum post] for more information."
      },
      "getRoleMemberCount(bytes32)": {
        "details": "Returns the number of accounts that have `role`. Can be used together with {getRoleMember} to enumerate all bearers of a role."
      },
      "grantRole(bytes32,address)": {
        "details": "Grants `role` to `account`. If `account` had not been already granted `role`, emits a {RoleGranted} event. Requirements: - the caller must have ``role``'s admin role."
      },
      "hasRole(bytes32,address)": {
        "details": "Returns `true` if `account` has been granted `role`."
      },
      "initialize(address,address,address,address)": {
        "details": "Constructor for initializing the LiquidStaking contract.",
        "params": {
          "pStakeAddress": "- address of the pStake contract address.",
          "sAddress": "- address of the SToken contract.",
          "uAddress": "- address of the UToken contract."
        }
      },
      "pause()": {
        "details": "Triggers stopped state. Requirements: - The contract must not be paused."
      },
      "paused()": {
        "details": "Returns true if the contract is paused, and false otherwise."
      },
      "removeLiquidity(address,uint256)": {
        "details": "remove liquidity Returns a uint256"
      },
      "renounceRole(bytes32,address)": {
        "details": "Revokes `role` from the calling account. Roles are often managed via {grantRole} and {revokeRole}: this function's purpose is to provide a mechanism for accounts to lose their privileges if they are compromised (such as when a trusted device is misplaced). If the calling account had been granted `role`, emits a {RoleRevoked} event. Requirements: - the caller must be `account`."
      },
      "revokeRole(bytes32,address)": {
        "details": "Revokes `role` from `account`. If `account` had been granted `role`, emits a {RoleRevoked} event. Requirements: - the caller must have ``role``'s admin role."
      },
      "setPSTAKEContract(address)": {
        "details": "Set 'contract address', called from constructor",
        "params": {
          "pstakeAddress": ": pStake contract address Emits a {SetPSTAKEContract} event with '_contract' set to the stoken contract address."
        }
      },
      "setSTokensContract(address)": {
        "details": "Set 'contract address', called from constructor",
        "params": {
          "sAddress": ": stoken contract address Emits a {SetSTokensContract} event with '_contract' set to the stoken contract address."
        }
      },
      "setUTokensContract(address)": {
        "details": "Set 'contract address', called from constructor",
        "params": {
          "uAddress": ": utoken contract address Emits a {SetUTokensContract} event with '_contract' set to the utoken contract address."
        }
      },
      "unpause()": {
        "details": "Returns to normal state. Requirements: - The contract must be paused."
      }
    },
    "version": 1
  },
  "userdoc": {
    "kind": "user",
    "methods": {},
    "version": 1
  }
}