{
  "contractName": "StakeLPV2",
  "abi": [
    {
      "anonymous": false,
      "inputs": [
        {
          "indexed": false,
          "internalType": "address",
          "name": "holderAddress",
          "type": "address"
        },
        {
          "indexed": false,
          "internalType": "address",
          "name": "accountAddress",
          "type": "address"
        },
        {
          "indexed": false,
          "internalType": "uint256",
          "name": "tokens",
          "type": "uint256"
        },
        {
          "indexed": false,
          "internalType": "uint256",
          "name": "timestamp",
          "type": "uint256"
        }
      ],
      "name": "AddLiquidity",
      "type": "event"
    },
    {
      "anonymous": false,
      "inputs": [
        {
          "indexed": false,
          "internalType": "address",
          "name": "holderAddress",
          "type": "address"
        },
        {
          "indexed": false,
          "internalType": "address",
          "name": "lpToken",
          "type": "address"
        },
        {
          "indexed": false,
          "internalType": "address",
          "name": "accountAddress",
          "type": "address"
        },
        {
          "indexed": false,
          "internalType": "uint256[]",
          "name": "RewardAmounts",
          "type": "uint256[]"
        },
        {
          "indexed": false,
          "internalType": "address[]",
          "name": "RewardTokens",
          "type": "address[]"
        },
        {
          "indexed": false,
          "internalType": "address[]",
          "name": "sTokenAddresses",
          "type": "address[]"
        },
        {
          "indexed": false,
          "internalType": "uint256",
          "name": "timestamp",
          "type": "uint256"
        }
      ],
      "name": "CalculateRewardsStakeLP",
      "type": "event"
    },
    {
      "anonymous": false,
      "inputs": [
        {
          "indexed": false,
          "internalType": "address",
          "name": "account",
          "type": "address"
        }
      ],
      "name": "Paused",
      "type": "event"
    },
    {
      "anonymous": false,
      "inputs": [
        {
          "indexed": false,
          "internalType": "address",
          "name": "holderAddress",
          "type": "address"
        },
        {
          "indexed": false,
          "internalType": "address",
          "name": "accountAddress",
          "type": "address"
        },
        {
          "indexed": false,
          "internalType": "uint256",
          "name": "tokens",
          "type": "uint256"
        },
        {
          "indexed": false,
          "internalType": "uint256",
          "name": "timestamp",
          "type": "uint256"
        }
      ],
      "name": "RemoveLiquidity",
      "type": "event"
    },
    {
      "anonymous": false,
      "inputs": [
        {
          "indexed": true,
          "internalType": "bytes32",
          "name": "role",
          "type": "bytes32"
        },
        {
          "indexed": true,
          "internalType": "bytes32",
          "name": "previousAdminRole",
          "type": "bytes32"
        },
        {
          "indexed": true,
          "internalType": "bytes32",
          "name": "newAdminRole",
          "type": "bytes32"
        }
      ],
      "name": "RoleAdminChanged",
      "type": "event"
    },
    {
      "anonymous": false,
      "inputs": [
        {
          "indexed": true,
          "internalType": "bytes32",
          "name": "role",
          "type": "bytes32"
        },
        {
          "indexed": true,
          "internalType": "address",
          "name": "account",
          "type": "address"
        },
        {
          "indexed": true,
          "internalType": "address",
          "name": "sender",
          "type": "address"
        }
      ],
      "name": "RoleGranted",
      "type": "event"
    },
    {
      "anonymous": false,
      "inputs": [
        {
          "indexed": true,
          "internalType": "bytes32",
          "name": "role",
          "type": "bytes32"
        },
        {
          "indexed": true,
          "internalType": "address",
          "name": "account",
          "type": "address"
        },
        {
          "indexed": true,
          "internalType": "address",
          "name": "sender",
          "type": "address"
        }
      ],
      "name": "RoleRevoked",
      "type": "event"
    },
    {
      "anonymous": false,
      "inputs": [
        {
          "indexed": true,
          "internalType": "address",
          "name": "_contract",
          "type": "address"
        }
      ],
      "name": "SetWhitelistedPTokenEmissionContract",
      "type": "event"
    },
    {
      "anonymous": false,
      "inputs": [
        {
          "indexed": true,
          "internalType": "address",
          "name": "_contract",
          "type": "address"
        }
      ],
      "name": "SetWhitelistedRewardEmissionContract",
      "type": "event"
    },
    {
      "anonymous": false,
      "inputs": [
        {
          "indexed": false,
          "internalType": "address",
          "name": "holderAddress",
          "type": "address"
        },
        {
          "indexed": false,
          "internalType": "address",
          "name": "accountAddress",
          "type": "address"
        },
        {
          "indexed": false,
          "internalType": "uint256[]",
          "name": "RewardAmounts",
          "type": "uint256[]"
        },
        {
          "indexed": false,
          "internalType": "address[]",
          "name": "RewardTokens",
          "type": "address[]"
        },
        {
          "indexed": false,
          "internalType": "address[]",
          "name": "sTokenAddresses",
          "type": "address[]"
        },
        {
          "indexed": false,
          "internalType": "uint256",
          "name": "timestamp",
          "type": "uint256"
        }
      ],
      "name": "TriggeredCalculateSyncedRewards",
      "type": "event"
    },
    {
      "anonymous": false,
      "inputs": [
        {
          "indexed": false,
          "internalType": "address",
          "name": "account",
          "type": "address"
        }
      ],
      "name": "Unpaused",
      "type": "event"
    },
    {
      "inputs": [],
      "name": "DEFAULT_ADMIN_ROLE",
      "outputs": [
        {
          "internalType": "bytes32",
          "name": "",
          "type": "bytes32"
        }
      ],
      "stateMutability": "view",
      "type": "function"
    },
    {
      "inputs": [],
      "name": "PAUSER_ROLE",
      "outputs": [
        {
          "internalType": "bytes32",
          "name": "",
          "type": "bytes32"
        }
      ],
      "stateMutability": "view",
      "type": "function"
    },
    {
      "inputs": [
        {
          "internalType": "address",
          "name": "",
          "type": "address"
        }
      ],
      "name": "_lastLPTimeShare",
      "outputs": [
        {
          "internalType": "uint256",
          "name": "",
          "type": "uint256"
        }
      ],
      "stateMutability": "view",
      "type": "function"
    },
    {
      "inputs": [
        {
          "internalType": "address",
          "name": "",
          "type": "address"
        },
        {
          "internalType": "address",
          "name": "",
          "type": "address"
        }
      ],
      "name": "_lastLiquidityTimestamp",
      "outputs": [
        {
          "internalType": "uint256",
          "name": "",
          "type": "uint256"
        }
      ],
      "stateMutability": "view",
      "type": "function"
    },
    {
      "inputs": [
        {
          "internalType": "address",
          "name": "",
          "type": "address"
        },
        {
          "internalType": "address",
          "name": "",
          "type": "address"
        }
      ],
      "name": "_lpBalance",
      "outputs": [
        {
          "internalType": "uint256",
          "name": "",
          "type": "uint256"
        }
      ],
      "stateMutability": "view",
      "type": "function"
    },
    {
      "inputs": [
        {
          "internalType": "address",
          "name": "",
          "type": "address"
        }
      ],
      "name": "_lpSupply",
      "outputs": [
        {
          "internalType": "uint256",
          "name": "",
          "type": "uint256"
        }
      ],
      "stateMutability": "view",
      "type": "function"
    },
    {
      "inputs": [],
      "name": "_valueDivisor",
      "outputs": [
        {
          "internalType": "uint256",
          "name": "",
          "type": "uint256"
        }
      ],
      "stateMutability": "view",
      "type": "function"
    },
    {
      "inputs": [],
      "name": "_version",
      "outputs": [
        {
          "internalType": "uint256",
          "name": "",
          "type": "uint256"
        }
      ],
      "stateMutability": "view",
      "type": "function"
    },
    {
      "inputs": [],
      "name": "_whitelistedPTokenEmissionContract",
      "outputs": [
        {
          "internalType": "address",
          "name": "",
          "type": "address"
        }
      ],
      "stateMutability": "view",
      "type": "function"
    },
    {
      "inputs": [],
      "name": "_whitelistedRewardEmissionContract",
      "outputs": [
        {
          "internalType": "address",
          "name": "",
          "type": "address"
        }
      ],
      "stateMutability": "view",
      "type": "function"
    },
    {
      "inputs": [
        {
          "internalType": "bytes32",
          "name": "role",
          "type": "bytes32"
        }
      ],
      "name": "getRoleAdmin",
      "outputs": [
        {
          "internalType": "bytes32",
          "name": "",
          "type": "bytes32"
        }
      ],
      "stateMutability": "view",
      "type": "function"
    },
    {
      "inputs": [
        {
          "internalType": "bytes32",
          "name": "role",
          "type": "bytes32"
        },
        {
          "internalType": "uint256",
          "name": "index",
          "type": "uint256"
        }
      ],
      "name": "getRoleMember",
      "outputs": [
        {
          "internalType": "address",
          "name": "",
          "type": "address"
        }
      ],
      "stateMutability": "view",
      "type": "function"
    },
    {
      "inputs": [
        {
          "internalType": "bytes32",
          "name": "role",
          "type": "bytes32"
        }
      ],
      "name": "getRoleMemberCount",
      "outputs": [
        {
          "internalType": "uint256",
          "name": "",
          "type": "uint256"
        }
      ],
      "stateMutability": "view",
      "type": "function"
    },
    {
      "inputs": [
        {
          "internalType": "bytes32",
          "name": "role",
          "type": "bytes32"
        },
        {
          "internalType": "address",
          "name": "account",
          "type": "address"
        }
      ],
      "name": "grantRole",
      "outputs": [],
      "stateMutability": "nonpayable",
      "type": "function"
    },
    {
      "inputs": [
        {
          "internalType": "bytes32",
          "name": "role",
          "type": "bytes32"
        },
        {
          "internalType": "address",
          "name": "account",
          "type": "address"
        }
      ],
      "name": "hasRole",
      "outputs": [
        {
          "internalType": "bool",
          "name": "",
          "type": "bool"
        }
      ],
      "stateMutability": "view",
      "type": "function"
    },
    {
      "inputs": [],
      "name": "paused",
      "outputs": [
        {
          "internalType": "bool",
          "name": "",
          "type": "bool"
        }
      ],
      "stateMutability": "view",
      "type": "function"
    },
    {
      "inputs": [
        {
          "internalType": "bytes32",
          "name": "role",
          "type": "bytes32"
        },
        {
          "internalType": "address",
          "name": "account",
          "type": "address"
        }
      ],
      "name": "renounceRole",
      "outputs": [],
      "stateMutability": "nonpayable",
      "type": "function"
    },
    {
      "inputs": [
        {
          "internalType": "bytes32",
          "name": "role",
          "type": "bytes32"
        },
        {
          "internalType": "address",
          "name": "account",
          "type": "address"
        }
      ],
      "name": "revokeRole",
      "outputs": [],
      "stateMutability": "nonpayable",
      "type": "function"
    },
    {
      "inputs": [
        {
          "internalType": "address",
          "name": "pauserAddress",
          "type": "address"
        },
        {
          "internalType": "address",
          "name": "whitelistedPTokenEmissionContract",
          "type": "address"
        },
        {
          "internalType": "address",
          "name": "whitelistedRewardEmissionContract",
          "type": "address"
        },
        {
          "internalType": "uint256",
          "name": "valueDivisor",
          "type": "uint256"
        }
      ],
      "name": "initialize",
      "outputs": [],
      "stateMutability": "nonpayable",
      "type": "function"
    },
    {
      "inputs": [
        {
          "internalType": "address",
          "name": "holderAddress",
          "type": "address"
        },
        {
          "internalType": "address",
          "name": "accountAddress",
          "type": "address"
        }
      ],
      "name": "calculatePendingRewards",
      "outputs": [
        {
          "internalType": "uint256[]",
          "name": "rewardAmounts",
          "type": "uint256[]"
        },
        {
          "internalType": "address[]",
          "name": "rewardTokens",
          "type": "address[]"
        },
        {
          "internalType": "address[]",
          "name": "sTokenAddresses",
          "type": "address[]"
        },
        {
          "internalType": "address",
          "name": "lpTokenAddress",
          "type": "address"
        },
        {
          "internalType": "uint256",
          "name": "updatedSupplyLPTimeshare",
          "type": "uint256"
        },
        {
          "internalType": "uint256",
          "name": "newSupplyLPTimeShare",
          "type": "uint256"
        }
      ],
      "stateMutability": "view",
      "type": "function"
    },
    {
      "inputs": [
        {
          "internalType": "address",
          "name": "holderAddress",
          "type": "address"
        }
      ],
      "name": "calculateSyncedRewards",
      "outputs": [
        {
          "internalType": "uint256[]",
          "name": "RewardAmounts",
          "type": "uint256[]"
        },
        {
          "internalType": "address[]",
          "name": "RewardTokens",
          "type": "address[]"
        },
        {
          "internalType": "address[]",
          "name": "sTokenAddresses",
          "type": "address[]"
        },
        {
          "internalType": "address",
          "name": "lpTokenAddress",
          "type": "address"
        }
      ],
      "stateMutability": "nonpayable",
      "type": "function"
    },
    {
      "inputs": [
        {
          "internalType": "address",
          "name": "holderAddress",
          "type": "address"
        },
        {
          "internalType": "uint256",
          "name": "amount",
          "type": "uint256"
        }
      ],
      "name": "addLiquidity",
      "outputs": [
        {
          "internalType": "bool",
          "name": "success",
          "type": "bool"
        }
      ],
      "stateMutability": "nonpayable",
      "type": "function"
    },
    {
      "inputs": [
        {
          "internalType": "address",
          "name": "holderAddress",
          "type": "address"
        },
        {
          "internalType": "uint256",
          "name": "amount",
          "type": "uint256"
        }
      ],
      "name": "removeLiquidity",
      "outputs": [
        {
          "internalType": "bool",
          "name": "success",
          "type": "bool"
        }
      ],
      "stateMutability": "nonpayable",
      "type": "function"
    },
    {
      "inputs": [
        {
          "internalType": "address",
          "name": "whitelistedPTokenEmissionContract",
          "type": "address"
        }
      ],
      "name": "setWhitelistedPTokenEmissionContract",
      "outputs": [],
      "stateMutability": "nonpayable",
      "type": "function"
    },
    {
      "inputs": [
        {
          "internalType": "address",
          "name": "whitelistedRewardEmissionContract",
          "type": "address"
        }
      ],
      "name": "setWhitelistedRewardEmissionContract",
      "outputs": [],
      "stateMutability": "nonpayable",
      "type": "function"
    },
    {
      "inputs": [],
      "name": "pause",
      "outputs": [
        {
          "internalType": "bool",
          "name": "success",
          "type": "bool"
        }
      ],
      "stateMutability": "nonpayable",
      "type": "function"
    },
    {
      "inputs": [],
      "name": "unpause",
      "outputs": [
        {
          "internalType": "bool",
          "name": "success",
          "type": "bool"
        }
      ],
      "stateMutability": "nonpayable",
      "type": "function"
    }
  ],
  "bytecode": "0x608060405234801561001057600080fd5b50613093806100206000396000f3fe608060405234801561001057600080fd5b50600436106101a95760003560e01c80639010d07c116100f9578063c0818a5211610097578063cf756fdf11610071578063cf756fdf14610677578063d547741f146106b3578063e63ab1e9146106df578063f38c3111146106e7576101a9565b8063c0818a5214610606578063ca15c8731461062c578063cce3dffd14610649576101a9565b8063a201ccf6116100d3578063a201ccf61461059c578063a217fddf146105c8578063b29bad13146105d0578063b6c38b95146105fe576101a9565b80639010d07c1461052757806391d148541461054a5780639933d9ac14610576576101a9565b80633f4ba83a116101665780635c975abb116101405780635c975abb146103e5578063670cc9e4146103ed578063728a99ee146105175780638456cb591461051f576101a9565b80633f4ba83a1461037757806345d644cd1461039357806356688700146103b9576101a9565b8063184be35a146101ae578063248a9ca3146101d25780632cea1dce146102015780632f2ff15d1461031557806336568abe146103435780633e118dbe1461036f575b600080fd5b6101b661070d565b604080516001600160a01b039092168252519081900360200190f35b6101ef600480360360208110156101e857600080fd5b503561071c565b60408051918252519081900360200190f35b6102276004803603602081101561021757600080fd5b50356001600160a01b0316610731565b60405180806020018060200180602001856001600160a01b03168152602001848103845288818151815260200191508051906020019060200280838360005b8381101561027e578181015183820152602001610266565b50505050905001848103835287818151815260200191508051906020019060200280838360005b838110156102bd5781810151838201526020016102a5565b50505050905001848103825286818151815260200191508051906020019060200280838360005b838110156102fc5781810151838201526020016102e4565b5050505090500197505050505050505060405180910390f35b6103416004803603604081101561032b57600080fd5b50803590602001356001600160a01b0316610b85565b005b6103416004803603604081101561035957600080fd5b50803590602001356001600160a01b0316610bf1565b6101ef610c52565b61037f610c58565b604080519115158252519081900360200190f35b6101ef600480360360208110156103a957600080fd5b50356001600160a01b0316610cb9565b61037f600480360360408110156103cf57600080fd5b506001600160a01b038135169060200135610ccb565b61037f610e29565b61041b6004803603604081101561040357600080fd5b506001600160a01b0381358116916020013516610e32565b60405180806020018060200180602001876001600160a01b0316815260200186815260200185815260200184810384528a818151815260200191508051906020019060200280838360005b8381101561047e578181015183820152602001610466565b50505050905001848103835289818151815260200191508051906020019060200280838360005b838110156104bd5781810151838201526020016104a5565b50505050905001848103825288818151815260200191508051906020019060200280838360005b838110156104fc5781810151838201526020016104e4565b50505050905001995050505050505050505060405180910390f35b6101ef6114d4565b61037f6114da565b6101b66004803603604081101561053d57600080fd5b5080359060200135611535565b61037f6004803603604081101561056057600080fd5b50803590602001356001600160a01b0316611554565b6103416004803603602081101561058c57600080fd5b50356001600160a01b031661156c565b61037f600480360360408110156105b257600080fd5b506001600160a01b0381351690602001356115fa565b6101ef611818565b6101ef600480360360408110156105e657600080fd5b506001600160a01b038135811691602001351661181d565b6101b661183a565b6101ef6004803603602081101561061c57600080fd5b50356001600160a01b0316611849565b6101ef6004803603602081101561064257600080fd5b503561185b565b6101ef6004803603604081101561065f57600080fd5b506001600160a01b0381358116916020013516611872565b6103416004803603608081101561068d57600080fd5b506001600160a01b0381358116916020810135821691604082013516906060013561188f565b610341600480360360408110156106c957600080fd5b50803590602001356001600160a01b03166119a4565b6101ef6119fd565b610341600480360360208110156106fd57600080fd5b50356001600160a01b0316611a0f565b60cf546001600160a01b031681565b60009081526065602052604090206002015490565b60608060606000610740610e29565b15610785576040805162461bcd60e51b815260206004820152601060248201526f14185d5cd8589b194e881c185d5cd95960821b604482015290519081900360640190fd5b6001600160a01b0385166107c6576040805162461bcd60e51b81526020600482015260036024820152624c503160e81b604482015290519081900360640190fd5b60cf5460408051631fb55e5760e31b81526001600160a01b0388811660048301529151919092169163fdaaf2b891602480830192600092919082900301818387803b15801561081457600080fd5b505af1158015610828573d6000803e3d6000fd5b505050506040513d6000823e601f3d908101601f19168201604052608081101561085157600080fd5b8101908080516040519392919084600160201b82111561087057600080fd5b90830190602082018581111561088557600080fd5b82518660208202830111600160201b821117156108a157600080fd5b82525081516020918201928201910280838360005b838110156108ce5781810151838201526020016108b6565b5050505090500160405260200180516040519392919084600160201b8211156108f657600080fd5b90830190602082018581111561090b57600080fd5b82518660208202830111600160201b8211171561092757600080fd5b82525081516020918201928201910280838360005b8381101561095457818101518382015260200161093c565b5050505090500160405260200180516040519392919084600160201b82111561097c57600080fd5b90830190602082018581111561099157600080fd5b82518660208202830111600160201b821117156109ad57600080fd5b82525081516020918201928201910280838360005b838110156109da5781810151838201526020016109c2565b505050509190910160405250610a0195508a94506109fc9350611a9d92505050565b611aa1565b929650909450925090506001600160a01b038116610a4c576040805162461bcd60e51b815260206004820152600360248201526226281960e91b604482015290519081900360640190fd5b7fd8437fef35403d5c2d58667657c9c811886bc04533fb117d2a597ab18df7803a85610a76611a9d565b8686864260405180876001600160a01b03168152602001866001600160a01b03168152602001806020018060200180602001858152602001848103845288818151815260200191508051906020019060200280838360005b83811015610ae6578181015183820152602001610ace565b50505050905001848103835287818151815260200191508051906020019060200280838360005b83811015610b25578181015183820152602001610b0d565b50505050905001848103825286818151815260200191508051906020019060200280838360005b83811015610b64578181015183820152602001610b4c565b50505050905001995050505050505050505060405180910390a19193509193565b600082815260656020526040902060020154610ba890610ba3611a9d565b611554565b610be35760405162461bcd60e51b815260040180806020018281038252602f815260200180612f03602f913960400191505060405180910390fd5b610bed828261202f565b5050565b610bf9611a9d565b6001600160a01b0316816001600160a01b031614610c485760405162461bcd60e51b815260040180806020018281038252602f81526020018061302f602f913960400191505060405180910390fd5b610bed8282612098565b60ca5481565b6000610c74600080516020612fe2833981519152610ba3611a9d565b610cab576040805162461bcd60e51b81526020600482015260036024820152624c503760e81b604482015290519081900360640190fd5b610cb3612101565b50600190565b60cc6020526000908152604090205481565b6000610cd5610e29565b15610d1a576040805162461bcd60e51b815260206004820152601060248201526f14185d5cd8589b194e881c185d5cd95960821b604482015290519081900360640190fd5b6000610d2584610731565b93505050506000610d34611a9d565b6001600160a01b03808416600090815260cb6020908152604080832093851683529290522054909150610d6790856121a1565b6001600160a01b03808416600081815260cb6020908152604080832094871683529381528382209490945590815260cc909252902054610da790856121a1565b6001600160a01b038316600090815260cc6020526040902055610dcc828230876121fb565b604080516001600160a01b0380881682528316602082015280820186905242606082015290517fd2491a9b4fe81a7cd4511e8b7b7743951b061dad5bed7da8a7795b080ee08c7e9181900360800190a16001925050505b92915050565b60335460ff1690565b60608060606000806000806000606060cf60009054906101000a90046001600160a01b03166001600160a01b031663cad086558c6040518263ffffffff1660e01b815260040180826001600160a01b0316815260200191505060006040518083038186803b158015610ea357600080fd5b505afa158015610eb7573d6000803e3d6000fd5b505050506040513d6000823e601f3d908101601f191682016040526080811015610ee057600080fd5b8101908080516040519392919084600160201b821115610eff57600080fd5b908301906020820185811115610f1457600080fd5b82518660208202830111600160201b82111715610f3057600080fd5b82525081516020918201928201910280838360005b83811015610f5d578181015183820152602001610f45565b5050505090500160405260200180516040519392919084600160201b821115610f8557600080fd5b908301906020820185811115610f9a57600080fd5b82518660208202830111600160201b82111715610fb657600080fd5b82525081516020918201928201910280838360005b83811015610fe3578181015183820152602001610fcb565b5050505090500160405260200180516040519392919084600160201b82111561100b57600080fd5b90830190602082018581111561102057600080fd5b82518660208202830111600160201b8211171561103c57600080fd5b82525081516020918201928201910280838360005b83811015611069578181015183820152602001611051565b50505050919091016040525060200151939b509299509293505050506001600160a01b038b1615806110a257506001600160a01b038616155b806110b457506001600160a01b038a16155b156110c1575050506114ca565b60cb6000876001600160a01b03166001600160a01b0316815260200190815260200160002060008b6001600160a01b03166001600160a01b0316815260200190815260200160002054925060cc6000876001600160a01b03166001600160a01b0316815260200190815260200160002054915060008060d060009054906101000a90046001600160a01b03166001600160a01b031663c2b4ff798e8a8f89896040518663ffffffff1660e01b815260040180866001600160a01b03168152602001856001600160a01b03168152602001846001600160a01b031681526020018381526020018281526020019550505050505060006040518083038186803b1580156111cb57600080fd5b505afa1580156111df573d6000803e3d6000fd5b505050506040513d6000823e601f3d908101601f19168201604090815281101561120857600080fd5b8101908080516040519392919084600160201b82111561122757600080fd5b90830190602082018581111561123c57600080fd5b82518660208202830111600160201b8211171561125857600080fd5b82525081516020918201928201910280838360005b8381101561128557818101518382015260200161126d565b5050505090500160405260200180516040519392919084600160201b8211156112ad57600080fd5b9083019060208201858111156112c257600080fd5b82518660208202830111600160201b821117156112de57600080fd5b82525081516020918201928201910280838360005b8381101561130b5781810151838201526020016112f3565b50505050905001604052505050915091506113d161137a60ce60008b6001600160a01b03166001600160a01b0316815260200190815260200160002060008f6001600160a01b03166001600160a01b03168152602001908152602001600020544261235790919063ffffffff16565b60cb60008b6001600160a01b03166001600160a01b0316815260200190815260200160002060008f6001600160a01b03166001600160a01b03168152602001908152602001600020546123b490919063ffffffff16565b60d0546040805163690a410d60e01b81526001600160a01b038c81166004830152915193985061147c9361145d93929092169163690a410d91602480820192602092909190829003018186803b15801561142a57600080fd5b505afa15801561143e573d6000803e3d6000fd5b505050506040513d602081101561145457600080fd5b50514290612357565b6001600160a01b038a16600090815260cc6020526040902054906123b4565b6001600160a01b038916600090815260cd60205260409020549096506114a290876121a1565b93506114ae8486612357565b96506114bf8d8a858888878761240d565b909b50995050505050505b9295509295509295565b60c95481565b60006114f6600080516020612fe2833981519152610ba3611a9d565b61152d576040805162461bcd60e51b815260206004820152600360248201526226281b60e91b604482015290519081900360640190fd5b610cb3612724565b600082815260656020526040812061154d90836127a7565b9392505050565b600082815260656020526040812061154d90836127b3565b6115796000610ba3611a9d565b6115b0576040805162461bcd60e51b815260206004820152600360248201526213140d60ea1b604482015290519081900360640190fd5b60cf80546001600160a01b0319166001600160a01b0383169081179091556040517f441e6cdc468501bb6d17b30034ba7dd543768146de1cf17f59b7f555cd57716090600090a250565b6000611604610e29565b15611649576040805162461bcd60e51b815260206004820152601060248201526f14185d5cd8589b194e881c185d5cd95960821b604482015290519081900360640190fd5b600260975414156116a1576040805162461bcd60e51b815260206004820152601f60248201527f5265656e7472616e637947756172643a207265656e7472616e742063616c6c00604482015290519081900360640190fd5b600260975560006116b184610731565b935050505060006116c0611a9d565b6001600160a01b03808416600090815260cb6020908152604080832093851683529290522054909150841115611723576040805162461bcd60e51b81526020600482015260036024820152624c503360e81b604482015290519081900360640190fd5b6001600160a01b03808316600090815260cb60209081526040808320938516835292905220546117539085612357565b6001600160a01b03808416600081815260cb6020908152604080832094871683529381528382209490945590815260cc9092529020546117939085612357565b6001600160a01b038316600090815260cc60205260409020556117b78282866127c8565b604080516001600160a01b0380881682528316602082015280820186905242606082015290517f34ef8e86237e7385b43618862e895c6ce827b2b7d6107ad415d54336c1dd2dd69181900360800190a1600192505050600160975592915050565b600081565b60ce60209081526000928352604080842090915290825290205481565b60d0546001600160a01b031681565b60cd6020526000908152604090205481565b6000818152606560205260408120610e2390612914565b60cb60209081526000928352604080842090915290825290205481565b600054610100900460ff16806118a857506118a861291f565b806118b6575060005460ff16155b6118f15760405162461bcd60e51b815260040180806020018281038252602e815260200180612f93602e913960400191505060405180910390fd5b600054610100900460ff1615801561191c576000805460ff1961ff0019909116610100171660011790555b611924612930565b61192c6129e2565b61193e6000611939611a9d565b610be3565b611956600080516020612fe283398151915286610be3565b60cf80546001600160a01b038087166001600160a01b03199283161790925560d080549286169290911691909117905560c9829055801561199d576000805461ff00191690555b5050505050565b6000828152606560205260409020600201546119c290610ba3611a9d565b610c485760405162461bcd60e51b8152600401808060200182810382526030815260200180612f636030913960400191505060405180910390fd5b600080516020612fe283398151915281565b611a1c6000610ba3611a9d565b611a53576040805162461bcd60e51b81526020600482015260036024820152624c503560e81b604482015290519081900360640190fd5b60d080546001600160a01b0319166001600160a01b0383169081179091556040517f022a965d0443786961dccee31f081c7792992cfc3eb0c84cc7556aedf68c5f5490600090a250565b3390565b6060806060600080600080611ab68989610e32565b809750819850829950839a50849b50859c505050505050504260ce6000866001600160a01b03166001600160a01b0316815260200190815260200160002060008a6001600160a01b03166001600160a01b03168152602001908152602001600020819055508260cd6000866001600160a01b03166001600160a01b031681526020019081526020016000208190555060d060009054906101000a90046001600160a01b03166001600160a01b0316638a836cc085846040518363ffffffff1660e01b815260040180836001600160a01b0316815260200182815260200192505050602060405180830381600087803b158015611bb157600080fd5b505af1158015611bc5573d6000803e3d6000fd5b505050506040513d6020811015611bdb57600080fd5b505060d0546040805163242ed04360e21b81526001600160a01b038781166004830152426024830152915191909216916390bb410c9160448083019260209291908290030181600087803b158015611c3257600080fd5b505af1158015611c46573d6000803e3d6000fd5b505050506040513d6020811015611c5c57600080fd5b5060009150505b8451811015611d41576000878281518110611c7a57fe5b60200260200101511115611d2f57886001600160a01b031663d1660f99878381518110611ca357fe5b60200260200101518a8a8581518110611cb857fe5b60200260200101516040518463ffffffff1660e01b815260040180846001600160a01b03168152602001836001600160a01b031681526020018281526020019350505050600060405180830381600087803b158015611d1657600080fd5b505af1158015611d2a573d6000803e3d6000fd5b505050505b611d3a8160016121a1565b9050611c63565b5083515b8551811015611ee75760d05486516001600160a01b039091169063b0871ac0908b90899085908110611d7357fe5b60200260200101518b426040518563ffffffff1660e01b815260040180856001600160a01b03168152602001846001600160a01b03168152602001836001600160a01b03168152602001828152602001945050505050602060405180830381600087803b158015611de357600080fd5b505af1158015611df7573d6000803e3d6000fd5b505050506040513d6020811015611e0d57600080fd5b50508651600090889083908110611e2057fe5b60200260200101511115611ed557886001600160a01b031663d1660f99878381518110611e4957fe5b60200260200101518a8a8581518110611e5e57fe5b60200260200101516040518463ffffffff1660e01b815260040180846001600160a01b03168152602001836001600160a01b031681526020018281526020019350505050600060405180830381600087803b158015611ebc57600080fd5b505af1158015611ed0573d6000803e3d6000fd5b505050505b611ee08160016121a1565b9050611d45565b7f24afb6b4a2af750a390ae7c0f3ff21d440ead1836cff28e1f90a4497f8ce574b89858a8a8a8a4260405180886001600160a01b03168152602001876001600160a01b03168152602001866001600160a01b03168152602001806020018060200180602001858152602001848103845288818151815260200191508051906020019060200280838360005b83811015611f8a578181015183820152602001611f72565b50505050905001848103835287818151815260200191508051906020019060200280838360005b83811015611fc9578181015183820152602001611fb1565b50505050905001848103825286818151815260200191508051906020019060200280838360005b83811015612008578181015183820152602001611ff0565b505050509050019a505050505050505050505060405180910390a150505092959194509250565b60008281526065602052604090206120479082612a7f565b15610bed57612054611a9d565b6001600160a01b0316816001600160a01b0316837f2f8788117e7eff1d82e926ec794901d17c78024a50270940304540a733656f0d60405160405180910390a45050565b60008281526065602052604090206120b09082612a94565b15610bed576120bd611a9d565b6001600160a01b0316816001600160a01b0316837ff6391f5c32d9c69d2a47ea670b442974b53935d1edc7fd64eb21e047a839171b60405160405180910390a45050565b612109610e29565b612151576040805162461bcd60e51b815260206004820152601460248201527314185d5cd8589b194e881b9bdd081c185d5cd95960621b604482015290519081900360640190fd5b6033805460ff191690557f5db9ee0a495bf2e6ff9c91a7834c1ba4fdd244a5e8aa4e537bd38aeae4b073aa612184611a9d565b604080516001600160a01b039092168252519081900360200190a1565b60008282018381101561154d576040805162461bcd60e51b815260206004820152601b60248201527f536166654d6174683a206164646974696f6e206f766572666c6f770000000000604482015290519081900360640190fd5b604080516001600160a01b0385811660248301528481166044830152606480830185905283518084039091018152608490920183526020820180516001600160e01b03166323b872dd60e01b178152925182516000948594938a169392918291908083835b6020831061227f5780518252601f199092019160209182019101612260565b6001836020036101000a0380198251168184511680821785525050505050509050019150506000604051808303816000865af19150503d80600081146122e1576040519150601f19603f3d011682016040523d82523d6000602084013e6122e6565b606091505b5091509150818015612314575080511580612314575080806020019051602081101561231157600080fd5b50515b61234f5760405162461bcd60e51b8152600401808060200182810382526031815260200180612f326031913960400191505060405180910390fd5b505050505050565b6000828211156123ae576040805162461bcd60e51b815260206004820152601e60248201527f536166654d6174683a207375627472616374696f6e206f766572666c6f770000604482015290519081900360640190fd5b50900390565b6000826123c357506000610e23565b828202828482816123d057fe5b041461154d5760405162461bcd60e51b8152600401808060200182810382526021815260200180612fc16021913960400191505060405180910390fd5b6060806000806124288a5187516121a190919063ffffffff16565b67ffffffffffffffff8111801561243e57600080fd5b50604051908082528060200260200182016040528015612468578160200160208202803683370190505b5093506124808a5186516121a190919063ffffffff16565b67ffffffffffffffff8111801561249657600080fd5b506040519080825280602002602001820160405280156124c0578160200160208202803683370190505b509250600091505b8951821015612665578982815181106124dd57fe5b60200260200101516001600160a01b0316633d9e0c056040518163ffffffff1660e01b815260040160206040518083038186803b15801561251d57600080fd5b505afa158015612531573d6000803e3d6000fd5b505050506040513d602081101561254757600080fd5b5051835184908490811061255757fe5b6001600160a01b039092166020928302919091019091015286156126535782828151811061258157fe5b60200260200101516001600160a01b03166370a082318c6040518263ffffffff1660e01b815260040180826001600160a01b0316815260200191505060206040518083038186803b1580156125d557600080fd5b505afa1580156125e9573d6000803e3d6000fd5b505050506040513d60208110156125ff57600080fd5b5051895190915061262d908a908490811061261657fe5b6020026020010151826121a190919063ffffffff16565b905061263a818989612aa9565b84838151811061264657fe5b6020026020010181815250505b61265e8260016121a1565b91506124c8565b600091505b85518210156127165784828151811061267f57fe5b60200260200101518361269c8c51856121a190919063ffffffff16565b815181106126a657fe5b60200260200101906001600160a01b031690816001600160a01b0316815250508582815181106126d257fe5b6020026020010151846126ef8c51856121a190919063ffffffff16565b815181106126f957fe5b602090810291909101015261270f8260016121a1565b915061266a565b505097509795505050505050565b61272c610e29565b15612771576040805162461bcd60e51b815260206004820152601060248201526f14185d5cd8589b194e881c185d5cd95960821b604482015290519081900360640190fd5b6033805460ff191660011790557f62e78cea01bee320cd4e420270b5ea74000d11b0c9f74754ebdbfc544b05a258612184611a9d565b600061154d8383612b62565b600061154d836001600160a01b038416612bc6565b604080516001600160a01b038481166024830152604480830185905283518084039091018152606490920183526020820180516001600160e01b031663a9059cbb60e01b1781529251825160009485949389169392918291908083835b602083106128445780518252601f199092019160209182019101612825565b6001836020036101000a0380198251168184511680821785525050505050509050019150506000604051808303816000865af19150503d80600081146128a6576040519150601f19603f3d011682016040523d82523d6000602084013e6128ab565b606091505b50915091508180156128d95750805115806128d957508080602001905160208110156128d657600080fd5b50515b61199d5760405162461bcd60e51b815260040180806020018281038252602d815260200180613002602d913960400191505060405180910390fd5b6000610e2382612bde565b600061292a30612be2565b15905090565b600054610100900460ff1680612949575061294961291f565b80612957575060005460ff16155b6129925760405162461bcd60e51b815260040180806020018281038252602e815260200180612f93602e913960400191505060405180910390fd5b600054610100900460ff161580156129bd576000805460ff1961ff0019909116610100171660011790555b6129c5612be8565b6129cd612be8565b80156129df576000805461ff00191690555b50565b600054610100900460ff16806129fb57506129fb61291f565b80612a09575060005460ff16155b612a445760405162461bcd60e51b815260040180806020018281038252602e815260200180612f93602e913960400191505060405180910390fd5b600054610100900460ff16158015612a6f576000805460ff1961ff0019909116610100171660011790555b612a77612be8565b6129cd612c88565b600061154d836001600160a01b038416612d33565b600061154d836001600160a01b038416612d7d565b6000806000612ab88686612e43565b9150915060008480612ac657fe5b868809905082811115612ada576001820391505b918290039181612af857848381612aed57fe5b04935050505061154d565b848210612b4c576040805162461bcd60e51b815260206004820152601a60248201527f46756c6c4d6174683a2046554c4c4449565f4f564552464c4f57000000000000604482015290519081900360640190fd5b612b57838387612e70565b979650505050505050565b81546000908210612ba45760405162461bcd60e51b8152600401808060200182810382526022815260200180612ee16022913960400191505060405180910390fd5b826000018281548110612bb357fe5b9060005260206000200154905092915050565b60009081526001919091016020526040902054151590565b5490565b3b151590565b600054610100900460ff1680612c015750612c0161291f565b80612c0f575060005460ff16155b612c4a5760405162461bcd60e51b815260040180806020018281038252602e815260200180612f93602e913960400191505060405180910390fd5b600054610100900460ff161580156129cd576000805460ff1961ff00199091166101001716600117905580156129df576000805461ff001916905550565b600054610100900460ff1680612ca15750612ca161291f565b80612caf575060005460ff16155b612cea5760405162461bcd60e51b815260040180806020018281038252602e815260200180612f93602e913960400191505060405180910390fd5b600054610100900460ff16158015612d15576000805460ff1961ff0019909116610100171660011790555b6033805460ff1916905580156129df576000805461ff001916905550565b6000612d3f8383612bc6565b612d7557508154600181810184556000848152602080822090930184905584548482528286019093526040902091909155610e23565b506000610e23565b60008181526001830160205260408120548015612e395783546000198083019190810190600090879083908110612db057fe5b9060005260206000200154905080876000018481548110612dcd57fe5b600091825260208083209091019290925582815260018981019092526040902090840190558654879080612dfd57fe5b60019003818190600052602060002001600090559055866001016000878152602001908152602001600020600090556001945050505050610e23565b6000915050610e23565b6000808060001984860990508385029250828103915082811015612e68576001820391505b509250929050565b60008181038216808381612e8057fe5b049250808581612e8c57fe5b049450808160000381612e9b57fe5b6002858103808702820302808702820302808702820302808702820302808702820302808702820302958602900390940293046001019390930293909301029291505056fe456e756d657261626c655365743a20696e646578206f7574206f6620626f756e6473416363657373436f6e74726f6c3a2073656e646572206d75737420626520616e2061646d696e20746f206772616e745472616e7366657248656c7065723a3a7472616e7366657246726f6d3a207472616e7366657246726f6d206661696c6564416363657373436f6e74726f6c3a2073656e646572206d75737420626520616e2061646d696e20746f207265766f6b65496e697469616c697a61626c653a20636f6e747261637420697320616c726561647920696e697469616c697a6564536166654d6174683a206d756c7469706c69636174696f6e206f766572666c6f7765d7a28e3265b37a6474929f336521b332c1681b933f6cb9f3376673440d862a5472616e7366657248656c7065723a3a736166655472616e736665723a207472616e73666572206661696c6564416363657373436f6e74726f6c3a2063616e206f6e6c792072656e6f756e636520726f6c657320666f722073656c66a2646970667358221220ec1be53bde59846e3ce80c9304118b109c5edfbcb13414e4ddfe5b05ba4d7e8964736f6c63430007060033",
  "immutableReferences": {},
  "source": "/*\n Copyright [2019] - [2021], PERSISTENCE TECHNOLOGIES PTE. LTD. and the pStake-smartContracts contributors\n SPDX-License-Identifier: Apache-2.0\n*/\n\npragma solidity >=0.7.0;\n\nimport \"@openzeppelin/contracts-upgradeable/math/SafeMathUpgradeable.sol\";\nimport \"@openzeppelin/contracts-upgradeable/access/AccessControlUpgradeable.sol\";\nimport \"@openzeppelin/contracts-upgradeable/utils/PausableUpgradeable.sol\";\nimport \"@openzeppelin/contracts-upgradeable/utils/EnumerableSetUpgradeable.sol\";\nimport \"@openzeppelin/contracts-upgradeable/utils/ReentrancyGuardUpgradeable.sol\";\nimport \"./interfaces/IUTokensV2.sol\";\nimport \"./interfaces/IHolderV2.sol\";\nimport \"./interfaces/ISTokensV2.sol\";\nimport \"./interfaces/IStakeLP.sol\";\nimport \"./libraries/TransferHelper.sol\";\nimport \"./libraries/FullMath.sol\";\nimport \"./interfaces/IWhitelistedPTokenEmission.sol\";\nimport \"./interfaces/IWhitelistedRewardEmissionV2.sol\";\n\ncontract StakeLPV2 is\n\tIStakeLP,\n\tPausableUpgradeable,\n\tAccessControlUpgradeable,\n\tReentrancyGuardUpgradeable\n{\n\tusing SafeMathUpgradeable for uint256;\n\tusing FullMath for uint256;\n\tusing EnumerableSetUpgradeable for EnumerableSetUpgradeable.AddressSet;\n\n\t// constant pertaining to access roles\n\tbytes32 public constant PAUSER_ROLE = keccak256(\"PAUSER_ROLE\");\n\t// valueDivisor to store fractional values for various reward attributes like _rewardTokenEmission\n\tuint256 public _valueDivisor;\n\t// variable pertaining to contract upgrades versioning\n\tuint256 public _version;\n\n\t// -------------------------------------------------------------------------\n\t// -------------------------------------------------------------------------\n\n\t// VARIABLES PERTAINING TO CALCULATION OF LPTIMESHARE\n\t// balance of user, for an LP Token\n\tmapping(address => mapping(address => uint256)) public _lpBalance;\n\t// supply of LP tokens reserve, for an LP Token\n\tmapping(address => uint256) public _lpSupply;\n\t// last updated total LPTimeShare, for an LP Token\n\tmapping(address => uint256) public _lastLPTimeShare;\n\t// last recorded timestamp when user's LPTimeShare was updated, for a user, for an LP Token\n\tmapping(address => mapping(address => uint256))\n\t\tpublic _lastLiquidityTimestamp;\n\n\t// -------------------------------------------------------------------------\n\t// -------------------------------------------------------------------------\n\n\t// required to store the whitelisting holder logic data for PToken rewards, initiated from WhitelistedEmission contract\n\taddress public _whitelistedPTokenEmissionContract;\n\t// required to store the whitelisting holder logic data for other rewards, initiated from WhitelistedEmission contract\n\taddress public _whitelistedRewardEmissionContract;\n\n\t/**\n\t * @dev Constructor for initializing the LiquidStaking contract.\n\t */\n\tfunction initialize(\n\t\taddress pauserAddress,\n\t\taddress whitelistedPTokenEmissionContract,\n\t\taddress whitelistedRewardEmissionContract,\n\t\tuint256 valueDivisor\n\t) public virtual initializer {\n\t\t__AccessControl_init();\n\t\t__Pausable_init();\n\t\t_setupRole(DEFAULT_ADMIN_ROLE, _msgSender());\n\t\t_setupRole(PAUSER_ROLE, pauserAddress);\n\t\t_whitelistedPTokenEmissionContract = whitelistedPTokenEmissionContract;\n\t\t_whitelistedRewardEmissionContract = whitelistedRewardEmissionContract;\n\t\t_valueDivisor = valueDivisor;\n\t}\n\n\t/*\n\t * @dev calculate liquidity and reward tokens and disburse to user\n\t * @param lpToken: lp token contract address\n\t * @param to: user address\n\t * @param liquidityWeightFactor: coming as an argument for further calculations\n\t * @param rewardWeightFactor: coming as an argument for further calculations\n\t * @param valueDivisor: coming as an argument for further calculations\n\t */\n\tfunction calculatePendingRewards(\n\t\taddress holderAddress,\n\t\taddress accountAddress\n\t)\n\t\tpublic\n\t\tview\n\t\tvirtual\n\t\toverride\n\t\treturns (\n\t\t\tuint256[] memory rewardAmounts,\n\t\t\taddress[] memory rewardTokens,\n\t\t\taddress[] memory sTokenAddresses,\n\t\t\taddress lpTokenAddress,\n\t\t\tuint256 updatedSupplyLPTimeshare,\n\t\t\tuint256 newSupplyLPTimeShare\n\t\t)\n\t{\n\t\tuint256 _userLPTimeShare;\n\t\tuint256 _totalSupplyLPTimeShare;\n\t\tuint256[] memory holderRewards;\n\n\t\t// CALCULTE LP TOKEN RATIOS OF USER AND SUPPLY\n\t\t// CALCULATE PTOKENS REWARD EMISSION - CALCULATE (NOT TRIGGER) HOLDER REWARDS\n\t\t// CALCULATE PTOKENS REWARD SHARE OF USER - CALCULATE (NOT TRIGGER) REWARD CALC OF PTOKENS\n\t\t// CALCULATE OTHER REWARDS EMISSION - CALCULATE (NOT TRIGGER) OTHER PENDING REWARDS\n\t\t// CALCULATE OTHER REWARDS SHARE OF USER - CALCULATE (NOT TRIGGER) REWARD CALC OF OTHER TOKENS\n\n\t\t(\n\t\t\tholderRewards,\n\t\t\tsTokenAddresses,\n\t\t\t,\n\t\t\tlpTokenAddress\n\t\t) = IWhitelistedPTokenEmission(_whitelistedPTokenEmissionContract)\n\t\t\t.calculateAllPendingHolderRewards(holderAddress);\n\n\t\tif (\n\t\t\tholderAddress == address(0) ||\n\t\t\tlpTokenAddress == address(0) ||\n\t\t\taccountAddress == address(0)\n\t\t) {\n\t\t\treturn (\n\t\t\t\trewardAmounts,\n\t\t\t\trewardTokens,\n\t\t\t\tsTokenAddresses,\n\t\t\t\tlpTokenAddress,\n\t\t\t\tupdatedSupplyLPTimeshare,\n\t\t\t\tnewSupplyLPTimeShare\n\t\t\t);\n\t\t}\n\n\t\t_userLPTimeShare = _lpBalance[lpTokenAddress][accountAddress];\n\t\t_totalSupplyLPTimeShare = _lpSupply[lpTokenAddress];\n\n\t\t// calculate the amounts and token contracts of other reward tokens\n\t\t(\n\t\t\tuint256[] memory otherRewardAmounts,\n\t\t\taddress[] memory otherRewardTokens\n\t\t) = IWhitelistedRewardEmissionV2(_whitelistedRewardEmissionContract)\n\t\t\t\t.calculateOtherPendingRewards(\n\t\t\t\t\tholderAddress,\n\t\t\t\t\tlpTokenAddress,\n\t\t\t\t\taccountAddress,\n\t\t\t\t\t_userLPTimeShare,\n\t\t\t\t\t_totalSupplyLPTimeShare\n\t\t\t\t);\n\n\t\t// calculate the new LPTimeShare of the user's LP Token\n\t\t_userLPTimeShare = (\n\t\t\t(_lpBalance[lpTokenAddress][accountAddress]).mul(\n\t\t\t\tblock.timestamp.sub(\n\t\t\t\t\t_lastLiquidityTimestamp[lpTokenAddress][accountAddress]\n\t\t\t\t)\n\t\t\t)\n\t\t);\n\n\t\t// calculate the new LPTimeShare of the sum of supply of all LP Tokens\n\t\tnewSupplyLPTimeShare = (\n\t\t\t(_lpSupply[lpTokenAddress]).mul(\n\t\t\t\tblock.timestamp.sub(\n\t\t\t\t\tIWhitelistedRewardEmissionV2(\n\t\t\t\t\t\t_whitelistedRewardEmissionContract\n\t\t\t\t\t).getLastLPTimeShareTimestamp(lpTokenAddress)\n\t\t\t\t)\n\t\t\t)\n\t\t);\n\n\t\t// calculate the totalSupplyLPTimeShare by adding new LPTimeShare to the existing share\n\t\t_totalSupplyLPTimeShare = _lastLPTimeShare[lpTokenAddress].add(\n\t\t\tnewSupplyLPTimeShare\n\t\t);\n\n\t\t// calculate the remaining LPTimeShare of the total supply after the tokens for the user has been dispatched\n\t\tupdatedSupplyLPTimeshare = _totalSupplyLPTimeShare.sub(\n\t\t\t_userLPTimeShare\n\t\t);\n\n\t\t(rewardAmounts, rewardTokens) = _getRewardData(\n\t\t\tholderAddress,\n\t\t\tsTokenAddresses,\n\t\t\tholderRewards,\n\t\t\t_userLPTimeShare,\n\t\t\t_totalSupplyLPTimeShare,\n\t\t\totherRewardAmounts,\n\t\t\totherRewardTokens\n\t\t);\n\t}\n\n\t/*\n\t * @dev calculate liquidity and reward tokens and disburse to user\n\t */\n\tfunction _getRewardData(\n\t\taddress holderAddress,\n\t\taddress[] memory sTokenAddresses,\n\t\tuint256[] memory holderRewards,\n\t\tuint256 userLPTimeShare,\n\t\tuint256 totalSupplyLPTimeShare,\n\t\tuint256[] memory otherRewardAmounts,\n\t\taddress[] memory otherRewardTokens\n\t)\n\t\tinternal\n\t\tview\n\t\treturns (uint256[] memory rewardAmounts, address[] memory rewardTokens)\n\t{\n\t\tuint256 i;\n\t\tuint256 rewardPool;\n\n\t\t// initialize rewardAmounts and rewardTokens as per the sum of the size of pSTAKE and other rewards\n\t\trewardAmounts = new uint256[](\n\t\t\t(otherRewardAmounts.length).add(sTokenAddresses.length)\n\t\t);\n\t\trewardTokens = new address[](\n\t\t\t(otherRewardTokens.length).add(sTokenAddresses.length)\n\t\t);\n\n\t\t// CALCULATE REWARD FOR EACH UTOKEN ADDRESS\n\t\tfor (i = 0; i < sTokenAddresses.length; i = i.add(1)) {\n\t\t\trewardTokens[i] = ISTokensV2(sTokenAddresses[i]).getUTokenAddress();\n\t\t\tif (totalSupplyLPTimeShare > 0) {\n\t\t\t\t// calculated the updated rewardPool\n\t\t\t\trewardPool = IUTokensV2(rewardTokens[i]).balanceOf(\n\t\t\t\t\tholderAddress\n\t\t\t\t);\n\t\t\t\trewardPool = rewardPool.add(holderRewards[i]);\n\t\t\t\t// calculate the reward portion of the user\n\t\t\t\trewardAmounts[i] = rewardPool.mulDiv(\n\t\t\t\t\tuserLPTimeShare,\n\t\t\t\t\ttotalSupplyLPTimeShare\n\t\t\t\t);\n\t\t\t}\n\t\t}\n\n\t\tfor (i = 0; i < otherRewardAmounts.length; i = i.add(1)) {\n\t\t\trewardTokens[i.add(sTokenAddresses.length)] = otherRewardTokens[i];\n\t\t\trewardAmounts[i.add(sTokenAddresses.length)] = otherRewardAmounts[\n\t\t\t\ti\n\t\t\t];\n\t\t}\n\t}\n\n\t/*\n\t * @dev calculate reward tokens and disburse to user\n\t * @param lpToken: lp token contract address\n\t * @param to: user address\n\t * @param liquidityWeightFactor: coming as an argument for further calculations\n\t * @param rewardWeightFactor: coming as an argument for further calculations\n\t * @param valueDivisor: coming as an argument for further calculations\n\t */\n\tfunction _calculateRewards(address holderAddress, address accountAddress)\n\t\tinternal\n\t\treturns (\n\t\t\tuint256[] memory RewardAmounts,\n\t\t\taddress[] memory RewardTokens,\n\t\t\taddress[] memory sTokenAddresses,\n\t\t\taddress lpTokenAddress\n\t\t)\n\t{\n\t\tuint256 updatedSupplyLPTimeshare;\n\t\tuint256 newSupplyLPTimeShare;\n\t\tuint256 i;\n\n\t\t(\n\t\t\tRewardAmounts,\n\t\t\tRewardTokens,\n\t\t\tsTokenAddresses,\n\t\t\tlpTokenAddress,\n\t\t\tupdatedSupplyLPTimeshare,\n\t\t\tnewSupplyLPTimeShare\n\t\t) = calculatePendingRewards(holderAddress, accountAddress);\n\n\t\t// update last timestamps and LPTimeShares as per Checks-Effects-Interactions pattern\n\t\t_lastLiquidityTimestamp[lpTokenAddress][accountAddress] = block\n\t\t\t.timestamp;\n\n\t\t_lastLPTimeShare[lpTokenAddress] = updatedSupplyLPTimeshare;\n\n\t\t// update the cummulative new supply LP Timeshare value\n\t\tIWhitelistedRewardEmissionV2(_whitelistedRewardEmissionContract)\n\t\t\t.setLastCummulativeSupplyLPTimeShare(\n\t\t\t\tlpTokenAddress,\n\t\t\t\tnewSupplyLPTimeShare\n\t\t\t);\n\n\t\t// update the _lastLPTimeShareTimestampArray\n\t\tIWhitelistedRewardEmissionV2(_whitelistedRewardEmissionContract)\n\t\t\t.setLastLPTimeShareTimestamp(lpTokenAddress, block.timestamp);\n\n\t\t// DISBURSE THE MULTIPLE UTOKEN REWARDS TO USER (transfer)\n\t\tfor (i = 0; i < sTokenAddresses.length; i = i.add(1)) {\n\t\t\tif (RewardAmounts[i] > 0)\n\t\t\t\tIHolderV2(holderAddress).safeTransfer(\n\t\t\t\t\tRewardTokens[i],\n\t\t\t\t\taccountAddress,\n\t\t\t\t\tRewardAmounts[i]\n\t\t\t\t);\n\t\t}\n\n\t\t// DISBURSE THE OTHER REWARD TOKENS TO USER (transfer)\n\t\tfor (\n\t\t\ti = sTokenAddresses.length;\n\t\t\ti < RewardTokens.length;\n\t\t\ti = i.add(1)\n\t\t) {\n\n\t\t\tIWhitelistedRewardEmissionV2(_whitelistedRewardEmissionContract)\n\t\t\t\t.setRewardPoolUserTimestamp(\n\t\t\t\t\tholderAddress,\n\t\t\t\t\tRewardTokens[i],\n\t\t\t\t\taccountAddress,\n\t\t\t\t\tblock.timestamp\n\t\t\t\t);\n\n\t\t\t// dispatch the rewards for that specific token\n\t\t\tif (RewardAmounts[i] > 0) {\n\t\t\t\tIHolderV2(holderAddress).safeTransfer(\n\t\t\t\t\tRewardTokens[i],\n\t\t\t\t\taccountAddress,\n\t\t\t\t\tRewardAmounts[i]\n\t\t\t\t);\n\t\t\t}\n\t\t}\n\n\t\temit CalculateRewardsStakeLP(\n\t\t\tholderAddress,\n\t\t\tlpTokenAddress,\n\t\t\taccountAddress,\n\t\t\tRewardAmounts,\n\t\t\tRewardTokens,\n\t\t\tsTokenAddresses,\n\t\t\tblock.timestamp\n\t\t);\n\t}\n\n\t/*\n\t * @dev calculate liquidity and reward tokens and disburse to user\n\t * @param lpToken: lp token contract address\n\t * @param amount: token amount\n\t */\n\tfunction calculateSyncedRewards(address holderAddress)\n\t\tpublic\n\t\tvirtual\n\t\toverride\n\t\twhenNotPaused\n\t\treturns (\n\t\t\tuint256[] memory RewardAmounts,\n\t\t\taddress[] memory RewardTokens,\n\t\t\taddress[] memory sTokenAddresses,\n\t\t\taddress lpTokenAddress\n\t\t)\n\t{\n\t\t// check for validity of arguments\n\t\trequire(holderAddress != address(0), \"LP1\");\n\n\t\t// initiate calculateHolderRewards for all StokenAddress-whitelistedAddress pair that\n\t\t// comes under the holder contract\n\t\tIWhitelistedPTokenEmission(_whitelistedPTokenEmissionContract)\n\t\t\t.calculateAllHolderRewards(holderAddress);\n\n\t\t// now initiate the calculate Rewards to distribute to the user\n\t\t// calculate liquidity and reward tokens and disburse to user\n\t\t(\n\t\t\tRewardAmounts,\n\t\t\tRewardTokens,\n\t\t\tsTokenAddresses,\n\t\t\tlpTokenAddress\n\t\t) = _calculateRewards(holderAddress, _msgSender());\n\n\t\trequire(lpTokenAddress != address(0), \"LP2\");\n\n\t\temit TriggeredCalculateSyncedRewards(\n\t\t\tholderAddress,\n\t\t\t_msgSender(),\n\t\t\tRewardAmounts,\n\t\t\tRewardTokens,\n\t\t\tsTokenAddresses,\n\t\t\tblock.timestamp\n\t\t);\n\t}\n\n\t/*\n\t * @dev adding the liquidity\n\t * @param lpToken: lp token contract address\n\t * @param amount: token amount\n\t *\n\t * Emits a {AddLiquidity} event with 'lpToken, amount, rewards and liquidity'\n\t *\n\t */\n\tfunction addLiquidity(address holderAddress, uint256 amount)\n\t\tpublic\n\t\tvirtual\n\t\toverride\n\t\twhenNotPaused\n\t\treturns (bool success)\n\t{\n\t\t// directly call calculate Synced Rewards since all the require conditions are checked there\n\t\t(, , , address lpTokenAddress) = calculateSyncedRewards(holderAddress);\n\t\taddress messageSender = _msgSender();\n\n\t\t// update the user balance\n\t\t_lpBalance[lpTokenAddress][messageSender] = _lpBalance[lpTokenAddress][\n\t\t\tmessageSender\n\t\t].add(amount);\n\n\t\t// update the supply of lp tokens for reward and liquidity calculation\n\t\t_lpSupply[lpTokenAddress] = _lpSupply[lpTokenAddress].add(amount);\n\n\t\t// finally transfer the new LP Tokens to the StakeLP contract as per Checks-Effects-Interactions pattern\n\t\tTransferHelper.safeTransferFrom(\n\t\t\tlpTokenAddress,\n\t\t\tmessageSender,\n\t\t\taddress(this),\n\t\t\tamount\n\t\t);\n\n\t\t// emit an event\n\t\temit AddLiquidity(\n\t\t\tholderAddress,\n\t\t\tmessageSender,\n\t\t\tamount,\n\t\t\tblock.timestamp\n\t\t);\n\n\t\tsuccess = true;\n\t\treturn success;\n\t}\n\n\t/*\n\t * @dev removing the liquidity\n\t * @param lpToken: lp token contract address\n\t * @param amount: token amount\n\t *\n\t * Emits a {RemoveLiquidity} event with 'lpToken, amount, rewards and liquidity'\n\t *\n\t */\n\tfunction removeLiquidity(address holderAddress, uint256 amount)\n\t\tpublic\n\t\tvirtual\n\t\toverride\n\t\twhenNotPaused\n\t\tnonReentrant\n\t\treturns (bool success)\n\t{\n\t\t// directly call calculateSyncedRewards since all the require conditions are checked there\n\t\t(, , , address lpTokenAddress) = calculateSyncedRewards(holderAddress);\n\t\taddress messageSender = _msgSender();\n\n\t\t// check if suffecient balance is there\n\t\trequire(_lpBalance[lpTokenAddress][messageSender] >= amount, \"LP3\");\n\n\t\t// update the user balance\n\t\t_lpBalance[lpTokenAddress][messageSender] = _lpBalance[lpTokenAddress][\n\t\t\tmessageSender\n\t\t].sub(amount);\n\n\t\t// update the supply of lp tokens for reward and liquidity calculation\n\t\t_lpSupply[lpTokenAddress] = _lpSupply[lpTokenAddress].sub(amount);\n\n\t\t// finally transfer the LP Tokens to the user as per Checks-Effects-Interactions pattern\n\t\tTransferHelper.safeTransfer(lpTokenAddress, messageSender, amount);\n\n\t\temit RemoveLiquidity(\n\t\t\tholderAddress,\n\t\t\tmessageSender,\n\t\t\tamount,\n\t\t\tblock.timestamp\n\t\t);\n\n\t\tsuccess = true;\n\t\treturn success;\n\t}\n\n\t/**\n\t * @dev Set 'contract address', called from constructor\n\t *\n\t * Emits a {} event with '_contract' set to the stoken contract address.\n\t *\n\t */\n\tfunction setWhitelistedPTokenEmissionContract(\n\t\taddress whitelistedPTokenEmissionContract\n\t) public virtual override {\n\t\trequire(hasRole(DEFAULT_ADMIN_ROLE, _msgSender()), \"LP4\");\n\t\t_whitelistedPTokenEmissionContract = whitelistedPTokenEmissionContract;\n\t\temit SetWhitelistedPTokenEmissionContract(\n\t\t\twhitelistedPTokenEmissionContract\n\t\t);\n\t}\n\n\t/**\n\t * @dev Set 'contract address', called from constructor\n\t *\n\t * Emits a {} event with '_contract' set to the stoken contract address.\n\t *\n\t */\n\tfunction setWhitelistedRewardEmissionContract(\n\t\taddress whitelistedRewardEmissionContract\n\t) public virtual override {\n\t\trequire(hasRole(DEFAULT_ADMIN_ROLE, _msgSender()), \"LP5\");\n\t\t_whitelistedRewardEmissionContract = whitelistedRewardEmissionContract;\n\t\temit SetWhitelistedRewardEmissionContract(\n\t\t\twhitelistedRewardEmissionContract\n\t\t);\n\t}\n\n\t/**\n\t * @dev Triggers stopped state.\n\t *\n\t * Requirements:\n\t *\n\t * - The contract must not be paused.\n\t */\n\tfunction pause() public virtual override returns (bool success) {\n\t\trequire(hasRole(PAUSER_ROLE, _msgSender()), \"LP6\");\n\t\t_pause();\n\t\treturn true;\n\t}\n\n\t/**\n\t * @dev Returns to normal state.\n\t *\n\t * Requirements:\n\t *\n\t * - The contract must be paused.\n\t */\n\tfunction unpause() public virtual override returns (bool success) {\n\t\trequire(hasRole(PAUSER_ROLE, _msgSender()), \"LP7\");\n\t\t_unpause();\n\t\treturn true;\n\t}\n}\n",
  "sourcePath": "C:\\Users\\Kamlesh\\Persistence\\pStake\\codebase\\pStake-smartContracts\\contracts\\StakeLPV2.sol",
  "compiler": {
    "name": "solc",
    "version": "0.7.6+commit.7338295f.Emscripten.clang"
  },
  "schemaVersion": "3.4.3",
  "updatedAt": "2022-03-20T15:00:13.172Z",
  "devdoc": {
    "kind": "dev",
    "methods": {
      "addLiquidity(address,uint256)": {
        "details": "adds liquidity Returns a uint256"
      },
      "getRoleAdmin(bytes32)": {
        "details": "Returns the admin role that controls `role`. See {grantRole} and {revokeRole}. To change a role's admin, use {_setRoleAdmin}."
      },
      "getRoleMember(bytes32,uint256)": {
        "details": "Returns one of the accounts that have `role`. `index` must be a value between 0 and {getRoleMemberCount}, non-inclusive. Role bearers are not sorted in any particular way, and their ordering may change at any point. WARNING: When using {getRoleMember} and {getRoleMemberCount}, make sure you perform all queries on the same block. See the following https://forum.openzeppelin.com/t/iterating-over-elements-on-enumerableset-in-openzeppelin-contracts/2296[forum post] for more information."
      },
      "getRoleMemberCount(bytes32)": {
        "details": "Returns the number of accounts that have `role`. Can be used together with {getRoleMember} to enumerate all bearers of a role."
      },
      "grantRole(bytes32,address)": {
        "details": "Grants `role` to `account`. If `account` had not been already granted `role`, emits a {RoleGranted} event. Requirements: - the caller must have ``role``'s admin role."
      },
      "hasRole(bytes32,address)": {
        "details": "Returns `true` if `account` has been granted `role`."
      },
      "initialize(address,address,address,uint256)": {
        "details": "Constructor for initializing the LiquidStaking contract."
      },
      "pause()": {
        "details": "Triggers stopped state. Requirements: - The contract must not be paused."
      },
      "paused()": {
        "details": "Returns true if the contract is paused, and false otherwise."
      },
      "removeLiquidity(address,uint256)": {
        "details": "remove liquidity Returns a uint256"
      },
      "renounceRole(bytes32,address)": {
        "details": "Revokes `role` from the calling account. Roles are often managed via {grantRole} and {revokeRole}: this function's purpose is to provide a mechanism for accounts to lose their privileges if they are compromised (such as when a trusted device is misplaced). If the calling account had been granted `role`, emits a {RoleRevoked} event. Requirements: - the caller must be `account`."
      },
      "revokeRole(bytes32,address)": {
        "details": "Revokes `role` from `account`. If `account` had been granted `role`, emits a {RoleRevoked} event. Requirements: - the caller must have ``role``'s admin role."
      },
      "setWhitelistedPTokenEmissionContract(address)": {
        "details": "Set 'contract address', called from constructor Emits a {} event with '_contract' set to the stoken contract address."
      },
      "setWhitelistedRewardEmissionContract(address)": {
        "details": "Set 'contract address', called from constructor Emits a {} event with '_contract' set to the stoken contract address."
      },
      "unpause()": {
        "details": "Returns to normal state. Requirements: - The contract must be paused."
      }
    },
    "version": 1
  },
  "userdoc": {
    "kind": "user",
    "methods": {},
    "version": 1
  }
}