{
  "contractName": "StakeLPV4",
  "abi": [
    {
      "anonymous": false,
      "inputs": [
        {
          "indexed": false,
          "internalType": "address",
          "name": "holderAddress",
          "type": "address"
        },
        {
          "indexed": false,
          "internalType": "address",
          "name": "accountAddress",
          "type": "address"
        },
        {
          "indexed": false,
          "internalType": "uint256",
          "name": "tokens",
          "type": "uint256"
        },
        {
          "indexed": false,
          "internalType": "uint256",
          "name": "timestamp",
          "type": "uint256"
        }
      ],
      "name": "AddLiquidity",
      "type": "event"
    },
    {
      "anonymous": false,
      "inputs": [
        {
          "indexed": false,
          "internalType": "address",
          "name": "holderAddress",
          "type": "address"
        },
        {
          "indexed": false,
          "internalType": "address",
          "name": "lpToken",
          "type": "address"
        },
        {
          "indexed": false,
          "internalType": "address",
          "name": "accountAddress",
          "type": "address"
        },
        {
          "indexed": false,
          "internalType": "uint256[]",
          "name": "RewardAmounts",
          "type": "uint256[]"
        },
        {
          "indexed": false,
          "internalType": "address[]",
          "name": "RewardTokens",
          "type": "address[]"
        },
        {
          "indexed": false,
          "internalType": "address[]",
          "name": "sTokenAddresses",
          "type": "address[]"
        },
        {
          "indexed": false,
          "internalType": "uint256",
          "name": "timestamp",
          "type": "uint256"
        }
      ],
      "name": "CalculateRewardsStakeLP",
      "type": "event"
    },
    {
      "anonymous": false,
      "inputs": [
        {
          "indexed": false,
          "internalType": "address",
          "name": "account",
          "type": "address"
        }
      ],
      "name": "Paused",
      "type": "event"
    },
    {
      "anonymous": false,
      "inputs": [
        {
          "indexed": false,
          "internalType": "address",
          "name": "holderAddress",
          "type": "address"
        },
        {
          "indexed": false,
          "internalType": "address",
          "name": "accountAddress",
          "type": "address"
        },
        {
          "indexed": false,
          "internalType": "uint256",
          "name": "tokens",
          "type": "uint256"
        },
        {
          "indexed": false,
          "internalType": "uint256",
          "name": "timestamp",
          "type": "uint256"
        }
      ],
      "name": "RemoveLiquidity",
      "type": "event"
    },
    {
      "anonymous": false,
      "inputs": [
        {
          "indexed": true,
          "internalType": "bytes32",
          "name": "role",
          "type": "bytes32"
        },
        {
          "indexed": true,
          "internalType": "bytes32",
          "name": "previousAdminRole",
          "type": "bytes32"
        },
        {
          "indexed": true,
          "internalType": "bytes32",
          "name": "newAdminRole",
          "type": "bytes32"
        }
      ],
      "name": "RoleAdminChanged",
      "type": "event"
    },
    {
      "anonymous": false,
      "inputs": [
        {
          "indexed": true,
          "internalType": "bytes32",
          "name": "role",
          "type": "bytes32"
        },
        {
          "indexed": true,
          "internalType": "address",
          "name": "account",
          "type": "address"
        },
        {
          "indexed": true,
          "internalType": "address",
          "name": "sender",
          "type": "address"
        }
      ],
      "name": "RoleGranted",
      "type": "event"
    },
    {
      "anonymous": false,
      "inputs": [
        {
          "indexed": true,
          "internalType": "bytes32",
          "name": "role",
          "type": "bytes32"
        },
        {
          "indexed": true,
          "internalType": "address",
          "name": "account",
          "type": "address"
        },
        {
          "indexed": true,
          "internalType": "address",
          "name": "sender",
          "type": "address"
        }
      ],
      "name": "RoleRevoked",
      "type": "event"
    },
    {
      "anonymous": false,
      "inputs": [
        {
          "indexed": true,
          "internalType": "address",
          "name": "_contract",
          "type": "address"
        }
      ],
      "name": "SetWhitelistedPTokenEmissionContract",
      "type": "event"
    },
    {
      "anonymous": false,
      "inputs": [
        {
          "indexed": true,
          "internalType": "address",
          "name": "_contract",
          "type": "address"
        }
      ],
      "name": "SetWhitelistedRewardEmissionContract",
      "type": "event"
    },
    {
      "anonymous": false,
      "inputs": [
        {
          "indexed": false,
          "internalType": "address",
          "name": "holderAddress",
          "type": "address"
        },
        {
          "indexed": false,
          "internalType": "address",
          "name": "accountAddress",
          "type": "address"
        },
        {
          "indexed": false,
          "internalType": "uint256[]",
          "name": "RewardAmounts",
          "type": "uint256[]"
        },
        {
          "indexed": false,
          "internalType": "address[]",
          "name": "RewardTokens",
          "type": "address[]"
        },
        {
          "indexed": false,
          "internalType": "address[]",
          "name": "sTokenAddresses",
          "type": "address[]"
        },
        {
          "indexed": false,
          "internalType": "uint256",
          "name": "timestamp",
          "type": "uint256"
        }
      ],
      "name": "TriggeredCalculateSyncedRewards",
      "type": "event"
    },
    {
      "anonymous": false,
      "inputs": [
        {
          "indexed": false,
          "internalType": "address",
          "name": "account",
          "type": "address"
        }
      ],
      "name": "Unpaused",
      "type": "event"
    },
    {
      "inputs": [],
      "name": "DEFAULT_ADMIN_ROLE",
      "outputs": [
        {
          "internalType": "bytes32",
          "name": "",
          "type": "bytes32"
        }
      ],
      "stateMutability": "view",
      "type": "function"
    },
    {
      "inputs": [],
      "name": "PAUSER_ROLE",
      "outputs": [
        {
          "internalType": "bytes32",
          "name": "",
          "type": "bytes32"
        }
      ],
      "stateMutability": "view",
      "type": "function"
    },
    {
      "inputs": [
        {
          "internalType": "address",
          "name": "",
          "type": "address"
        }
      ],
      "name": "_lastLPTimeShare",
      "outputs": [
        {
          "internalType": "uint256",
          "name": "",
          "type": "uint256"
        }
      ],
      "stateMutability": "view",
      "type": "function"
    },
    {
      "inputs": [
        {
          "internalType": "address",
          "name": "",
          "type": "address"
        },
        {
          "internalType": "address",
          "name": "",
          "type": "address"
        }
      ],
      "name": "_lastLiquidityTimestamp",
      "outputs": [
        {
          "internalType": "uint256",
          "name": "",
          "type": "uint256"
        }
      ],
      "stateMutability": "view",
      "type": "function"
    },
    {
      "inputs": [
        {
          "internalType": "address",
          "name": "",
          "type": "address"
        },
        {
          "internalType": "address",
          "name": "",
          "type": "address"
        }
      ],
      "name": "_lpBalance",
      "outputs": [
        {
          "internalType": "uint256",
          "name": "",
          "type": "uint256"
        }
      ],
      "stateMutability": "view",
      "type": "function"
    },
    {
      "inputs": [
        {
          "internalType": "address",
          "name": "",
          "type": "address"
        }
      ],
      "name": "_lpSupply",
      "outputs": [
        {
          "internalType": "uint256",
          "name": "",
          "type": "uint256"
        }
      ],
      "stateMutability": "view",
      "type": "function"
    },
    {
      "inputs": [],
      "name": "_valueDivisor",
      "outputs": [
        {
          "internalType": "uint256",
          "name": "",
          "type": "uint256"
        }
      ],
      "stateMutability": "view",
      "type": "function"
    },
    {
      "inputs": [],
      "name": "_version",
      "outputs": [
        {
          "internalType": "uint256",
          "name": "",
          "type": "uint256"
        }
      ],
      "stateMutability": "view",
      "type": "function"
    },
    {
      "inputs": [],
      "name": "_whitelistedPTokenEmissionContract",
      "outputs": [
        {
          "internalType": "address",
          "name": "",
          "type": "address"
        }
      ],
      "stateMutability": "view",
      "type": "function"
    },
    {
      "inputs": [],
      "name": "_whitelistedRewardEmissionContract",
      "outputs": [
        {
          "internalType": "address",
          "name": "",
          "type": "address"
        }
      ],
      "stateMutability": "view",
      "type": "function"
    },
    {
      "inputs": [
        {
          "internalType": "bytes32",
          "name": "role",
          "type": "bytes32"
        }
      ],
      "name": "getRoleAdmin",
      "outputs": [
        {
          "internalType": "bytes32",
          "name": "",
          "type": "bytes32"
        }
      ],
      "stateMutability": "view",
      "type": "function"
    },
    {
      "inputs": [
        {
          "internalType": "bytes32",
          "name": "role",
          "type": "bytes32"
        },
        {
          "internalType": "uint256",
          "name": "index",
          "type": "uint256"
        }
      ],
      "name": "getRoleMember",
      "outputs": [
        {
          "internalType": "address",
          "name": "",
          "type": "address"
        }
      ],
      "stateMutability": "view",
      "type": "function"
    },
    {
      "inputs": [
        {
          "internalType": "bytes32",
          "name": "role",
          "type": "bytes32"
        }
      ],
      "name": "getRoleMemberCount",
      "outputs": [
        {
          "internalType": "uint256",
          "name": "",
          "type": "uint256"
        }
      ],
      "stateMutability": "view",
      "type": "function"
    },
    {
      "inputs": [
        {
          "internalType": "bytes32",
          "name": "role",
          "type": "bytes32"
        },
        {
          "internalType": "address",
          "name": "account",
          "type": "address"
        }
      ],
      "name": "grantRole",
      "outputs": [],
      "stateMutability": "nonpayable",
      "type": "function"
    },
    {
      "inputs": [
        {
          "internalType": "bytes32",
          "name": "role",
          "type": "bytes32"
        },
        {
          "internalType": "address",
          "name": "account",
          "type": "address"
        }
      ],
      "name": "hasRole",
      "outputs": [
        {
          "internalType": "bool",
          "name": "",
          "type": "bool"
        }
      ],
      "stateMutability": "view",
      "type": "function"
    },
    {
      "inputs": [],
      "name": "paused",
      "outputs": [
        {
          "internalType": "bool",
          "name": "",
          "type": "bool"
        }
      ],
      "stateMutability": "view",
      "type": "function"
    },
    {
      "inputs": [
        {
          "internalType": "bytes32",
          "name": "role",
          "type": "bytes32"
        },
        {
          "internalType": "address",
          "name": "account",
          "type": "address"
        }
      ],
      "name": "renounceRole",
      "outputs": [],
      "stateMutability": "nonpayable",
      "type": "function"
    },
    {
      "inputs": [
        {
          "internalType": "bytes32",
          "name": "role",
          "type": "bytes32"
        },
        {
          "internalType": "address",
          "name": "account",
          "type": "address"
        }
      ],
      "name": "revokeRole",
      "outputs": [],
      "stateMutability": "nonpayable",
      "type": "function"
    },
    {
      "inputs": [
        {
          "internalType": "address",
          "name": "pauserAddress",
          "type": "address"
        },
        {
          "internalType": "address",
          "name": "whitelistedPTokenEmissionContract",
          "type": "address"
        },
        {
          "internalType": "address",
          "name": "whitelistedRewardEmissionContract",
          "type": "address"
        },
        {
          "internalType": "uint256",
          "name": "valueDivisor",
          "type": "uint256"
        }
      ],
      "name": "initialize",
      "outputs": [],
      "stateMutability": "nonpayable",
      "type": "function"
    },
    {
      "inputs": [
        {
          "internalType": "address",
          "name": "holderAddress",
          "type": "address"
        },
        {
          "internalType": "address",
          "name": "accountAddress",
          "type": "address"
        }
      ],
      "name": "calculatePendingRewards",
      "outputs": [
        {
          "internalType": "uint256[]",
          "name": "rewardAmounts",
          "type": "uint256[]"
        },
        {
          "internalType": "address[]",
          "name": "rewardTokens",
          "type": "address[]"
        },
        {
          "internalType": "address[]",
          "name": "sTokenAddresses",
          "type": "address[]"
        },
        {
          "internalType": "address",
          "name": "lpTokenAddress",
          "type": "address"
        },
        {
          "internalType": "uint256",
          "name": "updatedSupplyLPTimeshare",
          "type": "uint256"
        },
        {
          "internalType": "uint256",
          "name": "newSupplyLPTimeShare",
          "type": "uint256"
        }
      ],
      "stateMutability": "view",
      "type": "function"
    },
    {
      "inputs": [
        {
          "internalType": "address",
          "name": "holderAddress",
          "type": "address"
        }
      ],
      "name": "calculateSyncedRewards",
      "outputs": [
        {
          "internalType": "uint256[]",
          "name": "RewardAmounts",
          "type": "uint256[]"
        },
        {
          "internalType": "address[]",
          "name": "RewardTokens",
          "type": "address[]"
        },
        {
          "internalType": "address[]",
          "name": "sTokenAddresses",
          "type": "address[]"
        },
        {
          "internalType": "address",
          "name": "lpTokenAddress",
          "type": "address"
        }
      ],
      "stateMutability": "nonpayable",
      "type": "function"
    },
    {
      "inputs": [
        {
          "internalType": "address",
          "name": "holderAddress",
          "type": "address"
        },
        {
          "internalType": "uint256",
          "name": "amount",
          "type": "uint256"
        }
      ],
      "name": "addLiquidity",
      "outputs": [
        {
          "internalType": "bool",
          "name": "success",
          "type": "bool"
        }
      ],
      "stateMutability": "nonpayable",
      "type": "function"
    },
    {
      "inputs": [
        {
          "internalType": "address",
          "name": "holderAddress",
          "type": "address"
        },
        {
          "internalType": "uint256",
          "name": "amount",
          "type": "uint256"
        }
      ],
      "name": "removeLiquidity",
      "outputs": [
        {
          "internalType": "bool",
          "name": "success",
          "type": "bool"
        }
      ],
      "stateMutability": "nonpayable",
      "type": "function"
    },
    {
      "inputs": [
        {
          "internalType": "address",
          "name": "whitelistedPTokenEmissionContract",
          "type": "address"
        }
      ],
      "name": "setWhitelistedPTokenEmissionContract",
      "outputs": [],
      "stateMutability": "nonpayable",
      "type": "function"
    },
    {
      "inputs": [
        {
          "internalType": "address",
          "name": "whitelistedRewardEmissionContract",
          "type": "address"
        }
      ],
      "name": "setWhitelistedRewardEmissionContract",
      "outputs": [],
      "stateMutability": "nonpayable",
      "type": "function"
    },
    {
      "inputs": [],
      "name": "pause",
      "outputs": [
        {
          "internalType": "bool",
          "name": "success",
          "type": "bool"
        }
      ],
      "stateMutability": "nonpayable",
      "type": "function"
    },
    {
      "inputs": [],
      "name": "unpause",
      "outputs": [
        {
          "internalType": "bool",
          "name": "success",
          "type": "bool"
        }
      ],
      "stateMutability": "nonpayable",
      "type": "function"
    }
  ],
  "bytecode": "0x608060405234801561001057600080fd5b506132af806100206000396000f3fe608060405234801561001057600080fd5b50600436106101a95760003560e01c80639010d07c116100f9578063c0818a5211610097578063cf756fdf11610071578063cf756fdf14610677578063d547741f146106b3578063e63ab1e9146106df578063f38c3111146106e7576101a9565b8063c0818a5214610606578063ca15c8731461062c578063cce3dffd14610649576101a9565b8063a201ccf6116100d3578063a201ccf61461059c578063a217fddf146105c8578063b29bad13146105d0578063b6c38b95146105fe576101a9565b80639010d07c1461052757806391d148541461054a5780639933d9ac14610576576101a9565b80633f4ba83a116101665780635c975abb116101405780635c975abb146103e5578063670cc9e4146103ed578063728a99ee146105175780638456cb591461051f576101a9565b80633f4ba83a1461037757806345d644cd1461039357806356688700146103b9576101a9565b8063184be35a146101ae578063248a9ca3146101d25780632cea1dce146102015780632f2ff15d1461031557806336568abe146103435780633e118dbe1461036f575b600080fd5b6101b661070d565b604080516001600160a01b039092168252519081900360200190f35b6101ef600480360360208110156101e857600080fd5b503561071c565b60408051918252519081900360200190f35b6102276004803603602081101561021757600080fd5b50356001600160a01b0316610731565b60405180806020018060200180602001856001600160a01b03168152602001848103845288818151815260200191508051906020019060200280838360005b8381101561027e578181015183820152602001610266565b50505050905001848103835287818151815260200191508051906020019060200280838360005b838110156102bd5781810151838201526020016102a5565b50505050905001848103825286818151815260200191508051906020019060200280838360005b838110156102fc5781810151838201526020016102e4565b5050505090500197505050505050505060405180910390f35b6103416004803603604081101561032b57600080fd5b50803590602001356001600160a01b0316610be9565b005b6103416004803603604081101561035957600080fd5b50803590602001356001600160a01b0316610c55565b6101ef610cb6565b61037f610cbc565b604080519115158252519081900360200190f35b6101ef600480360360208110156103a957600080fd5b50356001600160a01b0316610d1d565b61037f600480360360408110156103cf57600080fd5b506001600160a01b038135169060200135610d2f565b61037f610ef1565b61041b6004803603604081101561040357600080fd5b506001600160a01b0381358116916020013516610efa565b60405180806020018060200180602001876001600160a01b0316815260200186815260200185815260200184810384528a818151815260200191508051906020019060200280838360005b8381101561047e578181015183820152602001610466565b50505050905001848103835289818151815260200191508051906020019060200280838360005b838110156104bd5781810151838201526020016104a5565b50505050905001848103825288818151815260200191508051906020019060200280838360005b838110156104fc5781810151838201526020016104e4565b50505050905001995050505050505050505060405180910390f35b6101ef61159c565b61037f6115a2565b6101b66004803603604081101561053d57600080fd5b50803590602001356115fd565b61037f6004803603604081101561056057600080fd5b50803590602001356001600160a01b031661161e565b6103416004803603602081101561058c57600080fd5b50356001600160a01b0316611636565b61037f600480360360408110156105b257600080fd5b506001600160a01b038135169060200135611708565b6101ef611929565b6101ef600480360360408110156105e657600080fd5b506001600160a01b038135811691602001351661192e565b6101b661194b565b6101ef6004803603602081101561061c57600080fd5b50356001600160a01b031661195a565b6101ef6004803603602081101561064257600080fd5b503561196c565b6101ef6004803603604081101561065f57600080fd5b506001600160a01b0381358116916020013516611983565b6103416004803603608081101561068d57600080fd5b506001600160a01b038135811691602081013582169160408201351690606001356119a0565b610341600480360360408110156106c957600080fd5b50803590602001356001600160a01b0316611ab5565b6101ef611b0e565b610341600480360360208110156106fd57600080fd5b50356001600160a01b0316611b20565b60cf546001600160a01b031681565b60009081526065602052604090206002015490565b60608060606000610740610ef1565b15610785576040805162461bcd60e51b815260206004820152601060248201526f14185d5cd8589b194e881c185d5cd95960821b604482015290519081900360640190fd5b600260975414156107dd576040805162461bcd60e51b815260206004820152601f60248201527f5265656e7472616e637947756172643a207265656e7472616e742063616c6c00604482015290519081900360640190fd5b60026097556001600160a01b038516610823576040805162461bcd60e51b81526020600482015260036024820152624c503160e81b604482015290519081900360640190fd5b60cf5460408051631fb55e5760e31b81526001600160a01b0388811660048301529151919092169163fdaaf2b891602480830192600092919082900301818387803b15801561087157600080fd5b505af1158015610885573d6000803e3d6000fd5b505050506040513d6000823e601f3d908101601f1916820160405260808110156108ae57600080fd5b8101908080516040519392919084600160201b8211156108cd57600080fd5b9083019060208201858111156108e257600080fd5b82518660208202830111600160201b821117156108fe57600080fd5b82525081516020918201928201910280838360005b8381101561092b578181015183820152602001610913565b5050505090500160405260200180516040519392919084600160201b82111561095357600080fd5b90830190602082018581111561096857600080fd5b82518660208202830111600160201b8211171561098457600080fd5b82525081516020918201928201910280838360005b838110156109b1578181015183820152602001610999565b5050505090500160405260200180516040519392919084600160201b8211156109d957600080fd5b9083019060208201858111156109ee57600080fd5b82518660208202830111600160201b82111715610a0a57600080fd5b82525081516020918201928201910280838360005b83811015610a37578181015183820152602001610a1f565b505050509190910160405250610a5e95508a9450610a599350611bef92505050565b611bf3565b929650909450925090506001600160a01b038116610aa9576040805162461bcd60e51b815260206004820152600360248201526226281960e91b604482015290519081900360640190fd5b7fd8437fef35403d5c2d58667657c9c811886bc04533fb117d2a597ab18df7803a85610ad3611bef565b8686864260405180876001600160a01b03168152602001866001600160a01b03168152602001806020018060200180602001858152602001848103845288818151815260200191508051906020019060200280838360005b83811015610b43578181015183820152602001610b2b565b50505050905001848103835287818151815260200191508051906020019060200280838360005b83811015610b82578181015183820152602001610b6a565b50505050905001848103825286818151815260200191508051906020019060200280838360005b83811015610bc1578181015183820152602001610ba9565b50505050905001995050505050505050505060405180910390a1600160975592949193509190565b600082815260656020526040902060020154610c0c90610c07611bef565b61161e565b610c475760405162461bcd60e51b815260040180806020018281038252602f81526020018061312d602f913960400191505060405180910390fd5b610c518282612181565b5050565b610c5d611bef565b6001600160a01b0316816001600160a01b031614610cac5760405162461bcd60e51b815260040180806020018281038252602f81526020018061324b602f913960400191505060405180910390fd5b610c5182826121ea565b60ca5481565b6000610cd8600080516020613201833981519152610c07611bef565b610d0f576040805162461bcd60e51b81526020600482015260036024820152624c503760e81b604482015290519081900360640190fd5b610d17612253565b50600190565b60cc6020526000908152604090205481565b6000610d39610ef1565b15610d7e576040805162461bcd60e51b815260206004820152601060248201526f14185d5cd8589b194e881c185d5cd95960821b604482015290519081900360640190fd5b60026097541415610dd6576040805162461bcd60e51b815260206004820152601f60248201527f5265656e7472616e637947756172643a207265656e7472616e742063616c6c00604482015290519081900360640190fd5b60026097556000610de684610731565b93505050506000610df5611bef565b6001600160a01b03808416600090815260cb6020908152604080832093851683529290522054909150610e2890856122f3565b6001600160a01b03808416600081815260cb6020908152604080832094871683529381528382209490945590815260cc909252902054610e6890856122f3565b6001600160a01b038316600081815260cc6020526040902091909155610e909082308761234d565b604080516001600160a01b0380881682528316602082015280820186905242606082015290517fd2491a9b4fe81a7cd4511e8b7b7743951b061dad5bed7da8a7795b080ee08c7e9181900360800190a1600192505050600160975592915050565b60335460ff1690565b60608060606000806000806000606060cf60009054906101000a90046001600160a01b03166001600160a01b031663cad086558c6040518263ffffffff1660e01b815260040180826001600160a01b0316815260200191505060006040518083038186803b158015610f6b57600080fd5b505afa158015610f7f573d6000803e3d6000fd5b505050506040513d6000823e601f3d908101601f191682016040526080811015610fa857600080fd5b8101908080516040519392919084600160201b821115610fc757600080fd5b908301906020820185811115610fdc57600080fd5b82518660208202830111600160201b82111715610ff857600080fd5b82525081516020918201928201910280838360005b8381101561102557818101518382015260200161100d565b5050505090500160405260200180516040519392919084600160201b82111561104d57600080fd5b90830190602082018581111561106257600080fd5b82518660208202830111600160201b8211171561107e57600080fd5b82525081516020918201928201910280838360005b838110156110ab578181015183820152602001611093565b5050505090500160405260200180516040519392919084600160201b8211156110d357600080fd5b9083019060208201858111156110e857600080fd5b82518660208202830111600160201b8211171561110457600080fd5b82525081516020918201928201910280838360005b83811015611131578181015183820152602001611119565b50505050919091016040525060200151939b509299509293505050506001600160a01b038b16158061116a57506001600160a01b038616155b8061117c57506001600160a01b038a16155b1561118957505050611592565b60cb6000876001600160a01b03166001600160a01b0316815260200190815260200160002060008b6001600160a01b03166001600160a01b0316815260200190815260200160002054925060cc6000876001600160a01b03166001600160a01b0316815260200190815260200160002054915060008060d060009054906101000a90046001600160a01b03166001600160a01b031663c2b4ff798e8a8f89896040518663ffffffff1660e01b815260040180866001600160a01b03168152602001856001600160a01b03168152602001846001600160a01b031681526020018381526020018281526020019550505050505060006040518083038186803b15801561129357600080fd5b505afa1580156112a7573d6000803e3d6000fd5b505050506040513d6000823e601f3d908101601f1916820160409081528110156112d057600080fd5b8101908080516040519392919084600160201b8211156112ef57600080fd5b90830190602082018581111561130457600080fd5b82518660208202830111600160201b8211171561132057600080fd5b82525081516020918201928201910280838360005b8381101561134d578181015183820152602001611335565b5050505090500160405260200180516040519392919084600160201b82111561137557600080fd5b90830190602082018581111561138a57600080fd5b82518660208202830111600160201b821117156113a657600080fd5b82525081516020918201928201910280838360005b838110156113d35781810151838201526020016113bb565b505050509050016040525050509150915061149961144260ce60008b6001600160a01b03166001600160a01b0316815260200190815260200160002060008f6001600160a01b03166001600160a01b0316815260200190815260200160002054426123ad90919063ffffffff16565b60cb60008b6001600160a01b03166001600160a01b0316815260200190815260200160002060008f6001600160a01b03166001600160a01b031681526020019081526020016000205461240a90919063ffffffff16565b60d0546040805163690a410d60e01b81526001600160a01b038c8116600483015291519398506115449361152593929092169163690a410d91602480820192602092909190829003018186803b1580156114f257600080fd5b505afa158015611506573d6000803e3d6000fd5b505050506040513d602081101561151c57600080fd5b505142906123ad565b6001600160a01b038a16600090815260cc60205260409020549061240a565b6001600160a01b038916600090815260cd602052604090205490965061156a90876122f3565b935061157684866123ad565b96506115878d8a8588888787612463565b909b50995050505050505b9295509295509295565b60c95481565b60006115be600080516020613201833981519152610c07611bef565b6115f5576040805162461bcd60e51b815260206004820152600360248201526226281b60e91b604482015290519081900360640190fd5b610d1761277a565b600082815260656020526040812061161590836127fd565b90505b92915050565b60008281526065602052604081206116159083612809565b6116436000610c07611bef565b61167a576040805162461bcd60e51b815260206004820152600360248201526213140d60ea1b604482015290519081900360640190fd5b6001600160a01b0381166116be576040805162461bcd60e51b8152602060048083019190915260248201526304c5031360e41b604482015290519081900360640190fd5b60cf80546001600160a01b0319166001600160a01b0383169081179091556040517f441e6cdc468501bb6d17b30034ba7dd543768146de1cf17f59b7f555cd57716090600090a250565b6000611712610ef1565b15611757576040805162461bcd60e51b815260206004820152601060248201526f14185d5cd8589b194e881c185d5cd95960821b604482015290519081900360640190fd5b600260975414156117af576040805162461bcd60e51b815260206004820152601f60248201527f5265656e7472616e637947756172643a207265656e7472616e742063616c6c00604482015290519081900360640190fd5b600260975560006117bf84610731565b935050505060006117ce611bef565b6001600160a01b03808416600090815260cb6020908152604080832093851683529290522054909150841115611831576040805162461bcd60e51b81526020600482015260036024820152624c503360e81b604482015290519081900360640190fd5b6001600160a01b03808316600090815260cb602090815260408083209385168352929052205461186190856123ad565b6001600160a01b03808416600081815260cb6020908152604080832094871683529381528382209490945590815260cc9092529020546118a190856123ad565b6001600160a01b038316600081815260cc60205260409020919091556118c890828661281e565b604080516001600160a01b0380881682528316602082015280820186905242606082015290517f34ef8e86237e7385b43618862e895c6ce827b2b7d6107ad415d54336c1dd2dd69181900360800190a1600192505050600160975592915050565b600081565b60ce60209081526000928352604080842090915290825290205481565b60d0546001600160a01b031681565b60cd6020526000908152604090205481565b600081815260656020526040812061161890612875565b60cb60209081526000928352604080842090915290825290205481565b600054610100900460ff16806119b957506119b9612880565b806119c7575060005460ff16155b611a025760405162461bcd60e51b815260040180806020018281038252602e8152602001806131b2602e913960400191505060405180910390fd5b600054610100900460ff16158015611a2d576000805460ff1961ff0019909116610100171660011790555b611a35612891565b611a3d612943565b611a4f6000611a4a611bef565b610c47565b611a6760008051602061320183398151915286610c47565b60cf80546001600160a01b038087166001600160a01b03199283161790925560d080549286169290911691909117905560c98290558015611aae576000805461ff00191690555b5050505050565b600082815260656020526040902060020154611ad390610c07611bef565b610cac5760405162461bcd60e51b81526004018080602001828103825260308152602001806131826030913960400191505060405180910390fd5b60008051602061320183398151915281565b611b2d6000610c07611bef565b611b64576040805162461bcd60e51b81526020600482015260036024820152624c503560e81b604482015290519081900360640190fd5b6001600160a01b038116611ba5576040805162461bcd60e51b8152602060048201526003602482015262098a0760eb1b604482015290519081900360640190fd5b60d080546001600160a01b0319166001600160a01b0383169081179091556040517f022a965d0443786961dccee31f081c7792992cfc3eb0c84cc7556aedf68c5f5490600090a250565b3390565b6060806060600080600080611c088989610efa565b809750819850829950839a50849b50859c505050505050504260ce6000866001600160a01b03166001600160a01b0316815260200190815260200160002060008a6001600160a01b03166001600160a01b03168152602001908152602001600020819055508260cd6000866001600160a01b03166001600160a01b031681526020019081526020016000208190555060d060009054906101000a90046001600160a01b03166001600160a01b0316638a836cc085846040518363ffffffff1660e01b815260040180836001600160a01b0316815260200182815260200192505050602060405180830381600087803b158015611d0357600080fd5b505af1158015611d17573d6000803e3d6000fd5b505050506040513d6020811015611d2d57600080fd5b505060d0546040805163242ed04360e21b81526001600160a01b038781166004830152426024830152915191909216916390bb410c9160448083019260209291908290030181600087803b158015611d8457600080fd5b505af1158015611d98573d6000803e3d6000fd5b505050506040513d6020811015611dae57600080fd5b5060009150505b8451811015611e93576000878281518110611dcc57fe5b60200260200101511115611e8157886001600160a01b031663d1660f99878381518110611df557fe5b60200260200101518a8a8581518110611e0a57fe5b60200260200101516040518463ffffffff1660e01b815260040180846001600160a01b03168152602001836001600160a01b031681526020018281526020019350505050600060405180830381600087803b158015611e6857600080fd5b505af1158015611e7c573d6000803e3d6000fd5b505050505b611e8c8160016122f3565b9050611db5565b5083515b85518110156120395760d05486516001600160a01b039091169063b0871ac0908b90899085908110611ec557fe5b60200260200101518b426040518563ffffffff1660e01b815260040180856001600160a01b03168152602001846001600160a01b03168152602001836001600160a01b03168152602001828152602001945050505050602060405180830381600087803b158015611f3557600080fd5b505af1158015611f49573d6000803e3d6000fd5b505050506040513d6020811015611f5f57600080fd5b50508651600090889083908110611f7257fe5b6020026020010151111561202757886001600160a01b031663d1660f99878381518110611f9b57fe5b60200260200101518a8a8581518110611fb057fe5b60200260200101516040518463ffffffff1660e01b815260040180846001600160a01b03168152602001836001600160a01b031681526020018281526020019350505050600060405180830381600087803b15801561200e57600080fd5b505af1158015612022573d6000803e3d6000fd5b505050505b6120328160016122f3565b9050611e97565b7f24afb6b4a2af750a390ae7c0f3ff21d440ead1836cff28e1f90a4497f8ce574b89858a8a8a8a4260405180886001600160a01b03168152602001876001600160a01b03168152602001866001600160a01b03168152602001806020018060200180602001858152602001848103845288818151815260200191508051906020019060200280838360005b838110156120dc5781810151838201526020016120c4565b50505050905001848103835287818151815260200191508051906020019060200280838360005b8381101561211b578181015183820152602001612103565b50505050905001848103825286818151815260200191508051906020019060200280838360005b8381101561215a578181015183820152602001612142565b505050509050019a505050505050505050505060405180910390a150505092959194509250565b600082815260656020526040902061219990826129e0565b15610c51576121a6611bef565b6001600160a01b0316816001600160a01b0316837f2f8788117e7eff1d82e926ec794901d17c78024a50270940304540a733656f0d60405160405180910390a45050565b600082815260656020526040902061220290826129f5565b15610c515761220f611bef565b6001600160a01b0316816001600160a01b0316837ff6391f5c32d9c69d2a47ea670b442974b53935d1edc7fd64eb21e047a839171b60405160405180910390a45050565b61225b610ef1565b6122a3576040805162461bcd60e51b815260206004820152601460248201527314185d5cd8589b194e881b9bdd081c185d5cd95960621b604482015290519081900360640190fd5b6033805460ff191690557f5db9ee0a495bf2e6ff9c91a7834c1ba4fdd244a5e8aa4e537bd38aeae4b073aa6122d6611bef565b604080516001600160a01b039092168252519081900360200190a1565b600082820183811015611615576040805162461bcd60e51b815260206004820152601b60248201527f536166654d6174683a206164646974696f6e206f766572666c6f770000000000604482015290519081900360640190fd5b604080516001600160a01b0380861660248301528416604482015260648082018490528251808303909101815260849091019091526020810180516001600160e01b03166323b872dd60e01b1790526123a7908590612a0a565b50505050565b600082821115612404576040805162461bcd60e51b815260206004820152601e60248201527f536166654d6174683a207375627472616374696f6e206f766572666c6f770000604482015290519081900360640190fd5b50900390565b60008261241957506000611618565b8282028284828161242657fe5b04146116155760405162461bcd60e51b81526004018080602001828103825260218152602001806131e06021913960400191505060405180910390fd5b60608060008061247e8a5187516122f390919063ffffffff16565b67ffffffffffffffff8111801561249457600080fd5b506040519080825280602002602001820160405280156124be578160200160208202803683370190505b5093506124d68a5186516122f390919063ffffffff16565b67ffffffffffffffff811180156124ec57600080fd5b50604051908082528060200260200182016040528015612516578160200160208202803683370190505b509250600091505b89518210156126bb5789828151811061253357fe5b60200260200101516001600160a01b0316633d9e0c056040518163ffffffff1660e01b815260040160206040518083038186803b15801561257357600080fd5b505afa158015612587573d6000803e3d6000fd5b505050506040513d602081101561259d57600080fd5b505183518490849081106125ad57fe5b6001600160a01b039092166020928302919091019091015286156126a9578282815181106125d757fe5b60200260200101516001600160a01b03166370a082318c6040518263ffffffff1660e01b815260040180826001600160a01b0316815260200191505060206040518083038186803b15801561262b57600080fd5b505afa15801561263f573d6000803e3d6000fd5b505050506040513d602081101561265557600080fd5b50518951909150612683908a908490811061266c57fe5b6020026020010151826122f390919063ffffffff16565b9050612690818989612abb565b84838151811061269c57fe5b6020026020010181815250505b6126b48260016122f3565b915061251e565b600091505b855182101561276c578482815181106126d557fe5b6020026020010151836126f28c51856122f390919063ffffffff16565b815181106126fc57fe5b60200260200101906001600160a01b031690816001600160a01b03168152505085828151811061272857fe5b6020026020010151846127458c51856122f390919063ffffffff16565b8151811061274f57fe5b60209081029190910101526127658260016122f3565b91506126c0565b505097509795505050505050565b612782610ef1565b156127c7576040805162461bcd60e51b815260206004820152601060248201526f14185d5cd8589b194e881c185d5cd95960821b604482015290519081900360640190fd5b6033805460ff191660011790557f62e78cea01bee320cd4e420270b5ea74000d11b0c9f74754ebdbfc544b05a2586122d6611bef565b60006116158383612b76565b6000611615836001600160a01b038416612bda565b604080516001600160a01b038416602482015260448082018490528251808303909101815260649091019091526020810180516001600160e01b031663a9059cbb60e01b179052612870908490612a0a565b505050565b600061161882612bf2565b600061288b30612bf6565b15905090565b600054610100900460ff16806128aa57506128aa612880565b806128b8575060005460ff16155b6128f35760405162461bcd60e51b815260040180806020018281038252602e8152602001806131b2602e913960400191505060405180910390fd5b600054610100900460ff1615801561291e576000805460ff1961ff0019909116610100171660011790555b612926612bfc565b61292e612bfc565b8015612940576000805461ff00191690555b50565b600054610100900460ff168061295c575061295c612880565b8061296a575060005460ff16155b6129a55760405162461bcd60e51b815260040180806020018281038252602e8152602001806131b2602e913960400191505060405180910390fd5b600054610100900460ff161580156129d0576000805460ff1961ff0019909116610100171660011790555b6129d8612bfc565b61292e612c9c565b6000611615836001600160a01b038416612d47565b6000611615836001600160a01b038416612d91565b6000612a5f826040518060400160405280602081526020017f5361666545524332303a206c6f772d6c6576656c2063616c6c206661696c6564815250856001600160a01b0316612e579092919063ffffffff16565b80519091501561287057808060200190516020811015612a7e57600080fd5b50516128705760405162461bcd60e51b815260040180806020018281038252602a815260200180613221602a913960400191505060405180910390fd5b6000806000612aca8686612e6e565b9150915060008480612ad857fe5b868809905082811115612aec576001820391505b918290039181612b0a57848381612aff57fe5b049350505050612b6f565b848210612b5e576040805162461bcd60e51b815260206004820152601a60248201527f46756c6c4d6174683a2046554c4c4449565f4f564552464c4f57000000000000604482015290519081900360640190fd5b612b69838387612e9b565b93505050505b9392505050565b81546000908210612bb85760405162461bcd60e51b815260040180806020018281038252602281526020018061310b6022913960400191505060405180910390fd5b826000018281548110612bc757fe5b9060005260206000200154905092915050565b60009081526001919091016020526040902054151590565b5490565b3b151590565b600054610100900460ff1680612c155750612c15612880565b80612c23575060005460ff16155b612c5e5760405162461bcd60e51b815260040180806020018281038252602e8152602001806131b2602e913960400191505060405180910390fd5b600054610100900460ff1615801561292e576000805460ff1961ff0019909116610100171660011790558015612940576000805461ff001916905550565b600054610100900460ff1680612cb55750612cb5612880565b80612cc3575060005460ff16155b612cfe5760405162461bcd60e51b815260040180806020018281038252602e8152602001806131b2602e913960400191505060405180910390fd5b600054610100900460ff16158015612d29576000805460ff1961ff0019909116610100171660011790555b6033805460ff191690558015612940576000805461ff001916905550565b6000612d538383612bda565b612d8957508154600181810184556000848152602080822090930184905584548482528286019093526040902091909155611618565b506000611618565b60008181526001830160205260408120548015612e4d5783546000198083019190810190600090879083908110612dc457fe5b9060005260206000200154905080876000018481548110612de157fe5b600091825260208083209091019290925582815260018981019092526040902090840190558654879080612e1157fe5b60019003818190600052602060002001600090559055866001016000878152602001908152602001600020600090556001945050505050611618565b6000915050611618565b6060612e668484600085612f0b565b949350505050565b6000808060001984860990508385029250828103915082811015612e93576001820391505b509250929050565b60008181038216808381612eab57fe5b049250808581612eb757fe5b049450808160000381612ec657fe5b60028581038087028203028087028203028087028203028087028203028087028203028087028203029586029003909402930460010193909302939093010292915050565b606082471015612f4c5760405162461bcd60e51b815260040180806020018281038252602681526020018061315c6026913960400191505060405180910390fd5b612f5585612bf6565b612fa6576040805162461bcd60e51b815260206004820152601d60248201527f416464726573733a2063616c6c20746f206e6f6e2d636f6e7472616374000000604482015290519081900360640190fd5b600080866001600160a01b031685876040518082805190602001908083835b60208310612fe45780518252601f199092019160209182019101612fc5565b6001836020036101000a03801982511681845116808217855250505050505090500191505060006040518083038185875af1925050503d8060008114613046576040519150601f19603f3d011682016040523d82523d6000602084013e61304b565b606091505b509150915061305b828286613066565b979650505050505050565b60608315613075575081612b6f565b8251156130855782518084602001fd5b8160405162461bcd60e51b81526004018080602001828103825283818151815260200191508051906020019080838360005b838110156130cf5781810151838201526020016130b7565b50505050905090810190601f1680156130fc5780820380516001836020036101000a031916815260200191505b509250505060405180910390fdfe456e756d657261626c655365743a20696e646578206f7574206f6620626f756e6473416363657373436f6e74726f6c3a2073656e646572206d75737420626520616e2061646d696e20746f206772616e74416464726573733a20696e73756666696369656e742062616c616e636520666f722063616c6c416363657373436f6e74726f6c3a2073656e646572206d75737420626520616e2061646d696e20746f207265766f6b65496e697469616c697a61626c653a20636f6e747261637420697320616c726561647920696e697469616c697a6564536166654d6174683a206d756c7469706c69636174696f6e206f766572666c6f7765d7a28e3265b37a6474929f336521b332c1681b933f6cb9f3376673440d862a5361666545524332303a204552433230206f7065726174696f6e20646964206e6f742073756363656564416363657373436f6e74726f6c3a2063616e206f6e6c792072656e6f756e636520726f6c657320666f722073656c66a26469706673582212200d5eb52c4b431324ff599bce77c1d486bda6f534a49b87aff0b71abeeb0dacc264736f6c63430007060033",
  "immutableReferences": {},
  "source": "/*\n Copyright [2019] - [2021], PERSISTENCE TECHNOLOGIES PTE. LTD. and the pStake-smartContracts contributors\n SPDX-License-Identifier: Apache-2.0\n*/\n\npragma solidity >=0.7.0;\n\nimport \"@openzeppelin/contracts-upgradeable/token/ERC20/SafeERC20Upgradeable.sol\";\nimport \"@openzeppelin/contracts-upgradeable/token/ERC20/IERC20Upgradeable.sol\";\nimport \"@openzeppelin/contracts-upgradeable/math/SafeMathUpgradeable.sol\";\nimport \"@openzeppelin/contracts-upgradeable/access/AccessControlUpgradeable.sol\";\nimport \"@openzeppelin/contracts-upgradeable/utils/PausableUpgradeable.sol\";\nimport \"@openzeppelin/contracts-upgradeable/utils/EnumerableSetUpgradeable.sol\";\nimport \"@openzeppelin/contracts-upgradeable/utils/ReentrancyGuardUpgradeable.sol\";\nimport \"./interfaces/IUTokensV2.sol\";\nimport \"./interfaces/IHolderV2.sol\";\nimport \"./interfaces/ISTokensV2.sol\";\nimport \"./interfaces/IStakeLP.sol\";\nimport \"./libraries/FullMath.sol\";\nimport \"./interfaces/IWhitelistedPTokenEmissionV2.sol\";\nimport \"./interfaces/IWhitelistedRewardEmissionV2.sol\";\n\ncontract StakeLPV4 is\n\tIStakeLP,\n\tPausableUpgradeable,\n\tAccessControlUpgradeable,\n\tReentrancyGuardUpgradeable\n{\n\tusing SafeMathUpgradeable for uint256;\n\tusing FullMath for uint256;\n\tusing EnumerableSetUpgradeable for EnumerableSetUpgradeable.AddressSet;\n\tusing SafeERC20Upgradeable for IERC20Upgradeable;\n\n\t// constant pertaining to access roles\n\tbytes32 public constant PAUSER_ROLE = keccak256(\"PAUSER_ROLE\");\n\t// valueDivisor to store fractional values for various reward attributes like _rewardTokenEmission\n\tuint256 public _valueDivisor;\n\t// variable pertaining to contract upgrades versioning\n\tuint256 public _version;\n\n\t// -------------------------------------------------------------------------\n\t// -------------------------------------------------------------------------\n\n\t// VARIABLES PERTAINING TO CALCULATION OF LPTIMESHARE\n\t// balance of user, for an LP Token\n\tmapping(address => mapping(address => uint256)) public _lpBalance;\n\t// supply of LP tokens reserve, for an LP Token\n\tmapping(address => uint256) public _lpSupply;\n\t// last updated total LPTimeShare, for an LP Token\n\tmapping(address => uint256) public _lastLPTimeShare;\n\t// last recorded timestamp when user's LPTimeShare was updated, for a user, for an LP Token\n\tmapping(address => mapping(address => uint256))\n\t\tpublic _lastLiquidityTimestamp;\n\n\t// -------------------------------------------------------------------------\n\t// -------------------------------------------------------------------------\n\n\t// required to store the whitelisting holder logic data for PToken rewards, initiated from WhitelistedEmission contract\n\taddress public _whitelistedPTokenEmissionContract;\n\t// required to store the whitelisting holder logic data for other rewards, initiated from WhitelistedEmission contract\n\taddress public _whitelistedRewardEmissionContract;\n\n\t/**\n\t * @dev Constructor for initializing the stakeLP contract.\n\t * @param pauserAddress - address of the pauser admin.\n\t * @param whitelistedPTokenEmissionContract - address of whitelistedPTokenEmission Contract.\n\t * @param whitelistedRewardEmissionContract - address of whitelistedPTokenEmission Contract.\n\t * @param valueDivisor - valueDivisor set to 10^9.\n\t */\n\tfunction initialize(\n\t\taddress pauserAddress,\n\t\taddress whitelistedPTokenEmissionContract,\n\t\taddress whitelistedRewardEmissionContract,\n\t\tuint256 valueDivisor\n\t) public virtual initializer {\n\t\t__AccessControl_init();\n\t\t__Pausable_init();\n\t\t_setupRole(DEFAULT_ADMIN_ROLE, _msgSender());\n\t\t_setupRole(PAUSER_ROLE, pauserAddress);\n\t\t_whitelistedPTokenEmissionContract = whitelistedPTokenEmissionContract;\n\t\t_whitelistedRewardEmissionContract = whitelistedRewardEmissionContract;\n\t\t_valueDivisor = valueDivisor;\n\t}\n\n\t/*\n\t * @dev calculate liquidity and reward tokens and disburse to user\n\t * @param holderAddress: holder contract address\n\t * @param accountAddress: user address\n\t */\n\tfunction calculatePendingRewards(\n\t\taddress holderAddress,\n\t\taddress accountAddress\n\t)\n\t\tpublic\n\t\tview\n\t\tvirtual\n\t\toverride\n\t\treturns (\n\t\t\tuint256[] memory rewardAmounts,\n\t\t\taddress[] memory rewardTokens,\n\t\t\taddress[] memory sTokenAddresses,\n\t\t\taddress lpTokenAddress,\n\t\t\tuint256 updatedSupplyLPTimeshare,\n\t\t\tuint256 newSupplyLPTimeShare\n\t\t)\n\t{\n\t\tuint256 _userLPTimeShare;\n\t\tuint256 _totalSupplyLPTimeShare;\n\t\tuint256[] memory holderRewards;\n\n\t\t// CALCULTE LP TOKEN RATIOS OF USER AND SUPPLY\n\t\t// CALCULATE PTOKENS REWARD EMISSION - CALCULATE (NOT TRIGGER) HOLDER REWARDS\n\t\t// CALCULATE PTOKENS REWARD SHARE OF USER - CALCULATE (NOT TRIGGER) REWARD CALC OF PTOKENS\n\t\t// CALCULATE OTHER REWARDS EMISSION - CALCULATE (NOT TRIGGER) OTHER PENDING REWARDS\n\t\t// CALCULATE OTHER REWARDS SHARE OF USER - CALCULATE (NOT TRIGGER) REWARD CALC OF OTHER TOKENS\n\n\t\t(\n\t\t\tholderRewards,\n\t\t\tsTokenAddresses,\n\t\t\t,\n\t\t\tlpTokenAddress\n\t\t) = IWhitelistedPTokenEmissionV2(_whitelistedPTokenEmissionContract)\n\t\t\t.calculateAllPendingHolderRewards(holderAddress);\n\n\t\tif (\n\t\t\tholderAddress == address(0) ||\n\t\t\tlpTokenAddress == address(0) ||\n\t\t\taccountAddress == address(0)\n\t\t) {\n\t\t\treturn (\n\t\t\t\trewardAmounts,\n\t\t\t\trewardTokens,\n\t\t\t\tsTokenAddresses,\n\t\t\t\tlpTokenAddress,\n\t\t\t\tupdatedSupplyLPTimeshare,\n\t\t\t\tnewSupplyLPTimeShare\n\t\t\t);\n\t\t}\n\n\t\t_userLPTimeShare = _lpBalance[lpTokenAddress][accountAddress];\n\t\t_totalSupplyLPTimeShare = _lpSupply[lpTokenAddress];\n\n\t\t// calculate the amounts and token contracts of other reward tokens\n\t\t(\n\t\t\tuint256[] memory otherRewardAmounts,\n\t\t\taddress[] memory otherRewardTokens\n\t\t) = IWhitelistedRewardEmissionV2(_whitelistedRewardEmissionContract)\n\t\t\t\t.calculateOtherPendingRewards(\n\t\t\t\t\tholderAddress,\n\t\t\t\t\tlpTokenAddress,\n\t\t\t\t\taccountAddress,\n\t\t\t\t\t_userLPTimeShare,\n\t\t\t\t\t_totalSupplyLPTimeShare\n\t\t\t\t);\n\n\t\t// calculate the new LPTimeShare of the user's LP Token\n\t\t_userLPTimeShare = (\n\t\t\t(_lpBalance[lpTokenAddress][accountAddress]).mul(\n\t\t\t\tblock.timestamp.sub(\n\t\t\t\t\t_lastLiquidityTimestamp[lpTokenAddress][accountAddress]\n\t\t\t\t)\n\t\t\t)\n\t\t);\n\n\t\t// calculate the new LPTimeShare of the sum of supply of all LP Tokens\n\t\tnewSupplyLPTimeShare = (\n\t\t\t(_lpSupply[lpTokenAddress]).mul(\n\t\t\t\tblock.timestamp.sub(\n\t\t\t\t\tIWhitelistedRewardEmissionV2(\n\t\t\t\t\t\t_whitelistedRewardEmissionContract\n\t\t\t\t\t).getLastLPTimeShareTimestamp(lpTokenAddress)\n\t\t\t\t)\n\t\t\t)\n\t\t);\n\n\t\t// calculate the totalSupplyLPTimeShare by adding new LPTimeShare to the existing share\n\t\t_totalSupplyLPTimeShare = _lastLPTimeShare[lpTokenAddress].add(\n\t\t\tnewSupplyLPTimeShare\n\t\t);\n\n\t\t// calculate the remaining LPTimeShare of the total supply after the tokens for the user has been dispatched\n\t\tupdatedSupplyLPTimeshare = _totalSupplyLPTimeShare.sub(\n\t\t\t_userLPTimeShare\n\t\t);\n\n\t\t(rewardAmounts, rewardTokens) = _getRewardData(\n\t\t\tholderAddress,\n\t\t\tsTokenAddresses,\n\t\t\tholderRewards,\n\t\t\t_userLPTimeShare,\n\t\t\t_totalSupplyLPTimeShare,\n\t\t\totherRewardAmounts,\n\t\t\totherRewardTokens\n\t\t);\n\t}\n\n\t/*\n\t * @dev get liquidity and reward tokens and disburse to user\n\t * @param holderAddress: holder contract address\n\t * @param sTokenAddresses: sToken contract address in array\n\t * @param holderRewards: holder contract address in array\n\t * @param userLPTimeShare: user LP timeshare\n\t * @param totalSupplyLPTimeShare: total supply LP timeshare\n\t * @param otherRewardAmounts: reward amount in array\n\t * @param otherRewardTokens: reward tokens in array\n\t */\n\tfunction _getRewardData(\n\t\taddress holderAddress,\n\t\taddress[] memory sTokenAddresses,\n\t\tuint256[] memory holderRewards,\n\t\tuint256 userLPTimeShare,\n\t\tuint256 totalSupplyLPTimeShare,\n\t\tuint256[] memory otherRewardAmounts,\n\t\taddress[] memory otherRewardTokens\n\t)\n\t\tinternal\n\t\tview\n\t\treturns (uint256[] memory rewardAmounts, address[] memory rewardTokens)\n\t{\n\t\tuint256 i;\n\t\tuint256 rewardPool;\n\n\t\t// initialize rewardAmounts and rewardTokens as per the sum of the size of pSTAKE and other rewards\n\t\trewardAmounts = new uint256[](\n\t\t\t(otherRewardAmounts.length).add(sTokenAddresses.length)\n\t\t);\n\t\trewardTokens = new address[](\n\t\t\t(otherRewardTokens.length).add(sTokenAddresses.length)\n\t\t);\n\n\t\t// CALCULATE REWARD FOR EACH UTOKEN ADDRESS\n\t\tfor (i = 0; i < sTokenAddresses.length; i = i.add(1)) {\n\t\t\trewardTokens[i] = ISTokensV2(sTokenAddresses[i]).getUTokenAddress();\n\t\t\tif (totalSupplyLPTimeShare > 0) {\n\t\t\t\t// calculated the updated rewardPool\n\t\t\t\trewardPool = IUTokensV2(rewardTokens[i]).balanceOf(\n\t\t\t\t\tholderAddress\n\t\t\t\t);\n\t\t\t\trewardPool = rewardPool.add(holderRewards[i]);\n\t\t\t\t// calculate the reward portion of the user\n\t\t\t\trewardAmounts[i] = rewardPool.mulDiv(\n\t\t\t\t\tuserLPTimeShare,\n\t\t\t\t\ttotalSupplyLPTimeShare\n\t\t\t\t);\n\t\t\t}\n\t\t}\n\n\t\tfor (i = 0; i < otherRewardAmounts.length; i = i.add(1)) {\n\t\t\trewardTokens[i.add(sTokenAddresses.length)] = otherRewardTokens[i];\n\t\t\trewardAmounts[i.add(sTokenAddresses.length)] = otherRewardAmounts[\n\t\t\t\ti\n\t\t\t];\n\t\t}\n\t}\n\n\t/*\n\t * @dev calculate reward tokens and disburse to user\n\t * @param holderAddress: holder contract address\n\t * @param accountAddress: user address\n\t */\n\tfunction _calculateRewards(address holderAddress, address accountAddress)\n\t\tinternal\n\t\treturns (\n\t\t\tuint256[] memory RewardAmounts,\n\t\t\taddress[] memory RewardTokens,\n\t\t\taddress[] memory sTokenAddresses,\n\t\t\taddress lpTokenAddress\n\t\t)\n\t{\n\t\tuint256 updatedSupplyLPTimeshare;\n\t\tuint256 newSupplyLPTimeShare;\n\t\tuint256 i;\n\n\t\t(\n\t\t\tRewardAmounts,\n\t\t\tRewardTokens,\n\t\t\tsTokenAddresses,\n\t\t\tlpTokenAddress,\n\t\t\tupdatedSupplyLPTimeshare,\n\t\t\tnewSupplyLPTimeShare\n\t\t) = calculatePendingRewards(holderAddress, accountAddress);\n\n\t\t// update last timestamps and LPTimeShares as per Checks-Effects-Interactions pattern\n\t\t_lastLiquidityTimestamp[lpTokenAddress][accountAddress] = block\n\t\t\t.timestamp;\n\n\t\t_lastLPTimeShare[lpTokenAddress] = updatedSupplyLPTimeshare;\n\n\t\t// update the cummulative new supply LP Timeshare value\n\t\tIWhitelistedRewardEmissionV2(_whitelistedRewardEmissionContract)\n\t\t\t.setLastCummulativeSupplyLPTimeShare(\n\t\t\t\tlpTokenAddress,\n\t\t\t\tnewSupplyLPTimeShare\n\t\t\t);\n\n\t\t// update the _lastLPTimeShareTimestampArray\n\t\tIWhitelistedRewardEmissionV2(_whitelistedRewardEmissionContract)\n\t\t\t.setLastLPTimeShareTimestamp(lpTokenAddress, block.timestamp);\n\n\t\t// DISBURSE THE MULTIPLE UTOKEN REWARDS TO USER (transfer)\n\t\tfor (i = 0; i < sTokenAddresses.length; i = i.add(1)) {\n\t\t\tif (RewardAmounts[i] > 0)\n\t\t\t\tIHolderV2(holderAddress).safeTransfer(\n\t\t\t\t\tRewardTokens[i],\n\t\t\t\t\taccountAddress,\n\t\t\t\t\tRewardAmounts[i]\n\t\t\t\t);\n\t\t}\n\n\t\t// DISBURSE THE OTHER REWARD TOKENS TO USER (transfer)\n\t\tfor (\n\t\t\ti = sTokenAddresses.length;\n\t\t\ti < RewardTokens.length;\n\t\t\ti = i.add(1)\n\t\t) {\n\t\t\tIWhitelistedRewardEmissionV2(_whitelistedRewardEmissionContract)\n\t\t\t\t.setRewardPoolUserTimestamp(\n\t\t\t\t\tholderAddress,\n\t\t\t\t\tRewardTokens[i],\n\t\t\t\t\taccountAddress,\n\t\t\t\t\tblock.timestamp\n\t\t\t\t);\n\n\t\t\t// dispatch the rewards for that specific token\n\t\t\tif (RewardAmounts[i] > 0) {\n\t\t\t\tIHolderV2(holderAddress).safeTransfer(\n\t\t\t\t\tRewardTokens[i],\n\t\t\t\t\taccountAddress,\n\t\t\t\t\tRewardAmounts[i]\n\t\t\t\t);\n\t\t\t}\n\t\t}\n\n\t\temit CalculateRewardsStakeLP(\n\t\t\tholderAddress,\n\t\t\tlpTokenAddress,\n\t\t\taccountAddress,\n\t\t\tRewardAmounts,\n\t\t\tRewardTokens,\n\t\t\tsTokenAddresses,\n\t\t\tblock.timestamp\n\t\t);\n\t}\n\n\t/*\n\t * @dev calculate liquidity and reward tokens and disburse to user\n\t * @param holderAddress: holder contract address\n\t */\n\tfunction calculateSyncedRewards(address holderAddress)\n\t\tpublic\n\t\tvirtual\n\t\toverride\n\t\twhenNotPaused\n\t\tnonReentrant\n\t\treturns (\n\t\t\tuint256[] memory RewardAmounts,\n\t\t\taddress[] memory RewardTokens,\n\t\t\taddress[] memory sTokenAddresses,\n\t\t\taddress lpTokenAddress\n\t\t)\n\t{\n\t\t// check for validity of arguments\n\t\trequire(holderAddress != address(0), \"LP1\");\n\n\t\t// initiate calculateHolderRewards for all StokenAddress-whitelistedAddress pair that\n\t\t// comes under the holder contract\n\t\tIWhitelistedPTokenEmissionV2(_whitelistedPTokenEmissionContract)\n\t\t\t.calculateAllHolderRewards(holderAddress);\n\n\t\t// now initiate the calculate Rewards to distribute to the user\n\t\t// calculate liquidity and reward tokens and disburse to user\n\t\t(\n\t\t\tRewardAmounts,\n\t\t\tRewardTokens,\n\t\t\tsTokenAddresses,\n\t\t\tlpTokenAddress\n\t\t) = _calculateRewards(holderAddress, _msgSender());\n\n\t\trequire(lpTokenAddress != address(0), \"LP2\");\n\n\t\temit TriggeredCalculateSyncedRewards(\n\t\t\tholderAddress,\n\t\t\t_msgSender(),\n\t\t\tRewardAmounts,\n\t\t\tRewardTokens,\n\t\t\tsTokenAddresses,\n\t\t\tblock.timestamp\n\t\t);\n\t}\n\n\t/*\n\t * @dev adding the liquidity\n\t * @param holderAddress: holder contract address\n\t * @param amount: token amount\n\t *\n\t * Emits a {AddLiquidity} event with 'lpToken, amount, rewards and liquidity'\n\t *\n\t */\n\tfunction addLiquidity(address holderAddress, uint256 amount)\n\t\tpublic\n\t\tvirtual\n\t\toverride\n\t\twhenNotPaused\n\t\tnonReentrant\n\t\treturns (bool success)\n\t{\n\t\t// directly call calculate Synced Rewards since all the require conditions are checked there\n\t\t(, , , address lpTokenAddress) = calculateSyncedRewards(holderAddress);\n\t\taddress messageSender = _msgSender();\n\n\t\t// update the user balance\n\t\t_lpBalance[lpTokenAddress][messageSender] = _lpBalance[lpTokenAddress][\n\t\t\tmessageSender\n\t\t].add(amount);\n\n\t\t// update the supply of lp tokens for reward and liquidity calculation\n\t\t_lpSupply[lpTokenAddress] = _lpSupply[lpTokenAddress].add(amount);\n\n\t\t// finally transfer the new LP Tokens to the StakeLP contract as per Checks-Effects-Interactions pattern\n\t\tIERC20Upgradeable(address(lpTokenAddress)).safeTransferFrom(\n\t\t\tmessageSender,\n\t\t\taddress(this),\n\t\t\tamount\n\t\t);\n\n\t\t// emit an event\n\t\temit AddLiquidity(\n\t\t\tholderAddress,\n\t\t\tmessageSender,\n\t\t\tamount,\n\t\t\tblock.timestamp\n\t\t);\n\n\t\tsuccess = true;\n\t\treturn success;\n\t}\n\n\t/*\n\t * @dev removing the liquidity\n\t * @param holderAddress: holder contract address\n\t * @param amount: token amount\n\t *\n\t * Emits a {RemoveLiquidity} event with 'lpToken, amount, rewards and liquidity'\n\t *\n\t */\n\tfunction removeLiquidity(address holderAddress, uint256 amount)\n\t\tpublic\n\t\tvirtual\n\t\toverride\n\t\twhenNotPaused\n\t\tnonReentrant\n\t\treturns (bool success)\n\t{\n\t\t// directly call calculateSyncedRewards since all the require conditions are checked there\n\t\t(, , , address lpTokenAddress) = calculateSyncedRewards(holderAddress);\n\t\taddress messageSender = _msgSender();\n\n\t\t// check if suffecient balance is there\n\t\trequire(_lpBalance[lpTokenAddress][messageSender] >= amount, \"LP3\");\n\n\t\t// update the user balance\n\t\t_lpBalance[lpTokenAddress][messageSender] = _lpBalance[lpTokenAddress][\n\t\t\tmessageSender\n\t\t].sub(amount);\n\n\t\t// update the supply of lp tokens for reward and liquidity calculation\n\t\t_lpSupply[lpTokenAddress] = _lpSupply[lpTokenAddress].sub(amount);\n\n\t\t// finally transfer the LP Tokens to the user as per Checks-Effects-Interactions pattern\n\t\tIERC20Upgradeable(address(lpTokenAddress)).safeTransfer(\n\t\t\tmessageSender,\n\t\t\tamount\n\t\t);\n\n\t\temit RemoveLiquidity(\n\t\t\tholderAddress,\n\t\t\tmessageSender,\n\t\t\tamount,\n\t\t\tblock.timestamp\n\t\t);\n\n\t\tsuccess = true;\n\t\treturn success;\n\t}\n\n\t/**\n\t * @dev Set 'WhitelistedPTokenEmissionContract', called from constructor\n\t *\n\t * Emits a {SetWhitelistedPTokenEmissionContract} event with '_contract' set to the whitelistedPTokenEmission contract address.\n\t *\n\t */\n\tfunction setWhitelistedPTokenEmissionContract(\n\t\taddress whitelistedPTokenEmissionContract\n\t) public virtual override {\n\t\trequire(hasRole(DEFAULT_ADMIN_ROLE, _msgSender()), \"LP4\");\n\t\trequire(whitelistedPTokenEmissionContract != address(0), \"LP10\");\n\t\t_whitelistedPTokenEmissionContract = whitelistedPTokenEmissionContract;\n\t\temit SetWhitelistedPTokenEmissionContract(\n\t\t\twhitelistedPTokenEmissionContract\n\t\t);\n\t}\n\n\t/**\n\t * @dev Set 'whitelistedRewardEmissionContract', called from constructor\n\t *\n\t * Emits a {SetWhitelistedRewardEmissionContract} event with '_contract' set to the whitelistedRewardEmission contract address.\n\t *\n\t */\n\tfunction setWhitelistedRewardEmissionContract(\n\t\taddress whitelistedRewardEmissionContract\n\t) public virtual override {\n\t\trequire(hasRole(DEFAULT_ADMIN_ROLE, _msgSender()), \"LP5\");\n\t\trequire(whitelistedRewardEmissionContract != address(0), \"LP8\");\n\t\t_whitelistedRewardEmissionContract = whitelistedRewardEmissionContract;\n\t\temit SetWhitelistedRewardEmissionContract(\n\t\t\twhitelistedRewardEmissionContract\n\t\t);\n\t}\n\n\t/**\n\t * @dev Triggers stopped state.\n\t *\n\t * Requirements:\n\t *\n\t * - The contract must not be paused.\n\t */\n\tfunction pause() public virtual override returns (bool success) {\n\t\trequire(hasRole(PAUSER_ROLE, _msgSender()), \"LP6\");\n\t\t_pause();\n\t\treturn true;\n\t}\n\n\t/**\n\t * @dev Returns to normal state.\n\t *\n\t * Requirements:\n\t *\n\t * - The contract must be paused.\n\t */\n\tfunction unpause() public virtual override returns (bool success) {\n\t\trequire(hasRole(PAUSER_ROLE, _msgSender()), \"LP7\");\n\t\t_unpause();\n\t\treturn true;\n\t}\n}\n",
  "sourcePath": "C:\\Users\\Kamlesh\\Persistence\\pStake\\codebase\\pStake-smartContracts\\contracts\\StakeLPV4.sol",
  "compiler": {
    "name": "solc",
    "version": "0.7.6+commit.7338295f.Emscripten.clang"
  },
  "schemaVersion": "3.4.3",
  "updatedAt": "2022-02-16T04:25:13.959Z",
  "devdoc": {
    "kind": "dev",
    "methods": {
      "addLiquidity(address,uint256)": {
        "details": "adds liquidity Returns a uint256"
      },
      "getRoleAdmin(bytes32)": {
        "details": "Returns the admin role that controls `role`. See {grantRole} and {revokeRole}. To change a role's admin, use {_setRoleAdmin}."
      },
      "getRoleMember(bytes32,uint256)": {
        "details": "Returns one of the accounts that have `role`. `index` must be a value between 0 and {getRoleMemberCount}, non-inclusive. Role bearers are not sorted in any particular way, and their ordering may change at any point. WARNING: When using {getRoleMember} and {getRoleMemberCount}, make sure you perform all queries on the same block. See the following https://forum.openzeppelin.com/t/iterating-over-elements-on-enumerableset-in-openzeppelin-contracts/2296[forum post] for more information."
      },
      "getRoleMemberCount(bytes32)": {
        "details": "Returns the number of accounts that have `role`. Can be used together with {getRoleMember} to enumerate all bearers of a role."
      },
      "grantRole(bytes32,address)": {
        "details": "Grants `role` to `account`. If `account` had not been already granted `role`, emits a {RoleGranted} event. Requirements: - the caller must have ``role``'s admin role."
      },
      "hasRole(bytes32,address)": {
        "details": "Returns `true` if `account` has been granted `role`."
      },
      "initialize(address,address,address,uint256)": {
        "details": "Constructor for initializing the stakeLP contract.",
        "params": {
          "pauserAddress": "- address of the pauser admin.",
          "valueDivisor": "- valueDivisor set to 10^9.",
          "whitelistedPTokenEmissionContract": "- address of whitelistedPTokenEmission Contract.",
          "whitelistedRewardEmissionContract": "- address of whitelistedPTokenEmission Contract."
        }
      },
      "pause()": {
        "details": "Triggers stopped state. Requirements: - The contract must not be paused."
      },
      "paused()": {
        "details": "Returns true if the contract is paused, and false otherwise."
      },
      "removeLiquidity(address,uint256)": {
        "details": "remove liquidity Returns a uint256"
      },
      "renounceRole(bytes32,address)": {
        "details": "Revokes `role` from the calling account. Roles are often managed via {grantRole} and {revokeRole}: this function's purpose is to provide a mechanism for accounts to lose their privileges if they are compromised (such as when a trusted device is misplaced). If the calling account had been granted `role`, emits a {RoleRevoked} event. Requirements: - the caller must be `account`."
      },
      "revokeRole(bytes32,address)": {
        "details": "Revokes `role` from `account`. If `account` had been granted `role`, emits a {RoleRevoked} event. Requirements: - the caller must have ``role``'s admin role."
      },
      "setWhitelistedPTokenEmissionContract(address)": {
        "details": "Set 'WhitelistedPTokenEmissionContract', called from constructor Emits a {SetWhitelistedPTokenEmissionContract} event with '_contract' set to the whitelistedPTokenEmission contract address."
      },
      "setWhitelistedRewardEmissionContract(address)": {
        "details": "Set 'whitelistedRewardEmissionContract', called from constructor Emits a {SetWhitelistedRewardEmissionContract} event with '_contract' set to the whitelistedRewardEmission contract address."
      },
      "unpause()": {
        "details": "Returns to normal state. Requirements: - The contract must be paused."
      }
    },
    "version": 1
  },
  "userdoc": {
    "kind": "user",
    "methods": {},
    "version": 1
  }
}