{
  "contractName": "StakeLPCoreV6",
  "abi": [
    {
      "anonymous": false,
      "inputs": [
        {
          "indexed": false,
          "internalType": "address",
          "name": "lpToken",
          "type": "address"
        },
        {
          "indexed": false,
          "internalType": "uint256",
          "name": "amount",
          "type": "uint256"
        },
        {
          "indexed": false,
          "internalType": "uint256",
          "name": "rewards",
          "type": "uint256"
        },
        {
          "indexed": false,
          "internalType": "uint256",
          "name": "liquidity",
          "type": "uint256"
        }
      ],
      "name": "AddLiquidity",
      "type": "event"
    },
    {
      "anonymous": false,
      "inputs": [
        {
          "indexed": true,
          "internalType": "address",
          "name": "holderAddress",
          "type": "address"
        },
        {
          "indexed": true,
          "internalType": "address",
          "name": "lpToken",
          "type": "address"
        },
        {
          "indexed": false,
          "internalType": "uint256",
          "name": "amount",
          "type": "uint256"
        },
        {
          "indexed": true,
          "internalType": "address",
          "name": "to",
          "type": "address"
        },
        {
          "indexed": false,
          "internalType": "uint256",
          "name": "liquidity",
          "type": "uint256"
        },
        {
          "indexed": false,
          "internalType": "uint256",
          "name": "reward",
          "type": "uint256"
        }
      ],
      "name": "CalculateRewardsAndLiquidity",
      "type": "event"
    },
    {
      "anonymous": false,
      "inputs": [
        {
          "indexed": false,
          "internalType": "address",
          "name": "account",
          "type": "address"
        }
      ],
      "name": "Paused",
      "type": "event"
    },
    {
      "anonymous": false,
      "inputs": [
        {
          "indexed": false,
          "internalType": "address",
          "name": "lpToken",
          "type": "address"
        },
        {
          "indexed": false,
          "internalType": "uint256",
          "name": "amount",
          "type": "uint256"
        },
        {
          "indexed": false,
          "internalType": "uint256",
          "name": "rewards",
          "type": "uint256"
        },
        {
          "indexed": false,
          "internalType": "uint256",
          "name": "liquidity",
          "type": "uint256"
        }
      ],
      "name": "RemoveLiquidity",
      "type": "event"
    },
    {
      "anonymous": false,
      "inputs": [
        {
          "indexed": true,
          "internalType": "bytes32",
          "name": "role",
          "type": "bytes32"
        },
        {
          "indexed": true,
          "internalType": "bytes32",
          "name": "previousAdminRole",
          "type": "bytes32"
        },
        {
          "indexed": true,
          "internalType": "bytes32",
          "name": "newAdminRole",
          "type": "bytes32"
        }
      ],
      "name": "RoleAdminChanged",
      "type": "event"
    },
    {
      "anonymous": false,
      "inputs": [
        {
          "indexed": true,
          "internalType": "bytes32",
          "name": "role",
          "type": "bytes32"
        },
        {
          "indexed": true,
          "internalType": "address",
          "name": "account",
          "type": "address"
        },
        {
          "indexed": true,
          "internalType": "address",
          "name": "sender",
          "type": "address"
        }
      ],
      "name": "RoleGranted",
      "type": "event"
    },
    {
      "anonymous": false,
      "inputs": [
        {
          "indexed": true,
          "internalType": "bytes32",
          "name": "role",
          "type": "bytes32"
        },
        {
          "indexed": true,
          "internalType": "address",
          "name": "account",
          "type": "address"
        },
        {
          "indexed": true,
          "internalType": "address",
          "name": "sender",
          "type": "address"
        }
      ],
      "name": "RoleRevoked",
      "type": "event"
    },
    {
      "anonymous": false,
      "inputs": [
        {
          "indexed": true,
          "internalType": "address",
          "name": "_contract",
          "type": "address"
        }
      ],
      "name": "SetPSTAKEContract",
      "type": "event"
    },
    {
      "anonymous": false,
      "inputs": [
        {
          "indexed": true,
          "internalType": "address",
          "name": "_contract",
          "type": "address"
        }
      ],
      "name": "SetSTokensContract",
      "type": "event"
    },
    {
      "anonymous": false,
      "inputs": [
        {
          "indexed": true,
          "internalType": "address",
          "name": "_contract",
          "type": "address"
        }
      ],
      "name": "SetUTokensContract",
      "type": "event"
    },
    {
      "anonymous": false,
      "inputs": [
        {
          "indexed": false,
          "internalType": "address",
          "name": "account",
          "type": "address"
        }
      ],
      "name": "Unpaused",
      "type": "event"
    },
    {
      "inputs": [],
      "name": "DEFAULT_ADMIN_ROLE",
      "outputs": [
        {
          "internalType": "bytes32",
          "name": "",
          "type": "bytes32"
        }
      ],
      "stateMutability": "view",
      "type": "function"
    },
    {
      "inputs": [],
      "name": "PAUSER_ROLE",
      "outputs": [
        {
          "internalType": "bytes32",
          "name": "",
          "type": "bytes32"
        }
      ],
      "stateMutability": "view",
      "type": "function"
    },
    {
      "inputs": [
        {
          "internalType": "address",
          "name": "",
          "type": "address"
        }
      ],
      "name": "_lastLPTimeShare",
      "outputs": [
        {
          "internalType": "uint256",
          "name": "",
          "type": "uint256"
        }
      ],
      "stateMutability": "view",
      "type": "function"
    },
    {
      "inputs": [
        {
          "internalType": "address",
          "name": "",
          "type": "address"
        }
      ],
      "name": "_lastLPTimeShareTimestamp",
      "outputs": [
        {
          "internalType": "uint256",
          "name": "",
          "type": "uint256"
        }
      ],
      "stateMutability": "view",
      "type": "function"
    },
    {
      "inputs": [
        {
          "internalType": "address",
          "name": "",
          "type": "address"
        },
        {
          "internalType": "address",
          "name": "",
          "type": "address"
        }
      ],
      "name": "_lastLiquidityTimestamp",
      "outputs": [
        {
          "internalType": "uint256",
          "name": "",
          "type": "uint256"
        }
      ],
      "stateMutability": "view",
      "type": "function"
    },
    {
      "inputs": [
        {
          "internalType": "address",
          "name": "",
          "type": "address"
        },
        {
          "internalType": "address",
          "name": "",
          "type": "address"
        }
      ],
      "name": "_lpBalance",
      "outputs": [
        {
          "internalType": "uint256",
          "name": "",
          "type": "uint256"
        }
      ],
      "stateMutability": "view",
      "type": "function"
    },
    {
      "inputs": [
        {
          "internalType": "address",
          "name": "",
          "type": "address"
        }
      ],
      "name": "_lpSupply",
      "outputs": [
        {
          "internalType": "uint256",
          "name": "",
          "type": "uint256"
        }
      ],
      "stateMutability": "view",
      "type": "function"
    },
    {
      "inputs": [],
      "name": "_pstakeTokens",
      "outputs": [
        {
          "internalType": "contract IPSTAKE",
          "name": "",
          "type": "address"
        }
      ],
      "stateMutability": "view",
      "type": "function"
    },
    {
      "inputs": [],
      "name": "_sTokens",
      "outputs": [
        {
          "internalType": "contract ISTokens",
          "name": "",
          "type": "address"
        }
      ],
      "stateMutability": "view",
      "type": "function"
    },
    {
      "inputs": [],
      "name": "_uTokens",
      "outputs": [
        {
          "internalType": "contract IUTokens",
          "name": "",
          "type": "address"
        }
      ],
      "stateMutability": "view",
      "type": "function"
    },
    {
      "inputs": [
        {
          "internalType": "bytes32",
          "name": "role",
          "type": "bytes32"
        }
      ],
      "name": "getRoleAdmin",
      "outputs": [
        {
          "internalType": "bytes32",
          "name": "",
          "type": "bytes32"
        }
      ],
      "stateMutability": "view",
      "type": "function"
    },
    {
      "inputs": [
        {
          "internalType": "bytes32",
          "name": "role",
          "type": "bytes32"
        },
        {
          "internalType": "uint256",
          "name": "index",
          "type": "uint256"
        }
      ],
      "name": "getRoleMember",
      "outputs": [
        {
          "internalType": "address",
          "name": "",
          "type": "address"
        }
      ],
      "stateMutability": "view",
      "type": "function"
    },
    {
      "inputs": [
        {
          "internalType": "bytes32",
          "name": "role",
          "type": "bytes32"
        }
      ],
      "name": "getRoleMemberCount",
      "outputs": [
        {
          "internalType": "uint256",
          "name": "",
          "type": "uint256"
        }
      ],
      "stateMutability": "view",
      "type": "function"
    },
    {
      "inputs": [
        {
          "internalType": "bytes32",
          "name": "role",
          "type": "bytes32"
        },
        {
          "internalType": "address",
          "name": "account",
          "type": "address"
        }
      ],
      "name": "grantRole",
      "outputs": [],
      "stateMutability": "nonpayable",
      "type": "function"
    },
    {
      "inputs": [
        {
          "internalType": "bytes32",
          "name": "role",
          "type": "bytes32"
        },
        {
          "internalType": "address",
          "name": "account",
          "type": "address"
        }
      ],
      "name": "hasRole",
      "outputs": [
        {
          "internalType": "bool",
          "name": "",
          "type": "bool"
        }
      ],
      "stateMutability": "view",
      "type": "function"
    },
    {
      "inputs": [],
      "name": "paused",
      "outputs": [
        {
          "internalType": "bool",
          "name": "",
          "type": "bool"
        }
      ],
      "stateMutability": "view",
      "type": "function"
    },
    {
      "inputs": [
        {
          "internalType": "bytes32",
          "name": "role",
          "type": "bytes32"
        },
        {
          "internalType": "address",
          "name": "account",
          "type": "address"
        }
      ],
      "name": "renounceRole",
      "outputs": [],
      "stateMutability": "nonpayable",
      "type": "function"
    },
    {
      "inputs": [
        {
          "internalType": "bytes32",
          "name": "role",
          "type": "bytes32"
        },
        {
          "internalType": "address",
          "name": "account",
          "type": "address"
        }
      ],
      "name": "revokeRole",
      "outputs": [],
      "stateMutability": "nonpayable",
      "type": "function"
    },
    {
      "inputs": [
        {
          "internalType": "address",
          "name": "uAddress",
          "type": "address"
        },
        {
          "internalType": "address",
          "name": "sAddress",
          "type": "address"
        },
        {
          "internalType": "address",
          "name": "pStakeAddress",
          "type": "address"
        },
        {
          "internalType": "address",
          "name": "pauserAddress",
          "type": "address"
        }
      ],
      "name": "initialize",
      "outputs": [],
      "stateMutability": "nonpayable",
      "type": "function"
    },
    {
      "inputs": [
        {
          "internalType": "address",
          "name": "holderAddress",
          "type": "address"
        },
        {
          "internalType": "address",
          "name": "lpToken",
          "type": "address"
        },
        {
          "internalType": "address",
          "name": "to",
          "type": "address"
        }
      ],
      "name": "calculatePendingRewardsAndLiquidity",
      "outputs": [
        {
          "internalType": "uint256",
          "name": "liquidity",
          "type": "uint256"
        },
        {
          "internalType": "uint256",
          "name": "reward",
          "type": "uint256"
        },
        {
          "internalType": "uint256",
          "name": "updatedSupplyLPTimeshare",
          "type": "uint256"
        }
      ],
      "stateMutability": "view",
      "type": "function"
    },
    {
      "inputs": [
        {
          "internalType": "address",
          "name": "whitelistedAddress",
          "type": "address"
        },
        {
          "internalType": "uint256",
          "name": "amount",
          "type": "uint256"
        }
      ],
      "name": "calculateRewardsAndLiquidity",
      "outputs": [
        {
          "internalType": "uint256",
          "name": "liquidity",
          "type": "uint256"
        },
        {
          "internalType": "uint256",
          "name": "reward",
          "type": "uint256"
        }
      ],
      "stateMutability": "nonpayable",
      "type": "function"
    },
    {
      "inputs": [
        {
          "internalType": "address",
          "name": "whitelistedAddress",
          "type": "address"
        },
        {
          "internalType": "uint256",
          "name": "amount",
          "type": "uint256"
        }
      ],
      "name": "addLiquidity",
      "outputs": [
        {
          "internalType": "uint256",
          "name": "liquidity",
          "type": "uint256"
        },
        {
          "internalType": "uint256",
          "name": "rewards",
          "type": "uint256"
        }
      ],
      "stateMutability": "nonpayable",
      "type": "function"
    },
    {
      "inputs": [
        {
          "internalType": "address",
          "name": "whitelistedAddress",
          "type": "address"
        },
        {
          "internalType": "uint256",
          "name": "amount",
          "type": "uint256"
        }
      ],
      "name": "removeLiquidity",
      "outputs": [
        {
          "internalType": "uint256",
          "name": "liquidity",
          "type": "uint256"
        },
        {
          "internalType": "uint256",
          "name": "rewards",
          "type": "uint256"
        }
      ],
      "stateMutability": "nonpayable",
      "type": "function"
    },
    {
      "inputs": [
        {
          "internalType": "address",
          "name": "uAddress",
          "type": "address"
        }
      ],
      "name": "setUTokensContract",
      "outputs": [],
      "stateMutability": "nonpayable",
      "type": "function"
    },
    {
      "inputs": [
        {
          "internalType": "address",
          "name": "sAddress",
          "type": "address"
        }
      ],
      "name": "setSTokensContract",
      "outputs": [],
      "stateMutability": "nonpayable",
      "type": "function"
    },
    {
      "inputs": [
        {
          "internalType": "address",
          "name": "pstakeAddress",
          "type": "address"
        }
      ],
      "name": "setPSTAKEContract",
      "outputs": [],
      "stateMutability": "nonpayable",
      "type": "function"
    },
    {
      "inputs": [],
      "name": "pause",
      "outputs": [
        {
          "internalType": "bool",
          "name": "success",
          "type": "bool"
        }
      ],
      "stateMutability": "nonpayable",
      "type": "function"
    },
    {
      "inputs": [],
      "name": "unpause",
      "outputs": [
        {
          "internalType": "bool",
          "name": "success",
          "type": "bool"
        }
      ],
      "stateMutability": "nonpayable",
      "type": "function"
    }
  ],
  "bytecode": "0x608060405234801561001057600080fd5b5061222c806100206000396000f3fe608060405234801561001057600080fd5b50600436106101c45760003560e01c80638456cb59116100f9578063ca15c87311610097578063d79cf55a11610071578063d79cf55a14610575578063e40c3f541461057d578063e63ab1e914610585578063f8c8765e1461058d576101c4565b8063ca15c873146104fe578063cce3dffd1461051b578063d547741f14610549576101c4565b8063a201ccf6116100d3578063a201ccf614610476578063a217fddf146104a2578063b29bad13146104aa578063c0818a52146104d8576101c4565b80638456cb591461041f5780639010d07c1461042757806391d148541461044a576101c4565b80633f4ba83a116101665780635c975abb116101405780635c975abb146103775780635edf9c9f1461037f57806378a2f074146103d55780637a19ec71146103f9576101c4565b80633f4ba83a1461030957806345d644cd14610325578063566887001461034b576101c4565b8063248a9ca3116101a2578063248a9ca31461025c5780632e31fab81461028b5780632f2ff15d146102b157806336568abe146102dd576101c4565b806318c91505146101c957806321bdf9e51461020e578063228d9eae14610236575b600080fd5b6101f5600480360360408110156101df57600080fd5b506001600160a01b0381351690602001356105cb565b6040805192835260208301919091528051918290030190f35b6102346004803603602081101561022457600080fd5b50356001600160a01b03166107d4565b005b6102346004803603602081101561024c57600080fd5b50356001600160a01b0316610867565b6102796004803603602081101561027257600080fd5b50356108f8565b60408051918252519081900360200190f35b610234600480360360208110156102a157600080fd5b50356001600160a01b031661090d565b610234600480360360408110156102c757600080fd5b50803590602001356001600160a01b031661099e565b610234600480360360408110156102f357600080fd5b50803590602001356001600160a01b0316610a05565b610311610a66565b604080519115158252519081900360200190f35b6102796004803603602081101561033b57600080fd5b50356001600160a01b0316610aca565b6101f56004803603604081101561036157600080fd5b506001600160a01b038135169060200135610adc565b610311610d5e565b6103b76004803603606081101561039557600080fd5b506001600160a01b038135811691602081013582169160409091013516610d67565b60408051938452602084019290925282820152519081900360600190f35b6103dd610f70565b604080516001600160a01b039092168252519081900360200190f35b6102796004803603602081101561040f57600080fd5b50356001600160a01b0316610f7f565b610311610f91565b6103dd6004803603604081101561043d57600080fd5b5080359060200135610fef565b6103116004803603604081101561046057600080fd5b50803590602001356001600160a01b0316611010565b6101f56004803603604081101561048c57600080fd5b506001600160a01b038135169060200135611028565b61027961130b565b610279600480360360408110156104c057600080fd5b506001600160a01b0381358116916020013516611310565b610279600480360360208110156104ee57600080fd5b50356001600160a01b031661132d565b6102796004803603602081101561051457600080fd5b503561133f565b6102796004803603604081101561053157600080fd5b506001600160a01b0381358116916020013516611356565b6102346004803603604081101561055f57600080fd5b50803590602001356001600160a01b0316611373565b6103dd6113cc565b6103dd6113db565b6102796113ea565b610234600480360360808110156105a357600080fd5b506001600160a01b0381358116916020810135821691604082013581169160600135166113fc565b6000806105d6610d5e565b1561061b576040805162461bcd60e51b815260206004820152601060248201526f14185d5cd8589b194e881c185d5cd95960821b604482015290519081900360640190fd5b60008311801561063357506001600160a01b03841615155b61066a576040805162461bcd60e51b815260206004820152600360248201526226281960e91b604482015290519081900360640190fd5b609d54604080516336bbacad60e01b81526001600160a01b0387811660048301529151600093849316916336bbacad916024808301926060929190829003018186803b1580156106b957600080fd5b505afa1580156106cd573d6000803e3d6000fd5b505050506040513d60608110156106e357600080fd5b50805160209091015190925090506001600160a01b0381161580159061071157506001600160a01b03821615155b610748576040805162461bcd60e51b81526020600482015260036024820152624c503560e81b604482015290519081900360640190fd5b61075a82826107556114f7565b6114fb565b90945092506107676114f7565b6001600160a01b0316816001600160a01b0316836001600160a01b03167f219927cc060ea45088dea8f1727ada7bb5059ece4b2d3cb18ac76c96d825805088888860405180848152602001838152602001828152602001935050505060405180910390a450509250929050565b6107e660006107e16114f7565b611010565b61081d576040805162461bcd60e51b81526020600482015260036024820152624c503960e81b604482015290519081900360640190fd5b609c80546001600160a01b0319166001600160a01b0383169081179091556040517ff745c285f36f88bea6af14d4d0f33dd9350cef7895216c1615b1caaee7857e0c90600090a250565b61087460006107e16114f7565b6108ae576040805162461bcd60e51b815260206004808301919091526024820152634c50313160e01b604482015290519081900360640190fd5b609e80546001600160a01b0319166001600160a01b0383169081179091556040517f2321c893a63891a056e19e865d785f953c42f766bab444a8bcabd3673cee3d1d90600090a250565b60009081526065602052604090206002015490565b61091a60006107e16114f7565b610954576040805162461bcd60e51b8152602060048083019190915260248201526304c5031360e41b604482015290519081900360640190fd5b609d80546001600160a01b0319166001600160a01b0383169081179091556040517fd0b9dbe26f676f4cdb02fc249c203baa0314cec79e18b4194dc862795a5de03f90600090a250565b6000828152606560205260409020600201546109bc906107e16114f7565b6109f75760405162461bcd60e51b815260040180806020018281038252602f8152602001806120c9602f913960400191505060405180910390fd5b610a018282611656565b5050565b610a0d6114f7565b6001600160a01b0316816001600160a01b031614610a5c5760405162461bcd60e51b815260040180806020018281038252602f8152602001806121c8602f913960400191505060405180910390fd5b610a0182826116bf565b6000610a826000805160206121a88339815191526107e16114f7565b610abc576040805162461bcd60e51b815260206004808301919091526024820152634c50313360e01b604482015290519081900360640190fd5b610ac4611728565b50600190565b60986020526000908152604090205481565b600080610ae7610d5e565b15610b2c576040805162461bcd60e51b815260206004820152601060248201526f14185d5cd8589b194e881c185d5cd95960821b604482015290519081900360640190fd5b600083118015610b4457506001600160a01b03841615155b610b7b576040805162461bcd60e51b815260206004820152600360248201526213140d60ea1b604482015290519081900360640190fd5b609d54604080516336bbacad60e01b81526001600160a01b0387811660048301529151600093849316916336bbacad916024808301926060929190829003018186803b158015610bca57600080fd5b505afa158015610bde573d6000803e3d6000fd5b505050506040513d6060811015610bf457600080fd5b50805160209091015190925090506001600160a01b03821615801590610c2257506001600160a01b03811615155b610c59576040805162461bcd60e51b81526020600482015260036024820152624c503560e81b604482015290519081900360640190fd5b6000610c636114f7565b9050610c708383836114fb565b95509350610c80828230896117c8565b6001600160a01b03808316600090815260976020908152604080832093851683529290522054610cb09087611924565b6001600160a01b0380841660008181526097602090815260408083209487168352938152838220949094559081526098909252902054610cf09087611924565b6001600160a01b0383166000818152609860209081526040918290209390935580519182529181018890528082018690526060810187905290517fbeb3885786d637a474cbc287c0a44587231633a077f0bd30354d5a4b18996fce9181900360800190a15050509250929050565b60335460ff1690565b6001600160a01b038083166000818152609760209081526040808320948616808452948252808320549383526098825280832054609b8352818420958452949091528120549092839283929091908390610dcd90610dc690429061197e565b84906119db565b6001600160a01b0389166000908152609a602052604081205491925090610df990610dc690429061197e565b6001600160a01b038a1660009081526099602052604081205491925090610e209083611924565b9050610e2c818461197e565b95508015610f6257609c54604080516370a0823160e01b81526001600160a01b038e81166004830152915160009392909216916370a0823191602480820192602092909190829003018186803b158015610e8557600080fd5b505afa158015610e99573d6000803e3d6000fd5b505050506040513d6020811015610eaf57600080fd5b50519050610ebe818584611a34565b97506000609e60009054906101000a90046001600160a01b03166001600160a01b03166370a082318e6040518263ffffffff1660e01b815260040180826001600160a01b0316815260200191505060206040518083038186803b158015610f2457600080fd5b505afa158015610f38573d6000803e3d6000fd5b505050506040513d6020811015610f4e57600080fd5b50519050610f5d818685611a34565b995050505b505050505093509350939050565b609c546001600160a01b031681565b609a6020526000908152604090205481565b6000610fad6000805160206121a88339815191526107e16114f7565b610fe7576040805162461bcd60e51b815260206004808301919091526024820152632628189960e11b604482015290519081900360640190fd5b610ac4611aef565b60008281526065602052604081206110079083611b72565b90505b92915050565b60008281526065602052604081206110079083611b7e565b600080611033610d5e565b15611078576040805162461bcd60e51b815260206004820152601060248201526f14185d5cd8589b194e881c185d5cd95960821b604482015290519081900360640190fd5b60008311801561109057506001600160a01b03841615155b6110c7576040805162461bcd60e51b815260206004820152600360248201526226281b60e91b604482015290519081900360640190fd5b609d54604080516336bbacad60e01b81526001600160a01b0387811660048301529151600093849316916336bbacad916024808301926060929190829003018186803b15801561111657600080fd5b505afa15801561112a573d6000803e3d6000fd5b505050506040513d606081101561114057600080fd5b50805160209091015190925090506001600160a01b0382161580159061116e57506001600160a01b03811615155b6111a5576040805162461bcd60e51b81526020600482015260036024820152624c503560e81b604482015290519081900360640190fd5b60006111af6114f7565b6001600160a01b03808416600090815260976020908152604080832093851683529290522054909150861115611212576040805162461bcd60e51b8152602060048201526003602482015262098a0760eb1b604482015290519081900360640190fd5b61121d8383836114fb565b9550935061122d823083896117c8565b6001600160a01b0380831660009081526097602090815260408083209385168352929052205461125d908761197e565b6001600160a01b038084166000818152609760209081526040808320948716835293815283822094909455908152609890925290205461129d908761197e565b6001600160a01b0383166000818152609860209081526040918290209390935580519182529181018890528082018690526060810187905290517f59c3a0b60c6ab7deb62e1440c9e72441db6db7dfe514dba8cb18e60c0d896efa9181900360800190a15050509250929050565b600081565b609b60209081526000928352604080842090915290825290205481565b60996020526000908152604090205481565b600081815260656020526040812061100a90611b93565b609760209081526000928352604080842090915290825290205481565b600082815260656020526040902060020154611391906107e16114f7565b610a5c5760405162461bcd60e51b81526004018080602001828103825260308152602001806121296030913960400191505060405180910390fd5b609d546001600160a01b031681565b609e546001600160a01b031681565b6000805160206121a883398151915281565b600054610100900460ff16806114155750611415611b9e565b80611423575060005460ff16155b61145e5760405162461bcd60e51b815260040180806020018281038252602e815260200180612159602e913960400191505060405180910390fd5b600054610100900460ff16158015611489576000805460ff1961ff0019909116610100171660011790555b611491611baf565b611499611c61565b6114ab60006114a66114f7565b6109f7565b6114c36000805160206121a8833981519152836109f7565b6114cc856107d4565b6114d58461090d565b6114de83610867565b80156114f0576000805461ff00191690555b5050505050565b3390565b600080600061150b868686610d67565b6001600160a01b038089166000818152609b60209081526040808320948c1683529381528382204290819055928252609a8152838220929092556099909152208190559194509250905082156115d157609e546040805163d1660f9960e01b81526001600160a01b03928316600482015286831660248201526044810186905290519188169163d1660f999160648082019260009290919082900301818387803b1580156115b857600080fd5b505af11580156115cc573d6000803e3d6000fd5b505050505b811561164d57609c546040805163d1660f9960e01b81526001600160a01b03928316600482015286831660248201526044810185905290519188169163d1660f999160648082019260009290919082900301818387803b15801561163457600080fd5b505af1158015611648573d6000803e3d6000fd5b505050505b50935093915050565b600082815260656020526040902061166e9082611cfe565b15610a015761167b6114f7565b6001600160a01b0316816001600160a01b0316837f2f8788117e7eff1d82e926ec794901d17c78024a50270940304540a733656f0d60405160405180910390a45050565b60008281526065602052604090206116d79082611d13565b15610a01576116e46114f7565b6001600160a01b0316816001600160a01b0316837ff6391f5c32d9c69d2a47ea670b442974b53935d1edc7fd64eb21e047a839171b60405160405180910390a45050565b611730610d5e565b611778576040805162461bcd60e51b815260206004820152601460248201527314185d5cd8589b194e881b9bdd081c185d5cd95960621b604482015290519081900360640190fd5b6033805460ff191690557f5db9ee0a495bf2e6ff9c91a7834c1ba4fdd244a5e8aa4e537bd38aeae4b073aa6117ab6114f7565b604080516001600160a01b039092168252519081900360200190a1565b604080516001600160a01b0385811660248301528481166044830152606480830185905283518084039091018152608490920183526020820180516001600160e01b03166323b872dd60e01b178152925182516000948594938a169392918291908083835b6020831061184c5780518252601f19909201916020918201910161182d565b6001836020036101000a0380198251168184511680821785525050505050509050019150506000604051808303816000865af19150503d80600081146118ae576040519150601f19603f3d011682016040523d82523d6000602084013e6118b3565b606091505b50915091508180156118e15750805115806118e157508080602001905160208110156118de57600080fd5b50515b61191c5760405162461bcd60e51b81526004018080602001828103825260318152602001806120f86031913960400191505060405180910390fd5b505050505050565b600082820183811015611007576040805162461bcd60e51b815260206004820152601b60248201527f536166654d6174683a206164646974696f6e206f766572666c6f770000000000604482015290519081900360640190fd5b6000828211156119d5576040805162461bcd60e51b815260206004820152601e60248201527f536166654d6174683a207375627472616374696f6e206f766572666c6f770000604482015290519081900360640190fd5b50900390565b6000826119ea5750600061100a565b828202828482816119f757fe5b04146110075760405162461bcd60e51b81526004018080602001828103825260218152602001806121876021913960400191505060405180910390fd5b6000806000611a438686611d28565b9150915060008480611a5157fe5b868809905082811115611a65576001820391505b918290039181611a8357848381611a7857fe5b049350505050611ae8565b848210611ad7576040805162461bcd60e51b815260206004820152601a60248201527f46756c6c4d6174683a2046554c4c4449565f4f564552464c4f57000000000000604482015290519081900360640190fd5b611ae2838387611d55565b93505050505b9392505050565b611af7610d5e565b15611b3c576040805162461bcd60e51b815260206004820152601060248201526f14185d5cd8589b194e881c185d5cd95960821b604482015290519081900360640190fd5b6033805460ff191660011790557f62e78cea01bee320cd4e420270b5ea74000d11b0c9f74754ebdbfc544b05a2586117ab6114f7565b60006110078383611dc5565b6000611007836001600160a01b038416611e29565b600061100a82611e41565b6000611ba930611e45565b15905090565b600054610100900460ff1680611bc85750611bc8611b9e565b80611bd6575060005460ff16155b611c115760405162461bcd60e51b815260040180806020018281038252602e815260200180612159602e913960400191505060405180910390fd5b600054610100900460ff16158015611c3c576000805460ff1961ff0019909116610100171660011790555b611c44611e4b565b611c4c611e4b565b8015611c5e576000805461ff00191690555b50565b600054610100900460ff1680611c7a5750611c7a611b9e565b80611c88575060005460ff16155b611cc35760405162461bcd60e51b815260040180806020018281038252602e815260200180612159602e913960400191505060405180910390fd5b600054610100900460ff16158015611cee576000805460ff1961ff0019909116610100171660011790555b611cf6611e4b565b611c4c611eeb565b6000611007836001600160a01b038416611f96565b6000611007836001600160a01b038416611fe0565b6000808060001984860990508385029250828103915082811015611d4d576001820391505b509250929050565b60008181038216808381611d6557fe5b049250808581611d7157fe5b049450808160000381611d8057fe5b60028581038087028203028087028203028087028203028087028203028087028203028087028203029586029003909402930460010193909302939093010292915050565b81546000908210611e075760405162461bcd60e51b81526004018080602001828103825260228152602001806120a76022913960400191505060405180910390fd5b826000018281548110611e1657fe5b9060005260206000200154905092915050565b60009081526001919091016020526040902054151590565b5490565b3b151590565b600054610100900460ff1680611e645750611e64611b9e565b80611e72575060005460ff16155b611ead5760405162461bcd60e51b815260040180806020018281038252602e815260200180612159602e913960400191505060405180910390fd5b600054610100900460ff16158015611c4c576000805460ff1961ff0019909116610100171660011790558015611c5e576000805461ff001916905550565b600054610100900460ff1680611f045750611f04611b9e565b80611f12575060005460ff16155b611f4d5760405162461bcd60e51b815260040180806020018281038252602e815260200180612159602e913960400191505060405180910390fd5b600054610100900460ff16158015611f78576000805460ff1961ff0019909116610100171660011790555b6033805460ff191690558015611c5e576000805461ff001916905550565b6000611fa28383611e29565b611fd85750815460018181018455600084815260208082209093018490558454848252828601909352604090209190915561100a565b50600061100a565b6000818152600183016020526040812054801561209c578354600019808301919081019060009087908390811061201357fe5b906000526020600020015490508087600001848154811061203057fe5b60009182526020808320909101929092558281526001898101909252604090209084019055865487908061206057fe5b6001900381819060005260206000200160009055905586600101600087815260200190815260200160002060009055600194505050505061100a565b600091505061100a56fe456e756d657261626c655365743a20696e646578206f7574206f6620626f756e6473416363657373436f6e74726f6c3a2073656e646572206d75737420626520616e2061646d696e20746f206772616e745472616e7366657248656c7065723a3a7472616e7366657246726f6d3a207472616e7366657246726f6d206661696c6564416363657373436f6e74726f6c3a2073656e646572206d75737420626520616e2061646d696e20746f207265766f6b65496e697469616c697a61626c653a20636f6e747261637420697320616c726561647920696e697469616c697a6564536166654d6174683a206d756c7469706c69636174696f6e206f766572666c6f7765d7a28e3265b37a6474929f336521b332c1681b933f6cb9f3376673440d862a416363657373436f6e74726f6c3a2063616e206f6e6c792072656e6f756e636520726f6c657320666f722073656c66a2646970667358221220cc14d3d020ddfdf37039d6a3cb6b28fc9ed3e1029a4aaccde31b50bbbd6dc8eb64736f6c63430007060033",
  "immutableReferences": {},
  "source": "// SPDX-License-Identifier: UNLICENSED\npragma solidity >=0.7.0;\n\nimport \"@openzeppelin/contracts-upgradeable/math/SafeMathUpgradeable.sol\";\nimport \"@openzeppelin/contracts-upgradeable/access/AccessControlUpgradeable.sol\";\nimport \"@openzeppelin/contracts-upgradeable/utils/PausableUpgradeable.sol\";\nimport \"./interfaces/ISTokens.sol\";\nimport \"./interfaces/IUTokens.sol\";\nimport \"./interfaces/IPSTAKE.sol\";\nimport \"./interfaces/IHolder.sol\";\nimport \"./interfaces/IStakeLPCore.sol\";\nimport \"./libraries/TransferHelper.sol\";\nimport \"./libraries/FullMath.sol\";\n\ncontract StakeLPCoreV6 is\n\tIStakeLPCore,\n\tPausableUpgradeable,\n\tAccessControlUpgradeable\n{\n\tusing SafeMathUpgradeable for uint256;\n\tusing FullMath for uint256;\n\n\t// constant pertaining to access roles\n\tbytes32 public constant PAUSER_ROLE = keccak256(\"PAUSER_ROLE\");\n\n\t// balance of user for an LP Token\n\tmapping(address => mapping(address => uint256)) public _lpBalance;\n\t// supply for an LP Token\n\tmapping(address => uint256) public _lpSupply;\n\t// last recorded total LPTimeShare\n\tmapping(address => uint256) public _lastLPTimeShare;\n\t// last recorded timestamp when rewards were disbursed\n\tmapping(address => uint256) public _lastLPTimeShareTimestamp;\n\t// last recorded timestamp when PSTAKE tokens were disbursed\n\tmapping(address => mapping(address => uint256))\n\t\tpublic _lastLiquidityTimestamp;\n\n\t//Private instances of contracts to handle Utokens and Stokens\n\tIUTokens public _uTokens;\n\tISTokens public _sTokens;\n\tIPSTAKE public _pstakeTokens;\n\n\t/**\n\t * @dev Constructor for initializing the LiquidStaking contract.\n\t * @param uAddress - address of the UToken contract.\n\t * @param sAddress - address of the SToken contract.\n\t * @param pStakeAddress - address of the pStake contract address.\n\t */\n\tfunction initialize(\n\t\taddress uAddress,\n\t\taddress sAddress,\n\t\taddress pStakeAddress,\n\t\taddress pauserAddress\n\t) public virtual initializer {\n\t\t__AccessControl_init();\n\t\t__Pausable_init();\n\t\t_setupRole(DEFAULT_ADMIN_ROLE, _msgSender());\n\t\t_setupRole(PAUSER_ROLE, pauserAddress);\n\t\tsetUTokensContract(uAddress);\n\t\tsetSTokensContract(sAddress);\n\t\tsetPSTAKEContract(pStakeAddress);\n\t\t// _lastLPTimeShareTimestamp = block.timestamp;\n\t}\n\n\t/*\n\t * @dev calculate liquidity and reward tokens and disburse to user\n\t * @param lpToken: lp token contract address\n\t * @param to: user address\n\t * @param liquidityWeightFactor: coming as an argument for further calculations\n\t * @param rewardWeightFactor: coming as an argument for further calculations\n\t * @param valueDivisor: coming as an argument for further calculations\n\t */\n\tfunction calculatePendingRewardsAndLiquidity(\n\t\taddress holderAddress,\n\t\taddress lpToken,\n\t\taddress to\n\t)\n\t\tpublic\n\t\tview\n\t\treturns (\n\t\t\tuint256 liquidity,\n\t\t\tuint256 reward,\n\t\t\tuint256 updatedSupplyLPTimeshare\n\t\t)\n\t{\n\t\t// get the balance of user's LP token\n\t\tuint256 _lpBalanceUser = _lpBalance[lpToken][to];\n\t\tuint256 _lpSupplyContract = _lpSupply[lpToken];\n\n\t\t// calculate the LPTimeShare of the user's LP Token\n\t\tuint256 _userLPTimeShare = (\n\t\t\t_lpBalanceUser.mul(\n\t\t\t\tblock.timestamp.sub(_lastLiquidityTimestamp[lpToken][to])\n\t\t\t)\n\t\t);\n\n\t\t// calculate the LPTimeShare of the sum of supply of all LP Tokens\n\t\tuint256 _newSupplyLPTimeShare = (\n\t\t\t_lpSupplyContract.mul(\n\t\t\t\tblock.timestamp.sub(_lastLPTimeShareTimestamp[lpToken])\n\t\t\t)\n\t\t);\n\t\tuint256 _totalSupplyLPTimeShare = _lastLPTimeShare[lpToken].add(\n\t\t\t_newSupplyLPTimeShare\n\t\t);\n\t\t// is the remaining LPTimeShare of the total supply after the tokens for the user has been dispatched\n\t\tupdatedSupplyLPTimeshare = _totalSupplyLPTimeShare.sub(\n\t\t\t_userLPTimeShare\n\t\t);\n\n\t\tif (_totalSupplyLPTimeShare > 0) {\n\t\t\t// calculate users new reward tokens\n\t\t\tuint256 _rewardPool = _uTokens.balanceOf(holderAddress);\n\t\t\treward = _rewardPool.mulDiv(\n\t\t\t\t_userLPTimeShare,\n\t\t\t\t_totalSupplyLPTimeShare\n\t\t\t);\n\n\t\t\t// calculate users new liquidity tokens\n\t\t\tuint256 _liquidityPool = _pstakeTokens.balanceOf(holderAddress);\n\t\t\tliquidity = _liquidityPool.mulDiv(\n\t\t\t\t_userLPTimeShare,\n\t\t\t\t_totalSupplyLPTimeShare\n\t\t\t);\n\t\t}\n\t}\n\n\t/*\n\t * @dev calculate liquidity and reward tokens and disburse to user\n\t * @param lpToken: lp token contract address\n\t * @param to: user address\n\t * @param liquidityWeightFactor: coming as an argument for further calculations\n\t * @param rewardWeightFactor: coming as an argument for further calculations\n\t * @param valueDivisor: coming as an argument for further calculations\n\t */\n\tfunction _calculateRewardsAndLiquidity(\n\t\taddress holderAddress,\n\t\taddress lpToken,\n\t\taddress to\n\t) internal returns (uint256 liquidity, uint256 reward) {\n\t\tuint256 updatedSupplyLPTimeshare;\n\t\t(\n\t\t\tliquidity,\n\t\t\treward,\n\t\t\tupdatedSupplyLPTimeshare\n\t\t) = calculatePendingRewardsAndLiquidity(holderAddress, lpToken, to);\n\n\t\t// update last timestamps and LPTimeShares as per Checks-Effects-Interactions pattern\n\t\t_lastLiquidityTimestamp[lpToken][to] = block.timestamp;\n\t\t_lastLPTimeShareTimestamp[lpToken] = block.timestamp;\n\t\t_lastLPTimeShare[lpToken] = updatedSupplyLPTimeshare;\n\n\t\t// DISBURSE THE LIQUIDITY TOKENS TO USER (transfer)\n\t\tif (liquidity > 0)\n\t\t\tIHolder(holderAddress).safeTransfer(\n\t\t\t\taddress(_pstakeTokens),\n\t\t\t\tto,\n\t\t\t\tliquidity\n\t\t\t);\n\n\t\t// DISBURSE THE REWARD TOKENS TO USER (transfer)\n\t\tif (reward > 0)\n\t\t\tIHolder(holderAddress).safeTransfer(address(_uTokens), to, reward);\n\t}\n\n\t/*\n\t * @dev calculate liquidity and reward tokens and disburse to user\n\t * @param lpToken: lp token contract address\n\t * @param amount: token amount\n\t */\n\tfunction calculateRewardsAndLiquidity(\n\t\taddress whitelistedAddress,\n\t\tuint256 amount\n\t) public whenNotPaused returns (uint256 liquidity, uint256 reward) {\n\t\t// check for validity of arguments\n\t\trequire(amount > 0 && whitelistedAddress != address(0), \"LP2\");\n\n\t\t// check if lpToken contract of DeFi product address is whitelisted and has valid holder contract\n\t\t(address _holderAddress, address _lpToken, ) = _sTokens.getHolderData(\n\t\t\twhitelistedAddress\n\t\t);\n\t\t// (bool _isContractWhitelisted, address _holderAddress) = _sTokens.isContractWhitelisted(_lpToken);\n\t\trequire(_lpToken != address(0) && _holderAddress != address(0), \"LP5\");\n\n\t\t// calculate liquidity and reward tokens and disburse to user\n\t\t(liquidity, reward) = _calculateRewardsAndLiquidity(\n\t\t\t_holderAddress,\n\t\t\t_lpToken,\n\t\t\t_msgSender()\n\t\t);\n\t\tCalculateRewardsAndLiquidity(\n\t\t\t_holderAddress,\n\t\t\t_lpToken,\n\t\t\tamount,\n\t\t\t_msgSender(),\n\t\t\tliquidity,\n\t\t\treward\n\t\t);\n\t}\n\n\t/*\n\t * @dev adding the liquidity\n\t * @param lpToken: lp token contract address\n\t * @param amount: token amount\n\t *\n\t * Emits a {AddLiquidity} event with 'lpToken, amount, rewards and liquidity'\n\t *\n\t */\n\tfunction addLiquidity(address whitelistedAddress, uint256 amount)\n\t\tpublic\n\t\tvirtual\n\t\toverride\n\t\twhenNotPaused\n\t\treturns (uint256 liquidity, uint256 rewards)\n\t{\n\t\t// check for validity of arguments\n\t\trequire(amount > 0 && whitelistedAddress != address(0), \"LP4\");\n\n\t\t// check if lpToken contract of DeFi product address is whitelisted and has valid holder contract\n\t\t// (bool _isContractWhitelisted, address _holderAddress) = _sTokens.isContractWhitelisted(_lpToken);\n\t\t(address _holderAddress, address _lpToken, ) = _sTokens.getHolderData(\n\t\t\twhitelistedAddress\n\t\t);\n\t\trequire(_holderAddress != address(0) && _lpToken != address(0), \"LP5\");\n\t\taddress messageSender = _msgSender();\n\n\t\t// calculate liquidity and reward tokens and disburse to user\n\t\t(rewards, liquidity) = _calculateRewardsAndLiquidity(\n\t\t\t_holderAddress,\n\t\t\t_lpToken,\n\t\t\tmessageSender\n\t\t);\n\t\t// finally transfer the new LP Tokens to the StakeLP contract\n\t\tTransferHelper.safeTransferFrom(\n\t\t\t_lpToken,\n\t\t\tmessageSender,\n\t\t\taddress(this),\n\t\t\tamount\n\t\t);\n\t\t// update the user balance\n\t\t_lpBalance[_lpToken][messageSender] = _lpBalance[_lpToken][\n\t\t\tmessageSender\n\t\t].add(amount);\n\t\t// update the supply of lp tokens for reward and liquidity calculation\n\t\t_lpSupply[_lpToken] = _lpSupply[_lpToken].add(amount);\n\t\temit AddLiquidity(_lpToken, amount, rewards, liquidity);\n\t}\n\n\t/*\n\t * @dev removing the liquidity\n\t * @param lpToken: lp token contract address\n\t * @param amount: token amount\n\t *\n\t * Emits a {RemoveLiquidity} event with 'lpToken, amount, rewards and liquidity'\n\t *\n\t */\n\tfunction removeLiquidity(address whitelistedAddress, uint256 amount)\n\t\tpublic\n\t\tvirtual\n\t\toverride\n\t\twhenNotPaused\n\t\treturns (uint256 liquidity, uint256 rewards)\n\t{\n\t\t// check for validity of arguments\n\t\trequire(amount > 0 && whitelistedAddress != address(0), \"LP6\");\n\n\t\t// check if lpToken contract of DeFi product address is whitelisted and has valid holder contract\n\t\t// (bool _isContractWhitelisted, address _holderAddress) = _sTokens.isContractWhitelisted(lpToken);\n\t\t(address _holderAddress, address _lpToken, ) = _sTokens.getHolderData(\n\t\t\twhitelistedAddress\n\t\t);\n\t\trequire(_holderAddress != address(0) && _lpToken != address(0), \"LP5\");\n\t\taddress messageSender = _msgSender();\n\n\t\t// check if suffecient balance is there\n\t\trequire(_lpBalance[_lpToken][messageSender] >= amount, \"LP8\");\n\n\t\t// calculate liquidity and reward tokens and disburse to user\n\t\t(rewards, liquidity) = _calculateRewardsAndLiquidity(\n\t\t\t_holderAddress,\n\t\t\t_lpToken,\n\t\t\tmessageSender\n\t\t);\n\t\t// finally transfer the LP Tokens to the user\n\t\tTransferHelper.safeTransferFrom(\n\t\t\t_lpToken,\n\t\t\taddress(this),\n\t\t\tmessageSender,\n\t\t\tamount\n\t\t);\n\t\t// update the user balance\n\t\t_lpBalance[_lpToken][messageSender] = _lpBalance[_lpToken][\n\t\t\tmessageSender\n\t\t].sub(amount);\n\t\t// update the supply of lp tokens for reward and liquidity calculation\n\t\t_lpSupply[_lpToken] = _lpSupply[_lpToken].sub(amount);\n\t\temit RemoveLiquidity(_lpToken, amount, rewards, liquidity);\n\t}\n\n\t/**\n\t * @dev Set 'contract address', called from constructor\n\t * @param uAddress: utoken contract address\n\t *\n\t * Emits a {SetUTokensContract} event with '_contract' set to the utoken contract address.\n\t *\n\t */\n\tfunction setUTokensContract(address uAddress) public virtual override {\n\t\trequire(hasRole(DEFAULT_ADMIN_ROLE, _msgSender()), \"LP9\");\n\t\t_uTokens = IUTokens(uAddress);\n\t\temit SetUTokensContract(uAddress);\n\t}\n\n\t/**\n\t * @dev Set 'contract address', called from constructor\n\t * @param sAddress: stoken contract address\n\t *\n\t * Emits a {SetSTokensContract} event with '_contract' set to the stoken contract address.\n\t *\n\t */\n\tfunction setSTokensContract(address sAddress) public virtual override {\n\t\trequire(hasRole(DEFAULT_ADMIN_ROLE, _msgSender()), \"LP10\");\n\t\t_sTokens = ISTokens(sAddress);\n\t\temit SetSTokensContract(sAddress);\n\t}\n\n\t/**\n\t * @dev Set 'contract address', called from constructor\n\t * @param pstakeAddress: pStake contract address\n\t *\n\t * Emits a {SetPSTAKEContract} event with '_contract' set to the stoken contract address.\n\t *\n\t */\n\tfunction setPSTAKEContract(address pstakeAddress) public virtual override {\n\t\trequire(hasRole(DEFAULT_ADMIN_ROLE, _msgSender()), \"LP11\");\n\t\t_pstakeTokens = IPSTAKE(pstakeAddress);\n\t\temit SetPSTAKEContract(pstakeAddress);\n\t}\n\n\t/**\n\t * @dev Triggers stopped state.\n\t *\n\t * Requirements:\n\t *\n\t * - The contract must not be paused.\n\t */\n\tfunction pause() public virtual returns (bool success) {\n\t\trequire(hasRole(PAUSER_ROLE, _msgSender()), \"LP12\");\n\t\t_pause();\n\t\treturn true;\n\t}\n\n\t/**\n\t * @dev Returns to normal state.\n\t *\n\t * Requirements:\n\t *\n\t * - The contract must be paused.\n\t */\n\tfunction unpause() public virtual returns (bool success) {\n\t\trequire(hasRole(PAUSER_ROLE, _msgSender()), \"LP13\");\n\t\t_unpause();\n\t\treturn true;\n\t}\n}\n",
  "sourcePath": "C:\\Users\\Kamlesh\\Persistence\\pStake\\codebase\\pStake-smartContracts\\contracts\\StakeLPCoreV6.sol",
  "compiler": {
    "name": "solc",
    "version": "0.7.6+commit.7338295f.Emscripten.clang"
  },
  "schemaVersion": "3.4.3",
  "updatedAt": "2021-09-09T13:07:59.795Z",
  "devdoc": {
    "kind": "dev",
    "methods": {
      "getRoleAdmin(bytes32)": {
        "details": "Returns the admin role that controls `role`. See {grantRole} and {revokeRole}. To change a role's admin, use {_setRoleAdmin}."
      },
      "getRoleMember(bytes32,uint256)": {
        "details": "Returns one of the accounts that have `role`. `index` must be a value between 0 and {getRoleMemberCount}, non-inclusive. Role bearers are not sorted in any particular way, and their ordering may change at any point. WARNING: When using {getRoleMember} and {getRoleMemberCount}, make sure you perform all queries on the same block. See the following https://forum.openzeppelin.com/t/iterating-over-elements-on-enumerableset-in-openzeppelin-contracts/2296[forum post] for more information."
      },
      "getRoleMemberCount(bytes32)": {
        "details": "Returns the number of accounts that have `role`. Can be used together with {getRoleMember} to enumerate all bearers of a role."
      },
      "grantRole(bytes32,address)": {
        "details": "Grants `role` to `account`. If `account` had not been already granted `role`, emits a {RoleGranted} event. Requirements: - the caller must have ``role``'s admin role."
      },
      "hasRole(bytes32,address)": {
        "details": "Returns `true` if `account` has been granted `role`."
      },
      "initialize(address,address,address,address)": {
        "details": "Constructor for initializing the LiquidStaking contract.",
        "params": {
          "pStakeAddress": "- address of the pStake contract address.",
          "sAddress": "- address of the SToken contract.",
          "uAddress": "- address of the UToken contract."
        }
      },
      "pause()": {
        "details": "Triggers stopped state. Requirements: - The contract must not be paused."
      },
      "paused()": {
        "details": "Returns true if the contract is paused, and false otherwise."
      },
      "renounceRole(bytes32,address)": {
        "details": "Revokes `role` from the calling account. Roles are often managed via {grantRole} and {revokeRole}: this function's purpose is to provide a mechanism for accounts to lose their privileges if they are compromised (such as when a trusted device is misplaced). If the calling account had been granted `role`, emits a {RoleRevoked} event. Requirements: - the caller must be `account`."
      },
      "revokeRole(bytes32,address)": {
        "details": "Revokes `role` from `account`. If `account` had been granted `role`, emits a {RoleRevoked} event. Requirements: - the caller must have ``role``'s admin role."
      },
      "setPSTAKEContract(address)": {
        "details": "Set 'contract address', called from constructor",
        "params": {
          "pstakeAddress": ": pStake contract address Emits a {SetPSTAKEContract} event with '_contract' set to the stoken contract address."
        }
      },
      "setSTokensContract(address)": {
        "details": "Set 'contract address', called from constructor",
        "params": {
          "sAddress": ": stoken contract address Emits a {SetSTokensContract} event with '_contract' set to the stoken contract address."
        }
      },
      "setUTokensContract(address)": {
        "details": "Set 'contract address', called from constructor",
        "params": {
          "uAddress": ": utoken contract address Emits a {SetUTokensContract} event with '_contract' set to the utoken contract address."
        }
      },
      "unpause()": {
        "details": "Returns to normal state. Requirements: - The contract must be paused."
      }
    },
    "version": 1
  },
  "userdoc": {
    "kind": "user",
    "methods": {},
    "version": 1
  }
}