{
  "contractName": "StakeLPCoreV5",
  "abi": [
    {
      "anonymous": false,
      "inputs": [
        {
          "indexed": false,
          "internalType": "address",
          "name": "lpToken",
          "type": "address"
        },
        {
          "indexed": false,
          "internalType": "uint256",
          "name": "amount",
          "type": "uint256"
        },
        {
          "indexed": false,
          "internalType": "uint256",
          "name": "rewards",
          "type": "uint256"
        },
        {
          "indexed": false,
          "internalType": "uint256",
          "name": "liquidity",
          "type": "uint256"
        }
      ],
      "name": "AddLiquidity",
      "type": "event"
    },
    {
      "anonymous": false,
      "inputs": [
        {
          "indexed": true,
          "internalType": "address",
          "name": "holderAddress",
          "type": "address"
        },
        {
          "indexed": true,
          "internalType": "address",
          "name": "lpToken",
          "type": "address"
        },
        {
          "indexed": false,
          "internalType": "uint256",
          "name": "amount",
          "type": "uint256"
        },
        {
          "indexed": true,
          "internalType": "address",
          "name": "to",
          "type": "address"
        },
        {
          "indexed": false,
          "internalType": "uint256",
          "name": "liquidity",
          "type": "uint256"
        },
        {
          "indexed": false,
          "internalType": "uint256",
          "name": "reward",
          "type": "uint256"
        }
      ],
      "name": "CalculateRewardsAndLiquidity",
      "type": "event"
    },
    {
      "anonymous": false,
      "inputs": [
        {
          "indexed": false,
          "internalType": "address",
          "name": "account",
          "type": "address"
        }
      ],
      "name": "Paused",
      "type": "event"
    },
    {
      "anonymous": false,
      "inputs": [
        {
          "indexed": false,
          "internalType": "address",
          "name": "lpToken",
          "type": "address"
        },
        {
          "indexed": false,
          "internalType": "uint256",
          "name": "amount",
          "type": "uint256"
        },
        {
          "indexed": false,
          "internalType": "uint256",
          "name": "rewards",
          "type": "uint256"
        },
        {
          "indexed": false,
          "internalType": "uint256",
          "name": "liquidity",
          "type": "uint256"
        }
      ],
      "name": "RemoveLiquidity",
      "type": "event"
    },
    {
      "anonymous": false,
      "inputs": [
        {
          "indexed": true,
          "internalType": "bytes32",
          "name": "role",
          "type": "bytes32"
        },
        {
          "indexed": true,
          "internalType": "bytes32",
          "name": "previousAdminRole",
          "type": "bytes32"
        },
        {
          "indexed": true,
          "internalType": "bytes32",
          "name": "newAdminRole",
          "type": "bytes32"
        }
      ],
      "name": "RoleAdminChanged",
      "type": "event"
    },
    {
      "anonymous": false,
      "inputs": [
        {
          "indexed": true,
          "internalType": "bytes32",
          "name": "role",
          "type": "bytes32"
        },
        {
          "indexed": true,
          "internalType": "address",
          "name": "account",
          "type": "address"
        },
        {
          "indexed": true,
          "internalType": "address",
          "name": "sender",
          "type": "address"
        }
      ],
      "name": "RoleGranted",
      "type": "event"
    },
    {
      "anonymous": false,
      "inputs": [
        {
          "indexed": true,
          "internalType": "bytes32",
          "name": "role",
          "type": "bytes32"
        },
        {
          "indexed": true,
          "internalType": "address",
          "name": "account",
          "type": "address"
        },
        {
          "indexed": true,
          "internalType": "address",
          "name": "sender",
          "type": "address"
        }
      ],
      "name": "RoleRevoked",
      "type": "event"
    },
    {
      "anonymous": false,
      "inputs": [
        {
          "indexed": true,
          "internalType": "address",
          "name": "_contract",
          "type": "address"
        }
      ],
      "name": "SetPSTAKEContract",
      "type": "event"
    },
    {
      "anonymous": false,
      "inputs": [
        {
          "indexed": true,
          "internalType": "address",
          "name": "_contract",
          "type": "address"
        }
      ],
      "name": "SetSTokensContract",
      "type": "event"
    },
    {
      "anonymous": false,
      "inputs": [
        {
          "indexed": true,
          "internalType": "address",
          "name": "_contract",
          "type": "address"
        }
      ],
      "name": "SetUTokensContract",
      "type": "event"
    },
    {
      "anonymous": false,
      "inputs": [
        {
          "indexed": false,
          "internalType": "address",
          "name": "account",
          "type": "address"
        }
      ],
      "name": "Unpaused",
      "type": "event"
    },
    {
      "inputs": [],
      "name": "DEFAULT_ADMIN_ROLE",
      "outputs": [
        {
          "internalType": "bytes32",
          "name": "",
          "type": "bytes32"
        }
      ],
      "stateMutability": "view",
      "type": "function",
      "constant": true
    },
    {
      "inputs": [],
      "name": "PAUSER_ROLE",
      "outputs": [
        {
          "internalType": "bytes32",
          "name": "",
          "type": "bytes32"
        }
      ],
      "stateMutability": "view",
      "type": "function",
      "constant": true
    },
    {
      "inputs": [
        {
          "internalType": "address",
          "name": "",
          "type": "address"
        }
      ],
      "name": "_lastLPTimeShare",
      "outputs": [
        {
          "internalType": "uint256",
          "name": "",
          "type": "uint256"
        }
      ],
      "stateMutability": "view",
      "type": "function",
      "constant": true
    },
    {
      "inputs": [
        {
          "internalType": "address",
          "name": "",
          "type": "address"
        }
      ],
      "name": "_lastLPTimeShareTimestamp",
      "outputs": [
        {
          "internalType": "uint256",
          "name": "",
          "type": "uint256"
        }
      ],
      "stateMutability": "view",
      "type": "function",
      "constant": true
    },
    {
      "inputs": [
        {
          "internalType": "address",
          "name": "",
          "type": "address"
        },
        {
          "internalType": "address",
          "name": "",
          "type": "address"
        }
      ],
      "name": "_lastLiquidityTimestamp",
      "outputs": [
        {
          "internalType": "uint256",
          "name": "",
          "type": "uint256"
        }
      ],
      "stateMutability": "view",
      "type": "function",
      "constant": true
    },
    {
      "inputs": [
        {
          "internalType": "address",
          "name": "",
          "type": "address"
        },
        {
          "internalType": "address",
          "name": "",
          "type": "address"
        }
      ],
      "name": "_lpBalance",
      "outputs": [
        {
          "internalType": "uint256",
          "name": "",
          "type": "uint256"
        }
      ],
      "stateMutability": "view",
      "type": "function",
      "constant": true
    },
    {
      "inputs": [
        {
          "internalType": "address",
          "name": "",
          "type": "address"
        }
      ],
      "name": "_lpSupply",
      "outputs": [
        {
          "internalType": "uint256",
          "name": "",
          "type": "uint256"
        }
      ],
      "stateMutability": "view",
      "type": "function",
      "constant": true
    },
    {
      "inputs": [],
      "name": "_pstakeTokens",
      "outputs": [
        {
          "internalType": "contract IPSTAKE",
          "name": "",
          "type": "address"
        }
      ],
      "stateMutability": "view",
      "type": "function",
      "constant": true
    },
    {
      "inputs": [],
      "name": "_sTokens",
      "outputs": [
        {
          "internalType": "contract ISTokens",
          "name": "",
          "type": "address"
        }
      ],
      "stateMutability": "view",
      "type": "function",
      "constant": true
    },
    {
      "inputs": [],
      "name": "_uTokens",
      "outputs": [
        {
          "internalType": "contract IUTokens",
          "name": "",
          "type": "address"
        }
      ],
      "stateMutability": "view",
      "type": "function",
      "constant": true
    },
    {
      "inputs": [
        {
          "internalType": "bytes32",
          "name": "role",
          "type": "bytes32"
        }
      ],
      "name": "getRoleAdmin",
      "outputs": [
        {
          "internalType": "bytes32",
          "name": "",
          "type": "bytes32"
        }
      ],
      "stateMutability": "view",
      "type": "function",
      "constant": true
    },
    {
      "inputs": [
        {
          "internalType": "bytes32",
          "name": "role",
          "type": "bytes32"
        },
        {
          "internalType": "uint256",
          "name": "index",
          "type": "uint256"
        }
      ],
      "name": "getRoleMember",
      "outputs": [
        {
          "internalType": "address",
          "name": "",
          "type": "address"
        }
      ],
      "stateMutability": "view",
      "type": "function",
      "constant": true
    },
    {
      "inputs": [
        {
          "internalType": "bytes32",
          "name": "role",
          "type": "bytes32"
        }
      ],
      "name": "getRoleMemberCount",
      "outputs": [
        {
          "internalType": "uint256",
          "name": "",
          "type": "uint256"
        }
      ],
      "stateMutability": "view",
      "type": "function",
      "constant": true
    },
    {
      "inputs": [
        {
          "internalType": "bytes32",
          "name": "role",
          "type": "bytes32"
        },
        {
          "internalType": "address",
          "name": "account",
          "type": "address"
        }
      ],
      "name": "grantRole",
      "outputs": [],
      "stateMutability": "nonpayable",
      "type": "function"
    },
    {
      "inputs": [
        {
          "internalType": "bytes32",
          "name": "role",
          "type": "bytes32"
        },
        {
          "internalType": "address",
          "name": "account",
          "type": "address"
        }
      ],
      "name": "hasRole",
      "outputs": [
        {
          "internalType": "bool",
          "name": "",
          "type": "bool"
        }
      ],
      "stateMutability": "view",
      "type": "function",
      "constant": true
    },
    {
      "inputs": [],
      "name": "paused",
      "outputs": [
        {
          "internalType": "bool",
          "name": "",
          "type": "bool"
        }
      ],
      "stateMutability": "view",
      "type": "function",
      "constant": true
    },
    {
      "inputs": [
        {
          "internalType": "bytes32",
          "name": "role",
          "type": "bytes32"
        },
        {
          "internalType": "address",
          "name": "account",
          "type": "address"
        }
      ],
      "name": "renounceRole",
      "outputs": [],
      "stateMutability": "nonpayable",
      "type": "function"
    },
    {
      "inputs": [
        {
          "internalType": "bytes32",
          "name": "role",
          "type": "bytes32"
        },
        {
          "internalType": "address",
          "name": "account",
          "type": "address"
        }
      ],
      "name": "revokeRole",
      "outputs": [],
      "stateMutability": "nonpayable",
      "type": "function"
    },
    {
      "inputs": [
        {
          "internalType": "address",
          "name": "uAddress",
          "type": "address"
        },
        {
          "internalType": "address",
          "name": "sAddress",
          "type": "address"
        },
        {
          "internalType": "address",
          "name": "pStakeAddress",
          "type": "address"
        },
        {
          "internalType": "address",
          "name": "pauserAddress",
          "type": "address"
        }
      ],
      "name": "initialize",
      "outputs": [],
      "stateMutability": "nonpayable",
      "type": "function"
    },
    {
      "inputs": [
        {
          "internalType": "address",
          "name": "holderAddress",
          "type": "address"
        },
        {
          "internalType": "address",
          "name": "lpToken",
          "type": "address"
        },
        {
          "internalType": "address",
          "name": "to",
          "type": "address"
        }
      ],
      "name": "calculatePendingRewardsAndLiquidity",
      "outputs": [
        {
          "internalType": "uint256",
          "name": "liquidity",
          "type": "uint256"
        },
        {
          "internalType": "uint256",
          "name": "reward",
          "type": "uint256"
        },
        {
          "internalType": "uint256",
          "name": "updatedSupplyLPTimeshare",
          "type": "uint256"
        }
      ],
      "stateMutability": "view",
      "type": "function",
      "constant": true
    },
    {
      "inputs": [
        {
          "internalType": "address",
          "name": "whitelistedAddress",
          "type": "address"
        },
        {
          "internalType": "uint256",
          "name": "amount",
          "type": "uint256"
        }
      ],
      "name": "addLiquidity",
      "outputs": [
        {
          "internalType": "uint256",
          "name": "liquidity",
          "type": "uint256"
        },
        {
          "internalType": "uint256",
          "name": "rewards",
          "type": "uint256"
        }
      ],
      "stateMutability": "nonpayable",
      "type": "function"
    },
    {
      "inputs": [
        {
          "internalType": "address",
          "name": "whitelistedAddress",
          "type": "address"
        },
        {
          "internalType": "uint256",
          "name": "amount",
          "type": "uint256"
        }
      ],
      "name": "removeLiquidity",
      "outputs": [
        {
          "internalType": "uint256",
          "name": "liquidity",
          "type": "uint256"
        },
        {
          "internalType": "uint256",
          "name": "rewards",
          "type": "uint256"
        }
      ],
      "stateMutability": "nonpayable",
      "type": "function"
    },
    {
      "inputs": [
        {
          "internalType": "address",
          "name": "uAddress",
          "type": "address"
        }
      ],
      "name": "setUTokensContract",
      "outputs": [],
      "stateMutability": "nonpayable",
      "type": "function"
    },
    {
      "inputs": [
        {
          "internalType": "address",
          "name": "sAddress",
          "type": "address"
        }
      ],
      "name": "setSTokensContract",
      "outputs": [],
      "stateMutability": "nonpayable",
      "type": "function"
    },
    {
      "inputs": [
        {
          "internalType": "address",
          "name": "pstakeAddress",
          "type": "address"
        }
      ],
      "name": "setPSTAKEContract",
      "outputs": [],
      "stateMutability": "nonpayable",
      "type": "function"
    },
    {
      "inputs": [],
      "name": "pause",
      "outputs": [
        {
          "internalType": "bool",
          "name": "success",
          "type": "bool"
        }
      ],
      "stateMutability": "nonpayable",
      "type": "function"
    },
    {
      "inputs": [],
      "name": "unpause",
      "outputs": [
        {
          "internalType": "bool",
          "name": "success",
          "type": "bool"
        }
      ],
      "stateMutability": "nonpayable",
      "type": "function"
    }
  ],
  "bytecode": "0x608060405234801561001057600080fd5b50611fdc806100206000396000f3fe608060405234801561001057600080fd5b50600436106101a95760003560e01c80638456cb59116100f9578063ca15c87311610097578063d79cf55a11610071578063d79cf55a1461052e578063e40c3f5414610536578063e63ab1e91461053e578063f8c8765e14610546576101a9565b8063ca15c873146104b7578063cce3dffd146104d4578063d547741f14610502576101a9565b8063a201ccf6116100d3578063a201ccf61461042f578063a217fddf1461045b578063b29bad1314610463578063c0818a5214610491576101a9565b80638456cb59146103d85780639010d07c146103e057806391d1485414610403576101a9565b80633f4ba83a116101665780635c975abb116101405780635c975abb146103305780635edf9c9f1461033857806378a2f0741461038e5780637a19ec71146103b2576101a9565b80633f4ba83a146102a957806345d644cd146102c557806356688700146102eb576101a9565b806321bdf9e5146101ae578063228d9eae146101d6578063248a9ca3146101fc5780632e31fab81461022b5780632f2ff15d1461025157806336568abe1461027d575b600080fd5b6101d4600480360360208110156101c457600080fd5b50356001600160a01b0316610584565b005b6101d4600480360360208110156101ec57600080fd5b50356001600160a01b0316610617565b6102196004803603602081101561021257600080fd5b50356106a8565b60408051918252519081900360200190f35b6101d46004803603602081101561024157600080fd5b50356001600160a01b03166106bd565b6101d46004803603604081101561026757600080fd5b50803590602001356001600160a01b031661074e565b6101d46004803603604081101561029357600080fd5b50803590602001356001600160a01b03166107b5565b6102b1610816565b604080519115158252519081900360200190f35b610219600480360360208110156102db57600080fd5b50356001600160a01b031661087a565b6103176004803603604081101561030157600080fd5b506001600160a01b03813516906020013561088c565b6040805192835260208301919091528051918290030190f35b6102b1610b0e565b6103706004803603606081101561034e57600080fd5b506001600160a01b038135811691602081013582169160409091013516610b17565b60408051938452602084019290925282820152519081900360600190f35b610396610d20565b604080516001600160a01b039092168252519081900360200190f35b610219600480360360208110156103c857600080fd5b50356001600160a01b0316610d2f565b6102b1610d41565b610396600480360360408110156103f657600080fd5b5080359060200135610d9f565b6102b16004803603604081101561041957600080fd5b50803590602001356001600160a01b0316610dc0565b6103176004803603604081101561044557600080fd5b506001600160a01b038135169060200135610dd8565b6102196110bb565b6102196004803603604081101561047957600080fd5b506001600160a01b03813581169160200135166110c0565b610219600480360360208110156104a757600080fd5b50356001600160a01b03166110dd565b610219600480360360208110156104cd57600080fd5b50356110ef565b610219600480360360408110156104ea57600080fd5b506001600160a01b0381358116916020013516611106565b6101d46004803603604081101561051857600080fd5b50803590602001356001600160a01b0316611123565b61039661117c565b61039661118b565b61021961119a565b6101d46004803603608081101561055c57600080fd5b506001600160a01b0381358116916020810135821691604082013581169160600135166111ac565b61059660006105916112a7565b610dc0565b6105cd576040805162461bcd60e51b81526020600482015260036024820152624c503960e81b604482015290519081900360640190fd5b609c80546001600160a01b0319166001600160a01b0383169081179091556040517ff745c285f36f88bea6af14d4d0f33dd9350cef7895216c1615b1caaee7857e0c90600090a250565b61062460006105916112a7565b61065e576040805162461bcd60e51b815260206004808301919091526024820152634c50313160e01b604482015290519081900360640190fd5b609e80546001600160a01b0319166001600160a01b0383169081179091556040517f2321c893a63891a056e19e865d785f953c42f766bab444a8bcabd3673cee3d1d90600090a250565b60009081526065602052604090206002015490565b6106ca60006105916112a7565b610704576040805162461bcd60e51b8152602060048083019190915260248201526304c5031360e41b604482015290519081900360640190fd5b609d80546001600160a01b0319166001600160a01b0383169081179091556040517fd0b9dbe26f676f4cdb02fc249c203baa0314cec79e18b4194dc862795a5de03f90600090a250565b60008281526065602052604090206002015461076c906105916112a7565b6107a75760405162461bcd60e51b815260040180806020018281038252602f815260200180611e79602f913960400191505060405180910390fd5b6107b182826112ab565b5050565b6107bd6112a7565b6001600160a01b0316816001600160a01b03161461080c5760405162461bcd60e51b815260040180806020018281038252602f815260200180611f78602f913960400191505060405180910390fd5b6107b18282611314565b6000610832600080516020611f588339815191526105916112a7565b61086c576040805162461bcd60e51b815260206004808301919091526024820152634c50313360e01b604482015290519081900360640190fd5b61087461137d565b50600190565b60986020526000908152604090205481565b600080610897610b0e565b156108dc576040805162461bcd60e51b815260206004820152601060248201526f14185d5cd8589b194e881c185d5cd95960821b604482015290519081900360640190fd5b6000831180156108f457506001600160a01b03841615155b61092b576040805162461bcd60e51b815260206004820152600360248201526213140d60ea1b604482015290519081900360640190fd5b609d54604080516336bbacad60e01b81526001600160a01b0387811660048301529151600093849316916336bbacad916024808301926060929190829003018186803b15801561097a57600080fd5b505afa15801561098e573d6000803e3d6000fd5b505050506040513d60608110156109a457600080fd5b50805160209091015190925090506001600160a01b038216158015906109d257506001600160a01b03811615155b610a09576040805162461bcd60e51b81526020600482015260036024820152624c503560e81b604482015290519081900360640190fd5b6000610a136112a7565b9050610a2083838361141d565b95509350610a3082823089611578565b6001600160a01b03808316600090815260976020908152604080832093851683529290522054610a6090876116d4565b6001600160a01b0380841660008181526097602090815260408083209487168352938152838220949094559081526098909252902054610aa090876116d4565b6001600160a01b0383166000818152609860209081526040918290209390935580519182529181018890528082018690526060810187905290517fbeb3885786d637a474cbc287c0a44587231633a077f0bd30354d5a4b18996fce9181900360800190a15050509250929050565b60335460ff1690565b6001600160a01b038083166000818152609760209081526040808320948616808452948252808320549383526098825280832054609b8352818420958452949091528120549092839283929091908390610b7d90610b7690429061172e565b849061178b565b6001600160a01b0389166000908152609a602052604081205491925090610ba990610b7690429061172e565b6001600160a01b038a1660009081526099602052604081205491925090610bd090836116d4565b9050610bdc818461172e565b95508015610d1257609c54604080516370a0823160e01b81526001600160a01b038e81166004830152915160009392909216916370a0823191602480820192602092909190829003018186803b158015610c3557600080fd5b505afa158015610c49573d6000803e3d6000fd5b505050506040513d6020811015610c5f57600080fd5b50519050610c6e8185846117e4565b97506000609e60009054906101000a90046001600160a01b03166001600160a01b03166370a082318e6040518263ffffffff1660e01b815260040180826001600160a01b0316815260200191505060206040518083038186803b158015610cd457600080fd5b505afa158015610ce8573d6000803e3d6000fd5b505050506040513d6020811015610cfe57600080fd5b50519050610d0d8186856117e4565b995050505b505050505093509350939050565b609c546001600160a01b031681565b609a6020526000908152604090205481565b6000610d5d600080516020611f588339815191526105916112a7565b610d97576040805162461bcd60e51b815260206004808301919091526024820152632628189960e11b604482015290519081900360640190fd5b61087461189f565b6000828152606560205260408120610db79083611922565b90505b92915050565b6000828152606560205260408120610db7908361192e565b600080610de3610b0e565b15610e28576040805162461bcd60e51b815260206004820152601060248201526f14185d5cd8589b194e881c185d5cd95960821b604482015290519081900360640190fd5b600083118015610e4057506001600160a01b03841615155b610e77576040805162461bcd60e51b815260206004820152600360248201526226281b60e91b604482015290519081900360640190fd5b609d54604080516336bbacad60e01b81526001600160a01b0387811660048301529151600093849316916336bbacad916024808301926060929190829003018186803b158015610ec657600080fd5b505afa158015610eda573d6000803e3d6000fd5b505050506040513d6060811015610ef057600080fd5b50805160209091015190925090506001600160a01b03821615801590610f1e57506001600160a01b03811615155b610f55576040805162461bcd60e51b81526020600482015260036024820152624c503560e81b604482015290519081900360640190fd5b6000610f5f6112a7565b6001600160a01b03808416600090815260976020908152604080832093851683529290522054909150861115610fc2576040805162461bcd60e51b8152602060048201526003602482015262098a0760eb1b604482015290519081900360640190fd5b610fcd83838361141d565b95509350610fdd82308389611578565b6001600160a01b0380831660009081526097602090815260408083209385168352929052205461100d908761172e565b6001600160a01b038084166000818152609760209081526040808320948716835293815283822094909455908152609890925290205461104d908761172e565b6001600160a01b0383166000818152609860209081526040918290209390935580519182529181018890528082018690526060810187905290517f59c3a0b60c6ab7deb62e1440c9e72441db6db7dfe514dba8cb18e60c0d896efa9181900360800190a15050509250929050565b600081565b609b60209081526000928352604080842090915290825290205481565b60996020526000908152604090205481565b6000818152606560205260408120610dba90611943565b609760209081526000928352604080842090915290825290205481565b600082815260656020526040902060020154611141906105916112a7565b61080c5760405162461bcd60e51b8152600401808060200182810382526030815260200180611ed96030913960400191505060405180910390fd5b609d546001600160a01b031681565b609e546001600160a01b031681565b600080516020611f5883398151915281565b600054610100900460ff16806111c557506111c561194e565b806111d3575060005460ff16155b61120e5760405162461bcd60e51b815260040180806020018281038252602e815260200180611f09602e913960400191505060405180910390fd5b600054610100900460ff16158015611239576000805460ff1961ff0019909116610100171660011790555b61124161195f565b611249611a11565b61125b60006112566112a7565b6107a7565b611273600080516020611f58833981519152836107a7565b61127c85610584565b611285846106bd565b61128e83610617565b80156112a0576000805461ff00191690555b5050505050565b3390565b60008281526065602052604090206112c39082611aae565b156107b1576112d06112a7565b6001600160a01b0316816001600160a01b0316837f2f8788117e7eff1d82e926ec794901d17c78024a50270940304540a733656f0d60405160405180910390a45050565b600082815260656020526040902061132c9082611ac3565b156107b1576113396112a7565b6001600160a01b0316816001600160a01b0316837ff6391f5c32d9c69d2a47ea670b442974b53935d1edc7fd64eb21e047a839171b60405160405180910390a45050565b611385610b0e565b6113cd576040805162461bcd60e51b815260206004820152601460248201527314185d5cd8589b194e881b9bdd081c185d5cd95960621b604482015290519081900360640190fd5b6033805460ff191690557f5db9ee0a495bf2e6ff9c91a7834c1ba4fdd244a5e8aa4e537bd38aeae4b073aa6114006112a7565b604080516001600160a01b039092168252519081900360200190a1565b600080600061142d868686610b17565b6001600160a01b038089166000818152609b60209081526040808320948c1683529381528382204290819055928252609a8152838220929092556099909152208190559194509250905082156114f357609e546040805163d1660f9960e01b81526001600160a01b03928316600482015286831660248201526044810186905290519188169163d1660f999160648082019260009290919082900301818387803b1580156114da57600080fd5b505af11580156114ee573d6000803e3d6000fd5b505050505b811561156f57609c546040805163d1660f9960e01b81526001600160a01b03928316600482015286831660248201526044810185905290519188169163d1660f999160648082019260009290919082900301818387803b15801561155657600080fd5b505af115801561156a573d6000803e3d6000fd5b505050505b50935093915050565b604080516001600160a01b0385811660248301528481166044830152606480830185905283518084039091018152608490920183526020820180516001600160e01b03166323b872dd60e01b178152925182516000948594938a169392918291908083835b602083106115fc5780518252601f1990920191602091820191016115dd565b6001836020036101000a0380198251168184511680821785525050505050509050019150506000604051808303816000865af19150503d806000811461165e576040519150601f19603f3d011682016040523d82523d6000602084013e611663565b606091505b5091509150818015611691575080511580611691575080806020019051602081101561168e57600080fd5b50515b6116cc5760405162461bcd60e51b8152600401808060200182810382526031815260200180611ea86031913960400191505060405180910390fd5b505050505050565b600082820183811015610db7576040805162461bcd60e51b815260206004820152601b60248201527f536166654d6174683a206164646974696f6e206f766572666c6f770000000000604482015290519081900360640190fd5b600082821115611785576040805162461bcd60e51b815260206004820152601e60248201527f536166654d6174683a207375627472616374696f6e206f766572666c6f770000604482015290519081900360640190fd5b50900390565b60008261179a57506000610dba565b828202828482816117a757fe5b0414610db75760405162461bcd60e51b8152600401808060200182810382526021815260200180611f376021913960400191505060405180910390fd5b60008060006117f38686611ad8565b915091506000848061180157fe5b868809905082811115611815576001820391505b9182900391816118335784838161182857fe5b049350505050611898565b848210611887576040805162461bcd60e51b815260206004820152601a60248201527f46756c6c4d6174683a2046554c4c4449565f4f564552464c4f57000000000000604482015290519081900360640190fd5b611892838387611b05565b93505050505b9392505050565b6118a7610b0e565b156118ec576040805162461bcd60e51b815260206004820152601060248201526f14185d5cd8589b194e881c185d5cd95960821b604482015290519081900360640190fd5b6033805460ff191660011790557f62e78cea01bee320cd4e420270b5ea74000d11b0c9f74754ebdbfc544b05a2586114006112a7565b6000610db78383611b75565b6000610db7836001600160a01b038416611bd9565b6000610dba82611bf1565b600061195930611bf5565b15905090565b600054610100900460ff1680611978575061197861194e565b80611986575060005460ff16155b6119c15760405162461bcd60e51b815260040180806020018281038252602e815260200180611f09602e913960400191505060405180910390fd5b600054610100900460ff161580156119ec576000805460ff1961ff0019909116610100171660011790555b6119f4611bfb565b6119fc611bfb565b8015611a0e576000805461ff00191690555b50565b600054610100900460ff1680611a2a5750611a2a61194e565b80611a38575060005460ff16155b611a735760405162461bcd60e51b815260040180806020018281038252602e815260200180611f09602e913960400191505060405180910390fd5b600054610100900460ff16158015611a9e576000805460ff1961ff0019909116610100171660011790555b611aa6611bfb565b6119fc611c9b565b6000610db7836001600160a01b038416611d46565b6000610db7836001600160a01b038416611d90565b6000808060001984860990508385029250828103915082811015611afd576001820391505b509250929050565b60008181038216808381611b1557fe5b049250808581611b2157fe5b049450808160000381611b3057fe5b60028581038087028203028087028203028087028203028087028203028087028203028087028203029586029003909402930460010193909302939093010292915050565b81546000908210611bb75760405162461bcd60e51b8152600401808060200182810382526022815260200180611e576022913960400191505060405180910390fd5b826000018281548110611bc657fe5b9060005260206000200154905092915050565b60009081526001919091016020526040902054151590565b5490565b3b151590565b600054610100900460ff1680611c145750611c1461194e565b80611c22575060005460ff16155b611c5d5760405162461bcd60e51b815260040180806020018281038252602e815260200180611f09602e913960400191505060405180910390fd5b600054610100900460ff161580156119fc576000805460ff1961ff0019909116610100171660011790558015611a0e576000805461ff001916905550565b600054610100900460ff1680611cb45750611cb461194e565b80611cc2575060005460ff16155b611cfd5760405162461bcd60e51b815260040180806020018281038252602e815260200180611f09602e913960400191505060405180910390fd5b600054610100900460ff16158015611d28576000805460ff1961ff0019909116610100171660011790555b6033805460ff191690558015611a0e576000805461ff001916905550565b6000611d528383611bd9565b611d8857508154600181810184556000848152602080822090930184905584548482528286019093526040902091909155610dba565b506000610dba565b60008181526001830160205260408120548015611e4c5783546000198083019190810190600090879083908110611dc357fe5b9060005260206000200154905080876000018481548110611de057fe5b600091825260208083209091019290925582815260018981019092526040902090840190558654879080611e1057fe5b60019003818190600052602060002001600090559055866001016000878152602001908152602001600020600090556001945050505050610dba565b6000915050610dba56fe456e756d657261626c655365743a20696e646578206f7574206f6620626f756e6473416363657373436f6e74726f6c3a2073656e646572206d75737420626520616e2061646d696e20746f206772616e745472616e7366657248656c7065723a3a7472616e7366657246726f6d3a207472616e7366657246726f6d206661696c6564416363657373436f6e74726f6c3a2073656e646572206d75737420626520616e2061646d696e20746f207265766f6b65496e697469616c697a61626c653a20636f6e747261637420697320616c726561647920696e697469616c697a6564536166654d6174683a206d756c7469706c69636174696f6e206f766572666c6f7765d7a28e3265b37a6474929f336521b332c1681b933f6cb9f3376673440d862a416363657373436f6e74726f6c3a2063616e206f6e6c792072656e6f756e636520726f6c657320666f722073656c66a2646970667358221220b82364f796506b11a771d824938580cfbcdd9b4a1b76fb51fd15fe6252e2dedc64736f6c63430007060033",
  "immutableReferences": {},
  "source": "// SPDX-License-Identifier: UNLICENSED\npragma solidity >= 0.7.0;\n\nimport \"@openzeppelin/contracts-upgradeable/math/SafeMathUpgradeable.sol\";\nimport \"@openzeppelin/contracts-upgradeable/access/AccessControlUpgradeable.sol\";\nimport \"@openzeppelin/contracts-upgradeable/utils/PausableUpgradeable.sol\";\nimport \"./interfaces/ISTokens.sol\";\nimport \"./interfaces/IUTokens.sol\";\nimport \"./interfaces/IPSTAKE.sol\";\nimport \"./interfaces/IHolder.sol\";\nimport \"./interfaces/IStakeLPCore.sol\";\nimport \"./libraries/TransferHelper.sol\";\nimport \"./libraries/FullMath.sol\";\n\ncontract StakeLPCoreV5 is IStakeLPCore, PausableUpgradeable, AccessControlUpgradeable {\n\n    using SafeMathUpgradeable for uint256;\n    using FullMath for uint256;\n    \n    // constant pertaining to access roles\n    bytes32 public constant PAUSER_ROLE = keccak256(\"PAUSER_ROLE\");\n\n    // balance of user for an LP Token \n    mapping(address => mapping(address => uint256)) public _lpBalance;\n    // supply for an LP Token\n    mapping(address => uint256) public _lpSupply;\n    // last recorded total LPTimeShare\n    mapping(address => uint256) public _lastLPTimeShare;\n    // last recorded timestamp when rewards were disbursed\n    mapping(address => uint256) public _lastLPTimeShareTimestamp;\n    // last recorded timestamp when PSTAKE tokens were disbursed\n    mapping(address => mapping(address => uint256)) public _lastLiquidityTimestamp; \n\n    //Private instances of contracts to handle Utokens and Stokens\n    IUTokens public _uTokens;\n    ISTokens public _sTokens;\n    IPSTAKE public _pstakeTokens;\n\n    /**\n   * @dev Constructor for initializing the LiquidStaking contract.\n   * @param uAddress - address of the UToken contract.\n   * @param sAddress - address of the SToken contract.\n   * @param pStakeAddress - address of the pStake contract address.\n   */\n    function initialize(address uAddress, address sAddress, address pStakeAddress, address pauserAddress) public virtual initializer  {\n        __AccessControl_init();\n        __Pausable_init();\n        _setupRole(DEFAULT_ADMIN_ROLE, _msgSender());\n        _setupRole(PAUSER_ROLE, pauserAddress);        \n        setUTokensContract(uAddress);\n        setSTokensContract(sAddress);\n        setPSTAKEContract(pStakeAddress);\n        // _lastLPTimeShareTimestamp = block.timestamp;\n    }\n\n    /*\n     * @dev calculate liquidity and reward tokens and disburse to user\n     * @param lpToken: lp token contract address\n     * @param to: user address\n     * @param liquidityWeightFactor: coming as an argument for further calculations\n     * @param rewardWeightFactor: coming as an argument for further calculations\n     * @param valueDivisor: coming as an argument for further calculations\n     */\n    function calculatePendingRewardsAndLiquidity(address holderAddress, address lpToken, address to) public view returns (uint256 liquidity, uint256 reward, uint256 updatedSupplyLPTimeshare){\n        // get the balance of user's LP token\n        uint256 _lpBalanceUser = _lpBalance[lpToken][to];\n        uint256 _lpSupplyContract = _lpSupply[lpToken];\n\n        // calculate the LPTimeShare of the user's LP Token\n        uint256 _userLPTimeShare = (_lpBalanceUser.mul(block.timestamp.sub(_lastLiquidityTimestamp[lpToken][to])));\n\n        // calculate the LPTimeShare of the sum of supply of all LP Tokens\n        uint256 _newSupplyLPTimeShare = (_lpSupplyContract.mul(block.timestamp.sub(_lastLPTimeShareTimestamp[lpToken])));\n        uint256 _totalSupplyLPTimeShare = _lastLPTimeShare[lpToken].add(_newSupplyLPTimeShare);\n        // is the remaining LPTimeShare of the total supply after the tokens for the user has been dispatched\n        updatedSupplyLPTimeshare = _totalSupplyLPTimeShare.sub(_userLPTimeShare);\n\n        if(_totalSupplyLPTimeShare > 0) {\n            // calculate users new reward tokens\n            uint256 _rewardPool = _uTokens.balanceOf(holderAddress);\n            reward = _rewardPool.mulDiv(_userLPTimeShare, _totalSupplyLPTimeShare);\n\n            // calculate users new liquidity tokens\n            uint256 _liquidityPool = _pstakeTokens.balanceOf(holderAddress);\n            liquidity = _liquidityPool.mulDiv(_userLPTimeShare, _totalSupplyLPTimeShare);\n        }\n    }\n\n    /*\n     * @dev calculate liquidity and reward tokens and disburse to user\n     * @param lpToken: lp token contract address\n     * @param to: user address\n     * @param liquidityWeightFactor: coming as an argument for further calculations\n     * @param rewardWeightFactor: coming as an argument for further calculations\n     * @param valueDivisor: coming as an argument for further calculations\n     */\n    function _calculateRewardsAndLiquidity(address holderAddress, address lpToken, address to) internal returns (uint256 liquidity, uint256 reward){\n        uint256 updatedSupplyLPTimeshare;\n        (liquidity, reward, updatedSupplyLPTimeshare) = calculatePendingRewardsAndLiquidity(holderAddress, lpToken, to);\n\n        // update last timestamps and LPTimeShares as per Checks-Effects-Interactions pattern\n        _lastLiquidityTimestamp[lpToken][to] = block.timestamp;\n        _lastLPTimeShareTimestamp[lpToken] = block.timestamp;\n        _lastLPTimeShare[lpToken] = updatedSupplyLPTimeshare;\n\n        // DISBURSE THE LIQUIDITY TOKENS TO USER (transfer)\n        if(liquidity > 0)\n        IHolder(holderAddress).safeTransfer(address(_pstakeTokens), to, liquidity);\n\n        // DISBURSE THE REWARD TOKENS TO USER (transfer)\n        if(reward > 0)\n        IHolder(holderAddress).safeTransfer(address(_uTokens), to, reward);\n    }\n\n    /*\n     * @dev calculate liquidity and reward tokens and disburse to user\n     * @param lpToken: lp token contract address\n     * @param amount: token amount\n     */\n    function calculateRewardsAndLiquidity(address whitelistedAddress, uint256 amount) internal whenNotPaused returns (uint256 liquidity, uint256 reward){\n        // check for validity of arguments\n        require(amount > 0 && whitelistedAddress != address(0), \"LP2\");\n\n        // check if lpToken contract of DeFi product address is whitelisted and has valid holder contract\n        (address _holderAddress, address _lpToken, ) = _sTokens.getHolderData(whitelistedAddress);\n        // (bool _isContractWhitelisted, address _holderAddress) = _sTokens.isContractWhitelisted(_lpToken);\n        require(_lpToken != address(0) && _holderAddress != address(0), \"LP5\");\n        \n        // calculate liquidity and reward tokens and disburse to user\n        (liquidity, reward) = _calculateRewardsAndLiquidity(_holderAddress, _lpToken, _msgSender());\n        CalculateRewardsAndLiquidity(_holderAddress, _lpToken, amount, _msgSender(), liquidity, reward);\n    }\n\n    /*\n     * @dev adding the liquidity\n     * @param lpToken: lp token contract address\n     * @param amount: token amount\n     *\n     * Emits a {AddLiquidity} event with 'lpToken, amount, rewards and liquidity'\n     *\n     */\n    function addLiquidity(\n        address whitelistedAddress,\n        uint256 amount\n    ) public virtual override whenNotPaused returns (uint256 liquidity, uint256 rewards) {\n        // check for validity of arguments\n        require(amount > 0 && whitelistedAddress != address(0), \"LP4\");\n\n        // check if lpToken contract of DeFi product address is whitelisted and has valid holder contract\n        // (bool _isContractWhitelisted, address _holderAddress) = _sTokens.isContractWhitelisted(_lpToken);\n        (address _holderAddress, address _lpToken, ) = _sTokens.getHolderData(whitelistedAddress);\n        require(_holderAddress != address(0) && _lpToken != address(0), \"LP5\");\n        address messageSender = _msgSender();\n\n        // calculate liquidity and reward tokens and disburse to user\n        (rewards, liquidity) = _calculateRewardsAndLiquidity(_holderAddress, _lpToken, messageSender);\n        // finally transfer the new LP Tokens to the StakeLP contract\n        TransferHelper.safeTransferFrom(_lpToken, messageSender, address(this), amount);\n        // update the user balance\n        _lpBalance[_lpToken][messageSender] = _lpBalance[_lpToken][messageSender].add(amount);\n        // update the supply of lp tokens for reward and liquidity calculation\n        _lpSupply[_lpToken] = _lpSupply[_lpToken].add(amount);\n        emit AddLiquidity(_lpToken, amount, rewards, liquidity);\n    }\n\n    /*\n    * @dev removing the liquidity\n    * @param lpToken: lp token contract address\n    * @param amount: token amount\n    *\n    * Emits a {RemoveLiquidity} event with 'lpToken, amount, rewards and liquidity'\n    *\n    */\n    function removeLiquidity(\n        address whitelistedAddress,\n        uint256 amount\n    ) public virtual override whenNotPaused returns (uint256 liquidity, uint256 rewards) {\n        // check for validity of arguments\n        require(amount > 0 && whitelistedAddress != address(0), \"LP6\");\n\n        // check if lpToken contract of DeFi product address is whitelisted and has valid holder contract\n        // (bool _isContractWhitelisted, address _holderAddress) = _sTokens.isContractWhitelisted(lpToken);\n        (address _holderAddress, address _lpToken, ) = _sTokens.getHolderData(whitelistedAddress);\n        require(_holderAddress != address(0) && _lpToken != address(0), \"LP5\");\n        address messageSender = _msgSender();\n\n        // check if suffecient balance is there\n        require(_lpBalance[_lpToken][messageSender] >= amount, \"LP8\");\n\n        // calculate liquidity and reward tokens and disburse to user\n        (rewards, liquidity) = _calculateRewardsAndLiquidity(_holderAddress, _lpToken, messageSender);\n        // finally transfer the LP Tokens to the user\n        TransferHelper.safeTransferFrom(_lpToken, address(this), messageSender, amount);\n        // update the user balance\n        _lpBalance[_lpToken][messageSender] = _lpBalance[_lpToken][messageSender].sub(amount);\n        // update the supply of lp tokens for reward and liquidity calculation\n        _lpSupply[_lpToken] = _lpSupply[_lpToken].sub(amount);\n        emit RemoveLiquidity(_lpToken, amount, rewards, liquidity);\n    }\n\n    /**\n     * @dev Set 'contract address', called from constructor\n     * @param uAddress: utoken contract address\n     *\n     * Emits a {SetUTokensContract} event with '_contract' set to the utoken contract address.\n     *\n     */\n    function setUTokensContract(address uAddress) public virtual override {\n        require(hasRole(DEFAULT_ADMIN_ROLE, _msgSender()), \"LP9\");\n        _uTokens = IUTokens(uAddress);\n        emit SetUTokensContract(uAddress);\n    }\n\n    /**\n     * @dev Set 'contract address', called from constructor\n     * @param sAddress: stoken contract address\n     *\n     * Emits a {SetSTokensContract} event with '_contract' set to the stoken contract address.\n     *\n     */\n    function setSTokensContract(address sAddress) public virtual override {\n        require(hasRole(DEFAULT_ADMIN_ROLE, _msgSender()), \"LP10\");\n        _sTokens = ISTokens(sAddress);\n        emit SetSTokensContract(sAddress);\n    }\n\n    /**\n     * @dev Set 'contract address', called from constructor\n     * @param pstakeAddress: pStake contract address\n     *\n     * Emits a {SetPSTAKEContract} event with '_contract' set to the stoken contract address.\n     *\n     */\n    function setPSTAKEContract(address pstakeAddress) public virtual override {\n        require(hasRole(DEFAULT_ADMIN_ROLE, _msgSender()), \"LP11\");\n        _pstakeTokens = IPSTAKE(pstakeAddress);\n        emit SetPSTAKEContract(pstakeAddress);\n    }\n\n    /**\n      * @dev Triggers stopped state.\n      *\n      * Requirements:\n      *\n      * - The contract must not be paused.\n      */\n    function pause() public virtual returns (bool success) {\n        require(hasRole(PAUSER_ROLE, _msgSender()), \"LP12\");\n        _pause();\n        return true;\n    }\n\n    /**\n     * @dev Returns to normal state.\n     *\n     * Requirements:\n     *\n     * - The contract must be paused.\n     */\n    function unpause() public virtual returns (bool success) {\n        require(hasRole(PAUSER_ROLE, _msgSender()), \"LP13\");\n        _unpause();\n        return true;\n    }\n}",
  "sourcePath": "C:/Users/Kamlesh/Persistence/pStake/codebase/pStake-smartContracts/contracts/StakeLPCoreV5.sol",
  "compiler": {
    "name": "solc",
    "version": "0.7.6+commit.7338295f.Emscripten.clang"
  },
  "schemaVersion": "3.3.4",
  "updatedAt": "2021-08-04T15:26:51.084Z",
  "networkType": "ethereum",
  "devdoc": {
    "kind": "dev",
    "methods": {
      "getRoleAdmin(bytes32)": {
        "details": "Returns the admin role that controls `role`. See {grantRole} and {revokeRole}. To change a role's admin, use {_setRoleAdmin}."
      },
      "getRoleMember(bytes32,uint256)": {
        "details": "Returns one of the accounts that have `role`. `index` must be a value between 0 and {getRoleMemberCount}, non-inclusive. Role bearers are not sorted in any particular way, and their ordering may change at any point. WARNING: When using {getRoleMember} and {getRoleMemberCount}, make sure you perform all queries on the same block. See the following https://forum.openzeppelin.com/t/iterating-over-elements-on-enumerableset-in-openzeppelin-contracts/2296[forum post] for more information."
      },
      "getRoleMemberCount(bytes32)": {
        "details": "Returns the number of accounts that have `role`. Can be used together with {getRoleMember} to enumerate all bearers of a role."
      },
      "grantRole(bytes32,address)": {
        "details": "Grants `role` to `account`. If `account` had not been already granted `role`, emits a {RoleGranted} event. Requirements: - the caller must have ``role``'s admin role."
      },
      "hasRole(bytes32,address)": {
        "details": "Returns `true` if `account` has been granted `role`."
      },
      "initialize(address,address,address,address)": {
        "details": "Constructor for initializing the LiquidStaking contract.",
        "params": {
          "pStakeAddress": "- address of the pStake contract address.",
          "sAddress": "- address of the SToken contract.",
          "uAddress": "- address of the UToken contract."
        }
      },
      "pause()": {
        "details": "Triggers stopped state. Requirements: - The contract must not be paused."
      },
      "paused()": {
        "details": "Returns true if the contract is paused, and false otherwise."
      },
      "renounceRole(bytes32,address)": {
        "details": "Revokes `role` from the calling account. Roles are often managed via {grantRole} and {revokeRole}: this function's purpose is to provide a mechanism for accounts to lose their privileges if they are compromised (such as when a trusted device is misplaced). If the calling account had been granted `role`, emits a {RoleRevoked} event. Requirements: - the caller must be `account`."
      },
      "revokeRole(bytes32,address)": {
        "details": "Revokes `role` from `account`. If `account` had been granted `role`, emits a {RoleRevoked} event. Requirements: - the caller must have ``role``'s admin role."
      },
      "setPSTAKEContract(address)": {
        "details": "Set 'contract address', called from constructor",
        "params": {
          "pstakeAddress": ": pStake contract address Emits a {SetPSTAKEContract} event with '_contract' set to the stoken contract address."
        }
      },
      "setSTokensContract(address)": {
        "details": "Set 'contract address', called from constructor",
        "params": {
          "sAddress": ": stoken contract address Emits a {SetSTokensContract} event with '_contract' set to the stoken contract address."
        }
      },
      "setUTokensContract(address)": {
        "details": "Set 'contract address', called from constructor",
        "params": {
          "uAddress": ": utoken contract address Emits a {SetUTokensContract} event with '_contract' set to the utoken contract address."
        }
      },
      "unpause()": {
        "details": "Returns to normal state. Requirements: - The contract must be paused."
      }
    },
    "version": 1
  },
  "userdoc": {
    "kind": "user",
    "methods": {},
    "version": 1
  }
}