{
  "contractName": "StakeLPCore",
  "abi": [
    {
      "anonymous": false,
      "inputs": [
        {
          "indexed": true,
          "internalType": "address",
          "name": "accountAddress",
          "type": "address"
        },
        {
          "indexed": false,
          "internalType": "uint256",
          "name": "tokens",
          "type": "uint256"
        },
        {
          "indexed": false,
          "internalType": "uint256",
          "name": "timestamp",
          "type": "uint256"
        }
      ],
      "name": "CalculateHolderRewards",
      "type": "event"
    },
    {
      "anonymous": false,
      "inputs": [
        {
          "indexed": true,
          "internalType": "address",
          "name": "accountAddress",
          "type": "address"
        },
        {
          "indexed": false,
          "internalType": "uint256",
          "name": "tokens",
          "type": "uint256"
        },
        {
          "indexed": false,
          "internalType": "uint256",
          "name": "finalTokens",
          "type": "uint256"
        },
        {
          "indexed": false,
          "internalType": "uint256",
          "name": "timestamp",
          "type": "uint256"
        }
      ],
      "name": "CalculateRewards",
      "type": "event"
    },
    {
      "anonymous": false,
      "inputs": [
        {
          "indexed": true,
          "internalType": "address",
          "name": "lpToken",
          "type": "address"
        },
        {
          "indexed": false,
          "internalType": "uint256",
          "name": "amount",
          "type": "uint256"
        },
        {
          "indexed": true,
          "internalType": "address",
          "name": "to",
          "type": "address"
        },
        {
          "indexed": false,
          "internalType": "uint256",
          "name": "liquidity",
          "type": "uint256"
        },
        {
          "indexed": false,
          "internalType": "uint256",
          "name": "reward",
          "type": "uint256"
        }
      ],
      "name": "CalculateRewardsAndLiquidity",
      "type": "event"
    },
    {
      "anonymous": false,
      "inputs": [
        {
          "indexed": true,
          "internalType": "address",
          "name": "whitelistedAddress",
          "type": "address"
        },
        {
          "indexed": true,
          "internalType": "address",
          "name": "accountAddress",
          "type": "address"
        },
        {
          "indexed": false,
          "internalType": "uint256",
          "name": "timestamp",
          "type": "uint256"
        }
      ],
      "name": "GenerateHolderRewards",
      "type": "event"
    },
    {
      "anonymous": false,
      "inputs": [
        {
          "indexed": false,
          "internalType": "address",
          "name": "account",
          "type": "address"
        }
      ],
      "name": "Paused",
      "type": "event"
    },
    {
      "anonymous": false,
      "inputs": [
        {
          "indexed": true,
          "internalType": "address",
          "name": "whitelistedAddress",
          "type": "address"
        },
        {
          "indexed": false,
          "internalType": "address",
          "name": "holderContractAddress",
          "type": "address"
        },
        {
          "indexed": false,
          "internalType": "address",
          "name": "lpContractAddress",
          "type": "address"
        },
        {
          "indexed": false,
          "internalType": "uint256",
          "name": "timestamp",
          "type": "uint256"
        }
      ],
      "name": "RemoveWhitelistedAddress",
      "type": "event"
    },
    {
      "anonymous": false,
      "inputs": [
        {
          "indexed": true,
          "internalType": "bytes32",
          "name": "role",
          "type": "bytes32"
        },
        {
          "indexed": true,
          "internalType": "bytes32",
          "name": "previousAdminRole",
          "type": "bytes32"
        },
        {
          "indexed": true,
          "internalType": "bytes32",
          "name": "newAdminRole",
          "type": "bytes32"
        }
      ],
      "name": "RoleAdminChanged",
      "type": "event"
    },
    {
      "anonymous": false,
      "inputs": [
        {
          "indexed": true,
          "internalType": "bytes32",
          "name": "role",
          "type": "bytes32"
        },
        {
          "indexed": true,
          "internalType": "address",
          "name": "account",
          "type": "address"
        },
        {
          "indexed": true,
          "internalType": "address",
          "name": "sender",
          "type": "address"
        }
      ],
      "name": "RoleGranted",
      "type": "event"
    },
    {
      "anonymous": false,
      "inputs": [
        {
          "indexed": true,
          "internalType": "bytes32",
          "name": "role",
          "type": "bytes32"
        },
        {
          "indexed": true,
          "internalType": "address",
          "name": "account",
          "type": "address"
        },
        {
          "indexed": true,
          "internalType": "address",
          "name": "sender",
          "type": "address"
        }
      ],
      "name": "RoleRevoked",
      "type": "event"
    },
    {
      "anonymous": false,
      "inputs": [
        {
          "indexed": false,
          "internalType": "uint256",
          "name": "rewardFee",
          "type": "uint256"
        }
      ],
      "name": "SetFees",
      "type": "event"
    },
    {
      "anonymous": false,
      "inputs": [
        {
          "indexed": true,
          "internalType": "address",
          "name": "_contract",
          "type": "address"
        }
      ],
      "name": "SetLiquidStakingContract",
      "type": "event"
    },
    {
      "anonymous": false,
      "inputs": [
        {
          "indexed": true,
          "internalType": "address",
          "name": "_contract",
          "type": "address"
        }
      ],
      "name": "SetPSTAKEContract",
      "type": "event"
    },
    {
      "anonymous": false,
      "inputs": [
        {
          "indexed": true,
          "internalType": "address",
          "name": "_contract",
          "type": "address"
        }
      ],
      "name": "SetSTokensContract",
      "type": "event"
    },
    {
      "anonymous": false,
      "inputs": [
        {
          "indexed": true,
          "internalType": "address",
          "name": "_contract",
          "type": "address"
        }
      ],
      "name": "SetStakeLPCoreContract",
      "type": "event"
    },
    {
      "anonymous": false,
      "inputs": [
        {
          "indexed": true,
          "internalType": "address",
          "name": "_contract",
          "type": "address"
        }
      ],
      "name": "SetUTokensContract",
      "type": "event"
    },
    {
      "anonymous": false,
      "inputs": [
        {
          "indexed": true,
          "internalType": "address",
          "name": "whitelistedAddress",
          "type": "address"
        },
        {
          "indexed": false,
          "internalType": "address",
          "name": "holderContractAddress",
          "type": "address"
        },
        {
          "indexed": false,
          "internalType": "address",
          "name": "lpContractAddress",
          "type": "address"
        },
        {
          "indexed": false,
          "internalType": "uint256",
          "name": "timestamp",
          "type": "uint256"
        }
      ],
      "name": "SetWhitelistedAddress",
      "type": "event"
    },
    {
      "anonymous": false,
      "inputs": [
        {
          "indexed": true,
          "internalType": "address",
          "name": "accountAddress",
          "type": "address"
        },
        {
          "indexed": false,
          "internalType": "uint256",
          "name": "tokens",
          "type": "uint256"
        },
        {
          "indexed": false,
          "internalType": "uint256",
          "name": "timestamp",
          "type": "uint256"
        }
      ],
      "name": "TriggeredCalculateRewards",
      "type": "event"
    },
    {
      "anonymous": false,
      "inputs": [
        {
          "indexed": false,
          "internalType": "address",
          "name": "account",
          "type": "address"
        }
      ],
      "name": "Unpaused",
      "type": "event"
    },
    {
      "inputs": [],
      "name": "DEFAULT_ADMIN_ROLE",
      "outputs": [
        {
          "internalType": "bytes32",
          "name": "",
          "type": "bytes32"
        }
      ],
      "stateMutability": "view",
      "type": "function"
    },
    {
      "inputs": [],
      "name": "PAUSER_ROLE",
      "outputs": [
        {
          "internalType": "bytes32",
          "name": "",
          "type": "bytes32"
        }
      ],
      "stateMutability": "view",
      "type": "function"
    },
    {
      "inputs": [
        {
          "internalType": "bytes32",
          "name": "role",
          "type": "bytes32"
        }
      ],
      "name": "getRoleAdmin",
      "outputs": [
        {
          "internalType": "bytes32",
          "name": "",
          "type": "bytes32"
        }
      ],
      "stateMutability": "view",
      "type": "function"
    },
    {
      "inputs": [
        {
          "internalType": "bytes32",
          "name": "role",
          "type": "bytes32"
        },
        {
          "internalType": "uint256",
          "name": "index",
          "type": "uint256"
        }
      ],
      "name": "getRoleMember",
      "outputs": [
        {
          "internalType": "address",
          "name": "",
          "type": "address"
        }
      ],
      "stateMutability": "view",
      "type": "function"
    },
    {
      "inputs": [
        {
          "internalType": "bytes32",
          "name": "role",
          "type": "bytes32"
        }
      ],
      "name": "getRoleMemberCount",
      "outputs": [
        {
          "internalType": "uint256",
          "name": "",
          "type": "uint256"
        }
      ],
      "stateMutability": "view",
      "type": "function"
    },
    {
      "inputs": [
        {
          "internalType": "bytes32",
          "name": "role",
          "type": "bytes32"
        },
        {
          "internalType": "address",
          "name": "account",
          "type": "address"
        }
      ],
      "name": "grantRole",
      "outputs": [],
      "stateMutability": "nonpayable",
      "type": "function"
    },
    {
      "inputs": [
        {
          "internalType": "bytes32",
          "name": "role",
          "type": "bytes32"
        },
        {
          "internalType": "address",
          "name": "account",
          "type": "address"
        }
      ],
      "name": "hasRole",
      "outputs": [
        {
          "internalType": "bool",
          "name": "",
          "type": "bool"
        }
      ],
      "stateMutability": "view",
      "type": "function"
    },
    {
      "inputs": [],
      "name": "paused",
      "outputs": [
        {
          "internalType": "bool",
          "name": "",
          "type": "bool"
        }
      ],
      "stateMutability": "view",
      "type": "function"
    },
    {
      "inputs": [
        {
          "internalType": "bytes32",
          "name": "role",
          "type": "bytes32"
        },
        {
          "internalType": "address",
          "name": "account",
          "type": "address"
        }
      ],
      "name": "renounceRole",
      "outputs": [],
      "stateMutability": "nonpayable",
      "type": "function"
    },
    {
      "inputs": [
        {
          "internalType": "bytes32",
          "name": "role",
          "type": "bytes32"
        },
        {
          "internalType": "address",
          "name": "account",
          "type": "address"
        }
      ],
      "name": "revokeRole",
      "outputs": [],
      "stateMutability": "nonpayable",
      "type": "function"
    },
    {
      "inputs": [
        {
          "internalType": "address",
          "name": "uAddress",
          "type": "address"
        },
        {
          "internalType": "address",
          "name": "sAddress",
          "type": "address"
        },
        {
          "internalType": "address",
          "name": "pStakeAddress",
          "type": "address"
        },
        {
          "internalType": "uint256",
          "name": "valueDivisor",
          "type": "uint256"
        }
      ],
      "name": "initialize",
      "outputs": [],
      "stateMutability": "nonpayable",
      "type": "function"
    },
    {
      "inputs": [
        {
          "internalType": "address",
          "name": "lpToken",
          "type": "address"
        },
        {
          "internalType": "uint256",
          "name": "amount",
          "type": "uint256"
        },
        {
          "internalType": "uint256",
          "name": "deadline",
          "type": "uint256"
        }
      ],
      "name": "addLiquidity",
      "outputs": [
        {
          "internalType": "uint256",
          "name": "liquidity",
          "type": "uint256"
        },
        {
          "internalType": "uint256",
          "name": "rewards",
          "type": "uint256"
        }
      ],
      "stateMutability": "nonpayable",
      "type": "function"
    },
    {
      "inputs": [
        {
          "internalType": "address",
          "name": "lpToken",
          "type": "address"
        },
        {
          "internalType": "uint256",
          "name": "amount",
          "type": "uint256"
        },
        {
          "internalType": "uint256",
          "name": "deadline",
          "type": "uint256"
        }
      ],
      "name": "removeLiquidity",
      "outputs": [
        {
          "internalType": "uint256",
          "name": "liquidity",
          "type": "uint256"
        },
        {
          "internalType": "uint256",
          "name": "rewards",
          "type": "uint256"
        }
      ],
      "stateMutability": "nonpayable",
      "type": "function"
    },
    {
      "inputs": [
        {
          "internalType": "address",
          "name": "uAddress",
          "type": "address"
        }
      ],
      "name": "setUTokensContract",
      "outputs": [],
      "stateMutability": "nonpayable",
      "type": "function"
    },
    {
      "inputs": [
        {
          "internalType": "address",
          "name": "sAddress",
          "type": "address"
        }
      ],
      "name": "setSTokensContract",
      "outputs": [],
      "stateMutability": "nonpayable",
      "type": "function"
    },
    {
      "inputs": [
        {
          "internalType": "address",
          "name": "sAddress",
          "type": "address"
        }
      ],
      "name": "setPSTAKEContract",
      "outputs": [],
      "stateMutability": "nonpayable",
      "type": "function"
    },
    {
      "inputs": [],
      "name": "pause",
      "outputs": [
        {
          "internalType": "bool",
          "name": "success",
          "type": "bool"
        }
      ],
      "stateMutability": "nonpayable",
      "type": "function"
    },
    {
      "inputs": [],
      "name": "unpause",
      "outputs": [
        {
          "internalType": "bool",
          "name": "success",
          "type": "bool"
        }
      ],
      "stateMutability": "nonpayable",
      "type": "function"
    }
  ],
  "bytecode": "0x6080604052600160a25534801561001557600080fd5b50612060806100256000396000f3fe608060405234801561001057600080fd5b50600436106101165760003560e01c80638456cb59116100a2578063ca15c87311610071578063ca15c87314610300578063cf756fdf1461031d578063d547741f14610359578063e38192e314610385578063e63ab1e9146103b757610116565b80638456cb59146102855780639010d07c1461028d57806391d14854146102cc578063a217fddf146102f857610116565b80632f2ff15d116100e95780632f2ff15d146101be57806336568abe146101ea5780633f4ba83a1461021657806355776b77146102325780635c975abb1461027d57610116565b806321bdf9e51461011b578063228d9eae14610143578063248a9ca3146101695780632e31fab814610198575b600080fd5b6101416004803603602081101561013157600080fd5b50356001600160a01b03166103bf565b005b6101416004803603602081101561015957600080fd5b50356001600160a01b0316610455565b6101866004803603602081101561017f57600080fd5b50356104e6565b60408051918252519081900360200190f35b610141600480360360208110156101ae57600080fd5b50356001600160a01b03166104fb565b610141600480360360408110156101d457600080fd5b50803590602001356001600160a01b031661058c565b6101416004803603604081101561020057600080fd5b50803590602001356001600160a01b03166105f3565b61021e610654565b604080519115158252519081900360200190f35b6102646004803603606081101561024857600080fd5b506001600160a01b0381351690602081013590604001356106ca565b6040805192835260208301919091528051918290030190f35b61021e610a80565b61021e610a89565b6102b0600480360360408110156102a357600080fd5b5080359060200135610af9565b604080516001600160a01b039092168252519081900360200190f35b61021e600480360360408110156102e257600080fd5b50803590602001356001600160a01b0316610b1a565b610186610b32565b6101866004803603602081101561031657600080fd5b5035610b37565b6101416004803603608081101561033357600080fd5b506001600160a01b03813581169160208101358216916040820135169060600135610b4e565b6101416004803603604081101561036f57600080fd5b50803590602001356001600160a01b0316610c36565b6102646004803603606081101561039b57600080fd5b506001600160a01b038135169060208101359060400135610c8f565b61018661107f565b6103d160006103cc6110a3565b610b1a565b61040b576040805162461bcd60e51b8152602060048083019190915260248201526304c5131360e41b604482015290519081900360640190fd5b609f80546001600160a01b0319166001600160a01b0383169081179091556040517ff745c285f36f88bea6af14d4d0f33dd9350cef7895216c1615b1caaee7857e0c90600090a250565b61046260006103cc6110a3565b61049c576040805162461bcd60e51b815260206004808301919091526024820152634c51313160e01b604482015290519081900360640190fd5b60a080546001600160a01b0319166001600160a01b0383169081179091556040517f2321c893a63891a056e19e865d785f953c42f766bab444a8bcabd3673cee3d1d90600090a250565b60009081526065602052604090206002015490565b61050860006103cc6110a3565b610542576040805162461bcd60e51b815260206004808301919091526024820152634c51313160e01b604482015290519081900360640190fd5b60a080546001600160a01b0319166001600160a01b0383169081179091556040517fd0b9dbe26f676f4cdb02fc249c203baa0314cec79e18b4194dc862795a5de03f90600090a250565b6000828152606560205260409020600201546105aa906103cc6110a3565b6105e55760405162461bcd60e51b815260040180806020018281038252602f815260200180611ef0602f913960400191505060405180910390fd5b6105ef82826110a7565b5050565b6105fb6110a3565b6001600160a01b0316816001600160a01b03161461064a5760405162461bcd60e51b815260040180806020018281038252602f815260200180611ffc602f913960400191505060405180910390fd5b6105ef8282611110565b60006106827f65d7a28e3265b37a6474929f336521b332c1681b933f6cb9f3376673440d862a6103cc6110a3565b6106bc576040805162461bcd60e51b815260206004808301919091526024820152634c51323360e01b604482015290519081900360640190fd5b6106c4611179565b50600190565b6000806000841161070b576040805162461bcd60e51b815260206004808301919091526024820152634c50333160e01b604482015290519081900360640190fd5b60006107156110a3565b9050600060a060009054906101000a90046001600160a01b03166001600160a01b0316636d0280276040518163ffffffff1660e01b8152600401600060405180830381600087803b15801561076957600080fd5b505af115801561077d573d6000803e3d6000fd5b505050506040513d6000823e601f3d908101601f1916820160405260608110156107a657600080fd5b8101908080516040519392919084600160201b8211156107c557600080fd5b9083019060208201858111156107da57600080fd5b82518660208202830111600160201b821117156107f657600080fd5b82525081516020918201928201910280838360005b8381101561082357818101518382015260200161080b565b5050505090500160405260200180516040519392919084600160201b82111561084b57600080fd5b90830190602082018581111561086057600080fd5b82518660208202830111600160201b8211171561087c57600080fd5b82525081516020918201928201910280838360005b838110156108a9578181015183820152602001610891565b5050505090500160405260200180516040519392919084600160201b8211156108d157600080fd5b9083019060208201858111156108e657600080fd5b82518660208202830111600160201b8211171561090257600080fd5b82525081516020918201928201910280838360005b8381101561092f578181015183820152602001610917565b505050509050016040525050509250505060005b81518110156109905781818151811061095857fe5b60200260200101516001600160a01b0316886001600160a01b0316141561097e57610990565b610989816001611219565b9050610943565b815181106109ce576040805162461bcd60e51b8152602060048083019190915260248201526304c5033360e41b604482015290519081900360640190fd5b6109d9888489611273565b50506109e78884308a6114fd565b6001600160a01b03808916600090815260976020908152604080832093871683529290522054610a179088611219565b6001600160a01b03808a1660008181526097602090815260408083209489168352938152838220949094559081526098909252902054610a579088611219565b6001600160a01b0390981660009081526098602052604090209790975550919590945092505050565b60335460ff1690565b6000610ab77f65d7a28e3265b37a6474929f336521b332c1681b933f6cb9f3376673440d862a6103cc6110a3565b610af1576040805162461bcd60e51b815260206004808301919091526024820152632628991960e11b604482015290519081900360640190fd5b6106c4611659565b6000828152606560205260408120610b1190836116dc565b90505b92915050565b6000828152606560205260408120610b1190836116e8565b600081565b6000818152606560205260408120610b14906116fd565b600054610100900460ff1680610b675750610b67611708565b80610b75575060005460ff16155b610bb05760405162461bcd60e51b815260040180806020018281038252602e815260200180611f80602e913960400191505060405180910390fd5b600054610100900460ff16158015610bdb576000805460ff1961ff0019909116610100171660011790555b610be3611719565b610beb6117cb565b610bfd6000610bf86110a3565b6105e5565b610c06856103bf565b610c0f846104fb565b610c1883610455565b609b8290558015610c2f576000805461ff00191690555b5050505050565b600082815260656020526040902060020154610c54906103cc6110a3565b61064a5760405162461bcd60e51b8152600401808060200182810382526030815260200180611f506030913960400191505060405180910390fd5b60008060008411610cd0576040805162461bcd60e51b8152602060048083019190915260248201526313140ccd60e21b604482015290519081900360640190fd5b6000610cda6110a3565b9050600060a060009054906101000a90046001600160a01b03166001600160a01b0316636d0280276040518163ffffffff1660e01b8152600401600060405180830381600087803b158015610d2e57600080fd5b505af1158015610d42573d6000803e3d6000fd5b505050506040513d6000823e601f3d908101601f191682016040526060811015610d6b57600080fd5b8101908080516040519392919084600160201b821115610d8a57600080fd5b908301906020820185811115610d9f57600080fd5b82518660208202830111600160201b82111715610dbb57600080fd5b82525081516020918201928201910280838360005b83811015610de8578181015183820152602001610dd0565b5050505090500160405260200180516040519392919084600160201b821115610e1057600080fd5b908301906020820185811115610e2557600080fd5b82518660208202830111600160201b82111715610e4157600080fd5b82525081516020918201928201910280838360005b83811015610e6e578181015183820152602001610e56565b5050505090500160405260200180516040519392919084600160201b821115610e9657600080fd5b908301906020820185811115610eab57600080fd5b82518660208202830111600160201b82111715610ec757600080fd5b82525081516020918201928201910280838360005b83811015610ef4578181015183820152602001610edc565b505050509050016040525050509250505060005b8151811015610f5557818181518110610f1d57fe5b60200260200101516001600160a01b0316886001600160a01b03161415610f4357610f55565b610f4e816001611219565b9050610f08565b81518110610f93576040805162461bcd60e51b815260206004808301919091526024820152632628199960e11b604482015290519081900360640190fd5b6001600160a01b03808916600090815260976020908152604080832093871683529290522054871115610ff6576040805162461bcd60e51b815260206004808301919091526024820152634c50333360e01b604482015290519081900360640190fd5b611001888489611273565b505061100f8830858a6114fd565b6001600160a01b0380891660009081526097602090815260408083209387168352929052205461103f9088611868565b6001600160a01b03808a1660008181526097602090815260408083209489168352938152838220949094559081526098909252902054610a579088611868565b7f65d7a28e3265b37a6474929f336521b332c1681b933f6cb9f3376673440d862a81565b3390565b60008281526065602052604090206110bf90826118c5565b156105ef576110cc6110a3565b6001600160a01b0316816001600160a01b0316837f2f8788117e7eff1d82e926ec794901d17c78024a50270940304540a733656f0d60405160405180910390a45050565b600082815260656020526040902061112890826118da565b156105ef576111356110a3565b6001600160a01b0316816001600160a01b0316837ff6391f5c32d9c69d2a47ea670b442974b53935d1edc7fd64eb21e047a839171b60405160405180910390a45050565b611181610a80565b6111c9576040805162461bcd60e51b815260206004820152601460248201527314185d5cd8589b194e881b9bdd081c185d5cd95960621b604482015290519081900360640190fd5b6033805460ff191690557f5db9ee0a495bf2e6ff9c91a7834c1ba4fdd244a5e8aa4e537bd38aeae4b073aa6111fc6110a3565b604080516001600160a01b039092168252519081900360200190a1565b600082820183811015610b11576040805162461bcd60e51b815260206004820152601b60248201527f536166654d6174683a206164646974696f6e206f766572666c6f770000000000604482015290519081900360640190fd5b6001600160a01b0380841660008181526097602090815260408083209487168084529482528083205493835260988252808320546099835281842054609e84528285209685529590925282205491938493926112e691906112e0906112d9904290611868565b85906118ef565b906118ef565b6001600160a01b038089166000908152609a6020908152604080832054609e8352818420948c168452939091528120549296509161133591906112e09061132e904290611868565b86906118ef565b6001600160a01b0389166000908152609a6020526040812054609d54929350909161136a91906112e09061132e904290611868565b9050600061138382609c5461121990919063ffffffff16565b609f54604080516370a0823160e01b815230600482015290519293506000926001600160a01b03909216916370a0823191602480820192602092909190829003018186803b1580156113d457600080fd5b505afa1580156113e8573d6000803e3d6000fd5b505050506040513d60208110156113fe57600080fd5b5051905061140d818584611948565b6001600160a01b03808d166000908152609e60209081526040808320938f168352929052204290819055609d5596506114468285611868565b609c5587156114d25760a154604080516340c10f1960e01b81526001600160a01b038d81166004830152602482018c9052915191909216916340c10f199160448083019260209291908290030181600087803b1580156114a557600080fd5b505af11580156114b9573d6000803e3d6000fd5b505050506040513d60208110156114cf57600080fd5b50505b86156114ef57609f546114ef906001600160a01b03168b89611a03565b505050505050935093915050565b604080516001600160a01b0385811660248301528481166044830152606480830185905283518084039091018152608490920183526020820180516001600160e01b03166323b872dd60e01b178152925182516000948594938a169392918291908083835b602083106115815780518252601f199092019160209182019101611562565b6001836020036101000a0380198251168184511680821785525050505050509050019150506000604051808303816000865af19150503d80600081146115e3576040519150601f19603f3d011682016040523d82523d6000602084013e6115e8565b606091505b5091509150818015611616575080511580611616575080806020019051602081101561161357600080fd5b50515b6116515760405162461bcd60e51b8152600401808060200182810382526031815260200180611f1f6031913960400191505060405180910390fd5b505050505050565b611661610a80565b156116a6576040805162461bcd60e51b815260206004820152601060248201526f14185d5cd8589b194e881c185d5cd95960821b604482015290519081900360640190fd5b6033805460ff191660011790557f62e78cea01bee320cd4e420270b5ea74000d11b0c9f74754ebdbfc544b05a2586111fc6110a3565b6000610b118383611b4f565b6000610b11836001600160a01b038416611bb3565b6000610b1482611bcb565b600061171330611bcf565b15905090565b600054610100900460ff16806117325750611732611708565b80611740575060005460ff16155b61177b5760405162461bcd60e51b815260040180806020018281038252602e815260200180611f80602e913960400191505060405180910390fd5b600054610100900460ff161580156117a6576000805460ff1961ff0019909116610100171660011790555b6117ae611bd5565b6117b6611bd5565b80156117c8576000805461ff00191690555b50565b600054610100900460ff16806117e457506117e4611708565b806117f2575060005460ff16155b61182d5760405162461bcd60e51b815260040180806020018281038252602e815260200180611f80602e913960400191505060405180910390fd5b600054610100900460ff16158015611858576000805460ff1961ff0019909116610100171660011790555b611860611bd5565b6117b6611c75565b6000828211156118bf576040805162461bcd60e51b815260206004820152601e60248201527f536166654d6174683a207375627472616374696f6e206f766572666c6f770000604482015290519081900360640190fd5b50900390565b6000610b11836001600160a01b038416611d20565b6000610b11836001600160a01b038416611d6a565b6000826118fe57506000610b14565b8282028284828161190b57fe5b0414610b115760405162461bcd60e51b8152600401808060200182810382526021815260200180611fae6021913960400191505060405180910390fd5b60008060006119578686611e30565b915091506000848061196557fe5b868809905082811115611979576001820391505b9182900391816119975784838161198c57fe5b0493505050506119fc565b8482106119eb576040805162461bcd60e51b815260206004820152601a60248201527f46756c6c4d6174683a2046554c4c4449565f4f564552464c4f57000000000000604482015290519081900360640190fd5b6119f6838387611e5d565b93505050505b9392505050565b604080516001600160a01b038481166024830152604480830185905283518084039091018152606490920183526020820180516001600160e01b031663a9059cbb60e01b1781529251825160009485949389169392918291908083835b60208310611a7f5780518252601f199092019160209182019101611a60565b6001836020036101000a0380198251168184511680821785525050505050509050019150506000604051808303816000865af19150503d8060008114611ae1576040519150601f19603f3d011682016040523d82523d6000602084013e611ae6565b606091505b5091509150818015611b14575080511580611b145750808060200190516020811015611b1157600080fd5b50515b610c2f5760405162461bcd60e51b815260040180806020018281038252602d815260200180611fcf602d913960400191505060405180910390fd5b81546000908210611b915760405162461bcd60e51b8152600401808060200182810382526022815260200180611ece6022913960400191505060405180910390fd5b826000018281548110611ba057fe5b9060005260206000200154905092915050565b60009081526001919091016020526040902054151590565b5490565b3b151590565b600054610100900460ff1680611bee5750611bee611708565b80611bfc575060005460ff16155b611c375760405162461bcd60e51b815260040180806020018281038252602e815260200180611f80602e913960400191505060405180910390fd5b600054610100900460ff161580156117b6576000805460ff1961ff00199091166101001716600117905580156117c8576000805461ff001916905550565b600054610100900460ff1680611c8e5750611c8e611708565b80611c9c575060005460ff16155b611cd75760405162461bcd60e51b815260040180806020018281038252602e815260200180611f80602e913960400191505060405180910390fd5b600054610100900460ff16158015611d02576000805460ff1961ff0019909116610100171660011790555b6033805460ff1916905580156117c8576000805461ff001916905550565b6000611d2c8383611bb3565b611d6257508154600181810184556000848152602080822090930184905584548482528286019093526040902091909155610b14565b506000610b14565b60008181526001830160205260408120548015611e265783546000198083019190810190600090879083908110611d9d57fe5b9060005260206000200154905080876000018481548110611dba57fe5b600091825260208083209091019290925582815260018981019092526040902090840190558654879080611dea57fe5b60019003818190600052602060002001600090559055866001016000878152602001908152602001600020600090556001945050505050610b14565b6000915050610b14565b6000808060001984860990508385029250828103915082811015611e55576001820391505b509250929050565b60008181038216808381611e6d57fe5b049250808581611e7957fe5b049450808160000381611e8857fe5b6002858103808702820302808702820302808702820302808702820302808702820302808702820302958602900390940293046001019390930293909301029291505056fe456e756d657261626c655365743a20696e646578206f7574206f6620626f756e6473416363657373436f6e74726f6c3a2073656e646572206d75737420626520616e2061646d696e20746f206772616e745472616e7366657248656c7065723a3a7472616e7366657246726f6d3a207472616e7366657246726f6d206661696c6564416363657373436f6e74726f6c3a2073656e646572206d75737420626520616e2061646d696e20746f207265766f6b65496e697469616c697a61626c653a20636f6e747261637420697320616c726561647920696e697469616c697a6564536166654d6174683a206d756c7469706c69636174696f6e206f766572666c6f775472616e7366657248656c7065723a3a736166655472616e736665723a207472616e73666572206661696c6564416363657373436f6e74726f6c3a2063616e206f6e6c792072656e6f756e636520726f6c657320666f722073656c66a264697066735822122032ca8dc7ed2c5f89b7c47a19d65ff62fd68458e88ebd1bad34864f3bbd1c36b064736f6c63430007060033",
  "immutableReferences": {},
  "source": "// SPDX-License-Identifier: UNLICENSED\npragma solidity >= 0.7.0;\n\nimport \"@openzeppelin/contracts-upgradeable/math/SafeMathUpgradeable.sol\";\nimport \"@openzeppelin/contracts-upgradeable/access/AccessControlUpgradeable.sol\";\nimport \"@openzeppelin/contracts-upgradeable/utils/PausableUpgradeable.sol\";\nimport \"./interfaces/ISTokens.sol\";\nimport \"./interfaces/IUTokens.sol\";\nimport \"./interfaces/IPSTAKE.sol\";\nimport \"./interfaces/IStakeLPCore.sol\";\nimport \"./libraries/TransferHelper.sol\";\nimport \"./libraries/FullMath.sol\";\n\ncontract StakeLPCore is IStakeLPCore, PausableUpgradeable, AccessControlUpgradeable {\n\n    using SafeMathUpgradeable for uint256;\n    using FullMath for uint256;\n\n    // using EnumerableSetUpgradeable for EnumerableSetUpgradeable.AddressSet;\n    // EnumerableSetUpgradeable.AddressSet private whitelistedAddresses;\n    bytes32 public constant PAUSER_ROLE = keccak256(\"PAUSER_ROLE\");\n\n    // balance of user for an LP Token \n    mapping(address => mapping(address => uint256)) private _lpBalance;\n    // supply for an LP Token\n    mapping(address => uint256) private _lpSupply;\n    // weight factor of an LP token which decides how many PSTAKE tokens will be disbursed\n    mapping(address => uint256) private _liquidityWeightFactor;\n    // weight factor of an LP token which decides how many reward tokens will be disbursed\n    mapping(address => uint256) private _rewardWeightFactor;\n\n    // value divisor to make weight factor a fraction if need be\n    uint256 private _valueDivisor;\n\n    // last recorded total LPTimeShare\n    uint256 private _lastLPTimeShare;\n    // last recorded timestamp when rewards were disbursed\n    uint256 private _lastLPTimeShareTimestamp;\n    // last recorded timestamp when PSTAKE tokens were disbursed\n    mapping(address => mapping(address => uint256)) private _lastLiquidityTimestamp; \n\n    //Private instances of contracts to handle Utokens and Stokens\n    IUTokens private _uTokens;\n    ISTokens private _sTokens;\n    IPSTAKE private _pstakeTokens;\n\n    // modifier which acts like re-entrancy attack preverter\n    uint private unlocked = 1;\n    modifier lock() {\n        require(unlocked == 1, 'StakeLPCore: LOCKED');\n        unlocked = 0;\n        _;\n        unlocked = 1;\n    }\n\n    /**\n   * @dev Constructor for initializing the LiquidStaking contract.\n   * @param uAddress - address of the UToken contract.\n   * @param sAddress - address of the SToken contract.\n   * @param pStakeAddress - address of the pStake contract address.\n   * @param valueDivisor - valueDivisor set to 10^9.\n   */\n    function initialize(address uAddress, address sAddress, address pStakeAddress, uint256 valueDivisor) public virtual initializer  {\n        __AccessControl_init();\n        __Pausable_init();\n        _setupRole(DEFAULT_ADMIN_ROLE, _msgSender());\n        //_setupRole(PAUSER_ROLE, pauserAddress);\n        setUTokensContract(uAddress);\n        setSTokensContract(sAddress);\n        setPSTAKEContract(pStakeAddress);\n        _valueDivisor = valueDivisor;\n\n    }\n\n     function _calculateRewardsAndLiquidity(address lpToken, address to, uint256 amount) internal returns (uint256 liquidity, uint256 reward){\n        // get the balance of user's LP token\n        uint256 _lpBalanceUser = _lpBalance[lpToken][to];\n        uint256 _lpSupplyContract = _lpSupply[lpToken];\n\n        // CALCULATE THE LIQUIDITY TOKENS TO BE DISBURSED TO USER\n        liquidity = (_lpBalanceUser.mul(block.timestamp.sub(_lastLiquidityTimestamp[lpToken][to]))).mul(_liquidityWeightFactor[lpToken]);\n\n        // CALCULATE THE REWARD TOKENS TO BE DISBURSED TO USER\n        // calculate the LPTimeShare of the user's LP Token\n        uint256 _userLPTimeShare = (_lpBalanceUser.mul(block.timestamp.sub(_lastLiquidityTimestamp[lpToken][to]))).mul(_rewardWeightFactor[lpToken]);\n        // calculate the LPTimeShare of the sum of supply of all LP Tokens\n        uint256 _newSupplyLPTimeShare = (_lpSupplyContract.mul(block.timestamp.sub(_lastLPTimeShareTimestamp))).mul(_rewardWeightFactor[lpToken]);\n        uint256 _totalSupplyLPTimeShare = _lastLPTimeShare.add(_newSupplyLPTimeShare);\n\n        // calculate users new reward tokens\n        uint256 _rewardPool = _uTokens.balanceOf(address(this));\n        reward = _rewardPool.mulDiv(_userLPTimeShare, _totalSupplyLPTimeShare);\n\n        // update last timestamps and LPTimeShares \n        _lastLiquidityTimestamp[lpToken][to] = block.timestamp;\n        _lastLPTimeShareTimestamp = block.timestamp;\n        _lastLPTimeShare = _totalSupplyLPTimeShare.sub(_userLPTimeShare);\n\n        // DISBURSE THE LIQUIDITY TOKENS TO USER (mint)\n        if(liquidity > 0)\n        _pstakeTokens.mint(to, liquidity);\n\n        // DISBURSE THE REWARD TOKENS TO USER (transfer)\n        if(reward > 0)\n        TransferHelper.safeTransfer(address(_uTokens), to, reward);\n    }\n\n    function calculateRewardsAndLiquidity(address lpToken, uint256 amount) internal returns (uint256 liquidity, uint256 reward){\n        // check for validity of arguments\n        require(amount > 0, \"LP35\");\n\n        // check if lpToken contract of DeFi product address is whitelisted\n        address messageSender = _msgSender();\n        ( , , address[] memory _lpAddresses) = _sTokens.getWhitelistedAddresses();\n        uint256 i;\n\n        for (i=0; i<_lpAddresses.length; i=i.add(1)) {\n            if(lpToken == _lpAddresses[i]) {\n                break;\n            }\n        }\n\n        require(i < _lpAddresses.length, \"LP36\");\n\n        (liquidity, reward) = _calculateRewardsAndLiquidity(lpToken, _msgSender(), amount);\n        CalculateRewardsAndLiquidity(lpToken, amount, _msgSender(), liquidity, reward);\n    }\n\n\n    function addLiquidity(\n        address lpToken,\n        uint256 amount,\n        uint256 deadline\n    ) external virtual override returns (uint256 liquidity, uint256 rewards) {\n        // check for validity of arguments\n        require(amount > 0, \"LP31\");\n        // check if to address is of message sender\n        // require(to == _msgSender(), \"LP32\");\n        // check if lpToken contract of DeFi product address is whitelisted\n        address messageSender = _msgSender();\n        ( , , address[] memory _lpAddresses) = _sTokens.getWhitelistedAddresses();\n        uint256 i;\n\n        for (i=0; i<_lpAddresses.length; i=i.add(1)) {\n            if(lpToken == _lpAddresses[i]) {\n                break;\n            }\n        }\n\n        require(i < _lpAddresses.length, \"LP30\");\n        _calculateRewardsAndLiquidity(lpToken, messageSender, amount);\n        // finally transfer the new LP Tokens to the StakeLP contract\n        TransferHelper.safeTransferFrom(lpToken, messageSender, address(this), amount);\n        // update the user balance\n        _lpBalance[lpToken][messageSender] = _lpBalance[lpToken][messageSender].add(amount);\n        // update the supply of lp tokens for reward and liquidity calculation\n        _lpSupply[lpToken] = _lpSupply[lpToken].add(amount);\n\n    }\n\n    function removeLiquidity(\n        address lpToken,\n        uint256 amount,\n        uint256 deadline\n    ) external virtual override returns (uint256 liquidity, uint256 rewards) {\n        // check for validity of arguments\n        require(amount > 0, \"LP34\");\n        // check if to address is of message sender\n        // require(to == _msgSender(), \"LP32\");\n        address messageSender = _msgSender();\n\n        // check if lpToken contract of DeFi product address is whitelisted\n        ( , , address[] memory _lpAddresses) = _sTokens.getWhitelistedAddresses();\n        uint256 i;\n\n        for (i=0; i<_lpAddresses.length; i=i.add(1)) {\n            if(lpToken == _lpAddresses[i]) {\n                break;\n            }\n        }\n\n        require(i < _lpAddresses.length, \"LP32\");\n\n        // check if suffecient balance is there\n        require(_lpBalance[lpToken][messageSender] >= amount, \"LP33\");\n\n        _calculateRewardsAndLiquidity(lpToken, messageSender, amount);\n        // finally transfer the new LP Tokens to the StakeLP contract\n        TransferHelper.safeTransferFrom(lpToken, address(this), messageSender, amount);\n        // update the user balance\n        _lpBalance[lpToken][messageSender] = _lpBalance[lpToken][messageSender].sub(amount);\n        // update the supply of lp tokens for reward and liquidity calculation\n        _lpSupply[lpToken] = _lpSupply[lpToken].sub(amount);\n\n    }\n\n    /**\n     * @dev Set 'contract address', called from constructor\n     * @param uAddress: utoken contract address\n     *\n     * Emits a {SetUTokensContract} event with '_contract' set to the utoken contract address.\n     *\n     */\n    function setUTokensContract(address uAddress) public virtual override {\n        require(hasRole(DEFAULT_ADMIN_ROLE, _msgSender()), \"LQ10\");\n        _uTokens = IUTokens(uAddress);\n        emit SetUTokensContract(uAddress);\n    }\n\n    /**\n     * @dev Set 'contract address', called from constructor\n     * @param sAddress: stoken contract address\n     *\n     * Emits a {SetSTokensContract} event with '_contract' set to the stoken contract address.\n     *\n     */\n    function setSTokensContract(address sAddress) public virtual override {\n        require(hasRole(DEFAULT_ADMIN_ROLE, _msgSender()), \"LQ11\");\n        _sTokens = ISTokens(sAddress);\n        emit SetSTokensContract(sAddress);\n    }\n\n    /**\n     * @dev Set 'contract address', called from constructor\n     * @param sAddress: stoken contract address\n     *\n     * Emits a {SetPSTAKEContract} event with '_contract' set to the stoken contract address.\n     *\n     */\n    function setPSTAKEContract(address sAddress) public virtual {\n        require(hasRole(DEFAULT_ADMIN_ROLE, _msgSender()), \"LQ11\");\n        _sTokens = ISTokens(sAddress);\n        emit SetPSTAKEContract(sAddress);\n    }\n\n    /**\n      * @dev Triggers stopped state.\n      *\n      * Requirements:\n      *\n      * - The contract must not be paused.\n      */\n    function pause() public virtual returns (bool success) {\n        require(hasRole(PAUSER_ROLE, _msgSender()), \"LQ22\");\n        _pause();\n        return true;\n    }\n\n    /**\n     * @dev Returns to normal state.\n     *\n     * Requirements:\n     *\n     * - The contract must be paused.\n     */\n    function unpause() public virtual returns (bool success) {\n        require(hasRole(PAUSER_ROLE, _msgSender()), \"LQ23\");\n        _unpause();\n        return true;\n    }\n}",
  "sourcePath": "/home/aditimahesh/Documents/Work/Persistence/go/src/github.com/persistenceOne/pStakeSmartContracts/contracts/StakeLPCore.sol",
  "compiler": {
    "name": "solc",
    "version": "0.7.6+commit.7338295f.Emscripten.clang"
  },
  "schemaVersion": "3.3.4",
  "updatedAt": "2021-07-07T13:02:30.473Z",
  "devdoc": {
    "kind": "dev",
    "methods": {
      "addLiquidity(address,uint256,uint256)": {
        "details": "adds liquidity Returns a uint256"
      },
      "getRoleAdmin(bytes32)": {
        "details": "Returns the admin role that controls `role`. See {grantRole} and {revokeRole}. To change a role's admin, use {_setRoleAdmin}."
      },
      "getRoleMember(bytes32,uint256)": {
        "details": "Returns one of the accounts that have `role`. `index` must be a value between 0 and {getRoleMemberCount}, non-inclusive. Role bearers are not sorted in any particular way, and their ordering may change at any point. WARNING: When using {getRoleMember} and {getRoleMemberCount}, make sure you perform all queries on the same block. See the following https://forum.openzeppelin.com/t/iterating-over-elements-on-enumerableset-in-openzeppelin-contracts/2296[forum post] for more information."
      },
      "getRoleMemberCount(bytes32)": {
        "details": "Returns the number of accounts that have `role`. Can be used together with {getRoleMember} to enumerate all bearers of a role."
      },
      "grantRole(bytes32,address)": {
        "details": "Grants `role` to `account`. If `account` had not been already granted `role`, emits a {RoleGranted} event. Requirements: - the caller must have ``role``'s admin role."
      },
      "hasRole(bytes32,address)": {
        "details": "Returns `true` if `account` has been granted `role`."
      },
      "initialize(address,address,address,uint256)": {
        "details": "Constructor for initializing the LiquidStaking contract.",
        "params": {
          "pStakeAddress": "- address of the pStake contract address.",
          "sAddress": "- address of the SToken contract.",
          "uAddress": "- address of the UToken contract.",
          "valueDivisor": "- valueDivisor set to 10^9."
        }
      },
      "pause()": {
        "details": "Triggers stopped state. Requirements: - The contract must not be paused."
      },
      "paused()": {
        "details": "Returns true if the contract is paused, and false otherwise."
      },
      "removeLiquidity(address,uint256,uint256)": {
        "details": "remove liquidity Returns a uint256"
      },
      "renounceRole(bytes32,address)": {
        "details": "Revokes `role` from the calling account. Roles are often managed via {grantRole} and {revokeRole}: this function's purpose is to provide a mechanism for accounts to lose their privileges if they are compromised (such as when a trusted device is misplaced). If the calling account had been granted `role`, emits a {RoleRevoked} event. Requirements: - the caller must be `account`."
      },
      "revokeRole(bytes32,address)": {
        "details": "Revokes `role` from `account`. If `account` had been granted `role`, emits a {RoleRevoked} event. Requirements: - the caller must have ``role``'s admin role."
      },
      "setPSTAKEContract(address)": {
        "details": "Set 'contract address', called from constructor",
        "params": {
          "sAddress": ": stoken contract address Emits a {SetPSTAKEContract} event with '_contract' set to the stoken contract address."
        }
      },
      "setSTokensContract(address)": {
        "details": "Set 'contract address', called from constructor",
        "params": {
          "sAddress": ": stoken contract address Emits a {SetSTokensContract} event with '_contract' set to the stoken contract address."
        }
      },
      "setUTokensContract(address)": {
        "details": "Set 'contract address', called from constructor",
        "params": {
          "uAddress": ": utoken contract address Emits a {SetUTokensContract} event with '_contract' set to the utoken contract address."
        }
      },
      "unpause()": {
        "details": "Returns to normal state. Requirements: - The contract must be paused."
      }
    },
    "version": 1
  },
  "userdoc": {
    "kind": "user",
    "methods": {},
    "version": 1
  }
}