{
  "contractName": "StkXPRT",
  "abi": [
    {
      "anonymous": false,
      "inputs": [
        {
          "indexed": true,
          "internalType": "address",
          "name": "owner",
          "type": "address"
        },
        {
          "indexed": true,
          "internalType": "address",
          "name": "spender",
          "type": "address"
        },
        {
          "indexed": false,
          "internalType": "uint256",
          "name": "value",
          "type": "uint256"
        }
      ],
      "name": "Approval",
      "type": "event"
    },
    {
      "anonymous": false,
      "inputs": [
        {
          "indexed": true,
          "internalType": "address",
          "name": "accountAddress",
          "type": "address"
        },
        {
          "indexed": false,
          "internalType": "uint256",
          "name": "tokens",
          "type": "uint256"
        },
        {
          "indexed": false,
          "internalType": "uint256",
          "name": "timestamp",
          "type": "uint256"
        }
      ],
      "name": "CalculateRewards",
      "type": "event"
    },
    {
      "anonymous": false,
      "inputs": [
        {
          "indexed": false,
          "internalType": "address",
          "name": "account",
          "type": "address"
        }
      ],
      "name": "Paused",
      "type": "event"
    },
    {
      "anonymous": false,
      "inputs": [
        {
          "indexed": true,
          "internalType": "bytes32",
          "name": "role",
          "type": "bytes32"
        },
        {
          "indexed": true,
          "internalType": "bytes32",
          "name": "previousAdminRole",
          "type": "bytes32"
        },
        {
          "indexed": true,
          "internalType": "bytes32",
          "name": "newAdminRole",
          "type": "bytes32"
        }
      ],
      "name": "RoleAdminChanged",
      "type": "event"
    },
    {
      "anonymous": false,
      "inputs": [
        {
          "indexed": true,
          "internalType": "bytes32",
          "name": "role",
          "type": "bytes32"
        },
        {
          "indexed": true,
          "internalType": "address",
          "name": "account",
          "type": "address"
        },
        {
          "indexed": true,
          "internalType": "address",
          "name": "sender",
          "type": "address"
        }
      ],
      "name": "RoleGranted",
      "type": "event"
    },
    {
      "anonymous": false,
      "inputs": [
        {
          "indexed": true,
          "internalType": "bytes32",
          "name": "role",
          "type": "bytes32"
        },
        {
          "indexed": true,
          "internalType": "address",
          "name": "account",
          "type": "address"
        },
        {
          "indexed": true,
          "internalType": "address",
          "name": "sender",
          "type": "address"
        }
      ],
      "name": "RoleRevoked",
      "type": "event"
    },
    {
      "anonymous": false,
      "inputs": [
        {
          "indexed": true,
          "internalType": "address",
          "name": "_contract",
          "type": "address"
        }
      ],
      "name": "SetLiquidStakingContract",
      "type": "event"
    },
    {
      "anonymous": false,
      "inputs": [
        {
          "indexed": true,
          "internalType": "address",
          "name": "_contract",
          "type": "address"
        }
      ],
      "name": "SetUTokensContract",
      "type": "event"
    },
    {
      "anonymous": false,
      "inputs": [
        {
          "indexed": true,
          "internalType": "address",
          "name": "_contract",
          "type": "address"
        }
      ],
      "name": "SetWrapperContract",
      "type": "event"
    },
    {
      "anonymous": false,
      "inputs": [
        {
          "indexed": true,
          "internalType": "address",
          "name": "from",
          "type": "address"
        },
        {
          "indexed": true,
          "internalType": "address",
          "name": "to",
          "type": "address"
        },
        {
          "indexed": false,
          "internalType": "uint256",
          "name": "value",
          "type": "uint256"
        }
      ],
      "name": "Transfer",
      "type": "event"
    },
    {
      "anonymous": false,
      "inputs": [
        {
          "indexed": true,
          "internalType": "address",
          "name": "accountAddress",
          "type": "address"
        },
        {
          "indexed": false,
          "internalType": "uint256",
          "name": "tokens",
          "type": "uint256"
        },
        {
          "indexed": false,
          "internalType": "uint256",
          "name": "timestamp",
          "type": "uint256"
        }
      ],
      "name": "TriggeredCalculateRewards",
      "type": "event"
    },
    {
      "anonymous": false,
      "inputs": [
        {
          "indexed": false,
          "internalType": "address",
          "name": "account",
          "type": "address"
        }
      ],
      "name": "Unpaused",
      "type": "event"
    },
    {
      "inputs": [],
      "name": "DEFAULT_ADMIN_ROLE",
      "outputs": [
        {
          "internalType": "bytes32",
          "name": "",
          "type": "bytes32"
        }
      ],
      "stateMutability": "view",
      "type": "function"
    },
    {
      "inputs": [],
      "name": "PAUSER_ROLE",
      "outputs": [
        {
          "internalType": "bytes32",
          "name": "",
          "type": "bytes32"
        }
      ],
      "stateMutability": "view",
      "type": "function"
    },
    {
      "inputs": [
        {
          "internalType": "address",
          "name": "owner",
          "type": "address"
        },
        {
          "internalType": "address",
          "name": "spender",
          "type": "address"
        }
      ],
      "name": "allowance",
      "outputs": [
        {
          "internalType": "uint256",
          "name": "",
          "type": "uint256"
        }
      ],
      "stateMutability": "view",
      "type": "function"
    },
    {
      "inputs": [
        {
          "internalType": "address",
          "name": "spender",
          "type": "address"
        },
        {
          "internalType": "uint256",
          "name": "amount",
          "type": "uint256"
        }
      ],
      "name": "approve",
      "outputs": [
        {
          "internalType": "bool",
          "name": "",
          "type": "bool"
        }
      ],
      "stateMutability": "nonpayable",
      "type": "function"
    },
    {
      "inputs": [
        {
          "internalType": "address",
          "name": "account",
          "type": "address"
        }
      ],
      "name": "balanceOf",
      "outputs": [
        {
          "internalType": "uint256",
          "name": "",
          "type": "uint256"
        }
      ],
      "stateMutability": "view",
      "type": "function"
    },
    {
      "inputs": [],
      "name": "decimals",
      "outputs": [
        {
          "internalType": "uint8",
          "name": "",
          "type": "uint8"
        }
      ],
      "stateMutability": "view",
      "type": "function"
    },
    {
      "inputs": [
        {
          "internalType": "address",
          "name": "spender",
          "type": "address"
        },
        {
          "internalType": "uint256",
          "name": "subtractedValue",
          "type": "uint256"
        }
      ],
      "name": "decreaseAllowance",
      "outputs": [
        {
          "internalType": "bool",
          "name": "",
          "type": "bool"
        }
      ],
      "stateMutability": "nonpayable",
      "type": "function"
    },
    {
      "inputs": [
        {
          "internalType": "bytes32",
          "name": "role",
          "type": "bytes32"
        }
      ],
      "name": "getRoleAdmin",
      "outputs": [
        {
          "internalType": "bytes32",
          "name": "",
          "type": "bytes32"
        }
      ],
      "stateMutability": "view",
      "type": "function"
    },
    {
      "inputs": [
        {
          "internalType": "bytes32",
          "name": "role",
          "type": "bytes32"
        },
        {
          "internalType": "uint256",
          "name": "index",
          "type": "uint256"
        }
      ],
      "name": "getRoleMember",
      "outputs": [
        {
          "internalType": "address",
          "name": "",
          "type": "address"
        }
      ],
      "stateMutability": "view",
      "type": "function"
    },
    {
      "inputs": [
        {
          "internalType": "bytes32",
          "name": "role",
          "type": "bytes32"
        }
      ],
      "name": "getRoleMemberCount",
      "outputs": [
        {
          "internalType": "uint256",
          "name": "",
          "type": "uint256"
        }
      ],
      "stateMutability": "view",
      "type": "function"
    },
    {
      "inputs": [
        {
          "internalType": "bytes32",
          "name": "role",
          "type": "bytes32"
        },
        {
          "internalType": "address",
          "name": "account",
          "type": "address"
        }
      ],
      "name": "grantRole",
      "outputs": [],
      "stateMutability": "nonpayable",
      "type": "function"
    },
    {
      "inputs": [
        {
          "internalType": "bytes32",
          "name": "role",
          "type": "bytes32"
        },
        {
          "internalType": "address",
          "name": "account",
          "type": "address"
        }
      ],
      "name": "hasRole",
      "outputs": [
        {
          "internalType": "bool",
          "name": "",
          "type": "bool"
        }
      ],
      "stateMutability": "view",
      "type": "function"
    },
    {
      "inputs": [
        {
          "internalType": "address",
          "name": "spender",
          "type": "address"
        },
        {
          "internalType": "uint256",
          "name": "addedValue",
          "type": "uint256"
        }
      ],
      "name": "increaseAllowance",
      "outputs": [
        {
          "internalType": "bool",
          "name": "",
          "type": "bool"
        }
      ],
      "stateMutability": "nonpayable",
      "type": "function"
    },
    {
      "inputs": [],
      "name": "name",
      "outputs": [
        {
          "internalType": "string",
          "name": "",
          "type": "string"
        }
      ],
      "stateMutability": "view",
      "type": "function"
    },
    {
      "inputs": [],
      "name": "paused",
      "outputs": [
        {
          "internalType": "bool",
          "name": "",
          "type": "bool"
        }
      ],
      "stateMutability": "view",
      "type": "function"
    },
    {
      "inputs": [
        {
          "internalType": "bytes32",
          "name": "role",
          "type": "bytes32"
        },
        {
          "internalType": "address",
          "name": "account",
          "type": "address"
        }
      ],
      "name": "renounceRole",
      "outputs": [],
      "stateMutability": "nonpayable",
      "type": "function"
    },
    {
      "inputs": [
        {
          "internalType": "bytes32",
          "name": "role",
          "type": "bytes32"
        },
        {
          "internalType": "address",
          "name": "account",
          "type": "address"
        }
      ],
      "name": "revokeRole",
      "outputs": [],
      "stateMutability": "nonpayable",
      "type": "function"
    },
    {
      "inputs": [],
      "name": "symbol",
      "outputs": [
        {
          "internalType": "string",
          "name": "",
          "type": "string"
        }
      ],
      "stateMutability": "view",
      "type": "function"
    },
    {
      "inputs": [],
      "name": "totalSupply",
      "outputs": [
        {
          "internalType": "uint256",
          "name": "",
          "type": "uint256"
        }
      ],
      "stateMutability": "view",
      "type": "function"
    },
    {
      "inputs": [
        {
          "internalType": "address",
          "name": "recipient",
          "type": "address"
        },
        {
          "internalType": "uint256",
          "name": "amount",
          "type": "uint256"
        }
      ],
      "name": "transfer",
      "outputs": [
        {
          "internalType": "bool",
          "name": "",
          "type": "bool"
        }
      ],
      "stateMutability": "nonpayable",
      "type": "function"
    },
    {
      "inputs": [
        {
          "internalType": "address",
          "name": "sender",
          "type": "address"
        },
        {
          "internalType": "address",
          "name": "recipient",
          "type": "address"
        },
        {
          "internalType": "uint256",
          "name": "amount",
          "type": "uint256"
        }
      ],
      "name": "transferFrom",
      "outputs": [
        {
          "internalType": "bool",
          "name": "",
          "type": "bool"
        }
      ],
      "stateMutability": "nonpayable",
      "type": "function"
    },
    {
      "inputs": [
        {
          "internalType": "address",
          "name": "uaddress",
          "type": "address"
        },
        {
          "internalType": "address",
          "name": "pauserAddress",
          "type": "address"
        },
        {
          "internalType": "uint256",
          "name": "rewardRate",
          "type": "uint256"
        }
      ],
      "name": "initialize",
      "outputs": [],
      "stateMutability": "nonpayable",
      "type": "function"
    },
    {
      "inputs": [
        {
          "internalType": "uint256",
          "name": "rewardRate",
          "type": "uint256"
        }
      ],
      "name": "setRewardRate",
      "outputs": [
        {
          "internalType": "bool",
          "name": "success",
          "type": "bool"
        }
      ],
      "stateMutability": "nonpayable",
      "type": "function"
    },
    {
      "inputs": [],
      "name": "getRewardRate",
      "outputs": [
        {
          "internalType": "uint256[]",
          "name": "rewardRate",
          "type": "uint256[]"
        },
        {
          "internalType": "uint256",
          "name": "rewardDivisor",
          "type": "uint256"
        }
      ],
      "stateMutability": "view",
      "type": "function"
    },
    {
      "inputs": [
        {
          "internalType": "address",
          "name": "to",
          "type": "address"
        }
      ],
      "name": "getStakedBlock",
      "outputs": [
        {
          "internalType": "uint256",
          "name": "stakedBlocks",
          "type": "uint256"
        }
      ],
      "stateMutability": "view",
      "type": "function"
    },
    {
      "inputs": [
        {
          "internalType": "address",
          "name": "to",
          "type": "address"
        },
        {
          "internalType": "uint256",
          "name": "tokens",
          "type": "uint256"
        }
      ],
      "name": "mint",
      "outputs": [
        {
          "internalType": "bool",
          "name": "success",
          "type": "bool"
        }
      ],
      "stateMutability": "nonpayable",
      "type": "function"
    },
    {
      "inputs": [
        {
          "internalType": "address",
          "name": "from",
          "type": "address"
        },
        {
          "internalType": "uint256",
          "name": "tokens",
          "type": "uint256"
        }
      ],
      "name": "burn",
      "outputs": [
        {
          "internalType": "bool",
          "name": "success",
          "type": "bool"
        }
      ],
      "stateMutability": "nonpayable",
      "type": "function"
    },
    {
      "inputs": [
        {
          "internalType": "address",
          "name": "to",
          "type": "address"
        }
      ],
      "name": "calculatePendingRewards",
      "outputs": [
        {
          "internalType": "uint256",
          "name": "pendingRewards",
          "type": "uint256"
        }
      ],
      "stateMutability": "view",
      "type": "function"
    },
    {
      "inputs": [
        {
          "internalType": "address",
          "name": "to",
          "type": "address"
        }
      ],
      "name": "calculateRewards",
      "outputs": [
        {
          "internalType": "bool",
          "name": "success",
          "type": "bool"
        }
      ],
      "stateMutability": "nonpayable",
      "type": "function"
    },
    {
      "inputs": [
        {
          "internalType": "address",
          "name": "uTokenContract",
          "type": "address"
        }
      ],
      "name": "setUTokensContract",
      "outputs": [],
      "stateMutability": "nonpayable",
      "type": "function"
    },
    {
      "inputs": [
        {
          "internalType": "address",
          "name": "liquidStakingContract",
          "type": "address"
        }
      ],
      "name": "setLiquidStakingContract",
      "outputs": [],
      "stateMutability": "nonpayable",
      "type": "function"
    },
    {
      "inputs": [
        {
          "internalType": "address",
          "name": "wrapperContract",
          "type": "address"
        }
      ],
      "name": "setWrapperContract",
      "outputs": [],
      "stateMutability": "nonpayable",
      "type": "function"
    },
    {
      "inputs": [],
      "name": "pause",
      "outputs": [
        {
          "internalType": "bool",
          "name": "success",
          "type": "bool"
        }
      ],
      "stateMutability": "nonpayable",
      "type": "function"
    },
    {
      "inputs": [],
      "name": "unpause",
      "outputs": [
        {
          "internalType": "bool",
          "name": "success",
          "type": "bool"
        }
      ],
      "stateMutability": "nonpayable",
      "type": "function"
    }
  ],
  "bytecode": "0x608060405234801561001057600080fd5b50612a1f806100206000396000f3fe608060405234801561001057600080fd5b50600436106102065760003560e01c806364ab86751161011a5780639e447fc6116100ad578063ca15c8731161007c578063ca15c873146106b6578063d04be575146106d3578063d547741f146106f9578063dd62ed3e14610725578063e63ab1e91461075357610206565b80639e447fc614610639578063a217fddf14610656578063a457c2d71461065e578063a9059cbb1461068a57610206565b80639010d07c116100e95780639010d07c1461059a57806391d14854146105d957806395d89b41146106055780639dc29fac1461060d57610206565b806364ab8675146104e357806370a08231146105095780637e1a37861461052f5780638456cb591461059257610206565b80632f2ff15d1161019d5780633f4ba83a1161016c5780633f4ba83a1461045b57806340c10f19146104635780634e5581271461048f57806358f8943e146104b55780635c975abb146104db57610206565b80632f2ff15d146103b9578063313ce567146103e557806336568abe14610403578063395093511461042f57610206565b806318160ddd116101d957806318160ddd1461033857806321bdf9e51461034057806323b872dd14610366578063248a9ca31461039c57610206565b806306fdde031461020b578063095ea7b314610288578063097aad10146102c85780631794bb3c14610300575b600080fd5b61021361075b565b6040805160208082528351818301528351919283929083019185019080838360005b8381101561024d578181015183820152602001610235565b50505050905090810190601f16801561027a5780820380516001836020036101000a031916815260200191505b509250505060405180910390f35b6102b46004803603604081101561029e57600080fd5b506001600160a01b0381351690602001356107f1565b604080519115158252519081900360200190f35b6102ee600480360360208110156102de57600080fd5b50356001600160a01b031661080f565b60408051918252519081900360200190f35b6103366004803603606081101561031657600080fd5b506001600160a01b038135811691602081013590911690604001356109dc565b005b6102ee610b84565b6103366004803603602081101561035657600080fd5b50356001600160a01b0316610b8a565b6102b46004803603606081101561037c57600080fd5b506001600160a01b03813581169160208101359091169060400135610c21565b6102ee600480360360208110156103b257600080fd5b5035610ca8565b610336600480360360408110156103cf57600080fd5b50803590602001356001600160a01b0316610cbd565b6103ed610d24565b6040805160ff9092168252519081900360200190f35b6103366004803603604081101561041957600080fd5b50803590602001356001600160a01b0316610d2d565b6102b46004803603604081101561044557600080fd5b506001600160a01b038135169060200135610d8e565b6102b4610ddc565b6102b46004803603604081101561047957600080fd5b506001600160a01b038135169060200135610e41565b610336600480360360208110156104a557600080fd5b50356001600160a01b0316610f07565b610336600480360360208110156104cb57600080fd5b50356001600160a01b0316610f99565b6102b461102b565b6102b4600480360360208110156104f957600080fd5b50356001600160a01b0316611034565b6102ee6004803603602081101561051f57600080fd5b50356001600160a01b0316611136565b610537611151565b6040518080602001838152602001828103825284818151815260200191508051906020019060200280838360005b8381101561057d578181015183820152602001610565565b50505050905001935050505060405180910390f35b6102b46111b1565b6105bd600480360360408110156105b057600080fd5b5080359060200135611210565b604080516001600160a01b039092168252519081900360200190f35b6102b4600480360360408110156105ef57600080fd5b50803590602001356001600160a01b031661122f565b610213611247565b6102b46004803603604081101561062357600080fd5b506001600160a01b0381351690602001356112a8565b6102b46004803603602081101561064f57600080fd5b503561136e565b6102ee611461565b6102b46004803603604081101561067457600080fd5b506001600160a01b038135169060200135611466565b6102b4600480360360408110156106a057600080fd5b506001600160a01b0381351690602001356114ce565b6102ee600480360360208110156106cc57600080fd5b50356114e2565b6102ee600480360360208110156106e957600080fd5b50356001600160a01b03166114f9565b6103366004803603604081101561070f57600080fd5b50803590602001356001600160a01b0316611514565b6102ee6004803603604081101561073b57600080fd5b506001600160a01b038135811691602001351661156d565b6102ee611598565b60368054604080516020601f60026000196101006001881615020190951694909404938401819004810282018101909252828152606093909290918301828280156107e75780601f106107bc576101008083540402835291602001916107e7565b820191906000526020600020905b8154815290600101906020018083116107ca57829003601f168201915b5050505050905090565b60006108056107fe6115aa565b84846115ae565b5060015b92915050565b6001600160a01b038116600090815260cf60205260408120548161083284611136565b60cd54909150600019016000805b8215610883578460cd848154811061085457fe5b906000526020600020015411156108775761087083600161169a565b9250610883565b60001990920191610840565b60cd54831415610905576108c160cd61089d8560016116f4565b815481106108a757fe5b9060005260206000200154866116f490919063ffffffff16565b60ce549092506064028260cc6108d88660016116f4565b815481106108e257fe5b9060005260206000200154860202816108f757fe5b0495506109d7945050505050565b60cd548310156109d1576109398560cd858154811061092057fe5b90600052602060002001546116f490919063ffffffff16565b915060cd838154811061094857fe5b9060005260206000200154945060008411801561097c5750600060cd848154811061096f57fe5b9060005260206000200154115b80156109885750600082115b156109c65760ce546064028260cc85815481106109a157fe5b9060005260206000200154860202816109b657fe5b0490506109c3868261169a565b95505b600190920191610905565b50505050505b919050565b600054610100900460ff16806109f557506109f5611751565b80610a03575060005460ff16155b610a3e5760405162461bcd60e51b815260040180806020018281038252602e81526020018061274f602e913960400191505060405180910390fd5b600054610100900460ff16158015610a69576000805460ff1961ff0019909116610100171660011790555b610abc604051806040016040528060128152602001711c14d51052d14814dd185ad959081614149560721b815250604051806040016040528060078152602001661cdd1ad614149560ca1b815250611762565b610ac4611818565b610acc6118ca565b610ade6000610ad96115aa565b610d16565b610af660008051602061281483398151915284610d16565b610aff84610b8a565b60cc805460018181019092557f47197230e1e4b29fc0bd84d7d78966c0925452aff72a2a121538b102457e9ebe0183905560cd80549182018155600052437f83978b4c69c48dd978ab43fe30f077615294f938fb7f936d9eb340e51ea7db2e90910155610b6c6006611967565b8015610b7e576000805461ff00191690555b50505050565b60355490565b610b9c6000610b976115aa565b61122f565b610bd75760405162461bcd60e51b815260040180806020018281038252603b815260200180612860603b913960400191505060405180910390fd5b60cb80546001600160a01b0319166001600160a01b0383169081179091556040517ff745c285f36f88bea6af14d4d0f33dd9350cef7895216c1615b1caaee7857e0c90600090a250565b6000610c2e84848461197d565b610c9e84610c3a6115aa565b610c99856040518060600160405280602881526020016127ec602891396001600160a01b038a16600090815260346020526040812090610c786115aa565b6001600160a01b031681526020810191909152604001600020549190611ada565b6115ae565b5060019392505050565b60009081526097602052604090206002015490565b600082815260976020526040902060020154610cdb90610b976115aa565b610d165760405162461bcd60e51b815260040180806020018281038252602f8152602001806125f1602f913960400191505060405180910390fd5b610d208282611b71565b5050565b60385460ff1690565b610d356115aa565b6001600160a01b0316816001600160a01b031614610d845760405162461bcd60e51b815260040180806020018281038252602f815260200180612991602f913960400191505060405180910390fd5b610d208282611bda565b6000610805610d9b6115aa565b84610c998560346000610dac6115aa565b6001600160a01b03908116825260208083019390935260409182016000908120918c16815292529020549061169a565b6000610df8600080516020612814833981519152610b976115aa565b610e335760405162461bcd60e51b81526004018080602001828103825260328152602001806126646032913960400191505060405180910390fd5b610e3b611c43565b50600190565b6000610e4b61102b565b15610e90576040805162461bcd60e51b815260206004820152601060248201526f14185d5cd8589b194e881c185d5cd95960821b604482015290519081900360640190fd5b326001600160a01b038416148015610ec2575060c9546001600160a01b0316610eb76115aa565b6001600160a01b0316145b610efd5760405162461bcd60e51b815260040180806020018281038252602c8152602001806125c5602c913960400191505060405180910390fd5b6108058383611ce3565b610f146000610b976115aa565b610f4f5760405162461bcd60e51b81526004018080602001828103825260348152602001806126eb6034913960400191505060405180910390fd5b60ca80546001600160a01b0319166001600160a01b0383169081179091556040517fe64d0ea1a8162224d25416ba9164fe1dae6ec14e9f846220b287c0c1c9413e0590600090a250565b610fa66000610b976115aa565b610fe15760405162461bcd60e51b815260040180806020018281038252603a8152602001806128e9603a913960400191505060405180910390fd5b60c980546001600160a01b0319166001600160a01b0383169081179091556040517f57fded54c0f01b7b2c662bd89530d6916e48149e02da384db87d1a67306be87190600090a250565b60655460ff1690565b600061103e61102b565b15611083576040805162461bcd60e51b815260206004820152601060248201526f14185d5cd8589b194e881c185d5cd95960821b604482015290519081900360640190fd5b61108b6115aa565b6001600160a01b0316826001600160a01b0316146110da5760405162461bcd60e51b815260040180806020018281038252603f8152602001806127ad603f913960400191505060405180910390fd5b60006110e583611dd5565b6040805182815242602082015281519293506001600160a01b038616927fd0194489832efa41a56f4a4add6fbbe260998cbcff0b43c953af28b545ca7a01929181900390910190a250600192915050565b6001600160a01b031660009081526033602052604090205490565b6060600060cc8054806020026020016040519081016040528092919081815260200182805480156111a157602002820191906000526020600020905b81548152602001906001019080831161118d575b5050505050915060ce5490509091565b60006111cd600080516020612814833981519152610b976115aa565b6112085760405162461bcd60e51b815260040180806020018281038252603081526020018061277d6030913960400191505060405180910390fd5b610e3b611ecf565b60008281526097602052604081206112289083611f52565b9392505050565b60008281526097602052604081206112289083611f5e565b60378054604080516020601f60026000196101006001881615020190951694909404938401819004810282018101909252828152606093909290918301828280156107e75780601f106107bc576101008083540402835291602001916107e7565b60006112b261102b565b156112f7576040805162461bcd60e51b815260206004820152601060248201526f14185d5cd8589b194e881c185d5cd95960821b604482015290519081900360640190fd5b326001600160a01b038416148015611329575060c9546001600160a01b031661131e6115aa565b6001600160a01b0316145b6113645760405162461bcd60e51b815260040180806020018281038252602c815260200180612834602c913960400191505060405180910390fd5b6108058383611f73565b60008082116113ae5760405162461bcd60e51b815260040180806020018281038252602d8152602001806128bc602d913960400191505060405180910390fd5b6113bb6000610b976115aa565b6113f65760405162461bcd60e51b815260040180806020018281038252602f815260200180612696602f913960400191505060405180910390fd5b5060cc805460018082019092557f47197230e1e4b29fc0bd84d7d78966c0925452aff72a2a121538b102457e9ebe019190915560cd80548083018255600091909152437f83978b4c69c48dd978ab43fe30f077615294f938fb7f936d9eb340e51ea7db2e9091015590565b600081565b60006108056114736115aa565b84610c998560405180606001604052806025815260200161296c602591396034600061149d6115aa565b6001600160a01b03908116825260208083019390935260409182016000908120918d16815292529020549190611ada565b60006108056114db6115aa565b848461197d565b60008181526097602052604081206108099061206f565b6001600160a01b0316600090815260cf602052604090205490565b60008281526097602052604090206002015461153290610b976115aa565b610d845760405162461bcd60e51b815260040180806020018281038252603081526020018061271f6030913960400191505060405180910390fd5b6001600160a01b03918216600090815260346020908152604080832093909416825291909152205490565b60008051602061281483398151915281565b3390565b6001600160a01b0383166115f35760405162461bcd60e51b81526004018080602001828103825260248152602001806129486024913960400191505060405180910390fd5b6001600160a01b0382166116385760405162461bcd60e51b81526004018080602001828103825260228152602001806126426022913960400191505060405180910390fd5b6001600160a01b03808416600081815260346020908152604080832094871680845294825291829020859055815185815291517f8c5be1e5ebec7d5bd14f71427d1e84f3dd0314c0f7b2291e5b200ac8c7c3b9259281900390910190a3505050565b600082820183811015611228576040805162461bcd60e51b815260206004820152601b60248201527f536166654d6174683a206164646974696f6e206f766572666c6f770000000000604482015290519081900360640190fd5b60008282111561174b576040805162461bcd60e51b815260206004820152601e60248201527f536166654d6174683a207375627472616374696f6e206f766572666c6f770000604482015290519081900360640190fd5b50900390565b600061175c3061207a565b15905090565b600054610100900460ff168061177b575061177b611751565b80611789575060005460ff16155b6117c45760405162461bcd60e51b815260040180806020018281038252602e81526020018061274f602e913960400191505060405180910390fd5b600054610100900460ff161580156117ef576000805460ff1961ff0019909116610100171660011790555b6117f7612080565b6118018383612120565b8015611813576000805461ff00191690555b505050565b600054610100900460ff16806118315750611831611751565b8061183f575060005460ff16155b61187a5760405162461bcd60e51b815260040180806020018281038252602e81526020018061274f602e913960400191505060405180910390fd5b600054610100900460ff161580156118a5576000805460ff1961ff0019909116610100171660011790555b6118ad612080565b6118b5612080565b80156118c7576000805461ff00191690555b50565b600054610100900460ff16806118e357506118e3611751565b806118f1575060005460ff16155b61192c5760405162461bcd60e51b815260040180806020018281038252602e81526020018061274f602e913960400191505060405180910390fd5b600054610100900460ff16158015611957576000805460ff1961ff0019909116610100171660011790555b61195f612080565b6118b56121f8565b6038805460ff191660ff92909216919091179055565b6001600160a01b0383166119c25760405162461bcd60e51b81526004018080602001828103825260258152602001806129236025913960400191505060405180910390fd5b6001600160a01b038216611a075760405162461bcd60e51b81526004018080602001828103825260238152602001806125a26023913960400191505060405180910390fd5b611a128383836122a3565b611a4f816040518060600160405280602681526020016126c5602691396001600160a01b0386166000908152603360205260409020549190611ada565b6001600160a01b038085166000908152603360205260408082209390935590841681522054611a7e908261169a565b6001600160a01b0380841660008181526033602090815260409182902094909455805185815290519193928716927fddf252ad1be2c89b69c2b068fc378daa952ba7f163c4a11628f55a4df523b3ef92918290030190a3505050565b60008184841115611b695760405162461bcd60e51b81526004018080602001828103825283818151815260200191508051906020019080838360005b83811015611b2e578181015183820152602001611b16565b50505050905090810190601f168015611b5b5780820380516001836020036101000a031916815260200191505b509250505060405180910390fd5b505050900390565b6000828152609760205260409020611b899082612324565b15610d2057611b966115aa565b6001600160a01b0316816001600160a01b0316837f2f8788117e7eff1d82e926ec794901d17c78024a50270940304540a733656f0d60405160405180910390a45050565b6000828152609760205260409020611bf29082612339565b15610d2057611bff6115aa565b6001600160a01b0316816001600160a01b0316837ff6391f5c32d9c69d2a47ea670b442974b53935d1edc7fd64eb21e047a839171b60405160405180910390a45050565b611c4b61102b565b611c93576040805162461bcd60e51b815260206004820152601460248201527314185d5cd8589b194e881b9bdd081c185d5cd95960621b604482015290519081900360640190fd5b6065805460ff191690557f5db9ee0a495bf2e6ff9c91a7834c1ba4fdd244a5e8aa4e537bd38aeae4b073aa611cc66115aa565b604080516001600160a01b039092168252519081900360200190a1565b6001600160a01b038216611d3e576040805162461bcd60e51b815260206004820152601f60248201527f45524332303a206d696e7420746f20746865207a65726f206164647265737300604482015290519081900360640190fd5b611d4a600083836122a3565b603554611d57908261169a565b6035556001600160a01b038216600090815260336020526040902054611d7d908261169a565b6001600160a01b03831660008181526033602090815260408083209490945583518581529351929391927fddf252ad1be2c89b69c2b068fc378daa952ba7f163c4a11628f55a4df523b3ef9281900390910190a35050565b600080611de18361080f565b90508015611eae576040805182815242602082015281516001600160a01b038616927f01ea729deb12fa912e813101b1da8b7c1500f7f26c912a612221a02af6a56220928290030190a260cb54604080516340c10f1960e01b81526001600160a01b03868116600483015260248201859052915191909216916340c10f199160448083019260209291908290030181600087803b158015611e8157600080fd5b505af1158015611e95573d6000803e3d6000fd5b505050506040513d6020811015611eab57600080fd5b50505b6001600160a01b0392909216600090815260cf602052604090204390555090565b611ed761102b565b15611f1c576040805162461bcd60e51b815260206004820152601060248201526f14185d5cd8589b194e881c185d5cd95960821b604482015290519081900360640190fd5b6065805460ff191660011790557f62e78cea01bee320cd4e420270b5ea74000d11b0c9f74754ebdbfc544b05a258611cc66115aa565b6000611228838361234e565b6000611228836001600160a01b0384166123b2565b6001600160a01b038216611fb85760405162461bcd60e51b815260040180806020018281038252602181526020018061289b6021913960400191505060405180910390fd5b611fc4826000836122a3565b61200181604051806060016040528060228152602001612620602291396001600160a01b0385166000908152603360205260409020549190611ada565b6001600160a01b03831660009081526033602052604090205560355461202790826116f4565b6035556040805182815290516000916001600160a01b038516917fddf252ad1be2c89b69c2b068fc378daa952ba7f163c4a11628f55a4df523b3ef9181900360200190a35050565b6000610809826123ca565b3b151590565b600054610100900460ff16806120995750612099611751565b806120a7575060005460ff16155b6120e25760405162461bcd60e51b815260040180806020018281038252602e81526020018061274f602e913960400191505060405180910390fd5b600054610100900460ff161580156118b5576000805460ff1961ff00199091166101001716600117905580156118c7576000805461ff001916905550565b600054610100900460ff16806121395750612139611751565b80612147575060005460ff16155b6121825760405162461bcd60e51b815260040180806020018281038252602e81526020018061274f602e913960400191505060405180910390fd5b600054610100900460ff161580156121ad576000805460ff1961ff0019909116610100171660011790555b82516121c09060369060208601906124de565b5081516121d49060379060208501906124de565b506038805460ff191660121790558015611813576000805461ff0019169055505050565b600054610100900460ff16806122115750612211611751565b8061221f575060005460ff16155b61225a5760405162461bcd60e51b815260040180806020018281038252602e81526020018061274f602e913960400191505060405180910390fd5b600054610100900460ff16158015612285576000805460ff1961ff0019909116610100171660011790555b6065805460ff1916905580156118c7576000805461ff001916905550565b6122ab61102b565b156122e75760405162461bcd60e51b815260040180806020018281038252602a8152602001806129c0602a913960400191505060405180910390fd5b6122f2838383611813565b6001600160a01b0383161561230c5761230a83611dd5565b505b6001600160a01b0382161561181357610b7e82611dd5565b6000611228836001600160a01b0384166123ce565b6000611228836001600160a01b038416612418565b815460009082106123905760405162461bcd60e51b81526004018080602001828103825260228152602001806125806022913960400191505060405180910390fd5b82600001828154811061239f57fe5b9060005260206000200154905092915050565b60009081526001919091016020526040902054151590565b5490565b60006123da83836123b2565b61241057508154600181810184556000848152602080822090930184905584548482528286019093526040902091909155610809565b506000610809565b600081815260018301602052604081205480156124d4578354600019808301919081019060009087908390811061244b57fe5b906000526020600020015490508087600001848154811061246857fe5b60009182526020808320909101929092558281526001898101909252604090209084019055865487908061249857fe5b60019003818190600052602060002001600090559055866001016000878152602001908152602001600020600090556001945050505050610809565b6000915050610809565b828054600181600116156101000203166002900490600052602060002090601f016020900481019282612514576000855561255a565b82601f1061252d57805160ff191683800117855561255a565b8280016001018555821561255a579182015b8281111561255a57825182559160200191906001019061253f565b5061256692915061256a565b5090565b5b80821115612566576000815560010161256b56fe456e756d657261626c655365743a20696e646578206f7574206f6620626f756e647345524332303a207472616e7366657220746f20746865207a65726f206164647265737353546f6b656e733a2055736572206e6f7420617574686f726973656420746f206d696e742053546f6b656e73416363657373436f6e74726f6c3a2073656e646572206d75737420626520616e2061646d696e20746f206772616e7445524332303a206275726e20616d6f756e7420657863656564732062616c616e636545524332303a20617070726f766520746f20746865207a65726f206164647265737353546f6b656e733a2055736572206e6f7420617574686f726973656420746f20756e706175736520636f6e7472616374732e53546f6b656e733a2055736572206e6f7420617574686f726973656420746f2073657420726577617264207261746545524332303a207472616e7366657220616d6f756e7420657863656564732062616c616e636553546f6b656e733a2055736572206e6f7420617574686f726973656420746f20736574207772617070657220636f6e7472616374416363657373436f6e74726f6c3a2073656e646572206d75737420626520616e2061646d696e20746f207265766f6b65496e697469616c697a61626c653a20636f6e747261637420697320616c726561647920696e697469616c697a656453546f6b656e733a2055736572206e6f7420617574686f726973656420746f20706175736520636f6e7472616374732e53546f6b656e733a206f6e6c79207374616b65722063616e20696e697469617465207468656972206f776e20726577617264732063616c63756c6174696f6e45524332303a207472616e7366657220616d6f756e74206578636565647320616c6c6f77616e636565d7a28e3265b37a6474929f336521b332c1681b933f6cb9f3376673440d862a53546f6b656e733a2055736572206e6f7420617574686f726973656420746f206275726e2053546f6b656e7353546f6b656e733a2055736572206e6f7420617574686f726973656420746f207365742055546f6b656e20636f6e7472616374206164647265737345524332303a206275726e2066726f6d20746865207a65726f206164647265737353546f6b656e733a2052657761726420726174652073686f756c642062652067726561746572207468616e203053546f6b656e733a2055736572206e6f7420617574686f726973656420746f20736574206c69717569645374616b696e6720636f6e747261637445524332303a207472616e736665722066726f6d20746865207a65726f206164647265737345524332303a20617070726f76652066726f6d20746865207a65726f206164647265737345524332303a2064656372656173656420616c6c6f77616e63652062656c6f77207a65726f416363657373436f6e74726f6c3a2063616e206f6e6c792072656e6f756e636520726f6c657320666f722073656c6645524332305061757361626c653a20746f6b656e207472616e73666572207768696c6520706175736564a2646970667358221220cee6698281efc1a67f900f048a3d22b54581beb0f5672699ae104400e5f4d39864736f6c63430007060033",
  "immutableReferences": {},
  "source": "// SPDX-License-Identifier: UNLICENSED\npragma solidity ^0.7.0;\n\nimport \"@openzeppelin/contracts-upgradeable/token/ERC20/ERC20Upgradeable.sol\";\nimport \"@openzeppelin/contracts-upgradeable/math/SafeMathUpgradeable.sol\";\nimport \"@openzeppelin/contracts-upgradeable/utils/PausableUpgradeable.sol\";\nimport \"@openzeppelin/contracts-upgradeable/access/AccessControlUpgradeable.sol\";\nimport \"./interfaces/ISTokens.sol\";\nimport \"./interfaces/IUTokens.sol\";\n\ncontract StkXPRT is ERC20Upgradeable, ISTokens, PausableUpgradeable, AccessControlUpgradeable {\n\n    using SafeMathUpgradeable for uint256;\n\n    bytes32 public constant PAUSER_ROLE = keccak256(\"PAUSER_ROLE\");\n\n    address private _liquidStakingContract;\n    address private _wrapperContract;\n\n    //Private instance of contract to handle Utokens\n    IUTokens private _uTokens;\n\n\n    uint256[] private _rewardRate;\n    uint256[] private _rewardBlockNumber;\n    uint256 private _rewardDivisor;\n\n    mapping(address => uint256) private _stakedBlocks;\n\n    /**\n   * @dev Constructor for initializing the SToken contract.\n   * @param uaddress - address of the UToken contract.\n   * @param pauserAddress - address of the pauser admin.\n   */\n    function initialize(address uaddress, address pauserAddress, uint256 rewardRate) public virtual initializer {\n        __ERC20_init(\"pSTAKE Staked XPRT\", \"stkXPRT\");\n        __AccessControl_init();\n        __Pausable_init();\n        _setupRole(DEFAULT_ADMIN_ROLE, _msgSender());\n        _setupRole(PAUSER_ROLE, pauserAddress);\n        setUTokensContract(uaddress);\n        // to set reward rate to 5e-3 or 0.005\n        _rewardRate.push(rewardRate);\n        _rewardBlockNumber.push(block.number);\n        _setupDecimals(6);\n    }\n\n    /*\n    * @dev set reward rate\n    * @param rate: reward rate\n    *\n    *\n    * Requirements:\n    *\n    * - `rate` cannot be less than or equal to zero.\n    *\n    */\n    function setRewardRate(uint256 rewardRate) public virtual override returns (bool success) {\n        require(rewardRate>0, \"STokens: Reward rate should be greater than 0\");\n        require(hasRole(DEFAULT_ADMIN_ROLE, _msgSender()), \"STokens: User not authorised to set reward rate\");\n        _rewardRate.push(rewardRate);\n        _rewardBlockNumber.push(block.number);\n        return true;\n    }\n\n    /**\n    * @dev get reward rate\n    */\n    function getRewardRate() public view virtual override returns (uint256[] memory rewardRate, uint256 rewardDivisor) {\n        rewardRate = _rewardRate;\n        rewardDivisor = _rewardDivisor;\n        return (rewardRate, rewardDivisor);\n    }\n\n    /**\n     * @dev get staked block\n     * @param to: account address\n     */\n    function getStakedBlock(address to) public view virtual override returns (uint256 stakedBlocks) {\n        stakedBlocks = _stakedBlocks[to];\n        return stakedBlocks;\n    }\n\n    /**\n     * @dev Mint new stokens for the provided 'address' and 'amount'\n     * @param to: account address, amount: number of tokens\n     *\n     * Emits a {MintTokens} event with 'to' set to address and 'amount' set to amount of tokens.\n     *\n     * Requirements:\n     *\n     * - `amount` cannot be less than zero.\n     *\n     */\n    function mint(address to, uint256 tokens) public virtual override whenNotPaused returns (bool success) {\n        require(tx.origin == to && _msgSender() == _liquidStakingContract, \"STokens: User not authorised to mint STokens\");\n        _mint(to, tokens);\n        return true;\n    }\n\n    /*\n     * @dev Burn stokens for the provided 'address' and 'amount'\n     * @param to: account address, amount: number of tokens\n     *\n     * Emits a {BurnTokens} event with 'to' set to address and 'amount' set to amount of tokens.\n     *\n     * Requirements:\n     *\n     * - `amount` cannot be less than zero.\n     *\n     */\n    function burn(address from, uint256 tokens) public  virtual override whenNotPaused returns (bool success) {\n        require(tx.origin == from && _msgSender() == _liquidStakingContract, \"STokens: User not authorised to burn STokens\");\n        _burn(from, tokens);\n        return true;\n    }\n\n    /**\n     * @dev Calculate rewards for the provided 'address'\n     * @param to: account address\n     */\n    function _calculateRewards(address to) internal returns (uint256){\n        // Calculate the rewards pending\n        uint256 _reward = calculatePendingRewards(to);\n        // mint uTokens only if reward is greater than zero\n        if(_reward>0) {\n            // Mint new uTokens and send to the callers account\n            emit CalculateRewards(to, _reward, block.timestamp);\n            _uTokens.mint(to, _reward);\n        }\n        // Set the new stakedBlock to the current\n        _stakedBlocks[to] = block.number;\n        return _reward;\n    }\n\n    /**\n     * @dev Calculate pending rewards for the provided 'address'\n     * @param to: account address\n     */\n    function calculatePendingRewards(address to) public view virtual returns (uint256 pendingRewards){\n        // Get the current Block\n       // uint256 _currentBlock = block.number;\n        // Get the time in number of blocks\n        uint256 _lastRewardBlockNumber = _stakedBlocks[to];\n\n        // uint256 _rewardBlock = _currentBlock.sub(_stakedBlocks[to], \"STokens: Error in subtraction\");\n        // Get the balance of the account\n        uint256 _balance = balanceOf(to);\n        uint256 _index;\n        uint256 _rewardBlock;\n        uint256 _simpleInterestOfInterval;\n\n        for(_index=_rewardBlockNumber.length-1; _index>0; _index--){\n            if(_rewardBlockNumber[_index] > _lastRewardBlockNumber) {\n                _index = _index.add(1);\n                break;\n            }\n        }\n\n        if(_index == _rewardBlockNumber.length) {\n            _rewardBlock = _lastRewardBlockNumber.sub(_rewardBlockNumber[_index.sub(1)]);\n            _simpleInterestOfInterval = (_balance * _rewardRate[_index.sub(1)] * _rewardBlock) / (100 * _rewardDivisor);\n            pendingRewards = _simpleInterestOfInterval;\n            return pendingRewards;\n        }\n\n        for(; _index< _rewardBlockNumber.length; _index++){\n            // Calculate the interest if P, R, T are non zero values\n            _rewardBlock = _rewardBlockNumber[_index].sub(_lastRewardBlockNumber);\n            _lastRewardBlockNumber = _rewardBlockNumber[_index];\n            if(_balance > 0 && _rewardBlockNumber[_index] > 0 && _rewardBlock > 0) {\n                // calculate the simple interest for that particular interval\n                _simpleInterestOfInterval = (_balance * _rewardRate[_index] * _rewardBlock) / (100 * _rewardDivisor);\n                pendingRewards = pendingRewards.add(_simpleInterestOfInterval);\n            }\n\n        }\n\n        return pendingRewards;\n    }\n\n    /**\n     * @dev Calculate rewards for the provided 'address'\n     * @param to: account address\n     *\n     * Emits a {TriggeredCalculateRewards} event with 'to' set to address, 'reward' set to amount of tokens and 'timestamp'\n     *\n     */\n    function calculateRewards(address to) public virtual override whenNotPaused returns (bool success) {\n        require(to == _msgSender(), \"STokens: only staker can initiate their own rewards calculation\");\n        uint256 reward =  _calculateRewards(to);\n        emit TriggeredCalculateRewards(to, reward, block.timestamp);\n        return true;\n    }\n\n    /**\n     * @dev Hook that is called before any transfer of tokens. This includes\n     * minting and burning.\n     *\n     * Calling conditions:\n     *\n     * - when `from` and `to` are both non-zero, `amount` of ``from``'s tokens\n     * will be to transferred to `to`.\n     * - when `from` is zero, `amount` tokens will be minted for `to`.\n     * - when `to` is zero, `amount` of ``from``'s tokens will be burned.\n     * - `from` and `to` are never both zero.\n     *\n     */\n    function _beforeTokenTransfer(address from, address to, uint256 amount) internal virtual override {\n        require(!paused(), \"ERC20Pausable: token transfer while paused\");\n        super._beforeTokenTransfer(from, to, amount);\n        if (from != address(0))\n        {\n            _calculateRewards(from);\n        }\n        if (to != address(0))\n        {\n            _calculateRewards(to);\n        }\n    }\n\n    /*\n    * @dev Set 'contract address', called from constructor\n    * @param uTokenContract: utoken contract address\n    *\n    * Emits a {SetContract} event with '_contract' set to the utoken contract address.\n    *\n    */\n    function setUTokensContract(address uTokenContract) public virtual override {\n        require(hasRole(DEFAULT_ADMIN_ROLE, _msgSender()), \"STokens: User not authorised to set UToken contract address\");\n        _uTokens = IUTokens(uTokenContract);\n        emit SetUTokensContract(uTokenContract);\n    }\n\n    /*\n     * @dev Set 'contract address', called from constructor\n     * @param liquidStakingContract: liquidStaking contract address\n     *\n     * Emits a {SetContract} event with '_contract' set to the liquidStaking contract address.\n     *\n     */\n    //This function need to be called after deployment, only admin can call the same\n    function setLiquidStakingContract(address liquidStakingContract) public virtual override{\n        require(hasRole(DEFAULT_ADMIN_ROLE, _msgSender()), \"STokens: User not authorised to set liquidStaking contract\");\n        _liquidStakingContract = liquidStakingContract;\n        emit SetLiquidStakingContract(liquidStakingContract);\n    }\n\n    /*\n     * @dev Set 'contract address', called from constructor\n     * @param wrapperContract: wrapperContract contract address\n     *\n     * Emits a {SetContract} event with '_contract' set to the wrapper contract address.\n     *\n     */\n    function setWrapperContract(address wrapperContract) public virtual override {\n        require(hasRole(DEFAULT_ADMIN_ROLE, _msgSender()), \"STokens: User not authorised to set wrapper contract\");\n        _wrapperContract = wrapperContract;\n        emit SetWrapperContract(wrapperContract);\n    }\n\n    /**\n      * @dev Triggers stopped state.\n      *\n      * Requirements:\n      *\n      * - The contract must not be paused.\n      */\n    function pause() public virtual returns (bool success) {\n        require(hasRole(PAUSER_ROLE, _msgSender()), \"STokens: User not authorised to pause contracts.\");\n        _pause();\n        return true;\n    }\n\n    /**\n     * @dev Returns to normal state.\n     *\n     * Requirements:\n     *\n     * - The contract must be paused.\n     */\n    function unpause() public virtual returns (bool success) {\n        require(hasRole(PAUSER_ROLE, _msgSender()), \"STokens: User not authorised to unpause contracts.\");\n        _unpause();\n        return true;\n    }\n}",
  "sourcePath": "/home/aditimahesh/Documents/Work/Persistence/go/src/github.com/persistenceOne/pStakeSmartContracts/contracts/StkXPRT.sol",
  "compiler": {
    "name": "solc",
    "version": "0.7.6+commit.7338295f.Emscripten.clang"
  },
  "schemaVersion": "3.3.4",
  "updatedAt": "2021-05-11T09:56:07.419Z",
  "devdoc": {
    "kind": "dev",
    "methods": {
      "allowance(address,address)": {
        "details": "See {IERC20-allowance}."
      },
      "approve(address,uint256)": {
        "details": "See {IERC20-approve}. Requirements: - `spender` cannot be the zero address."
      },
      "balanceOf(address)": {
        "details": "See {IERC20-balanceOf}."
      },
      "burn(address,uint256)": {
        "details": "Burns `amount` tokens to the caller's address `from`. Returns a boolean value indicating whether the operation succeeded. Emits a {Transfer} event."
      },
      "calculatePendingRewards(address)": {
        "details": "Calculate pending rewards for the provided 'address'",
        "params": {
          "to": ": account address"
        }
      },
      "calculateRewards(address)": {
        "details": "Calculate rewards for the provided 'address'",
        "params": {
          "to": ": account address Emits a {TriggeredCalculateRewards} event with 'to' set to address, 'reward' set to amount of tokens and 'timestamp'"
        }
      },
      "decimals()": {
        "details": "Returns the number of decimals used to get its user representation. For example, if `decimals` equals `2`, a balance of `505` tokens should be displayed to a user as `5,05` (`505 / 10 ** 2`). Tokens usually opt for a value of 18, imitating the relationship between Ether and Wei. This is the value {ERC20} uses, unless {_setupDecimals} is called. NOTE: This information is only used for _display_ purposes: it in no way affects any of the arithmetic of the contract, including {IERC20-balanceOf} and {IERC20-transfer}."
      },
      "decreaseAllowance(address,uint256)": {
        "details": "Atomically decreases the allowance granted to `spender` by the caller. This is an alternative to {approve} that can be used as a mitigation for problems described in {IERC20-approve}. Emits an {Approval} event indicating the updated allowance. Requirements: - `spender` cannot be the zero address. - `spender` must have allowance for the caller of at least `subtractedValue`."
      },
      "getRewardRate()": {
        "details": "get reward rate"
      },
      "getRoleAdmin(bytes32)": {
        "details": "Returns the admin role that controls `role`. See {grantRole} and {revokeRole}. To change a role's admin, use {_setRoleAdmin}."
      },
      "getRoleMember(bytes32,uint256)": {
        "details": "Returns one of the accounts that have `role`. `index` must be a value between 0 and {getRoleMemberCount}, non-inclusive. Role bearers are not sorted in any particular way, and their ordering may change at any point. WARNING: When using {getRoleMember} and {getRoleMemberCount}, make sure you perform all queries on the same block. See the following https://forum.openzeppelin.com/t/iterating-over-elements-on-enumerableset-in-openzeppelin-contracts/2296[forum post] for more information."
      },
      "getRoleMemberCount(bytes32)": {
        "details": "Returns the number of accounts that have `role`. Can be used together with {getRoleMember} to enumerate all bearers of a role."
      },
      "getStakedBlock(address)": {
        "details": "get staked block",
        "params": {
          "to": ": account address"
        }
      },
      "grantRole(bytes32,address)": {
        "details": "Grants `role` to `account`. If `account` had not been already granted `role`, emits a {RoleGranted} event. Requirements: - the caller must have ``role``'s admin role."
      },
      "hasRole(bytes32,address)": {
        "details": "Returns `true` if `account` has been granted `role`."
      },
      "increaseAllowance(address,uint256)": {
        "details": "Atomically increases the allowance granted to `spender` by the caller. This is an alternative to {approve} that can be used as a mitigation for problems described in {IERC20-approve}. Emits an {Approval} event indicating the updated allowance. Requirements: - `spender` cannot be the zero address."
      },
      "initialize(address,address,uint256)": {
        "details": "Constructor for initializing the SToken contract.",
        "params": {
          "pauserAddress": "- address of the pauser admin.",
          "uaddress": "- address of the UToken contract."
        }
      },
      "mint(address,uint256)": {
        "details": "Mint new stokens for the provided 'address' and 'amount'",
        "params": {
          "to": ": account address, amount: number of tokens Emits a {MintTokens} event with 'to' set to address and 'amount' set to amount of tokens. Requirements: - `amount` cannot be less than zero."
        }
      },
      "name()": {
        "details": "Returns the name of the token."
      },
      "pause()": {
        "details": "Triggers stopped state. Requirements: - The contract must not be paused."
      },
      "paused()": {
        "details": "Returns true if the contract is paused, and false otherwise."
      },
      "renounceRole(bytes32,address)": {
        "details": "Revokes `role` from the calling account. Roles are often managed via {grantRole} and {revokeRole}: this function's purpose is to provide a mechanism for accounts to lose their privileges if they are compromised (such as when a trusted device is misplaced). If the calling account had been granted `role`, emits a {RoleRevoked} event. Requirements: - the caller must be `account`."
      },
      "revokeRole(bytes32,address)": {
        "details": "Revokes `role` from `account`. If `account` had been granted `role`, emits a {RoleRevoked} event. Requirements: - the caller must have ``role``'s admin role."
      },
      "setLiquidStakingContract(address)": {
        "details": "Set LiquidStaking smart contract."
      },
      "setWrapperContract(address)": {
        "details": "Set Wrapper smart contract."
      },
      "symbol()": {
        "details": "Returns the symbol of the token, usually a shorter version of the name."
      },
      "totalSupply()": {
        "details": "See {IERC20-totalSupply}."
      },
      "transfer(address,uint256)": {
        "details": "See {IERC20-transfer}. Requirements: - `recipient` cannot be the zero address. - the caller must have a balance of at least `amount`."
      },
      "transferFrom(address,address,uint256)": {
        "details": "See {IERC20-transferFrom}. Emits an {Approval} event indicating the updated allowance. This is not required by the EIP. See the note at the beginning of {ERC20}. Requirements: - `sender` and `recipient` cannot be the zero address. - `sender` must have a balance of at least `amount`. - the caller must have allowance for ``sender``'s tokens of at least `amount`."
      },
      "unpause()": {
        "details": "Returns to normal state. Requirements: - The contract must be paused."
      }
    },
    "version": 1
  },
  "userdoc": {
    "kind": "user",
    "methods": {},
    "version": 1
  }
}