{
  "contractName": "STokensV4",
  "abi": [
    {
      "anonymous": false,
      "inputs": [
        {
          "indexed": true,
          "internalType": "address",
          "name": "owner",
          "type": "address"
        },
        {
          "indexed": true,
          "internalType": "address",
          "name": "spender",
          "type": "address"
        },
        {
          "indexed": false,
          "internalType": "uint256",
          "name": "value",
          "type": "uint256"
        }
      ],
      "name": "Approval",
      "type": "event"
    },
    {
      "anonymous": false,
      "inputs": [
        {
          "indexed": true,
          "internalType": "address",
          "name": "accountAddress",
          "type": "address"
        },
        {
          "indexed": true,
          "internalType": "address",
          "name": "sTokenAddress",
          "type": "address"
        },
        {
          "indexed": false,
          "internalType": "uint256",
          "name": "tokens",
          "type": "uint256"
        },
        {
          "indexed": false,
          "internalType": "uint256",
          "name": "timestamp",
          "type": "uint256"
        }
      ],
      "name": "CalculateHolderRewards",
      "type": "event"
    },
    {
      "anonymous": false,
      "inputs": [
        {
          "indexed": true,
          "internalType": "address",
          "name": "accountAddress",
          "type": "address"
        },
        {
          "indexed": false,
          "internalType": "uint256",
          "name": "tokens",
          "type": "uint256"
        },
        {
          "indexed": false,
          "internalType": "uint256",
          "name": "timestamp",
          "type": "uint256"
        }
      ],
      "name": "CalculateRewards",
      "type": "event"
    },
    {
      "anonymous": false,
      "inputs": [
        {
          "indexed": false,
          "internalType": "address",
          "name": "account",
          "type": "address"
        }
      ],
      "name": "Paused",
      "type": "event"
    },
    {
      "anonymous": false,
      "inputs": [
        {
          "indexed": true,
          "internalType": "address",
          "name": "whitelistedAddress",
          "type": "address"
        },
        {
          "indexed": false,
          "internalType": "address",
          "name": "holderContractAddress",
          "type": "address"
        },
        {
          "indexed": false,
          "internalType": "address",
          "name": "lpContractAddress",
          "type": "address"
        },
        {
          "indexed": false,
          "internalType": "uint256",
          "name": "timestamp",
          "type": "uint256"
        }
      ],
      "name": "RemoveWhitelistedAddress",
      "type": "event"
    },
    {
      "anonymous": false,
      "inputs": [
        {
          "indexed": true,
          "internalType": "bytes32",
          "name": "role",
          "type": "bytes32"
        },
        {
          "indexed": true,
          "internalType": "bytes32",
          "name": "previousAdminRole",
          "type": "bytes32"
        },
        {
          "indexed": true,
          "internalType": "bytes32",
          "name": "newAdminRole",
          "type": "bytes32"
        }
      ],
      "name": "RoleAdminChanged",
      "type": "event"
    },
    {
      "anonymous": false,
      "inputs": [
        {
          "indexed": true,
          "internalType": "bytes32",
          "name": "role",
          "type": "bytes32"
        },
        {
          "indexed": true,
          "internalType": "address",
          "name": "account",
          "type": "address"
        },
        {
          "indexed": true,
          "internalType": "address",
          "name": "sender",
          "type": "address"
        }
      ],
      "name": "RoleGranted",
      "type": "event"
    },
    {
      "anonymous": false,
      "inputs": [
        {
          "indexed": true,
          "internalType": "bytes32",
          "name": "role",
          "type": "bytes32"
        },
        {
          "indexed": true,
          "internalType": "address",
          "name": "account",
          "type": "address"
        },
        {
          "indexed": true,
          "internalType": "address",
          "name": "sender",
          "type": "address"
        }
      ],
      "name": "RoleRevoked",
      "type": "event"
    },
    {
      "anonymous": false,
      "inputs": [
        {
          "indexed": true,
          "internalType": "address",
          "name": "_contract",
          "type": "address"
        }
      ],
      "name": "SetLiquidStakingContract",
      "type": "event"
    },
    {
      "anonymous": false,
      "inputs": [
        {
          "indexed": true,
          "internalType": "uint256",
          "name": "rewardRate",
          "type": "uint256"
        }
      ],
      "name": "SetRewardRate",
      "type": "event"
    },
    {
      "anonymous": false,
      "inputs": [
        {
          "indexed": true,
          "internalType": "address",
          "name": "_contract",
          "type": "address"
        }
      ],
      "name": "SetStakeLPCoreContract",
      "type": "event"
    },
    {
      "anonymous": false,
      "inputs": [
        {
          "indexed": true,
          "internalType": "address",
          "name": "_contract",
          "type": "address"
        }
      ],
      "name": "SetUTokensContract",
      "type": "event"
    },
    {
      "anonymous": false,
      "inputs": [
        {
          "indexed": true,
          "internalType": "address",
          "name": "whitelistedAddress",
          "type": "address"
        },
        {
          "indexed": false,
          "internalType": "address",
          "name": "holderContractAddress",
          "type": "address"
        },
        {
          "indexed": false,
          "internalType": "address",
          "name": "lpContractAddress",
          "type": "address"
        },
        {
          "indexed": false,
          "internalType": "uint256",
          "name": "timestamp",
          "type": "uint256"
        }
      ],
      "name": "SetWhitelistedAddress",
      "type": "event"
    },
    {
      "anonymous": false,
      "inputs": [
        {
          "indexed": true,
          "internalType": "address",
          "name": "from",
          "type": "address"
        },
        {
          "indexed": true,
          "internalType": "address",
          "name": "to",
          "type": "address"
        },
        {
          "indexed": false,
          "internalType": "uint256",
          "name": "value",
          "type": "uint256"
        }
      ],
      "name": "Transfer",
      "type": "event"
    },
    {
      "anonymous": false,
      "inputs": [
        {
          "indexed": true,
          "internalType": "address",
          "name": "accountAddress",
          "type": "address"
        },
        {
          "indexed": true,
          "internalType": "address",
          "name": "sTokenAddress",
          "type": "address"
        },
        {
          "indexed": false,
          "internalType": "uint256",
          "name": "tokens",
          "type": "uint256"
        },
        {
          "indexed": false,
          "internalType": "uint256",
          "name": "timestamp",
          "type": "uint256"
        }
      ],
      "name": "TriggeredCalculateHolderRewards",
      "type": "event"
    },
    {
      "anonymous": false,
      "inputs": [
        {
          "indexed": true,
          "internalType": "address",
          "name": "accountAddress",
          "type": "address"
        },
        {
          "indexed": false,
          "internalType": "uint256",
          "name": "tokens",
          "type": "uint256"
        },
        {
          "indexed": false,
          "internalType": "uint256",
          "name": "timestamp",
          "type": "uint256"
        }
      ],
      "name": "TriggeredCalculateRewards",
      "type": "event"
    },
    {
      "anonymous": false,
      "inputs": [
        {
          "indexed": false,
          "internalType": "address",
          "name": "account",
          "type": "address"
        }
      ],
      "name": "Unpaused",
      "type": "event"
    },
    {
      "inputs": [],
      "name": "DEFAULT_ADMIN_ROLE",
      "outputs": [
        {
          "internalType": "bytes32",
          "name": "",
          "type": "bytes32"
        }
      ],
      "stateMutability": "view",
      "type": "function"
    },
    {
      "inputs": [],
      "name": "PAUSER_ROLE",
      "outputs": [
        {
          "internalType": "bytes32",
          "name": "",
          "type": "bytes32"
        }
      ],
      "stateMutability": "view",
      "type": "function"
    },
    {
      "inputs": [
        {
          "internalType": "address",
          "name": "",
          "type": "address"
        }
      ],
      "name": "_holderContractAddress",
      "outputs": [
        {
          "internalType": "address",
          "name": "",
          "type": "address"
        }
      ],
      "stateMutability": "view",
      "type": "function"
    },
    {
      "inputs": [],
      "name": "_iRewardEmission",
      "outputs": [
        {
          "internalType": "contract IRewardEmission",
          "name": "",
          "type": "address"
        }
      ],
      "stateMutability": "view",
      "type": "function"
    },
    {
      "inputs": [
        {
          "internalType": "address",
          "name": "",
          "type": "address"
        }
      ],
      "name": "_lastHolderRewardTimestamp",
      "outputs": [
        {
          "internalType": "uint256",
          "name": "",
          "type": "uint256"
        }
      ],
      "stateMutability": "view",
      "type": "function"
    },
    {
      "inputs": [
        {
          "internalType": "address",
          "name": "",
          "type": "address"
        }
      ],
      "name": "_lastUserRewardTimestamp",
      "outputs": [
        {
          "internalType": "uint256",
          "name": "",
          "type": "uint256"
        }
      ],
      "stateMutability": "view",
      "type": "function"
    },
    {
      "inputs": [],
      "name": "_liquidStakingContract",
      "outputs": [
        {
          "internalType": "address",
          "name": "",
          "type": "address"
        }
      ],
      "stateMutability": "view",
      "type": "function"
    },
    {
      "inputs": [
        {
          "internalType": "address",
          "name": "",
          "type": "address"
        }
      ],
      "name": "_lpContractAddress",
      "outputs": [
        {
          "internalType": "address",
          "name": "",
          "type": "address"
        }
      ],
      "stateMutability": "view",
      "type": "function"
    },
    {
      "inputs": [],
      "name": "_uTokens",
      "outputs": [
        {
          "internalType": "contract IUTokensV2",
          "name": "",
          "type": "address"
        }
      ],
      "stateMutability": "view",
      "type": "function"
    },
    {
      "inputs": [],
      "name": "_valueDivisor",
      "outputs": [
        {
          "internalType": "uint256",
          "name": "",
          "type": "uint256"
        }
      ],
      "stateMutability": "view",
      "type": "function"
    },
    {
      "inputs": [],
      "name": "_version",
      "outputs": [
        {
          "internalType": "uint256",
          "name": "",
          "type": "uint256"
        }
      ],
      "stateMutability": "view",
      "type": "function"
    },
    {
      "inputs": [
        {
          "internalType": "address",
          "name": "owner",
          "type": "address"
        },
        {
          "internalType": "address",
          "name": "spender",
          "type": "address"
        }
      ],
      "name": "allowance",
      "outputs": [
        {
          "internalType": "uint256",
          "name": "",
          "type": "uint256"
        }
      ],
      "stateMutability": "view",
      "type": "function"
    },
    {
      "inputs": [
        {
          "internalType": "address",
          "name": "spender",
          "type": "address"
        },
        {
          "internalType": "uint256",
          "name": "amount",
          "type": "uint256"
        }
      ],
      "name": "approve",
      "outputs": [
        {
          "internalType": "bool",
          "name": "",
          "type": "bool"
        }
      ],
      "stateMutability": "nonpayable",
      "type": "function"
    },
    {
      "inputs": [
        {
          "internalType": "address",
          "name": "account",
          "type": "address"
        }
      ],
      "name": "balanceOf",
      "outputs": [
        {
          "internalType": "uint256",
          "name": "",
          "type": "uint256"
        }
      ],
      "stateMutability": "view",
      "type": "function"
    },
    {
      "inputs": [],
      "name": "decimals",
      "outputs": [
        {
          "internalType": "uint8",
          "name": "",
          "type": "uint8"
        }
      ],
      "stateMutability": "view",
      "type": "function"
    },
    {
      "inputs": [
        {
          "internalType": "address",
          "name": "spender",
          "type": "address"
        },
        {
          "internalType": "uint256",
          "name": "subtractedValue",
          "type": "uint256"
        }
      ],
      "name": "decreaseAllowance",
      "outputs": [
        {
          "internalType": "bool",
          "name": "",
          "type": "bool"
        }
      ],
      "stateMutability": "nonpayable",
      "type": "function"
    },
    {
      "inputs": [
        {
          "internalType": "bytes32",
          "name": "role",
          "type": "bytes32"
        }
      ],
      "name": "getRoleAdmin",
      "outputs": [
        {
          "internalType": "bytes32",
          "name": "",
          "type": "bytes32"
        }
      ],
      "stateMutability": "view",
      "type": "function"
    },
    {
      "inputs": [
        {
          "internalType": "bytes32",
          "name": "role",
          "type": "bytes32"
        },
        {
          "internalType": "uint256",
          "name": "index",
          "type": "uint256"
        }
      ],
      "name": "getRoleMember",
      "outputs": [
        {
          "internalType": "address",
          "name": "",
          "type": "address"
        }
      ],
      "stateMutability": "view",
      "type": "function"
    },
    {
      "inputs": [
        {
          "internalType": "bytes32",
          "name": "role",
          "type": "bytes32"
        }
      ],
      "name": "getRoleMemberCount",
      "outputs": [
        {
          "internalType": "uint256",
          "name": "",
          "type": "uint256"
        }
      ],
      "stateMutability": "view",
      "type": "function"
    },
    {
      "inputs": [
        {
          "internalType": "bytes32",
          "name": "role",
          "type": "bytes32"
        },
        {
          "internalType": "address",
          "name": "account",
          "type": "address"
        }
      ],
      "name": "grantRole",
      "outputs": [],
      "stateMutability": "nonpayable",
      "type": "function"
    },
    {
      "inputs": [
        {
          "internalType": "bytes32",
          "name": "role",
          "type": "bytes32"
        },
        {
          "internalType": "address",
          "name": "account",
          "type": "address"
        }
      ],
      "name": "hasRole",
      "outputs": [
        {
          "internalType": "bool",
          "name": "",
          "type": "bool"
        }
      ],
      "stateMutability": "view",
      "type": "function"
    },
    {
      "inputs": [
        {
          "internalType": "address",
          "name": "spender",
          "type": "address"
        },
        {
          "internalType": "uint256",
          "name": "addedValue",
          "type": "uint256"
        }
      ],
      "name": "increaseAllowance",
      "outputs": [
        {
          "internalType": "bool",
          "name": "",
          "type": "bool"
        }
      ],
      "stateMutability": "nonpayable",
      "type": "function"
    },
    {
      "inputs": [],
      "name": "name",
      "outputs": [
        {
          "internalType": "string",
          "name": "",
          "type": "string"
        }
      ],
      "stateMutability": "view",
      "type": "function"
    },
    {
      "inputs": [],
      "name": "paused",
      "outputs": [
        {
          "internalType": "bool",
          "name": "",
          "type": "bool"
        }
      ],
      "stateMutability": "view",
      "type": "function"
    },
    {
      "inputs": [
        {
          "internalType": "bytes32",
          "name": "role",
          "type": "bytes32"
        },
        {
          "internalType": "address",
          "name": "account",
          "type": "address"
        }
      ],
      "name": "renounceRole",
      "outputs": [],
      "stateMutability": "nonpayable",
      "type": "function"
    },
    {
      "inputs": [
        {
          "internalType": "bytes32",
          "name": "role",
          "type": "bytes32"
        },
        {
          "internalType": "address",
          "name": "account",
          "type": "address"
        }
      ],
      "name": "revokeRole",
      "outputs": [],
      "stateMutability": "nonpayable",
      "type": "function"
    },
    {
      "inputs": [],
      "name": "symbol",
      "outputs": [
        {
          "internalType": "string",
          "name": "",
          "type": "string"
        }
      ],
      "stateMutability": "view",
      "type": "function"
    },
    {
      "inputs": [],
      "name": "totalSupply",
      "outputs": [
        {
          "internalType": "uint256",
          "name": "",
          "type": "uint256"
        }
      ],
      "stateMutability": "view",
      "type": "function"
    },
    {
      "inputs": [
        {
          "internalType": "address",
          "name": "recipient",
          "type": "address"
        },
        {
          "internalType": "uint256",
          "name": "amount",
          "type": "uint256"
        }
      ],
      "name": "transfer",
      "outputs": [
        {
          "internalType": "bool",
          "name": "",
          "type": "bool"
        }
      ],
      "stateMutability": "nonpayable",
      "type": "function"
    },
    {
      "inputs": [
        {
          "internalType": "address",
          "name": "sender",
          "type": "address"
        },
        {
          "internalType": "address",
          "name": "recipient",
          "type": "address"
        },
        {
          "internalType": "uint256",
          "name": "amount",
          "type": "uint256"
        }
      ],
      "name": "transferFrom",
      "outputs": [
        {
          "internalType": "bool",
          "name": "",
          "type": "bool"
        }
      ],
      "stateMutability": "nonpayable",
      "type": "function"
    },
    {
      "inputs": [
        {
          "internalType": "address",
          "name": "uaddress",
          "type": "address"
        },
        {
          "internalType": "address",
          "name": "pauserAddress",
          "type": "address"
        },
        {
          "internalType": "uint256",
          "name": "rewardRate",
          "type": "uint256"
        },
        {
          "internalType": "uint256",
          "name": "valueDivisor",
          "type": "uint256"
        }
      ],
      "name": "initialize",
      "outputs": [],
      "stateMutability": "nonpayable",
      "type": "function"
    },
    {
      "inputs": [],
      "name": "getUTokenAddress",
      "outputs": [
        {
          "internalType": "address",
          "name": "uTokenAddress",
          "type": "address"
        }
      ],
      "stateMutability": "view",
      "type": "function"
    },
    {
      "inputs": [
        {
          "internalType": "uint256",
          "name": "rewardRate",
          "type": "uint256"
        }
      ],
      "name": "setRewardRate",
      "outputs": [
        {
          "internalType": "bool",
          "name": "success",
          "type": "bool"
        }
      ],
      "stateMutability": "nonpayable",
      "type": "function"
    },
    {
      "inputs": [],
      "name": "getRewardRate",
      "outputs": [
        {
          "internalType": "uint256[]",
          "name": "rewardRate",
          "type": "uint256[]"
        },
        {
          "internalType": "uint256[]",
          "name": "lastMovingRewardTimestamp",
          "type": "uint256[]"
        },
        {
          "internalType": "uint256",
          "name": "valueDivisor",
          "type": "uint256"
        }
      ],
      "stateMutability": "view",
      "type": "function"
    },
    {
      "inputs": [
        {
          "internalType": "address",
          "name": "to",
          "type": "address"
        },
        {
          "internalType": "uint256",
          "name": "tokens",
          "type": "uint256"
        }
      ],
      "name": "mint",
      "outputs": [
        {
          "internalType": "bool",
          "name": "",
          "type": "bool"
        }
      ],
      "stateMutability": "nonpayable",
      "type": "function"
    },
    {
      "inputs": [
        {
          "internalType": "address",
          "name": "from",
          "type": "address"
        },
        {
          "internalType": "uint256",
          "name": "tokens",
          "type": "uint256"
        }
      ],
      "name": "burn",
      "outputs": [
        {
          "internalType": "bool",
          "name": "",
          "type": "bool"
        }
      ],
      "stateMutability": "nonpayable",
      "type": "function"
    },
    {
      "inputs": [
        {
          "internalType": "address",
          "name": "to",
          "type": "address"
        }
      ],
      "name": "calculatePendingRewards",
      "outputs": [
        {
          "internalType": "uint256",
          "name": "pendingRewards",
          "type": "uint256"
        }
      ],
      "stateMutability": "view",
      "type": "function"
    },
    {
      "inputs": [
        {
          "internalType": "address",
          "name": "to",
          "type": "address"
        }
      ],
      "name": "calculateRewards",
      "outputs": [
        {
          "internalType": "uint256",
          "name": "reward",
          "type": "uint256"
        }
      ],
      "stateMutability": "nonpayable",
      "type": "function"
    },
    {
      "inputs": [
        {
          "internalType": "address",
          "name": "whitelistedAddress",
          "type": "address"
        }
      ],
      "name": "isContractWhitelisted",
      "outputs": [
        {
          "internalType": "bool",
          "name": "result",
          "type": "bool"
        }
      ],
      "stateMutability": "view",
      "type": "function"
    },
    {
      "inputs": [
        {
          "internalType": "address",
          "name": "to",
          "type": "address"
        }
      ],
      "name": "calculatePendingHolderRewards",
      "outputs": [
        {
          "internalType": "uint256",
          "name": "pendingRewards",
          "type": "uint256"
        },
        {
          "internalType": "address",
          "name": "holderAddress",
          "type": "address"
        },
        {
          "internalType": "address",
          "name": "lpAddress",
          "type": "address"
        }
      ],
      "stateMutability": "view",
      "type": "function"
    },
    {
      "inputs": [
        {
          "internalType": "address",
          "name": "to",
          "type": "address"
        }
      ],
      "name": "calculateHolderRewards",
      "outputs": [
        {
          "internalType": "uint256",
          "name": "rewards",
          "type": "uint256"
        }
      ],
      "stateMutability": "nonpayable",
      "type": "function"
    },
    {
      "inputs": [
        {
          "internalType": "address",
          "name": "uTokenContract",
          "type": "address"
        }
      ],
      "name": "setUTokensContract",
      "outputs": [],
      "stateMutability": "nonpayable",
      "type": "function"
    },
    {
      "inputs": [
        {
          "internalType": "address",
          "name": "liquidStakingContract",
          "type": "address"
        }
      ],
      "name": "setLiquidStakingContract",
      "outputs": [],
      "stateMutability": "nonpayable",
      "type": "function"
    },
    {
      "inputs": [
        {
          "internalType": "address",
          "name": "stakeLPCoreContract",
          "type": "address"
        }
      ],
      "name": "setStakeLPCoreContract",
      "outputs": [],
      "stateMutability": "nonpayable",
      "type": "function"
    },
    {
      "inputs": [
        {
          "internalType": "address",
          "name": "whitelistedAddress",
          "type": "address"
        }
      ],
      "name": "getWhitelistData",
      "outputs": [
        {
          "internalType": "address",
          "name": "holderAddress",
          "type": "address"
        },
        {
          "internalType": "address",
          "name": "lpAddress",
          "type": "address"
        },
        {
          "internalType": "address",
          "name": "uTokenAddress",
          "type": "address"
        },
        {
          "internalType": "uint256",
          "name": "lastHolderRewardTimestamp",
          "type": "uint256"
        }
      ],
      "stateMutability": "view",
      "type": "function"
    },
    {
      "inputs": [
        {
          "internalType": "address",
          "name": "whitelistedAddress",
          "type": "address"
        },
        {
          "internalType": "address",
          "name": "holderContractAddress",
          "type": "address"
        },
        {
          "internalType": "address",
          "name": "lpContractAddress",
          "type": "address"
        }
      ],
      "name": "setWhitelistedAddress",
      "outputs": [
        {
          "internalType": "bool",
          "name": "success",
          "type": "bool"
        }
      ],
      "stateMutability": "nonpayable",
      "type": "function"
    },
    {
      "inputs": [
        {
          "internalType": "address",
          "name": "whitelistedAddress",
          "type": "address"
        }
      ],
      "name": "removeWhitelistedAddress",
      "outputs": [
        {
          "internalType": "bool",
          "name": "success",
          "type": "bool"
        }
      ],
      "stateMutability": "nonpayable",
      "type": "function"
    },
    {
      "inputs": [],
      "name": "pause",
      "outputs": [
        {
          "internalType": "bool",
          "name": "success",
          "type": "bool"
        }
      ],
      "stateMutability": "nonpayable",
      "type": "function"
    },
    {
      "inputs": [],
      "name": "unpause",
      "outputs": [
        {
          "internalType": "bool",
          "name": "success",
          "type": "bool"
        }
      ],
      "stateMutability": "nonpayable",
      "type": "function"
    }
  ],
  "bytecode": "0x608060405234801561001057600080fd5b5061345b806100206000396000f3fe608060405234801561001057600080fd5b50600436106102bb5760003560e01c80636b0a935611610182578063a203ccf8116100e9578063c057058a116100a2578063da6b7ec71161007c578063da6b7ec7146109b8578063dd62ed3e146109de578063e63ab1e914610a0c578063eb990c5914610a14576102bb565b8063c057058a14610949578063ca15c8731461096f578063d547741f1461098c576102bb565b8063a203ccf81461084f578063a217fddf1461089d578063a457c2d7146108a5578063a9059cbb146108d1578063b3e597b0146108fd578063b8ecc2a914610923576102bb565b80638456cb591161013b5780638456cb59146107a75780639010d07c146107af57806391d14854146107d257806395d89b41146107fe5780639dc29fac146108065780639e447fc614610832576102bb565b80636b0a93561461069b57806370a08231146106c1578063728a99ee146106e757806378a2f074146106ef578063793105d8146106f75780637e1a3786146106ff576102bb565b80633d9e0c05116102265780634bcb30f8116101df5780634bcb30f81461058e578063530cd5ab146105c657806358f8943e146105ec5780635c975abb1461061257806364ab86751461061a57806368aa981314610640576102bb565b80633d9e0c05146105005780633e118dbe146105245780633f4ba83a1461052c5780633f7398a81461053457806340c10f191461055a578063452f121614610586576102bb565b8063248a9ca311610278578063248a9ca31461041b57806326d6772e146104385780632f2ff15d1461045e578063313ce5671461048a57806336568abe146104a857806339509351146104d4576102bb565b806306fdde03146102c0578063095ea7b31461033d578063097aad101461037d57806318160ddd146103b557806321bdf9e5146103bd57806323b872dd146103e5575b600080fd5b6102c8610a50565b6040805160208082528351818301528351919283929083019185019080838360005b838110156103025781810151838201526020016102ea565b50505050905090810190601f16801561032f5780820380516001836020036101000a031916815260200191505b509250505060405180910390f35b6103696004803603604081101561035357600080fd5b506001600160a01b038135169060200135610ae6565b604080519115158252519081900360200190f35b6103a36004803603602081101561039357600080fd5b50356001600160a01b0316610b04565b60408051918252519081900360200190f35b6103a3610b3d565b6103e3600480360360208110156103d357600080fd5b50356001600160a01b0316610b43565b005b610369600480360360608110156103fb57600080fd5b506001600160a01b03813581169160208101359091169060400135610bd9565b6103a36004803603602081101561043157600080fd5b5035610c61565b6103a36004803603602081101561044e57600080fd5b50356001600160a01b0316610c76565b6103e36004803603604081101561047457600080fd5b50803590602001356001600160a01b0316610d1a565b610492610d81565b6040805160ff9092168252519081900360200190f35b6103e3600480360360408110156104be57600080fd5b50803590602001356001600160a01b0316610d8a565b610369600480360360408110156104ea57600080fd5b506001600160a01b038135169060200135610deb565b610508610e39565b604080516001600160a01b039092168252519081900360200190f35b6103a3610e48565b610369610e4e565b6105086004803603602081101561054a57600080fd5b50356001600160a01b0316610eb2565b6103696004803603604081101561057057600080fd5b506001600160a01b038135169060200135610ecd565b610508610f2f565b610369600480360360608110156105a457600080fd5b506001600160a01b038135811691602081013582169160409091013516610f3e565b610369600480360360208110156105dc57600080fd5b50356001600160a01b0316611085565b6103e36004803603602081101561060257600080fd5b50356001600160a01b03166111bc565b61036961124d565b6103a36004803603602081101561063057600080fd5b50356001600160a01b0316611256565b6106666004803603602081101561065657600080fd5b50356001600160a01b031661134e565b604080516001600160a01b03958616815293851660208501529190931682820152606082019290925290519081900360800190f35b6103e3600480360360208110156106b157600080fd5b50356001600160a01b031661138e565b6103a3600480360360208110156106d757600080fd5b50356001600160a01b031661141f565b6103a361143a565b610508611440565b61050861144f565b61070761145e565b604051808060200180602001848152602001838103835286818151815260200191508051906020019060200280838360005b83811015610751578181015183820152602001610739565b50505050905001838103825285818151815260200191508051906020019060200280838360005b83811015610790578181015183820152602001610778565b505050509050019550505050505060405180910390f35b610369611513565b610508600480360360408110156107c557600080fd5b5080359060200135611571565b610369600480360360408110156107e857600080fd5b50803590602001356001600160a01b0316611589565b6102c86115a1565b6103696004803603604081101561081c57600080fd5b506001600160a01b038135169060200135611602565b6103696004803603602081101561084857600080fd5b5035611664565b6108756004803603602081101561086557600080fd5b50356001600160a01b031661178e565b604080519384526001600160a01b039283166020850152911682820152519081900360600190f35b6103a36118d6565b610369600480360360408110156108bb57600080fd5b506001600160a01b0381351690602001356118db565b610369600480360360408110156108e757600080fd5b506001600160a01b038135169060200135611943565b6103a36004803603602081101561091357600080fd5b50356001600160a01b0316611957565b6103a36004803603602081101561093957600080fd5b50356001600160a01b0316611969565b6103696004803603602081101561095f57600080fd5b50356001600160a01b031661197b565b6103a36004803603602081101561098557600080fd5b5035611988565b6103e3600480360360408110156109a257600080fd5b50803590602001356001600160a01b031661199f565b610508600480360360208110156109ce57600080fd5b50356001600160a01b03166119f8565b6103a3600480360360408110156109f457600080fd5b506001600160a01b0381358116916020013516611a13565b6103a3611a3e565b6103e360048036036080811015610a2a57600080fd5b506001600160a01b03813581169160208101359091169060408101359060600135611a50565b60368054604080516020601f6002600019610100600188161502019095169490940493840181900481028201810190925282815260609390929091830182828015610adc5780601f10610ab157610100808354040283529160200191610adc565b820191906000526020600020905b815481529060010190602001808311610abf57829003601f168201915b5050505050905090565b6000610afa610af3611c43565b8484611c47565b5060015b92915050565b6001600160a01b038116600090815260d3602052604081205481610b278461141f565b9050610b338183611d33565b925050505b919050565b60355490565b610b556000610b50611c43565b611589565b610b8f576040805162461bcd60e51b8152602060048083019190915260248201526329aa189960e11b604482015290519081900360640190fd5b60cf80546001600160a01b0319166001600160a01b0383169081179091556040517ff745c285f36f88bea6af14d4d0f33dd9350cef7895216c1615b1caaee7857e0c90600090a250565b6000610be6848484611f4b565b610c5684610bf2611c43565b610c5185604051806060016040528060288152602001613320602891396001600160a01b038a16600090815260346020526040812090610c30611c43565b6001600160a01b0316815260208101919091526040016000205491906120a8565b611c47565b5060015b9392505050565b60009081526097602052604090206002015490565b6000610c8061124d565b15610cc5576040805162461bcd60e51b815260206004820152601060248201526f14185d5cd8589b194e881c185d5cd95960821b604482015290519081900360640190fd5b610cce8261213f565b60408051828152426020820152815192935030926001600160a01b038616927f59171ee3218236d503002f8e5832f4d7403458f65211bc049ae68a480980fcec928290030190a3919050565b600082815260976020526040902060020154610d3890610b50611c43565b610d735760405162461bcd60e51b815260040180806020018281038252602f815260200180613208602f913960400191505060405180910390fd5b610d7d82826122d6565b5050565b60385460ff1690565b610d92611c43565b6001600160a01b0316816001600160a01b031614610de15760405162461bcd60e51b815260040180806020018281038252602f8152602001806133f7602f913960400191505060405180910390fd5b610d7d828261233f565b6000610afa610df8611c43565b84610c518560346000610e09611c43565b6001600160a01b03908116825260208083019390935260409182016000908120918c1681529252902054906123a8565b60cf546001600160a01b031690565b60d45481565b6000610e6a600080516020613348833981519152610b50611c43565b610ea4576040805162461bcd60e51b815260206004808301919091526024820152635354313560e01b604482015290519081900360640190fd5b610eac612402565b50600190565b60cb602052600090815260409020546001600160a01b031681565b60ce546000906001600160a01b0316610ee4611c43565b6001600160a01b031614610f25576040805162461bcd60e51b815260206004820152600360248201526253543360e81b604482015290519081900360640190fd5b610afa83836124a2565b60d5546001600160a01b031681565b60d6546000906001600160a01b0316610f55611c43565b6001600160a01b031614610f96576040805162461bcd60e51b81526020600482015260036024820152620a6a8760eb1b604482015290519081900360640190fd5b6001600160a01b038416610fd7576040805162461bcd60e51b815260206004820152600360248201526253543960e81b604482015290519081900360640190fd5b610fe260c985612594565b610ff357610ff160c9856125a9565b505b6001600160a01b03808516600081815260cb602090815260408083208054868a166001600160a01b0319918216811790925560cc84529382902080549689169690941686179093558051928352908201939093524281840152915190917f82ed35aaa6afc6ef1f698fbb8532bfa0a40ac98e0a5157a330a43ac1715cc199919081900360600190a25060019392505050565b60d6546000906001600160a01b031661109c611c43565b6001600160a01b0316146110e0576040805162461bcd60e51b815260206004808301919091526024820152630535431360e41b604482015290519081900360640190fd5b6001600160a01b038216611124576040805162461bcd60e51b815260206004808301919091526024820152635354313160e01b604482015290519081900360640190fd5b61112f60c9836125be565b506001600160a01b03828116600081815260cb60209081526040808320805460cc84529382902080546001600160a01b031980871690935581549092169055815193861680855295169183018290524283820152519092917f2742009aa76efd08ff06c38a132900d832bc5494d526b3335719fca7b65b95fc919081900360600190a25060019392505050565b6111c96000610b50611c43565b611203576040805162461bcd60e51b815260206004808301919091526024820152635354313360e01b604482015290519081900360640190fd5b60ce80546001600160a01b0319166001600160a01b0383169081179091556040517f57fded54c0f01b7b2c662bd89530d6916e48149e02da384db87d1a67306be87190600090a250565b60655460ff1690565b600061126061124d565b156112a5576040805162461bcd60e51b815260206004820152601060248201526f14185d5cd8589b194e881c185d5cd95960821b604482015290519081900360640190fd5b6112ad611c43565b6001600160a01b0316826001600160a01b0316146112f8576040805162461bcd60e51b815260206004820152600360248201526253543560e81b604482015290519081900360640190fd5b611301826125d3565b6040805182815242602082015281519293506001600160a01b038516927fd0194489832efa41a56f4a4add6fbbe260998cbcff0b43c953af28b545ca7a01929181900390910190a2919050565b6001600160a01b03908116600090815260cb602090815260408083205460cc83528184205460cd90935292205460cf549284169491841693929092169190565b61139b6000610b50611c43565b6113d5576040805162461bcd60e51b8152602060048083019190915260248201526329aa189960e11b604482015290519081900360640190fd5b60d680546001600160a01b0319166001600160a01b0383169081179091556040517f956e636358b715ce07711e6cde8321e45298a1393051158ee3940beac0b9e40190600090a250565b6001600160a01b031660009081526033602052604090205490565b60d25481565b60cf546001600160a01b031681565b60ce546001600160a01b031681565b606080600060d08054806020026020016040519081016040528092919081815260200182805480156114af57602002820191906000526020600020905b81548152602001906001019080831161149b575b5050505050925060d180548060200260200160405190810160405280929190818152602001828054801561150257602002820191906000526020600020905b8154815260200190600101908083116114ee575b5050505050915060d2549050909192565b600061152f600080516020613348833981519152610b50611c43565b611569576040805162461bcd60e51b8152602060048083019190915260248201526314d50c4d60e21b604482015290519081900360640190fd5b610eac6126d9565b6000828152609760205260408120610c5a908361275c565b6000828152609760205260408120610c5a9083612594565b60378054604080516020601f6002600019610100600188161502019095169490940493840181900481028201810190925282815260609390929091830182828015610adc5780601f10610ab157610100808354040283529160200191610adc565b60ce546000906001600160a01b0316611619611c43565b6001600160a01b03161461165a576040805162461bcd60e51b815260206004820152600360248201526214d50d60ea1b604482015290519081900360640190fd5b610afa8383612768565b60d254600090611675906064612864565b8211156116b2576040805162461bcd60e51b815260206004808301919091526024820152635354313760e01b604482015290519081900360640190fd5b6116bf6000610b50611c43565b6116f6576040805162461bcd60e51b815260206004820152600360248201526229aa1960e91b604482015290519081900360640190fd5b60d0805460018181019092557fe89d44c8fd6a9bac8af33ce47f56337617d449bf7ff3956b618c646de829cbcb0183905560d1805491820181556000908152427f695fb3134ad82c3b8022bc5464edd0bcc9424ef672b52245dcb6ab2374327ce39092019190915560405183917f1946fb78c7ca778b54d82cabaac5ba67cf446f58d0ff1f8ceaebb6150e54e44f91a2506001919050565b6000808061179d60c985612594565b80156117c257506001600160a01b03848116600090815260cb60205260409020541615155b80156117e757506001600160a01b03848116600090815260cc60205260409020541615155b156118cf576001600160a01b03808516600081815260cb60209081526040808320548151630f5560db60e41b8152600481019590955290519294169263f5560db09260248083019392829003018186803b15801561184457600080fd5b505afa158015611858573d6000803e3d6000fd5b505050506040513d602081101561186e57600080fd5b5051905080156118cd576001600160a01b038516600090815260cd602052604090205461189c908290611d33565b6001600160a01b03808716600090815260cb602090815260408083205460cc90925290912054929650811694501691505b505b9193909250565b600081565b6000610afa6118e8611c43565b84610c51856040518060600160405280602581526020016133d26025913960346000611912611c43565b6001600160a01b03908116825260208083019390935260409182016000908120918d168152925290205491906120a8565b6000610afa611950611c43565b8484611f4b565b60d36020526000908152604090205481565b60cd6020526000908152604090205481565b6000610afe60c983612594565b6000818152609760205260408120610afe906128bd565b6000828152609760205260409020600201546119bd90610b50611c43565b610de15760405162461bcd60e51b81526004018080602001828103825260308152602001806132a16030913960400191505060405180910390fd5b60cc602052600090815260409020546001600160a01b031681565b6001600160a01b03918216600090815260346020908152604080832093909416825291909152205490565b60008051602061334883398151915281565b600054610100900460ff1680611a695750611a696128c8565b80611a77575060005460ff16155b611ab25760405162461bcd60e51b815260040180806020018281038252602e8152602001806132d1602e913960400191505060405180910390fd5b600054610100900460ff16158015611add576000805460ff1961ff0019909116610100171660011790555b611b3060405180604001604052806012815260200171705354414b45205374616b65642041544f4d60701b8152506040518060400160405280600781526020016673746b41544f4d60c81b8152506128d9565b611b3861298f565b611b40612a41565b611b526000611b4d611c43565b610d73565b611b6a60008051602061334883398151915285610d73565b611b7385610b43565b60d2829055611b83826064612864565b831115611bbd576040805162461bcd60e51b815260206004820152600360248201526253543160e81b604482015290519081900360640190fd5b60d0805460018181019092557fe89d44c8fd6a9bac8af33ce47f56337617d449bf7ff3956b618c646de829cbcb0184905560d180549182018155600052427f695fb3134ad82c3b8022bc5464edd0bcc9424ef672b52245dcb6ab2374327ce390910155611c2a6006612ade565b8015611c3c576000805461ff00191690555b5050505050565b3390565b6001600160a01b038316611c8c5760405162461bcd60e51b81526004018080602001828103825260248152602001806133ae6024913960400191505060405180910390fd5b6001600160a01b038216611cd15760405162461bcd60e51b81526004018080602001828103825260228152602001806132596022913960400191505060405180910390fd5b6001600160a01b03808416600081815260346020908152604080832094871680845294825291829020859055815185815291517f8c5be1e5ebec7d5bd14f71427d1e84f3dd0314c0f7b2291e5b200ac8c7c3b9259281900390910190a3505050565b600080808080861580611d4d5750611d4b4287612af4565b155b15611d5f576000945050505050610afe565b60d154600090611d70906001612af4565b90508094505b60d154611d84906001612af4565b851015611e9d578660d18681548110611d9957fe5b90600052602060002001541115611e4957611df660d18681548110611dba57fe5b60009182526020909120015460d1611dd38860016123a8565b81548110611ddd57fe5b9060005260206000200154612af490919063ffffffff16565b9350611e1d60d08681548110611e0857fe5b60009182526020909120015489906064612b51565b9150611e368460d25484612b519092919063ffffffff16565b9250611e4286846123a8565b9550611e98565b611e5a8760d1611dd38860016123a8565b9350611e6c60d08681548110611e0857fe5b9150611e858460d25484612b519092919063ffffffff16565b9250611e9186846123a8565b9550611f40565b611f2e565b8660d18681548110611eab57fe5b90600052602060002001541115611f2457611ee660d18681548110611ecc57fe5b906000526020600020015442612af490919063ffffffff16565b9350611ef860d08681548110611e0857fe5b9150611f118460d25484612b519092919063ffffffff16565b9250611f1d86846123a8565b9550611f2e565b611e5a4288612af4565b611f39856001612af4565b9450611d76565b505050505092915050565b6001600160a01b038316611f905760405162461bcd60e51b81526004018080602001828103825260258152602001806133896025913960400191505060405180910390fd5b6001600160a01b038216611fd55760405162461bcd60e51b81526004018080602001828103825260238152602001806131e56023913960400191505060405180910390fd5b611fe0838383612c0a565b61201d8160405180606001604052806026815260200161327b602691396001600160a01b03861660009081526033602052604090205491906120a8565b6001600160a01b03808516600090815260336020526040808220939093559084168152205461204c90826123a8565b6001600160a01b0380841660008181526033602090815260409182902094909455805185815290519193928716927fddf252ad1be2c89b69c2b068fc378daa952ba7f163c4a11628f55a4df523b3ef92918290030190a3505050565b600081848411156121375760405162461bcd60e51b81526004018080602001828103825283818151815260200191508051906020019080838360005b838110156120fc5781810151838201526020016120e4565b50505050905090810190601f1680156121295780820380516001836020036101000a031916815260200191505b509250505060405180910390fd5b505050900390565b600061214c60c983612594565b801561217157506001600160a01b03828116600090815260cb60205260409020541615155b801561219657506001600160a01b03828116600090815260cc60205260409020541615155b6121cd576040805162461bcd60e51b815260206004820152600360248201526253543760e81b604482015290519081900360640190fd5b6000806121d98461178e565b506001600160a01b038616600090815260cd60205260409020429055909250905081156122885760cf54604080516340c10f1960e01b81526001600160a01b038481166004830152602482018690529151949550859491909216916340c10f199160448083019260209291908290030181600087803b15801561225b57600080fd5b505af115801561226f573d6000803e3d6000fd5b505050506040513d602081101561228557600080fd5b50505b60408051848152426020820152815130926001600160a01b038816927ff5903cb2d16d0852687a9c6434f5e696e6f5022b43d9c2a9789ea1737a1ef4d8929081900390910190a35050919050565b60008281526097602052604090206122ee90826125a9565b15610d7d576122fb611c43565b6001600160a01b0316816001600160a01b0316837f2f8788117e7eff1d82e926ec794901d17c78024a50270940304540a733656f0d60405160405180910390a45050565b600082815260976020526040902061235790826125be565b15610d7d57612364611c43565b6001600160a01b0316816001600160a01b0316837ff6391f5c32d9c69d2a47ea670b442974b53935d1edc7fd64eb21e047a839171b60405160405180910390a45050565b600082820183811015610c5a576040805162461bcd60e51b815260206004820152601b60248201527f536166654d6174683a206164646974696f6e206f766572666c6f770000000000604482015290519081900360640190fd5b61240a61124d565b612452576040805162461bcd60e51b815260206004820152601460248201527314185d5cd8589b194e881b9bdd081c185d5cd95960621b604482015290519081900360640190fd5b6065805460ff191690557f5db9ee0a495bf2e6ff9c91a7834c1ba4fdd244a5e8aa4e537bd38aeae4b073aa612485611c43565b604080516001600160a01b039092168252519081900360200190a1565b6001600160a01b0382166124fd576040805162461bcd60e51b815260206004820152601f60248201527f45524332303a206d696e7420746f20746865207a65726f206164647265737300604482015290519081900360640190fd5b61250960008383612c0a565b60355461251690826123a8565b6035556001600160a01b03821660009081526033602052604090205461253c90826123a8565b6001600160a01b03831660008181526033602090815260408083209490945583518581529351929391927fddf252ad1be2c89b69c2b068fc378daa952ba7f163c4a11628f55a4df523b3ef9281900390910190a35050565b6000610c5a836001600160a01b038416612ccb565b6000610c5a836001600160a01b038416612ce3565b6000610c5a836001600160a01b038416612d2d565b60006001600160a01b03821615610b38576125ed82610b04565b6001600160a01b038316600090815260d36020526040902042905590508015610b385760cf54604080516340c10f1960e01b81526001600160a01b03858116600483015260248201859052915191909216916340c10f199160448083019260209291908290030181600087803b15801561266657600080fd5b505af115801561267a573d6000803e3d6000fd5b505050506040513d602081101561269057600080fd5b50506040805182815242602082015281516001600160a01b038516927f01ea729deb12fa912e813101b1da8b7c1500f7f26c912a612221a02af6a56220928290030190a2919050565b6126e161124d565b15612726576040805162461bcd60e51b815260206004820152601060248201526f14185d5cd8589b194e881c185d5cd95960821b604482015290519081900360640190fd5b6065805460ff191660011790557f62e78cea01bee320cd4e420270b5ea74000d11b0c9f74754ebdbfc544b05a258612485611c43565b6000610c5a8383612df3565b6001600160a01b0382166127ad5760405162461bcd60e51b81526004018080602001828103825260218152602001806133686021913960400191505060405180910390fd5b6127b982600083612c0a565b6127f681604051806060016040528060228152602001613237602291396001600160a01b03851660009081526033602052604090205491906120a8565b6001600160a01b03831660009081526033602052604090205560355461281c9082612af4565b6035556040805182815290516000916001600160a01b038516917fddf252ad1be2c89b69c2b068fc378daa952ba7f163c4a11628f55a4df523b3ef9181900360200190a35050565b60008261287357506000610afe565b8282028284828161288057fe5b0414610c5a5760405162461bcd60e51b81526004018080602001828103825260218152602001806132ff6021913960400191505060405180910390fd5b6000610afe82612e57565b60006128d330612e5b565b15905090565b600054610100900460ff16806128f257506128f26128c8565b80612900575060005460ff16155b61293b5760405162461bcd60e51b815260040180806020018281038252602e8152602001806132d1602e913960400191505060405180910390fd5b600054610100900460ff16158015612966576000805460ff1961ff0019909116610100171660011790555b61296e612e61565b6129788383612f01565b801561298a576000805461ff00191690555b505050565b600054610100900460ff16806129a857506129a86128c8565b806129b6575060005460ff16155b6129f15760405162461bcd60e51b815260040180806020018281038252602e8152602001806132d1602e913960400191505060405180910390fd5b600054610100900460ff16158015612a1c576000805460ff1961ff0019909116610100171660011790555b612a24612e61565b612a2c612e61565b8015612a3e576000805461ff00191690555b50565b600054610100900460ff1680612a5a5750612a5a6128c8565b80612a68575060005460ff16155b612aa35760405162461bcd60e51b815260040180806020018281038252602e8152602001806132d1602e913960400191505060405180910390fd5b600054610100900460ff16158015612ace576000805460ff1961ff0019909116610100171660011790555b612ad6612e61565b612a2c612fd9565b6038805460ff191660ff92909216919091179055565b600082821115612b4b576040805162461bcd60e51b815260206004820152601e60248201527f536166654d6174683a207375627472616374696f6e206f766572666c6f770000604482015290519081900360640190fd5b50900390565b6000806000612b608686613084565b9150915060008480612b6e57fe5b868809905082811115612b82576001820391505b918290039181612ba057848381612b9557fe5b049350505050610c5a565b848210612bf4576040805162461bcd60e51b815260206004820152601a60248201527f46756c6c4d6174683a2046554c4c4449565f4f564552464c4f57000000000000604482015290519081900360640190fd5b612bff8383876130b1565b979650505050505050565b612c1261124d565b15612c4a576040805162461bcd60e51b815260206004820152600360248201526253543760e81b604482015290519081900360640190fd5b612c5583838361298a565b6000612c608461197b565b90506000612c6d8461197b565b905081612ca257612c7d856125d3565b5080612c9257612c8c846125d3565b50612c9d565b612c9b8461213f565b505b611c3c565b612cab8561213f565b5080612cba57612c9b846125d3565b612cc38461213f565b505050505050565b60009081526001919091016020526040902054151590565b6000612cef8383612ccb565b612d2557508154600181810184556000848152602080822090930184905584548482528286019093526040902091909155610afe565b506000610afe565b60008181526001830160205260408120548015612de95783546000198083019190810190600090879083908110612d6057fe5b9060005260206000200154905080876000018481548110612d7d57fe5b600091825260208083209091019290925582815260018981019092526040902090840190558654879080612dad57fe5b60019003818190600052602060002001600090559055866001016000878152602001908152602001600020600090556001945050505050610afe565b6000915050610afe565b81546000908210612e355760405162461bcd60e51b81526004018080602001828103825260228152602001806131c36022913960400191505060405180910390fd5b826000018281548110612e4457fe5b9060005260206000200154905092915050565b5490565b3b151590565b600054610100900460ff1680612e7a5750612e7a6128c8565b80612e88575060005460ff16155b612ec35760405162461bcd60e51b815260040180806020018281038252602e8152602001806132d1602e913960400191505060405180910390fd5b600054610100900460ff16158015612a2c576000805460ff1961ff0019909116610100171660011790558015612a3e576000805461ff001916905550565b600054610100900460ff1680612f1a5750612f1a6128c8565b80612f28575060005460ff16155b612f635760405162461bcd60e51b815260040180806020018281038252602e8152602001806132d1602e913960400191505060405180910390fd5b600054610100900460ff16158015612f8e576000805460ff1961ff0019909116610100171660011790555b8251612fa1906036906020860190613121565b508151612fb5906037906020850190613121565b506038805460ff19166012179055801561298a576000805461ff0019169055505050565b600054610100900460ff1680612ff25750612ff26128c8565b80613000575060005460ff16155b61303b5760405162461bcd60e51b815260040180806020018281038252602e8152602001806132d1602e913960400191505060405180910390fd5b600054610100900460ff16158015613066576000805460ff1961ff0019909116610100171660011790555b6065805460ff191690558015612a3e576000805461ff001916905550565b60008080600019848609905083850292508281039150828110156130a9576001820391505b509250929050565b600081810382168083816130c157fe5b0492508085816130cd57fe5b0494508081600003816130dc57fe5b60028581038087028203028087028203028087028203028087028203028087028203028087028203029586029003909402930460010193909302939093010292915050565b828054600181600116156101000203166002900490600052602060002090601f016020900481019282613157576000855561319d565b82601f1061317057805160ff191683800117855561319d565b8280016001018555821561319d579182015b8281111561319d578251825591602001919060010190613182565b506131a99291506131ad565b5090565b5b808211156131a957600081556001016131ae56fe456e756d657261626c655365743a20696e646578206f7574206f6620626f756e647345524332303a207472616e7366657220746f20746865207a65726f2061646472657373416363657373436f6e74726f6c3a2073656e646572206d75737420626520616e2061646d696e20746f206772616e7445524332303a206275726e20616d6f756e7420657863656564732062616c616e636545524332303a20617070726f766520746f20746865207a65726f206164647265737345524332303a207472616e7366657220616d6f756e7420657863656564732062616c616e6365416363657373436f6e74726f6c3a2073656e646572206d75737420626520616e2061646d696e20746f207265766f6b65496e697469616c697a61626c653a20636f6e747261637420697320616c726561647920696e697469616c697a6564536166654d6174683a206d756c7469706c69636174696f6e206f766572666c6f7745524332303a207472616e7366657220616d6f756e74206578636565647320616c6c6f77616e636565d7a28e3265b37a6474929f336521b332c1681b933f6cb9f3376673440d862a45524332303a206275726e2066726f6d20746865207a65726f206164647265737345524332303a207472616e736665722066726f6d20746865207a65726f206164647265737345524332303a20617070726f76652066726f6d20746865207a65726f206164647265737345524332303a2064656372656173656420616c6c6f77616e63652062656c6f77207a65726f416363657373436f6e74726f6c3a2063616e206f6e6c792072656e6f756e636520726f6c657320666f722073656c66a2646970667358221220f97fe07d2f4e169c8ed9e6ca0c0788845ebcadc07c1af16db7779303c76d787d64736f6c63430007060033",
  "immutableReferences": {},
  "source": "// SPDX-License-Identifier: UNLICENSED\npragma solidity >=0.7.0;\n\nimport \"@openzeppelin/contracts-upgradeable/token/ERC20/ERC20Upgradeable.sol\";\nimport \"@openzeppelin/contracts-upgradeable/math/SafeMathUpgradeable.sol\";\nimport \"@openzeppelin/contracts-upgradeable/utils/PausableUpgradeable.sol\";\nimport \"@openzeppelin/contracts-upgradeable/utils/EnumerableSetUpgradeable.sol\";\nimport \"@openzeppelin/contracts-upgradeable/access/AccessControlUpgradeable.sol\";\nimport \"./interfaces/ISTokensV4.sol\";\nimport \"./interfaces/IUTokensV2.sol\";\nimport \"./interfaces/IHolderV2.sol\";\nimport \"./libraries/FullMath.sol\";\n// to be deleted\nimport \"./interfaces/IRewardEmission.sol\";\n\ncontract STokensV4 is\n\tERC20Upgradeable,\n\tISTokensV4,\n\tPausableUpgradeable,\n\tAccessControlUpgradeable\n{\n\tusing SafeMathUpgradeable for uint256;\n\tusing FullMath for uint256;\n\tusing EnumerableSetUpgradeable for EnumerableSetUpgradeable.AddressSet;\n\n\t// constants defining access control ROLES\n\tbytes32 public constant PAUSER_ROLE = keccak256(\"PAUSER_ROLE\");\n\n\t// variables pertaining to holder logic for whitelisted addresses & StakeLP\n\t// deposit contract address for STokens in a DeFi product\n\tEnumerableSetUpgradeable.AddressSet private _whitelistedAddresses;\n\t// Holder contract address for this whitelisted contract. Many can point to one Holder contract\n\tmapping(address => address) public _holderContractAddress;\n\t// LP Token contract address which might be different from whitelisted contract\n\tmapping(address => address) public _lpContractAddress;\n\t// last timestamp when the holder reward calculation was performed for updating reward pool\n\tmapping(address => uint256) public _lastHolderRewardTimestamp;\n\n\t// _liquidStakingContract address does the mint and burn of STokens\n\taddress public _liquidStakingContract;\n\t// _uTokens variable is used to do mint of UTokens\n\tIUTokensV2 public _uTokens;\n\n\t// variables pertaining to moving reward rate logic\n\tuint256[] private _rewardRate;\n\tuint256[] private _lastMovingRewardTimestamp;\n\tuint256 public _valueDivisor;\n\tmapping(address => uint256) public _lastUserRewardTimestamp;\n\n\t// variable pertaining to contract upgrades versioning\n\tuint256 public _version;\n\t// to be deleted\n\tIRewardEmission public _iRewardEmission;\n\t// required to store the whitelisting holder logic data initiated from StakeLPCore\n\taddress _stakeLPCoreContract;\n\n\t/**\n\t * @dev Constructor for initializing the SToken contract.\n\t * @param uaddress - address of the UToken contract.\n\t * @param pauserAddress - address of the pauser admin.\n\t * @param rewardRate - set to rewardRate * 10^-5\n\t * @param valueDivisor - valueDivisor set to 10^9.\n\t */\n\tfunction initialize(\n\t\taddress uaddress,\n\t\taddress pauserAddress,\n\t\tuint256 rewardRate,\n\t\tuint256 valueDivisor\n\t) public virtual initializer {\n\t\t__ERC20_init(\"pSTAKE Staked ATOM\", \"stkATOM\");\n\t\t__AccessControl_init();\n\t\t__Pausable_init();\n\t\t_setupRole(DEFAULT_ADMIN_ROLE, _msgSender());\n\t\t_setupRole(PAUSER_ROLE, pauserAddress);\n\t\tsetUTokensContract(uaddress);\n\t\t_valueDivisor = valueDivisor;\n\t\trequire(rewardRate <= _valueDivisor.mul(100), \"ST1\");\n\t\t_rewardRate.push(rewardRate);\n\t\t_lastMovingRewardTimestamp.push(block.timestamp);\n\t\t_setupDecimals(6);\n\t}\n\n\t/**\n\t * @dev get reward rate and value divisor\n\t */\n\tfunction getUTokenAddress()\n\t\tpublic\n\t\tview\n\t\tvirtual\n\t\toverride\n\t\treturns (address uTokenAddress)\n\t{\n\t\tuTokenAddress = address(_uTokens);\n\t}\n\n\t/*\n\t * @dev set reward rate called by admin\n\t * @param rewardRate: reward rate\n\t *\n\t *\n\t * Requirements:\n\t *\n\t * - `rate` cannot be less than or equal to zero.\n\t *\n\t */\n\tfunction setRewardRate(uint256 rewardRate)\n\t\tpublic\n\t\tvirtual\n\t\toverride\n\t\treturns (bool success)\n\t{\n\t\t// range checks for rewardRate. Since rewardRate cannot be more than 100%, the max cap\n\t\t// is _valueDivisor * 100, which then brings the fees to 100 (percentage)\n\t\trequire(rewardRate <= _valueDivisor.mul(100), \"ST17\");\n\t\trequire(hasRole(DEFAULT_ADMIN_ROLE, _msgSender()), \"ST2\");\n\t\t_rewardRate.push(rewardRate);\n\t\t_lastMovingRewardTimestamp.push(block.timestamp);\n\t\temit SetRewardRate(rewardRate);\n\n\t\treturn true;\n\t}\n\n\t/**\n\t * @dev get reward rate and value divisor\n\t */\n\tfunction getRewardRate()\n\t\tpublic\n\t\tview\n\t\tvirtual\n\t\toverride\n\t\treturns (\n\t\t\tuint256[] memory rewardRate,\n\t\t\tuint256[] memory lastMovingRewardTimestamp,\n\t\t\tuint256 valueDivisor\n\t\t)\n\t{\n\t\trewardRate = _rewardRate;\n\t\tlastMovingRewardTimestamp = _lastMovingRewardTimestamp;\n\t\tvalueDivisor = _valueDivisor;\n\t}\n\n\t/**\n\t * @dev Mint new stokens for the provided 'address' and 'tokens'\n\t * @param to: account address, tokens: number of tokens\n\t *\n\t * Emits a {MintTokens} event with 'to' set to address and 'tokens' set to amount of tokens.\n\t *\n\t * Requirements:\n\t *\n\t * - `amount` cannot be less than zero.\n\t *\n\t */\n\tfunction mint(address to, uint256 tokens)\n\t\tpublic\n\t\tvirtual\n\t\toverride\n\t\treturns (bool)\n\t{\n\t\trequire(_msgSender() == _liquidStakingContract, \"ST3\");\n\t\t_mint(to, tokens);\n\t\treturn true;\n\t}\n\n\t/*\n\t * @dev Burn stokens for the provided 'address' and 'tokens'\n\t * @param to: account address, tokens: number of tokens\n\t *\n\t * Emits a {BurnTokens} event with 'to' set to address and 'tokens' set to amount of tokens.\n\t *\n\t * Requirements:\n\t *\n\t * - `amount` cannot be less than zero.\n\t *\n\t */\n\tfunction burn(address from, uint256 tokens)\n\t\tpublic\n\t\tvirtual\n\t\toverride\n\t\treturns (bool)\n\t{\n\t\trequire(_msgSender() == _liquidStakingContract, \"ST4\");\n\t\t_burn(from, tokens);\n\t\treturn true;\n\t}\n\n\t/**\n\t * @dev Calculate pending rewards from the provided 'principal' & 'lastRewardTimestamp'. The rate is the moving reward rate.\n\t * @param principal: principal amount\n\t * @param lastRewardTimestamp: timestamp of last reward calculation performed\n\t */\n\tfunction _calculatePendingRewards(\n\t\tuint256 principal,\n\t\tuint256 lastRewardTimestamp\n\t) internal view returns (uint256 pendingRewards) {\n\t\tuint256 _index;\n\t\tuint256 _rewardBlocks;\n\t\tuint256 _simpleInterestOfInterval;\n\t\tuint256 _temp;\n\t\t// return 0 if principal or timeperiod is zero\n\t\tif (principal == 0 || block.timestamp.sub(lastRewardTimestamp) == 0)\n\t\t\treturn 0;\n\t\t// calculate rewards for each interval period between rewardRate changes\n\t\tuint256 _lastMovingRewardLength = _lastMovingRewardTimestamp.length.sub(\n\t\t\t1\n\t\t);\n\t\tfor (\n\t\t\t_index = _lastMovingRewardLength;\n\t\t\t_index >= 0;\n\t\t\t_index = _index.sub(1)\n\t\t) {\n\t\t\t// logic applies for all indexes of array except last index\n\t\t\tif (_index < _lastMovingRewardTimestamp.length.sub(1)) {\n\t\t\t\tif (_lastMovingRewardTimestamp[_index] > lastRewardTimestamp) {\n\t\t\t\t\t_rewardBlocks = (_lastMovingRewardTimestamp[_index.add(1)])\n\t\t\t\t\t\t.sub(_lastMovingRewardTimestamp[_index]);\n\t\t\t\t\t_temp = principal.mulDiv(_rewardRate[_index], 100);\n\t\t\t\t\t_simpleInterestOfInterval = _temp.mulDiv(\n\t\t\t\t\t\t_rewardBlocks,\n\t\t\t\t\t\t_valueDivisor\n\t\t\t\t\t);\n\t\t\t\t\tpendingRewards = pendingRewards.add(\n\t\t\t\t\t\t_simpleInterestOfInterval\n\t\t\t\t\t);\n\t\t\t\t} else {\n\t\t\t\t\t_rewardBlocks = (_lastMovingRewardTimestamp[_index.add(1)])\n\t\t\t\t\t\t.sub(lastRewardTimestamp);\n\t\t\t\t\t_temp = principal.mulDiv(_rewardRate[_index], 100);\n\t\t\t\t\t_simpleInterestOfInterval = _temp.mulDiv(\n\t\t\t\t\t\t_rewardBlocks,\n\t\t\t\t\t\t_valueDivisor\n\t\t\t\t\t);\n\t\t\t\t\tpendingRewards = pendingRewards.add(\n\t\t\t\t\t\t_simpleInterestOfInterval\n\t\t\t\t\t);\n\t\t\t\t\tbreak;\n\t\t\t\t}\n\t\t\t}\n\t\t\t// logic applies only for the last index of array\n\t\t\telse {\n\t\t\t\tif (_lastMovingRewardTimestamp[_index] > lastRewardTimestamp) {\n\t\t\t\t\t_rewardBlocks = (block.timestamp).sub(\n\t\t\t\t\t\t_lastMovingRewardTimestamp[_index]\n\t\t\t\t\t);\n\t\t\t\t\t_temp = principal.mulDiv(_rewardRate[_index], 100);\n\t\t\t\t\t_simpleInterestOfInterval = _temp.mulDiv(\n\t\t\t\t\t\t_rewardBlocks,\n\t\t\t\t\t\t_valueDivisor\n\t\t\t\t\t);\n\t\t\t\t\tpendingRewards = pendingRewards.add(\n\t\t\t\t\t\t_simpleInterestOfInterval\n\t\t\t\t\t);\n\t\t\t\t} else {\n\t\t\t\t\t_rewardBlocks = (block.timestamp).sub(lastRewardTimestamp);\n\t\t\t\t\t_temp = principal.mulDiv(_rewardRate[_index], 100);\n\t\t\t\t\t_simpleInterestOfInterval = _temp.mulDiv(\n\t\t\t\t\t\t_rewardBlocks,\n\t\t\t\t\t\t_valueDivisor\n\t\t\t\t\t);\n\t\t\t\t\tpendingRewards = pendingRewards.add(\n\t\t\t\t\t\t_simpleInterestOfInterval\n\t\t\t\t\t);\n\t\t\t\t\tbreak;\n\t\t\t\t}\n\t\t\t}\n\t\t}\n\t\treturn pendingRewards;\n\t}\n\n\t/**\n\t * @dev Calculate pending rewards for the provided 'address'. The rate is the moving reward rate.\n\t * @param to: account address\n\t */\n\tfunction calculatePendingRewards(address to)\n\t\tpublic\n\t\tview\n\t\tvirtual\n\t\toverride\n\t\treturns (uint256 pendingRewards)\n\t{\n\t\t// Get the time in number of blocks\n\t\tuint256 _lastRewardTimestamp = _lastUserRewardTimestamp[to];\n\t\t// Get the balance of the account\n\t\tuint256 _balance = balanceOf(to);\n\t\t// calculate pending rewards using _calculatePendingRewards\n\t\tpendingRewards = _calculatePendingRewards(\n\t\t\t_balance,\n\t\t\t_lastRewardTimestamp\n\t\t);\n\n\t\treturn pendingRewards;\n\t}\n\n\t/**\n\t * @dev Calculate rewards for the provided 'address'\n\t * @param to: account address\n\t */\n\tfunction _calculateRewards(address to) internal returns (uint256 _reward) {\n\t\t// keep an if condition to check for address(0), instead of require condition, because address(0) is\n\t\t// a valid condition when it is a mint/burn operation\n\t\tif (to != address(0)) {\n\t\t\t// Calculate the rewards pending\n\t\t\t_reward = calculatePendingRewards(to);\n\n\t\t\t// Set the new stakedBlock to the current,\n\t\t\t// as per Checks-Effects-Interactions pattern\n\t\t\t_lastUserRewardTimestamp[to] = block.timestamp;\n\n\t\t\t// mint uTokens only if reward is greater than zero\n\t\t\tif (_reward > 0) {\n\t\t\t\t// Mint new uTokens and send to the callers account\n\t\t\t\t_uTokens.mint(to, _reward);\n\t\t\t\temit CalculateRewards(to, _reward, block.timestamp);\n\t\t\t}\n\t\t}\n\t\treturn _reward;\n\t}\n\n\t/**\n\t * @dev Calculate rewards for the provided 'address'\n\t * @param to: account address\n\t *\n\t * Emits a {TriggeredCalculateRewards} event with 'to' set to address, 'reward' set to amount of tokens and 'timestamp'\n\t *\n\t */\n\tfunction calculateRewards(address to)\n\t\tpublic\n\t\tvirtual\n\t\toverride\n\t\twhenNotPaused\n\t\treturns (uint256 reward)\n\t{\n\t\trequire(to == _msgSender(), \"ST5\");\n\t\treward = _calculateRewards(to);\n\t\temit TriggeredCalculateRewards(to, reward, block.timestamp);\n\t\treturn reward;\n\t}\n\n\t/**\n\t * @dev Calculate pending rewards for the provided 'address'. The rate is the moving reward rate.\n\t * @param whitelistedAddress: whitelisted contract address\n\t */\n\tfunction isContractWhitelisted(address whitelistedAddress)\n\t\tpublic\n\t\tview\n\t\tvirtual\n\t\toverride\n\t\treturns (bool result)\n\t{\n\t\tresult = _whitelistedAddresses.contains(whitelistedAddress);\n\t\treturn result;\n\t}\n\n\t/**\n\t * @dev Calculate pending rewards for the provided 'address'. The rate is the moving reward rate.\n\t * @param to: account address\n\t */\n\tfunction calculatePendingHolderRewards(address to)\n\t\tpublic\n\t\tview\n\t\tvirtual\n\t\toverride\n\t\treturns (\n\t\t\tuint256 pendingRewards,\n\t\t\taddress holderAddress,\n\t\t\taddress lpAddress\n\t\t)\n\t{\n\t\t// holderContract and lpContract (lp token contract) need to be validated together because\n\t\t// it might not be practical to setup holder to collect reward pool but not StakeLP to distribute reward\n\t\t// since the reward distribution calculation starts the minute reward pool is created\n\t\tif (\n\t\t\t_whitelistedAddresses.contains(to) &&\n\t\t\t_holderContractAddress[to] != address(0) &&\n\t\t\t_lpContractAddress[to] != address(0)\n\t\t) {\n\t\t\tuint256 _sTokenSupply = IHolderV2(_holderContractAddress[to])\n\t\t\t\t.getSTokenSupply(to);\n\n\t\t\t// calculate the reward applying the moving reward rate\n\t\t\tif (_sTokenSupply > 0) {\n\t\t\t\tpendingRewards = _calculatePendingRewards(\n\t\t\t\t\t_sTokenSupply,\n\t\t\t\t\t_lastHolderRewardTimestamp[to]\n\t\t\t\t);\n\t\t\t\tholderAddress = _holderContractAddress[to];\n\t\t\t\tlpAddress = _lpContractAddress[to];\n\t\t\t}\n\t\t}\n\t}\n\n\t/**\n\t * @dev Calculate rewards for the provided 'holder address'\n\t * @param to: holder address\n\t */\n\tfunction _calculateHolderRewards(address to)\n\t\tinternal\n\t\treturns (uint256 rewards)\n\t{\n\t\trequire(\n\t\t\t_whitelistedAddresses.contains(to) &&\n\t\t\t\t_holderContractAddress[to] != address(0) &&\n\t\t\t\t_lpContractAddress[to] != address(0),\n\t\t\t\"ST7\"\n\t\t);\n\t\t(\n\t\t\tuint256 pendingRewards,\n\t\t\taddress holderAddress,\n\n\t\t) = calculatePendingHolderRewards(to);\n\n\t\t// update the last timestamp of reward pool to the current time as per Checks-Effects-Interactions pattern\n\t\t// _iRewardEmission.setLastHolderRewardTimestamp(to, block.timestamp);\n\t\t_lastHolderRewardTimestamp[to] = block.timestamp;\n\n\t\t// Mint new uTokens and send to the holder contract account as updated reward pool\n\t\tif (pendingRewards > 0) {\n\t\t\trewards = pendingRewards;\n\t\t\t_uTokens.mint(holderAddress, rewards);\n\t\t}\n\n\t\temit CalculateHolderRewards(\n\t\t\tto,\n\t\t\taddress(this),\n\t\t\trewards,\n\t\t\tblock.timestamp\n\t\t);\n\n\t\treturn rewards;\n\t}\n\n\t/**\n\t * @dev Calculate rewards for the provided 'address'\n\t * @param to: account address\n\t *\n\t * Emits a {TriggeredCalculateRewards} event with 'to' set to address, 'reward' set to amount of tokens and 'timestamp'\n\t *\n\t */\n\tfunction calculateHolderRewards(address to)\n\t\tpublic\n\t\tvirtual\n\t\toverride\n\t\twhenNotPaused\n\t\treturns (uint256 rewards)\n\t{\n\t\trewards = _calculateHolderRewards(to);\n\t\temit TriggeredCalculateHolderRewards(\n\t\t\tto,\n\t\t\taddress(this),\n\t\t\trewards,\n\t\t\tblock.timestamp\n\t\t);\n\t\treturn rewards;\n\t}\n\n\t/**\n\t * @dev Hook that is called before any transfer of tokens. This includes\n\t * minting and burning.\n\t *\n\t * Calling conditions:\n\t *\n\t * - when `from` and `to` are both non-zero, `amount` of ``from``'s tokens\n\t * will be to transferred to `to`.\n\t * - when `from` is zero, `amount` tokens will be minted for `to`.\n\t * - when `to` is zero, `amount` of ``from``'s tokens will be burned.\n\t * - `from` and `to` are never both zero.\n\t *\n\t */\n\tfunction _beforeTokenTransfer(\n\t\taddress from,\n\t\taddress to,\n\t\tuint256 amount\n\t) internal virtual override {\n\t\trequire(!paused(), \"ST7\");\n\t\tsuper._beforeTokenTransfer(from, to, amount);\n\t\tbool isFromContractWhitelisted = isContractWhitelisted(from);\n\t\tbool isToContractWhitelisted = isContractWhitelisted(to);\n\n\t\tif (!isFromContractWhitelisted) {\n\t\t\t_calculateRewards(from);\n\t\t\tif (!isToContractWhitelisted) {\n\t\t\t\t_calculateRewards(to);\n\t\t\t} else {\n\t\t\t\t_calculateHolderRewards(to);\n\t\t\t}\n\t\t} else {\n\t\t\t_calculateHolderRewards(from);\n\t\t\tif (!isToContractWhitelisted) {\n\t\t\t\t_calculateRewards(to);\n\t\t\t} else {\n\t\t\t\t_calculateHolderRewards(to);\n\t\t\t}\n\t\t}\n\t}\n\n\t/*\n\t * @dev Set 'contract address', called from constructor\n\t * @param uTokenContract: utoken contract address\n\t *\n\t * Emits a {SetUTokensContract} event with '_contract' set to the utoken contract address.\n\t *\n\t */\n\tfunction setUTokensContract(address uTokenContract)\n\t\tpublic\n\t\tvirtual\n\t\toverride\n\t{\n\t\trequire(hasRole(DEFAULT_ADMIN_ROLE, _msgSender()), \"ST12\");\n\t\t_uTokens = IUTokensV2(uTokenContract);\n\t\temit SetUTokensContract(uTokenContract);\n\t}\n\n\t/*\n\t * @dev Set 'contract address', called from constructor\n\t * @param liquidStakingContract: liquidStaking contract address\n\t *\n\t * Emits a {SetLiquidStakingContract} event with '_contract' set to the liquidStaking contract address.\n\t *\n\t */\n\tfunction setLiquidStakingContract(address liquidStakingContract)\n\t\tpublic\n\t\tvirtual\n\t\toverride\n\t{\n\t\trequire(hasRole(DEFAULT_ADMIN_ROLE, _msgSender()), \"ST13\");\n\t\t_liquidStakingContract = liquidStakingContract;\n\t\temit SetLiquidStakingContract(liquidStakingContract);\n\t}\n\n\t/*\n\t * @dev Set 'contract address', called from constructor\n\t * @param uTokenContract: utoken contract address\n\t *\n\t * Emits a {SetUTokensContract} event with '_contract' set to the utoken contract address.\n\t *\n\t */\n\tfunction setStakeLPCoreContract(address stakeLPCoreContract)\n\t\tpublic\n\t\tvirtual\n\t\toverride\n\t{\n\t\trequire(hasRole(DEFAULT_ADMIN_ROLE, _msgSender()), \"ST12\");\n\t\t_stakeLPCoreContract = stakeLPCoreContract;\n\t\temit SetStakeLPCoreContract(stakeLPCoreContract);\n\t}\n\n\t/**\n\t * @dev Calculate pending rewards for the provided 'address'. The rate is the moving reward rate.\n\t * @param whitelistedAddress: contract address\n\t */\n\tfunction getWhitelistData(address whitelistedAddress)\n\t\tpublic\n\t\tview\n\t\tvirtual\n\t\toverride\n\t\treturns (\n\t\t\taddress holderAddress,\n\t\t\taddress lpAddress,\n\t\t\taddress uTokenAddress,\n\t\t\tuint256 lastHolderRewardTimestamp\n\t\t)\n\t{\n\t\t// Get the time in number of blocks\n\t\tholderAddress = _holderContractAddress[whitelistedAddress];\n\t\tlpAddress = _lpContractAddress[whitelistedAddress];\n\t\tlastHolderRewardTimestamp = _lastHolderRewardTimestamp[\n\t\t\twhitelistedAddress\n\t\t];\n\t\tuTokenAddress = address(_uTokens);\n\t}\n\n\t/*\n\t * @dev Set 'whitelisted address', performed by admin only\n\t * @param whitelistedAddress: contract address of the whitelisted party\n\t *\n\t * Emits a {setWhitelistedAddress} event\n\t *\n\t */\n\tfunction setWhitelistedAddress(\n\t\taddress whitelistedAddress,\n\t\taddress holderContractAddress,\n\t\taddress lpContractAddress\n\t) public virtual override returns (bool success) {\n\t\trequire(_msgSender() == _stakeLPCoreContract, \"ST8\");\n\t\t// lpTokenERC20ContractAddress or sTokenReserveContractAddress can be address(0) but not whitelistedAddress\n\t\trequire(whitelistedAddress != address(0), \"ST9\");\n\t\t// add the whitelistedAddress if it isn't already available\n\t\tif (!_whitelistedAddresses.contains(whitelistedAddress))\n\t\t\t_whitelistedAddresses.add(whitelistedAddress);\n\t\t// add the contract addresses to holder mapping variable\n\t\t_holderContractAddress[whitelistedAddress] = holderContractAddress;\n\t\t_lpContractAddress[whitelistedAddress] = lpContractAddress;\n\n\t\temit SetWhitelistedAddress(\n\t\t\twhitelistedAddress,\n\t\t\tholderContractAddress,\n\t\t\tlpContractAddress,\n\t\t\tblock.timestamp\n\t\t);\n\t\tsuccess = true;\n\t\treturn success;\n\t}\n\n\t/*\n\t * @dev remove 'whitelisted address', performed by admin only\n\t * @param whitelistedAddress: contract address of the whitelisted party\n\t * @param holderContractAddress: holder contract address of the corresponding whitelistedAddress\n\t *\n\t * Emits a {RemoveWhitelistedAddress} event\n\t *\n\t */\n\tfunction removeWhitelistedAddress(address whitelistedAddress)\n\t\tpublic\n\t\tvirtual\n\t\toverride\n\t\treturns (bool success)\n\t{\n\t\trequire(_msgSender() == _stakeLPCoreContract, \"ST10\");\n\t\trequire(whitelistedAddress != address(0), \"ST11\");\n\t\t// remove whitelistedAddress from the list\n\t\t_whitelistedAddresses.remove(whitelistedAddress);\n\t\taddress _holderContractAddressLocal = _holderContractAddress[\n\t\t\twhitelistedAddress\n\t\t];\n\t\taddress _lpContractAddressLocal = _lpContractAddress[\n\t\t\twhitelistedAddress\n\t\t];\n\n\t\t// delete holder contract values\n\t\tdelete _holderContractAddress[whitelistedAddress];\n\t\tdelete _lpContractAddress[whitelistedAddress];\n\n\t\temit RemoveWhitelistedAddress(\n\t\t\twhitelistedAddress,\n\t\t\t_holderContractAddressLocal,\n\t\t\t_lpContractAddressLocal,\n\t\t\tblock.timestamp\n\t\t);\n\t\tsuccess = true;\n\t\treturn success;\n\t}\n\n\t/**\n\t * @dev Triggers stopped state.\n\t *\n\t * Requirements:\n\t *\n\t * - The contract must not be paused.\n\t */\n\tfunction pause() public virtual override returns (bool success) {\n\t\trequire(hasRole(PAUSER_ROLE, _msgSender()), \"ST14\");\n\t\t_pause();\n\t\treturn true;\n\t}\n\n\t/**\n\t * @dev Returns to normal state.\n\t *\n\t * Requirements:\n\t *\n\t * - The contract must be paused.\n\t */\n\tfunction unpause() public virtual override returns (bool success) {\n\t\trequire(hasRole(PAUSER_ROLE, _msgSender()), \"ST15\");\n\t\t_unpause();\n\t\treturn true;\n\t}\n}\n",
  "sourcePath": "C:\\Users\\Kamlesh\\Persistence\\pStake\\codebase\\pStake-smartContracts\\contracts\\STokensV4.sol",
  "compiler": {
    "name": "solc",
    "version": "0.7.6+commit.7338295f.Emscripten.clang"
  },
  "schemaVersion": "3.4.3",
  "updatedAt": "2021-09-20T12:16:24.038Z",
  "devdoc": {
    "kind": "dev",
    "methods": {
      "allowance(address,address)": {
        "details": "See {IERC20-allowance}."
      },
      "approve(address,uint256)": {
        "details": "See {IERC20-approve}. Requirements: - `spender` cannot be the zero address."
      },
      "balanceOf(address)": {
        "details": "See {IERC20-balanceOf}."
      },
      "burn(address,uint256)": {
        "details": "Burns `amount` tokens to the caller's address `from`. Returns a boolean value indicating whether the operation succeeded. Emits a {Transfer} event."
      },
      "calculateHolderRewards(address)": {
        "details": "Calculate rewards for the provided 'address'",
        "params": {
          "to": ": account address Emits a {TriggeredCalculateRewards} event with 'to' set to address, 'reward' set to amount of tokens and 'timestamp'"
        }
      },
      "calculatePendingHolderRewards(address)": {
        "details": "Calculate pending rewards for the provided 'address'. The rate is the moving reward rate.",
        "params": {
          "to": ": account address"
        }
      },
      "calculatePendingRewards(address)": {
        "details": "Calculate pending rewards for the provided 'address'. The rate is the moving reward rate.",
        "params": {
          "to": ": account address"
        }
      },
      "calculateRewards(address)": {
        "details": "Calculate rewards for the provided 'address'",
        "params": {
          "to": ": account address Emits a {TriggeredCalculateRewards} event with 'to' set to address, 'reward' set to amount of tokens and 'timestamp'"
        }
      },
      "decimals()": {
        "details": "Returns the number of decimals used to get its user representation. For example, if `decimals` equals `2`, a balance of `505` tokens should be displayed to a user as `5,05` (`505 / 10 ** 2`). Tokens usually opt for a value of 18, imitating the relationship between Ether and Wei. This is the value {ERC20} uses, unless {_setupDecimals} is called. NOTE: This information is only used for _display_ purposes: it in no way affects any of the arithmetic of the contract, including {IERC20-balanceOf} and {IERC20-transfer}."
      },
      "decreaseAllowance(address,uint256)": {
        "details": "Atomically decreases the allowance granted to `spender` by the caller. This is an alternative to {approve} that can be used as a mitigation for problems described in {IERC20-approve}. Emits an {Approval} event indicating the updated allowance. Requirements: - `spender` cannot be the zero address. - `spender` must have allowance for the caller of at least `subtractedValue`."
      },
      "getRewardRate()": {
        "details": "get reward rate and value divisor"
      },
      "getRoleAdmin(bytes32)": {
        "details": "Returns the admin role that controls `role`. See {grantRole} and {revokeRole}. To change a role's admin, use {_setRoleAdmin}."
      },
      "getRoleMember(bytes32,uint256)": {
        "details": "Returns one of the accounts that have `role`. `index` must be a value between 0 and {getRoleMemberCount}, non-inclusive. Role bearers are not sorted in any particular way, and their ordering may change at any point. WARNING: When using {getRoleMember} and {getRoleMemberCount}, make sure you perform all queries on the same block. See the following https://forum.openzeppelin.com/t/iterating-over-elements-on-enumerableset-in-openzeppelin-contracts/2296[forum post] for more information."
      },
      "getRoleMemberCount(bytes32)": {
        "details": "Returns the number of accounts that have `role`. Can be used together with {getRoleMember} to enumerate all bearers of a role."
      },
      "getUTokenAddress()": {
        "details": "get reward rate and value divisor"
      },
      "getWhitelistData(address)": {
        "details": "Calculate pending rewards for the provided 'address'. The rate is the moving reward rate.",
        "params": {
          "whitelistedAddress": ": contract address"
        }
      },
      "grantRole(bytes32,address)": {
        "details": "Grants `role` to `account`. If `account` had not been already granted `role`, emits a {RoleGranted} event. Requirements: - the caller must have ``role``'s admin role."
      },
      "hasRole(bytes32,address)": {
        "details": "Returns `true` if `account` has been granted `role`."
      },
      "increaseAllowance(address,uint256)": {
        "details": "Atomically increases the allowance granted to `spender` by the caller. This is an alternative to {approve} that can be used as a mitigation for problems described in {IERC20-approve}. Emits an {Approval} event indicating the updated allowance. Requirements: - `spender` cannot be the zero address."
      },
      "initialize(address,address,uint256,uint256)": {
        "details": "Constructor for initializing the SToken contract.",
        "params": {
          "pauserAddress": "- address of the pauser admin.",
          "rewardRate": "- set to rewardRate * 10^-5",
          "uaddress": "- address of the UToken contract.",
          "valueDivisor": "- valueDivisor set to 10^9."
        }
      },
      "isContractWhitelisted(address)": {
        "details": "Calculate pending rewards for the provided 'address'. The rate is the moving reward rate.",
        "params": {
          "whitelistedAddress": ": whitelisted contract address"
        }
      },
      "mint(address,uint256)": {
        "details": "Mint new stokens for the provided 'address' and 'tokens'",
        "params": {
          "to": ": account address, tokens: number of tokens Emits a {MintTokens} event with 'to' set to address and 'tokens' set to amount of tokens. Requirements: - `amount` cannot be less than zero."
        }
      },
      "name()": {
        "details": "Returns the name of the token."
      },
      "pause()": {
        "details": "Triggers stopped state. Requirements: - The contract must not be paused."
      },
      "paused()": {
        "details": "Returns true if the contract is paused, and false otherwise."
      },
      "renounceRole(bytes32,address)": {
        "details": "Revokes `role` from the calling account. Roles are often managed via {grantRole} and {revokeRole}: this function's purpose is to provide a mechanism for accounts to lose their privileges if they are compromised (such as when a trusted device is misplaced). If the calling account had been granted `role`, emits a {RoleRevoked} event. Requirements: - the caller must be `account`."
      },
      "revokeRole(bytes32,address)": {
        "details": "Revokes `role` from `account`. If `account` had been granted `role`, emits a {RoleRevoked} event. Requirements: - the caller must have ``role``'s admin role."
      },
      "setLiquidStakingContract(address)": {
        "details": "Set LiquidStaking smart contract."
      },
      "setRewardRate(uint256)": {
        "details": "Sets `reward rate`. Returns a boolean value indicating whether the operation succeeded."
      },
      "setStakeLPCoreContract(address)": {
        "details": "Set LiquidStaking smart contract."
      },
      "setUTokensContract(address)": {
        "details": "Set UTokens smart contract. Emits a {SetContract} event."
      },
      "setWhitelistedAddress(address,address,address)": {
        "details": "Calculates rewards `amount` tokens to the caller's address `to`. Returns a boolean value indicating whether the operation succeeded. Emits a {TriggeredCalculateRewards} event."
      },
      "symbol()": {
        "details": "Returns the symbol of the token, usually a shorter version of the name."
      },
      "totalSupply()": {
        "details": "See {IERC20-totalSupply}."
      },
      "transfer(address,uint256)": {
        "details": "See {IERC20-transfer}. Requirements: - `recipient` cannot be the zero address. - the caller must have a balance of at least `amount`."
      },
      "transferFrom(address,address,uint256)": {
        "details": "See {IERC20-transferFrom}. Emits an {Approval} event indicating the updated allowance. This is not required by the EIP. See the note at the beginning of {ERC20}. Requirements: - `sender` and `recipient` cannot be the zero address. - `sender` must have a balance of at least `amount`. - the caller must have allowance for ``sender``'s tokens of at least `amount`."
      },
      "unpause()": {
        "details": "Returns to normal state. Requirements: - The contract must be paused."
      }
    },
    "version": 1
  },
  "userdoc": {
    "kind": "user",
    "methods": {},
    "version": 1
  }
}