{
  "contractName": "STokensV2",
  "abi": [
    {
      "anonymous": false,
      "inputs": [
        {
          "indexed": true,
          "internalType": "address",
          "name": "owner",
          "type": "address"
        },
        {
          "indexed": true,
          "internalType": "address",
          "name": "spender",
          "type": "address"
        },
        {
          "indexed": false,
          "internalType": "uint256",
          "name": "value",
          "type": "uint256"
        }
      ],
      "name": "Approval",
      "type": "event"
    },
    {
      "anonymous": false,
      "inputs": [
        {
          "indexed": true,
          "internalType": "address",
          "name": "accountAddress",
          "type": "address"
        },
        {
          "indexed": true,
          "internalType": "address",
          "name": "sTokenAddress",
          "type": "address"
        },
        {
          "indexed": true,
          "internalType": "uint256",
          "name": "tokens",
          "type": "uint256"
        },
        {
          "indexed": false,
          "internalType": "uint256",
          "name": "timestamp",
          "type": "uint256"
        }
      ],
      "name": "CalculateHolderRewards",
      "type": "event"
    },
    {
      "anonymous": false,
      "inputs": [
        {
          "indexed": true,
          "internalType": "address",
          "name": "accountAddress",
          "type": "address"
        },
        {
          "indexed": true,
          "internalType": "uint256",
          "name": "tokens",
          "type": "uint256"
        },
        {
          "indexed": false,
          "internalType": "uint256",
          "name": "timestamp",
          "type": "uint256"
        }
      ],
      "name": "CalculateRewards",
      "type": "event"
    },
    {
      "anonymous": false,
      "inputs": [
        {
          "indexed": false,
          "internalType": "address",
          "name": "account",
          "type": "address"
        }
      ],
      "name": "Paused",
      "type": "event"
    },
    {
      "anonymous": false,
      "inputs": [
        {
          "indexed": true,
          "internalType": "address",
          "name": "whitelistedAddress",
          "type": "address"
        },
        {
          "indexed": true,
          "internalType": "address",
          "name": "holderContractAddress",
          "type": "address"
        },
        {
          "indexed": true,
          "internalType": "address",
          "name": "lpContractAddress",
          "type": "address"
        },
        {
          "indexed": false,
          "internalType": "uint256",
          "name": "lastHolderRewardTimestamp",
          "type": "uint256"
        },
        {
          "indexed": false,
          "internalType": "uint256",
          "name": "timestamp",
          "type": "uint256"
        }
      ],
      "name": "RemoveWhitelistedAddress",
      "type": "event"
    },
    {
      "anonymous": false,
      "inputs": [
        {
          "indexed": true,
          "internalType": "bytes32",
          "name": "role",
          "type": "bytes32"
        },
        {
          "indexed": true,
          "internalType": "bytes32",
          "name": "previousAdminRole",
          "type": "bytes32"
        },
        {
          "indexed": true,
          "internalType": "bytes32",
          "name": "newAdminRole",
          "type": "bytes32"
        }
      ],
      "name": "RoleAdminChanged",
      "type": "event"
    },
    {
      "anonymous": false,
      "inputs": [
        {
          "indexed": true,
          "internalType": "bytes32",
          "name": "role",
          "type": "bytes32"
        },
        {
          "indexed": true,
          "internalType": "address",
          "name": "account",
          "type": "address"
        },
        {
          "indexed": true,
          "internalType": "address",
          "name": "sender",
          "type": "address"
        }
      ],
      "name": "RoleGranted",
      "type": "event"
    },
    {
      "anonymous": false,
      "inputs": [
        {
          "indexed": true,
          "internalType": "bytes32",
          "name": "role",
          "type": "bytes32"
        },
        {
          "indexed": true,
          "internalType": "address",
          "name": "account",
          "type": "address"
        },
        {
          "indexed": true,
          "internalType": "address",
          "name": "sender",
          "type": "address"
        }
      ],
      "name": "RoleRevoked",
      "type": "event"
    },
    {
      "anonymous": false,
      "inputs": [
        {
          "indexed": true,
          "internalType": "address",
          "name": "_contract",
          "type": "address"
        }
      ],
      "name": "SetLiquidStakingContract",
      "type": "event"
    },
    {
      "anonymous": false,
      "inputs": [
        {
          "indexed": true,
          "internalType": "uint256",
          "name": "rewardRate",
          "type": "uint256"
        }
      ],
      "name": "SetRewardRate",
      "type": "event"
    },
    {
      "anonymous": false,
      "inputs": [
        {
          "indexed": true,
          "internalType": "address",
          "name": "_contract",
          "type": "address"
        }
      ],
      "name": "SetUTokensContract",
      "type": "event"
    },
    {
      "anonymous": false,
      "inputs": [
        {
          "indexed": true,
          "internalType": "address",
          "name": "whitelistedAddress",
          "type": "address"
        },
        {
          "indexed": true,
          "internalType": "address",
          "name": "holderContractAddress",
          "type": "address"
        },
        {
          "indexed": true,
          "internalType": "address",
          "name": "lpContractAddress",
          "type": "address"
        },
        {
          "indexed": false,
          "internalType": "uint256",
          "name": "timestamp",
          "type": "uint256"
        }
      ],
      "name": "SetWhitelistedAddress",
      "type": "event"
    },
    {
      "anonymous": false,
      "inputs": [
        {
          "indexed": true,
          "internalType": "address",
          "name": "_contract",
          "type": "address"
        }
      ],
      "name": "SetWhitelistedEmissionContract",
      "type": "event"
    },
    {
      "anonymous": false,
      "inputs": [
        {
          "indexed": true,
          "internalType": "address",
          "name": "from",
          "type": "address"
        },
        {
          "indexed": true,
          "internalType": "address",
          "name": "to",
          "type": "address"
        },
        {
          "indexed": false,
          "internalType": "uint256",
          "name": "value",
          "type": "uint256"
        }
      ],
      "name": "Transfer",
      "type": "event"
    },
    {
      "anonymous": false,
      "inputs": [
        {
          "indexed": true,
          "internalType": "address",
          "name": "accountAddress",
          "type": "address"
        },
        {
          "indexed": true,
          "internalType": "address",
          "name": "sTokenAddress",
          "type": "address"
        },
        {
          "indexed": true,
          "internalType": "uint256",
          "name": "tokens",
          "type": "uint256"
        },
        {
          "indexed": false,
          "internalType": "uint256",
          "name": "timestamp",
          "type": "uint256"
        }
      ],
      "name": "TriggeredCalculateHolderRewards",
      "type": "event"
    },
    {
      "anonymous": false,
      "inputs": [
        {
          "indexed": true,
          "internalType": "address",
          "name": "accountAddress",
          "type": "address"
        },
        {
          "indexed": true,
          "internalType": "uint256",
          "name": "tokens",
          "type": "uint256"
        },
        {
          "indexed": false,
          "internalType": "uint256",
          "name": "timestamp",
          "type": "uint256"
        }
      ],
      "name": "TriggeredCalculateRewards",
      "type": "event"
    },
    {
      "anonymous": false,
      "inputs": [
        {
          "indexed": false,
          "internalType": "address",
          "name": "account",
          "type": "address"
        }
      ],
      "name": "Unpaused",
      "type": "event"
    },
    {
      "inputs": [],
      "name": "DEFAULT_ADMIN_ROLE",
      "outputs": [
        {
          "internalType": "bytes32",
          "name": "",
          "type": "bytes32"
        }
      ],
      "stateMutability": "view",
      "type": "function"
    },
    {
      "inputs": [],
      "name": "PAUSER_ROLE",
      "outputs": [
        {
          "internalType": "bytes32",
          "name": "",
          "type": "bytes32"
        }
      ],
      "stateMutability": "view",
      "type": "function"
    },
    {
      "inputs": [
        {
          "internalType": "address",
          "name": "",
          "type": "address"
        }
      ],
      "name": "_holderContractAddress",
      "outputs": [
        {
          "internalType": "address",
          "name": "",
          "type": "address"
        }
      ],
      "stateMutability": "view",
      "type": "function"
    },
    {
      "inputs": [
        {
          "internalType": "address",
          "name": "",
          "type": "address"
        }
      ],
      "name": "_lastHolderRewardTimestamp",
      "outputs": [
        {
          "internalType": "uint256",
          "name": "",
          "type": "uint256"
        }
      ],
      "stateMutability": "view",
      "type": "function"
    },
    {
      "inputs": [
        {
          "internalType": "address",
          "name": "",
          "type": "address"
        }
      ],
      "name": "_lastUserRewardTimestamp",
      "outputs": [
        {
          "internalType": "uint256",
          "name": "",
          "type": "uint256"
        }
      ],
      "stateMutability": "view",
      "type": "function"
    },
    {
      "inputs": [],
      "name": "_liquidStakingContract",
      "outputs": [
        {
          "internalType": "address",
          "name": "",
          "type": "address"
        }
      ],
      "stateMutability": "view",
      "type": "function"
    },
    {
      "inputs": [
        {
          "internalType": "address",
          "name": "",
          "type": "address"
        }
      ],
      "name": "_lpContractAddress",
      "outputs": [
        {
          "internalType": "address",
          "name": "",
          "type": "address"
        }
      ],
      "stateMutability": "view",
      "type": "function"
    },
    {
      "inputs": [],
      "name": "_uTokens",
      "outputs": [
        {
          "internalType": "contract IUTokensV2",
          "name": "",
          "type": "address"
        }
      ],
      "stateMutability": "view",
      "type": "function"
    },
    {
      "inputs": [],
      "name": "_valueDivisor",
      "outputs": [
        {
          "internalType": "uint256",
          "name": "",
          "type": "uint256"
        }
      ],
      "stateMutability": "view",
      "type": "function"
    },
    {
      "inputs": [],
      "name": "_version",
      "outputs": [
        {
          "internalType": "uint256",
          "name": "",
          "type": "uint256"
        }
      ],
      "stateMutability": "view",
      "type": "function"
    },
    {
      "inputs": [
        {
          "internalType": "address",
          "name": "owner",
          "type": "address"
        },
        {
          "internalType": "address",
          "name": "spender",
          "type": "address"
        }
      ],
      "name": "allowance",
      "outputs": [
        {
          "internalType": "uint256",
          "name": "",
          "type": "uint256"
        }
      ],
      "stateMutability": "view",
      "type": "function"
    },
    {
      "inputs": [
        {
          "internalType": "address",
          "name": "spender",
          "type": "address"
        },
        {
          "internalType": "uint256",
          "name": "amount",
          "type": "uint256"
        }
      ],
      "name": "approve",
      "outputs": [
        {
          "internalType": "bool",
          "name": "",
          "type": "bool"
        }
      ],
      "stateMutability": "nonpayable",
      "type": "function"
    },
    {
      "inputs": [
        {
          "internalType": "address",
          "name": "account",
          "type": "address"
        }
      ],
      "name": "balanceOf",
      "outputs": [
        {
          "internalType": "uint256",
          "name": "",
          "type": "uint256"
        }
      ],
      "stateMutability": "view",
      "type": "function"
    },
    {
      "inputs": [],
      "name": "decimals",
      "outputs": [
        {
          "internalType": "uint8",
          "name": "",
          "type": "uint8"
        }
      ],
      "stateMutability": "view",
      "type": "function"
    },
    {
      "inputs": [
        {
          "internalType": "address",
          "name": "spender",
          "type": "address"
        },
        {
          "internalType": "uint256",
          "name": "subtractedValue",
          "type": "uint256"
        }
      ],
      "name": "decreaseAllowance",
      "outputs": [
        {
          "internalType": "bool",
          "name": "",
          "type": "bool"
        }
      ],
      "stateMutability": "nonpayable",
      "type": "function"
    },
    {
      "inputs": [
        {
          "internalType": "bytes32",
          "name": "role",
          "type": "bytes32"
        }
      ],
      "name": "getRoleAdmin",
      "outputs": [
        {
          "internalType": "bytes32",
          "name": "",
          "type": "bytes32"
        }
      ],
      "stateMutability": "view",
      "type": "function"
    },
    {
      "inputs": [
        {
          "internalType": "bytes32",
          "name": "role",
          "type": "bytes32"
        },
        {
          "internalType": "uint256",
          "name": "index",
          "type": "uint256"
        }
      ],
      "name": "getRoleMember",
      "outputs": [
        {
          "internalType": "address",
          "name": "",
          "type": "address"
        }
      ],
      "stateMutability": "view",
      "type": "function"
    },
    {
      "inputs": [
        {
          "internalType": "bytes32",
          "name": "role",
          "type": "bytes32"
        }
      ],
      "name": "getRoleMemberCount",
      "outputs": [
        {
          "internalType": "uint256",
          "name": "",
          "type": "uint256"
        }
      ],
      "stateMutability": "view",
      "type": "function"
    },
    {
      "inputs": [
        {
          "internalType": "bytes32",
          "name": "role",
          "type": "bytes32"
        },
        {
          "internalType": "address",
          "name": "account",
          "type": "address"
        }
      ],
      "name": "grantRole",
      "outputs": [],
      "stateMutability": "nonpayable",
      "type": "function"
    },
    {
      "inputs": [
        {
          "internalType": "bytes32",
          "name": "role",
          "type": "bytes32"
        },
        {
          "internalType": "address",
          "name": "account",
          "type": "address"
        }
      ],
      "name": "hasRole",
      "outputs": [
        {
          "internalType": "bool",
          "name": "",
          "type": "bool"
        }
      ],
      "stateMutability": "view",
      "type": "function"
    },
    {
      "inputs": [
        {
          "internalType": "address",
          "name": "spender",
          "type": "address"
        },
        {
          "internalType": "uint256",
          "name": "addedValue",
          "type": "uint256"
        }
      ],
      "name": "increaseAllowance",
      "outputs": [
        {
          "internalType": "bool",
          "name": "",
          "type": "bool"
        }
      ],
      "stateMutability": "nonpayable",
      "type": "function"
    },
    {
      "inputs": [],
      "name": "name",
      "outputs": [
        {
          "internalType": "string",
          "name": "",
          "type": "string"
        }
      ],
      "stateMutability": "view",
      "type": "function"
    },
    {
      "inputs": [],
      "name": "paused",
      "outputs": [
        {
          "internalType": "bool",
          "name": "",
          "type": "bool"
        }
      ],
      "stateMutability": "view",
      "type": "function"
    },
    {
      "inputs": [
        {
          "internalType": "bytes32",
          "name": "role",
          "type": "bytes32"
        },
        {
          "internalType": "address",
          "name": "account",
          "type": "address"
        }
      ],
      "name": "renounceRole",
      "outputs": [],
      "stateMutability": "nonpayable",
      "type": "function"
    },
    {
      "inputs": [
        {
          "internalType": "bytes32",
          "name": "role",
          "type": "bytes32"
        },
        {
          "internalType": "address",
          "name": "account",
          "type": "address"
        }
      ],
      "name": "revokeRole",
      "outputs": [],
      "stateMutability": "nonpayable",
      "type": "function"
    },
    {
      "inputs": [],
      "name": "symbol",
      "outputs": [
        {
          "internalType": "string",
          "name": "",
          "type": "string"
        }
      ],
      "stateMutability": "view",
      "type": "function"
    },
    {
      "inputs": [],
      "name": "totalSupply",
      "outputs": [
        {
          "internalType": "uint256",
          "name": "",
          "type": "uint256"
        }
      ],
      "stateMutability": "view",
      "type": "function"
    },
    {
      "inputs": [
        {
          "internalType": "address",
          "name": "recipient",
          "type": "address"
        },
        {
          "internalType": "uint256",
          "name": "amount",
          "type": "uint256"
        }
      ],
      "name": "transfer",
      "outputs": [
        {
          "internalType": "bool",
          "name": "",
          "type": "bool"
        }
      ],
      "stateMutability": "nonpayable",
      "type": "function"
    },
    {
      "inputs": [
        {
          "internalType": "address",
          "name": "sender",
          "type": "address"
        },
        {
          "internalType": "address",
          "name": "recipient",
          "type": "address"
        },
        {
          "internalType": "uint256",
          "name": "amount",
          "type": "uint256"
        }
      ],
      "name": "transferFrom",
      "outputs": [
        {
          "internalType": "bool",
          "name": "",
          "type": "bool"
        }
      ],
      "stateMutability": "nonpayable",
      "type": "function"
    },
    {
      "inputs": [
        {
          "internalType": "address",
          "name": "uaddress",
          "type": "address"
        },
        {
          "internalType": "address",
          "name": "pauserAddress",
          "type": "address"
        },
        {
          "internalType": "uint256",
          "name": "rewardRate",
          "type": "uint256"
        },
        {
          "internalType": "uint256",
          "name": "valueDivisor",
          "type": "uint256"
        }
      ],
      "name": "initialize",
      "outputs": [],
      "stateMutability": "nonpayable",
      "type": "function"
    },
    {
      "inputs": [
        {
          "internalType": "address",
          "name": "whitelistedAddress",
          "type": "address"
        }
      ],
      "name": "isContractWhitelisted",
      "outputs": [
        {
          "internalType": "bool",
          "name": "result",
          "type": "bool"
        }
      ],
      "stateMutability": "view",
      "type": "function"
    },
    {
      "inputs": [
        {
          "internalType": "address",
          "name": "whitelistedAddress",
          "type": "address"
        }
      ],
      "name": "getWhitelistData",
      "outputs": [
        {
          "internalType": "address",
          "name": "holderAddress",
          "type": "address"
        },
        {
          "internalType": "address",
          "name": "lpAddress",
          "type": "address"
        },
        {
          "internalType": "address",
          "name": "uTokenAddress",
          "type": "address"
        },
        {
          "internalType": "uint256",
          "name": "lastHolderRewardTimestamp",
          "type": "uint256"
        }
      ],
      "stateMutability": "view",
      "type": "function"
    },
    {
      "inputs": [],
      "name": "getUTokenAddress",
      "outputs": [
        {
          "internalType": "address",
          "name": "uTokenAddress",
          "type": "address"
        }
      ],
      "stateMutability": "view",
      "type": "function"
    },
    {
      "inputs": [
        {
          "internalType": "uint256",
          "name": "rewardRate",
          "type": "uint256"
        }
      ],
      "name": "setRewardRate",
      "outputs": [
        {
          "internalType": "bool",
          "name": "success",
          "type": "bool"
        }
      ],
      "stateMutability": "nonpayable",
      "type": "function"
    },
    {
      "inputs": [],
      "name": "getRewardRate",
      "outputs": [
        {
          "internalType": "uint256[]",
          "name": "rewardRate",
          "type": "uint256[]"
        },
        {
          "internalType": "uint256[]",
          "name": "lastMovingRewardTimestamp",
          "type": "uint256[]"
        },
        {
          "internalType": "uint256",
          "name": "valueDivisor",
          "type": "uint256"
        }
      ],
      "stateMutability": "view",
      "type": "function"
    },
    {
      "inputs": [
        {
          "internalType": "address",
          "name": "to",
          "type": "address"
        },
        {
          "internalType": "uint256",
          "name": "tokens",
          "type": "uint256"
        }
      ],
      "name": "mint",
      "outputs": [
        {
          "internalType": "bool",
          "name": "",
          "type": "bool"
        }
      ],
      "stateMutability": "nonpayable",
      "type": "function"
    },
    {
      "inputs": [
        {
          "internalType": "address",
          "name": "from",
          "type": "address"
        },
        {
          "internalType": "uint256",
          "name": "tokens",
          "type": "uint256"
        }
      ],
      "name": "burn",
      "outputs": [
        {
          "internalType": "bool",
          "name": "",
          "type": "bool"
        }
      ],
      "stateMutability": "nonpayable",
      "type": "function"
    },
    {
      "inputs": [
        {
          "internalType": "address",
          "name": "to",
          "type": "address"
        }
      ],
      "name": "calculatePendingRewards",
      "outputs": [
        {
          "internalType": "uint256",
          "name": "pendingRewards",
          "type": "uint256"
        }
      ],
      "stateMutability": "view",
      "type": "function"
    },
    {
      "inputs": [
        {
          "internalType": "address",
          "name": "to",
          "type": "address"
        }
      ],
      "name": "calculateRewards",
      "outputs": [
        {
          "internalType": "uint256",
          "name": "reward",
          "type": "uint256"
        }
      ],
      "stateMutability": "nonpayable",
      "type": "function"
    },
    {
      "inputs": [
        {
          "internalType": "address",
          "name": "to",
          "type": "address"
        }
      ],
      "name": "calculatePendingHolderRewards",
      "outputs": [
        {
          "internalType": "uint256",
          "name": "pendingRewards",
          "type": "uint256"
        },
        {
          "internalType": "address",
          "name": "holderAddress",
          "type": "address"
        },
        {
          "internalType": "address",
          "name": "lpAddress",
          "type": "address"
        }
      ],
      "stateMutability": "view",
      "type": "function"
    },
    {
      "inputs": [
        {
          "internalType": "address",
          "name": "to",
          "type": "address"
        }
      ],
      "name": "calculateHolderRewards",
      "outputs": [
        {
          "internalType": "uint256",
          "name": "rewards",
          "type": "uint256"
        }
      ],
      "stateMutability": "nonpayable",
      "type": "function"
    },
    {
      "inputs": [
        {
          "internalType": "address",
          "name": "whitelistedEmission",
          "type": "address"
        }
      ],
      "name": "setWhitelistedEmissionContract",
      "outputs": [],
      "stateMutability": "nonpayable",
      "type": "function"
    },
    {
      "inputs": [
        {
          "internalType": "address",
          "name": "whitelistedAddress",
          "type": "address"
        },
        {
          "internalType": "address",
          "name": "holderContractAddress",
          "type": "address"
        },
        {
          "internalType": "address",
          "name": "lpContractAddress",
          "type": "address"
        }
      ],
      "name": "setWhitelistedAddress",
      "outputs": [
        {
          "internalType": "bool",
          "name": "success",
          "type": "bool"
        }
      ],
      "stateMutability": "nonpayable",
      "type": "function"
    },
    {
      "inputs": [
        {
          "internalType": "address",
          "name": "whitelistedAddress",
          "type": "address"
        }
      ],
      "name": "removeWhitelistedAddress",
      "outputs": [
        {
          "internalType": "bool",
          "name": "success",
          "type": "bool"
        }
      ],
      "stateMutability": "nonpayable",
      "type": "function"
    },
    {
      "inputs": [
        {
          "internalType": "address",
          "name": "uTokenContract",
          "type": "address"
        }
      ],
      "name": "setUTokensContract",
      "outputs": [],
      "stateMutability": "nonpayable",
      "type": "function"
    },
    {
      "inputs": [
        {
          "internalType": "address",
          "name": "liquidStakingContract",
          "type": "address"
        }
      ],
      "name": "setLiquidStakingContract",
      "outputs": [],
      "stateMutability": "nonpayable",
      "type": "function"
    },
    {
      "inputs": [],
      "name": "pause",
      "outputs": [
        {
          "internalType": "bool",
          "name": "success",
          "type": "bool"
        }
      ],
      "stateMutability": "nonpayable",
      "type": "function"
    },
    {
      "inputs": [],
      "name": "unpause",
      "outputs": [
        {
          "internalType": "bool",
          "name": "success",
          "type": "bool"
        }
      ],
      "stateMutability": "nonpayable",
      "type": "function"
    }
  ],
  "bytecode": "0x608060405234801561001057600080fd5b50613495806100206000396000f3fe608060405234801561001057600080fd5b50600436106102a05760003560e01c8063728a99ee11610167578063a457c2d7116100ce578063d547741f11610087578063d547741f14610943578063da6b7ec71461096f578063dd62ed3e14610995578063e63ab1e9146109c3578063e8424f20146109cb578063eb990c59146109f1576102a0565b8063a457c2d71461085c578063a9059cbb14610888578063b3e597b0146108b4578063b8ecc2a9146108da578063c057058a14610900578063ca15c87314610926576102a0565b806391d148541161012057806391d148541461078957806395d89b41146107b55780639dc29fac146107bd5780639e447fc6146107e9578063a203ccf814610806578063a217fddf14610854576102a0565b8063728a99ee1461069e57806378a2f074146106a6578063793105d8146106ae5780637e1a3786146106b65780638456cb591461075e5780639010d07c14610766576102a0565b80633d9e0c051161020b578063530cd5ab116101c4578063530cd5ab146105a357806358f8943e146105c95780635c975abb146105ef57806364ab8675146105f757806368aa98131461061d57806370a0823114610678576102a0565b80633d9e0c05146104e55780633e118dbe146105095780633f4ba83a146105115780633f7398a81461051957806340c10f191461053f5780634bcb30f81461056b576102a0565b8063248a9ca31161025d578063248a9ca31461040057806326d6772e1461041d5780632f2ff15d14610443578063313ce5671461046f57806336568abe1461048d57806339509351146104b9576102a0565b806306fdde03146102a5578063095ea7b314610322578063097aad101461036257806318160ddd1461039a57806321bdf9e5146103a257806323b872dd146103ca575b600080fd5b6102ad610a2d565b6040805160208082528351818301528351919283929083019185019080838360005b838110156102e75781810151838201526020016102cf565b50505050905090810190601f1680156103145780820380516001836020036101000a031916815260200191505b509250505060405180910390f35b61034e6004803603604081101561033857600080fd5b506001600160a01b038135169060200135610ac3565b604080519115158252519081900360200190f35b6103886004803603602081101561037857600080fd5b50356001600160a01b0316610ae1565b60408051918252519081900360200190f35b610388610b1a565b6103c8600480360360208110156103b857600080fd5b50356001600160a01b0316610b20565b005b61034e600480360360608110156103e057600080fd5b506001600160a01b03813581169160208101359091169060400135610bb3565b6103886004803603602081101561041657600080fd5b5035610c3b565b6103886004803603602081101561043357600080fd5b50356001600160a01b0316610c50565b6103c86004803603604081101561045957600080fd5b50803590602001356001600160a01b0316610cf2565b610477610d59565b6040805160ff9092168252519081900360200190f35b6103c8600480360360408110156104a357600080fd5b50803590602001356001600160a01b0316610d62565b61034e600480360360408110156104cf57600080fd5b506001600160a01b038135169060200135610dc3565b6104ed610e11565b604080516001600160a01b039092168252519081900360200190f35b610388610e20565b61034e610e26565b6104ed6004803603602081101561052f57600080fd5b50356001600160a01b0316610e8a565b61034e6004803603604081101561055557600080fd5b506001600160a01b038135169060200135610ea5565b61034e6004803603606081101561058157600080fd5b506001600160a01b038135811691602081013582169160409091013516610f07565b61034e600480360360208110156105b957600080fd5b50356001600160a01b0316611049565b6103c8600480360360208110156105df57600080fd5b50356001600160a01b03166111ac565b61034e61123a565b6103886004803603602081101561060d57600080fd5b50356001600160a01b0316611243565b6106436004803603602081101561063357600080fd5b50356001600160a01b0316611351565b604080516001600160a01b03958616815293851660208501529190931682820152606082019290925290519081900360800190f35b6103886004803603602081101561068e57600080fd5b50356001600160a01b03166113be565b6103886113d9565b6104ed6113df565b6104ed6113ee565b6106be6113fd565b604051808060200180602001848152602001838103835286818151815260200191508051906020019060200280838360005b838110156107085781810151838201526020016106f0565b50505050905001838103825285818151815260200191508051906020019060200280838360005b8381101561074757818101518382015260200161072f565b505050509050019550505050505060405180910390f35b61034e6114b2565b6104ed6004803603604081101561077c57600080fd5b5080359060200135611510565b61034e6004803603604081101561079f57600080fd5b50803590602001356001600160a01b0316611528565b6102ad611540565b61034e600480360360408110156107d357600080fd5b506001600160a01b0381351690602001356115a1565b61034e600480360360208110156107ff57600080fd5b5035611603565b61082c6004803603602081101561081c57600080fd5b50356001600160a01b031661172d565b604080519384526001600160a01b039283166020850152911682820152519081900360600190f35b61038861187b565b61034e6004803603604081101561087257600080fd5b506001600160a01b038135169060200135611880565b61034e6004803603604081101561089e57600080fd5b506001600160a01b0381351690602001356118e8565b610388600480360360208110156108ca57600080fd5b50356001600160a01b03166118fc565b610388600480360360208110156108f057600080fd5b50356001600160a01b031661190e565b61034e6004803603602081101561091657600080fd5b50356001600160a01b0316611920565b6103886004803603602081101561093c57600080fd5b503561192d565b6103c86004803603604081101561095957600080fd5b50803590602001356001600160a01b0316611944565b6104ed6004803603602081101561098557600080fd5b50356001600160a01b031661199d565b610388600480360360408110156109ab57600080fd5b506001600160a01b03813581169160200135166119b8565b6103886119e3565b6103c8600480360360208110156109e157600080fd5b50356001600160a01b03166119f5565b6103c860048036036080811015610a0757600080fd5b506001600160a01b03813581169160208101359091169060408101359060600135611a86565b60368054604080516020601f6002600019610100600188161502019095169490940493840181900481028201810190925282815260609390929091830182828015610ab95780601f10610a8e57610100808354040283529160200191610ab9565b820191906000526020600020905b815481529060010190602001808311610a9c57829003601f168201915b5050505050905090565b6000610ad7610ad0611c79565b8484611c7d565b5060015b92915050565b6001600160a01b038116600090815260d3602052604081205481610b04846113be565b9050610b108183611d69565b925050505b919050565b60355490565b610b326000610b2d611c79565b611528565b610b69576040805162461bcd60e51b81526020600482015260036024820152620a6a8760eb1b604482015290519081900360640190fd5b60cf80546001600160a01b0319166001600160a01b0383169081179091556040517ff745c285f36f88bea6af14d4d0f33dd9350cef7895216c1615b1caaee7857e0c90600090a250565b6000610bc0848484611f8b565b610c3084610bcc611c79565b610c2b8560405180606001604052806028815260200161335a602891396001600160a01b038a16600090815260346020526040812090610c0a611c79565b6001600160a01b0316815260208101919091526040016000205491906120e8565b611c7d565b5060015b9392505050565b60009081526097602052604090206002015490565b6000610c5a61123a565b15610c9f576040805162461bcd60e51b815260206004820152601060248201526f14185d5cd8589b194e881c185d5cd95960821b604482015290519081900360640190fd5b610ca88261217f565b604080514281529051919250829130916001600160a01b038616917f59171ee3218236d503002f8e5832f4d7403458f65211bc049ae68a480980fcec9181900360200190a4919050565b600082815260976020526040902060020154610d1090610b2d611c79565b610d4b5760405162461bcd60e51b815260040180806020018281038252602f815260200180613242602f913960400191505060405180910390fd5b610d558282612312565b5050565b60385460ff1690565b610d6a611c79565b6001600160a01b0316816001600160a01b031614610db95760405162461bcd60e51b815260040180806020018281038252602f815260200180613431602f913960400191505060405180910390fd5b610d55828261237b565b6000610ad7610dd0611c79565b84610c2b8560346000610de1611c79565b6001600160a01b03908116825260208083019390935260409182016000908120918c1681529252902054906123e4565b60cf546001600160a01b031690565b60d45481565b6000610e42600080516020613382833981519152610b2d611c79565b610e7c576040805162461bcd60e51b815260206004808301919091526024820152635354313760e01b604482015290519081900360640190fd5b610e8461243e565b50600190565b60cb602052600090815260409020546001600160a01b031681565b60ce546000906001600160a01b0316610ebc611c79565b6001600160a01b031614610efd576040805162461bcd60e51b815260206004820152600360248201526253543360e81b604482015290519081900360640190fd5b610ad783836124de565b60d5546000906001600160a01b0316610f1e611c79565b6001600160a01b031614610f62576040805162461bcd60e51b8152602060048083019190915260248201526329aa189960e11b604482015290519081900360640190fd5b6001600160a01b038416610fa6576040805162461bcd60e51b815260206004808301919091526024820152635354313360e01b604482015290519081900360640190fd5b610fb160c9856125d0565b610fc257610fc060c9856125e5565b505b6001600160a01b03808516600081815260cb602090815260408083208054868a166001600160a01b0319918216811790925560cc8452938290208054968916969094168617909355805142815290519293927f82ed35aaa6afc6ef1f698fbb8532bfa0a40ac98e0a5157a330a43ac1715cc199929181900390910190a45060019392505050565b60d5546000906001600160a01b0316611060611c79565b6001600160a01b0316146110a4576040805162461bcd60e51b8152602060048083019190915260248201526314d50c4d60e21b604482015290519081900360640190fd5b6001600160a01b0382166110e8576040805162461bcd60e51b815260206004808301919091526024820152635354313560e01b604482015290519081900360640190fd5b6110f360c9836125fa565b506001600160a01b03808316600081815260cc602090815260408083205460cb83528184205460cd84529382902054825190815242938101939093528151908616959390931693927fd042a0e13284c2c3252f6bee9de1c982090863207a3eccfcd551f350d60383bb9281900390910190a4506001600160a01b0316600090815260cb6020908152604080832080546001600160a01b031990811690915560cc83528184208054909116905560cd909152812055600190565b6111b96000610b2d611c79565b6111f0576040805162461bcd60e51b815260206004820152600360248201526253543960e81b604482015290519081900360640190fd5b60ce80546001600160a01b0319166001600160a01b0383169081179091556040517f57fded54c0f01b7b2c662bd89530d6916e48149e02da384db87d1a67306be87190600090a250565b60655460ff1690565b600061124d61123a565b15611292576040805162461bcd60e51b815260206004820152601060248201526f14185d5cd8589b194e881c185d5cd95960821b604482015290519081900360640190fd5b600061129f60c9846125d0565b90506112a9611c79565b6001600160a01b0316836001600160a01b03161480156112c7575080155b6112fe576040805162461bcd60e51b815260206004820152600360248201526253543560e81b604482015290519081900360640190fd5b6113078361260f565b915081836001600160a01b03167fd0194489832efa41a56f4a4add6fbbe260998cbcff0b43c953af28b545ca7a01426040518082815260200191505060405180910390a350919050565b6001600160a01b03808216600090815260cb602090815260408083205460cc83528184205460cd909352908320549084169391909116919083158061139d57506001600160a01b038316155b6113b25760cf546001600160a01b03166113b5565b60005b91509193509193565b6001600160a01b031660009081526033602052604090205490565b60d25481565b60cf546001600160a01b031681565b60ce546001600160a01b031681565b606080600060d080548060200260200160405190810160405280929190818152602001828054801561144e57602002820191906000526020600020905b81548152602001906001019080831161143a575b5050505050925060d18054806020026020016040519081016040528092919081815260200182805480156114a157602002820191906000526020600020905b81548152602001906001019080831161148d575b5050505050915060d2549050909192565b60006114ce600080516020613382833981519152610b2d611c79565b611508576040805162461bcd60e51b8152602060048083019190915260248201526329aa189b60e11b604482015290519081900360640190fd5b610e84612713565b6000828152609760205260408120610c349083612796565b6000828152609760205260408120610c3490836125d0565b60378054604080516020601f6002600019610100600188161502019095169490940493840181900481028201810190925282815260609390929091830182828015610ab95780601f10610a8e57610100808354040283529160200191610ab9565b60ce546000906001600160a01b03166115b8611c79565b6001600160a01b0316146115f9576040805162461bcd60e51b815260206004820152600360248201526214d50d60ea1b604482015290519081900360640190fd5b610ad783836127a2565b60d25460009061161490606461289e565b821115611651576040805162461bcd60e51b815260206004808301919091526024820152630a6a862760e31b604482015290519081900360640190fd5b61165e6000610b2d611c79565b611695576040805162461bcd60e51b815260206004820152600360248201526229aa1960e91b604482015290519081900360640190fd5b60d0805460018181019092557fe89d44c8fd6a9bac8af33ce47f56337617d449bf7ff3956b618c646de829cbcb0183905560d1805491820181556000908152427f695fb3134ad82c3b8022bc5464edd0bcc9424ef672b52245dcb6ab2374327ce39092019190915560405183917f1946fb78c7ca778b54d82cabaac5ba67cf446f58d0ff1f8ceaebb6150e54e44f91a2506001919050565b6000808061173c60c9856125d0565b801561176157506001600160a01b03848116600090815260cb60205260409020541615155b801561178657506001600160a01b03848116600090815260cc60205260409020541615155b15611874576001600160a01b03808516600081815260cb6020908152604080832054815163a4fbfa8560e01b8152600481019590955230602486015290519294169263a4fbfa859260448083019392829003018186803b1580156117e957600080fd5b505afa1580156117fd573d6000803e3d6000fd5b505050506040513d602081101561181357600080fd5b505190508015611872576001600160a01b038516600090815260cd6020526040902054611841908290611d69565b6001600160a01b03808716600090815260cb602090815260408083205460cc90925290912054929650811694501691505b505b9193909250565b600081565b6000610ad761188d611c79565b84610c2b8560405180606001604052806025815260200161340c60259139603460006118b7611c79565b6001600160a01b03908116825260208083019390935260409182016000908120918d168152925290205491906120e8565b6000610ad76118f5611c79565b8484611f8b565b60d36020526000908152604090205481565b60cd6020526000908152604090205481565b6000610adb60c9836125d0565b6000818152609760205260408120610adb906128f7565b60008281526097602052604090206002015461196290610b2d611c79565b610db95760405162461bcd60e51b81526004018080602001828103825260308152602001806132db6030913960400191505060405180910390fd5b60cc602052600090815260409020546001600160a01b031681565b6001600160a01b03918216600090815260346020908152604080832093909416825291909152205490565b60008051602061338283398151915281565b611a026000610b2d611c79565b611a3c576040805162461bcd60e51b815260206004808301919091526024820152635354313160e01b604482015290519081900360640190fd5b60d580546001600160a01b0319166001600160a01b0383169081179091556040517ffd6dc112f4647a0793b7081bbf8aedeb4d45f9eab61e57ec21a0693494b0eed090600090a250565b600054610100900460ff1680611a9f5750611a9f612902565b80611aad575060005460ff16155b611ae85760405162461bcd60e51b815260040180806020018281038252602e81526020018061330b602e913960400191505060405180910390fd5b600054610100900460ff16158015611b13576000805460ff1961ff0019909116610100171660011790555b611b6660405180604001604052806012815260200171705354414b45205374616b65642041544f4d60701b8152506040518060400160405280600781526020016673746b41544f4d60c81b815250612913565b611b6e6129c9565b611b76612a7b565b611b886000611b83611c79565b610d4b565b611ba060008051602061338283398151915285610d4b565b611ba985610b20565b60d2829055611bb982606461289e565b831115611bf3576040805162461bcd60e51b815260206004820152600360248201526253543160e81b604482015290519081900360640190fd5b60d0805460018181019092557fe89d44c8fd6a9bac8af33ce47f56337617d449bf7ff3956b618c646de829cbcb0184905560d180549182018155600052427f695fb3134ad82c3b8022bc5464edd0bcc9424ef672b52245dcb6ab2374327ce390910155611c606006612b18565b8015611c72576000805461ff00191690555b5050505050565b3390565b6001600160a01b038316611cc25760405162461bcd60e51b81526004018080602001828103825260248152602001806133e86024913960400191505060405180910390fd5b6001600160a01b038216611d075760405162461bcd60e51b81526004018080602001828103825260228152602001806132936022913960400191505060405180910390fd5b6001600160a01b03808416600081815260346020908152604080832094871680845294825291829020859055815185815291517f8c5be1e5ebec7d5bd14f71427d1e84f3dd0314c0f7b2291e5b200ac8c7c3b9259281900390910190a3505050565b600080808080861580611d835750611d814287612b2e565b155b15611d95576000945050505050610adb565b60d154600090611da6906001612b2e565b90508094505b60d154611dba906001612b2e565b851015611ed3578660d18681548110611dcf57fe5b90600052602060002001541115611e7f57611e2c60d18681548110611df057fe5b60009182526020909120015460d1611e098860016123e4565b81548110611e1357fe5b9060005260206000200154612b2e90919063ffffffff16565b9350611e5360d08681548110611e3e57fe5b60009182526020909120015489906064612b8b565b9150611e6c8460d25484612b8b9092919063ffffffff16565b9250611e7886846123e4565b9550611ece565b611e908760d1611e098860016123e4565b9350611ea260d08681548110611e3e57fe5b9150611ebb8460d25484612b8b9092919063ffffffff16565b9250611ec786846123e4565b9550611f80565b611f64565b8660d18681548110611ee157fe5b90600052602060002001541115611f5a57611f1c60d18681548110611f0257fe5b906000526020600020015442612b2e90919063ffffffff16565b9350611f2e60d08681548110611e3e57fe5b9150611f478460d25484612b8b9092919063ffffffff16565b9250611f5386846123e4565b9550611f64565b611e904288612b2e565b84611f6e57611f80565b611f79856001612b2e565b9450611dac565b505050505092915050565b6001600160a01b038316611fd05760405162461bcd60e51b81526004018080602001828103825260258152602001806133c36025913960400191505060405180910390fd5b6001600160a01b0382166120155760405162461bcd60e51b815260040180806020018281038252602381526020018061321f6023913960400191505060405180910390fd5b612020838383612c44565b61205d816040518060600160405280602681526020016132b5602691396001600160a01b03861660009081526033602052604090205491906120e8565b6001600160a01b03808516600090815260336020526040808220939093559084168152205461208c90826123e4565b6001600160a01b0380841660008181526033602090815260409182902094909455805185815290519193928716927fddf252ad1be2c89b69c2b068fc378daa952ba7f163c4a11628f55a4df523b3ef92918290030190a3505050565b600081848411156121775760405162461bcd60e51b81526004018080602001828103825283818151815260200191508051906020019080838360005b8381101561213c578181015183820152602001612124565b50505050905090810190601f1680156121695780820380516001836020036101000a031916815260200191505b509250505060405180910390fd5b505050900390565b600061218c60c9836125d0565b80156121b157506001600160a01b03828116600090815260cb60205260409020541615155b80156121d657506001600160a01b03828116600090815260cc60205260409020541615155b61220d576040805162461bcd60e51b815260206004820152600360248201526229aa1b60e91b604482015290519081900360640190fd5b6000806122198461172d565b506001600160a01b038616600090815260cd60205260409020429055909250905081156122c85760cf54604080516340c10f1960e01b81526001600160a01b038481166004830152602482018690529151949550859491909216916340c10f199160448083019260209291908290030181600087803b15801561229b57600080fd5b505af11580156122af573d6000803e3d6000fd5b505050506040513d60208110156122c557600080fd5b50505b604080514281529051849130916001600160a01b038816917ff5903cb2d16d0852687a9c6434f5e696e6f5022b43d9c2a9789ea1737a1ef4d8919081900360200190a45050919050565b600082815260976020526040902061232a90826125e5565b15610d5557612337611c79565b6001600160a01b0316816001600160a01b0316837f2f8788117e7eff1d82e926ec794901d17c78024a50270940304540a733656f0d60405160405180910390a45050565b600082815260976020526040902061239390826125fa565b15610d55576123a0611c79565b6001600160a01b0316816001600160a01b0316837ff6391f5c32d9c69d2a47ea670b442974b53935d1edc7fd64eb21e047a839171b60405160405180910390a45050565b600082820183811015610c34576040805162461bcd60e51b815260206004820152601b60248201527f536166654d6174683a206164646974696f6e206f766572666c6f770000000000604482015290519081900360640190fd5b61244661123a565b61248e576040805162461bcd60e51b815260206004820152601460248201527314185d5cd8589b194e881b9bdd081c185d5cd95960621b604482015290519081900360640190fd5b6065805460ff191690557f5db9ee0a495bf2e6ff9c91a7834c1ba4fdd244a5e8aa4e537bd38aeae4b073aa6124c1611c79565b604080516001600160a01b039092168252519081900360200190a1565b6001600160a01b038216612539576040805162461bcd60e51b815260206004820152601f60248201527f45524332303a206d696e7420746f20746865207a65726f206164647265737300604482015290519081900360640190fd5b61254560008383612c44565b60355461255290826123e4565b6035556001600160a01b03821660009081526033602052604090205461257890826123e4565b6001600160a01b03831660008181526033602090815260408083209490945583518581529351929391927fddf252ad1be2c89b69c2b068fc378daa952ba7f163c4a11628f55a4df523b3ef9281900390910190a35050565b6000610c34836001600160a01b038416612d05565b6000610c34836001600160a01b038416612d1d565b6000610c34836001600160a01b038416612d67565b60006001600160a01b03821615610b155761262982610ae1565b6001600160a01b038316600090815260d36020526040902042905590508015610b155760cf54604080516340c10f1960e01b81526001600160a01b03858116600483015260248201859052915191909216916340c10f199160448083019260209291908290030181600087803b1580156126a257600080fd5b505af11580156126b6573d6000803e3d6000fd5b505050506040513d60208110156126cc57600080fd5b505060408051428152905182916001600160a01b038516917f01ea729deb12fa912e813101b1da8b7c1500f7f26c912a612221a02af6a562209181900360200190a3919050565b61271b61123a565b15612760576040805162461bcd60e51b815260206004820152601060248201526f14185d5cd8589b194e881c185d5cd95960821b604482015290519081900360640190fd5b6065805460ff191660011790557f62e78cea01bee320cd4e420270b5ea74000d11b0c9f74754ebdbfc544b05a2586124c1611c79565b6000610c348383612e2d565b6001600160a01b0382166127e75760405162461bcd60e51b81526004018080602001828103825260218152602001806133a26021913960400191505060405180910390fd5b6127f382600083612c44565b61283081604051806060016040528060228152602001613271602291396001600160a01b03851660009081526033602052604090205491906120e8565b6001600160a01b0383166000908152603360205260409020556035546128569082612b2e565b6035556040805182815290516000916001600160a01b038516917fddf252ad1be2c89b69c2b068fc378daa952ba7f163c4a11628f55a4df523b3ef9181900360200190a35050565b6000826128ad57506000610adb565b828202828482816128ba57fe5b0414610c345760405162461bcd60e51b81526004018080602001828103825260218152602001806133396021913960400191505060405180910390fd5b6000610adb82612e91565b600061290d30612e95565b15905090565b600054610100900460ff168061292c575061292c612902565b8061293a575060005460ff16155b6129755760405162461bcd60e51b815260040180806020018281038252602e81526020018061330b602e913960400191505060405180910390fd5b600054610100900460ff161580156129a0576000805460ff1961ff0019909116610100171660011790555b6129a8612e9b565b6129b28383612f3b565b80156129c4576000805461ff00191690555b505050565b600054610100900460ff16806129e257506129e2612902565b806129f0575060005460ff16155b612a2b5760405162461bcd60e51b815260040180806020018281038252602e81526020018061330b602e913960400191505060405180910390fd5b600054610100900460ff16158015612a56576000805460ff1961ff0019909116610100171660011790555b612a5e612e9b565b612a66612e9b565b8015612a78576000805461ff00191690555b50565b600054610100900460ff1680612a945750612a94612902565b80612aa2575060005460ff16155b612add5760405162461bcd60e51b815260040180806020018281038252602e81526020018061330b602e913960400191505060405180910390fd5b600054610100900460ff16158015612b08576000805460ff1961ff0019909116610100171660011790555b612b10612e9b565b612a66613013565b6038805460ff191660ff92909216919091179055565b600082821115612b85576040805162461bcd60e51b815260206004820152601e60248201527f536166654d6174683a207375627472616374696f6e206f766572666c6f770000604482015290519081900360640190fd5b50900390565b6000806000612b9a86866130be565b9150915060008480612ba857fe5b868809905082811115612bbc576001820391505b918290039181612bda57848381612bcf57fe5b049350505050610c34565b848210612c2e576040805162461bcd60e51b815260206004820152601a60248201527f46756c6c4d6174683a2046554c4c4449565f4f564552464c4f57000000000000604482015290519081900360640190fd5b612c398383876130eb565b979650505050505050565b612c4c61123a565b15612c84576040805162461bcd60e51b815260206004820152600360248201526253543760e81b604482015290519081900360640190fd5b612c8f8383836129c4565b6000612c9a84611920565b90506000612ca784611920565b905081612cdc57612cb78561260f565b5080612ccc57612cc68461260f565b50612cd7565b612cd58461217f565b505b611c72565b612ce58561217f565b5080612cf457612cd58461260f565b612cfd8461217f565b505050505050565b60009081526001919091016020526040902054151590565b6000612d298383612d05565b612d5f57508154600181810184556000848152602080822090930184905584548482528286019093526040902091909155610adb565b506000610adb565b60008181526001830160205260408120548015612e235783546000198083019190810190600090879083908110612d9a57fe5b9060005260206000200154905080876000018481548110612db757fe5b600091825260208083209091019290925582815260018981019092526040902090840190558654879080612de757fe5b60019003818190600052602060002001600090559055866001016000878152602001908152602001600020600090556001945050505050610adb565b6000915050610adb565b81546000908210612e6f5760405162461bcd60e51b81526004018080602001828103825260228152602001806131fd6022913960400191505060405180910390fd5b826000018281548110612e7e57fe5b9060005260206000200154905092915050565b5490565b3b151590565b600054610100900460ff1680612eb45750612eb4612902565b80612ec2575060005460ff16155b612efd5760405162461bcd60e51b815260040180806020018281038252602e81526020018061330b602e913960400191505060405180910390fd5b600054610100900460ff16158015612a66576000805460ff1961ff0019909116610100171660011790558015612a78576000805461ff001916905550565b600054610100900460ff1680612f545750612f54612902565b80612f62575060005460ff16155b612f9d5760405162461bcd60e51b815260040180806020018281038252602e81526020018061330b602e913960400191505060405180910390fd5b600054610100900460ff16158015612fc8576000805460ff1961ff0019909116610100171660011790555b8251612fdb90603690602086019061315b565b508151612fef90603790602085019061315b565b506038805460ff1916601217905580156129c4576000805461ff0019169055505050565b600054610100900460ff168061302c575061302c612902565b8061303a575060005460ff16155b6130755760405162461bcd60e51b815260040180806020018281038252602e81526020018061330b602e913960400191505060405180910390fd5b600054610100900460ff161580156130a0576000805460ff1961ff0019909116610100171660011790555b6065805460ff191690558015612a78576000805461ff001916905550565b60008080600019848609905083850292508281039150828110156130e3576001820391505b509250929050565b600081810382168083816130fb57fe5b04925080858161310757fe5b04945080816000038161311657fe5b60028581038087028203028087028203028087028203028087028203028087028203028087028203029586029003909402930460010193909302939093010292915050565b828054600181600116156101000203166002900490600052602060002090601f01602090048101928261319157600085556131d7565b82601f106131aa57805160ff19168380011785556131d7565b828001600101855582156131d7579182015b828111156131d75782518255916020019190600101906131bc565b506131e39291506131e7565b5090565b5b808211156131e357600081556001016131e856fe456e756d657261626c655365743a20696e646578206f7574206f6620626f756e647345524332303a207472616e7366657220746f20746865207a65726f2061646472657373416363657373436f6e74726f6c3a2073656e646572206d75737420626520616e2061646d696e20746f206772616e7445524332303a206275726e20616d6f756e7420657863656564732062616c616e636545524332303a20617070726f766520746f20746865207a65726f206164647265737345524332303a207472616e7366657220616d6f756e7420657863656564732062616c616e6365416363657373436f6e74726f6c3a2073656e646572206d75737420626520616e2061646d696e20746f207265766f6b65496e697469616c697a61626c653a20636f6e747261637420697320616c726561647920696e697469616c697a6564536166654d6174683a206d756c7469706c69636174696f6e206f766572666c6f7745524332303a207472616e7366657220616d6f756e74206578636565647320616c6c6f77616e636565d7a28e3265b37a6474929f336521b332c1681b933f6cb9f3376673440d862a45524332303a206275726e2066726f6d20746865207a65726f206164647265737345524332303a207472616e736665722066726f6d20746865207a65726f206164647265737345524332303a20617070726f76652066726f6d20746865207a65726f206164647265737345524332303a2064656372656173656420616c6c6f77616e63652062656c6f77207a65726f416363657373436f6e74726f6c3a2063616e206f6e6c792072656e6f756e636520726f6c657320666f722073656c66a2646970667358221220a843af601192fde006a27b7d13b39cf967a4a3ffa41005281e85c376ac8eedc364736f6c63430007060033",
  "immutableReferences": {},
  "source": "// SPDX-License-Identifier: UNLICENSED\npragma solidity >=0.7.0;\n\nimport \"@openzeppelin/contracts-upgradeable/token/ERC20/ERC20Upgradeable.sol\";\nimport \"@openzeppelin/contracts-upgradeable/math/SafeMathUpgradeable.sol\";\nimport \"@openzeppelin/contracts-upgradeable/utils/PausableUpgradeable.sol\";\nimport \"@openzeppelin/contracts-upgradeable/utils/EnumerableSetUpgradeable.sol\";\nimport \"@openzeppelin/contracts-upgradeable/access/AccessControlUpgradeable.sol\";\nimport \"./interfaces/ISTokensV2.sol\";\nimport \"./interfaces/IUTokensV2.sol\";\nimport \"./interfaces/IHolderV2.sol\";\nimport \"./libraries/FullMath.sol\";\n\ncontract STokensV2 is\n\tERC20Upgradeable,\n\tISTokensV2,\n\tPausableUpgradeable,\n\tAccessControlUpgradeable\n{\n\tusing SafeMathUpgradeable for uint256;\n\tusing FullMath for uint256;\n\tusing EnumerableSetUpgradeable for EnumerableSetUpgradeable.AddressSet;\n\n\t// constants defining access control ROLES\n\tbytes32 public constant PAUSER_ROLE = keccak256(\"PAUSER_ROLE\");\n\n\t// variables pertaining to holder logic for whitelisted addresses & StakeLP\n\t// deposit contract address for STokens in a DeFi product\n\tEnumerableSetUpgradeable.AddressSet private _whitelistedAddresses;\n\t// Holder contract address for this whitelisted contract. Many can point to one Holder contract\n\tmapping(address => address) public _holderContractAddress;\n\t// LP Token contract address which might be different from whitelisted contract\n\tmapping(address => address) public _lpContractAddress;\n\t// last timestamp when the holder reward calculation was performed for updating reward pool\n\tmapping(address => uint256) public _lastHolderRewardTimestamp;\n\n\t// _liquidStakingContract address does the mint and burn of STokens\n\taddress public _liquidStakingContract;\n\t// _uTokens variable is used to do mint of UTokens\n\tIUTokensV2 public _uTokens;\n\n\t// variables pertaining to moving reward rate logic\n\tuint256[] private _rewardRate;\n\tuint256[] private _lastMovingRewardTimestamp;\n\tuint256 public _valueDivisor;\n\tmapping(address => uint256) public _lastUserRewardTimestamp;\n\n\t// variable pertaining to contract upgrades versioning\n\tuint256 public _version;\n\t// required to store the whitelisting holder logic data initiated from WhitelistedEmission contract\n\taddress _whitelistedEmissionContract;\n\n\t/**\n\t * @dev Constructor for initializing the SToken contract.\n\t * @param uaddress - address of the UToken contract.\n\t * @param pauserAddress - address of the pauser admin.\n\t * @param rewardRate - set to rewardRate * 10^-5\n\t * @param valueDivisor - valueDivisor set to 10^9.\n\t */\n\tfunction initialize(\n\t\taddress uaddress,\n\t\taddress pauserAddress,\n\t\tuint256 rewardRate,\n\t\tuint256 valueDivisor\n\t) public virtual initializer {\n\t\t__ERC20_init(\"pSTAKE Staked ATOM\", \"stkATOM\");\n\t\t__AccessControl_init();\n\t\t__Pausable_init();\n\t\t_setupRole(DEFAULT_ADMIN_ROLE, _msgSender());\n\t\t_setupRole(PAUSER_ROLE, pauserAddress);\n\t\tsetUTokensContract(uaddress);\n\t\t_valueDivisor = valueDivisor;\n\t\trequire(rewardRate <= _valueDivisor.mul(100), \"ST1\");\n\t\t_rewardRate.push(rewardRate);\n\t\t_lastMovingRewardTimestamp.push(block.timestamp);\n\t\t_setupDecimals(6);\n\t}\n\n\t/**\n\t * @dev Calculate pending rewards for the provided 'address'. The rate is the moving reward rate.\n\t * @param whitelistedAddress: whitelisted contract address\n\t */\n\tfunction isContractWhitelisted(address whitelistedAddress)\n\t\tpublic\n\t\tview\n\t\tvirtual\n\t\toverride\n\t\treturns (bool result)\n\t{\n\t\tresult = _whitelistedAddresses.contains(whitelistedAddress);\n\t\treturn result;\n\t}\n\n\t/**\n\t * @dev Calculate pending rewards for the provided 'address'. The rate is the moving reward rate.\n\t * @param whitelistedAddress: contract address\n\t */\n\tfunction getWhitelistData(address whitelistedAddress)\n\t\tpublic\n\t\tview\n\t\tvirtual\n\t\toverride\n\t\treturns (\n\t\t\taddress holderAddress,\n\t\t\taddress lpAddress,\n\t\t\taddress uTokenAddress,\n\t\t\tuint256 lastHolderRewardTimestamp\n\t\t)\n\t{\n\t\t// Get the time in number of blocks\n\t\tholderAddress = _holderContractAddress[whitelistedAddress];\n\t\tlpAddress = _lpContractAddress[whitelistedAddress];\n\t\tlastHolderRewardTimestamp = _lastHolderRewardTimestamp[\n\t\t\twhitelistedAddress\n\t\t];\n\t\tuTokenAddress = (holderAddress == address(0) || lpAddress == address(0))\n\t\t\t? address(0)\n\t\t\t: address(_uTokens);\n\t}\n\n\t/**\n\t * @dev get reward rate and value divisor\n\t */\n\tfunction getUTokenAddress()\n\t\tpublic\n\t\tview\n\t\tvirtual\n\t\toverride\n\t\treturns (address uTokenAddress)\n\t{\n\t\tuTokenAddress = address(_uTokens);\n\t}\n\n\t/*\n\t * @dev set reward rate called by admin\n\t * @param rewardRate: reward rate\n\t *\n\t *\n\t * Requirements:\n\t *\n\t * - `rate` cannot be less than or equal to zero.\n\t *\n\t */\n\tfunction setRewardRate(uint256 rewardRate)\n\t\tpublic\n\t\tvirtual\n\t\toverride\n\t\treturns (bool success)\n\t{\n\t\t// range checks for rewardRate. Since rewardRate cannot be more than 100%, the max cap\n\t\t// is _valueDivisor * 100, which then brings the fees to 100 (percentage)\n\t\trequire(rewardRate <= _valueDivisor.mul(100), \"ST18\");\n\t\trequire(hasRole(DEFAULT_ADMIN_ROLE, _msgSender()), \"ST2\");\n\t\t_rewardRate.push(rewardRate);\n\t\t_lastMovingRewardTimestamp.push(block.timestamp);\n\t\temit SetRewardRate(rewardRate);\n\n\t\treturn true;\n\t}\n\n\t/**\n\t * @dev get reward rate and value divisor\n\t */\n\tfunction getRewardRate()\n\t\tpublic\n\t\tview\n\t\tvirtual\n\t\toverride\n\t\treturns (\n\t\t\tuint256[] memory rewardRate,\n\t\t\tuint256[] memory lastMovingRewardTimestamp,\n\t\t\tuint256 valueDivisor\n\t\t)\n\t{\n\t\trewardRate = _rewardRate;\n\t\tlastMovingRewardTimestamp = _lastMovingRewardTimestamp;\n\t\tvalueDivisor = _valueDivisor;\n\t}\n\n\t/**\n\t * @dev Mint new stokens for the provided 'address' and 'tokens'\n\t * @param to: account address, tokens: number of tokens\n\t *\n\t * Emits a {MintTokens} event with 'to' set to address and 'tokens' set to amount of tokens.\n\t *\n\t * Requirements:\n\t *\n\t * - `amount` cannot be less than zero.\n\t *\n\t */\n\tfunction mint(address to, uint256 tokens)\n\t\tpublic\n\t\tvirtual\n\t\toverride\n\t\treturns (bool)\n\t{\n\t\trequire(_msgSender() == _liquidStakingContract, \"ST3\");\n\t\t_mint(to, tokens);\n\t\treturn true;\n\t}\n\n\t/*\n\t * @dev Burn stokens for the provided 'address' and 'tokens'\n\t * @param to: account address, tokens: number of tokens\n\t *\n\t * Emits a {BurnTokens} event with 'to' set to address and 'tokens' set to amount of tokens.\n\t *\n\t * Requirements:\n\t *\n\t * - `amount` cannot be less than zero.\n\t *\n\t */\n\tfunction burn(address from, uint256 tokens)\n\t\tpublic\n\t\tvirtual\n\t\toverride\n\t\treturns (bool)\n\t{\n\t\trequire(_msgSender() == _liquidStakingContract, \"ST4\");\n\t\t_burn(from, tokens);\n\t\treturn true;\n\t}\n\n\t/**\n\t * @dev Calculate pending rewards from the provided 'principal' & 'lastRewardTimestamp'. The rate is the moving reward rate.\n\t * @param principal: principal amount\n\t * @param lastRewardTimestamp: timestamp of last reward calculation performed\n\t */\n\tfunction _calculatePendingRewards(\n\t\tuint256 principal,\n\t\tuint256 lastRewardTimestamp\n\t) internal view returns (uint256 pendingRewards) {\n\t\tuint256 _index;\n\t\tuint256 _rewardBlocks;\n\t\tuint256 _simpleInterestOfInterval;\n\t\tuint256 _temp;\n\t\t// return 0 if principal or timeperiod is zero\n\t\tif (principal == 0 || block.timestamp.sub(lastRewardTimestamp) == 0)\n\t\t\treturn 0;\n\t\t// calculate rewards for each interval period between rewardRate changes\n\t\tuint256 _lastMovingRewardLength = _lastMovingRewardTimestamp.length.sub(\n\t\t\t1\n\t\t);\n\t\tfor (_index = _lastMovingRewardLength; _index >= 0; ) {\n\t\t\t// logic applies for all indexes of array except last index\n\t\t\tif (_index < _lastMovingRewardTimestamp.length.sub(1)) {\n\t\t\t\tif (_lastMovingRewardTimestamp[_index] > lastRewardTimestamp) {\n\t\t\t\t\t_rewardBlocks = (_lastMovingRewardTimestamp[_index.add(1)])\n\t\t\t\t\t\t.sub(_lastMovingRewardTimestamp[_index]);\n\t\t\t\t\t_temp = principal.mulDiv(_rewardRate[_index], 100);\n\t\t\t\t\t_simpleInterestOfInterval = _temp.mulDiv(\n\t\t\t\t\t\t_rewardBlocks,\n\t\t\t\t\t\t_valueDivisor\n\t\t\t\t\t);\n\t\t\t\t\tpendingRewards = pendingRewards.add(\n\t\t\t\t\t\t_simpleInterestOfInterval\n\t\t\t\t\t);\n\t\t\t\t} else {\n\t\t\t\t\t_rewardBlocks = (_lastMovingRewardTimestamp[_index.add(1)])\n\t\t\t\t\t\t.sub(lastRewardTimestamp);\n\t\t\t\t\t_temp = principal.mulDiv(_rewardRate[_index], 100);\n\t\t\t\t\t_simpleInterestOfInterval = _temp.mulDiv(\n\t\t\t\t\t\t_rewardBlocks,\n\t\t\t\t\t\t_valueDivisor\n\t\t\t\t\t);\n\t\t\t\t\tpendingRewards = pendingRewards.add(\n\t\t\t\t\t\t_simpleInterestOfInterval\n\t\t\t\t\t);\n\t\t\t\t\tbreak;\n\t\t\t\t}\n\t\t\t}\n\t\t\t// logic applies only for the last index of array\n\t\t\telse {\n\t\t\t\tif (_lastMovingRewardTimestamp[_index] > lastRewardTimestamp) {\n\t\t\t\t\t_rewardBlocks = (block.timestamp).sub(\n\t\t\t\t\t\t_lastMovingRewardTimestamp[_index]\n\t\t\t\t\t);\n\t\t\t\t\t_temp = principal.mulDiv(_rewardRate[_index], 100);\n\t\t\t\t\t_simpleInterestOfInterval = _temp.mulDiv(\n\t\t\t\t\t\t_rewardBlocks,\n\t\t\t\t\t\t_valueDivisor\n\t\t\t\t\t);\n\t\t\t\t\tpendingRewards = pendingRewards.add(\n\t\t\t\t\t\t_simpleInterestOfInterval\n\t\t\t\t\t);\n\t\t\t\t} else {\n\t\t\t\t\t_rewardBlocks = (block.timestamp).sub(lastRewardTimestamp);\n\t\t\t\t\t_temp = principal.mulDiv(_rewardRate[_index], 100);\n\t\t\t\t\t_simpleInterestOfInterval = _temp.mulDiv(\n\t\t\t\t\t\t_rewardBlocks,\n\t\t\t\t\t\t_valueDivisor\n\t\t\t\t\t);\n\t\t\t\t\tpendingRewards = pendingRewards.add(\n\t\t\t\t\t\t_simpleInterestOfInterval\n\t\t\t\t\t);\n\t\t\t\t\tbreak;\n\t\t\t\t}\n\t\t\t}\n\n\t\t\tif (_index == 0) break;\n\t\t\telse {\n\t\t\t\t_index = _index.sub(1);\n\t\t\t}\n\t\t}\n\t\treturn pendingRewards;\n\t}\n\n\t/**\n\t * @dev Calculate pending rewards for the provided 'address'. The rate is the moving reward rate.\n\t * @param to: account address\n\t */\n\tfunction calculatePendingRewards(address to)\n\t\tpublic\n\t\tview\n\t\tvirtual\n\t\toverride\n\t\treturns (uint256 pendingRewards)\n\t{\n\t\t// Get the time in number of blocks\n\t\tuint256 _lastRewardTimestamp = _lastUserRewardTimestamp[to];\n\t\t// Get the balance of the account\n\t\tuint256 _balance = balanceOf(to);\n\t\t// calculate pending rewards using _calculatePendingRewards\n\t\tpendingRewards = _calculatePendingRewards(\n\t\t\t_balance,\n\t\t\t_lastRewardTimestamp\n\t\t);\n\n\t\treturn pendingRewards;\n\t}\n\n\t/**\n\t * @dev Calculate rewards for the provided 'address'\n\t * @param to: account address\n\t */\n\tfunction _calculateRewards(address to) internal returns (uint256 _reward) {\n\t\t// keep an if condition to check for address(0), instead of require condition, because address(0) is\n\t\t// a valid condition when it is a mint/burn operation\n\t\tif (to != address(0)) {\n\t\t\t// Calculate the rewards pending\n\t\t\t_reward = calculatePendingRewards(to);\n\n\t\t\t// Set the new stakedBlock to the current,\n\t\t\t// as per Checks-Effects-Interactions pattern\n\t\t\t_lastUserRewardTimestamp[to] = block.timestamp;\n\n\t\t\t// mint uTokens only if reward is greater than zero\n\t\t\tif (_reward > 0) {\n\t\t\t\t// Mint new uTokens and send to the callers account\n\t\t\t\t_uTokens.mint(to, _reward);\n\t\t\t\temit CalculateRewards(to, _reward, block.timestamp);\n\t\t\t}\n\t\t}\n\t\treturn _reward;\n\t}\n\n\t/**\n\t * @dev Calculate rewards for the provided 'address'\n\t * @param to: account address\n\t *\n\t * Emits a {TriggeredCalculateRewards} event with 'to' set to address, 'reward' set to amount of tokens and 'timestamp'\n\t *\n\t */\n\tfunction calculateRewards(address to)\n\t\tpublic\n\t\tvirtual\n\t\toverride\n\t\twhenNotPaused\n\t\treturns (uint256 reward)\n\t{\n\t\tbool isContractWhitelistedLocal = _whitelistedAddresses.contains(to);\n\t\trequire(to == _msgSender() && !isContractWhitelistedLocal, \"ST5\");\n\t\treward = _calculateRewards(to);\n\t\temit TriggeredCalculateRewards(to, reward, block.timestamp);\n\t\treturn reward;\n\t}\n\n\t/**\n\t * @dev Calculate rewards for the provided 'holder address'\n\t * @param to: holder address\n\t */\n\tfunction _calculateHolderRewards(address to)\n\t\tinternal\n\t\treturns (uint256 rewards)\n\t{\n\t\trequire(\n\t\t\t_whitelistedAddresses.contains(to) &&\n\t\t\t\t_holderContractAddress[to] != address(0) &&\n\t\t\t\t_lpContractAddress[to] != address(0),\n\t\t\t\"ST6\"\n\t\t);\n\t\t(\n\t\t\tuint256 pendingRewards,\n\t\t\taddress holderAddress,\n\n\t\t) = calculatePendingHolderRewards(to);\n\n\t\t// update the last timestamp of reward pool to the current time as per Checks-Effects-Interactions pattern\n\t\t_lastHolderRewardTimestamp[to] = block.timestamp;\n\n\t\t// Mint new uTokens and send to the holder contract account as updated reward pool\n\t\tif (pendingRewards > 0) {\n\t\t\trewards = pendingRewards;\n\t\t\t_uTokens.mint(holderAddress, rewards);\n\t\t}\n\n\t\temit CalculateHolderRewards(\n\t\t\tto,\n\t\t\taddress(this),\n\t\t\trewards,\n\t\t\tblock.timestamp\n\t\t);\n\n\t\treturn rewards;\n\t}\n\n\t/**\n\t * @dev Calculate pending rewards for the provided 'address'. The rate is the moving reward rate.\n\t * @param to: account address\n\t */\n\tfunction calculatePendingHolderRewards(address to)\n\t\tpublic\n\t\tview\n\t\tvirtual\n\t\toverride\n\t\treturns (\n\t\t\tuint256 pendingRewards,\n\t\t\taddress holderAddress,\n\t\t\taddress lpAddress\n\t\t)\n\t{\n\t\t// holderContract and lpContract (lp token contract) need to be validated together because\n\t\t// it might not be practical to setup holder to collect reward pool but not StakeLP to distribute reward\n\t\t// since the reward distribution calculation starts the minute reward pool is created\n\t\tif (\n\t\t\t_whitelistedAddresses.contains(to) &&\n\t\t\t_holderContractAddress[to] != address(0) &&\n\t\t\t_lpContractAddress[to] != address(0)\n\t\t) {\n\t\t\tuint256 _sTokenSupply = IHolderV2(_holderContractAddress[to])\n\t\t\t\t.getSTokenSupply(to, address(this));\n\n\t\t\t// calculate the reward applying the moving reward rate\n\t\t\tif (_sTokenSupply > 0) {\n\t\t\t\tpendingRewards = _calculatePendingRewards(\n\t\t\t\t\t_sTokenSupply,\n\t\t\t\t\t_lastHolderRewardTimestamp[to]\n\t\t\t\t);\n\t\t\t\tholderAddress = _holderContractAddress[to];\n\t\t\t\tlpAddress = _lpContractAddress[to];\n\t\t\t}\n\t\t}\n\t}\n\n\t/**\n\t * @dev Calculate rewards for the provided 'address'\n\t * @param to: account address\n\t *\n\t * Emits a {TriggeredCalculateRewards} event with 'to' set to address, 'reward' set to amount of tokens and 'timestamp'\n\t *\n\t */\n\tfunction calculateHolderRewards(address to)\n\t\tpublic\n\t\tvirtual\n\t\toverride\n\t\twhenNotPaused\n\t\treturns (uint256 rewards)\n\t{\n\t\trewards = _calculateHolderRewards(to);\n\t\temit TriggeredCalculateHolderRewards(\n\t\t\tto,\n\t\t\taddress(this),\n\t\t\trewards,\n\t\t\tblock.timestamp\n\t\t);\n\t\treturn rewards;\n\t}\n\n\t/**\n\t * @dev Hook that is called before any transfer of tokens. This includes\n\t * minting and burning.\n\t *\n\t * Calling conditions:\n\t *\n\t * - when `from` and `to` are both non-zero, `amount` of ``from``'s tokens\n\t * will be to transferred to `to`.\n\t * - when `from` is zero, `amount` tokens will be minted for `to`.\n\t * - when `to` is zero, `amount` of ``from``'s tokens will be burned.\n\t * - `from` and `to` are never both zero.\n\t *\n\t */\n\tfunction _beforeTokenTransfer(\n\t\taddress from,\n\t\taddress to,\n\t\tuint256 amount\n\t) internal virtual override {\n\t\trequire(!paused(), \"ST7\");\n\t\tsuper._beforeTokenTransfer(from, to, amount);\n\t\tbool isFromContractWhitelisted = isContractWhitelisted(from);\n\t\tbool isToContractWhitelisted = isContractWhitelisted(to);\n\n\t\tif (!isFromContractWhitelisted) {\n\t\t\t_calculateRewards(from);\n\t\t\tif (!isToContractWhitelisted) {\n\t\t\t\t_calculateRewards(to);\n\t\t\t} else {\n\t\t\t\t_calculateHolderRewards(to);\n\t\t\t}\n\t\t} else {\n\t\t\t_calculateHolderRewards(from);\n\t\t\tif (!isToContractWhitelisted) {\n\t\t\t\t_calculateRewards(to);\n\t\t\t} else {\n\t\t\t\t_calculateHolderRewards(to);\n\t\t\t}\n\t\t}\n\t}\n\n\t/*\n\t * @dev Set 'contract address', called from constructor\n\t * @param uTokenContract: utoken contract address\n\t *\n\t * Emits a {SetUTokensContract} event with '_contract' set to the utoken contract address.\n\t *\n\t */\n\tfunction setWhitelistedEmissionContract(address whitelistedEmission)\n\t\tpublic\n\t\tvirtual\n\t\toverride\n\t{\n\t\trequire(hasRole(DEFAULT_ADMIN_ROLE, _msgSender()), \"ST11\");\n\t\t_whitelistedEmissionContract = whitelistedEmission;\n\t\temit SetWhitelistedEmissionContract(whitelistedEmission);\n\t}\n\n\t/*\n\t * @dev Set 'whitelisted address', performed by admin only\n\t * @param whitelistedAddress: contract address of the whitelisted party\n\t *\n\t * Emits a {setWhitelistedAddress} event\n\t *\n\t */\n\tfunction setWhitelistedAddress(\n\t\taddress whitelistedAddress,\n\t\taddress holderContractAddress,\n\t\taddress lpContractAddress\n\t) public virtual override returns (bool success) {\n\t\trequire(_msgSender() == _whitelistedEmissionContract, \"ST12\");\n\t\t// lpTokenERC20ContractAddress or sTokenReserveContractAddress can be address(0) but not whitelistedAddress\n\t\trequire(whitelistedAddress != address(0), \"ST13\");\n\t\t// add the whitelistedAddress if it isn't already available\n\t\tif (!_whitelistedAddresses.contains(whitelistedAddress))\n\t\t\t_whitelistedAddresses.add(whitelistedAddress);\n\t\t// add the contract addresses to holder mapping variable\n\t\t_holderContractAddress[whitelistedAddress] = holderContractAddress;\n\t\t_lpContractAddress[whitelistedAddress] = lpContractAddress;\n\n\t\temit SetWhitelistedAddress(\n\t\t\twhitelistedAddress,\n\t\t\tholderContractAddress,\n\t\t\tlpContractAddress,\n\t\t\tblock.timestamp\n\t\t);\n\t\tsuccess = true;\n\t\treturn success;\n\t}\n\n\t/*\n\t * @dev remove 'whitelisted address', performed by admin only\n\t * @param whitelistedAddress: contract address of the whitelisted party\n\t * @param holderContractAddress: holder contract address of the corresponding whitelistedAddress\n\t *\n\t * Emits a {RemoveWhitelistedAddress} event\n\t *\n\t */\n\tfunction removeWhitelistedAddress(address whitelistedAddress)\n\t\tpublic\n\t\tvirtual\n\t\toverride\n\t\treturns (bool success)\n\t{\n\t\trequire(_msgSender() == _whitelistedEmissionContract, \"ST14\");\n\t\trequire(whitelistedAddress != address(0), \"ST15\");\n\t\t// remove whitelistedAddress from the list\n\t\t_whitelistedAddresses.remove(whitelistedAddress);\n\n\t\t// emit an event\n\t\temit RemoveWhitelistedAddress(\n\t\t\twhitelistedAddress,\n\t\t\t_holderContractAddress[whitelistedAddress],\n\t\t\t_lpContractAddress[whitelistedAddress],\n\t\t\t_lastHolderRewardTimestamp[whitelistedAddress],\n\t\t\tblock.timestamp\n\t\t);\n\n\t\t// delete holder contract values\n\t\tdelete _holderContractAddress[whitelistedAddress];\n\t\tdelete _lpContractAddress[whitelistedAddress];\n\t\tdelete _lastHolderRewardTimestamp[whitelistedAddress];\n\n\t\tsuccess = true;\n\t\treturn success;\n\t}\n\n\t/*\n\t * @dev Set 'contract address', called from constructor\n\t * @param uTokenContract: utoken contract address\n\t *\n\t * Emits a {SetUTokensContract} event with '_contract' set to the utoken contract address.\n\t *\n\t */\n\tfunction setUTokensContract(address uTokenContract)\n\t\tpublic\n\t\tvirtual\n\t\toverride\n\t{\n\t\trequire(hasRole(DEFAULT_ADMIN_ROLE, _msgSender()), \"ST8\");\n\t\t_uTokens = IUTokensV2(uTokenContract);\n\t\temit SetUTokensContract(uTokenContract);\n\t}\n\n\t/*\n\t * @dev Set 'contract address', called from constructor\n\t * @param liquidStakingContract: liquidStaking contract address\n\t *\n\t * Emits a {SetLiquidStakingContract} event with '_contract' set to the liquidStaking contract address.\n\t *\n\t */\n\tfunction setLiquidStakingContract(address liquidStakingContract)\n\t\tpublic\n\t\tvirtual\n\t\toverride\n\t{\n\t\trequire(hasRole(DEFAULT_ADMIN_ROLE, _msgSender()), \"ST9\");\n\t\t_liquidStakingContract = liquidStakingContract;\n\t\temit SetLiquidStakingContract(liquidStakingContract);\n\t}\n\n\t/**\n\t * @dev Triggers stopped state.\n\t *\n\t * Requirements:\n\t *\n\t * - The contract must not be paused.\n\t */\n\tfunction pause() public virtual override returns (bool success) {\n\t\trequire(hasRole(PAUSER_ROLE, _msgSender()), \"ST16\");\n\t\t_pause();\n\t\treturn true;\n\t}\n\n\t/**\n\t * @dev Returns to normal state.\n\t *\n\t * Requirements:\n\t *\n\t * - The contract must be paused.\n\t */\n\tfunction unpause() public virtual override returns (bool success) {\n\t\trequire(hasRole(PAUSER_ROLE, _msgSender()), \"ST17\");\n\t\t_unpause();\n\t\treturn true;\n\t}\n}\n",
  "sourcePath": "C:\\Users\\Kamlesh\\Persistence\\pStake\\codebase\\pStake-smartContracts\\contracts\\STokensV2.sol",
  "compiler": {
    "name": "solc",
    "version": "0.7.6+commit.7338295f.Emscripten.clang"
  },
  "schemaVersion": "3.4.3",
  "updatedAt": "2021-09-23T16:36:47.553Z",
  "devdoc": {
    "kind": "dev",
    "methods": {
      "allowance(address,address)": {
        "details": "See {IERC20-allowance}."
      },
      "approve(address,uint256)": {
        "details": "See {IERC20-approve}. Requirements: - `spender` cannot be the zero address."
      },
      "balanceOf(address)": {
        "details": "See {IERC20-balanceOf}."
      },
      "burn(address,uint256)": {
        "details": "Burns `amount` tokens to the caller's address `from`. Returns a boolean value indicating whether the operation succeeded. Emits a {Transfer} event."
      },
      "calculateHolderRewards(address)": {
        "details": "Calculate rewards for the provided 'address'",
        "params": {
          "to": ": account address Emits a {TriggeredCalculateRewards} event with 'to' set to address, 'reward' set to amount of tokens and 'timestamp'"
        }
      },
      "calculatePendingHolderRewards(address)": {
        "details": "Calculate pending rewards for the provided 'address'. The rate is the moving reward rate.",
        "params": {
          "to": ": account address"
        }
      },
      "calculatePendingRewards(address)": {
        "details": "Calculate pending rewards for the provided 'address'. The rate is the moving reward rate.",
        "params": {
          "to": ": account address"
        }
      },
      "calculateRewards(address)": {
        "details": "Calculate rewards for the provided 'address'",
        "params": {
          "to": ": account address Emits a {TriggeredCalculateRewards} event with 'to' set to address, 'reward' set to amount of tokens and 'timestamp'"
        }
      },
      "decimals()": {
        "details": "Returns the number of decimals used to get its user representation. For example, if `decimals` equals `2`, a balance of `505` tokens should be displayed to a user as `5,05` (`505 / 10 ** 2`). Tokens usually opt for a value of 18, imitating the relationship between Ether and Wei. This is the value {ERC20} uses, unless {_setupDecimals} is called. NOTE: This information is only used for _display_ purposes: it in no way affects any of the arithmetic of the contract, including {IERC20-balanceOf} and {IERC20-transfer}."
      },
      "decreaseAllowance(address,uint256)": {
        "details": "Atomically decreases the allowance granted to `spender` by the caller. This is an alternative to {approve} that can be used as a mitigation for problems described in {IERC20-approve}. Emits an {Approval} event indicating the updated allowance. Requirements: - `spender` cannot be the zero address. - `spender` must have allowance for the caller of at least `subtractedValue`."
      },
      "getRewardRate()": {
        "details": "get reward rate and value divisor"
      },
      "getRoleAdmin(bytes32)": {
        "details": "Returns the admin role that controls `role`. See {grantRole} and {revokeRole}. To change a role's admin, use {_setRoleAdmin}."
      },
      "getRoleMember(bytes32,uint256)": {
        "details": "Returns one of the accounts that have `role`. `index` must be a value between 0 and {getRoleMemberCount}, non-inclusive. Role bearers are not sorted in any particular way, and their ordering may change at any point. WARNING: When using {getRoleMember} and {getRoleMemberCount}, make sure you perform all queries on the same block. See the following https://forum.openzeppelin.com/t/iterating-over-elements-on-enumerableset-in-openzeppelin-contracts/2296[forum post] for more information."
      },
      "getRoleMemberCount(bytes32)": {
        "details": "Returns the number of accounts that have `role`. Can be used together with {getRoleMember} to enumerate all bearers of a role."
      },
      "getUTokenAddress()": {
        "details": "get reward rate and value divisor"
      },
      "getWhitelistData(address)": {
        "details": "Calculate pending rewards for the provided 'address'. The rate is the moving reward rate.",
        "params": {
          "whitelistedAddress": ": contract address"
        }
      },
      "grantRole(bytes32,address)": {
        "details": "Grants `role` to `account`. If `account` had not been already granted `role`, emits a {RoleGranted} event. Requirements: - the caller must have ``role``'s admin role."
      },
      "hasRole(bytes32,address)": {
        "details": "Returns `true` if `account` has been granted `role`."
      },
      "increaseAllowance(address,uint256)": {
        "details": "Atomically increases the allowance granted to `spender` by the caller. This is an alternative to {approve} that can be used as a mitigation for problems described in {IERC20-approve}. Emits an {Approval} event indicating the updated allowance. Requirements: - `spender` cannot be the zero address."
      },
      "initialize(address,address,uint256,uint256)": {
        "details": "Constructor for initializing the SToken contract.",
        "params": {
          "pauserAddress": "- address of the pauser admin.",
          "rewardRate": "- set to rewardRate * 10^-5",
          "uaddress": "- address of the UToken contract.",
          "valueDivisor": "- valueDivisor set to 10^9."
        }
      },
      "isContractWhitelisted(address)": {
        "details": "Calculate pending rewards for the provided 'address'. The rate is the moving reward rate.",
        "params": {
          "whitelistedAddress": ": whitelisted contract address"
        }
      },
      "mint(address,uint256)": {
        "details": "Mint new stokens for the provided 'address' and 'tokens'",
        "params": {
          "to": ": account address, tokens: number of tokens Emits a {MintTokens} event with 'to' set to address and 'tokens' set to amount of tokens. Requirements: - `amount` cannot be less than zero."
        }
      },
      "name()": {
        "details": "Returns the name of the token."
      },
      "pause()": {
        "details": "Triggers stopped state. Requirements: - The contract must not be paused."
      },
      "paused()": {
        "details": "Returns true if the contract is paused, and false otherwise."
      },
      "renounceRole(bytes32,address)": {
        "details": "Revokes `role` from the calling account. Roles are often managed via {grantRole} and {revokeRole}: this function's purpose is to provide a mechanism for accounts to lose their privileges if they are compromised (such as when a trusted device is misplaced). If the calling account had been granted `role`, emits a {RoleRevoked} event. Requirements: - the caller must be `account`."
      },
      "revokeRole(bytes32,address)": {
        "details": "Revokes `role` from `account`. If `account` had been granted `role`, emits a {RoleRevoked} event. Requirements: - the caller must have ``role``'s admin role."
      },
      "setLiquidStakingContract(address)": {
        "details": "Set LiquidStaking smart contract."
      },
      "setRewardRate(uint256)": {
        "details": "Sets `reward rate`. Returns a boolean value indicating whether the operation succeeded."
      },
      "setUTokensContract(address)": {
        "details": "Set UTokens smart contract. Emits a {SetContract} event."
      },
      "setWhitelistedAddress(address,address,address)": {
        "details": "Calculates rewards `amount` tokens to the caller's address `to`. Returns a boolean value indicating whether the operation succeeded. Emits a {TriggeredCalculateRewards} event."
      },
      "setWhitelistedEmissionContract(address)": {
        "details": "Emitted when contract addresses are set"
      },
      "symbol()": {
        "details": "Returns the symbol of the token, usually a shorter version of the name."
      },
      "totalSupply()": {
        "details": "See {IERC20-totalSupply}."
      },
      "transfer(address,uint256)": {
        "details": "See {IERC20-transfer}. Requirements: - `recipient` cannot be the zero address. - the caller must have a balance of at least `amount`."
      },
      "transferFrom(address,address,uint256)": {
        "details": "See {IERC20-transferFrom}. Emits an {Approval} event indicating the updated allowance. This is not required by the EIP. See the note at the beginning of {ERC20}. Requirements: - `sender` and `recipient` cannot be the zero address. - `sender` must have a balance of at least `amount`. - the caller must have allowance for ``sender``'s tokens of at least `amount`."
      },
      "unpause()": {
        "details": "Returns to normal state. Requirements: - The contract must be paused."
      }
    },
    "version": 1
  },
  "userdoc": {
    "kind": "user",
    "methods": {},
    "version": 1
  }
}