{
  "contractName": "STokensV2",
  "abi": [
    {
      "anonymous": false,
      "inputs": [
        {
          "indexed": true,
          "internalType": "address",
          "name": "owner",
          "type": "address"
        },
        {
          "indexed": true,
          "internalType": "address",
          "name": "spender",
          "type": "address"
        },
        {
          "indexed": false,
          "internalType": "uint256",
          "name": "value",
          "type": "uint256"
        }
      ],
      "name": "Approval",
      "type": "event"
    },
    {
      "anonymous": false,
      "inputs": [
        {
          "indexed": true,
          "internalType": "address",
          "name": "accountAddress",
          "type": "address"
        },
        {
          "indexed": false,
          "internalType": "uint256",
          "name": "tokens",
          "type": "uint256"
        },
        {
          "indexed": false,
          "internalType": "uint256",
          "name": "timestamp",
          "type": "uint256"
        }
      ],
      "name": "CalculateHolderRewards",
      "type": "event"
    },
    {
      "anonymous": false,
      "inputs": [
        {
          "indexed": true,
          "internalType": "address",
          "name": "accountAddress",
          "type": "address"
        },
        {
          "indexed": false,
          "internalType": "uint256",
          "name": "tokens",
          "type": "uint256"
        },
        {
          "indexed": false,
          "internalType": "uint256",
          "name": "timestamp",
          "type": "uint256"
        }
      ],
      "name": "CalculateRewards",
      "type": "event"
    },
    {
      "anonymous": false,
      "inputs": [
        {
          "indexed": false,
          "internalType": "address",
          "name": "account",
          "type": "address"
        }
      ],
      "name": "Paused",
      "type": "event"
    },
    {
      "anonymous": false,
      "inputs": [
        {
          "indexed": true,
          "internalType": "address",
          "name": "whitelistedAddress",
          "type": "address"
        },
        {
          "indexed": false,
          "internalType": "address",
          "name": "holderContractAddress",
          "type": "address"
        },
        {
          "indexed": false,
          "internalType": "address",
          "name": "lpContractAddress",
          "type": "address"
        },
        {
          "indexed": false,
          "internalType": "uint256",
          "name": "timestamp",
          "type": "uint256"
        }
      ],
      "name": "RemoveWhitelistedAddress",
      "type": "event"
    },
    {
      "anonymous": false,
      "inputs": [
        {
          "indexed": true,
          "internalType": "bytes32",
          "name": "role",
          "type": "bytes32"
        },
        {
          "indexed": true,
          "internalType": "bytes32",
          "name": "previousAdminRole",
          "type": "bytes32"
        },
        {
          "indexed": true,
          "internalType": "bytes32",
          "name": "newAdminRole",
          "type": "bytes32"
        }
      ],
      "name": "RoleAdminChanged",
      "type": "event"
    },
    {
      "anonymous": false,
      "inputs": [
        {
          "indexed": true,
          "internalType": "bytes32",
          "name": "role",
          "type": "bytes32"
        },
        {
          "indexed": true,
          "internalType": "address",
          "name": "account",
          "type": "address"
        },
        {
          "indexed": true,
          "internalType": "address",
          "name": "sender",
          "type": "address"
        }
      ],
      "name": "RoleGranted",
      "type": "event"
    },
    {
      "anonymous": false,
      "inputs": [
        {
          "indexed": true,
          "internalType": "bytes32",
          "name": "role",
          "type": "bytes32"
        },
        {
          "indexed": true,
          "internalType": "address",
          "name": "account",
          "type": "address"
        },
        {
          "indexed": true,
          "internalType": "address",
          "name": "sender",
          "type": "address"
        }
      ],
      "name": "RoleRevoked",
      "type": "event"
    },
    {
      "anonymous": false,
      "inputs": [
        {
          "indexed": true,
          "internalType": "address",
          "name": "_contract",
          "type": "address"
        }
      ],
      "name": "SetLiquidStakingContract",
      "type": "event"
    },
    {
      "anonymous": false,
      "inputs": [
        {
          "indexed": true,
          "internalType": "uint256",
          "name": "rewardRate",
          "type": "uint256"
        }
      ],
      "name": "SetRewardRate",
      "type": "event"
    },
    {
      "anonymous": false,
      "inputs": [
        {
          "indexed": true,
          "internalType": "address",
          "name": "_contract",
          "type": "address"
        }
      ],
      "name": "SetUTokensContract",
      "type": "event"
    },
    {
      "anonymous": false,
      "inputs": [
        {
          "indexed": true,
          "internalType": "address",
          "name": "whitelistedAddress",
          "type": "address"
        },
        {
          "indexed": false,
          "internalType": "address",
          "name": "holderContractAddress",
          "type": "address"
        },
        {
          "indexed": false,
          "internalType": "address",
          "name": "lpContractAddress",
          "type": "address"
        },
        {
          "indexed": false,
          "internalType": "uint256",
          "name": "timestamp",
          "type": "uint256"
        }
      ],
      "name": "SetWhitelistedAddress",
      "type": "event"
    },
    {
      "anonymous": false,
      "inputs": [
        {
          "indexed": true,
          "internalType": "address",
          "name": "from",
          "type": "address"
        },
        {
          "indexed": true,
          "internalType": "address",
          "name": "to",
          "type": "address"
        },
        {
          "indexed": false,
          "internalType": "uint256",
          "name": "value",
          "type": "uint256"
        }
      ],
      "name": "Transfer",
      "type": "event"
    },
    {
      "anonymous": false,
      "inputs": [
        {
          "indexed": true,
          "internalType": "address",
          "name": "accountAddress",
          "type": "address"
        },
        {
          "indexed": false,
          "internalType": "uint256",
          "name": "tokens",
          "type": "uint256"
        },
        {
          "indexed": false,
          "internalType": "uint256",
          "name": "timestamp",
          "type": "uint256"
        }
      ],
      "name": "TriggeredCalculateHolderRewards",
      "type": "event"
    },
    {
      "anonymous": false,
      "inputs": [
        {
          "indexed": true,
          "internalType": "address",
          "name": "accountAddress",
          "type": "address"
        },
        {
          "indexed": false,
          "internalType": "uint256",
          "name": "tokens",
          "type": "uint256"
        },
        {
          "indexed": false,
          "internalType": "uint256",
          "name": "timestamp",
          "type": "uint256"
        }
      ],
      "name": "TriggeredCalculateRewards",
      "type": "event"
    },
    {
      "anonymous": false,
      "inputs": [
        {
          "indexed": false,
          "internalType": "address",
          "name": "account",
          "type": "address"
        }
      ],
      "name": "Unpaused",
      "type": "event"
    },
    {
      "inputs": [],
      "name": "DEFAULT_ADMIN_ROLE",
      "outputs": [
        {
          "internalType": "bytes32",
          "name": "",
          "type": "bytes32"
        }
      ],
      "stateMutability": "view",
      "type": "function"
    },
    {
      "inputs": [],
      "name": "PAUSER_ROLE",
      "outputs": [
        {
          "internalType": "bytes32",
          "name": "",
          "type": "bytes32"
        }
      ],
      "stateMutability": "view",
      "type": "function"
    },
    {
      "inputs": [
        {
          "internalType": "address",
          "name": "",
          "type": "address"
        }
      ],
      "name": "_holderContractAddress",
      "outputs": [
        {
          "internalType": "address",
          "name": "",
          "type": "address"
        }
      ],
      "stateMutability": "view",
      "type": "function"
    },
    {
      "inputs": [
        {
          "internalType": "address",
          "name": "",
          "type": "address"
        }
      ],
      "name": "_lastHolderRewardTimestamp",
      "outputs": [
        {
          "internalType": "uint256",
          "name": "",
          "type": "uint256"
        }
      ],
      "stateMutability": "view",
      "type": "function"
    },
    {
      "inputs": [],
      "name": "_liquidStakingContract",
      "outputs": [
        {
          "internalType": "address",
          "name": "",
          "type": "address"
        }
      ],
      "stateMutability": "view",
      "type": "function"
    },
    {
      "inputs": [
        {
          "internalType": "address",
          "name": "",
          "type": "address"
        }
      ],
      "name": "_lpContractAddress",
      "outputs": [
        {
          "internalType": "address",
          "name": "",
          "type": "address"
        }
      ],
      "stateMutability": "view",
      "type": "function"
    },
    {
      "inputs": [],
      "name": "_uTokens",
      "outputs": [
        {
          "internalType": "contract IUTokens",
          "name": "",
          "type": "address"
        }
      ],
      "stateMutability": "view",
      "type": "function"
    },
    {
      "inputs": [],
      "name": "_valueDivisor",
      "outputs": [
        {
          "internalType": "uint256",
          "name": "",
          "type": "uint256"
        }
      ],
      "stateMutability": "view",
      "type": "function"
    },
    {
      "inputs": [],
      "name": "_version",
      "outputs": [
        {
          "internalType": "uint256",
          "name": "",
          "type": "uint256"
        }
      ],
      "stateMutability": "view",
      "type": "function"
    },
    {
      "inputs": [
        {
          "internalType": "address",
          "name": "owner",
          "type": "address"
        },
        {
          "internalType": "address",
          "name": "spender",
          "type": "address"
        }
      ],
      "name": "allowance",
      "outputs": [
        {
          "internalType": "uint256",
          "name": "",
          "type": "uint256"
        }
      ],
      "stateMutability": "view",
      "type": "function"
    },
    {
      "inputs": [
        {
          "internalType": "address",
          "name": "spender",
          "type": "address"
        },
        {
          "internalType": "uint256",
          "name": "amount",
          "type": "uint256"
        }
      ],
      "name": "approve",
      "outputs": [
        {
          "internalType": "bool",
          "name": "",
          "type": "bool"
        }
      ],
      "stateMutability": "nonpayable",
      "type": "function"
    },
    {
      "inputs": [
        {
          "internalType": "address",
          "name": "account",
          "type": "address"
        }
      ],
      "name": "balanceOf",
      "outputs": [
        {
          "internalType": "uint256",
          "name": "",
          "type": "uint256"
        }
      ],
      "stateMutability": "view",
      "type": "function"
    },
    {
      "inputs": [],
      "name": "decimals",
      "outputs": [
        {
          "internalType": "uint8",
          "name": "",
          "type": "uint8"
        }
      ],
      "stateMutability": "view",
      "type": "function"
    },
    {
      "inputs": [
        {
          "internalType": "address",
          "name": "spender",
          "type": "address"
        },
        {
          "internalType": "uint256",
          "name": "subtractedValue",
          "type": "uint256"
        }
      ],
      "name": "decreaseAllowance",
      "outputs": [
        {
          "internalType": "bool",
          "name": "",
          "type": "bool"
        }
      ],
      "stateMutability": "nonpayable",
      "type": "function"
    },
    {
      "inputs": [
        {
          "internalType": "bytes32",
          "name": "role",
          "type": "bytes32"
        }
      ],
      "name": "getRoleAdmin",
      "outputs": [
        {
          "internalType": "bytes32",
          "name": "",
          "type": "bytes32"
        }
      ],
      "stateMutability": "view",
      "type": "function"
    },
    {
      "inputs": [
        {
          "internalType": "bytes32",
          "name": "role",
          "type": "bytes32"
        },
        {
          "internalType": "uint256",
          "name": "index",
          "type": "uint256"
        }
      ],
      "name": "getRoleMember",
      "outputs": [
        {
          "internalType": "address",
          "name": "",
          "type": "address"
        }
      ],
      "stateMutability": "view",
      "type": "function"
    },
    {
      "inputs": [
        {
          "internalType": "bytes32",
          "name": "role",
          "type": "bytes32"
        }
      ],
      "name": "getRoleMemberCount",
      "outputs": [
        {
          "internalType": "uint256",
          "name": "",
          "type": "uint256"
        }
      ],
      "stateMutability": "view",
      "type": "function"
    },
    {
      "inputs": [
        {
          "internalType": "bytes32",
          "name": "role",
          "type": "bytes32"
        },
        {
          "internalType": "address",
          "name": "account",
          "type": "address"
        }
      ],
      "name": "grantRole",
      "outputs": [],
      "stateMutability": "nonpayable",
      "type": "function"
    },
    {
      "inputs": [
        {
          "internalType": "bytes32",
          "name": "role",
          "type": "bytes32"
        },
        {
          "internalType": "address",
          "name": "account",
          "type": "address"
        }
      ],
      "name": "hasRole",
      "outputs": [
        {
          "internalType": "bool",
          "name": "",
          "type": "bool"
        }
      ],
      "stateMutability": "view",
      "type": "function"
    },
    {
      "inputs": [
        {
          "internalType": "address",
          "name": "spender",
          "type": "address"
        },
        {
          "internalType": "uint256",
          "name": "addedValue",
          "type": "uint256"
        }
      ],
      "name": "increaseAllowance",
      "outputs": [
        {
          "internalType": "bool",
          "name": "",
          "type": "bool"
        }
      ],
      "stateMutability": "nonpayable",
      "type": "function"
    },
    {
      "inputs": [],
      "name": "name",
      "outputs": [
        {
          "internalType": "string",
          "name": "",
          "type": "string"
        }
      ],
      "stateMutability": "view",
      "type": "function"
    },
    {
      "inputs": [],
      "name": "paused",
      "outputs": [
        {
          "internalType": "bool",
          "name": "",
          "type": "bool"
        }
      ],
      "stateMutability": "view",
      "type": "function"
    },
    {
      "inputs": [
        {
          "internalType": "bytes32",
          "name": "role",
          "type": "bytes32"
        },
        {
          "internalType": "address",
          "name": "account",
          "type": "address"
        }
      ],
      "name": "renounceRole",
      "outputs": [],
      "stateMutability": "nonpayable",
      "type": "function"
    },
    {
      "inputs": [
        {
          "internalType": "bytes32",
          "name": "role",
          "type": "bytes32"
        },
        {
          "internalType": "address",
          "name": "account",
          "type": "address"
        }
      ],
      "name": "revokeRole",
      "outputs": [],
      "stateMutability": "nonpayable",
      "type": "function"
    },
    {
      "inputs": [],
      "name": "symbol",
      "outputs": [
        {
          "internalType": "string",
          "name": "",
          "type": "string"
        }
      ],
      "stateMutability": "view",
      "type": "function"
    },
    {
      "inputs": [],
      "name": "totalSupply",
      "outputs": [
        {
          "internalType": "uint256",
          "name": "",
          "type": "uint256"
        }
      ],
      "stateMutability": "view",
      "type": "function"
    },
    {
      "inputs": [
        {
          "internalType": "address",
          "name": "recipient",
          "type": "address"
        },
        {
          "internalType": "uint256",
          "name": "amount",
          "type": "uint256"
        }
      ],
      "name": "transfer",
      "outputs": [
        {
          "internalType": "bool",
          "name": "",
          "type": "bool"
        }
      ],
      "stateMutability": "nonpayable",
      "type": "function"
    },
    {
      "inputs": [
        {
          "internalType": "address",
          "name": "sender",
          "type": "address"
        },
        {
          "internalType": "address",
          "name": "recipient",
          "type": "address"
        },
        {
          "internalType": "uint256",
          "name": "amount",
          "type": "uint256"
        }
      ],
      "name": "transferFrom",
      "outputs": [
        {
          "internalType": "bool",
          "name": "",
          "type": "bool"
        }
      ],
      "stateMutability": "nonpayable",
      "type": "function"
    },
    {
      "inputs": [
        {
          "internalType": "address",
          "name": "uaddress",
          "type": "address"
        },
        {
          "internalType": "address",
          "name": "pauserAddress",
          "type": "address"
        },
        {
          "internalType": "uint256",
          "name": "rewardRate",
          "type": "uint256"
        },
        {
          "internalType": "uint256",
          "name": "valueDivisor",
          "type": "uint256"
        }
      ],
      "name": "initialize",
      "outputs": [],
      "stateMutability": "nonpayable",
      "type": "function"
    },
    {
      "inputs": [
        {
          "internalType": "address",
          "name": "whitelistedAddress",
          "type": "address"
        }
      ],
      "name": "isContractWhitelisted",
      "outputs": [
        {
          "internalType": "bool",
          "name": "result",
          "type": "bool"
        }
      ],
      "stateMutability": "view",
      "type": "function"
    },
    {
      "inputs": [
        {
          "internalType": "address",
          "name": "whitelistedAddress",
          "type": "address"
        }
      ],
      "name": "getHolderData",
      "outputs": [
        {
          "internalType": "address",
          "name": "holderAddress",
          "type": "address"
        },
        {
          "internalType": "address",
          "name": "lpAddress",
          "type": "address"
        },
        {
          "internalType": "uint256",
          "name": "lastHolderRewardTimestamp",
          "type": "uint256"
        }
      ],
      "stateMutability": "view",
      "type": "function"
    },
    {
      "inputs": [
        {
          "internalType": "uint256",
          "name": "rewardRate",
          "type": "uint256"
        }
      ],
      "name": "setRewardRate",
      "outputs": [
        {
          "internalType": "bool",
          "name": "success",
          "type": "bool"
        }
      ],
      "stateMutability": "nonpayable",
      "type": "function"
    },
    {
      "inputs": [],
      "name": "getRewardRate",
      "outputs": [
        {
          "internalType": "uint256[]",
          "name": "rewardRate",
          "type": "uint256[]"
        },
        {
          "internalType": "uint256",
          "name": "valueDivisor",
          "type": "uint256"
        }
      ],
      "stateMutability": "view",
      "type": "function"
    },
    {
      "inputs": [
        {
          "internalType": "address",
          "name": "to",
          "type": "address"
        }
      ],
      "name": "getLastUserRewardTimestamp",
      "outputs": [
        {
          "internalType": "uint256",
          "name": "lastUserRewardTimestamp",
          "type": "uint256"
        }
      ],
      "stateMutability": "view",
      "type": "function"
    },
    {
      "inputs": [
        {
          "internalType": "address",
          "name": "to",
          "type": "address"
        },
        {
          "internalType": "uint256",
          "name": "tokens",
          "type": "uint256"
        }
      ],
      "name": "mint",
      "outputs": [
        {
          "internalType": "bool",
          "name": "",
          "type": "bool"
        }
      ],
      "stateMutability": "nonpayable",
      "type": "function"
    },
    {
      "inputs": [
        {
          "internalType": "address",
          "name": "from",
          "type": "address"
        },
        {
          "internalType": "uint256",
          "name": "tokens",
          "type": "uint256"
        }
      ],
      "name": "burn",
      "outputs": [
        {
          "internalType": "bool",
          "name": "",
          "type": "bool"
        }
      ],
      "stateMutability": "nonpayable",
      "type": "function"
    },
    {
      "inputs": [
        {
          "internalType": "address",
          "name": "to",
          "type": "address"
        }
      ],
      "name": "calculatePendingRewards",
      "outputs": [
        {
          "internalType": "uint256",
          "name": "pendingRewards",
          "type": "uint256"
        }
      ],
      "stateMutability": "view",
      "type": "function"
    },
    {
      "inputs": [
        {
          "internalType": "address",
          "name": "to",
          "type": "address"
        }
      ],
      "name": "calculateRewards",
      "outputs": [
        {
          "internalType": "uint256",
          "name": "reward",
          "type": "uint256"
        }
      ],
      "stateMutability": "nonpayable",
      "type": "function"
    },
    {
      "inputs": [
        {
          "internalType": "address",
          "name": "to",
          "type": "address"
        }
      ],
      "name": "calculateHolderRewards",
      "outputs": [
        {
          "internalType": "uint256",
          "name": "rewards",
          "type": "uint256"
        }
      ],
      "stateMutability": "nonpayable",
      "type": "function"
    },
    {
      "inputs": [
        {
          "internalType": "address",
          "name": "whitelistedAddress",
          "type": "address"
        },
        {
          "internalType": "address",
          "name": "holderContractAddress",
          "type": "address"
        },
        {
          "internalType": "address",
          "name": "lpContractAddress",
          "type": "address"
        }
      ],
      "name": "setWhitelistedAddress",
      "outputs": [
        {
          "internalType": "bool",
          "name": "success",
          "type": "bool"
        }
      ],
      "stateMutability": "nonpayable",
      "type": "function"
    },
    {
      "inputs": [
        {
          "internalType": "address",
          "name": "whitelistedAddress",
          "type": "address"
        }
      ],
      "name": "removeWhitelistedAddress",
      "outputs": [
        {
          "internalType": "bool",
          "name": "success",
          "type": "bool"
        }
      ],
      "stateMutability": "nonpayable",
      "type": "function"
    },
    {
      "inputs": [
        {
          "internalType": "address",
          "name": "uTokenContract",
          "type": "address"
        }
      ],
      "name": "setUTokensContract",
      "outputs": [],
      "stateMutability": "nonpayable",
      "type": "function"
    },
    {
      "inputs": [
        {
          "internalType": "address",
          "name": "liquidStakingContract",
          "type": "address"
        }
      ],
      "name": "setLiquidStakingContract",
      "outputs": [],
      "stateMutability": "nonpayable",
      "type": "function"
    },
    {
      "inputs": [],
      "name": "pause",
      "outputs": [
        {
          "internalType": "bool",
          "name": "success",
          "type": "bool"
        }
      ],
      "stateMutability": "nonpayable",
      "type": "function"
    },
    {
      "inputs": [],
      "name": "unpause",
      "outputs": [
        {
          "internalType": "bool",
          "name": "success",
          "type": "bool"
        }
      ],
      "stateMutability": "nonpayable",
      "type": "function"
    }
  ],
  "bytecode": "0x608060405234801561001057600080fd5b506132e2806100206000396000f3fe608060405234801561001057600080fd5b506004361061027f5760003560e01c806370a082311161015c578063a217fddf116100ce578063d547741f11610087578063d547741f14610856578063da6b7ec714610882578063dd62ed3e146108a8578063e4df5918146108d6578063e63ab1e9146108fc578063eb990c59146109045761027f565b8063a217fddf1461078d578063a457c2d714610795578063a9059cbb146107c1578063b8ecc2a9146107ed578063c057058a14610813578063ca15c873146108395761027f565b80638456cb59116101205780638456cb59146106e55780639010d07c146106ed57806391d148541461071057806395d89b411461073c5780639dc29fac146107445780639e447fc6146107705761027f565b806370a0823114610644578063728a99ee1461066a57806378a2f07414610672578063793105d81461067a5780637e1a3786146106825761027f565b806336bbacad116101f557806340c10f19116101b957806340c10f19146105665780634bcb30f814610592578063530cd5ab146105ca57806358f8943e146105f05780635c975abb1461061657806364ab86751461061e5761027f565b806336bbacad1461049857806339509351146104e85780633e118dbe146105145780633f4ba83a1461051c5780633f7398a8146105245761027f565b806323b872dd1161024757806323b872dd146103a9578063248a9ca3146103df57806326d6772e146103fc5780632f2ff15d14610422578063313ce5671461044e57806336568abe1461046c5761027f565b806306fdde0314610284578063095ea7b314610301578063097aad101461034157806318160ddd1461037957806321bdf9e514610381575b600080fd5b61028c610940565b6040805160208082528351818301528351919283929083019185019080838360005b838110156102c65781810151838201526020016102ae565b50505050905090810190601f1680156102f35780820380516001836020036101000a031916815260200191505b509250505060405180910390f35b61032d6004803603604081101561031757600080fd5b506001600160a01b0381351690602001356109d6565b604080519115158252519081900360200190f35b6103676004803603602081101561035757600080fd5b50356001600160a01b03166109f4565b60408051918252519081900360200190f35b610367610a2b565b6103a76004803603602081101561039757600080fd5b50356001600160a01b0316610a31565b005b61032d600480360360608110156103bf57600080fd5b506001600160a01b03813581169160208101359091169060400135610ac7565b610367600480360360208110156103f557600080fd5b5035610b4f565b6103676004803603602081101561041257600080fd5b50356001600160a01b0316610b64565b6103a76004803603604081101561043857600080fd5b50803590602001356001600160a01b0316610c62565b610456610cc9565b6040805160ff9092168252519081900360200190f35b6103a76004803603604081101561048257600080fd5b50803590602001356001600160a01b0316610cd2565b6104be600480360360208110156104ae57600080fd5b50356001600160a01b0316610d33565b604080516001600160a01b0394851681529290931660208301528183015290519081900360600190f35b61032d600480360360408110156104fe57600080fd5b506001600160a01b038135169060200135610d69565b610367610db7565b61032d610dbd565b61054a6004803603602081101561053a57600080fd5b50356001600160a01b0316610e21565b604080516001600160a01b039092168252519081900360200190f35b61032d6004803603604081101561057c57600080fd5b506001600160a01b038135169060200135610e3c565b61032d600480360360608110156105a857600080fd5b506001600160a01b038135811691602081013582169160409091013516610e9e565b61032d600480360360208110156105e057600080fd5b50356001600160a01b0316610fd2565b6103a76004803603602081101561060657600080fd5b50356001600160a01b03166110f6565b61032d611187565b6103676004803603602081101561063457600080fd5b50356001600160a01b0316611190565b6103676004803603602081101561065a57600080fd5b50356001600160a01b0316611288565b6103676112a3565b61054a6112a9565b61054a6112b8565b61068a6112c7565b6040518080602001838152602001828103825284818151815260200191508051906020019060200280838360005b838110156106d05781810151838201526020016106b8565b50505050905001935050505060405180910390f35b61032d611327565b61054a6004803603604081101561070357600080fd5b5080359060200135611385565b61032d6004803603604081101561072657600080fd5b50803590602001356001600160a01b031661139d565b61028c6113b5565b61032d6004803603604081101561075a57600080fd5b506001600160a01b038135169060200135611416565b61032d6004803603602081101561078657600080fd5b5035611478565b6103676115a2565b61032d600480360360408110156107ab57600080fd5b506001600160a01b0381351690602001356115a7565b61032d600480360360408110156107d757600080fd5b506001600160a01b03813516906020013561160f565b6103676004803603602081101561080357600080fd5b50356001600160a01b0316611623565b61032d6004803603602081101561082957600080fd5b50356001600160a01b0316611635565b6103676004803603602081101561084f57600080fd5b5035611642565b6103a76004803603604081101561086c57600080fd5b50803590602001356001600160a01b0316611659565b61054a6004803603602081101561089857600080fd5b50356001600160a01b03166116b2565b610367600480360360408110156108be57600080fd5b506001600160a01b03813581169160200135166116cd565b610367600480360360208110156108ec57600080fd5b50356001600160a01b03166116f8565b610367611713565b6103a76004803603608081101561091a57600080fd5b506001600160a01b03813581169160208101359091169060408101359060600135611725565b60368054604080516020601f60026000196101006001881615020190951694909404938401819004810282018101909252828152606093909290918301828280156109cc5780601f106109a1576101008083540402835291602001916109cc565b820191906000526020600020905b8154815290600101906020018083116109af57829003601f168201915b5050505050905090565b60006109ea6109e3611918565b848461191c565b5060015b92915050565b6001600160a01b038116600090815260d3602052604081205481610a1784611288565b9050610a238183611a08565b949350505050565b60355490565b610a436000610a3e611918565b61139d565b610a7d576040805162461bcd60e51b8152602060048083019190915260248201526329aa189960e11b604482015290519081900360640190fd5b60cf80546001600160a01b0319166001600160a01b0383169081179091556040517ff745c285f36f88bea6af14d4d0f33dd9350cef7895216c1615b1caaee7857e0c90600090a250565b6000610ad4848484611c2a565b610b4484610ae0611918565b610b3f856040518060600160405280602881526020016131a7602891396001600160a01b038a16600090815260346020526040812090610b1e611918565b6001600160a01b031681526020810191909152604001600020549190611d87565b61191c565b5060015b9392505050565b60009081526097602052604090206002015490565b6000610b6e611187565b15610bb3576040805162461bcd60e51b815260206004820152601060248201526f14185d5cd8589b194e881c185d5cd95960821b604482015290519081900360640190fd5b6001600160a01b03821615801590610bd357506001600160a01b03821615155b610c0d576040805162461bcd60e51b8152602060048083019190915260248201526329aa189b60e11b604482015290519081900360640190fd5b610c1682611e1e565b6040805182815242602082015281519293506001600160a01b038516927e1ea73cd0c55ac52e092097cf417b2b1104949e311fefe6795684ef44bad26d929181900390910190a2919050565b600082815260976020526040902060020154610c8090610a3e611918565b610cbb5760405162461bcd60e51b815260040180806020018281038252602f81526020018061308f602f913960400191505060405180910390fd5b610cc58282612055565b5050565b60385460ff1690565b610cda611918565b6001600160a01b0316816001600160a01b031614610d295760405162461bcd60e51b815260040180806020018281038252602f81526020018061327e602f913960400191505060405180910390fd5b610cc582826120be565b6001600160a01b03908116600090815260cb602090815260408083205460cc83528184205460cd90935292205491831693921691565b60006109ea610d76611918565b84610b3f8560346000610d87611918565b6001600160a01b03908116825260208083019390935260409182016000908120918c168152925290205490612127565b60d45481565b6000610dd96000805160206131cf833981519152610a3e611918565b610e13576040805162461bcd60e51b815260206004808301919091526024820152635354313560e01b604482015290519081900360640190fd5b610e1b612181565b50600190565b60cb602052600090815260409020546001600160a01b031681565b60ce546000906001600160a01b0316610e53611918565b6001600160a01b031614610e94576040805162461bcd60e51b815260206004820152600360248201526253543360e81b604482015290519081900360640190fd5b6109ea8383612221565b6000610eac81610a3e611918565b610ee3576040805162461bcd60e51b81526020600482015260036024820152620a6a8760eb1b604482015290519081900360640190fd5b6001600160a01b038416610f24576040805162461bcd60e51b815260206004820152600360248201526253543960e81b604482015290519081900360640190fd5b610f2f60c985612313565b610f4057610f3e60c985612328565b505b6001600160a01b03808516600081815260cb602090815260408083208054868a166001600160a01b0319918216811790925560cc84529382902080549689169690941686179093558051928352908201939093524281840152915190917f82ed35aaa6afc6ef1f698fbb8532bfa0a40ac98e0a5157a330a43ac1715cc199919081900360600190a25060019392505050565b6000610fe081610a3e611918565b61101a576040805162461bcd60e51b815260206004808301919091526024820152630535431360e41b604482015290519081900360640190fd5b6001600160a01b03821661105e576040805162461bcd60e51b815260206004808301919091526024820152635354313160e01b604482015290519081900360640190fd5b61106960c98361233d565b506001600160a01b03828116600081815260cb60209081526040808320805460cc84529382902080546001600160a01b031980871690935581549092169055815193861680855295169183018290524283820152519092917f2742009aa76efd08ff06c38a132900d832bc5494d526b3335719fca7b65b95fc919081900360600190a25060019392505050565b6111036000610a3e611918565b61113d576040805162461bcd60e51b815260206004808301919091526024820152635354313360e01b604482015290519081900360640190fd5b60ce80546001600160a01b0319166001600160a01b0383169081179091556040517f57fded54c0f01b7b2c662bd89530d6916e48149e02da384db87d1a67306be87190600090a250565b60655460ff1690565b600061119a611187565b156111df576040805162461bcd60e51b815260206004820152601060248201526f14185d5cd8589b194e881c185d5cd95960821b604482015290519081900360640190fd5b6111e7611918565b6001600160a01b0316826001600160a01b031614611232576040805162461bcd60e51b815260206004820152600360248201526253543560e81b604482015290519081900360640190fd5b61123b82612352565b6040805182815242602082015281519293506001600160a01b038516927fd0194489832efa41a56f4a4add6fbbe260998cbcff0b43c953af28b545ca7a01929181900390910190a2919050565b6001600160a01b031660009081526033602052604090205490565b60d25481565b60cf546001600160a01b031681565b60ce546001600160a01b031681565b6060600060d080548060200260200160405190810160405280929190818152602001828054801561131757602002820191906000526020600020905b815481526020019060010190808311611303575b5050505050915060d25490509091565b60006113436000805160206131cf833981519152610a3e611918565b61137d576040805162461bcd60e51b8152602060048083019190915260248201526314d50c4d60e21b604482015290519081900360640190fd5b610e1b61243d565b6000828152609760205260408120610b4890836124c0565b6000828152609760205260408120610b489083612313565b60378054604080516020601f60026000196101006001881615020190951694909404938401819004810282018101909252828152606093909290918301828280156109cc5780601f106109a1576101008083540402835291602001916109cc565b60ce546000906001600160a01b031661142d611918565b6001600160a01b03161461146e576040805162461bcd60e51b815260206004820152600360248201526214d50d60ea1b604482015290519081900360640190fd5b6109ea83836124cc565b60d2546000906114899060646125c8565b8211156114c6576040805162461bcd60e51b815260206004808301919091526024820152635354313760e01b604482015290519081900360640190fd5b6114d36000610a3e611918565b61150a576040805162461bcd60e51b815260206004820152600360248201526229aa1960e91b604482015290519081900360640190fd5b60d0805460018181019092557fe89d44c8fd6a9bac8af33ce47f56337617d449bf7ff3956b618c646de829cbcb0183905560d1805491820181556000908152427f695fb3134ad82c3b8022bc5464edd0bcc9424ef672b52245dcb6ab2374327ce39092019190915560405183917f1946fb78c7ca778b54d82cabaac5ba67cf446f58d0ff1f8ceaebb6150e54e44f91a2506001919050565b600081565b60006109ea6115b4611918565b84610b3f8560405180606001604052806025815260200161325960259139603460006115de611918565b6001600160a01b03908116825260208083019390935260409182016000908120918d16815292529020549190611d87565b60006109ea61161c611918565b8484611c2a565b60cd6020526000908152604090205481565b60006109ee60c983612313565b60008181526097602052604081206109ee90612621565b60008281526097602052604090206002015461167790610a3e611918565b610d295760405162461bcd60e51b81526004018080602001828103825260308152602001806131286030913960400191505060405180910390fd5b60cc602052600090815260409020546001600160a01b031681565b6001600160a01b03918216600090815260346020908152604080832093909416825291909152205490565b6001600160a01b0316600090815260d3602052604090205490565b6000805160206131cf83398151915281565b600054610100900460ff168061173e575061173e61262c565b8061174c575060005460ff16155b6117875760405162461bcd60e51b815260040180806020018281038252602e815260200180613158602e913960400191505060405180910390fd5b600054610100900460ff161580156117b2576000805460ff1961ff0019909116610100171660011790555b61180560405180604001604052806012815260200171705354414b45205374616b65642041544f4d60701b8152506040518060400160405280600781526020016673746b41544f4d60c81b81525061263d565b61180d6126f3565b6118156127a5565b6118276000611822611918565b610cbb565b61183f6000805160206131cf83398151915285610cbb565b61184885610a31565b60d28290556118588260646125c8565b831115611892576040805162461bcd60e51b815260206004820152600360248201526253543160e81b604482015290519081900360640190fd5b60d0805460018181019092557fe89d44c8fd6a9bac8af33ce47f56337617d449bf7ff3956b618c646de829cbcb0184905560d180549182018155600052427f695fb3134ad82c3b8022bc5464edd0bcc9424ef672b52245dcb6ab2374327ce3909101556118ff6006612842565b8015611911576000805461ff00191690555b5050505050565b3390565b6001600160a01b0383166119615760405162461bcd60e51b81526004018080602001828103825260248152602001806132356024913960400191505060405180910390fd5b6001600160a01b0382166119a65760405162461bcd60e51b81526004018080602001828103825260228152602001806130e06022913960400191505060405180910390fd5b6001600160a01b03808416600081815260346020908152604080832094871680845294825291829020859055815185815291517f8c5be1e5ebec7d5bd14f71427d1e84f3dd0314c0f7b2291e5b200ac8c7c3b9259281900390910190a3505050565b600080808080861580611a225750611a204287612858565b155b15611a345760009450505050506109ee565b60d154600090611a45906001612858565b90508094505b60d154611a59906001612858565b851015611b72578660d18681548110611a6e57fe5b90600052602060002001541115611b1e57611acb60d18681548110611a8f57fe5b60009182526020909120015460d1611aa8886001612127565b81548110611ab257fe5b906000526020600020015461285890919063ffffffff16565b9350611af260d08681548110611add57fe5b600091825260209091200154899060646128b5565b9150611b0b8460d254846128b59092919063ffffffff16565b9250611b178684612127565b9550611b6d565b611b2f8760d1611aa8886001612127565b9350611b4160d08681548110611add57fe5b9150611b5a8460d254846128b59092919063ffffffff16565b9250611b668684612127565b9550611c1f565b611c03565b8660d18681548110611b8057fe5b90600052602060002001541115611bf957611bbb60d18681548110611ba157fe5b90600052602060002001544261285890919063ffffffff16565b9350611bcd60d08681548110611add57fe5b9150611be68460d254846128b59092919063ffffffff16565b9250611bf28684612127565b9550611c03565b611b2f4288612858565b84611c0d57611c1f565b611c18856001612858565b9450611a4b565b505050505092915050565b6001600160a01b038316611c6f5760405162461bcd60e51b81526004018080602001828103825260258152602001806132106025913960400191505060405180910390fd5b6001600160a01b038216611cb45760405162461bcd60e51b815260040180806020018281038252602381526020018061306c6023913960400191505060405180910390fd5b611cbf83838361296e565b611cfc81604051806060016040528060268152602001613102602691396001600160a01b0386166000908152603360205260409020549190611d87565b6001600160a01b038085166000908152603360205260408082209390935590841681522054611d2b9082612127565b6001600160a01b0380841660008181526033602090815260409182902094909455805185815290519193928716927fddf252ad1be2c89b69c2b068fc378daa952ba7f163c4a11628f55a4df523b3ef92918290030190a3505050565b60008184841115611e165760405162461bcd60e51b81526004018080602001828103825283818151815260200191508051906020019080838360005b83811015611ddb578181015183820152602001611dc3565b50505050905090810190601f168015611e085780820380516001836020036101000a031916815260200191505b509250505060405180910390fd5b505050900390565b6000611e2b60c983612313565b8015611e5057506001600160a01b03828116600090815260cb60205260409020541615155b8015611e7557506001600160a01b03828116600090815260cc60205260409020541615155b611eac576040805162461bcd60e51b815260206004820152600360248201526229aa1b60e91b604482015290519081900360640190fd5b6001600160a01b03808316600081815260cb60209081526040808320548151630f5560db60e41b8152600481019590955290519294169263f5560db09260248083019392829003018186803b158015611f0457600080fd5b505afa158015611f18573d6000803e3d6000fd5b505050506040513d6020811015611f2e57600080fd5b50516001600160a01b038416600090815260cd6020526040902054909150611f57908290611a08565b6001600160a01b038416600090815260cd602052604090204290559150811561200d5760cf546001600160a01b03848116600090815260cb602090815260408083205481516340c10f1960e01b8152908516600482015260248101889052905193909416936340c10f199360448083019491928390030190829087803b158015611fe057600080fd5b505af1158015611ff4573d6000803e3d6000fd5b505050506040513d602081101561200a57600080fd5b50505b6040805183815242602082015281516001600160a01b038616927fe85a4e933dc860954bf36bb3668248d022d3047f9056c2c083e5e44a0f1517a0928290030190a250919050565b600082815260976020526040902061206d9082612328565b15610cc55761207a611918565b6001600160a01b0316816001600160a01b0316837f2f8788117e7eff1d82e926ec794901d17c78024a50270940304540a733656f0d60405160405180910390a45050565b60008281526097602052604090206120d6908261233d565b15610cc5576120e3611918565b6001600160a01b0316816001600160a01b0316837ff6391f5c32d9c69d2a47ea670b442974b53935d1edc7fd64eb21e047a839171b60405160405180910390a45050565b600082820183811015610b48576040805162461bcd60e51b815260206004820152601b60248201527f536166654d6174683a206164646974696f6e206f766572666c6f770000000000604482015290519081900360640190fd5b612189611187565b6121d1576040805162461bcd60e51b815260206004820152601460248201527314185d5cd8589b194e881b9bdd081c185d5cd95960621b604482015290519081900360640190fd5b6065805460ff191690557f5db9ee0a495bf2e6ff9c91a7834c1ba4fdd244a5e8aa4e537bd38aeae4b073aa612204611918565b604080516001600160a01b039092168252519081900360200190a1565b6001600160a01b03821661227c576040805162461bcd60e51b815260206004820152601f60248201527f45524332303a206d696e7420746f20746865207a65726f206164647265737300604482015290519081900360640190fd5b6122886000838361296e565b6035546122959082612127565b6035556001600160a01b0382166000908152603360205260409020546122bb9082612127565b6001600160a01b03831660008181526033602090815260408083209490945583518581529351929391927fddf252ad1be2c89b69c2b068fc378daa952ba7f163c4a11628f55a4df523b3ef9281900390910190a35050565b6000610b48836001600160a01b038416612b52565b6000610b48836001600160a01b038416612b6a565b6000610b48836001600160a01b038416612bb4565b60008061235e836109f4565b6001600160a01b03808516600081815260d36020908152604080832042905560cf5481516340c10f1960e01b81526004810195909552602485018790529051959650909316936340c10f19936044808501949193918390030190829087803b1580156123c957600080fd5b505af11580156123dd573d6000803e3d6000fd5b505050506040513d60208110156123f357600080fd5b50506040805182815242602082015281516001600160a01b038616927f01ea729deb12fa912e813101b1da8b7c1500f7f26c912a612221a02af6a56220928290030190a292915050565b612445611187565b1561248a576040805162461bcd60e51b815260206004820152601060248201526f14185d5cd8589b194e881c185d5cd95960821b604482015290519081900360640190fd5b6065805460ff191660011790557f62e78cea01bee320cd4e420270b5ea74000d11b0c9f74754ebdbfc544b05a258612204611918565b6000610b488383612c7a565b6001600160a01b0382166125115760405162461bcd60e51b81526004018080602001828103825260218152602001806131ef6021913960400191505060405180910390fd5b61251d8260008361296e565b61255a816040518060600160405280602281526020016130be602291396001600160a01b0385166000908152603360205260409020549190611d87565b6001600160a01b0383166000908152603360205260409020556035546125809082612858565b6035556040805182815290516000916001600160a01b038516917fddf252ad1be2c89b69c2b068fc378daa952ba7f163c4a11628f55a4df523b3ef9181900360200190a35050565b6000826125d7575060006109ee565b828202828482816125e457fe5b0414610b485760405162461bcd60e51b81526004018080602001828103825260218152602001806131866021913960400191505060405180910390fd5b60006109ee82612cde565b600061263730612ce2565b15905090565b600054610100900460ff1680612656575061265661262c565b80612664575060005460ff16155b61269f5760405162461bcd60e51b815260040180806020018281038252602e815260200180613158602e913960400191505060405180910390fd5b600054610100900460ff161580156126ca576000805460ff1961ff0019909116610100171660011790555b6126d2612ce8565b6126dc8383612d88565b80156126ee576000805461ff00191690555b505050565b600054610100900460ff168061270c575061270c61262c565b8061271a575060005460ff16155b6127555760405162461bcd60e51b815260040180806020018281038252602e815260200180613158602e913960400191505060405180910390fd5b600054610100900460ff16158015612780576000805460ff1961ff0019909116610100171660011790555b612788612ce8565b612790612ce8565b80156127a2576000805461ff00191690555b50565b600054610100900460ff16806127be57506127be61262c565b806127cc575060005460ff16155b6128075760405162461bcd60e51b815260040180806020018281038252602e815260200180613158602e913960400191505060405180910390fd5b600054610100900460ff16158015612832576000805460ff1961ff0019909116610100171660011790555b61283a612ce8565b612790612e60565b6038805460ff191660ff92909216919091179055565b6000828211156128af576040805162461bcd60e51b815260206004820152601e60248201527f536166654d6174683a207375627472616374696f6e206f766572666c6f770000604482015290519081900360640190fd5b50900390565b60008060006128c48686612f0b565b91509150600084806128d257fe5b8688099050828111156128e6576001820391505b918290039181612904578483816128f957fe5b049350505050610b48565b848210612958576040805162461bcd60e51b815260206004820152601a60248201527f46756c6c4d6174683a2046554c4c4449565f4f564552464c4f57000000000000604482015290519081900360640190fd5b612963838387612f38565b979650505050505050565b612976611187565b156129ae576040805162461bcd60e51b815260206004820152600360248201526253543760e81b604482015290519081900360640190fd5b6129b98383836126ee565b6001600160a01b0383166129f0576129d260c983612313565b6129e5576129df82612352565b506129f0565b6129ee82611e1e565b505b6001600160a01b03831615801590612a105750612a0e60c984612313565b155b15612aa0576001600160a01b038216612a2e57612a2c83612352565b505b6001600160a01b03821615801590612a4e5750612a4c60c983612313565b155b15612a6857612a5c83612352565b50612a6682612352565b505b6001600160a01b03821615801590612a865750612a8660c983612313565b15612aa057612a9483612352565b50612a9e82611e1e565b505b6001600160a01b03831615801590612abe5750612abe60c984612313565b156126ee576001600160a01b038216612adc57612ada83611e1e565b505b6001600160a01b03821615801590612afc5750612afa60c983612313565b155b15612b1657612b0a83611e1e565b50612b1482612352565b505b6001600160a01b03821615801590612b345750612b3460c983612313565b156126ee57612b4283611e1e565b50612b4c82611e1e565b50505050565b60009081526001919091016020526040902054151590565b6000612b768383612b52565b612bac575081546001818101845560008481526020808220909301849055845484825282860190935260409020919091556109ee565b5060006109ee565b60008181526001830160205260408120548015612c705783546000198083019190810190600090879083908110612be757fe5b9060005260206000200154905080876000018481548110612c0457fe5b600091825260208083209091019290925582815260018981019092526040902090840190558654879080612c3457fe5b600190038181906000526020600020016000905590558660010160008781526020019081526020016000206000905560019450505050506109ee565b60009150506109ee565b81546000908210612cbc5760405162461bcd60e51b815260040180806020018281038252602281526020018061304a6022913960400191505060405180910390fd5b826000018281548110612ccb57fe5b9060005260206000200154905092915050565b5490565b3b151590565b600054610100900460ff1680612d015750612d0161262c565b80612d0f575060005460ff16155b612d4a5760405162461bcd60e51b815260040180806020018281038252602e815260200180613158602e913960400191505060405180910390fd5b600054610100900460ff16158015612790576000805460ff1961ff00199091166101001716600117905580156127a2576000805461ff001916905550565b600054610100900460ff1680612da15750612da161262c565b80612daf575060005460ff16155b612dea5760405162461bcd60e51b815260040180806020018281038252602e815260200180613158602e913960400191505060405180910390fd5b600054610100900460ff16158015612e15576000805460ff1961ff0019909116610100171660011790555b8251612e28906036906020860190612fa8565b508151612e3c906037906020850190612fa8565b506038805460ff1916601217905580156126ee576000805461ff0019169055505050565b600054610100900460ff1680612e795750612e7961262c565b80612e87575060005460ff16155b612ec25760405162461bcd60e51b815260040180806020018281038252602e815260200180613158602e913960400191505060405180910390fd5b600054610100900460ff16158015612eed576000805460ff1961ff0019909116610100171660011790555b6065805460ff1916905580156127a2576000805461ff001916905550565b6000808060001984860990508385029250828103915082811015612f30576001820391505b509250929050565b60008181038216808381612f4857fe5b049250808581612f5457fe5b049450808160000381612f6357fe5b60028581038087028203028087028203028087028203028087028203028087028203028087028203029586029003909402930460010193909302939093010292915050565b828054600181600116156101000203166002900490600052602060002090601f016020900481019282612fde5760008555613024565b82601f10612ff757805160ff1916838001178555613024565b82800160010185558215613024579182015b82811115613024578251825591602001919060010190613009565b50613030929150613034565b5090565b5b80821115613030576000815560010161303556fe456e756d657261626c655365743a20696e646578206f7574206f6620626f756e647345524332303a207472616e7366657220746f20746865207a65726f2061646472657373416363657373436f6e74726f6c3a2073656e646572206d75737420626520616e2061646d696e20746f206772616e7445524332303a206275726e20616d6f756e7420657863656564732062616c616e636545524332303a20617070726f766520746f20746865207a65726f206164647265737345524332303a207472616e7366657220616d6f756e7420657863656564732062616c616e6365416363657373436f6e74726f6c3a2073656e646572206d75737420626520616e2061646d696e20746f207265766f6b65496e697469616c697a61626c653a20636f6e747261637420697320616c726561647920696e697469616c697a6564536166654d6174683a206d756c7469706c69636174696f6e206f766572666c6f7745524332303a207472616e7366657220616d6f756e74206578636565647320616c6c6f77616e636565d7a28e3265b37a6474929f336521b332c1681b933f6cb9f3376673440d862a45524332303a206275726e2066726f6d20746865207a65726f206164647265737345524332303a207472616e736665722066726f6d20746865207a65726f206164647265737345524332303a20617070726f76652066726f6d20746865207a65726f206164647265737345524332303a2064656372656173656420616c6c6f77616e63652062656c6f77207a65726f416363657373436f6e74726f6c3a2063616e206f6e6c792072656e6f756e636520726f6c657320666f722073656c66a26469706673582212208507db4445204c4eb5741ac4a7837227dd21fac9b022248d0b762d5230775ee664736f6c63430007060033",
  "immutableReferences": {},
  "source": "// SPDX-License-Identifier: UNLICENSED\npragma solidity >=0.7.0;\n\nimport \"@openzeppelin/contracts-upgradeable/token/ERC20/ERC20Upgradeable.sol\";\nimport \"@openzeppelin/contracts-upgradeable/math/SafeMathUpgradeable.sol\";\nimport \"@openzeppelin/contracts-upgradeable/utils/PausableUpgradeable.sol\";\nimport \"@openzeppelin/contracts-upgradeable/utils/EnumerableSetUpgradeable.sol\";\nimport \"@openzeppelin/contracts-upgradeable/access/AccessControlUpgradeable.sol\";\nimport \"./interfaces/ISTokens.sol\";\nimport \"./interfaces/IUTokens.sol\";\nimport \"./interfaces/IHolder.sol\";\nimport \"./libraries/FullMath.sol\";\n\ncontract STokensV2 is\n\tERC20Upgradeable,\n\tISTokens,\n\tPausableUpgradeable,\n\tAccessControlUpgradeable\n{\n\tusing SafeMathUpgradeable for uint256;\n\tusing FullMath for uint256;\n\tusing EnumerableSetUpgradeable for EnumerableSetUpgradeable.AddressSet;\n\n\t// constants defining access control ROLES\n\tbytes32 public constant PAUSER_ROLE = keccak256(\"PAUSER_ROLE\");\n\n\t// variables pertaining to holder logic for whitelisted addresses & StakeLP\n\t// deposit contract address for STokens in a DeFi product\n\tEnumerableSetUpgradeable.AddressSet private _whitelistedAddresses;\n\t// Holder contract address for this whitelisted contract. Many can point to one Holder contract\n\tmapping(address => address) public _holderContractAddress;\n\t// LP Token contract address which might be different from whitelisted contract\n\tmapping(address => address) public _lpContractAddress;\n\t// Index of whitelisted address in the Enumerable Set\n\t// mapping(address => uint256) public _whitelistedAddressIndex;\n\t// last timestamp when the holder reward calculation was performed for updating reward pool\n\tmapping(address => uint256) public _lastHolderRewardTimestamp;\n\n\t// variables capturing data of other contracts in the product\n\taddress public _liquidStakingContract;\n\t// address public _stakeLPCoreContract;\n\tIUTokens public _uTokens;\n\n\t// variables pertaining to moving reward rate logic\n\tuint256[] private _rewardRate;\n\tuint256[] private _lastMovingRewardTimestamp;\n\tuint256 public _valueDivisor;\n\tmapping(address => uint256) private _lastUserRewardTimestamp;\n\n\t// variable pertaining to contract upgrades versioning\n\tuint256 public _version;\n\n\t/**\n\t * @dev Constructor for initializing the SToken contract.\n\t * @param uaddress - address of the UToken contract.\n\t * @param pauserAddress - address of the pauser admin.\n\t * @param rewardRate - set to rewardRate * 10^-5\n\t * @param valueDivisor - valueDivisor set to 10^9.\n\t */\n\tfunction initialize(\n\t\taddress uaddress,\n\t\taddress pauserAddress,\n\t\tuint256 rewardRate,\n\t\tuint256 valueDivisor\n\t) public virtual initializer {\n\t\t__ERC20_init(\"pSTAKE Staked ATOM\", \"stkATOM\");\n\t\t__AccessControl_init();\n\t\t__Pausable_init();\n\t\t_setupRole(DEFAULT_ADMIN_ROLE, _msgSender());\n\t\t_setupRole(PAUSER_ROLE, pauserAddress);\n\t\tsetUTokensContract(uaddress);\n\t\t_valueDivisor = valueDivisor;\n\t\trequire(rewardRate <= _valueDivisor.mul(100), \"ST1\");\n\t\t_rewardRate.push(rewardRate);\n\t\t_lastMovingRewardTimestamp.push(block.timestamp);\n\t\t_setupDecimals(6);\n\t}\n\n\t/**\n\t * @dev Calculate pending rewards for the provided 'address'. The rate is the moving reward rate.\n\t * @param whitelistedAddress: whitelisted contract address\n\t */\n\tfunction isContractWhitelisted(address whitelistedAddress)\n\t\tpublic\n\t\tview\n\t\tvirtual\n\t\toverride\n\t\treturns (bool result)\n\t{\n\t\tresult = _whitelistedAddresses.contains(whitelistedAddress);\n\t\treturn result;\n\t}\n\n\t/**\n\t * @dev Calculate pending rewards for the provided 'address'. The rate is the moving reward rate.\n\t * @param whitelistedAddress: contract address\n\t */\n\tfunction getHolderData(address whitelistedAddress)\n\t\tpublic\n\t\tview\n\t\tvirtual\n\t\toverride\n\t\treturns (\n\t\t\taddress holderAddress,\n\t\t\taddress lpAddress,\n\t\t\tuint256 lastHolderRewardTimestamp\n\t\t)\n\t{\n\t\t// Get the time in number of blocks\n\t\tholderAddress = _holderContractAddress[whitelistedAddress];\n\t\tlpAddress = _lpContractAddress[whitelistedAddress];\n\t\tlastHolderRewardTimestamp = _lastHolderRewardTimestamp[\n\t\t\twhitelistedAddress\n\t\t];\n\t}\n\n\t/*\n\t * @dev set reward rate called by admin\n\t * @param rewardRate: reward rate\n\t *\n\t *\n\t * Requirements:\n\t *\n\t * - `rate` cannot be less than or equal to zero.\n\t *\n\t */\n\tfunction setRewardRate(uint256 rewardRate)\n\t\tpublic\n\t\tvirtual\n\t\toverride\n\t\treturns (bool success)\n\t{\n\t\t// range checks for rewardRate. Since rewardRate cannot be more than 100%, the max cap\n\t\t// is _valueDivisor * 100, which then brings the fees to 100 (percentage)\n\t\trequire(rewardRate <= _valueDivisor.mul(100), \"ST17\");\n\t\trequire(hasRole(DEFAULT_ADMIN_ROLE, _msgSender()), \"ST2\");\n\t\t_rewardRate.push(rewardRate);\n\t\t_lastMovingRewardTimestamp.push(block.timestamp);\n\t\temit SetRewardRate(rewardRate);\n\n\t\treturn true;\n\t}\n\n\t/**\n\t * @dev get reward rate and value divisor\n\t */\n\tfunction getRewardRate()\n\t\tpublic\n\t\tview\n\t\tvirtual\n\t\toverride\n\t\treturns (uint256[] memory rewardRate, uint256 valueDivisor)\n\t{\n\t\trewardRate = _rewardRate;\n\t\tvalueDivisor = _valueDivisor;\n\t}\n\n\t/**\n\t * @dev get rewards till timestamp\n\t * @param to: account address\n\t */\n\tfunction getLastUserRewardTimestamp(address to)\n\t\tpublic\n\t\tview\n\t\tvirtual\n\t\toverride\n\t\treturns (uint256 lastUserRewardTimestamp)\n\t{\n\t\tlastUserRewardTimestamp = _lastUserRewardTimestamp[to];\n\t}\n\n\t/**\n\t * @dev Mint new stokens for the provided 'address' and 'tokens'\n\t * @param to: account address, tokens: number of tokens\n\t *\n\t * Emits a {MintTokens} event with 'to' set to address and 'tokens' set to amount of tokens.\n\t *\n\t * Requirements:\n\t *\n\t * - `amount` cannot be less than zero.\n\t *\n\t */\n\tfunction mint(address to, uint256 tokens)\n\t\tpublic\n\t\tvirtual\n\t\toverride\n\t\treturns (bool)\n\t{\n\t\trequire(_msgSender() == _liquidStakingContract, \"ST3\");\n\t\t_mint(to, tokens);\n\t\treturn true;\n\t}\n\n\t/*\n\t * @dev Burn stokens for the provided 'address' and 'tokens'\n\t * @param to: account address, tokens: number of tokens\n\t *\n\t * Emits a {BurnTokens} event with 'to' set to address and 'tokens' set to amount of tokens.\n\t *\n\t * Requirements:\n\t *\n\t * - `amount` cannot be less than zero.\n\t *\n\t */\n\tfunction burn(address from, uint256 tokens)\n\t\tpublic\n\t\tvirtual\n\t\toverride\n\t\treturns (bool)\n\t{\n\t\trequire(_msgSender() == _liquidStakingContract, \"ST4\");\n\t\t_burn(from, tokens);\n\t\treturn true;\n\t}\n\n\t/**\n\t * @dev Calculate pending rewards from the provided 'principal' & 'lastRewardTimestamp'. The rate is the moving reward rate.\n\t * @param principal: principal amount\n\t * @param lastRewardTimestamp: timestamp of last reward calculation performed\n\t */\n\tfunction _calculatePendingRewards(\n\t\tuint256 principal,\n\t\tuint256 lastRewardTimestamp\n\t) internal view returns (uint256 pendingRewards) {\n\t\tuint256 _index;\n\t\tuint256 _rewardBlocks;\n\t\tuint256 _simpleInterestOfInterval;\n\t\tuint256 _temp;\n\t\t// return 0 if principal or timeperiod is zero\n\t\tif (principal == 0 || block.timestamp.sub(lastRewardTimestamp) == 0)\n\t\t\treturn 0;\n\t\t// calculate rewards for each interval period between rewardRate changes\n\t\tuint256 _lastMovingRewardLength = _lastMovingRewardTimestamp.length.sub(\n\t\t\t1\n\t\t);\n\t\tfor (_index = _lastMovingRewardLength; _index >= 0; ) {\n\t\t\t// logic applies for all indexes of array except last index\n\t\t\tif (_index < _lastMovingRewardTimestamp.length.sub(1)) {\n\t\t\t\tif (_lastMovingRewardTimestamp[_index] > lastRewardTimestamp) {\n\t\t\t\t\t_rewardBlocks = (_lastMovingRewardTimestamp[_index.add(1)])\n\t\t\t\t\t\t.sub(_lastMovingRewardTimestamp[_index]);\n\t\t\t\t\t_temp = principal.mulDiv(_rewardRate[_index], 100);\n\t\t\t\t\t_simpleInterestOfInterval = _temp.mulDiv(\n\t\t\t\t\t\t_rewardBlocks,\n\t\t\t\t\t\t_valueDivisor\n\t\t\t\t\t);\n\t\t\t\t\tpendingRewards = pendingRewards.add(\n\t\t\t\t\t\t_simpleInterestOfInterval\n\t\t\t\t\t);\n\t\t\t\t} else {\n\t\t\t\t\t_rewardBlocks = (_lastMovingRewardTimestamp[_index.add(1)])\n\t\t\t\t\t\t.sub(lastRewardTimestamp);\n\t\t\t\t\t_temp = principal.mulDiv(_rewardRate[_index], 100);\n\t\t\t\t\t_simpleInterestOfInterval = _temp.mulDiv(\n\t\t\t\t\t\t_rewardBlocks,\n\t\t\t\t\t\t_valueDivisor\n\t\t\t\t\t);\n\t\t\t\t\tpendingRewards = pendingRewards.add(\n\t\t\t\t\t\t_simpleInterestOfInterval\n\t\t\t\t\t);\n\t\t\t\t\tbreak;\n\t\t\t\t}\n\t\t\t}\n\t\t\t// logic applies only for the last index of array\n\t\t\telse {\n\t\t\t\tif (_lastMovingRewardTimestamp[_index] > lastRewardTimestamp) {\n\t\t\t\t\t_rewardBlocks = (block.timestamp).sub(\n\t\t\t\t\t\t_lastMovingRewardTimestamp[_index]\n\t\t\t\t\t);\n\t\t\t\t\t_temp = principal.mulDiv(_rewardRate[_index], 100);\n\t\t\t\t\t_simpleInterestOfInterval = _temp.mulDiv(\n\t\t\t\t\t\t_rewardBlocks,\n\t\t\t\t\t\t_valueDivisor\n\t\t\t\t\t);\n\t\t\t\t\tpendingRewards = pendingRewards.add(\n\t\t\t\t\t\t_simpleInterestOfInterval\n\t\t\t\t\t);\n\t\t\t\t} else {\n\t\t\t\t\t_rewardBlocks = (block.timestamp).sub(lastRewardTimestamp);\n\t\t\t\t\t_temp = principal.mulDiv(_rewardRate[_index], 100);\n\t\t\t\t\t_simpleInterestOfInterval = _temp.mulDiv(\n\t\t\t\t\t\t_rewardBlocks,\n\t\t\t\t\t\t_valueDivisor\n\t\t\t\t\t);\n\t\t\t\t\tpendingRewards = pendingRewards.add(\n\t\t\t\t\t\t_simpleInterestOfInterval\n\t\t\t\t\t);\n\t\t\t\t\tbreak;\n\t\t\t\t}\n\t\t\t}\n\n\t\t\tif (_index == 0) break;\n\t\t\telse {\n\t\t\t\t_index = _index.sub(1);\n\t\t\t}\n\t\t}\n\t\treturn pendingRewards;\n\t}\n\n\t/**\n\t * @dev Calculate pending rewards for the provided 'address'. The rate is the moving reward rate.\n\t * @param to: account address\n\t */\n\tfunction calculatePendingRewards(address to)\n\t\tpublic\n\t\tview\n\t\tvirtual\n\t\toverride\n\t\treturns (uint256 pendingRewards)\n\t{\n\t\t// Get the time in number of blocks\n\t\tuint256 _lastRewardTimestamp = _lastUserRewardTimestamp[to];\n\t\t// Get the balance of the account\n\t\tuint256 _balance = balanceOf(to);\n\t\t// calculate pending rewards using _calculatePendingRewards\n\t\tpendingRewards = _calculatePendingRewards(\n\t\t\t_balance,\n\t\t\t_lastRewardTimestamp\n\t\t);\n\n\t\treturn pendingRewards;\n\t}\n\n\t/**\n\t * @dev Calculate rewards for the provided 'address'\n\t * @param to: account address\n\t */\n\tfunction _calculateRewards(address to) internal returns (uint256) {\n\t\t// Calculate the rewards pending\n\t\tuint256 _reward = calculatePendingRewards(to);\n\n\t\t// Set the new stakedBlock to the current,\n\t\t// as per Checks-Effects-Interactions pattern\n\t\t_lastUserRewardTimestamp[to] = block.timestamp;\n\n\t\t// mint uTokens only if reward is greater than zero\n\t\t/* if (_reward > 0) {\n\t\t\t// Mint new uTokens and send to the callers account\n\t\t\t_uTokens.mint(to, _reward);\n\t\t} */\n\n\t\t// mint uTokens even when _reward value is zero\n\t\t_uTokens.mint(to, _reward);\n\n\t\temit CalculateRewards(to, _reward, block.timestamp);\n\t\treturn _reward;\n\t}\n\n\t/**\n\t * @dev Calculate rewards for the provided 'address'\n\t * @param to: account address\n\t *\n\t * Emits a {TriggeredCalculateRewards} event with 'to' set to address, 'reward' set to amount of tokens and 'timestamp'\n\t *\n\t */\n\tfunction calculateRewards(address to)\n\t\tpublic\n\t\tvirtual\n\t\toverride\n\t\twhenNotPaused\n\t\treturns (uint256 reward)\n\t{\n\t\trequire(to == _msgSender(), \"ST5\");\n\t\treward = _calculateRewards(to);\n\t\temit TriggeredCalculateRewards(to, reward, block.timestamp);\n\t\treturn reward;\n\t}\n\n\t/**\n\t * @dev Calculate rewards for the provided 'holder address'\n\t * @param to: holder address\n\t */\n\tfunction _calculateHolderRewards(address to)\n\t\tinternal\n\t\treturns (uint256 rewards)\n\t{\n\t\t// holderContract and lpContract (lp token contract) need to be validated together because\n\t\t// it might not be practical to setup holder to collect reward pool but not StakeLP to distribute reward\n\t\t// since the reward distribution calculation starts the minute reward pool is created\n\t\trequire(\n\t\t\t_whitelistedAddresses.contains(to) &&\n\t\t\t\t_holderContractAddress[to] != address(0) &&\n\t\t\t\t_lpContractAddress[to] != address(0),\n\t\t\t\"ST6\"\n\t\t);\n\t\tuint256 _sTokenSupply = IHolder(_holderContractAddress[to])\n\t\t\t.getSTokenSupply(to);\n\n\t\t// calculate the reward applying the moving reward rate\n\t\trewards = _calculatePendingRewards(\n\t\t\t_sTokenSupply,\n\t\t\t_lastHolderRewardTimestamp[to]\n\t\t);\n\n\t\t// update the last timestamp of reward pool to the current time as per Checks-Effects-Interactions pattern\n\t\t_lastHolderRewardTimestamp[to] = block.timestamp;\n\n\t\t// Mint new uTokens and send to the holder contract account as updated reward pool\n\t\tif (rewards > 0) {\n\t\t\t_uTokens.mint(_holderContractAddress[to], rewards);\n\t\t}\n\n\t\temit CalculateHolderRewards(to, rewards, block.timestamp);\n\t\treturn rewards;\n\t}\n\n\t/**\n\t * @dev Calculate rewards for the provided 'address'\n\t * @param to: account address\n\t *\n\t * Emits a {TriggeredCalculateRewards} event with 'to' set to address, 'reward' set to amount of tokens and 'timestamp'\n\t *\n\t */\n\tfunction calculateHolderRewards(address to)\n\t\tpublic\n\t\tvirtual\n\t\toverride\n\t\twhenNotPaused\n\t\treturns (uint256 rewards)\n\t{\n\t\trequire(to != address(0) && to != address(0), \"ST16\");\n\t\trewards = _calculateHolderRewards(to);\n\t\temit TriggeredCalculateHolderRewards(to, rewards, block.timestamp);\n\t\treturn rewards;\n\t}\n\n\t/**\n\t * @dev Hook that is called before any transfer of tokens. This includes\n\t * minting and burning.\n\t *\n\t * Calling conditions:\n\t *\n\t * - when `from` and `to` are both non-zero, `amount` of ``from``'s tokens\n\t * will be to transferred to `to`.\n\t * - when `from` is zero, `amount` tokens will be minted for `to`.\n\t * - when `to` is zero, `amount` of ``from``'s tokens will be burned.\n\t * - `from` and `to` are never both zero.\n\t *\n\t */\n\tfunction _beforeTokenTransfer(\n\t\taddress from,\n\t\taddress to,\n\t\tuint256 amount\n\t) internal virtual override {\n\t\trequire(!paused(), \"ST7\");\n\t\tsuper._beforeTokenTransfer(from, to, amount);\n\t\t// uint256 _sTokenSupply;\n\t\t// uint256 _timePeriod;\n\t\tif (from == address(0)) {\n\t\t\t// cannot have a scenario of transfer from address(0) to address(0)\n\t\t\t// if(to == address(0)){}\n\n\t\t\tif (!_whitelistedAddresses.contains(to)) {\n\t\t\t\t_calculateRewards(to);\n\t\t\t} else {\n\t\t\t\t// IHolder(_holderContractAddress[to]).calculateHolderRewards(to, from, _rewardRate, _lastMovingRewardTimestamp);\n\t\t\t\t_calculateHolderRewards(to);\n\t\t\t}\n\t\t}\n\n\t\tif (from != address(0) && !_whitelistedAddresses.contains(from)) {\n\t\t\tif (to == address(0)) {\n\t\t\t\t_calculateRewards(from);\n\t\t\t}\n\n\t\t\tif (to != address(0) && !_whitelistedAddresses.contains(to)) {\n\t\t\t\t_calculateRewards(from);\n\t\t\t\t_calculateRewards(to);\n\t\t\t}\n\n\t\t\tif (to != address(0) && _whitelistedAddresses.contains(to)) {\n\t\t\t\t_calculateRewards(from);\n\t\t\t\t// IHolder(_holderContractAddress[to]).calculateHolderRewards(to, from, _rewardRate, _lastMovingRewardTimestamp);\n\t\t\t\t_calculateHolderRewards(to);\n\t\t\t}\n\t\t}\n\n\t\tif (from != address(0) && _whitelistedAddresses.contains(from)) {\n\t\t\tif (to == address(0)) {\n\t\t\t\t// IHolder(_holderContractAddress[to]).calculateHolderRewards(from, to, _rewardRate, _lastMovingRewardTimestamp);\n\t\t\t\t_calculateHolderRewards(from);\n\t\t\t}\n\n\t\t\tif (to != address(0) && !_whitelistedAddresses.contains(to)) {\n\t\t\t\t// IHolder(_holderContractAddress[to]).calculateHolderRewards(from, to, _rewardRate, _lastMovingRewardTimestamp);\n\t\t\t\t_calculateHolderRewards(from);\n\t\t\t\t_calculateRewards(to);\n\t\t\t}\n\n\t\t\tif (to != address(0) && _whitelistedAddresses.contains(to)) {\n\t\t\t\t// IHolder(_holderContractAddress[to]).calculateHolderRewards(from, address(0), _rewardRate, _lastMovingRewardTimestamp);\n\t\t\t\t_calculateHolderRewards(from);\n\n\t\t\t\t// IHolder(_holderContractAddress[to]).calculateHolderRewards(to, address(0), _rewardRate, _lastMovingRewardTimestamp);\n\t\t\t\t_calculateHolderRewards(to);\n\t\t\t}\n\t\t}\n\t}\n\n\t/*\n\t * @dev Set 'whitelisted address', performed by admin only\n\t * @param whitelistedAddress: contract address of the whitelisted party\n\t *\n\t * Emits a {setWhitelistedAddress} event\n\t *\n\t */\n\tfunction setWhitelistedAddress(\n\t\taddress whitelistedAddress,\n\t\taddress holderContractAddress,\n\t\taddress lpContractAddress\n\t) public virtual override returns (bool success) {\n\t\trequire(hasRole(DEFAULT_ADMIN_ROLE, _msgSender()), \"ST8\");\n\t\t// lpTokenERC20ContractAddress or sTokenReserveContractAddress can be address(0) but not whitelistedAddress\n\t\trequire(whitelistedAddress != address(0), \"ST9\");\n\t\t// add the whitelistedAddress if it isn't already available\n\t\tif (!_whitelistedAddresses.contains(whitelistedAddress))\n\t\t\t_whitelistedAddresses.add(whitelistedAddress);\n\t\t// add the contract addresses to holder mapping variable\n\t\t_holderContractAddress[whitelistedAddress] = holderContractAddress;\n\t\t_lpContractAddress[whitelistedAddress] = lpContractAddress;\n\n\t\temit SetWhitelistedAddress(\n\t\t\twhitelistedAddress,\n\t\t\tholderContractAddress,\n\t\t\tlpContractAddress,\n\t\t\tblock.timestamp\n\t\t);\n\t\tsuccess = true;\n\t\treturn success;\n\t}\n\n\t/*\n\t * @dev remove 'whitelisted address', performed by admin only\n\t * @param whitelistedAddress: contract address of the whitelisted party\n\t * @param holderContractAddress: holder contract address of the corresponding whitelistedAddress\n\t *\n\t * Emits a {RemoveWhitelistedAddress} event\n\t *\n\t */\n\tfunction removeWhitelistedAddress(address whitelistedAddress)\n\t\tpublic\n\t\tvirtual\n\t\toverride\n\t\treturns (bool success)\n\t{\n\t\trequire(hasRole(DEFAULT_ADMIN_ROLE, _msgSender()), \"ST10\");\n\t\trequire(whitelistedAddress != address(0), \"ST11\");\n\t\t// remove whitelistedAddress from the list\n\t\t_whitelistedAddresses.remove(whitelistedAddress);\n\t\taddress _holderContractAddressLocal = _holderContractAddress[\n\t\t\twhitelistedAddress\n\t\t];\n\t\taddress _lpContractAddressLocal = _lpContractAddress[\n\t\t\twhitelistedAddress\n\t\t];\n\n\t\t// delete holder contract values\n\t\tdelete _holderContractAddress[whitelistedAddress];\n\t\tdelete _lpContractAddress[whitelistedAddress];\n\n\t\temit RemoveWhitelistedAddress(\n\t\t\twhitelistedAddress,\n\t\t\t_holderContractAddressLocal,\n\t\t\t_lpContractAddressLocal,\n\t\t\tblock.timestamp\n\t\t);\n\t\tsuccess = true;\n\t\treturn success;\n\t}\n\n\t/*\n\t * @dev Set 'contract address', called from constructor\n\t * @param uTokenContract: utoken contract address\n\t *\n\t * Emits a {SetUTokensContract} event with '_contract' set to the utoken contract address.\n\t *\n\t */\n\tfunction setUTokensContract(address uTokenContract)\n\t\tpublic\n\t\tvirtual\n\t\toverride\n\t{\n\t\trequire(hasRole(DEFAULT_ADMIN_ROLE, _msgSender()), \"ST12\");\n\t\t_uTokens = IUTokens(uTokenContract);\n\t\temit SetUTokensContract(uTokenContract);\n\t}\n\n\t/*\n\t * @dev Set 'contract address', called from constructor\n\t * @param liquidStakingContract: liquidStaking contract address\n\t *\n\t * Emits a {SetLiquidStakingContract} event with '_contract' set to the liquidStaking contract address.\n\t *\n\t */\n\tfunction setLiquidStakingContract(address liquidStakingContract)\n\t\tpublic\n\t\tvirtual\n\t\toverride\n\t{\n\t\trequire(hasRole(DEFAULT_ADMIN_ROLE, _msgSender()), \"ST13\");\n\t\t_liquidStakingContract = liquidStakingContract;\n\t\temit SetLiquidStakingContract(liquidStakingContract);\n\t}\n\n\t/**\n\t * @dev Triggers stopped state.\n\t *\n\t * Requirements:\n\t *\n\t * - The contract must not be paused.\n\t */\n\tfunction pause() public virtual override returns (bool success) {\n\t\trequire(hasRole(PAUSER_ROLE, _msgSender()), \"ST14\");\n\t\t_pause();\n\t\treturn true;\n\t}\n\n\t/**\n\t * @dev Returns to normal state.\n\t *\n\t * Requirements:\n\t *\n\t * - The contract must be paused.\n\t */\n\tfunction unpause() public virtual override returns (bool success) {\n\t\trequire(hasRole(PAUSER_ROLE, _msgSender()), \"ST15\");\n\t\t_unpause();\n\t\treturn true;\n\t}\n}\n",
  "sourcePath": "C:\\Users\\Kamlesh\\Persistence\\pStake\\codebase\\pStake-smartContracts\\contracts\\STokensV2.sol",
  "compiler": {
    "name": "solc",
    "version": "0.7.6+commit.7338295f.Emscripten.clang"
  },
  "schemaVersion": "3.4.3",
  "updatedAt": "2021-08-24T03:32:47.590Z",
  "devdoc": {
    "kind": "dev",
    "methods": {
      "allowance(address,address)": {
        "details": "See {IERC20-allowance}."
      },
      "approve(address,uint256)": {
        "details": "See {IERC20-approve}. Requirements: - `spender` cannot be the zero address."
      },
      "balanceOf(address)": {
        "details": "See {IERC20-balanceOf}."
      },
      "burn(address,uint256)": {
        "details": "Burns `amount` tokens to the caller's address `from`. Returns a boolean value indicating whether the operation succeeded. Emits a {Transfer} event."
      },
      "calculateHolderRewards(address)": {
        "details": "Calculate rewards for the provided 'address'",
        "params": {
          "to": ": account address Emits a {TriggeredCalculateRewards} event with 'to' set to address, 'reward' set to amount of tokens and 'timestamp'"
        }
      },
      "calculatePendingRewards(address)": {
        "details": "Calculate pending rewards for the provided 'address'. The rate is the moving reward rate.",
        "params": {
          "to": ": account address"
        }
      },
      "calculateRewards(address)": {
        "details": "Calculate rewards for the provided 'address'",
        "params": {
          "to": ": account address Emits a {TriggeredCalculateRewards} event with 'to' set to address, 'reward' set to amount of tokens and 'timestamp'"
        }
      },
      "decimals()": {
        "details": "Returns the number of decimals used to get its user representation. For example, if `decimals` equals `2`, a balance of `505` tokens should be displayed to a user as `5,05` (`505 / 10 ** 2`). Tokens usually opt for a value of 18, imitating the relationship between Ether and Wei. This is the value {ERC20} uses, unless {_setupDecimals} is called. NOTE: This information is only used for _display_ purposes: it in no way affects any of the arithmetic of the contract, including {IERC20-balanceOf} and {IERC20-transfer}."
      },
      "decreaseAllowance(address,uint256)": {
        "details": "Atomically decreases the allowance granted to `spender` by the caller. This is an alternative to {approve} that can be used as a mitigation for problems described in {IERC20-approve}. Emits an {Approval} event indicating the updated allowance. Requirements: - `spender` cannot be the zero address. - `spender` must have allowance for the caller of at least `subtractedValue`."
      },
      "getHolderData(address)": {
        "details": "Calculate pending rewards for the provided 'address'. The rate is the moving reward rate.",
        "params": {
          "whitelistedAddress": ": contract address"
        }
      },
      "getLastUserRewardTimestamp(address)": {
        "details": "get rewards till timestamp",
        "params": {
          "to": ": account address"
        }
      },
      "getRewardRate()": {
        "details": "get reward rate and value divisor"
      },
      "getRoleAdmin(bytes32)": {
        "details": "Returns the admin role that controls `role`. See {grantRole} and {revokeRole}. To change a role's admin, use {_setRoleAdmin}."
      },
      "getRoleMember(bytes32,uint256)": {
        "details": "Returns one of the accounts that have `role`. `index` must be a value between 0 and {getRoleMemberCount}, non-inclusive. Role bearers are not sorted in any particular way, and their ordering may change at any point. WARNING: When using {getRoleMember} and {getRoleMemberCount}, make sure you perform all queries on the same block. See the following https://forum.openzeppelin.com/t/iterating-over-elements-on-enumerableset-in-openzeppelin-contracts/2296[forum post] for more information."
      },
      "getRoleMemberCount(bytes32)": {
        "details": "Returns the number of accounts that have `role`. Can be used together with {getRoleMember} to enumerate all bearers of a role."
      },
      "grantRole(bytes32,address)": {
        "details": "Grants `role` to `account`. If `account` had not been already granted `role`, emits a {RoleGranted} event. Requirements: - the caller must have ``role``'s admin role."
      },
      "hasRole(bytes32,address)": {
        "details": "Returns `true` if `account` has been granted `role`."
      },
      "increaseAllowance(address,uint256)": {
        "details": "Atomically increases the allowance granted to `spender` by the caller. This is an alternative to {approve} that can be used as a mitigation for problems described in {IERC20-approve}. Emits an {Approval} event indicating the updated allowance. Requirements: - `spender` cannot be the zero address."
      },
      "initialize(address,address,uint256,uint256)": {
        "details": "Constructor for initializing the SToken contract.",
        "params": {
          "pauserAddress": "- address of the pauser admin.",
          "rewardRate": "- set to rewardRate * 10^-5",
          "uaddress": "- address of the UToken contract.",
          "valueDivisor": "- valueDivisor set to 10^9."
        }
      },
      "isContractWhitelisted(address)": {
        "details": "Calculate pending rewards for the provided 'address'. The rate is the moving reward rate.",
        "params": {
          "whitelistedAddress": ": whitelisted contract address"
        }
      },
      "mint(address,uint256)": {
        "details": "Mint new stokens for the provided 'address' and 'tokens'",
        "params": {
          "to": ": account address, tokens: number of tokens Emits a {MintTokens} event with 'to' set to address and 'tokens' set to amount of tokens. Requirements: - `amount` cannot be less than zero."
        }
      },
      "name()": {
        "details": "Returns the name of the token."
      },
      "pause()": {
        "details": "Triggers stopped state. Requirements: - The contract must not be paused."
      },
      "paused()": {
        "details": "Returns true if the contract is paused, and false otherwise."
      },
      "renounceRole(bytes32,address)": {
        "details": "Revokes `role` from the calling account. Roles are often managed via {grantRole} and {revokeRole}: this function's purpose is to provide a mechanism for accounts to lose their privileges if they are compromised (such as when a trusted device is misplaced). If the calling account had been granted `role`, emits a {RoleRevoked} event. Requirements: - the caller must be `account`."
      },
      "revokeRole(bytes32,address)": {
        "details": "Revokes `role` from `account`. If `account` had been granted `role`, emits a {RoleRevoked} event. Requirements: - the caller must have ``role``'s admin role."
      },
      "setLiquidStakingContract(address)": {
        "details": "Set LiquidStaking smart contract."
      },
      "setRewardRate(uint256)": {
        "details": "Sets `reward rate`. Returns a boolean value indicating whether the operation succeeded."
      },
      "setUTokensContract(address)": {
        "details": "Set UTokens smart contract. Emits a {SetContract} event."
      },
      "setWhitelistedAddress(address,address,address)": {
        "details": "Calculates rewards `amount` tokens to the caller's address `to`. Returns a boolean value indicating whether the operation succeeded. Emits a {TriggeredCalculateRewards} event."
      },
      "symbol()": {
        "details": "Returns the symbol of the token, usually a shorter version of the name."
      },
      "totalSupply()": {
        "details": "See {IERC20-totalSupply}."
      },
      "transfer(address,uint256)": {
        "details": "See {IERC20-transfer}. Requirements: - `recipient` cannot be the zero address. - the caller must have a balance of at least `amount`."
      },
      "transferFrom(address,address,uint256)": {
        "details": "See {IERC20-transferFrom}. Emits an {Approval} event indicating the updated allowance. This is not required by the EIP. See the note at the beginning of {ERC20}. Requirements: - `sender` and `recipient` cannot be the zero address. - `sender` must have a balance of at least `amount`. - the caller must have allowance for ``sender``'s tokens of at least `amount`."
      },
      "unpause()": {
        "details": "Returns to normal state. Requirements: - The contract must be paused."
      }
    },
    "version": 1
  },
  "userdoc": {
    "kind": "user",
    "methods": {},
    "version": 1
  }
}