{
  "contractName": "STokensV3",
  "abi": [
    {
      "anonymous": false,
      "inputs": [
        {
          "indexed": true,
          "internalType": "address",
          "name": "owner",
          "type": "address"
        },
        {
          "indexed": true,
          "internalType": "address",
          "name": "spender",
          "type": "address"
        },
        {
          "indexed": false,
          "internalType": "uint256",
          "name": "value",
          "type": "uint256"
        }
      ],
      "name": "Approval",
      "type": "event"
    },
    {
      "anonymous": false,
      "inputs": [
        {
          "indexed": true,
          "internalType": "address",
          "name": "accountAddress",
          "type": "address"
        },
        {
          "indexed": true,
          "internalType": "address",
          "name": "sTokenAddress",
          "type": "address"
        },
        {
          "indexed": true,
          "internalType": "uint256",
          "name": "tokens",
          "type": "uint256"
        },
        {
          "indexed": false,
          "internalType": "uint256",
          "name": "timestamp",
          "type": "uint256"
        }
      ],
      "name": "CalculateHolderRewards",
      "type": "event"
    },
    {
      "anonymous": false,
      "inputs": [
        {
          "indexed": true,
          "internalType": "address",
          "name": "accountAddress",
          "type": "address"
        },
        {
          "indexed": false,
          "internalType": "uint256",
          "name": "tokens",
          "type": "uint256"
        },
        {
          "indexed": false,
          "internalType": "uint256",
          "name": "timestamp",
          "type": "uint256"
        }
      ],
      "name": "CalculateRewards",
      "type": "event"
    },
    {
      "anonymous": false,
      "inputs": [
        {
          "indexed": false,
          "internalType": "address",
          "name": "account",
          "type": "address"
        }
      ],
      "name": "Paused",
      "type": "event"
    },
    {
      "anonymous": false,
      "inputs": [
        {
          "indexed": true,
          "internalType": "address",
          "name": "whitelistedAddress",
          "type": "address"
        },
        {
          "indexed": true,
          "internalType": "address",
          "name": "holderContractAddress",
          "type": "address"
        },
        {
          "indexed": true,
          "internalType": "address",
          "name": "lpContractAddress",
          "type": "address"
        },
        {
          "indexed": false,
          "internalType": "uint256",
          "name": "lastHolderRewardTimestamp",
          "type": "uint256"
        },
        {
          "indexed": false,
          "internalType": "uint256",
          "name": "timestamp",
          "type": "uint256"
        }
      ],
      "name": "RemoveWhitelistedAddress",
      "type": "event"
    },
    {
      "anonymous": false,
      "inputs": [
        {
          "indexed": true,
          "internalType": "bytes32",
          "name": "role",
          "type": "bytes32"
        },
        {
          "indexed": true,
          "internalType": "bytes32",
          "name": "previousAdminRole",
          "type": "bytes32"
        },
        {
          "indexed": true,
          "internalType": "bytes32",
          "name": "newAdminRole",
          "type": "bytes32"
        }
      ],
      "name": "RoleAdminChanged",
      "type": "event"
    },
    {
      "anonymous": false,
      "inputs": [
        {
          "indexed": true,
          "internalType": "bytes32",
          "name": "role",
          "type": "bytes32"
        },
        {
          "indexed": true,
          "internalType": "address",
          "name": "account",
          "type": "address"
        },
        {
          "indexed": true,
          "internalType": "address",
          "name": "sender",
          "type": "address"
        }
      ],
      "name": "RoleGranted",
      "type": "event"
    },
    {
      "anonymous": false,
      "inputs": [
        {
          "indexed": true,
          "internalType": "bytes32",
          "name": "role",
          "type": "bytes32"
        },
        {
          "indexed": true,
          "internalType": "address",
          "name": "account",
          "type": "address"
        },
        {
          "indexed": true,
          "internalType": "address",
          "name": "sender",
          "type": "address"
        }
      ],
      "name": "RoleRevoked",
      "type": "event"
    },
    {
      "anonymous": false,
      "inputs": [
        {
          "indexed": true,
          "internalType": "address",
          "name": "_contract",
          "type": "address"
        }
      ],
      "name": "SetLiquidStakingContract",
      "type": "event"
    },
    {
      "anonymous": false,
      "inputs": [
        {
          "indexed": true,
          "internalType": "uint256",
          "name": "rewardRate",
          "type": "uint256"
        }
      ],
      "name": "SetRewardRate",
      "type": "event"
    },
    {
      "anonymous": false,
      "inputs": [
        {
          "indexed": true,
          "internalType": "address",
          "name": "_contract",
          "type": "address"
        }
      ],
      "name": "SetUTokensContract",
      "type": "event"
    },
    {
      "anonymous": false,
      "inputs": [
        {
          "indexed": true,
          "internalType": "address",
          "name": "whitelistedAddress",
          "type": "address"
        },
        {
          "indexed": true,
          "internalType": "address",
          "name": "holderContractAddress",
          "type": "address"
        },
        {
          "indexed": true,
          "internalType": "address",
          "name": "lpContractAddress",
          "type": "address"
        },
        {
          "indexed": false,
          "internalType": "uint256",
          "name": "timestamp",
          "type": "uint256"
        }
      ],
      "name": "SetWhitelistedAddress",
      "type": "event"
    },
    {
      "anonymous": false,
      "inputs": [
        {
          "indexed": true,
          "internalType": "address",
          "name": "_contract",
          "type": "address"
        }
      ],
      "name": "SetWhitelistedPTokenEmissionContract",
      "type": "event"
    },
    {
      "anonymous": false,
      "inputs": [
        {
          "indexed": true,
          "internalType": "address",
          "name": "from",
          "type": "address"
        },
        {
          "indexed": true,
          "internalType": "address",
          "name": "to",
          "type": "address"
        },
        {
          "indexed": false,
          "internalType": "uint256",
          "name": "value",
          "type": "uint256"
        }
      ],
      "name": "Transfer",
      "type": "event"
    },
    {
      "anonymous": false,
      "inputs": [
        {
          "indexed": true,
          "internalType": "address",
          "name": "accountAddress",
          "type": "address"
        },
        {
          "indexed": true,
          "internalType": "address",
          "name": "sTokenAddress",
          "type": "address"
        },
        {
          "indexed": true,
          "internalType": "uint256",
          "name": "tokens",
          "type": "uint256"
        },
        {
          "indexed": false,
          "internalType": "uint256",
          "name": "timestamp",
          "type": "uint256"
        }
      ],
      "name": "TriggeredCalculateHolderRewards",
      "type": "event"
    },
    {
      "anonymous": false,
      "inputs": [
        {
          "indexed": true,
          "internalType": "address",
          "name": "accountAddress",
          "type": "address"
        },
        {
          "indexed": false,
          "internalType": "uint256",
          "name": "tokens",
          "type": "uint256"
        },
        {
          "indexed": false,
          "internalType": "uint256",
          "name": "timestamp",
          "type": "uint256"
        }
      ],
      "name": "TriggeredCalculateRewards",
      "type": "event"
    },
    {
      "anonymous": false,
      "inputs": [
        {
          "indexed": false,
          "internalType": "address",
          "name": "account",
          "type": "address"
        }
      ],
      "name": "Unpaused",
      "type": "event"
    },
    {
      "inputs": [],
      "name": "DEFAULT_ADMIN_ROLE",
      "outputs": [
        {
          "internalType": "bytes32",
          "name": "",
          "type": "bytes32"
        }
      ],
      "stateMutability": "view",
      "type": "function"
    },
    {
      "inputs": [],
      "name": "PAUSER_ROLE",
      "outputs": [
        {
          "internalType": "bytes32",
          "name": "",
          "type": "bytes32"
        }
      ],
      "stateMutability": "view",
      "type": "function"
    },
    {
      "inputs": [
        {
          "internalType": "address",
          "name": "",
          "type": "address"
        }
      ],
      "name": "_holderContractAddress",
      "outputs": [
        {
          "internalType": "address",
          "name": "",
          "type": "address"
        }
      ],
      "stateMutability": "view",
      "type": "function"
    },
    {
      "inputs": [
        {
          "internalType": "address",
          "name": "",
          "type": "address"
        }
      ],
      "name": "_lastHolderRewardTimestamp",
      "outputs": [
        {
          "internalType": "uint256",
          "name": "",
          "type": "uint256"
        }
      ],
      "stateMutability": "view",
      "type": "function"
    },
    {
      "inputs": [
        {
          "internalType": "address",
          "name": "",
          "type": "address"
        }
      ],
      "name": "_lastUserRewardTimestamp",
      "outputs": [
        {
          "internalType": "uint256",
          "name": "",
          "type": "uint256"
        }
      ],
      "stateMutability": "view",
      "type": "function"
    },
    {
      "inputs": [],
      "name": "_liquidStakingContract",
      "outputs": [
        {
          "internalType": "address",
          "name": "",
          "type": "address"
        }
      ],
      "stateMutability": "view",
      "type": "function"
    },
    {
      "inputs": [
        {
          "internalType": "address",
          "name": "",
          "type": "address"
        }
      ],
      "name": "_lpContractAddress",
      "outputs": [
        {
          "internalType": "address",
          "name": "",
          "type": "address"
        }
      ],
      "stateMutability": "view",
      "type": "function"
    },
    {
      "inputs": [],
      "name": "_uTokens",
      "outputs": [
        {
          "internalType": "contract IUTokensV3",
          "name": "",
          "type": "address"
        }
      ],
      "stateMutability": "view",
      "type": "function"
    },
    {
      "inputs": [],
      "name": "_valueDivisor",
      "outputs": [
        {
          "internalType": "uint256",
          "name": "",
          "type": "uint256"
        }
      ],
      "stateMutability": "view",
      "type": "function"
    },
    {
      "inputs": [],
      "name": "_version",
      "outputs": [
        {
          "internalType": "uint256",
          "name": "",
          "type": "uint256"
        }
      ],
      "stateMutability": "view",
      "type": "function"
    },
    {
      "inputs": [],
      "name": "_whitelistedPTokenEmissionContract",
      "outputs": [
        {
          "internalType": "address",
          "name": "",
          "type": "address"
        }
      ],
      "stateMutability": "view",
      "type": "function"
    },
    {
      "inputs": [
        {
          "internalType": "address",
          "name": "owner",
          "type": "address"
        },
        {
          "internalType": "address",
          "name": "spender",
          "type": "address"
        }
      ],
      "name": "allowance",
      "outputs": [
        {
          "internalType": "uint256",
          "name": "",
          "type": "uint256"
        }
      ],
      "stateMutability": "view",
      "type": "function"
    },
    {
      "inputs": [
        {
          "internalType": "address",
          "name": "spender",
          "type": "address"
        },
        {
          "internalType": "uint256",
          "name": "amount",
          "type": "uint256"
        }
      ],
      "name": "approve",
      "outputs": [
        {
          "internalType": "bool",
          "name": "",
          "type": "bool"
        }
      ],
      "stateMutability": "nonpayable",
      "type": "function"
    },
    {
      "inputs": [
        {
          "internalType": "address",
          "name": "account",
          "type": "address"
        }
      ],
      "name": "balanceOf",
      "outputs": [
        {
          "internalType": "uint256",
          "name": "",
          "type": "uint256"
        }
      ],
      "stateMutability": "view",
      "type": "function"
    },
    {
      "inputs": [],
      "name": "decimals",
      "outputs": [
        {
          "internalType": "uint8",
          "name": "",
          "type": "uint8"
        }
      ],
      "stateMutability": "view",
      "type": "function"
    },
    {
      "inputs": [
        {
          "internalType": "address",
          "name": "spender",
          "type": "address"
        },
        {
          "internalType": "uint256",
          "name": "subtractedValue",
          "type": "uint256"
        }
      ],
      "name": "decreaseAllowance",
      "outputs": [
        {
          "internalType": "bool",
          "name": "",
          "type": "bool"
        }
      ],
      "stateMutability": "nonpayable",
      "type": "function"
    },
    {
      "inputs": [
        {
          "internalType": "bytes32",
          "name": "role",
          "type": "bytes32"
        }
      ],
      "name": "getRoleAdmin",
      "outputs": [
        {
          "internalType": "bytes32",
          "name": "",
          "type": "bytes32"
        }
      ],
      "stateMutability": "view",
      "type": "function"
    },
    {
      "inputs": [
        {
          "internalType": "bytes32",
          "name": "role",
          "type": "bytes32"
        },
        {
          "internalType": "uint256",
          "name": "index",
          "type": "uint256"
        }
      ],
      "name": "getRoleMember",
      "outputs": [
        {
          "internalType": "address",
          "name": "",
          "type": "address"
        }
      ],
      "stateMutability": "view",
      "type": "function"
    },
    {
      "inputs": [
        {
          "internalType": "bytes32",
          "name": "role",
          "type": "bytes32"
        }
      ],
      "name": "getRoleMemberCount",
      "outputs": [
        {
          "internalType": "uint256",
          "name": "",
          "type": "uint256"
        }
      ],
      "stateMutability": "view",
      "type": "function"
    },
    {
      "inputs": [
        {
          "internalType": "bytes32",
          "name": "role",
          "type": "bytes32"
        },
        {
          "internalType": "address",
          "name": "account",
          "type": "address"
        }
      ],
      "name": "grantRole",
      "outputs": [],
      "stateMutability": "nonpayable",
      "type": "function"
    },
    {
      "inputs": [
        {
          "internalType": "bytes32",
          "name": "role",
          "type": "bytes32"
        },
        {
          "internalType": "address",
          "name": "account",
          "type": "address"
        }
      ],
      "name": "hasRole",
      "outputs": [
        {
          "internalType": "bool",
          "name": "",
          "type": "bool"
        }
      ],
      "stateMutability": "view",
      "type": "function"
    },
    {
      "inputs": [
        {
          "internalType": "address",
          "name": "spender",
          "type": "address"
        },
        {
          "internalType": "uint256",
          "name": "addedValue",
          "type": "uint256"
        }
      ],
      "name": "increaseAllowance",
      "outputs": [
        {
          "internalType": "bool",
          "name": "",
          "type": "bool"
        }
      ],
      "stateMutability": "nonpayable",
      "type": "function"
    },
    {
      "inputs": [],
      "name": "name",
      "outputs": [
        {
          "internalType": "string",
          "name": "",
          "type": "string"
        }
      ],
      "stateMutability": "view",
      "type": "function"
    },
    {
      "inputs": [],
      "name": "paused",
      "outputs": [
        {
          "internalType": "bool",
          "name": "",
          "type": "bool"
        }
      ],
      "stateMutability": "view",
      "type": "function"
    },
    {
      "inputs": [
        {
          "internalType": "bytes32",
          "name": "role",
          "type": "bytes32"
        },
        {
          "internalType": "address",
          "name": "account",
          "type": "address"
        }
      ],
      "name": "renounceRole",
      "outputs": [],
      "stateMutability": "nonpayable",
      "type": "function"
    },
    {
      "inputs": [
        {
          "internalType": "bytes32",
          "name": "role",
          "type": "bytes32"
        },
        {
          "internalType": "address",
          "name": "account",
          "type": "address"
        }
      ],
      "name": "revokeRole",
      "outputs": [],
      "stateMutability": "nonpayable",
      "type": "function"
    },
    {
      "inputs": [],
      "name": "symbol",
      "outputs": [
        {
          "internalType": "string",
          "name": "",
          "type": "string"
        }
      ],
      "stateMutability": "view",
      "type": "function"
    },
    {
      "inputs": [],
      "name": "totalSupply",
      "outputs": [
        {
          "internalType": "uint256",
          "name": "",
          "type": "uint256"
        }
      ],
      "stateMutability": "view",
      "type": "function"
    },
    {
      "inputs": [
        {
          "internalType": "address",
          "name": "recipient",
          "type": "address"
        },
        {
          "internalType": "uint256",
          "name": "amount",
          "type": "uint256"
        }
      ],
      "name": "transfer",
      "outputs": [
        {
          "internalType": "bool",
          "name": "",
          "type": "bool"
        }
      ],
      "stateMutability": "nonpayable",
      "type": "function"
    },
    {
      "inputs": [
        {
          "internalType": "address",
          "name": "sender",
          "type": "address"
        },
        {
          "internalType": "address",
          "name": "recipient",
          "type": "address"
        },
        {
          "internalType": "uint256",
          "name": "amount",
          "type": "uint256"
        }
      ],
      "name": "transferFrom",
      "outputs": [
        {
          "internalType": "bool",
          "name": "",
          "type": "bool"
        }
      ],
      "stateMutability": "nonpayable",
      "type": "function"
    },
    {
      "inputs": [
        {
          "internalType": "address",
          "name": "uaddress",
          "type": "address"
        },
        {
          "internalType": "address",
          "name": "pauserAddress",
          "type": "address"
        },
        {
          "internalType": "uint256",
          "name": "rewardRate",
          "type": "uint256"
        },
        {
          "internalType": "uint256",
          "name": "valueDivisor",
          "type": "uint256"
        }
      ],
      "name": "initialize",
      "outputs": [],
      "stateMutability": "nonpayable",
      "type": "function"
    },
    {
      "inputs": [
        {
          "internalType": "address",
          "name": "whitelistedAddress",
          "type": "address"
        }
      ],
      "name": "isContractWhitelisted",
      "outputs": [
        {
          "internalType": "bool",
          "name": "result",
          "type": "bool"
        }
      ],
      "stateMutability": "view",
      "type": "function"
    },
    {
      "inputs": [
        {
          "internalType": "address",
          "name": "whitelistedAddress",
          "type": "address"
        }
      ],
      "name": "getWhitelistData",
      "outputs": [
        {
          "internalType": "address",
          "name": "holderAddress",
          "type": "address"
        },
        {
          "internalType": "address",
          "name": "lpAddress",
          "type": "address"
        },
        {
          "internalType": "address",
          "name": "uTokenAddress",
          "type": "address"
        },
        {
          "internalType": "uint256",
          "name": "lastHolderRewardTimestamp",
          "type": "uint256"
        }
      ],
      "stateMutability": "view",
      "type": "function"
    },
    {
      "inputs": [],
      "name": "getUTokenAddress",
      "outputs": [
        {
          "internalType": "address",
          "name": "uTokenAddress",
          "type": "address"
        }
      ],
      "stateMutability": "view",
      "type": "function"
    },
    {
      "inputs": [
        {
          "internalType": "uint256",
          "name": "rewardRate",
          "type": "uint256"
        }
      ],
      "name": "setRewardRate",
      "outputs": [],
      "stateMutability": "nonpayable",
      "type": "function"
    },
    {
      "inputs": [],
      "name": "getRewardRate",
      "outputs": [
        {
          "internalType": "uint256[]",
          "name": "rewardRate",
          "type": "uint256[]"
        },
        {
          "internalType": "uint256[]",
          "name": "lastMovingRewardTimestamp",
          "type": "uint256[]"
        },
        {
          "internalType": "uint256",
          "name": "valueDivisor",
          "type": "uint256"
        }
      ],
      "stateMutability": "view",
      "type": "function"
    },
    {
      "inputs": [
        {
          "internalType": "address",
          "name": "to",
          "type": "address"
        },
        {
          "internalType": "uint256",
          "name": "tokens",
          "type": "uint256"
        }
      ],
      "name": "mint",
      "outputs": [],
      "stateMutability": "nonpayable",
      "type": "function"
    },
    {
      "inputs": [
        {
          "internalType": "address",
          "name": "from",
          "type": "address"
        },
        {
          "internalType": "uint256",
          "name": "tokens",
          "type": "uint256"
        }
      ],
      "name": "burn",
      "outputs": [],
      "stateMutability": "nonpayable",
      "type": "function"
    },
    {
      "inputs": [
        {
          "internalType": "address",
          "name": "to",
          "type": "address"
        }
      ],
      "name": "calculatePendingRewards",
      "outputs": [
        {
          "internalType": "uint256",
          "name": "pendingRewards",
          "type": "uint256"
        }
      ],
      "stateMutability": "view",
      "type": "function"
    },
    {
      "inputs": [
        {
          "internalType": "address",
          "name": "to",
          "type": "address"
        }
      ],
      "name": "calculateRewards",
      "outputs": [
        {
          "internalType": "uint256",
          "name": "reward",
          "type": "uint256"
        }
      ],
      "stateMutability": "nonpayable",
      "type": "function"
    },
    {
      "inputs": [
        {
          "internalType": "address",
          "name": "to",
          "type": "address"
        }
      ],
      "name": "calculatePendingHolderRewards",
      "outputs": [
        {
          "internalType": "uint256",
          "name": "pendingRewards",
          "type": "uint256"
        },
        {
          "internalType": "address",
          "name": "holderAddress",
          "type": "address"
        },
        {
          "internalType": "address",
          "name": "lpAddress",
          "type": "address"
        }
      ],
      "stateMutability": "view",
      "type": "function"
    },
    {
      "inputs": [
        {
          "internalType": "address",
          "name": "to",
          "type": "address"
        }
      ],
      "name": "calculateHolderRewards",
      "outputs": [
        {
          "internalType": "uint256",
          "name": "rewards",
          "type": "uint256"
        },
        {
          "internalType": "address",
          "name": "holderAddress",
          "type": "address"
        },
        {
          "internalType": "address",
          "name": "lpTokenAddress",
          "type": "address"
        }
      ],
      "stateMutability": "nonpayable",
      "type": "function"
    },
    {
      "inputs": [
        {
          "internalType": "address",
          "name": "whitelistedPTokenEmissionContract",
          "type": "address"
        }
      ],
      "name": "setWhitelistedPTokenEmissionContract",
      "outputs": [],
      "stateMutability": "nonpayable",
      "type": "function"
    },
    {
      "inputs": [
        {
          "internalType": "address",
          "name": "whitelistedAddress",
          "type": "address"
        },
        {
          "internalType": "address",
          "name": "holderContractAddress",
          "type": "address"
        },
        {
          "internalType": "address",
          "name": "lpContractAddress",
          "type": "address"
        }
      ],
      "name": "setWhitelistedAddress",
      "outputs": [],
      "stateMutability": "nonpayable",
      "type": "function"
    },
    {
      "inputs": [
        {
          "internalType": "address",
          "name": "whitelistedAddress",
          "type": "address"
        }
      ],
      "name": "removeWhitelistedAddress",
      "outputs": [],
      "stateMutability": "nonpayable",
      "type": "function"
    },
    {
      "inputs": [
        {
          "internalType": "address",
          "name": "uTokenContract",
          "type": "address"
        }
      ],
      "name": "setUTokensContract",
      "outputs": [],
      "stateMutability": "nonpayable",
      "type": "function"
    },
    {
      "inputs": [
        {
          "internalType": "address",
          "name": "liquidStakingContract",
          "type": "address"
        }
      ],
      "name": "setLiquidStakingContract",
      "outputs": [],
      "stateMutability": "nonpayable",
      "type": "function"
    },
    {
      "inputs": [],
      "name": "pause",
      "outputs": [],
      "stateMutability": "nonpayable",
      "type": "function"
    },
    {
      "inputs": [],
      "name": "unpause",
      "outputs": [],
      "stateMutability": "nonpayable",
      "type": "function"
    }
  ],
  "bytecode": "0x608060405234801561001057600080fd5b50613492806100206000396000f3fe608060405234801561001057600080fd5b50600436106102bb5760003560e01c806370a0823111610182578063a203ccf8116100e9578063c057058a116100a2578063da6b7ec71161007c578063da6b7ec7146109b8578063dd62ed3e146109de578063e63ab1e914610a0c578063eb990c5914610a14576102bb565b8063c057058a14610949578063ca15c8731461096f578063d547741f1461098c576102bb565b8063a203ccf814610877578063a217fddf1461089d578063a457c2d7146108a5578063a9059cbb146108d1578063b3e597b0146108fd578063b8ecc2a914610923576102bb565b80639010d07c1161013b5780639010d07c146107b157806391d14854146107d457806395d89b41146108005780639933d9ac146108085780639dc29fac1461082e5780639e447fc61461085a576102bb565b806370a08231146106c3578063728a99ee146106e957806378a2f074146106f1578063793105d8146106f95780637e1a3786146107015780638456cb59146107a9576102bb565b806339509351116102265780634bcb30f8116101df5780634bcb30f8146105b6578063530cd5ab146105ee57806358f8943e146106145780635c975abb1461063a57806364ab86751461064257806368aa981314610668576102bb565b806339509351146105205780633d9e0c051461054c5780633e118dbe146105545780633f4ba83a1461055c5780633f7398a81461056457806340c10f191461058a576102bb565b806323b872dd1161027857806323b872dd14610409578063248a9ca31461043f57806326d6772e1461045c5780632f2ff15d146104aa578063313ce567146104d657806336568abe146104f4576102bb565b806306fdde03146102c0578063095ea7b31461033d578063097aad101461037d57806318160ddd146103b5578063184be35a146103bd57806321bdf9e5146103e1575b600080fd5b6102c8610a50565b6040805160208082528351818301528351919283929083019185019080838360005b838110156103025781810151838201526020016102ea565b50505050905090810190601f16801561032f5780820380516001836020036101000a031916815260200191505b509250505060405180910390f35b6103696004803603604081101561035357600080fd5b506001600160a01b038135169060200135610ae6565b604080519115158252519081900360200190f35b6103a36004803603602081101561039357600080fd5b50356001600160a01b0316610b04565b60408051918252519081900360200190f35b6103a3610b3d565b6103c5610b43565b604080516001600160a01b039092168252519081900360200190f35b610407600480360360208110156103f757600080fd5b50356001600160a01b0316610b52565b005b6103696004803603606081101561041f57600080fd5b506001600160a01b03813581169160208101359091169060400135610be5565b6103a36004803603602081101561045557600080fd5b5035610c6d565b6104826004803603602081101561047257600080fd5b50356001600160a01b0316610c82565b604080519384526001600160a01b039283166020850152911682820152519081900360600190f35b610407600480360360408110156104c057600080fd5b50803590602001356001600160a01b0316610d2e565b6104de610d95565b6040805160ff9092168252519081900360200190f35b6104076004803603604081101561050a57600080fd5b50803590602001356001600160a01b0316610d9e565b6103696004803603604081101561053657600080fd5b506001600160a01b038135169060200135610dff565b6103c5610e4d565b6103a3610e5c565b610407610e62565b6103c56004803603602081101561057a57600080fd5b50356001600160a01b0316610ec0565b610407600480360360408110156105a057600080fd5b506001600160a01b038135169060200135610edb565b610407600480360360608110156105cc57600080fd5b506001600160a01b038135811691602081013582169160409091013516610f3a565b6104076004803603602081101561060457600080fd5b50356001600160a01b0316611074565b6104076004803603602081101561062a57600080fd5b50356001600160a01b03166111d0565b61036961125e565b6103a36004803603602081101561065857600080fd5b50356001600160a01b0316611267565b61068e6004803603602081101561067e57600080fd5b50356001600160a01b0316611379565b604080516001600160a01b03958616815293851660208501529190931682820152606082019290925290519081900360800190f35b6103a3600480360360208110156106d957600080fd5b50356001600160a01b03166113e6565b6103a3611401565b6103c5611407565b6103c5611416565b610709611425565b604051808060200180602001848152602001838103835286818151815260200191508051906020019060200280838360005b8381101561075357818101518382015260200161073b565b50505050905001838103825285818151815260200191508051906020019060200280838360005b8381101561079257818101518382015260200161077a565b505050509050019550505050505060405180910390f35b6104076114da565b6103c5600480360360408110156107c757600080fd5b5080359060200135611536565b610369600480360360408110156107ea57600080fd5b50803590602001356001600160a01b031661154e565b6102c8611566565b6104076004803603602081101561081e57600080fd5b50356001600160a01b03166115c7565b6104076004803603604081101561084457600080fd5b506001600160a01b038135169060200135611658565b6104076004803603602081101561087057600080fd5b50356116b7565b6104826004803603602081101561088d57600080fd5b50356001600160a01b03166117d9565b6103a3611927565b610369600480360360408110156108bb57600080fd5b506001600160a01b03813516906020013561192c565b610369600480360360408110156108e757600080fd5b506001600160a01b038135169060200135611994565b6103a36004803603602081101561091357600080fd5b50356001600160a01b03166119a8565b6103a36004803603602081101561093957600080fd5b50356001600160a01b03166119ba565b6103696004803603602081101561095f57600080fd5b50356001600160a01b03166119cc565b6103a36004803603602081101561098557600080fd5b50356119d9565b610407600480360360408110156109a257600080fd5b50803590602001356001600160a01b03166119f0565b6103c5600480360360208110156109ce57600080fd5b50356001600160a01b0316611a49565b6103a3600480360360408110156109f457600080fd5b506001600160a01b0381358116916020013516611a64565b6103a3611a8f565b61040760048036036080811015610a2a57600080fd5b506001600160a01b03813581169160208101359091169060408101359060600135611aa1565b60368054604080516020601f6002600019610100600188161502019095169490940493840181900481028201810190925282815260609390929091830182828015610adc5780601f10610ab157610100808354040283529160200191610adc565b820191906000526020600020905b815481529060010190602001808311610abf57829003601f168201915b5050505050905090565b6000610afa610af3611c94565b8484611c98565b5060015b92915050565b6001600160a01b038116600090815260d3602052604081205481610b27846113e6565b9050610b338183611d84565b925050505b919050565b60355490565b60d5546001600160a01b031681565b610b646000610b5f611c94565b61154e565b610b9b576040805162461bcd60e51b81526020600482015260036024820152620a6a8760eb1b604482015290519081900360640190fd5b60cf80546001600160a01b0319166001600160a01b0383169081179091556040517ff745c285f36f88bea6af14d4d0f33dd9350cef7895216c1615b1caaee7857e0c90600090a250565b6000610bf2848484611fa6565b610c6284610bfe611c94565b610c5d85604051806060016040528060288152602001613357602891396001600160a01b038a16600090815260346020526040812090610c3c611c94565b6001600160a01b031681526020810191909152604001600020549190612103565b611c98565b5060015b9392505050565b60009081526097602052604090206002015490565b6000806000610c8f61125e565b15610cd4576040805162461bcd60e51b815260206004820152601060248201526f14185d5cd8589b194e881c185d5cd95960821b604482015290519081900360640190fd5b610cdd8461219a565b6040805142815290519396509194509250849130916001600160a01b038816917f59171ee3218236d503002f8e5832f4d7403458f65211bc049ae68a480980fcec9181900360200190a49193909250565b600082815260976020526040902060020154610d4c90610b5f611c94565b610d875760405162461bcd60e51b815260040180806020018281038252602f81526020018061323f602f913960400191505060405180910390fd5b610d918282612313565b5050565b60385460ff1690565b610da6611c94565b6001600160a01b0316816001600160a01b031614610df55760405162461bcd60e51b815260040180806020018281038252602f81526020018061342e602f913960400191505060405180910390fd5b610d91828261237c565b6000610afa610e0c611c94565b84610c5d8560346000610e1d611c94565b6001600160a01b03908116825260208083019390935260409182016000908120918c1681529252902054906123e5565b60cf546001600160a01b031690565b60d45481565b610e7c60008051602061337f833981519152610b5f611c94565b610eb6576040805162461bcd60e51b815260206004808301919091526024820152635354313760e01b604482015290519081900360640190fd5b610ebe61243f565b565b60cb602052600090815260409020546001600160a01b031681565b60ce546001600160a01b0316610eef611c94565b6001600160a01b031614610f30576040805162461bcd60e51b815260206004820152600360248201526253543360e81b604482015290519081900360640190fd5b610d9182826124df565b60d5546001600160a01b0316610f4e611c94565b6001600160a01b031614610f92576040805162461bcd60e51b8152602060048083019190915260248201526329aa189960e11b604482015290519081900360640190fd5b6001600160a01b038316610fd6576040805162461bcd60e51b815260206004808301919091526024820152635354313360e01b604482015290519081900360640190fd5b610fe160c9846125d1565b610ff257610ff060c9846125e6565b505b6001600160a01b03808416600081815260cb6020908152604080832080548689166001600160a01b0319918216811790925560cc8452938290208054968816969094168617909355805142815290519293927f82ed35aaa6afc6ef1f698fbb8532bfa0a40ac98e0a5157a330a43ac1715cc199929181900390910190a4505050565b60d5546001600160a01b0316611088611c94565b6001600160a01b0316146110cc576040805162461bcd60e51b8152602060048083019190915260248201526314d50c4d60e21b604482015290519081900360640190fd5b6001600160a01b038116611110576040805162461bcd60e51b815260206004808301919091526024820152635354313560e01b604482015290519081900360640190fd5b61111b60c9826125fb565b506001600160a01b03808216600081815260cc602090815260408083205460cb83528184205460cd84529382902054825190815242938101939093528151908616959390931693927fd042a0e13284c2c3252f6bee9de1c982090863207a3eccfcd551f350d60383bb9281900390910190a46001600160a01b0316600090815260cb6020908152604080832080546001600160a01b031990811690915560cc83528184208054909116905560cd909152812055565b6111dd6000610b5f611c94565b611214576040805162461bcd60e51b815260206004820152600360248201526253543960e81b604482015290519081900360640190fd5b60ce80546001600160a01b0319166001600160a01b0383169081179091556040517f57fded54c0f01b7b2c662bd89530d6916e48149e02da384db87d1a67306be87190600090a250565b60655460ff1690565b600061127161125e565b156112b6576040805162461bcd60e51b815260206004820152601060248201526f14185d5cd8589b194e881c185d5cd95960821b604482015290519081900360640190fd5b60006112c360c9846125d1565b90506112cd611c94565b6001600160a01b0316836001600160a01b03161480156112eb575080155b611322576040805162461bcd60e51b815260206004820152600360248201526253543560e81b604482015290519081900360640190fd5b61132b83612610565b6040805182815242602082015281519294506001600160a01b038616927fd0194489832efa41a56f4a4add6fbbe260998cbcff0b43c953af28b545ca7a01929181900390910190a250919050565b6001600160a01b03808216600090815260cb602090815260408083205460cc83528184205460cd90935290832054908416939190911691908315806113c557506001600160a01b038316155b6113da5760cf546001600160a01b03166113dd565b60005b91509193509193565b6001600160a01b031660009081526033602052604090205490565b60d25481565b60cf546001600160a01b031681565b60ce546001600160a01b031681565b606080600060d080548060200260200160405190810160405280929190818152602001828054801561147657602002820191906000526020600020905b815481526020019060010190808311611462575b5050505050925060d18054806020026020016040519081016040528092919081815260200182805480156114c957602002820191906000526020600020905b8154815260200190600101908083116114b5575b5050505050915060d2549050909192565b6114f460008051602061337f833981519152610b5f611c94565b61152e576040805162461bcd60e51b8152602060048083019190915260248201526329aa189b60e11b604482015290519081900360640190fd5b610ebe612704565b6000828152609760205260408120610c669083612787565b6000828152609760205260408120610c6690836125d1565b60378054604080516020601f6002600019610100600188161502019095169490940493840181900481028201810190925282815260609390929091830182828015610adc5780601f10610ab157610100808354040283529160200191610adc565b6115d46000610b5f611c94565b61160e576040805162461bcd60e51b815260206004808301919091526024820152635354313160e01b604482015290519081900360640190fd5b60d580546001600160a01b0319166001600160a01b0383169081179091556040517f441e6cdc468501bb6d17b30034ba7dd543768146de1cf17f59b7f555cd57716090600090a250565b60ce546001600160a01b031661166c611c94565b6001600160a01b0316146116ad576040805162461bcd60e51b815260206004820152600360248201526214d50d60ea1b604482015290519081900360640190fd5b610d918282612793565b60d2546116c590606461288f565b811115611702576040805162461bcd60e51b815260206004808301919091526024820152630a6a862760e31b604482015290519081900360640190fd5b61170f6000610b5f611c94565b611746576040805162461bcd60e51b815260206004820152600360248201526229aa1960e91b604482015290519081900360640190fd5b60d0805460018181019092557fe89d44c8fd6a9bac8af33ce47f56337617d449bf7ff3956b618c646de829cbcb0182905560d1805491820181556000908152427f695fb3134ad82c3b8022bc5464edd0bcc9424ef672b52245dcb6ab2374327ce39092019190915560405182917f1946fb78c7ca778b54d82cabaac5ba67cf446f58d0ff1f8ceaebb6150e54e44f91a250565b600080806117e860c9856125d1565b801561180d57506001600160a01b03848116600090815260cb60205260409020541615155b801561183257506001600160a01b03848116600090815260cc60205260409020541615155b15611920576001600160a01b03808516600081815260cb6020908152604080832054815163a4fbfa8560e01b8152600481019590955230602486015290519294169263a4fbfa859260448083019392829003018186803b15801561189557600080fd5b505afa1580156118a9573d6000803e3d6000fd5b505050506040513d60208110156118bf57600080fd5b50519050801561191e576001600160a01b038516600090815260cd60205260409020546118ed908290611d84565b6001600160a01b03808716600090815260cb602090815260408083205460cc90925290912054929650811694501691505b505b9193909250565b600081565b6000610afa611939611c94565b84610c5d856040518060600160405280602581526020016134096025913960346000611963611c94565b6001600160a01b03908116825260208083019390935260409182016000908120918d16815292529020549190612103565b6000610afa6119a1611c94565b8484611fa6565b60d36020526000908152604090205481565b60cd6020526000908152604090205481565b6000610afe60c9836125d1565b6000818152609760205260408120610afe906128e8565b600082815260976020526040902060020154611a0e90610b5f611c94565b610df55760405162461bcd60e51b81526004018080602001828103825260308152602001806132d86030913960400191505060405180910390fd5b60cc602052600090815260409020546001600160a01b031681565b6001600160a01b03918216600090815260346020908152604080832093909416825291909152205490565b60008051602061337f83398151915281565b600054610100900460ff1680611aba5750611aba6128f3565b80611ac8575060005460ff16155b611b035760405162461bcd60e51b815260040180806020018281038252602e815260200180613308602e913960400191505060405180910390fd5b600054610100900460ff16158015611b2e576000805460ff1961ff0019909116610100171660011790555b611b8160405180604001604052806012815260200171705354414b45205374616b65642041544f4d60701b8152506040518060400160405280600781526020016673746b41544f4d60c81b815250612904565b611b896129ba565b611b91612a6c565b611ba36000611b9e611c94565b610d87565b611bbb60008051602061337f83398151915285610d87565b611bc485610b52565b60d2829055611bd482606461288f565b831115611c0e576040805162461bcd60e51b815260206004820152600360248201526253543160e81b604482015290519081900360640190fd5b60d0805460018181019092557fe89d44c8fd6a9bac8af33ce47f56337617d449bf7ff3956b618c646de829cbcb0184905560d180549182018155600052427f695fb3134ad82c3b8022bc5464edd0bcc9424ef672b52245dcb6ab2374327ce390910155611c7b6006612b09565b8015611c8d576000805461ff00191690555b5050505050565b3390565b6001600160a01b038316611cdd5760405162461bcd60e51b81526004018080602001828103825260248152602001806133e56024913960400191505060405180910390fd5b6001600160a01b038216611d225760405162461bcd60e51b81526004018080602001828103825260228152602001806132906022913960400191505060405180910390fd5b6001600160a01b03808416600081815260346020908152604080832094871680845294825291829020859055815185815291517f8c5be1e5ebec7d5bd14f71427d1e84f3dd0314c0f7b2291e5b200ac8c7c3b9259281900390910190a3505050565b600080808080861580611d9e5750611d9c4287612b1f565b155b15611db0576000945050505050610afe565b60d154600090611dc1906001612b1f565b90508094505b60d154611dd5906001612b1f565b851015611eee578660d18681548110611dea57fe5b90600052602060002001541115611e9a57611e4760d18681548110611e0b57fe5b60009182526020909120015460d1611e248860016123e5565b81548110611e2e57fe5b9060005260206000200154612b1f90919063ffffffff16565b9350611e6e60d08681548110611e5957fe5b60009182526020909120015489906064612b7c565b9150611e878460d25484612b7c9092919063ffffffff16565b9250611e9386846123e5565b9550611ee9565b611eab8760d1611e248860016123e5565b9350611ebd60d08681548110611e5957fe5b9150611ed68460d25484612b7c9092919063ffffffff16565b9250611ee286846123e5565b9550611f9b565b611f7f565b8660d18681548110611efc57fe5b90600052602060002001541115611f7557611f3760d18681548110611f1d57fe5b906000526020600020015442612b1f90919063ffffffff16565b9350611f4960d08681548110611e5957fe5b9150611f628460d25484612b7c9092919063ffffffff16565b9250611f6e86846123e5565b9550611f7f565b611eab4288612b1f565b84611f8957611f9b565b611f94856001612b1f565b9450611dc7565b505050505092915050565b6001600160a01b038316611feb5760405162461bcd60e51b81526004018080602001828103825260258152602001806133c06025913960400191505060405180910390fd5b6001600160a01b0382166120305760405162461bcd60e51b815260040180806020018281038252602381526020018061321c6023913960400191505060405180910390fd5b61203b838383612c35565b612078816040518060600160405280602681526020016132b2602691396001600160a01b0386166000908152603360205260409020549190612103565b6001600160a01b0380851660009081526033602052604080822093909355908416815220546120a790826123e5565b6001600160a01b0380841660008181526033602090815260409182902094909455805185815290519193928716927fddf252ad1be2c89b69c2b068fc378daa952ba7f163c4a11628f55a4df523b3ef92918290030190a3505050565b600081848411156121925760405162461bcd60e51b81526004018080602001828103825283818151815260200191508051906020019080838360005b8381101561215757818101518382015260200161213f565b50505050905090810190601f1680156121845780820380516001836020036101000a031916815260200191505b509250505060405180910390fd5b505050900390565b600080806121a960c9856125d1565b80156121ce57506001600160a01b03848116600090815260cb60205260409020541615155b80156121f357506001600160a01b03848116600090815260cc60205260409020541615155b61222a576040805162461bcd60e51b815260206004820152600360248201526229aa1b60e91b604482015290519081900360640190fd5b612233846117d9565b6001600160a01b038716600090815260cd602052604090204290559194509250905082156122c95760cf54604080516340c10f1960e01b81526001600160a01b03858116600483015260248201879052915191909216916340c10f1991604480830192600092919082900301818387803b1580156122b057600080fd5b505af11580156122c4573d6000803e3d6000fd5b505050505b604080514281529051849130916001600160a01b038816917ff5903cb2d16d0852687a9c6434f5e696e6f5022b43d9c2a9789ea1737a1ef4d8919081900360200190a49193909250565b600082815260976020526040902061232b90826125e6565b15610d9157612338611c94565b6001600160a01b0316816001600160a01b0316837f2f8788117e7eff1d82e926ec794901d17c78024a50270940304540a733656f0d60405160405180910390a45050565b600082815260976020526040902061239490826125fb565b15610d91576123a1611c94565b6001600160a01b0316816001600160a01b0316837ff6391f5c32d9c69d2a47ea670b442974b53935d1edc7fd64eb21e047a839171b60405160405180910390a45050565b600082820183811015610c66576040805162461bcd60e51b815260206004820152601b60248201527f536166654d6174683a206164646974696f6e206f766572666c6f770000000000604482015290519081900360640190fd5b61244761125e565b61248f576040805162461bcd60e51b815260206004820152601460248201527314185d5cd8589b194e881b9bdd081c185d5cd95960621b604482015290519081900360640190fd5b6065805460ff191690557f5db9ee0a495bf2e6ff9c91a7834c1ba4fdd244a5e8aa4e537bd38aeae4b073aa6124c2611c94565b604080516001600160a01b039092168252519081900360200190a1565b6001600160a01b03821661253a576040805162461bcd60e51b815260206004820152601f60248201527f45524332303a206d696e7420746f20746865207a65726f206164647265737300604482015290519081900360640190fd5b61254660008383612c35565b60355461255390826123e5565b6035556001600160a01b03821660009081526033602052604090205461257990826123e5565b6001600160a01b03831660008181526033602090815260408083209490945583518581529351929391927fddf252ad1be2c89b69c2b068fc378daa952ba7f163c4a11628f55a4df523b3ef9281900390910190a35050565b6000610c66836001600160a01b038416612d02565b6000610c66836001600160a01b038416612d1a565b6000610c66836001600160a01b038416612d64565b60006001600160a01b03821615610b385761262a82610b04565b6001600160a01b038316600090815260d36020526040902042905590508015610b385760cf54604080516340c10f1960e01b81526001600160a01b03858116600483015260248201859052915191909216916340c10f1991604480830192600092919082900301818387803b1580156126a257600080fd5b505af11580156126b6573d6000803e3d6000fd5b50506040805184815242602082015281516001600160a01b03871694507f01ea729deb12fa912e813101b1da8b7c1500f7f26c912a612221a02af6a5622093509081900390910190a2919050565b61270c61125e565b15612751576040805162461bcd60e51b815260206004820152601060248201526f14185d5cd8589b194e881c185d5cd95960821b604482015290519081900360640190fd5b6065805460ff191660011790557f62e78cea01bee320cd4e420270b5ea74000d11b0c9f74754ebdbfc544b05a2586124c2611c94565b6000610c668383612e2a565b6001600160a01b0382166127d85760405162461bcd60e51b815260040180806020018281038252602181526020018061339f6021913960400191505060405180910390fd5b6127e482600083612c35565b6128218160405180606001604052806022815260200161326e602291396001600160a01b0385166000908152603360205260409020549190612103565b6001600160a01b0383166000908152603360205260409020556035546128479082612b1f565b6035556040805182815290516000916001600160a01b038516917fddf252ad1be2c89b69c2b068fc378daa952ba7f163c4a11628f55a4df523b3ef9181900360200190a35050565b60008261289e57506000610afe565b828202828482816128ab57fe5b0414610c665760405162461bcd60e51b81526004018080602001828103825260218152602001806133366021913960400191505060405180910390fd5b6000610afe82612e8e565b60006128fe30612e92565b15905090565b600054610100900460ff168061291d575061291d6128f3565b8061292b575060005460ff16155b6129665760405162461bcd60e51b815260040180806020018281038252602e815260200180613308602e913960400191505060405180910390fd5b600054610100900460ff16158015612991576000805460ff1961ff0019909116610100171660011790555b612999612e98565b6129a38383612f38565b80156129b5576000805461ff00191690555b505050565b600054610100900460ff16806129d357506129d36128f3565b806129e1575060005460ff16155b612a1c5760405162461bcd60e51b815260040180806020018281038252602e815260200180613308602e913960400191505060405180910390fd5b600054610100900460ff16158015612a47576000805460ff1961ff0019909116610100171660011790555b612a4f612e98565b612a57612e98565b8015612a69576000805461ff00191690555b50565b600054610100900460ff1680612a855750612a856128f3565b80612a93575060005460ff16155b612ace5760405162461bcd60e51b815260040180806020018281038252602e815260200180613308602e913960400191505060405180910390fd5b600054610100900460ff16158015612af9576000805460ff1961ff0019909116610100171660011790555b612b01612e98565b612a57613010565b6038805460ff191660ff92909216919091179055565b600082821115612b76576040805162461bcd60e51b815260206004820152601e60248201527f536166654d6174683a207375627472616374696f6e206f766572666c6f770000604482015290519081900360640190fd5b50900390565b6000806000612b8b86866130bb565b9150915060008480612b9957fe5b868809905082811115612bad576001820391505b918290039181612bcb57848381612bc057fe5b049350505050610c66565b848210612c1f576040805162461bcd60e51b815260206004820152601a60248201527f46756c6c4d6174683a2046554c4c4449565f4f564552464c4f57000000000000604482015290519081900360640190fd5b612c2a8383876130e8565b979650505050505050565b612c3d61125e565b15612c75576040805162461bcd60e51b815260206004820152600360248201526253543760e81b604482015290519081900360640190fd5b612c808383836129b5565b6000612c8b846119cc565b90506000612c98846119cc565b905081612ccf57612ca885612610565b5080612cbd57612cb784612610565b50612cca565b612cc68461219a565b5050505b611c8d565b612cd88561219a565b50505080612cef57612ce984612610565b50611c8d565b612cf88461219a565b5050505050505050565b60009081526001919091016020526040902054151590565b6000612d268383612d02565b612d5c57508154600181810184556000848152602080822090930184905584548482528286019093526040902091909155610afe565b506000610afe565b60008181526001830160205260408120548015612e205783546000198083019190810190600090879083908110612d9757fe5b9060005260206000200154905080876000018481548110612db457fe5b600091825260208083209091019290925582815260018981019092526040902090840190558654879080612de457fe5b60019003818190600052602060002001600090559055866001016000878152602001908152602001600020600090556001945050505050610afe565b6000915050610afe565b81546000908210612e6c5760405162461bcd60e51b81526004018080602001828103825260228152602001806131fa6022913960400191505060405180910390fd5b826000018281548110612e7b57fe5b9060005260206000200154905092915050565b5490565b3b151590565b600054610100900460ff1680612eb15750612eb16128f3565b80612ebf575060005460ff16155b612efa5760405162461bcd60e51b815260040180806020018281038252602e815260200180613308602e913960400191505060405180910390fd5b600054610100900460ff16158015612a57576000805460ff1961ff0019909116610100171660011790558015612a69576000805461ff001916905550565b600054610100900460ff1680612f515750612f516128f3565b80612f5f575060005460ff16155b612f9a5760405162461bcd60e51b815260040180806020018281038252602e815260200180613308602e913960400191505060405180910390fd5b600054610100900460ff16158015612fc5576000805460ff1961ff0019909116610100171660011790555b8251612fd8906036906020860190613158565b508151612fec906037906020850190613158565b506038805460ff1916601217905580156129b5576000805461ff0019169055505050565b600054610100900460ff168061302957506130296128f3565b80613037575060005460ff16155b6130725760405162461bcd60e51b815260040180806020018281038252602e815260200180613308602e913960400191505060405180910390fd5b600054610100900460ff1615801561309d576000805460ff1961ff0019909116610100171660011790555b6065805460ff191690558015612a69576000805461ff001916905550565b60008080600019848609905083850292508281039150828110156130e0576001820391505b509250929050565b600081810382168083816130f857fe5b04925080858161310457fe5b04945080816000038161311357fe5b60028581038087028203028087028203028087028203028087028203028087028203028087028203029586029003909402930460010193909302939093010292915050565b828054600181600116156101000203166002900490600052602060002090601f01602090048101928261318e57600085556131d4565b82601f106131a757805160ff19168380011785556131d4565b828001600101855582156131d4579182015b828111156131d45782518255916020019190600101906131b9565b506131e09291506131e4565b5090565b5b808211156131e057600081556001016131e556fe456e756d657261626c655365743a20696e646578206f7574206f6620626f756e647345524332303a207472616e7366657220746f20746865207a65726f2061646472657373416363657373436f6e74726f6c3a2073656e646572206d75737420626520616e2061646d696e20746f206772616e7445524332303a206275726e20616d6f756e7420657863656564732062616c616e636545524332303a20617070726f766520746f20746865207a65726f206164647265737345524332303a207472616e7366657220616d6f756e7420657863656564732062616c616e6365416363657373436f6e74726f6c3a2073656e646572206d75737420626520616e2061646d696e20746f207265766f6b65496e697469616c697a61626c653a20636f6e747261637420697320616c726561647920696e697469616c697a6564536166654d6174683a206d756c7469706c69636174696f6e206f766572666c6f7745524332303a207472616e7366657220616d6f756e74206578636565647320616c6c6f77616e636565d7a28e3265b37a6474929f336521b332c1681b933f6cb9f3376673440d862a45524332303a206275726e2066726f6d20746865207a65726f206164647265737345524332303a207472616e736665722066726f6d20746865207a65726f206164647265737345524332303a20617070726f76652066726f6d20746865207a65726f206164647265737345524332303a2064656372656173656420616c6c6f77616e63652062656c6f77207a65726f416363657373436f6e74726f6c3a2063616e206f6e6c792072656e6f756e636520726f6c657320666f722073656c66a2646970667358221220588ded0daa377147647d6c764f8b8507e9868dc97f67fed7115a7fb44afbeb5a64736f6c63430007060033",
  "immutableReferences": {},
  "source": "/*\n Copyright [2019] - [2021], PERSISTENCE TECHNOLOGIES PTE. LTD. and the pStake-smartContracts contributors\n SPDX-License-Identifier: Apache-2.0\n*/\n\npragma solidity >=0.7.0;\n\nimport \"@openzeppelin/contracts-upgradeable/token/ERC20/ERC20Upgradeable.sol\";\nimport \"@openzeppelin/contracts-upgradeable/math/SafeMathUpgradeable.sol\";\nimport \"@openzeppelin/contracts-upgradeable/utils/PausableUpgradeable.sol\";\nimport \"@openzeppelin/contracts-upgradeable/utils/EnumerableSetUpgradeable.sol\";\nimport \"@openzeppelin/contracts-upgradeable/access/AccessControlUpgradeable.sol\";\nimport \"./interfaces/ISTokensV3.sol\";\nimport \"./interfaces/IUTokensV3.sol\";\nimport \"./interfaces/IHolderV2.sol\";\nimport \"./libraries/FullMath.sol\";\n\ncontract STokensV3 is\n\tERC20Upgradeable,\n\tISTokensV3,\n\tPausableUpgradeable,\n\tAccessControlUpgradeable\n{\n\tusing SafeMathUpgradeable for uint256;\n\tusing FullMath for uint256;\n\tusing EnumerableSetUpgradeable for EnumerableSetUpgradeable.AddressSet;\n\n\t// constants defining access control ROLES\n\tbytes32 public constant PAUSER_ROLE = keccak256(\"PAUSER_ROLE\");\n\n\t// variables pertaining to holder logic for whitelisted addresses & StakeLP\n\t// deposit contract address for STokens in a DeFi product\n\tEnumerableSetUpgradeable.AddressSet private _whitelistedAddresses;\n\t// Holder contract address for this whitelisted contract. Many can point to one Holder contract\n\tmapping(address => address) public _holderContractAddress;\n\t// LP Token contract address which might be different from whitelisted contract\n\tmapping(address => address) public _lpContractAddress;\n\t// last timestamp when the holder reward calculation was performed for updating reward pool\n\tmapping(address => uint256) public _lastHolderRewardTimestamp;\n\n\t// _liquidStakingContract address does the mint and burn of STokens\n\taddress public _liquidStakingContract;\n\t// _uTokens variable is used to do mint of UTokens\n\tIUTokensV3 public _uTokens;\n\n\t// variables pertaining to moving reward rate logic\n\tuint256[] private _rewardRate;\n\tuint256[] private _lastMovingRewardTimestamp;\n\tuint256 public _valueDivisor;\n\tmapping(address => uint256) public _lastUserRewardTimestamp;\n\n\t// variable pertaining to contract upgrades versioning\n\tuint256 public _version;\n\t// required to store the whitelisting holder logic data initiated from WhitelistedEmission contract\n\taddress public _whitelistedPTokenEmissionContract;\n\n\t/**\n\t * @dev Constructor for initializing the SToken contract.\n\t * @param uaddress - address of the UToken contract.\n\t * @param pauserAddress - address of the pauser admin.\n\t * @param rewardRate - set to rewardRate * 10^-5\n\t * @param valueDivisor - valueDivisor set to 10^9.\n\t */\n\tfunction initialize(\n\t\taddress uaddress,\n\t\taddress pauserAddress,\n\t\tuint256 rewardRate,\n\t\tuint256 valueDivisor\n\t) public virtual initializer {\n\t\t__ERC20_init(\"pSTAKE Staked ATOM\", \"stkATOM\");\n\t\t__AccessControl_init();\n\t\t__Pausable_init();\n\t\t_setupRole(DEFAULT_ADMIN_ROLE, _msgSender());\n\t\t_setupRole(PAUSER_ROLE, pauserAddress);\n\t\tsetUTokensContract(uaddress);\n\t\t_valueDivisor = valueDivisor;\n\t\trequire(rewardRate <= _valueDivisor.mul(100), \"ST1\");\n\t\t_rewardRate.push(rewardRate);\n\t\t_lastMovingRewardTimestamp.push(block.timestamp);\n\t\t_setupDecimals(6);\n\t}\n\n\t/**\n\t * @dev Calculate pending rewards for the provided 'address'. The rate is the moving reward rate.\n\t * @param whitelistedAddress: whitelisted contract address\n\t */\n\tfunction isContractWhitelisted(address whitelistedAddress)\n\t\tpublic\n\t\tview\n\t\tvirtual\n\t\toverride\n\t\treturns (bool result)\n\t{\n\t\tresult = _whitelistedAddresses.contains(whitelistedAddress);\n\t\treturn result;\n\t}\n\n\t/**\n\t * @dev Calculate pending rewards for the provided 'address'. The rate is the moving reward rate.\n\t * @param whitelistedAddress: contract address\n\t */\n\tfunction getWhitelistData(address whitelistedAddress)\n\t\tpublic\n\t\tview\n\t\tvirtual\n\t\toverride\n\t\treturns (\n\t\t\taddress holderAddress,\n\t\t\taddress lpAddress,\n\t\t\taddress uTokenAddress,\n\t\t\tuint256 lastHolderRewardTimestamp\n\t\t)\n\t{\n\t\t// Get the time in timestamp\n\t\tholderAddress = _holderContractAddress[whitelistedAddress];\n\t\tlpAddress = _lpContractAddress[whitelistedAddress];\n\t\tlastHolderRewardTimestamp = _lastHolderRewardTimestamp[\n\t\t\twhitelistedAddress\n\t\t];\n\t\tuTokenAddress = (holderAddress == address(0) || lpAddress == address(0))\n\t\t\t? address(0)\n\t\t\t: address(_uTokens);\n\t}\n\n\t/**\n\t * @dev get reward rate and value divisor\n\t */\n\tfunction getUTokenAddress()\n\t\tpublic\n\t\tview\n\t\tvirtual\n\t\toverride\n\t\treturns (address uTokenAddress)\n\t{\n\t\tuTokenAddress = address(_uTokens);\n\t}\n\n\t/*\n\t * @dev set reward rate called by admin\n\t * @param rewardRate: reward rate\n\t *\n\t *\n\t * Requirements:\n\t *\n\t * - `rate` cannot be less than or equal to zero.\n\t *\n\t */\n\tfunction setRewardRate(uint256 rewardRate) public virtual override {\n\t\t// range checks for rewardRate. Since rewardRate cannot be more than 100%, the max cap\n\t\t// is _valueDivisor * 100, which then brings the fees to 100 (percentage)\n\t\trequire(rewardRate <= _valueDivisor.mul(100), \"ST18\");\n\t\trequire(hasRole(DEFAULT_ADMIN_ROLE, _msgSender()), \"ST2\");\n\t\t_rewardRate.push(rewardRate);\n\t\t_lastMovingRewardTimestamp.push(block.timestamp);\n\t\temit SetRewardRate(rewardRate);\n\t}\n\n\t/**\n\t * @dev get reward rate and value divisor\n\t */\n\tfunction getRewardRate()\n\t\tpublic\n\t\tview\n\t\tvirtual\n\t\toverride\n\t\treturns (\n\t\t\tuint256[] memory rewardRate,\n\t\t\tuint256[] memory lastMovingRewardTimestamp,\n\t\t\tuint256 valueDivisor\n\t\t)\n\t{\n\t\trewardRate = _rewardRate;\n\t\tlastMovingRewardTimestamp = _lastMovingRewardTimestamp;\n\t\tvalueDivisor = _valueDivisor;\n\t}\n\n\t/**\n\t * @dev Mint new stokens for the provided 'address' and 'tokens'\n\t * @param to: account address, tokens: number of tokens\n\t *\n\t * Emits a {MintTokens} event with 'to' set to address and 'tokens' set to amount of tokens.\n\t *\n\t * Requirements:\n\t *\n\t * - `amount` cannot be less than zero.\n\t *\n\t */\n\tfunction mint(address to, uint256 tokens) public virtual override {\n\t\trequire(_msgSender() == _liquidStakingContract, \"ST3\");\n\t\t_mint(to, tokens);\n\t}\n\n\t/*\n\t * @dev Burn stokens for the provided 'address' and 'tokens'\n\t * @param to: account address, tokens: number of tokens\n\t *\n\t * Emits a {BurnTokens} event with 'to' set to address and 'tokens' set to amount of tokens.\n\t *\n\t * Requirements:\n\t *\n\t * - `amount` cannot be less than zero.\n\t *\n\t */\n\tfunction burn(address from, uint256 tokens) public virtual override {\n\t\trequire(_msgSender() == _liquidStakingContract, \"ST4\");\n\t\t_burn(from, tokens);\n\t}\n\n\t/**\n\t * @dev Calculate pending rewards from the provided 'principal' & 'lastRewardTimestamp'. The rate is the moving reward rate.\n\t * @param principal: principal amount\n\t * @param lastRewardTimestamp: timestamp of last reward calculation performed\n\t */\n\tfunction _calculatePendingRewards(\n\t\tuint256 principal,\n\t\tuint256 lastRewardTimestamp\n\t) internal view returns (uint256 pendingRewards) {\n\t\tuint256 _index;\n\t\tuint256 _rewardBlocks;\n\t\tuint256 _simpleInterestOfInterval;\n\t\tuint256 _temp;\n\t\t// return 0 if principal or timeperiod is zero\n\t\tif (principal == 0 || block.timestamp.sub(lastRewardTimestamp) == 0)\n\t\t\treturn 0;\n\t\t// calculate rewards for each interval period between rewardRate changes\n\t\tuint256 _lastMovingRewardLength = _lastMovingRewardTimestamp.length.sub(\n\t\t\t1\n\t\t);\n\t\tfor (_index = _lastMovingRewardLength; _index >= 0; ) {\n\t\t\t// logic applies for all indexes of array except last index\n\t\t\tif (_index < _lastMovingRewardTimestamp.length.sub(1)) {\n\t\t\t\tif (_lastMovingRewardTimestamp[_index] > lastRewardTimestamp) {\n\t\t\t\t\t_rewardBlocks = (_lastMovingRewardTimestamp[_index.add(1)])\n\t\t\t\t\t\t.sub(_lastMovingRewardTimestamp[_index]);\n\t\t\t\t\t_temp = principal.mulDiv(_rewardRate[_index], 100);\n\t\t\t\t\t_simpleInterestOfInterval = _temp.mulDiv(\n\t\t\t\t\t\t_rewardBlocks,\n\t\t\t\t\t\t_valueDivisor\n\t\t\t\t\t);\n\t\t\t\t\tpendingRewards = pendingRewards.add(\n\t\t\t\t\t\t_simpleInterestOfInterval\n\t\t\t\t\t);\n\t\t\t\t} else {\n\t\t\t\t\t_rewardBlocks = (_lastMovingRewardTimestamp[_index.add(1)])\n\t\t\t\t\t\t.sub(lastRewardTimestamp);\n\t\t\t\t\t_temp = principal.mulDiv(_rewardRate[_index], 100);\n\t\t\t\t\t_simpleInterestOfInterval = _temp.mulDiv(\n\t\t\t\t\t\t_rewardBlocks,\n\t\t\t\t\t\t_valueDivisor\n\t\t\t\t\t);\n\t\t\t\t\tpendingRewards = pendingRewards.add(\n\t\t\t\t\t\t_simpleInterestOfInterval\n\t\t\t\t\t);\n\t\t\t\t\tbreak;\n\t\t\t\t}\n\t\t\t}\n\t\t\t// logic applies only for the last index of array\n\t\t\telse {\n\t\t\t\tif (_lastMovingRewardTimestamp[_index] > lastRewardTimestamp) {\n\t\t\t\t\t_rewardBlocks = (block.timestamp).sub(\n\t\t\t\t\t\t_lastMovingRewardTimestamp[_index]\n\t\t\t\t\t);\n\t\t\t\t\t_temp = principal.mulDiv(_rewardRate[_index], 100);\n\t\t\t\t\t_simpleInterestOfInterval = _temp.mulDiv(\n\t\t\t\t\t\t_rewardBlocks,\n\t\t\t\t\t\t_valueDivisor\n\t\t\t\t\t);\n\t\t\t\t\tpendingRewards = pendingRewards.add(\n\t\t\t\t\t\t_simpleInterestOfInterval\n\t\t\t\t\t);\n\t\t\t\t} else {\n\t\t\t\t\t_rewardBlocks = (block.timestamp).sub(lastRewardTimestamp);\n\t\t\t\t\t_temp = principal.mulDiv(_rewardRate[_index], 100);\n\t\t\t\t\t_simpleInterestOfInterval = _temp.mulDiv(\n\t\t\t\t\t\t_rewardBlocks,\n\t\t\t\t\t\t_valueDivisor\n\t\t\t\t\t);\n\t\t\t\t\tpendingRewards = pendingRewards.add(\n\t\t\t\t\t\t_simpleInterestOfInterval\n\t\t\t\t\t);\n\t\t\t\t\tbreak;\n\t\t\t\t}\n\t\t\t}\n\n\t\t\tif (_index == 0) break;\n\t\t\telse {\n\t\t\t\t_index = _index.sub(1);\n\t\t\t}\n\t\t}\n\t\treturn pendingRewards;\n\t}\n\n\t/**\n\t * @dev Calculate pending rewards for the provided 'address'. The rate is the moving reward rate.\n\t * @param to: account address\n\t */\n\tfunction calculatePendingRewards(address to)\n\t\tpublic\n\t\tview\n\t\tvirtual\n\t\toverride\n\t\treturns (uint256 pendingRewards)\n\t{\n\t\t// Get the time in number of blocks\n\t\tuint256 _lastRewardTimestamp = _lastUserRewardTimestamp[to];\n\t\t// Get the balance of the account\n\t\tuint256 _balance = balanceOf(to);\n\t\t// calculate pending rewards using _calculatePendingRewards\n\t\tpendingRewards = _calculatePendingRewards(\n\t\t\t_balance,\n\t\t\t_lastRewardTimestamp\n\t\t);\n\n\t\treturn pendingRewards;\n\t}\n\n\t/**\n\t * @dev Calculate rewards for the provided 'address'\n\t * @param to: account address\n\t */\n\tfunction _calculateRewards(address to) internal returns (uint256 _reward) {\n\t\t// keep an if condition to check for address(0), instead of require condition, because address(0) is\n\t\t// a valid condition when it is a mint/burn operation\n\t\tif (to != address(0)) {\n\t\t\t// Calculate the rewards pending\n\t\t\t_reward = calculatePendingRewards(to);\n\n\t\t\t// Set the new stakedBlock to the current,\n\t\t\t// as per Checks-Effects-Interactions pattern\n\t\t\t_lastUserRewardTimestamp[to] = block.timestamp;\n\n\t\t\t// mint uTokens only if reward is greater than zero\n\t\t\tif (_reward > 0) {\n\t\t\t\t// Mint new uTokens and send to the callers account\n\t\t\t\t_uTokens.mint(to, _reward);\n\t\t\t\temit CalculateRewards(to, _reward, block.timestamp);\n\t\t\t}\n\t\t}\n\t\treturn _reward;\n\t}\n\n\t/**\n\t * @dev Calculate rewards for the provided 'address'\n\t * @param to: account address\n\t *\n\t * Emits a {TriggeredCalculateRewards} event with 'to' set to address, 'reward' set to amount of tokens and 'timestamp'\n\t *\n\t */\n\tfunction calculateRewards(address to)\n\t\tpublic\n\t\tvirtual\n\t\toverride\n\t\twhenNotPaused\n\t\treturns (uint256 reward)\n\t{\n\t\tbool isContractWhitelistedLocal = _whitelistedAddresses.contains(to);\n\t\trequire(to == _msgSender() && !isContractWhitelistedLocal, \"ST5\");\n\t\treward = _calculateRewards(to);\n\t\temit TriggeredCalculateRewards(to, reward, block.timestamp);\n\t\treturn reward;\n\t}\n\n\t/**\n\t * @dev Calculate rewards for the provided 'holder address'\n\t * @param to: holder address\n\t */\n\tfunction _calculateHolderRewards(address to)\n\t\tinternal\n\t\treturns (\n\t\t\tuint256 rewards,\n\t\t\taddress holderAddress,\n\t\t\taddress lpTokenAddress\n\t\t)\n\t{\n\t\trequire(\n\t\t\t_whitelistedAddresses.contains(to) &&\n\t\t\t\t_holderContractAddress[to] != address(0) &&\n\t\t\t\t_lpContractAddress[to] != address(0),\n\t\t\t\"ST6\"\n\t\t);\n\n\t\t(\n\t\t\trewards,\n\t\t\tholderAddress,\n\t\t\tlpTokenAddress\n\t\t) = calculatePendingHolderRewards(to);\n\n\t\t// update the last timestamp of reward pool to the current time as per Checks-Effects-Interactions pattern\n\t\t_lastHolderRewardTimestamp[to] = block.timestamp;\n\n\t\t// Mint new uTokens and send to the holder contract account as updated reward pool\n\t\tif (rewards > 0) {\n\t\t\t_uTokens.mint(holderAddress, rewards);\n\t\t}\n\n\t\temit CalculateHolderRewards(\n\t\t\tto,\n\t\t\taddress(this),\n\t\t\trewards,\n\t\t\tblock.timestamp\n\t\t);\n\t}\n\n\t/**\n\t * @dev Calculate pending rewards for the provided 'address'. The rate is the moving reward rate.\n\t * @param to: account address\n\t */\n\tfunction calculatePendingHolderRewards(address to)\n\t\tpublic\n\t\tview\n\t\tvirtual\n\t\toverride\n\t\treturns (\n\t\t\tuint256 pendingRewards,\n\t\t\taddress holderAddress,\n\t\t\taddress lpAddress\n\t\t)\n\t{\n\t\t// holderContract and lpContract (lp token contract) need to be validated together because\n\t\t// it might not be practical to setup holder to collect reward pool but not StakeLP to distribute reward\n\t\t// since the reward distribution calculation starts the minute reward pool is created\n\t\tif (\n\t\t\t_whitelistedAddresses.contains(to) &&\n\t\t\t_holderContractAddress[to] != address(0) &&\n\t\t\t_lpContractAddress[to] != address(0)\n\t\t) {\n\t\t\tuint256 _sTokenSupply = IHolderV2(_holderContractAddress[to])\n\t\t\t\t.getSTokenSupply(to, address(this));\n\n\t\t\t// calculate the reward applying the moving reward rate\n\t\t\tif (_sTokenSupply > 0) {\n\t\t\t\tpendingRewards = _calculatePendingRewards(\n\t\t\t\t\t_sTokenSupply,\n\t\t\t\t\t_lastHolderRewardTimestamp[to]\n\t\t\t\t);\n\t\t\t\tholderAddress = _holderContractAddress[to];\n\t\t\t\tlpAddress = _lpContractAddress[to];\n\t\t\t}\n\t\t}\n\t}\n\n\t/**\n\t * @dev Calculate rewards for the provided 'address'\n\t * @param to: account address\n\t *\n\t * Emits a {TriggeredCalculateRewards} event with 'to' set to address, 'reward' set to amount of tokens and 'timestamp'\n\t *\n\t */\n\tfunction calculateHolderRewards(address to)\n\t\tpublic\n\t\tvirtual\n\t\toverride\n\t\twhenNotPaused\n\t\treturns (\n\t\t\tuint256 rewards,\n\t\t\taddress holderAddress,\n\t\t\taddress lpTokenAddress\n\t\t)\n\t{\n\t\t(rewards, holderAddress, lpTokenAddress) = _calculateHolderRewards(to);\n\t\temit TriggeredCalculateHolderRewards(\n\t\t\tto,\n\t\t\taddress(this),\n\t\t\trewards,\n\t\t\tblock.timestamp\n\t\t);\n\t}\n\n\t/**\n\t * @dev Hook that is called before any transfer of tokens. This includes\n\t * minting and burning.\n\t *\n\t * Calling conditions:\n\t *\n\t * - when `from` and `to` are both non-zero, `amount` of ``from``'s tokens\n\t * will be to transferred to `to`.\n\t * - when `from` is zero, `amount` tokens will be minted for `to`.\n\t * - when `to` is zero, `amount` of ``from``'s tokens will be burned.\n\t * - `from` and `to` are never both zero.\n\t *\n\t */\n\tfunction _beforeTokenTransfer(\n\t\taddress from,\n\t\taddress to,\n\t\tuint256 amount\n\t) internal virtual override {\n\t\trequire(!paused(), \"ST7\");\n\t\tsuper._beforeTokenTransfer(from, to, amount);\n\t\tbool isFromContractWhitelisted = isContractWhitelisted(from);\n\t\tbool isToContractWhitelisted = isContractWhitelisted(to);\n\n\t\tif (!isFromContractWhitelisted) {\n\t\t\t_calculateRewards(from);\n\t\t\tif (!isToContractWhitelisted) {\n\t\t\t\t_calculateRewards(to);\n\t\t\t} else {\n\t\t\t\t_calculateHolderRewards(to);\n\t\t\t}\n\t\t} else {\n\t\t\t_calculateHolderRewards(from);\n\t\t\tif (!isToContractWhitelisted) {\n\t\t\t\t_calculateRewards(to);\n\t\t\t} else {\n\t\t\t\t_calculateHolderRewards(to);\n\t\t\t}\n\t\t}\n\t}\n\n\t/*\n\t * @dev Set 'contract address', called from constructor\n\t * @param uTokenContract: utoken contract address\n\t *\n\t * Emits a {SetUTokensContract} event with '_contract' set to the utoken contract address.\n\t *\n\t */\n\tfunction setWhitelistedPTokenEmissionContract(\n\t\taddress whitelistedPTokenEmissionContract\n\t) public virtual override {\n\t\trequire(hasRole(DEFAULT_ADMIN_ROLE, _msgSender()), \"ST11\");\n\t\t_whitelistedPTokenEmissionContract = whitelistedPTokenEmissionContract;\n\t\temit SetWhitelistedPTokenEmissionContract(\n\t\t\twhitelistedPTokenEmissionContract\n\t\t);\n\t}\n\n\t/*\n\t * @dev Set 'whitelisted address', performed by admin only\n\t * @param whitelistedAddress: contract address of the whitelisted party\n\t *\n\t * Emits a {setWhitelistedAddress} event\n\t *\n\t */\n\tfunction setWhitelistedAddress(\n\t\taddress whitelistedAddress,\n\t\taddress holderContractAddress,\n\t\taddress lpContractAddress\n\t) public virtual override {\n\t\trequire(_msgSender() == _whitelistedPTokenEmissionContract, \"ST12\");\n\t\t// lpTokenERC20ContractAddress or sTokenReserveContractAddress can be address(0) but not whitelistedAddress\n\t\trequire(whitelistedAddress != address(0), \"ST13\");\n\t\t// add the whitelistedAddress if it isn't already available\n\t\tif (!_whitelistedAddresses.contains(whitelistedAddress))\n\t\t\t_whitelistedAddresses.add(whitelistedAddress);\n\t\t// add the contract addresses to holder mapping variable\n\t\t_holderContractAddress[whitelistedAddress] = holderContractAddress;\n\t\t_lpContractAddress[whitelistedAddress] = lpContractAddress;\n\n\t\temit SetWhitelistedAddress(\n\t\t\twhitelistedAddress,\n\t\t\tholderContractAddress,\n\t\t\tlpContractAddress,\n\t\t\tblock.timestamp\n\t\t);\n\t}\n\n\t/*\n\t * @dev remove 'whitelisted address', performed by admin only\n\t * @param whitelistedAddress: contract address of the whitelisted party\n\t * @param holderContractAddress: holder contract address of the corresponding whitelistedAddress\n\t *\n\t * Emits a {RemoveWhitelistedAddress} event\n\t *\n\t */\n\tfunction removeWhitelistedAddress(address whitelistedAddress)\n\t\tpublic\n\t\tvirtual\n\t\toverride\n\t{\n\t\trequire(_msgSender() == _whitelistedPTokenEmissionContract, \"ST14\");\n\t\trequire(whitelistedAddress != address(0), \"ST15\");\n\t\t// remove whitelistedAddress from the list\n\t\t_whitelistedAddresses.remove(whitelistedAddress);\n\n\t\t// emit an event\n\t\temit RemoveWhitelistedAddress(\n\t\t\twhitelistedAddress,\n\t\t\t_holderContractAddress[whitelistedAddress],\n\t\t\t_lpContractAddress[whitelistedAddress],\n\t\t\t_lastHolderRewardTimestamp[whitelistedAddress],\n\t\t\tblock.timestamp\n\t\t);\n\n\t\t// delete holder contract values\n\t\tdelete _holderContractAddress[whitelistedAddress];\n\t\tdelete _lpContractAddress[whitelistedAddress];\n\t\tdelete _lastHolderRewardTimestamp[whitelistedAddress];\n\t}\n\n\t/*\n\t * @dev Set 'contract address', called from constructor\n\t * @param uTokenContract: utoken contract address\n\t *\n\t * Emits a {SetUTokensContract} event with '_contract' set to the utoken contract address.\n\t *\n\t */\n\tfunction setUTokensContract(address uTokenContract)\n\t\tpublic\n\t\tvirtual\n\t\toverride\n\t{\n\t\trequire(hasRole(DEFAULT_ADMIN_ROLE, _msgSender()), \"ST8\");\n\t\t_uTokens = IUTokensV3(uTokenContract);\n\t\temit SetUTokensContract(uTokenContract);\n\t}\n\n\t/*\n\t * @dev Set 'contract address', called from constructor\n\t * @param liquidStakingContract: liquidStaking contract address\n\t *\n\t * Emits a {SetLiquidStakingContract} event with '_contract' set to the liquidStaking contract address.\n\t *\n\t */\n\tfunction setLiquidStakingContract(address liquidStakingContract)\n\t\tpublic\n\t\tvirtual\n\t\toverride\n\t{\n\t\trequire(hasRole(DEFAULT_ADMIN_ROLE, _msgSender()), \"ST9\");\n\t\t_liquidStakingContract = liquidStakingContract;\n\t\temit SetLiquidStakingContract(liquidStakingContract);\n\t}\n\n\t/**\n\t * @dev Triggers stopped state.\n\t *\n\t * Requirements:\n\t *\n\t * - The contract must not be paused.\n\t */\n\tfunction pause() public virtual override {\n\t\trequire(hasRole(PAUSER_ROLE, _msgSender()), \"ST16\");\n\t\t_pause();\n\t}\n\n\t/**\n\t * @dev Returns to normal state.\n\t *\n\t * Requirements:\n\t *\n\t * - The contract must be paused.\n\t */\n\tfunction unpause() public virtual override {\n\t\trequire(hasRole(PAUSER_ROLE, _msgSender()), \"ST17\");\n\t\t_unpause();\n\t}\n}\n",
  "sourcePath": "/Users/aditimaheshwari/Documents/Work/Persistence/Codebase/persistenceOne/pStake-smartContracts/contracts/STokensV3.sol",
  "compiler": {
    "name": "solc",
    "version": "0.7.6+commit.7338295f.Emscripten.clang"
  },
  "schemaVersion": "3.4.3",
  "updatedAt": "2022-07-21T13:20:08.607Z",
  "devdoc": {
    "kind": "dev",
    "methods": {
      "allowance(address,address)": {
        "details": "See {IERC20-allowance}."
      },
      "approve(address,uint256)": {
        "details": "See {IERC20-approve}. Requirements: - `spender` cannot be the zero address."
      },
      "balanceOf(address)": {
        "details": "See {IERC20-balanceOf}."
      },
      "burn(address,uint256)": {
        "details": "Burns `amount` tokens to the caller's address `from`. Returns a boolean value indicating whether the operation succeeded. Emits a {Transfer} event."
      },
      "calculateHolderRewards(address)": {
        "details": "Calculate rewards for the provided 'address'",
        "params": {
          "to": ": account address Emits a {TriggeredCalculateRewards} event with 'to' set to address, 'reward' set to amount of tokens and 'timestamp'"
        }
      },
      "calculatePendingHolderRewards(address)": {
        "details": "Calculate pending rewards for the provided 'address'. The rate is the moving reward rate.",
        "params": {
          "to": ": account address"
        }
      },
      "calculatePendingRewards(address)": {
        "details": "Calculate pending rewards for the provided 'address'. The rate is the moving reward rate.",
        "params": {
          "to": ": account address"
        }
      },
      "calculateRewards(address)": {
        "details": "Calculate rewards for the provided 'address'",
        "params": {
          "to": ": account address Emits a {TriggeredCalculateRewards} event with 'to' set to address, 'reward' set to amount of tokens and 'timestamp'"
        }
      },
      "decimals()": {
        "details": "Returns the number of decimals used to get its user representation. For example, if `decimals` equals `2`, a balance of `505` tokens should be displayed to a user as `5,05` (`505 / 10 ** 2`). Tokens usually opt for a value of 18, imitating the relationship between Ether and Wei. This is the value {ERC20} uses, unless {_setupDecimals} is called. NOTE: This information is only used for _display_ purposes: it in no way affects any of the arithmetic of the contract, including {IERC20-balanceOf} and {IERC20-transfer}."
      },
      "decreaseAllowance(address,uint256)": {
        "details": "Atomically decreases the allowance granted to `spender` by the caller. This is an alternative to {approve} that can be used as a mitigation for problems described in {IERC20-approve}. Emits an {Approval} event indicating the updated allowance. Requirements: - `spender` cannot be the zero address. - `spender` must have allowance for the caller of at least `subtractedValue`."
      },
      "getRewardRate()": {
        "details": "get reward rate and value divisor"
      },
      "getRoleAdmin(bytes32)": {
        "details": "Returns the admin role that controls `role`. See {grantRole} and {revokeRole}. To change a role's admin, use {_setRoleAdmin}."
      },
      "getRoleMember(bytes32,uint256)": {
        "details": "Returns one of the accounts that have `role`. `index` must be a value between 0 and {getRoleMemberCount}, non-inclusive. Role bearers are not sorted in any particular way, and their ordering may change at any point. WARNING: When using {getRoleMember} and {getRoleMemberCount}, make sure you perform all queries on the same block. See the following https://forum.openzeppelin.com/t/iterating-over-elements-on-enumerableset-in-openzeppelin-contracts/2296[forum post] for more information."
      },
      "getRoleMemberCount(bytes32)": {
        "details": "Returns the number of accounts that have `role`. Can be used together with {getRoleMember} to enumerate all bearers of a role."
      },
      "getUTokenAddress()": {
        "details": "get reward rate and value divisor"
      },
      "getWhitelistData(address)": {
        "details": "Calculate pending rewards for the provided 'address'. The rate is the moving reward rate.",
        "params": {
          "whitelistedAddress": ": contract address"
        }
      },
      "grantRole(bytes32,address)": {
        "details": "Grants `role` to `account`. If `account` had not been already granted `role`, emits a {RoleGranted} event. Requirements: - the caller must have ``role``'s admin role."
      },
      "hasRole(bytes32,address)": {
        "details": "Returns `true` if `account` has been granted `role`."
      },
      "increaseAllowance(address,uint256)": {
        "details": "Atomically increases the allowance granted to `spender` by the caller. This is an alternative to {approve} that can be used as a mitigation for problems described in {IERC20-approve}. Emits an {Approval} event indicating the updated allowance. Requirements: - `spender` cannot be the zero address."
      },
      "initialize(address,address,uint256,uint256)": {
        "details": "Constructor for initializing the SToken contract.",
        "params": {
          "pauserAddress": "- address of the pauser admin.",
          "rewardRate": "- set to rewardRate * 10^-5",
          "uaddress": "- address of the UToken contract.",
          "valueDivisor": "- valueDivisor set to 10^9."
        }
      },
      "isContractWhitelisted(address)": {
        "details": "Calculate pending rewards for the provided 'address'. The rate is the moving reward rate.",
        "params": {
          "whitelistedAddress": ": whitelisted contract address"
        }
      },
      "mint(address,uint256)": {
        "details": "Mint new stokens for the provided 'address' and 'tokens'",
        "params": {
          "to": ": account address, tokens: number of tokens Emits a {MintTokens} event with 'to' set to address and 'tokens' set to amount of tokens. Requirements: - `amount` cannot be less than zero."
        }
      },
      "name()": {
        "details": "Returns the name of the token."
      },
      "pause()": {
        "details": "Triggers stopped state. Requirements: - The contract must not be paused."
      },
      "paused()": {
        "details": "Returns true if the contract is paused, and false otherwise."
      },
      "renounceRole(bytes32,address)": {
        "details": "Revokes `role` from the calling account. Roles are often managed via {grantRole} and {revokeRole}: this function's purpose is to provide a mechanism for accounts to lose their privileges if they are compromised (such as when a trusted device is misplaced). If the calling account had been granted `role`, emits a {RoleRevoked} event. Requirements: - the caller must be `account`."
      },
      "revokeRole(bytes32,address)": {
        "details": "Revokes `role` from `account`. If `account` had been granted `role`, emits a {RoleRevoked} event. Requirements: - the caller must have ``role``'s admin role."
      },
      "setLiquidStakingContract(address)": {
        "details": "Set LiquidStaking smart contract."
      },
      "setRewardRate(uint256)": {
        "details": "Sets `reward rate`. Returns a boolean value indicating whether the operation succeeded."
      },
      "setUTokensContract(address)": {
        "details": "Set UTokens smart contract. Emits a {SetContract} event."
      },
      "setWhitelistedAddress(address,address,address)": {
        "details": "Calculates rewards `amount` tokens to the caller's address `to`. Returns a boolean value indicating whether the operation succeeded. Emits a {TriggeredCalculateRewards} event."
      },
      "setWhitelistedPTokenEmissionContract(address)": {
        "details": "Emitted when contract addresses are set"
      },
      "symbol()": {
        "details": "Returns the symbol of the token, usually a shorter version of the name."
      },
      "totalSupply()": {
        "details": "See {IERC20-totalSupply}."
      },
      "transfer(address,uint256)": {
        "details": "See {IERC20-transfer}. Requirements: - `recipient` cannot be the zero address. - the caller must have a balance of at least `amount`."
      },
      "transferFrom(address,address,uint256)": {
        "details": "See {IERC20-transferFrom}. Emits an {Approval} event indicating the updated allowance. This is not required by the EIP. See the note at the beginning of {ERC20}. Requirements: - `sender` and `recipient` cannot be the zero address. - `sender` must have a balance of at least `amount`. - the caller must have allowance for ``sender``'s tokens of at least `amount`."
      },
      "unpause()": {
        "details": "Returns to normal state. Requirements: - The contract must be paused."
      }
    },
    "version": 1
  },
  "userdoc": {
    "kind": "user",
    "methods": {},
    "version": 1
  }
}