{
  "contractName": "STokens",
  "abi": [
    {
      "anonymous": false,
      "inputs": [
        {
          "indexed": true,
          "internalType": "address",
          "name": "owner",
          "type": "address"
        },
        {
          "indexed": true,
          "internalType": "address",
          "name": "spender",
          "type": "address"
        },
        {
          "indexed": false,
          "internalType": "uint256",
          "name": "value",
          "type": "uint256"
        }
      ],
      "name": "Approval",
      "type": "event"
    },
    {
      "anonymous": false,
      "inputs": [
        {
          "indexed": true,
          "internalType": "address",
          "name": "accountAddress",
          "type": "address"
        },
        {
          "indexed": false,
          "internalType": "uint256",
          "name": "tokens",
          "type": "uint256"
        },
        {
          "indexed": false,
          "internalType": "uint256",
          "name": "timestamp",
          "type": "uint256"
        }
      ],
      "name": "CalculateRewards",
      "type": "event"
    },
    {
      "anonymous": false,
      "inputs": [
        {
          "indexed": false,
          "internalType": "address",
          "name": "account",
          "type": "address"
        }
      ],
      "name": "Paused",
      "type": "event"
    },
    {
      "anonymous": false,
      "inputs": [
        {
          "indexed": true,
          "internalType": "bytes32",
          "name": "role",
          "type": "bytes32"
        },
        {
          "indexed": true,
          "internalType": "bytes32",
          "name": "previousAdminRole",
          "type": "bytes32"
        },
        {
          "indexed": true,
          "internalType": "bytes32",
          "name": "newAdminRole",
          "type": "bytes32"
        }
      ],
      "name": "RoleAdminChanged",
      "type": "event"
    },
    {
      "anonymous": false,
      "inputs": [
        {
          "indexed": true,
          "internalType": "bytes32",
          "name": "role",
          "type": "bytes32"
        },
        {
          "indexed": true,
          "internalType": "address",
          "name": "account",
          "type": "address"
        },
        {
          "indexed": true,
          "internalType": "address",
          "name": "sender",
          "type": "address"
        }
      ],
      "name": "RoleGranted",
      "type": "event"
    },
    {
      "anonymous": false,
      "inputs": [
        {
          "indexed": true,
          "internalType": "bytes32",
          "name": "role",
          "type": "bytes32"
        },
        {
          "indexed": true,
          "internalType": "address",
          "name": "account",
          "type": "address"
        },
        {
          "indexed": true,
          "internalType": "address",
          "name": "sender",
          "type": "address"
        }
      ],
      "name": "RoleRevoked",
      "type": "event"
    },
    {
      "anonymous": false,
      "inputs": [
        {
          "indexed": true,
          "internalType": "address",
          "name": "_contract",
          "type": "address"
        }
      ],
      "name": "SetContract",
      "type": "event"
    },
    {
      "anonymous": false,
      "inputs": [
        {
          "indexed": true,
          "internalType": "address",
          "name": "from",
          "type": "address"
        },
        {
          "indexed": true,
          "internalType": "address",
          "name": "to",
          "type": "address"
        },
        {
          "indexed": false,
          "internalType": "uint256",
          "name": "value",
          "type": "uint256"
        }
      ],
      "name": "Transfer",
      "type": "event"
    },
    {
      "anonymous": false,
      "inputs": [
        {
          "indexed": true,
          "internalType": "address",
          "name": "accountAddress",
          "type": "address"
        },
        {
          "indexed": false,
          "internalType": "uint256",
          "name": "tokens",
          "type": "uint256"
        },
        {
          "indexed": false,
          "internalType": "uint256",
          "name": "timestamp",
          "type": "uint256"
        }
      ],
      "name": "TriggeredCalculateRewards",
      "type": "event"
    },
    {
      "anonymous": false,
      "inputs": [
        {
          "indexed": false,
          "internalType": "address",
          "name": "account",
          "type": "address"
        }
      ],
      "name": "Unpaused",
      "type": "event"
    },
    {
      "inputs": [],
      "name": "DEFAULT_ADMIN_ROLE",
      "outputs": [
        {
          "internalType": "bytes32",
          "name": "",
          "type": "bytes32"
        }
      ],
      "stateMutability": "view",
      "type": "function"
    },
    {
      "inputs": [],
      "name": "PAUSER_ROLE",
      "outputs": [
        {
          "internalType": "bytes32",
          "name": "",
          "type": "bytes32"
        }
      ],
      "stateMutability": "view",
      "type": "function"
    },
    {
      "inputs": [
        {
          "internalType": "address",
          "name": "owner",
          "type": "address"
        },
        {
          "internalType": "address",
          "name": "spender",
          "type": "address"
        }
      ],
      "name": "allowance",
      "outputs": [
        {
          "internalType": "uint256",
          "name": "",
          "type": "uint256"
        }
      ],
      "stateMutability": "view",
      "type": "function"
    },
    {
      "inputs": [
        {
          "internalType": "address",
          "name": "spender",
          "type": "address"
        },
        {
          "internalType": "uint256",
          "name": "amount",
          "type": "uint256"
        }
      ],
      "name": "approve",
      "outputs": [
        {
          "internalType": "bool",
          "name": "",
          "type": "bool"
        }
      ],
      "stateMutability": "nonpayable",
      "type": "function"
    },
    {
      "inputs": [
        {
          "internalType": "address",
          "name": "account",
          "type": "address"
        }
      ],
      "name": "balanceOf",
      "outputs": [
        {
          "internalType": "uint256",
          "name": "",
          "type": "uint256"
        }
      ],
      "stateMutability": "view",
      "type": "function"
    },
    {
      "inputs": [],
      "name": "decimals",
      "outputs": [
        {
          "internalType": "uint8",
          "name": "",
          "type": "uint8"
        }
      ],
      "stateMutability": "view",
      "type": "function"
    },
    {
      "inputs": [
        {
          "internalType": "address",
          "name": "spender",
          "type": "address"
        },
        {
          "internalType": "uint256",
          "name": "subtractedValue",
          "type": "uint256"
        }
      ],
      "name": "decreaseAllowance",
      "outputs": [
        {
          "internalType": "bool",
          "name": "",
          "type": "bool"
        }
      ],
      "stateMutability": "nonpayable",
      "type": "function"
    },
    {
      "inputs": [
        {
          "internalType": "bytes32",
          "name": "role",
          "type": "bytes32"
        }
      ],
      "name": "getRoleAdmin",
      "outputs": [
        {
          "internalType": "bytes32",
          "name": "",
          "type": "bytes32"
        }
      ],
      "stateMutability": "view",
      "type": "function"
    },
    {
      "inputs": [
        {
          "internalType": "bytes32",
          "name": "role",
          "type": "bytes32"
        },
        {
          "internalType": "uint256",
          "name": "index",
          "type": "uint256"
        }
      ],
      "name": "getRoleMember",
      "outputs": [
        {
          "internalType": "address",
          "name": "",
          "type": "address"
        }
      ],
      "stateMutability": "view",
      "type": "function"
    },
    {
      "inputs": [
        {
          "internalType": "bytes32",
          "name": "role",
          "type": "bytes32"
        }
      ],
      "name": "getRoleMemberCount",
      "outputs": [
        {
          "internalType": "uint256",
          "name": "",
          "type": "uint256"
        }
      ],
      "stateMutability": "view",
      "type": "function"
    },
    {
      "inputs": [
        {
          "internalType": "bytes32",
          "name": "role",
          "type": "bytes32"
        },
        {
          "internalType": "address",
          "name": "account",
          "type": "address"
        }
      ],
      "name": "grantRole",
      "outputs": [],
      "stateMutability": "nonpayable",
      "type": "function"
    },
    {
      "inputs": [
        {
          "internalType": "bytes32",
          "name": "role",
          "type": "bytes32"
        },
        {
          "internalType": "address",
          "name": "account",
          "type": "address"
        }
      ],
      "name": "hasRole",
      "outputs": [
        {
          "internalType": "bool",
          "name": "",
          "type": "bool"
        }
      ],
      "stateMutability": "view",
      "type": "function"
    },
    {
      "inputs": [
        {
          "internalType": "address",
          "name": "spender",
          "type": "address"
        },
        {
          "internalType": "uint256",
          "name": "addedValue",
          "type": "uint256"
        }
      ],
      "name": "increaseAllowance",
      "outputs": [
        {
          "internalType": "bool",
          "name": "",
          "type": "bool"
        }
      ],
      "stateMutability": "nonpayable",
      "type": "function"
    },
    {
      "inputs": [],
      "name": "name",
      "outputs": [
        {
          "internalType": "string",
          "name": "",
          "type": "string"
        }
      ],
      "stateMutability": "view",
      "type": "function"
    },
    {
      "inputs": [],
      "name": "paused",
      "outputs": [
        {
          "internalType": "bool",
          "name": "",
          "type": "bool"
        }
      ],
      "stateMutability": "view",
      "type": "function"
    },
    {
      "inputs": [
        {
          "internalType": "bytes32",
          "name": "role",
          "type": "bytes32"
        },
        {
          "internalType": "address",
          "name": "account",
          "type": "address"
        }
      ],
      "name": "renounceRole",
      "outputs": [],
      "stateMutability": "nonpayable",
      "type": "function"
    },
    {
      "inputs": [
        {
          "internalType": "bytes32",
          "name": "role",
          "type": "bytes32"
        },
        {
          "internalType": "address",
          "name": "account",
          "type": "address"
        }
      ],
      "name": "revokeRole",
      "outputs": [],
      "stateMutability": "nonpayable",
      "type": "function"
    },
    {
      "inputs": [],
      "name": "symbol",
      "outputs": [
        {
          "internalType": "string",
          "name": "",
          "type": "string"
        }
      ],
      "stateMutability": "view",
      "type": "function"
    },
    {
      "inputs": [],
      "name": "totalSupply",
      "outputs": [
        {
          "internalType": "uint256",
          "name": "",
          "type": "uint256"
        }
      ],
      "stateMutability": "view",
      "type": "function"
    },
    {
      "inputs": [
        {
          "internalType": "address",
          "name": "recipient",
          "type": "address"
        },
        {
          "internalType": "uint256",
          "name": "amount",
          "type": "uint256"
        }
      ],
      "name": "transfer",
      "outputs": [
        {
          "internalType": "bool",
          "name": "",
          "type": "bool"
        }
      ],
      "stateMutability": "nonpayable",
      "type": "function"
    },
    {
      "inputs": [
        {
          "internalType": "address",
          "name": "sender",
          "type": "address"
        },
        {
          "internalType": "address",
          "name": "recipient",
          "type": "address"
        },
        {
          "internalType": "uint256",
          "name": "amount",
          "type": "uint256"
        }
      ],
      "name": "transferFrom",
      "outputs": [
        {
          "internalType": "bool",
          "name": "",
          "type": "bool"
        }
      ],
      "stateMutability": "nonpayable",
      "type": "function"
    },
    {
      "inputs": [
        {
          "internalType": "address",
          "name": "uaddress",
          "type": "address"
        },
        {
          "internalType": "address",
          "name": "pauserAddress",
          "type": "address"
        }
      ],
      "name": "initialize",
      "outputs": [],
      "stateMutability": "nonpayable",
      "type": "function"
    },
    {
      "inputs": [
        {
          "internalType": "address",
          "name": "uTokenContract",
          "type": "address"
        }
      ],
      "name": "setUTokensContract",
      "outputs": [],
      "stateMutability": "nonpayable",
      "type": "function"
    },
    {
      "inputs": [
        {
          "internalType": "uint256",
          "name": "rate",
          "type": "uint256"
        }
      ],
      "name": "setRewardRate",
      "outputs": [
        {
          "internalType": "bool",
          "name": "success",
          "type": "bool"
        }
      ],
      "stateMutability": "nonpayable",
      "type": "function"
    },
    {
      "inputs": [],
      "name": "getRewardRate",
      "outputs": [
        {
          "internalType": "uint256",
          "name": "rewardRate",
          "type": "uint256"
        }
      ],
      "stateMutability": "view",
      "type": "function"
    },
    {
      "inputs": [
        {
          "internalType": "address",
          "name": "to",
          "type": "address"
        }
      ],
      "name": "getStakedBlock",
      "outputs": [
        {
          "internalType": "uint256",
          "name": "stakedBlocks",
          "type": "uint256"
        }
      ],
      "stateMutability": "view",
      "type": "function"
    },
    {
      "inputs": [
        {
          "internalType": "address",
          "name": "to",
          "type": "address"
        },
        {
          "internalType": "uint256",
          "name": "tokens",
          "type": "uint256"
        }
      ],
      "name": "mint",
      "outputs": [
        {
          "internalType": "bool",
          "name": "success",
          "type": "bool"
        }
      ],
      "stateMutability": "nonpayable",
      "type": "function"
    },
    {
      "inputs": [
        {
          "internalType": "address",
          "name": "from",
          "type": "address"
        },
        {
          "internalType": "uint256",
          "name": "tokens",
          "type": "uint256"
        }
      ],
      "name": "burn",
      "outputs": [
        {
          "internalType": "bool",
          "name": "success",
          "type": "bool"
        }
      ],
      "stateMutability": "nonpayable",
      "type": "function"
    },
    {
      "inputs": [
        {
          "internalType": "address",
          "name": "to",
          "type": "address"
        }
      ],
      "name": "calculatePendingRewards",
      "outputs": [
        {
          "internalType": "uint256",
          "name": "pendingRewards",
          "type": "uint256"
        }
      ],
      "stateMutability": "view",
      "type": "function"
    },
    {
      "inputs": [
        {
          "internalType": "address",
          "name": "to",
          "type": "address"
        }
      ],
      "name": "calculateRewards",
      "outputs": [
        {
          "internalType": "bool",
          "name": "success",
          "type": "bool"
        }
      ],
      "stateMutability": "nonpayable",
      "type": "function"
    },
    {
      "inputs": [
        {
          "internalType": "address",
          "name": "liquidStakingContract",
          "type": "address"
        }
      ],
      "name": "setLiquidStakingContract",
      "outputs": [],
      "stateMutability": "nonpayable",
      "type": "function"
    },
    {
      "inputs": [
        {
          "internalType": "address",
          "name": "wrapperContract",
          "type": "address"
        }
      ],
      "name": "setWrapperContract",
      "outputs": [],
      "stateMutability": "nonpayable",
      "type": "function"
    },
    {
      "inputs": [],
      "name": "pause",
      "outputs": [
        {
          "internalType": "bool",
          "name": "success",
          "type": "bool"
        }
      ],
      "stateMutability": "nonpayable",
      "type": "function"
    },
    {
      "inputs": [],
      "name": "unpause",
      "outputs": [
        {
          "internalType": "bool",
          "name": "success",
          "type": "bool"
        }
      ],
      "stateMutability": "nonpayable",
      "type": "function"
    }
  ],
  "bytecode": "0x608060405234801561001057600080fd5b50612944806100206000396000f3fe608060405234801561001057600080fd5b50600436106102065760003560e01c806364ab86751161011a5780639e447fc6116100ad578063ca15c8731161007c578063ca15c87314610653578063d04be57514610670578063d547741f14610696578063dd62ed3e146106c2578063e63ab1e9146106f057610206565b80639e447fc6146105d6578063a217fddf146105f3578063a457c2d7146105fb578063a9059cbb1461062757610206565b80639010d07c116100e95780639010d07c1461053757806391d148541461057657806395d89b41146105a25780639dc29fac146105aa57610206565b806364ab8675146104db57806370a08231146105015780637e1a3786146105275780638456cb591461052f57610206565b8063313ce5671161019d57806340c10f191161016c57806340c10f191461042d578063485cc955146104595780634e5581271461048757806358f8943e146104ad5780635c975abb146104d357610206565b8063313ce567146103af57806336568abe146103cd57806339509351146103f95780633f4ba83a1461042557610206565b806321bdf9e5116101d957806321bdf9e51461030857806323b872dd14610330578063248a9ca3146103665780632f2ff15d1461038357610206565b806306fdde031461020b578063095ea7b314610288578063097aad10146102c857806318160ddd14610300575b600080fd5b6102136106f8565b6040805160208082528351818301528351919283929083019185019080838360005b8381101561024d578181015183820152602001610235565b50505050905090810190601f16801561027a5780820380516001836020036101000a031916815260200191505b509250505060405180910390f35b6102b46004803603604081101561029e57600080fd5b506001600160a01b03813516906020013561078e565b604080519115158252519081900360200190f35b6102ee600480360360208110156102de57600080fd5b50356001600160a01b03166107ac565b60408051918252519081900360200190f35b6102ee6108a8565b61032e6004803603602081101561031e57600080fd5b50356001600160a01b03166108ae565b005b6102b46004803603606081101561034657600080fd5b506001600160a01b03813581169160208101359091169060400135610992565b6102ee6004803603602081101561037c57600080fd5b5035610a19565b61032e6004803603604081101561039957600080fd5b50803590602001356001600160a01b0316610a2e565b6103b7610a95565b6040805160ff9092168252519081900360200190f35b61032e600480360360408110156103e357600080fd5b50803590602001356001600160a01b0316610a9e565b6102b46004803603604081101561040f57600080fd5b506001600160a01b038135169060200135610aff565b6102b4610b4d565b6102b46004803603604081101561044357600080fd5b506001600160a01b038135169060200135610bb2565b61032e6004803603604081101561046f57600080fd5b506001600160a01b0381358116916020013516610c78565b61032e6004803603602081101561049d57600080fd5b50356001600160a01b0316610dc1565b61032e600480360360208110156104c357600080fd5b50356001600160a01b0316610e78565b6102b4610f2f565b6102b4600480360360208110156104f157600080fd5b50356001600160a01b0316610f38565b6102ee6004803603602081101561051757600080fd5b50356001600160a01b031661103a565b6102ee611055565b6102b46110ab565b61055a6004803603604081101561054d57600080fd5b508035906020013561110a565b604080516001600160a01b039092168252519081900360200190f35b6102b46004803603604081101561058c57600080fd5b50803590602001356001600160a01b0316611129565b610213611141565b6102b4600480360360408110156105c057600080fd5b506001600160a01b0381351690602001356111a2565b6102b4600480360360208110156105ec57600080fd5b5035611268565b6102ee611347565b6102b46004803603604081101561061157600080fd5b506001600160a01b03813516906020013561134c565b6102b46004803603604081101561063d57600080fd5b506001600160a01b0381351690602001356113b4565b6102ee6004803603602081101561066957600080fd5b50356113c8565b6102ee6004803603602081101561068657600080fd5b50356001600160a01b03166113df565b61032e600480360360408110156106ac57600080fd5b50803590602001356001600160a01b031661144a565b6102ee600480360360408110156106d857600080fd5b506001600160a01b03813581169160200135166114a3565b6102ee6114ce565b60368054604080516020601f60026000196101006001881615020190951694909404938401819004810282018101909252828152606093909290918301828280156107845780601f1061075957610100808354040283529160200191610784565b820191906000526020600020905b81548152906001019060200180831161076757829003601f168201915b5050505050905090565b60006107a261079b6114e0565b84846114e4565b5060015b92915050565b60006107b6610f2f565b156107fb576040805162461bcd60e51b815260206004820152601060248201526f14185d5cd8589b194e881c185d5cd95960821b604482015290519081900360640190fd5b6001600160a01b038216600090815260cd60209081526040808320548151808301909252601d82527f53546f6b656e733a204572726f7220696e207375627472616374696f6e0000009282019290925243929161085a918491906115d0565b905060006108678561103a565b905060008111801561087b5750600060cc54115b80156108875750600082115b156108a05760648260cc548302028161089c57fe5b0493505b505050919050565b60355490565b6108b6610f2f565b156108fb576040805162461bcd60e51b815260206004820152601060248201526f14185d5cd8589b194e881c185d5cd95960821b604482015290519081900360640190fd5b61090d60006109086114e0565b611129565b6109485760405162461bcd60e51b815260040180806020018281038252603b815260200180612785603b913960400191505060405180910390fd5b60cb80546001600160a01b0319166001600160a01b0383169081179091556040517fd2aadb3cffae0822fd2473c85652a28b2a822a91a93ae700e4dd02a9ca0bb4b590600090a250565b600061099f848484611667565b610a0f846109ab6114e0565b610a0a85604051806060016040528060288152602001612711602891396001600160a01b038a166000908152603460205260408120906109e96114e0565b6001600160a01b0316815260208101919091526040016000205491906115d0565b6114e4565b5060019392505050565b60009081526097602052604090206002015490565b600082815260976020526040902060020154610a4c906109086114e0565b610a875760405162461bcd60e51b815260040180806020018281038252602f815260200180612516602f913960400191505060405180910390fd5b610a9182826117c4565b5050565b60385460ff1690565b610aa66114e0565b6001600160a01b0316816001600160a01b031614610af55760405162461bcd60e51b815260040180806020018281038252602f8152602001806128b6602f913960400191505060405180910390fd5b610a91828261182d565b60006107a2610b0c6114e0565b84610a0a8560346000610b1d6114e0565b6001600160a01b03908116825260208083019390935260409182016000908120918c168152925290205490611896565b6000610b696000805160206127398339815191526109086114e0565b610ba45760405162461bcd60e51b81526004018080602001828103825260328152602001806125896032913960400191505060405180910390fd5b610bac6118f0565b50600190565b6000610bbc610f2f565b15610c01576040805162461bcd60e51b815260206004820152601060248201526f14185d5cd8589b194e881c185d5cd95960821b604482015290519081900360640190fd5b326001600160a01b038416148015610c33575060c9546001600160a01b0316610c286114e0565b6001600160a01b0316145b610c6e5760405162461bcd60e51b815260040180806020018281038252602c8152602001806124ea602c913960400191505060405180910390fd5b6107a28383611990565b600054610100900460ff1680610c915750610c91611a82565b80610c9f575060005460ff16155b610cda5760405162461bcd60e51b815260040180806020018281038252602e815260200180612674602e913960400191505060405180910390fd5b600054610100900460ff16158015610d05576000805460ff1961ff0019909116610100171660011790555b610d5860405180604001604052806012815260200171705354414b45205374616b65642041544f4d60701b8152506040518060400160405280600781526020016673746b41544f4d60c81b815250611a93565b610d60611b32565b610d68611be4565b610d7a6000610d756114e0565b610a87565b610d9260008051602061273983398151915283610a87565b610d9b836108ae565b600160cc55610daa6006611c81565b8015610dbc576000805461ff00191690555b505050565b610dc9610f2f565b15610e0e576040805162461bcd60e51b815260206004820152601060248201526f14185d5cd8589b194e881c185d5cd95960821b604482015290519081900360640190fd5b610e1b60006109086114e0565b610e565760405162461bcd60e51b81526004018080602001828103825260348152602001806126106034913960400191505060405180910390fd5b60ca80546001600160a01b0319166001600160a01b0392909216919091179055565b610e80610f2f565b15610ec5576040805162461bcd60e51b815260206004820152601060248201526f14185d5cd8589b194e881c185d5cd95960821b604482015290519081900360640190fd5b610ed260006109086114e0565b610f0d5760405162461bcd60e51b815260040180806020018281038252603a81526020018061280e603a913960400191505060405180910390fd5b60c980546001600160a01b0319166001600160a01b0392909216919091179055565b60655460ff1690565b6000610f42610f2f565b15610f87576040805162461bcd60e51b815260206004820152601060248201526f14185d5cd8589b194e881c185d5cd95960821b604482015290519081900360640190fd5b610f8f6114e0565b6001600160a01b0316826001600160a01b031614610fde5760405162461bcd60e51b815260040180806020018281038252603f8152602001806126d2603f913960400191505060405180910390fd5b6000610fe983611c97565b6040805182815242602082015281519293506001600160a01b038616927fd0194489832efa41a56f4a4add6fbbe260998cbcff0b43c953af28b545ca7a01929181900390910190a250600192915050565b6001600160a01b031660009081526033602052604090205490565b600061105f610f2f565b156110a4576040805162461bcd60e51b815260206004820152601060248201526f14185d5cd8589b194e881c185d5cd95960821b604482015290519081900360640190fd5b5060cc5490565b60006110c76000805160206127398339815191526109086114e0565b6111025760405162461bcd60e51b81526004018080602001828103825260308152602001806126a26030913960400191505060405180910390fd5b610bac611d91565b60008281526097602052604081206111229083611e14565b9392505050565b60008281526097602052604081206111229083611e20565b60378054604080516020601f60026000196101006001881615020190951694909404938401819004810282018101909252828152606093909290918301828280156107845780601f1061075957610100808354040283529160200191610784565b60006111ac610f2f565b156111f1576040805162461bcd60e51b815260206004820152601060248201526f14185d5cd8589b194e881c185d5cd95960821b604482015290519081900360640190fd5b326001600160a01b038416148015611223575060c9546001600160a01b03166112186114e0565b6001600160a01b0316145b61125e5760405162461bcd60e51b815260040180806020018281038252602c815260200180612759602c913960400191505060405180910390fd5b6107a28383611e35565b6000611272610f2f565b156112b7576040805162461bcd60e51b815260206004820152601060248201526f14185d5cd8589b194e881c185d5cd95960821b604482015290519081900360640190fd5b600082116112f65760405162461bcd60e51b815260040180806020018281038252602d8152602001806127e1602d913960400191505060405180910390fd5b61130360006109086114e0565b61133e5760405162461bcd60e51b815260040180806020018281038252602f8152602001806125bb602f913960400191505060405180910390fd5b5060cc55600190565b600081565b60006107a26113596114e0565b84610a0a8560405180606001604052806025815260200161289160259139603460006113836114e0565b6001600160a01b03908116825260208083019390935260409182016000908120918d168152925290205491906115d0565b60006107a26113c16114e0565b8484611667565b60008181526097602052604081206107a690611f31565b60006113e9610f2f565b1561142e576040805162461bcd60e51b815260206004820152601060248201526f14185d5cd8589b194e881c185d5cd95960821b604482015290519081900360640190fd5b506001600160a01b0316600090815260cd602052604090205490565b600082815260976020526040902060020154611468906109086114e0565b610af55760405162461bcd60e51b81526004018080602001828103825260308152602001806126446030913960400191505060405180910390fd5b6001600160a01b03918216600090815260346020908152604080832093909416825291909152205490565b60008051602061273983398151915281565b3390565b6001600160a01b0383166115295760405162461bcd60e51b815260040180806020018281038252602481526020018061286d6024913960400191505060405180910390fd5b6001600160a01b03821661156e5760405162461bcd60e51b81526004018080602001828103825260228152602001806125676022913960400191505060405180910390fd5b6001600160a01b03808416600081815260346020908152604080832094871680845294825291829020859055815185815291517f8c5be1e5ebec7d5bd14f71427d1e84f3dd0314c0f7b2291e5b200ac8c7c3b9259281900390910190a3505050565b6000818484111561165f5760405162461bcd60e51b81526004018080602001828103825283818151815260200191508051906020019080838360005b8381101561162457818101518382015260200161160c565b50505050905090810190601f1680156116515780820380516001836020036101000a031916815260200191505b509250505060405180910390fd5b505050900390565b6001600160a01b0383166116ac5760405162461bcd60e51b81526004018080602001828103825260258152602001806128486025913960400191505060405180910390fd5b6001600160a01b0382166116f15760405162461bcd60e51b81526004018080602001828103825260238152602001806124c76023913960400191505060405180910390fd5b6116fc838383611f3c565b611739816040518060600160405280602681526020016125ea602691396001600160a01b03861660009081526033602052604090205491906115d0565b6001600160a01b0380851660009081526033602052604080822093909355908416815220546117689082611896565b6001600160a01b0380841660008181526033602090815260409182902094909455805185815290519193928716927fddf252ad1be2c89b69c2b068fc378daa952ba7f163c4a11628f55a4df523b3ef92918290030190a3505050565b60008281526097602052604090206117dc9082611fc3565b15610a91576117e96114e0565b6001600160a01b0316816001600160a01b0316837f2f8788117e7eff1d82e926ec794901d17c78024a50270940304540a733656f0d60405160405180910390a45050565b60008281526097602052604090206118459082611fd8565b15610a91576118526114e0565b6001600160a01b0316816001600160a01b0316837ff6391f5c32d9c69d2a47ea670b442974b53935d1edc7fd64eb21e047a839171b60405160405180910390a45050565b600082820183811015611122576040805162461bcd60e51b815260206004820152601b60248201527f536166654d6174683a206164646974696f6e206f766572666c6f770000000000604482015290519081900360640190fd5b6118f8610f2f565b611940576040805162461bcd60e51b815260206004820152601460248201527314185d5cd8589b194e881b9bdd081c185d5cd95960621b604482015290519081900360640190fd5b6065805460ff191690557f5db9ee0a495bf2e6ff9c91a7834c1ba4fdd244a5e8aa4e537bd38aeae4b073aa6119736114e0565b604080516001600160a01b039092168252519081900360200190a1565b6001600160a01b0382166119eb576040805162461bcd60e51b815260206004820152601f60248201527f45524332303a206d696e7420746f20746865207a65726f206164647265737300604482015290519081900360640190fd5b6119f760008383611f3c565b603554611a049082611896565b6035556001600160a01b038216600090815260336020526040902054611a2a9082611896565b6001600160a01b03831660008181526033602090815260408083209490945583518581529351929391927fddf252ad1be2c89b69c2b068fc378daa952ba7f163c4a11628f55a4df523b3ef9281900390910190a35050565b6000611a8d30611fed565b15905090565b600054610100900460ff1680611aac5750611aac611a82565b80611aba575060005460ff16155b611af55760405162461bcd60e51b815260040180806020018281038252602e815260200180612674602e913960400191505060405180910390fd5b600054610100900460ff16158015611b20576000805460ff1961ff0019909116610100171660011790555b611b28611ff3565b610daa8383612093565b600054610100900460ff1680611b4b5750611b4b611a82565b80611b59575060005460ff16155b611b945760405162461bcd60e51b815260040180806020018281038252602e815260200180612674602e913960400191505060405180910390fd5b600054610100900460ff16158015611bbf576000805460ff1961ff0019909116610100171660011790555b611bc7611ff3565b611bcf611ff3565b8015611be1576000805461ff00191690555b50565b600054610100900460ff1680611bfd5750611bfd611a82565b80611c0b575060005460ff16155b611c465760405162461bcd60e51b815260040180806020018281038252602e815260200180612674602e913960400191505060405180910390fd5b600054610100900460ff16158015611c71576000805460ff1961ff0019909116610100171660011790555b611c79611ff3565b611bcf61216b565b6038805460ff191660ff92909216919091179055565b600080611ca3836107ac565b90508015611d70576040805182815242602082015281516001600160a01b038616927f01ea729deb12fa912e813101b1da8b7c1500f7f26c912a612221a02af6a56220928290030190a260cb54604080516340c10f1960e01b81526001600160a01b03868116600483015260248201859052915191909216916340c10f199160448083019260209291908290030181600087803b158015611d4357600080fd5b505af1158015611d57573d6000803e3d6000fd5b505050506040513d6020811015611d6d57600080fd5b50505b6001600160a01b0392909216600090815260cd602052604090204390555090565b611d99610f2f565b15611dde576040805162461bcd60e51b815260206004820152601060248201526f14185d5cd8589b194e881c185d5cd95960821b604482015290519081900360640190fd5b6065805460ff191660011790557f62e78cea01bee320cd4e420270b5ea74000d11b0c9f74754ebdbfc544b05a2586119736114e0565b60006111228383612216565b6000611122836001600160a01b03841661227a565b6001600160a01b038216611e7a5760405162461bcd60e51b81526004018080602001828103825260218152602001806127c06021913960400191505060405180910390fd5b611e8682600083611f3c565b611ec381604051806060016040528060228152602001612545602291396001600160a01b03851660009081526033602052604090205491906115d0565b6001600160a01b038316600090815260336020526040902055603554611ee99082612292565b6035556040805182815290516000916001600160a01b038516917fddf252ad1be2c89b69c2b068fc378daa952ba7f163c4a11628f55a4df523b3ef9181900360200190a35050565b60006107a6826122ef565b611f44610f2f565b15611f805760405162461bcd60e51b815260040180806020018281038252602a8152602001806128e5602a913960400191505060405180910390fd5b611f8b838383610dbc565b6001600160a01b03831615611fa557611fa383611c97565b505b6001600160a01b03821615610dbc57611fbd82611c97565b50505050565b6000611122836001600160a01b0384166122f3565b6000611122836001600160a01b03841661233d565b3b151590565b600054610100900460ff168061200c575061200c611a82565b8061201a575060005460ff16155b6120555760405162461bcd60e51b815260040180806020018281038252602e815260200180612674602e913960400191505060405180910390fd5b600054610100900460ff16158015611bcf576000805460ff1961ff0019909116610100171660011790558015611be1576000805461ff001916905550565b600054610100900460ff16806120ac57506120ac611a82565b806120ba575060005460ff16155b6120f55760405162461bcd60e51b815260040180806020018281038252602e815260200180612674602e913960400191505060405180910390fd5b600054610100900460ff16158015612120576000805460ff1961ff0019909116610100171660011790555b8251612133906036906020860190612403565b508151612147906037906020850190612403565b506038805460ff191660121790558015610dbc576000805461ff0019169055505050565b600054610100900460ff16806121845750612184611a82565b80612192575060005460ff16155b6121cd5760405162461bcd60e51b815260040180806020018281038252602e815260200180612674602e913960400191505060405180910390fd5b600054610100900460ff161580156121f8576000805460ff1961ff0019909116610100171660011790555b6065805460ff191690558015611be1576000805461ff001916905550565b815460009082106122585760405162461bcd60e51b81526004018080602001828103825260228152602001806124a56022913960400191505060405180910390fd5b82600001828154811061226757fe5b9060005260206000200154905092915050565b60009081526001919091016020526040902054151590565b6000828211156122e9576040805162461bcd60e51b815260206004820152601e60248201527f536166654d6174683a207375627472616374696f6e206f766572666c6f770000604482015290519081900360640190fd5b50900390565b5490565b60006122ff838361227a565b612335575081546001818101845560008481526020808220909301849055845484825282860190935260409020919091556107a6565b5060006107a6565b600081815260018301602052604081205480156123f9578354600019808301919081019060009087908390811061237057fe5b906000526020600020015490508087600001848154811061238d57fe5b6000918252602080832090910192909255828152600189810190925260409020908401905586548790806123bd57fe5b600190038181906000526020600020016000905590558660010160008781526020019081526020016000206000905560019450505050506107a6565b60009150506107a6565b828054600181600116156101000203166002900490600052602060002090601f016020900481019282612439576000855561247f565b82601f1061245257805160ff191683800117855561247f565b8280016001018555821561247f579182015b8281111561247f578251825591602001919060010190612464565b5061248b92915061248f565b5090565b5b8082111561248b576000815560010161249056fe456e756d657261626c655365743a20696e646578206f7574206f6620626f756e647345524332303a207472616e7366657220746f20746865207a65726f206164647265737353546f6b656e733a2055736572206e6f7420617574686f726973656420746f206d696e742053546f6b656e73416363657373436f6e74726f6c3a2073656e646572206d75737420626520616e2061646d696e20746f206772616e7445524332303a206275726e20616d6f756e7420657863656564732062616c616e636545524332303a20617070726f766520746f20746865207a65726f206164647265737353546f6b656e733a2055736572206e6f7420617574686f726973656420746f20756e706175736520636f6e7472616374732e53546f6b656e733a2055736572206e6f7420617574686f726973656420746f2073657420726577617264207261746545524332303a207472616e7366657220616d6f756e7420657863656564732062616c616e636553546f6b656e733a2055736572206e6f7420617574686f726973656420746f20736574207772617070657220636f6e7472616374416363657373436f6e74726f6c3a2073656e646572206d75737420626520616e2061646d696e20746f207265766f6b65496e697469616c697a61626c653a20636f6e747261637420697320616c726561647920696e697469616c697a656453546f6b656e733a2055736572206e6f7420617574686f726973656420746f20706175736520636f6e7472616374732e53546f6b656e733a206f6e6c79207374616b65722063616e20696e697469617465207468656972206f776e20726577617264732063616c63756c6174696f6e45524332303a207472616e7366657220616d6f756e74206578636565647320616c6c6f77616e636565d7a28e3265b37a6474929f336521b332c1681b933f6cb9f3376673440d862a53546f6b656e733a2055736572206e6f7420617574686f726973656420746f206275726e2053546f6b656e7353546f6b656e733a2055736572206e6f7420617574686f726973656420746f207365742055546f6b656e20636f6e7472616374206164647265737345524332303a206275726e2066726f6d20746865207a65726f206164647265737353546f6b656e733a2052657761726420726174652073686f756c642062652067726561746572207468616e203053546f6b656e733a2055736572206e6f7420617574686f726973656420746f20736574206c69717569645374616b696e6720636f6e747261637445524332303a207472616e736665722066726f6d20746865207a65726f206164647265737345524332303a20617070726f76652066726f6d20746865207a65726f206164647265737345524332303a2064656372656173656420616c6c6f77616e63652062656c6f77207a65726f416363657373436f6e74726f6c3a2063616e206f6e6c792072656e6f756e636520726f6c657320666f722073656c6645524332305061757361626c653a20746f6b656e207472616e73666572207768696c6520706175736564a26469706673582212202e26708f8105300b9fd5634a02f183f44f23bb0e4fbeb3db3bada4c685fca28664736f6c63430007060033",
  "immutableReferences": {},
  "source": "// SPDX-License-Identifier: UNLICENSED\npragma solidity ^0.7.0;\n\nimport \"@openzeppelin/contracts-upgradeable/token/ERC20/ERC20Upgradeable.sol\";\nimport \"@openzeppelin/contracts-upgradeable/math/SafeMathUpgradeable.sol\";\nimport \"@openzeppelin/contracts-upgradeable/utils/PausableUpgradeable.sol\";\nimport \"@openzeppelin/contracts-upgradeable/access/AccessControlUpgradeable.sol\";\nimport \"./interfaces/ISTokens.sol\";\nimport \"./interfaces/IUTokens.sol\";\n\ncontract STokens is ERC20Upgradeable, ISTokens, PausableUpgradeable, AccessControlUpgradeable {\n\n    using SafeMathUpgradeable for uint256;\n\n    bytes32 public constant PAUSER_ROLE = keccak256(\"PAUSER_ROLE\");\n\n    address private _liquidStakingContract;\n    address private _wrapperContract;\n\n    //Private instance of contract to handle Utokens\n    IUTokens private _uTokens;\n\n\n    uint256 private _rewardRate;\n    mapping(address => uint256) private _stakedBlocks;\n\n    /**\n   * @dev Constructor for initializing the SToken contract.\n   * @param uaddress - address of the UToken contract.\n   * @param pauserAddress - address of the pauser admin.\n   */\n    function initialize(address uaddress, address pauserAddress) public virtual initializer {\n        __ERC20_init(\"pSTAKE Staked ATOM\", \"stkATOM\");\n        __AccessControl_init();\n        __Pausable_init();\n        _setupRole(DEFAULT_ADMIN_ROLE, _msgSender());\n        _setupRole(PAUSER_ROLE, pauserAddress);\n        setUTokensContract(uaddress);\n        _rewardRate = 1;\n        _setupDecimals(6);\n    }\n\n    /*\n     * @dev Set 'contract address', called from constructor\n     * @param uTokenContract: utoken contract address\n     *\n     * Emits a {SetContract} event with '_contract' set to the utoken contract address.\n     *\n     */\n    function setUTokensContract(address uTokenContract) public virtual override whenNotPaused{\n        require(hasRole(DEFAULT_ADMIN_ROLE, _msgSender()), \"STokens: User not authorised to set UToken contract address\");\n        _uTokens = IUTokens(uTokenContract);\n        emit SetContract(uTokenContract);\n    }\n\n    /*\n    * @dev set reward rate\n    * @param rate: reward rate\n    *\n    *\n    * Requirements:\n    *\n    * - `rate` cannot be less than or equal to zero.\n    *\n    */\n    function setRewardRate(uint256 rate) public virtual override whenNotPaused returns (bool success) {\n        require(rate>0, \"STokens: Reward rate should be greater than 0\");\n        require(hasRole(DEFAULT_ADMIN_ROLE, _msgSender()), \"STokens: User not authorised to set reward rate\");\n        _rewardRate = rate;\n        return true;\n    }\n\n    /**\n    * @dev get reward rate\n    */\n    function getRewardRate() public view virtual override whenNotPaused returns (uint256 rewardRate) {\n        rewardRate = _rewardRate;\n        return rewardRate;\n    }\n\n    /**\n     * @dev get staked block\n     * @param to: account address\n     */\n    function getStakedBlock(address to) public view virtual override whenNotPaused returns (uint256 stakedBlocks) {\n        stakedBlocks = _stakedBlocks[to];\n        return stakedBlocks;\n    }\n\n    /**\n     * @dev Mint new stokens for the provided 'address' and 'amount'\n     * @param to: account address, amount: number of tokens\n     *\n     * Emits a {MintTokens} event with 'to' set to address and 'amount' set to amount of tokens.\n     *\n     * Requirements:\n     *\n     * - `amount` cannot be less than zero.\n     *\n     */\n    function mint(address to, uint256 tokens) public virtual override whenNotPaused returns (bool success) {\n        require(tx.origin == to && _msgSender() == _liquidStakingContract, \"STokens: User not authorised to mint STokens\");\n        _mint(to, tokens);\n        return true;\n    }\n\n    /*\n     * @dev Burn stokens for the provided 'address' and 'amount'\n     * @param to: account address, amount: number of tokens\n     *\n     * Emits a {BurnTokens} event with 'to' set to address and 'amount' set to amount of tokens.\n     *\n     * Requirements:\n     *\n     * - `amount` cannot be less than zero.\n     *\n     */\n    function burn(address from, uint256 tokens) public  virtual override whenNotPaused returns (bool success) {\n        require(tx.origin == from && _msgSender() == _liquidStakingContract, \"STokens: User not authorised to burn STokens\");\n        _burn(from, tokens);\n        return true;\n    }\n\n    /**\n     * @dev Calculate rewards for the provided 'address'\n     * @param to: account address\n     */\n    function _calculateRewards(address to) internal returns (uint256){\n        // Calculate the rewards pending\n        uint256 _reward = calculatePendingRewards(to);\n        // mint uTokens only if reward is greater than zero\n        if(_reward>0) {\n            // Mint new uTokens and send to the callers account\n            emit CalculateRewards(to, _reward, block.timestamp);\n            _uTokens.mint(to, _reward);\n        }\n        // Set the new stakedBlock to the current\n        _stakedBlocks[to] = block.number;\n        return _reward;\n    }\n\n    /**\n     * @dev Calculate pending rewards for the provided 'address'\n     * @param to: account address\n     */\n    function calculatePendingRewards(address to) public view virtual override whenNotPaused returns (uint256 pendingRewards){\n        // Get the current Block\n        uint256 _currentBlock = block.number;\n        // Get the time in number of blocks\n        uint256 _rewardBlock = _currentBlock.sub(_stakedBlocks[to], \"STokens: Error in subtraction\");\n        // Get the balance of the account\n        uint256 _balance = balanceOf(to);\n        // Calculate the interest if P, R, T are non zero values\n        if(_balance > 0 && _rewardRate > 0 && _rewardBlock > 0) {\n            pendingRewards = (_balance * _rewardRate * _rewardBlock) / 100;\n        }\n        return pendingRewards;\n    }\n\n    /**\n     * @dev Calculate rewards for the provided 'address'\n     * @param to: account address\n     *\n     * Emits a {TriggeredCalculateRewards} event with 'to' set to address, 'reward' set to amount of tokens and 'timestamp'\n     *\n     */\n    function calculateRewards(address to) public virtual override whenNotPaused returns (bool success) {\n        require(to == _msgSender(), \"STokens: only staker can initiate their own rewards calculation\");\n        uint256 reward =  _calculateRewards(to);\n        emit TriggeredCalculateRewards(to, reward, block.timestamp);\n        return true;\n    }\n\n    /**\n     * @dev Hook that is called before any transfer of tokens. This includes\n     * minting and burning.\n     *\n     * Calling conditions:\n     *\n     * - when `from` and `to` are both non-zero, `amount` of ``from``'s tokens\n     * will be to transferred to `to`.\n     * - when `from` is zero, `amount` tokens will be minted for `to`.\n     * - when `to` is zero, `amount` of ``from``'s tokens will be burned.\n     * - `from` and `to` are never both zero.\n     *\n     */\n    function _beforeTokenTransfer(address from, address to, uint256 amount) internal virtual override {\n        require(!paused(), \"ERC20Pausable: token transfer while paused\");\n        super._beforeTokenTransfer(from, to, amount);\n        if (from != address(0))\n        {\n            _calculateRewards(from);\n        }\n        if (to != address(0))\n        {\n            _calculateRewards(to);\n        }\n    }\n\n    /*\n     * @dev Set 'contract address', called from constructor\n     * @param liquidStakingContract: liquidStaking contract address\n     *\n     * Emits a {SetContract} event with '_contract' set to the liquidStaking contract address.\n     *\n     */\n    //This function need to be called after deployment, only admin can call the same\n    function setLiquidStakingContract(address liquidStakingContract) public virtual override whenNotPaused{\n        require(hasRole(DEFAULT_ADMIN_ROLE, _msgSender()), \"STokens: User not authorised to set liquidStaking contract\");\n        _liquidStakingContract = liquidStakingContract;\n    }\n\n    /*\n     * @dev Set 'contract address', called from constructor\n     * @param wrapperContract: wrapperContract contract address\n     *\n     * Emits a {SetContract} event with '_contract' set to the wrapper contract address.\n     *\n     */\n    function setWrapperContract(address wrapperContract) public virtual override whenNotPaused {\n        require(hasRole(DEFAULT_ADMIN_ROLE, _msgSender()), \"STokens: User not authorised to set wrapper contract\");\n        _wrapperContract = wrapperContract;\n    }\n\n    /**\n      * @dev Triggers stopped state.\n      *\n      * Requirements:\n      *\n      * - The contract must not be paused.\n      */\n    function pause() public virtual override returns (bool success) {\n        require(hasRole(PAUSER_ROLE, _msgSender()), \"STokens: User not authorised to pause contracts.\");\n        _pause();\n        return true;\n    }\n\n    /**\n     * @dev Returns to normal state.\n     *\n     * Requirements:\n     *\n     * - The contract must be paused.\n     */\n    function unpause() public virtual override returns (bool success) {\n        require(hasRole(PAUSER_ROLE, _msgSender()), \"STokens: User not authorised to unpause contracts.\");\n        _unpause();\n        return true;\n    }\n}",
  "sourcePath": "/home/aditimahesh/Documents/Work/Persistence/go/src/github.com/persistenceOne/pStakeSmartContracts/contracts/STokens.sol",
  "compiler": {
    "name": "solc",
    "version": "0.7.6+commit.7338295f.Emscripten.clang"
  },
  "schemaVersion": "3.3.4",
  "updatedAt": "2021-03-31T07:28:02.744Z",
  "networkType": "ethereum",
  "devdoc": {
    "kind": "dev",
    "methods": {
      "allowance(address,address)": {
        "details": "See {IERC20-allowance}."
      },
      "approve(address,uint256)": {
        "details": "See {IERC20-approve}. Requirements: - `spender` cannot be the zero address."
      },
      "balanceOf(address)": {
        "details": "See {IERC20-balanceOf}."
      },
      "burn(address,uint256)": {
        "details": "Burns `amount` tokens to the caller's address `from`. Returns a boolean value indicating whether the operation succeeded. Emits a {Transfer} event."
      },
      "calculatePendingRewards(address)": {
        "details": "Calculate pending rewards for the provided 'address'",
        "params": {
          "to": ": account address"
        }
      },
      "calculateRewards(address)": {
        "details": "Calculate rewards for the provided 'address'",
        "params": {
          "to": ": account address Emits a {TriggeredCalculateRewards} event with 'to' set to address, 'reward' set to amount of tokens and 'timestamp'"
        }
      },
      "decimals()": {
        "details": "Returns the number of decimals used to get its user representation. For example, if `decimals` equals `2`, a balance of `505` tokens should be displayed to a user as `5,05` (`505 / 10 ** 2`). Tokens usually opt for a value of 18, imitating the relationship between Ether and Wei. This is the value {ERC20} uses, unless {_setupDecimals} is called. NOTE: This information is only used for _display_ purposes: it in no way affects any of the arithmetic of the contract, including {IERC20-balanceOf} and {IERC20-transfer}."
      },
      "decreaseAllowance(address,uint256)": {
        "details": "Atomically decreases the allowance granted to `spender` by the caller. This is an alternative to {approve} that can be used as a mitigation for problems described in {IERC20-approve}. Emits an {Approval} event indicating the updated allowance. Requirements: - `spender` cannot be the zero address. - `spender` must have allowance for the caller of at least `subtractedValue`."
      },
      "getRewardRate()": {
        "details": "get reward rate"
      },
      "getRoleAdmin(bytes32)": {
        "details": "Returns the admin role that controls `role`. See {grantRole} and {revokeRole}. To change a role's admin, use {_setRoleAdmin}."
      },
      "getRoleMember(bytes32,uint256)": {
        "details": "Returns one of the accounts that have `role`. `index` must be a value between 0 and {getRoleMemberCount}, non-inclusive. Role bearers are not sorted in any particular way, and their ordering may change at any point. WARNING: When using {getRoleMember} and {getRoleMemberCount}, make sure you perform all queries on the same block. See the following https://forum.openzeppelin.com/t/iterating-over-elements-on-enumerableset-in-openzeppelin-contracts/2296[forum post] for more information."
      },
      "getRoleMemberCount(bytes32)": {
        "details": "Returns the number of accounts that have `role`. Can be used together with {getRoleMember} to enumerate all bearers of a role."
      },
      "getStakedBlock(address)": {
        "details": "get staked block",
        "params": {
          "to": ": account address"
        }
      },
      "grantRole(bytes32,address)": {
        "details": "Grants `role` to `account`. If `account` had not been already granted `role`, emits a {RoleGranted} event. Requirements: - the caller must have ``role``'s admin role."
      },
      "hasRole(bytes32,address)": {
        "details": "Returns `true` if `account` has been granted `role`."
      },
      "increaseAllowance(address,uint256)": {
        "details": "Atomically increases the allowance granted to `spender` by the caller. This is an alternative to {approve} that can be used as a mitigation for problems described in {IERC20-approve}. Emits an {Approval} event indicating the updated allowance. Requirements: - `spender` cannot be the zero address."
      },
      "initialize(address,address)": {
        "details": "Constructor for initializing the SToken contract.",
        "params": {
          "pauserAddress": "- address of the pauser admin.",
          "uaddress": "- address of the UToken contract."
        }
      },
      "mint(address,uint256)": {
        "details": "Mint new stokens for the provided 'address' and 'amount'",
        "params": {
          "to": ": account address, amount: number of tokens Emits a {MintTokens} event with 'to' set to address and 'amount' set to amount of tokens. Requirements: - `amount` cannot be less than zero."
        }
      },
      "name()": {
        "details": "Returns the name of the token."
      },
      "pause()": {
        "details": "Triggers stopped state. Requirements: - The contract must not be paused."
      },
      "paused()": {
        "details": "Returns true if the contract is paused, and false otherwise."
      },
      "renounceRole(bytes32,address)": {
        "details": "Revokes `role` from the calling account. Roles are often managed via {grantRole} and {revokeRole}: this function's purpose is to provide a mechanism for accounts to lose their privileges if they are compromised (such as when a trusted device is misplaced). If the calling account had been granted `role`, emits a {RoleRevoked} event. Requirements: - the caller must be `account`."
      },
      "revokeRole(bytes32,address)": {
        "details": "Revokes `role` from `account`. If `account` had been granted `role`, emits a {RoleRevoked} event. Requirements: - the caller must have ``role``'s admin role."
      },
      "setLiquidStakingContract(address)": {
        "details": "Set LiquidStaking smart contract."
      },
      "setRewardRate(uint256)": {
        "details": "Sets `reward rate`. Returns a boolean value indicating whether the operation succeeded."
      },
      "setWrapperContract(address)": {
        "details": "Set Wrapper smart contract."
      },
      "symbol()": {
        "details": "Returns the symbol of the token, usually a shorter version of the name."
      },
      "totalSupply()": {
        "details": "See {IERC20-totalSupply}."
      },
      "transfer(address,uint256)": {
        "details": "See {IERC20-transfer}. Requirements: - `recipient` cannot be the zero address. - the caller must have a balance of at least `amount`."
      },
      "transferFrom(address,address,uint256)": {
        "details": "See {IERC20-transferFrom}. Emits an {Approval} event indicating the updated allowance. This is not required by the EIP. See the note at the beginning of {ERC20}. Requirements: - `sender` and `recipient` cannot be the zero address. - `sender` must have a balance of at least `amount`. - the caller must have allowance for ``sender``'s tokens of at least `amount`."
      },
      "unpause()": {
        "details": "Returns to normal state. Requirements: - The contract must be paused."
      }
    },
    "version": 1
  },
  "userdoc": {
    "kind": "user",
    "methods": {},
    "version": 1
  }
}