{
  "contractName": "STokensXPRT",
  "abi": [
    {
      "anonymous": false,
      "inputs": [
        {
          "indexed": true,
          "internalType": "address",
          "name": "owner",
          "type": "address"
        },
        {
          "indexed": true,
          "internalType": "address",
          "name": "spender",
          "type": "address"
        },
        {
          "indexed": false,
          "internalType": "uint256",
          "name": "value",
          "type": "uint256"
        }
      ],
      "name": "Approval",
      "type": "event"
    },
    {
      "anonymous": false,
      "inputs": [
        {
          "indexed": true,
          "internalType": "address",
          "name": "accountAddress",
          "type": "address"
        },
        {
          "indexed": false,
          "internalType": "uint256",
          "name": "tokens",
          "type": "uint256"
        },
        {
          "indexed": false,
          "internalType": "uint256",
          "name": "timestamp",
          "type": "uint256"
        }
      ],
      "name": "CalculateHolderRewards",
      "type": "event"
    },
    {
      "anonymous": false,
      "inputs": [
        {
          "indexed": true,
          "internalType": "address",
          "name": "accountAddress",
          "type": "address"
        },
        {
          "indexed": false,
          "internalType": "uint256",
          "name": "tokens",
          "type": "uint256"
        },
        {
          "indexed": false,
          "internalType": "uint256",
          "name": "timestamp",
          "type": "uint256"
        }
      ],
      "name": "CalculateRewards",
      "type": "event"
    },
    {
      "anonymous": false,
      "inputs": [
        {
          "indexed": false,
          "internalType": "address",
          "name": "account",
          "type": "address"
        }
      ],
      "name": "Paused",
      "type": "event"
    },
    {
      "anonymous": false,
      "inputs": [
        {
          "indexed": true,
          "internalType": "address",
          "name": "whitelistedAddress",
          "type": "address"
        },
        {
          "indexed": false,
          "internalType": "address",
          "name": "holderContractAddress",
          "type": "address"
        },
        {
          "indexed": false,
          "internalType": "address",
          "name": "lpContractAddress",
          "type": "address"
        },
        {
          "indexed": false,
          "internalType": "uint256",
          "name": "timestamp",
          "type": "uint256"
        }
      ],
      "name": "RemoveWhitelistedAddress",
      "type": "event"
    },
    {
      "anonymous": false,
      "inputs": [
        {
          "indexed": true,
          "internalType": "bytes32",
          "name": "role",
          "type": "bytes32"
        },
        {
          "indexed": true,
          "internalType": "bytes32",
          "name": "previousAdminRole",
          "type": "bytes32"
        },
        {
          "indexed": true,
          "internalType": "bytes32",
          "name": "newAdminRole",
          "type": "bytes32"
        }
      ],
      "name": "RoleAdminChanged",
      "type": "event"
    },
    {
      "anonymous": false,
      "inputs": [
        {
          "indexed": true,
          "internalType": "bytes32",
          "name": "role",
          "type": "bytes32"
        },
        {
          "indexed": true,
          "internalType": "address",
          "name": "account",
          "type": "address"
        },
        {
          "indexed": true,
          "internalType": "address",
          "name": "sender",
          "type": "address"
        }
      ],
      "name": "RoleGranted",
      "type": "event"
    },
    {
      "anonymous": false,
      "inputs": [
        {
          "indexed": true,
          "internalType": "bytes32",
          "name": "role",
          "type": "bytes32"
        },
        {
          "indexed": true,
          "internalType": "address",
          "name": "account",
          "type": "address"
        },
        {
          "indexed": true,
          "internalType": "address",
          "name": "sender",
          "type": "address"
        }
      ],
      "name": "RoleRevoked",
      "type": "event"
    },
    {
      "anonymous": false,
      "inputs": [
        {
          "indexed": true,
          "internalType": "address",
          "name": "_contract",
          "type": "address"
        }
      ],
      "name": "SetLiquidStakingContract",
      "type": "event"
    },
    {
      "anonymous": false,
      "inputs": [
        {
          "indexed": true,
          "internalType": "uint256",
          "name": "rewardRate",
          "type": "uint256"
        }
      ],
      "name": "SetRewardRate",
      "type": "event"
    },
    {
      "anonymous": false,
      "inputs": [
        {
          "indexed": true,
          "internalType": "address",
          "name": "_contract",
          "type": "address"
        }
      ],
      "name": "SetUTokensContract",
      "type": "event"
    },
    {
      "anonymous": false,
      "inputs": [
        {
          "indexed": true,
          "internalType": "address",
          "name": "whitelistedAddress",
          "type": "address"
        },
        {
          "indexed": false,
          "internalType": "address",
          "name": "holderContractAddress",
          "type": "address"
        },
        {
          "indexed": false,
          "internalType": "address",
          "name": "lpContractAddress",
          "type": "address"
        },
        {
          "indexed": false,
          "internalType": "uint256",
          "name": "timestamp",
          "type": "uint256"
        }
      ],
      "name": "SetWhitelistedAddress",
      "type": "event"
    },
    {
      "anonymous": false,
      "inputs": [
        {
          "indexed": true,
          "internalType": "address",
          "name": "from",
          "type": "address"
        },
        {
          "indexed": true,
          "internalType": "address",
          "name": "to",
          "type": "address"
        },
        {
          "indexed": false,
          "internalType": "uint256",
          "name": "value",
          "type": "uint256"
        }
      ],
      "name": "Transfer",
      "type": "event"
    },
    {
      "anonymous": false,
      "inputs": [
        {
          "indexed": true,
          "internalType": "address",
          "name": "accountAddress",
          "type": "address"
        },
        {
          "indexed": false,
          "internalType": "uint256",
          "name": "tokens",
          "type": "uint256"
        },
        {
          "indexed": false,
          "internalType": "uint256",
          "name": "timestamp",
          "type": "uint256"
        }
      ],
      "name": "TriggeredCalculateHolderRewards",
      "type": "event"
    },
    {
      "anonymous": false,
      "inputs": [
        {
          "indexed": true,
          "internalType": "address",
          "name": "accountAddress",
          "type": "address"
        },
        {
          "indexed": false,
          "internalType": "uint256",
          "name": "tokens",
          "type": "uint256"
        },
        {
          "indexed": false,
          "internalType": "uint256",
          "name": "timestamp",
          "type": "uint256"
        }
      ],
      "name": "TriggeredCalculateRewards",
      "type": "event"
    },
    {
      "anonymous": false,
      "inputs": [
        {
          "indexed": false,
          "internalType": "address",
          "name": "account",
          "type": "address"
        }
      ],
      "name": "Unpaused",
      "type": "event"
    },
    {
      "inputs": [],
      "name": "DEFAULT_ADMIN_ROLE",
      "outputs": [
        {
          "internalType": "bytes32",
          "name": "",
          "type": "bytes32"
        }
      ],
      "stateMutability": "view",
      "type": "function"
    },
    {
      "inputs": [],
      "name": "PAUSER_ROLE",
      "outputs": [
        {
          "internalType": "bytes32",
          "name": "",
          "type": "bytes32"
        }
      ],
      "stateMutability": "view",
      "type": "function"
    },
    {
      "inputs": [
        {
          "internalType": "address",
          "name": "",
          "type": "address"
        }
      ],
      "name": "_holderContractAddress",
      "outputs": [
        {
          "internalType": "address",
          "name": "",
          "type": "address"
        }
      ],
      "stateMutability": "view",
      "type": "function"
    },
    {
      "inputs": [
        {
          "internalType": "address",
          "name": "",
          "type": "address"
        }
      ],
      "name": "_lastHolderRewardTimestamp",
      "outputs": [
        {
          "internalType": "uint256",
          "name": "",
          "type": "uint256"
        }
      ],
      "stateMutability": "view",
      "type": "function"
    },
    {
      "inputs": [],
      "name": "_liquidStakingContract",
      "outputs": [
        {
          "internalType": "address",
          "name": "",
          "type": "address"
        }
      ],
      "stateMutability": "view",
      "type": "function"
    },
    {
      "inputs": [
        {
          "internalType": "address",
          "name": "",
          "type": "address"
        }
      ],
      "name": "_lpContractAddress",
      "outputs": [
        {
          "internalType": "address",
          "name": "",
          "type": "address"
        }
      ],
      "stateMutability": "view",
      "type": "function"
    },
    {
      "inputs": [],
      "name": "_uTokens",
      "outputs": [
        {
          "internalType": "contract IUTokensV2",
          "name": "",
          "type": "address"
        }
      ],
      "stateMutability": "view",
      "type": "function"
    },
    {
      "inputs": [],
      "name": "_valueDivisor",
      "outputs": [
        {
          "internalType": "uint256",
          "name": "",
          "type": "uint256"
        }
      ],
      "stateMutability": "view",
      "type": "function"
    },
    {
      "inputs": [],
      "name": "_version",
      "outputs": [
        {
          "internalType": "uint256",
          "name": "",
          "type": "uint256"
        }
      ],
      "stateMutability": "view",
      "type": "function"
    },
    {
      "inputs": [
        {
          "internalType": "address",
          "name": "owner",
          "type": "address"
        },
        {
          "internalType": "address",
          "name": "spender",
          "type": "address"
        }
      ],
      "name": "allowance",
      "outputs": [
        {
          "internalType": "uint256",
          "name": "",
          "type": "uint256"
        }
      ],
      "stateMutability": "view",
      "type": "function"
    },
    {
      "inputs": [
        {
          "internalType": "address",
          "name": "spender",
          "type": "address"
        },
        {
          "internalType": "uint256",
          "name": "amount",
          "type": "uint256"
        }
      ],
      "name": "approve",
      "outputs": [
        {
          "internalType": "bool",
          "name": "",
          "type": "bool"
        }
      ],
      "stateMutability": "nonpayable",
      "type": "function"
    },
    {
      "inputs": [
        {
          "internalType": "address",
          "name": "account",
          "type": "address"
        }
      ],
      "name": "balanceOf",
      "outputs": [
        {
          "internalType": "uint256",
          "name": "",
          "type": "uint256"
        }
      ],
      "stateMutability": "view",
      "type": "function"
    },
    {
      "inputs": [],
      "name": "decimals",
      "outputs": [
        {
          "internalType": "uint8",
          "name": "",
          "type": "uint8"
        }
      ],
      "stateMutability": "view",
      "type": "function"
    },
    {
      "inputs": [
        {
          "internalType": "address",
          "name": "spender",
          "type": "address"
        },
        {
          "internalType": "uint256",
          "name": "subtractedValue",
          "type": "uint256"
        }
      ],
      "name": "decreaseAllowance",
      "outputs": [
        {
          "internalType": "bool",
          "name": "",
          "type": "bool"
        }
      ],
      "stateMutability": "nonpayable",
      "type": "function"
    },
    {
      "inputs": [
        {
          "internalType": "bytes32",
          "name": "role",
          "type": "bytes32"
        }
      ],
      "name": "getRoleAdmin",
      "outputs": [
        {
          "internalType": "bytes32",
          "name": "",
          "type": "bytes32"
        }
      ],
      "stateMutability": "view",
      "type": "function"
    },
    {
      "inputs": [
        {
          "internalType": "bytes32",
          "name": "role",
          "type": "bytes32"
        },
        {
          "internalType": "uint256",
          "name": "index",
          "type": "uint256"
        }
      ],
      "name": "getRoleMember",
      "outputs": [
        {
          "internalType": "address",
          "name": "",
          "type": "address"
        }
      ],
      "stateMutability": "view",
      "type": "function"
    },
    {
      "inputs": [
        {
          "internalType": "bytes32",
          "name": "role",
          "type": "bytes32"
        }
      ],
      "name": "getRoleMemberCount",
      "outputs": [
        {
          "internalType": "uint256",
          "name": "",
          "type": "uint256"
        }
      ],
      "stateMutability": "view",
      "type": "function"
    },
    {
      "inputs": [
        {
          "internalType": "bytes32",
          "name": "role",
          "type": "bytes32"
        },
        {
          "internalType": "address",
          "name": "account",
          "type": "address"
        }
      ],
      "name": "grantRole",
      "outputs": [],
      "stateMutability": "nonpayable",
      "type": "function"
    },
    {
      "inputs": [
        {
          "internalType": "bytes32",
          "name": "role",
          "type": "bytes32"
        },
        {
          "internalType": "address",
          "name": "account",
          "type": "address"
        }
      ],
      "name": "hasRole",
      "outputs": [
        {
          "internalType": "bool",
          "name": "",
          "type": "bool"
        }
      ],
      "stateMutability": "view",
      "type": "function"
    },
    {
      "inputs": [
        {
          "internalType": "address",
          "name": "spender",
          "type": "address"
        },
        {
          "internalType": "uint256",
          "name": "addedValue",
          "type": "uint256"
        }
      ],
      "name": "increaseAllowance",
      "outputs": [
        {
          "internalType": "bool",
          "name": "",
          "type": "bool"
        }
      ],
      "stateMutability": "nonpayable",
      "type": "function"
    },
    {
      "inputs": [],
      "name": "name",
      "outputs": [
        {
          "internalType": "string",
          "name": "",
          "type": "string"
        }
      ],
      "stateMutability": "view",
      "type": "function"
    },
    {
      "inputs": [],
      "name": "paused",
      "outputs": [
        {
          "internalType": "bool",
          "name": "",
          "type": "bool"
        }
      ],
      "stateMutability": "view",
      "type": "function"
    },
    {
      "inputs": [
        {
          "internalType": "bytes32",
          "name": "role",
          "type": "bytes32"
        },
        {
          "internalType": "address",
          "name": "account",
          "type": "address"
        }
      ],
      "name": "renounceRole",
      "outputs": [],
      "stateMutability": "nonpayable",
      "type": "function"
    },
    {
      "inputs": [
        {
          "internalType": "bytes32",
          "name": "role",
          "type": "bytes32"
        },
        {
          "internalType": "address",
          "name": "account",
          "type": "address"
        }
      ],
      "name": "revokeRole",
      "outputs": [],
      "stateMutability": "nonpayable",
      "type": "function"
    },
    {
      "inputs": [],
      "name": "symbol",
      "outputs": [
        {
          "internalType": "string",
          "name": "",
          "type": "string"
        }
      ],
      "stateMutability": "view",
      "type": "function"
    },
    {
      "inputs": [],
      "name": "totalSupply",
      "outputs": [
        {
          "internalType": "uint256",
          "name": "",
          "type": "uint256"
        }
      ],
      "stateMutability": "view",
      "type": "function"
    },
    {
      "inputs": [
        {
          "internalType": "address",
          "name": "recipient",
          "type": "address"
        },
        {
          "internalType": "uint256",
          "name": "amount",
          "type": "uint256"
        }
      ],
      "name": "transfer",
      "outputs": [
        {
          "internalType": "bool",
          "name": "",
          "type": "bool"
        }
      ],
      "stateMutability": "nonpayable",
      "type": "function"
    },
    {
      "inputs": [
        {
          "internalType": "address",
          "name": "sender",
          "type": "address"
        },
        {
          "internalType": "address",
          "name": "recipient",
          "type": "address"
        },
        {
          "internalType": "uint256",
          "name": "amount",
          "type": "uint256"
        }
      ],
      "name": "transferFrom",
      "outputs": [
        {
          "internalType": "bool",
          "name": "",
          "type": "bool"
        }
      ],
      "stateMutability": "nonpayable",
      "type": "function"
    },
    {
      "inputs": [
        {
          "internalType": "string",
          "name": "tokenName",
          "type": "string"
        },
        {
          "internalType": "string",
          "name": "tokenSymbol",
          "type": "string"
        },
        {
          "internalType": "address",
          "name": "uaddress",
          "type": "address"
        },
        {
          "internalType": "address",
          "name": "pauserAddress",
          "type": "address"
        },
        {
          "internalType": "uint256",
          "name": "rewardRate",
          "type": "uint256"
        },
        {
          "internalType": "uint256",
          "name": "valueDivisor",
          "type": "uint256"
        }
      ],
      "name": "initialize",
      "outputs": [],
      "stateMutability": "nonpayable",
      "type": "function"
    },
    {
      "inputs": [
        {
          "internalType": "address",
          "name": "whitelistedAddress",
          "type": "address"
        }
      ],
      "name": "isContractWhitelisted",
      "outputs": [
        {
          "internalType": "bool",
          "name": "result",
          "type": "bool"
        }
      ],
      "stateMutability": "view",
      "type": "function"
    },
    {
      "inputs": [
        {
          "internalType": "address",
          "name": "whitelistedAddress",
          "type": "address"
        }
      ],
      "name": "getHolderData",
      "outputs": [
        {
          "internalType": "address",
          "name": "holderAddress",
          "type": "address"
        },
        {
          "internalType": "address",
          "name": "lpAddress",
          "type": "address"
        },
        {
          "internalType": "address",
          "name": "uTokenAddress",
          "type": "address"
        },
        {
          "internalType": "uint256",
          "name": "lastHolderRewardTimestamp",
          "type": "uint256"
        }
      ],
      "stateMutability": "view",
      "type": "function"
    },
    {
      "inputs": [
        {
          "internalType": "uint256",
          "name": "rewardRate",
          "type": "uint256"
        }
      ],
      "name": "setRewardRate",
      "outputs": [
        {
          "internalType": "bool",
          "name": "success",
          "type": "bool"
        }
      ],
      "stateMutability": "nonpayable",
      "type": "function"
    },
    {
      "inputs": [],
      "name": "getRewardRate",
      "outputs": [
        {
          "internalType": "uint256[]",
          "name": "rewardRate",
          "type": "uint256[]"
        },
        {
          "internalType": "uint256",
          "name": "valueDivisor",
          "type": "uint256"
        }
      ],
      "stateMutability": "view",
      "type": "function"
    },
    {
      "inputs": [
        {
          "internalType": "address",
          "name": "to",
          "type": "address"
        }
      ],
      "name": "getLastUserRewardTimestamp",
      "outputs": [
        {
          "internalType": "uint256",
          "name": "lastUserRewardTimestamp",
          "type": "uint256"
        }
      ],
      "stateMutability": "view",
      "type": "function"
    },
    {
      "inputs": [
        {
          "internalType": "address",
          "name": "to",
          "type": "address"
        },
        {
          "internalType": "uint256",
          "name": "tokens",
          "type": "uint256"
        }
      ],
      "name": "mint",
      "outputs": [
        {
          "internalType": "bool",
          "name": "",
          "type": "bool"
        }
      ],
      "stateMutability": "nonpayable",
      "type": "function"
    },
    {
      "inputs": [
        {
          "internalType": "address",
          "name": "from",
          "type": "address"
        },
        {
          "internalType": "uint256",
          "name": "tokens",
          "type": "uint256"
        }
      ],
      "name": "burn",
      "outputs": [
        {
          "internalType": "bool",
          "name": "",
          "type": "bool"
        }
      ],
      "stateMutability": "nonpayable",
      "type": "function"
    },
    {
      "inputs": [
        {
          "internalType": "address",
          "name": "to",
          "type": "address"
        }
      ],
      "name": "calculatePendingRewards",
      "outputs": [
        {
          "internalType": "uint256",
          "name": "pendingRewards",
          "type": "uint256"
        }
      ],
      "stateMutability": "view",
      "type": "function"
    },
    {
      "inputs": [
        {
          "internalType": "address",
          "name": "to",
          "type": "address"
        }
      ],
      "name": "calculateRewards",
      "outputs": [
        {
          "internalType": "uint256",
          "name": "reward",
          "type": "uint256"
        }
      ],
      "stateMutability": "nonpayable",
      "type": "function"
    },
    {
      "inputs": [
        {
          "internalType": "address",
          "name": "to",
          "type": "address"
        }
      ],
      "name": "calculateHolderRewards",
      "outputs": [
        {
          "internalType": "uint256",
          "name": "rewards",
          "type": "uint256"
        }
      ],
      "stateMutability": "nonpayable",
      "type": "function"
    },
    {
      "inputs": [
        {
          "internalType": "address",
          "name": "whitelistedAddress",
          "type": "address"
        },
        {
          "internalType": "address",
          "name": "holderContractAddress",
          "type": "address"
        },
        {
          "internalType": "address",
          "name": "lpContractAddress",
          "type": "address"
        }
      ],
      "name": "setWhitelistedAddress",
      "outputs": [
        {
          "internalType": "bool",
          "name": "success",
          "type": "bool"
        }
      ],
      "stateMutability": "nonpayable",
      "type": "function"
    },
    {
      "inputs": [
        {
          "internalType": "address",
          "name": "whitelistedAddress",
          "type": "address"
        }
      ],
      "name": "removeWhitelistedAddress",
      "outputs": [
        {
          "internalType": "bool",
          "name": "success",
          "type": "bool"
        }
      ],
      "stateMutability": "nonpayable",
      "type": "function"
    },
    {
      "inputs": [
        {
          "internalType": "address",
          "name": "uTokenContract",
          "type": "address"
        }
      ],
      "name": "setUTokensContract",
      "outputs": [],
      "stateMutability": "nonpayable",
      "type": "function"
    },
    {
      "inputs": [
        {
          "internalType": "address",
          "name": "liquidStakingContract",
          "type": "address"
        }
      ],
      "name": "setLiquidStakingContract",
      "outputs": [],
      "stateMutability": "nonpayable",
      "type": "function"
    },
    {
      "inputs": [],
      "name": "pause",
      "outputs": [
        {
          "internalType": "bool",
          "name": "success",
          "type": "bool"
        }
      ],
      "stateMutability": "nonpayable",
      "type": "function"
    },
    {
      "inputs": [],
      "name": "unpause",
      "outputs": [
        {
          "internalType": "bool",
          "name": "success",
          "type": "bool"
        }
      ],
      "stateMutability": "nonpayable",
      "type": "function"
    }
  ],
  "bytecode": "0x608060405234801561001057600080fd5b506133b6806100206000396000f3fe608060405234801561001057600080fd5b506004361061027f5760003560e01c806370a082311161015c5780639e447fc6116100ce578063ca15c87311610087578063ca15c87314610925578063d547741f14610942578063da6b7ec71461096e578063dd62ed3e14610994578063e4df5918146109c2578063e63ab1e9146109e85761027f565b80639e447fc61461085c578063a217fddf14610879578063a457c2d714610881578063a9059cbb146108ad578063b8ecc2a9146108d9578063c057058a146108ff5761027f565b80637e1a3786116101205780637e1a37861461076e5780638456cb59146107d15780639010d07c146107d957806391d14854146107fc57806395d89b41146108285780639dc29fac146108305761027f565b806370a082311461064f578063728a99ee1461067557806374e87e1e1461067d57806378a2f0741461075e578063793105d8146107665761027f565b806336bbacad116101f557806340c10f19116101b957806340c10f19146105715780634bcb30f81461059d578063530cd5ab146105d557806358f8943e146105fb5780635c975abb1461062157806364ab8675146106295761027f565b806336bbacad1461049857806339509351146104f35780633e118dbe1461051f5780633f4ba83a146105275780633f7398a81461052f5761027f565b806323b872dd1161024757806323b872dd146103a9578063248a9ca3146103df57806326d6772e146103fc5780632f2ff15d14610422578063313ce5671461044e57806336568abe1461046c5761027f565b806306fdde0314610284578063095ea7b314610301578063097aad101461034157806318160ddd1461037957806321bdf9e514610381575b600080fd5b61028c6109f0565b6040805160208082528351818301528351919283929083019185019080838360005b838110156102c65781810151838201526020016102ae565b50505050905090810190601f1680156102f35780820380516001836020036101000a031916815260200191505b509250505060405180910390f35b61032d6004803603604081101561031757600080fd5b506001600160a01b038135169060200135610a86565b604080519115158252519081900360200190f35b6103676004803603602081101561035757600080fd5b50356001600160a01b0316610aa4565b60408051918252519081900360200190f35b610367610adb565b6103a76004803603602081101561039757600080fd5b50356001600160a01b0316610ae1565b005b61032d600480360360608110156103bf57600080fd5b506001600160a01b03813581169160208101359091169060400135610b77565b610367600480360360208110156103f557600080fd5b5035610bff565b6103676004803603602081101561041257600080fd5b50356001600160a01b0316610c14565b6103a76004803603604081101561043857600080fd5b50803590602001356001600160a01b0316610d12565b610456610d79565b6040805160ff9092168252519081900360200190f35b6103a76004803603604081101561048257600080fd5b50803590602001356001600160a01b0316610d82565b6104be600480360360208110156104ae57600080fd5b50356001600160a01b0316610de3565b604080516001600160a01b03958616815293851660208501529190931682820152606082019290925290519081900360800190f35b61032d6004803603604081101561050957600080fd5b506001600160a01b038135169060200135610e23565b610367610e71565b61032d610e77565b6105556004803603602081101561054557600080fd5b50356001600160a01b0316610edb565b604080516001600160a01b039092168252519081900360200190f35b61032d6004803603604081101561058757600080fd5b506001600160a01b038135169060200135610ef6565b61032d600480360360608110156105b357600080fd5b506001600160a01b038135811691602081013582169160409091013516610f58565b61032d600480360360208110156105eb57600080fd5b50356001600160a01b031661108c565b6103a76004803603602081101561061157600080fd5b50356001600160a01b03166111b0565b61032d611241565b6103676004803603602081101561063f57600080fd5b50356001600160a01b031661124a565b6103676004803603602081101561066557600080fd5b50356001600160a01b0316611342565b61036761135d565b6103a7600480360360c081101561069357600080fd5b8101906020810181356401000000008111156106ae57600080fd5b8201836020820111156106c057600080fd5b803590602001918460018302840111640100000000831117156106e257600080fd5b91939092909160208101903564010000000081111561070057600080fd5b82018360208201111561071257600080fd5b8035906020019184600183028401116401000000008311171561073457600080fd5b91935091506001600160a01b03813581169160208101359091169060408101359060600135611363565b61055561157a565b610555611589565b610776611598565b6040518080602001838152602001828103825284818151815260200191508051906020019060200280838360005b838110156107bc5781810151838201526020016107a4565b50505050905001935050505060405180910390f35b61032d6115f8565b610555600480360360408110156107ef57600080fd5b5080359060200135611656565b61032d6004803603604081101561081257600080fd5b50803590602001356001600160a01b031661166e565b61028c611686565b61032d6004803603604081101561084657600080fd5b506001600160a01b0381351690602001356116e7565b61032d6004803603602081101561087257600080fd5b5035611749565b610367611873565b61032d6004803603604081101561089757600080fd5b506001600160a01b038135169060200135611878565b61032d600480360360408110156108c357600080fd5b506001600160a01b0381351690602001356118e0565b610367600480360360208110156108ef57600080fd5b50356001600160a01b03166118f4565b61032d6004803603602081101561091557600080fd5b50356001600160a01b0316611906565b6103676004803603602081101561093b57600080fd5b5035611913565b6103a76004803603604081101561095857600080fd5b50803590602001356001600160a01b031661192a565b6105556004803603602081101561098457600080fd5b50356001600160a01b0316611983565b610367600480360360408110156109aa57600080fd5b506001600160a01b038135811691602001351661199e565b610367600480360360208110156109d857600080fd5b50356001600160a01b03166119c9565b6103676119e4565b60368054604080516020601f6002600019610100600188161502019095169490940493840181900481028201810190925282815260609390929091830182828015610a7c5780601f10610a5157610100808354040283529160200191610a7c565b820191906000526020600020905b815481529060010190602001808311610a5f57829003601f168201915b5050505050905090565b6000610a9a610a936119f6565b84846119fa565b5060015b92915050565b6001600160a01b038116600090815260d3602052604081205481610ac784611342565b9050610ad38183611ae6565b949350505050565b60355490565b610af36000610aee6119f6565b61166e565b610b2d576040805162461bcd60e51b8152602060048083019190915260248201526329aa189960e11b604482015290519081900360640190fd5b60cf80546001600160a01b0319166001600160a01b0383169081179091556040517ff745c285f36f88bea6af14d4d0f33dd9350cef7895216c1615b1caaee7857e0c90600090a250565b6000610b84848484611cfe565b610bf484610b906119f6565b610bef8560405180606001604052806028815260200161327b602891396001600160a01b038a16600090815260346020526040812090610bce6119f6565b6001600160a01b031681526020810191909152604001600020549190611e5b565b6119fa565b5060015b9392505050565b60009081526097602052604090206002015490565b6000610c1e611241565b15610c63576040805162461bcd60e51b815260206004820152601060248201526f14185d5cd8589b194e881c185d5cd95960821b604482015290519081900360640190fd5b6001600160a01b03821615801590610c8357506001600160a01b03821615155b610cbd576040805162461bcd60e51b8152602060048083019190915260248201526329aa189b60e11b604482015290519081900360640190fd5b610cc682611ef2565b6040805182815242602082015281519293506001600160a01b038516927e1ea73cd0c55ac52e092097cf417b2b1104949e311fefe6795684ef44bad26d929181900390910190a2919050565b600082815260976020526040902060020154610d3090610aee6119f6565b610d6b5760405162461bcd60e51b815260040180806020018281038252602f815260200180613163602f913960400191505060405180910390fd5b610d758282612129565b5050565b60385460ff1690565b610d8a6119f6565b6001600160a01b0316816001600160a01b031614610dd95760405162461bcd60e51b815260040180806020018281038252602f815260200180613352602f913960400191505060405180910390fd5b610d758282612192565b6001600160a01b03908116600090815260cb602090815260408083205460cc83528184205460cd90935292205460cf549284169491841693929092169190565b6000610a9a610e306119f6565b84610bef8560346000610e416119f6565b6001600160a01b03908116825260208083019390935260409182016000908120918c1681529252902054906121fb565b60d45481565b6000610e936000805160206132a3833981519152610aee6119f6565b610ecd576040805162461bcd60e51b815260206004808301919091526024820152635354313560e01b604482015290519081900360640190fd5b610ed5612255565b50600190565b60cb602052600090815260409020546001600160a01b031681565b60ce546000906001600160a01b0316610f0d6119f6565b6001600160a01b031614610f4e576040805162461bcd60e51b815260206004820152600360248201526253543360e81b604482015290519081900360640190fd5b610a9a83836122f5565b6000610f6681610aee6119f6565b610f9d576040805162461bcd60e51b81526020600482015260036024820152620a6a8760eb1b604482015290519081900360640190fd5b6001600160a01b038416610fde576040805162461bcd60e51b815260206004820152600360248201526253543960e81b604482015290519081900360640190fd5b610fe960c9856123e7565b610ffa57610ff860c9856123fc565b505b6001600160a01b03808516600081815260cb602090815260408083208054868a166001600160a01b0319918216811790925560cc84529382902080549689169690941686179093558051928352908201939093524281840152915190917f82ed35aaa6afc6ef1f698fbb8532bfa0a40ac98e0a5157a330a43ac1715cc199919081900360600190a25060019392505050565b600061109a81610aee6119f6565b6110d4576040805162461bcd60e51b815260206004808301919091526024820152630535431360e41b604482015290519081900360640190fd5b6001600160a01b038216611118576040805162461bcd60e51b815260206004808301919091526024820152635354313160e01b604482015290519081900360640190fd5b61112360c983612411565b506001600160a01b03828116600081815260cb60209081526040808320805460cc84529382902080546001600160a01b031980871690935581549092169055815193861680855295169183018290524283820152519092917f2742009aa76efd08ff06c38a132900d832bc5494d526b3335719fca7b65b95fc919081900360600190a25060019392505050565b6111bd6000610aee6119f6565b6111f7576040805162461bcd60e51b815260206004808301919091526024820152635354313360e01b604482015290519081900360640190fd5b60ce80546001600160a01b0319166001600160a01b0383169081179091556040517f57fded54c0f01b7b2c662bd89530d6916e48149e02da384db87d1a67306be87190600090a250565b60655460ff1690565b6000611254611241565b15611299576040805162461bcd60e51b815260206004820152601060248201526f14185d5cd8589b194e881c185d5cd95960821b604482015290519081900360640190fd5b6112a16119f6565b6001600160a01b0316826001600160a01b0316146112ec576040805162461bcd60e51b815260206004820152600360248201526253543560e81b604482015290519081900360640190fd5b6112f582612426565b6040805182815242602082015281519293506001600160a01b038516927fd0194489832efa41a56f4a4add6fbbe260998cbcff0b43c953af28b545ca7a01929181900390910190a2919050565b6001600160a01b031660009081526033602052604090205490565b60d25481565b600054610100900460ff168061137c575061137c612511565b8061138a575060005460ff16155b6113c55760405162461bcd60e51b815260040180806020018281038252602e81526020018061322c602e913960400191505060405180910390fd5b600054610100900460ff161580156113f0576000805460ff1961ff0019909116610100171660011790555b61146389898080601f01602080910402602001604051908101604052809392919081815260200183838082843760009201919091525050604080516020601f8d018190048102820181019092528b815292508b91508a908190840183828082843760009201919091525061252292505050565b61146b6125d8565b61147361268a565b61148560006114806119f6565b610d6b565b61149d6000805160206132a383398151915285610d6b565b6114a685610ae1565b60d28290556114b6826064612727565b8311156114f0576040805162461bcd60e51b815260206004820152600360248201526253543160e81b604482015290519081900360640190fd5b60d0805460018181019092557fe89d44c8fd6a9bac8af33ce47f56337617d449bf7ff3956b618c646de829cbcb0184905560d180549182018155600052427f695fb3134ad82c3b8022bc5464edd0bcc9424ef672b52245dcb6ab2374327ce39091015561155d6006612780565b801561156f576000805461ff00191690555b505050505050505050565b60cf546001600160a01b031681565b60ce546001600160a01b031681565b6060600060d08054806020026020016040519081016040528092919081815260200182805480156115e857602002820191906000526020600020905b8154815260200190600101908083116115d4575b5050505050915060d25490509091565b60006116146000805160206132a3833981519152610aee6119f6565b61164e576040805162461bcd60e51b8152602060048083019190915260248201526314d50c4d60e21b604482015290519081900360640190fd5b610ed5612796565b6000828152609760205260408120610bf89083612819565b6000828152609760205260408120610bf890836123e7565b60378054604080516020601f6002600019610100600188161502019095169490940493840181900481028201810190925282815260609390929091830182828015610a7c5780601f10610a5157610100808354040283529160200191610a7c565b60ce546000906001600160a01b03166116fe6119f6565b6001600160a01b03161461173f576040805162461bcd60e51b815260206004820152600360248201526214d50d60ea1b604482015290519081900360640190fd5b610a9a8383612825565b60d25460009061175a906064612727565b821115611797576040805162461bcd60e51b815260206004808301919091526024820152635354313760e01b604482015290519081900360640190fd5b6117a46000610aee6119f6565b6117db576040805162461bcd60e51b815260206004820152600360248201526229aa1960e91b604482015290519081900360640190fd5b60d0805460018181019092557fe89d44c8fd6a9bac8af33ce47f56337617d449bf7ff3956b618c646de829cbcb0183905560d1805491820181556000908152427f695fb3134ad82c3b8022bc5464edd0bcc9424ef672b52245dcb6ab2374327ce39092019190915560405183917f1946fb78c7ca778b54d82cabaac5ba67cf446f58d0ff1f8ceaebb6150e54e44f91a2506001919050565b600081565b6000610a9a6118856119f6565b84610bef8560405180606001604052806025815260200161332d60259139603460006118af6119f6565b6001600160a01b03908116825260208083019390935260409182016000908120918d16815292529020549190611e5b565b6000610a9a6118ed6119f6565b8484611cfe565b60cd6020526000908152604090205481565b6000610a9e60c9836123e7565b6000818152609760205260408120610a9e90612921565b60008281526097602052604090206002015461194890610aee6119f6565b610dd95760405162461bcd60e51b81526004018080602001828103825260308152602001806131fc6030913960400191505060405180910390fd5b60cc602052600090815260409020546001600160a01b031681565b6001600160a01b03918216600090815260346020908152604080832093909416825291909152205490565b6001600160a01b0316600090815260d3602052604090205490565b6000805160206132a383398151915281565b3390565b6001600160a01b038316611a3f5760405162461bcd60e51b81526004018080602001828103825260248152602001806133096024913960400191505060405180910390fd5b6001600160a01b038216611a845760405162461bcd60e51b81526004018080602001828103825260228152602001806131b46022913960400191505060405180910390fd5b6001600160a01b03808416600081815260346020908152604080832094871680845294825291829020859055815185815291517f8c5be1e5ebec7d5bd14f71427d1e84f3dd0314c0f7b2291e5b200ac8c7c3b9259281900390910190a3505050565b600080808080861580611b005750611afe428761292c565b155b15611b12576000945050505050610a9e565b60d154600090611b2390600161292c565b90508094505b60d154611b3790600161292c565b851015611c50578660d18681548110611b4c57fe5b90600052602060002001541115611bfc57611ba960d18681548110611b6d57fe5b60009182526020909120015460d1611b868860016121fb565b81548110611b9057fe5b906000526020600020015461292c90919063ffffffff16565b9350611bd060d08681548110611bbb57fe5b60009182526020909120015489906064612989565b9150611be98460d254846129899092919063ffffffff16565b9250611bf586846121fb565b9550611c4b565b611c0d8760d1611b868860016121fb565b9350611c1f60d08681548110611bbb57fe5b9150611c388460d254846129899092919063ffffffff16565b9250611c4486846121fb565b9550611cf3565b611ce1565b8660d18681548110611c5e57fe5b90600052602060002001541115611cd757611c9960d18681548110611c7f57fe5b90600052602060002001544261292c90919063ffffffff16565b9350611cab60d08681548110611bbb57fe5b9150611cc48460d254846129899092919063ffffffff16565b9250611cd086846121fb565b9550611ce1565b611c0d428861292c565b611cec85600161292c565b9450611b29565b505050505092915050565b6001600160a01b038316611d435760405162461bcd60e51b81526004018080602001828103825260258152602001806132e46025913960400191505060405180910390fd5b6001600160a01b038216611d885760405162461bcd60e51b81526004018080602001828103825260238152602001806131406023913960400191505060405180910390fd5b611d93838383612a42565b611dd0816040518060600160405280602681526020016131d6602691396001600160a01b0386166000908152603360205260409020549190611e5b565b6001600160a01b038085166000908152603360205260408082209390935590841681522054611dff90826121fb565b6001600160a01b0380841660008181526033602090815260409182902094909455805185815290519193928716927fddf252ad1be2c89b69c2b068fc378daa952ba7f163c4a11628f55a4df523b3ef92918290030190a3505050565b60008184841115611eea5760405162461bcd60e51b81526004018080602001828103825283818151815260200191508051906020019080838360005b83811015611eaf578181015183820152602001611e97565b50505050905090810190601f168015611edc5780820380516001836020036101000a031916815260200191505b509250505060405180910390fd5b505050900390565b6000611eff60c9836123e7565b8015611f2457506001600160a01b03828116600090815260cb60205260409020541615155b8015611f4957506001600160a01b03828116600090815260cc60205260409020541615155b611f80576040805162461bcd60e51b815260206004820152600360248201526229aa1b60e91b604482015290519081900360640190fd5b6001600160a01b03808316600081815260cb60209081526040808320548151630f5560db60e41b8152600481019590955290519294169263f5560db09260248083019392829003018186803b158015611fd857600080fd5b505afa158015611fec573d6000803e3d6000fd5b505050506040513d602081101561200257600080fd5b50516001600160a01b038416600090815260cd602052604090205490915061202b908290611ae6565b6001600160a01b038416600090815260cd60205260409020429055915081156120e15760cf546001600160a01b03848116600090815260cb602090815260408083205481516340c10f1960e01b8152908516600482015260248101889052905193909416936340c10f199360448083019491928390030190829087803b1580156120b457600080fd5b505af11580156120c8573d6000803e3d6000fd5b505050506040513d60208110156120de57600080fd5b50505b6040805183815242602082015281516001600160a01b038616927fe85a4e933dc860954bf36bb3668248d022d3047f9056c2c083e5e44a0f1517a0928290030190a250919050565b600082815260976020526040902061214190826123fc565b15610d755761214e6119f6565b6001600160a01b0316816001600160a01b0316837f2f8788117e7eff1d82e926ec794901d17c78024a50270940304540a733656f0d60405160405180910390a45050565b60008281526097602052604090206121aa9082612411565b15610d75576121b76119f6565b6001600160a01b0316816001600160a01b0316837ff6391f5c32d9c69d2a47ea670b442974b53935d1edc7fd64eb21e047a839171b60405160405180910390a45050565b600082820183811015610bf8576040805162461bcd60e51b815260206004820152601b60248201527f536166654d6174683a206164646974696f6e206f766572666c6f770000000000604482015290519081900360640190fd5b61225d611241565b6122a5576040805162461bcd60e51b815260206004820152601460248201527314185d5cd8589b194e881b9bdd081c185d5cd95960621b604482015290519081900360640190fd5b6065805460ff191690557f5db9ee0a495bf2e6ff9c91a7834c1ba4fdd244a5e8aa4e537bd38aeae4b073aa6122d86119f6565b604080516001600160a01b039092168252519081900360200190a1565b6001600160a01b038216612350576040805162461bcd60e51b815260206004820152601f60248201527f45524332303a206d696e7420746f20746865207a65726f206164647265737300604482015290519081900360640190fd5b61235c60008383612a42565b60355461236990826121fb565b6035556001600160a01b03821660009081526033602052604090205461238f90826121fb565b6001600160a01b03831660008181526033602090815260408083209490945583518581529351929391927fddf252ad1be2c89b69c2b068fc378daa952ba7f163c4a11628f55a4df523b3ef9281900390910190a35050565b6000610bf8836001600160a01b038416612c26565b6000610bf8836001600160a01b038416612c3e565b6000610bf8836001600160a01b038416612c88565b60008061243283610aa4565b6001600160a01b03808516600081815260d36020908152604080832042905560cf5481516340c10f1960e01b81526004810195909552602485018790529051959650909316936340c10f19936044808501949193918390030190829087803b15801561249d57600080fd5b505af11580156124b1573d6000803e3d6000fd5b505050506040513d60208110156124c757600080fd5b50506040805182815242602082015281516001600160a01b038616927f01ea729deb12fa912e813101b1da8b7c1500f7f26c912a612221a02af6a56220928290030190a292915050565b600061251c30612d4e565b15905090565b600054610100900460ff168061253b575061253b612511565b80612549575060005460ff16155b6125845760405162461bcd60e51b815260040180806020018281038252602e81526020018061322c602e913960400191505060405180910390fd5b600054610100900460ff161580156125af576000805460ff1961ff0019909116610100171660011790555b6125b7612d54565b6125c18383612df4565b80156125d3576000805461ff00191690555b505050565b600054610100900460ff16806125f157506125f1612511565b806125ff575060005460ff16155b61263a5760405162461bcd60e51b815260040180806020018281038252602e81526020018061322c602e913960400191505060405180910390fd5b600054610100900460ff16158015612665576000805460ff1961ff0019909116610100171660011790555b61266d612d54565b612675612d54565b8015612687576000805461ff00191690555b50565b600054610100900460ff16806126a357506126a3612511565b806126b1575060005460ff16155b6126ec5760405162461bcd60e51b815260040180806020018281038252602e81526020018061322c602e913960400191505060405180910390fd5b600054610100900460ff16158015612717576000805460ff1961ff0019909116610100171660011790555b61271f612d54565b612675612ecc565b60008261273657506000610a9e565b8282028284828161274357fe5b0414610bf85760405162461bcd60e51b815260040180806020018281038252602181526020018061325a6021913960400191505060405180910390fd5b6038805460ff191660ff92909216919091179055565b61279e611241565b156127e3576040805162461bcd60e51b815260206004820152601060248201526f14185d5cd8589b194e881c185d5cd95960821b604482015290519081900360640190fd5b6065805460ff191660011790557f62e78cea01bee320cd4e420270b5ea74000d11b0c9f74754ebdbfc544b05a2586122d86119f6565b6000610bf88383612f77565b6001600160a01b03821661286a5760405162461bcd60e51b81526004018080602001828103825260218152602001806132c36021913960400191505060405180910390fd5b61287682600083612a42565b6128b381604051806060016040528060228152602001613192602291396001600160a01b0385166000908152603360205260409020549190611e5b565b6001600160a01b0383166000908152603360205260409020556035546128d9908261292c565b6035556040805182815290516000916001600160a01b038516917fddf252ad1be2c89b69c2b068fc378daa952ba7f163c4a11628f55a4df523b3ef9181900360200190a35050565b6000610a9e82612fdb565b600082821115612983576040805162461bcd60e51b815260206004820152601e60248201527f536166654d6174683a207375627472616374696f6e206f766572666c6f770000604482015290519081900360640190fd5b50900390565b60008060006129988686612fdf565b91509150600084806129a657fe5b8688099050828111156129ba576001820391505b9182900391816129d8578483816129cd57fe5b049350505050610bf8565b848210612a2c576040805162461bcd60e51b815260206004820152601a60248201527f46756c6c4d6174683a2046554c4c4449565f4f564552464c4f57000000000000604482015290519081900360640190fd5b612a3783838761300c565b979650505050505050565b612a4a611241565b15612a82576040805162461bcd60e51b815260206004820152600360248201526253543760e81b604482015290519081900360640190fd5b612a8d8383836125d3565b6001600160a01b038316612ac457612aa660c9836123e7565b612ab957612ab382612426565b50612ac4565b612ac282611ef2565b505b6001600160a01b03831615801590612ae45750612ae260c9846123e7565b155b15612b74576001600160a01b038216612b0257612b0083612426565b505b6001600160a01b03821615801590612b225750612b2060c9836123e7565b155b15612b3c57612b3083612426565b50612b3a82612426565b505b6001600160a01b03821615801590612b5a5750612b5a60c9836123e7565b15612b7457612b6883612426565b50612b7282611ef2565b505b6001600160a01b03831615801590612b925750612b9260c9846123e7565b156125d3576001600160a01b038216612bb057612bae83611ef2565b505b6001600160a01b03821615801590612bd05750612bce60c9836123e7565b155b15612bea57612bde83611ef2565b50612be882612426565b505b6001600160a01b03821615801590612c085750612c0860c9836123e7565b156125d357612c1683611ef2565b50612c2082611ef2565b50505050565b60009081526001919091016020526040902054151590565b6000612c4a8383612c26565b612c8057508154600181810184556000848152602080822090930184905584548482528286019093526040902091909155610a9e565b506000610a9e565b60008181526001830160205260408120548015612d445783546000198083019190810190600090879083908110612cbb57fe5b9060005260206000200154905080876000018481548110612cd857fe5b600091825260208083209091019290925582815260018981019092526040902090840190558654879080612d0857fe5b60019003818190600052602060002001600090559055866001016000878152602001908152602001600020600090556001945050505050610a9e565b6000915050610a9e565b3b151590565b600054610100900460ff1680612d6d5750612d6d612511565b80612d7b575060005460ff16155b612db65760405162461bcd60e51b815260040180806020018281038252602e81526020018061322c602e913960400191505060405180910390fd5b600054610100900460ff16158015612675576000805460ff1961ff0019909116610100171660011790558015612687576000805461ff001916905550565b600054610100900460ff1680612e0d5750612e0d612511565b80612e1b575060005460ff16155b612e565760405162461bcd60e51b815260040180806020018281038252602e81526020018061322c602e913960400191505060405180910390fd5b600054610100900460ff16158015612e81576000805460ff1961ff0019909116610100171660011790555b8251612e9490603690602086019061307c565b508151612ea890603790602085019061307c565b506038805460ff1916601217905580156125d3576000805461ff0019169055505050565b600054610100900460ff1680612ee55750612ee5612511565b80612ef3575060005460ff16155b612f2e5760405162461bcd60e51b815260040180806020018281038252602e81526020018061322c602e913960400191505060405180910390fd5b600054610100900460ff16158015612f59576000805460ff1961ff0019909116610100171660011790555b6065805460ff191690558015612687576000805461ff001916905550565b81546000908210612fb95760405162461bcd60e51b815260040180806020018281038252602281526020018061311e6022913960400191505060405180910390fd5b826000018281548110612fc857fe5b9060005260206000200154905092915050565b5490565b6000808060001984860990508385029250828103915082811015613004576001820391505b509250929050565b6000818103821680838161301c57fe5b04925080858161302857fe5b04945080816000038161303757fe5b60028581038087028203028087028203028087028203028087028203028087028203028087028203029586029003909402930460010193909302939093010292915050565b828054600181600116156101000203166002900490600052602060002090601f0160209004810192826130b257600085556130f8565b82601f106130cb57805160ff19168380011785556130f8565b828001600101855582156130f8579182015b828111156130f85782518255916020019190600101906130dd565b50613104929150613108565b5090565b5b80821115613104576000815560010161310956fe456e756d657261626c655365743a20696e646578206f7574206f6620626f756e647345524332303a207472616e7366657220746f20746865207a65726f2061646472657373416363657373436f6e74726f6c3a2073656e646572206d75737420626520616e2061646d696e20746f206772616e7445524332303a206275726e20616d6f756e7420657863656564732062616c616e636545524332303a20617070726f766520746f20746865207a65726f206164647265737345524332303a207472616e7366657220616d6f756e7420657863656564732062616c616e6365416363657373436f6e74726f6c3a2073656e646572206d75737420626520616e2061646d696e20746f207265766f6b65496e697469616c697a61626c653a20636f6e747261637420697320616c726561647920696e697469616c697a6564536166654d6174683a206d756c7469706c69636174696f6e206f766572666c6f7745524332303a207472616e7366657220616d6f756e74206578636565647320616c6c6f77616e636565d7a28e3265b37a6474929f336521b332c1681b933f6cb9f3376673440d862a45524332303a206275726e2066726f6d20746865207a65726f206164647265737345524332303a207472616e736665722066726f6d20746865207a65726f206164647265737345524332303a20617070726f76652066726f6d20746865207a65726f206164647265737345524332303a2064656372656173656420616c6c6f77616e63652062656c6f77207a65726f416363657373436f6e74726f6c3a2063616e206f6e6c792072656e6f756e636520726f6c657320666f722073656c66a264697066735822122055f7d1961b5005e03d82ec8843c68f98645cc91bed53c13698994779754c347864736f6c63430007060033",
  "immutableReferences": {},
  "source": "// SPDX-License-Identifier: UNLICENSED\npragma solidity >=0.7.0;\n\nimport \"@openzeppelin/contracts-upgradeable/token/ERC20/ERC20Upgradeable.sol\";\nimport \"@openzeppelin/contracts-upgradeable/math/SafeMathUpgradeable.sol\";\nimport \"@openzeppelin/contracts-upgradeable/utils/PausableUpgradeable.sol\";\nimport \"@openzeppelin/contracts-upgradeable/utils/EnumerableSetUpgradeable.sol\";\nimport \"@openzeppelin/contracts-upgradeable/access/AccessControlUpgradeable.sol\";\nimport \"./interfaces/ISTokensV2.sol\";\nimport \"./interfaces/IUTokensV2.sol\";\nimport \"./interfaces/IHolderV2.sol\";\nimport \"./libraries/FullMath.sol\";\n\ncontract STokensXPRT is\n\tERC20Upgradeable,\n\tISTokensV2,\n\tPausableUpgradeable,\n\tAccessControlUpgradeable\n{\n\tusing SafeMathUpgradeable for uint256;\n\tusing FullMath for uint256;\n\tusing EnumerableSetUpgradeable for EnumerableSetUpgradeable.AddressSet;\n\n\t// constants defining access control ROLES\n\tbytes32 public constant PAUSER_ROLE = keccak256(\"PAUSER_ROLE\");\n\n\t// variables pertaining to holder logic for whitelisted addresses & StakeLP\n\t// deposit contract address for STokens in a DeFi product\n\tEnumerableSetUpgradeable.AddressSet private _whitelistedAddresses;\n\t// Holder contract address for this whitelisted contract. Many can point to one Holder contract\n\tmapping(address => address) public _holderContractAddress;\n\t// LP Token contract address which might be different from whitelisted contract\n\tmapping(address => address) public _lpContractAddress;\n\t// Index of whitelisted address in the Enumerable Set\n\t// mapping(address => uint256) public _whitelistedAddressIndex;\n\t// last timestamp when the holder reward calculation was performed for updating reward pool\n\tmapping(address => uint256) public _lastHolderRewardTimestamp;\n\n\t// variables capturing data of other contracts in the product\n\taddress public _liquidStakingContract;\n\t// address public _stakeLPCoreContract;\n\tIUTokensV2 public _uTokens;\n\n\t// variables pertaining to moving reward rate logic\n\tuint256[] private _rewardRate;\n\tuint256[] private _lastMovingRewardTimestamp;\n\tuint256 public _valueDivisor;\n\tmapping(address => uint256) private _lastUserRewardTimestamp;\n\n\t// variable pertaining to contract upgrades versioning\n\tuint256 public _version;\n\n\t/**\n\t * @dev Constructor for initializing the SToken contract.\n\t * @param uaddress - address of the UToken contract.\n\t * @param pauserAddress - address of the pauser admin.\n\t * @param rewardRate - set to rewardRate * 10^-5\n\t * @param valueDivisor - valueDivisor set to 10^9.\n\t */\n\tfunction initialize(\n\t\tstring calldata tokenName,\n\t\tstring calldata tokenSymbol,\n\t\taddress uaddress,\n\t\taddress pauserAddress,\n\t\tuint256 rewardRate,\n\t\tuint256 valueDivisor\n\t) public virtual initializer {\n\t\t__ERC20_init(tokenName, tokenSymbol);\n\t\t__AccessControl_init();\n\t\t__Pausable_init();\n\t\t_setupRole(DEFAULT_ADMIN_ROLE, _msgSender());\n\t\t_setupRole(PAUSER_ROLE, pauserAddress);\n\t\tsetUTokensContract(uaddress);\n\t\t_valueDivisor = valueDivisor;\n\t\trequire(rewardRate <= _valueDivisor.mul(100), \"ST1\");\n\t\t_rewardRate.push(rewardRate);\n\t\t_lastMovingRewardTimestamp.push(block.timestamp);\n\t\t_setupDecimals(6);\n\t}\n\n\t/**\n\t * @dev Calculate pending rewards for the provided 'address'. The rate is the moving reward rate.\n\t * @param whitelistedAddress: whitelisted contract address\n\t */\n\tfunction isContractWhitelisted(address whitelistedAddress)\n\t\tpublic\n\t\tview\n\t\tvirtual\n\t\toverride\n\t\treturns (bool result)\n\t{\n\t\tresult = _whitelistedAddresses.contains(whitelistedAddress);\n\t\treturn result;\n\t}\n\n\t/**\n\t * @dev Calculate pending rewards for the provided 'address'. The rate is the moving reward rate.\n\t * @param whitelistedAddress: contract address\n\t */\n\tfunction getHolderData(address whitelistedAddress)\n\t\tpublic\n\t\tview\n\t\tvirtual\n\t\toverride\n\t\treturns (\n\t\t\taddress holderAddress,\n\t\t\taddress lpAddress,\n\t\t\taddress uTokenAddress,\n\t\t\tuint256 lastHolderRewardTimestamp\n\t\t)\n\t{\n\t\t// Get the time in number of blocks\n\t\tholderAddress = _holderContractAddress[whitelistedAddress];\n\t\tlpAddress = _lpContractAddress[whitelistedAddress];\n\t\tlastHolderRewardTimestamp = _lastHolderRewardTimestamp[\n\t\t\twhitelistedAddress\n\t\t];\n\t\tuTokenAddress = address(_uTokens);\n\t}\n\n\t/*\n\t * @dev set reward rate called by admin\n\t * @param rewardRate: reward rate\n\t *\n\t *\n\t * Requirements:\n\t *\n\t * - `rate` cannot be less than or equal to zero.\n\t *\n\t */\n\tfunction setRewardRate(uint256 rewardRate)\n\t\tpublic\n\t\tvirtual\n\t\toverride\n\t\treturns (bool success)\n\t{\n\t\t// range checks for rewardRate. Since rewardRate cannot be more than 100%, the max cap\n\t\t// is _valueDivisor * 100, which then brings the fees to 100 (percentage)\n\t\trequire(rewardRate <= _valueDivisor.mul(100), \"ST17\");\n\t\trequire(hasRole(DEFAULT_ADMIN_ROLE, _msgSender()), \"ST2\");\n\t\t_rewardRate.push(rewardRate);\n\t\t_lastMovingRewardTimestamp.push(block.timestamp);\n\t\temit SetRewardRate(rewardRate);\n\n\t\treturn true;\n\t}\n\n\t/**\n\t * @dev get reward rate and value divisor\n\t */\n\tfunction getRewardRate()\n\t\tpublic\n\t\tview\n\t\tvirtual\n\t\toverride\n\t\treturns (uint256[] memory rewardRate, uint256 valueDivisor)\n\t{\n\t\trewardRate = _rewardRate;\n\t\tvalueDivisor = _valueDivisor;\n\t}\n\n\t/**\n\t * @dev get rewards till timestamp\n\t * @param to: account address\n\t */\n\tfunction getLastUserRewardTimestamp(address to)\n\t\tpublic\n\t\tview\n\t\tvirtual\n\t\toverride\n\t\treturns (uint256 lastUserRewardTimestamp)\n\t{\n\t\tlastUserRewardTimestamp = _lastUserRewardTimestamp[to];\n\t}\n\n\t/**\n\t * @dev Mint new stokens for the provided 'address' and 'tokens'\n\t * @param to: account address, tokens: number of tokens\n\t *\n\t * Emits a {MintTokens} event with 'to' set to address and 'tokens' set to amount of tokens.\n\t *\n\t * Requirements:\n\t *\n\t * - `amount` cannot be less than zero.\n\t *\n\t */\n\tfunction mint(address to, uint256 tokens)\n\t\tpublic\n\t\tvirtual\n\t\toverride\n\t\treturns (bool)\n\t{\n\t\trequire(_msgSender() == _liquidStakingContract, \"ST3\");\n\t\t_mint(to, tokens);\n\t\treturn true;\n\t}\n\n\t/*\n\t * @dev Burn stokens for the provided 'address' and 'tokens'\n\t * @param to: account address, tokens: number of tokens\n\t *\n\t * Emits a {BurnTokens} event with 'to' set to address and 'tokens' set to amount of tokens.\n\t *\n\t * Requirements:\n\t *\n\t * - `amount` cannot be less than zero.\n\t *\n\t */\n\tfunction burn(address from, uint256 tokens)\n\t\tpublic\n\t\tvirtual\n\t\toverride\n\t\treturns (bool)\n\t{\n\t\trequire(_msgSender() == _liquidStakingContract, \"ST4\");\n\t\t_burn(from, tokens);\n\t\treturn true;\n\t}\n\n\t/**\n\t * @dev Calculate pending rewards from the provided 'principal' & 'lastRewardTimestamp'. The rate is the moving reward rate.\n\t * @param principal: principal amount\n\t * @param lastRewardTimestamp: timestamp of last reward calculation performed\n\t */\n\tfunction _calculatePendingRewards(\n\t\tuint256 principal,\n\t\tuint256 lastRewardTimestamp\n\t) internal view returns (uint256 pendingRewards) {\n\t\tuint256 _index;\n\t\tuint256 _rewardBlocks;\n\t\tuint256 _simpleInterestOfInterval;\n\t\tuint256 _temp;\n\t\t// return 0 if principal or timeperiod is zero\n\t\tif (principal == 0 || block.timestamp.sub(lastRewardTimestamp) == 0)\n\t\t\treturn 0;\n\t\t// calculate rewards for each interval period between rewardRate changes\n\t\tuint256 _lastMovingRewardLength = _lastMovingRewardTimestamp.length.sub(\n\t\t\t1\n\t\t);\n\t\tfor (\n\t\t\t_index = _lastMovingRewardLength;\n\t\t\t_index >= 0;\n\t\t\t_index = _index.sub(1)\n\t\t) {\n\t\t\t// logic applies for all indexes of array except last index\n\t\t\tif (_index < _lastMovingRewardTimestamp.length.sub(1)) {\n\t\t\t\tif (_lastMovingRewardTimestamp[_index] > lastRewardTimestamp) {\n\t\t\t\t\t_rewardBlocks = (_lastMovingRewardTimestamp[_index.add(1)])\n\t\t\t\t\t\t.sub(_lastMovingRewardTimestamp[_index]);\n\t\t\t\t\t_temp = principal.mulDiv(_rewardRate[_index], 100);\n\t\t\t\t\t_simpleInterestOfInterval = _temp.mulDiv(\n\t\t\t\t\t\t_rewardBlocks,\n\t\t\t\t\t\t_valueDivisor\n\t\t\t\t\t);\n\t\t\t\t\tpendingRewards = pendingRewards.add(\n\t\t\t\t\t\t_simpleInterestOfInterval\n\t\t\t\t\t);\n\t\t\t\t} else {\n\t\t\t\t\t_rewardBlocks = (_lastMovingRewardTimestamp[_index.add(1)])\n\t\t\t\t\t\t.sub(lastRewardTimestamp);\n\t\t\t\t\t_temp = principal.mulDiv(_rewardRate[_index], 100);\n\t\t\t\t\t_simpleInterestOfInterval = _temp.mulDiv(\n\t\t\t\t\t\t_rewardBlocks,\n\t\t\t\t\t\t_valueDivisor\n\t\t\t\t\t);\n\t\t\t\t\tpendingRewards = pendingRewards.add(\n\t\t\t\t\t\t_simpleInterestOfInterval\n\t\t\t\t\t);\n\t\t\t\t\tbreak;\n\t\t\t\t}\n\t\t\t}\n\t\t\t// logic applies only for the last index of array\n\t\t\telse {\n\t\t\t\tif (_lastMovingRewardTimestamp[_index] > lastRewardTimestamp) {\n\t\t\t\t\t_rewardBlocks = (block.timestamp).sub(\n\t\t\t\t\t\t_lastMovingRewardTimestamp[_index]\n\t\t\t\t\t);\n\t\t\t\t\t_temp = principal.mulDiv(_rewardRate[_index], 100);\n\t\t\t\t\t_simpleInterestOfInterval = _temp.mulDiv(\n\t\t\t\t\t\t_rewardBlocks,\n\t\t\t\t\t\t_valueDivisor\n\t\t\t\t\t);\n\t\t\t\t\tpendingRewards = pendingRewards.add(\n\t\t\t\t\t\t_simpleInterestOfInterval\n\t\t\t\t\t);\n\t\t\t\t} else {\n\t\t\t\t\t_rewardBlocks = (block.timestamp).sub(lastRewardTimestamp);\n\t\t\t\t\t_temp = principal.mulDiv(_rewardRate[_index], 100);\n\t\t\t\t\t_simpleInterestOfInterval = _temp.mulDiv(\n\t\t\t\t\t\t_rewardBlocks,\n\t\t\t\t\t\t_valueDivisor\n\t\t\t\t\t);\n\t\t\t\t\tpendingRewards = pendingRewards.add(\n\t\t\t\t\t\t_simpleInterestOfInterval\n\t\t\t\t\t);\n\t\t\t\t\tbreak;\n\t\t\t\t}\n\t\t\t}\n\t\t}\n\t\treturn pendingRewards;\n\t}\n\n\t/**\n\t * @dev Calculate pending rewards for the provided 'address'. The rate is the moving reward rate.\n\t * @param to: account address\n\t */\n\tfunction calculatePendingRewards(address to)\n\t\tpublic\n\t\tview\n\t\tvirtual\n\t\toverride\n\t\treturns (uint256 pendingRewards)\n\t{\n\t\t// Get the time in number of blocks\n\t\tuint256 _lastRewardTimestamp = _lastUserRewardTimestamp[to];\n\t\t// Get the balance of the account\n\t\tuint256 _balance = balanceOf(to);\n\t\t// calculate pending rewards using _calculatePendingRewards\n\t\tpendingRewards = _calculatePendingRewards(\n\t\t\t_balance,\n\t\t\t_lastRewardTimestamp\n\t\t);\n\n\t\treturn pendingRewards;\n\t}\n\n\t/**\n\t * @dev Calculate rewards for the provided 'address'\n\t * @param to: account address\n\t */\n\tfunction _calculateRewards(address to) internal returns (uint256) {\n\t\t// Calculate the rewards pending\n\t\tuint256 _reward = calculatePendingRewards(to);\n\n\t\t// Set the new stakedBlock to the current,\n\t\t// as per Checks-Effects-Interactions pattern\n\t\t_lastUserRewardTimestamp[to] = block.timestamp;\n\n\t\t// mint uTokens only if reward is greater than zero\n\t\t/* if (_reward > 0) {\n\t\t\t// Mint new uTokens and send to the callers account\n\t\t\t_uTokens.mint(to, _reward);\n\t\t} */\n\n\t\t// mint uTokens even when _reward value is zero\n\t\t_uTokens.mint(to, _reward);\n\n\t\temit CalculateRewards(to, _reward, block.timestamp);\n\t\treturn _reward;\n\t}\n\n\t/**\n\t * @dev Calculate rewards for the provided 'address'\n\t * @param to: account address\n\t *\n\t * Emits a {TriggeredCalculateRewards} event with 'to' set to address, 'reward' set to amount of tokens and 'timestamp'\n\t *\n\t */\n\tfunction calculateRewards(address to)\n\t\tpublic\n\t\tvirtual\n\t\toverride\n\t\twhenNotPaused\n\t\treturns (uint256 reward)\n\t{\n\t\trequire(to == _msgSender(), \"ST5\");\n\t\treward = _calculateRewards(to);\n\t\temit TriggeredCalculateRewards(to, reward, block.timestamp);\n\t\treturn reward;\n\t}\n\n\t/**\n\t * @dev Calculate rewards for the provided 'holder address'\n\t * @param to: holder address\n\t */\n\tfunction _calculateHolderRewards(address to)\n\t\tinternal\n\t\treturns (uint256 rewards)\n\t{\n\t\t// holderContract and lpContract (lp token contract) need to be validated together because\n\t\t// it might not be practical to setup holder to collect reward pool but not StakeLP to distribute reward\n\t\t// since the reward distribution calculation starts the minute reward pool is created\n\t\trequire(\n\t\t\t_whitelistedAddresses.contains(to) &&\n\t\t\t\t_holderContractAddress[to] != address(0) &&\n\t\t\t\t_lpContractAddress[to] != address(0),\n\t\t\t\"ST6\"\n\t\t);\n\t\tuint256 _sTokenSupply = IHolderV2(_holderContractAddress[to])\n\t\t\t.getSTokenSupply(to);\n\n\t\t// calculate the reward applying the moving reward rate\n\t\trewards = _calculatePendingRewards(\n\t\t\t_sTokenSupply,\n\t\t\t_lastHolderRewardTimestamp[to]\n\t\t);\n\n\t\t// update the last timestamp of reward pool to the current time as per Checks-Effects-Interactions pattern\n\t\t_lastHolderRewardTimestamp[to] = block.timestamp;\n\n\t\t// Mint new uTokens and send to the holder contract account as updated reward pool\n\t\tif (rewards > 0) {\n\t\t\t_uTokens.mint(_holderContractAddress[to], rewards);\n\t\t}\n\n\t\temit CalculateHolderRewards(to, rewards, block.timestamp);\n\t\treturn rewards;\n\t}\n\n\t/**\n\t * @dev Calculate rewards for the provided 'address'\n\t * @param to: account address\n\t *\n\t * Emits a {TriggeredCalculateRewards} event with 'to' set to address, 'reward' set to amount of tokens and 'timestamp'\n\t *\n\t */\n\tfunction calculateHolderRewards(address to)\n\t\tpublic\n\t\tvirtual\n\t\toverride\n\t\twhenNotPaused\n\t\treturns (uint256 rewards)\n\t{\n\t\trequire(to != address(0) && to != address(0), \"ST16\");\n\t\trewards = _calculateHolderRewards(to);\n\t\temit TriggeredCalculateHolderRewards(to, rewards, block.timestamp);\n\t\treturn rewards;\n\t}\n\n\t/**\n\t * @dev Hook that is called before any transfer of tokens. This includes\n\t * minting and burning.\n\t *\n\t * Calling conditions:\n\t *\n\t * - when `from` and `to` are both non-zero, `amount` of ``from``'s tokens\n\t * will be to transferred to `to`.\n\t * - when `from` is zero, `amount` tokens will be minted for `to`.\n\t * - when `to` is zero, `amount` of ``from``'s tokens will be burned.\n\t * - `from` and `to` are never both zero.\n\t *\n\t */\n\tfunction _beforeTokenTransfer(\n\t\taddress from,\n\t\taddress to,\n\t\tuint256 amount\n\t) internal virtual override {\n\t\trequire(!paused(), \"ST7\");\n\t\tsuper._beforeTokenTransfer(from, to, amount);\n\t\t// uint256 _sTokenSupply;\n\t\t// uint256 _timePeriod;\n\t\tif (from == address(0)) {\n\t\t\t// cannot have a scenario of transfer from address(0) to address(0)\n\t\t\t// if(to == address(0)){}\n\n\t\t\tif (!_whitelistedAddresses.contains(to)) {\n\t\t\t\t_calculateRewards(to);\n\t\t\t} else {\n\t\t\t\t// IHolderV2(_holderContractAddress[to]).calculateHolderRewards(to, from, _rewardRate, _lastMovingRewardTimestamp);\n\t\t\t\t_calculateHolderRewards(to);\n\t\t\t}\n\t\t}\n\n\t\tif (from != address(0) && !_whitelistedAddresses.contains(from)) {\n\t\t\tif (to == address(0)) {\n\t\t\t\t_calculateRewards(from);\n\t\t\t}\n\n\t\t\tif (to != address(0) && !_whitelistedAddresses.contains(to)) {\n\t\t\t\t_calculateRewards(from);\n\t\t\t\t_calculateRewards(to);\n\t\t\t}\n\n\t\t\tif (to != address(0) && _whitelistedAddresses.contains(to)) {\n\t\t\t\t_calculateRewards(from);\n\t\t\t\t// IHolderV2(_holderContractAddress[to]).calculateHolderRewards(to, from, _rewardRate, _lastMovingRewardTimestamp);\n\t\t\t\t_calculateHolderRewards(to);\n\t\t\t}\n\t\t}\n\n\t\tif (from != address(0) && _whitelistedAddresses.contains(from)) {\n\t\t\tif (to == address(0)) {\n\t\t\t\t// IHolderV2(_holderContractAddress[to]).calculateHolderRewards(from, to, _rewardRate, _lastMovingRewardTimestamp);\n\t\t\t\t_calculateHolderRewards(from);\n\t\t\t}\n\n\t\t\tif (to != address(0) && !_whitelistedAddresses.contains(to)) {\n\t\t\t\t// IHolderV2(_holderContractAddress[to]).calculateHolderRewards(from, to, _rewardRate, _lastMovingRewardTimestamp);\n\t\t\t\t_calculateHolderRewards(from);\n\t\t\t\t_calculateRewards(to);\n\t\t\t}\n\n\t\t\tif (to != address(0) && _whitelistedAddresses.contains(to)) {\n\t\t\t\t// IHolderV2(_holderContractAddress[to]).calculateHolderRewards(from, address(0), _rewardRate, _lastMovingRewardTimestamp);\n\t\t\t\t_calculateHolderRewards(from);\n\n\t\t\t\t// IHolderV2(_holderContractAddress[to]).calculateHolderRewards(to, address(0), _rewardRate, _lastMovingRewardTimestamp);\n\t\t\t\t_calculateHolderRewards(to);\n\t\t\t}\n\t\t}\n\t}\n\n\t/*\n\t * @dev Set 'whitelisted address', performed by admin only\n\t * @param whitelistedAddress: contract address of the whitelisted party\n\t *\n\t * Emits a {setWhitelistedAddress} event\n\t *\n\t */\n\tfunction setWhitelistedAddress(\n\t\taddress whitelistedAddress,\n\t\taddress holderContractAddress,\n\t\taddress lpContractAddress\n\t) public virtual override returns (bool success) {\n\t\trequire(hasRole(DEFAULT_ADMIN_ROLE, _msgSender()), \"ST8\");\n\t\t// lpTokenERC20ContractAddress or sTokenReserveContractAddress can be address(0) but not whitelistedAddress\n\t\trequire(whitelistedAddress != address(0), \"ST9\");\n\t\t// add the whitelistedAddress if it isn't already available\n\t\tif (!_whitelistedAddresses.contains(whitelistedAddress))\n\t\t\t_whitelistedAddresses.add(whitelistedAddress);\n\t\t// add the contract addresses to holder mapping variable\n\t\t_holderContractAddress[whitelistedAddress] = holderContractAddress;\n\t\t_lpContractAddress[whitelistedAddress] = lpContractAddress;\n\n\t\temit SetWhitelistedAddress(\n\t\t\twhitelistedAddress,\n\t\t\tholderContractAddress,\n\t\t\tlpContractAddress,\n\t\t\tblock.timestamp\n\t\t);\n\t\tsuccess = true;\n\t\treturn success;\n\t}\n\n\t/*\n\t * @dev remove 'whitelisted address', performed by admin only\n\t * @param whitelistedAddress: contract address of the whitelisted party\n\t * @param holderContractAddress: holder contract address of the corresponding whitelistedAddress\n\t *\n\t * Emits a {RemoveWhitelistedAddress} event\n\t *\n\t */\n\tfunction removeWhitelistedAddress(address whitelistedAddress)\n\t\tpublic\n\t\tvirtual\n\t\toverride\n\t\treturns (bool success)\n\t{\n\t\trequire(hasRole(DEFAULT_ADMIN_ROLE, _msgSender()), \"ST10\");\n\t\trequire(whitelistedAddress != address(0), \"ST11\");\n\t\t// remove whitelistedAddress from the list\n\t\t_whitelistedAddresses.remove(whitelistedAddress);\n\t\taddress _holderContractAddressLocal = _holderContractAddress[\n\t\t\twhitelistedAddress\n\t\t];\n\t\taddress _lpContractAddressLocal = _lpContractAddress[\n\t\t\twhitelistedAddress\n\t\t];\n\n\t\t// delete holder contract values\n\t\tdelete _holderContractAddress[whitelistedAddress];\n\t\tdelete _lpContractAddress[whitelistedAddress];\n\n\t\temit RemoveWhitelistedAddress(\n\t\t\twhitelistedAddress,\n\t\t\t_holderContractAddressLocal,\n\t\t\t_lpContractAddressLocal,\n\t\t\tblock.timestamp\n\t\t);\n\t\tsuccess = true;\n\t\treturn success;\n\t}\n\n\t/*\n\t * @dev Set 'contract address', called from constructor\n\t * @param uTokenContract: utoken contract address\n\t *\n\t * Emits a {SetUTokensContract} event with '_contract' set to the utoken contract address.\n\t *\n\t */\n\tfunction setUTokensContract(address uTokenContract)\n\t\tpublic\n\t\tvirtual\n\t\toverride\n\t{\n\t\trequire(hasRole(DEFAULT_ADMIN_ROLE, _msgSender()), \"ST12\");\n\t\t_uTokens = IUTokensV2(uTokenContract);\n\t\temit SetUTokensContract(uTokenContract);\n\t}\n\n\t/*\n\t * @dev Set 'contract address', called from constructor\n\t * @param liquidStakingContract: liquidStaking contract address\n\t *\n\t * Emits a {SetLiquidStakingContract} event with '_contract' set to the liquidStaking contract address.\n\t *\n\t */\n\tfunction setLiquidStakingContract(address liquidStakingContract)\n\t\tpublic\n\t\tvirtual\n\t\toverride\n\t{\n\t\trequire(hasRole(DEFAULT_ADMIN_ROLE, _msgSender()), \"ST13\");\n\t\t_liquidStakingContract = liquidStakingContract;\n\t\temit SetLiquidStakingContract(liquidStakingContract);\n\t}\n\n\t/**\n\t * @dev Triggers stopped state.\n\t *\n\t * Requirements:\n\t *\n\t * - The contract must not be paused.\n\t */\n\tfunction pause() public virtual override returns (bool success) {\n\t\trequire(hasRole(PAUSER_ROLE, _msgSender()), \"ST14\");\n\t\t_pause();\n\t\treturn true;\n\t}\n\n\t/**\n\t * @dev Returns to normal state.\n\t *\n\t * Requirements:\n\t *\n\t * - The contract must be paused.\n\t */\n\tfunction unpause() public virtual override returns (bool success) {\n\t\trequire(hasRole(PAUSER_ROLE, _msgSender()), \"ST15\");\n\t\t_unpause();\n\t\treturn true;\n\t}\n}\n",
  "sourcePath": "C:\\Users\\Kamlesh\\Persistence\\pStake\\codebase\\pStake-smartContracts\\contracts\\STokensXPRT.sol",
  "compiler": {
    "name": "solc",
    "version": "0.7.6+commit.7338295f.Emscripten.clang"
  },
  "schemaVersion": "3.4.3",
  "updatedAt": "2021-09-15T11:40:28.010Z",
  "devdoc": {
    "kind": "dev",
    "methods": {
      "allowance(address,address)": {
        "details": "See {IERC20-allowance}."
      },
      "approve(address,uint256)": {
        "details": "See {IERC20-approve}. Requirements: - `spender` cannot be the zero address."
      },
      "balanceOf(address)": {
        "details": "See {IERC20-balanceOf}."
      },
      "burn(address,uint256)": {
        "details": "Burns `amount` tokens to the caller's address `from`. Returns a boolean value indicating whether the operation succeeded. Emits a {Transfer} event."
      },
      "calculateHolderRewards(address)": {
        "details": "Calculate rewards for the provided 'address'",
        "params": {
          "to": ": account address Emits a {TriggeredCalculateRewards} event with 'to' set to address, 'reward' set to amount of tokens and 'timestamp'"
        }
      },
      "calculatePendingRewards(address)": {
        "details": "Calculate pending rewards for the provided 'address'. The rate is the moving reward rate.",
        "params": {
          "to": ": account address"
        }
      },
      "calculateRewards(address)": {
        "details": "Calculate rewards for the provided 'address'",
        "params": {
          "to": ": account address Emits a {TriggeredCalculateRewards} event with 'to' set to address, 'reward' set to amount of tokens and 'timestamp'"
        }
      },
      "decimals()": {
        "details": "Returns the number of decimals used to get its user representation. For example, if `decimals` equals `2`, a balance of `505` tokens should be displayed to a user as `5,05` (`505 / 10 ** 2`). Tokens usually opt for a value of 18, imitating the relationship between Ether and Wei. This is the value {ERC20} uses, unless {_setupDecimals} is called. NOTE: This information is only used for _display_ purposes: it in no way affects any of the arithmetic of the contract, including {IERC20-balanceOf} and {IERC20-transfer}."
      },
      "decreaseAllowance(address,uint256)": {
        "details": "Atomically decreases the allowance granted to `spender` by the caller. This is an alternative to {approve} that can be used as a mitigation for problems described in {IERC20-approve}. Emits an {Approval} event indicating the updated allowance. Requirements: - `spender` cannot be the zero address. - `spender` must have allowance for the caller of at least `subtractedValue`."
      },
      "getHolderData(address)": {
        "details": "Calculate pending rewards for the provided 'address'. The rate is the moving reward rate.",
        "params": {
          "whitelistedAddress": ": contract address"
        }
      },
      "getLastUserRewardTimestamp(address)": {
        "details": "get rewards till timestamp",
        "params": {
          "to": ": account address"
        }
      },
      "getRewardRate()": {
        "details": "get reward rate and value divisor"
      },
      "getRoleAdmin(bytes32)": {
        "details": "Returns the admin role that controls `role`. See {grantRole} and {revokeRole}. To change a role's admin, use {_setRoleAdmin}."
      },
      "getRoleMember(bytes32,uint256)": {
        "details": "Returns one of the accounts that have `role`. `index` must be a value between 0 and {getRoleMemberCount}, non-inclusive. Role bearers are not sorted in any particular way, and their ordering may change at any point. WARNING: When using {getRoleMember} and {getRoleMemberCount}, make sure you perform all queries on the same block. See the following https://forum.openzeppelin.com/t/iterating-over-elements-on-enumerableset-in-openzeppelin-contracts/2296[forum post] for more information."
      },
      "getRoleMemberCount(bytes32)": {
        "details": "Returns the number of accounts that have `role`. Can be used together with {getRoleMember} to enumerate all bearers of a role."
      },
      "grantRole(bytes32,address)": {
        "details": "Grants `role` to `account`. If `account` had not been already granted `role`, emits a {RoleGranted} event. Requirements: - the caller must have ``role``'s admin role."
      },
      "hasRole(bytes32,address)": {
        "details": "Returns `true` if `account` has been granted `role`."
      },
      "increaseAllowance(address,uint256)": {
        "details": "Atomically increases the allowance granted to `spender` by the caller. This is an alternative to {approve} that can be used as a mitigation for problems described in {IERC20-approve}. Emits an {Approval} event indicating the updated allowance. Requirements: - `spender` cannot be the zero address."
      },
      "initialize(string,string,address,address,uint256,uint256)": {
        "details": "Constructor for initializing the SToken contract.",
        "params": {
          "pauserAddress": "- address of the pauser admin.",
          "rewardRate": "- set to rewardRate * 10^-5",
          "uaddress": "- address of the UToken contract.",
          "valueDivisor": "- valueDivisor set to 10^9."
        }
      },
      "isContractWhitelisted(address)": {
        "details": "Calculate pending rewards for the provided 'address'. The rate is the moving reward rate.",
        "params": {
          "whitelistedAddress": ": whitelisted contract address"
        }
      },
      "mint(address,uint256)": {
        "details": "Mint new stokens for the provided 'address' and 'tokens'",
        "params": {
          "to": ": account address, tokens: number of tokens Emits a {MintTokens} event with 'to' set to address and 'tokens' set to amount of tokens. Requirements: - `amount` cannot be less than zero."
        }
      },
      "name()": {
        "details": "Returns the name of the token."
      },
      "pause()": {
        "details": "Triggers stopped state. Requirements: - The contract must not be paused."
      },
      "paused()": {
        "details": "Returns true if the contract is paused, and false otherwise."
      },
      "renounceRole(bytes32,address)": {
        "details": "Revokes `role` from the calling account. Roles are often managed via {grantRole} and {revokeRole}: this function's purpose is to provide a mechanism for accounts to lose their privileges if they are compromised (such as when a trusted device is misplaced). If the calling account had been granted `role`, emits a {RoleRevoked} event. Requirements: - the caller must be `account`."
      },
      "revokeRole(bytes32,address)": {
        "details": "Revokes `role` from `account`. If `account` had been granted `role`, emits a {RoleRevoked} event. Requirements: - the caller must have ``role``'s admin role."
      },
      "setLiquidStakingContract(address)": {
        "details": "Set LiquidStaking smart contract."
      },
      "setRewardRate(uint256)": {
        "details": "Sets `reward rate`. Returns a boolean value indicating whether the operation succeeded."
      },
      "setUTokensContract(address)": {
        "details": "Set UTokens smart contract. Emits a {SetContract} event."
      },
      "setWhitelistedAddress(address,address,address)": {
        "details": "Calculates rewards `amount` tokens to the caller's address `to`. Returns a boolean value indicating whether the operation succeeded. Emits a {TriggeredCalculateRewards} event."
      },
      "symbol()": {
        "details": "Returns the symbol of the token, usually a shorter version of the name."
      },
      "totalSupply()": {
        "details": "See {IERC20-totalSupply}."
      },
      "transfer(address,uint256)": {
        "details": "See {IERC20-transfer}. Requirements: - `recipient` cannot be the zero address. - the caller must have a balance of at least `amount`."
      },
      "transferFrom(address,address,uint256)": {
        "details": "See {IERC20-transferFrom}. Emits an {Approval} event indicating the updated allowance. This is not required by the EIP. See the note at the beginning of {ERC20}. Requirements: - `sender` and `recipient` cannot be the zero address. - `sender` must have a balance of at least `amount`. - the caller must have allowance for ``sender``'s tokens of at least `amount`."
      },
      "unpause()": {
        "details": "Returns to normal state. Requirements: - The contract must be paused."
      }
    },
    "version": 1
  },
  "userdoc": {
    "kind": "user",
    "methods": {},
    "version": 1
  }
}