{
  "contractName": "STokensV4",
  "abi": [
    {
      "anonymous": false,
      "inputs": [
        {
          "indexed": true,
          "internalType": "address",
          "name": "owner",
          "type": "address"
        },
        {
          "indexed": true,
          "internalType": "address",
          "name": "spender",
          "type": "address"
        },
        {
          "indexed": false,
          "internalType": "uint256",
          "name": "value",
          "type": "uint256"
        }
      ],
      "name": "Approval",
      "type": "event"
    },
    {
      "anonymous": false,
      "inputs": [
        {
          "indexed": true,
          "internalType": "address",
          "name": "accountAddress",
          "type": "address"
        },
        {
          "indexed": true,
          "internalType": "address",
          "name": "sTokenAddress",
          "type": "address"
        },
        {
          "indexed": true,
          "internalType": "uint256",
          "name": "tokens",
          "type": "uint256"
        },
        {
          "indexed": false,
          "internalType": "uint256",
          "name": "timestamp",
          "type": "uint256"
        }
      ],
      "name": "CalculateHolderRewards",
      "type": "event"
    },
    {
      "anonymous": false,
      "inputs": [
        {
          "indexed": true,
          "internalType": "address",
          "name": "accountAddress",
          "type": "address"
        },
        {
          "indexed": false,
          "internalType": "uint256",
          "name": "tokens",
          "type": "uint256"
        },
        {
          "indexed": false,
          "internalType": "uint256",
          "name": "timestamp",
          "type": "uint256"
        }
      ],
      "name": "CalculateRewards",
      "type": "event"
    },
    {
      "anonymous": false,
      "inputs": [
        {
          "indexed": false,
          "internalType": "address",
          "name": "account",
          "type": "address"
        }
      ],
      "name": "Paused",
      "type": "event"
    },
    {
      "anonymous": false,
      "inputs": [
        {
          "indexed": true,
          "internalType": "address",
          "name": "whitelistedAddress",
          "type": "address"
        },
        {
          "indexed": true,
          "internalType": "address",
          "name": "holderContractAddress",
          "type": "address"
        },
        {
          "indexed": true,
          "internalType": "address",
          "name": "lpContractAddress",
          "type": "address"
        },
        {
          "indexed": false,
          "internalType": "uint256",
          "name": "lastHolderRewardTimestamp",
          "type": "uint256"
        },
        {
          "indexed": false,
          "internalType": "uint256",
          "name": "timestamp",
          "type": "uint256"
        }
      ],
      "name": "RemoveWhitelistedAddress",
      "type": "event"
    },
    {
      "anonymous": false,
      "inputs": [
        {
          "indexed": true,
          "internalType": "bytes32",
          "name": "role",
          "type": "bytes32"
        },
        {
          "indexed": true,
          "internalType": "bytes32",
          "name": "previousAdminRole",
          "type": "bytes32"
        },
        {
          "indexed": true,
          "internalType": "bytes32",
          "name": "newAdminRole",
          "type": "bytes32"
        }
      ],
      "name": "RoleAdminChanged",
      "type": "event"
    },
    {
      "anonymous": false,
      "inputs": [
        {
          "indexed": true,
          "internalType": "bytes32",
          "name": "role",
          "type": "bytes32"
        },
        {
          "indexed": true,
          "internalType": "address",
          "name": "account",
          "type": "address"
        },
        {
          "indexed": true,
          "internalType": "address",
          "name": "sender",
          "type": "address"
        }
      ],
      "name": "RoleGranted",
      "type": "event"
    },
    {
      "anonymous": false,
      "inputs": [
        {
          "indexed": true,
          "internalType": "bytes32",
          "name": "role",
          "type": "bytes32"
        },
        {
          "indexed": true,
          "internalType": "address",
          "name": "account",
          "type": "address"
        },
        {
          "indexed": true,
          "internalType": "address",
          "name": "sender",
          "type": "address"
        }
      ],
      "name": "RoleRevoked",
      "type": "event"
    },
    {
      "anonymous": false,
      "inputs": [
        {
          "indexed": true,
          "internalType": "address",
          "name": "_contract",
          "type": "address"
        }
      ],
      "name": "SetLiquidStakingContract",
      "type": "event"
    },
    {
      "anonymous": false,
      "inputs": [
        {
          "indexed": true,
          "internalType": "address",
          "name": "_contract",
          "type": "address"
        }
      ],
      "name": "SetMigrationAdminContract",
      "type": "event"
    },
    {
      "anonymous": false,
      "inputs": [
        {
          "indexed": true,
          "internalType": "uint256",
          "name": "rewardRate",
          "type": "uint256"
        }
      ],
      "name": "SetRewardRate",
      "type": "event"
    },
    {
      "anonymous": false,
      "inputs": [
        {
          "indexed": true,
          "internalType": "address",
          "name": "_contract",
          "type": "address"
        }
      ],
      "name": "SetUTokensContract",
      "type": "event"
    },
    {
      "anonymous": false,
      "inputs": [
        {
          "indexed": true,
          "internalType": "address",
          "name": "whitelistedAddress",
          "type": "address"
        },
        {
          "indexed": true,
          "internalType": "address",
          "name": "holderContractAddress",
          "type": "address"
        },
        {
          "indexed": true,
          "internalType": "address",
          "name": "lpContractAddress",
          "type": "address"
        },
        {
          "indexed": false,
          "internalType": "uint256",
          "name": "timestamp",
          "type": "uint256"
        }
      ],
      "name": "SetWhitelistedAddress",
      "type": "event"
    },
    {
      "anonymous": false,
      "inputs": [
        {
          "indexed": true,
          "internalType": "address",
          "name": "_contract",
          "type": "address"
        }
      ],
      "name": "SetWhitelistedPTokenEmissionContract",
      "type": "event"
    },
    {
      "anonymous": false,
      "inputs": [
        {
          "indexed": true,
          "internalType": "address",
          "name": "from",
          "type": "address"
        },
        {
          "indexed": true,
          "internalType": "address",
          "name": "to",
          "type": "address"
        },
        {
          "indexed": false,
          "internalType": "uint256",
          "name": "value",
          "type": "uint256"
        }
      ],
      "name": "Transfer",
      "type": "event"
    },
    {
      "anonymous": false,
      "inputs": [
        {
          "indexed": true,
          "internalType": "address",
          "name": "accountAddress",
          "type": "address"
        },
        {
          "indexed": true,
          "internalType": "address",
          "name": "sTokenAddress",
          "type": "address"
        },
        {
          "indexed": true,
          "internalType": "uint256",
          "name": "tokens",
          "type": "uint256"
        },
        {
          "indexed": false,
          "internalType": "uint256",
          "name": "timestamp",
          "type": "uint256"
        }
      ],
      "name": "TriggeredCalculateHolderRewards",
      "type": "event"
    },
    {
      "anonymous": false,
      "inputs": [
        {
          "indexed": true,
          "internalType": "address",
          "name": "accountAddress",
          "type": "address"
        },
        {
          "indexed": false,
          "internalType": "uint256",
          "name": "tokens",
          "type": "uint256"
        },
        {
          "indexed": false,
          "internalType": "uint256",
          "name": "timestamp",
          "type": "uint256"
        }
      ],
      "name": "TriggeredCalculateRewards",
      "type": "event"
    },
    {
      "anonymous": false,
      "inputs": [
        {
          "indexed": false,
          "internalType": "address",
          "name": "account",
          "type": "address"
        }
      ],
      "name": "Unpaused",
      "type": "event"
    },
    {
      "inputs": [],
      "name": "DEFAULT_ADMIN_ROLE",
      "outputs": [
        {
          "internalType": "bytes32",
          "name": "",
          "type": "bytes32"
        }
      ],
      "stateMutability": "view",
      "type": "function"
    },
    {
      "inputs": [],
      "name": "PAUSER_ROLE",
      "outputs": [
        {
          "internalType": "bytes32",
          "name": "",
          "type": "bytes32"
        }
      ],
      "stateMutability": "view",
      "type": "function"
    },
    {
      "inputs": [
        {
          "internalType": "address",
          "name": "",
          "type": "address"
        }
      ],
      "name": "_holderContractAddress",
      "outputs": [
        {
          "internalType": "address",
          "name": "",
          "type": "address"
        }
      ],
      "stateMutability": "view",
      "type": "function"
    },
    {
      "inputs": [
        {
          "internalType": "address",
          "name": "",
          "type": "address"
        }
      ],
      "name": "_lastHolderRewardTimestamp",
      "outputs": [
        {
          "internalType": "uint256",
          "name": "",
          "type": "uint256"
        }
      ],
      "stateMutability": "view",
      "type": "function"
    },
    {
      "inputs": [
        {
          "internalType": "address",
          "name": "",
          "type": "address"
        }
      ],
      "name": "_lastUserRewardTimestamp",
      "outputs": [
        {
          "internalType": "uint256",
          "name": "",
          "type": "uint256"
        }
      ],
      "stateMutability": "view",
      "type": "function"
    },
    {
      "inputs": [],
      "name": "_liquidStakingContract",
      "outputs": [
        {
          "internalType": "address",
          "name": "",
          "type": "address"
        }
      ],
      "stateMutability": "view",
      "type": "function"
    },
    {
      "inputs": [
        {
          "internalType": "address",
          "name": "",
          "type": "address"
        }
      ],
      "name": "_lpContractAddress",
      "outputs": [
        {
          "internalType": "address",
          "name": "",
          "type": "address"
        }
      ],
      "stateMutability": "view",
      "type": "function"
    },
    {
      "inputs": [],
      "name": "_migrationAdminContract",
      "outputs": [
        {
          "internalType": "address",
          "name": "",
          "type": "address"
        }
      ],
      "stateMutability": "view",
      "type": "function"
    },
    {
      "inputs": [],
      "name": "_uTokens",
      "outputs": [
        {
          "internalType": "contract IUTokensV2",
          "name": "",
          "type": "address"
        }
      ],
      "stateMutability": "view",
      "type": "function"
    },
    {
      "inputs": [],
      "name": "_valueDivisor",
      "outputs": [
        {
          "internalType": "uint256",
          "name": "",
          "type": "uint256"
        }
      ],
      "stateMutability": "view",
      "type": "function"
    },
    {
      "inputs": [],
      "name": "_version",
      "outputs": [
        {
          "internalType": "uint256",
          "name": "",
          "type": "uint256"
        }
      ],
      "stateMutability": "view",
      "type": "function"
    },
    {
      "inputs": [],
      "name": "_whitelistedPTokenEmissionContract",
      "outputs": [
        {
          "internalType": "address",
          "name": "",
          "type": "address"
        }
      ],
      "stateMutability": "view",
      "type": "function"
    },
    {
      "inputs": [
        {
          "internalType": "address",
          "name": "owner",
          "type": "address"
        },
        {
          "internalType": "address",
          "name": "spender",
          "type": "address"
        }
      ],
      "name": "allowance",
      "outputs": [
        {
          "internalType": "uint256",
          "name": "",
          "type": "uint256"
        }
      ],
      "stateMutability": "view",
      "type": "function"
    },
    {
      "inputs": [
        {
          "internalType": "address",
          "name": "spender",
          "type": "address"
        },
        {
          "internalType": "uint256",
          "name": "amount",
          "type": "uint256"
        }
      ],
      "name": "approve",
      "outputs": [
        {
          "internalType": "bool",
          "name": "",
          "type": "bool"
        }
      ],
      "stateMutability": "nonpayable",
      "type": "function"
    },
    {
      "inputs": [
        {
          "internalType": "address",
          "name": "account",
          "type": "address"
        }
      ],
      "name": "balanceOf",
      "outputs": [
        {
          "internalType": "uint256",
          "name": "",
          "type": "uint256"
        }
      ],
      "stateMutability": "view",
      "type": "function"
    },
    {
      "inputs": [],
      "name": "decimals",
      "outputs": [
        {
          "internalType": "uint8",
          "name": "",
          "type": "uint8"
        }
      ],
      "stateMutability": "view",
      "type": "function"
    },
    {
      "inputs": [
        {
          "internalType": "address",
          "name": "spender",
          "type": "address"
        },
        {
          "internalType": "uint256",
          "name": "subtractedValue",
          "type": "uint256"
        }
      ],
      "name": "decreaseAllowance",
      "outputs": [
        {
          "internalType": "bool",
          "name": "",
          "type": "bool"
        }
      ],
      "stateMutability": "nonpayable",
      "type": "function"
    },
    {
      "inputs": [
        {
          "internalType": "bytes32",
          "name": "role",
          "type": "bytes32"
        }
      ],
      "name": "getRoleAdmin",
      "outputs": [
        {
          "internalType": "bytes32",
          "name": "",
          "type": "bytes32"
        }
      ],
      "stateMutability": "view",
      "type": "function"
    },
    {
      "inputs": [
        {
          "internalType": "bytes32",
          "name": "role",
          "type": "bytes32"
        },
        {
          "internalType": "uint256",
          "name": "index",
          "type": "uint256"
        }
      ],
      "name": "getRoleMember",
      "outputs": [
        {
          "internalType": "address",
          "name": "",
          "type": "address"
        }
      ],
      "stateMutability": "view",
      "type": "function"
    },
    {
      "inputs": [
        {
          "internalType": "bytes32",
          "name": "role",
          "type": "bytes32"
        }
      ],
      "name": "getRoleMemberCount",
      "outputs": [
        {
          "internalType": "uint256",
          "name": "",
          "type": "uint256"
        }
      ],
      "stateMutability": "view",
      "type": "function"
    },
    {
      "inputs": [
        {
          "internalType": "bytes32",
          "name": "role",
          "type": "bytes32"
        },
        {
          "internalType": "address",
          "name": "account",
          "type": "address"
        }
      ],
      "name": "grantRole",
      "outputs": [],
      "stateMutability": "nonpayable",
      "type": "function"
    },
    {
      "inputs": [
        {
          "internalType": "bytes32",
          "name": "role",
          "type": "bytes32"
        },
        {
          "internalType": "address",
          "name": "account",
          "type": "address"
        }
      ],
      "name": "hasRole",
      "outputs": [
        {
          "internalType": "bool",
          "name": "",
          "type": "bool"
        }
      ],
      "stateMutability": "view",
      "type": "function"
    },
    {
      "inputs": [
        {
          "internalType": "address",
          "name": "spender",
          "type": "address"
        },
        {
          "internalType": "uint256",
          "name": "addedValue",
          "type": "uint256"
        }
      ],
      "name": "increaseAllowance",
      "outputs": [
        {
          "internalType": "bool",
          "name": "",
          "type": "bool"
        }
      ],
      "stateMutability": "nonpayable",
      "type": "function"
    },
    {
      "inputs": [],
      "name": "name",
      "outputs": [
        {
          "internalType": "string",
          "name": "",
          "type": "string"
        }
      ],
      "stateMutability": "view",
      "type": "function"
    },
    {
      "inputs": [],
      "name": "paused",
      "outputs": [
        {
          "internalType": "bool",
          "name": "",
          "type": "bool"
        }
      ],
      "stateMutability": "view",
      "type": "function"
    },
    {
      "inputs": [
        {
          "internalType": "bytes32",
          "name": "role",
          "type": "bytes32"
        },
        {
          "internalType": "address",
          "name": "account",
          "type": "address"
        }
      ],
      "name": "renounceRole",
      "outputs": [],
      "stateMutability": "nonpayable",
      "type": "function"
    },
    {
      "inputs": [
        {
          "internalType": "bytes32",
          "name": "role",
          "type": "bytes32"
        },
        {
          "internalType": "address",
          "name": "account",
          "type": "address"
        }
      ],
      "name": "revokeRole",
      "outputs": [],
      "stateMutability": "nonpayable",
      "type": "function"
    },
    {
      "inputs": [],
      "name": "symbol",
      "outputs": [
        {
          "internalType": "string",
          "name": "",
          "type": "string"
        }
      ],
      "stateMutability": "view",
      "type": "function"
    },
    {
      "inputs": [],
      "name": "totalSupply",
      "outputs": [
        {
          "internalType": "uint256",
          "name": "",
          "type": "uint256"
        }
      ],
      "stateMutability": "view",
      "type": "function"
    },
    {
      "inputs": [
        {
          "internalType": "address",
          "name": "recipient",
          "type": "address"
        },
        {
          "internalType": "uint256",
          "name": "amount",
          "type": "uint256"
        }
      ],
      "name": "transfer",
      "outputs": [
        {
          "internalType": "bool",
          "name": "",
          "type": "bool"
        }
      ],
      "stateMutability": "nonpayable",
      "type": "function"
    },
    {
      "inputs": [
        {
          "internalType": "address",
          "name": "sender",
          "type": "address"
        },
        {
          "internalType": "address",
          "name": "recipient",
          "type": "address"
        },
        {
          "internalType": "uint256",
          "name": "amount",
          "type": "uint256"
        }
      ],
      "name": "transferFrom",
      "outputs": [
        {
          "internalType": "bool",
          "name": "",
          "type": "bool"
        }
      ],
      "stateMutability": "nonpayable",
      "type": "function"
    },
    {
      "inputs": [
        {
          "internalType": "address",
          "name": "uaddress",
          "type": "address"
        },
        {
          "internalType": "address",
          "name": "pauserAddress",
          "type": "address"
        },
        {
          "internalType": "uint256",
          "name": "rewardRate",
          "type": "uint256"
        },
        {
          "internalType": "uint256",
          "name": "valueDivisor",
          "type": "uint256"
        }
      ],
      "name": "initialize",
      "outputs": [],
      "stateMutability": "nonpayable",
      "type": "function"
    },
    {
      "inputs": [
        {
          "internalType": "address",
          "name": "whitelistedAddress",
          "type": "address"
        }
      ],
      "name": "isContractWhitelisted",
      "outputs": [
        {
          "internalType": "bool",
          "name": "result",
          "type": "bool"
        }
      ],
      "stateMutability": "view",
      "type": "function"
    },
    {
      "inputs": [
        {
          "internalType": "address",
          "name": "whitelistedAddress",
          "type": "address"
        }
      ],
      "name": "getWhitelistData",
      "outputs": [
        {
          "internalType": "address",
          "name": "holderAddress",
          "type": "address"
        },
        {
          "internalType": "address",
          "name": "lpAddress",
          "type": "address"
        },
        {
          "internalType": "address",
          "name": "uTokenAddress",
          "type": "address"
        },
        {
          "internalType": "uint256",
          "name": "lastHolderRewardTimestamp",
          "type": "uint256"
        }
      ],
      "stateMutability": "view",
      "type": "function"
    },
    {
      "inputs": [],
      "name": "getUTokenAddress",
      "outputs": [
        {
          "internalType": "address",
          "name": "uTokenAddress",
          "type": "address"
        }
      ],
      "stateMutability": "view",
      "type": "function"
    },
    {
      "inputs": [
        {
          "internalType": "uint256",
          "name": "rewardRate",
          "type": "uint256"
        }
      ],
      "name": "setRewardRate",
      "outputs": [
        {
          "internalType": "bool",
          "name": "success",
          "type": "bool"
        }
      ],
      "stateMutability": "nonpayable",
      "type": "function"
    },
    {
      "inputs": [],
      "name": "getRewardRate",
      "outputs": [
        {
          "internalType": "uint256[]",
          "name": "rewardRate",
          "type": "uint256[]"
        },
        {
          "internalType": "uint256[]",
          "name": "lastMovingRewardTimestamp",
          "type": "uint256[]"
        },
        {
          "internalType": "uint256",
          "name": "valueDivisor",
          "type": "uint256"
        }
      ],
      "stateMutability": "view",
      "type": "function"
    },
    {
      "inputs": [
        {
          "internalType": "address",
          "name": "to",
          "type": "address"
        },
        {
          "internalType": "uint256",
          "name": "tokens",
          "type": "uint256"
        }
      ],
      "name": "mint",
      "outputs": [
        {
          "internalType": "bool",
          "name": "",
          "type": "bool"
        }
      ],
      "stateMutability": "nonpayable",
      "type": "function"
    },
    {
      "inputs": [
        {
          "internalType": "address",
          "name": "from",
          "type": "address"
        },
        {
          "internalType": "uint256",
          "name": "tokens",
          "type": "uint256"
        }
      ],
      "name": "burn",
      "outputs": [
        {
          "internalType": "bool",
          "name": "",
          "type": "bool"
        }
      ],
      "stateMutability": "nonpayable",
      "type": "function"
    },
    {
      "inputs": [
        {
          "internalType": "address",
          "name": "to",
          "type": "address"
        }
      ],
      "name": "calculatePendingRewards",
      "outputs": [
        {
          "internalType": "uint256",
          "name": "pendingRewards",
          "type": "uint256"
        }
      ],
      "stateMutability": "view",
      "type": "function"
    },
    {
      "inputs": [
        {
          "internalType": "address",
          "name": "to",
          "type": "address"
        }
      ],
      "name": "calculateRewards",
      "outputs": [
        {
          "internalType": "uint256",
          "name": "reward",
          "type": "uint256"
        }
      ],
      "stateMutability": "nonpayable",
      "type": "function"
    },
    {
      "inputs": [
        {
          "internalType": "address",
          "name": "to",
          "type": "address"
        }
      ],
      "name": "calculatePendingHolderRewards",
      "outputs": [
        {
          "internalType": "uint256",
          "name": "pendingRewards",
          "type": "uint256"
        },
        {
          "internalType": "address",
          "name": "holderAddress",
          "type": "address"
        },
        {
          "internalType": "address",
          "name": "lpAddress",
          "type": "address"
        }
      ],
      "stateMutability": "view",
      "type": "function"
    },
    {
      "inputs": [
        {
          "internalType": "address",
          "name": "to",
          "type": "address"
        }
      ],
      "name": "calculateHolderRewards",
      "outputs": [
        {
          "internalType": "uint256",
          "name": "rewards",
          "type": "uint256"
        },
        {
          "internalType": "address",
          "name": "holderAddress",
          "type": "address"
        },
        {
          "internalType": "address",
          "name": "lpTokenAddress",
          "type": "address"
        }
      ],
      "stateMutability": "nonpayable",
      "type": "function"
    },
    {
      "inputs": [
        {
          "internalType": "address",
          "name": "whitelistedPTokenEmissionContract",
          "type": "address"
        }
      ],
      "name": "setWhitelistedPTokenEmissionContract",
      "outputs": [],
      "stateMutability": "nonpayable",
      "type": "function"
    },
    {
      "inputs": [
        {
          "internalType": "address",
          "name": "whitelistedAddress",
          "type": "address"
        },
        {
          "internalType": "address",
          "name": "holderContractAddress",
          "type": "address"
        },
        {
          "internalType": "address",
          "name": "lpContractAddress",
          "type": "address"
        }
      ],
      "name": "setWhitelistedAddress",
      "outputs": [
        {
          "internalType": "bool",
          "name": "success",
          "type": "bool"
        }
      ],
      "stateMutability": "nonpayable",
      "type": "function"
    },
    {
      "inputs": [
        {
          "internalType": "address",
          "name": "whitelistedAddress",
          "type": "address"
        }
      ],
      "name": "removeWhitelistedAddress",
      "outputs": [
        {
          "internalType": "bool",
          "name": "success",
          "type": "bool"
        }
      ],
      "stateMutability": "nonpayable",
      "type": "function"
    },
    {
      "inputs": [
        {
          "internalType": "address",
          "name": "uTokenContract",
          "type": "address"
        }
      ],
      "name": "setUTokensContract",
      "outputs": [],
      "stateMutability": "nonpayable",
      "type": "function"
    },
    {
      "inputs": [
        {
          "internalType": "address",
          "name": "liquidStakingContract",
          "type": "address"
        }
      ],
      "name": "setLiquidStakingContract",
      "outputs": [],
      "stateMutability": "nonpayable",
      "type": "function"
    },
    {
      "inputs": [
        {
          "internalType": "address",
          "name": "migrationAdminContract",
          "type": "address"
        }
      ],
      "name": "setMigrationAdminContract",
      "outputs": [],
      "stateMutability": "nonpayable",
      "type": "function"
    },
    {
      "inputs": [],
      "name": "pause",
      "outputs": [
        {
          "internalType": "bool",
          "name": "success",
          "type": "bool"
        }
      ],
      "stateMutability": "nonpayable",
      "type": "function"
    },
    {
      "inputs": [],
      "name": "unpause",
      "outputs": [
        {
          "internalType": "bool",
          "name": "success",
          "type": "bool"
        }
      ],
      "stateMutability": "nonpayable",
      "type": "function"
    }
  ],
  "bytecode": "0x608060405234801561001057600080fd5b50613626806100206000396000f3fe608060405234801561001057600080fd5b50600436106102f15760003560e01c806370a082311161019d578063a203ccf8116100e9578063c057058a116100a2578063da6b7ec71161007c578063da6b7ec714610a1c578063dd62ed3e14610a42578063e63ab1e914610a70578063eb990c5914610a78576102f1565b8063c057058a146109ad578063ca15c873146109d3578063d547741f146109f0576102f1565b8063a203ccf8146108db578063a217fddf14610901578063a457c2d714610909578063a9059cbb14610935578063b3e597b014610961578063b8ecc2a914610987576102f1565b80638e28310e1161015657806395d89b411161013057806395d89b41146108645780639933d9ac1461086c5780639dc29fac146108925780639e447fc6146108be576102f1565b80638e28310e146107ef5780639010d07c1461081557806391d1485414610838576102f1565b806370a0823114610701578063728a99ee1461072757806378a2f0741461072f578063793105d8146107375780637e1a37861461073f5780638456cb59146107e7576102f1565b8063395093511161025c5780634bcb30f8116102155780635c5cfb37116101ef5780635c5cfb37146106705780635c975abb1461067857806364ab86751461068057806368aa9813146106a6576102f1565b80634bcb30f8146105ec578063530cd5ab1461062457806358f8943e1461064a576102f1565b806339509351146105565780633d9e0c05146105825780633e118dbe1461058a5780633f4ba83a146105925780633f7398a81461059a57806340c10f19146105c0576102f1565b806323b872dd116102ae57806323b872dd1461043f578063248a9ca31461047557806326d6772e146104925780632f2ff15d146104e0578063313ce5671461050c57806336568abe1461052a576102f1565b806306fdde03146102f6578063095ea7b314610373578063097aad10146103b357806318160ddd146103eb578063184be35a146103f357806321bdf9e514610417575b600080fd5b6102fe610ab4565b6040805160208082528351818301528351919283929083019185019080838360005b83811015610338578181015183820152602001610320565b50505050905090810190601f1680156103655780820380516001836020036101000a031916815260200191505b509250505060405180910390f35b61039f6004803603604081101561038957600080fd5b506001600160a01b038135169060200135610b4a565b604080519115158252519081900360200190f35b6103d9600480360360208110156103c957600080fd5b50356001600160a01b0316610b68565b60408051918252519081900360200190f35b6103d9610ba1565b6103fb610ba7565b604080516001600160a01b039092168252519081900360200190f35b61043d6004803603602081101561042d57600080fd5b50356001600160a01b0316610bb6565b005b61039f6004803603606081101561045557600080fd5b506001600160a01b03813581169160208101359091169060400135610c49565b6103d96004803603602081101561048b57600080fd5b5035610cd1565b6104b8600480360360208110156104a857600080fd5b50356001600160a01b0316610ce6565b604080519384526001600160a01b039283166020850152911682820152519081900360600190f35b61043d600480360360408110156104f657600080fd5b50803590602001356001600160a01b0316610d92565b610514610df9565b6040805160ff9092168252519081900360200190f35b61043d6004803603604081101561054057600080fd5b50803590602001356001600160a01b0316610e02565b61039f6004803603604081101561056c57600080fd5b506001600160a01b038135169060200135610e63565b6103fb610eb1565b6103d9610ec0565b61039f610ec6565b6103fb600480360360208110156105b057600080fd5b50356001600160a01b0316610f2a565b61039f600480360360408110156105d657600080fd5b506001600160a01b038135169060200135610f45565b61039f6004803603606081101561060257600080fd5b506001600160a01b038135811691602081013582169160409091013516610fa7565b61039f6004803603602081101561063a57600080fd5b50356001600160a01b03166110e9565b61043d6004803603602081101561066057600080fd5b50356001600160a01b031661124c565b6103fb6112da565b61039f6112e9565b6103d96004803603602081101561069657600080fd5b50356001600160a01b03166112f2565b6106cc600480360360208110156106bc57600080fd5b50356001600160a01b0316611423565b604080516001600160a01b03958616815293851660208501529190931682820152606082019290925290519081900360800190f35b6103d96004803603602081101561071757600080fd5b50356001600160a01b0316611490565b6103d96114ab565b6103fb6114b1565b6103fb6114c0565b6107476114cf565b604051808060200180602001848152602001838103835286818151815260200191508051906020019060200280838360005b83811015610791578181015183820152602001610779565b50505050905001838103825285818151815260200191508051906020019060200280838360005b838110156107d05781810151838201526020016107b8565b505050509050019550505050505060405180910390f35b61039f611584565b61043d6004803603602081101561080557600080fd5b50356001600160a01b03166115e2565b6103fb6004803603604081101561082b57600080fd5b5080359060200135611673565b61039f6004803603604081101561084e57600080fd5b50803590602001356001600160a01b031661168b565b6102fe6116a3565b61043d6004803603602081101561088257600080fd5b50356001600160a01b0316611704565b61039f600480360360408110156108a857600080fd5b506001600160a01b038135169060200135611795565b61039f600480360360208110156108d457600080fd5b503561181c565b6104b8600480360360208110156108f157600080fd5b50356001600160a01b0316611946565b6103d9611a94565b61039f6004803603604081101561091f57600080fd5b506001600160a01b038135169060200135611a99565b61039f6004803603604081101561094b57600080fd5b506001600160a01b038135169060200135611b01565b6103d96004803603602081101561097757600080fd5b50356001600160a01b0316611b15565b6103d96004803603602081101561099d57600080fd5b50356001600160a01b0316611b27565b61039f600480360360208110156109c357600080fd5b50356001600160a01b0316611b39565b6103d9600480360360208110156109e957600080fd5b5035611b46565b61043d60048036036040811015610a0657600080fd5b50803590602001356001600160a01b0316611b5d565b6103fb60048036036020811015610a3257600080fd5b50356001600160a01b0316611bb6565b6103d960048036036040811015610a5857600080fd5b506001600160a01b0381358116916020013516611bd1565b6103d9611bfc565b61043d60048036036080811015610a8e57600080fd5b506001600160a01b03813581169160208101359091169060408101359060600135611c0e565b60368054604080516020601f6002600019610100600188161502019095169490940493840181900481028201810190925282815260609390929091830182828015610b405780601f10610b1557610100808354040283529160200191610b40565b820191906000526020600020905b815481529060010190602001808311610b2357829003601f168201915b5050505050905090565b6000610b5e610b57611e01565b8484611e05565b5060015b92915050565b6001600160a01b038116600090815260d3602052604081205481610b8b84611490565b9050610b978183611ef1565b925050505b919050565b60355490565b60d5546001600160a01b031681565b610bc86000610bc3611e01565b61168b565b610bff576040805162461bcd60e51b81526020600482015260036024820152620a6a8760eb1b604482015290519081900360640190fd5b60cf80546001600160a01b0319166001600160a01b0383169081179091556040517ff745c285f36f88bea6af14d4d0f33dd9350cef7895216c1615b1caaee7857e0c90600090a250565b6000610c56848484612113565b610cc684610c62611e01565b610cc1856040518060600160405280602881526020016134eb602891396001600160a01b038a16600090815260346020526040812090610ca0611e01565b6001600160a01b031681526020810191909152604001600020549190612270565b611e05565b5060015b9392505050565b60009081526097602052604090206002015490565b6000806000610cf36112e9565b15610d38576040805162461bcd60e51b815260206004820152601060248201526f14185d5cd8589b194e881c185d5cd95960821b604482015290519081900360640190fd5b610d4184612307565b6040805142815290519396509194509250849130916001600160a01b038816917f59171ee3218236d503002f8e5832f4d7403458f65211bc049ae68a480980fcec9181900360200190a49193909250565b600082815260976020526040902060020154610db090610bc3611e01565b610deb5760405162461bcd60e51b815260040180806020018281038252602f8152602001806133d3602f913960400191505060405180910390fd5b610df58282612495565b5050565b60385460ff1690565b610e0a611e01565b6001600160a01b0316816001600160a01b031614610e595760405162461bcd60e51b815260040180806020018281038252602f8152602001806135c2602f913960400191505060405180910390fd5b610df582826124fe565b6000610b5e610e70611e01565b84610cc18560346000610e81611e01565b6001600160a01b03908116825260208083019390935260409182016000908120918c168152925290205490612567565b60cf546001600160a01b031690565b60d45481565b6000610ee2600080516020613513833981519152610bc3611e01565b610f1c576040805162461bcd60e51b815260206004808301919091526024820152635354313760e01b604482015290519081900360640190fd5b610f246125c1565b50600190565b60cb602052600090815260409020546001600160a01b031681565b60ce546000906001600160a01b0316610f5c611e01565b6001600160a01b031614610f9d576040805162461bcd60e51b815260206004820152600360248201526253543360e81b604482015290519081900360640190fd5b610b5e8383612661565b60d5546000906001600160a01b0316610fbe611e01565b6001600160a01b031614611002576040805162461bcd60e51b8152602060048083019190915260248201526329aa189960e11b604482015290519081900360640190fd5b6001600160a01b038416611046576040805162461bcd60e51b815260206004808301919091526024820152635354313360e01b604482015290519081900360640190fd5b61105160c985612753565b6110625761106060c985612768565b505b6001600160a01b03808516600081815260cb602090815260408083208054868a166001600160a01b0319918216811790925560cc8452938290208054968916969094168617909355805142815290519293927f82ed35aaa6afc6ef1f698fbb8532bfa0a40ac98e0a5157a330a43ac1715cc199929181900390910190a45060019392505050565b60d5546000906001600160a01b0316611100611e01565b6001600160a01b031614611144576040805162461bcd60e51b8152602060048083019190915260248201526314d50c4d60e21b604482015290519081900360640190fd5b6001600160a01b038216611188576040805162461bcd60e51b815260206004808301919091526024820152635354313560e01b604482015290519081900360640190fd5b61119360c98361277d565b506001600160a01b03808316600081815260cc602090815260408083205460cb83528184205460cd84529382902054825190815242938101939093528151908616959390931693927fd042a0e13284c2c3252f6bee9de1c982090863207a3eccfcd551f350d60383bb9281900390910190a4506001600160a01b0316600090815260cb6020908152604080832080546001600160a01b031990811690915560cc83528184208054909116905560cd909152812055600190565b6112596000610bc3611e01565b611290576040805162461bcd60e51b815260206004820152600360248201526253543960e81b604482015290519081900360640190fd5b60ce80546001600160a01b0319166001600160a01b0383169081179091556040517f57fded54c0f01b7b2c662bd89530d6916e48149e02da384db87d1a67306be87190600090a250565b60d6546001600160a01b031681565b60655460ff1690565b60006112fc6112e9565b15611341576040805162461bcd60e51b815260206004820152601060248201526f14185d5cd8589b194e881c185d5cd95960821b604482015290519081900360640190fd5b600061134e60c984612753565b9050611358611e01565b6001600160a01b0316836001600160a01b03161480611395575061137a611e01565b60d6546001600160a01b039081169116148015611395575080155b6113cc576040805162461bcd60e51b815260206004820152600360248201526253543560e81b604482015290519081900360640190fd5b6113d583612792565b6040805182815242602082015281519294506001600160a01b038616927fd0194489832efa41a56f4a4add6fbbe260998cbcff0b43c953af28b545ca7a01929181900390910190a250919050565b6001600160a01b03808216600090815260cb602090815260408083205460cc83528184205460cd909352908320549084169391909116919083158061146f57506001600160a01b038316155b6114845760cf546001600160a01b0316611487565b60005b91509193509193565b6001600160a01b031660009081526033602052604090205490565b60d25481565b60cf546001600160a01b031681565b60ce546001600160a01b031681565b606080600060d080548060200260200160405190810160405280929190818152602001828054801561152057602002820191906000526020600020905b81548152602001906001019080831161150c575b5050505050925060d180548060200260200160405190810160405280929190818152602001828054801561157357602002820191906000526020600020905b81548152602001906001019080831161155f575b5050505050915060d2549050909192565b60006115a0600080516020613513833981519152610bc3611e01565b6115da576040805162461bcd60e51b8152602060048083019190915260248201526329aa189b60e11b604482015290519081900360640190fd5b610f24612898565b6115ef6000610bc3611e01565b611629576040805162461bcd60e51b815260206004808301919091526024820152635354313960e01b604482015290519081900360640190fd5b60d680546001600160a01b0319166001600160a01b0383169081179091556040517f545597c224dfe39b1297653b542efa078178b71f7545347e30c429780435940190600090a250565b6000828152609760205260408120610cca908361291b565b6000828152609760205260408120610cca9083612753565b60378054604080516020601f6002600019610100600188161502019095169490940493840181900481028201810190925282815260609390929091830182828015610b405780601f10610b1557610100808354040283529160200191610b40565b6117116000610bc3611e01565b61174b576040805162461bcd60e51b815260206004808301919091526024820152635354313160e01b604482015290519081900360640190fd5b60d580546001600160a01b0319166001600160a01b0383169081179091556040517f441e6cdc468501bb6d17b30034ba7dd543768146de1cf17f59b7f555cd57716090600090a250565b60ce546000906001600160a01b03166117ac611e01565b6001600160a01b031614806117db575060d6546001600160a01b03166117d0611e01565b6001600160a01b0316145b611812576040805162461bcd60e51b815260206004820152600360248201526214d50d60ea1b604482015290519081900360640190fd5b610b5e8383612927565b60d25460009061182d906064612a23565b82111561186a576040805162461bcd60e51b815260206004808301919091526024820152630a6a862760e31b604482015290519081900360640190fd5b6118776000610bc3611e01565b6118ae576040805162461bcd60e51b815260206004820152600360248201526229aa1960e91b604482015290519081900360640190fd5b60d0805460018181019092557fe89d44c8fd6a9bac8af33ce47f56337617d449bf7ff3956b618c646de829cbcb0183905560d1805491820181556000908152427f695fb3134ad82c3b8022bc5464edd0bcc9424ef672b52245dcb6ab2374327ce39092019190915560405183917f1946fb78c7ca778b54d82cabaac5ba67cf446f58d0ff1f8ceaebb6150e54e44f91a2506001919050565b6000808061195560c985612753565b801561197a57506001600160a01b03848116600090815260cb60205260409020541615155b801561199f57506001600160a01b03848116600090815260cc60205260409020541615155b15611a8d576001600160a01b03808516600081815260cb6020908152604080832054815163a4fbfa8560e01b8152600481019590955230602486015290519294169263a4fbfa859260448083019392829003018186803b158015611a0257600080fd5b505afa158015611a16573d6000803e3d6000fd5b505050506040513d6020811015611a2c57600080fd5b505190508015611a8b576001600160a01b038516600090815260cd6020526040902054611a5a908290611ef1565b6001600160a01b03808716600090815260cb602090815260408083205460cc90925290912054929650811694501691505b505b9193909250565b600081565b6000610b5e611aa6611e01565b84610cc18560405180606001604052806025815260200161359d6025913960346000611ad0611e01565b6001600160a01b03908116825260208083019390935260409182016000908120918d16815292529020549190612270565b6000610b5e611b0e611e01565b8484612113565b60d36020526000908152604090205481565b60cd6020526000908152604090205481565b6000610b6260c983612753565b6000818152609760205260408120610b6290612a7c565b600082815260976020526040902060020154611b7b90610bc3611e01565b610e595760405162461bcd60e51b815260040180806020018281038252603081526020018061346c6030913960400191505060405180910390fd5b60cc602052600090815260409020546001600160a01b031681565b6001600160a01b03918216600090815260346020908152604080832093909416825291909152205490565b60008051602061351383398151915281565b600054610100900460ff1680611c275750611c27612a87565b80611c35575060005460ff16155b611c705760405162461bcd60e51b815260040180806020018281038252602e81526020018061349c602e913960400191505060405180910390fd5b600054610100900460ff16158015611c9b576000805460ff1961ff0019909116610100171660011790555b611cee60405180604001604052806012815260200171705354414b45205374616b65642041544f4d60701b8152506040518060400160405280600781526020016673746b41544f4d60c81b815250612a98565b611cf6612b4e565b611cfe612c00565b611d106000611d0b611e01565b610deb565b611d2860008051602061351383398151915285610deb565b611d3185610bb6565b60d2829055611d41826064612a23565b831115611d7b576040805162461bcd60e51b815260206004820152600360248201526253543160e81b604482015290519081900360640190fd5b60d0805460018181019092557fe89d44c8fd6a9bac8af33ce47f56337617d449bf7ff3956b618c646de829cbcb0184905560d180549182018155600052427f695fb3134ad82c3b8022bc5464edd0bcc9424ef672b52245dcb6ab2374327ce390910155611de86006612c9d565b8015611dfa576000805461ff00191690555b5050505050565b3390565b6001600160a01b038316611e4a5760405162461bcd60e51b81526004018080602001828103825260248152602001806135796024913960400191505060405180910390fd5b6001600160a01b038216611e8f5760405162461bcd60e51b81526004018080602001828103825260228152602001806134246022913960400191505060405180910390fd5b6001600160a01b03808416600081815260346020908152604080832094871680845294825291829020859055815185815291517f8c5be1e5ebec7d5bd14f71427d1e84f3dd0314c0f7b2291e5b200ac8c7c3b9259281900390910190a3505050565b600080808080861580611f0b5750611f094287612cb3565b155b15611f1d576000945050505050610b62565b60d154600090611f2e906001612cb3565b90508094505b60d154611f42906001612cb3565b85101561205b578660d18681548110611f5757fe5b9060005260206000200154111561200757611fb460d18681548110611f7857fe5b60009182526020909120015460d1611f91886001612567565b81548110611f9b57fe5b9060005260206000200154612cb390919063ffffffff16565b9350611fdb60d08681548110611fc657fe5b60009182526020909120015489906064612d10565b9150611ff48460d25484612d109092919063ffffffff16565b92506120008684612567565b9550612056565b6120188760d1611f91886001612567565b935061202a60d08681548110611fc657fe5b91506120438460d25484612d109092919063ffffffff16565b925061204f8684612567565b9550612108565b6120ec565b8660d1868154811061206957fe5b906000526020600020015411156120e2576120a460d1868154811061208a57fe5b906000526020600020015442612cb390919063ffffffff16565b93506120b660d08681548110611fc657fe5b91506120cf8460d25484612d109092919063ffffffff16565b92506120db8684612567565b95506120ec565b6120184288612cb3565b846120f657612108565b612101856001612cb3565b9450611f34565b505050505092915050565b6001600160a01b0383166121585760405162461bcd60e51b81526004018080602001828103825260258152602001806135546025913960400191505060405180910390fd5b6001600160a01b03821661219d5760405162461bcd60e51b81526004018080602001828103825260238152602001806133b06023913960400191505060405180910390fd5b6121a8838383612dc9565b6121e581604051806060016040528060268152602001613446602691396001600160a01b0386166000908152603360205260409020549190612270565b6001600160a01b0380851660009081526033602052604080822093909355908416815220546122149082612567565b6001600160a01b0380841660008181526033602090815260409182902094909455805185815290519193928716927fddf252ad1be2c89b69c2b068fc378daa952ba7f163c4a11628f55a4df523b3ef92918290030190a3505050565b600081848411156122ff5760405162461bcd60e51b81526004018080602001828103825283818151815260200191508051906020019080838360005b838110156122c45781810151838201526020016122ac565b50505050905090810190601f1680156122f15780820380516001836020036101000a031916815260200191505b509250505060405180910390fd5b505050900390565b6000808061231660c985612753565b801561233b57506001600160a01b03848116600090815260cb60205260409020541615155b801561236057506001600160a01b03848116600090815260cc60205260409020541615155b612397576040805162461bcd60e51b815260206004820152600360248201526229aa1b60e91b604482015290519081900360640190fd5b6123a084611946565b6001600160a01b038716600090815260cd6020526040902042905591945092509050821561244b5760cf54604080516340c10f1960e01b81526001600160a01b03858116600483015260248201879052915191909216916340c10f199160448083019260209291908290030181600087803b15801561241e57600080fd5b505af1158015612432573d6000803e3d6000fd5b505050506040513d602081101561244857600080fd5b50505b604080514281529051849130916001600160a01b038816917ff5903cb2d16d0852687a9c6434f5e696e6f5022b43d9c2a9789ea1737a1ef4d8919081900360200190a49193909250565b60008281526097602052604090206124ad9082612768565b15610df5576124ba611e01565b6001600160a01b0316816001600160a01b0316837f2f8788117e7eff1d82e926ec794901d17c78024a50270940304540a733656f0d60405160405180910390a45050565b6000828152609760205260409020612516908261277d565b15610df557612523611e01565b6001600160a01b0316816001600160a01b0316837ff6391f5c32d9c69d2a47ea670b442974b53935d1edc7fd64eb21e047a839171b60405160405180910390a45050565b600082820183811015610cca576040805162461bcd60e51b815260206004820152601b60248201527f536166654d6174683a206164646974696f6e206f766572666c6f770000000000604482015290519081900360640190fd5b6125c96112e9565b612611576040805162461bcd60e51b815260206004820152601460248201527314185d5cd8589b194e881b9bdd081c185d5cd95960621b604482015290519081900360640190fd5b6065805460ff191690557f5db9ee0a495bf2e6ff9c91a7834c1ba4fdd244a5e8aa4e537bd38aeae4b073aa612644611e01565b604080516001600160a01b039092168252519081900360200190a1565b6001600160a01b0382166126bc576040805162461bcd60e51b815260206004820152601f60248201527f45524332303a206d696e7420746f20746865207a65726f206164647265737300604482015290519081900360640190fd5b6126c860008383612dc9565b6035546126d59082612567565b6035556001600160a01b0382166000908152603360205260409020546126fb9082612567565b6001600160a01b03831660008181526033602090815260408083209490945583518581529351929391927fddf252ad1be2c89b69c2b068fc378daa952ba7f163c4a11628f55a4df523b3ef9281900390910190a35050565b6000610cca836001600160a01b038416612e96565b6000610cca836001600160a01b038416612eae565b6000610cca836001600160a01b038416612ef8565b60006001600160a01b03821615610b9c576127ac82610b68565b6001600160a01b038316600090815260d36020526040902042905590508015610b9c5760cf54604080516340c10f1960e01b81526001600160a01b03858116600483015260248201859052915191909216916340c10f199160448083019260209291908290030181600087803b15801561282557600080fd5b505af1158015612839573d6000803e3d6000fd5b505050506040513d602081101561284f57600080fd5b50506040805182815242602082015281516001600160a01b038516927f01ea729deb12fa912e813101b1da8b7c1500f7f26c912a612221a02af6a56220928290030190a2919050565b6128a06112e9565b156128e5576040805162461bcd60e51b815260206004820152601060248201526f14185d5cd8589b194e881c185d5cd95960821b604482015290519081900360640190fd5b6065805460ff191660011790557f62e78cea01bee320cd4e420270b5ea74000d11b0c9f74754ebdbfc544b05a258612644611e01565b6000610cca8383612fbe565b6001600160a01b03821661296c5760405162461bcd60e51b81526004018080602001828103825260218152602001806135336021913960400191505060405180910390fd5b61297882600083612dc9565b6129b581604051806060016040528060228152602001613402602291396001600160a01b0385166000908152603360205260409020549190612270565b6001600160a01b0383166000908152603360205260409020556035546129db9082612cb3565b6035556040805182815290516000916001600160a01b038516917fddf252ad1be2c89b69c2b068fc378daa952ba7f163c4a11628f55a4df523b3ef9181900360200190a35050565b600082612a3257506000610b62565b82820282848281612a3f57fe5b0414610cca5760405162461bcd60e51b81526004018080602001828103825260218152602001806134ca6021913960400191505060405180910390fd5b6000610b6282613022565b6000612a9230613026565b15905090565b600054610100900460ff1680612ab15750612ab1612a87565b80612abf575060005460ff16155b612afa5760405162461bcd60e51b815260040180806020018281038252602e81526020018061349c602e913960400191505060405180910390fd5b600054610100900460ff16158015612b25576000805460ff1961ff0019909116610100171660011790555b612b2d61302c565b612b3783836130cc565b8015612b49576000805461ff00191690555b505050565b600054610100900460ff1680612b675750612b67612a87565b80612b75575060005460ff16155b612bb05760405162461bcd60e51b815260040180806020018281038252602e81526020018061349c602e913960400191505060405180910390fd5b600054610100900460ff16158015612bdb576000805460ff1961ff0019909116610100171660011790555b612be361302c565b612beb61302c565b8015612bfd576000805461ff00191690555b50565b600054610100900460ff1680612c195750612c19612a87565b80612c27575060005460ff16155b612c625760405162461bcd60e51b815260040180806020018281038252602e81526020018061349c602e913960400191505060405180910390fd5b600054610100900460ff16158015612c8d576000805460ff1961ff0019909116610100171660011790555b612c9561302c565b612beb6131a4565b6038805460ff191660ff92909216919091179055565b600082821115612d0a576040805162461bcd60e51b815260206004820152601e60248201527f536166654d6174683a207375627472616374696f6e206f766572666c6f770000604482015290519081900360640190fd5b50900390565b6000806000612d1f868661324f565b9150915060008480612d2d57fe5b868809905082811115612d41576001820391505b918290039181612d5f57848381612d5457fe5b049350505050610cca565b848210612db3576040805162461bcd60e51b815260206004820152601a60248201527f46756c6c4d6174683a2046554c4c4449565f4f564552464c4f57000000000000604482015290519081900360640190fd5b612dbe83838761327c565b979650505050505050565b612dd16112e9565b15612e09576040805162461bcd60e51b815260206004820152600360248201526253543760e81b604482015290519081900360640190fd5b612e14838383612b49565b6000612e1f84611b39565b90506000612e2c84611b39565b905081612e6357612e3c85612792565b5080612e5157612e4b84612792565b50612e5e565b612e5a84612307565b5050505b611dfa565b612e6c85612307565b50505080612e8357612e7d84612792565b50611dfa565b612e8c84612307565b5050505050505050565b60009081526001919091016020526040902054151590565b6000612eba8383612e96565b612ef057508154600181810184556000848152602080822090930184905584548482528286019093526040902091909155610b62565b506000610b62565b60008181526001830160205260408120548015612fb45783546000198083019190810190600090879083908110612f2b57fe5b9060005260206000200154905080876000018481548110612f4857fe5b600091825260208083209091019290925582815260018981019092526040902090840190558654879080612f7857fe5b60019003818190600052602060002001600090559055866001016000878152602001908152602001600020600090556001945050505050610b62565b6000915050610b62565b815460009082106130005760405162461bcd60e51b815260040180806020018281038252602281526020018061338e6022913960400191505060405180910390fd5b82600001828154811061300f57fe5b9060005260206000200154905092915050565b5490565b3b151590565b600054610100900460ff16806130455750613045612a87565b80613053575060005460ff16155b61308e5760405162461bcd60e51b815260040180806020018281038252602e81526020018061349c602e913960400191505060405180910390fd5b600054610100900460ff16158015612beb576000805460ff1961ff0019909116610100171660011790558015612bfd576000805461ff001916905550565b600054610100900460ff16806130e557506130e5612a87565b806130f3575060005460ff16155b61312e5760405162461bcd60e51b815260040180806020018281038252602e81526020018061349c602e913960400191505060405180910390fd5b600054610100900460ff16158015613159576000805460ff1961ff0019909116610100171660011790555b825161316c9060369060208601906132ec565b5081516131809060379060208501906132ec565b506038805460ff191660121790558015612b49576000805461ff0019169055505050565b600054610100900460ff16806131bd57506131bd612a87565b806131cb575060005460ff16155b6132065760405162461bcd60e51b815260040180806020018281038252602e81526020018061349c602e913960400191505060405180910390fd5b600054610100900460ff16158015613231576000805460ff1961ff0019909116610100171660011790555b6065805460ff191690558015612bfd576000805461ff001916905550565b6000808060001984860990508385029250828103915082811015613274576001820391505b509250929050565b6000818103821680838161328c57fe5b04925080858161329857fe5b0494508081600003816132a757fe5b60028581038087028203028087028203028087028203028087028203028087028203028087028203029586029003909402930460010193909302939093010292915050565b828054600181600116156101000203166002900490600052602060002090601f0160209004810192826133225760008555613368565b82601f1061333b57805160ff1916838001178555613368565b82800160010185558215613368579182015b8281111561336857825182559160200191906001019061334d565b50613374929150613378565b5090565b5b80821115613374576000815560010161337956fe456e756d657261626c655365743a20696e646578206f7574206f6620626f756e647345524332303a207472616e7366657220746f20746865207a65726f2061646472657373416363657373436f6e74726f6c3a2073656e646572206d75737420626520616e2061646d696e20746f206772616e7445524332303a206275726e20616d6f756e7420657863656564732062616c616e636545524332303a20617070726f766520746f20746865207a65726f206164647265737345524332303a207472616e7366657220616d6f756e7420657863656564732062616c616e6365416363657373436f6e74726f6c3a2073656e646572206d75737420626520616e2061646d696e20746f207265766f6b65496e697469616c697a61626c653a20636f6e747261637420697320616c726561647920696e697469616c697a6564536166654d6174683a206d756c7469706c69636174696f6e206f766572666c6f7745524332303a207472616e7366657220616d6f756e74206578636565647320616c6c6f77616e636565d7a28e3265b37a6474929f336521b332c1681b933f6cb9f3376673440d862a45524332303a206275726e2066726f6d20746865207a65726f206164647265737345524332303a207472616e736665722066726f6d20746865207a65726f206164647265737345524332303a20617070726f76652066726f6d20746865207a65726f206164647265737345524332303a2064656372656173656420616c6c6f77616e63652062656c6f77207a65726f416363657373436f6e74726f6c3a2063616e206f6e6c792072656e6f756e636520726f6c657320666f722073656c66a2646970667358221220ed022a7d7f9654a143a8f7e5837cf0a021aa35ef8abe5ed1d6353ff32399f94164736f6c63430007060033",
  "immutableReferences": {},
  "source": "/*\n Copyright [2019] - [2021], PERSISTENCE TECHNOLOGIES PTE. LTD. and the pStake-smartContracts contributors\n SPDX-License-Identifier: Apache-2.0\n*/\n\npragma solidity >=0.7.0;\n\nimport \"@openzeppelin/contracts-upgradeable/token/ERC20/ERC20Upgradeable.sol\";\nimport \"@openzeppelin/contracts-upgradeable/math/SafeMathUpgradeable.sol\";\nimport \"@openzeppelin/contracts-upgradeable/utils/PausableUpgradeable.sol\";\nimport \"@openzeppelin/contracts-upgradeable/utils/EnumerableSetUpgradeable.sol\";\nimport \"@openzeppelin/contracts-upgradeable/access/AccessControlUpgradeable.sol\";\nimport \"./interfaces/ISTokensV3.sol\";\nimport \"./interfaces/IUTokensV2.sol\";\nimport \"./interfaces/IHolderV2.sol\";\nimport \"./libraries/FullMath.sol\";\n\ncontract STokensV4 is\nERC20Upgradeable,\nISTokensV3,\nPausableUpgradeable,\nAccessControlUpgradeable\n{\n    using SafeMathUpgradeable for uint256;\n    using FullMath for uint256;\n    using EnumerableSetUpgradeable for EnumerableSetUpgradeable.AddressSet;\n\n    // constants defining access control ROLES\n    bytes32 public constant PAUSER_ROLE = keccak256(\"PAUSER_ROLE\");\n\n    // variables pertaining to holder logic for whitelisted addresses & StakeLP\n    // deposit contract address for STokens in a DeFi product\n    EnumerableSetUpgradeable.AddressSet private _whitelistedAddresses;\n    // Holder contract address for this whitelisted contract. Many can point to one Holder contract\n    mapping(address => address) public _holderContractAddress;\n    // LP Token contract address which might be different from whitelisted contract\n    mapping(address => address) public _lpContractAddress;\n    // last timestamp when the holder reward calculation was performed for updating reward pool\n    mapping(address => uint256) public _lastHolderRewardTimestamp;\n\n    // _liquidStakingContract address does the mint and burn of STokens\n    address public _liquidStakingContract;\n\n    // _uTokens variable is used to do mint of UTokens\n    IUTokensV2 public _uTokens;\n\n    // variables pertaining to moving reward rate logic\n    uint256[] private _rewardRate;\n    uint256[] private _lastMovingRewardTimestamp;\n    uint256 public _valueDivisor;\n    mapping(address => uint256) public _lastUserRewardTimestamp;\n\n    // variable pertaining to contract upgrades versioning\n    uint256 public _version;\n    // required to store the whitelisting holder logic data initiated from WhitelistedEmission contract\n    address public _whitelistedPTokenEmissionContract;\n\n    //migration admin contract address\n    address public _migrationAdminContract;\n\n    /**\n     * @dev Constructor for initializing the SToken contract.\n\t * @param uaddress - address of the UToken contract.\n\t * @param pauserAddress - address of the pauser admin.\n\t * @param rewardRate - set to rewardRate * 10^-5\n\t * @param valueDivisor - valueDivisor set to 10^9.\n\t */\n    function initialize(\n        address uaddress,\n        address pauserAddress,\n        uint256 rewardRate,\n        uint256 valueDivisor\n    ) public virtual initializer {\n        __ERC20_init(\"pSTAKE Staked ATOM\", \"stkATOM\");\n        __AccessControl_init();\n        __Pausable_init();\n        _setupRole(DEFAULT_ADMIN_ROLE, _msgSender());\n        _setupRole(PAUSER_ROLE, pauserAddress);\n        setUTokensContract(uaddress);\n        _valueDivisor = valueDivisor;\n        require(rewardRate <= _valueDivisor.mul(100), \"ST1\");\n        _rewardRate.push(rewardRate);\n        _lastMovingRewardTimestamp.push(block.timestamp);\n        _setupDecimals(6);\n    }\n\n    /**\n     * @dev Calculate pending rewards for the provided 'address'. The rate is the moving reward rate.\n\t * @param whitelistedAddress: whitelisted contract address\n\t */\n    function isContractWhitelisted(address whitelistedAddress)\n    public\n    view\n    virtual\n    override\n    returns (bool result)\n    {\n        result = _whitelistedAddresses.contains(whitelistedAddress);\n        return result;\n    }\n\n    /**\n     * @dev Calculate pending rewards for the provided 'address'. The rate is the moving reward rate.\n\t * @param whitelistedAddress: contract address\n\t */\n    function getWhitelistData(address whitelistedAddress)\n    public\n    view\n    virtual\n    override\n    returns (\n        address holderAddress,\n        address lpAddress,\n        address uTokenAddress,\n        uint256 lastHolderRewardTimestamp\n    )\n    {\n        // Get the time in number of blocks\n        holderAddress = _holderContractAddress[whitelistedAddress];\n        lpAddress = _lpContractAddress[whitelistedAddress];\n        lastHolderRewardTimestamp = _lastHolderRewardTimestamp[\n        whitelistedAddress\n        ];\n        uTokenAddress = (holderAddress == address(0) || lpAddress == address(0))\n        ? address(0)\n        : address(_uTokens);\n    }\n\n    /**\n     * @dev get reward rate and value divisor\n\t */\n    function getUTokenAddress()\n    public\n    view\n    virtual\n    override\n    returns (address uTokenAddress)\n    {\n        uTokenAddress = address(_uTokens);\n    }\n\n    /*\n     * @dev set reward rate called by admin\n\t * @param rewardRate: reward rate\n\t *\n\t *\n\t * Requirements:\n\t *\n\t * - `rate` cannot be less than or equal to zero.\n\t *\n\t */\n    function setRewardRate(uint256 rewardRate)\n    public\n    virtual\n    override\n    returns (bool success)\n    {\n        // range checks for rewardRate. Since rewardRate cannot be more than 100%, the max cap\n        // is _valueDivisor * 100, which then brings the fees to 100 (percentage)\n        require(rewardRate <= _valueDivisor.mul(100), \"ST18\");\n        require(hasRole(DEFAULT_ADMIN_ROLE, _msgSender()), \"ST2\");\n        _rewardRate.push(rewardRate);\n        _lastMovingRewardTimestamp.push(block.timestamp);\n        emit SetRewardRate(rewardRate);\n\n        return true;\n    }\n\n    /**\n     * @dev get reward rate and value divisor\n\t */\n    function getRewardRate()\n    public\n    view\n    virtual\n    override\n    returns (\n        uint256[] memory rewardRate,\n        uint256[] memory lastMovingRewardTimestamp,\n        uint256 valueDivisor\n    )\n    {\n        rewardRate = _rewardRate;\n        lastMovingRewardTimestamp = _lastMovingRewardTimestamp;\n        valueDivisor = _valueDivisor;\n    }\n\n    /**\n     * @dev Mint new stokens for the provided 'address' and 'tokens'\n\t * @param to: account address, tokens: number of tokens\n\t *\n\t * Emits a {MintTokens} event with 'to' set to address and 'tokens' set to amount of tokens.\n\t *\n\t * Requirements:\n\t *\n\t * - `amount` cannot be less than zero.\n\t *\n\t */\n    function mint(address to, uint256 tokens)\n    public\n    virtual\n    override\n    returns (bool)\n    {\n        require(_msgSender() == _liquidStakingContract, \"ST3\");\n        _mint(to, tokens);\n        return true;\n    }\n\n    /*\n     * @dev Burn stokens for the provided 'address' and 'tokens'\n\t * @param to: account address, tokens: number of tokens\n\t *\n\t * Emits a {BurnTokens} event with 'to' set to address and 'tokens' set to amount of tokens.\n\t *\n\t * Requirements:\n\t *\n\t * - `amount` cannot be less than zero.\n\t *\n\t */\n    function burn(address from, uint256 tokens)\n    public\n    virtual\n    override\n    returns (bool)\n    {\n        require(_msgSender() == _liquidStakingContract || _msgSender() == _migrationAdminContract, \"ST4\");\n        _burn(from, tokens);\n        return true;\n    }\n\n    /**\n     * @dev Calculate pending rewards from the provided 'principal' & 'lastRewardTimestamp'. The rate is the moving reward rate.\n\t * @param principal: principal amount\n\t * @param lastRewardTimestamp: timestamp of last reward calculation performed\n\t */\n    function _calculatePendingRewards(\n        uint256 principal,\n        uint256 lastRewardTimestamp\n    ) internal view returns (uint256 pendingRewards) {\n        uint256 _index;\n        uint256 _rewardBlocks;\n        uint256 _simpleInterestOfInterval;\n        uint256 _temp;\n        // return 0 if principal or timeperiod is zero\n        if (principal == 0 || block.timestamp.sub(lastRewardTimestamp) == 0)\n            return 0;\n        // calculate rewards for each interval period between rewardRate changes\n        uint256 _lastMovingRewardLength = _lastMovingRewardTimestamp.length.sub(\n            1\n        );\n        for (_index = _lastMovingRewardLength; _index >= 0; ) {\n            // logic applies for all indexes of array except last index\n            if (_index < _lastMovingRewardTimestamp.length.sub(1)) {\n                if (_lastMovingRewardTimestamp[_index] > lastRewardTimestamp) {\n                    _rewardBlocks = (_lastMovingRewardTimestamp[_index.add(1)])\n                    .sub(_lastMovingRewardTimestamp[_index]);\n                    _temp = principal.mulDiv(_rewardRate[_index], 100);\n                    _simpleInterestOfInterval = _temp.mulDiv(\n                        _rewardBlocks,\n                        _valueDivisor\n                    );\n                    pendingRewards = pendingRewards.add(\n                        _simpleInterestOfInterval\n                    );\n                } else {\n                    _rewardBlocks = (_lastMovingRewardTimestamp[_index.add(1)])\n                    .sub(lastRewardTimestamp);\n                    _temp = principal.mulDiv(_rewardRate[_index], 100);\n                    _simpleInterestOfInterval = _temp.mulDiv(\n                        _rewardBlocks,\n                        _valueDivisor\n                    );\n                    pendingRewards = pendingRewards.add(\n                        _simpleInterestOfInterval\n                    );\n                    break;\n                }\n            }\n            // logic applies only for the last index of array\n            else {\n                if (_lastMovingRewardTimestamp[_index] > lastRewardTimestamp) {\n                    _rewardBlocks = (block.timestamp).sub(\n                        _lastMovingRewardTimestamp[_index]\n                    );\n                    _temp = principal.mulDiv(_rewardRate[_index], 100);\n                    _simpleInterestOfInterval = _temp.mulDiv(\n                        _rewardBlocks,\n                        _valueDivisor\n                    );\n                    pendingRewards = pendingRewards.add(\n                        _simpleInterestOfInterval\n                    );\n                } else {\n                    _rewardBlocks = (block.timestamp).sub(lastRewardTimestamp);\n                    _temp = principal.mulDiv(_rewardRate[_index], 100);\n                    _simpleInterestOfInterval = _temp.mulDiv(\n                        _rewardBlocks,\n                        _valueDivisor\n                    );\n                    pendingRewards = pendingRewards.add(\n                        _simpleInterestOfInterval\n                    );\n                    break;\n                }\n            }\n\n            if (_index == 0) break;\n            else {\n                _index = _index.sub(1);\n            }\n        }\n        return pendingRewards;\n    }\n\n    /**\n     * @dev Calculate pending rewards for the provided 'address'. The rate is the moving reward rate.\n\t * @param to: account address\n\t */\n    function calculatePendingRewards(address to)\n    public\n    view\n    virtual\n    override\n    returns (uint256 pendingRewards)\n    {\n        // Get the time in number of blocks\n        uint256 _lastRewardTimestamp = _lastUserRewardTimestamp[to];\n        // Get the balance of the account\n        uint256 _balance = balanceOf(to);\n        // calculate pending rewards using _calculatePendingRewards\n        pendingRewards = _calculatePendingRewards(\n            _balance,\n            _lastRewardTimestamp\n        );\n\n        return pendingRewards;\n    }\n\n    /**\n     * @dev Calculate rewards for the provided 'address'\n\t * @param to: account address\n\t */\n    function _calculateRewards(address to) internal returns (uint256 _reward) {\n        // keep an if condition to check for address(0), instead of require condition, because address(0) is\n        // a valid condition when it is a mint/burn operation\n        if (to != address(0)) {\n            // Calculate the rewards pending\n            _reward = calculatePendingRewards(to);\n\n            // Set the new stakedBlock to the current,\n            // as per Checks-Effects-Interactions pattern\n            _lastUserRewardTimestamp[to] = block.timestamp;\n\n            // mint uTokens only if reward is greater than zero\n            if (_reward > 0) {\n                // Mint new uTokens and send to the callers account\n                _uTokens.mint(to, _reward);\n                emit CalculateRewards(to, _reward, block.timestamp);\n            }\n        }\n        return _reward;\n    }\n\n    /**\n     * @dev Calculate rewards for the provided 'address'\n\t * @param to: account address\n\t *\n\t * Emits a {TriggeredCalculateRewards} event with 'to' set to address, 'reward' set to amount of tokens and 'timestamp'\n\t *\n\t */\n    function calculateRewards(address to)\n    public\n    virtual\n    override\n    whenNotPaused\n    returns (uint256 reward)\n    {\n        bool isContractWhitelistedLocal = _whitelistedAddresses.contains(to);\n        require(to == _msgSender() || _migrationAdminContract == _msgSender() && !isContractWhitelistedLocal, \"ST5\");\n        reward = _calculateRewards(to);\n        emit TriggeredCalculateRewards(to, reward, block.timestamp);\n        return reward;\n    }\n\n    /**\n     * @dev Calculate rewards for the provided 'holder address'\n\t * @param to: holder address\n\t */\n    function _calculateHolderRewards(address to)\n    internal\n    returns (\n        uint256 rewards,\n        address holderAddress,\n        address lpTokenAddress\n    )\n    {\n        require(\n            _whitelistedAddresses.contains(to) &&\n            _holderContractAddress[to] != address(0) &&\n            _lpContractAddress[to] != address(0),\n            \"ST6\"\n        );\n\n        (\n        rewards,\n        holderAddress,\n        lpTokenAddress\n        ) = calculatePendingHolderRewards(to);\n\n        // update the last timestamp of reward pool to the current time as per Checks-Effects-Interactions pattern\n        _lastHolderRewardTimestamp[to] = block.timestamp;\n\n        // Mint new uTokens and send to the holder contract account as updated reward pool\n        if (rewards > 0) {\n            _uTokens.mint(holderAddress, rewards);\n        }\n\n        emit CalculateHolderRewards(\n            to,\n            address(this),\n            rewards,\n            block.timestamp\n        );\n    }\n\n    /**\n     * @dev Calculate pending rewards for the provided 'address'. The rate is the moving reward rate.\n\t * @param to: account address\n\t */\n    function calculatePendingHolderRewards(address to)\n    public\n    view\n    virtual\n    override\n    returns (\n        uint256 pendingRewards,\n        address holderAddress,\n        address lpAddress\n    )\n    {\n        // holderContract and lpContract (lp token contract) need to be validated together because\n        // it might not be practical to setup holder to collect reward pool but not StakeLP to distribute reward\n        // since the reward distribution calculation starts the minute reward pool is created\n        if (\n            _whitelistedAddresses.contains(to) &&\n            _holderContractAddress[to] != address(0) &&\n            _lpContractAddress[to] != address(0)\n        ) {\n            uint256 _sTokenSupply = IHolderV2(_holderContractAddress[to])\n            .getSTokenSupply(to, address(this));\n\n            // calculate the reward applying the moving reward rate\n            if (_sTokenSupply > 0) {\n                pendingRewards = _calculatePendingRewards(\n                    _sTokenSupply,\n                    _lastHolderRewardTimestamp[to]\n                );\n                holderAddress = _holderContractAddress[to];\n                lpAddress = _lpContractAddress[to];\n            }\n        }\n    }\n\n    /**\n     * @dev Calculate rewards for the provided 'address'\n\t * @param to: account address\n\t *\n\t * Emits a {TriggeredCalculateRewards} event with 'to' set to address, 'reward' set to amount of tokens and 'timestamp'\n\t *\n\t */\n    function calculateHolderRewards(address to)\n    public\n    virtual\n    override\n    whenNotPaused\n    returns (\n        uint256 rewards,\n        address holderAddress,\n        address lpTokenAddress\n    )\n    {\n        (rewards, holderAddress, lpTokenAddress) = _calculateHolderRewards(to);\n        emit TriggeredCalculateHolderRewards(\n            to,\n            address(this),\n            rewards,\n            block.timestamp\n        );\n    }\n\n    /**\n     * @dev Hook that is called before any transfer of tokens. This includes\n\t * minting and burning.\n\t *\n\t * Calling conditions:\n\t *\n\t * - when `from` and `to` are both non-zero, `amount` of ``from``'s tokens\n\t * will be to transferred to `to`.\n\t * - when `from` is zero, `amount` tokens will be minted for `to`.\n\t * - when `to` is zero, `amount` of ``from``'s tokens will be burned.\n\t * - `from` and `to` are never both zero.\n\t *\n\t */\n    function _beforeTokenTransfer(\n        address from,\n        address to,\n        uint256 amount\n    ) internal virtual override {\n        require(!paused(), \"ST7\");\n        super._beforeTokenTransfer(from, to, amount);\n        bool isFromContractWhitelisted = isContractWhitelisted(from);\n        bool isToContractWhitelisted = isContractWhitelisted(to);\n\n        if (!isFromContractWhitelisted) {\n            _calculateRewards(from);\n            if (!isToContractWhitelisted) {\n                _calculateRewards(to);\n            } else {\n                _calculateHolderRewards(to);\n            }\n        } else {\n            _calculateHolderRewards(from);\n            if (!isToContractWhitelisted) {\n                _calculateRewards(to);\n            } else {\n                _calculateHolderRewards(to);\n            }\n        }\n    }\n\n    /*\n     * @dev Set 'contract address', called from constructor\n\t * @param uTokenContract: utoken contract address\n\t *\n\t * Emits a {SetUTokensContract} event with '_contract' set to the utoken contract address.\n\t *\n\t */\n    function setWhitelistedPTokenEmissionContract(\n        address whitelistedPTokenEmissionContract\n    ) public virtual override {\n        require(hasRole(DEFAULT_ADMIN_ROLE, _msgSender()), \"ST11\");\n        _whitelistedPTokenEmissionContract = whitelistedPTokenEmissionContract;\n        emit SetWhitelistedPTokenEmissionContract(\n            whitelistedPTokenEmissionContract\n        );\n    }\n\n    /*\n     * @dev Set 'whitelisted address', performed by admin only\n\t * @param whitelistedAddress: contract address of the whitelisted party\n\t *\n\t * Emits a {setWhitelistedAddress} event\n\t *\n\t */\n    function setWhitelistedAddress(\n        address whitelistedAddress,\n        address holderContractAddress,\n        address lpContractAddress\n    ) public virtual override returns (bool success) {\n        require(_msgSender() == _whitelistedPTokenEmissionContract, \"ST12\");\n        // lpTokenERC20ContractAddress or sTokenReserveContractAddress can be address(0) but not whitelistedAddress\n        require(whitelistedAddress != address(0), \"ST13\");\n        // add the whitelistedAddress if it isn't already available\n        if (!_whitelistedAddresses.contains(whitelistedAddress))\n            _whitelistedAddresses.add(whitelistedAddress);\n        // add the contract addresses to holder mapping variable\n        _holderContractAddress[whitelistedAddress] = holderContractAddress;\n        _lpContractAddress[whitelistedAddress] = lpContractAddress;\n\n        emit SetWhitelistedAddress(\n            whitelistedAddress,\n            holderContractAddress,\n            lpContractAddress,\n            block.timestamp\n        );\n        success = true;\n        return success;\n    }\n\n    /*\n     * @dev remove 'whitelisted address', performed by admin only\n\t * @param whitelistedAddress: contract address of the whitelisted party\n\t * @param holderContractAddress: holder contract address of the corresponding whitelistedAddress\n\t *\n\t * Emits a {RemoveWhitelistedAddress} event\n\t *\n\t */\n    function removeWhitelistedAddress(address whitelistedAddress)\n    public\n    virtual\n    override\n    returns (bool success)\n    {\n        require(_msgSender() == _whitelistedPTokenEmissionContract, \"ST14\");\n        require(whitelistedAddress != address(0), \"ST15\");\n        // remove whitelistedAddress from the list\n        _whitelistedAddresses.remove(whitelistedAddress);\n\n        // emit an event\n        emit RemoveWhitelistedAddress(\n            whitelistedAddress,\n            _holderContractAddress[whitelistedAddress],\n            _lpContractAddress[whitelistedAddress],\n            _lastHolderRewardTimestamp[whitelistedAddress],\n            block.timestamp\n        );\n\n        // delete holder contract values\n        delete _holderContractAddress[whitelistedAddress];\n        delete _lpContractAddress[whitelistedAddress];\n        delete _lastHolderRewardTimestamp[whitelistedAddress];\n\n        success = true;\n        return success;\n    }\n\n    /*\n     * @dev Set 'contract address', called from constructor\n\t * @param uTokenContract: utoken contract address\n\t *\n\t * Emits a {SetUTokensContract} event with '_contract' set to the utoken contract address.\n\t *\n\t */\n    function setUTokensContract(address uTokenContract)\n    public\n    virtual\n    override\n    {\n        require(hasRole(DEFAULT_ADMIN_ROLE, _msgSender()), \"ST8\");\n        _uTokens = IUTokensV2(uTokenContract);\n        emit SetUTokensContract(uTokenContract);\n    }\n\n    /*\n     * @dev Set 'contract address', called from constructor\n\t * @param liquidStakingContract: liquidStaking contract address\n\t *\n\t * Emits a {SetLiquidStakingContract} event with '_contract' set to the liquidStaking contract address.\n\t *\n\t */\n    function setLiquidStakingContract(address liquidStakingContract)\n    public\n    virtual\n    override\n    {\n        require(hasRole(DEFAULT_ADMIN_ROLE, _msgSender()), \"ST9\");\n        _liquidStakingContract = liquidStakingContract;\n        emit SetLiquidStakingContract(liquidStakingContract);\n    }\n\n    /*\n     * @dev Set 'contract address', called from constructor\n\t * @param migrationAdminContract: migration admin contract address\n\t *\n\t * Emits a {SetMigrationAdminContract} event with '_contract' set to the migration admin contract address.\n\t *\n\t */\n    function setMigrationAdminContract(address migrationAdminContract)\n    public\n    virtual\n    override\n    {\n        require(hasRole(DEFAULT_ADMIN_ROLE, _msgSender()), \"ST19\");\n        _migrationAdminContract = migrationAdminContract;\n        emit SetMigrationAdminContract(migrationAdminContract);\n    }\n\n    /**\n     * @dev Triggers stopped state.\n\t *\n\t * Requirements:\n\t *\n\t * - The contract must not be paused.\n\t */\n    function pause() public virtual override returns (bool success) {\n        require(hasRole(PAUSER_ROLE, _msgSender()), \"ST16\");\n        _pause();\n        return true;\n    }\n\n    /**\n     * @dev Returns to normal state.\n\t *\n\t * Requirements:\n\t *\n\t * - The contract must be paused.\n\t */\n    function unpause() public virtual override returns (bool success) {\n        require(hasRole(PAUSER_ROLE, _msgSender()), \"ST17\");\n        _unpause();\n        return true;\n    }\n}\n",
  "sourcePath": "/Users/aditimaheshwari/Documents/Work/Persistence/Codebase/persistenceOne/pStake-smartContracts/contracts/STokensV4.sol",
  "compiler": {
    "name": "solc",
    "version": "0.7.6+commit.7338295f.Emscripten.clang"
  },
  "schemaVersion": "3.4.3",
  "updatedAt": "2022-09-14T10:31:29.279Z",
  "networkType": "ethereum",
  "devdoc": {
    "kind": "dev",
    "methods": {
      "allowance(address,address)": {
        "details": "See {IERC20-allowance}."
      },
      "approve(address,uint256)": {
        "details": "See {IERC20-approve}. Requirements: - `spender` cannot be the zero address."
      },
      "balanceOf(address)": {
        "details": "See {IERC20-balanceOf}."
      },
      "burn(address,uint256)": {
        "details": "Burns `amount` tokens to the caller's address `from`. Returns a boolean value indicating whether the operation succeeded. Emits a {Transfer} event."
      },
      "calculateHolderRewards(address)": {
        "details": "Calculate rewards for the provided 'address'",
        "params": {
          "to": ": account address Emits a {TriggeredCalculateRewards} event with 'to' set to address, 'reward' set to amount of tokens and 'timestamp'"
        }
      },
      "calculatePendingHolderRewards(address)": {
        "details": "Calculate pending rewards for the provided 'address'. The rate is the moving reward rate.",
        "params": {
          "to": ": account address"
        }
      },
      "calculatePendingRewards(address)": {
        "details": "Calculate pending rewards for the provided 'address'. The rate is the moving reward rate.",
        "params": {
          "to": ": account address"
        }
      },
      "calculateRewards(address)": {
        "details": "Calculate rewards for the provided 'address'",
        "params": {
          "to": ": account address Emits a {TriggeredCalculateRewards} event with 'to' set to address, 'reward' set to amount of tokens and 'timestamp'"
        }
      },
      "decimals()": {
        "details": "Returns the number of decimals used to get its user representation. For example, if `decimals` equals `2`, a balance of `505` tokens should be displayed to a user as `5,05` (`505 / 10 ** 2`). Tokens usually opt for a value of 18, imitating the relationship between Ether and Wei. This is the value {ERC20} uses, unless {_setupDecimals} is called. NOTE: This information is only used for _display_ purposes: it in no way affects any of the arithmetic of the contract, including {IERC20-balanceOf} and {IERC20-transfer}."
      },
      "decreaseAllowance(address,uint256)": {
        "details": "Atomically decreases the allowance granted to `spender` by the caller. This is an alternative to {approve} that can be used as a mitigation for problems described in {IERC20-approve}. Emits an {Approval} event indicating the updated allowance. Requirements: - `spender` cannot be the zero address. - `spender` must have allowance for the caller of at least `subtractedValue`."
      },
      "getRewardRate()": {
        "details": "get reward rate and value divisor"
      },
      "getRoleAdmin(bytes32)": {
        "details": "Returns the admin role that controls `role`. See {grantRole} and {revokeRole}. To change a role's admin, use {_setRoleAdmin}."
      },
      "getRoleMember(bytes32,uint256)": {
        "details": "Returns one of the accounts that have `role`. `index` must be a value between 0 and {getRoleMemberCount}, non-inclusive. Role bearers are not sorted in any particular way, and their ordering may change at any point. WARNING: When using {getRoleMember} and {getRoleMemberCount}, make sure you perform all queries on the same block. See the following https://forum.openzeppelin.com/t/iterating-over-elements-on-enumerableset-in-openzeppelin-contracts/2296[forum post] for more information."
      },
      "getRoleMemberCount(bytes32)": {
        "details": "Returns the number of accounts that have `role`. Can be used together with {getRoleMember} to enumerate all bearers of a role."
      },
      "getUTokenAddress()": {
        "details": "get reward rate and value divisor"
      },
      "getWhitelistData(address)": {
        "details": "Calculate pending rewards for the provided 'address'. The rate is the moving reward rate.",
        "params": {
          "whitelistedAddress": ": contract address"
        }
      },
      "grantRole(bytes32,address)": {
        "details": "Grants `role` to `account`. If `account` had not been already granted `role`, emits a {RoleGranted} event. Requirements: - the caller must have ``role``'s admin role."
      },
      "hasRole(bytes32,address)": {
        "details": "Returns `true` if `account` has been granted `role`."
      },
      "increaseAllowance(address,uint256)": {
        "details": "Atomically increases the allowance granted to `spender` by the caller. This is an alternative to {approve} that can be used as a mitigation for problems described in {IERC20-approve}. Emits an {Approval} event indicating the updated allowance. Requirements: - `spender` cannot be the zero address."
      },
      "initialize(address,address,uint256,uint256)": {
        "details": "Constructor for initializing the SToken contract.",
        "params": {
          "pauserAddress": "- address of the pauser admin.",
          "rewardRate": "- set to rewardRate * 10^-5",
          "uaddress": "- address of the UToken contract.",
          "valueDivisor": "- valueDivisor set to 10^9."
        }
      },
      "isContractWhitelisted(address)": {
        "details": "Calculate pending rewards for the provided 'address'. The rate is the moving reward rate.",
        "params": {
          "whitelistedAddress": ": whitelisted contract address"
        }
      },
      "mint(address,uint256)": {
        "details": "Mint new stokens for the provided 'address' and 'tokens'",
        "params": {
          "to": ": account address, tokens: number of tokens Emits a {MintTokens} event with 'to' set to address and 'tokens' set to amount of tokens. Requirements: - `amount` cannot be less than zero."
        }
      },
      "name()": {
        "details": "Returns the name of the token."
      },
      "pause()": {
        "details": "Triggers stopped state. Requirements: - The contract must not be paused."
      },
      "paused()": {
        "details": "Returns true if the contract is paused, and false otherwise."
      },
      "renounceRole(bytes32,address)": {
        "details": "Revokes `role` from the calling account. Roles are often managed via {grantRole} and {revokeRole}: this function's purpose is to provide a mechanism for accounts to lose their privileges if they are compromised (such as when a trusted device is misplaced). If the calling account had been granted `role`, emits a {RoleRevoked} event. Requirements: - the caller must be `account`."
      },
      "revokeRole(bytes32,address)": {
        "details": "Revokes `role` from `account`. If `account` had been granted `role`, emits a {RoleRevoked} event. Requirements: - the caller must have ``role``'s admin role."
      },
      "setLiquidStakingContract(address)": {
        "details": "Set LiquidStaking smart contract."
      },
      "setMigrationAdminContract(address)": {
        "details": "Set migration admin smart contract."
      },
      "setRewardRate(uint256)": {
        "details": "Sets `reward rate`. Returns a boolean value indicating whether the operation succeeded."
      },
      "setUTokensContract(address)": {
        "details": "Set UTokens smart contract. Emits a {SetContract} event."
      },
      "setWhitelistedAddress(address,address,address)": {
        "details": "Calculates rewards `amount` tokens to the caller's address `to`. Returns a boolean value indicating whether the operation succeeded. Emits a {TriggeredCalculateRewards} event."
      },
      "setWhitelistedPTokenEmissionContract(address)": {
        "details": "Emitted when contract addresses are set"
      },
      "symbol()": {
        "details": "Returns the symbol of the token, usually a shorter version of the name."
      },
      "totalSupply()": {
        "details": "See {IERC20-totalSupply}."
      },
      "transfer(address,uint256)": {
        "details": "See {IERC20-transfer}. Requirements: - `recipient` cannot be the zero address. - the caller must have a balance of at least `amount`."
      },
      "transferFrom(address,address,uint256)": {
        "details": "See {IERC20-transferFrom}. Emits an {Approval} event indicating the updated allowance. This is not required by the EIP. See the note at the beginning of {ERC20}. Requirements: - `sender` and `recipient` cannot be the zero address. - `sender` must have a balance of at least `amount`. - the caller must have allowance for ``sender``'s tokens of at least `amount`."
      },
      "unpause()": {
        "details": "Returns to normal state. Requirements: - The contract must be paused."
      }
    },
    "version": 1
  },
  "userdoc": {
    "kind": "user",
    "methods": {},
    "version": 1
  }
}