{
  "contractName": "STokens",
  "abi": [
    {
      "anonymous": false,
      "inputs": [
        {
          "indexed": true,
          "internalType": "address",
          "name": "owner",
          "type": "address"
        },
        {
          "indexed": true,
          "internalType": "address",
          "name": "spender",
          "type": "address"
        },
        {
          "indexed": false,
          "internalType": "uint256",
          "name": "value",
          "type": "uint256"
        }
      ],
      "name": "Approval",
      "type": "event"
    },
    {
      "anonymous": false,
      "inputs": [
        {
          "indexed": true,
          "internalType": "address",
          "name": "accountAddress",
          "type": "address"
        },
        {
          "indexed": false,
          "internalType": "uint256",
          "name": "tokens",
          "type": "uint256"
        },
        {
          "indexed": false,
          "internalType": "uint256",
          "name": "timestamp",
          "type": "uint256"
        }
      ],
      "name": "CalculateHolderRewards",
      "type": "event"
    },
    {
      "anonymous": false,
      "inputs": [
        {
          "indexed": true,
          "internalType": "address",
          "name": "accountAddress",
          "type": "address"
        },
        {
          "indexed": false,
          "internalType": "uint256",
          "name": "tokens",
          "type": "uint256"
        },
        {
          "indexed": false,
          "internalType": "uint256",
          "name": "finalTokens",
          "type": "uint256"
        },
        {
          "indexed": false,
          "internalType": "uint256",
          "name": "timestamp",
          "type": "uint256"
        }
      ],
      "name": "CalculateRewards",
      "type": "event"
    },
    {
      "anonymous": false,
      "inputs": [
        {
          "indexed": true,
          "internalType": "address",
          "name": "whitelistedAddress",
          "type": "address"
        },
        {
          "indexed": true,
          "internalType": "address",
          "name": "accountAddress",
          "type": "address"
        },
        {
          "indexed": false,
          "internalType": "uint256",
          "name": "timestamp",
          "type": "uint256"
        }
      ],
      "name": "GenerateHolderRewards",
      "type": "event"
    },
    {
      "anonymous": false,
      "inputs": [
        {
          "indexed": false,
          "internalType": "address",
          "name": "account",
          "type": "address"
        }
      ],
      "name": "Paused",
      "type": "event"
    },
    {
      "anonymous": false,
      "inputs": [
        {
          "indexed": true,
          "internalType": "address",
          "name": "whitelistedAddress",
          "type": "address"
        },
        {
          "indexed": false,
          "internalType": "address",
          "name": "holderContractAddress",
          "type": "address"
        },
        {
          "indexed": false,
          "internalType": "uint256",
          "name": "timestamp",
          "type": "uint256"
        }
      ],
      "name": "RemoveWhitelistedAddress",
      "type": "event"
    },
    {
      "anonymous": false,
      "inputs": [
        {
          "indexed": true,
          "internalType": "bytes32",
          "name": "role",
          "type": "bytes32"
        },
        {
          "indexed": true,
          "internalType": "bytes32",
          "name": "previousAdminRole",
          "type": "bytes32"
        },
        {
          "indexed": true,
          "internalType": "bytes32",
          "name": "newAdminRole",
          "type": "bytes32"
        }
      ],
      "name": "RoleAdminChanged",
      "type": "event"
    },
    {
      "anonymous": false,
      "inputs": [
        {
          "indexed": true,
          "internalType": "bytes32",
          "name": "role",
          "type": "bytes32"
        },
        {
          "indexed": true,
          "internalType": "address",
          "name": "account",
          "type": "address"
        },
        {
          "indexed": true,
          "internalType": "address",
          "name": "sender",
          "type": "address"
        }
      ],
      "name": "RoleGranted",
      "type": "event"
    },
    {
      "anonymous": false,
      "inputs": [
        {
          "indexed": true,
          "internalType": "bytes32",
          "name": "role",
          "type": "bytes32"
        },
        {
          "indexed": true,
          "internalType": "address",
          "name": "account",
          "type": "address"
        },
        {
          "indexed": true,
          "internalType": "address",
          "name": "sender",
          "type": "address"
        }
      ],
      "name": "RoleRevoked",
      "type": "event"
    },
    {
      "anonymous": false,
      "inputs": [
        {
          "indexed": false,
          "internalType": "uint256",
          "name": "rewardFee",
          "type": "uint256"
        }
      ],
      "name": "SetFees",
      "type": "event"
    },
    {
      "anonymous": false,
      "inputs": [
        {
          "indexed": true,
          "internalType": "address",
          "name": "_contract",
          "type": "address"
        }
      ],
      "name": "SetLiquidStakingContract",
      "type": "event"
    },
    {
      "anonymous": false,
      "inputs": [
        {
          "indexed": true,
          "internalType": "address",
          "name": "_contract",
          "type": "address"
        }
      ],
      "name": "SetUTokensContract",
      "type": "event"
    },
    {
      "anonymous": false,
      "inputs": [
        {
          "indexed": true,
          "internalType": "address",
          "name": "from",
          "type": "address"
        },
        {
          "indexed": true,
          "internalType": "address",
          "name": "to",
          "type": "address"
        },
        {
          "indexed": false,
          "internalType": "uint256",
          "name": "value",
          "type": "uint256"
        }
      ],
      "name": "Transfer",
      "type": "event"
    },
    {
      "anonymous": false,
      "inputs": [
        {
          "indexed": true,
          "internalType": "address",
          "name": "accountAddress",
          "type": "address"
        },
        {
          "indexed": false,
          "internalType": "uint256",
          "name": "tokens",
          "type": "uint256"
        },
        {
          "indexed": false,
          "internalType": "uint256",
          "name": "timestamp",
          "type": "uint256"
        }
      ],
      "name": "TriggeredCalculateRewards",
      "type": "event"
    },
    {
      "anonymous": false,
      "inputs": [
        {
          "indexed": false,
          "internalType": "address",
          "name": "account",
          "type": "address"
        }
      ],
      "name": "Unpaused",
      "type": "event"
    },
    {
      "anonymous": false,
      "inputs": [
        {
          "indexed": true,
          "internalType": "address",
          "name": "whitelistedAddress",
          "type": "address"
        },
        {
          "indexed": false,
          "internalType": "address",
          "name": "holderContractAddress",
          "type": "address"
        },
        {
          "indexed": false,
          "internalType": "uint256",
          "name": "timestamp",
          "type": "uint256"
        }
      ],
      "name": "UpdateWhitelistedAddress",
      "type": "event"
    },
    {
      "inputs": [],
      "name": "DEFAULT_ADMIN_ROLE",
      "outputs": [
        {
          "internalType": "bytes32",
          "name": "",
          "type": "bytes32"
        }
      ],
      "stateMutability": "view",
      "type": "function",
      "constant": true
    },
    {
      "inputs": [],
      "name": "PAUSER_ROLE",
      "outputs": [
        {
          "internalType": "bytes32",
          "name": "",
          "type": "bytes32"
        }
      ],
      "stateMutability": "view",
      "type": "function",
      "constant": true
    },
    {
      "inputs": [
        {
          "internalType": "address",
          "name": "owner",
          "type": "address"
        },
        {
          "internalType": "address",
          "name": "spender",
          "type": "address"
        }
      ],
      "name": "allowance",
      "outputs": [
        {
          "internalType": "uint256",
          "name": "",
          "type": "uint256"
        }
      ],
      "stateMutability": "view",
      "type": "function",
      "constant": true
    },
    {
      "inputs": [
        {
          "internalType": "address",
          "name": "spender",
          "type": "address"
        },
        {
          "internalType": "uint256",
          "name": "amount",
          "type": "uint256"
        }
      ],
      "name": "approve",
      "outputs": [
        {
          "internalType": "bool",
          "name": "",
          "type": "bool"
        }
      ],
      "stateMutability": "nonpayable",
      "type": "function"
    },
    {
      "inputs": [
        {
          "internalType": "address",
          "name": "account",
          "type": "address"
        }
      ],
      "name": "balanceOf",
      "outputs": [
        {
          "internalType": "uint256",
          "name": "",
          "type": "uint256"
        }
      ],
      "stateMutability": "view",
      "type": "function",
      "constant": true
    },
    {
      "inputs": [],
      "name": "decimals",
      "outputs": [
        {
          "internalType": "uint8",
          "name": "",
          "type": "uint8"
        }
      ],
      "stateMutability": "view",
      "type": "function",
      "constant": true
    },
    {
      "inputs": [
        {
          "internalType": "address",
          "name": "spender",
          "type": "address"
        },
        {
          "internalType": "uint256",
          "name": "subtractedValue",
          "type": "uint256"
        }
      ],
      "name": "decreaseAllowance",
      "outputs": [
        {
          "internalType": "bool",
          "name": "",
          "type": "bool"
        }
      ],
      "stateMutability": "nonpayable",
      "type": "function"
    },
    {
      "inputs": [
        {
          "internalType": "bytes32",
          "name": "role",
          "type": "bytes32"
        }
      ],
      "name": "getRoleAdmin",
      "outputs": [
        {
          "internalType": "bytes32",
          "name": "",
          "type": "bytes32"
        }
      ],
      "stateMutability": "view",
      "type": "function",
      "constant": true
    },
    {
      "inputs": [
        {
          "internalType": "bytes32",
          "name": "role",
          "type": "bytes32"
        },
        {
          "internalType": "uint256",
          "name": "index",
          "type": "uint256"
        }
      ],
      "name": "getRoleMember",
      "outputs": [
        {
          "internalType": "address",
          "name": "",
          "type": "address"
        }
      ],
      "stateMutability": "view",
      "type": "function",
      "constant": true
    },
    {
      "inputs": [
        {
          "internalType": "bytes32",
          "name": "role",
          "type": "bytes32"
        }
      ],
      "name": "getRoleMemberCount",
      "outputs": [
        {
          "internalType": "uint256",
          "name": "",
          "type": "uint256"
        }
      ],
      "stateMutability": "view",
      "type": "function",
      "constant": true
    },
    {
      "inputs": [
        {
          "internalType": "bytes32",
          "name": "role",
          "type": "bytes32"
        },
        {
          "internalType": "address",
          "name": "account",
          "type": "address"
        }
      ],
      "name": "grantRole",
      "outputs": [],
      "stateMutability": "nonpayable",
      "type": "function"
    },
    {
      "inputs": [
        {
          "internalType": "bytes32",
          "name": "role",
          "type": "bytes32"
        },
        {
          "internalType": "address",
          "name": "account",
          "type": "address"
        }
      ],
      "name": "hasRole",
      "outputs": [
        {
          "internalType": "bool",
          "name": "",
          "type": "bool"
        }
      ],
      "stateMutability": "view",
      "type": "function",
      "constant": true
    },
    {
      "inputs": [
        {
          "internalType": "address",
          "name": "spender",
          "type": "address"
        },
        {
          "internalType": "uint256",
          "name": "addedValue",
          "type": "uint256"
        }
      ],
      "name": "increaseAllowance",
      "outputs": [
        {
          "internalType": "bool",
          "name": "",
          "type": "bool"
        }
      ],
      "stateMutability": "nonpayable",
      "type": "function"
    },
    {
      "inputs": [],
      "name": "name",
      "outputs": [
        {
          "internalType": "string",
          "name": "",
          "type": "string"
        }
      ],
      "stateMutability": "view",
      "type": "function",
      "constant": true
    },
    {
      "inputs": [],
      "name": "paused",
      "outputs": [
        {
          "internalType": "bool",
          "name": "",
          "type": "bool"
        }
      ],
      "stateMutability": "view",
      "type": "function",
      "constant": true
    },
    {
      "inputs": [
        {
          "internalType": "bytes32",
          "name": "role",
          "type": "bytes32"
        },
        {
          "internalType": "address",
          "name": "account",
          "type": "address"
        }
      ],
      "name": "renounceRole",
      "outputs": [],
      "stateMutability": "nonpayable",
      "type": "function"
    },
    {
      "inputs": [
        {
          "internalType": "bytes32",
          "name": "role",
          "type": "bytes32"
        },
        {
          "internalType": "address",
          "name": "account",
          "type": "address"
        }
      ],
      "name": "revokeRole",
      "outputs": [],
      "stateMutability": "nonpayable",
      "type": "function"
    },
    {
      "inputs": [],
      "name": "symbol",
      "outputs": [
        {
          "internalType": "string",
          "name": "",
          "type": "string"
        }
      ],
      "stateMutability": "view",
      "type": "function",
      "constant": true
    },
    {
      "inputs": [],
      "name": "totalSupply",
      "outputs": [
        {
          "internalType": "uint256",
          "name": "",
          "type": "uint256"
        }
      ],
      "stateMutability": "view",
      "type": "function",
      "constant": true
    },
    {
      "inputs": [
        {
          "internalType": "address",
          "name": "recipient",
          "type": "address"
        },
        {
          "internalType": "uint256",
          "name": "amount",
          "type": "uint256"
        }
      ],
      "name": "transfer",
      "outputs": [
        {
          "internalType": "bool",
          "name": "",
          "type": "bool"
        }
      ],
      "stateMutability": "nonpayable",
      "type": "function"
    },
    {
      "inputs": [
        {
          "internalType": "address",
          "name": "sender",
          "type": "address"
        },
        {
          "internalType": "address",
          "name": "recipient",
          "type": "address"
        },
        {
          "internalType": "uint256",
          "name": "amount",
          "type": "uint256"
        }
      ],
      "name": "transferFrom",
      "outputs": [
        {
          "internalType": "bool",
          "name": "",
          "type": "bool"
        }
      ],
      "stateMutability": "nonpayable",
      "type": "function"
    },
    {
      "inputs": [
        {
          "internalType": "address",
          "name": "uaddress",
          "type": "address"
        },
        {
          "internalType": "address",
          "name": "pauserAddress",
          "type": "address"
        },
        {
          "internalType": "uint256",
          "name": "rewardRate",
          "type": "uint256"
        },
        {
          "internalType": "uint256",
          "name": "valueDivisor",
          "type": "uint256"
        }
      ],
      "name": "initialize",
      "outputs": [],
      "stateMutability": "nonpayable",
      "type": "function"
    },
    {
      "inputs": [
        {
          "internalType": "uint256",
          "name": "rewardFee",
          "type": "uint256"
        }
      ],
      "name": "setFees",
      "outputs": [
        {
          "internalType": "bool",
          "name": "success",
          "type": "bool"
        }
      ],
      "stateMutability": "nonpayable",
      "type": "function"
    },
    {
      "inputs": [],
      "name": "getFees",
      "outputs": [
        {
          "internalType": "uint256",
          "name": "rewardFee",
          "type": "uint256"
        }
      ],
      "stateMutability": "view",
      "type": "function",
      "constant": true
    },
    {
      "inputs": [
        {
          "internalType": "uint256",
          "name": "rewardRate",
          "type": "uint256"
        }
      ],
      "name": "setRewardRate",
      "outputs": [
        {
          "internalType": "bool",
          "name": "success",
          "type": "bool"
        }
      ],
      "stateMutability": "nonpayable",
      "type": "function"
    },
    {
      "inputs": [],
      "name": "getRewardRate",
      "outputs": [
        {
          "internalType": "uint256[]",
          "name": "rewardRate",
          "type": "uint256[]"
        },
        {
          "internalType": "uint256",
          "name": "valueDivisor",
          "type": "uint256"
        }
      ],
      "stateMutability": "view",
      "type": "function",
      "constant": true
    },
    {
      "inputs": [
        {
          "internalType": "address",
          "name": "to",
          "type": "address"
        }
      ],
      "name": "getRewardsTillTimestamp",
      "outputs": [
        {
          "internalType": "uint256",
          "name": "rewardsTillTimestamp",
          "type": "uint256"
        }
      ],
      "stateMutability": "view",
      "type": "function",
      "constant": true
    },
    {
      "inputs": [
        {
          "internalType": "address",
          "name": "to",
          "type": "address"
        },
        {
          "internalType": "uint256",
          "name": "tokens",
          "type": "uint256"
        }
      ],
      "name": "mint",
      "outputs": [
        {
          "internalType": "bool",
          "name": "success",
          "type": "bool"
        }
      ],
      "stateMutability": "nonpayable",
      "type": "function"
    },
    {
      "inputs": [
        {
          "internalType": "address",
          "name": "from",
          "type": "address"
        },
        {
          "internalType": "uint256",
          "name": "tokens",
          "type": "uint256"
        }
      ],
      "name": "burn",
      "outputs": [
        {
          "internalType": "bool",
          "name": "success",
          "type": "bool"
        }
      ],
      "stateMutability": "nonpayable",
      "type": "function"
    },
    {
      "inputs": [
        {
          "internalType": "address",
          "name": "to",
          "type": "address"
        }
      ],
      "name": "calculateRewards",
      "outputs": [
        {
          "internalType": "bool",
          "name": "success",
          "type": "bool"
        }
      ],
      "stateMutability": "nonpayable",
      "type": "function"
    },
    {
      "inputs": [
        {
          "internalType": "address",
          "name": "to",
          "type": "address"
        }
      ],
      "name": "calculatePendingRewards",
      "outputs": [
        {
          "internalType": "uint256",
          "name": "pendingRewards",
          "type": "uint256"
        }
      ],
      "stateMutability": "view",
      "type": "function",
      "constant": true
    },
    {
      "inputs": [
        {
          "internalType": "address",
          "name": "whitelistedAddress",
          "type": "address"
        },
        {
          "internalType": "address",
          "name": "holderContractAddress",
          "type": "address"
        }
      ],
      "name": "updateWhitelistedAddress",
      "outputs": [
        {
          "internalType": "bool",
          "name": "success",
          "type": "bool"
        }
      ],
      "stateMutability": "nonpayable",
      "type": "function"
    },
    {
      "inputs": [
        {
          "internalType": "address",
          "name": "whitelistedAddress",
          "type": "address"
        }
      ],
      "name": "removeWhitelistedAddress",
      "outputs": [
        {
          "internalType": "bool",
          "name": "success",
          "type": "bool"
        }
      ],
      "stateMutability": "nonpayable",
      "type": "function"
    },
    {
      "inputs": [
        {
          "internalType": "address",
          "name": "uTokenContract",
          "type": "address"
        }
      ],
      "name": "setUTokensContract",
      "outputs": [],
      "stateMutability": "nonpayable",
      "type": "function"
    },
    {
      "inputs": [
        {
          "internalType": "address",
          "name": "liquidStakingContract",
          "type": "address"
        }
      ],
      "name": "setLiquidStakingContract",
      "outputs": [],
      "stateMutability": "nonpayable",
      "type": "function"
    },
    {
      "inputs": [],
      "name": "pause",
      "outputs": [
        {
          "internalType": "bool",
          "name": "success",
          "type": "bool"
        }
      ],
      "stateMutability": "nonpayable",
      "type": "function"
    },
    {
      "inputs": [],
      "name": "unpause",
      "outputs": [
        {
          "internalType": "bool",
          "name": "success",
          "type": "bool"
        }
      ],
      "stateMutability": "nonpayable",
      "type": "function"
    }
  ],
  "bytecode": "0x608060405234801561001057600080fd5b50613071806100206000396000f3fe608060405234801561001057600080fd5b50600436106102275760003560e01c806370a0823111610130578063a217fddf116100b8578063db8d55f11161007c578063db8d55f114610735578063dd62ed3e1461073d578063e1e562a21461076b578063e63ab1e914610791578063eb990c591461079957610227565b8063a217fddf1461068c578063a457c2d714610694578063a9059cbb146106c0578063ca15c873146106ec578063d547741f1461070957610227565b80639010d07c116100ff5780639010d07c146105d057806391d148541461060f57806395d89b411461063b5780639dc29fac146106435780639e447fc61461066f57610227565b806370a08231146105115780637e1a3786146105375780638456cb591461059a57806386d11066146105a257610227565b806336568abe116101b357806340c10f191161018257806340c10f191461046b578063530cd5ab1461049757806358f8943e146104bd5780635c975abb146104e357806364ab8675146104eb57610227565b806336568abe146103ee578063395093511461041a5780633d18678e146104465780633f4ba83a1461046357610227565b806321bdf9e5116101fa57806321bdf9e51461032957806323b872dd14610351578063248a9ca3146103875780632f2ff15d146103a4578063313ce567146103d057610227565b806306fdde031461022c578063095ea7b3146102a9578063097aad10146102e957806318160ddd14610321575b600080fd5b6102346107d5565b6040805160208082528351818301528351919283929083019185019080838360005b8381101561026e578181015183820152602001610256565b50505050905090810190601f16801561029b5780820380516001836020036101000a031916815260200191505b509250505060405180910390f35b6102d5600480360360408110156102bf57600080fd5b506001600160a01b03813516906020013561086b565b604080519115158252519081900360200190f35b61030f600480360360208110156102ff57600080fd5b50356001600160a01b0316610889565b60408051918252519081900360200190f35b61030f6108c0565b61034f6004803603602081101561033f57600080fd5b50356001600160a01b03166108c6565b005b6102d56004803603606081101561036757600080fd5b506001600160a01b0381358116916020810135909116906040013561095c565b61030f6004803603602081101561039d57600080fd5b50356109e4565b61034f600480360360408110156103ba57600080fd5b50803590602001356001600160a01b03166109f9565b6103d8610a60565b6040805160ff9092168252519081900360200190f35b61034f6004803603604081101561040457600080fd5b50803590602001356001600160a01b0316610a69565b6102d56004803603604081101561043057600080fd5b506001600160a01b038135169060200135610aca565b6102d56004803603602081101561045c57600080fd5b5035610b18565b6102d5610beb565b6102d56004803603604081101561048157600080fd5b506001600160a01b038135169060200135610c4f565b6102d5600480360360208110156104ad57600080fd5b50356001600160a01b0316610cc4565b61034f600480360360208110156104d357600080fd5b50356001600160a01b0316610dce565b6102d5610e5f565b6102d56004803603602081101561050157600080fd5b50356001600160a01b0316610e68565b61030f6004803603602081101561052757600080fd5b50356001600160a01b0316610f66565b61053f610f81565b6040518080602001838152602001828103825284818151815260200191508051906020019060200280838360005b8381101561058557818101518382015260200161056d565b50505050905001935050505060405180910390f35b6102d5610fe1565b6102d5600480360360408110156105b857600080fd5b506001600160a01b038135811691602001351661103f565b6105f3600480360360408110156105e657600080fd5b508035906020013561115a565b604080516001600160a01b039092168252519081900360200190f35b6102d56004803603604081101561062557600080fd5b50803590602001356001600160a01b0316611172565b61023461118a565b6102d56004803603604081101561065957600080fd5b506001600160a01b0381351690602001356111eb565b6102d56004803603602081101561068557600080fd5b5035611260565b61030f61135a565b6102d5600480360360408110156106aa57600080fd5b506001600160a01b03813516906020013561135f565b6102d5600480360360408110156106d657600080fd5b506001600160a01b0381351690602001356113c7565b61030f6004803603602081101561070257600080fd5b50356113db565b61034f6004803603604081101561071f57600080fd5b50803590602001356001600160a01b03166113f2565b61030f61144b565b61030f6004803603604081101561075357600080fd5b506001600160a01b0381358116916020013516611451565b61030f6004803603602081101561078157600080fd5b50356001600160a01b031661147c565b61030f611497565b61034f600480360360808110156107af57600080fd5b506001600160a01b038135811691602081013590911690604081013590606001356114a9565b60368054604080516020601f60026000196101006001881615020190951694909404938401819004810282018101909252828152606093909290918301828280156108615780601f1061083657610100808354040283529160200191610861565b820191906000526020600020905b81548152906001019060200180831161084457829003601f168201915b5050505050905090565b600061087f610878611657565b848461165b565b5060015b92915050565b6001600160a01b038116600090815260d36020526040812054816108ac84610f66565b90506108b88183611747565b949350505050565b60355490565b6108d860006108d3611657565b611172565b610912576040805162461bcd60e51b8152602060048083019190915260248201526314d50c4d60e21b604482015290519081900360640190fd5b60ce80546001600160a01b0319166001600160a01b0383169081179091556040517ff745c285f36f88bea6af14d4d0f33dd9350cef7895216c1615b1caaee7857e0c90600090a250565b6000610969848484611962565b6109d984610975611657565b6109d485604051806060016040528060288152602001612f36602891396001600160a01b038a166000908152603460205260408120906109b3611657565b6001600160a01b031681526020810191909152604001600020549190611abf565b61165b565b5060015b9392505050565b60009081526097602052604090206002015490565b600082815260976020526040902060020154610a17906108d3611657565b610a525760405162461bcd60e51b815260040180806020018281038252602f815260200180612e1e602f913960400191505060405180910390fd5b610a5c8282611b56565b5050565b60385460ff1690565b610a71611657565b6001600160a01b0316816001600160a01b031614610ac05760405162461bcd60e51b815260040180806020018281038252602f81526020018061300d602f913960400191505060405180910390fd5b610a5c8282611bbf565b600061087f610ad7611657565b846109d48560346000610ae8611657565b6001600160a01b03908116825260208083019390935260409182016000908120918c168152925290205490611c28565b6000610b26816108d3611657565b610b60576040805162461bcd60e51b815260206004808301919091526024820152630a6a862760e31b604482015290519081900360640190fd5b60d154610b6e906064611c82565b821115610bab576040805162461bcd60e51b815260206004808301919091526024820152635354313960e01b604482015290519081900360640190fd5b60d28290556040805183815290517fa142c987774756b13db02cb5b530db2fa8a680ce74f42d87f33148e3f7098ebb9181900360200190a1506001919050565b6000610c07600080516020612f5e8339815191526108d3611657565b610c41576040805162461bcd60e51b815260206004808301919091526024820152635354313760e01b604482015290519081900360640190fd5b610c49611cdb565b50600190565b6000326001600160a01b038416148015610c83575060cd546001600160a01b0316610c78611657565b6001600160a01b0316145b610cba576040805162461bcd60e51b815260206004820152600360248201526253543360e81b604482015290519081900360640190fd5b61087f8383611d7b565b6000610cd2816108d3611657565b610d0c576040805162461bcd60e51b8152602060048083019190915260248201526329aa189960e11b604482015290519081900360640190fd5b6001600160a01b038216610d50576040805162461bcd60e51b815260206004808301919091526024820152635354313360e01b604482015290519081900360640190fd5b610d5b60c983611e6d565b506001600160a01b03808316600081815260cb602090815260409182902080546001600160a01b03198116909155825194168085524291850191909152815190937fbfc2acd1c4d60a2ab37de647af0a64772f1d3441c151abcbe70772891b139f0492908290030190a250600192915050565b610ddb60006108d3611657565b610e15576040805162461bcd60e51b815260206004808301919091526024820152635354313560e01b604482015290519081900360640190fd5b60cd80546001600160a01b0319166001600160a01b0383169081179091556040517f57fded54c0f01b7b2c662bd89530d6916e48149e02da384db87d1a67306be87190600090a250565b60655460ff1690565b6000610e72610e5f565b15610eb7576040805162461bcd60e51b815260206004820152601060248201526f14185d5cd8589b194e881c185d5cd95960821b604482015290519081900360640190fd5b610ebf611657565b6001600160a01b0316826001600160a01b031614610f0a576040805162461bcd60e51b815260206004820152600360248201526253543560e81b604482015290519081900360640190fd5b6000610f1583611e82565b6040805182815242602082015281519293506001600160a01b038616927fd0194489832efa41a56f4a4add6fbbe260998cbcff0b43c953af28b545ca7a01929181900390910190a250600192915050565b6001600160a01b031660009081526033602052604090205490565b6060600060cf805480602002602001604051908101604052809291908181526020018280548015610fd157602002820191906000526020600020905b815481526020019060010190808311610fbd575b5050505050915060d15490509091565b6000610ffd600080516020612f5e8339815191526108d3611657565b611037576040805162461bcd60e51b8152602060048083019190915260248201526329aa189b60e11b604482015290519081900360640190fd5b610c49611fbc565b600061104d816108d3611657565b611087576040805162461bcd60e51b815260206004808301919091526024820152630535431360e41b604482015290519081900360640190fd5b6001600160a01b0383166110cb576040805162461bcd60e51b815260206004808301919091526024820152635354313160e01b604482015290519081900360640190fd5b6110d660c98461203f565b6110e7576110e560c984612054565b505b6001600160a01b03838116600081815260cb602090815260409182902080546001600160a01b031916948716948517905581519384524290840152805191927f0f7a9ea44ebf83172d6d705e3c7d29426d901f186b8ce7f50b33a44ffb3c7e29929081900390910190a250600192915050565b60008281526097602052604081206109dd9083612069565b60008281526097602052604081206109dd908361203f565b60378054604080516020601f60026000196101006001881615020190951694909404938401819004810282018101909252828152606093909290918301828280156108615780601f1061083657610100808354040283529160200191610861565b6000326001600160a01b03841614801561121f575060cd546001600160a01b0316611214611657565b6001600160a01b0316145b611256576040805162461bcd60e51b815260206004820152600360248201526214d50d60ea1b604482015290519081900360640190fd5b61087f8383612075565b60d154600090611271906064611c82565b8211156112ab576040805162461bcd60e51b815260206004820152600360248201526253543160e81b604482015290519081900360640190fd5b6112b860006108d3611657565b6112ef576040805162461bcd60e51b815260206004820152600360248201526229aa1960e91b604482015290519081900360640190fd5b5060cf805460018082019092557facb8d954e2cfef495862221e91bd7523613cf8808827cb33edfe4904cc51bf29019190915560d080548083018255600091909152427fe89d44c8fd6a9bac8af33ce47f56337617d449bf7ff3956b618c646de829cbcb9091015590565b600081565b600061087f61136c611657565b846109d485604051806060016040528060258152602001612fe86025913960346000611396611657565b6001600160a01b03908116825260208083019390935260409182016000908120918d16815292529020549190611abf565b600061087f6113d4611657565b8484611962565b600081815260976020526040812061088390612171565b600082815260976020526040902060020154611410906108d3611657565b610ac05760405162461bcd60e51b8152600401808060200182810382526030815260200180612eb76030913960400191505060405180910390fd5b60d25490565b6001600160a01b03918216600090815260346020908152604080832093909416825291909152205490565b6001600160a01b0316600090815260d3602052604090205490565b600080516020612f5e83398151915281565b600054610100900460ff16806114c257506114c261217c565b806114d0575060005460ff16155b61150b5760405162461bcd60e51b815260040180806020018281038252602e815260200180612ee7602e913960400191505060405180910390fd5b600054610100900460ff16158015611536576000805460ff1961ff0019909116610100171660011790555b61158960405180604001604052806012815260200171705354414b45205374616b65642041544f4d60701b8152506040518060400160405280600781526020016673746b41544f4d60c81b81525061218d565b611591612243565b6115996122f5565b6115ab60006115a6611657565b610a52565b6115c3600080516020612f5e83398151915285610a52565b6115cc856108c6565b60cf805460018181019092557facb8d954e2cfef495862221e91bd7523613cf8808827cb33edfe4904cc51bf290184905560d080549182018155600052427fe89d44c8fd6a9bac8af33ce47f56337617d449bf7ff3956b618c646de829cbcb9091015560d182905561163e6006612392565b8015611650576000805461ff00191690555b5050505050565b3390565b6001600160a01b0383166116a05760405162461bcd60e51b8152600401808060200182810382526024815260200180612fc46024913960400191505060405180910390fd5b6001600160a01b0382166116e55760405162461bcd60e51b8152600401808060200182810382526022815260200180612e6f6022913960400191505060405180910390fd5b6001600160a01b03808416600081815260346020908152604080832094871680845294825291829020859055815185815291517f8c5be1e5ebec7d5bd14f71427d1e84f3dd0314c0f7b2291e5b200ac8c7c3b9259281900390910190a3505050565b600080808080861580611761575061175f42876123a8565b155b15611773576000945050505050610883565b60d0546117819060016123a8565b93505b60d0546117929060016123a8565b8410156118ab578560d085815481106117a757fe5b906000526020600020015411156118575761180460d085815481106117c857fe5b60009182526020909120015460d06117e1876001611c28565b815481106117eb57fe5b90600052602060002001546123a890919063ffffffff16565b925061182b60cf858154811061181657fe5b60009182526020909120015488906064612405565b90506118448360d154836124059092919063ffffffff16565b91506118508583611c28565b94506118a6565b6118688660d06117e1876001611c28565b925061187a60cf858154811061181657fe5b90506118938360d154836124059092919063ffffffff16565b915061189f8583611c28565b9450611958565b61193c565b8560d085815481106118b957fe5b90600052602060002001541115611932576118f460d085815481106118da57fe5b9060005260206000200154426123a890919063ffffffff16565b925061190660cf858154811061181657fe5b905061191f8360d154836124059092919063ffffffff16565b915061192b8583611c28565b945061193c565b61186842876123a8565b8361194657611958565b6119518460016123a8565b9350611784565b5050505092915050565b6001600160a01b0383166119a75760405162461bcd60e51b8152600401808060200182810382526025815260200180612f9f6025913960400191505060405180910390fd5b6001600160a01b0382166119ec5760405162461bcd60e51b8152600401808060200182810382526023815260200180612dfb6023913960400191505060405180910390fd5b6119f78383836124be565b611a3481604051806060016040528060268152602001612e91602691396001600160a01b0386166000908152603360205260409020549190611abf565b6001600160a01b038085166000908152603360205260408082209390935590841681522054611a639082611c28565b6001600160a01b0380841660008181526033602090815260409182902094909455805185815290519193928716927fddf252ad1be2c89b69c2b068fc378daa952ba7f163c4a11628f55a4df523b3ef92918290030190a3505050565b60008184841115611b4e5760405162461bcd60e51b81526004018080602001828103825283818151815260200191508051906020019080838360005b83811015611b13578181015183820152602001611afb565b50505050905090810190601f168015611b405780820380516001836020036101000a031916815260200191505b509250505060405180910390fd5b505050900390565b6000828152609760205260409020611b6e9082612054565b15610a5c57611b7b611657565b6001600160a01b0316816001600160a01b0316837f2f8788117e7eff1d82e926ec794901d17c78024a50270940304540a733656f0d60405160405180910390a45050565b6000828152609760205260409020611bd79082611e6d565b15610a5c57611be4611657565b6001600160a01b0316816001600160a01b0316837ff6391f5c32d9c69d2a47ea670b442974b53935d1edc7fd64eb21e047a839171b60405160405180910390a45050565b6000828201838110156109dd576040805162461bcd60e51b815260206004820152601b60248201527f536166654d6174683a206164646974696f6e206f766572666c6f770000000000604482015290519081900360640190fd5b600082611c9157506000610883565b82820282848281611c9e57fe5b04146109dd5760405162461bcd60e51b8152600401808060200182810382526021815260200180612f156021913960400191505060405180910390fd5b611ce3610e5f565b611d2b576040805162461bcd60e51b815260206004820152601460248201527314185d5cd8589b194e881b9bdd081c185d5cd95960621b604482015290519081900360640190fd5b6065805460ff191690557f5db9ee0a495bf2e6ff9c91a7834c1ba4fdd244a5e8aa4e537bd38aeae4b073aa611d5e611657565b604080516001600160a01b039092168252519081900360200190a1565b6001600160a01b038216611dd6576040805162461bcd60e51b815260206004820152601f60248201527f45524332303a206d696e7420746f20746865207a65726f206164647265737300604482015290519081900360640190fd5b611de2600083836124be565b603554611def9082611c28565b6035556001600160a01b038216600090815260336020526040902054611e159082611c28565b6001600160a01b03831660008181526033602090815260408083209490945583518581529351929391927fddf252ad1be2c89b69c2b068fc378daa952ba7f163c4a11628f55a4df523b3ef9281900390910190a35050565b60006109dd836001600160a01b0384166126b0565b600080611e8e83610889565b6001600160a01b038416600090815260d3602052604081204290559091508115611f6a576000611ecd60d25460d154856124059092919063ffffffff16565b9050611ee4611edd826064612776565b84906123a8565b60ce54604080516340c10f1960e01b81526001600160a01b0389811660048301526024820185905291519395509116916340c10f19916044808201926020929091908290030181600087803b158015611f3c57600080fd5b505af1158015611f50573d6000803e3d6000fd5b505050506040513d6020811015611f6657600080fd5b5050505b6040805183815260208101839052428183015290516001600160a01b038616917fcb6b86b9e52fa6a244462bd0df0d4f52d7526e75c555436aef597b7412216ad6919081900360600190a25092915050565b611fc4610e5f565b15612009576040805162461bcd60e51b815260206004820152601060248201526f14185d5cd8589b194e881c185d5cd95960821b604482015290519081900360640190fd5b6065805460ff191660011790557f62e78cea01bee320cd4e420270b5ea74000d11b0c9f74754ebdbfc544b05a258611d5e611657565b60006109dd836001600160a01b0384166127dd565b60006109dd836001600160a01b0384166127f5565b60006109dd838361283f565b6001600160a01b0382166120ba5760405162461bcd60e51b8152600401808060200182810382526021815260200180612f7e6021913960400191505060405180910390fd5b6120c6826000836124be565b61210381604051806060016040528060228152602001612e4d602291396001600160a01b0385166000908152603360205260409020549190611abf565b6001600160a01b03831660009081526033602052604090205560355461212990826123a8565b6035556040805182815290516000916001600160a01b038516917fddf252ad1be2c89b69c2b068fc378daa952ba7f163c4a11628f55a4df523b3ef9181900360200190a35050565b6000610883826128a3565b6000612187306128a7565b15905090565b600054610100900460ff16806121a657506121a661217c565b806121b4575060005460ff16155b6121ef5760405162461bcd60e51b815260040180806020018281038252602e815260200180612ee7602e913960400191505060405180910390fd5b600054610100900460ff1615801561221a576000805460ff1961ff0019909116610100171660011790555b6122226128ad565b61222c838361294d565b801561223e576000805461ff00191690555b505050565b600054610100900460ff168061225c575061225c61217c565b8061226a575060005460ff16155b6122a55760405162461bcd60e51b815260040180806020018281038252602e815260200180612ee7602e913960400191505060405180910390fd5b600054610100900460ff161580156122d0576000805460ff1961ff0019909116610100171660011790555b6122d86128ad565b6122e06128ad565b80156122f2576000805461ff00191690555b50565b600054610100900460ff168061230e575061230e61217c565b8061231c575060005460ff16155b6123575760405162461bcd60e51b815260040180806020018281038252602e815260200180612ee7602e913960400191505060405180910390fd5b600054610100900460ff16158015612382576000805460ff1961ff0019909116610100171660011790555b61238a6128ad565b6122e0612a25565b6038805460ff191660ff92909216919091179055565b6000828211156123ff576040805162461bcd60e51b815260206004820152601e60248201527f536166654d6174683a207375627472616374696f6e206f766572666c6f770000604482015290519081900360640190fd5b50900390565b60008060006124148686612ad0565b915091506000848061242257fe5b868809905082811115612436576001820391505b9182900391816124545784838161244957fe5b0493505050506109dd565b8482106124a8576040805162461bcd60e51b815260206004820152601a60248201527f46756c6c4d6174683a2046554c4c4449565f4f564552464c4f57000000000000604482015290519081900360640190fd5b6124b3838387612afd565b979650505050505050565b6124c6610e5f565b156124fe576040805162461bcd60e51b815260206004820152600360248201526229aa1b60e91b604482015290519081900360640190fd5b61250983838361223e565b6001600160a01b0383166125425761252260c98361203f565b6125355761252f82611e82565b50612542565b612540828483612b6d565b505b6001600160a01b03831615801590612562575061256060c98461203f565b155b156125f4576001600160a01b0382166125805761257e83611e82565b505b6001600160a01b038216158015906125a0575061259e60c98361203f565b155b156125ba576125ae83611e82565b506125b882611e82565b505b6001600160a01b038216158015906125d857506125d860c98361203f565b156125f4576125e683611e82565b506125f2828483612b6d565b505b6001600160a01b03831615801590612612575061261260c98461203f565b1561223e576001600160a01b03821661263257612630838383612b6d565b505b6001600160a01b03821615801590612652575061265060c98361203f565b155b1561266e57612662838383612b6d565b5061266c82611e82565b505b6001600160a01b0382161580159061268c575061268c60c98361203f565b1561223e5761269d83600083612b6d565b506126aa82600083612b6d565b50505050565b6000818152600183016020526040812054801561276c57835460001980830191908101906000908790839081106126e357fe5b906000526020600020015490508087600001848154811061270057fe5b60009182526020808320909101929092558281526001898101909252604090209084019055865487908061273057fe5b60019003818190600052602060002001600090559055866001016000878152602001908152602001600020600090556001945050505050610883565b6000915050610883565b60008082116127cc576040805162461bcd60e51b815260206004820152601a60248201527f536166654d6174683a206469766973696f6e206279207a65726f000000000000604482015290519081900360640190fd5b8183816127d557fe5b049392505050565b60009081526001919091016020526040902054151590565b600061280183836127dd565b61283757508154600181810184556000848152602080822090930184905584548482528286019093526040902091909155610883565b506000610883565b815460009082106128815760405162461bcd60e51b8152600401808060200182810382526022815260200180612dd96022913960400191505060405180910390fd5b82600001828154811061289057fe5b9060005260206000200154905092915050565b5490565b3b151590565b600054610100900460ff16806128c657506128c661217c565b806128d4575060005460ff16155b61290f5760405162461bcd60e51b815260040180806020018281038252602e815260200180612ee7602e913960400191505060405180910390fd5b600054610100900460ff161580156122e0576000805460ff1961ff00199091166101001716600117905580156122f2576000805461ff001916905550565b600054610100900460ff1680612966575061296661217c565b80612974575060005460ff16155b6129af5760405162461bcd60e51b815260040180806020018281038252602e815260200180612ee7602e913960400191505060405180910390fd5b600054610100900460ff161580156129da576000805460ff1961ff0019909116610100171660011790555b82516129ed906036906020860190612d37565b508151612a01906037906020850190612d37565b506038805460ff19166012179055801561223e576000805461ff0019169055505050565b600054610100900460ff1680612a3e5750612a3e61217c565b80612a4c575060005460ff16155b612a875760405162461bcd60e51b815260040180806020018281038252602e815260200180612ee7602e913960400191505060405180910390fd5b600054610100900460ff16158015612ab2576000805460ff1961ff0019909116610100171660011790555b6065805460ff1916905580156122f2576000805461ff001916905550565b6000808060001984860990508385029250828103915082811015612af5576001820391505b509250929050565b60008181038216808381612b0d57fe5b049250808581612b1957fe5b049450808160000381612b2857fe5b60028581038087028203028087028203028087028203028087028203028087028203028087028203029586029003909402930460010193909302939093010292915050565b6001600160a01b03808416600081815260cb6020908152604080832054815163cfd0ec3160e01b8152600481019590955287861660248601526044850187905290519294859491169263cfd0ec3192606480840193919291829003018186803b158015612bd957600080fd5b505afa158015612bed573d6000803e3d6000fd5b505050506040513d6020811015612c0357600080fd5b50516001600160a01b038616600090815260cc602052604081205491925090612c2d908390611747565b90508015612cc85760ce546001600160a01b03878116600090815260cb602090815260408083205481516340c10f1960e01b8152908516600482015260248101879052905193909416936340c10f199360448083019491928390030190829087803b158015612c9b57600080fd5b505af1158015612caf573d6000803e3d6000fd5b505050506040513d6020811015612cc557600080fd5b50505b6001600160a01b03808716600090815260cc60209081526040808320429081905560cb83529281902054815186815292830193909352805192909316927fe85a4e933dc860954bf36bb3668248d022d3047f9056c2c083e5e44a0f1517a092918290030190a295945050505050565b828054600181600116156101000203166002900490600052602060002090601f016020900481019282612d6d5760008555612db3565b82601f10612d8657805160ff1916838001178555612db3565b82800160010185558215612db3579182015b82811115612db3578251825591602001919060010190612d98565b50612dbf929150612dc3565b5090565b5b80821115612dbf5760008155600101612dc456fe456e756d657261626c655365743a20696e646578206f7574206f6620626f756e647345524332303a207472616e7366657220746f20746865207a65726f2061646472657373416363657373436f6e74726f6c3a2073656e646572206d75737420626520616e2061646d696e20746f206772616e7445524332303a206275726e20616d6f756e7420657863656564732062616c616e636545524332303a20617070726f766520746f20746865207a65726f206164647265737345524332303a207472616e7366657220616d6f756e7420657863656564732062616c616e6365416363657373436f6e74726f6c3a2073656e646572206d75737420626520616e2061646d696e20746f207265766f6b65496e697469616c697a61626c653a20636f6e747261637420697320616c726561647920696e697469616c697a6564536166654d6174683a206d756c7469706c69636174696f6e206f766572666c6f7745524332303a207472616e7366657220616d6f756e74206578636565647320616c6c6f77616e636565d7a28e3265b37a6474929f336521b332c1681b933f6cb9f3376673440d862a45524332303a206275726e2066726f6d20746865207a65726f206164647265737345524332303a207472616e736665722066726f6d20746865207a65726f206164647265737345524332303a20617070726f76652066726f6d20746865207a65726f206164647265737345524332303a2064656372656173656420616c6c6f77616e63652062656c6f77207a65726f416363657373436f6e74726f6c3a2063616e206f6e6c792072656e6f756e636520726f6c657320666f722073656c66a2646970667358221220a04950840323f1cc983737f11d8b8886b39ecb7e1f503ec7bc162d62463dece464736f6c63430007060033",
  "immutableReferences": {},
  "source": "// SPDX-License-Identifier: UNLICENSED\npragma solidity >= 0.7.0;\n\nimport \"@openzeppelin/contracts-upgradeable/token/ERC20/ERC20Upgradeable.sol\";\nimport \"@openzeppelin/contracts-upgradeable/math/SafeMathUpgradeable.sol\";\nimport \"@openzeppelin/contracts-upgradeable/utils/PausableUpgradeable.sol\";\nimport \"@openzeppelin/contracts-upgradeable/utils/EnumerableSetUpgradeable.sol\";\nimport \"@openzeppelin/contracts-upgradeable/access/AccessControlUpgradeable.sol\";\nimport \"./interfaces/ISTokens.sol\";\nimport \"./interfaces/IUTokens.sol\";\nimport \"./interfaces/IHolder.sol\";\nimport \"./libraries/FullMath.sol\";\n\ncontract STokens is ERC20Upgradeable, ISTokens, PausableUpgradeable, AccessControlUpgradeable {\n\n    using SafeMathUpgradeable for uint256;\n    using FullMath for uint256;\n    using EnumerableSetUpgradeable for EnumerableSetUpgradeable.AddressSet;\n\n    // constants defining access control ROLES\n    bytes32 public constant PAUSER_ROLE = keccak256(\"PAUSER_ROLE\");\n\n    // variables pertaining to holder logic for whitelisted addresses\n    EnumerableSetUpgradeable.AddressSet private whitelistedAddresses;\n    mapping(address => address) private _holderContractAddress;\n    mapping(address => uint256) private _rewardPoolLastTimestamp;\n\n    // _depositContractAddress has been discontinued\n    // mapping(address => address) private _depositContractAddress;\n\n    /*\n    :: variables held for each holder logic mappings below ::\n    function signature to get LPToken Balance, of user, in LP-ERC20-Contract  (balanceOf(userAddress) for LP token)\n    function signature to get LPToken Total Supply, in LP-ERC20-Contract (totalSupply() for LP token)\n    function signature to get SToken Total Supply of SToken-LP-Contract (getReserves() for SToken)\n    timestamp value of last reward calculation for LP contract as per reserve\n    timestamp value of last reward calculation for user as per liquidity\n    */\n    \n\n    // variables capturing data of other contracts in the product\n    address private _liquidStakingContract;\n    IUTokens private _uTokens;\n\n    // variables pertaining to moving reward rate logic\n    uint256[] private _rewardRate;\n    uint256[] private _rewardBlockTimestamp;\n    uint256 private _valueDivisor;\n    uint256 private _rewardFee;\n    mapping(address => uint256) private _rewardsTillTimestamp;\n\n    /**\n   * @dev Constructor for initializing the SToken contract.\n   * @param uaddress - address of the UToken contract.\n   * @param pauserAddress - address of the pauser admin.\n   * @param rewardRate - set rewardRate.\n   * @param valueDivisor - valueDivisor set to 10^9.\n   */\n    function initialize(address uaddress, address pauserAddress, uint256 rewardRate, uint256 valueDivisor) public virtual initializer {\n        __ERC20_init(\"pSTAKE Staked ATOM\", \"stkATOM\");\n        __AccessControl_init();\n        __Pausable_init();\n        _setupRole(DEFAULT_ADMIN_ROLE, _msgSender());\n        _setupRole(PAUSER_ROLE, pauserAddress);\n        setUTokensContract(uaddress);\n        // to set reward rate to 5e-3 or 0.005\n        _rewardRate.push(rewardRate);\n        _rewardBlockTimestamp.push(block.timestamp);\n        _valueDivisor = valueDivisor;\n        _setupDecimals(6);\n    }\n\n\n    /**\n     * @dev Set 'fees', called from admin\n     * @param rewardFee: reward fee\n     *\n     * Emits a {SetFees} event with 'fee' set to the withdraw.\n     *\n     */\n    function setFees(uint256 rewardFee) public virtual returns (bool success){\n        require(hasRole(DEFAULT_ADMIN_ROLE, _msgSender()), \"ST18\");\n        // range checks for fees. Since fee cannot be more than 100%, the max cap\n        // is _valueDivisor * 100, which then brings the fees to 100 (percentage)\n        require(rewardFee <= _valueDivisor.mul(100), \"ST19\");\n        _rewardFee = rewardFee;\n        emit SetFees(rewardFee);\n        return true;\n    }\n\n    /**\n     * @dev get fees, minimum set values\n     *\n     */\n    function getFees() public view virtual returns (uint256 rewardFee) {\n        rewardFee = _rewardFee;\n    }\n\n\n    /*\n    * @dev set reward rate called by admin\n    * @param rewardRate: reward rate\n    *\n    *\n    * Requirements:\n    *\n    * - `rate` cannot be less than or equal to zero.\n    *\n    */\n    function setRewardRate(uint256 rewardRate) public virtual override returns (bool success) {\n        // range checks for rewardRate. Since rewardRate cannot be more than 100%, the max cap \n        // is _valueDivisor * 100, which then brings the fees to 100 (percentage) \n        require(rewardRate <= _valueDivisor.mul(100), \"ST1\");\n        require(hasRole(DEFAULT_ADMIN_ROLE, _msgSender()), \"ST2\");\n        _rewardRate.push(rewardRate);\n        _rewardBlockTimestamp.push(block.timestamp);\n        return true;\n    }\n\n\n    /**\n    * @dev get reward rate and value divisor\n    */\n    function getRewardRate() public view virtual returns (uint256[] memory rewardRate, uint256 valueDivisor) {\n        rewardRate = _rewardRate;\n        valueDivisor = _valueDivisor;\n    }\n\n\n    /**\n     * @dev get rewards till timestamp\n     * @param to: account address\n     */\n    function getRewardsTillTimestamp(address to) public view virtual returns (uint256 rewardsTillTimestamp) {\n        rewardsTillTimestamp = _rewardsTillTimestamp[to];\n    }\n\n\n    /**\n     * @dev Mint new stokens for the provided 'address' and 'tokens'\n     * @param to: account address, tokens: number of tokens\n     *\n     * Emits a {MintTokens} event with 'to' set to address and 'tokens' set to amount of tokens.\n     *\n     * Requirements:\n     *\n     * - `amount` cannot be less than zero.\n     *\n     */\n    function mint(address to, uint256 tokens) public virtual override returns (bool success) {\n        require(tx.origin == to && _msgSender() == _liquidStakingContract, \"ST3\");\n        _mint(to, tokens);\n        return true;\n    }\n\n\n    /*\n     * @dev Burn stokens for the provided 'address' and 'tokens'\n     * @param to: account address, tokens: number of tokens\n     *\n     * Emits a {BurnTokens} event with 'to' set to address and 'tokens' set to amount of tokens.\n     *\n     * Requirements:\n     *\n     * - `amount` cannot be less than zero.\n     *\n     */\n    function burn(address from, uint256 tokens) public  virtual override returns (bool success) {\n        require(tx.origin == from && _msgSender() == _liquidStakingContract, \"ST4\");\n        _burn(from, tokens);\n        return true;\n    }\n\n\n    /**\n     * @dev Calculate rewards for the provided 'address'\n     * @param to: account address\n     */\n    function _calculateRewards(address to) internal returns (uint256){\n        // Calculate the rewards pending\n        uint256 _reward = calculatePendingRewards(to);\n\n        // Set the new stakedBlock to the current, \n        // as per Checks-Effects-Interactions pattern\n        _rewardsTillTimestamp[to] = block.timestamp;\n        uint256 finalTokens;\n\n        // mint uTokens only if reward is greater than zero\n        if(_reward>0) {\n            //deducting fee\n           // uint256 finalTokens = _reward.sub((_reward.mul(_rewardFee)).div(_valueDivisor.mul(100)));\n            uint256 _temp = _reward.mulDiv(_rewardFee, _valueDivisor);\n            finalTokens = _reward.sub(_temp.div(100));\n            // Mint new uTokens and send to the callers account\n            _uTokens.mint(to, finalTokens);\n        }\n\n        emit CalculateRewards(to, _reward, finalTokens, block.timestamp);\n        return _reward;\n    }\n\n    /**\n     * @dev Calculate rewards for the provided 'holder address'\n     * @param to: holder address\n     */\n    function _calculateHolderRewards(address to, address from, uint256 amount) internal returns (uint256){\n        uint256 _sTokenSupply = IHolder(_holderContractAddress[to]).getSTokenSupply(to, from, amount);\n\n        // calculate the reward applying the moving reward rate\n        uint256 _newRewards = _calculatePendingRewards(_sTokenSupply, _rewardPoolLastTimestamp[to]);\n\n        // Mint new uTokens and send to the holder contract account as updated reward pool\n        if(_newRewards > 0) {\n            _uTokens.mint(_holderContractAddress[to], _newRewards);\n        }\n\n        // update the last timestamp of reward pool to the current time\n        _rewardPoolLastTimestamp[to] = block.timestamp; \n\n        emit CalculateHolderRewards(_holderContractAddress[to], _newRewards, block.timestamp);\n        return _newRewards;\n    }\n\n\n    /**\n     * @dev Calculate rewards for the provided 'address'\n     * @param to: account address\n     *\n     * Emits a {TriggeredCalculateRewards} event with 'to' set to address, 'reward' set to amount of tokens and 'timestamp'\n     *\n     */\n    function calculateRewards(address to) public virtual override whenNotPaused returns (bool success) {\n        require(to == _msgSender(), \"ST5\");\n        uint256 reward =  _calculateRewards(to);\n        emit TriggeredCalculateRewards(to, reward, block.timestamp);\n        return true;\n    }\n\n\n    /**\n     * @dev Calculate pending rewards from the provided 'principal' & 'lastRewardTimestamp'. The rate is the moving reward rate.\n     * @param principal: principal amount\n     * @param lastRewardTimestamp: timestamp of last reward calculation performed\n     */\n    function _calculatePendingRewards(uint256 principal, uint256 lastRewardTimestamp) internal view returns (uint256 pendingRewards){\n        uint256 _index;\n        uint256 _rewardBlocks;\n        uint256 _simpleInterestOfInterval;\n        uint256 _temp;\n        // return 0 if principal or timeperiod is zero\n        if(principal == 0 || block.timestamp.sub(lastRewardTimestamp) == 0) return 0;\n        // calculate rewards for each interval period between rewardRate changes\n        for(_index = _rewardBlockTimestamp.length.sub(1); _index >= 0;){\n            // logic applies for all indexes of array except last index\n            if(_index < _rewardBlockTimestamp.length.sub(1)) {\n                if(_rewardBlockTimestamp[_index] > lastRewardTimestamp) {\n                    _rewardBlocks = (_rewardBlockTimestamp[_index.add(1)]).sub(_rewardBlockTimestamp[_index]);\n                    //_simpleInterestOfInterval = (((principal.mul(_rewardRate[_index])).mul(_rewardBlocks))).div(100 * _valueDivisor);\n                    _temp = principal.mulDiv(_rewardRate[_index], 100);\n                    _simpleInterestOfInterval = _temp.mulDiv(_rewardBlocks, _valueDivisor);\n                    pendingRewards = pendingRewards.add(_simpleInterestOfInterval);\n                }\n                else {\n                    _rewardBlocks = (_rewardBlockTimestamp[_index.add(1)]).sub(lastRewardTimestamp);\n                   // _simpleInterestOfInterval = (((principal.mul(_rewardRate[_index])).mul(_rewardBlocks))).div(100 * _valueDivisor);\n                    _temp = principal.mulDiv(_rewardRate[_index], 100);\n                    _simpleInterestOfInterval = _temp.mulDiv(_rewardBlocks, _valueDivisor);\n                    pendingRewards = pendingRewards.add(_simpleInterestOfInterval);\n                    break;\n                }\n            }\n            // logic applies only for the last index of array\n            else {\n                if(_rewardBlockTimestamp[_index] > lastRewardTimestamp) {\n                    _rewardBlocks = (block.timestamp).sub(_rewardBlockTimestamp[_index]);\n                    //_simpleInterestOfInterval = (((principal.mul(_rewardRate[_index])).mul(_rewardBlocks))).div(100 * _valueDivisor);\n                    _temp = principal.mulDiv(_rewardRate[_index], 100);\n                    _simpleInterestOfInterval = _temp.mulDiv(_rewardBlocks, _valueDivisor);\n                    pendingRewards = pendingRewards.add(_simpleInterestOfInterval);\n                }\n                else {\n                    _rewardBlocks = (block.timestamp).sub(lastRewardTimestamp);\n                    //_simpleInterestOfInterval = (((principal.mul(_rewardRate[_index])).mul(_rewardBlocks))).div(100 * _valueDivisor);\n                    _temp = principal.mulDiv(_rewardRate[_index], 100);\n                    _simpleInterestOfInterval = _temp.mulDiv(_rewardBlocks, _valueDivisor);\n                    pendingRewards = pendingRewards.add(_simpleInterestOfInterval);\n                    break;\n                }\n            }\n\n            if(_index == 0) break;\n            else {\n                _index = _index.sub(1);\n            }\n        }\n        return pendingRewards;\n    }\n\n    /**\n     * @dev Calculate pending rewards for the provided 'address'. The rate is the moving reward rate.\n     * @param to: account address\n     */\n    function calculatePendingRewards(address to) public view virtual returns (uint256 pendingRewards){\n        // Get the time in number of blocks\n        uint256 _lastRewardTimestamp = _rewardsTillTimestamp[to];\n        // Get the balance of the account\n        uint256 _balance = balanceOf(to);\n        // calculate pending rewards using _calculatePendingRewards\n        pendingRewards = _calculatePendingRewards(_balance, _lastRewardTimestamp);\n\n        return pendingRewards;\n    }\n\n\n    /**\n     * @dev Hook that is called before any transfer of tokens. This includes\n     * minting and burning.\n     *\n     * Calling conditions:\n     *\n     * - when `from` and `to` are both non-zero, `amount` of ``from``'s tokens\n     * will be to transferred to `to`.\n     * - when `from` is zero, `amount` tokens will be minted for `to`.\n     * - when `to` is zero, `amount` of ``from``'s tokens will be burned.\n     * - `from` and `to` are never both zero.\n     *\n     */\n    function _beforeTokenTransfer(address from, address to, uint256 amount) internal virtual override {\n        require(!paused(), \"ST6\");\n        super._beforeTokenTransfer(from, to, amount);\n       // uint256 _sTokenSupply;\n       // uint256 _timePeriod;\n        if(from == address(0)){\n            // cannot have a scenario of transfer from address(0) to address(0)\n            // if(to == address(0)){}\n\n            if(!whitelistedAddresses.contains(to)){\n                _calculateRewards(to);\n            }\n            else {\n                // IHolder(_holderContractAddress[to]).calculateHolderRewards(to, from, _rewardRate, _rewardBlockTimestamp);\n                _calculateHolderRewards(to, from, amount);\n            }\n        }\n\n        if(from != address(0) && !whitelistedAddresses.contains(from)){\n\n            if(to == address(0)){\n                _calculateRewards(from);\n            }\n\n            if(to != address(0) && !whitelistedAddresses.contains(to)){\n                _calculateRewards(from);\n                _calculateRewards(to);\n            }\n\n            if(to != address(0) && whitelistedAddresses.contains(to)){\n                _calculateRewards(from);\n                // IHolder(_holderContractAddress[to]).calculateHolderRewards(to, from, _rewardRate, _rewardBlockTimestamp);\n                _calculateHolderRewards(to, from, amount);\n            }\n\n        }\n\n        if(from != address(0) && whitelistedAddresses.contains(from)){\n\n            if(to == address(0)){\n                // IHolder(_holderContractAddress[to]).calculateHolderRewards(from, to, _rewardRate, _rewardBlockTimestamp);\n                _calculateHolderRewards(from, to, amount);\n            }\n\n            if(to != address(0) && !whitelistedAddresses.contains(to)){\n                // IHolder(_holderContractAddress[to]).calculateHolderRewards(from, to, _rewardRate, _rewardBlockTimestamp);\n                _calculateHolderRewards(from, to, amount);\n                _calculateRewards(to);\n            }\n\n            if(to != address(0) && whitelistedAddresses.contains(to)){\n                // IHolder(_holderContractAddress[to]).calculateHolderRewards(from, address(0), _rewardRate, _rewardBlockTimestamp);\n                _calculateHolderRewards(from, address(0), amount);\n\n                // IHolder(_holderContractAddress[to]).calculateHolderRewards(to, address(0), _rewardRate, _rewardBlockTimestamp);\n                _calculateHolderRewards(to, address(0), amount);\n            }\n\n        }\n    }\n\n    /*\n    * @dev Set 'whitelisted address', performed by admin only\n    * @param whitelistedAddress: contract address of the whitelisted party\n    *\n    * Emits a {UpdateWhitelistedAddress} event\n    *\n    */\n    function updateWhitelistedAddress(address whitelistedAddress, address holderContractAddress) public virtual returns (bool success){\n        require(hasRole(DEFAULT_ADMIN_ROLE, _msgSender()), \"ST10\");\n        // lpTokenERC20ContractAddress or sTokenReserveContractAddress can be address(0) but not whitelistedAddress\n        require(whitelistedAddress != address(0), \"ST11\");\n        if(!whitelistedAddresses.contains(whitelistedAddress)) whitelistedAddresses.add(whitelistedAddress);\n        // add the contract addresses to holder mapping variable\n        _holderContractAddress[whitelistedAddress] = holderContractAddress;\n        emit UpdateWhitelistedAddress(whitelistedAddress, holderContractAddress, block.timestamp);\n        return true;\n    }\n\n    /*\n  * @dev remove 'whitelisted address', performed by admin only\n  * @param whitelistedAddress: contract address of the whitelisted party\n  * @param holderContractAddress: holder contract address of the corresponding whitelistedAddress\n  *\n  * Emits a {RemoveWhitelistedAddress} event\n  *\n  */\n    function removeWhitelistedAddress(address whitelistedAddress) public virtual returns (bool success){\n        require(hasRole(DEFAULT_ADMIN_ROLE, _msgSender()), \"ST12\");\n        require(whitelistedAddress != address(0), \"ST13\");\n        // remove whitelistedAddress from the list\n        whitelistedAddresses.remove(whitelistedAddress);\n        address _holderContractAddressLocal = _holderContractAddress[whitelistedAddress];\n\n        // delete holder contract values\n        delete _holderContractAddress[whitelistedAddress];\n\n        emit RemoveWhitelistedAddress(whitelistedAddress, _holderContractAddressLocal, block.timestamp);\n        return true;\n    }\n\n\n    /*\n    * @dev Set 'contract address', called from constructor\n    * @param uTokenContract: utoken contract address\n    *\n    * Emits a {SetUTokensContract} event with '_contract' set to the utoken contract address.\n    *\n    */\n    function setUTokensContract(address uTokenContract) public virtual override {\n        require(hasRole(DEFAULT_ADMIN_ROLE, _msgSender()), \"ST14\");\n        _uTokens = IUTokens(uTokenContract);\n        emit SetUTokensContract(uTokenContract);\n    }\n\n    /*\n     * @dev Set 'contract address', called from constructor\n     * @param liquidStakingContract: liquidStaking contract address\n     *\n     * Emits a {SetLiquidStakingContract} event with '_contract' set to the liquidStaking contract address.\n     *\n     */\n    //This function need to be called after deployment, only admin can call the same\n    function setLiquidStakingContract(address liquidStakingContract) public virtual override{\n        require(hasRole(DEFAULT_ADMIN_ROLE, _msgSender()), \"ST15\");\n        _liquidStakingContract = liquidStakingContract;\n        emit SetLiquidStakingContract(liquidStakingContract);\n    }\n\n    /**\n      * @dev Triggers stopped state.\n      *\n      * Requirements:\n      *\n      * - The contract must not be paused.\n      */\n    function pause() public virtual returns (bool success) {\n        require(hasRole(PAUSER_ROLE, _msgSender()), \"ST16\");\n        _pause();\n        return true;\n    }\n\n    /**\n     * @dev Returns to normal state.\n     *\n     * Requirements:\n     *\n     * - The contract must be paused.\n     */\n    function unpause() public virtual returns (bool success) {\n        require(hasRole(PAUSER_ROLE, _msgSender()), \"ST17\");\n        _unpause();\n        return true;\n    }\n}",
  "sourcePath": "/home/aditimahesh/Documents/Work/Persistence/go/src/github.com/persistenceOne/pStakeSmartContracts/contracts/STokens.sol",
  "compiler": {
    "name": "solc",
    "version": "0.7.6+commit.7338295f.Emscripten.clang"
  },
  "schemaVersion": "3.3.4",
  "updatedAt": "2021-07-05T12:11:56.752Z",
  "networkType": "ethereum",
  "devdoc": {
    "kind": "dev",
    "methods": {
      "allowance(address,address)": {
        "details": "See {IERC20-allowance}."
      },
      "approve(address,uint256)": {
        "details": "See {IERC20-approve}. Requirements: - `spender` cannot be the zero address."
      },
      "balanceOf(address)": {
        "details": "See {IERC20-balanceOf}."
      },
      "burn(address,uint256)": {
        "details": "Burns `amount` tokens to the caller's address `from`. Returns a boolean value indicating whether the operation succeeded. Emits a {Transfer} event."
      },
      "calculatePendingRewards(address)": {
        "details": "Calculate pending rewards for the provided 'address'. The rate is the moving reward rate.",
        "params": {
          "to": ": account address"
        }
      },
      "calculateRewards(address)": {
        "details": "Calculate rewards for the provided 'address'",
        "params": {
          "to": ": account address Emits a {TriggeredCalculateRewards} event with 'to' set to address, 'reward' set to amount of tokens and 'timestamp'"
        }
      },
      "decimals()": {
        "details": "Returns the number of decimals used to get its user representation. For example, if `decimals` equals `2`, a balance of `505` tokens should be displayed to a user as `5,05` (`505 / 10 ** 2`). Tokens usually opt for a value of 18, imitating the relationship between Ether and Wei. This is the value {ERC20} uses, unless {_setupDecimals} is called. NOTE: This information is only used for _display_ purposes: it in no way affects any of the arithmetic of the contract, including {IERC20-balanceOf} and {IERC20-transfer}."
      },
      "decreaseAllowance(address,uint256)": {
        "details": "Atomically decreases the allowance granted to `spender` by the caller. This is an alternative to {approve} that can be used as a mitigation for problems described in {IERC20-approve}. Emits an {Approval} event indicating the updated allowance. Requirements: - `spender` cannot be the zero address. - `spender` must have allowance for the caller of at least `subtractedValue`."
      },
      "getFees()": {
        "details": "get fees, minimum set values"
      },
      "getRewardRate()": {
        "details": "get reward rate and value divisor"
      },
      "getRewardsTillTimestamp(address)": {
        "details": "get rewards till timestamp",
        "params": {
          "to": ": account address"
        }
      },
      "getRoleAdmin(bytes32)": {
        "details": "Returns the admin role that controls `role`. See {grantRole} and {revokeRole}. To change a role's admin, use {_setRoleAdmin}."
      },
      "getRoleMember(bytes32,uint256)": {
        "details": "Returns one of the accounts that have `role`. `index` must be a value between 0 and {getRoleMemberCount}, non-inclusive. Role bearers are not sorted in any particular way, and their ordering may change at any point. WARNING: When using {getRoleMember} and {getRoleMemberCount}, make sure you perform all queries on the same block. See the following https://forum.openzeppelin.com/t/iterating-over-elements-on-enumerableset-in-openzeppelin-contracts/2296[forum post] for more information."
      },
      "getRoleMemberCount(bytes32)": {
        "details": "Returns the number of accounts that have `role`. Can be used together with {getRoleMember} to enumerate all bearers of a role."
      },
      "grantRole(bytes32,address)": {
        "details": "Grants `role` to `account`. If `account` had not been already granted `role`, emits a {RoleGranted} event. Requirements: - the caller must have ``role``'s admin role."
      },
      "hasRole(bytes32,address)": {
        "details": "Returns `true` if `account` has been granted `role`."
      },
      "increaseAllowance(address,uint256)": {
        "details": "Atomically increases the allowance granted to `spender` by the caller. This is an alternative to {approve} that can be used as a mitigation for problems described in {IERC20-approve}. Emits an {Approval} event indicating the updated allowance. Requirements: - `spender` cannot be the zero address."
      },
      "initialize(address,address,uint256,uint256)": {
        "details": "Constructor for initializing the SToken contract.",
        "params": {
          "pauserAddress": "- address of the pauser admin.",
          "rewardRate": "- set rewardRate.",
          "uaddress": "- address of the UToken contract.",
          "valueDivisor": "- valueDivisor set to 10^9."
        }
      },
      "mint(address,uint256)": {
        "details": "Mint new stokens for the provided 'address' and 'tokens'",
        "params": {
          "to": ": account address, tokens: number of tokens Emits a {MintTokens} event with 'to' set to address and 'tokens' set to amount of tokens. Requirements: - `amount` cannot be less than zero."
        }
      },
      "name()": {
        "details": "Returns the name of the token."
      },
      "pause()": {
        "details": "Triggers stopped state. Requirements: - The contract must not be paused."
      },
      "paused()": {
        "details": "Returns true if the contract is paused, and false otherwise."
      },
      "renounceRole(bytes32,address)": {
        "details": "Revokes `role` from the calling account. Roles are often managed via {grantRole} and {revokeRole}: this function's purpose is to provide a mechanism for accounts to lose their privileges if they are compromised (such as when a trusted device is misplaced). If the calling account had been granted `role`, emits a {RoleRevoked} event. Requirements: - the caller must be `account`."
      },
      "revokeRole(bytes32,address)": {
        "details": "Revokes `role` from `account`. If `account` had been granted `role`, emits a {RoleRevoked} event. Requirements: - the caller must have ``role``'s admin role."
      },
      "setFees(uint256)": {
        "details": "Set 'fees', called from admin",
        "params": {
          "rewardFee": ": reward fee Emits a {SetFees} event with 'fee' set to the withdraw."
        }
      },
      "setLiquidStakingContract(address)": {
        "details": "Set LiquidStaking smart contract."
      },
      "symbol()": {
        "details": "Returns the symbol of the token, usually a shorter version of the name."
      },
      "totalSupply()": {
        "details": "See {IERC20-totalSupply}."
      },
      "transfer(address,uint256)": {
        "details": "See {IERC20-transfer}. Requirements: - `recipient` cannot be the zero address. - the caller must have a balance of at least `amount`."
      },
      "transferFrom(address,address,uint256)": {
        "details": "See {IERC20-transferFrom}. Emits an {Approval} event indicating the updated allowance. This is not required by the EIP. See the note at the beginning of {ERC20}. Requirements: - `sender` and `recipient` cannot be the zero address. - `sender` must have a balance of at least `amount`. - the caller must have allowance for ``sender``'s tokens of at least `amount`."
      },
      "unpause()": {
        "details": "Returns to normal state. Requirements: - The contract must be paused."
      }
    },
    "version": 1
  },
  "userdoc": {
    "kind": "user",
    "methods": {},
    "version": 1
  }
}