{
  "contractName": "STokens",
  "abi": [
    {
      "anonymous": false,
      "inputs": [
        {
          "indexed": true,
          "internalType": "address",
          "name": "owner",
          "type": "address"
        },
        {
          "indexed": true,
          "internalType": "address",
          "name": "spender",
          "type": "address"
        },
        {
          "indexed": false,
          "internalType": "uint256",
          "name": "value",
          "type": "uint256"
        }
      ],
      "name": "Approval",
      "type": "event"
    },
    {
      "anonymous": false,
      "inputs": [
        {
          "indexed": true,
          "internalType": "address",
          "name": "accountAddress",
          "type": "address"
        },
        {
          "indexed": false,
          "internalType": "uint256",
          "name": "tokens",
          "type": "uint256"
        },
        {
          "indexed": false,
          "internalType": "uint256",
          "name": "timestamp",
          "type": "uint256"
        }
      ],
      "name": "CalculateRewards",
      "type": "event"
    },
    {
      "anonymous": false,
      "inputs": [
        {
          "indexed": false,
          "internalType": "address",
          "name": "account",
          "type": "address"
        }
      ],
      "name": "Paused",
      "type": "event"
    },
    {
      "anonymous": false,
      "inputs": [
        {
          "indexed": true,
          "internalType": "bytes32",
          "name": "role",
          "type": "bytes32"
        },
        {
          "indexed": true,
          "internalType": "bytes32",
          "name": "previousAdminRole",
          "type": "bytes32"
        },
        {
          "indexed": true,
          "internalType": "bytes32",
          "name": "newAdminRole",
          "type": "bytes32"
        }
      ],
      "name": "RoleAdminChanged",
      "type": "event"
    },
    {
      "anonymous": false,
      "inputs": [
        {
          "indexed": true,
          "internalType": "bytes32",
          "name": "role",
          "type": "bytes32"
        },
        {
          "indexed": true,
          "internalType": "address",
          "name": "account",
          "type": "address"
        },
        {
          "indexed": true,
          "internalType": "address",
          "name": "sender",
          "type": "address"
        }
      ],
      "name": "RoleGranted",
      "type": "event"
    },
    {
      "anonymous": false,
      "inputs": [
        {
          "indexed": true,
          "internalType": "bytes32",
          "name": "role",
          "type": "bytes32"
        },
        {
          "indexed": true,
          "internalType": "address",
          "name": "account",
          "type": "address"
        },
        {
          "indexed": true,
          "internalType": "address",
          "name": "sender",
          "type": "address"
        }
      ],
      "name": "RoleRevoked",
      "type": "event"
    },
    {
      "anonymous": false,
      "inputs": [
        {
          "indexed": true,
          "internalType": "address",
          "name": "_contract",
          "type": "address"
        }
      ],
      "name": "SetLiquidStakingContract",
      "type": "event"
    },
    {
      "anonymous": false,
      "inputs": [
        {
          "indexed": true,
          "internalType": "address",
          "name": "_contract",
          "type": "address"
        }
      ],
      "name": "SetUTokensContract",
      "type": "event"
    },
    {
      "anonymous": false,
      "inputs": [
        {
          "indexed": true,
          "internalType": "address",
          "name": "_contract",
          "type": "address"
        }
      ],
      "name": "SetWrapperContract",
      "type": "event"
    },
    {
      "anonymous": false,
      "inputs": [
        {
          "indexed": true,
          "internalType": "address",
          "name": "from",
          "type": "address"
        },
        {
          "indexed": true,
          "internalType": "address",
          "name": "to",
          "type": "address"
        },
        {
          "indexed": false,
          "internalType": "uint256",
          "name": "value",
          "type": "uint256"
        }
      ],
      "name": "Transfer",
      "type": "event"
    },
    {
      "anonymous": false,
      "inputs": [
        {
          "indexed": true,
          "internalType": "address",
          "name": "accountAddress",
          "type": "address"
        },
        {
          "indexed": false,
          "internalType": "uint256",
          "name": "tokens",
          "type": "uint256"
        },
        {
          "indexed": false,
          "internalType": "uint256",
          "name": "timestamp",
          "type": "uint256"
        }
      ],
      "name": "TriggeredCalculateRewards",
      "type": "event"
    },
    {
      "anonymous": false,
      "inputs": [
        {
          "indexed": false,
          "internalType": "address",
          "name": "account",
          "type": "address"
        }
      ],
      "name": "Unpaused",
      "type": "event"
    },
    {
      "inputs": [],
      "name": "DEFAULT_ADMIN_ROLE",
      "outputs": [
        {
          "internalType": "bytes32",
          "name": "",
          "type": "bytes32"
        }
      ],
      "stateMutability": "view",
      "type": "function",
      "constant": true
    },
    {
      "inputs": [],
      "name": "PAUSER_ROLE",
      "outputs": [
        {
          "internalType": "bytes32",
          "name": "",
          "type": "bytes32"
        }
      ],
      "stateMutability": "view",
      "type": "function",
      "constant": true
    },
    {
      "inputs": [
        {
          "internalType": "address",
          "name": "owner",
          "type": "address"
        },
        {
          "internalType": "address",
          "name": "spender",
          "type": "address"
        }
      ],
      "name": "allowance",
      "outputs": [
        {
          "internalType": "uint256",
          "name": "",
          "type": "uint256"
        }
      ],
      "stateMutability": "view",
      "type": "function",
      "constant": true
    },
    {
      "inputs": [
        {
          "internalType": "address",
          "name": "spender",
          "type": "address"
        },
        {
          "internalType": "uint256",
          "name": "amount",
          "type": "uint256"
        }
      ],
      "name": "approve",
      "outputs": [
        {
          "internalType": "bool",
          "name": "",
          "type": "bool"
        }
      ],
      "stateMutability": "nonpayable",
      "type": "function"
    },
    {
      "inputs": [
        {
          "internalType": "address",
          "name": "account",
          "type": "address"
        }
      ],
      "name": "balanceOf",
      "outputs": [
        {
          "internalType": "uint256",
          "name": "",
          "type": "uint256"
        }
      ],
      "stateMutability": "view",
      "type": "function",
      "constant": true
    },
    {
      "inputs": [],
      "name": "decimals",
      "outputs": [
        {
          "internalType": "uint8",
          "name": "",
          "type": "uint8"
        }
      ],
      "stateMutability": "view",
      "type": "function",
      "constant": true
    },
    {
      "inputs": [
        {
          "internalType": "address",
          "name": "spender",
          "type": "address"
        },
        {
          "internalType": "uint256",
          "name": "subtractedValue",
          "type": "uint256"
        }
      ],
      "name": "decreaseAllowance",
      "outputs": [
        {
          "internalType": "bool",
          "name": "",
          "type": "bool"
        }
      ],
      "stateMutability": "nonpayable",
      "type": "function"
    },
    {
      "inputs": [
        {
          "internalType": "bytes32",
          "name": "role",
          "type": "bytes32"
        }
      ],
      "name": "getRoleAdmin",
      "outputs": [
        {
          "internalType": "bytes32",
          "name": "",
          "type": "bytes32"
        }
      ],
      "stateMutability": "view",
      "type": "function",
      "constant": true
    },
    {
      "inputs": [
        {
          "internalType": "bytes32",
          "name": "role",
          "type": "bytes32"
        },
        {
          "internalType": "uint256",
          "name": "index",
          "type": "uint256"
        }
      ],
      "name": "getRoleMember",
      "outputs": [
        {
          "internalType": "address",
          "name": "",
          "type": "address"
        }
      ],
      "stateMutability": "view",
      "type": "function",
      "constant": true
    },
    {
      "inputs": [
        {
          "internalType": "bytes32",
          "name": "role",
          "type": "bytes32"
        }
      ],
      "name": "getRoleMemberCount",
      "outputs": [
        {
          "internalType": "uint256",
          "name": "",
          "type": "uint256"
        }
      ],
      "stateMutability": "view",
      "type": "function",
      "constant": true
    },
    {
      "inputs": [
        {
          "internalType": "bytes32",
          "name": "role",
          "type": "bytes32"
        },
        {
          "internalType": "address",
          "name": "account",
          "type": "address"
        }
      ],
      "name": "grantRole",
      "outputs": [],
      "stateMutability": "nonpayable",
      "type": "function"
    },
    {
      "inputs": [
        {
          "internalType": "bytes32",
          "name": "role",
          "type": "bytes32"
        },
        {
          "internalType": "address",
          "name": "account",
          "type": "address"
        }
      ],
      "name": "hasRole",
      "outputs": [
        {
          "internalType": "bool",
          "name": "",
          "type": "bool"
        }
      ],
      "stateMutability": "view",
      "type": "function",
      "constant": true
    },
    {
      "inputs": [
        {
          "internalType": "address",
          "name": "spender",
          "type": "address"
        },
        {
          "internalType": "uint256",
          "name": "addedValue",
          "type": "uint256"
        }
      ],
      "name": "increaseAllowance",
      "outputs": [
        {
          "internalType": "bool",
          "name": "",
          "type": "bool"
        }
      ],
      "stateMutability": "nonpayable",
      "type": "function"
    },
    {
      "inputs": [],
      "name": "name",
      "outputs": [
        {
          "internalType": "string",
          "name": "",
          "type": "string"
        }
      ],
      "stateMutability": "view",
      "type": "function",
      "constant": true
    },
    {
      "inputs": [],
      "name": "paused",
      "outputs": [
        {
          "internalType": "bool",
          "name": "",
          "type": "bool"
        }
      ],
      "stateMutability": "view",
      "type": "function",
      "constant": true
    },
    {
      "inputs": [
        {
          "internalType": "bytes32",
          "name": "role",
          "type": "bytes32"
        },
        {
          "internalType": "address",
          "name": "account",
          "type": "address"
        }
      ],
      "name": "renounceRole",
      "outputs": [],
      "stateMutability": "nonpayable",
      "type": "function"
    },
    {
      "inputs": [
        {
          "internalType": "bytes32",
          "name": "role",
          "type": "bytes32"
        },
        {
          "internalType": "address",
          "name": "account",
          "type": "address"
        }
      ],
      "name": "revokeRole",
      "outputs": [],
      "stateMutability": "nonpayable",
      "type": "function"
    },
    {
      "inputs": [],
      "name": "symbol",
      "outputs": [
        {
          "internalType": "string",
          "name": "",
          "type": "string"
        }
      ],
      "stateMutability": "view",
      "type": "function",
      "constant": true
    },
    {
      "inputs": [],
      "name": "totalSupply",
      "outputs": [
        {
          "internalType": "uint256",
          "name": "",
          "type": "uint256"
        }
      ],
      "stateMutability": "view",
      "type": "function",
      "constant": true
    },
    {
      "inputs": [
        {
          "internalType": "address",
          "name": "recipient",
          "type": "address"
        },
        {
          "internalType": "uint256",
          "name": "amount",
          "type": "uint256"
        }
      ],
      "name": "transfer",
      "outputs": [
        {
          "internalType": "bool",
          "name": "",
          "type": "bool"
        }
      ],
      "stateMutability": "nonpayable",
      "type": "function"
    },
    {
      "inputs": [
        {
          "internalType": "address",
          "name": "sender",
          "type": "address"
        },
        {
          "internalType": "address",
          "name": "recipient",
          "type": "address"
        },
        {
          "internalType": "uint256",
          "name": "amount",
          "type": "uint256"
        }
      ],
      "name": "transferFrom",
      "outputs": [
        {
          "internalType": "bool",
          "name": "",
          "type": "bool"
        }
      ],
      "stateMutability": "nonpayable",
      "type": "function"
    },
    {
      "inputs": [
        {
          "internalType": "address",
          "name": "uaddress",
          "type": "address"
        },
        {
          "internalType": "address",
          "name": "pauserAddress",
          "type": "address"
        },
        {
          "internalType": "uint256",
          "name": "rewardRate",
          "type": "uint256"
        },
        {
          "internalType": "uint256",
          "name": "rewardDivisor",
          "type": "uint256"
        }
      ],
      "name": "initialize",
      "outputs": [],
      "stateMutability": "nonpayable",
      "type": "function"
    },
    {
      "inputs": [
        {
          "internalType": "uint256",
          "name": "rewardRate",
          "type": "uint256"
        }
      ],
      "name": "setRewardRate",
      "outputs": [
        {
          "internalType": "bool",
          "name": "success",
          "type": "bool"
        }
      ],
      "stateMutability": "nonpayable",
      "type": "function"
    },
    {
      "inputs": [],
      "name": "getRewardRate",
      "outputs": [
        {
          "internalType": "uint256[]",
          "name": "rewardRate",
          "type": "uint256[]"
        },
        {
          "internalType": "uint256",
          "name": "rewardDivisor",
          "type": "uint256"
        }
      ],
      "stateMutability": "view",
      "type": "function",
      "constant": true
    },
    {
      "inputs": [
        {
          "internalType": "address",
          "name": "to",
          "type": "address"
        }
      ],
      "name": "getStakedBlock",
      "outputs": [
        {
          "internalType": "uint256",
          "name": "stakedBlocks",
          "type": "uint256"
        }
      ],
      "stateMutability": "view",
      "type": "function",
      "constant": true
    },
    {
      "inputs": [
        {
          "internalType": "address",
          "name": "to",
          "type": "address"
        },
        {
          "internalType": "uint256",
          "name": "tokens",
          "type": "uint256"
        }
      ],
      "name": "mint",
      "outputs": [
        {
          "internalType": "bool",
          "name": "success",
          "type": "bool"
        }
      ],
      "stateMutability": "nonpayable",
      "type": "function"
    },
    {
      "inputs": [
        {
          "internalType": "address",
          "name": "from",
          "type": "address"
        },
        {
          "internalType": "uint256",
          "name": "tokens",
          "type": "uint256"
        }
      ],
      "name": "burn",
      "outputs": [
        {
          "internalType": "bool",
          "name": "success",
          "type": "bool"
        }
      ],
      "stateMutability": "nonpayable",
      "type": "function"
    },
    {
      "inputs": [
        {
          "internalType": "address",
          "name": "to",
          "type": "address"
        }
      ],
      "name": "calculatePendingRewards",
      "outputs": [
        {
          "internalType": "uint256",
          "name": "pendingRewards",
          "type": "uint256"
        }
      ],
      "stateMutability": "view",
      "type": "function",
      "constant": true
    },
    {
      "inputs": [
        {
          "internalType": "address",
          "name": "to",
          "type": "address"
        }
      ],
      "name": "calculateRewards",
      "outputs": [
        {
          "internalType": "bool",
          "name": "success",
          "type": "bool"
        }
      ],
      "stateMutability": "nonpayable",
      "type": "function"
    },
    {
      "inputs": [
        {
          "internalType": "address",
          "name": "uTokenContract",
          "type": "address"
        }
      ],
      "name": "setUTokensContract",
      "outputs": [],
      "stateMutability": "nonpayable",
      "type": "function"
    },
    {
      "inputs": [
        {
          "internalType": "address",
          "name": "liquidStakingContract",
          "type": "address"
        }
      ],
      "name": "setLiquidStakingContract",
      "outputs": [],
      "stateMutability": "nonpayable",
      "type": "function"
    },
    {
      "inputs": [
        {
          "internalType": "address",
          "name": "wrapperContract",
          "type": "address"
        }
      ],
      "name": "setWrapperContract",
      "outputs": [],
      "stateMutability": "nonpayable",
      "type": "function"
    },
    {
      "inputs": [],
      "name": "pause",
      "outputs": [
        {
          "internalType": "bool",
          "name": "success",
          "type": "bool"
        }
      ],
      "stateMutability": "nonpayable",
      "type": "function"
    },
    {
      "inputs": [],
      "name": "unpause",
      "outputs": [
        {
          "internalType": "bool",
          "name": "success",
          "type": "bool"
        }
      ],
      "stateMutability": "nonpayable",
      "type": "function"
    }
  ],
  "bytecode": "0x608060405234801561001057600080fd5b50612b50806100206000396000f3fe608060405234801561001057600080fd5b50600436106102065760003560e01c806370a082311161011a578063a217fddf116100ad578063d04be5751161007c578063d04be5751461069d578063d547741f146106c3578063dd62ed3e146106ef578063e63ab1e91461071d578063eb990c591461072557610206565b8063a217fddf14610620578063a457c2d714610628578063a9059cbb14610654578063ca15c8731461068057610206565b806391d14854116100e957806391d14854146105a357806395d89b41146105cf5780639dc29fac146105d75780639e447fc61461060357610206565b806370a08231146104d35780637e1a3786146104f95780638456cb591461055c5780639010d07c1461056457610206565b8063313ce5671161019d57806340c10f191161016c57806340c10f191461042d5780634e5581271461045957806358f8943e1461047f5780635c975abb146104a557806364ab8675146104ad57610206565b8063313ce567146103af57806336568abe146103cd57806339509351146103f95780633f4ba83a1461042557610206565b806321bdf9e5116101d957806321bdf9e51461030857806323b872dd14610330578063248a9ca3146103665780632f2ff15d1461038357610206565b806306fdde031461020b578063095ea7b314610288578063097aad10146102c857806318160ddd14610300575b600080fd5b610213610761565b6040805160208082528351818301528351919283929083019185019080838360005b8381101561024d578181015183820152602001610235565b50505050905090810190601f16801561027a5780820380516001836020036101000a031916815260200191505b509250505060405180910390f35b6102b46004803603604081101561029e57600080fd5b506001600160a01b0381351690602001356107f7565b604080519115158252519081900360200190f35b6102ee600480360360208110156102de57600080fd5b50356001600160a01b0316610815565b60408051918252519081900360200190f35b6102ee610a1e565b61032e6004803603602081101561031e57600080fd5b50356001600160a01b0316610a24565b005b6102b46004803603606081101561034657600080fd5b506001600160a01b03813581169160208101359091169060400135610abb565b6102ee6004803603602081101561037c57600080fd5b5035610b42565b61032e6004803603604081101561039957600080fd5b50803590602001356001600160a01b0316610b57565b6103b7610bbe565b6040805160ff9092168252519081900360200190f35b61032e600480360360408110156103e357600080fd5b50803590602001356001600160a01b0316610bc7565b6102b46004803603604081101561040f57600080fd5b506001600160a01b038135169060200135610c28565b6102b4610c76565b6102b46004803603604081101561044357600080fd5b506001600160a01b038135169060200135610cdb565b61032e6004803603602081101561046f57600080fd5b50356001600160a01b0316610da1565b61032e6004803603602081101561049557600080fd5b50356001600160a01b0316610e33565b6102b4610ec5565b6102b4600480360360208110156104c357600080fd5b50356001600160a01b0316610ece565b6102ee600480360360208110156104e957600080fd5b50356001600160a01b0316610fd0565b610501610feb565b6040518080602001838152602001828103825284818151815260200191508051906020019060200280838360005b8381101561054757818101518382015260200161052f565b50505050905001935050505060405180910390f35b6102b461104b565b6105876004803603604081101561057a57600080fd5b50803590602001356110aa565b604080516001600160a01b039092168252519081900360200190f35b6102b4600480360360408110156105b957600080fd5b50803590602001356001600160a01b03166110c9565b6102136110e1565b6102b4600480360360408110156105ed57600080fd5b506001600160a01b038135169060200135611142565b6102b46004803603602081101561061957600080fd5b5035611208565b6102ee6112fb565b6102b46004803603604081101561063e57600080fd5b506001600160a01b038135169060200135611300565b6102b46004803603604081101561066a57600080fd5b506001600160a01b038135169060200135611368565b6102ee6004803603602081101561069657600080fd5b503561137c565b6102ee600480360360208110156106b357600080fd5b50356001600160a01b0316611393565b61032e600480360360408110156106d957600080fd5b50803590602001356001600160a01b03166113ae565b6102ee6004803603604081101561070557600080fd5b506001600160a01b0381358116916020013516611407565b6102ee611432565b61032e6004803603608081101561073b57600080fd5b506001600160a01b03813581169160208101359091169060408101359060600135611444565b60368054604080516020601f60026000196101006001881615020190951694909404938401819004810282018101909252828152606093909290918301828280156107ed5780601f106107c2576101008083540402835291602001916107ed565b820191906000526020600020905b8154815290600101906020018083116107d057829003601f168201915b5050505050905090565b600061080b6108046115f4565b84846115f8565b5060015b92915050565b6001600160a01b038116600090815260cf60205260408120548161083884610fd0565b60cd54909150600090819081906108509060016116e4565b92505b60cd546108619060016116e4565b831015610973578460cd848154811061087657fe5b9060005260206000200154111561092b576108d360cd848154811061089757fe5b60009182526020909120015460cd6108b0866001611741565b815481106108ba57fe5b90600052602060002001546116e490919063ffffffff16565b915061091860ce546064026109128461090c60cc88815481106108f257fe5b90600052602060002001548961179b90919063ffffffff16565b9061179b565b906117f4565b90506109248682611741565b955061096e565b61093c8560cd6108b0866001611741565b915061095b60ce546064026109128461090c60cc88815481106108f257fe5b90506109678682611741565b9550610a14565b6109f8565b8460cd848154811061098157fe5b906000526020600020015411156109ee576109bc60cd84815481106109a257fe5b9060005260206000200154436116e490919063ffffffff16565b91506109db60ce546064026109128461090c60cc88815481106108f257fe5b90506109e78682611741565b95506109f8565b61093c43866116e4565b82610a0257610a14565b610a0d8360016116e4565b9250610853565b5050505050919050565b60355490565b610a366000610a316115f4565b6110c9565b610a715760405162461bcd60e51b815260040180806020018281038252603b815260200180612991603b913960400191505060405180910390fd5b60cb80546001600160a01b0319166001600160a01b0383169081179091556040517ff745c285f36f88bea6af14d4d0f33dd9350cef7895216c1615b1caaee7857e0c90600090a250565b6000610ac884848461185b565b610b3884610ad46115f4565b610b338560405180606001604052806028815260200161291d602891396001600160a01b038a16600090815260346020526040812090610b126115f4565b6001600160a01b0316815260208101919091526040016000205491906119b8565b6115f8565b5060019392505050565b60009081526097602052604090206002015490565b600082815260976020526040902060020154610b7590610a316115f4565b610bb05760405162461bcd60e51b815260040180806020018281038252602f815260200180612701602f913960400191505060405180910390fd5b610bba8282611a4f565b5050565b60385460ff1690565b610bcf6115f4565b6001600160a01b0316816001600160a01b031614610c1e5760405162461bcd60e51b815260040180806020018281038252602f815260200180612ac2602f913960400191505060405180910390fd5b610bba8282611ab8565b600061080b610c356115f4565b84610b338560346000610c466115f4565b6001600160a01b03908116825260208083019390935260409182016000908120918c168152925290205490611741565b6000610c92600080516020612945833981519152610a316115f4565b610ccd5760405162461bcd60e51b81526004018080602001828103825260328152602001806127746032913960400191505060405180910390fd5b610cd5611b21565b50600190565b6000610ce5610ec5565b15610d2a576040805162461bcd60e51b815260206004820152601060248201526f14185d5cd8589b194e881c185d5cd95960821b604482015290519081900360640190fd5b326001600160a01b038416148015610d5c575060c9546001600160a01b0316610d516115f4565b6001600160a01b0316145b610d975760405162461bcd60e51b815260040180806020018281038252602c8152602001806126d5602c913960400191505060405180910390fd5b61080b8383611bc1565b610dae6000610a316115f4565b610de95760405162461bcd60e51b81526004018080602001828103825260348152602001806127fb6034913960400191505060405180910390fd5b60ca80546001600160a01b0319166001600160a01b0383169081179091556040517fe64d0ea1a8162224d25416ba9164fe1dae6ec14e9f846220b287c0c1c9413e0590600090a250565b610e406000610a316115f4565b610e7b5760405162461bcd60e51b815260040180806020018281038252603a815260200180612a1a603a913960400191505060405180910390fd5b60c980546001600160a01b0319166001600160a01b0383169081179091556040517f57fded54c0f01b7b2c662bd89530d6916e48149e02da384db87d1a67306be87190600090a250565b60655460ff1690565b6000610ed8610ec5565b15610f1d576040805162461bcd60e51b815260206004820152601060248201526f14185d5cd8589b194e881c185d5cd95960821b604482015290519081900360640190fd5b610f256115f4565b6001600160a01b0316826001600160a01b031614610f745760405162461bcd60e51b815260040180806020018281038252603f8152602001806128de603f913960400191505060405180910390fd5b6000610f7f83611cb3565b6040805182815242602082015281519293506001600160a01b038616927fd0194489832efa41a56f4a4add6fbbe260998cbcff0b43c953af28b545ca7a01929181900390910190a250600192915050565b6001600160a01b031660009081526033602052604090205490565b6060600060cc80548060200260200160405190810160405280929190818152602001828054801561103b57602002820191906000526020600020905b815481526020019060010190808311611027575b5050505050915060ce5490509091565b6000611067600080516020612945833981519152610a316115f4565b6110a25760405162461bcd60e51b815260040180806020018281038252603081526020018061288d6030913960400191505060405180910390fd5b610cd5611dad565b60008281526097602052604081206110c29083611e30565b9392505050565b60008281526097602052604081206110c29083611e3c565b60378054604080516020601f60026000196101006001881615020190951694909404938401819004810282018101909252828152606093909290918301828280156107ed5780601f106107c2576101008083540402835291602001916107ed565b600061114c610ec5565b15611191576040805162461bcd60e51b815260206004820152601060248201526f14185d5cd8589b194e881c185d5cd95960821b604482015290519081900360640190fd5b326001600160a01b0384161480156111c3575060c9546001600160a01b03166111b86115f4565b6001600160a01b0316145b6111fe5760405162461bcd60e51b815260040180806020018281038252602c815260200180612965602c913960400191505060405180910390fd5b61080b8383611e51565b60008082116112485760405162461bcd60e51b815260040180806020018281038252602d8152602001806129ed602d913960400191505060405180910390fd5b6112556000610a316115f4565b6112905760405162461bcd60e51b815260040180806020018281038252602f8152602001806127a6602f913960400191505060405180910390fd5b5060cc805460018082019092557f47197230e1e4b29fc0bd84d7d78966c0925452aff72a2a121538b102457e9ebe019190915560cd80548083018255600091909152437f83978b4c69c48dd978ab43fe30f077615294f938fb7f936d9eb340e51ea7db2e9091015590565b600081565b600061080b61130d6115f4565b84610b3385604051806060016040528060258152602001612a9d60259139603460006113376115f4565b6001600160a01b03908116825260208083019390935260409182016000908120918d168152925290205491906119b8565b600061080b6113756115f4565b848461185b565b600081815260976020526040812061080f90611f4d565b6001600160a01b0316600090815260cf602052604090205490565b6000828152609760205260409020600201546113cc90610a316115f4565b610c1e5760405162461bcd60e51b815260040180806020018281038252603081526020018061282f6030913960400191505060405180910390fd5b6001600160a01b03918216600090815260346020908152604080832093909416825291909152205490565b60008051602061294583398151915281565b600054610100900460ff168061145d575061145d611f58565b8061146b575060005460ff16155b6114a65760405162461bcd60e51b815260040180806020018281038252602e81526020018061285f602e913960400191505060405180910390fd5b600054610100900460ff161580156114d1576000805460ff1961ff0019909116610100171660011790555b61152660405180604001604052806013815260200172705354414b45205374616b65642041544f4d7360681b8152506040518060400160405280600881526020016773746b41544f4d7360c01b815250611f69565b61152e61201f565b6115366120d1565b61154860006115436115f4565b610bb0565b61156060008051602061294583398151915285610bb0565b61156985610a24565b60cc805460018181019092557f47197230e1e4b29fc0bd84d7d78966c0925452aff72a2a121538b102457e9ebe0184905560cd80549182018155600052437f83978b4c69c48dd978ab43fe30f077615294f938fb7f936d9eb340e51ea7db2e9091015560ce8290556115db600661216e565b80156115ed576000805461ff00191690555b5050505050565b3390565b6001600160a01b03831661163d5760405162461bcd60e51b8152600401808060200182810382526024815260200180612a796024913960400191505060405180910390fd5b6001600160a01b0382166116825760405162461bcd60e51b81526004018080602001828103825260228152602001806127526022913960400191505060405180910390fd5b6001600160a01b03808416600081815260346020908152604080832094871680845294825291829020859055815185815291517f8c5be1e5ebec7d5bd14f71427d1e84f3dd0314c0f7b2291e5b200ac8c7c3b9259281900390910190a3505050565b60008282111561173b576040805162461bcd60e51b815260206004820152601e60248201527f536166654d6174683a207375627472616374696f6e206f766572666c6f770000604482015290519081900360640190fd5b50900390565b6000828201838110156110c2576040805162461bcd60e51b815260206004820152601b60248201527f536166654d6174683a206164646974696f6e206f766572666c6f770000000000604482015290519081900360640190fd5b6000826117aa5750600061080f565b828202828482816117b757fe5b04146110c25760405162461bcd60e51b81526004018080602001828103825260218152602001806128bd6021913960400191505060405180910390fd5b600080821161184a576040805162461bcd60e51b815260206004820152601a60248201527f536166654d6174683a206469766973696f6e206279207a65726f000000000000604482015290519081900360640190fd5b81838161185357fe5b049392505050565b6001600160a01b0383166118a05760405162461bcd60e51b8152600401808060200182810382526025815260200180612a546025913960400191505060405180910390fd5b6001600160a01b0382166118e55760405162461bcd60e51b81526004018080602001828103825260238152602001806126b26023913960400191505060405180910390fd5b6118f0838383612184565b61192d816040518060600160405280602681526020016127d5602691396001600160a01b03861660009081526033602052604090205491906119b8565b6001600160a01b03808516600090815260336020526040808220939093559084168152205461195c9082611741565b6001600160a01b0380841660008181526033602090815260409182902094909455805185815290519193928716927fddf252ad1be2c89b69c2b068fc378daa952ba7f163c4a11628f55a4df523b3ef92918290030190a3505050565b60008184841115611a475760405162461bcd60e51b81526004018080602001828103825283818151815260200191508051906020019080838360005b83811015611a0c5781810151838201526020016119f4565b50505050905090810190601f168015611a395780820380516001836020036101000a031916815260200191505b509250505060405180910390fd5b505050900390565b6000828152609760205260409020611a67908261220b565b15610bba57611a746115f4565b6001600160a01b0316816001600160a01b0316837f2f8788117e7eff1d82e926ec794901d17c78024a50270940304540a733656f0d60405160405180910390a45050565b6000828152609760205260409020611ad09082612220565b15610bba57611add6115f4565b6001600160a01b0316816001600160a01b0316837ff6391f5c32d9c69d2a47ea670b442974b53935d1edc7fd64eb21e047a839171b60405160405180910390a45050565b611b29610ec5565b611b71576040805162461bcd60e51b815260206004820152601460248201527314185d5cd8589b194e881b9bdd081c185d5cd95960621b604482015290519081900360640190fd5b6065805460ff191690557f5db9ee0a495bf2e6ff9c91a7834c1ba4fdd244a5e8aa4e537bd38aeae4b073aa611ba46115f4565b604080516001600160a01b039092168252519081900360200190a1565b6001600160a01b038216611c1c576040805162461bcd60e51b815260206004820152601f60248201527f45524332303a206d696e7420746f20746865207a65726f206164647265737300604482015290519081900360640190fd5b611c2860008383612184565b603554611c359082611741565b6035556001600160a01b038216600090815260336020526040902054611c5b9082611741565b6001600160a01b03831660008181526033602090815260408083209490945583518581529351929391927fddf252ad1be2c89b69c2b068fc378daa952ba7f163c4a11628f55a4df523b3ef9281900390910190a35050565b600080611cbf83610815565b90508015611d8c576040805182815242602082015281516001600160a01b038616927f01ea729deb12fa912e813101b1da8b7c1500f7f26c912a612221a02af6a56220928290030190a260cb54604080516340c10f1960e01b81526001600160a01b03868116600483015260248201859052915191909216916340c10f199160448083019260209291908290030181600087803b158015611d5f57600080fd5b505af1158015611d73573d6000803e3d6000fd5b505050506040513d6020811015611d8957600080fd5b50505b6001600160a01b0392909216600090815260cf602052604090204390555090565b611db5610ec5565b15611dfa576040805162461bcd60e51b815260206004820152601060248201526f14185d5cd8589b194e881c185d5cd95960821b604482015290519081900360640190fd5b6065805460ff191660011790557f62e78cea01bee320cd4e420270b5ea74000d11b0c9f74754ebdbfc544b05a258611ba46115f4565b60006110c28383612235565b60006110c2836001600160a01b038416612299565b6001600160a01b038216611e965760405162461bcd60e51b81526004018080602001828103825260218152602001806129cc6021913960400191505060405180910390fd5b611ea282600083612184565b611edf81604051806060016040528060228152602001612730602291396001600160a01b03851660009081526033602052604090205491906119b8565b6001600160a01b038316600090815260336020526040902055603554611f0590826116e4565b6035556040805182815290516000916001600160a01b038516917fddf252ad1be2c89b69c2b068fc378daa952ba7f163c4a11628f55a4df523b3ef9181900360200190a35050565b600061080f826122b1565b6000611f63306122b5565b15905090565b600054610100900460ff1680611f825750611f82611f58565b80611f90575060005460ff16155b611fcb5760405162461bcd60e51b815260040180806020018281038252602e81526020018061285f602e913960400191505060405180910390fd5b600054610100900460ff16158015611ff6576000805460ff1961ff0019909116610100171660011790555b611ffe6122bb565b612008838361235b565b801561201a576000805461ff00191690555b505050565b600054610100900460ff16806120385750612038611f58565b80612046575060005460ff16155b6120815760405162461bcd60e51b815260040180806020018281038252602e81526020018061285f602e913960400191505060405180910390fd5b600054610100900460ff161580156120ac576000805460ff1961ff0019909116610100171660011790555b6120b46122bb565b6120bc6122bb565b80156120ce576000805461ff00191690555b50565b600054610100900460ff16806120ea57506120ea611f58565b806120f8575060005460ff16155b6121335760405162461bcd60e51b815260040180806020018281038252602e81526020018061285f602e913960400191505060405180910390fd5b600054610100900460ff1615801561215e576000805460ff1961ff0019909116610100171660011790555b6121666122bb565b6120bc612433565b6038805460ff191660ff92909216919091179055565b61218c610ec5565b156121c85760405162461bcd60e51b815260040180806020018281038252602a815260200180612af1602a913960400191505060405180910390fd5b6121d383838361201a565b6001600160a01b038316156121ed576121eb83611cb3565b505b6001600160a01b0382161561201a5761220582611cb3565b50505050565b60006110c2836001600160a01b0384166124de565b60006110c2836001600160a01b038416612528565b815460009082106122775760405162461bcd60e51b81526004018080602001828103825260228152602001806126906022913960400191505060405180910390fd5b82600001828154811061228657fe5b9060005260206000200154905092915050565b60009081526001919091016020526040902054151590565b5490565b3b151590565b600054610100900460ff16806122d457506122d4611f58565b806122e2575060005460ff16155b61231d5760405162461bcd60e51b815260040180806020018281038252602e81526020018061285f602e913960400191505060405180910390fd5b600054610100900460ff161580156120bc576000805460ff1961ff00199091166101001716600117905580156120ce576000805461ff001916905550565b600054610100900460ff16806123745750612374611f58565b80612382575060005460ff16155b6123bd5760405162461bcd60e51b815260040180806020018281038252602e81526020018061285f602e913960400191505060405180910390fd5b600054610100900460ff161580156123e8576000805460ff1961ff0019909116610100171660011790555b82516123fb9060369060208601906125ee565b50815161240f9060379060208501906125ee565b506038805460ff19166012179055801561201a576000805461ff0019169055505050565b600054610100900460ff168061244c575061244c611f58565b8061245a575060005460ff16155b6124955760405162461bcd60e51b815260040180806020018281038252602e81526020018061285f602e913960400191505060405180910390fd5b600054610100900460ff161580156124c0576000805460ff1961ff0019909116610100171660011790555b6065805460ff1916905580156120ce576000805461ff001916905550565b60006124ea8383612299565b6125205750815460018181018455600084815260208082209093018490558454848252828601909352604090209190915561080f565b50600061080f565b600081815260018301602052604081205480156125e4578354600019808301919081019060009087908390811061255b57fe5b906000526020600020015490508087600001848154811061257857fe5b6000918252602080832090910192909255828152600189810190925260409020908401905586548790806125a857fe5b6001900381819060005260206000200160009055905586600101600087815260200190815260200160002060009055600194505050505061080f565b600091505061080f565b828054600181600116156101000203166002900490600052602060002090601f016020900481019282612624576000855561266a565b82601f1061263d57805160ff191683800117855561266a565b8280016001018555821561266a579182015b8281111561266a57825182559160200191906001019061264f565b5061267692915061267a565b5090565b5b80821115612676576000815560010161267b56fe456e756d657261626c655365743a20696e646578206f7574206f6620626f756e647345524332303a207472616e7366657220746f20746865207a65726f206164647265737353546f6b656e733a2055736572206e6f7420617574686f726973656420746f206d696e742053546f6b656e73416363657373436f6e74726f6c3a2073656e646572206d75737420626520616e2061646d696e20746f206772616e7445524332303a206275726e20616d6f756e7420657863656564732062616c616e636545524332303a20617070726f766520746f20746865207a65726f206164647265737353546f6b656e733a2055736572206e6f7420617574686f726973656420746f20756e706175736520636f6e7472616374732e53546f6b656e733a2055736572206e6f7420617574686f726973656420746f2073657420726577617264207261746545524332303a207472616e7366657220616d6f756e7420657863656564732062616c616e636553546f6b656e733a2055736572206e6f7420617574686f726973656420746f20736574207772617070657220636f6e7472616374416363657373436f6e74726f6c3a2073656e646572206d75737420626520616e2061646d696e20746f207265766f6b65496e697469616c697a61626c653a20636f6e747261637420697320616c726561647920696e697469616c697a656453546f6b656e733a2055736572206e6f7420617574686f726973656420746f20706175736520636f6e7472616374732e536166654d6174683a206d756c7469706c69636174696f6e206f766572666c6f7753546f6b656e733a206f6e6c79207374616b65722063616e20696e697469617465207468656972206f776e20726577617264732063616c63756c6174696f6e45524332303a207472616e7366657220616d6f756e74206578636565647320616c6c6f77616e636565d7a28e3265b37a6474929f336521b332c1681b933f6cb9f3376673440d862a53546f6b656e733a2055736572206e6f7420617574686f726973656420746f206275726e2053546f6b656e7353546f6b656e733a2055736572206e6f7420617574686f726973656420746f207365742055546f6b656e20636f6e7472616374206164647265737345524332303a206275726e2066726f6d20746865207a65726f206164647265737353546f6b656e733a2052657761726420726174652073686f756c642062652067726561746572207468616e203053546f6b656e733a2055736572206e6f7420617574686f726973656420746f20736574206c69717569645374616b696e6720636f6e747261637445524332303a207472616e736665722066726f6d20746865207a65726f206164647265737345524332303a20617070726f76652066726f6d20746865207a65726f206164647265737345524332303a2064656372656173656420616c6c6f77616e63652062656c6f77207a65726f416363657373436f6e74726f6c3a2063616e206f6e6c792072656e6f756e636520726f6c657320666f722073656c6645524332305061757361626c653a20746f6b656e207472616e73666572207768696c6520706175736564a2646970667358221220e0eca374b01b66ca86820392db45c0ca3f2747ba41f938b2830f559b8b45e19764736f6c63430007060033",
  "immutableReferences": {},
  "source": "// SPDX-License-Identifier: UNLICENSED\npragma solidity ^0.7.0;\n\nimport \"@openzeppelin/contracts-upgradeable/token/ERC20/ERC20Upgradeable.sol\";\nimport \"@openzeppelin/contracts-upgradeable/math/SafeMathUpgradeable.sol\";\nimport \"@openzeppelin/contracts-upgradeable/utils/PausableUpgradeable.sol\";\nimport \"@openzeppelin/contracts-upgradeable/access/AccessControlUpgradeable.sol\";\nimport \"./interfaces/ISTokens.sol\";\nimport \"./interfaces/IUTokens.sol\";\n\ncontract STokens is ERC20Upgradeable, ISTokens, PausableUpgradeable, AccessControlUpgradeable {\n\n    using SafeMathUpgradeable for uint256;\n\n    bytes32 public constant PAUSER_ROLE = keccak256(\"PAUSER_ROLE\");\n\n    address private _liquidStakingContract;\n    address private _wrapperContract;\n\n    //Private instance of contract to handle Utokens\n    IUTokens private _uTokens;\n\n\n    uint256[] private _rewardRate;\n    uint256[] private _rewardBlockNumber;\n    uint256 private _rewardDivisor;\n\n    mapping(address => uint256) private _stakedBlocks;\n\n    /**\n   * @dev Constructor for initializing the SToken contract.\n   * @param uaddress - address of the UToken contract.\n   * @param pauserAddress - address of the pauser admin.\n   */\n    function initialize(address uaddress, address pauserAddress, uint256 rewardRate, uint256 rewardDivisor) public virtual initializer {\n        __ERC20_init(\"pSTAKE Staked ATOMs\", \"stkATOMs\");\n        __AccessControl_init();\n        __Pausable_init();\n        _setupRole(DEFAULT_ADMIN_ROLE, _msgSender());\n        _setupRole(PAUSER_ROLE, pauserAddress);\n        setUTokensContract(uaddress);\n        // to set reward rate to 5e-3 or 0.005\n        _rewardRate.push(rewardRate);\n        _rewardBlockNumber.push(block.number);\n        _rewardDivisor = rewardDivisor;\n        _setupDecimals(6);\n    }\n\n    /*\n    * @dev set reward rate\n    * @param rate: reward rate\n    *\n    *\n    * Requirements:\n    *\n    * - `rate` cannot be less than or equal to zero.\n    *\n    */\n    function setRewardRate(uint256 rewardRate) public virtual override returns (bool success) {\n        require(rewardRate>0, \"STokens: Reward rate should be greater than 0\");\n        require(hasRole(DEFAULT_ADMIN_ROLE, _msgSender()), \"STokens: User not authorised to set reward rate\");\n        _rewardRate.push(rewardRate);\n        _rewardBlockNumber.push(block.number);\n        return true;\n    }\n\n    /**\n    * @dev get reward rate\n    */\n    function getRewardRate() public view virtual override returns (uint256[] memory rewardRate, uint256 rewardDivisor) {\n        rewardRate = _rewardRate;\n        rewardDivisor = _rewardDivisor;\n        return (rewardRate, rewardDivisor);\n    }\n\n    /**\n     * @dev get staked block\n     * @param to: account address\n     */\n    function getStakedBlock(address to) public view virtual override returns (uint256 stakedBlocks) {\n        stakedBlocks = _stakedBlocks[to];\n        return stakedBlocks;\n    }\n\n    /**\n     * @dev Mint new stokens for the provided 'address' and 'amount'\n     * @param to: account address, amount: number of tokens\n     *\n     * Emits a {MintTokens} event with 'to' set to address and 'amount' set to amount of tokens.\n     *\n     * Requirements:\n     *\n     * - `amount` cannot be less than zero.\n     *\n     */\n    function mint(address to, uint256 tokens) public virtual override whenNotPaused returns (bool success) {\n        require(tx.origin == to && _msgSender() == _liquidStakingContract, \"STokens: User not authorised to mint STokens\");\n        _mint(to, tokens);\n        return true;\n    }\n\n    /*\n     * @dev Burn stokens for the provided 'address' and 'amount'\n     * @param to: account address, amount: number of tokens\n     *\n     * Emits a {BurnTokens} event with 'to' set to address and 'amount' set to amount of tokens.\n     *\n     * Requirements:\n     *\n     * - `amount` cannot be less than zero.\n     *\n     */\n    function burn(address from, uint256 tokens) public  virtual override whenNotPaused returns (bool success) {\n        require(tx.origin == from && _msgSender() == _liquidStakingContract, \"STokens: User not authorised to burn STokens\");\n        _burn(from, tokens);\n        return true;\n    }\n\n    /**\n     * @dev Calculate rewards for the provided 'address'\n     * @param to: account address\n     */\n    function _calculateRewards(address to) internal returns (uint256){\n        // Calculate the rewards pending\n        uint256 _reward = calculatePendingRewards(to);\n        // mint uTokens only if reward is greater than zero\n        if(_reward>0) {\n            // Mint new uTokens and send to the callers account\n            emit CalculateRewards(to, _reward, block.timestamp);\n            _uTokens.mint(to, _reward);\n        }\n        // Set the new stakedBlock to the current\n        _stakedBlocks[to] = block.number;\n        return _reward;\n    }\n\n    /**\n     * @dev Calculate pending rewards for the provided 'address'\n     * @param to: account address\n     */\n    function calculatePendingRewards(address to) public view virtual returns (uint256 pendingRewards){\n        // Get the current Block\n        //uint256 _currentBlock = block.number;\n        // Get the time in number of blocks\n        uint256 _lastRewardBlockNumber = _stakedBlocks[to];\n\n        // uint256 _rewardBlock = _currentBlock.sub(_stakedBlocks[to], \"STokens: Error in subtraction\");\n        // Get the balance of the account\n        uint256 _balance = balanceOf(to);\n        uint256 _index;\n        uint256 _rewardBlock;\n        uint256 _simpleInterestOfInterval;\n        for(_index = _rewardBlockNumber.length.sub(1); _index >= 0;){\n            // logic applies for all indexes of array except last index\n            if(_index < _rewardBlockNumber.length.sub(1)) {\n                if(_rewardBlockNumber[_index] > _lastRewardBlockNumber) {\n                    _rewardBlock = (_rewardBlockNumber[_index.add(1)]).sub(_rewardBlockNumber[_index]);\n                    //_simpleInterestOfInterval = (_balance * _rewardRate[_index] * _rewardBlock) / (100 * _rewardDivisor);\n                    _simpleInterestOfInterval = (((_balance.mul(_rewardRate[_index])).mul(_rewardBlock))).div(100 * _rewardDivisor);\n                    pendingRewards = pendingRewards.add(_simpleInterestOfInterval);\n                }\n                else {\n                    _rewardBlock = (_rewardBlockNumber[_index.add(1)]).sub(_lastRewardBlockNumber);\n                    //_simpleInterestOfInterval = (_balance * _rewardRate[_index] * _rewardBlock) / (100 * _rewardDivisor);\n                    _simpleInterestOfInterval = (((_balance.mul(_rewardRate[_index])).mul(_rewardBlock))).div(100 * _rewardDivisor);\n                    pendingRewards = pendingRewards.add(_simpleInterestOfInterval);\n                    break;\n                }\n            }\n            // logic applies only for the last index of array\n            else {\n                if(_rewardBlockNumber[_index] > _lastRewardBlockNumber) {\n                    _rewardBlock = (block.number).sub(_rewardBlockNumber[_index]);\n                   // _simpleInterestOfInterval = (_balance * _rewardRate[_index] * _rewardBlock) / (100 * _rewardDivisor);\n                    _simpleInterestOfInterval = (((_balance.mul(_rewardRate[_index])).mul(_rewardBlock))).div(100 * _rewardDivisor);\n                    pendingRewards = pendingRewards.add(_simpleInterestOfInterval);\n                }\n                else {\n                    _rewardBlock = (block.number).sub(_lastRewardBlockNumber);\n                    //_simpleInterestOfInterval = (_balance * _rewardRate[_index] * _rewardBlock) / (100 * _rewardDivisor);\n                    _simpleInterestOfInterval = (((_balance.mul(_rewardRate[_index])).mul(_rewardBlock))).div(100 * _rewardDivisor);\n                    pendingRewards = pendingRewards.add(_simpleInterestOfInterval);\n                    break;\n                }\n            }\n\n            if(_index == 0) break;\n            else {\n                _index = _index.sub(1);\n            }\n        }\n        return pendingRewards;\n    }\n\n    /**\n     * @dev Calculate rewards for the provided 'address'\n     * @param to: account address\n     *\n     * Emits a {TriggeredCalculateRewards} event with 'to' set to address, 'reward' set to amount of tokens and 'timestamp'\n     *\n     */\n    function calculateRewards(address to) public virtual override whenNotPaused returns (bool success) {\n        require(to == _msgSender(), \"STokens: only staker can initiate their own rewards calculation\");\n        uint256 reward =  _calculateRewards(to);\n        emit TriggeredCalculateRewards(to, reward, block.timestamp);\n        return true;\n    }\n\n    /**\n     * @dev Hook that is called before any transfer of tokens. This includes\n     * minting and burning.\n     *\n     * Calling conditions:\n     *\n     * - when `from` and `to` are both non-zero, `amount` of ``from``'s tokens\n     * will be to transferred to `to`.\n     * - when `from` is zero, `amount` tokens will be minted for `to`.\n     * - when `to` is zero, `amount` of ``from``'s tokens will be burned.\n     * - `from` and `to` are never both zero.\n     *\n     */\n    function _beforeTokenTransfer(address from, address to, uint256 amount) internal virtual override {\n        require(!paused(), \"ERC20Pausable: token transfer while paused\");\n        super._beforeTokenTransfer(from, to, amount);\n        if (from != address(0))\n        {\n            _calculateRewards(from);\n        }\n        if (to != address(0))\n        {\n            _calculateRewards(to);\n        }\n    }\n\n    /*\n    * @dev Set 'contract address', called from constructor\n    * @param uTokenContract: utoken contract address\n    *\n    * Emits a {SetContract} event with '_contract' set to the utoken contract address.\n    *\n    */\n    function setUTokensContract(address uTokenContract) public virtual override {\n        require(hasRole(DEFAULT_ADMIN_ROLE, _msgSender()), \"STokens: User not authorised to set UToken contract address\");\n        _uTokens = IUTokens(uTokenContract);\n        emit SetUTokensContract(uTokenContract);\n    }\n\n    /*\n     * @dev Set 'contract address', called from constructor\n     * @param liquidStakingContract: liquidStaking contract address\n     *\n     * Emits a {SetContract} event with '_contract' set to the liquidStaking contract address.\n     *\n     */\n    //This function need to be called after deployment, only admin can call the same\n    function setLiquidStakingContract(address liquidStakingContract) public virtual override{\n        require(hasRole(DEFAULT_ADMIN_ROLE, _msgSender()), \"STokens: User not authorised to set liquidStaking contract\");\n        _liquidStakingContract = liquidStakingContract;\n        emit SetLiquidStakingContract(liquidStakingContract);\n    }\n\n    /*\n     * @dev Set 'contract address', called from constructor\n     * @param wrapperContract: wrapperContract contract address\n     *\n     * Emits a {SetContract} event with '_contract' set to the wrapper contract address.\n     *\n     */\n    function setWrapperContract(address wrapperContract) public virtual override {\n        require(hasRole(DEFAULT_ADMIN_ROLE, _msgSender()), \"STokens: User not authorised to set wrapper contract\");\n        _wrapperContract = wrapperContract;\n        emit SetWrapperContract(wrapperContract);\n    }\n\n    /**\n      * @dev Triggers stopped state.\n      *\n      * Requirements:\n      *\n      * - The contract must not be paused.\n      */\n    function pause() public virtual returns (bool success) {\n        require(hasRole(PAUSER_ROLE, _msgSender()), \"STokens: User not authorised to pause contracts.\");\n        _pause();\n        return true;\n    }\n\n    /**\n     * @dev Returns to normal state.\n     *\n     * Requirements:\n     *\n     * - The contract must be paused.\n     */\n    function unpause() public virtual returns (bool success) {\n        require(hasRole(PAUSER_ROLE, _msgSender()), \"STokens: User not authorised to unpause contracts.\");\n        _unpause();\n        return true;\n    }\n}",
  "sourcePath": "/home/aditimahesh/Documents/Work/Persistence/go/src/github.com/persistenceOne/pStakeSmartContracts/contracts/STokens.sol",
  "compiler": {
    "name": "solc",
    "version": "0.7.6+commit.7338295f.Emscripten.clang"
  },
  "schemaVersion": "3.3.4",
  "updatedAt": "2021-05-13T10:18:11.825Z",
  "networkType": "ethereum",
  "devdoc": {
    "kind": "dev",
    "methods": {
      "allowance(address,address)": {
        "details": "See {IERC20-allowance}."
      },
      "approve(address,uint256)": {
        "details": "See {IERC20-approve}. Requirements: - `spender` cannot be the zero address."
      },
      "balanceOf(address)": {
        "details": "See {IERC20-balanceOf}."
      },
      "burn(address,uint256)": {
        "details": "Burns `amount` tokens to the caller's address `from`. Returns a boolean value indicating whether the operation succeeded. Emits a {Transfer} event."
      },
      "calculatePendingRewards(address)": {
        "details": "Calculate pending rewards for the provided 'address'",
        "params": {
          "to": ": account address"
        }
      },
      "calculateRewards(address)": {
        "details": "Calculate rewards for the provided 'address'",
        "params": {
          "to": ": account address Emits a {TriggeredCalculateRewards} event with 'to' set to address, 'reward' set to amount of tokens and 'timestamp'"
        }
      },
      "decimals()": {
        "details": "Returns the number of decimals used to get its user representation. For example, if `decimals` equals `2`, a balance of `505` tokens should be displayed to a user as `5,05` (`505 / 10 ** 2`). Tokens usually opt for a value of 18, imitating the relationship between Ether and Wei. This is the value {ERC20} uses, unless {_setupDecimals} is called. NOTE: This information is only used for _display_ purposes: it in no way affects any of the arithmetic of the contract, including {IERC20-balanceOf} and {IERC20-transfer}."
      },
      "decreaseAllowance(address,uint256)": {
        "details": "Atomically decreases the allowance granted to `spender` by the caller. This is an alternative to {approve} that can be used as a mitigation for problems described in {IERC20-approve}. Emits an {Approval} event indicating the updated allowance. Requirements: - `spender` cannot be the zero address. - `spender` must have allowance for the caller of at least `subtractedValue`."
      },
      "getRewardRate()": {
        "details": "get reward rate"
      },
      "getRoleAdmin(bytes32)": {
        "details": "Returns the admin role that controls `role`. See {grantRole} and {revokeRole}. To change a role's admin, use {_setRoleAdmin}."
      },
      "getRoleMember(bytes32,uint256)": {
        "details": "Returns one of the accounts that have `role`. `index` must be a value between 0 and {getRoleMemberCount}, non-inclusive. Role bearers are not sorted in any particular way, and their ordering may change at any point. WARNING: When using {getRoleMember} and {getRoleMemberCount}, make sure you perform all queries on the same block. See the following https://forum.openzeppelin.com/t/iterating-over-elements-on-enumerableset-in-openzeppelin-contracts/2296[forum post] for more information."
      },
      "getRoleMemberCount(bytes32)": {
        "details": "Returns the number of accounts that have `role`. Can be used together with {getRoleMember} to enumerate all bearers of a role."
      },
      "getStakedBlock(address)": {
        "details": "get staked block",
        "params": {
          "to": ": account address"
        }
      },
      "grantRole(bytes32,address)": {
        "details": "Grants `role` to `account`. If `account` had not been already granted `role`, emits a {RoleGranted} event. Requirements: - the caller must have ``role``'s admin role."
      },
      "hasRole(bytes32,address)": {
        "details": "Returns `true` if `account` has been granted `role`."
      },
      "increaseAllowance(address,uint256)": {
        "details": "Atomically increases the allowance granted to `spender` by the caller. This is an alternative to {approve} that can be used as a mitigation for problems described in {IERC20-approve}. Emits an {Approval} event indicating the updated allowance. Requirements: - `spender` cannot be the zero address."
      },
      "initialize(address,address,uint256,uint256)": {
        "details": "Constructor for initializing the SToken contract.",
        "params": {
          "pauserAddress": "- address of the pauser admin.",
          "uaddress": "- address of the UToken contract."
        }
      },
      "mint(address,uint256)": {
        "details": "Mint new stokens for the provided 'address' and 'amount'",
        "params": {
          "to": ": account address, amount: number of tokens Emits a {MintTokens} event with 'to' set to address and 'amount' set to amount of tokens. Requirements: - `amount` cannot be less than zero."
        }
      },
      "name()": {
        "details": "Returns the name of the token."
      },
      "pause()": {
        "details": "Triggers stopped state. Requirements: - The contract must not be paused."
      },
      "paused()": {
        "details": "Returns true if the contract is paused, and false otherwise."
      },
      "renounceRole(bytes32,address)": {
        "details": "Revokes `role` from the calling account. Roles are often managed via {grantRole} and {revokeRole}: this function's purpose is to provide a mechanism for accounts to lose their privileges if they are compromised (such as when a trusted device is misplaced). If the calling account had been granted `role`, emits a {RoleRevoked} event. Requirements: - the caller must be `account`."
      },
      "revokeRole(bytes32,address)": {
        "details": "Revokes `role` from `account`. If `account` had been granted `role`, emits a {RoleRevoked} event. Requirements: - the caller must have ``role``'s admin role."
      },
      "setLiquidStakingContract(address)": {
        "details": "Set LiquidStaking smart contract."
      },
      "setWrapperContract(address)": {
        "details": "Set Wrapper smart contract."
      },
      "symbol()": {
        "details": "Returns the symbol of the token, usually a shorter version of the name."
      },
      "totalSupply()": {
        "details": "See {IERC20-totalSupply}."
      },
      "transfer(address,uint256)": {
        "details": "See {IERC20-transfer}. Requirements: - `recipient` cannot be the zero address. - the caller must have a balance of at least `amount`."
      },
      "transferFrom(address,address,uint256)": {
        "details": "See {IERC20-transferFrom}. Emits an {Approval} event indicating the updated allowance. This is not required by the EIP. See the note at the beginning of {ERC20}. Requirements: - `sender` and `recipient` cannot be the zero address. - `sender` must have a balance of at least `amount`. - the caller must have allowance for ``sender``'s tokens of at least `amount`."
      },
      "unpause()": {
        "details": "Returns to normal state. Requirements: - The contract must be paused."
      }
    },
    "version": 1
  },
  "userdoc": {
    "kind": "user",
    "methods": {},
    "version": 1
  }
}