{
  "contractName": "STokens",
  "abi": [
    {
      "anonymous": false,
      "inputs": [
        {
          "indexed": true,
          "internalType": "address",
          "name": "owner",
          "type": "address"
        },
        {
          "indexed": true,
          "internalType": "address",
          "name": "spender",
          "type": "address"
        },
        {
          "indexed": false,
          "internalType": "uint256",
          "name": "value",
          "type": "uint256"
        }
      ],
      "name": "Approval",
      "type": "event"
    },
    {
      "anonymous": false,
      "inputs": [
        {
          "indexed": true,
          "internalType": "address",
          "name": "accountAddress",
          "type": "address"
        },
        {
          "indexed": false,
          "internalType": "uint256",
          "name": "tokens",
          "type": "uint256"
        },
        {
          "indexed": false,
          "internalType": "uint256",
          "name": "timestamp",
          "type": "uint256"
        }
      ],
      "name": "CalculateHolderRewards",
      "type": "event"
    },
    {
      "anonymous": false,
      "inputs": [
        {
          "indexed": true,
          "internalType": "address",
          "name": "accountAddress",
          "type": "address"
        },
        {
          "indexed": false,
          "internalType": "uint256",
          "name": "tokens",
          "type": "uint256"
        },
        {
          "indexed": false,
          "internalType": "uint256",
          "name": "finalTokens",
          "type": "uint256"
        },
        {
          "indexed": false,
          "internalType": "uint256",
          "name": "timestamp",
          "type": "uint256"
        }
      ],
      "name": "CalculateRewards",
      "type": "event"
    },
    {
      "anonymous": false,
      "inputs": [
        {
          "indexed": true,
          "internalType": "address",
          "name": "whitelistedAddress",
          "type": "address"
        },
        {
          "indexed": true,
          "internalType": "address",
          "name": "accountAddress",
          "type": "address"
        },
        {
          "indexed": false,
          "internalType": "uint256",
          "name": "timestamp",
          "type": "uint256"
        }
      ],
      "name": "GenerateHolderRewards",
      "type": "event"
    },
    {
      "anonymous": false,
      "inputs": [
        {
          "indexed": false,
          "internalType": "address",
          "name": "account",
          "type": "address"
        }
      ],
      "name": "Paused",
      "type": "event"
    },
    {
      "anonymous": false,
      "inputs": [
        {
          "indexed": true,
          "internalType": "address",
          "name": "whitelistedAddress",
          "type": "address"
        },
        {
          "indexed": false,
          "internalType": "address",
          "name": "holderContractAddress",
          "type": "address"
        },
        {
          "indexed": false,
          "internalType": "address",
          "name": "lpContractAddress",
          "type": "address"
        },
        {
          "indexed": false,
          "internalType": "uint256",
          "name": "timestamp",
          "type": "uint256"
        }
      ],
      "name": "RemoveWhitelistedAddress",
      "type": "event"
    },
    {
      "anonymous": false,
      "inputs": [
        {
          "indexed": true,
          "internalType": "bytes32",
          "name": "role",
          "type": "bytes32"
        },
        {
          "indexed": true,
          "internalType": "bytes32",
          "name": "previousAdminRole",
          "type": "bytes32"
        },
        {
          "indexed": true,
          "internalType": "bytes32",
          "name": "newAdminRole",
          "type": "bytes32"
        }
      ],
      "name": "RoleAdminChanged",
      "type": "event"
    },
    {
      "anonymous": false,
      "inputs": [
        {
          "indexed": true,
          "internalType": "bytes32",
          "name": "role",
          "type": "bytes32"
        },
        {
          "indexed": true,
          "internalType": "address",
          "name": "account",
          "type": "address"
        },
        {
          "indexed": true,
          "internalType": "address",
          "name": "sender",
          "type": "address"
        }
      ],
      "name": "RoleGranted",
      "type": "event"
    },
    {
      "anonymous": false,
      "inputs": [
        {
          "indexed": true,
          "internalType": "bytes32",
          "name": "role",
          "type": "bytes32"
        },
        {
          "indexed": true,
          "internalType": "address",
          "name": "account",
          "type": "address"
        },
        {
          "indexed": true,
          "internalType": "address",
          "name": "sender",
          "type": "address"
        }
      ],
      "name": "RoleRevoked",
      "type": "event"
    },
    {
      "anonymous": false,
      "inputs": [
        {
          "indexed": false,
          "internalType": "uint256",
          "name": "rewardFee",
          "type": "uint256"
        }
      ],
      "name": "SetFees",
      "type": "event"
    },
    {
      "anonymous": false,
      "inputs": [
        {
          "indexed": true,
          "internalType": "address",
          "name": "_contract",
          "type": "address"
        }
      ],
      "name": "SetLiquidStakingContract",
      "type": "event"
    },
    {
      "anonymous": false,
      "inputs": [
        {
          "indexed": true,
          "internalType": "address",
          "name": "_contract",
          "type": "address"
        }
      ],
      "name": "SetStakeLPCoreContract",
      "type": "event"
    },
    {
      "anonymous": false,
      "inputs": [
        {
          "indexed": true,
          "internalType": "address",
          "name": "_contract",
          "type": "address"
        }
      ],
      "name": "SetUTokensContract",
      "type": "event"
    },
    {
      "anonymous": false,
      "inputs": [
        {
          "indexed": true,
          "internalType": "address",
          "name": "whitelistedAddress",
          "type": "address"
        },
        {
          "indexed": false,
          "internalType": "address",
          "name": "holderContractAddress",
          "type": "address"
        },
        {
          "indexed": false,
          "internalType": "address",
          "name": "lpContractAddress",
          "type": "address"
        },
        {
          "indexed": false,
          "internalType": "uint256",
          "name": "liquidityWeightFactor",
          "type": "uint256"
        },
        {
          "indexed": false,
          "internalType": "uint256",
          "name": "rewardWeightFactor",
          "type": "uint256"
        },
        {
          "indexed": false,
          "internalType": "uint256",
          "name": "timestamp",
          "type": "uint256"
        }
      ],
      "name": "SetWhitelistedAddress",
      "type": "event"
    },
    {
      "anonymous": false,
      "inputs": [
        {
          "indexed": true,
          "internalType": "address",
          "name": "from",
          "type": "address"
        },
        {
          "indexed": true,
          "internalType": "address",
          "name": "to",
          "type": "address"
        },
        {
          "indexed": false,
          "internalType": "uint256",
          "name": "value",
          "type": "uint256"
        }
      ],
      "name": "Transfer",
      "type": "event"
    },
    {
      "anonymous": false,
      "inputs": [
        {
          "indexed": true,
          "internalType": "address",
          "name": "accountAddress",
          "type": "address"
        },
        {
          "indexed": false,
          "internalType": "uint256",
          "name": "tokens",
          "type": "uint256"
        },
        {
          "indexed": false,
          "internalType": "uint256",
          "name": "timestamp",
          "type": "uint256"
        }
      ],
      "name": "TriggeredCalculateRewards",
      "type": "event"
    },
    {
      "anonymous": false,
      "inputs": [
        {
          "indexed": false,
          "internalType": "address",
          "name": "account",
          "type": "address"
        }
      ],
      "name": "Unpaused",
      "type": "event"
    },
    {
      "inputs": [],
      "name": "DEFAULT_ADMIN_ROLE",
      "outputs": [
        {
          "internalType": "bytes32",
          "name": "",
          "type": "bytes32"
        }
      ],
      "stateMutability": "view",
      "type": "function",
      "constant": true
    },
    {
      "inputs": [],
      "name": "PAUSER_ROLE",
      "outputs": [
        {
          "internalType": "bytes32",
          "name": "",
          "type": "bytes32"
        }
      ],
      "stateMutability": "view",
      "type": "function",
      "constant": true
    },
    {
      "inputs": [
        {
          "internalType": "address",
          "name": "owner",
          "type": "address"
        },
        {
          "internalType": "address",
          "name": "spender",
          "type": "address"
        }
      ],
      "name": "allowance",
      "outputs": [
        {
          "internalType": "uint256",
          "name": "",
          "type": "uint256"
        }
      ],
      "stateMutability": "view",
      "type": "function",
      "constant": true
    },
    {
      "inputs": [
        {
          "internalType": "address",
          "name": "spender",
          "type": "address"
        },
        {
          "internalType": "uint256",
          "name": "amount",
          "type": "uint256"
        }
      ],
      "name": "approve",
      "outputs": [
        {
          "internalType": "bool",
          "name": "",
          "type": "bool"
        }
      ],
      "stateMutability": "nonpayable",
      "type": "function"
    },
    {
      "inputs": [
        {
          "internalType": "address",
          "name": "account",
          "type": "address"
        }
      ],
      "name": "balanceOf",
      "outputs": [
        {
          "internalType": "uint256",
          "name": "",
          "type": "uint256"
        }
      ],
      "stateMutability": "view",
      "type": "function",
      "constant": true
    },
    {
      "inputs": [],
      "name": "decimals",
      "outputs": [
        {
          "internalType": "uint8",
          "name": "",
          "type": "uint8"
        }
      ],
      "stateMutability": "view",
      "type": "function",
      "constant": true
    },
    {
      "inputs": [
        {
          "internalType": "address",
          "name": "spender",
          "type": "address"
        },
        {
          "internalType": "uint256",
          "name": "subtractedValue",
          "type": "uint256"
        }
      ],
      "name": "decreaseAllowance",
      "outputs": [
        {
          "internalType": "bool",
          "name": "",
          "type": "bool"
        }
      ],
      "stateMutability": "nonpayable",
      "type": "function"
    },
    {
      "inputs": [
        {
          "internalType": "bytes32",
          "name": "role",
          "type": "bytes32"
        }
      ],
      "name": "getRoleAdmin",
      "outputs": [
        {
          "internalType": "bytes32",
          "name": "",
          "type": "bytes32"
        }
      ],
      "stateMutability": "view",
      "type": "function",
      "constant": true
    },
    {
      "inputs": [
        {
          "internalType": "bytes32",
          "name": "role",
          "type": "bytes32"
        },
        {
          "internalType": "uint256",
          "name": "index",
          "type": "uint256"
        }
      ],
      "name": "getRoleMember",
      "outputs": [
        {
          "internalType": "address",
          "name": "",
          "type": "address"
        }
      ],
      "stateMutability": "view",
      "type": "function",
      "constant": true
    },
    {
      "inputs": [
        {
          "internalType": "bytes32",
          "name": "role",
          "type": "bytes32"
        }
      ],
      "name": "getRoleMemberCount",
      "outputs": [
        {
          "internalType": "uint256",
          "name": "",
          "type": "uint256"
        }
      ],
      "stateMutability": "view",
      "type": "function",
      "constant": true
    },
    {
      "inputs": [
        {
          "internalType": "bytes32",
          "name": "role",
          "type": "bytes32"
        },
        {
          "internalType": "address",
          "name": "account",
          "type": "address"
        }
      ],
      "name": "grantRole",
      "outputs": [],
      "stateMutability": "nonpayable",
      "type": "function"
    },
    {
      "inputs": [
        {
          "internalType": "bytes32",
          "name": "role",
          "type": "bytes32"
        },
        {
          "internalType": "address",
          "name": "account",
          "type": "address"
        }
      ],
      "name": "hasRole",
      "outputs": [
        {
          "internalType": "bool",
          "name": "",
          "type": "bool"
        }
      ],
      "stateMutability": "view",
      "type": "function",
      "constant": true
    },
    {
      "inputs": [
        {
          "internalType": "address",
          "name": "spender",
          "type": "address"
        },
        {
          "internalType": "uint256",
          "name": "addedValue",
          "type": "uint256"
        }
      ],
      "name": "increaseAllowance",
      "outputs": [
        {
          "internalType": "bool",
          "name": "",
          "type": "bool"
        }
      ],
      "stateMutability": "nonpayable",
      "type": "function"
    },
    {
      "inputs": [],
      "name": "name",
      "outputs": [
        {
          "internalType": "string",
          "name": "",
          "type": "string"
        }
      ],
      "stateMutability": "view",
      "type": "function",
      "constant": true
    },
    {
      "inputs": [],
      "name": "paused",
      "outputs": [
        {
          "internalType": "bool",
          "name": "",
          "type": "bool"
        }
      ],
      "stateMutability": "view",
      "type": "function",
      "constant": true
    },
    {
      "inputs": [
        {
          "internalType": "bytes32",
          "name": "role",
          "type": "bytes32"
        },
        {
          "internalType": "address",
          "name": "account",
          "type": "address"
        }
      ],
      "name": "renounceRole",
      "outputs": [],
      "stateMutability": "nonpayable",
      "type": "function"
    },
    {
      "inputs": [
        {
          "internalType": "bytes32",
          "name": "role",
          "type": "bytes32"
        },
        {
          "internalType": "address",
          "name": "account",
          "type": "address"
        }
      ],
      "name": "revokeRole",
      "outputs": [],
      "stateMutability": "nonpayable",
      "type": "function"
    },
    {
      "inputs": [],
      "name": "symbol",
      "outputs": [
        {
          "internalType": "string",
          "name": "",
          "type": "string"
        }
      ],
      "stateMutability": "view",
      "type": "function",
      "constant": true
    },
    {
      "inputs": [],
      "name": "totalSupply",
      "outputs": [
        {
          "internalType": "uint256",
          "name": "",
          "type": "uint256"
        }
      ],
      "stateMutability": "view",
      "type": "function",
      "constant": true
    },
    {
      "inputs": [
        {
          "internalType": "address",
          "name": "recipient",
          "type": "address"
        },
        {
          "internalType": "uint256",
          "name": "amount",
          "type": "uint256"
        }
      ],
      "name": "transfer",
      "outputs": [
        {
          "internalType": "bool",
          "name": "",
          "type": "bool"
        }
      ],
      "stateMutability": "nonpayable",
      "type": "function"
    },
    {
      "inputs": [
        {
          "internalType": "address",
          "name": "sender",
          "type": "address"
        },
        {
          "internalType": "address",
          "name": "recipient",
          "type": "address"
        },
        {
          "internalType": "uint256",
          "name": "amount",
          "type": "uint256"
        }
      ],
      "name": "transferFrom",
      "outputs": [
        {
          "internalType": "bool",
          "name": "",
          "type": "bool"
        }
      ],
      "stateMutability": "nonpayable",
      "type": "function"
    },
    {
      "inputs": [
        {
          "internalType": "address",
          "name": "uaddress",
          "type": "address"
        },
        {
          "internalType": "address",
          "name": "pauserAddress",
          "type": "address"
        },
        {
          "internalType": "uint256",
          "name": "rewardRate",
          "type": "uint256"
        },
        {
          "internalType": "uint256",
          "name": "valueDivisor",
          "type": "uint256"
        }
      ],
      "name": "initialize",
      "outputs": [],
      "stateMutability": "nonpayable",
      "type": "function"
    },
    {
      "inputs": [
        {
          "internalType": "address",
          "name": "lpContractAddress",
          "type": "address"
        }
      ],
      "name": "isContractWhitelisted",
      "outputs": [
        {
          "internalType": "bool",
          "name": "result",
          "type": "bool"
        },
        {
          "internalType": "address",
          "name": "holderAddress",
          "type": "address"
        }
      ],
      "stateMutability": "view",
      "type": "function",
      "constant": true
    },
    {
      "inputs": [
        {
          "internalType": "uint256",
          "name": "rewardFee",
          "type": "uint256"
        }
      ],
      "name": "setFees",
      "outputs": [
        {
          "internalType": "bool",
          "name": "success",
          "type": "bool"
        }
      ],
      "stateMutability": "nonpayable",
      "type": "function"
    },
    {
      "inputs": [],
      "name": "getFees",
      "outputs": [
        {
          "internalType": "uint256",
          "name": "rewardFee",
          "type": "uint256"
        }
      ],
      "stateMutability": "view",
      "type": "function",
      "constant": true
    },
    {
      "inputs": [
        {
          "internalType": "uint256",
          "name": "rewardRate",
          "type": "uint256"
        }
      ],
      "name": "setRewardRate",
      "outputs": [
        {
          "internalType": "bool",
          "name": "success",
          "type": "bool"
        }
      ],
      "stateMutability": "nonpayable",
      "type": "function"
    },
    {
      "inputs": [],
      "name": "getRewardRate",
      "outputs": [
        {
          "internalType": "uint256[]",
          "name": "rewardRate",
          "type": "uint256[]"
        },
        {
          "internalType": "uint256",
          "name": "valueDivisor",
          "type": "uint256"
        }
      ],
      "stateMutability": "view",
      "type": "function",
      "constant": true
    },
    {
      "inputs": [
        {
          "internalType": "address",
          "name": "to",
          "type": "address"
        }
      ],
      "name": "getLastUserRewardTimestamp",
      "outputs": [
        {
          "internalType": "uint256",
          "name": "lastUserRewardTimestamp",
          "type": "uint256"
        }
      ],
      "stateMutability": "view",
      "type": "function",
      "constant": true
    },
    {
      "inputs": [
        {
          "internalType": "address",
          "name": "to",
          "type": "address"
        },
        {
          "internalType": "uint256",
          "name": "tokens",
          "type": "uint256"
        }
      ],
      "name": "mint",
      "outputs": [
        {
          "internalType": "bool",
          "name": "success",
          "type": "bool"
        }
      ],
      "stateMutability": "nonpayable",
      "type": "function"
    },
    {
      "inputs": [
        {
          "internalType": "address",
          "name": "from",
          "type": "address"
        },
        {
          "internalType": "uint256",
          "name": "tokens",
          "type": "uint256"
        }
      ],
      "name": "burn",
      "outputs": [
        {
          "internalType": "bool",
          "name": "success",
          "type": "bool"
        }
      ],
      "stateMutability": "nonpayable",
      "type": "function"
    },
    {
      "inputs": [
        {
          "internalType": "address",
          "name": "to",
          "type": "address"
        }
      ],
      "name": "calculatePendingRewards",
      "outputs": [
        {
          "internalType": "uint256",
          "name": "pendingRewards",
          "type": "uint256"
        }
      ],
      "stateMutability": "view",
      "type": "function",
      "constant": true
    },
    {
      "inputs": [
        {
          "internalType": "address",
          "name": "to",
          "type": "address"
        }
      ],
      "name": "calculateRewards",
      "outputs": [
        {
          "internalType": "bool",
          "name": "success",
          "type": "bool"
        }
      ],
      "stateMutability": "nonpayable",
      "type": "function"
    },
    {
      "inputs": [
        {
          "internalType": "address",
          "name": "whitelistedAddress",
          "type": "address"
        },
        {
          "internalType": "address",
          "name": "holderContractAddress",
          "type": "address"
        },
        {
          "internalType": "address",
          "name": "lpContractAddress",
          "type": "address"
        },
        {
          "internalType": "uint256",
          "name": "liquidityWeightFactor",
          "type": "uint256"
        },
        {
          "internalType": "uint256",
          "name": "rewardWeightFactor",
          "type": "uint256"
        }
      ],
      "name": "setWhitelistedAddress",
      "outputs": [
        {
          "internalType": "bool",
          "name": "success",
          "type": "bool"
        }
      ],
      "stateMutability": "nonpayable",
      "type": "function"
    },
    {
      "inputs": [
        {
          "internalType": "address",
          "name": "whitelistedAddress",
          "type": "address"
        }
      ],
      "name": "removeWhitelistedAddress",
      "outputs": [
        {
          "internalType": "bool",
          "name": "success",
          "type": "bool"
        }
      ],
      "stateMutability": "nonpayable",
      "type": "function"
    },
    {
      "inputs": [
        {
          "internalType": "address",
          "name": "stakeLPCoreContract",
          "type": "address"
        }
      ],
      "name": "setStakeLPCoreContract",
      "outputs": [],
      "stateMutability": "nonpayable",
      "type": "function"
    },
    {
      "inputs": [
        {
          "internalType": "address",
          "name": "uTokenContract",
          "type": "address"
        }
      ],
      "name": "setUTokensContract",
      "outputs": [],
      "stateMutability": "nonpayable",
      "type": "function"
    },
    {
      "inputs": [
        {
          "internalType": "address",
          "name": "liquidStakingContract",
          "type": "address"
        }
      ],
      "name": "setLiquidStakingContract",
      "outputs": [],
      "stateMutability": "nonpayable",
      "type": "function"
    },
    {
      "inputs": [],
      "name": "pause",
      "outputs": [
        {
          "internalType": "bool",
          "name": "success",
          "type": "bool"
        }
      ],
      "stateMutability": "nonpayable",
      "type": "function"
    },
    {
      "inputs": [],
      "name": "unpause",
      "outputs": [
        {
          "internalType": "bool",
          "name": "success",
          "type": "bool"
        }
      ],
      "stateMutability": "nonpayable",
      "type": "function"
    }
  ],
  "bytecode": "0x608060405234801561001057600080fd5b506133a9806100206000396000f3fe608060405234801561001057600080fd5b506004361061023d5760003560e01c806370a082311161013b578063a9059cbb116100b8578063db8d55f11161007c578063db8d55f1146107ce578063dd62ed3e146107d6578063e4df591814610804578063e63ab1e91461082a578063eb990c59146108325761023d565b8063a9059cbb146106ce578063c057058a146106fa578063c07fda0214610743578063ca15c87314610785578063d547741f146107a25761023d565b806395d89b41116100ff57806395d89b41146106495780639dc29fac146106515780639e447fc61461067d578063a217fddf1461069a578063a457c2d7146106a25761023d565b806370a082311461054d5780637e1a3786146105735780638456cb59146105d65780639010d07c146105de57806391d148541461061d5761023d565b806336568abe116101c9578063530cd5ab1161018d578063530cd5ab146104ad57806358f8943e146104d35780635c975abb146104f957806364ab8675146105015780636b0a9356146105275761023d565b806336568abe1461040457806339509351146104305780633d18678e1461045c5780633f4ba83a1461047957806340c10f19146104815761023d565b806321bdf9e51161021057806321bdf9e51461033f57806323b872dd14610367578063248a9ca31461039d5780632f2ff15d146103ba578063313ce567146103e65761023d565b806306fdde0314610242578063095ea7b3146102bf578063097aad10146102ff57806318160ddd14610337575b600080fd5b61024a61086e565b6040805160208082528351818301528351919283929083019185019080838360005b8381101561028457818101518382015260200161026c565b50505050905090810190601f1680156102b15780820380516001836020036101000a031916815260200191505b509250505060405180910390f35b6102eb600480360360408110156102d557600080fd5b506001600160a01b038135169060200135610904565b604080519115158252519081900360200190f35b6103256004803603602081101561031557600080fd5b50356001600160a01b0316610922565b60408051918252519081900360200190f35b610325610959565b6103656004803603602081101561035557600080fd5b50356001600160a01b031661095f565b005b6102eb6004803603606081101561037d57600080fd5b506001600160a01b038135811691602081013590911690604001356109f5565b610325600480360360208110156103b357600080fd5b5035610a7d565b610365600480360360408110156103d057600080fd5b50803590602001356001600160a01b0316610a92565b6103ee610af9565b6040805160ff9092168252519081900360200190f35b6103656004803603604081101561041a57600080fd5b50803590602001356001600160a01b0316610b02565b6102eb6004803603604081101561044657600080fd5b506001600160a01b038135169060200135610b63565b6102eb6004803603602081101561047257600080fd5b5035610bb1565b6102eb610c7e565b6102eb6004803603604081101561049757600080fd5b506001600160a01b038135169060200135610ce2565b6102eb600480360360208110156104c357600080fd5b50356001600160a01b0316610d57565b610365600480360360208110156104e957600080fd5b50356001600160a01b0316610e78565b6102eb610f09565b6102eb6004803603602081101561051757600080fd5b50356001600160a01b0316610f12565b6103656004803603602081101561053d57600080fd5b50356001600160a01b0316611010565b6103256004803603602081101561056357600080fd5b50356001600160a01b03166110a1565b61057b6110bc565b6040518080602001838152602001828103825284818151815260200191508051906020019060200280838360005b838110156105c15781810151838201526020016105a9565b50505050905001935050505060405180910390f35b6102eb61111c565b610601600480360360408110156105f457600080fd5b508035906020013561117a565b604080516001600160a01b039092168252519081900360200190f35b6102eb6004803603604081101561063357600080fd5b50803590602001356001600160a01b0316611192565b61024a6111aa565b6102eb6004803603604081101561066757600080fd5b506001600160a01b03813516906020013561120b565b6102eb6004803603602081101561069357600080fd5b5035611280565b61032561137a565b6102eb600480360360408110156106b857600080fd5b506001600160a01b03813516906020013561137f565b6102eb600480360360408110156106e457600080fd5b506001600160a01b0381351690602001356113e7565b6107206004803603602081101561071057600080fd5b50356001600160a01b03166113fb565b6040805192151583526001600160a01b0390911660208301528051918290030190f35b6102eb600480360360a081101561075957600080fd5b506001600160a01b038135811691602081013582169160408201351690606081013590608001356114a1565b6103256004803603602081101561079b57600080fd5b50356115fe565b610365600480360360408110156107b857600080fd5b50803590602001356001600160a01b0316611615565b61032561166e565b610325600480360360408110156107ec57600080fd5b506001600160a01b0381358116916020013516611674565b6103256004803603602081101561081a57600080fd5b50356001600160a01b031661169f565b6103256116ba565b6103656004803603608081101561084857600080fd5b506001600160a01b038135811691602081013590911690604081013590606001356116cc565b60368054604080516020601f60026000196101006001881615020190951694909404938401819004810282018101909252828152606093909290918301828280156108fa5780601f106108cf576101008083540402835291602001916108fa565b820191906000526020600020905b8154815290600101906020018083116108dd57829003601f168201915b5050505050905090565b600061091861091161187a565b848461187e565b5060015b92915050565b6001600160a01b038116600090815260d7602052604081205481610945846110a1565b9050610951818361196a565b949350505050565b60355490565b610971600061096c61187a565b611192565b6109ab576040805162461bcd60e51b8152602060048083019190915260248201526329aa189b60e11b604482015290519081900360640190fd5b60d280546001600160a01b0319166001600160a01b0383169081179091556040517ff745c285f36f88bea6af14d4d0f33dd9350cef7895216c1615b1caaee7857e0c90600090a250565b6000610a02848484611b8c565b610a7284610a0e61187a565b610a6d8560405180606001604052806028815260200161326e602891396001600160a01b038a16600090815260346020526040812090610a4c61187a565b6001600160a01b031681526020810191909152604001600020549190611ce9565b61187e565b5060015b9392505050565b60009081526097602052604090206002015490565b600082815260976020526040902060020154610ab09061096c61187a565b610aeb5760405162461bcd60e51b815260040180806020018281038252602f815260200180613156602f913960400191505060405180910390fd5b610af58282611d80565b5050565b60385460ff1690565b610b0a61187a565b6001600160a01b0316816001600160a01b031614610b595760405162461bcd60e51b815260040180806020018281038252602f815260200180613345602f913960400191505060405180910390fd5b610af58282611de9565b6000610918610b7061187a565b84610a6d8560346000610b8161187a565b6001600160a01b03908116825260208083019390935260409182016000908120918c168152925290205490611e52565b6000610bbf8161096c61187a565b610bf6576040805162461bcd60e51b815260206004820152600360248201526253543160e81b604482015290519081900360640190fd5b60d554610c04906064611eac565b821115610c3e576040805162461bcd60e51b815260206004820152600360248201526229aa1960e91b604482015290519081900360640190fd5b60d68290556040805183815290517fa142c987774756b13db02cb5b530db2fa8a680ce74f42d87f33148e3f7098ebb9181900360200190a1506001919050565b6000610c9a60008051602061329683398151915261096c61187a565b610cd4576040805162461bcd60e51b815260206004808301919091526024820152635354313960e01b604482015290519081900360640190fd5b610cdc611f05565b50600190565b6000326001600160a01b038416148015610d16575060d0546001600160a01b0316610d0b61187a565b6001600160a01b0316145b610d4d576040805162461bcd60e51b815260206004820152600360248201526253543560e81b604482015290519081900360640190fd5b6109188383611fa5565b6000610d658161096c61187a565b610d9f576040805162461bcd60e51b815260206004808301919091526024820152635354313360e01b604482015290519081900360640190fd5b6001600160a01b038216610de3576040805162461bcd60e51b8152602060048083019190915260248201526314d50c4d60e21b604482015290519081900360640190fd5b610dee60c983612097565b506001600160a01b03808316600081815260cb60208181526040808420805460cc845294829020549383526001600160a01b03198516905580519386168085529290951690830181905242838601529351909392917f2742009aa76efd08ff06c38a132900d832bc5494d526b3335719fca7b65b95fc919081900360600190a25060019392505050565b610e85600061096c61187a565b610ebf576040805162461bcd60e51b815260206004808301919091526024820152635354313760e01b604482015290519081900360640190fd5b60d080546001600160a01b0319166001600160a01b0383169081179091556040517f57fded54c0f01b7b2c662bd89530d6916e48149e02da384db87d1a67306be87190600090a250565b60655460ff1690565b6000610f1c610f09565b15610f61576040805162461bcd60e51b815260206004820152601060248201526f14185d5cd8589b194e881c185d5cd95960821b604482015290519081900360640190fd5b610f6961187a565b6001600160a01b0316826001600160a01b031614610fb4576040805162461bcd60e51b815260206004820152600360248201526253543760e81b604482015290519081900360640190fd5b6000610fbf836120ac565b6040805182815242602082015281519293506001600160a01b038616927fd0194489832efa41a56f4a4add6fbbe260998cbcff0b43c953af28b545ca7a01929181900390910190a250600192915050565b61101d600061096c61187a565b611057576040805162461bcd60e51b815260206004808301919091526024820152635354313560e01b604482015290519081900360640190fd5b60d180546001600160a01b0319166001600160a01b0383169081179091556040517f956e636358b715ce07711e6cde8321e45298a1393051158ee3940beac0b9e40190600090a250565b6001600160a01b031660009081526033602052604090205490565b6060600060d380548060200260200160405190810160405280929190818152602001828054801561110c57602002820191906000526020600020905b8154815260200190600101908083116110f8575b5050505050915060d55490509091565b600061113860008051602061329683398151915261096c61187a565b611172576040805162461bcd60e51b815260206004808301919091526024820152630a6a862760e31b604482015290519081900360640190fd5b610cdc6121e6565b6000828152609760205260408120610a769083612269565b6000828152609760205260408120610a769083612275565b60378054604080516020601f60026000196101006001881615020190951694909404938401819004810282018101909252828152606093909290918301828280156108fa5780601f106108cf576101008083540402835291602001916108fa565b6000326001600160a01b03841614801561123f575060d0546001600160a01b031661123461187a565b6001600160a01b0316145b611276576040805162461bcd60e51b815260206004820152600360248201526229aa1b60e91b604482015290519081900360640190fd5b610918838361228a565b60d554600090611291906064611eac565b8211156112cb576040805162461bcd60e51b815260206004820152600360248201526253543360e81b604482015290519081900360640190fd5b6112d8600061096c61187a565b61130f576040805162461bcd60e51b815260206004820152600360248201526214d50d60ea1b604482015290519081900360640190fd5b5060d3805460018082019092557f915c3eb987b20e1af620c1403197bf687fb7f18513b3a73fde6e78c7072c41a6019190915560d480548083018255600091909152427f9780e26d96b1f2a9a18ef8fc72d589dbf03ef788137b64f43897e83a91e7feec9091015590565b600081565b600061091861138c61187a565b84610a6d8560405180606001604052806025815260200161332060259139603460006113b661187a565b6001600160a01b03908116825260208083019390935260409182016000908120918d16815292529020549190611ce9565b60006109186113f461187a565b8484611b8c565b60008060008061140b60c9612386565b905060005b818110156114995760cc600061142760c984612269565b6001600160a01b039081168252602082019290925260400160002054811693508616831415611487576001945060cb600061146360c984612269565b6001600160a01b039081168252602082019290925260400160002054169350611499565b611492816001611e52565b9050611410565b505050915091565b60006114af8161096c61187a565b6114e9576040805162461bcd60e51b815260206004808301919091526024820152635354313160e01b604482015290519081900360640190fd5b6001600160a01b03861661152d576040805162461bcd60e51b8152602060048083019190915260248201526329aa189960e11b604482015290519081900360640190fd5b61153860c987612275565b6115495761154760c987612391565b505b6001600160a01b03808716600081815260cb602090815260408083208054868c166001600160a01b0319918216811790925560cc84528285208054978c16979091168717905560ce835281842089905560cf83529281902087905580519283529082019390935280830186905260608101859052426080820152915190917fc77b394fb64f00f034781cd4ae7278d0da3a9712218baa801a10b68a24e4df0a919081900360a00190a250600195945050505050565b600081815260976020526040812061091c90612386565b6000828152609760205260409020600201546116339061096c61187a565b610b595760405162461bcd60e51b81526004018080602001828103825260308152602001806131ef6030913960400191505060405180910390fd5b60d65490565b6001600160a01b03918216600090815260346020908152604080832093909416825291909152205490565b6001600160a01b0316600090815260d7602052604090205490565b60008051602061329683398151915281565b600054610100900460ff16806116e557506116e56123a6565b806116f3575060005460ff16155b61172e5760405162461bcd60e51b815260040180806020018281038252602e81526020018061321f602e913960400191505060405180910390fd5b600054610100900460ff16158015611759576000805460ff1961ff0019909116610100171660011790555b6117ac60405180604001604052806012815260200171705354414b45205374616b65642041544f4d60701b8152506040518060400160405280600781526020016673746b41544f4d60c81b8152506123b7565b6117b461246d565b6117bc61251f565b6117ce60006117c961187a565b610aeb565b6117e660008051602061329683398151915285610aeb565b6117ef8561095f565b60d3805460018181019092557f915c3eb987b20e1af620c1403197bf687fb7f18513b3a73fde6e78c7072c41a60184905560d480549182018155600052427f9780e26d96b1f2a9a18ef8fc72d589dbf03ef788137b64f43897e83a91e7feec9091015560d582905561186160066125bc565b8015611873576000805461ff00191690555b5050505050565b3390565b6001600160a01b0383166118c35760405162461bcd60e51b81526004018080602001828103825260248152602001806132fc6024913960400191505060405180910390fd5b6001600160a01b0382166119085760405162461bcd60e51b81526004018080602001828103825260228152602001806131a76022913960400191505060405180910390fd5b6001600160a01b03808416600081815260346020908152604080832094871680845294825291829020859055815185815291517f8c5be1e5ebec7d5bd14f71427d1e84f3dd0314c0f7b2291e5b200ac8c7c3b9259281900390910190a3505050565b600080808080861580611984575061198242876125d2565b155b1561199657600094505050505061091c565b60d4546000906119a79060016125d2565b90508094505b60d4546119bb9060016125d2565b851015611ad4578660d486815481106119d057fe5b90600052602060002001541115611a8057611a2d60d486815481106119f157fe5b60009182526020909120015460d4611a0a886001611e52565b81548110611a1457fe5b90600052602060002001546125d290919063ffffffff16565b9350611a5460d38681548110611a3f57fe5b6000918252602090912001548990606461262f565b9150611a6d8460d5548461262f9092919063ffffffff16565b9250611a798684611e52565b9550611acf565b611a918760d4611a0a886001611e52565b9350611aa360d38681548110611a3f57fe5b9150611abc8460d5548461262f9092919063ffffffff16565b9250611ac88684611e52565b9550611b81565b611b65565b8660d48681548110611ae257fe5b90600052602060002001541115611b5b57611b1d60d48681548110611b0357fe5b9060005260206000200154426125d290919063ffffffff16565b9350611b2f60d38681548110611a3f57fe5b9150611b488460d5548461262f9092919063ffffffff16565b9250611b548684611e52565b9550611b65565b611a9142886125d2565b84611b6f57611b81565b611b7a8560016125d2565b94506119ad565b505050505092915050565b6001600160a01b038316611bd15760405162461bcd60e51b81526004018080602001828103825260258152602001806132d76025913960400191505060405180910390fd5b6001600160a01b038216611c165760405162461bcd60e51b81526004018080602001828103825260238152602001806131336023913960400191505060405180910390fd5b611c218383836126e8565b611c5e816040518060600160405280602681526020016131c9602691396001600160a01b0386166000908152603360205260409020549190611ce9565b6001600160a01b038085166000908152603360205260408082209390935590841681522054611c8d9082611e52565b6001600160a01b0380841660008181526033602090815260409182902094909455805185815290519193928716927fddf252ad1be2c89b69c2b068fc378daa952ba7f163c4a11628f55a4df523b3ef92918290030190a3505050565b60008184841115611d785760405162461bcd60e51b81526004018080602001828103825283818151815260200191508051906020019080838360005b83811015611d3d578181015183820152602001611d25565b50505050905090810190601f168015611d6a5780820380516001836020036101000a031916815260200191505b509250505060405180910390fd5b505050900390565b6000828152609760205260409020611d989082612391565b15610af557611da561187a565b6001600160a01b0316816001600160a01b0316837f2f8788117e7eff1d82e926ec794901d17c78024a50270940304540a733656f0d60405160405180910390a45050565b6000828152609760205260409020611e019082612097565b15610af557611e0e61187a565b6001600160a01b0316816001600160a01b0316837ff6391f5c32d9c69d2a47ea670b442974b53935d1edc7fd64eb21e047a839171b60405160405180910390a45050565b600082820183811015610a76576040805162461bcd60e51b815260206004820152601b60248201527f536166654d6174683a206164646974696f6e206f766572666c6f770000000000604482015290519081900360640190fd5b600082611ebb5750600061091c565b82820282848281611ec857fe5b0414610a765760405162461bcd60e51b815260040180806020018281038252602181526020018061324d6021913960400191505060405180910390fd5b611f0d610f09565b611f55576040805162461bcd60e51b815260206004820152601460248201527314185d5cd8589b194e881b9bdd081c185d5cd95960621b604482015290519081900360640190fd5b6065805460ff191690557f5db9ee0a495bf2e6ff9c91a7834c1ba4fdd244a5e8aa4e537bd38aeae4b073aa611f8861187a565b604080516001600160a01b039092168252519081900360200190a1565b6001600160a01b038216612000576040805162461bcd60e51b815260206004820152601f60248201527f45524332303a206d696e7420746f20746865207a65726f206164647265737300604482015290519081900360640190fd5b61200c600083836126e8565b6035546120199082611e52565b6035556001600160a01b03821660009081526033602052604090205461203f9082611e52565b6001600160a01b03831660008181526033602090815260408083209490945583518581529351929391927fddf252ad1be2c89b69c2b068fc378daa952ba7f163c4a11628f55a4df523b3ef9281900390910190a35050565b6000610a76836001600160a01b0384166128dd565b6000806120b883610922565b6001600160a01b038416600090815260d76020526040812042905590915081156121df5760006120f760d65460d5548561262f9092919063ffffffff16565b905061210e6121078260646129a3565b84906125d2565b60d254604080516340c10f1960e01b81526001600160a01b0389811660048301526024820185905291519395509116916340c10f19916044808201926020929091908290030181600087803b15801561216657600080fd5b505af115801561217a573d6000803e3d6000fd5b505050506040513d602081101561219057600080fd5b50506040805184815260208101849052428183015290516001600160a01b038716917fcb6b86b9e52fa6a244462bd0df0d4f52d7526e75c555436aef597b7412216ad6919081900360600190a2505b5092915050565b6121ee610f09565b15612233576040805162461bcd60e51b815260206004820152601060248201526f14185d5cd8589b194e881c185d5cd95960821b604482015290519081900360640190fd5b6065805460ff191660011790557f62e78cea01bee320cd4e420270b5ea74000d11b0c9f74754ebdbfc544b05a258611f8861187a565b6000610a768383612a0a565b6000610a76836001600160a01b038416612a6e565b6001600160a01b0382166122cf5760405162461bcd60e51b81526004018080602001828103825260218152602001806132b66021913960400191505060405180910390fd5b6122db826000836126e8565b61231881604051806060016040528060228152602001613185602291396001600160a01b0385166000908152603360205260409020549190611ce9565b6001600160a01b03831660009081526033602052604090205560355461233e90826125d2565b6035556040805182815290516000916001600160a01b038516917fddf252ad1be2c89b69c2b068fc378daa952ba7f163c4a11628f55a4df523b3ef9181900360200190a35050565b600061091c82612a86565b6000610a76836001600160a01b038416612a8a565b60006123b130612ad4565b15905090565b600054610100900460ff16806123d057506123d06123a6565b806123de575060005460ff16155b6124195760405162461bcd60e51b815260040180806020018281038252602e81526020018061321f602e913960400191505060405180910390fd5b600054610100900460ff16158015612444576000805460ff1961ff0019909116610100171660011790555b61244c612ada565b6124568383612b7a565b8015612468576000805461ff00191690555b505050565b600054610100900460ff168061248657506124866123a6565b80612494575060005460ff16155b6124cf5760405162461bcd60e51b815260040180806020018281038252602e81526020018061321f602e913960400191505060405180910390fd5b600054610100900460ff161580156124fa576000805460ff1961ff0019909116610100171660011790555b612502612ada565b61250a612ada565b801561251c576000805461ff00191690555b50565b600054610100900460ff168061253857506125386123a6565b80612546575060005460ff16155b6125815760405162461bcd60e51b815260040180806020018281038252602e81526020018061321f602e913960400191505060405180910390fd5b600054610100900460ff161580156125ac576000805460ff1961ff0019909116610100171660011790555b6125b4612ada565b61250a612c52565b6038805460ff191660ff92909216919091179055565b600082821115612629576040805162461bcd60e51b815260206004820152601e60248201527f536166654d6174683a207375627472616374696f6e206f766572666c6f770000604482015290519081900360640190fd5b50900390565b600080600061263e8686612cfd565b915091506000848061264c57fe5b868809905082811115612660576001820391505b91829003918161267e5784838161267357fe5b049350505050610a76565b8482106126d2576040805162461bcd60e51b815260206004820152601a60248201527f46756c6c4d6174683a2046554c4c4449565f4f564552464c4f57000000000000604482015290519081900360640190fd5b6126dd838387612d2a565b979650505050505050565b6126f0610f09565b1561272b576040805162461bcd60e51b815260206004808301919091526024820152630535431360e41b604482015290519081900360640190fd5b612736838383612468565b6001600160a01b03831661276f5761274f60c983612275565b6127625761275c826120ac565b5061276f565b61276d828483612d9a565b505b6001600160a01b0383161580159061278f575061278d60c984612275565b155b15612821576001600160a01b0382166127ad576127ab836120ac565b505b6001600160a01b038216158015906127cd57506127cb60c983612275565b155b156127e7576127db836120ac565b506127e5826120ac565b505b6001600160a01b03821615801590612805575061280560c983612275565b1561282157612813836120ac565b5061281f828483612d9a565b505b6001600160a01b0383161580159061283f575061283f60c984612275565b15612468576001600160a01b03821661285f5761285d838383612d9a565b505b6001600160a01b0382161580159061287f575061287d60c983612275565b155b1561289b5761288f838383612d9a565b50612899826120ac565b505b6001600160a01b038216158015906128b957506128b960c983612275565b15612468576128ca83600083612d9a565b506128d782600083612d9a565b50505050565b60008181526001830160205260408120548015612999578354600019808301919081019060009087908390811061291057fe5b906000526020600020015490508087600001848154811061292d57fe5b60009182526020808320909101929092558281526001898101909252604090209084019055865487908061295d57fe5b6001900381819060005260206000200160009055905586600101600087815260200190815260200160002060009055600194505050505061091c565b600091505061091c565b60008082116129f9576040805162461bcd60e51b815260206004820152601a60248201527f536166654d6174683a206469766973696f6e206279207a65726f000000000000604482015290519081900360640190fd5b818381612a0257fe5b049392505050565b81546000908210612a4c5760405162461bcd60e51b81526004018080602001828103825260228152602001806131116022913960400191505060405180910390fd5b826000018281548110612a5b57fe5b9060005260206000200154905092915050565b60009081526001919091016020526040902054151590565b5490565b6000612a968383612a6e565b612acc5750815460018181018455600084815260208082209093018490558454848252828601909352604090209190915561091c565b50600061091c565b3b151590565b600054610100900460ff1680612af35750612af36123a6565b80612b01575060005460ff16155b612b3c5760405162461bcd60e51b815260040180806020018281038252602e81526020018061321f602e913960400191505060405180910390fd5b600054610100900460ff1615801561250a576000805460ff1961ff001990911661010017166001179055801561251c576000805461ff001916905550565b600054610100900460ff1680612b935750612b936123a6565b80612ba1575060005460ff16155b612bdc5760405162461bcd60e51b815260040180806020018281038252602e81526020018061321f602e913960400191505060405180910390fd5b600054610100900460ff16158015612c07576000805460ff1961ff0019909116610100171660011790555b8251612c1a90603690602086019061306f565b508151612c2e90603790602085019061306f565b506038805460ff191660121790558015612468576000805461ff0019169055505050565b600054610100900460ff1680612c6b5750612c6b6123a6565b80612c79575060005460ff16155b612cb45760405162461bcd60e51b815260040180806020018281038252602e81526020018061321f602e913960400191505060405180910390fd5b600054610100900460ff16158015612cdf576000805460ff1961ff0019909116610100171660011790555b6065805460ff19169055801561251c576000805461ff001916905550565b6000808060001984860990508385029250828103915082811015612d22576001820391505b509250929050565b60008181038216808381612d3a57fe5b049250808581612d4657fe5b049450808160000381612d5557fe5b60028581038087028203028087028203028087028203028087028203028087028203028087028203029586029003909402930460010193909302939093010292915050565b60d1546000906001600160a01b0316612de0576040805162461bcd60e51b81526020600482015260036024820152620a6a8760eb1b604482015290519081900360640190fd5b6001600160a01b03848116600090815260cb602052604090205416151580612e2157506001600160a01b03848116600090815260cc60205260409020541615155b80612e4257506001600160a01b038416600090815260cf6020526040902054155b80612e6357506001600160a01b038416600090815260ce6020526040902054155b612e9a576040805162461bcd60e51b815260206004820152600360248201526253543960e81b604482015290519081900360640190fd5b6001600160a01b03808516600081815260cb6020908152604080832054815163cfd0ec3160e01b8152600481019590955288861660248601526044850188905290519294169263cfd0ec319260648083019392829003018186803b158015612f0157600080fd5b505afa158015612f15573d6000803e3d6000fd5b505050506040513d6020811015612f2b57600080fd5b50516001600160a01b038616600090815260cd602052604081205491925090612f5590839061196a565b6001600160a01b038716600090815260cd60205260409020429055905080156130665760d2546001600160a01b03878116600090815260cb602090815260408083205481516340c10f1960e01b8152908516600482015260248101879052905193909416936340c10f199360448083019491928390030190829087803b158015612fde57600080fd5b505af1158015612ff2573d6000803e3d6000fd5b505050506040513d602081101561300857600080fd5b50506001600160a01b03808716600090815260cb6020908152604091829020548251858152429281019290925282519316927fe85a4e933dc860954bf36bb3668248d022d3047f9056c2c083e5e44a0f1517a0929181900390910190a25b95945050505050565b828054600181600116156101000203166002900490600052602060002090601f0160209004810192826130a557600085556130eb565b82601f106130be57805160ff19168380011785556130eb565b828001600101855582156130eb579182015b828111156130eb5782518255916020019190600101906130d0565b506130f79291506130fb565b5090565b5b808211156130f757600081556001016130fc56fe456e756d657261626c655365743a20696e646578206f7574206f6620626f756e647345524332303a207472616e7366657220746f20746865207a65726f2061646472657373416363657373436f6e74726f6c3a2073656e646572206d75737420626520616e2061646d696e20746f206772616e7445524332303a206275726e20616d6f756e7420657863656564732062616c616e636545524332303a20617070726f766520746f20746865207a65726f206164647265737345524332303a207472616e7366657220616d6f756e7420657863656564732062616c616e6365416363657373436f6e74726f6c3a2073656e646572206d75737420626520616e2061646d696e20746f207265766f6b65496e697469616c697a61626c653a20636f6e747261637420697320616c726561647920696e697469616c697a6564536166654d6174683a206d756c7469706c69636174696f6e206f766572666c6f7745524332303a207472616e7366657220616d6f756e74206578636565647320616c6c6f77616e636565d7a28e3265b37a6474929f336521b332c1681b933f6cb9f3376673440d862a45524332303a206275726e2066726f6d20746865207a65726f206164647265737345524332303a207472616e736665722066726f6d20746865207a65726f206164647265737345524332303a20617070726f76652066726f6d20746865207a65726f206164647265737345524332303a2064656372656173656420616c6c6f77616e63652062656c6f77207a65726f416363657373436f6e74726f6c3a2063616e206f6e6c792072656e6f756e636520726f6c657320666f722073656c66a26469706673582212207832a766a3f51ef743165e6741a217bf8b0b27944e6aae96c8ed6a999e87345b64736f6c63430007060033",
  "immutableReferences": {},
  "source": "// SPDX-License-Identifier: UNLICENSED\npragma solidity >= 0.7.0;\n\nimport \"@openzeppelin/contracts-upgradeable/token/ERC20/ERC20Upgradeable.sol\";\nimport \"@openzeppelin/contracts-upgradeable/math/SafeMathUpgradeable.sol\";\nimport \"@openzeppelin/contracts-upgradeable/utils/PausableUpgradeable.sol\";\nimport \"@openzeppelin/contracts-upgradeable/utils/EnumerableSetUpgradeable.sol\";\nimport \"@openzeppelin/contracts-upgradeable/access/AccessControlUpgradeable.sol\";\nimport \"./interfaces/ISTokens.sol\";\nimport \"./interfaces/IUTokens.sol\";\nimport \"./interfaces/IHolder.sol\";\nimport \"./libraries/FullMath.sol\";\n\ncontract STokens is ERC20Upgradeable, ISTokens, PausableUpgradeable, AccessControlUpgradeable {\n\n    using SafeMathUpgradeable for uint256;\n    using FullMath for uint256;\n    using EnumerableSetUpgradeable for EnumerableSetUpgradeable.AddressSet;\n\n    // constants defining access control ROLES\n    bytes32 public constant PAUSER_ROLE = keccak256(\"PAUSER_ROLE\");\n\n    // variables pertaining to holder logic for whitelisted addresses & StakeLP\n    // deposit contract address for STokens in a DeFi product\n    EnumerableSetUpgradeable.AddressSet private _whitelistedAddresses;\n    mapping(address => address) private _holderContractAddress;\n    // LP Token contract address which might be different from whitelisted contract\n    mapping(address => address) private _lpContractAddress;\n    // last timestamp when the holder reward calculation was performed for updating reward pool\n    mapping(address => uint256) private _lastHolderRewardTimestamp;\n    // weight factor of an LP token which decides how many PSTAKE tokens will be disbursed\n    mapping(address => uint256) private _liquidityWeightFactor;\n    // weight factor of an LP token which decides how many reward tokens will be disbursed\n    mapping(address => uint256) private _rewardWeightFactor;\n\n    // variables capturing data of other contracts in the product\n    address private _liquidStakingContract;\n    address private _stakeLPCoreContract;\n    IUTokens private _uTokens;\n\n    // variables pertaining to moving reward rate logic\n    uint256[] private _rewardRate;\n    uint256[] private _lastMovingRewardTimestamp;\n    uint256 private _valueDivisor;\n    uint256 private _rewardFee;\n    mapping(address => uint256) private _lastUserRewardTimestamp;\n\n    /**\n   * @dev Constructor for initializing the SToken contract.\n   * @param uaddress - address of the UToken contract.\n   * @param pauserAddress - address of the pauser admin.\n   * @param rewardRate - set to rewardRate * 10^-5\n   * @param valueDivisor - valueDivisor set to 10^9.\n   */\n    function initialize(address uaddress, address pauserAddress, uint256 rewardRate, uint256 valueDivisor) public virtual initializer {\n        __ERC20_init(\"pSTAKE Staked ATOM\", \"stkATOM\");\n        __AccessControl_init();\n        __Pausable_init();\n        _setupRole(DEFAULT_ADMIN_ROLE, _msgSender());\n        _setupRole(PAUSER_ROLE, pauserAddress);\n        setUTokensContract(uaddress);\n        _rewardRate.push(rewardRate);\n        _lastMovingRewardTimestamp.push(block.timestamp);\n        _valueDivisor = valueDivisor;\n        _setupDecimals(6);\n    }\n\n    /* function getWhitelistedAddresses() public view virtual returns (address[] memory whitelistedAddresses, address[] memory holderAddresses, address[] memory lpAddresses){\n        whitelistedAddresses = new address[](_whitelistedAddresses.length());\n        holderAddresses = new address[](_whitelistedAddresses.length());\n        lpAddresses = new address[](_whitelistedAddresses.length());\n\n        for (uint256 i=0; i<_whitelistedAddresses.length(); i=i.add(1)) {\n            whitelistedAddresses[i] = _whitelistedAddresses.at(i);\n            holderAddresses[i] = _holderContractAddress[_whitelistedAddresses.at(i)];\n            lpAddresses[i] = _lpContractAddress[_whitelistedAddresses.at(i)];\n        }\n    } */\n\n    /**\n    * @dev Calculate pending rewards for the provided 'address'. The rate is the moving reward rate.\n    * @param lpContractAddress: contract address\n    */\n    function isContractWhitelisted(address lpContractAddress) public view virtual override returns (bool result, address holderAddress){\n        // Get the time in number of blocks\n        address _lpContractAddressLocal;\n        // valueDivisor = _valueDivisor;\n        uint256 _whitelistedAddressesLength = _whitelistedAddresses.length();\n        for (uint256 i=0; i<_whitelistedAddressesLength; i=i.add(1)) {\n            //get getUnstakeTime and compare it with current timestamp to check if 21 days + epoch difference has passed\n            _lpContractAddressLocal = _lpContractAddress[_whitelistedAddresses.at(i)];\n            if(_lpContractAddressLocal == lpContractAddress) {\n                result = true;\n                holderAddress = _holderContractAddress[_whitelistedAddresses.at(i)];\n                break;\n            }\n        }\n    }\n\n    /**\n     * @dev Set 'fees', called from admin\n     * @param rewardFee: reward fee\n     *\n     * Emits a {SetFees} event with 'fee' set to the withdraw.\n     *\n     */\n    function setFees(uint256 rewardFee) public virtual returns (bool success){\n        require(hasRole(DEFAULT_ADMIN_ROLE, _msgSender()), \"ST1\");\n        // range checks for fees. Since fee cannot be more than 100%, the max cap\n        // is _valueDivisor * 100, which then brings the fees to 100 (percentage)\n        require(rewardFee <= _valueDivisor.mul(100), \"ST2\");\n        _rewardFee = rewardFee;\n        emit SetFees(rewardFee);\n        return true;\n    }\n\n    /**\n     * @dev get fees, minimum set values\n     *\n     */\n    function getFees() public view virtual returns (uint256 rewardFee) {\n        rewardFee = _rewardFee;\n    }\n\n    /*\n    * @dev set reward rate called by admin\n    * @param rewardRate: reward rate\n    *\n    *\n    * Requirements:\n    *\n    * - `rate` cannot be less than or equal to zero.\n    *\n    */\n    function setRewardRate(uint256 rewardRate) public virtual override returns (bool success) {\n        // range checks for rewardRate. Since rewardRate cannot be more than 100%, the max cap \n        // is _valueDivisor * 100, which then brings the fees to 100 (percentage) \n        require(rewardRate <= _valueDivisor.mul(100), \"ST3\");\n        require(hasRole(DEFAULT_ADMIN_ROLE, _msgSender()), \"ST4\");\n        _rewardRate.push(rewardRate);\n        _lastMovingRewardTimestamp.push(block.timestamp);\n        return true;\n    }\n\n    /**\n    * @dev get reward rate and value divisor\n    */\n    function getRewardRate() public view virtual returns (uint256[] memory rewardRate, uint256 valueDivisor) {\n        rewardRate = _rewardRate;\n        valueDivisor = _valueDivisor;\n    }\n\n    /**\n     * @dev get rewards till timestamp\n     * @param to: account address\n     */\n    function getLastUserRewardTimestamp(address to) public view virtual returns (uint256 lastUserRewardTimestamp) {\n        lastUserRewardTimestamp = _lastUserRewardTimestamp[to];\n    }\n\n    /**\n     * @dev Mint new stokens for the provided 'address' and 'tokens'\n     * @param to: account address, tokens: number of tokens\n     *\n     * Emits a {MintTokens} event with 'to' set to address and 'tokens' set to amount of tokens.\n     *\n     * Requirements:\n     *\n     * - `amount` cannot be less than zero.\n     *\n     */\n    function mint(address to, uint256 tokens) public virtual override returns (bool success) {\n        require(tx.origin == to && _msgSender() == _liquidStakingContract, \"ST5\");\n        _mint(to, tokens);\n        return true;\n    }\n\n    /*\n     * @dev Burn stokens for the provided 'address' and 'tokens'\n     * @param to: account address, tokens: number of tokens\n     *\n     * Emits a {BurnTokens} event with 'to' set to address and 'tokens' set to amount of tokens.\n     *\n     * Requirements:\n     *\n     * - `amount` cannot be less than zero.\n     *\n     */\n    function burn(address from, uint256 tokens) public  virtual override returns (bool success) {\n        require(tx.origin == from && _msgSender() == _liquidStakingContract, \"ST6\");\n        _burn(from, tokens);\n        return true;\n    }\n\n    /**\n     * @dev Calculate pending rewards from the provided 'principal' & 'lastRewardTimestamp'. The rate is the moving reward rate.\n     * @param principal: principal amount\n     * @param lastRewardTimestamp: timestamp of last reward calculation performed\n     */\n    function _calculatePendingRewards(uint256 principal, uint256 lastRewardTimestamp) internal view returns (uint256 pendingRewards){\n        uint256 _index;\n        uint256 _rewardBlocks;\n        uint256 _simpleInterestOfInterval;\n        uint256 _temp;\n        // return 0 if principal or timeperiod is zero\n        if(principal == 0 || block.timestamp.sub(lastRewardTimestamp) == 0) return 0;\n        // calculate rewards for each interval period between rewardRate changes\n        uint256 _lastMovingRewardLength = _lastMovingRewardTimestamp.length.sub(1);\n        for(_index = _lastMovingRewardLength; _index >= 0;){\n            // logic applies for all indexes of array except last index\n            if(_index < _lastMovingRewardTimestamp.length.sub(1)) {\n                if(_lastMovingRewardTimestamp[_index] > lastRewardTimestamp) {\n                    _rewardBlocks = (_lastMovingRewardTimestamp[_index.add(1)]).sub(_lastMovingRewardTimestamp[_index]);\n                    _temp = principal.mulDiv(_rewardRate[_index], 100);\n                    _simpleInterestOfInterval = _temp.mulDiv(_rewardBlocks, _valueDivisor);\n                    pendingRewards = pendingRewards.add(_simpleInterestOfInterval);\n                }\n                else {\n                    _rewardBlocks = (_lastMovingRewardTimestamp[_index.add(1)]).sub(lastRewardTimestamp);\n                    _temp = principal.mulDiv(_rewardRate[_index], 100);\n                    _simpleInterestOfInterval = _temp.mulDiv(_rewardBlocks, _valueDivisor);\n                    pendingRewards = pendingRewards.add(_simpleInterestOfInterval);\n                    break;\n                }\n            }\n            // logic applies only for the last index of array\n            else {\n                if(_lastMovingRewardTimestamp[_index] > lastRewardTimestamp) {\n                    _rewardBlocks = (block.timestamp).sub(_lastMovingRewardTimestamp[_index]);\n                    _temp = principal.mulDiv(_rewardRate[_index], 100);\n                    _simpleInterestOfInterval = _temp.mulDiv(_rewardBlocks, _valueDivisor);\n                    pendingRewards = pendingRewards.add(_simpleInterestOfInterval);\n                }\n                else {\n                    _rewardBlocks = (block.timestamp).sub(lastRewardTimestamp);\n                    _temp = principal.mulDiv(_rewardRate[_index], 100);\n                    _simpleInterestOfInterval = _temp.mulDiv(_rewardBlocks, _valueDivisor);\n                    pendingRewards = pendingRewards.add(_simpleInterestOfInterval);\n                    break;\n                }\n            }\n\n            if(_index == 0) break;\n            else {\n                _index = _index.sub(1);\n            }\n        }\n        return pendingRewards;\n    }\n\n    /**\n     * @dev Calculate pending rewards for the provided 'address'. The rate is the moving reward rate.\n     * @param to: account address\n     */\n    function calculatePendingRewards(address to) public view virtual returns (uint256 pendingRewards){\n        // Get the time in number of blocks\n        uint256 _lastRewardTimestamp = _lastUserRewardTimestamp[to];\n        // Get the balance of the account\n        uint256 _balance = balanceOf(to);\n        // calculate pending rewards using _calculatePendingRewards\n        pendingRewards = _calculatePendingRewards(_balance, _lastRewardTimestamp);\n\n        return pendingRewards;\n    }\n\n    /**\n     * @dev Calculate rewards for the provided 'address'\n     * @param to: account address\n     */\n    function _calculateRewards(address to) internal returns (uint256){\n        // Calculate the rewards pending\n        uint256 _reward = calculatePendingRewards(to);\n\n        // Set the new stakedBlock to the current, \n        // as per Checks-Effects-Interactions pattern\n        _lastUserRewardTimestamp[to] = block.timestamp;\n        uint256 finalTokens;\n\n        // mint uTokens only if reward is greater than zero\n        if(_reward>0) {\n            //deducting fee\n            uint256 _temp = _reward.mulDiv(_rewardFee, _valueDivisor);\n            finalTokens = _reward.sub(_temp.div(100));\n            // Mint new uTokens and send to the callers account\n            _uTokens.mint(to, finalTokens);\n            emit CalculateRewards(to, _reward, finalTokens, block.timestamp);\n        }\n\n        return _reward;\n    }\n\n    /**\n     * @dev Calculate rewards for the provided 'address'\n     * @param to: account address\n     *\n     * Emits a {TriggeredCalculateRewards} event with 'to' set to address, 'reward' set to amount of tokens and 'timestamp'\n     *\n     */\n    function calculateRewards(address to) public virtual override whenNotPaused returns (bool success) {\n        require(to == _msgSender(), \"ST7\");\n        uint256 reward =  _calculateRewards(to);\n        emit TriggeredCalculateRewards(to, reward, block.timestamp);\n        return true;\n    }\n\n    /**\n     * @dev Calculate rewards for the provided 'holder address'\n     * @param to: holder address\n     */\n    function _calculateHolderRewards(address to, address from, uint256 amount) internal returns (uint256){\n        require(_stakeLPCoreContract != address(0), \"ST8\");\n        // holderContract and lpContract (lp token contract) need to be validated together because\n        // it might not be practical to setup holder to collect reward pool but not StakeLP to distribute reward\n        // since the reward distribution calculation starts the minute reward pool is created\n        require(_holderContractAddress[to] != address(0) || _lpContractAddress[to] != address(0) || _rewardWeightFactor[to] == 0 || _liquidityWeightFactor[to] == 0, \"ST9\");\n        uint256 _sTokenSupply = IHolder(_holderContractAddress[to]).getSTokenSupply(to, from, amount);\n\n        // calculate the reward applying the moving reward rate\n        uint256 _newRewards = _calculatePendingRewards(_sTokenSupply, _lastHolderRewardTimestamp[to]);\n\n        // update the last timestamp of reward pool to the current time as per Checks-Effects-Interactions pattern\n        _lastHolderRewardTimestamp[to] = block.timestamp;\n\n        // Mint new uTokens and send to the holder contract account as updated reward pool\n        if(_newRewards > 0) {\n            _uTokens.mint(_holderContractAddress[to], _newRewards);\n            emit CalculateHolderRewards(_holderContractAddress[to], _newRewards, block.timestamp);\n        }\n\n        return _newRewards;\n    }\n\n    /**\n     * @dev Hook that is called before any transfer of tokens. This includes\n     * minting and burning.\n     *\n     * Calling conditions:\n     *\n     * - when `from` and `to` are both non-zero, `amount` of ``from``'s tokens\n     * will be to transferred to `to`.\n     * - when `from` is zero, `amount` tokens will be minted for `to`.\n     * - when `to` is zero, `amount` of ``from``'s tokens will be burned.\n     * - `from` and `to` are never both zero.\n     *\n     */\n    function _beforeTokenTransfer(address from, address to, uint256 amount) internal virtual override {\n        require(!paused(), \"ST10\");\n        super._beforeTokenTransfer(from, to, amount);\n        // uint256 _sTokenSupply;\n        // uint256 _timePeriod;\n        if(from == address(0)){\n            // cannot have a scenario of transfer from address(0) to address(0)\n            // if(to == address(0)){}\n\n            if(!_whitelistedAddresses.contains(to)){\n                _calculateRewards(to);\n            }\n            else {\n                // IHolder(_holderContractAddress[to]).calculateHolderRewards(to, from, _rewardRate, _lastMovingRewardTimestamp);\n                _calculateHolderRewards(to, from, amount);\n            }\n        }\n\n        if(from != address(0) && !_whitelistedAddresses.contains(from)){\n\n            if(to == address(0)){\n                _calculateRewards(from);\n            }\n\n            if(to != address(0) && !_whitelistedAddresses.contains(to)){\n                _calculateRewards(from);\n                _calculateRewards(to);\n            }\n\n            if(to != address(0) && _whitelistedAddresses.contains(to)){\n                _calculateRewards(from);\n                // IHolder(_holderContractAddress[to]).calculateHolderRewards(to, from, _rewardRate, _lastMovingRewardTimestamp);\n                _calculateHolderRewards(to, from, amount);\n            }\n\n        }\n\n        if(from != address(0) && _whitelistedAddresses.contains(from)){\n\n            if(to == address(0)){\n                // IHolder(_holderContractAddress[to]).calculateHolderRewards(from, to, _rewardRate, _lastMovingRewardTimestamp);\n                _calculateHolderRewards(from, to, amount);\n            }\n\n            if(to != address(0) && !_whitelistedAddresses.contains(to)){\n                // IHolder(_holderContractAddress[to]).calculateHolderRewards(from, to, _rewardRate, _lastMovingRewardTimestamp);\n                _calculateHolderRewards(from, to, amount);\n                _calculateRewards(to);\n            }\n\n            if(to != address(0) && _whitelistedAddresses.contains(to)){\n                // IHolder(_holderContractAddress[to]).calculateHolderRewards(from, address(0), _rewardRate, _lastMovingRewardTimestamp);\n                _calculateHolderRewards(from, address(0), amount);\n\n                // IHolder(_holderContractAddress[to]).calculateHolderRewards(to, address(0), _rewardRate, _lastMovingRewardTimestamp);\n                _calculateHolderRewards(to, address(0), amount);\n            }\n\n        }\n    }\n\n    /*\n    * @dev Set 'whitelisted address', performed by admin only\n    * @param whitelistedAddress: contract address of the whitelisted party\n    *\n    * Emits a {setWhitelistedAddress} event\n    *\n    */\n    function setWhitelistedAddress(address whitelistedAddress, address holderContractAddress, address lpContractAddress, uint256 liquidityWeightFactor, uint256 rewardWeightFactor) public virtual returns (bool success){\n        require(hasRole(DEFAULT_ADMIN_ROLE, _msgSender()), \"ST11\");\n        // lpTokenERC20ContractAddress or sTokenReserveContractAddress can be address(0) but not whitelistedAddress\n        require(whitelistedAddress != address(0), \"ST12\");\n        if(!_whitelistedAddresses.contains(whitelistedAddress)) _whitelistedAddresses.add(whitelistedAddress);\n        // add the contract addresses to holder mapping variable\n        _holderContractAddress[whitelistedAddress] = holderContractAddress;\n        _lpContractAddress[whitelistedAddress] = lpContractAddress;\n        _liquidityWeightFactor[whitelistedAddress] = liquidityWeightFactor;\n        _rewardWeightFactor[whitelistedAddress] = rewardWeightFactor;\n\n        emit SetWhitelistedAddress(whitelistedAddress, holderContractAddress, lpContractAddress, liquidityWeightFactor, rewardWeightFactor, block.timestamp);\n        success = true;\n        return success;\n    }\n\n    /*\n  * @dev remove 'whitelisted address', performed by admin only\n  * @param whitelistedAddress: contract address of the whitelisted party\n  * @param holderContractAddress: holder contract address of the corresponding whitelistedAddress\n  *\n  * Emits a {RemoveWhitelistedAddress} event\n  *\n  */\n    function removeWhitelistedAddress(address whitelistedAddress) public virtual returns (bool success){\n        require(hasRole(DEFAULT_ADMIN_ROLE, _msgSender()), \"ST13\");\n        require(whitelistedAddress != address(0), \"ST14\");\n        // remove whitelistedAddress from the list\n        _whitelistedAddresses.remove(whitelistedAddress);\n        address _holderContractAddressLocal = _holderContractAddress[whitelistedAddress];\n        address _lpContractAddressLocal = _lpContractAddress[whitelistedAddress];\n\n        // delete holder contract values\n        delete _holderContractAddress[whitelistedAddress];\n\n        emit RemoveWhitelistedAddress(whitelistedAddress, _holderContractAddressLocal, _lpContractAddressLocal, block.timestamp);\n        return true;\n    }\n\n    /*\n     * @dev Set 'contract address', for stake LP smart contract\n     * @param liquidStakingContract: liquidStaking contract address\n     *\n     * Emits a {SetStakeLPCoreContract} event with '_contract' set to the stake LP contract address.\n     *\n     */\n    function setStakeLPCoreContract(address stakeLPCoreContract) public virtual override {\n        require(hasRole(DEFAULT_ADMIN_ROLE, _msgSender()), \"ST15\");\n        _stakeLPCoreContract = stakeLPCoreContract;\n        emit SetStakeLPCoreContract(stakeLPCoreContract);\n    }\n\n    /*\n    * @dev Set 'contract address', called from constructor\n    * @param uTokenContract: utoken contract address\n    *\n    * Emits a {SetUTokensContract} event with '_contract' set to the utoken contract address.\n    *\n    */\n    function setUTokensContract(address uTokenContract) public virtual override {\n        require(hasRole(DEFAULT_ADMIN_ROLE, _msgSender()), \"ST16\");\n        _uTokens = IUTokens(uTokenContract);\n        emit SetUTokensContract(uTokenContract);\n    }\n\n    /*\n     * @dev Set 'contract address', called from constructor\n     * @param liquidStakingContract: liquidStaking contract address\n     *\n     * Emits a {SetLiquidStakingContract} event with '_contract' set to the liquidStaking contract address.\n     *\n     */\n    function setLiquidStakingContract(address liquidStakingContract) public virtual override{\n        require(hasRole(DEFAULT_ADMIN_ROLE, _msgSender()), \"ST17\");\n        _liquidStakingContract = liquidStakingContract;\n        emit SetLiquidStakingContract(liquidStakingContract);\n    }\n\n    /**\n      * @dev Triggers stopped state.\n      *\n      * Requirements:\n      *\n      * - The contract must not be paused.\n      */\n    function pause() public virtual returns (bool success) {\n        require(hasRole(PAUSER_ROLE, _msgSender()), \"ST18\");\n        _pause();\n        return true;\n    }\n\n    /**\n     * @dev Returns to normal state.\n     *\n     * Requirements:\n     *\n     * - The contract must be paused.\n     */\n    function unpause() public virtual returns (bool success) {\n        require(hasRole(PAUSER_ROLE, _msgSender()), \"ST19\");\n        _unpause();\n        return true;\n    }\n}",
  "sourcePath": "/home/aditimahesh/Documents/Work/Persistence/go/src/github.com/persistenceOne/pStakeSmartContracts/contracts/STokens.sol",
  "compiler": {
    "name": "solc",
    "version": "0.7.6+commit.7338295f.Emscripten.clang"
  },
  "schemaVersion": "3.3.4",
  "updatedAt": "2021-07-10T16:16:32.816Z",
  "networkType": "ethereum",
  "devdoc": {
    "kind": "dev",
    "methods": {
      "allowance(address,address)": {
        "details": "See {IERC20-allowance}."
      },
      "approve(address,uint256)": {
        "details": "See {IERC20-approve}. Requirements: - `spender` cannot be the zero address."
      },
      "balanceOf(address)": {
        "details": "See {IERC20-balanceOf}."
      },
      "burn(address,uint256)": {
        "details": "Burns `amount` tokens to the caller's address `from`. Returns a boolean value indicating whether the operation succeeded. Emits a {Transfer} event."
      },
      "calculatePendingRewards(address)": {
        "details": "Calculate pending rewards for the provided 'address'. The rate is the moving reward rate.",
        "params": {
          "to": ": account address"
        }
      },
      "calculateRewards(address)": {
        "details": "Calculate rewards for the provided 'address'",
        "params": {
          "to": ": account address Emits a {TriggeredCalculateRewards} event with 'to' set to address, 'reward' set to amount of tokens and 'timestamp'"
        }
      },
      "decimals()": {
        "details": "Returns the number of decimals used to get its user representation. For example, if `decimals` equals `2`, a balance of `505` tokens should be displayed to a user as `5,05` (`505 / 10 ** 2`). Tokens usually opt for a value of 18, imitating the relationship between Ether and Wei. This is the value {ERC20} uses, unless {_setupDecimals} is called. NOTE: This information is only used for _display_ purposes: it in no way affects any of the arithmetic of the contract, including {IERC20-balanceOf} and {IERC20-transfer}."
      },
      "decreaseAllowance(address,uint256)": {
        "details": "Atomically decreases the allowance granted to `spender` by the caller. This is an alternative to {approve} that can be used as a mitigation for problems described in {IERC20-approve}. Emits an {Approval} event indicating the updated allowance. Requirements: - `spender` cannot be the zero address. - `spender` must have allowance for the caller of at least `subtractedValue`."
      },
      "getFees()": {
        "details": "get fees, minimum set values"
      },
      "getLastUserRewardTimestamp(address)": {
        "details": "get rewards till timestamp",
        "params": {
          "to": ": account address"
        }
      },
      "getRewardRate()": {
        "details": "get reward rate and value divisor"
      },
      "getRoleAdmin(bytes32)": {
        "details": "Returns the admin role that controls `role`. See {grantRole} and {revokeRole}. To change a role's admin, use {_setRoleAdmin}."
      },
      "getRoleMember(bytes32,uint256)": {
        "details": "Returns one of the accounts that have `role`. `index` must be a value between 0 and {getRoleMemberCount}, non-inclusive. Role bearers are not sorted in any particular way, and their ordering may change at any point. WARNING: When using {getRoleMember} and {getRoleMemberCount}, make sure you perform all queries on the same block. See the following https://forum.openzeppelin.com/t/iterating-over-elements-on-enumerableset-in-openzeppelin-contracts/2296[forum post] for more information."
      },
      "getRoleMemberCount(bytes32)": {
        "details": "Returns the number of accounts that have `role`. Can be used together with {getRoleMember} to enumerate all bearers of a role."
      },
      "grantRole(bytes32,address)": {
        "details": "Grants `role` to `account`. If `account` had not been already granted `role`, emits a {RoleGranted} event. Requirements: - the caller must have ``role``'s admin role."
      },
      "hasRole(bytes32,address)": {
        "details": "Returns `true` if `account` has been granted `role`."
      },
      "increaseAllowance(address,uint256)": {
        "details": "Atomically increases the allowance granted to `spender` by the caller. This is an alternative to {approve} that can be used as a mitigation for problems described in {IERC20-approve}. Emits an {Approval} event indicating the updated allowance. Requirements: - `spender` cannot be the zero address."
      },
      "initialize(address,address,uint256,uint256)": {
        "details": "Constructor for initializing the SToken contract.",
        "params": {
          "pauserAddress": "- address of the pauser admin.",
          "rewardRate": "- set to rewardRate * 10^-5",
          "uaddress": "- address of the UToken contract.",
          "valueDivisor": "- valueDivisor set to 10^9."
        }
      },
      "isContractWhitelisted(address)": {
        "details": "Calculate pending rewards for the provided 'address'. The rate is the moving reward rate.",
        "params": {
          "lpContractAddress": ": contract address"
        }
      },
      "mint(address,uint256)": {
        "details": "Mint new stokens for the provided 'address' and 'tokens'",
        "params": {
          "to": ": account address, tokens: number of tokens Emits a {MintTokens} event with 'to' set to address and 'tokens' set to amount of tokens. Requirements: - `amount` cannot be less than zero."
        }
      },
      "name()": {
        "details": "Returns the name of the token."
      },
      "pause()": {
        "details": "Triggers stopped state. Requirements: - The contract must not be paused."
      },
      "paused()": {
        "details": "Returns true if the contract is paused, and false otherwise."
      },
      "renounceRole(bytes32,address)": {
        "details": "Revokes `role` from the calling account. Roles are often managed via {grantRole} and {revokeRole}: this function's purpose is to provide a mechanism for accounts to lose their privileges if they are compromised (such as when a trusted device is misplaced). If the calling account had been granted `role`, emits a {RoleRevoked} event. Requirements: - the caller must be `account`."
      },
      "revokeRole(bytes32,address)": {
        "details": "Revokes `role` from `account`. If `account` had been granted `role`, emits a {RoleRevoked} event. Requirements: - the caller must have ``role``'s admin role."
      },
      "setFees(uint256)": {
        "details": "Set 'fees', called from admin",
        "params": {
          "rewardFee": ": reward fee Emits a {SetFees} event with 'fee' set to the withdraw."
        }
      },
      "setLiquidStakingContract(address)": {
        "details": "Set LiquidStaking smart contract."
      },
      "setStakeLPCoreContract(address)": {
        "details": "Set stake lp core smart contract. Emits a {SetStakeLPCoreContract} event."
      },
      "symbol()": {
        "details": "Returns the symbol of the token, usually a shorter version of the name."
      },
      "totalSupply()": {
        "details": "See {IERC20-totalSupply}."
      },
      "transfer(address,uint256)": {
        "details": "See {IERC20-transfer}. Requirements: - `recipient` cannot be the zero address. - the caller must have a balance of at least `amount`."
      },
      "transferFrom(address,address,uint256)": {
        "details": "See {IERC20-transferFrom}. Emits an {Approval} event indicating the updated allowance. This is not required by the EIP. See the note at the beginning of {ERC20}. Requirements: - `sender` and `recipient` cannot be the zero address. - `sender` must have a balance of at least `amount`. - the caller must have allowance for ``sender``'s tokens of at least `amount`."
      },
      "unpause()": {
        "details": "Returns to normal state. Requirements: - The contract must be paused."
      }
    },
    "version": 1
  },
  "userdoc": {
    "kind": "user",
    "methods": {},
    "version": 1
  }
}