{
  "contractName": "STokens",
  "abi": [
    {
      "anonymous": false,
      "inputs": [
        {
          "indexed": true,
          "internalType": "address",
          "name": "owner",
          "type": "address"
        },
        {
          "indexed": true,
          "internalType": "address",
          "name": "spender",
          "type": "address"
        },
        {
          "indexed": false,
          "internalType": "uint256",
          "name": "value",
          "type": "uint256"
        }
      ],
      "name": "Approval",
      "type": "event"
    },
    {
      "anonymous": false,
      "inputs": [
        {
          "indexed": true,
          "internalType": "address",
          "name": "accountAddress",
          "type": "address"
        },
        {
          "indexed": false,
          "internalType": "uint256",
          "name": "tokens",
          "type": "uint256"
        },
        {
          "indexed": false,
          "internalType": "uint256",
          "name": "timestamp",
          "type": "uint256"
        }
      ],
      "name": "CalculateRewards",
      "type": "event"
    },
    {
      "anonymous": false,
      "inputs": [
        {
          "indexed": false,
          "internalType": "address",
          "name": "account",
          "type": "address"
        }
      ],
      "name": "Paused",
      "type": "event"
    },
    {
      "anonymous": false,
      "inputs": [
        {
          "indexed": true,
          "internalType": "bytes32",
          "name": "role",
          "type": "bytes32"
        },
        {
          "indexed": true,
          "internalType": "bytes32",
          "name": "previousAdminRole",
          "type": "bytes32"
        },
        {
          "indexed": true,
          "internalType": "bytes32",
          "name": "newAdminRole",
          "type": "bytes32"
        }
      ],
      "name": "RoleAdminChanged",
      "type": "event"
    },
    {
      "anonymous": false,
      "inputs": [
        {
          "indexed": true,
          "internalType": "bytes32",
          "name": "role",
          "type": "bytes32"
        },
        {
          "indexed": true,
          "internalType": "address",
          "name": "account",
          "type": "address"
        },
        {
          "indexed": true,
          "internalType": "address",
          "name": "sender",
          "type": "address"
        }
      ],
      "name": "RoleGranted",
      "type": "event"
    },
    {
      "anonymous": false,
      "inputs": [
        {
          "indexed": true,
          "internalType": "bytes32",
          "name": "role",
          "type": "bytes32"
        },
        {
          "indexed": true,
          "internalType": "address",
          "name": "account",
          "type": "address"
        },
        {
          "indexed": true,
          "internalType": "address",
          "name": "sender",
          "type": "address"
        }
      ],
      "name": "RoleRevoked",
      "type": "event"
    },
    {
      "anonymous": false,
      "inputs": [
        {
          "indexed": true,
          "internalType": "address",
          "name": "_contract",
          "type": "address"
        }
      ],
      "name": "SetLiquidStakingContract",
      "type": "event"
    },
    {
      "anonymous": false,
      "inputs": [
        {
          "indexed": true,
          "internalType": "address",
          "name": "_contract",
          "type": "address"
        }
      ],
      "name": "SetUTokensContract",
      "type": "event"
    },
    {
      "anonymous": false,
      "inputs": [
        {
          "indexed": true,
          "internalType": "address",
          "name": "from",
          "type": "address"
        },
        {
          "indexed": true,
          "internalType": "address",
          "name": "to",
          "type": "address"
        },
        {
          "indexed": false,
          "internalType": "uint256",
          "name": "value",
          "type": "uint256"
        }
      ],
      "name": "Transfer",
      "type": "event"
    },
    {
      "anonymous": false,
      "inputs": [
        {
          "indexed": true,
          "internalType": "address",
          "name": "accountAddress",
          "type": "address"
        },
        {
          "indexed": false,
          "internalType": "uint256",
          "name": "tokens",
          "type": "uint256"
        },
        {
          "indexed": false,
          "internalType": "uint256",
          "name": "timestamp",
          "type": "uint256"
        }
      ],
      "name": "TriggeredCalculateRewards",
      "type": "event"
    },
    {
      "anonymous": false,
      "inputs": [
        {
          "indexed": false,
          "internalType": "address",
          "name": "account",
          "type": "address"
        }
      ],
      "name": "Unpaused",
      "type": "event"
    },
    {
      "inputs": [],
      "name": "DEFAULT_ADMIN_ROLE",
      "outputs": [
        {
          "internalType": "bytes32",
          "name": "",
          "type": "bytes32"
        }
      ],
      "stateMutability": "view",
      "type": "function",
      "constant": true
    },
    {
      "inputs": [],
      "name": "PAUSER_ROLE",
      "outputs": [
        {
          "internalType": "bytes32",
          "name": "",
          "type": "bytes32"
        }
      ],
      "stateMutability": "view",
      "type": "function",
      "constant": true
    },
    {
      "inputs": [
        {
          "internalType": "address",
          "name": "owner",
          "type": "address"
        },
        {
          "internalType": "address",
          "name": "spender",
          "type": "address"
        }
      ],
      "name": "allowance",
      "outputs": [
        {
          "internalType": "uint256",
          "name": "",
          "type": "uint256"
        }
      ],
      "stateMutability": "view",
      "type": "function",
      "constant": true
    },
    {
      "inputs": [
        {
          "internalType": "address",
          "name": "spender",
          "type": "address"
        },
        {
          "internalType": "uint256",
          "name": "amount",
          "type": "uint256"
        }
      ],
      "name": "approve",
      "outputs": [
        {
          "internalType": "bool",
          "name": "",
          "type": "bool"
        }
      ],
      "stateMutability": "nonpayable",
      "type": "function"
    },
    {
      "inputs": [
        {
          "internalType": "address",
          "name": "account",
          "type": "address"
        }
      ],
      "name": "balanceOf",
      "outputs": [
        {
          "internalType": "uint256",
          "name": "",
          "type": "uint256"
        }
      ],
      "stateMutability": "view",
      "type": "function",
      "constant": true
    },
    {
      "inputs": [],
      "name": "decimals",
      "outputs": [
        {
          "internalType": "uint8",
          "name": "",
          "type": "uint8"
        }
      ],
      "stateMutability": "view",
      "type": "function",
      "constant": true
    },
    {
      "inputs": [
        {
          "internalType": "address",
          "name": "spender",
          "type": "address"
        },
        {
          "internalType": "uint256",
          "name": "subtractedValue",
          "type": "uint256"
        }
      ],
      "name": "decreaseAllowance",
      "outputs": [
        {
          "internalType": "bool",
          "name": "",
          "type": "bool"
        }
      ],
      "stateMutability": "nonpayable",
      "type": "function"
    },
    {
      "inputs": [
        {
          "internalType": "bytes32",
          "name": "role",
          "type": "bytes32"
        }
      ],
      "name": "getRoleAdmin",
      "outputs": [
        {
          "internalType": "bytes32",
          "name": "",
          "type": "bytes32"
        }
      ],
      "stateMutability": "view",
      "type": "function",
      "constant": true
    },
    {
      "inputs": [
        {
          "internalType": "bytes32",
          "name": "role",
          "type": "bytes32"
        },
        {
          "internalType": "uint256",
          "name": "index",
          "type": "uint256"
        }
      ],
      "name": "getRoleMember",
      "outputs": [
        {
          "internalType": "address",
          "name": "",
          "type": "address"
        }
      ],
      "stateMutability": "view",
      "type": "function",
      "constant": true
    },
    {
      "inputs": [
        {
          "internalType": "bytes32",
          "name": "role",
          "type": "bytes32"
        }
      ],
      "name": "getRoleMemberCount",
      "outputs": [
        {
          "internalType": "uint256",
          "name": "",
          "type": "uint256"
        }
      ],
      "stateMutability": "view",
      "type": "function",
      "constant": true
    },
    {
      "inputs": [
        {
          "internalType": "bytes32",
          "name": "role",
          "type": "bytes32"
        },
        {
          "internalType": "address",
          "name": "account",
          "type": "address"
        }
      ],
      "name": "grantRole",
      "outputs": [],
      "stateMutability": "nonpayable",
      "type": "function"
    },
    {
      "inputs": [
        {
          "internalType": "bytes32",
          "name": "role",
          "type": "bytes32"
        },
        {
          "internalType": "address",
          "name": "account",
          "type": "address"
        }
      ],
      "name": "hasRole",
      "outputs": [
        {
          "internalType": "bool",
          "name": "",
          "type": "bool"
        }
      ],
      "stateMutability": "view",
      "type": "function",
      "constant": true
    },
    {
      "inputs": [
        {
          "internalType": "address",
          "name": "spender",
          "type": "address"
        },
        {
          "internalType": "uint256",
          "name": "addedValue",
          "type": "uint256"
        }
      ],
      "name": "increaseAllowance",
      "outputs": [
        {
          "internalType": "bool",
          "name": "",
          "type": "bool"
        }
      ],
      "stateMutability": "nonpayable",
      "type": "function"
    },
    {
      "inputs": [],
      "name": "name",
      "outputs": [
        {
          "internalType": "string",
          "name": "",
          "type": "string"
        }
      ],
      "stateMutability": "view",
      "type": "function",
      "constant": true
    },
    {
      "inputs": [],
      "name": "paused",
      "outputs": [
        {
          "internalType": "bool",
          "name": "",
          "type": "bool"
        }
      ],
      "stateMutability": "view",
      "type": "function",
      "constant": true
    },
    {
      "inputs": [
        {
          "internalType": "bytes32",
          "name": "role",
          "type": "bytes32"
        },
        {
          "internalType": "address",
          "name": "account",
          "type": "address"
        }
      ],
      "name": "renounceRole",
      "outputs": [],
      "stateMutability": "nonpayable",
      "type": "function"
    },
    {
      "inputs": [
        {
          "internalType": "bytes32",
          "name": "role",
          "type": "bytes32"
        },
        {
          "internalType": "address",
          "name": "account",
          "type": "address"
        }
      ],
      "name": "revokeRole",
      "outputs": [],
      "stateMutability": "nonpayable",
      "type": "function"
    },
    {
      "inputs": [],
      "name": "symbol",
      "outputs": [
        {
          "internalType": "string",
          "name": "",
          "type": "string"
        }
      ],
      "stateMutability": "view",
      "type": "function",
      "constant": true
    },
    {
      "inputs": [],
      "name": "totalSupply",
      "outputs": [
        {
          "internalType": "uint256",
          "name": "",
          "type": "uint256"
        }
      ],
      "stateMutability": "view",
      "type": "function",
      "constant": true
    },
    {
      "inputs": [
        {
          "internalType": "address",
          "name": "recipient",
          "type": "address"
        },
        {
          "internalType": "uint256",
          "name": "amount",
          "type": "uint256"
        }
      ],
      "name": "transfer",
      "outputs": [
        {
          "internalType": "bool",
          "name": "",
          "type": "bool"
        }
      ],
      "stateMutability": "nonpayable",
      "type": "function"
    },
    {
      "inputs": [
        {
          "internalType": "address",
          "name": "sender",
          "type": "address"
        },
        {
          "internalType": "address",
          "name": "recipient",
          "type": "address"
        },
        {
          "internalType": "uint256",
          "name": "amount",
          "type": "uint256"
        }
      ],
      "name": "transferFrom",
      "outputs": [
        {
          "internalType": "bool",
          "name": "",
          "type": "bool"
        }
      ],
      "stateMutability": "nonpayable",
      "type": "function"
    },
    {
      "inputs": [
        {
          "internalType": "address",
          "name": "uaddress",
          "type": "address"
        },
        {
          "internalType": "address",
          "name": "pauserAddress",
          "type": "address"
        },
        {
          "internalType": "uint256",
          "name": "rewardRate",
          "type": "uint256"
        },
        {
          "internalType": "uint256",
          "name": "valueDivisor",
          "type": "uint256"
        }
      ],
      "name": "initialize",
      "outputs": [],
      "stateMutability": "nonpayable",
      "type": "function"
    },
    {
      "inputs": [
        {
          "internalType": "uint256",
          "name": "rewardRate",
          "type": "uint256"
        }
      ],
      "name": "setRewardRate",
      "outputs": [
        {
          "internalType": "bool",
          "name": "success",
          "type": "bool"
        }
      ],
      "stateMutability": "nonpayable",
      "type": "function"
    },
    {
      "inputs": [],
      "name": "getRewardRate",
      "outputs": [
        {
          "internalType": "uint256[]",
          "name": "rewardRate",
          "type": "uint256[]"
        },
        {
          "internalType": "uint256",
          "name": "valueDivisor",
          "type": "uint256"
        }
      ],
      "stateMutability": "view",
      "type": "function",
      "constant": true
    },
    {
      "inputs": [
        {
          "internalType": "address",
          "name": "to",
          "type": "address"
        }
      ],
      "name": "getRewardsTillTimestamp",
      "outputs": [
        {
          "internalType": "uint256",
          "name": "rewardsTillTimestamp",
          "type": "uint256"
        }
      ],
      "stateMutability": "view",
      "type": "function",
      "constant": true
    },
    {
      "inputs": [
        {
          "internalType": "address",
          "name": "to",
          "type": "address"
        },
        {
          "internalType": "uint256",
          "name": "tokens",
          "type": "uint256"
        }
      ],
      "name": "mint",
      "outputs": [
        {
          "internalType": "bool",
          "name": "success",
          "type": "bool"
        }
      ],
      "stateMutability": "nonpayable",
      "type": "function"
    },
    {
      "inputs": [
        {
          "internalType": "address",
          "name": "from",
          "type": "address"
        },
        {
          "internalType": "uint256",
          "name": "tokens",
          "type": "uint256"
        }
      ],
      "name": "burn",
      "outputs": [
        {
          "internalType": "bool",
          "name": "success",
          "type": "bool"
        }
      ],
      "stateMutability": "nonpayable",
      "type": "function"
    },
    {
      "inputs": [
        {
          "internalType": "address",
          "name": "to",
          "type": "address"
        }
      ],
      "name": "calculatePendingRewards",
      "outputs": [
        {
          "internalType": "uint256",
          "name": "pendingRewards",
          "type": "uint256"
        }
      ],
      "stateMutability": "view",
      "type": "function",
      "constant": true
    },
    {
      "inputs": [
        {
          "internalType": "address",
          "name": "to",
          "type": "address"
        }
      ],
      "name": "calculateRewards",
      "outputs": [
        {
          "internalType": "bool",
          "name": "success",
          "type": "bool"
        }
      ],
      "stateMutability": "nonpayable",
      "type": "function"
    },
    {
      "inputs": [
        {
          "internalType": "address",
          "name": "uTokenContract",
          "type": "address"
        }
      ],
      "name": "setUTokensContract",
      "outputs": [],
      "stateMutability": "nonpayable",
      "type": "function"
    },
    {
      "inputs": [
        {
          "internalType": "address",
          "name": "liquidStakingContract",
          "type": "address"
        }
      ],
      "name": "setLiquidStakingContract",
      "outputs": [],
      "stateMutability": "nonpayable",
      "type": "function"
    },
    {
      "inputs": [],
      "name": "pause",
      "outputs": [
        {
          "internalType": "bool",
          "name": "success",
          "type": "bool"
        }
      ],
      "stateMutability": "nonpayable",
      "type": "function"
    },
    {
      "inputs": [],
      "name": "unpause",
      "outputs": [
        {
          "internalType": "bool",
          "name": "success",
          "type": "bool"
        }
      ],
      "stateMutability": "nonpayable",
      "type": "function"
    }
  ],
  "bytecode": "0x608060405234801561001057600080fd5b506129b7806100206000396000f3fe608060405234801561001057600080fd5b50600436106101fb5760003560e01c806370a082311161011a578063a217fddf116100ad578063d547741f1161007c578063d547741f1461066c578063dd62ed3e14610698578063e1e562a2146106c6578063e63ab1e9146106ec578063eb990c59146106f4576101fb565b8063a217fddf146105ef578063a457c2d7146105f7578063a9059cbb14610623578063ca15c8731461064f576101fb565b806391d14854116100e957806391d148541461057257806395d89b411461059e5780639dc29fac146105a65780639e447fc6146105d2576101fb565b806370a08231146104a25780637e1a3786146104c85780638456cb591461052b5780639010d07c14610533576101fb565b8063313ce5671161019257806340c10f191161016157806340c10f191461042257806358f8943e1461044e5780635c975abb1461047457806364ab86751461047c576101fb565b8063313ce567146103a457806336568abe146103c257806339509351146103ee5780633f4ba83a1461041a576101fb565b806321bdf9e5116101ce57806321bdf9e5146102fd57806323b872dd14610325578063248a9ca31461035b5780632f2ff15d14610378576101fb565b806306fdde0314610200578063095ea7b31461027d578063097aad10146102bd57806318160ddd146102f5575b600080fd5b610208610730565b6040805160208082528351818301528351919283929083019185019080838360005b8381101561024257818101518382015260200161022a565b50505050905090810190601f16801561026f5780820380516001836020036101000a031916815260200191505b509250505060405180910390f35b6102a96004803603604081101561029357600080fd5b506001600160a01b0381351690602001356107c6565b604080519115158252519081900360200190f35b6102e3600480360360208110156102d357600080fd5b50356001600160a01b03166107e4565b60408051918252519081900360200190f35b6102e36109ed565b6103236004803603602081101561031357600080fd5b50356001600160a01b03166109f3565b005b6102a96004803603606081101561033b57600080fd5b506001600160a01b03813581169160208101359091169060400135610a8a565b6102e36004803603602081101561037157600080fd5b5035610b11565b6103236004803603604081101561038e57600080fd5b50803590602001356001600160a01b0316610b26565b6103ac610b8d565b6040805160ff9092168252519081900360200190f35b610323600480360360408110156103d857600080fd5b50803590602001356001600160a01b0316610b96565b6102a96004803603604081101561040457600080fd5b506001600160a01b038135169060200135610bf7565b6102a9610c45565b6102a96004803603604081101561043857600080fd5b506001600160a01b038135169060200135610caa565b6103236004803603602081101561046457600080fd5b50356001600160a01b0316610d23565b6102a9610db5565b6102a96004803603602081101561049257600080fd5b50356001600160a01b0316610dbe565b6102e3600480360360208110156104b857600080fd5b50356001600160a01b0316610ec0565b6104d0610edb565b6040518080602001838152602001828103825284818151815260200191508051906020019060200280838360005b838110156105165781810151838201526020016104fe565b50505050905001935050505060405180910390f35b6102a9610f3b565b6105566004803603604081101561054957600080fd5b5080359060200135610f9a565b604080516001600160a01b039092168252519081900360200190f35b6102a96004803603604081101561058857600080fd5b50803590602001356001600160a01b0316610fb9565b610208610fd1565b6102a9600480360360408110156105bc57600080fd5b506001600160a01b038135169060200135611032565b6102a9600480360360208110156105e857600080fd5b50356110ab565b6102e361119e565b6102a96004803603604081101561060d57600080fd5b506001600160a01b0381351690602001356111a3565b6102a96004803603604081101561063957600080fd5b506001600160a01b03813516906020013561120b565b6102e36004803603602081101561066557600080fd5b503561121f565b6103236004803603604081101561068257600080fd5b50803590602001356001600160a01b0316611236565b6102e3600480360360408110156106ae57600080fd5b506001600160a01b038135811691602001351661128f565b6102e3600480360360208110156106dc57600080fd5b50356001600160a01b03166112ba565b6102e36112d5565b6103236004803603608081101561070a57600080fd5b506001600160a01b038135811691602081013590911690604081013590606001356112e7565b60368054604080516020601f60026000196101006001881615020190951694909404938401819004810282018101909252828152606093909290918301828280156107bc5780601f10610791576101008083540402835291602001916107bc565b820191906000526020600020905b81548152906001019060200180831161079f57829003601f168201915b5050505050905090565b60006107da6107d3611495565b8484611499565b5060015b92915050565b6001600160a01b038116600090815260ce60205260408120548161080784610ec0565b60cc549091506000908190819061081f906001611585565b92505b60cc54610830906001611585565b831015610942578460cc848154811061084557fe5b906000526020600020015411156108fa576108a260cc848154811061086657fe5b60009182526020909120015460cc61087f8660016115e2565b8154811061088957fe5b906000526020600020015461158590919063ffffffff16565b91506108e760cd546064026108e1846108db60cb88815481106108c157fe5b90600052602060002001548961163c90919063ffffffff16565b9061163c565b90611695565b90506108f386826115e2565b955061093d565b61090b8560cc61087f8660016115e2565b915061092a60cd546064026108e1846108db60cb88815481106108c157fe5b905061093686826115e2565b95506109e3565b6109c7565b8460cc848154811061095057fe5b906000526020600020015411156109bd5761098b60cc848154811061097157fe5b90600052602060002001544261158590919063ffffffff16565b91506109aa60cd546064026108e1846108db60cb88815481106108c157fe5b90506109b686826115e2565b95506109c7565b61090b4286611585565b826109d1576109e3565b6109dc836001611585565b9250610822565b5050505050919050565b60355490565b610a056000610a00611495565b610fb9565b610a405760405162461bcd60e51b815260040180806020018281038252603b815260200180612822603b913960400191505060405180910390fd5b60ca80546001600160a01b0319166001600160a01b0383169081179091556040517ff745c285f36f88bea6af14d4d0f33dd9350cef7895216c1615b1caaee7857e0c90600090a250565b6000610a978484846116fc565b610b0784610aa3611495565b610b02856040518060600160405280602881526020016127ae602891396001600160a01b038a16600090815260346020526040812090610ae1611495565b6001600160a01b031681526020810191909152604001600020549190611859565b611499565b5060019392505050565b60009081526097602052604090206002015490565b600082815260976020526040902060020154610b4490610a00611495565b610b7f5760405162461bcd60e51b815260040180806020018281038252602f8152602001806125a2602f913960400191505060405180910390fd5b610b8982826118f0565b5050565b60385460ff1690565b610b9e611495565b6001600160a01b0316816001600160a01b031614610bed5760405162461bcd60e51b815260040180806020018281038252602f815260200180612953602f913960400191505060405180910390fd5b610b898282611959565b60006107da610c04611495565b84610b028560346000610c15611495565b6001600160a01b03908116825260208083019390935260409182016000908120918c1681529252902054906115e2565b6000610c616000805160206127d6833981519152610a00611495565b610c9c5760405162461bcd60e51b81526004018080602001828103825260328152602001806126156032913960400191505060405180910390fd5b610ca46119c2565b50600190565b6000326001600160a01b038416148015610cde575060c9546001600160a01b0316610cd3611495565b6001600160a01b0316145b610d195760405162461bcd60e51b815260040180806020018281038252602c815260200180612576602c913960400191505060405180910390fd5b6107da8383611a62565b610d306000610a00611495565b610d6b5760405162461bcd60e51b815260040180806020018281038252603a8152602001806128ab603a913960400191505060405180910390fd5b60c980546001600160a01b0319166001600160a01b0383169081179091556040517f57fded54c0f01b7b2c662bd89530d6916e48149e02da384db87d1a67306be87190600090a250565b60655460ff1690565b6000610dc8610db5565b15610e0d576040805162461bcd60e51b815260206004820152601060248201526f14185d5cd8589b194e881c185d5cd95960821b604482015290519081900360640190fd5b610e15611495565b6001600160a01b0316826001600160a01b031614610e645760405162461bcd60e51b815260040180806020018281038252603f81526020018061276f603f913960400191505060405180910390fd5b6000610e6f83611b54565b6040805182815242602082015281519293506001600160a01b038616927fd0194489832efa41a56f4a4add6fbbe260998cbcff0b43c953af28b545ca7a01929181900390910190a250600192915050565b6001600160a01b031660009081526033602052604090205490565b6060600060cb805480602002602001604051908101604052809291908181526020018280548015610f2b57602002820191906000526020600020905b815481526020019060010190808311610f17575b5050505050915060cd5490509091565b6000610f576000805160206127d6833981519152610a00611495565b610f925760405162461bcd60e51b81526004018080602001828103825260308152602001806126fa6030913960400191505060405180910390fd5b610ca4611c4e565b6000828152609760205260408120610fb29083611cd1565b9392505050565b6000828152609760205260408120610fb29083611cdd565b60378054604080516020601f60026000196101006001881615020190951694909404938401819004810282018101909252828152606093909290918301828280156107bc5780601f10610791576101008083540402835291602001916107bc565b6000326001600160a01b038416148015611066575060c9546001600160a01b031661105b611495565b6001600160a01b0316145b6110a15760405162461bcd60e51b815260040180806020018281038252602c8152602001806127f6602c913960400191505060405180910390fd5b6107da8383611cf2565b60008082116110eb5760405162461bcd60e51b815260040180806020018281038252602d81526020018061287e602d913960400191505060405180910390fd5b6110f86000610a00611495565b6111335760405162461bcd60e51b815260040180806020018281038252602f815260200180612647602f913960400191505060405180910390fd5b5060cb805460018082019092557fa7ce836d032b2bf62b7e2097a8e0a6d8aeb35405ad15271e96d3b0188a1d06fb019190915560cc80548083018255600091909152427f47197230e1e4b29fc0bd84d7d78966c0925452aff72a2a121538b102457e9ebe9091015590565b600081565b60006107da6111b0611495565b84610b028560405180606001604052806025815260200161292e60259139603460006111da611495565b6001600160a01b03908116825260208083019390935260409182016000908120918d16815292529020549190611859565b60006107da611218611495565b84846116fc565b60008181526097602052604081206107de90611dee565b60008281526097602052604090206002015461125490610a00611495565b610bed5760405162461bcd60e51b815260040180806020018281038252603081526020018061269c6030913960400191505060405180910390fd5b6001600160a01b03918216600090815260346020908152604080832093909416825291909152205490565b6001600160a01b0316600090815260ce602052604090205490565b6000805160206127d683398151915281565b600054610100900460ff16806113005750611300611df9565b8061130e575060005460ff16155b6113495760405162461bcd60e51b815260040180806020018281038252602e8152602001806126cc602e913960400191505060405180910390fd5b600054610100900460ff16158015611374576000805460ff1961ff0019909116610100171660011790555b6113c760405180604001604052806012815260200171705354414b45205374616b65642041544f4d60701b8152506040518060400160405280600781526020016673746b41544f4d60c81b815250611e0a565b6113cf611ec0565b6113d7611f72565b6113e960006113e4611495565b610b7f565b6114016000805160206127d683398151915285610b7f565b61140a856109f3565b60cb805460018181019092557fa7ce836d032b2bf62b7e2097a8e0a6d8aeb35405ad15271e96d3b0188a1d06fb0184905560cc80549182018155600052427f47197230e1e4b29fc0bd84d7d78966c0925452aff72a2a121538b102457e9ebe9091015560cd82905561147c600661200f565b801561148e576000805461ff00191690555b5050505050565b3390565b6001600160a01b0383166114de5760405162461bcd60e51b815260040180806020018281038252602481526020018061290a6024913960400191505060405180910390fd5b6001600160a01b0382166115235760405162461bcd60e51b81526004018080602001828103825260228152602001806125f36022913960400191505060405180910390fd5b6001600160a01b03808416600081815260346020908152604080832094871680845294825291829020859055815185815291517f8c5be1e5ebec7d5bd14f71427d1e84f3dd0314c0f7b2291e5b200ac8c7c3b9259281900390910190a3505050565b6000828211156115dc576040805162461bcd60e51b815260206004820152601e60248201527f536166654d6174683a207375627472616374696f6e206f766572666c6f770000604482015290519081900360640190fd5b50900390565b600082820183811015610fb2576040805162461bcd60e51b815260206004820152601b60248201527f536166654d6174683a206164646974696f6e206f766572666c6f770000000000604482015290519081900360640190fd5b60008261164b575060006107de565b8282028284828161165857fe5b0414610fb25760405162461bcd60e51b815260040180806020018281038252602181526020018061274e6021913960400191505060405180910390fd5b60008082116116eb576040805162461bcd60e51b815260206004820152601a60248201527f536166654d6174683a206469766973696f6e206279207a65726f000000000000604482015290519081900360640190fd5b8183816116f457fe5b049392505050565b6001600160a01b0383166117415760405162461bcd60e51b81526004018080602001828103825260258152602001806128e56025913960400191505060405180910390fd5b6001600160a01b0382166117865760405162461bcd60e51b81526004018080602001828103825260238152602001806125536023913960400191505060405180910390fd5b611791838383612025565b6117ce81604051806060016040528060268152602001612676602691396001600160a01b0386166000908152603360205260409020549190611859565b6001600160a01b0380851660009081526033602052604080822093909355908416815220546117fd90826115e2565b6001600160a01b0380841660008181526033602090815260409182902094909455805185815290519193928716927fddf252ad1be2c89b69c2b068fc378daa952ba7f163c4a11628f55a4df523b3ef92918290030190a3505050565b600081848411156118e85760405162461bcd60e51b81526004018080602001828103825283818151815260200191508051906020019080838360005b838110156118ad578181015183820152602001611895565b50505050905090810190601f1680156118da5780820380516001836020036101000a031916815260200191505b509250505060405180910390fd5b505050900390565b600082815260976020526040902061190890826120ac565b15610b8957611915611495565b6001600160a01b0316816001600160a01b0316837f2f8788117e7eff1d82e926ec794901d17c78024a50270940304540a733656f0d60405160405180910390a45050565b600082815260976020526040902061197190826120c1565b15610b895761197e611495565b6001600160a01b0316816001600160a01b0316837ff6391f5c32d9c69d2a47ea670b442974b53935d1edc7fd64eb21e047a839171b60405160405180910390a45050565b6119ca610db5565b611a12576040805162461bcd60e51b815260206004820152601460248201527314185d5cd8589b194e881b9bdd081c185d5cd95960621b604482015290519081900360640190fd5b6065805460ff191690557f5db9ee0a495bf2e6ff9c91a7834c1ba4fdd244a5e8aa4e537bd38aeae4b073aa611a45611495565b604080516001600160a01b039092168252519081900360200190a1565b6001600160a01b038216611abd576040805162461bcd60e51b815260206004820152601f60248201527f45524332303a206d696e7420746f20746865207a65726f206164647265737300604482015290519081900360640190fd5b611ac960008383612025565b603554611ad690826115e2565b6035556001600160a01b038216600090815260336020526040902054611afc90826115e2565b6001600160a01b03831660008181526033602090815260408083209490945583518581529351929391927fddf252ad1be2c89b69c2b068fc378daa952ba7f163c4a11628f55a4df523b3ef9281900390910190a35050565b600080611b60836107e4565b90508015611c2d576040805182815242602082015281516001600160a01b038616927f01ea729deb12fa912e813101b1da8b7c1500f7f26c912a612221a02af6a56220928290030190a260ca54604080516340c10f1960e01b81526001600160a01b03868116600483015260248201859052915191909216916340c10f199160448083019260209291908290030181600087803b158015611c0057600080fd5b505af1158015611c14573d6000803e3d6000fd5b505050506040513d6020811015611c2a57600080fd5b50505b6001600160a01b0392909216600090815260ce602052604090204290555090565b611c56610db5565b15611c9b576040805162461bcd60e51b815260206004820152601060248201526f14185d5cd8589b194e881c185d5cd95960821b604482015290519081900360640190fd5b6065805460ff191660011790557f62e78cea01bee320cd4e420270b5ea74000d11b0c9f74754ebdbfc544b05a258611a45611495565b6000610fb283836120d6565b6000610fb2836001600160a01b03841661213a565b6001600160a01b038216611d375760405162461bcd60e51b815260040180806020018281038252602181526020018061285d6021913960400191505060405180910390fd5b611d4382600083612025565b611d80816040518060600160405280602281526020016125d1602291396001600160a01b0385166000908152603360205260409020549190611859565b6001600160a01b038316600090815260336020526040902055603554611da69082611585565b6035556040805182815290516000916001600160a01b038516917fddf252ad1be2c89b69c2b068fc378daa952ba7f163c4a11628f55a4df523b3ef9181900360200190a35050565b60006107de82612152565b6000611e0430612156565b15905090565b600054610100900460ff1680611e235750611e23611df9565b80611e31575060005460ff16155b611e6c5760405162461bcd60e51b815260040180806020018281038252602e8152602001806126cc602e913960400191505060405180910390fd5b600054610100900460ff16158015611e97576000805460ff1961ff0019909116610100171660011790555b611e9f61215c565b611ea983836121fc565b8015611ebb576000805461ff00191690555b505050565b600054610100900460ff1680611ed95750611ed9611df9565b80611ee7575060005460ff16155b611f225760405162461bcd60e51b815260040180806020018281038252602e8152602001806126cc602e913960400191505060405180910390fd5b600054610100900460ff16158015611f4d576000805460ff1961ff0019909116610100171660011790555b611f5561215c565b611f5d61215c565b8015611f6f576000805461ff00191690555b50565b600054610100900460ff1680611f8b5750611f8b611df9565b80611f99575060005460ff16155b611fd45760405162461bcd60e51b815260040180806020018281038252602e8152602001806126cc602e913960400191505060405180910390fd5b600054610100900460ff16158015611fff576000805460ff1961ff0019909116610100171660011790555b61200761215c565b611f5d6122d4565b6038805460ff191660ff92909216919091179055565b61202d610db5565b156120695760405162461bcd60e51b815260040180806020018281038252602481526020018061272a6024913960400191505060405180910390fd5b612074838383611ebb565b6001600160a01b0383161561208e5761208c83611b54565b505b6001600160a01b03821615611ebb576120a682611b54565b50505050565b6000610fb2836001600160a01b03841661237f565b6000610fb2836001600160a01b0384166123c9565b815460009082106121185760405162461bcd60e51b81526004018080602001828103825260228152602001806125316022913960400191505060405180910390fd5b82600001828154811061212757fe5b9060005260206000200154905092915050565b60009081526001919091016020526040902054151590565b5490565b3b151590565b600054610100900460ff16806121755750612175611df9565b80612183575060005460ff16155b6121be5760405162461bcd60e51b815260040180806020018281038252602e8152602001806126cc602e913960400191505060405180910390fd5b600054610100900460ff16158015611f5d576000805460ff1961ff0019909116610100171660011790558015611f6f576000805461ff001916905550565b600054610100900460ff16806122155750612215611df9565b80612223575060005460ff16155b61225e5760405162461bcd60e51b815260040180806020018281038252602e8152602001806126cc602e913960400191505060405180910390fd5b600054610100900460ff16158015612289576000805460ff1961ff0019909116610100171660011790555b825161229c90603690602086019061248f565b5081516122b090603790602085019061248f565b506038805460ff191660121790558015611ebb576000805461ff0019169055505050565b600054610100900460ff16806122ed57506122ed611df9565b806122fb575060005460ff16155b6123365760405162461bcd60e51b815260040180806020018281038252602e8152602001806126cc602e913960400191505060405180910390fd5b600054610100900460ff16158015612361576000805460ff1961ff0019909116610100171660011790555b6065805460ff191690558015611f6f576000805461ff001916905550565b600061238b838361213a565b6123c1575081546001818101845560008481526020808220909301849055845484825282860190935260409020919091556107de565b5060006107de565b6000818152600183016020526040812054801561248557835460001980830191908101906000908790839081106123fc57fe5b906000526020600020015490508087600001848154811061241957fe5b60009182526020808320909101929092558281526001898101909252604090209084019055865487908061244957fe5b600190038181906000526020600020016000905590558660010160008781526020019081526020016000206000905560019450505050506107de565b60009150506107de565b828054600181600116156101000203166002900490600052602060002090601f0160209004810192826124c5576000855561250b565b82601f106124de57805160ff191683800117855561250b565b8280016001018555821561250b579182015b8281111561250b5782518255916020019190600101906124f0565b5061251792915061251b565b5090565b5b80821115612517576000815560010161251c56fe456e756d657261626c655365743a20696e646578206f7574206f6620626f756e647345524332303a207472616e7366657220746f20746865207a65726f206164647265737353546f6b656e733a2055736572206e6f7420617574686f726973656420746f206d696e742053546f6b656e73416363657373436f6e74726f6c3a2073656e646572206d75737420626520616e2061646d696e20746f206772616e7445524332303a206275726e20616d6f756e7420657863656564732062616c616e636545524332303a20617070726f766520746f20746865207a65726f206164647265737353546f6b656e733a2055736572206e6f7420617574686f726973656420746f20756e706175736520636f6e7472616374732e53546f6b656e733a2055736572206e6f7420617574686f726973656420746f2073657420726577617264207261746545524332303a207472616e7366657220616d6f756e7420657863656564732062616c616e6365416363657373436f6e74726f6c3a2073656e646572206d75737420626520616e2061646d696e20746f207265766f6b65496e697469616c697a61626c653a20636f6e747261637420697320616c726561647920696e697469616c697a656453546f6b656e733a2055736572206e6f7420617574686f726973656420746f20706175736520636f6e7472616374732e53546f6b656e733a20746f6b656e207472616e73666572207768696c6520706175736564536166654d6174683a206d756c7469706c69636174696f6e206f766572666c6f7753546f6b656e733a206f6e6c79207374616b65722063616e20696e697469617465207468656972206f776e20726577617264732063616c63756c6174696f6e45524332303a207472616e7366657220616d6f756e74206578636565647320616c6c6f77616e636565d7a28e3265b37a6474929f336521b332c1681b933f6cb9f3376673440d862a53546f6b656e733a2055736572206e6f7420617574686f726973656420746f206275726e2053546f6b656e7353546f6b656e733a2055736572206e6f7420617574686f726973656420746f207365742055546f6b656e20636f6e7472616374206164647265737345524332303a206275726e2066726f6d20746865207a65726f206164647265737353546f6b656e733a2052657761726420726174652073686f756c642062652067726561746572207468616e203053546f6b656e733a2055736572206e6f7420617574686f726973656420746f20736574206c69717569645374616b696e6720636f6e747261637445524332303a207472616e736665722066726f6d20746865207a65726f206164647265737345524332303a20617070726f76652066726f6d20746865207a65726f206164647265737345524332303a2064656372656173656420616c6c6f77616e63652062656c6f77207a65726f416363657373436f6e74726f6c3a2063616e206f6e6c792072656e6f756e636520726f6c657320666f722073656c66a2646970667358221220222c79862805b204e38f7ede4bd7ba69b2e99720150177bff1a73c5cc7f2752d64736f6c63430007060033",
  "immutableReferences": {},
  "source": "// SPDX-License-Identifier: UNLICENSED\npragma solidity ^0.7.0;\n\nimport \"@openzeppelin/contracts-upgradeable/token/ERC20/ERC20Upgradeable.sol\";\nimport \"@openzeppelin/contracts-upgradeable/math/SafeMathUpgradeable.sol\";\nimport \"@openzeppelin/contracts-upgradeable/utils/PausableUpgradeable.sol\";\nimport \"@openzeppelin/contracts-upgradeable/access/AccessControlUpgradeable.sol\";\nimport \"./interfaces/ISTokens.sol\";\nimport \"./interfaces/IUTokens.sol\";\n\ncontract STokens is ERC20Upgradeable, ISTokens, PausableUpgradeable, AccessControlUpgradeable {\n\n    using SafeMathUpgradeable for uint256;\n\n    bytes32 public constant PAUSER_ROLE = keccak256(\"PAUSER_ROLE\");\n\n    address private _liquidStakingContract;\n\n    //Private instance of contract to handle Utokens\n    IUTokens private _uTokens;\n\n\n    uint256[] private _rewardRate;\n    uint256[] private _rewardBlockTimestamp;\n    uint256 private _valueDivisor;\n\n    mapping(address => uint256) private _rewardsTillTimestamp;\n\n    /**\n   * @dev Constructor for initializing the SToken contract.\n   * @param uaddress - address of the UToken contract.\n   * @param pauserAddress - address of the pauser admin.\n   * @param rewardRate - set rewardRate.\n   * @param valueDivisor - valueDivisor set to 10^9.\n   */\n    function initialize(address uaddress, address pauserAddress, uint256 rewardRate, uint256 valueDivisor) public virtual initializer {\n        __ERC20_init(\"pSTAKE Staked ATOM\", \"stkATOM\");\n        __AccessControl_init();\n        __Pausable_init();\n        _setupRole(DEFAULT_ADMIN_ROLE, _msgSender());\n        _setupRole(PAUSER_ROLE, pauserAddress);\n        setUTokensContract(uaddress);\n        // to set reward rate to 5e-3 or 0.005\n        _rewardRate.push(rewardRate);\n        _rewardBlockTimestamp.push(block.timestamp);\n        _valueDivisor = valueDivisor;\n        _setupDecimals(6);\n    }\n\n    /*\n    * @dev set reward rate called by admin\n    * @param rewardRate: reward rate\n    *\n    *\n    * Requirements:\n    *\n    * - `rate` cannot be less than or equal to zero.\n    *\n    */\n    function setRewardRate(uint256 rewardRate) public virtual override returns (bool success) {\n        require(rewardRate>0, \"STokens: Reward rate should be greater than 0\");\n        require(hasRole(DEFAULT_ADMIN_ROLE, _msgSender()), \"STokens: User not authorised to set reward rate\");\n        _rewardRate.push(rewardRate);\n        _rewardBlockTimestamp.push(block.timestamp);\n        return true;\n    }\n\n    /**\n    * @dev get reward rate and value divisor\n    */\n    function getRewardRate() public view virtual returns (uint256[] memory rewardRate, uint256 valueDivisor) {\n        rewardRate = _rewardRate;\n        valueDivisor = _valueDivisor;\n    }\n\n    /**\n     * @dev get rewards till timestamp\n     * @param to: account address\n     */\n    function getRewardsTillTimestamp(address to) public view virtual returns (uint256 rewardsTillTimestamp) {\n        rewardsTillTimestamp = _rewardsTillTimestamp[to];\n    }\n\n    /**\n     * @dev Mint new stokens for the provided 'address' and 'tokens'\n     * @param to: account address, tokens: number of tokens\n     *\n     * Emits a {MintTokens} event with 'to' set to address and 'tokens' set to amount of tokens.\n     *\n     * Requirements:\n     *\n     * - `amount` cannot be less than zero.\n     *\n     */\n    function mint(address to, uint256 tokens) public virtual override returns (bool success) {\n        require(tx.origin == to && _msgSender() == _liquidStakingContract, \"STokens: User not authorised to mint STokens\");\n        _mint(to, tokens);\n        return true;\n    }\n\n    /*\n     * @dev Burn stokens for the provided 'address' and 'tokens'\n     * @param to: account address, tokens: number of tokens\n     *\n     * Emits a {BurnTokens} event with 'to' set to address and 'tokens' set to amount of tokens.\n     *\n     * Requirements:\n     *\n     * - `amount` cannot be less than zero.\n     *\n     */\n    function burn(address from, uint256 tokens) public  virtual override returns (bool success) {\n        require(tx.origin == from && _msgSender() == _liquidStakingContract, \"STokens: User not authorised to burn STokens\");\n        _burn(from, tokens);\n        return true;\n    }\n\n    /**\n     * @dev Calculate rewards for the provided 'address'\n     * @param to: account address\n     */\n    function _calculateRewards(address to) internal returns (uint256){\n        // Calculate the rewards pending\n        uint256 _reward = calculatePendingRewards(to);\n        // mint uTokens only if reward is greater than zero\n        if(_reward>0) {\n            // Mint new uTokens and send to the callers account\n            emit CalculateRewards(to, _reward, block.timestamp);\n            _uTokens.mint(to, _reward);\n        }\n        // Set the new stakedBlock to the current\n        _rewardsTillTimestamp[to] = block.timestamp;\n        return _reward;\n    }\n\n    /**\n     * @dev Calculate pending rewards for the provided 'address'\n     * @param to: account address\n     */\n    function calculatePendingRewards(address to) public view virtual returns (uint256 pendingRewards){\n        // Get the time in number of blocks\n        uint256 _lastRewardTimestamp = _rewardsTillTimestamp[to];\n        // Get the balance of the account\n        uint256 _balance = balanceOf(to);\n        uint256 _index;\n        uint256 _rewardBlock;\n        uint256 _simpleInterestOfInterval;\n        for(_index = _rewardBlockTimestamp.length.sub(1); _index >= 0;){\n            // logic applies for all indexes of array except last index\n            if(_index < _rewardBlockTimestamp.length.sub(1)) {\n                if(_rewardBlockTimestamp[_index] > _lastRewardTimestamp) {\n                    _rewardBlock = (_rewardBlockTimestamp[_index.add(1)]).sub(_rewardBlockTimestamp[_index]);\n                    _simpleInterestOfInterval = (((_balance.mul(_rewardRate[_index])).mul(_rewardBlock))).div(100 * _valueDivisor);\n                    pendingRewards = pendingRewards.add(_simpleInterestOfInterval);\n                }\n                else {\n                    _rewardBlock = (_rewardBlockTimestamp[_index.add(1)]).sub(_lastRewardTimestamp);\n                    _simpleInterestOfInterval = (((_balance.mul(_rewardRate[_index])).mul(_rewardBlock))).div(100 * _valueDivisor);\n                    pendingRewards = pendingRewards.add(_simpleInterestOfInterval);\n                    break;\n                }\n            }\n            // logic applies only for the last index of array\n            else {\n                if(_rewardBlockTimestamp[_index] > _lastRewardTimestamp) {\n                    _rewardBlock = (block.timestamp).sub(_rewardBlockTimestamp[_index]);\n                    _simpleInterestOfInterval = (((_balance.mul(_rewardRate[_index])).mul(_rewardBlock))).div(100 * _valueDivisor);\n                    pendingRewards = pendingRewards.add(_simpleInterestOfInterval);\n                }\n                else {\n                    _rewardBlock = (block.timestamp).sub(_lastRewardTimestamp);\n                    _simpleInterestOfInterval = (((_balance.mul(_rewardRate[_index])).mul(_rewardBlock))).div(100 * _valueDivisor);\n                    pendingRewards = pendingRewards.add(_simpleInterestOfInterval);\n                    break;\n                }\n            }\n\n            if(_index == 0) break;\n            else {\n                _index = _index.sub(1);\n            }\n        }\n        return pendingRewards;\n    }\n\n    /**\n     * @dev Calculate rewards for the provided 'address'\n     * @param to: account address\n     *\n     * Emits a {TriggeredCalculateRewards} event with 'to' set to address, 'reward' set to amount of tokens and 'timestamp'\n     *\n     */\n    function calculateRewards(address to) public virtual override whenNotPaused returns (bool success) {\n        require(to == _msgSender(), \"STokens: only staker can initiate their own rewards calculation\");\n        uint256 reward =  _calculateRewards(to);\n        emit TriggeredCalculateRewards(to, reward, block.timestamp);\n        return true;\n    }\n\n    /**\n     * @dev Hook that is called before any transfer of tokens. This includes\n     * minting and burning.\n     *\n     * Calling conditions:\n     *\n     * - when `from` and `to` are both non-zero, `amount` of ``from``'s tokens\n     * will be to transferred to `to`.\n     * - when `from` is zero, `amount` tokens will be minted for `to`.\n     * - when `to` is zero, `amount` of ``from``'s tokens will be burned.\n     * - `from` and `to` are never both zero.\n     *\n     */\n    function _beforeTokenTransfer(address from, address to, uint256 amount) internal virtual override {\n        require(!paused(), \"STokens: token transfer while paused\");\n        super._beforeTokenTransfer(from, to, amount);\n        if (from != address(0))\n        {\n            _calculateRewards(from);\n        }\n        if (to != address(0))\n        {\n            _calculateRewards(to);\n        }\n    }\n\n    /*\n    * @dev Set 'contract address', called from constructor\n    * @param uTokenContract: utoken contract address\n    *\n    * Emits a {SetUTokensContract} event with '_contract' set to the utoken contract address.\n    *\n    */\n    function setUTokensContract(address uTokenContract) public virtual override {\n        require(hasRole(DEFAULT_ADMIN_ROLE, _msgSender()), \"STokens: User not authorised to set UToken contract address\");\n        _uTokens = IUTokens(uTokenContract);\n        emit SetUTokensContract(uTokenContract);\n    }\n\n    /*\n     * @dev Set 'contract address', called from constructor\n     * @param liquidStakingContract: liquidStaking contract address\n     *\n     * Emits a {SetLiquidStakingContract} event with '_contract' set to the liquidStaking contract address.\n     *\n     */\n    //This function need to be called after deployment, only admin can call the same\n    function setLiquidStakingContract(address liquidStakingContract) public virtual override{\n        require(hasRole(DEFAULT_ADMIN_ROLE, _msgSender()), \"STokens: User not authorised to set liquidStaking contract\");\n        _liquidStakingContract = liquidStakingContract;\n        emit SetLiquidStakingContract(liquidStakingContract);\n    }\n\n    /**\n      * @dev Triggers stopped state.\n      *\n      * Requirements:\n      *\n      * - The contract must not be paused.\n      */\n    function pause() public virtual returns (bool success) {\n        require(hasRole(PAUSER_ROLE, _msgSender()), \"STokens: User not authorised to pause contracts.\");\n        _pause();\n        return true;\n    }\n\n    /**\n     * @dev Returns to normal state.\n     *\n     * Requirements:\n     *\n     * - The contract must be paused.\n     */\n    function unpause() public virtual returns (bool success) {\n        require(hasRole(PAUSER_ROLE, _msgSender()), \"STokens: User not authorised to unpause contracts.\");\n        _unpause();\n        return true;\n    }\n}",
  "sourcePath": "/home/aditimahesh/Documents/Work/Persistence/go/src/github.com/persistenceOne/pStakeSmartContracts/contracts/STokens.sol",
  "compiler": {
    "name": "solc",
    "version": "0.7.6+commit.7338295f.Emscripten.clang"
  },
  "schemaVersion": "3.3.4",
  "updatedAt": "2021-06-10T12:08:53.152Z",
  "networkType": "ethereum",
  "devdoc": {
    "kind": "dev",
    "methods": {
      "allowance(address,address)": {
        "details": "See {IERC20-allowance}."
      },
      "approve(address,uint256)": {
        "details": "See {IERC20-approve}. Requirements: - `spender` cannot be the zero address."
      },
      "balanceOf(address)": {
        "details": "See {IERC20-balanceOf}."
      },
      "burn(address,uint256)": {
        "details": "Burns `amount` tokens to the caller's address `from`. Returns a boolean value indicating whether the operation succeeded. Emits a {Transfer} event."
      },
      "calculatePendingRewards(address)": {
        "details": "Calculate pending rewards for the provided 'address'",
        "params": {
          "to": ": account address"
        }
      },
      "calculateRewards(address)": {
        "details": "Calculate rewards for the provided 'address'",
        "params": {
          "to": ": account address Emits a {TriggeredCalculateRewards} event with 'to' set to address, 'reward' set to amount of tokens and 'timestamp'"
        }
      },
      "decimals()": {
        "details": "Returns the number of decimals used to get its user representation. For example, if `decimals` equals `2`, a balance of `505` tokens should be displayed to a user as `5,05` (`505 / 10 ** 2`). Tokens usually opt for a value of 18, imitating the relationship between Ether and Wei. This is the value {ERC20} uses, unless {_setupDecimals} is called. NOTE: This information is only used for _display_ purposes: it in no way affects any of the arithmetic of the contract, including {IERC20-balanceOf} and {IERC20-transfer}."
      },
      "decreaseAllowance(address,uint256)": {
        "details": "Atomically decreases the allowance granted to `spender` by the caller. This is an alternative to {approve} that can be used as a mitigation for problems described in {IERC20-approve}. Emits an {Approval} event indicating the updated allowance. Requirements: - `spender` cannot be the zero address. - `spender` must have allowance for the caller of at least `subtractedValue`."
      },
      "getRewardRate()": {
        "details": "get reward rate and value divisor"
      },
      "getRewardsTillTimestamp(address)": {
        "details": "get rewards till timestamp",
        "params": {
          "to": ": account address"
        }
      },
      "getRoleAdmin(bytes32)": {
        "details": "Returns the admin role that controls `role`. See {grantRole} and {revokeRole}. To change a role's admin, use {_setRoleAdmin}."
      },
      "getRoleMember(bytes32,uint256)": {
        "details": "Returns one of the accounts that have `role`. `index` must be a value between 0 and {getRoleMemberCount}, non-inclusive. Role bearers are not sorted in any particular way, and their ordering may change at any point. WARNING: When using {getRoleMember} and {getRoleMemberCount}, make sure you perform all queries on the same block. See the following https://forum.openzeppelin.com/t/iterating-over-elements-on-enumerableset-in-openzeppelin-contracts/2296[forum post] for more information."
      },
      "getRoleMemberCount(bytes32)": {
        "details": "Returns the number of accounts that have `role`. Can be used together with {getRoleMember} to enumerate all bearers of a role."
      },
      "grantRole(bytes32,address)": {
        "details": "Grants `role` to `account`. If `account` had not been already granted `role`, emits a {RoleGranted} event. Requirements: - the caller must have ``role``'s admin role."
      },
      "hasRole(bytes32,address)": {
        "details": "Returns `true` if `account` has been granted `role`."
      },
      "increaseAllowance(address,uint256)": {
        "details": "Atomically increases the allowance granted to `spender` by the caller. This is an alternative to {approve} that can be used as a mitigation for problems described in {IERC20-approve}. Emits an {Approval} event indicating the updated allowance. Requirements: - `spender` cannot be the zero address."
      },
      "initialize(address,address,uint256,uint256)": {
        "details": "Constructor for initializing the SToken contract.",
        "params": {
          "pauserAddress": "- address of the pauser admin.",
          "rewardRate": "- set rewardRate.",
          "uaddress": "- address of the UToken contract.",
          "valueDivisor": "- valueDivisor set to 10^9."
        }
      },
      "mint(address,uint256)": {
        "details": "Mint new stokens for the provided 'address' and 'tokens'",
        "params": {
          "to": ": account address, tokens: number of tokens Emits a {MintTokens} event with 'to' set to address and 'tokens' set to amount of tokens. Requirements: - `amount` cannot be less than zero."
        }
      },
      "name()": {
        "details": "Returns the name of the token."
      },
      "pause()": {
        "details": "Triggers stopped state. Requirements: - The contract must not be paused."
      },
      "paused()": {
        "details": "Returns true if the contract is paused, and false otherwise."
      },
      "renounceRole(bytes32,address)": {
        "details": "Revokes `role` from the calling account. Roles are often managed via {grantRole} and {revokeRole}: this function's purpose is to provide a mechanism for accounts to lose their privileges if they are compromised (such as when a trusted device is misplaced). If the calling account had been granted `role`, emits a {RoleRevoked} event. Requirements: - the caller must be `account`."
      },
      "revokeRole(bytes32,address)": {
        "details": "Revokes `role` from `account`. If `account` had been granted `role`, emits a {RoleRevoked} event. Requirements: - the caller must have ``role``'s admin role."
      },
      "setLiquidStakingContract(address)": {
        "details": "Set LiquidStaking smart contract."
      },
      "symbol()": {
        "details": "Returns the symbol of the token, usually a shorter version of the name."
      },
      "totalSupply()": {
        "details": "See {IERC20-totalSupply}."
      },
      "transfer(address,uint256)": {
        "details": "See {IERC20-transfer}. Requirements: - `recipient` cannot be the zero address. - the caller must have a balance of at least `amount`."
      },
      "transferFrom(address,address,uint256)": {
        "details": "See {IERC20-transferFrom}. Emits an {Approval} event indicating the updated allowance. This is not required by the EIP. See the note at the beginning of {ERC20}. Requirements: - `sender` and `recipient` cannot be the zero address. - `sender` must have a balance of at least `amount`. - the caller must have allowance for ``sender``'s tokens of at least `amount`."
      },
      "unpause()": {
        "details": "Returns to normal state. Requirements: - The contract must be paused."
      }
    },
    "version": 1
  },
  "userdoc": {
    "kind": "user",
    "methods": {},
    "version": 1
  }
}