{
  "contractName": "STokens",
  "abi": [
    {
      "anonymous": false,
      "inputs": [
        {
          "indexed": true,
          "internalType": "address",
          "name": "owner",
          "type": "address"
        },
        {
          "indexed": true,
          "internalType": "address",
          "name": "spender",
          "type": "address"
        },
        {
          "indexed": false,
          "internalType": "uint256",
          "name": "value",
          "type": "uint256"
        }
      ],
      "name": "Approval",
      "type": "event"
    },
    {
      "anonymous": false,
      "inputs": [
        {
          "indexed": true,
          "internalType": "address",
          "name": "accountAddress",
          "type": "address"
        },
        {
          "indexed": false,
          "internalType": "uint256",
          "name": "tokens",
          "type": "uint256"
        },
        {
          "indexed": false,
          "internalType": "uint256",
          "name": "timestamp",
          "type": "uint256"
        }
      ],
      "name": "CalculateHolderRewards",
      "type": "event"
    },
    {
      "anonymous": false,
      "inputs": [
        {
          "indexed": true,
          "internalType": "address",
          "name": "accountAddress",
          "type": "address"
        },
        {
          "indexed": false,
          "internalType": "uint256",
          "name": "tokens",
          "type": "uint256"
        },
        {
          "indexed": false,
          "internalType": "uint256",
          "name": "timestamp",
          "type": "uint256"
        }
      ],
      "name": "CalculateRewards",
      "type": "event"
    },
    {
      "anonymous": false,
      "inputs": [
        {
          "indexed": false,
          "internalType": "address",
          "name": "account",
          "type": "address"
        }
      ],
      "name": "Paused",
      "type": "event"
    },
    {
      "anonymous": false,
      "inputs": [
        {
          "indexed": true,
          "internalType": "address",
          "name": "whitelistedAddress",
          "type": "address"
        },
        {
          "indexed": false,
          "internalType": "address",
          "name": "holderContractAddress",
          "type": "address"
        },
        {
          "indexed": false,
          "internalType": "address",
          "name": "lpContractAddress",
          "type": "address"
        },
        {
          "indexed": false,
          "internalType": "uint256",
          "name": "timestamp",
          "type": "uint256"
        }
      ],
      "name": "RemoveWhitelistedAddress",
      "type": "event"
    },
    {
      "anonymous": false,
      "inputs": [
        {
          "indexed": true,
          "internalType": "bytes32",
          "name": "role",
          "type": "bytes32"
        },
        {
          "indexed": true,
          "internalType": "bytes32",
          "name": "previousAdminRole",
          "type": "bytes32"
        },
        {
          "indexed": true,
          "internalType": "bytes32",
          "name": "newAdminRole",
          "type": "bytes32"
        }
      ],
      "name": "RoleAdminChanged",
      "type": "event"
    },
    {
      "anonymous": false,
      "inputs": [
        {
          "indexed": true,
          "internalType": "bytes32",
          "name": "role",
          "type": "bytes32"
        },
        {
          "indexed": true,
          "internalType": "address",
          "name": "account",
          "type": "address"
        },
        {
          "indexed": true,
          "internalType": "address",
          "name": "sender",
          "type": "address"
        }
      ],
      "name": "RoleGranted",
      "type": "event"
    },
    {
      "anonymous": false,
      "inputs": [
        {
          "indexed": true,
          "internalType": "bytes32",
          "name": "role",
          "type": "bytes32"
        },
        {
          "indexed": true,
          "internalType": "address",
          "name": "account",
          "type": "address"
        },
        {
          "indexed": true,
          "internalType": "address",
          "name": "sender",
          "type": "address"
        }
      ],
      "name": "RoleRevoked",
      "type": "event"
    },
    {
      "anonymous": false,
      "inputs": [
        {
          "indexed": true,
          "internalType": "address",
          "name": "_contract",
          "type": "address"
        }
      ],
      "name": "SetLiquidStakingContract",
      "type": "event"
    },
    {
      "anonymous": false,
      "inputs": [
        {
          "indexed": true,
          "internalType": "address",
          "name": "_contract",
          "type": "address"
        }
      ],
      "name": "SetUTokensContract",
      "type": "event"
    },
    {
      "anonymous": false,
      "inputs": [
        {
          "indexed": true,
          "internalType": "address",
          "name": "whitelistedAddress",
          "type": "address"
        },
        {
          "indexed": false,
          "internalType": "address",
          "name": "holderContractAddress",
          "type": "address"
        },
        {
          "indexed": false,
          "internalType": "address",
          "name": "lpContractAddress",
          "type": "address"
        },
        {
          "indexed": false,
          "internalType": "uint256",
          "name": "timestamp",
          "type": "uint256"
        }
      ],
      "name": "SetWhitelistedAddress",
      "type": "event"
    },
    {
      "anonymous": false,
      "inputs": [
        {
          "indexed": true,
          "internalType": "address",
          "name": "from",
          "type": "address"
        },
        {
          "indexed": true,
          "internalType": "address",
          "name": "to",
          "type": "address"
        },
        {
          "indexed": false,
          "internalType": "uint256",
          "name": "value",
          "type": "uint256"
        }
      ],
      "name": "Transfer",
      "type": "event"
    },
    {
      "anonymous": false,
      "inputs": [
        {
          "indexed": true,
          "internalType": "address",
          "name": "accountAddress",
          "type": "address"
        },
        {
          "indexed": false,
          "internalType": "uint256",
          "name": "tokens",
          "type": "uint256"
        },
        {
          "indexed": false,
          "internalType": "uint256",
          "name": "timestamp",
          "type": "uint256"
        }
      ],
      "name": "TriggeredCalculateRewards",
      "type": "event"
    },
    {
      "anonymous": false,
      "inputs": [
        {
          "indexed": false,
          "internalType": "address",
          "name": "account",
          "type": "address"
        }
      ],
      "name": "Unpaused",
      "type": "event"
    },
    {
      "inputs": [],
      "name": "DEFAULT_ADMIN_ROLE",
      "outputs": [
        {
          "internalType": "bytes32",
          "name": "",
          "type": "bytes32"
        }
      ],
      "stateMutability": "view",
      "type": "function"
    },
    {
      "inputs": [],
      "name": "PAUSER_ROLE",
      "outputs": [
        {
          "internalType": "bytes32",
          "name": "",
          "type": "bytes32"
        }
      ],
      "stateMutability": "view",
      "type": "function"
    },
    {
      "inputs": [
        {
          "internalType": "address",
          "name": "owner",
          "type": "address"
        },
        {
          "internalType": "address",
          "name": "spender",
          "type": "address"
        }
      ],
      "name": "allowance",
      "outputs": [
        {
          "internalType": "uint256",
          "name": "",
          "type": "uint256"
        }
      ],
      "stateMutability": "view",
      "type": "function"
    },
    {
      "inputs": [
        {
          "internalType": "address",
          "name": "spender",
          "type": "address"
        },
        {
          "internalType": "uint256",
          "name": "amount",
          "type": "uint256"
        }
      ],
      "name": "approve",
      "outputs": [
        {
          "internalType": "bool",
          "name": "",
          "type": "bool"
        }
      ],
      "stateMutability": "nonpayable",
      "type": "function"
    },
    {
      "inputs": [
        {
          "internalType": "address",
          "name": "account",
          "type": "address"
        }
      ],
      "name": "balanceOf",
      "outputs": [
        {
          "internalType": "uint256",
          "name": "",
          "type": "uint256"
        }
      ],
      "stateMutability": "view",
      "type": "function"
    },
    {
      "inputs": [],
      "name": "decimals",
      "outputs": [
        {
          "internalType": "uint8",
          "name": "",
          "type": "uint8"
        }
      ],
      "stateMutability": "view",
      "type": "function"
    },
    {
      "inputs": [
        {
          "internalType": "address",
          "name": "spender",
          "type": "address"
        },
        {
          "internalType": "uint256",
          "name": "subtractedValue",
          "type": "uint256"
        }
      ],
      "name": "decreaseAllowance",
      "outputs": [
        {
          "internalType": "bool",
          "name": "",
          "type": "bool"
        }
      ],
      "stateMutability": "nonpayable",
      "type": "function"
    },
    {
      "inputs": [
        {
          "internalType": "bytes32",
          "name": "role",
          "type": "bytes32"
        }
      ],
      "name": "getRoleAdmin",
      "outputs": [
        {
          "internalType": "bytes32",
          "name": "",
          "type": "bytes32"
        }
      ],
      "stateMutability": "view",
      "type": "function"
    },
    {
      "inputs": [
        {
          "internalType": "bytes32",
          "name": "role",
          "type": "bytes32"
        },
        {
          "internalType": "uint256",
          "name": "index",
          "type": "uint256"
        }
      ],
      "name": "getRoleMember",
      "outputs": [
        {
          "internalType": "address",
          "name": "",
          "type": "address"
        }
      ],
      "stateMutability": "view",
      "type": "function"
    },
    {
      "inputs": [
        {
          "internalType": "bytes32",
          "name": "role",
          "type": "bytes32"
        }
      ],
      "name": "getRoleMemberCount",
      "outputs": [
        {
          "internalType": "uint256",
          "name": "",
          "type": "uint256"
        }
      ],
      "stateMutability": "view",
      "type": "function"
    },
    {
      "inputs": [
        {
          "internalType": "bytes32",
          "name": "role",
          "type": "bytes32"
        },
        {
          "internalType": "address",
          "name": "account",
          "type": "address"
        }
      ],
      "name": "grantRole",
      "outputs": [],
      "stateMutability": "nonpayable",
      "type": "function"
    },
    {
      "inputs": [
        {
          "internalType": "bytes32",
          "name": "role",
          "type": "bytes32"
        },
        {
          "internalType": "address",
          "name": "account",
          "type": "address"
        }
      ],
      "name": "hasRole",
      "outputs": [
        {
          "internalType": "bool",
          "name": "",
          "type": "bool"
        }
      ],
      "stateMutability": "view",
      "type": "function"
    },
    {
      "inputs": [
        {
          "internalType": "address",
          "name": "spender",
          "type": "address"
        },
        {
          "internalType": "uint256",
          "name": "addedValue",
          "type": "uint256"
        }
      ],
      "name": "increaseAllowance",
      "outputs": [
        {
          "internalType": "bool",
          "name": "",
          "type": "bool"
        }
      ],
      "stateMutability": "nonpayable",
      "type": "function"
    },
    {
      "inputs": [],
      "name": "name",
      "outputs": [
        {
          "internalType": "string",
          "name": "",
          "type": "string"
        }
      ],
      "stateMutability": "view",
      "type": "function"
    },
    {
      "inputs": [],
      "name": "paused",
      "outputs": [
        {
          "internalType": "bool",
          "name": "",
          "type": "bool"
        }
      ],
      "stateMutability": "view",
      "type": "function"
    },
    {
      "inputs": [
        {
          "internalType": "bytes32",
          "name": "role",
          "type": "bytes32"
        },
        {
          "internalType": "address",
          "name": "account",
          "type": "address"
        }
      ],
      "name": "renounceRole",
      "outputs": [],
      "stateMutability": "nonpayable",
      "type": "function"
    },
    {
      "inputs": [
        {
          "internalType": "bytes32",
          "name": "role",
          "type": "bytes32"
        },
        {
          "internalType": "address",
          "name": "account",
          "type": "address"
        }
      ],
      "name": "revokeRole",
      "outputs": [],
      "stateMutability": "nonpayable",
      "type": "function"
    },
    {
      "inputs": [],
      "name": "symbol",
      "outputs": [
        {
          "internalType": "string",
          "name": "",
          "type": "string"
        }
      ],
      "stateMutability": "view",
      "type": "function"
    },
    {
      "inputs": [],
      "name": "totalSupply",
      "outputs": [
        {
          "internalType": "uint256",
          "name": "",
          "type": "uint256"
        }
      ],
      "stateMutability": "view",
      "type": "function"
    },
    {
      "inputs": [
        {
          "internalType": "address",
          "name": "recipient",
          "type": "address"
        },
        {
          "internalType": "uint256",
          "name": "amount",
          "type": "uint256"
        }
      ],
      "name": "transfer",
      "outputs": [
        {
          "internalType": "bool",
          "name": "",
          "type": "bool"
        }
      ],
      "stateMutability": "nonpayable",
      "type": "function"
    },
    {
      "inputs": [
        {
          "internalType": "address",
          "name": "sender",
          "type": "address"
        },
        {
          "internalType": "address",
          "name": "recipient",
          "type": "address"
        },
        {
          "internalType": "uint256",
          "name": "amount",
          "type": "uint256"
        }
      ],
      "name": "transferFrom",
      "outputs": [
        {
          "internalType": "bool",
          "name": "",
          "type": "bool"
        }
      ],
      "stateMutability": "nonpayable",
      "type": "function"
    },
    {
      "inputs": [
        {
          "internalType": "address",
          "name": "uaddress",
          "type": "address"
        },
        {
          "internalType": "address",
          "name": "pauserAddress",
          "type": "address"
        },
        {
          "internalType": "uint256",
          "name": "rewardRate",
          "type": "uint256"
        },
        {
          "internalType": "uint256",
          "name": "valueDivisor",
          "type": "uint256"
        }
      ],
      "name": "initialize",
      "outputs": [],
      "stateMutability": "nonpayable",
      "type": "function"
    },
    {
      "inputs": [
        {
          "internalType": "address",
          "name": "lpContractAddress",
          "type": "address"
        }
      ],
      "name": "isContractWhitelisted",
      "outputs": [
        {
          "internalType": "bool",
          "name": "result",
          "type": "bool"
        },
        {
          "internalType": "address",
          "name": "holderAddress",
          "type": "address"
        }
      ],
      "stateMutability": "view",
      "type": "function"
    },
    {
      "inputs": [
        {
          "internalType": "address",
          "name": "whitelistedAddress",
          "type": "address"
        }
      ],
      "name": "getHolderData",
      "outputs": [
        {
          "internalType": "address",
          "name": "holderAddress",
          "type": "address"
        },
        {
          "internalType": "address",
          "name": "lpAddress",
          "type": "address"
        },
        {
          "internalType": "uint256",
          "name": "lastHolderRewardTimestamp",
          "type": "uint256"
        }
      ],
      "stateMutability": "view",
      "type": "function"
    },
    {
      "inputs": [
        {
          "internalType": "uint256",
          "name": "rewardRate",
          "type": "uint256"
        }
      ],
      "name": "setRewardRate",
      "outputs": [
        {
          "internalType": "bool",
          "name": "success",
          "type": "bool"
        }
      ],
      "stateMutability": "nonpayable",
      "type": "function"
    },
    {
      "inputs": [],
      "name": "getRewardRate",
      "outputs": [
        {
          "internalType": "uint256[]",
          "name": "rewardRate",
          "type": "uint256[]"
        },
        {
          "internalType": "uint256",
          "name": "valueDivisor",
          "type": "uint256"
        }
      ],
      "stateMutability": "view",
      "type": "function"
    },
    {
      "inputs": [
        {
          "internalType": "address",
          "name": "to",
          "type": "address"
        }
      ],
      "name": "getLastUserRewardTimestamp",
      "outputs": [
        {
          "internalType": "uint256",
          "name": "lastUserRewardTimestamp",
          "type": "uint256"
        }
      ],
      "stateMutability": "view",
      "type": "function"
    },
    {
      "inputs": [
        {
          "internalType": "address",
          "name": "to",
          "type": "address"
        },
        {
          "internalType": "uint256",
          "name": "tokens",
          "type": "uint256"
        }
      ],
      "name": "mint",
      "outputs": [
        {
          "internalType": "bool",
          "name": "",
          "type": "bool"
        }
      ],
      "stateMutability": "nonpayable",
      "type": "function"
    },
    {
      "inputs": [
        {
          "internalType": "address",
          "name": "from",
          "type": "address"
        },
        {
          "internalType": "uint256",
          "name": "tokens",
          "type": "uint256"
        }
      ],
      "name": "burn",
      "outputs": [
        {
          "internalType": "bool",
          "name": "",
          "type": "bool"
        }
      ],
      "stateMutability": "nonpayable",
      "type": "function"
    },
    {
      "inputs": [
        {
          "internalType": "address",
          "name": "to",
          "type": "address"
        }
      ],
      "name": "calculatePendingRewards",
      "outputs": [
        {
          "internalType": "uint256",
          "name": "pendingRewards",
          "type": "uint256"
        }
      ],
      "stateMutability": "view",
      "type": "function"
    },
    {
      "inputs": [
        {
          "internalType": "address",
          "name": "to",
          "type": "address"
        }
      ],
      "name": "calculateRewards",
      "outputs": [
        {
          "internalType": "bool",
          "name": "success",
          "type": "bool"
        }
      ],
      "stateMutability": "nonpayable",
      "type": "function"
    },
    {
      "inputs": [
        {
          "internalType": "address",
          "name": "whitelistedAddress",
          "type": "address"
        },
        {
          "internalType": "address",
          "name": "holderContractAddress",
          "type": "address"
        },
        {
          "internalType": "address",
          "name": "lpContractAddress",
          "type": "address"
        }
      ],
      "name": "setWhitelistedAddress",
      "outputs": [
        {
          "internalType": "bool",
          "name": "success",
          "type": "bool"
        }
      ],
      "stateMutability": "nonpayable",
      "type": "function"
    },
    {
      "inputs": [
        {
          "internalType": "address",
          "name": "whitelistedAddress",
          "type": "address"
        }
      ],
      "name": "removeWhitelistedAddress",
      "outputs": [
        {
          "internalType": "bool",
          "name": "success",
          "type": "bool"
        }
      ],
      "stateMutability": "nonpayable",
      "type": "function"
    },
    {
      "inputs": [
        {
          "internalType": "address",
          "name": "uTokenContract",
          "type": "address"
        }
      ],
      "name": "setUTokensContract",
      "outputs": [],
      "stateMutability": "nonpayable",
      "type": "function"
    },
    {
      "inputs": [
        {
          "internalType": "address",
          "name": "liquidStakingContract",
          "type": "address"
        }
      ],
      "name": "setLiquidStakingContract",
      "outputs": [],
      "stateMutability": "nonpayable",
      "type": "function"
    },
    {
      "inputs": [],
      "name": "pause",
      "outputs": [
        {
          "internalType": "bool",
          "name": "success",
          "type": "bool"
        }
      ],
      "stateMutability": "nonpayable",
      "type": "function"
    },
    {
      "inputs": [],
      "name": "unpause",
      "outputs": [
        {
          "internalType": "bool",
          "name": "success",
          "type": "bool"
        }
      ],
      "stateMutability": "nonpayable",
      "type": "function"
    }
  ],
  "bytecode": "0x608060405234801561001057600080fd5b50613162806100206000396000f3fe608060405234801561001057600080fd5b50600436106102275760003560e01c806364ab867511610130578063a217fddf116100b8578063d547741f1161007c578063d547741f1461078f578063dd62ed3e146107bb578063e4df5918146107e9578063e63ab1e91461080f578063eb990c591461081757610227565b8063a217fddf146106c9578063a457c2d7146106d1578063a9059cbb146106fd578063c057058a14610729578063ca15c8731461077257610227565b80639010d07c116100ff5780639010d07c1461060d57806391d148541461064c57806395d89b41146106785780639dc29fac146106805780639e447fc6146106ac57610227565b806364ab86751461055657806370a082311461057c5780637e1a3786146105a25780638456cb591461060557610227565b806336568abe116101b357806340c10f191161018257806340c10f191461049e5780634bcb30f8146104ca578063530cd5ab1461050257806358f8943e146105285780635c975abb1461054e57610227565b806336568abe146103ee57806336bbacad1461041a578063395093511461046a5780633f4ba83a1461049657610227565b806321bdf9e5116101fa57806321bdf9e51461032957806323b872dd14610351578063248a9ca3146103875780632f2ff15d146103a4578063313ce567146103d057610227565b806306fdde031461022c578063095ea7b3146102a9578063097aad10146102e957806318160ddd14610321575b600080fd5b610234610853565b6040805160208082528351818301528351919283929083019185019080838360005b8381101561026e578181015183820152602001610256565b50505050905090810190601f16801561029b5780820380516001836020036101000a031916815260200191505b509250505060405180910390f35b6102d5600480360360408110156102bf57600080fd5b506001600160a01b0381351690602001356108e9565b604080519115158252519081900360200190f35b61030f600480360360208110156102ff57600080fd5b50356001600160a01b0316610907565b60408051918252519081900360200190f35b61030f61093e565b61034f6004803603602081101561033f57600080fd5b50356001600160a01b0316610944565b005b6102d56004803603606081101561036757600080fd5b506001600160a01b038135811691602081013590911690604001356109da565b61030f6004803603602081101561039d57600080fd5b5035610a62565b61034f600480360360408110156103ba57600080fd5b50803590602001356001600160a01b0316610a77565b6103d8610ade565b6040805160ff9092168252519081900360200190f35b61034f6004803603604081101561040457600080fd5b50803590602001356001600160a01b0316610ae7565b6104406004803603602081101561043057600080fd5b50356001600160a01b0316610b48565b604080516001600160a01b0394851681529290931660208301528183015290519081900360600190f35b6102d56004803603604081101561048057600080fd5b506001600160a01b038135169060200135610b7e565b6102d5610bcc565b6102d5600480360360408110156104b457600080fd5b506001600160a01b038135169060200135610c30565b6102d5600480360360608110156104e057600080fd5b506001600160a01b038135811691602081013582169160409091013516610ca5565b6102d56004803603602081101561051857600080fd5b50356001600160a01b0316610dd9565b61034f6004803603602081101561053e57600080fd5b50356001600160a01b0316610efd565b6102d5610f8e565b6102d56004803603602081101561056c57600080fd5b50356001600160a01b0316610f97565b61030f6004803603602081101561059257600080fd5b50356001600160a01b0316611095565b6105aa6110b0565b6040518080602001838152602001828103825284818151815260200191508051906020019060200280838360005b838110156105f05781810151838201526020016105d8565b50505050905001935050505060405180910390f35b6102d5611110565b6106306004803603604081101561062357600080fd5b508035906020013561116e565b604080516001600160a01b039092168252519081900360200190f35b6102d56004803603604081101561066257600080fd5b50803590602001356001600160a01b0316611186565b61023461119e565b6102d56004803603604081101561069657600080fd5b506001600160a01b0381351690602001356111ff565b6102d5600480360360208110156106c257600080fd5b5035611274565b61030f61136e565b6102d5600480360360408110156106e757600080fd5b506001600160a01b038135169060200135611373565b6102d56004803603604081101561071357600080fd5b506001600160a01b0381351690602001356113db565b61074f6004803603602081101561073f57600080fd5b50356001600160a01b03166113ef565b6040805192151583526001600160a01b0390911660208301528051918290030190f35b61030f6004803603602081101561078857600080fd5b5035611495565b61034f600480360360408110156107a557600080fd5b50803590602001356001600160a01b03166114ac565b61030f600480360360408110156107d157600080fd5b506001600160a01b0381358116916020013516611505565b61030f600480360360208110156107ff57600080fd5b50356001600160a01b0316611530565b61030f61154b565b61034f6004803603608081101561082d57600080fd5b506001600160a01b0381358116916020810135909116906040810135906060013561155d565b60368054604080516020601f60026000196101006001881615020190951694909404938401819004810282018101909252828152606093909290918301828280156108df5780601f106108b4576101008083540402835291602001916108df565b820191906000526020600020905b8154815290600101906020018083116108c257829003601f168201915b5050505050905090565b60006108fd6108f6611750565b8484611754565b5060015b92915050565b6001600160a01b038116600090815260d360205260408120548161092a84611095565b90506109368183611840565b949350505050565b60355490565b6109566000610951611750565b611186565b610990576040805162461bcd60e51b8152602060048083019190915260248201526329aa189960e11b604482015290519081900360640190fd5b60cf80546001600160a01b0319166001600160a01b0383169081179091556040517ff745c285f36f88bea6af14d4d0f33dd9350cef7895216c1615b1caaee7857e0c90600090a250565b60006109e7848484611a62565b610a57846109f3611750565b610a5285604051806060016040528060288152602001613027602891396001600160a01b038a16600090815260346020526040812090610a31611750565b6001600160a01b031681526020810191909152604001600020549190611bbf565b611754565b5060015b9392505050565b60009081526097602052604090206002015490565b600082815260976020526040902060020154610a9590610951611750565b610ad05760405162461bcd60e51b815260040180806020018281038252602f815260200180612f0f602f913960400191505060405180910390fd5b610ada8282611c56565b5050565b60385460ff1690565b610aef611750565b6001600160a01b0316816001600160a01b031614610b3e5760405162461bcd60e51b815260040180806020018281038252602f8152602001806130fe602f913960400191505060405180910390fd5b610ada8282611cbf565b6001600160a01b03908116600090815260cb602090815260408083205460cc83528184205460cd90935292205491831693921691565b60006108fd610b8b611750565b84610a528560346000610b9c611750565b6001600160a01b03908116825260208083019390935260409182016000908120918c168152925290205490611d28565b6000610be860008051602061304f833981519152610951611750565b610c22576040805162461bcd60e51b815260206004808301919091526024820152635354313560e01b604482015290519081900360640190fd5b610c2a611d82565b50600190565b6000326001600160a01b038416148015610c64575060ce546001600160a01b0316610c59611750565b6001600160a01b0316145b610c9b576040805162461bcd60e51b815260206004820152600360248201526253543360e81b604482015290519081900360640190fd5b6108fd8383611e22565b6000610cb381610951611750565b610cea576040805162461bcd60e51b81526020600482015260036024820152620a6a8760eb1b604482015290519081900360640190fd5b6001600160a01b038416610d2b576040805162461bcd60e51b815260206004820152600360248201526253543960e81b604482015290519081900360640190fd5b610d3660c985611f14565b610d4757610d4560c985611f29565b505b6001600160a01b03808516600081815260cb602090815260408083208054868a166001600160a01b0319918216811790925560cc84529382902080549689169690941686179093558051928352908201939093524281840152915190917f82ed35aaa6afc6ef1f698fbb8532bfa0a40ac98e0a5157a330a43ac1715cc199919081900360600190a25060019392505050565b6000610de781610951611750565b610e21576040805162461bcd60e51b815260206004808301919091526024820152630535431360e41b604482015290519081900360640190fd5b6001600160a01b038216610e65576040805162461bcd60e51b815260206004808301919091526024820152635354313160e01b604482015290519081900360640190fd5b610e7060c983611f3e565b506001600160a01b03828116600081815260cb60209081526040808320805460cc84529382902080546001600160a01b031980871690935581549092169055815193861680855295169183018290524283820152519092917f2742009aa76efd08ff06c38a132900d832bc5494d526b3335719fca7b65b95fc919081900360600190a25060019392505050565b610f0a6000610951611750565b610f44576040805162461bcd60e51b815260206004808301919091526024820152635354313360e01b604482015290519081900360640190fd5b60ce80546001600160a01b0319166001600160a01b0383169081179091556040517f57fded54c0f01b7b2c662bd89530d6916e48149e02da384db87d1a67306be87190600090a250565b60655460ff1690565b6000610fa1610f8e565b15610fe6576040805162461bcd60e51b815260206004820152601060248201526f14185d5cd8589b194e881c185d5cd95960821b604482015290519081900360640190fd5b610fee611750565b6001600160a01b0316826001600160a01b031614611039576040805162461bcd60e51b815260206004820152600360248201526253543560e81b604482015290519081900360640190fd5b600061104483611f53565b6040805182815242602082015281519293506001600160a01b038616927fd0194489832efa41a56f4a4add6fbbe260998cbcff0b43c953af28b545ca7a01929181900390910190a250600192915050565b6001600160a01b031660009081526033602052604090205490565b6060600060d080548060200260200160405190810160405280929190818152602001828054801561110057602002820191906000526020600020905b8154815260200190600101908083116110ec575b5050505050915060d25490509091565b600061112c60008051602061304f833981519152610951611750565b611166576040805162461bcd60e51b8152602060048083019190915260248201526314d50c4d60e21b604482015290519081900360640190fd5b610c2a61204c565b6000828152609760205260408120610a5b90836120cf565b6000828152609760205260408120610a5b9083611f14565b60378054604080516020601f60026000196101006001881615020190951694909404938401819004810282018101909252828152606093909290918301828280156108df5780601f106108b4576101008083540402835291602001916108df565b6000326001600160a01b038416148015611233575060ce546001600160a01b0316611228611750565b6001600160a01b0316145b61126a576040805162461bcd60e51b815260206004820152600360248201526214d50d60ea1b604482015290519081900360640190fd5b6108fd83836120db565b60d2546000906112859060646121d7565b8211156112bf576040805162461bcd60e51b815260206004820152600360248201526253543160e81b604482015290519081900360640190fd5b6112cc6000610951611750565b611303576040805162461bcd60e51b815260206004820152600360248201526229aa1960e91b604482015290519081900360640190fd5b5060d0805460018082019092557fe89d44c8fd6a9bac8af33ce47f56337617d449bf7ff3956b618c646de829cbcb019190915560d180548083018255600091909152427f695fb3134ad82c3b8022bc5464edd0bcc9424ef672b52245dcb6ab2374327ce39091015590565b600081565b60006108fd611380611750565b84610a52856040518060600160405280602581526020016130d960259139603460006113aa611750565b6001600160a01b03908116825260208083019390935260409182016000908120918d16815292529020549190611bbf565b60006108fd6113e8611750565b8484611a62565b6000806000806113ff60c9612230565b905060005b8181101561148d5760cc600061141b60c9846120cf565b6001600160a01b03908116825260208201929092526040016000205481169350861683141561147b576001945060cb600061145760c9846120cf565b6001600160a01b03908116825260208201929092526040016000205416935061148d565b611486816001611d28565b9050611404565b505050915091565b600081815260976020526040812061090190612230565b6000828152609760205260409020600201546114ca90610951611750565b610b3e5760405162461bcd60e51b8152600401808060200182810382526030815260200180612fa86030913960400191505060405180910390fd5b6001600160a01b03918216600090815260346020908152604080832093909416825291909152205490565b6001600160a01b0316600090815260d3602052604090205490565b60008051602061304f83398151915281565b600054610100900460ff1680611576575061157661223b565b80611584575060005460ff16155b6115bf5760405162461bcd60e51b815260040180806020018281038252602e815260200180612fd8602e913960400191505060405180910390fd5b600054610100900460ff161580156115ea576000805460ff1961ff0019909116610100171660011790555b61163d60405180604001604052806012815260200171705354414b45205374616b65642041544f4d60701b8152506040518060400160405280600781526020016673746b41544f4d60c81b81525061224c565b611645612302565b61164d6123b4565b61165f600061165a611750565b610ad0565b61167760008051602061304f83398151915285610ad0565b61168085610944565b60d28290556116908260646121d7565b8311156116ca576040805162461bcd60e51b815260206004820152600360248201526253543160e81b604482015290519081900360640190fd5b60d0805460018181019092557fe89d44c8fd6a9bac8af33ce47f56337617d449bf7ff3956b618c646de829cbcb0184905560d180549182018155600052427f695fb3134ad82c3b8022bc5464edd0bcc9424ef672b52245dcb6ab2374327ce3909101556117376006612451565b8015611749576000805461ff00191690555b5050505050565b3390565b6001600160a01b0383166117995760405162461bcd60e51b81526004018080602001828103825260248152602001806130b56024913960400191505060405180910390fd5b6001600160a01b0382166117de5760405162461bcd60e51b8152600401808060200182810382526022815260200180612f606022913960400191505060405180910390fd5b6001600160a01b03808416600081815260346020908152604080832094871680845294825291829020859055815185815291517f8c5be1e5ebec7d5bd14f71427d1e84f3dd0314c0f7b2291e5b200ac8c7c3b9259281900390910190a3505050565b60008080808086158061185a57506118584287612467565b155b1561186c576000945050505050610901565b60d15460009061187d906001612467565b90508094505b60d154611891906001612467565b8510156119aa578660d186815481106118a657fe5b906000526020600020015411156119565761190360d186815481106118c757fe5b60009182526020909120015460d16118e0886001611d28565b815481106118ea57fe5b906000526020600020015461246790919063ffffffff16565b935061192a60d0868154811061191557fe5b600091825260209091200154899060646124c4565b91506119438460d254846124c49092919063ffffffff16565b925061194f8684611d28565b95506119a5565b6119678760d16118e0886001611d28565b935061197960d0868154811061191557fe5b91506119928460d254846124c49092919063ffffffff16565b925061199e8684611d28565b9550611a57565b611a3b565b8660d186815481106119b857fe5b90600052602060002001541115611a31576119f360d186815481106119d957fe5b90600052602060002001544261246790919063ffffffff16565b9350611a0560d0868154811061191557fe5b9150611a1e8460d254846124c49092919063ffffffff16565b9250611a2a8684611d28565b9550611a3b565b6119674288612467565b84611a4557611a57565b611a50856001612467565b9450611883565b505050505092915050565b6001600160a01b038316611aa75760405162461bcd60e51b81526004018080602001828103825260258152602001806130906025913960400191505060405180910390fd5b6001600160a01b038216611aec5760405162461bcd60e51b8152600401808060200182810382526023815260200180612eec6023913960400191505060405180910390fd5b611af783838361257d565b611b3481604051806060016040528060268152602001612f82602691396001600160a01b0386166000908152603360205260409020549190611bbf565b6001600160a01b038085166000908152603360205260408082209390935590841681522054611b639082611d28565b6001600160a01b0380841660008181526033602090815260409182902094909455805185815290519193928716927fddf252ad1be2c89b69c2b068fc378daa952ba7f163c4a11628f55a4df523b3ef92918290030190a3505050565b60008184841115611c4e5760405162461bcd60e51b81526004018080602001828103825283818151815260200191508051906020019080838360005b83811015611c13578181015183820152602001611bfb565b50505050905090810190601f168015611c405780820380516001836020036101000a031916815260200191505b509250505060405180910390fd5b505050900390565b6000828152609760205260409020611c6e9082611f29565b15610ada57611c7b611750565b6001600160a01b0316816001600160a01b0316837f2f8788117e7eff1d82e926ec794901d17c78024a50270940304540a733656f0d60405160405180910390a45050565b6000828152609760205260409020611cd79082611f3e565b15610ada57611ce4611750565b6001600160a01b0316816001600160a01b0316837ff6391f5c32d9c69d2a47ea670b442974b53935d1edc7fd64eb21e047a839171b60405160405180910390a45050565b600082820183811015610a5b576040805162461bcd60e51b815260206004820152601b60248201527f536166654d6174683a206164646974696f6e206f766572666c6f770000000000604482015290519081900360640190fd5b611d8a610f8e565b611dd2576040805162461bcd60e51b815260206004820152601460248201527314185d5cd8589b194e881b9bdd081c185d5cd95960621b604482015290519081900360640190fd5b6065805460ff191690557f5db9ee0a495bf2e6ff9c91a7834c1ba4fdd244a5e8aa4e537bd38aeae4b073aa611e05611750565b604080516001600160a01b039092168252519081900360200190a1565b6001600160a01b038216611e7d576040805162461bcd60e51b815260206004820152601f60248201527f45524332303a206d696e7420746f20746865207a65726f206164647265737300604482015290519081900360640190fd5b611e896000838361257d565b603554611e969082611d28565b6035556001600160a01b038216600090815260336020526040902054611ebc9082611d28565b6001600160a01b03831660008181526033602090815260408083209490945583518581529351929391927fddf252ad1be2c89b69c2b068fc378daa952ba7f163c4a11628f55a4df523b3ef9281900390910190a35050565b6000610a5b836001600160a01b03841661276f565b6000610a5b836001600160a01b038416612787565b6000610a5b836001600160a01b0384166127d1565b600080611f5f83610907565b6001600160a01b038416600090815260d360205260409020429055905080156109015760cf54604080516340c10f1960e01b81526001600160a01b03868116600483015260248201859052915191909216916340c10f199160448083019260209291908290030181600087803b158015611fd857600080fd5b505af1158015611fec573d6000803e3d6000fd5b505050506040513d602081101561200257600080fd5b50506040805182815242602082015281516001600160a01b038616927f01ea729deb12fa912e813101b1da8b7c1500f7f26c912a612221a02af6a56220928290030190a292915050565b612054610f8e565b15612099576040805162461bcd60e51b815260206004820152601060248201526f14185d5cd8589b194e881c185d5cd95960821b604482015290519081900360640190fd5b6065805460ff191660011790557f62e78cea01bee320cd4e420270b5ea74000d11b0c9f74754ebdbfc544b05a258611e05611750565b6000610a5b8383612897565b6001600160a01b0382166121205760405162461bcd60e51b815260040180806020018281038252602181526020018061306f6021913960400191505060405180910390fd5b61212c8260008361257d565b61216981604051806060016040528060228152602001612f3e602291396001600160a01b0385166000908152603360205260409020549190611bbf565b6001600160a01b03831660009081526033602052604090205560355461218f9082612467565b6035556040805182815290516000916001600160a01b038516917fddf252ad1be2c89b69c2b068fc378daa952ba7f163c4a11628f55a4df523b3ef9181900360200190a35050565b6000826121e657506000610901565b828202828482816121f357fe5b0414610a5b5760405162461bcd60e51b81526004018080602001828103825260218152602001806130066021913960400191505060405180910390fd5b6000610901826128fb565b6000612246306128ff565b15905090565b600054610100900460ff1680612265575061226561223b565b80612273575060005460ff16155b6122ae5760405162461bcd60e51b815260040180806020018281038252602e815260200180612fd8602e913960400191505060405180910390fd5b600054610100900460ff161580156122d9576000805460ff1961ff0019909116610100171660011790555b6122e1612905565b6122eb83836129a5565b80156122fd576000805461ff00191690555b505050565b600054610100900460ff168061231b575061231b61223b565b80612329575060005460ff16155b6123645760405162461bcd60e51b815260040180806020018281038252602e815260200180612fd8602e913960400191505060405180910390fd5b600054610100900460ff1615801561238f576000805460ff1961ff0019909116610100171660011790555b612397612905565b61239f612905565b80156123b1576000805461ff00191690555b50565b600054610100900460ff16806123cd57506123cd61223b565b806123db575060005460ff16155b6124165760405162461bcd60e51b815260040180806020018281038252602e815260200180612fd8602e913960400191505060405180910390fd5b600054610100900460ff16158015612441576000805460ff1961ff0019909116610100171660011790555b612449612905565b61239f612a7d565b6038805460ff191660ff92909216919091179055565b6000828211156124be576040805162461bcd60e51b815260206004820152601e60248201527f536166654d6174683a207375627472616374696f6e206f766572666c6f770000604482015290519081900360640190fd5b50900390565b60008060006124d38686612b28565b91509150600084806124e157fe5b8688099050828111156124f5576001820391505b9182900391816125135784838161250857fe5b049350505050610a5b565b848210612567576040805162461bcd60e51b815260206004820152601a60248201527f46756c6c4d6174683a2046554c4c4449565f4f564552464c4f57000000000000604482015290519081900360640190fd5b612572838387612b55565b979650505050505050565b612585610f8e565b156125bd576040805162461bcd60e51b815260206004820152600360248201526253543760e81b604482015290519081900360640190fd5b6125c88383836122fd565b6001600160a01b038316612601576125e160c983611f14565b6125f4576125ee82611f53565b50612601565b6125ff828483612bc5565b505b6001600160a01b03831615801590612621575061261f60c984611f14565b155b156126b3576001600160a01b03821661263f5761263d83611f53565b505b6001600160a01b0382161580159061265f575061265d60c983611f14565b155b156126795761266d83611f53565b5061267782611f53565b505b6001600160a01b03821615801590612697575061269760c983611f14565b156126b3576126a583611f53565b506126b1828483612bc5565b505b6001600160a01b038316158015906126d157506126d160c984611f14565b156122fd576001600160a01b0382166126f1576126ef838383612bc5565b505b6001600160a01b03821615801590612711575061270f60c983611f14565b155b1561272d57612721838383612bc5565b5061272b82611f53565b505b6001600160a01b0382161580159061274b575061274b60c983611f14565b156122fd5761275c83600083612bc5565b5061276982600083612bc5565b50505050565b60009081526001919091016020526040902054151590565b6000612793838361276f565b6127c957508154600181810184556000848152602080822090930184905584548482528286019093526040902091909155610901565b506000610901565b6000818152600183016020526040812054801561288d578354600019808301919081019060009087908390811061280457fe5b906000526020600020015490508087600001848154811061282157fe5b60009182526020808320909101929092558281526001898101909252604090209084019055865487908061285157fe5b60019003818190600052602060002001600090559055866001016000878152602001908152602001600020600090556001945050505050610901565b6000915050610901565b815460009082106128d95760405162461bcd60e51b8152600401808060200182810382526022815260200180612eca6022913960400191505060405180910390fd5b8260000182815481106128e857fe5b9060005260206000200154905092915050565b5490565b3b151590565b600054610100900460ff168061291e575061291e61223b565b8061292c575060005460ff16155b6129675760405162461bcd60e51b815260040180806020018281038252602e815260200180612fd8602e913960400191505060405180910390fd5b600054610100900460ff1615801561239f576000805460ff1961ff00199091166101001716600117905580156123b1576000805461ff001916905550565b600054610100900460ff16806129be57506129be61223b565b806129cc575060005460ff16155b612a075760405162461bcd60e51b815260040180806020018281038252602e815260200180612fd8602e913960400191505060405180910390fd5b600054610100900460ff16158015612a32576000805460ff1961ff0019909116610100171660011790555b8251612a45906036906020860190612e28565b508151612a59906037906020850190612e28565b506038805460ff1916601217905580156122fd576000805461ff0019169055505050565b600054610100900460ff1680612a965750612a9661223b565b80612aa4575060005460ff16155b612adf5760405162461bcd60e51b815260040180806020018281038252602e815260200180612fd8602e913960400191505060405180910390fd5b600054610100900460ff16158015612b0a576000805460ff1961ff0019909116610100171660011790555b6065805460ff1916905580156123b1576000805461ff001916905550565b6000808060001984860990508385029250828103915082811015612b4d576001820391505b509250929050565b60008181038216808381612b6557fe5b049250808581612b7157fe5b049450808160000381612b8057fe5b60028581038087028203028087028203028087028203028087028203028087028203028087028203029586029003909402930460010193909302939093010292915050565b6000612bd260c985611f14565b8015612bf757506001600160a01b03848116600090815260cb60205260409020541615155b8015612c1c57506001600160a01b03848116600090815260cc60205260409020541615155b612c53576040805162461bcd60e51b815260206004820152600360248201526229aa1b60e91b604482015290519081900360640190fd5b6001600160a01b03808516600081815260cb6020908152604080832054815163cfd0ec3160e01b8152600481019590955288861660248601526044850188905290519294169263cfd0ec319260648083019392829003018186803b158015612cba57600080fd5b505afa158015612cce573d6000803e3d6000fd5b505050506040513d6020811015612ce457600080fd5b50516001600160a01b038616600090815260cd602052604081205491925090612d0e908390611840565b6001600160a01b038716600090815260cd6020526040902042905590508015612e1f5760cf546001600160a01b03878116600090815260cb602090815260408083205481516340c10f1960e01b8152908516600482015260248101879052905193909416936340c10f199360448083019491928390030190829087803b158015612d9757600080fd5b505af1158015612dab573d6000803e3d6000fd5b505050506040513d6020811015612dc157600080fd5b50506001600160a01b03808716600090815260cb6020908152604091829020548251858152429281019290925282519316927fe85a4e933dc860954bf36bb3668248d022d3047f9056c2c083e5e44a0f1517a0929181900390910190a25b95945050505050565b828054600181600116156101000203166002900490600052602060002090601f016020900481019282612e5e5760008555612ea4565b82601f10612e7757805160ff1916838001178555612ea4565b82800160010185558215612ea4579182015b82811115612ea4578251825591602001919060010190612e89565b50612eb0929150612eb4565b5090565b5b80821115612eb05760008155600101612eb556fe456e756d657261626c655365743a20696e646578206f7574206f6620626f756e647345524332303a207472616e7366657220746f20746865207a65726f2061646472657373416363657373436f6e74726f6c3a2073656e646572206d75737420626520616e2061646d696e20746f206772616e7445524332303a206275726e20616d6f756e7420657863656564732062616c616e636545524332303a20617070726f766520746f20746865207a65726f206164647265737345524332303a207472616e7366657220616d6f756e7420657863656564732062616c616e6365416363657373436f6e74726f6c3a2073656e646572206d75737420626520616e2061646d696e20746f207265766f6b65496e697469616c697a61626c653a20636f6e747261637420697320616c726561647920696e697469616c697a6564536166654d6174683a206d756c7469706c69636174696f6e206f766572666c6f7745524332303a207472616e7366657220616d6f756e74206578636565647320616c6c6f77616e636565d7a28e3265b37a6474929f336521b332c1681b933f6cb9f3376673440d862a45524332303a206275726e2066726f6d20746865207a65726f206164647265737345524332303a207472616e736665722066726f6d20746865207a65726f206164647265737345524332303a20617070726f76652066726f6d20746865207a65726f206164647265737345524332303a2064656372656173656420616c6c6f77616e63652062656c6f77207a65726f416363657373436f6e74726f6c3a2063616e206f6e6c792072656e6f756e636520726f6c657320666f722073656c66a26469706673582212206e352236baa31fe565f8fb5a1e18a08ba31d06da6c962c601bedf69c56722c1664736f6c63430007060033",
  "immutableReferences": {},
  "source": "/*\n Copyright [2019] - [2021], PERSISTENCE TECHNOLOGIES PTE. LTD. and the pStake-smartContracts contributors\n SPDX-License-Identifier: Apache-2.0\n*/\n\npragma solidity >= 0.7.0;\n\nimport \"@openzeppelin/contracts-upgradeable/token/ERC20/ERC20Upgradeable.sol\";\nimport \"@openzeppelin/contracts-upgradeable/math/SafeMathUpgradeable.sol\";\nimport \"@openzeppelin/contracts-upgradeable/utils/PausableUpgradeable.sol\";\nimport \"@openzeppelin/contracts-upgradeable/utils/EnumerableSetUpgradeable.sol\";\nimport \"@openzeppelin/contracts-upgradeable/access/AccessControlUpgradeable.sol\";\nimport \"./interfaces/ISTokens.sol\";\nimport \"./interfaces/IUTokens.sol\";\nimport \"./interfaces/IHolder.sol\";\nimport \"./libraries/FullMath.sol\";\n\ncontract STokens is ERC20Upgradeable, ISTokens, PausableUpgradeable, AccessControlUpgradeable {\n\n\tusing SafeMathUpgradeable for uint256;\n\tusing FullMath for uint256;\n\tusing EnumerableSetUpgradeable for EnumerableSetUpgradeable.AddressSet;\n\n\t// constants defining access control ROLES\n\tbytes32 public constant PAUSER_ROLE = keccak256(\"PAUSER_ROLE\");\n\n\t// variables pertaining to holder logic for whitelisted addresses & StakeLP\n\t// deposit contract address for STokens in a DeFi product\n\tEnumerableSetUpgradeable.AddressSet private _whitelistedAddresses;\n\tmapping(address => address) private _holderContractAddress;\n\t// LP Token contract address which might be different from whitelisted contract\n\tmapping(address => address) private _lpContractAddress;\n\t// last timestamp when the holder reward calculation was performed for updating reward pool\n\tmapping(address => uint256) private _lastHolderRewardTimestamp;\n\n\t// variables capturing data of other contracts in the product\n\taddress private _liquidStakingContract;\n\tIUTokens private _uTokens;\n\n\t// variables pertaining to moving reward rate logic\n\tuint256[] private _rewardRate;\n\tuint256[] private _lastMovingRewardTimestamp;\n\tuint256 private _valueDivisor;\n\tmapping(address => uint256) private _lastUserRewardTimestamp;\n\n\t/**\n   * @dev Constructor for initializing the SToken contract.\n   * @param uaddress - address of the UToken contract.\n   * @param pauserAddress - address of the pauser admin.\n   * @param rewardRate - set to rewardRate * 10^-5\n   * @param valueDivisor - valueDivisor set to 10^9.\n   */\n\tfunction initialize(address uaddress, address pauserAddress, uint256 rewardRate, uint256 valueDivisor) public virtual initializer {\n\t\t__ERC20_init(\"pSTAKE Staked ATOM\", \"stkATOM\");\n\t\t__AccessControl_init();\n\t\t__Pausable_init();\n\t\t_setupRole(DEFAULT_ADMIN_ROLE, _msgSender());\n\t\t_setupRole(PAUSER_ROLE, pauserAddress);\n\t\tsetUTokensContract(uaddress);\n\t\t_valueDivisor = valueDivisor;\n\t\trequire(rewardRate <= _valueDivisor.mul(100), \"ST1\");\n\t\t_rewardRate.push(rewardRate);\n\t\t_lastMovingRewardTimestamp.push(block.timestamp);\n\t\t_setupDecimals(6);\n\t}\n\n\t/**\n    * @dev Calculate pending rewards for the provided 'address'. The rate is the moving reward rate.\n    * @param lpContractAddress: contract address\n    */\n\tfunction isContractWhitelisted(address lpContractAddress) public view virtual override returns (bool result, address holderAddress){\n\t\t// Get the time in number of blocks\n\t\taddress _lpContractAddressLocal;\n\t\tuint256 _whitelistedAddressesLength = _whitelistedAddresses.length();\n\t\tfor (uint256 i=0; i<_whitelistedAddressesLength; i=i.add(1)) {\n\t\t\t//get getUnstakeTime and compare it with current timestamp to check if 21 days + epoch difference has passed\n\t\t\t_lpContractAddressLocal = _lpContractAddress[_whitelistedAddresses.at(i)];\n\t\t\tif(_lpContractAddressLocal == lpContractAddress) {\n\t\t\t\tresult = true;\n\t\t\t\tholderAddress = _holderContractAddress[_whitelistedAddresses.at(i)];\n\t\t\t\tbreak;\n\t\t\t}\n\t\t}\n\t}\n\n\t/**\n    * @dev Calculate pending rewards for the provided 'address'. The rate is the moving reward rate.\n    * @param whitelistedAddress: contract address\n    */\n\tfunction getHolderData(address whitelistedAddress) public view virtual override returns (address holderAddress, address lpAddress, uint256 lastHolderRewardTimestamp){\n\t\t// Get the time in number of blocks\n\t\tholderAddress = _holderContractAddress[whitelistedAddress];\n\t\tlpAddress = _lpContractAddress[whitelistedAddress];\n\t\tlastHolderRewardTimestamp = _lastHolderRewardTimestamp[whitelistedAddress];\n\t}\n\n\t/*\n    * @dev set reward rate called by admin\n    * @param rewardRate: reward rate\n    *\n    *\n    * Requirements:\n    *\n    * - `rate` cannot be less than or equal to zero.\n    *\n    */\n\tfunction setRewardRate(uint256 rewardRate) public virtual override returns (bool success) {\n\t\t// range checks for rewardRate. Since rewardRate cannot be more than 100%, the max cap\n\t\t// is _valueDivisor * 100, which then brings the fees to 100 (percentage)\n\t\trequire(rewardRate <= _valueDivisor.mul(100), \"ST1\");\n\t\trequire(hasRole(DEFAULT_ADMIN_ROLE, _msgSender()), \"ST2\");\n\t\t_rewardRate.push(rewardRate);\n\t\t_lastMovingRewardTimestamp.push(block.timestamp);\n\t\treturn true;\n\t}\n\n\t/**\n    * @dev get reward rate and value divisor\n    */\n\tfunction getRewardRate() public view virtual returns (uint256[] memory rewardRate, uint256 valueDivisor) {\n\t\trewardRate = _rewardRate;\n\t\tvalueDivisor = _valueDivisor;\n\t}\n\n\t/**\n     * @dev get rewards till timestamp\n     * @param to: account address\n     */\n\tfunction getLastUserRewardTimestamp(address to) public view virtual returns (uint256 lastUserRewardTimestamp) {\n\t\tlastUserRewardTimestamp = _lastUserRewardTimestamp[to];\n\t}\n\n\t/**\n     * @dev Mint new stokens for the provided 'address' and 'tokens'\n     * @param to: account address, tokens: number of tokens\n     *\n     * Emits a {MintTokens} event with 'to' set to address and 'tokens' set to amount of tokens.\n     *\n     * Requirements:\n     *\n     * - `amount` cannot be less than zero.\n     *\n     */\n\tfunction mint(address to, uint256 tokens) public virtual override returns (bool) {\n\t\trequire(tx.origin == to && _msgSender() == _liquidStakingContract, \"ST3\");\n\t\t_mint(to, tokens);\n\t\treturn true;\n\t}\n\n\t/*\n     * @dev Burn stokens for the provided 'address' and 'tokens'\n     * @param to: account address, tokens: number of tokens\n     *\n     * Emits a {BurnTokens} event with 'to' set to address and 'tokens' set to amount of tokens.\n     *\n     * Requirements:\n     *\n     * - `amount` cannot be less than zero.\n     *\n     */\n\tfunction burn(address from, uint256 tokens) public  virtual override returns (bool) {\n\t\trequire(tx.origin == from && _msgSender() == _liquidStakingContract, \"ST4\");\n\t\t_burn(from, tokens);\n\t\treturn true;\n\t}\n\n\t/**\n     * @dev Calculate pending rewards from the provided 'principal' & 'lastRewardTimestamp'. The rate is the moving reward rate.\n     * @param principal: principal amount\n     * @param lastRewardTimestamp: timestamp of last reward calculation performed\n     */\n\tfunction _calculatePendingRewards(uint256 principal, uint256 lastRewardTimestamp) internal view returns (uint256 pendingRewards){\n\t\tuint256 _index;\n\t\tuint256 _rewardBlocks;\n\t\tuint256 _simpleInterestOfInterval;\n\t\tuint256 _temp;\n\t\t// return 0 if principal or timeperiod is zero\n\t\tif(principal == 0 || block.timestamp.sub(lastRewardTimestamp) == 0) return 0;\n\t\t// calculate rewards for each interval period between rewardRate changes\n\t\tuint256 _lastMovingRewardLength = _lastMovingRewardTimestamp.length.sub(1);\n\t\tfor(_index = _lastMovingRewardLength; _index >= 0;){\n\t\t\t// logic applies for all indexes of array except last index\n\t\t\tif(_index < _lastMovingRewardTimestamp.length.sub(1)) {\n\t\t\t\tif(_lastMovingRewardTimestamp[_index] > lastRewardTimestamp) {\n\t\t\t\t\t_rewardBlocks = (_lastMovingRewardTimestamp[_index.add(1)]).sub(_lastMovingRewardTimestamp[_index]);\n\t\t\t\t\t_temp = principal.mulDiv(_rewardRate[_index], 100);\n\t\t\t\t\t_simpleInterestOfInterval = _temp.mulDiv(_rewardBlocks, _valueDivisor);\n\t\t\t\t\tpendingRewards = pendingRewards.add(_simpleInterestOfInterval);\n\t\t\t\t}\n\t\t\t\telse {\n\t\t\t\t\t_rewardBlocks = (_lastMovingRewardTimestamp[_index.add(1)]).sub(lastRewardTimestamp);\n\t\t\t\t\t_temp = principal.mulDiv(_rewardRate[_index], 100);\n\t\t\t\t\t_simpleInterestOfInterval = _temp.mulDiv(_rewardBlocks, _valueDivisor);\n\t\t\t\t\tpendingRewards = pendingRewards.add(_simpleInterestOfInterval);\n\t\t\t\t\tbreak;\n\t\t\t\t}\n\t\t\t}\n\t\t\t// logic applies only for the last index of array\n\t\t\telse {\n\t\t\t\tif(_lastMovingRewardTimestamp[_index] > lastRewardTimestamp) {\n\t\t\t\t\t_rewardBlocks = (block.timestamp).sub(_lastMovingRewardTimestamp[_index]);\n\t\t\t\t\t_temp = principal.mulDiv(_rewardRate[_index], 100);\n\t\t\t\t\t_simpleInterestOfInterval = _temp.mulDiv(_rewardBlocks, _valueDivisor);\n\t\t\t\t\tpendingRewards = pendingRewards.add(_simpleInterestOfInterval);\n\t\t\t\t}\n\t\t\t\telse {\n\t\t\t\t\t_rewardBlocks = (block.timestamp).sub(lastRewardTimestamp);\n\t\t\t\t\t_temp = principal.mulDiv(_rewardRate[_index], 100);\n\t\t\t\t\t_simpleInterestOfInterval = _temp.mulDiv(_rewardBlocks, _valueDivisor);\n\t\t\t\t\tpendingRewards = pendingRewards.add(_simpleInterestOfInterval);\n\t\t\t\t\tbreak;\n\t\t\t\t}\n\t\t\t}\n\n\t\t\tif(_index == 0) break;\n\t\t\telse {\n\t\t\t\t_index = _index.sub(1);\n\t\t\t}\n\t\t}\n\t\treturn pendingRewards;\n\t}\n\n\t/**\n     * @dev Calculate pending rewards for the provided 'address'. The rate is the moving reward rate.\n     * @param to: account address\n     */\n\tfunction calculatePendingRewards(address to) public view virtual override returns (uint256 pendingRewards){\n\t\t// Get the time in number of blocks\n\t\tuint256 _lastRewardTimestamp = _lastUserRewardTimestamp[to];\n\t\t// Get the balance of the account\n\t\tuint256 _balance = balanceOf(to);\n\t\t// calculate pending rewards using _calculatePendingRewards\n\t\tpendingRewards = _calculatePendingRewards(_balance, _lastRewardTimestamp);\n\n\t\treturn pendingRewards;\n\t}\n\n\t/**\n     * @dev Calculate rewards for the provided 'address'\n     * @param to: account address\n     */\n\tfunction _calculateRewards(address to) internal returns (uint256){\n\t\t// Calculate the rewards pending\n\t\tuint256 _reward = calculatePendingRewards(to);\n\n\t\t// Set the new stakedBlock to the current,\n\t\t// as per Checks-Effects-Interactions pattern\n\t\t_lastUserRewardTimestamp[to] = block.timestamp;\n\n\t\t// mint uTokens only if reward is greater than zero\n\t\tif(_reward>0) {\n\t\t\t// Mint new uTokens and send to the callers account\n\t\t\t_uTokens.mint(to, _reward);\n\t\t\temit CalculateRewards(to, _reward, block.timestamp);\n\t\t}\n\n\t\treturn _reward;\n\t}\n\n\t/**\n     * @dev Calculate rewards for the provided 'address'\n     * @param to: account address\n     *\n     * Emits a {TriggeredCalculateRewards} event with 'to' set to address, 'reward' set to amount of tokens and 'timestamp'\n     *\n     */\n\tfunction calculateRewards(address to) public virtual override whenNotPaused returns (bool success) {\n\t\trequire(to == _msgSender(), \"ST5\");\n\t\tuint256 reward =  _calculateRewards(to);\n\t\temit TriggeredCalculateRewards(to, reward, block.timestamp);\n\t\treturn true;\n\t}\n\n\t/**\n     * @dev Calculate rewards for the provided 'holder address'\n     * @param to: holder address\n     */\n\tfunction _calculateHolderRewards(address to, address from, uint256 amount) internal returns (uint256){\n\t\t// holderContract and lpContract (lp token contract) need to be validated together because\n\t\t// it might not be practical to setup holder to collect reward pool but not StakeLP to distribute reward\n\t\t// since the reward distribution calculation starts the minute reward pool is created\n\t\trequire(_whitelistedAddresses.contains(to) && _holderContractAddress[to] != address(0) && _lpContractAddress[to] != address(0), \"ST6\");\n\t\tuint256 _sTokenSupply = IHolder(_holderContractAddress[to]).getSTokenSupply(to, from, amount);\n\n\t\t// calculate the reward applying the moving reward rate\n\t\tuint256 _newRewards = _calculatePendingRewards(_sTokenSupply, _lastHolderRewardTimestamp[to]);\n\n\t\t// update the last timestamp of reward pool to the current time as per Checks-Effects-Interactions pattern\n\t\t_lastHolderRewardTimestamp[to] = block.timestamp;\n\n\t\t// Mint new uTokens and send to the holder contract account as updated reward pool\n\t\tif(_newRewards > 0) {\n\t\t\t_uTokens.mint(_holderContractAddress[to], _newRewards);\n\t\t\temit CalculateHolderRewards(_holderContractAddress[to], _newRewards, block.timestamp);\n\t\t}\n\n\t\treturn _newRewards;\n\t}\n\n\t/**\n     * @dev Hook that is called before any transfer of tokens. This includes\n     * minting and burning.\n     *\n     * Calling conditions:\n     *\n     * - when `from` and `to` are both non-zero, `amount` of ``from``'s tokens\n     * will be to transferred to `to`.\n     * - when `from` is zero, `amount` tokens will be minted for `to`.\n     * - when `to` is zero, `amount` of ``from``'s tokens will be burned.\n     * - `from` and `to` are never both zero.\n     *\n     */\n\tfunction _beforeTokenTransfer(address from, address to, uint256 amount) internal virtual override {\n\t\trequire(!paused(), \"ST7\");\n\t\tsuper._beforeTokenTransfer(from, to, amount);\n\t\tif(from == address(0)){\n\t\t\t// cannot have a scenario of transfer from address(0) to address(0)\n\n\t\t\tif(!_whitelistedAddresses.contains(to)){\n\t\t\t\t_calculateRewards(to);\n\t\t\t}\n\t\t\telse {\n\t\t\t\t_calculateHolderRewards(to, from, amount);\n\t\t\t}\n\t\t}\n\n\t\tif(from != address(0) && !_whitelistedAddresses.contains(from)){\n\n\t\t\tif(to == address(0)){\n\t\t\t\t_calculateRewards(from);\n\t\t\t}\n\n\t\t\tif(to != address(0) && !_whitelistedAddresses.contains(to)){\n\t\t\t\t_calculateRewards(from);\n\t\t\t\t_calculateRewards(to);\n\t\t\t}\n\n\t\t\tif(to != address(0) && _whitelistedAddresses.contains(to)){\n\t\t\t\t_calculateRewards(from);\n\t\t\t\t_calculateHolderRewards(to, from, amount);\n\t\t\t}\n\n\t\t}\n\n\t\tif(from != address(0) && _whitelistedAddresses.contains(from)){\n\n\t\t\tif(to == address(0)){\n\t\t\t\t_calculateHolderRewards(from, to, amount);\n\t\t\t}\n\n\t\t\tif(to != address(0) && !_whitelistedAddresses.contains(to)){\n\t\t\t\t_calculateHolderRewards(from, to, amount);\n\t\t\t\t_calculateRewards(to);\n\t\t\t}\n\n\t\t\tif(to != address(0) && _whitelistedAddresses.contains(to)){\n\t\t\t\t_calculateHolderRewards(from, address(0), amount);\n\t\t\t\t_calculateHolderRewards(to, address(0), amount);\n\t\t\t}\n\n\t\t}\n\t}\n\n\t/*\n    * @dev Set 'whitelisted address', performed by admin only\n    * @param whitelistedAddress: contract address of the whitelisted party\n    *\n    * Emits a {setWhitelistedAddress} event\n    *\n    */\n\tfunction setWhitelistedAddress(address whitelistedAddress, address holderContractAddress, address lpContractAddress) public virtual returns (bool success){\n\t\trequire(hasRole(DEFAULT_ADMIN_ROLE, _msgSender()), \"ST8\");\n\t\t// lpTokenERC20ContractAddress or sTokenReserveContractAddress can be address(0) but not whitelistedAddress\n\t\trequire(whitelistedAddress != address(0), \"ST9\");\n\t\t// add the whitelistedAddress if it isn't already available\n\t\tif(!_whitelistedAddresses.contains(whitelistedAddress)) _whitelistedAddresses.add(whitelistedAddress);\n\t\t// add the contract addresses to holder mapping variable\n\t\t_holderContractAddress[whitelistedAddress] = holderContractAddress;\n\t\t_lpContractAddress[whitelistedAddress] = lpContractAddress;\n\n\t\temit SetWhitelistedAddress(whitelistedAddress, holderContractAddress, lpContractAddress, block.timestamp);\n\t\tsuccess = true;\n\t\treturn success;\n\t}\n\n\t/*\n  * @dev remove 'whitelisted address', performed by admin only\n  * @param whitelistedAddress: contract address of the whitelisted party\n  * @param holderContractAddress: holder contract address of the corresponding whitelistedAddress\n  *\n  * Emits a {RemoveWhitelistedAddress} event\n  *\n  */\n\tfunction removeWhitelistedAddress(address whitelistedAddress) public virtual returns (bool success){\n\t\trequire(hasRole(DEFAULT_ADMIN_ROLE, _msgSender()), \"ST10\");\n\t\trequire(whitelistedAddress != address(0), \"ST11\");\n\t\t// remove whitelistedAddress from the list\n\t\t_whitelistedAddresses.remove(whitelistedAddress);\n\t\taddress _holderContractAddressLocal = _holderContractAddress[whitelistedAddress];\n\t\taddress _lpContractAddressLocal = _lpContractAddress[whitelistedAddress];\n\n\t\t// delete holder contract values\n\t\tdelete _holderContractAddress[whitelistedAddress];\n\t\tdelete _lpContractAddress[whitelistedAddress];\n\n\t\temit RemoveWhitelistedAddress(whitelistedAddress, _holderContractAddressLocal, _lpContractAddressLocal, block.timestamp);\n\t\tsuccess = true;\n\t\treturn success;\n\t}\n\n\t/*\n    * @dev Set 'contract address', called from constructor\n    * @param uTokenContract: utoken contract address\n    *\n    * Emits a {SetUTokensContract} event with '_contract' set to the utoken contract address.\n    *\n    */\n\tfunction setUTokensContract(address uTokenContract) public virtual override {\n\t\trequire(hasRole(DEFAULT_ADMIN_ROLE, _msgSender()), \"ST12\");\n\t\t_uTokens = IUTokens(uTokenContract);\n\t\temit SetUTokensContract(uTokenContract);\n\t}\n\n\t/*\n     * @dev Set 'contract address', called from constructor\n     * @param liquidStakingContract: liquidStaking contract address\n     *\n     * Emits a {SetLiquidStakingContract} event with '_contract' set to the liquidStaking contract address.\n     *\n     */\n\tfunction setLiquidStakingContract(address liquidStakingContract) public virtual override{\n\t\trequire(hasRole(DEFAULT_ADMIN_ROLE, _msgSender()), \"ST13\");\n\t\t_liquidStakingContract = liquidStakingContract;\n\t\temit SetLiquidStakingContract(liquidStakingContract);\n\t}\n\n\t/**\n      * @dev Triggers stopped state.\n      *\n      * Requirements:\n      *\n      * - The contract must not be paused.\n      */\n\tfunction pause() public virtual returns (bool success) {\n\t\trequire(hasRole(PAUSER_ROLE, _msgSender()), \"ST14\");\n\t\t_pause();\n\t\treturn true;\n\t}\n\n\t/**\n     * @dev Returns to normal state.\n     *\n     * Requirements:\n     *\n     * - The contract must be paused.\n     */\n\tfunction unpause() public virtual returns (bool success) {\n\t\trequire(hasRole(PAUSER_ROLE, _msgSender()), \"ST15\");\n\t\t_unpause();\n\t\treturn true;\n\t}\n}",
  "sourcePath": "C:\\Users\\Kamlesh\\Persistence\\pStake\\codebase\\pStake-smartContracts\\contracts\\STokens.sol",
  "compiler": {
    "name": "solc",
    "version": "0.7.6+commit.7338295f.Emscripten.clang"
  },
  "schemaVersion": "3.4.3",
  "updatedAt": "2022-03-20T15:00:13.114Z",
  "devdoc": {
    "kind": "dev",
    "methods": {
      "allowance(address,address)": {
        "details": "See {IERC20-allowance}."
      },
      "approve(address,uint256)": {
        "details": "See {IERC20-approve}. Requirements: - `spender` cannot be the zero address."
      },
      "balanceOf(address)": {
        "details": "See {IERC20-balanceOf}."
      },
      "burn(address,uint256)": {
        "details": "Burns `amount` tokens to the caller's address `from`. Returns a boolean value indicating whether the operation succeeded. Emits a {Transfer} event."
      },
      "calculatePendingRewards(address)": {
        "details": "Calculate pending rewards for the provided 'address'. The rate is the moving reward rate.",
        "params": {
          "to": ": account address"
        }
      },
      "calculateRewards(address)": {
        "details": "Calculate rewards for the provided 'address'",
        "params": {
          "to": ": account address Emits a {TriggeredCalculateRewards} event with 'to' set to address, 'reward' set to amount of tokens and 'timestamp'"
        }
      },
      "decimals()": {
        "details": "Returns the number of decimals used to get its user representation. For example, if `decimals` equals `2`, a balance of `505` tokens should be displayed to a user as `5,05` (`505 / 10 ** 2`). Tokens usually opt for a value of 18, imitating the relationship between Ether and Wei. This is the value {ERC20} uses, unless {_setupDecimals} is called. NOTE: This information is only used for _display_ purposes: it in no way affects any of the arithmetic of the contract, including {IERC20-balanceOf} and {IERC20-transfer}."
      },
      "decreaseAllowance(address,uint256)": {
        "details": "Atomically decreases the allowance granted to `spender` by the caller. This is an alternative to {approve} that can be used as a mitigation for problems described in {IERC20-approve}. Emits an {Approval} event indicating the updated allowance. Requirements: - `spender` cannot be the zero address. - `spender` must have allowance for the caller of at least `subtractedValue`."
      },
      "getHolderData(address)": {
        "details": "Calculate pending rewards for the provided 'address'. The rate is the moving reward rate.",
        "params": {
          "whitelistedAddress": ": contract address"
        }
      },
      "getLastUserRewardTimestamp(address)": {
        "details": "get rewards till timestamp",
        "params": {
          "to": ": account address"
        }
      },
      "getRewardRate()": {
        "details": "get reward rate and value divisor"
      },
      "getRoleAdmin(bytes32)": {
        "details": "Returns the admin role that controls `role`. See {grantRole} and {revokeRole}. To change a role's admin, use {_setRoleAdmin}."
      },
      "getRoleMember(bytes32,uint256)": {
        "details": "Returns one of the accounts that have `role`. `index` must be a value between 0 and {getRoleMemberCount}, non-inclusive. Role bearers are not sorted in any particular way, and their ordering may change at any point. WARNING: When using {getRoleMember} and {getRoleMemberCount}, make sure you perform all queries on the same block. See the following https://forum.openzeppelin.com/t/iterating-over-elements-on-enumerableset-in-openzeppelin-contracts/2296[forum post] for more information."
      },
      "getRoleMemberCount(bytes32)": {
        "details": "Returns the number of accounts that have `role`. Can be used together with {getRoleMember} to enumerate all bearers of a role."
      },
      "grantRole(bytes32,address)": {
        "details": "Grants `role` to `account`. If `account` had not been already granted `role`, emits a {RoleGranted} event. Requirements: - the caller must have ``role``'s admin role."
      },
      "hasRole(bytes32,address)": {
        "details": "Returns `true` if `account` has been granted `role`."
      },
      "increaseAllowance(address,uint256)": {
        "details": "Atomically increases the allowance granted to `spender` by the caller. This is an alternative to {approve} that can be used as a mitigation for problems described in {IERC20-approve}. Emits an {Approval} event indicating the updated allowance. Requirements: - `spender` cannot be the zero address."
      },
      "initialize(address,address,uint256,uint256)": {
        "details": "Constructor for initializing the SToken contract.",
        "params": {
          "pauserAddress": "- address of the pauser admin.",
          "rewardRate": "- set to rewardRate * 10^-5",
          "uaddress": "- address of the UToken contract.",
          "valueDivisor": "- valueDivisor set to 10^9."
        }
      },
      "isContractWhitelisted(address)": {
        "details": "Calculate pending rewards for the provided 'address'. The rate is the moving reward rate.",
        "params": {
          "lpContractAddress": ": contract address"
        }
      },
      "mint(address,uint256)": {
        "details": "Mint new stokens for the provided 'address' and 'tokens'",
        "params": {
          "to": ": account address, tokens: number of tokens Emits a {MintTokens} event with 'to' set to address and 'tokens' set to amount of tokens. Requirements: - `amount` cannot be less than zero."
        }
      },
      "name()": {
        "details": "Returns the name of the token."
      },
      "pause()": {
        "details": "Triggers stopped state. Requirements: - The contract must not be paused."
      },
      "paused()": {
        "details": "Returns true if the contract is paused, and false otherwise."
      },
      "renounceRole(bytes32,address)": {
        "details": "Revokes `role` from the calling account. Roles are often managed via {grantRole} and {revokeRole}: this function's purpose is to provide a mechanism for accounts to lose their privileges if they are compromised (such as when a trusted device is misplaced). If the calling account had been granted `role`, emits a {RoleRevoked} event. Requirements: - the caller must be `account`."
      },
      "revokeRole(bytes32,address)": {
        "details": "Revokes `role` from `account`. If `account` had been granted `role`, emits a {RoleRevoked} event. Requirements: - the caller must have ``role``'s admin role."
      },
      "setLiquidStakingContract(address)": {
        "details": "Set LiquidStaking smart contract."
      },
      "setRewardRate(uint256)": {
        "details": "Sets `reward rate`. Returns a boolean value indicating whether the operation succeeded."
      },
      "setUTokensContract(address)": {
        "details": "Set UTokens smart contract. Emits a {SetContract} event."
      },
      "symbol()": {
        "details": "Returns the symbol of the token, usually a shorter version of the name."
      },
      "totalSupply()": {
        "details": "See {IERC20-totalSupply}."
      },
      "transfer(address,uint256)": {
        "details": "See {IERC20-transfer}. Requirements: - `recipient` cannot be the zero address. - the caller must have a balance of at least `amount`."
      },
      "transferFrom(address,address,uint256)": {
        "details": "See {IERC20-transferFrom}. Emits an {Approval} event indicating the updated allowance. This is not required by the EIP. See the note at the beginning of {ERC20}. Requirements: - `sender` and `recipient` cannot be the zero address. - `sender` must have a balance of at least `amount`. - the caller must have allowance for ``sender``'s tokens of at least `amount`."
      },
      "unpause()": {
        "details": "Returns to normal state. Requirements: - The contract must be paused."
      }
    },
    "version": 1
  },
  "userdoc": {
    "kind": "user",
    "methods": {},
    "version": 1
  }
}