{
  "contractName": "STokens",
  "abi": [
    {
      "anonymous": false,
      "inputs": [
        {
          "indexed": true,
          "internalType": "address",
          "name": "owner",
          "type": "address"
        },
        {
          "indexed": true,
          "internalType": "address",
          "name": "spender",
          "type": "address"
        },
        {
          "indexed": false,
          "internalType": "uint256",
          "name": "value",
          "type": "uint256"
        }
      ],
      "name": "Approval",
      "type": "event"
    },
    {
      "anonymous": false,
      "inputs": [
        {
          "indexed": true,
          "internalType": "address",
          "name": "accountAddress",
          "type": "address"
        },
        {
          "indexed": false,
          "internalType": "uint256",
          "name": "tokens",
          "type": "uint256"
        },
        {
          "indexed": false,
          "internalType": "uint256",
          "name": "timestamp",
          "type": "uint256"
        }
      ],
      "name": "CalculateRewards",
      "type": "event"
    },
    {
      "anonymous": false,
      "inputs": [
        {
          "indexed": true,
          "internalType": "address",
          "name": "whitelistedAddress",
          "type": "address"
        },
        {
          "indexed": true,
          "internalType": "address",
          "name": "accountAddress",
          "type": "address"
        },
        {
          "indexed": false,
          "internalType": "uint256",
          "name": "timestamp",
          "type": "uint256"
        }
      ],
      "name": "GenerateHolderRewards",
      "type": "event"
    },
    {
      "anonymous": false,
      "inputs": [
        {
          "indexed": false,
          "internalType": "address",
          "name": "account",
          "type": "address"
        }
      ],
      "name": "Paused",
      "type": "event"
    },
    {
      "anonymous": false,
      "inputs": [
        {
          "indexed": true,
          "internalType": "address",
          "name": "whitelistedAddress",
          "type": "address"
        },
        {
          "indexed": false,
          "internalType": "address",
          "name": "holderContractAddress",
          "type": "address"
        },
        {
          "indexed": true,
          "internalType": "address",
          "name": "lpTokenERC20ContractAddress",
          "type": "address"
        },
        {
          "indexed": true,
          "internalType": "address",
          "name": "sTokenReserveContractAddress",
          "type": "address"
        },
        {
          "indexed": false,
          "internalType": "bytes4",
          "name": "lpTokenBalanceFuncSig",
          "type": "bytes4"
        },
        {
          "indexed": false,
          "internalType": "bytes4",
          "name": "lpTokenSupplyFuncSig",
          "type": "bytes4"
        },
        {
          "indexed": false,
          "internalType": "bytes4",
          "name": "sTokenSupplyFuncSig",
          "type": "bytes4"
        },
        {
          "indexed": false,
          "internalType": "uint256",
          "name": "timestamp",
          "type": "uint256"
        }
      ],
      "name": "RemoveWhitelistedAddress",
      "type": "event"
    },
    {
      "anonymous": false,
      "inputs": [
        {
          "indexed": true,
          "internalType": "bytes32",
          "name": "role",
          "type": "bytes32"
        },
        {
          "indexed": true,
          "internalType": "bytes32",
          "name": "previousAdminRole",
          "type": "bytes32"
        },
        {
          "indexed": true,
          "internalType": "bytes32",
          "name": "newAdminRole",
          "type": "bytes32"
        }
      ],
      "name": "RoleAdminChanged",
      "type": "event"
    },
    {
      "anonymous": false,
      "inputs": [
        {
          "indexed": true,
          "internalType": "bytes32",
          "name": "role",
          "type": "bytes32"
        },
        {
          "indexed": true,
          "internalType": "address",
          "name": "account",
          "type": "address"
        },
        {
          "indexed": true,
          "internalType": "address",
          "name": "sender",
          "type": "address"
        }
      ],
      "name": "RoleGranted",
      "type": "event"
    },
    {
      "anonymous": false,
      "inputs": [
        {
          "indexed": true,
          "internalType": "bytes32",
          "name": "role",
          "type": "bytes32"
        },
        {
          "indexed": true,
          "internalType": "address",
          "name": "account",
          "type": "address"
        },
        {
          "indexed": true,
          "internalType": "address",
          "name": "sender",
          "type": "address"
        }
      ],
      "name": "RoleRevoked",
      "type": "event"
    },
    {
      "anonymous": false,
      "inputs": [
        {
          "indexed": true,
          "internalType": "address",
          "name": "_contract",
          "type": "address"
        }
      ],
      "name": "SetLiquidStakingContract",
      "type": "event"
    },
    {
      "anonymous": false,
      "inputs": [
        {
          "indexed": true,
          "internalType": "address",
          "name": "_contract",
          "type": "address"
        }
      ],
      "name": "SetUTokensContract",
      "type": "event"
    },
    {
      "anonymous": false,
      "inputs": [
        {
          "indexed": true,
          "internalType": "address",
          "name": "from",
          "type": "address"
        },
        {
          "indexed": true,
          "internalType": "address",
          "name": "to",
          "type": "address"
        },
        {
          "indexed": false,
          "internalType": "uint256",
          "name": "value",
          "type": "uint256"
        }
      ],
      "name": "Transfer",
      "type": "event"
    },
    {
      "anonymous": false,
      "inputs": [
        {
          "indexed": true,
          "internalType": "address",
          "name": "accountAddress",
          "type": "address"
        },
        {
          "indexed": false,
          "internalType": "uint256",
          "name": "tokens",
          "type": "uint256"
        },
        {
          "indexed": false,
          "internalType": "uint256",
          "name": "timestamp",
          "type": "uint256"
        }
      ],
      "name": "TriggeredCalculateRewards",
      "type": "event"
    },
    {
      "anonymous": false,
      "inputs": [
        {
          "indexed": false,
          "internalType": "address",
          "name": "account",
          "type": "address"
        }
      ],
      "name": "Unpaused",
      "type": "event"
    },
    {
      "anonymous": false,
      "inputs": [
        {
          "indexed": true,
          "internalType": "address",
          "name": "whitelistedAddress",
          "type": "address"
        },
        {
          "indexed": false,
          "internalType": "address",
          "name": "holderContractAddress",
          "type": "address"
        },
        {
          "indexed": true,
          "internalType": "address",
          "name": "lpTokenERC20ContractAddress",
          "type": "address"
        },
        {
          "indexed": true,
          "internalType": "address",
          "name": "sTokenReserveContractAddress",
          "type": "address"
        },
        {
          "indexed": false,
          "internalType": "bytes4",
          "name": "lpTokenBalanceFuncSig",
          "type": "bytes4"
        },
        {
          "indexed": false,
          "internalType": "bytes4",
          "name": "lpTokenSupplyFuncSig",
          "type": "bytes4"
        },
        {
          "indexed": false,
          "internalType": "bytes4",
          "name": "sTokenSupplyFuncSig",
          "type": "bytes4"
        },
        {
          "indexed": false,
          "internalType": "uint256",
          "name": "timestamp",
          "type": "uint256"
        }
      ],
      "name": "UpdateWhitelistedAddress",
      "type": "event"
    },
    {
      "inputs": [],
      "name": "DEFAULT_ADMIN_ROLE",
      "outputs": [
        {
          "internalType": "bytes32",
          "name": "",
          "type": "bytes32"
        }
      ],
      "stateMutability": "view",
      "type": "function",
      "constant": true
    },
    {
      "inputs": [],
      "name": "PAUSER_ROLE",
      "outputs": [
        {
          "internalType": "bytes32",
          "name": "",
          "type": "bytes32"
        }
      ],
      "stateMutability": "view",
      "type": "function",
      "constant": true
    },
    {
      "inputs": [
        {
          "internalType": "address",
          "name": "owner",
          "type": "address"
        },
        {
          "internalType": "address",
          "name": "spender",
          "type": "address"
        }
      ],
      "name": "allowance",
      "outputs": [
        {
          "internalType": "uint256",
          "name": "",
          "type": "uint256"
        }
      ],
      "stateMutability": "view",
      "type": "function",
      "constant": true
    },
    {
      "inputs": [
        {
          "internalType": "address",
          "name": "spender",
          "type": "address"
        },
        {
          "internalType": "uint256",
          "name": "amount",
          "type": "uint256"
        }
      ],
      "name": "approve",
      "outputs": [
        {
          "internalType": "bool",
          "name": "",
          "type": "bool"
        }
      ],
      "stateMutability": "nonpayable",
      "type": "function"
    },
    {
      "inputs": [
        {
          "internalType": "address",
          "name": "account",
          "type": "address"
        }
      ],
      "name": "balanceOf",
      "outputs": [
        {
          "internalType": "uint256",
          "name": "",
          "type": "uint256"
        }
      ],
      "stateMutability": "view",
      "type": "function",
      "constant": true
    },
    {
      "inputs": [],
      "name": "decimals",
      "outputs": [
        {
          "internalType": "uint8",
          "name": "",
          "type": "uint8"
        }
      ],
      "stateMutability": "view",
      "type": "function",
      "constant": true
    },
    {
      "inputs": [
        {
          "internalType": "address",
          "name": "spender",
          "type": "address"
        },
        {
          "internalType": "uint256",
          "name": "subtractedValue",
          "type": "uint256"
        }
      ],
      "name": "decreaseAllowance",
      "outputs": [
        {
          "internalType": "bool",
          "name": "",
          "type": "bool"
        }
      ],
      "stateMutability": "nonpayable",
      "type": "function"
    },
    {
      "inputs": [
        {
          "internalType": "bytes32",
          "name": "role",
          "type": "bytes32"
        }
      ],
      "name": "getRoleAdmin",
      "outputs": [
        {
          "internalType": "bytes32",
          "name": "",
          "type": "bytes32"
        }
      ],
      "stateMutability": "view",
      "type": "function",
      "constant": true
    },
    {
      "inputs": [
        {
          "internalType": "bytes32",
          "name": "role",
          "type": "bytes32"
        },
        {
          "internalType": "uint256",
          "name": "index",
          "type": "uint256"
        }
      ],
      "name": "getRoleMember",
      "outputs": [
        {
          "internalType": "address",
          "name": "",
          "type": "address"
        }
      ],
      "stateMutability": "view",
      "type": "function",
      "constant": true
    },
    {
      "inputs": [
        {
          "internalType": "bytes32",
          "name": "role",
          "type": "bytes32"
        }
      ],
      "name": "getRoleMemberCount",
      "outputs": [
        {
          "internalType": "uint256",
          "name": "",
          "type": "uint256"
        }
      ],
      "stateMutability": "view",
      "type": "function",
      "constant": true
    },
    {
      "inputs": [
        {
          "internalType": "bytes32",
          "name": "role",
          "type": "bytes32"
        },
        {
          "internalType": "address",
          "name": "account",
          "type": "address"
        }
      ],
      "name": "grantRole",
      "outputs": [],
      "stateMutability": "nonpayable",
      "type": "function"
    },
    {
      "inputs": [
        {
          "internalType": "bytes32",
          "name": "role",
          "type": "bytes32"
        },
        {
          "internalType": "address",
          "name": "account",
          "type": "address"
        }
      ],
      "name": "hasRole",
      "outputs": [
        {
          "internalType": "bool",
          "name": "",
          "type": "bool"
        }
      ],
      "stateMutability": "view",
      "type": "function",
      "constant": true
    },
    {
      "inputs": [
        {
          "internalType": "address",
          "name": "spender",
          "type": "address"
        },
        {
          "internalType": "uint256",
          "name": "addedValue",
          "type": "uint256"
        }
      ],
      "name": "increaseAllowance",
      "outputs": [
        {
          "internalType": "bool",
          "name": "",
          "type": "bool"
        }
      ],
      "stateMutability": "nonpayable",
      "type": "function"
    },
    {
      "inputs": [],
      "name": "name",
      "outputs": [
        {
          "internalType": "string",
          "name": "",
          "type": "string"
        }
      ],
      "stateMutability": "view",
      "type": "function",
      "constant": true
    },
    {
      "inputs": [],
      "name": "paused",
      "outputs": [
        {
          "internalType": "bool",
          "name": "",
          "type": "bool"
        }
      ],
      "stateMutability": "view",
      "type": "function",
      "constant": true
    },
    {
      "inputs": [
        {
          "internalType": "bytes32",
          "name": "role",
          "type": "bytes32"
        },
        {
          "internalType": "address",
          "name": "account",
          "type": "address"
        }
      ],
      "name": "renounceRole",
      "outputs": [],
      "stateMutability": "nonpayable",
      "type": "function"
    },
    {
      "inputs": [
        {
          "internalType": "bytes32",
          "name": "role",
          "type": "bytes32"
        },
        {
          "internalType": "address",
          "name": "account",
          "type": "address"
        }
      ],
      "name": "revokeRole",
      "outputs": [],
      "stateMutability": "nonpayable",
      "type": "function"
    },
    {
      "inputs": [],
      "name": "symbol",
      "outputs": [
        {
          "internalType": "string",
          "name": "",
          "type": "string"
        }
      ],
      "stateMutability": "view",
      "type": "function",
      "constant": true
    },
    {
      "inputs": [],
      "name": "totalSupply",
      "outputs": [
        {
          "internalType": "uint256",
          "name": "",
          "type": "uint256"
        }
      ],
      "stateMutability": "view",
      "type": "function",
      "constant": true
    },
    {
      "inputs": [
        {
          "internalType": "address",
          "name": "recipient",
          "type": "address"
        },
        {
          "internalType": "uint256",
          "name": "amount",
          "type": "uint256"
        }
      ],
      "name": "transfer",
      "outputs": [
        {
          "internalType": "bool",
          "name": "",
          "type": "bool"
        }
      ],
      "stateMutability": "nonpayable",
      "type": "function"
    },
    {
      "inputs": [
        {
          "internalType": "address",
          "name": "sender",
          "type": "address"
        },
        {
          "internalType": "address",
          "name": "recipient",
          "type": "address"
        },
        {
          "internalType": "uint256",
          "name": "amount",
          "type": "uint256"
        }
      ],
      "name": "transferFrom",
      "outputs": [
        {
          "internalType": "bool",
          "name": "",
          "type": "bool"
        }
      ],
      "stateMutability": "nonpayable",
      "type": "function"
    },
    {
      "inputs": [
        {
          "internalType": "address",
          "name": "uaddress",
          "type": "address"
        },
        {
          "internalType": "address",
          "name": "pauserAddress",
          "type": "address"
        },
        {
          "internalType": "uint256",
          "name": "rewardRate",
          "type": "uint256"
        },
        {
          "internalType": "uint256",
          "name": "valueDivisor",
          "type": "uint256"
        }
      ],
      "name": "initialize",
      "outputs": [],
      "stateMutability": "nonpayable",
      "type": "function"
    },
    {
      "inputs": [
        {
          "internalType": "uint256",
          "name": "rewardRate",
          "type": "uint256"
        }
      ],
      "name": "setRewardRate",
      "outputs": [
        {
          "internalType": "bool",
          "name": "success",
          "type": "bool"
        }
      ],
      "stateMutability": "nonpayable",
      "type": "function"
    },
    {
      "inputs": [],
      "name": "getRewardRate",
      "outputs": [
        {
          "internalType": "uint256[]",
          "name": "rewardRate",
          "type": "uint256[]"
        },
        {
          "internalType": "uint256",
          "name": "valueDivisor",
          "type": "uint256"
        }
      ],
      "stateMutability": "view",
      "type": "function",
      "constant": true
    },
    {
      "inputs": [
        {
          "internalType": "address",
          "name": "to",
          "type": "address"
        }
      ],
      "name": "getRewardsTillTimestamp",
      "outputs": [
        {
          "internalType": "uint256",
          "name": "rewardsTillTimestamp",
          "type": "uint256"
        }
      ],
      "stateMutability": "view",
      "type": "function",
      "constant": true
    },
    {
      "inputs": [
        {
          "internalType": "address",
          "name": "to",
          "type": "address"
        },
        {
          "internalType": "uint256",
          "name": "tokens",
          "type": "uint256"
        }
      ],
      "name": "mint",
      "outputs": [
        {
          "internalType": "bool",
          "name": "success",
          "type": "bool"
        }
      ],
      "stateMutability": "nonpayable",
      "type": "function"
    },
    {
      "inputs": [
        {
          "internalType": "address",
          "name": "from",
          "type": "address"
        },
        {
          "internalType": "uint256",
          "name": "tokens",
          "type": "uint256"
        }
      ],
      "name": "burn",
      "outputs": [
        {
          "internalType": "bool",
          "name": "success",
          "type": "bool"
        }
      ],
      "stateMutability": "nonpayable",
      "type": "function"
    },
    {
      "inputs": [
        {
          "internalType": "address",
          "name": "to",
          "type": "address"
        }
      ],
      "name": "calculateRewards",
      "outputs": [
        {
          "internalType": "bool",
          "name": "success",
          "type": "bool"
        }
      ],
      "stateMutability": "nonpayable",
      "type": "function"
    },
    {
      "inputs": [
        {
          "internalType": "address",
          "name": "to",
          "type": "address"
        }
      ],
      "name": "calculatePendingRewards",
      "outputs": [
        {
          "internalType": "uint256",
          "name": "pendingRewards",
          "type": "uint256"
        }
      ],
      "stateMutability": "view",
      "type": "function",
      "constant": true
    },
    {
      "inputs": [
        {
          "internalType": "address",
          "name": "whitelistedAddress",
          "type": "address"
        },
        {
          "internalType": "address",
          "name": "userAddress",
          "type": "address"
        },
        {
          "internalType": "uint256",
          "name": "lpTokenBalance",
          "type": "uint256"
        },
        {
          "internalType": "uint256",
          "name": "lpTokenSupply",
          "type": "uint256"
        }
      ],
      "name": "getLPTimeShares",
      "outputs": [
        {
          "internalType": "uint256",
          "name": "lpBalanceTimeShare",
          "type": "uint256"
        },
        {
          "internalType": "uint256",
          "name": "lpTotalSupplyTimeShare",
          "type": "uint256"
        }
      ],
      "stateMutability": "view",
      "type": "function",
      "constant": true
    },
    {
      "inputs": [
        {
          "internalType": "address",
          "name": "whitelistedAddress",
          "type": "address"
        },
        {
          "internalType": "address",
          "name": "userAddress",
          "type": "address"
        }
      ],
      "name": "getHolderAttributes",
      "outputs": [
        {
          "internalType": "uint256",
          "name": "lpBalance",
          "type": "uint256"
        },
        {
          "internalType": "uint256",
          "name": "lpSupply",
          "type": "uint256"
        },
        {
          "internalType": "uint256",
          "name": "sTokenSupply",
          "type": "uint256"
        }
      ],
      "stateMutability": "view",
      "type": "function",
      "constant": true
    },
    {
      "inputs": [
        {
          "internalType": "address",
          "name": "whitelistedAddress",
          "type": "address"
        },
        {
          "internalType": "address",
          "name": "holderContractAddress",
          "type": "address"
        },
        {
          "internalType": "address",
          "name": "lpTokenERC20ContractAddress",
          "type": "address"
        },
        {
          "internalType": "address",
          "name": "sTokenReserveContractAddress",
          "type": "address"
        },
        {
          "internalType": "bytes4",
          "name": "lpTokenBalanceFuncSig",
          "type": "bytes4"
        },
        {
          "internalType": "bytes4",
          "name": "lpTokenSupplyFuncSig",
          "type": "bytes4"
        },
        {
          "internalType": "bytes4",
          "name": "sTokenSupplyFuncSig",
          "type": "bytes4"
        }
      ],
      "name": "updateWhitelistedAddress",
      "outputs": [
        {
          "internalType": "bool",
          "name": "success",
          "type": "bool"
        }
      ],
      "stateMutability": "nonpayable",
      "type": "function"
    },
    {
      "inputs": [
        {
          "internalType": "address",
          "name": "whitelistedAddress",
          "type": "address"
        }
      ],
      "name": "removeWhitelistedAddress",
      "outputs": [
        {
          "internalType": "bool",
          "name": "success",
          "type": "bool"
        }
      ],
      "stateMutability": "nonpayable",
      "type": "function"
    },
    {
      "inputs": [
        {
          "internalType": "address",
          "name": "uTokenContract",
          "type": "address"
        }
      ],
      "name": "setUTokensContract",
      "outputs": [],
      "stateMutability": "nonpayable",
      "type": "function"
    },
    {
      "inputs": [
        {
          "internalType": "address",
          "name": "liquidStakingContract",
          "type": "address"
        }
      ],
      "name": "setLiquidStakingContract",
      "outputs": [],
      "stateMutability": "nonpayable",
      "type": "function"
    },
    {
      "inputs": [],
      "name": "pause",
      "outputs": [
        {
          "internalType": "bool",
          "name": "success",
          "type": "bool"
        }
      ],
      "stateMutability": "nonpayable",
      "type": "function"
    },
    {
      "inputs": [],
      "name": "unpause",
      "outputs": [
        {
          "internalType": "bool",
          "name": "success",
          "type": "bool"
        }
      ],
      "stateMutability": "nonpayable",
      "type": "function"
    }
  ],
  "bytecode": "0x608060405234801561001057600080fd5b50613805806100206000396000f3fe608060405234801561001057600080fd5b50600436106102275760003560e01c806370a0823111610130578063a457c2d7116100b8578063d547741f1161007c578063d547741f146107c1578063dd62ed3e146107ed578063e1e562a21461081b578063e63ab1e914610841578063eb990c591461084957610227565b8063a457c2d714610695578063a9059cbb146106c1578063abee03e0146106ed578063c1335f3214610742578063ca15c873146107a457610227565b806391d14854116100ff57806391d148541461061057806395d89b411461063c5780639dc29fac146106445780639e447fc614610670578063a217fddf1461068d57610227565b806370a08231146105405780637e1a3786146105665780638456cb59146105c95780639010d07c146105d157610227565b8063313ce567116101b357806340c10f191161018257806340c10f191461049a578063530cd5ab146104c657806358f8943e146104ec5780635c975abb1461051257806364ab86751461051a57610227565b8063313ce5671461041c57806336568abe1461043a57806339509351146104665780633f4ba83a1461049257610227565b806318160ddd116101fa57806318160ddd1461036d57806321bdf9e51461037557806323b872dd1461039d578063248a9ca3146103d35780632f2ff15d146103f057610227565b806306fdde031461022c578063095ea7b3146102a9578063097aad10146102e957806315a94b2a14610321575b600080fd5b610234610885565b6040805160208082528351818301528351919283929083019185019080838360005b8381101561026e578181015183820152602001610256565b50505050905090810190601f16801561029b5780820380516001836020036101000a031916815260200191505b509250505060405180910390f35b6102d5600480360360408110156102bf57600080fd5b506001600160a01b03813516906020013561091b565b604080519115158252519081900360200190f35b61030f600480360360208110156102ff57600080fd5b50356001600160a01b0316610939565b60408051918252519081900360200190f35b61034f6004803603604081101561033757600080fd5b506001600160a01b0381358116916020013516610970565b60408051938452602084019290925282820152519081900360600190f35b61030f610d34565b61039b6004803603602081101561038b57600080fd5b50356001600160a01b0316610d3a565b005b6102d5600480360360608110156103b357600080fd5b506001600160a01b03813581169160208101359091169060400135610dd1565b61030f600480360360208110156103e957600080fd5b5035610e58565b61039b6004803603604081101561040657600080fd5b50803590602001356001600160a01b0316610e6d565b610424610ed4565b6040805160ff9092168252519081900360200190f35b61039b6004803603604081101561045057600080fd5b50803590602001356001600160a01b0316610edd565b6102d56004803603604081101561047c57600080fd5b506001600160a01b038135169060200135610f3e565b6102d5610f8c565b6102d5600480360360408110156104b057600080fd5b506001600160a01b038135169060200135610ff1565b6102d5600480360360208110156104dc57600080fd5b50356001600160a01b031661106a565b61039b6004803603602081101561050257600080fd5b50356001600160a01b0316611219565b6102d56112ab565b6102d56004803603602081101561053057600080fd5b50356001600160a01b03166112b4565b61030f6004803603602081101561055657600080fd5b50356001600160a01b03166113b6565b61056e6113d1565b6040518080602001838152602001828103825284818151815260200191508051906020019060200280838360005b838110156105b457818101518382015260200161059c565b50505050905001935050505060405180910390f35b6102d5611431565b6105f4600480360360408110156105e757600080fd5b5080359060200135611490565b604080516001600160a01b039092168252519081900360200190f35b6102d56004803603604081101561062657600080fd5b50803590602001356001600160a01b03166114af565b6102346114c7565b6102d56004803603604081101561065a57600080fd5b506001600160a01b038135169060200135611528565b6102d56004803603602081101561068657600080fd5b50356115a1565b61030f611694565b6102d5600480360360408110156106ab57600080fd5b506001600160a01b038135169060200135611699565b6102d5600480360360408110156106d757600080fd5b506001600160a01b038135169060200135611701565b6107296004803603608081101561070357600080fd5b506001600160a01b03813581169160208101359091169060408101359060600135611715565b6040805192835260208301919091528051918290030190f35b6102d5600480360360e081101561075857600080fd5b506001600160a01b038135811691602081013582169160408201358116916060810135909116906001600160e01b0319608082013581169160a081013582169160c090910135166117ee565b61030f600480360360208110156107ba57600080fd5b50356119b6565b61039b600480360360408110156107d757600080fd5b50803590602001356001600160a01b03166119cd565b61030f6004803603604081101561080357600080fd5b506001600160a01b0381358116916020013516611a26565b61030f6004803603602081101561083157600080fd5b50356001600160a01b0316611a51565b61030f611a6c565b61039b6004803603608081101561085f57600080fd5b506001600160a01b03813581169160208101359091169060408101359060600135611a7e565b60368054604080516020601f60026000196101006001881615020190951694909404938401819004810282018101909252828152606093909290918301828280156109115780601f106108e657610100808354040283529160200191610911565b820191906000526020600020905b8154815290600101906020018083116108f457829003601f168201915b5050505050905090565b600061092f610928611c2d565b8484611c31565b5060015b92915050565b6001600160a01b038116600090815260d760205260408120548161095c846113b6565b90506109688183611d1d565b949350505050565b6001600160a01b03828116600081815260cb60209081526040808320600181015460029091015460cc845282852054835160248082019890985284518082039098018852604401845293860180516001600160e01b03166001600160e01b0319600160401b870460e090811b9182169290921783529451885197998a998a9996821698959091169685841b9664010000000090960490931b9492938993849389939290918291908083835b60208310610a3a5780518252601f199092019160209182019101610a1b565b6001836020036101000a038019825116818451168082178552505050505050905001915050600060405180830381855afa9150503d8060008114610a9a576040519150601f19603f3d011682016040523d82523d6000602084013e610a9f565b606091505b5091509150818015610ab357506020815110155b610abc57600080fd5b808060200190516020811015610ad157600080fd5b505197506001600160a01b038b1615610c0257604080516001600160a01b038d811660248084019190915283518084039091018152604490920183526020820180516001600160e01b03166001600160e01b03198a16178152925182516000948594938d169392918291908083835b60208310610b5f5780518252601f199092019160209182019101610b40565b6001836020036101000a038019825116818451168082178552505050505050905001915050600060405180830381855afa9150503d8060008114610bbf576040519150601f19603f3d011682016040523d82523d6000602084013e610bc4565b606091505b5091509150818015610bd857506020815110155b610be157600080fd5b808060200190516020811015610bf657600080fd5b50519b50610c07915050565b600099505b6001600160a01b038b1615610d215760408051600481526024810182526020810180516001600160e01b03166001600160e01b031988161781529151815160009384936001600160a01b038d16939092909182918083835b60208310610c7e5780518252601f199092019160209182019101610c5f565b6001836020036101000a038019825116818451168082178552505050505050905001915050600060405180830381855afa9150503d8060008114610cde576040519150601f19603f3d011682016040523d82523d6000602084013e610ce3565b606091505b5091509150818015610cf757506020815110155b610d0057600080fd5b808060200190516020811015610d1557600080fd5b50519a50610d26915050565b600098505b505050505050509250925092565b60355490565b610d4c6000610d47611c2d565b6114af565b610d875760405162461bcd60e51b815260040180806020018281038252603b815260200180613670603b913960400191505060405180910390fd5b60d380546001600160a01b0319166001600160a01b0383169081179091556040517ff745c285f36f88bea6af14d4d0f33dd9350cef7895216c1615b1caaee7857e0c90600090a250565b6000610dde848484611f01565b610e4e84610dea611c2d565b610e49856040518060600160405280602881526020016135fc602891396001600160a01b038a16600090815260346020526040812090610e28611c2d565b6001600160a01b03168152602081019190915260400160002054919061205e565b611c31565b5060019392505050565b60009081526097602052604090206002015490565b600082815260976020526040902060020154610e8b90610d47611c2d565b610ec65760405162461bcd60e51b815260040180806020018281038252602f81526020018061337f602f913960400191505060405180910390fd5b610ed082826120f5565b5050565b60385460ff1690565b610ee5611c2d565b6001600160a01b0316816001600160a01b031614610f345760405162461bcd60e51b815260040180806020018281038252602f8152602001806137a1602f913960400191505060405180910390fd5b610ed0828261215e565b600061092f610f4b611c2d565b84610e498560346000610f5c611c2d565b6001600160a01b03908116825260208083019390935260409182016000908120918c1681529252902054906121c7565b6000610fa8600080516020613624833981519152610d47611c2d565b610fe35760405162461bcd60e51b81526004018080602001828103825260328152602001806133f26032913960400191505060405180910390fd5b610feb612221565b50600190565b6000326001600160a01b038416148015611025575060d2546001600160a01b031661101a611c2d565b6001600160a01b0316145b6110605760405162461bcd60e51b815260040180806020018281038252602c815260200180613353602c913960400191505060405180910390fd5b61092f83836122c1565b600061107881610d47611c2d565b6110b35760405162461bcd60e51b81526004018080602001828103825260378152602001806134536037913960400191505060405180910390fd5b6001600160a01b038216611109576040805162461bcd60e51b815260206004820152601860248201527753546f6b656e733a2041646472657373206973207a65726f60401b604482015290519081900360640190fd5b61111460c9836123b3565b506001600160a01b03828116600090815260cb6020818152604080842080546001820154600283015460cc8652938720549590945286169592831694919092169260e081811b936401000000008304821b93600160401b90930490911b9161117c9190613250565b6001600160a01b038816600090815260cc6020526040812061119d91613265565b604080516001600160a01b0388811682526001600160e01b03198087166020840152808616838501528416606083015242608083015291518287169288811692908c16917f9a2554b6c337e78585365bc11225231d192bf0805336fb12aadba784f2fd663d9181900360a00190a4506001979650505050505050565b6112266000610d47611c2d565b6112615760405162461bcd60e51b815260040180806020018281038252603a8152602001806136f9603a913960400191505060405180910390fd5b60d280546001600160a01b0319166001600160a01b0383169081179091556040517f57fded54c0f01b7b2c662bd89530d6916e48149e02da384db87d1a67306be87190600090a250565b60655460ff1690565b60006112be6112ab565b15611303576040805162461bcd60e51b815260206004820152601060248201526f14185d5cd8589b194e881c185d5cd95960821b604482015290519081900360640190fd5b61130b611c2d565b6001600160a01b0316826001600160a01b03161461135a5760405162461bcd60e51b815260040180806020018281038252603f8152602001806135bd603f913960400191505060405180910390fd5b6000611365836123c8565b6040805182815242602082015281519293506001600160a01b038616927fd0194489832efa41a56f4a4add6fbbe260998cbcff0b43c953af28b545ca7a01929181900390910190a250600192915050565b6001600160a01b031660009081526033602052604090205490565b6060600060d480548060200260200160405190810160405280929190818152602001828054801561142157602002820191906000526020600020905b81548152602001906001019080831161140d575b5050505050915060d65490509091565b600061144d600080516020613624833981519152610d47611c2d565b6114885760405162461bcd60e51b815260040180806020018281038252603081526020018061350e6030913960400191505060405180910390fd5b610feb6124c2565b60008281526097602052604081206114a89083612545565b9392505050565b60008281526097602052604081206114a89083612551565b60378054604080516020601f60026000196101006001881615020190951694909404938401819004810282018101909252828152606093909290918301828280156109115780601f106108e657610100808354040283529160200191610911565b6000326001600160a01b03841614801561155c575060d2546001600160a01b0316611551611c2d565b6001600160a01b0316145b6115975760405162461bcd60e51b815260040180806020018281038252602c815260200180613644602c913960400191505060405180910390fd5b61092f8383612566565b60008082116115e15760405162461bcd60e51b815260040180806020018281038252602d8152602001806136cc602d913960400191505060405180910390fd5b6115ee6000610d47611c2d565b6116295760405162461bcd60e51b815260040180806020018281038252602f815260200180613424602f913960400191505060405180910390fd5b5060d4805460018082019092557f9780e26d96b1f2a9a18ef8fc72d589dbf03ef788137b64f43897e83a91e7feec019190915560d580548083018255600091909152427f51858de9989bf7441865ebdadbf7382c8838edbf830f5d86a9a51ac773676dd69091015590565b600081565b600061092f6116a6611c2d565b84610e498560405180606001604052806025815260200161377c60259139603460006116d0611c2d565b6001600160a01b03908116825260208083019390935260409182016000908120918d1681529252902054919061205e565b600061092f61170e611c2d565b8484611f01565b6001600160a01b03808516600090815260cf6020908152604080832093871683529290529081205481908190819061174e904290612662565b9050851580159061175e57508015155b156117705761176d86826126bf565b93505b6001600160a01b038816600090815260d06020526040812054611794904290612662565b905085158015906117a457508015155b156117b6576117b386826126bf565b92505b6001600160a01b038916600090815260ce60205260409020546117d990846121c7565b9350836117e257fe5b50505094509492505050565b60006117fc81610d47611c2d565b6118375760405162461bcd60e51b815260040180806020018281038252603a815260200180613562603a913960400191505060405180910390fd5b6001600160a01b03881661188d576040805162461bcd60e51b815260206004820152601860248201527753546f6b656e733a2041646472657373206973207a65726f60401b604482015290519081900360640190fd5b61189860c989612551565b6118a9576118a760c989612718565b505b6001600160a01b03888116600081815260cb6020908152604080832080546001600160a01b03199081168e8816908117835560018301805483168f8a1690811790915560029093018054909216978d1697881790915560cc845293829020805460e08a811c600160401b0263ffffffff199092168d821c1767ffffffff000000001916640100000000918d901c91909102176bffffffff0000000000000000191617905581519384526001600160e01b0319808b1693850193909352828916848301529187166060840152426080840152519092917e18954592145e4a99767893c991689b8d8202e10d20f3961f57ae5a8f940699919081900360a00190a4506001979650505050505050565b60008181526097602052604081206109339061272d565b6000828152609760205260409020600201546119eb90610d47611c2d565b610f345760405162461bcd60e51b81526004018080602001828103825260308152602001806134b06030913960400191505060405180910390fd5b6001600160a01b03918216600090815260346020908152604080832093909416825291909152205490565b6001600160a01b0316600090815260d7602052604090205490565b60008051602061362483398151915281565b600054610100900460ff1680611a975750611a97612738565b80611aa5575060005460ff16155b611ae05760405162461bcd60e51b815260040180806020018281038252602e8152602001806134e0602e913960400191505060405180910390fd5b600054610100900460ff16158015611b0b576000805460ff1961ff0019909116610100171660011790555b611b5f60405180604001604052806013815260200172705354414b45205374616b65642041544f4d7360681b8152506040518060400160405280600781526020016673746b41544f4d60c81b815250612749565b611b676127ff565b611b6f6128b1565b611b816000611b7c611c2d565b610ec6565b611b9960008051602061362483398151915285610ec6565b611ba285610d3a565b60d4805460018181019092557f9780e26d96b1f2a9a18ef8fc72d589dbf03ef788137b64f43897e83a91e7feec0184905560d580549182018155600052427f51858de9989bf7441865ebdadbf7382c8838edbf830f5d86a9a51ac773676dd69091015560d6829055611c14600661294e565b8015611c26576000805461ff00191690555b5050505050565b3390565b6001600160a01b038316611c765760405162461bcd60e51b81526004018080602001828103825260248152602001806137586024913960400191505060405180910390fd5b6001600160a01b038216611cbb5760405162461bcd60e51b81526004018080602001828103825260228152602001806133d06022913960400191505060405180910390fd5b6001600160a01b03808416600081815260346020908152604080832094871680845294825291829020859055815185815291517f8c5be1e5ebec7d5bd14f71427d1e84f3dd0314c0f7b2291e5b200ac8c7c3b9259281900390910190a3505050565b60d554600090819081908190611d34906001612662565b92505b60d554611d45906001612662565b831015611e57578460d58481548110611d5a57fe5b90600052602060002001541115611e0f57611db760d58481548110611d7b57fe5b60009182526020909120015460d5611d948660016121c7565b81548110611d9e57fe5b906000526020600020015461266290919063ffffffff16565b9150611dfc60d654606402611df684611df060d48881548110611dd657fe5b90600052602060002001548b6126bf90919063ffffffff16565b906126bf565b90612964565b9050611e0884826121c7565b9350611e52565b611e208560d5611d948660016121c7565b9150611e3f60d654606402611df684611df060d48881548110611dd657fe5b9050611e4b84826121c7565b9350611ef8565b611edc565b8460d58481548110611e6557fe5b90600052602060002001541115611ed257611ea060d58481548110611e8657fe5b90600052602060002001544261266290919063ffffffff16565b9150611ebf60d654606402611df684611df060d48881548110611dd657fe5b9050611ecb84826121c7565b9350611edc565b611e204286612662565b82611ee657611ef8565b611ef1836001612662565b9250611d37565b50505092915050565b6001600160a01b038316611f465760405162461bcd60e51b81526004018080602001828103825260258152602001806137336025913960400191505060405180910390fd5b6001600160a01b038216611f8b5760405162461bcd60e51b81526004018080602001828103825260238152602001806133306023913960400191505060405180910390fd5b611f968383836129cb565b611fd38160405180606001604052806026815260200161348a602691396001600160a01b038616600090815260336020526040902054919061205e565b6001600160a01b03808516600090815260336020526040808220939093559084168152205461200290826121c7565b6001600160a01b0380841660008181526033602090815260409182902094909455805185815290519193928716927fddf252ad1be2c89b69c2b068fc378daa952ba7f163c4a11628f55a4df523b3ef92918290030190a3505050565b600081848411156120ed5760405162461bcd60e51b81526004018080602001828103825283818151815260200191508051906020019080838360005b838110156120b257818101518382015260200161209a565b50505050905090810190601f1680156120df5780820380516001836020036101000a031916815260200191505b509250505060405180910390fd5b505050900390565b600082815260976020526040902061210d9082612718565b15610ed05761211a611c2d565b6001600160a01b0316816001600160a01b0316837f2f8788117e7eff1d82e926ec794901d17c78024a50270940304540a733656f0d60405160405180910390a45050565b600082815260976020526040902061217690826123b3565b15610ed057612183611c2d565b6001600160a01b0316816001600160a01b0316837ff6391f5c32d9c69d2a47ea670b442974b53935d1edc7fd64eb21e047a839171b60405160405180910390a45050565b6000828201838110156114a8576040805162461bcd60e51b815260206004820152601b60248201527f536166654d6174683a206164646974696f6e206f766572666c6f770000000000604482015290519081900360640190fd5b6122296112ab565b612271576040805162461bcd60e51b815260206004820152601460248201527314185d5cd8589b194e881b9bdd081c185d5cd95960621b604482015290519081900360640190fd5b6065805460ff191690557f5db9ee0a495bf2e6ff9c91a7834c1ba4fdd244a5e8aa4e537bd38aeae4b073aa6122a4611c2d565b604080516001600160a01b039092168252519081900360200190a1565b6001600160a01b03821661231c576040805162461bcd60e51b815260206004820152601f60248201527f45524332303a206d696e7420746f20746865207a65726f206164647265737300604482015290519081900360640190fd5b612328600083836129cb565b60355461233590826121c7565b6035556001600160a01b03821660009081526033602052604090205461235b90826121c7565b6001600160a01b03831660008181526033602090815260408083209490945583518581529351929391927fddf252ad1be2c89b69c2b068fc378daa952ba7f163c4a11628f55a4df523b3ef9281900390910190a35050565b60006114a8836001600160a01b038416612bbb565b6000806123d483610939565b905080156124a1576040805182815242602082015281516001600160a01b038616927f01ea729deb12fa912e813101b1da8b7c1500f7f26c912a612221a02af6a56220928290030190a260d354604080516340c10f1960e01b81526001600160a01b03868116600483015260248201859052915191909216916340c10f199160448083019260209291908290030181600087803b15801561247457600080fd5b505af1158015612488573d6000803e3d6000fd5b505050506040513d602081101561249e57600080fd5b50505b6001600160a01b0392909216600090815260d7602052604090204290555090565b6124ca6112ab565b1561250f576040805162461bcd60e51b815260206004820152601060248201526f14185d5cd8589b194e881c185d5cd95960821b604482015290519081900360640190fd5b6065805460ff191660011790557f62e78cea01bee320cd4e420270b5ea74000d11b0c9f74754ebdbfc544b05a2586122a4611c2d565b60006114a88383612c81565b60006114a8836001600160a01b038416612ce5565b6001600160a01b0382166125ab5760405162461bcd60e51b81526004018080602001828103825260218152602001806136ab6021913960400191505060405180910390fd5b6125b7826000836129cb565b6125f4816040518060600160405280602281526020016133ae602291396001600160a01b038516600090815260336020526040902054919061205e565b6001600160a01b03831660009081526033602052604090205560355461261a9082612662565b6035556040805182815290516000916001600160a01b038516917fddf252ad1be2c89b69c2b068fc378daa952ba7f163c4a11628f55a4df523b3ef9181900360200190a35050565b6000828211156126b9576040805162461bcd60e51b815260206004820152601e60248201527f536166654d6174683a207375627472616374696f6e206f766572666c6f770000604482015290519081900360640190fd5b50900390565b6000826126ce57506000610933565b828202828482816126db57fe5b04146114a85760405162461bcd60e51b815260040180806020018281038252602181526020018061359c6021913960400191505060405180910390fd5b60006114a8836001600160a01b038416612cfd565b600061093382612d47565b600061274330612d4b565b15905090565b600054610100900460ff16806127625750612762612738565b80612770575060005460ff16155b6127ab5760405162461bcd60e51b815260040180806020018281038252602e8152602001806134e0602e913960400191505060405180910390fd5b600054610100900460ff161580156127d6576000805460ff1961ff0019909116610100171660011790555b6127de612d51565b6127e88383612df1565b80156127fa576000805461ff00191690555b505050565b600054610100900460ff16806128185750612818612738565b80612826575060005460ff16155b6128615760405162461bcd60e51b815260040180806020018281038252602e8152602001806134e0602e913960400191505060405180910390fd5b600054610100900460ff1615801561288c576000805460ff1961ff0019909116610100171660011790555b612894612d51565b61289c612d51565b80156128ae576000805461ff00191690555b50565b600054610100900460ff16806128ca57506128ca612738565b806128d8575060005460ff16155b6129135760405162461bcd60e51b815260040180806020018281038252602e8152602001806134e0602e913960400191505060405180910390fd5b600054610100900460ff1615801561293e576000805460ff1961ff0019909116610100171660011790555b612946612d51565b61289c612ec9565b6038805460ff191660ff92909216919091179055565b60008082116129ba576040805162461bcd60e51b815260206004820152601a60248201527f536166654d6174683a206469766973696f6e206279207a65726f000000000000604482015290519081900360640190fd5b8183816129c357fe5b049392505050565b6129d36112ab565b15612a0f5760405162461bcd60e51b815260040180806020018281038252602481526020018061353e6024913960400191505060405180910390fd5b612a1a8383836127fa565b6001600160a01b038316612a5257612a3360c983612551565b612a4657612a40826123c8565b50612a52565b612a508284612f74565b505b6001600160a01b03831615801590612a725750612a7060c984612551565b155b15612b03576001600160a01b038216612a9057612a8e836123c8565b505b6001600160a01b03821615801590612ab05750612aae60c983612551565b155b15612aca57612abe836123c8565b50612ac8826123c8565b505b6001600160a01b03821615801590612ae85750612ae860c983612551565b15612b0357612af6836123c8565b50612b018284612f74565b505b6001600160a01b03831615801590612b215750612b2160c984612551565b156127fa576001600160a01b038216612b4057612b3e8383612f74565b505b6001600160a01b03821615801590612b605750612b5e60c983612551565b155b15612b7b57612b6f8383612f74565b50612b79826123c8565b505b6001600160a01b03821615801590612b995750612b9960c983612551565b156127fa57612ba9836000612f74565b50612bb5826000612f74565b50505050565b60008181526001830160205260408120548015612c775783546000198083019190810190600090879083908110612bee57fe5b9060005260206000200154905080876000018481548110612c0b57fe5b600091825260208083209091019290925582815260018981019092526040902090840190558654879080612c3b57fe5b60019003818190600052602060002001600090559055866001016000878152602001908152602001600020600090556001945050505050610933565b6000915050610933565b81546000908210612cc35760405162461bcd60e51b815260040180806020018281038252602281526020018061330e6022913960400191505060405180910390fd5b826000018281548110612cd257fe5b9060005260206000200154905092915050565b60009081526001919091016020526040902054151590565b6000612d098383612ce5565b612d3f57508154600181810184556000848152602080822090930184905584548482528286019093526040902091909155610933565b506000610933565b5490565b3b151590565b600054610100900460ff1680612d6a5750612d6a612738565b80612d78575060005460ff16155b612db35760405162461bcd60e51b815260040180806020018281038252602e8152602001806134e0602e913960400191505060405180910390fd5b600054610100900460ff1615801561289c576000805460ff1961ff00199091166101001716600117905580156128ae576000805461ff001916905550565b600054610100900460ff1680612e0a5750612e0a612738565b80612e18575060005460ff16155b612e535760405162461bcd60e51b815260040180806020018281038252602e8152602001806134e0602e913960400191505060405180910390fd5b600054610100900460ff16158015612e7e576000805460ff1961ff0019909116610100171660011790555b8251612e9190603690602086019061326c565b508151612ea590603790602085019061326c565b506038805460ff1916601217905580156127fa576000805461ff0019169055505050565b600054610100900460ff1680612ee25750612ee2612738565b80612ef0575060005460ff16155b612f2b5760405162461bcd60e51b815260040180806020018281038252602e8152602001806134e0602e913960400191505060405180910390fd5b600054610100900460ff16158015612f56576000805460ff1961ff0019909116610100171660011790555b6065805460ff1916905580156128ae576000805461ff001916905550565b6001600160a01b03828116600090815260cb6020526040812054909182918291829116301415612fb457612fa88686610970565b9194509250905061305a565b6001600160a01b03868116600081815260cb602052604090819020548151630ad4a59560e11b815260048101939093528884166024840152905192169182916315a94b2a916044808301926060929190829003018186803b15801561301857600080fd5b505afa15801561302c573d6000803e3d6000fd5b505050506040513d606081101561304257600080fd5b50805160208201516040909201519095509093509150505b6001600160a01b038616600090815260d16020526040812054908415613087576130848583611d1d565b90505b6001600160a01b038816600090815260cd60205260408120546130aa90836121c7565b90506001600160a01b0388161561320d576000806130ca8b8b8989611715565b915091506000821180156130de5750600081115b156131cc5760006130f382611df686866126bf565b6040805182815242602082015281519293506001600160a01b038e16927f01ea729deb12fa912e813101b1da8b7c1500f7f26c912a612221a02af6a56220929181900390910190a260d354604080516340c10f1960e01b81526001600160a01b038e8116600483015260248201859052915191909216916340c10f199160448083019260209291908290030181600087803b15801561319157600080fd5b505af11580156131a5573d6000803e3d6000fd5b505050506040513d60208110156131bb57600080fd5b506131c890508482612662565b9350505b6131d68183612662565b6001600160a01b03808d16600090815260ce602090815260408083209490945560cf8152838220928e168252919091522042905550505b6001600160a01b038916600090815260cd602090815260408083209390935560d08152828220429081905560d19091529190205550600194505050505092915050565b50600081556001016000815560010160009055565b5060009055565b828054600181600116156101000203166002900490600052602060002090601f0160209004810192826132a257600085556132e8565b82601f106132bb57805160ff19168380011785556132e8565b828001600101855582156132e8579182015b828111156132e85782518255916020019190600101906132cd565b506132f49291506132f8565b5090565b5b808211156132f457600081556001016132f956fe456e756d657261626c655365743a20696e646578206f7574206f6620626f756e647345524332303a207472616e7366657220746f20746865207a65726f206164647265737353546f6b656e733a2055736572206e6f7420617574686f726973656420746f206d696e742053546f6b656e73416363657373436f6e74726f6c3a2073656e646572206d75737420626520616e2061646d696e20746f206772616e7445524332303a206275726e20616d6f756e7420657863656564732062616c616e636545524332303a20617070726f766520746f20746865207a65726f206164647265737353546f6b656e733a2055736572206e6f7420617574686f726973656420746f20756e706175736520636f6e7472616374732e53546f6b656e733a2055736572206e6f7420617574686f726973656420746f2073657420726577617264207261746553546f6b656e733a2055736572206e6f7420617574686f726973656420746f206164642077686974656c6973746564206164647265737345524332303a207472616e7366657220616d6f756e7420657863656564732062616c616e6365416363657373436f6e74726f6c3a2073656e646572206d75737420626520616e2061646d696e20746f207265766f6b65496e697469616c697a61626c653a20636f6e747261637420697320616c726561647920696e697469616c697a656453546f6b656e733a2055736572206e6f7420617574686f726973656420746f20706175736520636f6e7472616374732e53546f6b656e733a20746f6b656e207472616e73666572207768696c652070617573656453546f6b656e733a2055736572206e6f7420617574686f726973656420746f207570646174652077686974656c69737465642061646472657373536166654d6174683a206d756c7469706c69636174696f6e206f766572666c6f7753546f6b656e733a206f6e6c79207374616b65722063616e20696e697469617465207468656972206f776e20726577617264732063616c63756c6174696f6e45524332303a207472616e7366657220616d6f756e74206578636565647320616c6c6f77616e636565d7a28e3265b37a6474929f336521b332c1681b933f6cb9f3376673440d862a53546f6b656e733a2055736572206e6f7420617574686f726973656420746f206275726e2053546f6b656e7353546f6b656e733a2055736572206e6f7420617574686f726973656420746f207365742055546f6b656e20636f6e7472616374206164647265737345524332303a206275726e2066726f6d20746865207a65726f206164647265737353546f6b656e733a2052657761726420726174652073686f756c642062652067726561746572207468616e203053546f6b656e733a2055736572206e6f7420617574686f726973656420746f20736574206c69717569645374616b696e6720636f6e747261637445524332303a207472616e736665722066726f6d20746865207a65726f206164647265737345524332303a20617070726f76652066726f6d20746865207a65726f206164647265737345524332303a2064656372656173656420616c6c6f77616e63652062656c6f77207a65726f416363657373436f6e74726f6c3a2063616e206f6e6c792072656e6f756e636520726f6c657320666f722073656c66a264697066735822122070ffe1e7398425a50c89cb73b6a8704c3b249cba04ccc40c8ae69a525a2586f464736f6c63430007060033",
  "immutableReferences": {},
  "source": "// SPDX-License-Identifier: UNLICENSED\npragma solidity ^0.7.0;\n\nimport \"@openzeppelin/contracts-upgradeable/token/ERC20/ERC20Upgradeable.sol\";\nimport \"@openzeppelin/contracts-upgradeable/math/SafeMathUpgradeable.sol\";\nimport \"@openzeppelin/contracts-upgradeable/utils/PausableUpgradeable.sol\";\nimport \"@openzeppelin/contracts-upgradeable/utils/EnumerableSetUpgradeable.sol\";\nimport \"@openzeppelin/contracts-upgradeable/access/AccessControlUpgradeable.sol\";\nimport \"./interfaces/ISTokens.sol\";\nimport \"./interfaces/IUTokens.sol\";\nimport \"./interfaces/IHolder.sol\";\n\ncontract STokens is ERC20Upgradeable, ISTokens, PausableUpgradeable, AccessControlUpgradeable {\n\n    using SafeMathUpgradeable for uint256;\n    using EnumerableSetUpgradeable for EnumerableSetUpgradeable.AddressSet;\n\n    // constants defining access control ROLES\n    bytes32 public constant PAUSER_ROLE = keccak256(\"PAUSER_ROLE\");\n\n    // variables pertaining to holder logic for whitelisted addresses\n    EnumerableSetUpgradeable.AddressSet private whitelistedAddresses;\n\n    // _depositContractAddress has been discontinued\n    // mapping(address => address) private _depositContractAddress;\n\n    /*\n    :: variables held for each holder logic mappings below ::\n    function signature to get LPToken Balance, of user, in LP-ERC20-Contract  (balanceOf(userAddress) for LP token)\n    function signature to get LPToken Total Supply, in LP-ERC20-Contract (totalSupply() for LP token)\n    function signature to get SToken Total Supply of SToken-LP-Contract (getReserves() for SToken)\n    timestamp value of last reward calculation for LP contract as per reserve\n    timestamp value of last reward calculation for user as per liquidity\n    */\n    mapping(address => address[3]) private _holderContractAddresses;\n    mapping(address => bytes4[3]) private _holderContractFuncSigs;\n    mapping(address => uint256) private _holderContractRewardBalance;\n    mapping(address => uint256) private _holderContractTotalLPTimeShare;\n    mapping(address => mapping(address => uint256)) private _holderContractLPBalanceTimestamps;\n    mapping(address => uint256) private _holderContractLPSupplyTimestamp;\n    mapping(address => uint256) private _holderContractTotalRewardsTimestamp;\n\n\n    // variables capturing data of other contracts in the product\n    address private _liquidStakingContract;\n    IUTokens private _uTokens;\n\n    // variables pertaining to moving reward rate logic\n    uint256[] private _rewardRate;\n    uint256[] private _rewardBlockTimestamp;\n    uint256 private _valueDivisor;\n    mapping(address => uint256) private _rewardsTillTimestamp;\n\n    /**\n   * @dev Constructor for initializing the SToken contract.\n   * @param uaddress - address of the UToken contract.\n   * @param pauserAddress - address of the pauser admin.\n   * @param rewardRate - set rewardRate.\n   * @param valueDivisor - valueDivisor set to 10^9.\n   */\n    function initialize(address uaddress, address pauserAddress, uint256 rewardRate, uint256 valueDivisor) public virtual initializer {\n        __ERC20_init(\"pSTAKE Staked ATOMs\", \"stkATOM\");\n        __AccessControl_init();\n        __Pausable_init();\n        _setupRole(DEFAULT_ADMIN_ROLE, _msgSender());\n        _setupRole(PAUSER_ROLE, pauserAddress);\n        setUTokensContract(uaddress);\n        // to set reward rate to 5e-3 or 0.005\n        _rewardRate.push(rewardRate);\n        _rewardBlockTimestamp.push(block.timestamp);\n        _valueDivisor = valueDivisor;\n        _setupDecimals(6);\n    }\n\n\n    /*\n    * @dev set reward rate called by admin\n    * @param rewardRate: reward rate\n    *\n    *\n    * Requirements:\n    *\n    * - `rate` cannot be less than or equal to zero.\n    *\n    */\n    function setRewardRate(uint256 rewardRate) public virtual override returns (bool success) {\n        require(rewardRate>0, \"STokens: Reward rate should be greater than 0\");\n        require(hasRole(DEFAULT_ADMIN_ROLE, _msgSender()), \"STokens: User not authorised to set reward rate\");\n        _rewardRate.push(rewardRate);\n        _rewardBlockTimestamp.push(block.timestamp);\n        return true;\n    }\n\n\n    /**\n    * @dev get reward rate and value divisor\n    */\n    function getRewardRate() public view virtual returns (uint256[] memory rewardRate, uint256 valueDivisor) {\n        rewardRate = _rewardRate;\n        valueDivisor = _valueDivisor;\n    }\n\n\n    /**\n     * @dev get rewards till timestamp\n     * @param to: account address\n     */\n    function getRewardsTillTimestamp(address to) public view virtual returns (uint256 rewardsTillTimestamp) {\n        rewardsTillTimestamp = _rewardsTillTimestamp[to];\n    }\n\n\n    /**\n     * @dev Mint new stokens for the provided 'address' and 'tokens'\n     * @param to: account address, tokens: number of tokens\n     *\n     * Emits a {MintTokens} event with 'to' set to address and 'tokens' set to amount of tokens.\n     *\n     * Requirements:\n     *\n     * - `amount` cannot be less than zero.\n     *\n     */\n    function mint(address to, uint256 tokens) public virtual override returns (bool success) {\n        require(tx.origin == to && _msgSender() == _liquidStakingContract, \"STokens: User not authorised to mint STokens\");\n        _mint(to, tokens);\n        return true;\n    }\n\n\n    /*\n     * @dev Burn stokens for the provided 'address' and 'tokens'\n     * @param to: account address, tokens: number of tokens\n     *\n     * Emits a {BurnTokens} event with 'to' set to address and 'tokens' set to amount of tokens.\n     *\n     * Requirements:\n     *\n     * - `amount` cannot be less than zero.\n     *\n     */\n    function burn(address from, uint256 tokens) public  virtual override returns (bool success) {\n        require(tx.origin == from && _msgSender() == _liquidStakingContract, \"STokens: User not authorised to burn STokens\");\n        _burn(from, tokens);\n        return true;\n    }\n\n\n    /**\n     * @dev Calculate rewards for the provided 'address'\n     * @param to: account address\n     */\n    function _calculateRewards(address to) internal returns (uint256){\n        // Calculate the rewards pending\n        uint256 _reward = calculatePendingRewards(to);\n        // mint uTokens only if reward is greater than zero\n        if(_reward>0) {\n            // Mint new uTokens and send to the callers account\n            emit CalculateRewards(to, _reward, block.timestamp);\n            _uTokens.mint(to, _reward);\n        }\n        // Set the new stakedBlock to the current\n        _rewardsTillTimestamp[to] = block.timestamp;\n        return _reward;\n    }\n\n\n    /**\n     * @dev Calculate rewards for the provided 'address'\n     * @param to: account address\n     *\n     * Emits a {TriggeredCalculateRewards} event with 'to' set to address, 'reward' set to amount of tokens and 'timestamp'\n     *\n     */\n    function calculateRewards(address to) public virtual override whenNotPaused returns (bool success) {\n        require(to == _msgSender(), \"STokens: only staker can initiate their own rewards calculation\");\n        uint256 reward =  _calculateRewards(to);\n        emit TriggeredCalculateRewards(to, reward, block.timestamp);\n        return true;\n    }\n\n\n    /**\n     * @dev Calculate pending rewards from the provided 'principal' & 'lastRewardTimestamp'. The rate is the moving reward rate.\n     * @param principal: principal amount\n     * @param lastRewardTimestamp: timestamp of last reward calculation performed\n     */\n    function _calculatePendingRewards(uint256 principal, uint256 lastRewardTimestamp) internal view returns (uint256 pendingRewards){\n        uint256 _index;\n        uint256 _rewardBlocks;\n        uint256 _simpleInterestOfInterval;\n        for(_index = _rewardBlockTimestamp.length.sub(1); _index >= 0;){\n            // logic applies for all indexes of array except last index\n            if(_index < _rewardBlockTimestamp.length.sub(1)) {\n                if(_rewardBlockTimestamp[_index] > lastRewardTimestamp) {\n                    _rewardBlocks = (_rewardBlockTimestamp[_index.add(1)]).sub(_rewardBlockTimestamp[_index]);\n                    _simpleInterestOfInterval = (((principal.mul(_rewardRate[_index])).mul(_rewardBlocks))).div(100 * _valueDivisor);\n                    pendingRewards = pendingRewards.add(_simpleInterestOfInterval);\n                }\n                else {\n                    _rewardBlocks = (_rewardBlockTimestamp[_index.add(1)]).sub(lastRewardTimestamp);\n                    _simpleInterestOfInterval = (((principal.mul(_rewardRate[_index])).mul(_rewardBlocks))).div(100 * _valueDivisor);\n                    pendingRewards = pendingRewards.add(_simpleInterestOfInterval);\n                    break;\n                }\n            }\n            // logic applies only for the last index of array\n            else {\n                if(_rewardBlockTimestamp[_index] > lastRewardTimestamp) {\n                    _rewardBlocks = (block.timestamp).sub(_rewardBlockTimestamp[_index]);\n                    _simpleInterestOfInterval = (((principal.mul(_rewardRate[_index])).mul(_rewardBlocks))).div(100 * _valueDivisor);\n                    pendingRewards = pendingRewards.add(_simpleInterestOfInterval);\n                }\n                else {\n                    _rewardBlocks = (block.timestamp).sub(lastRewardTimestamp);\n                    _simpleInterestOfInterval = (((principal.mul(_rewardRate[_index])).mul(_rewardBlocks))).div(100 * _valueDivisor);\n                    pendingRewards = pendingRewards.add(_simpleInterestOfInterval);\n                    break;\n                }\n            }\n\n            if(_index == 0) break;\n            else {\n                _index = _index.sub(1);\n            }\n        }\n        return pendingRewards;\n    }\n\n    /**\n     * @dev Calculate pending rewards for the provided 'address'. The rate is the moving reward rate.\n     * @param to: account address\n     */\n    function calculatePendingRewards(address to) public view virtual returns (uint256 pendingRewards){\n        // Get the time in number of blocks\n        uint256 _lastRewardTimestamp = _rewardsTillTimestamp[to];\n        // Get the balance of the account\n        uint256 _balance = balanceOf(to);\n        // calculate pending rewards using _calculatePendingRewards\n        pendingRewards = _calculatePendingRewards(_balance, _lastRewardTimestamp);\n\n        return pendingRewards;\n    }\n\n\n    /**\n     * @dev Hook that is called before any transfer of tokens. This includes\n     * minting and burning.\n     *\n     * Calling conditions:\n     *\n     * - when `from` and `to` are both non-zero, `amount` of ``from``'s tokens\n     * will be to transferred to `to`.\n     * - when `from` is zero, `amount` tokens will be minted for `to`.\n     * - when `to` is zero, `amount` of ``from``'s tokens will be burned.\n     * - `from` and `to` are never both zero.\n     *\n     */\n    function _beforeTokenTransfer(address from, address to, uint256 amount) internal virtual override {\n        require(!paused(), \"STokens: token transfer while paused\");\n        super._beforeTokenTransfer(from, to, amount);\n        if(from == address(0)){\n            // cannot have a scenario of transfer from address(0) to address(0)\n            // if(to == address(0)){}\n\n            if(!whitelistedAddresses.contains(to)){\n                _calculateRewards(to);\n            }\n            else {\n                generateHolderRewards(to, from);\n            }\n\n        }\n\n        if(from != address(0) && !whitelistedAddresses.contains(from)){\n\n            if(to == address(0)){\n                _calculateRewards(from);\n            }\n\n            if(to != address(0) && !whitelistedAddresses.contains(to)){\n                _calculateRewards(from);\n                _calculateRewards(to);\n            }\n\n            if(to != address(0) && whitelistedAddresses.contains(to)){\n                _calculateRewards(from);\n                generateHolderRewards(to, from);\n            }\n\n        }\n\n        if(from != address(0) && whitelistedAddresses.contains(from)){\n\n            if(to == address(0)){\n                generateHolderRewards(from, to);\n            }\n\n            if(to != address(0) && !whitelistedAddresses.contains(to)){\n                generateHolderRewards(from, to);\n                _calculateRewards(to);\n            }\n\n            if(to != address(0) && whitelistedAddresses.contains(to)){\n                generateHolderRewards(from, address(0));\n                generateHolderRewards(to, address(0));\n            }\n\n        }\n    }\n\n\n    /**\n    * @dev redeem rewards from holder contract\n    * @param whitelistedAddress: contract address of the liquidity pool/product\n    */\n    function generateHolderRewards(address whitelistedAddress, address userAddress) internal returns (bool){\n\n        // CALCULATE TOTAL REWARD OF WHITELISTED CONTRACT USING STOKEN RESERVE TOTAL SUPPLY::\n\n        uint256 _sTokenReserveSupply;\n        uint256 _lpTokenBalance;\n        uint256 _lpTokenSupply;\n\n        // get the lpBalance, lpSupply and sTokenReserveSupply to calculate reward shares\n        if(_holderContractAddresses[whitelistedAddress][0] == address(this))\n            (_sTokenReserveSupply, _lpTokenBalance, _lpTokenSupply) =  getHolderAttributes(whitelistedAddress, userAddress);\n        else {\n            address _holderContract = _holderContractAddresses[whitelistedAddress][0];\n            (_sTokenReserveSupply, _lpTokenBalance, _lpTokenSupply) =  IHolder(_holderContract).getHolderAttributes(whitelistedAddress, userAddress);\n        }\n\n\n        // get the last reward timestamp of sToken reserve\n        uint256 _sTokenReserveTimestamp = _holderContractTotalRewardsTimestamp[whitelistedAddress];\n        uint256 _additionalRewardBalance;\n\n        // calculate the new rewards accrued and get the value of updated total rewards (without saving to state)\n        if(_sTokenReserveSupply != 0)\n            _additionalRewardBalance = _calculatePendingRewards(_sTokenReserveSupply, _sTokenReserveTimestamp);\n        uint256 _totalRewardBalance = _holderContractRewardBalance[whitelistedAddress].add(_additionalRewardBalance);\n\n        if(userAddress != address(0)) {\n            // CALCULATE LPTIMESHARE OF LP BALANCE OF USER & LP TOTAL SUPPLY OF CONTRACT::\n\n            (uint256 lpBalanceTimeShare, uint256 lpTotalSupplyTimeShare) = getLPTimeShares(whitelistedAddress, userAddress, _lpTokenBalance, _lpTokenSupply);\n            if(lpBalanceTimeShare > 0 && lpTotalSupplyTimeShare > 0) {\n                // calculate the reward share for the user\n                uint256 _userReward = (_totalRewardBalance.mul(lpBalanceTimeShare)).div(lpTotalSupplyTimeShare);\n\n                // Mint new uTokens and send to the callers account\n                emit CalculateRewards(userAddress, _userReward, block.timestamp);\n                _uTokens.mint(userAddress, _userReward);\n                _totalRewardBalance = _totalRewardBalance.sub(_userReward);\n            }\n\n            // update the value of time share of total supply of contract\n            _holderContractTotalLPTimeShare[whitelistedAddress] = lpTotalSupplyTimeShare.sub(lpBalanceTimeShare);\n            // update the timestamp of user's lp balance\n            _holderContractLPBalanceTimestamps[whitelistedAddress][userAddress] = block.timestamp;\n\n        }\n\n        // update the reward balance of whitelisted contract\n        _holderContractRewardBalance[whitelistedAddress] = _totalRewardBalance;\n\n        // update the reward timestamp of whitelisted contract\n        _holderContractLPSupplyTimestamp[whitelistedAddress] = block.timestamp;\n        _holderContractTotalRewardsTimestamp[whitelistedAddress] = block.timestamp;\n        return true;\n    }\n\n    function getLPTimeShares(address whitelistedAddress, address userAddress, uint256 lpTokenBalance, uint256 lpTokenSupply) public view returns (uint256 lpBalanceTimeShare, uint256 lpTotalSupplyTimeShare){\n        uint256 _lpNewSupplyTimeShare;\n        uint256 _lastLPBalanceShareTimeInterval = block.timestamp.sub(_holderContractLPBalanceTimestamps[whitelistedAddress][userAddress]);\n        // calculate the time share of balance of user\n        // (dont use _calculatePendingRewards since reward rate is irrelevant here)\n        if(lpTokenBalance != 0 &&  _lastLPBalanceShareTimeInterval != 0) {\n            lpBalanceTimeShare = lpTokenBalance.mul(_lastLPBalanceShareTimeInterval);\n        }\n\n        // CALCULATE LPTIMESHARE OF LP TOTAL SUPPLY OF CONTRACT::\n        // get the LP total Supply's last timestamp for LPTimeShare calculation\n        // uint256 _lastLPSupplyShareTimestamp = _holderContractLPSupplyTimestamp[whitelistedAddress];\n        uint256 _lastLPSupplyShareTimeInterval = block.timestamp.sub(_holderContractLPSupplyTimestamp[whitelistedAddress]);\n        // calculate the new incoming time share of total supply of contract\n        // (dont use _calculatePendingRewards since reward rate is irrelevant here)\n        if(lpTokenSupply != 0 &&  _lastLPSupplyShareTimeInterval != 0) {\n            _lpNewSupplyTimeShare = lpTokenSupply.mul(_lastLPSupplyShareTimeInterval);\n        }\n\n        // calculate the total time share of total supply of contract\n        lpTotalSupplyTimeShare = _holderContractTotalLPTimeShare[whitelistedAddress].add(_lpNewSupplyTimeShare);\n        assert(lpTotalSupplyTimeShare != 0);\n\n    }\n\n\n\n\n    function getHolderAttributes(address whitelistedAddress, address userAddress) public view returns (uint256 lpBalance, uint256 lpSupply, uint256 sTokenSupply){\n        // copy all holder logic attributes to local variables\n        address _lpTokenERC20ContractAddress = _holderContractAddresses[whitelistedAddress][1];\n        address _sTokenReserveContractAddress = _holderContractAddresses[whitelistedAddress][2];\n\n        bytes4 _lpTokenBalanceFuncSig = _holderContractFuncSigs[whitelistedAddress][0];\n        bytes4 _lpTokenSupplyFuncSig = _holderContractFuncSigs[whitelistedAddress][1];\n        bytes4 _sTokenSupplyFuncSig = _holderContractFuncSigs[whitelistedAddress][2];\n\n        // get the SToken Reserve Supply\n        (bool success, bytes memory data) =\n        _sTokenReserveContractAddress.staticcall(abi.encodeWithSelector(_sTokenSupplyFuncSig, whitelistedAddress));\n        require(success && data.length >= 32);\n        sTokenSupply =  abi.decode(data, (uint256));\n\n        // get the LP Token balance of user\n        if(userAddress != address(0)) {\n            (bool success2, bytes memory data2) =\n            _lpTokenERC20ContractAddress.staticcall(abi.encodeWithSelector(_lpTokenBalanceFuncSig, userAddress));\n            require(success2 && data2.length >= 32);\n            lpBalance =  abi.decode(data2, (uint256));\n        }\n        else\n            lpBalance = 0;\n\n        // get the LP Token total supply of ERC20-LP-Contract\n        if(userAddress != address(0)) {\n\n            (bool success3, bytes memory data3) =\n            _lpTokenERC20ContractAddress.staticcall(abi.encodeWithSelector(_lpTokenSupplyFuncSig));\n            require(success3 && data3.length >= 32);\n            lpSupply =  abi.decode(data3, (uint256));\n        }\n        else\n            lpSupply = 0;\n\n    }\n\n\n\n\n\n    /*\n    * @dev Set 'whitelisted address', performed by admin only\n    * @param whitelistedAddress: contract address of the whitelisted party\n    *\n    * Emits a {UpdateWhitelistedAddress} event\n    *\n    */\n    function updateWhitelistedAddress(address whitelistedAddress, address holderContractAddress, address lpTokenERC20ContractAddress, address sTokenReserveContractAddress, bytes4 lpTokenBalanceFuncSig, bytes4 lpTokenSupplyFuncSig, bytes4 sTokenSupplyFuncSig ) public virtual returns (bool success){\n        require(hasRole(DEFAULT_ADMIN_ROLE, _msgSender()), \"STokens: User not authorised to update whitelisted address\");\n        // lpTokenERC20ContractAddress or sTokenReserveContractAddress can be address(0) but not whitelistedAddress\n        require(whitelistedAddress != address(0), \"STokens: Address is zero\");\n        if(!whitelistedAddresses.contains(whitelistedAddress)) whitelistedAddresses.add(whitelistedAddress);\n        // add the contract addresses to holder mapping variable\n        _holderContractAddresses[whitelistedAddress][0] = holderContractAddress;\n        _holderContractAddresses[whitelistedAddress][1] = lpTokenERC20ContractAddress;\n        _holderContractAddresses[whitelistedAddress][2] = sTokenReserveContractAddress;\n        // add the function signatures to holder mapping variable\n        _holderContractFuncSigs[whitelistedAddress][0] = lpTokenBalanceFuncSig;\n        _holderContractFuncSigs[whitelistedAddress][1] = lpTokenSupplyFuncSig;\n        _holderContractFuncSigs[whitelistedAddress][2] = sTokenSupplyFuncSig;\n        emit UpdateWhitelistedAddress(whitelistedAddress, holderContractAddress, lpTokenERC20ContractAddress, sTokenReserveContractAddress, lpTokenBalanceFuncSig, lpTokenSupplyFuncSig, sTokenSupplyFuncSig, block.timestamp);\n        return true;\n    }\n\n    /*\n  * @dev remove 'whitelisted address', performed by admin only\n  * @param whitelistedAddress: contract address of the whitelisted party\n  * @param holderContractAddress: holder contract address of the corresponding whitelistedAddress\n  *\n  * Emits a {RemoveWhitelistedAddress} event\n  *\n  */\n    function removeWhitelistedAddress(address whitelistedAddress) public virtual returns (bool success){\n        require(hasRole(DEFAULT_ADMIN_ROLE, _msgSender()), \"STokens: User not authorised to add whitelisted address\");\n        require(whitelistedAddress != address(0), \"STokens: Address is zero\");\n        // remove whitelistedAddress from the list\n        whitelistedAddresses.remove(whitelistedAddress);\n\n        address _holderContractAddress = _holderContractAddresses[whitelistedAddress][0];\n        address _lpTokenERC20ContractAddress = _holderContractAddresses[whitelistedAddress][1];\n        address _sTokenReserveContractAddress = _holderContractAddresses[whitelistedAddress][2];\n\n        bytes4 _lpTokenBalanceFuncSig = _holderContractFuncSigs[whitelistedAddress][0];\n        bytes4 _lpTokenSupplyFuncSig = _holderContractFuncSigs[whitelistedAddress][1];\n        bytes4 _sTokenSupplyFuncSig = _holderContractFuncSigs[whitelistedAddress][2];\n\n        // delete holder contract values\n        delete _holderContractAddresses[whitelistedAddress];\n        // delete holder function signature values\n        delete _holderContractFuncSigs[whitelistedAddress];\n\n        emit RemoveWhitelistedAddress(whitelistedAddress, _holderContractAddress, _lpTokenERC20ContractAddress, _sTokenReserveContractAddress, _lpTokenBalanceFuncSig, _lpTokenSupplyFuncSig, _sTokenSupplyFuncSig, block.timestamp);\n        return true;\n    }\n\n\n    /*\n    * @dev Set 'contract address', called from constructor\n    * @param uTokenContract: utoken contract address\n    *\n    * Emits a {SetUTokensContract} event with '_contract' set to the utoken contract address.\n    *\n    */\n    function setUTokensContract(address uTokenContract) public virtual override {\n        require(hasRole(DEFAULT_ADMIN_ROLE, _msgSender()), \"STokens: User not authorised to set UToken contract address\");\n        _uTokens = IUTokens(uTokenContract);\n        emit SetUTokensContract(uTokenContract);\n    }\n\n    /*\n     * @dev Set 'contract address', called from constructor\n     * @param liquidStakingContract: liquidStaking contract address\n     *\n     * Emits a {SetLiquidStakingContract} event with '_contract' set to the liquidStaking contract address.\n     *\n     */\n    //This function need to be called after deployment, only admin can call the same\n    function setLiquidStakingContract(address liquidStakingContract) public virtual override{\n        require(hasRole(DEFAULT_ADMIN_ROLE, _msgSender()), \"STokens: User not authorised to set liquidStaking contract\");\n        _liquidStakingContract = liquidStakingContract;\n        emit SetLiquidStakingContract(liquidStakingContract);\n    }\n\n    /**\n      * @dev Triggers stopped state.\n      *\n      * Requirements:\n      *\n      * - The contract must not be paused.\n      */\n    function pause() public virtual returns (bool success) {\n        require(hasRole(PAUSER_ROLE, _msgSender()), \"STokens: User not authorised to pause contracts.\");\n        _pause();\n        return true;\n    }\n\n    /**\n     * @dev Returns to normal state.\n     *\n     * Requirements:\n     *\n     * - The contract must be paused.\n     */\n    function unpause() public virtual returns (bool success) {\n        require(hasRole(PAUSER_ROLE, _msgSender()), \"STokens: User not authorised to unpause contracts.\");\n        _unpause();\n        return true;\n    }\n}",
  "sourcePath": "/home/aditimahesh/Documents/Work/Persistence/go/src/github.com/persistenceOne/pStakeSmartContracts/contracts/STokens.sol",
  "compiler": {
    "name": "solc",
    "version": "0.7.6+commit.7338295f.Emscripten.clang"
  },
  "schemaVersion": "3.3.4",
  "updatedAt": "2021-06-15T13:35:11.371Z",
  "networkType": "ethereum",
  "devdoc": {
    "kind": "dev",
    "methods": {
      "allowance(address,address)": {
        "details": "See {IERC20-allowance}."
      },
      "approve(address,uint256)": {
        "details": "See {IERC20-approve}. Requirements: - `spender` cannot be the zero address."
      },
      "balanceOf(address)": {
        "details": "See {IERC20-balanceOf}."
      },
      "burn(address,uint256)": {
        "details": "Burns `amount` tokens to the caller's address `from`. Returns a boolean value indicating whether the operation succeeded. Emits a {Transfer} event."
      },
      "calculatePendingRewards(address)": {
        "details": "Calculate pending rewards for the provided 'address'. The rate is the moving reward rate.",
        "params": {
          "to": ": account address"
        }
      },
      "calculateRewards(address)": {
        "details": "Calculate rewards for the provided 'address'",
        "params": {
          "to": ": account address Emits a {TriggeredCalculateRewards} event with 'to' set to address, 'reward' set to amount of tokens and 'timestamp'"
        }
      },
      "decimals()": {
        "details": "Returns the number of decimals used to get its user representation. For example, if `decimals` equals `2`, a balance of `505` tokens should be displayed to a user as `5,05` (`505 / 10 ** 2`). Tokens usually opt for a value of 18, imitating the relationship between Ether and Wei. This is the value {ERC20} uses, unless {_setupDecimals} is called. NOTE: This information is only used for _display_ purposes: it in no way affects any of the arithmetic of the contract, including {IERC20-balanceOf} and {IERC20-transfer}."
      },
      "decreaseAllowance(address,uint256)": {
        "details": "Atomically decreases the allowance granted to `spender` by the caller. This is an alternative to {approve} that can be used as a mitigation for problems described in {IERC20-approve}. Emits an {Approval} event indicating the updated allowance. Requirements: - `spender` cannot be the zero address. - `spender` must have allowance for the caller of at least `subtractedValue`."
      },
      "getRewardRate()": {
        "details": "get reward rate and value divisor"
      },
      "getRewardsTillTimestamp(address)": {
        "details": "get rewards till timestamp",
        "params": {
          "to": ": account address"
        }
      },
      "getRoleAdmin(bytes32)": {
        "details": "Returns the admin role that controls `role`. See {grantRole} and {revokeRole}. To change a role's admin, use {_setRoleAdmin}."
      },
      "getRoleMember(bytes32,uint256)": {
        "details": "Returns one of the accounts that have `role`. `index` must be a value between 0 and {getRoleMemberCount}, non-inclusive. Role bearers are not sorted in any particular way, and their ordering may change at any point. WARNING: When using {getRoleMember} and {getRoleMemberCount}, make sure you perform all queries on the same block. See the following https://forum.openzeppelin.com/t/iterating-over-elements-on-enumerableset-in-openzeppelin-contracts/2296[forum post] for more information."
      },
      "getRoleMemberCount(bytes32)": {
        "details": "Returns the number of accounts that have `role`. Can be used together with {getRoleMember} to enumerate all bearers of a role."
      },
      "grantRole(bytes32,address)": {
        "details": "Grants `role` to `account`. If `account` had not been already granted `role`, emits a {RoleGranted} event. Requirements: - the caller must have ``role``'s admin role."
      },
      "hasRole(bytes32,address)": {
        "details": "Returns `true` if `account` has been granted `role`."
      },
      "increaseAllowance(address,uint256)": {
        "details": "Atomically increases the allowance granted to `spender` by the caller. This is an alternative to {approve} that can be used as a mitigation for problems described in {IERC20-approve}. Emits an {Approval} event indicating the updated allowance. Requirements: - `spender` cannot be the zero address."
      },
      "initialize(address,address,uint256,uint256)": {
        "details": "Constructor for initializing the SToken contract.",
        "params": {
          "pauserAddress": "- address of the pauser admin.",
          "rewardRate": "- set rewardRate.",
          "uaddress": "- address of the UToken contract.",
          "valueDivisor": "- valueDivisor set to 10^9."
        }
      },
      "mint(address,uint256)": {
        "details": "Mint new stokens for the provided 'address' and 'tokens'",
        "params": {
          "to": ": account address, tokens: number of tokens Emits a {MintTokens} event with 'to' set to address and 'tokens' set to amount of tokens. Requirements: - `amount` cannot be less than zero."
        }
      },
      "name()": {
        "details": "Returns the name of the token."
      },
      "pause()": {
        "details": "Triggers stopped state. Requirements: - The contract must not be paused."
      },
      "paused()": {
        "details": "Returns true if the contract is paused, and false otherwise."
      },
      "renounceRole(bytes32,address)": {
        "details": "Revokes `role` from the calling account. Roles are often managed via {grantRole} and {revokeRole}: this function's purpose is to provide a mechanism for accounts to lose their privileges if they are compromised (such as when a trusted device is misplaced). If the calling account had been granted `role`, emits a {RoleRevoked} event. Requirements: - the caller must be `account`."
      },
      "revokeRole(bytes32,address)": {
        "details": "Revokes `role` from `account`. If `account` had been granted `role`, emits a {RoleRevoked} event. Requirements: - the caller must have ``role``'s admin role."
      },
      "setLiquidStakingContract(address)": {
        "details": "Set LiquidStaking smart contract."
      },
      "symbol()": {
        "details": "Returns the symbol of the token, usually a shorter version of the name."
      },
      "totalSupply()": {
        "details": "See {IERC20-totalSupply}."
      },
      "transfer(address,uint256)": {
        "details": "See {IERC20-transfer}. Requirements: - `recipient` cannot be the zero address. - the caller must have a balance of at least `amount`."
      },
      "transferFrom(address,address,uint256)": {
        "details": "See {IERC20-transferFrom}. Emits an {Approval} event indicating the updated allowance. This is not required by the EIP. See the note at the beginning of {ERC20}. Requirements: - `sender` and `recipient` cannot be the zero address. - `sender` must have a balance of at least `amount`. - the caller must have allowance for ``sender``'s tokens of at least `amount`."
      },
      "unpause()": {
        "details": "Returns to normal state. Requirements: - The contract must be paused."
      }
    },
    "version": 1
  },
  "userdoc": {
    "kind": "user",
    "methods": {},
    "version": 1
  }
}