{
  "contractName": "TimeLock",
  "abi": [
    {
      "anonymous": false,
      "inputs": [
        {
          "indexed": true,
          "internalType": "address",
          "name": "owner",
          "type": "address"
        },
        {
          "indexed": true,
          "internalType": "address",
          "name": "spender",
          "type": "address"
        },
        {
          "indexed": false,
          "internalType": "uint256",
          "name": "value",
          "type": "uint256"
        }
      ],
      "name": "Approval",
      "type": "event"
    },
    {
      "anonymous": false,
      "inputs": [
        {
          "indexed": false,
          "internalType": "address",
          "name": "account",
          "type": "address"
        }
      ],
      "name": "Paused",
      "type": "event"
    },
    {
      "anonymous": false,
      "inputs": [
        {
          "indexed": true,
          "internalType": "address",
          "name": "from",
          "type": "address"
        },
        {
          "indexed": true,
          "internalType": "address",
          "name": "to",
          "type": "address"
        },
        {
          "indexed": false,
          "internalType": "uint256",
          "name": "value",
          "type": "uint256"
        }
      ],
      "name": "Transfer",
      "type": "event"
    },
    {
      "anonymous": false,
      "inputs": [
        {
          "indexed": false,
          "internalType": "address",
          "name": "account",
          "type": "address"
        }
      ],
      "name": "Unpaused",
      "type": "event"
    },
    {
      "inputs": [],
      "name": "_totalSupply",
      "outputs": [
        {
          "internalType": "uint256",
          "name": "",
          "type": "uint256"
        }
      ],
      "stateMutability": "view",
      "type": "function"
    },
    {
      "inputs": [],
      "name": "address1",
      "outputs": [
        {
          "internalType": "address",
          "name": "",
          "type": "address"
        }
      ],
      "stateMutability": "view",
      "type": "function"
    },
    {
      "inputs": [],
      "name": "address2",
      "outputs": [
        {
          "internalType": "address",
          "name": "",
          "type": "address"
        }
      ],
      "stateMutability": "view",
      "type": "function"
    },
    {
      "inputs": [],
      "name": "address3",
      "outputs": [
        {
          "internalType": "address",
          "name": "",
          "type": "address"
        }
      ],
      "stateMutability": "view",
      "type": "function"
    },
    {
      "inputs": [],
      "name": "address4",
      "outputs": [
        {
          "internalType": "address",
          "name": "",
          "type": "address"
        }
      ],
      "stateMutability": "view",
      "type": "function"
    },
    {
      "inputs": [],
      "name": "address5",
      "outputs": [
        {
          "internalType": "address",
          "name": "",
          "type": "address"
        }
      ],
      "stateMutability": "view",
      "type": "function"
    },
    {
      "inputs": [
        {
          "internalType": "address",
          "name": "owner",
          "type": "address"
        },
        {
          "internalType": "address",
          "name": "spender",
          "type": "address"
        }
      ],
      "name": "allowance",
      "outputs": [
        {
          "internalType": "uint256",
          "name": "",
          "type": "uint256"
        }
      ],
      "stateMutability": "view",
      "type": "function"
    },
    {
      "inputs": [
        {
          "internalType": "address",
          "name": "spender",
          "type": "address"
        },
        {
          "internalType": "uint256",
          "name": "amount",
          "type": "uint256"
        }
      ],
      "name": "approve",
      "outputs": [
        {
          "internalType": "bool",
          "name": "",
          "type": "bool"
        }
      ],
      "stateMutability": "nonpayable",
      "type": "function"
    },
    {
      "inputs": [
        {
          "internalType": "address",
          "name": "account",
          "type": "address"
        }
      ],
      "name": "balanceOf",
      "outputs": [
        {
          "internalType": "uint256",
          "name": "",
          "type": "uint256"
        }
      ],
      "stateMutability": "view",
      "type": "function"
    },
    {
      "inputs": [],
      "name": "beneficiary",
      "outputs": [
        {
          "internalType": "address",
          "name": "",
          "type": "address"
        }
      ],
      "stateMutability": "view",
      "type": "function"
    },
    {
      "inputs": [],
      "name": "decimals",
      "outputs": [
        {
          "internalType": "uint8",
          "name": "",
          "type": "uint8"
        }
      ],
      "stateMutability": "view",
      "type": "function"
    },
    {
      "inputs": [
        {
          "internalType": "address",
          "name": "spender",
          "type": "address"
        },
        {
          "internalType": "uint256",
          "name": "subtractedValue",
          "type": "uint256"
        }
      ],
      "name": "decreaseAllowance",
      "outputs": [
        {
          "internalType": "bool",
          "name": "",
          "type": "bool"
        }
      ],
      "stateMutability": "nonpayable",
      "type": "function"
    },
    {
      "inputs": [
        {
          "internalType": "address",
          "name": "spender",
          "type": "address"
        },
        {
          "internalType": "uint256",
          "name": "addedValue",
          "type": "uint256"
        }
      ],
      "name": "increaseAllowance",
      "outputs": [
        {
          "internalType": "bool",
          "name": "",
          "type": "bool"
        }
      ],
      "stateMutability": "nonpayable",
      "type": "function"
    },
    {
      "inputs": [],
      "name": "name",
      "outputs": [
        {
          "internalType": "string",
          "name": "",
          "type": "string"
        }
      ],
      "stateMutability": "view",
      "type": "function"
    },
    {
      "inputs": [],
      "name": "paused",
      "outputs": [
        {
          "internalType": "bool",
          "name": "",
          "type": "bool"
        }
      ],
      "stateMutability": "view",
      "type": "function"
    },
    {
      "inputs": [],
      "name": "release",
      "outputs": [],
      "stateMutability": "nonpayable",
      "type": "function"
    },
    {
      "inputs": [],
      "name": "releaseTime",
      "outputs": [
        {
          "internalType": "uint256",
          "name": "",
          "type": "uint256"
        }
      ],
      "stateMutability": "view",
      "type": "function"
    },
    {
      "inputs": [],
      "name": "symbol",
      "outputs": [
        {
          "internalType": "string",
          "name": "",
          "type": "string"
        }
      ],
      "stateMutability": "view",
      "type": "function"
    },
    {
      "inputs": [],
      "name": "token",
      "outputs": [
        {
          "internalType": "contract IERC20Upgradeable",
          "name": "",
          "type": "address"
        }
      ],
      "stateMutability": "view",
      "type": "function"
    },
    {
      "inputs": [],
      "name": "totalSupply",
      "outputs": [
        {
          "internalType": "uint256",
          "name": "",
          "type": "uint256"
        }
      ],
      "stateMutability": "view",
      "type": "function"
    },
    {
      "inputs": [
        {
          "internalType": "address",
          "name": "recipient",
          "type": "address"
        },
        {
          "internalType": "uint256",
          "name": "amount",
          "type": "uint256"
        }
      ],
      "name": "transfer",
      "outputs": [
        {
          "internalType": "bool",
          "name": "",
          "type": "bool"
        }
      ],
      "stateMutability": "nonpayable",
      "type": "function"
    },
    {
      "inputs": [
        {
          "internalType": "address",
          "name": "sender",
          "type": "address"
        },
        {
          "internalType": "address",
          "name": "recipient",
          "type": "address"
        },
        {
          "internalType": "uint256",
          "name": "amount",
          "type": "uint256"
        }
      ],
      "name": "transferFrom",
      "outputs": [
        {
          "internalType": "bool",
          "name": "",
          "type": "bool"
        }
      ],
      "stateMutability": "nonpayable",
      "type": "function"
    },
    {
      "inputs": [],
      "name": "initialize",
      "outputs": [],
      "stateMutability": "nonpayable",
      "type": "function"
    },
    {
      "inputs": [],
      "name": "pause",
      "outputs": [
        {
          "internalType": "bool",
          "name": "success",
          "type": "bool"
        }
      ],
      "stateMutability": "nonpayable",
      "type": "function"
    },
    {
      "inputs": [],
      "name": "unpause",
      "outputs": [
        {
          "internalType": "bool",
          "name": "success",
          "type": "bool"
        }
      ],
      "stateMutability": "nonpayable",
      "type": "function"
    }
  ],
  "bytecode": "0x60806040526305f5e10060ca5534801561001857600080fd5b506118b7806100286000396000f3fe608060405234801561001057600080fd5b50600436106101735760003560e01c80635c975abb116100de5780639eea4a3a11610097578063a9059cbb11610071578063a9059cbb146103a7578063b91d4001146103d3578063dd62ed3e146103db578063fc0c546a1461040957610173565b80639eea4a3a1461036b578063a1c2f64414610373578063a457c2d71461037b57610173565b80635c975abb1461031b57806370a08231146103235780638129fc1c146103495780638456cb591461035357806386d1a69f1461035b57806395d89b411461036357610173565b8063313ce56711610130578063313ce567146102b157806338af3eed146102cf57806339509351146102d75780633a36399e146103035780633eaaf86b1461030b5780633f4ba83a1461031357610173565b806306fdde0314610178578063095ea7b3146101f55780630e4170551461023557806318160ddd146102595780631e38046c1461027357806323b872dd1461027b575b600080fd5b610180610411565b6040805160208082528351818301528351919283929083019185019080838360005b838110156101ba5781810151838201526020016101a2565b50505050905090810190601f1680156101e75780820380516001836020036101000a031916815260200191505b509250505060405180910390f35b6102216004803603604081101561020b57600080fd5b506001600160a01b0381351690602001356104a7565b604080519115158252519081900360200190f35b61023d6104c4565b604080516001600160a01b039092168252519081900360200190f35b6102616104dc565b60408051918252519081900360200190f35b61023d6104e2565b6102216004803603606081101561029157600080fd5b506001600160a01b038135811691602081013590911690604001356104fa565b6102b9610582565b6040805160ff9092168252519081900360200190f35b61023d61058b565b610221600480360360408110156102ed57600080fd5b506001600160a01b03813516906020013561059a565b61023d6105e8565b610261610600565b610221610606565b610221610616565b6102616004803603602081101561033957600080fd5b50356001600160a01b031661061f565b61035161063a565b005b6102216108c2565b6103516108cc565b6101806109f6565b61023d610a57565b61023d610a6f565b6102216004803603604081101561039157600080fd5b506001600160a01b038135169060200135610a87565b610221600480360360408110156103bd57600080fd5b506001600160a01b038135169060200135610aef565b610261610b03565b610261600480360360408110156103f157600080fd5b506001600160a01b0381358116916020013516610b09565b61023d610b34565b60368054604080516020601f600260001961010060018816150201909516949094049384018190048102820181019092528281526060939092909183018282801561049d5780601f106104725761010080835404028352916020019161049d565b820191906000526020600020905b81548152906001019060200180831161048057829003601f168201915b5050505050905090565b60006104bb6104b4610b43565b8484610b47565b50600192915050565b737019943ca5e81d10efa8acdd68b0b67eb4b0a9f681565b60355490565b73e3355d5ad5f8dcdca879230e85ef0aaee6f28d0b81565b6000610507848484610c33565b61057784610513610b43565b6105728560405180606001604052806028815260200161179f602891396001600160a01b038a16600090815260346020526040812090610551610b43565b6001600160a01b031681526020810191909152604001600020549190610d90565b610b47565b5060015b9392505050565b60385460ff1690565b6098546001600160a01b031690565b60006104bb6105a7610b43565b8461057285603460006105b8610b43565b6001600160a01b03908116825260208083019390935260409182016000908120918c168152925290205490610e27565b733f5fdb1c4b40b04f54082482dcbf9732c1199eb681565b60ca5481565b6000610610610e81565b50600190565b60655460ff1690565b6001600160a01b031660009081526033602052604090205490565b600054610100900460ff16806106535750610653610f21565b80610661575060005460ff16155b61069c5760405162461bcd60e51b815260040180806020018281038252602e815260200180611771602e913960400191505060405180910390fd5b600054610100900460ff161580156106c7576000805460ff1961ff0019909116610100171660011790555b60c960209081526302faf0807fe4bf8f0b038207494e47749d9161d05cc54ca53627bf12276d09692e03bfb0615560007fe4bf8f0b038207494e47749d9161d05cc54ca53627bf12276d09692e03bfb062819055629896807fb5314624fde721bc34019ffa1648f6146a44b2f68fb44bdb7f6ea08a78ee35a081905562ed4e0042017fb5314624fde721bc34019ffa1648f6146a44b2f68fb44bdb7f6ea08a78ee35a18190557f13e5c729e849993fadc99b740c0516e77b655c045548c745ff624c87de9576c58290557f13e5c729e849993fadc99b740c0516e77b655c045548c745ff624c87de9576c6557f3f972c68b4e8c81370184c3a415289e0486343dc696925c1e0dea105bd4f78d78190557f3f972c68b4e8c81370184c3a415289e0486343dc696925c1e0dea105bd4f78d8829055737019943ca5e81d10efa8acdd68b0b67eb4b0a9f682527f6073e7d18cac3936daba007dd75e92ac886116c5e4ef14229eba070ff8df703a557f6073e7d18cac3936daba007dd75e92ac886116c5e4ef14229eba070ff8df703b556040805180820182526012815271705354414b45205374616b65642041544f4d60701b818401528151808301909252600782526673746b41544f4d60c81b928201929092526108a59190610f32565b6108ad610fe8565b80156108bf576000805461ff00191690555b50565b6000610610611085565b6108d4610b03565b4210156109125760405162461bcd60e51b81526004018080602001828103825260328152602001806116ae6032913960400191505060405180910390fd5b600061091c610b34565b6001600160a01b03166370a08231306040518263ffffffff1660e01b815260040180826001600160a01b0316815260200191505060206040518083038186803b15801561096857600080fd5b505afa15801561097c573d6000803e3d6000fd5b505050506040513d602081101561099257600080fd5b50519050806109d25760405162461bcd60e51b815260040180806020018281038252602381526020018061185f6023913960400191505060405180910390fd5b6108bf6109dd61058b565b826109e6610b34565b6001600160a01b03169190611108565b60378054604080516020601f600260001961010060018816150201909516949094049384018190048102820181019092528281526060939092909183018282801561049d5780601f106104725761010080835404028352916020019161049d565b73528b19d24426c4a78d0fdc0933c3f91c87102ada81565b73768d4c50c9d4db6f12bb47581e4c1823ad9ecb4981565b60006104bb610a94610b43565b846105728560405180606001604052806025815260200161183a6025913960346000610abe610b43565b6001600160a01b03908116825260208083019390935260409182016000908120918d16815292529020549190610d90565b60006104bb610afc610b43565b8484610c33565b60995490565b6001600160a01b03918216600090815260346020908152604080832093909416825291909152205490565b6097546001600160a01b031690565b3390565b6001600160a01b038316610b8c5760405162461bcd60e51b81526004018080602001828103825260248152602001806117ec6024913960400191505060405180910390fd5b6001600160a01b038216610bd15760405162461bcd60e51b81526004018080602001828103825260228152602001806117036022913960400191505060405180910390fd5b6001600160a01b03808416600081815260346020908152604080832094871680845294825291829020859055815185815291517f8c5be1e5ebec7d5bd14f71427d1e84f3dd0314c0f7b2291e5b200ac8c7c3b9259281900390910190a3505050565b6001600160a01b038316610c785760405162461bcd60e51b81526004018080602001828103825260258152602001806117c76025913960400191505060405180910390fd5b6001600160a01b038216610cbd5760405162461bcd60e51b81526004018080602001828103825260238152602001806116e06023913960400191505060405180910390fd5b610cc8838383610fe3565b610d0581604051806060016040528060268152602001611725602691396001600160a01b0386166000908152603360205260409020549190610d90565b6001600160a01b038085166000908152603360205260408082209390935590841681522054610d349082610e27565b6001600160a01b0380841660008181526033602090815260409182902094909455805185815290519193928716927fddf252ad1be2c89b69c2b068fc378daa952ba7f163c4a11628f55a4df523b3ef92918290030190a3505050565b60008184841115610e1f5760405162461bcd60e51b81526004018080602001828103825283818151815260200191508051906020019080838360005b83811015610de4578181015183820152602001610dcc565b50505050905090810190601f168015610e115780820380516001836020036101000a031916815260200191505b509250505060405180910390fd5b505050900390565b60008282018381101561057b576040805162461bcd60e51b815260206004820152601b60248201527f536166654d6174683a206164646974696f6e206f766572666c6f770000000000604482015290519081900360640190fd5b610e89610616565b610ed1576040805162461bcd60e51b815260206004820152601460248201527314185d5cd8589b194e881b9bdd081c185d5cd95960621b604482015290519081900360640190fd5b6065805460ff191690557f5db9ee0a495bf2e6ff9c91a7834c1ba4fdd244a5e8aa4e537bd38aeae4b073aa610f04610b43565b604080516001600160a01b039092168252519081900360200190a1565b6000610f2c3061115a565b15905090565b600054610100900460ff1680610f4b5750610f4b610f21565b80610f59575060005460ff16155b610f945760405162461bcd60e51b815260040180806020018281038252602e815260200180611771602e913960400191505060405180910390fd5b600054610100900460ff16158015610fbf576000805460ff1961ff0019909116610100171660011790555b610fc7611160565b610fd18383611200565b8015610fe3576000805461ff00191690555b505050565b600054610100900460ff16806110015750611001610f21565b8061100f575060005460ff16155b61104a5760405162461bcd60e51b815260040180806020018281038252602e815260200180611771602e913960400191505060405180910390fd5b600054610100900460ff16158015611075576000805460ff1961ff0019909116610100171660011790555b61107d611160565b6108ad6112d8565b61108d610616565b156110d2576040805162461bcd60e51b815260206004820152601060248201526f14185d5cd8589b194e881c185d5cd95960821b604482015290519081900360640190fd5b6065805460ff191660011790557f62e78cea01bee320cd4e420270b5ea74000d11b0c9f74754ebdbfc544b05a258610f04610b43565b604080516001600160a01b038416602482015260448082018490528251808303909101815260649091019091526020810180516001600160e01b031663a9059cbb60e01b179052610fe3908490611383565b3b151590565b600054610100900460ff16806111795750611179610f21565b80611187575060005460ff16155b6111c25760405162461bcd60e51b815260040180806020018281038252602e815260200180611771602e913960400191505060405180910390fd5b600054610100900460ff161580156108ad576000805460ff1961ff00199091166101001716600117905580156108bf576000805461ff001916905550565b600054610100900460ff16806112195750611219610f21565b80611227575060005460ff16155b6112625760405162461bcd60e51b815260040180806020018281038252602e815260200180611771602e913960400191505060405180910390fd5b600054610100900460ff1615801561128d576000805460ff1961ff0019909116610100171660011790555b82516112a090603690602086019061160c565b5081516112b490603790602085019061160c565b506038805460ff191660121790558015610fe3576000805461ff0019169055505050565b600054610100900460ff16806112f157506112f1610f21565b806112ff575060005460ff16155b61133a5760405162461bcd60e51b815260040180806020018281038252602e815260200180611771602e913960400191505060405180910390fd5b600054610100900460ff16158015611365576000805460ff1961ff0019909116610100171660011790555b6065805460ff1916905580156108bf576000805461ff001916905550565b60006113d8826040518060400160405280602081526020017f5361666545524332303a206c6f772d6c6576656c2063616c6c206661696c6564815250856001600160a01b03166114349092919063ffffffff16565b805190915015610fe3578080602001905160208110156113f757600080fd5b5051610fe35760405162461bcd60e51b815260040180806020018281038252602a815260200180611810602a913960400191505060405180910390fd5b6060611443848460008561144b565b949350505050565b60608247101561148c5760405162461bcd60e51b815260040180806020018281038252602681526020018061174b6026913960400191505060405180910390fd5b6114958561115a565b6114e6576040805162461bcd60e51b815260206004820152601d60248201527f416464726573733a2063616c6c20746f206e6f6e2d636f6e7472616374000000604482015290519081900360640190fd5b600080866001600160a01b031685876040518082805190602001908083835b602083106115245780518252601f199092019160209182019101611505565b6001836020036101000a03801982511681845116808217855250505050505090500191505060006040518083038185875af1925050503d8060008114611586576040519150601f19603f3d011682016040523d82523d6000602084013e61158b565b606091505b509150915061159b8282866115a6565b979650505050505050565b606083156115b557508161057b565b8251156115c55782518084602001fd5b60405162461bcd60e51b8152602060048201818152845160248401528451859391928392604401919085019080838360008315610de4578181015183820152602001610dcc565b828054600181600116156101000203166002900490600052602060002090601f0160209004810192826116425760008555611688565b82601f1061165b57805160ff1916838001178555611688565b82800160010185558215611688579182015b8281111561168857825182559160200191906001019061166d565b50611694929150611698565b5090565b5b80821115611694576000815560010161169956fe546f6b656e54696d656c6f636b3a2063757272656e742074696d65206973206265666f72652072656c656173652074696d6545524332303a207472616e7366657220746f20746865207a65726f206164647265737345524332303a20617070726f766520746f20746865207a65726f206164647265737345524332303a207472616e7366657220616d6f756e7420657863656564732062616c616e6365416464726573733a20696e73756666696369656e742062616c616e636520666f722063616c6c496e697469616c697a61626c653a20636f6e747261637420697320616c726561647920696e697469616c697a656445524332303a207472616e7366657220616d6f756e74206578636565647320616c6c6f77616e636545524332303a207472616e736665722066726f6d20746865207a65726f206164647265737345524332303a20617070726f76652066726f6d20746865207a65726f20616464726573735361666545524332303a204552433230206f7065726174696f6e20646964206e6f74207375636365656445524332303a2064656372656173656420616c6c6f77616e63652062656c6f77207a65726f546f6b656e54696d656c6f636b3a206e6f20746f6b656e7320746f2072656c65617365a264697066735822122063b4d7269f4d42199392387daaed8bc696c3330bd1f20407e9b13d5344be625064736f6c63430007060033",
  "immutableReferences": {},
  "source": "// SPDX-License-Identifier: UNLICENSED\npragma solidity ^0.7.0;\n\nimport \"@openzeppelin/contracts-upgradeable/token/ERC20/ERC20Upgradeable.sol\";\nimport \"@openzeppelin/contracts-upgradeable/math/SafeMathUpgradeable.sol\";\nimport \"@openzeppelin/contracts-upgradeable/utils/PausableUpgradeable.sol\";\nimport \"@openzeppelin/contracts-upgradeable/token/ERC20/TokenTimelockUpgradeable.sol\";\n\ncontract TimeLock is ERC20Upgradeable, PausableUpgradeable, TokenTimelockUpgradeable {\n\n    using SafeMathUpgradeable for uint256;\n\n    struct lockData\n    {\n        uint balance;\n        uint releaseTime;\n    }\n\n\n    mapping (address => lockData) accounts;\n\n    uint256 public _totalSupply = 100000000;\n\n    address constant public address1 = 0x3F5fdb1c4B40b04f54082482DCBF9732c1199eB6;\n    address constant public address2 = 0x528B19d24426C4A78D0fDC0933c3F91C87102adA;\n    address constant public address3 = 0xe3355d5AD5f8dCdca879230e85eF0AaeE6f28d0B;\n    address constant public address4 = 0x768D4C50C9D4Db6f12Bb47581E4c1823Ad9eCB49;\n    address constant public address5 = 0x7019943Ca5E81d10EFA8ACdd68B0B67Eb4B0a9f6;\n\n\n    /**\n   * @dev Constructor for initializing the TimeLock contract.\n   */\n    function initialize() public virtual initializer {\n        accounts[address1].balance = 50000000;\n        accounts[address1].releaseTime = 0;\n\n        accounts[address2].balance = 10000000;\n        accounts[address2].releaseTime = block.timestamp + 180 days;\n\n        accounts[address3].balance = 10000000;\n        accounts[address3].releaseTime = block.timestamp + 180 days;\n\n        accounts[address4].balance = 10000000;\n        accounts[address4].releaseTime = 0;\n\n        accounts[address5].balance = 10000000;\n        accounts[address5].releaseTime = 0;\n\n\n        __ERC20_init(\"pSTAKE Staked ATOM\", \"stkATOM\");\n        __Pausable_init();\n        // __TokenTimelock_init(accounts, address2, (now + 180 days));\n    }\n\n    /**\n     * @dev Triggers stopped state.\n     *\n     * Requirements:\n     *\n     * - The contract must not be paused.\n     */\n    function pause() public virtual returns (bool success) {\n        _pause();\n        return true;\n    }\n\n    /**\n     * @dev Returns to normal state.\n     *\n     * Requirements:\n     *\n     * - The contract must be paused.\n     */\n    function unpause() public virtual returns (bool success) {\n        _unpause();\n        return true;\n    }\n}",
  "sourcePath": "/home/aditimahesh/Documents/Work/Persistence/go/src/github.com/persistenceOne/pStakeSmartContracts/contracts/TokenTimelock.sol",
  "compiler": {
    "name": "solc",
    "version": "0.7.6+commit.7338295f.Emscripten.clang"
  },
  "schemaVersion": "3.3.4",
  "updatedAt": "2021-03-31T06:22:37.409Z",
  "devdoc": {
    "kind": "dev",
    "methods": {
      "allowance(address,address)": {
        "details": "See {IERC20-allowance}."
      },
      "approve(address,uint256)": {
        "details": "See {IERC20-approve}. Requirements: - `spender` cannot be the zero address."
      },
      "balanceOf(address)": {
        "details": "See {IERC20-balanceOf}."
      },
      "beneficiary()": {
        "returns": {
          "_0": "the beneficiary of the tokens."
        }
      },
      "decimals()": {
        "details": "Returns the number of decimals used to get its user representation. For example, if `decimals` equals `2`, a balance of `505` tokens should be displayed to a user as `5,05` (`505 / 10 ** 2`). Tokens usually opt for a value of 18, imitating the relationship between Ether and Wei. This is the value {ERC20} uses, unless {_setupDecimals} is called. NOTE: This information is only used for _display_ purposes: it in no way affects any of the arithmetic of the contract, including {IERC20-balanceOf} and {IERC20-transfer}."
      },
      "decreaseAllowance(address,uint256)": {
        "details": "Atomically decreases the allowance granted to `spender` by the caller. This is an alternative to {approve} that can be used as a mitigation for problems described in {IERC20-approve}. Emits an {Approval} event indicating the updated allowance. Requirements: - `spender` cannot be the zero address. - `spender` must have allowance for the caller of at least `subtractedValue`."
      },
      "increaseAllowance(address,uint256)": {
        "details": "Atomically increases the allowance granted to `spender` by the caller. This is an alternative to {approve} that can be used as a mitigation for problems described in {IERC20-approve}. Emits an {Approval} event indicating the updated allowance. Requirements: - `spender` cannot be the zero address."
      },
      "initialize()": {
        "details": "Constructor for initializing the TimeLock contract."
      },
      "name()": {
        "details": "Returns the name of the token."
      },
      "pause()": {
        "details": "Triggers stopped state. Requirements: - The contract must not be paused."
      },
      "paused()": {
        "details": "Returns true if the contract is paused, and false otherwise."
      },
      "releaseTime()": {
        "returns": {
          "_0": "the time when the tokens are released."
        }
      },
      "symbol()": {
        "details": "Returns the symbol of the token, usually a shorter version of the name."
      },
      "token()": {
        "returns": {
          "_0": "the token being held."
        }
      },
      "totalSupply()": {
        "details": "See {IERC20-totalSupply}."
      },
      "transfer(address,uint256)": {
        "details": "See {IERC20-transfer}. Requirements: - `recipient` cannot be the zero address. - the caller must have a balance of at least `amount`."
      },
      "transferFrom(address,address,uint256)": {
        "details": "See {IERC20-transferFrom}. Emits an {Approval} event indicating the updated allowance. This is not required by the EIP. See the note at the beginning of {ERC20}. Requirements: - `sender` and `recipient` cannot be the zero address. - `sender` must have a balance of at least `amount`. - the caller must have allowance for ``sender``'s tokens of at least `amount`."
      },
      "unpause()": {
        "details": "Returns to normal state. Requirements: - The contract must be paused."
      }
    },
    "version": 1
  },
  "userdoc": {
    "kind": "user",
    "methods": {
      "release()": {
        "notice": "Transfers tokens held by timelock to beneficiary."
      }
    },
    "version": 1
  }
}