{
  "contractName": "TokenWrapper",
  "abi": [
    {
      "anonymous": false,
      "inputs": [
        {
          "indexed": true,
          "internalType": "address",
          "name": "accountAddress",
          "type": "address"
        },
        {
          "indexed": false,
          "internalType": "uint256",
          "name": "tokens",
          "type": "uint256"
        },
        {
          "indexed": false,
          "internalType": "uint256",
          "name": "timestamp",
          "type": "uint256"
        }
      ],
      "name": "GenerateUTokens",
      "type": "event"
    },
    {
      "anonymous": false,
      "inputs": [
        {
          "indexed": false,
          "internalType": "address",
          "name": "account",
          "type": "address"
        }
      ],
      "name": "Paused",
      "type": "event"
    },
    {
      "anonymous": false,
      "inputs": [
        {
          "indexed": true,
          "internalType": "bytes32",
          "name": "role",
          "type": "bytes32"
        },
        {
          "indexed": true,
          "internalType": "bytes32",
          "name": "previousAdminRole",
          "type": "bytes32"
        },
        {
          "indexed": true,
          "internalType": "bytes32",
          "name": "newAdminRole",
          "type": "bytes32"
        }
      ],
      "name": "RoleAdminChanged",
      "type": "event"
    },
    {
      "anonymous": false,
      "inputs": [
        {
          "indexed": true,
          "internalType": "bytes32",
          "name": "role",
          "type": "bytes32"
        },
        {
          "indexed": true,
          "internalType": "address",
          "name": "account",
          "type": "address"
        },
        {
          "indexed": true,
          "internalType": "address",
          "name": "sender",
          "type": "address"
        }
      ],
      "name": "RoleGranted",
      "type": "event"
    },
    {
      "anonymous": false,
      "inputs": [
        {
          "indexed": true,
          "internalType": "bytes32",
          "name": "role",
          "type": "bytes32"
        },
        {
          "indexed": true,
          "internalType": "address",
          "name": "account",
          "type": "address"
        },
        {
          "indexed": true,
          "internalType": "address",
          "name": "sender",
          "type": "address"
        }
      ],
      "name": "RoleRevoked",
      "type": "event"
    },
    {
      "anonymous": false,
      "inputs": [
        {
          "indexed": true,
          "internalType": "address",
          "name": "_contract",
          "type": "address"
        }
      ],
      "name": "SetContract",
      "type": "event"
    },
    {
      "anonymous": false,
      "inputs": [
        {
          "indexed": false,
          "internalType": "address",
          "name": "account",
          "type": "address"
        }
      ],
      "name": "Unpaused",
      "type": "event"
    },
    {
      "anonymous": false,
      "inputs": [
        {
          "indexed": true,
          "internalType": "address",
          "name": "accountAddress",
          "type": "address"
        },
        {
          "indexed": false,
          "internalType": "uint256",
          "name": "tokens",
          "type": "uint256"
        },
        {
          "indexed": false,
          "internalType": "string",
          "name": "toAtomAddress",
          "type": "string"
        },
        {
          "indexed": false,
          "internalType": "uint256",
          "name": "timestamp",
          "type": "uint256"
        }
      ],
      "name": "WithdrawUTokens",
      "type": "event"
    },
    {
      "inputs": [],
      "name": "BRIDGE_ADMIN_ROLE",
      "outputs": [
        {
          "internalType": "bytes32",
          "name": "",
          "type": "bytes32"
        }
      ],
      "stateMutability": "view",
      "type": "function"
    },
    {
      "inputs": [],
      "name": "DEFAULT_ADMIN_ROLE",
      "outputs": [
        {
          "internalType": "bytes32",
          "name": "",
          "type": "bytes32"
        }
      ],
      "stateMutability": "view",
      "type": "function"
    },
    {
      "inputs": [],
      "name": "PAUSER_ROLE",
      "outputs": [
        {
          "internalType": "bytes32",
          "name": "",
          "type": "bytes32"
        }
      ],
      "stateMutability": "view",
      "type": "function"
    },
    {
      "inputs": [
        {
          "internalType": "bytes32",
          "name": "role",
          "type": "bytes32"
        }
      ],
      "name": "getRoleAdmin",
      "outputs": [
        {
          "internalType": "bytes32",
          "name": "",
          "type": "bytes32"
        }
      ],
      "stateMutability": "view",
      "type": "function"
    },
    {
      "inputs": [
        {
          "internalType": "bytes32",
          "name": "role",
          "type": "bytes32"
        },
        {
          "internalType": "uint256",
          "name": "index",
          "type": "uint256"
        }
      ],
      "name": "getRoleMember",
      "outputs": [
        {
          "internalType": "address",
          "name": "",
          "type": "address"
        }
      ],
      "stateMutability": "view",
      "type": "function"
    },
    {
      "inputs": [
        {
          "internalType": "bytes32",
          "name": "role",
          "type": "bytes32"
        }
      ],
      "name": "getRoleMemberCount",
      "outputs": [
        {
          "internalType": "uint256",
          "name": "",
          "type": "uint256"
        }
      ],
      "stateMutability": "view",
      "type": "function"
    },
    {
      "inputs": [
        {
          "internalType": "bytes32",
          "name": "role",
          "type": "bytes32"
        },
        {
          "internalType": "address",
          "name": "account",
          "type": "address"
        }
      ],
      "name": "grantRole",
      "outputs": [],
      "stateMutability": "nonpayable",
      "type": "function"
    },
    {
      "inputs": [
        {
          "internalType": "bytes32",
          "name": "role",
          "type": "bytes32"
        },
        {
          "internalType": "address",
          "name": "account",
          "type": "address"
        }
      ],
      "name": "hasRole",
      "outputs": [
        {
          "internalType": "bool",
          "name": "",
          "type": "bool"
        }
      ],
      "stateMutability": "view",
      "type": "function"
    },
    {
      "inputs": [],
      "name": "paused",
      "outputs": [
        {
          "internalType": "bool",
          "name": "",
          "type": "bool"
        }
      ],
      "stateMutability": "view",
      "type": "function"
    },
    {
      "inputs": [
        {
          "internalType": "bytes32",
          "name": "role",
          "type": "bytes32"
        },
        {
          "internalType": "address",
          "name": "account",
          "type": "address"
        }
      ],
      "name": "renounceRole",
      "outputs": [],
      "stateMutability": "nonpayable",
      "type": "function"
    },
    {
      "inputs": [
        {
          "internalType": "bytes32",
          "name": "role",
          "type": "bytes32"
        },
        {
          "internalType": "address",
          "name": "account",
          "type": "address"
        }
      ],
      "name": "revokeRole",
      "outputs": [],
      "stateMutability": "nonpayable",
      "type": "function"
    },
    {
      "inputs": [
        {
          "internalType": "address",
          "name": "uAddress",
          "type": "address"
        },
        {
          "internalType": "address",
          "name": "sAddress",
          "type": "address"
        },
        {
          "internalType": "address",
          "name": "bridgeAdminAddress",
          "type": "address"
        },
        {
          "internalType": "address",
          "name": "pauserAddress",
          "type": "address"
        }
      ],
      "name": "initialize",
      "outputs": [],
      "stateMutability": "nonpayable",
      "type": "function"
    },
    {
      "inputs": [
        {
          "internalType": "address",
          "name": "uAddress",
          "type": "address"
        }
      ],
      "name": "setUTokensContract",
      "outputs": [],
      "stateMutability": "nonpayable",
      "type": "function"
    },
    {
      "inputs": [
        {
          "internalType": "address",
          "name": "sAddress",
          "type": "address"
        }
      ],
      "name": "setSTokensContract",
      "outputs": [],
      "stateMutability": "nonpayable",
      "type": "function"
    },
    {
      "inputs": [
        {
          "internalType": "address",
          "name": "liquidStakingContract",
          "type": "address"
        }
      ],
      "name": "setLiquidStakingContract",
      "outputs": [],
      "stateMutability": "nonpayable",
      "type": "function"
    },
    {
      "inputs": [],
      "name": "pause",
      "outputs": [
        {
          "internalType": "bool",
          "name": "success",
          "type": "bool"
        }
      ],
      "stateMutability": "nonpayable",
      "type": "function"
    },
    {
      "inputs": [],
      "name": "unpause",
      "outputs": [
        {
          "internalType": "bool",
          "name": "success",
          "type": "bool"
        }
      ],
      "stateMutability": "nonpayable",
      "type": "function"
    },
    {
      "inputs": [
        {
          "internalType": "address",
          "name": "to",
          "type": "address"
        },
        {
          "internalType": "uint256",
          "name": "amount",
          "type": "uint256"
        }
      ],
      "name": "generateUTokens",
      "outputs": [],
      "stateMutability": "nonpayable",
      "type": "function"
    },
    {
      "inputs": [
        {
          "internalType": "address",
          "name": "from",
          "type": "address"
        },
        {
          "internalType": "uint256",
          "name": "tokens",
          "type": "uint256"
        },
        {
          "internalType": "string",
          "name": "toAtomAddress",
          "type": "string"
        }
      ],
      "name": "withdrawUTokens",
      "outputs": [],
      "stateMutability": "nonpayable",
      "type": "function"
    }
  ],
  "bytecode": "0x608060405234801561001057600080fd5b506117ad806100206000396000f3fe608060405234801561001057600080fd5b50600436106101215760003560e01c806358f8943e116100ad578063a217fddf11610071578063a217fddf146103a7578063ca15c873146103af578063d547741f146103cc578063e63ab1e9146103f8578063f8c8765e1461040057610121565b806358f8943e146103065780635c975abb1461032c5780638456cb59146103345780639010d07c1461033c57806391d148541461037b57610121565b80632e31fab8116100f45780632e31fab8146101b15780632f2ff15d146101d757806336568abe146102035780633f4ba83a1461022f578063428bee9e1461024b57610121565b8063118c38c71461012657806321bdf9e51461014057806322dd9bc314610168578063248a9ca314610194575b600080fd5b61012e61043e565b60408051918252519081900360200190f35b6101666004803603602081101561015657600080fd5b50356001600160a01b0316610462565b005b6101666004803603604081101561017e57600080fd5b506001600160a01b038135169060200135610546565b61012e600480360360208110156101aa57600080fd5b5035610701565b610166600480360360208110156101c757600080fd5b50356001600160a01b0316610716565b610166600480360360408110156101ed57600080fd5b50803590602001356001600160a01b03166107f5565b6101666004803603604081101561021957600080fd5b50803590602001356001600160a01b031661085c565b6102376108bd565b604080519115158252519081900360200190f35b6101666004803603606081101561026157600080fd5b6001600160a01b038235169160208101359181019060608101604082013564010000000081111561029157600080fd5b8201836020820111156102a357600080fd5b803590602001918460018302840111640100000000831117156102c557600080fd5b91908080601f016020809104026020016040519081016040528093929190818152602001838380828437600092019190915250929550610922945050505050565b6101666004803603602081101561031c57600080fd5b50356001600160a01b0316610c07565b610237610cbe565b610237610cc7565b61035f6004803603604081101561035257600080fd5b5080359060200135610d26565b604080516001600160a01b039092168252519081900360200190f35b6102376004803603604081101561039157600080fd5b50803590602001356001600160a01b0316610d47565b61012e610d5f565b61012e600480360360208110156103c557600080fd5b5035610d64565b610166600480360360408110156103e257600080fd5b50803590602001356001600160a01b0316610d7b565b61012e610dd4565b6101666004803603608081101561041657600080fd5b506001600160a01b038135811691602081013582169160408201358116916060013516610de6565b7f751b795d24b92e3d92d1d0d8f2885f4e9c9c269da350af36ae6b49069babf4bf81565b61046a610cbe565b156104af576040805162461bcd60e51b815260206004820152601060248201526f14185d5cd8589b194e881c185d5cd95960821b604482015290519081900360640190fd5b6104c160006104bc610f0a565b610d47565b6104fc5760405162461bcd60e51b81526004018080602001828103825260388152602001806116166038913960400191505060405180910390fd5b609780546001600160a01b0319166001600160a01b0383169081179091556040517fd2aadb3cffae0822fd2473c85652a28b2a822a91a93ae700e4dd02a9ca0bb4b590600090a250565b61054e610cbe565b15610593576040805162461bcd60e51b815260206004820152601060248201526f14185d5cd8589b194e881c185d5cd95960821b604482015290519081900360640190fd5b600081116105d25760405162461bcd60e51b81526004018080602001828103825260378152602001806115796037913960400191505060405180910390fd5b6105fe7f751b795d24b92e3d92d1d0d8f2885f4e9c9c269da350af36ae6b49069babf4bf6104bc610f0a565b6106395760405162461bcd60e51b815260040180806020018281038252603e81526020018061149f603e913960400191505060405180910390fd5b6040805182815242602082015281516001600160a01b038516927f06d08f8705b74e3172df8733fc5da269157556d015544994a9759be4693d3ff5928290030190a2609754604080516340c10f1960e01b81526001600160a01b03858116600483015260248201859052915191909216916340c10f199160448083019260209291908290030181600087803b1580156106d157600080fd5b505af11580156106e5573d6000803e3d6000fd5b505050506040513d60208110156106fb57600080fd5b50505050565b60009081526065602052604090206002015490565b61071e610cbe565b15610763576040805162461bcd60e51b815260206004820152601060248201526f14185d5cd8589b194e881c185d5cd95960821b604482015290519081900360640190fd5b61077060006104bc610f0a565b6107ab5760405162461bcd60e51b81526004018080602001828103825260388152602001806115de6038913960400191505060405180910390fd5b609880546001600160a01b0319166001600160a01b0383169081179091556040517fd2aadb3cffae0822fd2473c85652a28b2a822a91a93ae700e4dd02a9ca0bb4b590600090a250565b600082815260656020526040902060020154610813906104bc610f0a565b61084e5760405162461bcd60e51b815260040180806020018281038252602f815260200180611470602f913960400191505060405180910390fd5b6108588282610f0e565b5050565b610864610f0a565b6001600160a01b0316816001600160a01b0316146108b35760405162461bcd60e51b815260040180806020018281038252602f815260200180611715602f913960400191505060405180910390fd5b6108588282610f77565b60006108d960008051602061164e8339815191526104bc610f0a565b6109145760405162461bcd60e51b81526004018080602001828103825260368152602001806116df6036913960400191505060405180910390fd5b61091c610fe0565b50600190565b61092a610cbe565b1561096f576040805162461bcd60e51b815260206004820152601060248201526f14185d5cd8589b194e881c185d5cd95960821b604482015290519081900360640190fd5b600082116109ae5760405162461bcd60e51b815260040180806020018281038252604081526020018061169f6040913960400191505060405180910390fd5b609754604080516370a0823160e01b81526001600160a01b038681166004830152915160009392909216916370a0823191602480820192602092909190829003018186803b1580156109ff57600080fd5b505afa158015610a13573d6000803e3d6000fd5b505050506040513d6020811015610a2957600080fd5b5051905082811015610a6c5760405162461bcd60e51b815260040180806020018281038252602d8152602001806114dd602d913960400191505060405180910390fd5b610a74610f0a565b6001600160a01b0316846001600160a01b031614610ac35760405162461bcd60e51b815260040180806020018281038252603181526020018061166e6031913960400191505060405180910390fd5b60975460408051632770a7eb60e21b81526001600160a01b0387811660048301526024820187905291519190921691639dc29fac9160448083019260209291908290030181600087803b158015610b1957600080fd5b505af1158015610b2d573d6000803e3d6000fd5b505050506040513d6020811015610b4357600080fd5b505060408051848152429181018290526060602082810182815286519284019290925285516001600160a01b038916947fc2db0b30181b3532965e53ba1bdf883b207dccb658a9589865c5a9c91e28b80b9489948994929391929091608084019186019080838360005b83811015610bc5578181015183820152602001610bad565b50505050905090810190601f168015610bf25780820380516001836020036101000a031916815260200191505b5094505050505060405180910390a250505050565b610c0f610cbe565b15610c54576040805162461bcd60e51b815260206004820152601060248201526f14185d5cd8589b194e881c185d5cd95960821b604482015290519081900360640190fd5b610c6160006104bc610f0a565b610c9c5760405162461bcd60e51b815260040180806020018281038252603f81526020018061153a603f913960400191505060405180910390fd5b609980546001600160a01b0319166001600160a01b0392909216919091179055565b60335460ff1690565b6000610ce360008051602061164e8339815191526104bc610f0a565b610d1e5760405162461bcd60e51b81526004018080602001828103825260348152602001806117446034913960400191505060405180910390fd5b61091c611080565b6000828152606560205260408120610d3e9083611103565b90505b92915050565b6000828152606560205260408120610d3e908361110f565b600081565b6000818152606560205260408120610d4190611124565b600082815260656020526040902060020154610d99906104bc610f0a565b6108b35760405162461bcd60e51b815260040180806020018281038252603081526020018061150a6030913960400191505060405180910390fd5b60008051602061164e83398151915281565b600054610100900460ff1680610dff5750610dff61112f565b80610e0d575060005460ff16155b610e485760405162461bcd60e51b815260040180806020018281038252602e8152602001806115b0602e913960400191505060405180910390fd5b600054610100900460ff16158015610e73576000805460ff1961ff0019909116610100171660011790555b610e7b611140565b610e83611140565b610e8b6111e2565b610e9d6000610e98610f0a565b61084e565b610ec77f751b795d24b92e3d92d1d0d8f2885f4e9c9c269da350af36ae6b49069babf4bf8461084e565b610edf60008051602061164e8339815191528361084e565b610ee885610462565b610ef184610716565b8015610f03576000805461ff00191690555b5050505050565b3390565b6000828152606560205260409020610f26908261128d565b1561085857610f33610f0a565b6001600160a01b0316816001600160a01b0316837f2f8788117e7eff1d82e926ec794901d17c78024a50270940304540a733656f0d60405160405180910390a45050565b6000828152606560205260409020610f8f90826112a2565b1561085857610f9c610f0a565b6001600160a01b0316816001600160a01b0316837ff6391f5c32d9c69d2a47ea670b442974b53935d1edc7fd64eb21e047a839171b60405160405180910390a45050565b610fe8610cbe565b611030576040805162461bcd60e51b815260206004820152601460248201527314185d5cd8589b194e881b9bdd081c185d5cd95960621b604482015290519081900360640190fd5b6033805460ff191690557f5db9ee0a495bf2e6ff9c91a7834c1ba4fdd244a5e8aa4e537bd38aeae4b073aa611063610f0a565b604080516001600160a01b039092168252519081900360200190a1565b611088610cbe565b156110cd576040805162461bcd60e51b815260206004820152601060248201526f14185d5cd8589b194e881c185d5cd95960821b604482015290519081900360640190fd5b6033805460ff191660011790557f62e78cea01bee320cd4e420270b5ea74000d11b0c9f74754ebdbfc544b05a258611063610f0a565b6000610d3e83836112b7565b6000610d3e836001600160a01b03841661131b565b6000610d4182611333565b600061113a30611337565b15905090565b600054610100900460ff1680611159575061115961112f565b80611167575060005460ff16155b6111a25760405162461bcd60e51b815260040180806020018281038252602e8152602001806115b0602e913960400191505060405180910390fd5b600054610100900460ff161580156111cd576000805460ff1961ff0019909116610100171660011790555b80156111df576000805461ff00191690555b50565b600054610100900460ff16806111fb57506111fb61112f565b80611209575060005460ff16155b6112445760405162461bcd60e51b815260040180806020018281038252602e8152602001806115b0602e913960400191505060405180910390fd5b600054610100900460ff1615801561126f576000805460ff1961ff0019909116610100171660011790555b6033805460ff1916905580156111df576000805461ff001916905550565b6000610d3e836001600160a01b03841661133d565b6000610d3e836001600160a01b038416611387565b815460009082106112f95760405162461bcd60e51b815260040180806020018281038252602281526020018061144e6022913960400191505060405180910390fd5b82600001828154811061130857fe5b9060005260206000200154905092915050565b60009081526001919091016020526040902054151590565b5490565b3b151590565b6000611349838361131b565b61137f57508154600181810184556000848152602080822090930184905584548482528286019093526040902091909155610d41565b506000610d41565b6000818152600183016020526040812054801561144357835460001980830191908101906000908790839081106113ba57fe5b90600052602060002001549050808760000184815481106113d757fe5b60009182526020808320909101929092558281526001898101909252604090209084019055865487908061140757fe5b60019003818190600052602060002001600090559055866001016000878152602001908152602001600020600090556001945050505050610d41565b6000915050610d4156fe456e756d657261626c655365743a20696e646578206f7574206f6620626f756e6473416363657373436f6e74726f6c3a2073656e646572206d75737420626520616e2061646d696e20746f206772616e74546f6b656e577261707065723a204f6e6c79206272696467652061646d696e2063616e206d696e74206e657720746f6b656e7320666f7220612075736572546f6b656e577261707065723a20496e737566666369656e742062616c616e636520666f72206163636f756e74416363657373436f6e74726f6c3a2073656e646572206d75737420626520616e2061646d696e20746f207265766f6b65546f6b656e577261707065723a2055736572206e6f7420617574686f726973656420746f20736574204c69717569645374616b696e6720636f6e7472616374546f6b656e577261707065723a204e756d626572206f6620746f6b656e732073686f756c642062652067726561746572207468616e2030496e697469616c697a61626c653a20636f6e747261637420697320616c726561647920696e697469616c697a6564546f6b656e577261707065723a2055736572206e6f7420617574686f726973656420746f207365742053546f6b656e20636f6e7472616374546f6b656e577261707065723a2055736572206e6f7420617574686f726973656420746f207365742055546f6b656e20636f6e747261637465d7a28e3265b37a6474929f336521b332c1681b933f6cb9f3376673440d862a546f6b656e577261707065723a2057697468647261772063616e206f6e6c7920626520646f6e65206279205374616b6572546f6b656e577261707065723a204e756d626572206f6620756e7374616b656420746f6b656e732073686f756c642062652067726561746572207468616e2030546f6b656e577261707065723a2055736572206e6f7420617574686f726973656420746f20756e706175736520636f6e747261637473416363657373436f6e74726f6c3a2063616e206f6e6c792072656e6f756e636520726f6c657320666f722073656c66546f6b656e577261707065723a2055736572206e6f7420617574686f726973656420746f20706175736520636f6e747261637473a26469706673582212202540ac6831d1eddb417ff8a14a59b5e180b518935efcb81e27a3aacd653ed6ac64736f6c63430007060033",
  "immutableReferences": {},
  "source": "// SPDX-License-Identifier: UNLICENSED\npragma solidity ^0.7.0;\n\nimport \"@openzeppelin/contracts-upgradeable/proxy/Initializable.sol\";\nimport \"@openzeppelin/contracts-upgradeable/math/SafeMathUpgradeable.sol\";\nimport \"@openzeppelin/contracts-upgradeable/utils/PausableUpgradeable.sol\";\nimport \"@openzeppelin/contracts-upgradeable/access/AccessControlUpgradeable.sol\";\nimport \"./interfaces/ISTokens.sol\";\nimport \"./interfaces/IUTokens.sol\";\nimport \"./interfaces/ITokenWrapper.sol\";\n\ncontract TokenWrapper is Initializable, ITokenWrapper, PausableUpgradeable, AccessControlUpgradeable {\n\n    using SafeMathUpgradeable for uint256;\n\n    //Private instances of contracts to handle Utokens and Stokens\n    IUTokens private _uTokens;\n    ISTokens private _sTokens;\n\n    address private _liquidStakingContract;\n\n    bytes32 public constant BRIDGE_ADMIN_ROLE = keccak256(\"BRIDGE_ADMIN_ROLE\");\n    bytes32 public constant PAUSER_ROLE = keccak256(\"PAUSER_ROLE\");\n\n    /**\n   * @dev Constructor for initializing the TokenWrapper contract.\n   * @param uAddress - address of the UToken contract.\n   * @param sAddress - address of the SToken contract.\n   * @param bridgeAdminAddress - address of the bridge admin.\n   * @param pauserAddress - address of the pauser admin.\n   */\n    function initialize(address uAddress, address sAddress, address bridgeAdminAddress, address pauserAddress) public virtual initializer  {\n        __Context_init_unchained();\n        __AccessControl_init_unchained();\n        __Pausable_init_unchained();\n        _setupRole(DEFAULT_ADMIN_ROLE, _msgSender());\n        _setupRole(BRIDGE_ADMIN_ROLE, bridgeAdminAddress);\n        _setupRole(PAUSER_ROLE, pauserAddress);\n        setUTokensContract(uAddress);\n        setSTokensContract(sAddress);\n    }\n\n    /*\n     * @dev Set 'contract address', called from constructor\n     * @param uAddress: utoken contract address\n     *\n     * Emits a {SetContract} event with '_contract' set to the utoken contract address.\n     *\n     */\n    function setUTokensContract(address uAddress) public virtual override whenNotPaused {\n        require(hasRole(DEFAULT_ADMIN_ROLE, _msgSender()), \"TokenWrapper: User not authorised to set UToken contract\");\n        _uTokens = IUTokens(uAddress);\n        emit SetContract(uAddress);\n    }\n\n    /**\n     * @dev Set 'contract address', called from constructor\n     * @param sAddress: stoken contract address\n     *\n     * Emits a {SetContract} event with '_contract' set to the stoken contract address.\n     *\n     */\n    function setSTokensContract(address sAddress) public virtual override whenNotPaused {\n        require(hasRole(DEFAULT_ADMIN_ROLE, _msgSender()), \"TokenWrapper: User not authorised to set SToken contract\");\n        _sTokens = ISTokens(sAddress);\n        emit SetContract(sAddress);\n    }\n\n    /*\n     * @dev Set 'contract address', called from constructor\n     * @param sAddress: stoken contract address\n     *\n     * Emits a {SetContract} event with '_contract' set to the stoken contract address.\n     *\n     */\n    function setLiquidStakingContract(address liquidStakingContract) public virtual override whenNotPaused {\n        require(hasRole(DEFAULT_ADMIN_ROLE, _msgSender()), \"TokenWrapper: User not authorised to set LiquidStaking contract\");\n        _liquidStakingContract = liquidStakingContract;\n    }\n\n    /**\n      * @dev Triggers stopped state.\n      *\n      * Requirements:\n      *\n      * - The contract must not be paused.\n      */\n    function pause() public virtual override returns (bool success) {\n        require(hasRole(PAUSER_ROLE, _msgSender()), \"TokenWrapper: User not authorised to pause contracts\");\n        _pause();\n        return true;\n    }\n\n    /**\n     * @dev Returns to normal state.\n     *\n     * Requirements:\n     *\n     * - The contract must be paused.\n     */\n    function unpause() public virtual override returns (bool success) {\n        require(hasRole(PAUSER_ROLE, _msgSender()), \"TokenWrapper: User not authorised to unpause contracts\");\n        _unpause();\n        return true;\n    }\n\n    /**\n     * @dev Mint new utokens for the provided 'address' and 'amount'\n     * @param to: account address, amount: number of tokens\n     *\n     * Emits a {MintTokens} event with 'to' set to address and 'amount' set to amount of tokens.\n     *\n     * Requirements:\n     *\n     * - `amount` cannot be less than zero.\n     *\n     */\n    function generateUTokens(address to, uint256 amount) public virtual override whenNotPaused {\n        require(amount>0, \"TokenWrapper: Number of tokens should be greater than 0\");\n        require(hasRole(BRIDGE_ADMIN_ROLE, _msgSender()), \"TokenWrapper: Only bridge admin can mint new tokens for a user\");\n        emit GenerateUTokens(to, amount, block.timestamp);\n        _uTokens.mint(to, amount);\n    }\n\n    /**\n     * @dev Burn utokens for the provided 'address' and 'amount'\n     * @param from: account address, tokens: number of tokens, toAtomAddress: atom wallet address\n     *\n     * Emits a {BurnTokens} event with 'from' set to address and 'tokens' set to amount of tokens.\n     *\n     * Requirements:\n     *\n     * - `tokens` cannot be less than zero.\n     *\n     */\n    function withdrawUTokens(address from, uint256 tokens, string memory toAtomAddress) public virtual override whenNotPaused {\n        require(tokens>0, \"TokenWrapper: Number of unstaked tokens should be greater than 0\");\n        uint256 _currentUTokenBalance = _uTokens.balanceOf(from);\n        require(_currentUTokenBalance>=tokens, \"TokenWrapper: Insuffcient balance for account\");\n        require(from == _msgSender(), \"TokenWrapper: Withdraw can only be done by Staker\");\n        _uTokens.burn(from, tokens);\n        emit WithdrawUTokens(from, tokens, toAtomAddress, block.timestamp);\n    }\n}\n\n",
  "sourcePath": "/home/aditimahesh/Documents/Work/Persistence/go/src/github.com/persistenceOne/pStakeSmartContracts/contracts/TokenWrapper.sol",
  "compiler": {
    "name": "solc",
    "version": "0.7.6+commit.7338295f.Emscripten.clang"
  },
  "schemaVersion": "3.3.4",
  "updatedAt": "2021-04-06T12:19:56.379Z",
  "devdoc": {
    "kind": "dev",
    "methods": {
      "generateUTokens(address,uint256)": {
        "details": "Mint new utokens for the provided 'address' and 'amount'",
        "params": {
          "to": ": account address, amount: number of tokens Emits a {MintTokens} event with 'to' set to address and 'amount' set to amount of tokens. Requirements: - `amount` cannot be less than zero."
        }
      },
      "getRoleAdmin(bytes32)": {
        "details": "Returns the admin role that controls `role`. See {grantRole} and {revokeRole}. To change a role's admin, use {_setRoleAdmin}."
      },
      "getRoleMember(bytes32,uint256)": {
        "details": "Returns one of the accounts that have `role`. `index` must be a value between 0 and {getRoleMemberCount}, non-inclusive. Role bearers are not sorted in any particular way, and their ordering may change at any point. WARNING: When using {getRoleMember} and {getRoleMemberCount}, make sure you perform all queries on the same block. See the following https://forum.openzeppelin.com/t/iterating-over-elements-on-enumerableset-in-openzeppelin-contracts/2296[forum post] for more information."
      },
      "getRoleMemberCount(bytes32)": {
        "details": "Returns the number of accounts that have `role`. Can be used together with {getRoleMember} to enumerate all bearers of a role."
      },
      "grantRole(bytes32,address)": {
        "details": "Grants `role` to `account`. If `account` had not been already granted `role`, emits a {RoleGranted} event. Requirements: - the caller must have ``role``'s admin role."
      },
      "hasRole(bytes32,address)": {
        "details": "Returns `true` if `account` has been granted `role`."
      },
      "initialize(address,address,address,address)": {
        "details": "Constructor for initializing the TokenWrapper contract.",
        "params": {
          "bridgeAdminAddress": "- address of the bridge admin.",
          "pauserAddress": "- address of the pauser admin.",
          "sAddress": "- address of the SToken contract.",
          "uAddress": "- address of the UToken contract."
        }
      },
      "pause()": {
        "details": "Triggers stopped state. Requirements: - The contract must not be paused."
      },
      "paused()": {
        "details": "Returns true if the contract is paused, and false otherwise."
      },
      "renounceRole(bytes32,address)": {
        "details": "Revokes `role` from the calling account. Roles are often managed via {grantRole} and {revokeRole}: this function's purpose is to provide a mechanism for accounts to lose their privileges if they are compromised (such as when a trusted device is misplaced). If the calling account had been granted `role`, emits a {RoleRevoked} event. Requirements: - the caller must be `account`."
      },
      "revokeRole(bytes32,address)": {
        "details": "Revokes `role` from `account`. If `account` had been granted `role`, emits a {RoleRevoked} event. Requirements: - the caller must have ``role``'s admin role."
      },
      "setSTokensContract(address)": {
        "details": "Set 'contract address', called from constructor",
        "params": {
          "sAddress": ": stoken contract address Emits a {SetContract} event with '_contract' set to the stoken contract address."
        }
      },
      "setUTokensContract(address)": {
        "details": "Set UTokens smart contract. Emits a {SetContract} event."
      },
      "unpause()": {
        "details": "Returns to normal state. Requirements: - The contract must be paused."
      },
      "withdrawUTokens(address,uint256,string)": {
        "details": "Burn utokens for the provided 'address' and 'amount'",
        "params": {
          "from": ": account address, tokens: number of tokens, toAtomAddress: atom wallet address Emits a {BurnTokens} event with 'from' set to address and 'tokens' set to amount of tokens. Requirements: - `tokens` cannot be less than zero."
        }
      }
    },
    "version": 1
  },
  "userdoc": {
    "kind": "user",
    "methods": {},
    "version": 1
  }
}