{
  "contractName": "TokenWrapperXPRT",
  "abi": [
    {
      "anonymous": false,
      "inputs": [
        {
          "indexed": true,
          "internalType": "address",
          "name": "accountAddress",
          "type": "address"
        },
        {
          "indexed": false,
          "internalType": "uint256",
          "name": "tokens",
          "type": "uint256"
        },
        {
          "indexed": false,
          "internalType": "uint256",
          "name": "timestamp",
          "type": "uint256"
        }
      ],
      "name": "GenerateUTokens",
      "type": "event"
    },
    {
      "anonymous": false,
      "inputs": [
        {
          "indexed": false,
          "internalType": "address",
          "name": "account",
          "type": "address"
        }
      ],
      "name": "Paused",
      "type": "event"
    },
    {
      "anonymous": false,
      "inputs": [
        {
          "indexed": true,
          "internalType": "bytes32",
          "name": "role",
          "type": "bytes32"
        },
        {
          "indexed": true,
          "internalType": "bytes32",
          "name": "previousAdminRole",
          "type": "bytes32"
        },
        {
          "indexed": true,
          "internalType": "bytes32",
          "name": "newAdminRole",
          "type": "bytes32"
        }
      ],
      "name": "RoleAdminChanged",
      "type": "event"
    },
    {
      "anonymous": false,
      "inputs": [
        {
          "indexed": true,
          "internalType": "bytes32",
          "name": "role",
          "type": "bytes32"
        },
        {
          "indexed": true,
          "internalType": "address",
          "name": "account",
          "type": "address"
        },
        {
          "indexed": true,
          "internalType": "address",
          "name": "sender",
          "type": "address"
        }
      ],
      "name": "RoleGranted",
      "type": "event"
    },
    {
      "anonymous": false,
      "inputs": [
        {
          "indexed": true,
          "internalType": "bytes32",
          "name": "role",
          "type": "bytes32"
        },
        {
          "indexed": true,
          "internalType": "address",
          "name": "account",
          "type": "address"
        },
        {
          "indexed": true,
          "internalType": "address",
          "name": "sender",
          "type": "address"
        }
      ],
      "name": "RoleRevoked",
      "type": "event"
    },
    {
      "anonymous": false,
      "inputs": [
        {
          "indexed": true,
          "internalType": "address",
          "name": "_contract",
          "type": "address"
        }
      ],
      "name": "SetUTokensContract",
      "type": "event"
    },
    {
      "anonymous": false,
      "inputs": [
        {
          "indexed": false,
          "internalType": "address",
          "name": "account",
          "type": "address"
        }
      ],
      "name": "Unpaused",
      "type": "event"
    },
    {
      "anonymous": false,
      "inputs": [
        {
          "indexed": true,
          "internalType": "address",
          "name": "accountAddress",
          "type": "address"
        },
        {
          "indexed": false,
          "internalType": "uint256",
          "name": "tokens",
          "type": "uint256"
        },
        {
          "indexed": false,
          "internalType": "string",
          "name": "toAtomAddress",
          "type": "string"
        },
        {
          "indexed": false,
          "internalType": "uint256",
          "name": "timestamp",
          "type": "uint256"
        }
      ],
      "name": "WithdrawUTokens",
      "type": "event"
    },
    {
      "inputs": [],
      "name": "BRIDGE_ADMIN_ROLE",
      "outputs": [
        {
          "internalType": "bytes32",
          "name": "",
          "type": "bytes32"
        }
      ],
      "stateMutability": "view",
      "type": "function"
    },
    {
      "inputs": [],
      "name": "DEFAULT_ADMIN_ROLE",
      "outputs": [
        {
          "internalType": "bytes32",
          "name": "",
          "type": "bytes32"
        }
      ],
      "stateMutability": "view",
      "type": "function"
    },
    {
      "inputs": [],
      "name": "PAUSER_ROLE",
      "outputs": [
        {
          "internalType": "bytes32",
          "name": "",
          "type": "bytes32"
        }
      ],
      "stateMutability": "view",
      "type": "function"
    },
    {
      "inputs": [
        {
          "internalType": "bytes32",
          "name": "role",
          "type": "bytes32"
        }
      ],
      "name": "getRoleAdmin",
      "outputs": [
        {
          "internalType": "bytes32",
          "name": "",
          "type": "bytes32"
        }
      ],
      "stateMutability": "view",
      "type": "function"
    },
    {
      "inputs": [
        {
          "internalType": "bytes32",
          "name": "role",
          "type": "bytes32"
        },
        {
          "internalType": "uint256",
          "name": "index",
          "type": "uint256"
        }
      ],
      "name": "getRoleMember",
      "outputs": [
        {
          "internalType": "address",
          "name": "",
          "type": "address"
        }
      ],
      "stateMutability": "view",
      "type": "function"
    },
    {
      "inputs": [
        {
          "internalType": "bytes32",
          "name": "role",
          "type": "bytes32"
        }
      ],
      "name": "getRoleMemberCount",
      "outputs": [
        {
          "internalType": "uint256",
          "name": "",
          "type": "uint256"
        }
      ],
      "stateMutability": "view",
      "type": "function"
    },
    {
      "inputs": [
        {
          "internalType": "bytes32",
          "name": "role",
          "type": "bytes32"
        },
        {
          "internalType": "address",
          "name": "account",
          "type": "address"
        }
      ],
      "name": "grantRole",
      "outputs": [],
      "stateMutability": "nonpayable",
      "type": "function"
    },
    {
      "inputs": [
        {
          "internalType": "bytes32",
          "name": "role",
          "type": "bytes32"
        },
        {
          "internalType": "address",
          "name": "account",
          "type": "address"
        }
      ],
      "name": "hasRole",
      "outputs": [
        {
          "internalType": "bool",
          "name": "",
          "type": "bool"
        }
      ],
      "stateMutability": "view",
      "type": "function"
    },
    {
      "inputs": [],
      "name": "paused",
      "outputs": [
        {
          "internalType": "bool",
          "name": "",
          "type": "bool"
        }
      ],
      "stateMutability": "view",
      "type": "function"
    },
    {
      "inputs": [
        {
          "internalType": "bytes32",
          "name": "role",
          "type": "bytes32"
        },
        {
          "internalType": "address",
          "name": "account",
          "type": "address"
        }
      ],
      "name": "renounceRole",
      "outputs": [],
      "stateMutability": "nonpayable",
      "type": "function"
    },
    {
      "inputs": [
        {
          "internalType": "bytes32",
          "name": "role",
          "type": "bytes32"
        },
        {
          "internalType": "address",
          "name": "account",
          "type": "address"
        }
      ],
      "name": "revokeRole",
      "outputs": [],
      "stateMutability": "nonpayable",
      "type": "function"
    },
    {
      "inputs": [
        {
          "internalType": "address",
          "name": "uAddress",
          "type": "address"
        },
        {
          "internalType": "address",
          "name": "bridgeAdminAddress",
          "type": "address"
        },
        {
          "internalType": "address",
          "name": "pauserAddress",
          "type": "address"
        }
      ],
      "name": "initialize",
      "outputs": [],
      "stateMutability": "nonpayable",
      "type": "function"
    },
    {
      "inputs": [
        {
          "internalType": "address",
          "name": "uAddress",
          "type": "address"
        }
      ],
      "name": "setUTokensContract",
      "outputs": [],
      "stateMutability": "nonpayable",
      "type": "function"
    },
    {
      "inputs": [],
      "name": "pause",
      "outputs": [
        {
          "internalType": "bool",
          "name": "success",
          "type": "bool"
        }
      ],
      "stateMutability": "nonpayable",
      "type": "function"
    },
    {
      "inputs": [],
      "name": "unpause",
      "outputs": [
        {
          "internalType": "bool",
          "name": "success",
          "type": "bool"
        }
      ],
      "stateMutability": "nonpayable",
      "type": "function"
    },
    {
      "inputs": [
        {
          "internalType": "address",
          "name": "to",
          "type": "address"
        },
        {
          "internalType": "uint256",
          "name": "amount",
          "type": "uint256"
        }
      ],
      "name": "generateUTokens",
      "outputs": [],
      "stateMutability": "nonpayable",
      "type": "function"
    },
    {
      "inputs": [
        {
          "internalType": "address",
          "name": "from",
          "type": "address"
        },
        {
          "internalType": "uint256",
          "name": "tokens",
          "type": "uint256"
        },
        {
          "internalType": "string",
          "name": "toAtomAddress",
          "type": "string"
        }
      ],
      "name": "withdrawUTokens",
      "outputs": [],
      "stateMutability": "nonpayable",
      "type": "function"
    }
  ],
  "bytecode": "0x608060405234801561001057600080fd5b50611672806100206000396000f3fe608060405234801561001057600080fd5b506004361061010b5760003560e01c80635c975abb116100a2578063a217fddf11610071578063a217fddf14610345578063c0c53b8b1461034d578063ca15c87314610385578063d547741f146103a2578063e63ab1e9146103ce5761010b565b80635c975abb146102ca5780638456cb59146102d25780639010d07c146102da57806391d14854146103195761010b565b80632f2ff15d116100de5780632f2ff15d1461019b57806336568abe146101c75780633f4ba83a146101f3578063428bee9e1461020f5761010b565b8063118c38c71461011057806321bdf9e51461012a57806322dd9bc314610152578063248a9ca31461017e575b600080fd5b6101186103d6565b60408051918252519081900360200190f35b6101506004803603602081101561014057600080fd5b50356001600160a01b03166103fa565b005b6101506004803603604081101561016857600080fd5b506001600160a01b0381351690602001356104de565b6101186004803603602081101561019457600080fd5b5035610699565b610150600480360360408110156101b157600080fd5b50803590602001356001600160a01b03166106ae565b610150600480360360408110156101dd57600080fd5b50803590602001356001600160a01b0316610715565b6101fb610776565b604080519115158252519081900360200190f35b6101506004803603606081101561022557600080fd5b6001600160a01b038235169160208101359181019060608101604082013564010000000081111561025557600080fd5b82018360208201111561026757600080fd5b8035906020019184600183028401116401000000008311171561028957600080fd5b91908080601f0160208091040260200160405190810160405280939291908181526020018383808284376000920191909152509295506107db945050505050565b6101fb610ac0565b6101fb610ac9565b6102fd600480360360408110156102f057600080fd5b5080359060200135610b28565b604080516001600160a01b039092168252519081900360200190f35b6101fb6004803603604081101561032f57600080fd5b50803590602001356001600160a01b0316610b49565b610118610b61565b6101506004803603606081101561036357600080fd5b506001600160a01b038135811691602081013582169160409091013516610b66565b6101186004803603602081101561039b57600080fd5b5035610c77565b610150600480360360408110156103b857600080fd5b50803590602001356001600160a01b0316610c8e565b610118610ce7565b7f751b795d24b92e3d92d1d0d8f2885f4e9c9c269da350af36ae6b49069babf4bf81565b610402610ac0565b15610447576040805162461bcd60e51b815260206004820152601060248201526f14185d5cd8589b194e881c185d5cd95960821b604482015290519081900360640190fd5b6104596000610454610cf9565b610b49565b6104945760405162461bcd60e51b81526004018080602001828103825260388152602001806114db6038913960400191505060405180910390fd5b609780546001600160a01b0319166001600160a01b0383169081179091556040517ff745c285f36f88bea6af14d4d0f33dd9350cef7895216c1615b1caaee7857e0c90600090a250565b6104e6610ac0565b1561052b576040805162461bcd60e51b815260206004820152601060248201526f14185d5cd8589b194e881c185d5cd95960821b604482015290519081900360640190fd5b6000811161056a5760405162461bcd60e51b81526004018080602001828103825260378152602001806114766037913960400191505060405180910390fd5b6105967f751b795d24b92e3d92d1d0d8f2885f4e9c9c269da350af36ae6b49069babf4bf610454610cf9565b6105d15760405162461bcd60e51b815260040180806020018281038252603e8152602001806113db603e913960400191505060405180910390fd5b6040805182815242602082015281516001600160a01b038516927f06d08f8705b74e3172df8733fc5da269157556d015544994a9759be4693d3ff5928290030190a2609754604080516340c10f1960e01b81526001600160a01b03858116600483015260248201859052915191909216916340c10f199160448083019260209291908290030181600087803b15801561066957600080fd5b505af115801561067d573d6000803e3d6000fd5b505050506040513d602081101561069357600080fd5b50505050565b60009081526065602052604090206002015490565b6000828152606560205260409020600201546106cc90610454610cf9565b6107075760405162461bcd60e51b815260040180806020018281038252602f8152602001806113ac602f913960400191505060405180910390fd5b6107118282610cfd565b5050565b61071d610cf9565b6001600160a01b0316816001600160a01b03161461076c5760405162461bcd60e51b815260040180806020018281038252602f8152602001806115da602f913960400191505060405180910390fd5b6107118282610d66565b6000610792600080516020611513833981519152610454610cf9565b6107cd5760405162461bcd60e51b81526004018080602001828103825260368152602001806115a46036913960400191505060405180910390fd5b6107d5610dcf565b50600190565b6107e3610ac0565b15610828576040805162461bcd60e51b815260206004820152601060248201526f14185d5cd8589b194e881c185d5cd95960821b604482015290519081900360640190fd5b600082116108675760405162461bcd60e51b81526004018080602001828103825260408152602001806115646040913960400191505060405180910390fd5b609754604080516370a0823160e01b81526001600160a01b038681166004830152915160009392909216916370a0823191602480820192602092909190829003018186803b1580156108b857600080fd5b505afa1580156108cc573d6000803e3d6000fd5b505050506040513d60208110156108e257600080fd5b50519050828110156109255760405162461bcd60e51b815260040180806020018281038252602d815260200180611419602d913960400191505060405180910390fd5b61092d610cf9565b6001600160a01b0316846001600160a01b03161461097c5760405162461bcd60e51b81526004018080602001828103825260318152602001806115336031913960400191505060405180910390fd5b60975460408051632770a7eb60e21b81526001600160a01b0387811660048301526024820187905291519190921691639dc29fac9160448083019260209291908290030181600087803b1580156109d257600080fd5b505af11580156109e6573d6000803e3d6000fd5b505050506040513d60208110156109fc57600080fd5b505060408051848152429181018290526060602082810182815286519284019290925285516001600160a01b038916947fc2db0b30181b3532965e53ba1bdf883b207dccb658a9589865c5a9c91e28b80b9489948994929391929091608084019186019080838360005b83811015610a7e578181015183820152602001610a66565b50505050905090810190601f168015610aab5780820380516001836020036101000a031916815260200191505b5094505050505060405180910390a250505050565b60335460ff1690565b6000610ae5600080516020611513833981519152610454610cf9565b610b205760405162461bcd60e51b81526004018080602001828103825260348152602001806116096034913960400191505060405180910390fd5b6107d5610e6f565b6000828152606560205260408120610b409083610ef2565b90505b92915050565b6000828152606560205260408120610b409083610efe565b600081565b600054610100900460ff1680610b7f5750610b7f610f13565b80610b8d575060005460ff16155b610bc85760405162461bcd60e51b815260040180806020018281038252602e8152602001806114ad602e913960400191505060405180910390fd5b600054610100900460ff16158015610bf3576000805460ff1961ff0019909116610100171660011790555b610bfb610f24565b610c03610fd6565b610c156000610c10610cf9565b610707565b610c3f7f751b795d24b92e3d92d1d0d8f2885f4e9c9c269da350af36ae6b49069babf4bf84610707565b610c5760008051602061151383398151915283610707565b610c60846103fa565b8015610693576000805461ff001916905550505050565b6000818152606560205260408120610b4390611073565b600082815260656020526040902060020154610cac90610454610cf9565b61076c5760405162461bcd60e51b81526004018080602001828103825260308152602001806114466030913960400191505060405180910390fd5b60008051602061151383398151915281565b3390565b6000828152606560205260409020610d15908261107e565b1561071157610d22610cf9565b6001600160a01b0316816001600160a01b0316837f2f8788117e7eff1d82e926ec794901d17c78024a50270940304540a733656f0d60405160405180910390a45050565b6000828152606560205260409020610d7e9082611093565b1561071157610d8b610cf9565b6001600160a01b0316816001600160a01b0316837ff6391f5c32d9c69d2a47ea670b442974b53935d1edc7fd64eb21e047a839171b60405160405180910390a45050565b610dd7610ac0565b610e1f576040805162461bcd60e51b815260206004820152601460248201527314185d5cd8589b194e881b9bdd081c185d5cd95960621b604482015290519081900360640190fd5b6033805460ff191690557f5db9ee0a495bf2e6ff9c91a7834c1ba4fdd244a5e8aa4e537bd38aeae4b073aa610e52610cf9565b604080516001600160a01b039092168252519081900360200190a1565b610e77610ac0565b15610ebc576040805162461bcd60e51b815260206004820152601060248201526f14185d5cd8589b194e881c185d5cd95960821b604482015290519081900360640190fd5b6033805460ff191660011790557f62e78cea01bee320cd4e420270b5ea74000d11b0c9f74754ebdbfc544b05a258610e52610cf9565b6000610b4083836110a8565b6000610b40836001600160a01b03841661110c565b6000610f1e30611124565b15905090565b600054610100900460ff1680610f3d5750610f3d610f13565b80610f4b575060005460ff16155b610f865760405162461bcd60e51b815260040180806020018281038252602e8152602001806114ad602e913960400191505060405180910390fd5b600054610100900460ff16158015610fb1576000805460ff1961ff0019909116610100171660011790555b610fb961112a565b610fc161112a565b8015610fd3576000805461ff00191690555b50565b600054610100900460ff1680610fef5750610fef610f13565b80610ffd575060005460ff16155b6110385760405162461bcd60e51b815260040180806020018281038252602e8152602001806114ad602e913960400191505060405180910390fd5b600054610100900460ff16158015611063576000805460ff1961ff0019909116610100171660011790555b61106b61112a565b610fc16111ca565b6000610b4382611275565b6000610b40836001600160a01b038416611279565b6000610b40836001600160a01b0384166112c3565b815460009082106110ea5760405162461bcd60e51b815260040180806020018281038252602281526020018061138a6022913960400191505060405180910390fd5b8260000182815481106110f957fe5b9060005260206000200154905092915050565b60009081526001919091016020526040902054151590565b3b151590565b600054610100900460ff16806111435750611143610f13565b80611151575060005460ff16155b61118c5760405162461bcd60e51b815260040180806020018281038252602e8152602001806114ad602e913960400191505060405180910390fd5b600054610100900460ff16158015610fc1576000805460ff1961ff0019909116610100171660011790558015610fd3576000805461ff001916905550565b600054610100900460ff16806111e357506111e3610f13565b806111f1575060005460ff16155b61122c5760405162461bcd60e51b815260040180806020018281038252602e8152602001806114ad602e913960400191505060405180910390fd5b600054610100900460ff16158015611257576000805460ff1961ff0019909116610100171660011790555b6033805460ff191690558015610fd3576000805461ff001916905550565b5490565b6000611285838361110c565b6112bb57508154600181810184556000848152602080822090930184905584548482528286019093526040902091909155610b43565b506000610b43565b6000818152600183016020526040812054801561137f57835460001980830191908101906000908790839081106112f657fe5b906000526020600020015490508087600001848154811061131357fe5b60009182526020808320909101929092558281526001898101909252604090209084019055865487908061134357fe5b60019003818190600052602060002001600090559055866001016000878152602001908152602001600020600090556001945050505050610b43565b6000915050610b4356fe456e756d657261626c655365743a20696e646578206f7574206f6620626f756e6473416363657373436f6e74726f6c3a2073656e646572206d75737420626520616e2061646d696e20746f206772616e74546f6b656e577261707065723a204f6e6c79206272696467652061646d696e2063616e206d696e74206e657720746f6b656e7320666f7220612075736572546f6b656e577261707065723a20496e737566666369656e742062616c616e636520666f72206163636f756e74416363657373436f6e74726f6c3a2073656e646572206d75737420626520616e2061646d696e20746f207265766f6b65546f6b656e577261707065723a204e756d626572206f6620746f6b656e732073686f756c642062652067726561746572207468616e2030496e697469616c697a61626c653a20636f6e747261637420697320616c726561647920696e697469616c697a6564546f6b656e577261707065723a2055736572206e6f7420617574686f726973656420746f207365742055546f6b656e20636f6e747261637465d7a28e3265b37a6474929f336521b332c1681b933f6cb9f3376673440d862a546f6b656e577261707065723a2057697468647261772063616e206f6e6c7920626520646f6e65206279205374616b6572546f6b656e577261707065723a204e756d626572206f6620756e7374616b656420746f6b656e732073686f756c642062652067726561746572207468616e2030546f6b656e577261707065723a2055736572206e6f7420617574686f726973656420746f20756e706175736520636f6e747261637473416363657373436f6e74726f6c3a2063616e206f6e6c792072656e6f756e636520726f6c657320666f722073656c66546f6b656e577261707065723a2055736572206e6f7420617574686f726973656420746f20706175736520636f6e747261637473a2646970667358221220a3727c0d67aeace4c8e35ceb74f1a0b25dd002c411b7d654c3443c20d82db06e64736f6c63430007060033",
  "immutableReferences": {},
  "source": "// SPDX-License-Identifier: UNLICENSED\npragma solidity ^0.7.0;\n\nimport \"@openzeppelin/contracts-upgradeable/math/SafeMathUpgradeable.sol\";\nimport \"@openzeppelin/contracts-upgradeable/utils/PausableUpgradeable.sol\";\nimport \"@openzeppelin/contracts-upgradeable/access/AccessControlUpgradeable.sol\";\nimport \"./interfaces/IUTokens.sol\";\nimport \"./interfaces/ITokenWrapper.sol\";\n\ncontract TokenWrapperXPRT is ITokenWrapper, PausableUpgradeable, AccessControlUpgradeable {\n\n    using SafeMathUpgradeable for uint256;\n\n    //Private instances of contracts to handle Utokens and Stokens\n    IUTokens private _uTokens;\n\n    bytes32 public constant BRIDGE_ADMIN_ROLE = keccak256(\"BRIDGE_ADMIN_ROLE\");\n    bytes32 public constant PAUSER_ROLE = keccak256(\"PAUSER_ROLE\");\n\n    /*\n   * @dev Constructor for initializing the TokenWrapper contract.\n   * @param uAddress - address of the UToken contract.\n   * @param sAddress - address of the SToken contract.\n   * @param bridgeAdminAddress - address of the bridge admin.\n   * @param pauserAddress - address of the pauser admin.\n   */\n    function initialize(address uAddress, address bridgeAdminAddress, address pauserAddress) public virtual initializer  {\n        __AccessControl_init();\n        __Pausable_init();\n        _setupRole(DEFAULT_ADMIN_ROLE, _msgSender());\n        _setupRole(BRIDGE_ADMIN_ROLE, bridgeAdminAddress);\n        _setupRole(PAUSER_ROLE, pauserAddress);\n        setUTokensContract(uAddress);\n    }\n\n    /*\n     * @dev Set 'contract address', called from constructor\n     * @param uAddress: utoken contract address\n     *\n     * Emits a {SetContract} event with '_contract' set to the utoken contract address.\n     *\n     */\n    function setUTokensContract(address uAddress) public virtual override whenNotPaused {\n        require(hasRole(DEFAULT_ADMIN_ROLE, _msgSender()), \"TokenWrapper: User not authorised to set UToken contract\");\n        _uTokens = IUTokens(uAddress);\n        emit SetUTokensContract(uAddress);\n    }\n\n    /**\n      * @dev Triggers stopped state.\n      *\n      * Requirements:\n      *\n      * - The contract must not be paused.\n      */\n    function pause() public virtual returns (bool success) {\n        require(hasRole(PAUSER_ROLE, _msgSender()), \"TokenWrapper: User not authorised to pause contracts\");\n        _pause();\n        return true;\n    }\n\n    /**\n     * @dev Returns to normal state.\n     *\n     * Requirements:\n     *\n     * - The contract must be paused.\n     */\n    function unpause() public virtual returns (bool success) {\n        require(hasRole(PAUSER_ROLE, _msgSender()), \"TokenWrapper: User not authorised to unpause contracts\");\n        _unpause();\n        return true;\n    }\n\n    /**\n     * @dev Mint new utokens for the provided 'address' and 'amount'\n     * @param to: account address, amount: number of tokens\n     *\n     * Emits a {MintTokens} event with 'to' set to address and 'amount' set to amount of tokens.\n     *\n     * Requirements:\n     *\n     * - `amount` cannot be less than zero.\n     *\n     */\n    function generateUTokens(address to, uint256 amount) public virtual override whenNotPaused {\n        require(amount>0, \"TokenWrapper: Number of tokens should be greater than 0\");\n        require(hasRole(BRIDGE_ADMIN_ROLE, _msgSender()), \"TokenWrapper: Only bridge admin can mint new tokens for a user\");\n        emit GenerateUTokens(to, amount, block.timestamp);\n        _uTokens.mint(to, amount);\n    }\n\n    /**\n     * @dev Burn utokens for the provided 'address' and 'amount'\n     * @param from: account address, tokens: number of tokens, toAtomAddress: atom wallet address\n     *\n     * Emits a {BurnTokens} event with 'from' set to address and 'tokens' set to amount of tokens.\n     *\n     * Requirements:\n     *\n     * - `tokens` cannot be less than zero.\n     *\n     */\n    function withdrawUTokens(address from, uint256 tokens, string memory toAtomAddress) public virtual override whenNotPaused {\n        require(tokens>0, \"TokenWrapper: Number of unstaked tokens should be greater than 0\");\n        uint256 _currentUTokenBalance = _uTokens.balanceOf(from);\n        require(_currentUTokenBalance>=tokens, \"TokenWrapper: Insuffcient balance for account\");\n        require(from == _msgSender(), \"TokenWrapper: Withdraw can only be done by Staker\");\n        _uTokens.burn(from, tokens);\n        emit WithdrawUTokens(from, tokens, toAtomAddress, block.timestamp);\n    }\n}\n\n",
  "sourcePath": "/home/aditimahesh/Documents/Work/Persistence/go/src/github.com/persistenceOne/pStakeSmartContracts/contracts/TokenWrapperXPRT.sol",
  "compiler": {
    "name": "solc",
    "version": "0.7.6+commit.7338295f.Emscripten.clang"
  },
  "schemaVersion": "3.3.4",
  "updatedAt": "2021-05-05T08:53:13.381Z",
  "devdoc": {
    "kind": "dev",
    "methods": {
      "generateUTokens(address,uint256)": {
        "details": "Mint new utokens for the provided 'address' and 'amount'",
        "params": {
          "to": ": account address, amount: number of tokens Emits a {MintTokens} event with 'to' set to address and 'amount' set to amount of tokens. Requirements: - `amount` cannot be less than zero."
        }
      },
      "getRoleAdmin(bytes32)": {
        "details": "Returns the admin role that controls `role`. See {grantRole} and {revokeRole}. To change a role's admin, use {_setRoleAdmin}."
      },
      "getRoleMember(bytes32,uint256)": {
        "details": "Returns one of the accounts that have `role`. `index` must be a value between 0 and {getRoleMemberCount}, non-inclusive. Role bearers are not sorted in any particular way, and their ordering may change at any point. WARNING: When using {getRoleMember} and {getRoleMemberCount}, make sure you perform all queries on the same block. See the following https://forum.openzeppelin.com/t/iterating-over-elements-on-enumerableset-in-openzeppelin-contracts/2296[forum post] for more information."
      },
      "getRoleMemberCount(bytes32)": {
        "details": "Returns the number of accounts that have `role`. Can be used together with {getRoleMember} to enumerate all bearers of a role."
      },
      "grantRole(bytes32,address)": {
        "details": "Grants `role` to `account`. If `account` had not been already granted `role`, emits a {RoleGranted} event. Requirements: - the caller must have ``role``'s admin role."
      },
      "hasRole(bytes32,address)": {
        "details": "Returns `true` if `account` has been granted `role`."
      },
      "pause()": {
        "details": "Triggers stopped state. Requirements: - The contract must not be paused."
      },
      "paused()": {
        "details": "Returns true if the contract is paused, and false otherwise."
      },
      "renounceRole(bytes32,address)": {
        "details": "Revokes `role` from the calling account. Roles are often managed via {grantRole} and {revokeRole}: this function's purpose is to provide a mechanism for accounts to lose their privileges if they are compromised (such as when a trusted device is misplaced). If the calling account had been granted `role`, emits a {RoleRevoked} event. Requirements: - the caller must be `account`."
      },
      "revokeRole(bytes32,address)": {
        "details": "Revokes `role` from `account`. If `account` had been granted `role`, emits a {RoleRevoked} event. Requirements: - the caller must have ``role``'s admin role."
      },
      "setUTokensContract(address)": {
        "details": "Set UTokens smart contract. Emits a {SetContract} event."
      },
      "unpause()": {
        "details": "Returns to normal state. Requirements: - The contract must be paused."
      },
      "withdrawUTokens(address,uint256,string)": {
        "details": "Burn utokens for the provided 'address' and 'amount'",
        "params": {
          "from": ": account address, tokens: number of tokens, toAtomAddress: atom wallet address Emits a {BurnTokens} event with 'from' set to address and 'tokens' set to amount of tokens. Requirements: - `tokens` cannot be less than zero."
        }
      }
    },
    "version": 1
  },
  "userdoc": {
    "kind": "user",
    "methods": {},
    "version": 1
  }
}