{
  "contractName": "TokenWrapperV2",
  "abi": [
    {
      "anonymous": false,
      "inputs": [
        {
          "indexed": true,
          "internalType": "address",
          "name": "accountAddress",
          "type": "address"
        },
        {
          "indexed": true,
          "internalType": "uint256",
          "name": "tokens",
          "type": "uint256"
        },
        {
          "indexed": true,
          "internalType": "uint256",
          "name": "finalTokens",
          "type": "uint256"
        },
        {
          "indexed": false,
          "internalType": "uint256",
          "name": "timestamp",
          "type": "uint256"
        }
      ],
      "name": "GenerateUTokens",
      "type": "event"
    },
    {
      "anonymous": false,
      "inputs": [
        {
          "indexed": false,
          "internalType": "address[]",
          "name": "accountAddress",
          "type": "address[]"
        },
        {
          "indexed": false,
          "internalType": "uint256[]",
          "name": "tokens",
          "type": "uint256[]"
        },
        {
          "indexed": false,
          "internalType": "uint256[]",
          "name": "finalTokens",
          "type": "uint256[]"
        },
        {
          "indexed": false,
          "internalType": "uint256",
          "name": "timestamp",
          "type": "uint256"
        }
      ],
      "name": "GenerateUTokensInBatch",
      "type": "event"
    },
    {
      "anonymous": false,
      "inputs": [
        {
          "indexed": false,
          "internalType": "address",
          "name": "account",
          "type": "address"
        }
      ],
      "name": "Paused",
      "type": "event"
    },
    {
      "anonymous": false,
      "inputs": [
        {
          "indexed": true,
          "internalType": "bytes32",
          "name": "role",
          "type": "bytes32"
        },
        {
          "indexed": true,
          "internalType": "bytes32",
          "name": "previousAdminRole",
          "type": "bytes32"
        },
        {
          "indexed": true,
          "internalType": "bytes32",
          "name": "newAdminRole",
          "type": "bytes32"
        }
      ],
      "name": "RoleAdminChanged",
      "type": "event"
    },
    {
      "anonymous": false,
      "inputs": [
        {
          "indexed": true,
          "internalType": "bytes32",
          "name": "role",
          "type": "bytes32"
        },
        {
          "indexed": true,
          "internalType": "address",
          "name": "account",
          "type": "address"
        },
        {
          "indexed": true,
          "internalType": "address",
          "name": "sender",
          "type": "address"
        }
      ],
      "name": "RoleGranted",
      "type": "event"
    },
    {
      "anonymous": false,
      "inputs": [
        {
          "indexed": true,
          "internalType": "bytes32",
          "name": "role",
          "type": "bytes32"
        },
        {
          "indexed": true,
          "internalType": "address",
          "name": "account",
          "type": "address"
        },
        {
          "indexed": true,
          "internalType": "address",
          "name": "sender",
          "type": "address"
        }
      ],
      "name": "RoleRevoked",
      "type": "event"
    },
    {
      "anonymous": false,
      "inputs": [
        {
          "indexed": false,
          "internalType": "uint256",
          "name": "depositFee",
          "type": "uint256"
        },
        {
          "indexed": false,
          "internalType": "uint256",
          "name": "withdrawFee",
          "type": "uint256"
        }
      ],
      "name": "SetFees",
      "type": "event"
    },
    {
      "anonymous": false,
      "inputs": [
        {
          "indexed": false,
          "internalType": "uint256",
          "name": "minDeposit",
          "type": "uint256"
        },
        {
          "indexed": false,
          "internalType": "uint256",
          "name": "minWithdraw",
          "type": "uint256"
        }
      ],
      "name": "SetMinimumValues",
      "type": "event"
    },
    {
      "anonymous": false,
      "inputs": [
        {
          "indexed": true,
          "internalType": "address",
          "name": "_contract",
          "type": "address"
        }
      ],
      "name": "SetUTokensContract",
      "type": "event"
    },
    {
      "anonymous": false,
      "inputs": [
        {
          "indexed": false,
          "internalType": "address",
          "name": "account",
          "type": "address"
        }
      ],
      "name": "Unpaused",
      "type": "event"
    },
    {
      "anonymous": false,
      "inputs": [
        {
          "indexed": true,
          "internalType": "address",
          "name": "accountAddress",
          "type": "address"
        },
        {
          "indexed": true,
          "internalType": "uint256",
          "name": "tokens",
          "type": "uint256"
        },
        {
          "indexed": false,
          "internalType": "uint256",
          "name": "finalTokens",
          "type": "uint256"
        },
        {
          "indexed": false,
          "internalType": "string",
          "name": "toChainAddress",
          "type": "string"
        },
        {
          "indexed": false,
          "internalType": "uint256",
          "name": "timestamp",
          "type": "uint256"
        }
      ],
      "name": "WithdrawUTokens",
      "type": "event"
    },
    {
      "inputs": [],
      "name": "BRIDGE_ADMIN_ROLE",
      "outputs": [
        {
          "internalType": "bytes32",
          "name": "",
          "type": "bytes32"
        }
      ],
      "stateMutability": "view",
      "type": "function"
    },
    {
      "inputs": [],
      "name": "DEFAULT_ADMIN_ROLE",
      "outputs": [
        {
          "internalType": "bytes32",
          "name": "",
          "type": "bytes32"
        }
      ],
      "stateMutability": "view",
      "type": "function"
    },
    {
      "inputs": [],
      "name": "PAUSER_ROLE",
      "outputs": [
        {
          "internalType": "bytes32",
          "name": "",
          "type": "bytes32"
        }
      ],
      "stateMutability": "view",
      "type": "function"
    },
    {
      "inputs": [],
      "name": "_uTokens",
      "outputs": [
        {
          "internalType": "contract IUTokens",
          "name": "",
          "type": "address"
        }
      ],
      "stateMutability": "view",
      "type": "function"
    },
    {
      "inputs": [],
      "name": "controlDigitBytes",
      "outputs": [
        {
          "internalType": "bytes",
          "name": "",
          "type": "bytes"
        }
      ],
      "stateMutability": "view",
      "type": "function"
    },
    {
      "inputs": [],
      "name": "dataBytesSize",
      "outputs": [
        {
          "internalType": "uint256",
          "name": "",
          "type": "uint256"
        }
      ],
      "stateMutability": "view",
      "type": "function"
    },
    {
      "inputs": [
        {
          "internalType": "bytes32",
          "name": "role",
          "type": "bytes32"
        }
      ],
      "name": "getRoleAdmin",
      "outputs": [
        {
          "internalType": "bytes32",
          "name": "",
          "type": "bytes32"
        }
      ],
      "stateMutability": "view",
      "type": "function"
    },
    {
      "inputs": [
        {
          "internalType": "bytes32",
          "name": "role",
          "type": "bytes32"
        },
        {
          "internalType": "uint256",
          "name": "index",
          "type": "uint256"
        }
      ],
      "name": "getRoleMember",
      "outputs": [
        {
          "internalType": "address",
          "name": "",
          "type": "address"
        }
      ],
      "stateMutability": "view",
      "type": "function"
    },
    {
      "inputs": [
        {
          "internalType": "bytes32",
          "name": "role",
          "type": "bytes32"
        }
      ],
      "name": "getRoleMemberCount",
      "outputs": [
        {
          "internalType": "uint256",
          "name": "",
          "type": "uint256"
        }
      ],
      "stateMutability": "view",
      "type": "function"
    },
    {
      "inputs": [
        {
          "internalType": "bytes32",
          "name": "role",
          "type": "bytes32"
        },
        {
          "internalType": "address",
          "name": "account",
          "type": "address"
        }
      ],
      "name": "grantRole",
      "outputs": [],
      "stateMutability": "nonpayable",
      "type": "function"
    },
    {
      "inputs": [
        {
          "internalType": "bytes32",
          "name": "role",
          "type": "bytes32"
        },
        {
          "internalType": "address",
          "name": "account",
          "type": "address"
        }
      ],
      "name": "hasRole",
      "outputs": [
        {
          "internalType": "bool",
          "name": "",
          "type": "bool"
        }
      ],
      "stateMutability": "view",
      "type": "function"
    },
    {
      "inputs": [],
      "name": "hrpBytes",
      "outputs": [
        {
          "internalType": "bytes",
          "name": "",
          "type": "bytes"
        }
      ],
      "stateMutability": "view",
      "type": "function"
    },
    {
      "inputs": [],
      "name": "paused",
      "outputs": [
        {
          "internalType": "bool",
          "name": "",
          "type": "bool"
        }
      ],
      "stateMutability": "view",
      "type": "function"
    },
    {
      "inputs": [
        {
          "internalType": "bytes32",
          "name": "role",
          "type": "bytes32"
        },
        {
          "internalType": "address",
          "name": "account",
          "type": "address"
        }
      ],
      "name": "renounceRole",
      "outputs": [],
      "stateMutability": "nonpayable",
      "type": "function"
    },
    {
      "inputs": [
        {
          "internalType": "bytes32",
          "name": "role",
          "type": "bytes32"
        },
        {
          "internalType": "address",
          "name": "account",
          "type": "address"
        }
      ],
      "name": "revokeRole",
      "outputs": [],
      "stateMutability": "nonpayable",
      "type": "function"
    },
    {
      "inputs": [
        {
          "internalType": "address",
          "name": "uAddress",
          "type": "address"
        },
        {
          "internalType": "address",
          "name": "bridgeAdminAddress",
          "type": "address"
        },
        {
          "internalType": "address",
          "name": "pauserAddress",
          "type": "address"
        },
        {
          "internalType": "uint256",
          "name": "valueDivisor",
          "type": "uint256"
        }
      ],
      "name": "initialize",
      "outputs": [],
      "stateMutability": "nonpayable",
      "type": "function"
    },
    {
      "inputs": [
        {
          "internalType": "uint256",
          "name": "depositFee",
          "type": "uint256"
        },
        {
          "internalType": "uint256",
          "name": "withdrawFee",
          "type": "uint256"
        }
      ],
      "name": "setFees",
      "outputs": [
        {
          "internalType": "bool",
          "name": "success",
          "type": "bool"
        }
      ],
      "stateMutability": "nonpayable",
      "type": "function"
    },
    {
      "inputs": [],
      "name": "getProps",
      "outputs": [
        {
          "internalType": "uint256",
          "name": "depositFee",
          "type": "uint256"
        },
        {
          "internalType": "uint256",
          "name": "withdrawFee",
          "type": "uint256"
        },
        {
          "internalType": "uint256",
          "name": "minDeposit",
          "type": "uint256"
        },
        {
          "internalType": "uint256",
          "name": "minWithdraw",
          "type": "uint256"
        },
        {
          "internalType": "uint256",
          "name": "valueDivisor",
          "type": "uint256"
        }
      ],
      "stateMutability": "view",
      "type": "function"
    },
    {
      "inputs": [
        {
          "internalType": "uint256",
          "name": "minDeposit",
          "type": "uint256"
        },
        {
          "internalType": "uint256",
          "name": "minWithdraw",
          "type": "uint256"
        }
      ],
      "name": "setMinimumValues",
      "outputs": [
        {
          "internalType": "bool",
          "name": "success",
          "type": "bool"
        }
      ],
      "stateMutability": "nonpayable",
      "type": "function"
    },
    {
      "inputs": [
        {
          "internalType": "address",
          "name": "uAddress",
          "type": "address"
        }
      ],
      "name": "setUTokensContract",
      "outputs": [],
      "stateMutability": "nonpayable",
      "type": "function"
    },
    {
      "inputs": [],
      "name": "pause",
      "outputs": [
        {
          "internalType": "bool",
          "name": "success",
          "type": "bool"
        }
      ],
      "stateMutability": "nonpayable",
      "type": "function"
    },
    {
      "inputs": [],
      "name": "unpause",
      "outputs": [
        {
          "internalType": "bool",
          "name": "success",
          "type": "bool"
        }
      ],
      "stateMutability": "nonpayable",
      "type": "function"
    },
    {
      "inputs": [
        {
          "internalType": "address",
          "name": "to",
          "type": "address"
        },
        {
          "internalType": "uint256",
          "name": "amount",
          "type": "uint256"
        }
      ],
      "name": "generateUTokens",
      "outputs": [],
      "stateMutability": "nonpayable",
      "type": "function"
    },
    {
      "inputs": [
        {
          "internalType": "address[]",
          "name": "to",
          "type": "address[]"
        },
        {
          "internalType": "uint256[]",
          "name": "amount",
          "type": "uint256[]"
        }
      ],
      "name": "generateUTokensInBatch",
      "outputs": [],
      "stateMutability": "nonpayable",
      "type": "function"
    },
    {
      "inputs": [
        {
          "internalType": "string",
          "name": "toChainAddress",
          "type": "string"
        }
      ],
      "name": "isBech32Valid",
      "outputs": [
        {
          "internalType": "bool",
          "name": "isAddressValid",
          "type": "bool"
        }
      ],
      "stateMutability": "view",
      "type": "function"
    },
    {
      "inputs": [
        {
          "internalType": "address",
          "name": "from",
          "type": "address"
        },
        {
          "internalType": "uint256",
          "name": "tokens",
          "type": "uint256"
        },
        {
          "internalType": "string",
          "name": "toChainAddress",
          "type": "string"
        }
      ],
      "name": "withdrawUTokens",
      "outputs": [],
      "stateMutability": "nonpayable",
      "type": "function"
    }
  ],
  "bytecode": "0x608060405234801561001057600080fd5b50612d7d806100206000396000f3fe608060405234801561001057600080fd5b506004361061018e5760003560e01c80638f001d4e116100de578063cf756fdf11610097578063e3ac914b11610071578063e3ac914b146105ca578063e63ab1e9146105d2578063e7fa0a32146105da578063ec1893b4146106fd5761018e565b8063cf756fdf1461055a578063d37f559814610596578063d547741f1461059e5761018e565b80638f001d4e146103c55780639010d07c1461046957806391d148541461048c578063a217fddf146104b8578063a53dcd72146104c0578063ca15c8731461053d5761018e565b806336568abe1161014b57806351db00e71161012557806351db00e71461036e5780635c975abb1461039157806378a2f074146103995780638456cb59146103bd5761018e565b806336568abe146102815780633f4ba83a146102ad578063428bee9e146102b55761018e565b80630b78f9c014610193578063118c38c7146101ca57806321bdf9e5146101e457806322dd9bc31461020c578063248a9ca3146102385780632f2ff15d14610255575b600080fd5b6101b6600480360360408110156101a957600080fd5b5080359060200135610730565b604080519115158252519081900360200190f35b6101d261083b565b60408051918252519081900360200190f35b61020a600480360360208110156101fa57600080fd5b50356001600160a01b031661084d565b005b61020a6004803603604081101561022257600080fd5b506001600160a01b0381351690602001356108db565b6101d26004803603602081101561024e57600080fd5b5035610a0f565b61020a6004803603604081101561026b57600080fd5b50803590602001356001600160a01b0316610a27565b61020a6004803603604081101561029757600080fd5b50803590602001356001600160a01b0316610a8e565b6101b6610aef565b61020a600480360360608110156102cb57600080fd5b6001600160a01b0382351691602081013591810190606081016040820135600160201b8111156102fa57600080fd5b82018360208201111561030c57600080fd5b803590602001918460018302840111600160201b8311171561032d57600080fd5b91908080601f016020809104026020016040519081016040528093929190818152602001838380828437600092019190915250929550610b50945050505050565b6101b66004803603604081101561038457600080fd5b5080359060200135610fd6565b6101b66110e1565b6103a16110ea565b604080516001600160a01b039092168252519081900360200190f35b6101b66110f9565b6101b6600480360360208110156103db57600080fd5b810190602081018135600160201b8111156103f557600080fd5b82018360208201111561040757600080fd5b803590602001918460018302840111600160201b8311171561042857600080fd5b91908080601f016020809104026020016040519081016040528093929190818152602001838380828437600092019190915250929550611154945050505050565b6103a16004803603604081101561047f57600080fd5b50803590602001356111b8565b6101b6600480360360408110156104a257600080fd5b50803590602001356001600160a01b03166111d7565b6101d26111ef565b6104c86111f4565b6040805160208082528351818301528351919283929083019185019080838360005b838110156105025781810151838201526020016104ea565b50505050905090810190601f16801561052f5780820380516001836020036101000a031916815260200191505b509250505060405180910390f35b6101d26004803603602081101561055357600080fd5b5035611282565b61020a6004803603608081101561057057600080fd5b506001600160a01b03813581169160208101358216916040820135169060600135611299565b6104c8611407565b61020a600480360360408110156105b457600080fd5b50803590602001356001600160a01b0316611462565b6101d26114bb565b6101d26114c1565b61020a600480360360408110156105f057600080fd5b810190602081018135600160201b81111561060a57600080fd5b82018360208201111561061c57600080fd5b803590602001918460208302840111600160201b8311171561063d57600080fd5b9190808060200260200160405190810160405280939291908181526020018383602002808284376000920191909152509295949360208101935035915050600160201b81111561068c57600080fd5b82018360208201111561069e57600080fd5b803590602001918460208302840111600160201b831117156106bf57600080fd5b9190808060200260200160405190810160405280939291908181526020018383602002808284376000920191909152509295506114d3945050505050565b6107056117c7565b6040805195865260208601949094528484019290925260608401526080830152519081900360a00190f35b60006107438161073e6117e1565b6111d7565b61077a576040805162461bcd60e51b815260206004820152600360248201526254573160e81b604482015290519081900360640190fd5b609c546107889060646117e5565b83111580610794575082155b80156107b55750609c546107a99060646117e5565b821115806107b5575081155b6107ec576040805162461bcd60e51b81526020600482015260036024820152622a2b9960e91b604482015290519081900360640190fd5b609a839055609b829055604080518481526020810184905281517f3be6e637f54f081a2dd12982cfd58481304fc98b604b18fa8ed4aa4e4a9d1532929181900390910190a15060015b92915050565b600080516020612cd983398151915281565b61085a600061073e6117e1565b610891576040805162461bcd60e51b81526020600482015260036024820152622a2b9b60e91b604482015290519081900360640190fd5b609780546001600160a01b0319166001600160a01b0383169081179091556040517ff745c285f36f88bea6af14d4d0f33dd9350cef7895216c1615b1caaee7857e0c90600090a250565b6108e36110e1565b15610928576040805162461bcd60e51b815260206004820152601060248201526f14185d5cd8589b194e881c185d5cd95960821b604482015290519081900360640190fd5b609854811015610965576040805162461bcd60e51b815260206004820152600360248201526254573960e81b604482015290519081900360640190fd5b61097f600080516020612cd983398151915261073e6117e1565b6109b9576040805162461bcd60e51b815260206004808301919091526024820152630545731360e41b604482015290519081900360640190fd5b60006109c5838361183e565b90508082846001600160a01b03167f572f067f64ae57ed816b7e9b5424a87d97035d68384f149586cba42b4192c9d8426040518082815260200191505060405180910390a4505050565b6000818152606560205260409020600201545b919050565b600082815260656020526040902060020154610a459061073e6117e1565b610a805760405162461bcd60e51b815260040180806020018281038252602f815260200180612c0b602f913960400191505060405180910390fd5b610a8a82826118f6565b5050565b610a966117e1565b6001600160a01b0316816001600160a01b031614610ae55760405162461bcd60e51b815260040180806020018281038252602f815260200180612cf9602f913960400191505060405180910390fd5b610a8a828261195f565b6000610b0b600080516020612cb983398151915261073e6117e1565b610b42576040805162461bcd60e51b81526020600482015260036024820152620a8ae760eb1b604482015290519081900360640190fd5b610b4a6119c8565b50600190565b610b586110e1565b15610b9d576040805162461bcd60e51b815260206004820152601060248201526f14185d5cd8589b194e881c185d5cd95960821b604482015290519081900360640190fd5b609954821015610bdd576040805162461bcd60e51b815260206004808301919091526024820152631515cc4d60e21b604482015290519081900360640190fd5b609d805460408051602060026001851615610100026000190190941693909304601f8101849004840282018401909252818152600093610d0c9391929091830182828015610c6c5780601f10610c4157610100808354040283529160200191610c6c565b820191906000526020600020905b815481529060010190602001808311610c4f57829003601f168201915b5050609e8054604080516020601f6002600019610100600188161502019095169490940493840181900481028201810190925282815295509193509150830182828015610cfa5780601f10610ccf57610100808354040283529160200191610cfa565b820191906000526020600020905b815481529060010190602001808311610cdd57829003601f168201915b5050609f548895949350915050611a68565b9050600181151514610d4e576040805162461bcd60e51b815260206004808301919091526024820152635457313560e01b604482015290519081900360640190fd5b609754604080516370a0823160e01b81526001600160a01b038781166004830152915160009392909216916370a0823191602480820192602092909190829003018186803b158015610d9f57600080fd5b505afa158015610db3573d6000803e3d6000fd5b505050506040513d6020811015610dc957600080fd5b5051609b54609c54919250600091610def91606491610de9918991611b7f565b90611c38565b90506000610dfd8683611c9f565b905080831015610e3d576040805162461bcd60e51b815260206004808301919091526024820152632a2b989b60e11b604482015290519081900360640190fd5b610e456117e1565b6001600160a01b0316876001600160a01b031614610e93576040805162461bcd60e51b815260206004808301919091526024820152635457313760e01b604482015290519081900360640190fd5b60975460408051632770a7eb60e21b81526001600160a01b038a811660048301526024820185905291519190921691639dc29fac9160448083019260209291908290030181600087803b158015610ee957600080fd5b505af1158015610efd573d6000803e3d6000fd5b505050506040513d6020811015610f1357600080fd5b505060408051828152429181018290526060602082810182815289519284019290925288518a946001600160a01b038d16947f0f4363f6961ed151f2cf8f720784b70c0f5573f216fc939f67f2a5d12698e02e9488948d94608084019186019080838360005b83811015610f91578181015183820152602001610f79565b50505050905090810190601f168015610fbe5780820380516001836020036101000a031916815260200191505b5094505050505060405180910390a350505050505050565b6000610fe48161073e6117e1565b61101b576040805162461bcd60e51b815260206004820152600360248201526254573360e81b604482015290519081900360640190fd5b6001831015611057576040805162461bcd60e51b81526020600482015260036024820152621515cd60ea1b604482015290519081900360640190fd5b6001821015611093576040805162461bcd60e51b815260206004820152600360248201526254573560e81b604482015290519081900360640190fd5b60988390556099829055604080518481526020810184905281517fa94d40347449ea19b873d64ed55c99772194c49791e82be5c2dc24e4c0044fe3929181900390910190a150600192915050565b60335460ff1690565b6097546001600160a01b031681565b6000611115600080516020612cb983398151915261073e6117e1565b61114c576040805162461bcd60e51b815260206004820152600360248201526254573760e81b604482015290519081900360640190fd5b610b4a611cf9565b609d805460408051602060026001851615610100026000190190941693909304601f81018490048402820184019092528181526000936108359391929091830182828015610c6c5780601f10610c4157610100808354040283529160200191610c6c565b60008281526065602052604081206111d09083611d7c565b9392505050565b60008281526065602052604081206111d09083611d88565b600081565b609e805460408051602060026001851615610100026000190190941693909304601f8101849004840282018401909252818152929183018282801561127a5780601f1061124f5761010080835404028352916020019161127a565b820191906000526020600020905b81548152906001019060200180831161125d57829003601f168201915b505050505081565b600081815260656020526040812061083590611d9d565b600054610100900460ff16806112b257506112b2611da8565b806112c0575060005460ff16155b6112fb5760405162461bcd60e51b815260040180806020018281038252602e815260200180612c6a602e913960400191505060405180910390fd5b600054610100900460ff16158015611326576000805460ff1961ff0019909116610100171660011790555b61132e611db9565b611336611e6b565b61134860006113436117e1565b610a80565b611360600080516020612cd983398151915285610a80565b611378600080516020612cb983398151915284610a80565b6113818561084d565b61138c600180610fd6565b50609c82905560408051808201909152600680825265636f736d6f7360d01b60209092019182526113bf91609d91612b47565b50604080518082019091526001808252603160f81b60209092019182526113e891609e91612b47565b506026609f558015611400576000805461ff00191690555b5050505050565b609d805460408051602060026001851615610100026000190190941693909304601f8101849004840282018401909252818152929183018282801561127a5780601f1061124f5761010080835404028352916020019161127a565b6000828152606560205260409020600201546114809061073e6117e1565b610ae55760405162461bcd60e51b8152600401808060200182810382526030815260200180612c3a6030913960400191505060405180910390fd5b609f5481565b600080516020612cb983398151915281565b6114db6110e1565b15611520576040805162461bcd60e51b815260206004820152601060248201526f14185d5cd8589b194e881c185d5cd95960821b604482015290519081900360640190fd5b805182511461155f576040805162461bcd60e51b815260206004808301919091526024820152635457313160e01b604482015290519081900360640190fd5b611579600080516020612cd983398151915261073e6117e1565b6115b3576040805162461bcd60e51b815260206004808301919091526024820152632a2b989960e11b604482015290519081900360640190fd5b600080835167ffffffffffffffff811180156115ce57600080fd5b506040519080825280602002602001820160405280156115f8578160200160208202803683370190505b508451600093509091505b808310156116b75760985484848151811061161a57fe5b6020026020010151101561165e576040805162461bcd60e51b815260206004808301919091526024820152635457313360e01b604482015290519081900360640190fd5b61168e85848151811061166d57fe5b602002602001015185858151811061168157fe5b602002602001015161183e565b82848151811061169a57fe5b60209081029190910101526116b0836001611c9f565b9250611603565b7fff03029439b5b79825ca34bca1b453f01e01935bdde5210a8af22f19705ca1a38585844260405180806020018060200180602001858152602001848103845288818151815260200191508051906020019060200280838360005b8381101561172a578181015183820152602001611712565b50505050905001848103835287818151815260200191508051906020019060200280838360005b83811015611769578181015183820152602001611751565b50505050905001848103825286818151815260200191508051906020019060200280838360005b838110156117a8578181015183820152602001611790565b5050505090500197505050505050505060405180910390a15050505050565b609a54609b54609854609954609c54939492939192909190565b3390565b6000826117f457506000610835565b8282028284828161180157fe5b04146111d05760405162461bcd60e51b8152600401808060200182810382526021815260200180612c986021913960400191505060405180910390fd5b60008061185f6064610de9609a54609c5487611b7f9092919063ffffffff16565b905061186b8382611f08565b609754604080516340c10f1960e01b81526001600160a01b0388811660048301526024820185905291519395509116916340c10f19916044808201926020929091908290030181600087803b1580156118c357600080fd5b505af11580156118d7573d6000803e3d6000fd5b505050506040513d60208110156118ed57600080fd5b50505092915050565b600082815260656020526040902061190e9082611f65565b15610a8a5761191b6117e1565b6001600160a01b0316816001600160a01b0316837f2f8788117e7eff1d82e926ec794901d17c78024a50270940304540a733656f0d60405160405180910390a45050565b60008281526065602052604090206119779082611f7a565b15610a8a576119846117e1565b6001600160a01b0316816001600160a01b0316837ff6391f5c32d9c69d2a47ea670b442974b53935d1edc7fd64eb21e047a839171b60405160405180910390a45050565b6119d06110e1565b611a18576040805162461bcd60e51b815260206004820152601460248201527314185d5cd8589b194e881b9bdd081c185d5cd95960621b604482015290519081900360640190fd5b6033805460ff191690557f5db9ee0a495bf2e6ff9c91a7834c1ba4fdd244a5e8aa4e537bd38aeae4b073aa611a4b6117e1565b604080516001600160a01b039092168252519081900360200190a1565b825160009085908290611a7e9083908390611f8f565b9050611a8a8187612098565b611a9957600092505050611b77565b8051600090611aab9084906001611f8f565b9050611ab78187612098565b611ac75760009350505050611b77565b6000611ae98351600101600185518751030386611f8f9092919063ffffffff16565b905085815114611b00576000945050505050611b77565b82518451600091611b1c91879160018101910360061901611f8f565b90506000611b29826120fc565b9050805160001415611b445760009650505050505050611b77565b6000611b4f86612257565b90506000611b5d82846122ec565b90506000611b6b8683612098565b99505050505050505050505b949350505050565b6000806000611b8e86866123d1565b9150915060008480611b9c57fe5b868809905082811115611bb0576001820391505b918290039181611bce57848381611bc357fe5b0493505050506111d0565b848210611c22576040805162461bcd60e51b815260206004820152601a60248201527f46756c6c4d6174683a2046554c4c4449565f4f564552464c4f57000000000000604482015290519081900360640190fd5b611c2d8383876123fe565b979650505050505050565b6000808211611c8e576040805162461bcd60e51b815260206004820152601a60248201527f536166654d6174683a206469766973696f6e206279207a65726f000000000000604482015290519081900360640190fd5b818381611c9757fe5b049392505050565b6000828201838110156111d0576040805162461bcd60e51b815260206004820152601b60248201527f536166654d6174683a206164646974696f6e206f766572666c6f770000000000604482015290519081900360640190fd5b611d016110e1565b15611d46576040805162461bcd60e51b815260206004820152601060248201526f14185d5cd8589b194e881c185d5cd95960821b604482015290519081900360640190fd5b6033805460ff191660011790557f62e78cea01bee320cd4e420270b5ea74000d11b0c9f74754ebdbfc544b05a258611a4b6117e1565b60006111d0838361246e565b60006111d0836001600160a01b0384166124d2565b6000610835826124ea565b6000611db3306124ee565b15905090565b600054610100900460ff1680611dd25750611dd2611da8565b80611de0575060005460ff16155b611e1b5760405162461bcd60e51b815260040180806020018281038252602e815260200180612c6a602e913960400191505060405180910390fd5b600054610100900460ff16158015611e46576000805460ff1961ff0019909116610100171660011790555b611e4e6124f4565b611e566124f4565b8015611e68576000805461ff00191690555b50565b600054610100900460ff1680611e845750611e84611da8565b80611e92575060005460ff16155b611ecd5760405162461bcd60e51b815260040180806020018281038252602e815260200180612c6a602e913960400191505060405180910390fd5b600054610100900460ff16158015611ef8576000805460ff1961ff0019909116610100171660011790555b611f006124f4565b611e56612594565b600082821115611f5f576040805162461bcd60e51b815260206004820152601e60248201527f536166654d6174683a207375627472616374696f6e206f766572666c6f770000604482015290519081900360640190fd5b50900390565b60006111d0836001600160a01b03841661263f565b60006111d0836001600160a01b038416612689565b60608182601f011015611fda576040805162461bcd60e51b815260206004820152600e60248201526d736c6963655f6f766572666c6f7760901b604482015290519081900360640190fd5b81830184511015612026576040805162461bcd60e51b8152602060048201526011602482015270736c6963655f6f75744f66426f756e647360781b604482015290519081900360640190fd5b606082158015612045576040519150600082526020820160405261208f565b6040519150601f8416801560200281840101858101878315602002848b0101015b8183101561207e578051835260209283019201612066565b5050858452601f01601f1916604052505b50949350505050565b8151815160009160019181148083146120b457600092506120f2565b600160208701838101602088015b6002848385100114156120ed5780518351146120e15760009650600093505b602092830192016120c2565b505050505b5090949350505050565b6060815167ffffffffffffffff8111801561211657600080fd5b50604051908082528060200260200182016040528015612140578160200160208202803683370190505b50905060606000805b845181101561224f57600091505b604051806040016040528060208152602001600080516020612d28833981519152815250518210156121f857604051806040016040528060208152602001600080516020612d2883398151915281525082815181106121b257fe5b602001015160f81c60f81b6001600160f81b0319168582815181106121d357fe5b01602001516001600160f81b03191614156121ed576121f8565b600190910190612157565b604051806040016040528060208152602001600080516020612d288339815191528152505182141561222f57829350505050610a22565b8184828151811061223c57fe5b6020908102919091010152600101612149565b505050919050565b6060815167ffffffffffffffff8111801561227157600080fd5b5060405190808252806020026020018201604052801561229b578160200160208202803683370190505b50905060005b82518110156122e6578281815181106122b657fe5b602001015160f81c60f81b60f81c60ff168282815181106122d357fe5b60209081029190910101526001016122a1565b50919050565b60606000612303836122fe868661274f565b6127ec565b90506000815167ffffffffffffffff8111801561231f57600080fd5b506040519080825280601f01601f19166020018201604052801561234a576020820181803683370190505b50905060005b825181101561208f57604051806040016040528060208152602001600080516020612d2883398151915281525083828151811061238957fe5b60200260200101518151811061239b57fe5b602001015160f81c60f81b8282815181106123b257fe5b60200101906001600160f81b031916908160001a905350600101612350565b60008080600019848609905083850292508281039150828110156123f6576001820391505b509250929050565b6000818103821680838161240e57fe5b04925080858161241a57fe5b04945080816000038161242957fe5b60028581038087028203028087028203028087028203028087028203028087028203028087028203029586029003909402930460010193909302939093010292915050565b815460009082106124b05760405162461bcd60e51b8152600401808060200182810382526022815260200180612be96022913960400191505060405180910390fd5b8260000182815481106124bf57fe5b9060005260206000200154905092915050565b60009081526001919091016020526040902054151590565b5490565b3b151590565b600054610100900460ff168061250d575061250d611da8565b8061251b575060005460ff16155b6125565760405162461bcd60e51b815260040180806020018281038252602e815260200180612c6a602e913960400191505060405180910390fd5b600054610100900460ff16158015611e56576000805460ff1961ff0019909116610100171660011790558015611e68576000805461ff001916905550565b600054610100900460ff16806125ad57506125ad611da8565b806125bb575060005460ff16155b6125f65760405162461bcd60e51b815260040180806020018281038252602e815260200180612c6a602e913960400191505060405180910390fd5b600054610100900460ff16158015612621576000805460ff1961ff0019909116610100171660011790555b6033805460ff191690558015611e68576000805461ff001916905550565b600061264b83836124d2565b61268157508154600181810184556000848152602080822090930184905584548482528286019093526040902091909155610835565b506000610835565b6000818152600183016020526040812054801561274557835460001980830191908101906000908790839081106126bc57fe5b90600052602060002001549050808760000184815481106126d957fe5b60009182526020808320909101929092558281526001898101909252604090209084019055865487908061270957fe5b60019003818190600052602060002001600090559055866001016000878152602001908152602001600020600090556001945050505050610835565b6000915050610835565b60606000612771612768612762866128bf565b856127ec565b600060066129bc565b9050600061277e82612a82565b60408051600680825260e082019092526001929092189250600091906020820160c08036833701905050905060005b60068110156127e2578060050360050283901c601f168282815181106127cf57fe5b60209081029190910101526001016127ad565b5095945050505050565b60606000825184510167ffffffffffffffff8111801561280b57600080fd5b50604051908082528060200260200182016040528015612835578160200160208202803683370190505b50905060005b84518110156128775784818151811061285057fe5b602002602001015182828151811061286457fe5b602090810291909101015260010161283b565b60005b84518110156120f257845160018201918691811061289457fe5b60200260200101518383806001019450815181106128ae57fe5b60200260200101818152505061287a565b60606000825183510160010167ffffffffffffffff811180156128e157600080fd5b5060405190808252806020026020018201604052801561290b578160200160208202803683370190505b50905060005b835181101561295157600584828151811061292857fe5b6020026020010151901c82828151811061293e57fe5b6020908102919091010152600101612911565b5060008184518151811061296157fe5b60200260200101818152505060005b83518110156129b55783818151811061298557fe5b6020026020010151601f168285518301600101815181106129a257fe5b6020908102919091010152600101612970565b5092915050565b606060008285510167ffffffffffffffff811180156129da57600080fd5b50604051908082528060200260200182016040528015612a04578160200160208202803683370190505b50905060005b8551811015612a4657858181518110612a1f57fe5b6020026020010151828281518110612a3357fe5b6020908102919091010152600101612a0a565b60005b84811015612a775785838380600101945081518110612a6457fe5b6020908102919091010152600101612a49565b509095945050505050565b6040805160a081018252633b6a57b281526326508e6d6020820152631ea119fa91810191909152633d4233dd6060820152632a1462b360808201526000906001825b8451811015612b3f576000601983901c9050858281518110612ae257fe5b60200260200101516005846301ffffff16901b18925060005b6005811015612b3557600182821c81161415612b2d57848160058110612b1d57fe5b602002015163ffffffff16841893505b600101612afb565b5050600101612ac4565b509392505050565b828054600181600116156101000203166002900490600052602060002090601f016020900481019282612b7d5760008555612bc3565b82601f10612b9657805160ff1916838001178555612bc3565b82800160010185558215612bc3579182015b82811115612bc3578251825591602001919060010190612ba8565b50612bcf929150612bd3565b5090565b5b80821115612bcf5760008155600101612bd456fe456e756d657261626c655365743a20696e646578206f7574206f6620626f756e6473416363657373436f6e74726f6c3a2073656e646572206d75737420626520616e2061646d696e20746f206772616e74416363657373436f6e74726f6c3a2073656e646572206d75737420626520616e2061646d696e20746f207265766f6b65496e697469616c697a61626c653a20636f6e747261637420697320616c726561647920696e697469616c697a6564536166654d6174683a206d756c7469706c69636174696f6e206f766572666c6f7765d7a28e3265b37a6474929f336521b332c1681b933f6cb9f3376673440d862a751b795d24b92e3d92d1d0d8f2885f4e9c9c269da350af36ae6b49069babf4bf416363657373436f6e74726f6c3a2063616e206f6e6c792072656e6f756e636520726f6c657320666f722073656c6671707a7279397838676632747664773073336a6e35346b686365366d7561376ca26469706673582212209d5996243bc8a9255f3caf985acd9240cc3fd1aabca4956a3ee58f751659207664736f6c63430007060033",
  "immutableReferences": {},
  "source": "// SPDX-License-Identifier: UNLICENSED\npragma solidity ^0.7.0;\n\nimport \"@openzeppelin/contracts-upgradeable/math/SafeMathUpgradeable.sol\";\nimport \"@openzeppelin/contracts-upgradeable/utils/PausableUpgradeable.sol\";\nimport \"@openzeppelin/contracts-upgradeable/access/AccessControlUpgradeable.sol\";\nimport \"./interfaces/IUTokens.sol\";\nimport \"./interfaces/ITokenWrapper.sol\";\nimport \"./libraries/Bech32.sol\";\nimport \"./libraries/FullMath.sol\";\n\ncontract TokenWrapperV2 is ITokenWrapper, PausableUpgradeable, AccessControlUpgradeable {\n\n    using SafeMathUpgradeable for uint256;\n    using FullMath for uint256;\n    using Bech32 for string;\n\n    //Private instances of contracts to handle Utokens and Stokens\n    IUTokens public _uTokens;\n\n    // defining the fees and minimum values\n    uint256 private _minDeposit;\n    uint256 private _minWithdraw;\n    uint256 private _depositFee;\n    uint256 private _withdrawFee;\n    uint256 private _valueDivisor;\n\n    // constants defining access control ROLES\n    bytes32 public constant BRIDGE_ADMIN_ROLE = keccak256(\"BRIDGE_ADMIN_ROLE\");\n    bytes32 public constant PAUSER_ROLE = keccak256(\"PAUSER_ROLE\");\n\n    //variables defining bech32 validation attributes\n    bytes public hrpBytes;\n    bytes public controlDigitBytes;\n    uint public dataBytesSize;\n\n    /*\n   * @dev Constructor for initializing the TokenWrapper contract.\n   * @param uAddress - address of the UToken contract.\n   * @param bridgeAdminAddress - address of the bridge admin.\n   * @param pauserAddress - address of the pauser admin.\n   * @param valueDivisor - valueDivisor set to 10^9.\n   */\n    function initialize(address uAddress, address bridgeAdminAddress, address pauserAddress, uint256 valueDivisor) public virtual initializer  {\n         __AccessControl_init();\n        __Pausable_init();\n        _setupRole(DEFAULT_ADMIN_ROLE, _msgSender());\n        _setupRole(BRIDGE_ADMIN_ROLE, bridgeAdminAddress);\n        _setupRole(PAUSER_ROLE, pauserAddress);\n        setUTokensContract(uAddress);\n        setMinimumValues(1, 1);\n        _valueDivisor = valueDivisor;\n        // setting bech32 validation attributes\n        hrpBytes = \"cosmos\";\n        controlDigitBytes = \"1\"; \n        dataBytesSize = 38;\n    }\n\n    /**\n     * @dev Set 'fees', called from admin\n     * @param withdrawFee: withdraw fee\n     * @param depositFee: deposit fee\n     *\n     * Emits a {SetFees} event with 'fee' set to the withdraw.\n     *\n     */\n    function setFees(uint256 depositFee, uint256 withdrawFee) public virtual returns (bool success){\n        require(hasRole(DEFAULT_ADMIN_ROLE, _msgSender()), \"TW1\");\n        // range checks for fees. Since fee cannot be more than 100%, the max cap \n        // is _valueDivisor * 100, which then brings the fees to 100 (percentage) \n        require((depositFee <= _valueDivisor.mul(100) || depositFee == 0) && (withdrawFee <= _valueDivisor.mul(100) || withdrawFee == 0), \"TW2\");\n        _depositFee = depositFee;\n        _withdrawFee = withdrawFee;\n        emit SetFees(depositFee, withdrawFee);\n        return true;\n    }\n\n    /**\n     * @dev get fees, minimum set values and value divisor\n     *\n     */\n    function getProps() public view virtual returns (uint256 depositFee, uint256 withdrawFee, uint256 minDeposit, uint256 minWithdraw, uint256 valueDivisor) {\n        depositFee = _depositFee;\n        withdrawFee = _withdrawFee;\n        minDeposit = _minDeposit;\n        minWithdraw = _minWithdraw;\n        valueDivisor = _valueDivisor;\n    }\n\n    /**\n     * @dev Set 'minimum values', called from admin\n     * @param minDeposit: deposit minimum value\n     * @param minWithdraw: withdraw minimum value\n     *\n     * Emits a {SetMinimumValues} event with 'minimum value' set to withdraw.\n     *\n     */\n    function setMinimumValues(uint256 minDeposit, uint256 minWithdraw) public virtual returns (bool success){\n        require(hasRole(DEFAULT_ADMIN_ROLE, _msgSender()), \"TW3\");\n        require(minDeposit >= 1, \"TW4\");\n        require(minWithdraw >= 1, \"TW5\");\n        _minDeposit = minDeposit;\n        _minWithdraw = minWithdraw;\n        emit SetMinimumValues(minDeposit, minWithdraw);\n        return true;\n    }\n\n    /*\n     * @dev Set 'contract address', called for utokens smart contract\n     * @param uAddress: utoken contract address\n     *\n     * Emits a {SetUTokensContract} event with '_contract' set to the utoken contract address.\n     *\n     */\n    function setUTokensContract(address uAddress) public virtual override {\n        require(hasRole(DEFAULT_ADMIN_ROLE, _msgSender()), \"TW6\");\n        _uTokens = IUTokens(uAddress);\n        emit SetUTokensContract(uAddress);\n    }\n\n    /**\n      * @dev Triggers stopped state.\n      *\n      * Requirements:\n      *\n      * - The contract must not be paused.\n      */\n    function pause() public virtual returns (bool success) {\n        require(hasRole(PAUSER_ROLE, _msgSender()), \"TW7\");\n        _pause();\n        return true;\n    }\n\n    /**\n     * @dev Returns to normal state.\n     *\n     * Requirements:\n     *\n     * - The contract must be paused.\n     */\n    function unpause() public virtual returns (bool success) {\n        require(hasRole(PAUSER_ROLE, _msgSender()), \"TW8\");\n        _unpause();\n        return true;\n    }\n\n    /**\n     * @dev common function added to be called by generateUTokens and generateUTokensInBatch and mints new utokens for the provided 'address' and 'amount'\n     * @param to: account address, amount: number of tokens\n     * Requirements:\n     *\n     * - `amount` cannot be less than zero.\n     *\n     */\n    function _generateUTokens(address to, uint256 amount) internal virtual returns (uint256 finalTokens){\n        // the tokens to be generated to the user's address will be after the fee processing\n        uint256 _fee = (amount.mulDiv(_depositFee, _valueDivisor)).div(100);\n        finalTokens = amount.sub(_fee);\n        _uTokens.mint(to, finalTokens);\n        return finalTokens;\n    }\n\n    /**\n     * @dev Mint new utokens for the provided 'address' and 'amount'\n     * @param to: account address, amount: number of tokens\n     *\n     * Emits a {GenerateUTokens} event with 'to' set to address and 'amount' set to amount of tokens.\n     *\n     * Requirements:\n     *\n     * - `amount` cannot be less than zero.\n     *\n     */\n    function generateUTokens(address to, uint256 amount) public virtual override whenNotPaused {\n        require(amount >= _minDeposit, \"TW9\");\n        require(hasRole(BRIDGE_ADMIN_ROLE, _msgSender()), \"TW10\");\n        uint256 _finalTokens = _generateUTokens(to, amount);\n        emit GenerateUTokens(to, amount, _finalTokens, block.timestamp);\n    }\n\n    /**\n     * @dev Mint new utokens for the provided 'address' and 'amount' in batch\n     * @param to[]: array of account addresses, amount[]: array of tokens\n     *\n     * Emits a {GenerateUTokens} event with 'to' set to address and 'amount' set to amount of tokens.\n     *\n     * Requirements:\n     *\n     * - `amount` cannot be less than zero.\n     *\n     */\n    function generateUTokensInBatch(address[] memory to, uint256[] memory amount) public virtual override whenNotPaused {\n        require(to.length == amount.length, \"TW11\");\n        require(hasRole(BRIDGE_ADMIN_ROLE, _msgSender()), \"TW12\");\n        uint256 i;\n        uint256[] memory _finalTokensArray = new uint256[](to.length);\n        uint256 _toLength = to.length;\n        for ( i=0; i<_toLength; i=i.add(1)) {\n            require(amount[i] >= _minDeposit, \"TW13\");\n            _finalTokensArray[i] = _generateUTokens(to[i], amount[i]);\n        }\n        emit GenerateUTokensInBatch(to, amount, _finalTokensArray, block.timestamp);\n    }\n\n    /**\n     * @dev check if the address is Bech32Valid\n     *\n     */\n    function isBech32Valid(string memory toChainAddress) public view virtual override returns (bool isAddressValid) {\n        isAddressValid = toChainAddress.isBech32AddressValid(hrpBytes, controlDigitBytes, dataBytesSize);\n    }\n\n    /**\n     * @dev Burn utokens for the provided 'address' and 'tokens'\n     * @param from: account address, tokens: number of tokens, toChainAddress: atom wallet address\n     *\n     * Emits a {WithdrawUTokens} event with 'from' set to address, 'finalTokens' set to amount of tokens and 'toChainAddress'\n     *\n     * Requirements:\n     *\n     * - `tokens` cannot be less than zero.\n     *\n     */\n    function withdrawUTokens(address from, uint256 tokens, string memory toChainAddress) public virtual override whenNotPaused {\n        require(tokens >= _minWithdraw, \"TW14\");\n        //check if toChainAddress is valid address\n        bool isAddressValid = toChainAddress.isBech32AddressValid(hrpBytes, controlDigitBytes, dataBytesSize);\n        require(isAddressValid == true, \"TW15\");\n        uint256 _currentUTokenBalance = _uTokens.balanceOf(from);\n        // final tokens is the amount of tokens to be burned, including the fee\n        uint256 _fee = (tokens.mulDiv(_withdrawFee, _valueDivisor)).div(100);\n        uint256 _finalTokens = tokens.add(_fee);\n        require(_currentUTokenBalance >= _finalTokens, \"TW16\");\n        require(from == _msgSender(), \"TW17\");\n\n        _uTokens.burn(from, _finalTokens);\n        emit WithdrawUTokens(from, tokens, _finalTokens, toChainAddress, block.timestamp);\n    }\n}\n\n",
  "sourcePath": "C:/Users/Kamlesh/Persistence/pStake/codebase/pStake-smartContracts/contracts/TokenWrapperV2.sol",
  "compiler": {
    "name": "solc",
    "version": "0.7.6+commit.7338295f.Emscripten.clang"
  },
  "schemaVersion": "3.3.4",
  "updatedAt": "2021-08-14T06:15:20.848Z",
  "devdoc": {
    "kind": "dev",
    "methods": {
      "generateUTokens(address,uint256)": {
        "details": "Mint new utokens for the provided 'address' and 'amount'",
        "params": {
          "to": ": account address, amount: number of tokens Emits a {GenerateUTokens} event with 'to' set to address and 'amount' set to amount of tokens. Requirements: - `amount` cannot be less than zero."
        }
      },
      "generateUTokensInBatch(address[],uint256[])": {
        "details": "Mint new utokens for the provided 'address' and 'amount' in batch",
        "params": {
          "to": "[]: array of account addresses, amount[]: array of tokens Emits a {GenerateUTokens} event with 'to' set to address and 'amount' set to amount of tokens. Requirements: - `amount` cannot be less than zero."
        }
      },
      "getProps()": {
        "details": "get fees, minimum set values and value divisor"
      },
      "getRoleAdmin(bytes32)": {
        "details": "Returns the admin role that controls `role`. See {grantRole} and {revokeRole}. To change a role's admin, use {_setRoleAdmin}."
      },
      "getRoleMember(bytes32,uint256)": {
        "details": "Returns one of the accounts that have `role`. `index` must be a value between 0 and {getRoleMemberCount}, non-inclusive. Role bearers are not sorted in any particular way, and their ordering may change at any point. WARNING: When using {getRoleMember} and {getRoleMemberCount}, make sure you perform all queries on the same block. See the following https://forum.openzeppelin.com/t/iterating-over-elements-on-enumerableset-in-openzeppelin-contracts/2296[forum post] for more information."
      },
      "getRoleMemberCount(bytes32)": {
        "details": "Returns the number of accounts that have `role`. Can be used together with {getRoleMember} to enumerate all bearers of a role."
      },
      "grantRole(bytes32,address)": {
        "details": "Grants `role` to `account`. If `account` had not been already granted `role`, emits a {RoleGranted} event. Requirements: - the caller must have ``role``'s admin role."
      },
      "hasRole(bytes32,address)": {
        "details": "Returns `true` if `account` has been granted `role`."
      },
      "isBech32Valid(string)": {
        "details": "check if the address is Bech32Valid"
      },
      "pause()": {
        "details": "Triggers stopped state. Requirements: - The contract must not be paused."
      },
      "paused()": {
        "details": "Returns true if the contract is paused, and false otherwise."
      },
      "renounceRole(bytes32,address)": {
        "details": "Revokes `role` from the calling account. Roles are often managed via {grantRole} and {revokeRole}: this function's purpose is to provide a mechanism for accounts to lose their privileges if they are compromised (such as when a trusted device is misplaced). If the calling account had been granted `role`, emits a {RoleRevoked} event. Requirements: - the caller must be `account`."
      },
      "revokeRole(bytes32,address)": {
        "details": "Revokes `role` from `account`. If `account` had been granted `role`, emits a {RoleRevoked} event. Requirements: - the caller must have ``role``'s admin role."
      },
      "setFees(uint256,uint256)": {
        "details": "Set 'fees', called from admin",
        "params": {
          "depositFee": ": deposit fee Emits a {SetFees} event with 'fee' set to the withdraw.",
          "withdrawFee": ": withdraw fee"
        }
      },
      "setMinimumValues(uint256,uint256)": {
        "details": "Set 'minimum values', called from admin",
        "params": {
          "minDeposit": ": deposit minimum value",
          "minWithdraw": ": withdraw minimum value Emits a {SetMinimumValues} event with 'minimum value' set to withdraw."
        }
      },
      "setUTokensContract(address)": {
        "details": "Set UTokens smart contract. Emits a {SetUTokensContract} event."
      },
      "unpause()": {
        "details": "Returns to normal state. Requirements: - The contract must be paused."
      },
      "withdrawUTokens(address,uint256,string)": {
        "details": "Burn utokens for the provided 'address' and 'tokens'",
        "params": {
          "from": ": account address, tokens: number of tokens, toChainAddress: atom wallet address Emits a {WithdrawUTokens} event with 'from' set to address, 'finalTokens' set to amount of tokens and 'toChainAddress' Requirements: - `tokens` cannot be less than zero."
        }
      }
    },
    "version": 1
  },
  "userdoc": {
    "kind": "user",
    "methods": {},
    "version": 1
  }
}