{
  "contractName": "TokenWrapperV6",
  "abi": [
    {
      "anonymous": false,
      "inputs": [
        {
          "indexed": true,
          "internalType": "address",
          "name": "accountAddress",
          "type": "address"
        },
        {
          "indexed": true,
          "internalType": "uint256",
          "name": "tokens",
          "type": "uint256"
        },
        {
          "indexed": true,
          "internalType": "uint256",
          "name": "finalTokens",
          "type": "uint256"
        },
        {
          "indexed": false,
          "internalType": "uint256",
          "name": "timestamp",
          "type": "uint256"
        }
      ],
      "name": "GenerateUTokens",
      "type": "event"
    },
    {
      "anonymous": false,
      "inputs": [
        {
          "indexed": false,
          "internalType": "address[]",
          "name": "accountAddress",
          "type": "address[]"
        },
        {
          "indexed": false,
          "internalType": "uint256[]",
          "name": "tokens",
          "type": "uint256[]"
        },
        {
          "indexed": false,
          "internalType": "uint256[]",
          "name": "finalTokens",
          "type": "uint256[]"
        },
        {
          "indexed": false,
          "internalType": "uint256",
          "name": "timestamp",
          "type": "uint256"
        }
      ],
      "name": "GenerateUTokensInBatch",
      "type": "event"
    },
    {
      "anonymous": false,
      "inputs": [
        {
          "indexed": false,
          "internalType": "address",
          "name": "account",
          "type": "address"
        }
      ],
      "name": "Paused",
      "type": "event"
    },
    {
      "anonymous": false,
      "inputs": [
        {
          "indexed": true,
          "internalType": "bytes32",
          "name": "role",
          "type": "bytes32"
        },
        {
          "indexed": true,
          "internalType": "bytes32",
          "name": "previousAdminRole",
          "type": "bytes32"
        },
        {
          "indexed": true,
          "internalType": "bytes32",
          "name": "newAdminRole",
          "type": "bytes32"
        }
      ],
      "name": "RoleAdminChanged",
      "type": "event"
    },
    {
      "anonymous": false,
      "inputs": [
        {
          "indexed": true,
          "internalType": "bytes32",
          "name": "role",
          "type": "bytes32"
        },
        {
          "indexed": true,
          "internalType": "address",
          "name": "account",
          "type": "address"
        },
        {
          "indexed": true,
          "internalType": "address",
          "name": "sender",
          "type": "address"
        }
      ],
      "name": "RoleGranted",
      "type": "event"
    },
    {
      "anonymous": false,
      "inputs": [
        {
          "indexed": true,
          "internalType": "bytes32",
          "name": "role",
          "type": "bytes32"
        },
        {
          "indexed": true,
          "internalType": "address",
          "name": "account",
          "type": "address"
        },
        {
          "indexed": true,
          "internalType": "address",
          "name": "sender",
          "type": "address"
        }
      ],
      "name": "RoleRevoked",
      "type": "event"
    },
    {
      "anonymous": false,
      "inputs": [
        {
          "indexed": true,
          "internalType": "uint256",
          "name": "depositFee",
          "type": "uint256"
        },
        {
          "indexed": true,
          "internalType": "uint256",
          "name": "withdrawFee",
          "type": "uint256"
        }
      ],
      "name": "SetFees",
      "type": "event"
    },
    {
      "anonymous": false,
      "inputs": [
        {
          "indexed": true,
          "internalType": "address",
          "name": "_contract",
          "type": "address"
        }
      ],
      "name": "SetMigrationAdminEvent",
      "type": "event"
    },
    {
      "anonymous": false,
      "inputs": [
        {
          "indexed": true,
          "internalType": "uint256",
          "name": "minDeposit",
          "type": "uint256"
        },
        {
          "indexed": true,
          "internalType": "uint256",
          "name": "minWithdraw",
          "type": "uint256"
        }
      ],
      "name": "SetMinimumValues",
      "type": "event"
    },
    {
      "anonymous": false,
      "inputs": [
        {
          "indexed": true,
          "internalType": "address",
          "name": "_contract",
          "type": "address"
        }
      ],
      "name": "SetUTokensContract",
      "type": "event"
    },
    {
      "anonymous": false,
      "inputs": [
        {
          "indexed": false,
          "internalType": "address",
          "name": "account",
          "type": "address"
        }
      ],
      "name": "Unpaused",
      "type": "event"
    },
    {
      "anonymous": false,
      "inputs": [
        {
          "indexed": true,
          "internalType": "address",
          "name": "accountAddress",
          "type": "address"
        },
        {
          "indexed": true,
          "internalType": "uint256",
          "name": "tokens",
          "type": "uint256"
        },
        {
          "indexed": false,
          "internalType": "uint256",
          "name": "finalTokens",
          "type": "uint256"
        },
        {
          "indexed": false,
          "internalType": "string",
          "name": "toChainAddress",
          "type": "string"
        },
        {
          "indexed": false,
          "internalType": "uint256",
          "name": "timestamp",
          "type": "uint256"
        }
      ],
      "name": "WithdrawUTokens",
      "type": "event"
    },
    {
      "anonymous": false,
      "inputs": [
        {
          "indexed": true,
          "internalType": "address",
          "name": "accountAddress",
          "type": "address"
        },
        {
          "indexed": true,
          "internalType": "uint256",
          "name": "tokens",
          "type": "uint256"
        },
        {
          "indexed": false,
          "internalType": "uint256",
          "name": "finalTokens",
          "type": "uint256"
        },
        {
          "indexed": false,
          "internalType": "string",
          "name": "toChainAddress",
          "type": "string"
        },
        {
          "indexed": false,
          "internalType": "uint256",
          "name": "timestamp",
          "type": "uint256"
        }
      ],
      "name": "WithdrawUTokensToPersistenceChain",
      "type": "event"
    },
    {
      "inputs": [],
      "name": "BRIDGE_ADMIN_ROLE",
      "outputs": [
        {
          "internalType": "bytes32",
          "name": "",
          "type": "bytes32"
        }
      ],
      "stateMutability": "view",
      "type": "function"
    },
    {
      "inputs": [],
      "name": "DEFAULT_ADMIN_ROLE",
      "outputs": [
        {
          "internalType": "bytes32",
          "name": "",
          "type": "bytes32"
        }
      ],
      "stateMutability": "view",
      "type": "function"
    },
    {
      "inputs": [],
      "name": "PAUSER_ROLE",
      "outputs": [
        {
          "internalType": "bytes32",
          "name": "",
          "type": "bytes32"
        }
      ],
      "stateMutability": "view",
      "type": "function"
    },
    {
      "inputs": [],
      "name": "_migrationAdminContract",
      "outputs": [
        {
          "internalType": "address",
          "name": "",
          "type": "address"
        }
      ],
      "stateMutability": "view",
      "type": "function"
    },
    {
      "inputs": [],
      "name": "_uTokens",
      "outputs": [
        {
          "internalType": "contract IUTokensV2",
          "name": "",
          "type": "address"
        }
      ],
      "stateMutability": "view",
      "type": "function"
    },
    {
      "inputs": [],
      "name": "_valueDivisor",
      "outputs": [
        {
          "internalType": "uint256",
          "name": "",
          "type": "uint256"
        }
      ],
      "stateMutability": "view",
      "type": "function"
    },
    {
      "inputs": [],
      "name": "_version",
      "outputs": [
        {
          "internalType": "uint256",
          "name": "",
          "type": "uint256"
        }
      ],
      "stateMutability": "view",
      "type": "function"
    },
    {
      "inputs": [],
      "name": "controlDigitBytes",
      "outputs": [
        {
          "internalType": "bytes",
          "name": "",
          "type": "bytes"
        }
      ],
      "stateMutability": "view",
      "type": "function"
    },
    {
      "inputs": [],
      "name": "dataBytesSize",
      "outputs": [
        {
          "internalType": "uint256",
          "name": "",
          "type": "uint256"
        }
      ],
      "stateMutability": "view",
      "type": "function"
    },
    {
      "inputs": [
        {
          "internalType": "bytes32",
          "name": "role",
          "type": "bytes32"
        }
      ],
      "name": "getRoleAdmin",
      "outputs": [
        {
          "internalType": "bytes32",
          "name": "",
          "type": "bytes32"
        }
      ],
      "stateMutability": "view",
      "type": "function"
    },
    {
      "inputs": [
        {
          "internalType": "bytes32",
          "name": "role",
          "type": "bytes32"
        },
        {
          "internalType": "uint256",
          "name": "index",
          "type": "uint256"
        }
      ],
      "name": "getRoleMember",
      "outputs": [
        {
          "internalType": "address",
          "name": "",
          "type": "address"
        }
      ],
      "stateMutability": "view",
      "type": "function"
    },
    {
      "inputs": [
        {
          "internalType": "bytes32",
          "name": "role",
          "type": "bytes32"
        }
      ],
      "name": "getRoleMemberCount",
      "outputs": [
        {
          "internalType": "uint256",
          "name": "",
          "type": "uint256"
        }
      ],
      "stateMutability": "view",
      "type": "function"
    },
    {
      "inputs": [
        {
          "internalType": "bytes32",
          "name": "role",
          "type": "bytes32"
        },
        {
          "internalType": "address",
          "name": "account",
          "type": "address"
        }
      ],
      "name": "grantRole",
      "outputs": [],
      "stateMutability": "nonpayable",
      "type": "function"
    },
    {
      "inputs": [
        {
          "internalType": "bytes32",
          "name": "role",
          "type": "bytes32"
        },
        {
          "internalType": "address",
          "name": "account",
          "type": "address"
        }
      ],
      "name": "hasRole",
      "outputs": [
        {
          "internalType": "bool",
          "name": "",
          "type": "bool"
        }
      ],
      "stateMutability": "view",
      "type": "function"
    },
    {
      "inputs": [],
      "name": "hrpBytes",
      "outputs": [
        {
          "internalType": "bytes",
          "name": "",
          "type": "bytes"
        }
      ],
      "stateMutability": "view",
      "type": "function"
    },
    {
      "inputs": [],
      "name": "paused",
      "outputs": [
        {
          "internalType": "bool",
          "name": "",
          "type": "bool"
        }
      ],
      "stateMutability": "view",
      "type": "function"
    },
    {
      "inputs": [
        {
          "internalType": "bytes32",
          "name": "role",
          "type": "bytes32"
        },
        {
          "internalType": "address",
          "name": "account",
          "type": "address"
        }
      ],
      "name": "renounceRole",
      "outputs": [],
      "stateMutability": "nonpayable",
      "type": "function"
    },
    {
      "inputs": [
        {
          "internalType": "bytes32",
          "name": "role",
          "type": "bytes32"
        },
        {
          "internalType": "address",
          "name": "account",
          "type": "address"
        }
      ],
      "name": "revokeRole",
      "outputs": [],
      "stateMutability": "nonpayable",
      "type": "function"
    },
    {
      "inputs": [
        {
          "internalType": "address",
          "name": "uAddress",
          "type": "address"
        },
        {
          "internalType": "address",
          "name": "bridgeAdminAddress",
          "type": "address"
        },
        {
          "internalType": "address",
          "name": "pauserAddress",
          "type": "address"
        },
        {
          "internalType": "uint256",
          "name": "valueDivisor",
          "type": "uint256"
        }
      ],
      "name": "initialize",
      "outputs": [],
      "stateMutability": "nonpayable",
      "type": "function"
    },
    {
      "inputs": [
        {
          "internalType": "uint256",
          "name": "depositFee",
          "type": "uint256"
        },
        {
          "internalType": "uint256",
          "name": "withdrawFee",
          "type": "uint256"
        }
      ],
      "name": "setFees",
      "outputs": [
        {
          "internalType": "bool",
          "name": "success",
          "type": "bool"
        }
      ],
      "stateMutability": "nonpayable",
      "type": "function"
    },
    {
      "inputs": [],
      "name": "getProps",
      "outputs": [
        {
          "internalType": "uint256",
          "name": "depositFee",
          "type": "uint256"
        },
        {
          "internalType": "uint256",
          "name": "withdrawFee",
          "type": "uint256"
        },
        {
          "internalType": "uint256",
          "name": "minDeposit",
          "type": "uint256"
        },
        {
          "internalType": "uint256",
          "name": "minWithdraw",
          "type": "uint256"
        },
        {
          "internalType": "uint256",
          "name": "valueDivisor",
          "type": "uint256"
        }
      ],
      "stateMutability": "view",
      "type": "function"
    },
    {
      "inputs": [
        {
          "internalType": "uint256",
          "name": "minDeposit",
          "type": "uint256"
        },
        {
          "internalType": "uint256",
          "name": "minWithdraw",
          "type": "uint256"
        }
      ],
      "name": "setMinimumValues",
      "outputs": [
        {
          "internalType": "bool",
          "name": "success",
          "type": "bool"
        }
      ],
      "stateMutability": "nonpayable",
      "type": "function"
    },
    {
      "inputs": [
        {
          "internalType": "address",
          "name": "uAddress",
          "type": "address"
        }
      ],
      "name": "setUTokensContract",
      "outputs": [],
      "stateMutability": "nonpayable",
      "type": "function"
    },
    {
      "inputs": [
        {
          "internalType": "address",
          "name": "to",
          "type": "address"
        },
        {
          "internalType": "uint256",
          "name": "amount",
          "type": "uint256"
        }
      ],
      "name": "generateUTokens",
      "outputs": [
        {
          "internalType": "uint256",
          "name": "wrappedTokens",
          "type": "uint256"
        }
      ],
      "stateMutability": "nonpayable",
      "type": "function"
    },
    {
      "inputs": [
        {
          "internalType": "address[]",
          "name": "toAddresses",
          "type": "address[]"
        },
        {
          "internalType": "uint256[]",
          "name": "amounts",
          "type": "uint256[]"
        }
      ],
      "name": "generateUTokensInBatch",
      "outputs": [
        {
          "internalType": "uint256[]",
          "name": "wrappedTokensArray",
          "type": "uint256[]"
        }
      ],
      "stateMutability": "nonpayable",
      "type": "function"
    },
    {
      "inputs": [
        {
          "internalType": "string",
          "name": "toChainAddress",
          "type": "string"
        }
      ],
      "name": "isBech32Valid",
      "outputs": [
        {
          "internalType": "bool",
          "name": "isAddressValid",
          "type": "bool"
        }
      ],
      "stateMutability": "view",
      "type": "function"
    },
    {
      "inputs": [
        {
          "internalType": "address",
          "name": "from",
          "type": "address"
        },
        {
          "internalType": "uint256",
          "name": "tokens",
          "type": "uint256"
        },
        {
          "internalType": "string",
          "name": "toChainAddress",
          "type": "string"
        }
      ],
      "name": "withdrawUTokens",
      "outputs": [
        {
          "internalType": "uint256",
          "name": "unwrappedTokens",
          "type": "uint256"
        }
      ],
      "stateMutability": "nonpayable",
      "type": "function"
    },
    {
      "inputs": [
        {
          "internalType": "address",
          "name": "migrationAdminContract",
          "type": "address"
        }
      ],
      "name": "setMigrationAdminContract",
      "outputs": [],
      "stateMutability": "nonpayable",
      "type": "function"
    },
    {
      "inputs": [],
      "name": "pause",
      "outputs": [
        {
          "internalType": "bool",
          "name": "success",
          "type": "bool"
        }
      ],
      "stateMutability": "nonpayable",
      "type": "function"
    },
    {
      "inputs": [],
      "name": "unpause",
      "outputs": [
        {
          "internalType": "bool",
          "name": "success",
          "type": "bool"
        }
      ],
      "stateMutability": "nonpayable",
      "type": "function"
    },
    {
      "inputs": [
        {
          "internalType": "address",
          "name": "from",
          "type": "address"
        },
        {
          "internalType": "uint256",
          "name": "tokens",
          "type": "uint256"
        },
        {
          "internalType": "string",
          "name": "toChainAddress",
          "type": "string"
        }
      ],
      "name": "withdrawUTokensToPersistenceChain",
      "outputs": [
        {
          "internalType": "uint256",
          "name": "unwrappedTokens",
          "type": "uint256"
        }
      ],
      "stateMutability": "nonpayable",
      "type": "function"
    }
  ],
  "bytecode": "0x608060405234801561001057600080fd5b506131da806100206000396000f3fe608060405234801561001057600080fd5b50600436106101e55760003560e01c80638456cb591161010f578063ca15c873116100a2578063e3ac914b11610071578063e3ac914b14610718578063e63ab1e914610720578063e7fa0a3214610728578063ec1893b414610836576101e5565b8063ca15c8731461068b578063cf756fdf146106a8578063d37f5598146106e4578063d547741f146106ec576101e5565b806391d14854116100de57806391d1485414610521578063a217fddf1461054d578063a53dcd7214610555578063a76c4427146105d2576101e5565b80638456cb591461042c5780638e28310e146104345780638f001d4e1461045a5780639010d07c146104fe576101e5565b80633e118dbe116101875780635c5cfb37116101565780635c5cfb37146103f05780635c975abb14610414578063728a99ee1461041c57806378a2f07414610424576101e5565b80633e118dbe146103045780633f4ba83a1461030c578063428bee9e1461031457806351db00e7146103cd576101e5565b806322dd9bc3116101c357806322dd9bc314610263578063248a9ca31461028f5780632f2ff15d146102ac57806336568abe146102d8576101e5565b80630b78f9c0146101ea578063118c38c71461022157806321bdf9e51461023b575b600080fd5b61020d6004803603604081101561020057600080fd5b5080359060200135610869565b604080519115158252519081900360200190f35b610229610955565b60408051918252519081900360200190f35b6102616004803603602081101561025157600080fd5b50356001600160a01b0316610967565b005b6102296004803603604081101561027957600080fd5b506001600160a01b0381351690602001356109f5565b610229600480360360208110156102a557600080fd5b5035610aa0565b610261600480360360408110156102c257600080fd5b50803590602001356001600160a01b0316610ab8565b610261600480360360408110156102ee57600080fd5b50803590602001356001600160a01b0316610b1f565b610229610b80565b61020d610b86565b6102296004803603606081101561032a57600080fd5b6001600160a01b0382351691602081013591810190606081016040820135600160201b81111561035957600080fd5b82018360208201111561036b57600080fd5b803590602001918460018302840111600160201b8311171561038c57600080fd5b91908080601f016020809104026020016040519081016040528093929190818152602001838380828437600092019190915250929550610be7945050505050565b61020d600480360360408110156103e357600080fd5b508035906020013561108f565b6103f861118c565b604080516001600160a01b039092168252519081900360200190f35b61020d61119b565b6102296111a4565b6103f86111aa565b61020d6111b9565b6102616004803603602081101561044a57600080fd5b50356001600160a01b0316611214565b61020d6004803603602081101561047057600080fd5b810190602081018135600160201b81111561048a57600080fd5b82018360208201111561049c57600080fd5b803590602001918460018302840111600160201b831117156104bd57600080fd5b91908080601f0160208091040260200160405190810160405280939291908181526020018383808284376000920191909152509295506112a5945050505050565b6103f86004803603604081101561051457600080fd5b50803590602001356113d4565b61020d6004803603604081101561053757600080fd5b50803590602001356001600160a01b03166113f3565b61022961140b565b61055d611410565b6040805160208082528351818301528351919283929083019185019080838360005b8381101561059757818101518382015260200161057f565b50505050905090810190601f1680156105c45780820380516001836020036101000a031916815260200191505b509250505060405180910390f35b610229600480360360608110156105e857600080fd5b6001600160a01b0382351691602081013591810190606081016040820135600160201b81111561061757600080fd5b82018360208201111561062957600080fd5b803590602001918460018302840111600160201b8311171561064a57600080fd5b91908080601f01602080910402602001604051908101604052809392919081815260200183838082843760009201919091525092955061149e945050505050565b610229600480360360208110156106a157600080fd5b50356117ab565b610261600480360360808110156106be57600080fd5b506001600160a01b038135811691602081013582169160408201351690606001356117c2565b61055d611930565b6102616004803603604081101561070257600080fd5b50803590602001356001600160a01b031661198b565b6102296119e4565b6102296119ea565b6107e66004803603604081101561073e57600080fd5b810190602081018135600160201b81111561075857600080fd5b82018360208201111561076a57600080fd5b803590602001918460208302840111600160201b8311171561078b57600080fd5b919390929091602081019035600160201b8111156107a857600080fd5b8201836020820111156107ba57600080fd5b803590602001918460208302840111600160201b831117156107db57600080fd5b5090925090506119fc565b60408051602080825283518183015283519192839290830191858101910280838360005b8381101561082257818101518382015260200161080a565b505050509050019250505060405180910390f35b61083e611c2b565b6040805195865260208601949094528484019290925260608401526080830152519081900360a00190f35b600061087c81610877611c45565b6113f3565b6108b3576040805162461bcd60e51b815260206004820152600360248201526254573160e81b604482015290519081900360640190fd5b609c546108c1906064611c49565b83111580156108dd5750609c546108d9906064611c49565b8211155b610914576040805162461bcd60e51b81526020600482015260036024820152622a2b9960e91b604482015290519081900360640190fd5b609a839055609b829055604051829084907f3be6e637f54f081a2dd12982cfd58481304fc98b604b18fa8ed4aa4e4a9d153290600090a35060015b92915050565b60008051602061313683398151915281565b6109746000610877611c45565b6109ab576040805162461bcd60e51b81526020600482015260036024820152622a2b9b60e91b604482015290519081900360640190fd5b609780546001600160a01b0319166001600160a01b0383169081179091556040517ff745c285f36f88bea6af14d4d0f33dd9350cef7895216c1615b1caaee7857e0c90600090a250565b6000610a11600080516020613136833981519152610877611c45565b610a4b576040805162461bcd60e51b815260206004808301919091526024820152630545731360e41b604482015290519081900360640190fd5b610a558383611ca2565b90508181846001600160a01b03167f572f067f64ae57ed816b7e9b5424a87d97035d68384f149586cba42b4192c9d8426040518082815260200191505060405180910390a492915050565b6000818152606560205260409020600201545b919050565b600082815260656020526040902060020154610ad690610877611c45565b610b115760405162461bcd60e51b815260040180806020018281038252602f815260200180613068602f913960400191505060405180910390fd5b610b1b8282611dad565b5050565b610b27611c45565b6001600160a01b0316816001600160a01b031614610b765760405162461bcd60e51b815260040180806020018281038252602f815260200180613156602f913960400191505060405180910390fd5b610b1b8282611e16565b60a05481565b6000610ba2600080516020613116833981519152610877611c45565b610bd9576040805162461bcd60e51b81526020600482015260036024820152620a8ae760eb1b604482015290519081900360640190fd5b610be1611e7f565b50600190565b6000610bf161119b565b15610c36576040805162461bcd60e51b815260206004820152601060248201526f14185d5cd8589b194e881c185d5cd95960821b604482015290519081900360640190fd5b610c3e611c45565b6001600160a01b0316846001600160a01b03161480610c725750610c60611c45565b60a1546001600160a01b039081169116145b610cac576040805162461bcd60e51b815260206004808301919091526024820152635457313760e01b604482015290519081900360640190fd5b609954831015610cec576040805162461bcd60e51b815260206004808301919091526024820152631515cc4d60e21b604482015290519081900360640190fd5b609754604080516370a0823160e01b81526001600160a01b038781166004830152915160009392909216916370a0823191602480820192602092909190829003018186803b158015610d3d57600080fd5b505afa158015610d51573d6000803e3d6000fd5b505050506040513d6020811015610d6757600080fd5b5051905083811015610da9576040805162461bcd60e51b815260206004808301919091526024820152632a2b989b60e11b604482015290519081900360640190fd5b609d805460408051602060026001851615610100026000190190941693909304601f8101849004840282018401909252818152600093610ed89391929091830182828015610e385780601f10610e0d57610100808354040283529160200191610e38565b820191906000526020600020905b815481529060010190602001808311610e1b57829003601f168201915b5050609e8054604080516020601f6002600019610100600188161502019095169490940493840181900481028201810190925282815295509193509150830182828015610ec65780601f10610e9b57610100808354040283529160200191610ec6565b820191906000526020600020905b815481529060010190602001808311610ea957829003601f168201915b5050609f548a95949350915050611f1f565b9050600181151514610f1a576040805162461bcd60e51b815260206004808301919091526024820152635457313560e01b604482015290519081900360640190fd5b6000610f406064610f3a609b54609c548a6120369092919063ffffffff16565b906120ef565b9050610f4c8682612156565b935083876001600160a01b03167f0f4363f6961ed151f2cf8f720784b70c0f5573f216fc939f67f2a5d12698e02e8888426040518084815260200180602001838152602001828103825284818151815260200191508051906020019080838360005b83811015610fc6578181015183820152602001610fae565b50505050905090810190601f168015610ff35780820380516001836020036101000a031916815260200191505b5094505050505060405180910390a360975460408051632770a7eb60e21b81526001600160a01b038a81166004830152602482018a905291519190921691639dc29fac9160448083019260209291908290030181600087803b15801561105857600080fd5b505af115801561106c573d6000803e3d6000fd5b505050506040513d602081101561108257600080fd5b5093979650505050505050565b600061109d81610877611c45565b6110d4576040805162461bcd60e51b815260206004820152600360248201526254573360e81b604482015290519081900360640190fd5b6001831015611110576040805162461bcd60e51b81526020600482015260036024820152621515cd60ea1b604482015290519081900360640190fd5b600182101561114c576040805162461bcd60e51b815260206004820152600360248201526254573560e81b604482015290519081900360640190fd5b60988390556099829055604051829084907fa94d40347449ea19b873d64ed55c99772194c49791e82be5c2dc24e4c0044fe390600090a350600192915050565b60a1546001600160a01b031681565b60335460ff1690565b609c5481565b6097546001600160a01b031681565b60006111d5600080516020613116833981519152610877611c45565b61120c576040805162461bcd60e51b815260206004820152600360248201526254573760e81b604482015290519081900360640190fd5b610be16121b3565b6112216000610877611c45565b61125b576040805162461bcd60e51b815260206004808301919091526024820152630a8ae62760e31b604482015290519081900360640190fd5b60a180546001600160a01b0319166001600160a01b0383169081179091556040517fadf61f17e6fb5412e464eca26d3d55b10b68c795cb26e76bc26a2ea6d418efb490600090a250565b609d805460408051602060026001851615610100026000190190941693909304601f810184900484028201840190925281815260009361094f93919290918301828280156113345780601f1061130957610100808354040283529160200191611334565b820191906000526020600020905b81548152906001019060200180831161131757829003601f168201915b5050609e8054604080516020601f60026000196101006001881615020190951694909404938401819004810282018101909252828152955091935091508301828280156113c25780601f10611397576101008083540402835291602001916113c2565b820191906000526020600020905b8154815290600101906020018083116113a557829003601f168201915b5050609f548895949350915050611f1f565b60008281526065602052604081206113ec9083612236565b9392505050565b60008281526065602052604081206113ec9083612242565b600081565b609e805460408051602060026001851615610100026000190190941693909304601f810184900484028201840190925281815292918301828280156114965780601f1061146b57610100808354040283529160200191611496565b820191906000526020600020905b81548152906001019060200180831161147957829003601f168201915b505050505081565b60006114a861119b565b156114ed576040805162461bcd60e51b815260206004820152601060248201526f14185d5cd8589b194e881c185d5cd95960821b604482015290519081900360640190fd5b6114f5611c45565b60a1546001600160a01b03908116911614611540576040805162461bcd60e51b815260206004808301919091526024820152635457313960e01b604482015290519081900360640190fd5b609954831015611580576040805162461bcd60e51b815260206004808301919091526024820152630545732360e41b604482015290519081900360640190fd5b609754604080516370a0823160e01b81526001600160a01b038781166004830152915160009392909216916370a0823191602480820192602092909190829003018186803b1580156115d157600080fd5b505afa1580156115e5573d6000803e3d6000fd5b505050506040513d60208110156115fb57600080fd5b505190508381101561163d576040805162461bcd60e51b815260206004808301919091526024820152635457323160e01b604482015290519081900360640190fd5b600061165d6064610f3a609b54609c54896120369092919063ffffffff16565b90506116698582612156565b925082866001600160a01b03167f24f4941bc4b330795df1c9d99d63147001d9ce9138b40aedf7d84b0e260ca2328787426040518084815260200180602001838152602001828103825284818151815260200191508051906020019080838360005b838110156116e35781810151838201526020016116cb565b50505050905090810190601f1680156117105780820380516001836020036101000a031916815260200191505b5094505050505060405180910390a360975460408051632770a7eb60e21b81526001600160a01b0389811660048301526024820189905291519190921691639dc29fac9160448083019260209291908290030181600087803b15801561177557600080fd5b505af1158015611789573d6000803e3d6000fd5b505050506040513d602081101561179f57600080fd5b50929695505050505050565b600081815260656020526040812061094f90612257565b600054610100900460ff16806117db57506117db612262565b806117e9575060005460ff16155b6118245760405162461bcd60e51b815260040180806020018281038252602e8152602001806130c7602e913960400191505060405180910390fd5b600054610100900460ff1615801561184f576000805460ff1961ff0019909116610100171660011790555b611857612273565b61185f612325565b611871600061186c611c45565b610b11565b61188960008051602061313683398151915285610b11565b6118a160008051602061311683398151915284610b11565b6118aa85610967565b6118b560018061108f565b50609c82905560408051808201909152600680825265636f736d6f7360d01b60209092019182526118e891609d91612fa4565b50604080518082019091526001808252603160f81b602090920191825261191191609e91612fa4565b506026609f558015611929576000805461ff00191690555b5050505050565b609d805460408051602060026001851615610100026000190190941693909304601f810184900484028201840190925281815292918301828280156114965780601f1061146b57610100808354040283529160200191611496565b6000828152606560205260409020600201546119a990610877611c45565b610b765760405162461bcd60e51b81526004018080602001828103825260308152602001806130976030913960400191505060405180910390fd5b609f5481565b60008051602061311683398151915281565b6060838214611a3b576040805162461bcd60e51b815260206004808301919091526024820152635457313160e01b604482015290519081900360640190fd5b611a55600080516020613136833981519152610877611c45565b611a8f576040805162461bcd60e51b815260206004808301919091526024820152632a2b989960e11b604482015290519081900360640190fd5b6000848067ffffffffffffffff81118015611aa957600080fd5b50604051908082528060200260200182016040528015611ad3578160200160208202803683370190505b509250600091505b80821015611b3c57611b1a878784818110611af257fe5b905060200201356001600160a01b0316868685818110611b0e57fe5b90506020020135611ca2565b838381518110611b2657fe5b6020908102919091010152600190910190611adb565b7fff03029439b5b79825ca34bca1b453f01e01935bdde5210a8af22f19705ca1a38787858888426040518080602001806020018060200185815260200184810384528a8a828181526020019250602002808284376000838201819052601f909101601f191690920186810385528a5181528a51602091820193828d0193509102908190849084905b83811015611bdc578181015183820152602001611bc4565b505050509050018481038252878782818152602001925060200280828437600083820152604051601f909101601f19169092018290039b50909950505050505050505050a15050949350505050565b609a54609b54609854609954609c54939492939192909190565b3390565b600082611c585750600061094f565b82820282848281611c6557fe5b04146113ec5760405162461bcd60e51b81526004018080602001828103825260218152602001806130f56021913960400191505060405180910390fd5b60006001600160a01b03831615801590611cbb57508115155b611cf5576040805162461bcd60e51b815260206004808301919091526024820152635457313360e01b604482015290519081900360640190fd5b6000611d156064610f3a609a54609c54876120369092919063ffffffff16565b9050611d218382612156565b609754604080516340c10f1960e01b81526001600160a01b0388811660048301526024820185905291519395509116916340c10f19916044808201926020929091908290030181600087803b158015611d7957600080fd5b505af1158015611d8d573d6000803e3d6000fd5b505050506040513d6020811015611da357600080fd5b5091949350505050565b6000828152606560205260409020611dc590826123c2565b15610b1b57611dd2611c45565b6001600160a01b0316816001600160a01b0316837f2f8788117e7eff1d82e926ec794901d17c78024a50270940304540a733656f0d60405160405180910390a45050565b6000828152606560205260409020611e2e90826123d7565b15610b1b57611e3b611c45565b6001600160a01b0316816001600160a01b0316837ff6391f5c32d9c69d2a47ea670b442974b53935d1edc7fd64eb21e047a839171b60405160405180910390a45050565b611e8761119b565b611ecf576040805162461bcd60e51b815260206004820152601460248201527314185d5cd8589b194e881b9bdd081c185d5cd95960621b604482015290519081900360640190fd5b6033805460ff191690557f5db9ee0a495bf2e6ff9c91a7834c1ba4fdd244a5e8aa4e537bd38aeae4b073aa611f02611c45565b604080516001600160a01b039092168252519081900360200190a1565b825160009085908290611f3590839083906123ec565b9050611f4181876124f5565b611f505760009250505061202e565b8051600090611f6290849060016123ec565b9050611f6e81876124f5565b611f7e576000935050505061202e565b6000611fa083516001016001855187510303866123ec9092919063ffffffff16565b905085815114611fb757600094505050505061202e565b82518451600091611fd3918791600181019103600619016123ec565b90506000611fe082612559565b9050805160001415611ffb576000965050505050505061202e565b6000612006866126b4565b905060006120148284612749565b9050600061202286836124f5565b99505050505050505050505b949350505050565b6000806000612045868661282e565b915091506000848061205357fe5b868809905082811115612067576001820391505b9182900391816120855784838161207a57fe5b0493505050506113ec565b8482106120d9576040805162461bcd60e51b815260206004820152601a60248201527f46756c6c4d6174683a2046554c4c4449565f4f564552464c4f57000000000000604482015290519081900360640190fd5b6120e483838761285b565b979650505050505050565b6000808211612145576040805162461bcd60e51b815260206004820152601a60248201527f536166654d6174683a206469766973696f6e206279207a65726f000000000000604482015290519081900360640190fd5b81838161214e57fe5b049392505050565b6000828211156121ad576040805162461bcd60e51b815260206004820152601e60248201527f536166654d6174683a207375627472616374696f6e206f766572666c6f770000604482015290519081900360640190fd5b50900390565b6121bb61119b565b15612200576040805162461bcd60e51b815260206004820152601060248201526f14185d5cd8589b194e881c185d5cd95960821b604482015290519081900360640190fd5b6033805460ff191660011790557f62e78cea01bee320cd4e420270b5ea74000d11b0c9f74754ebdbfc544b05a258611f02611c45565b60006113ec83836128cb565b60006113ec836001600160a01b03841661292f565b600061094f82612947565b600061226d3061294b565b15905090565b600054610100900460ff168061228c575061228c612262565b8061229a575060005460ff16155b6122d55760405162461bcd60e51b815260040180806020018281038252602e8152602001806130c7602e913960400191505060405180910390fd5b600054610100900460ff16158015612300576000805460ff1961ff0019909116610100171660011790555b612308612951565b612310612951565b8015612322576000805461ff00191690555b50565b600054610100900460ff168061233e575061233e612262565b8061234c575060005460ff16155b6123875760405162461bcd60e51b815260040180806020018281038252602e8152602001806130c7602e913960400191505060405180910390fd5b600054610100900460ff161580156123b2576000805460ff1961ff0019909116610100171660011790555b6123ba612951565b6123106129f1565b60006113ec836001600160a01b038416612a9c565b60006113ec836001600160a01b038416612ae6565b60608182601f011015612437576040805162461bcd60e51b815260206004820152600e60248201526d736c6963655f6f766572666c6f7760901b604482015290519081900360640190fd5b81830184511015612483576040805162461bcd60e51b8152602060048201526011602482015270736c6963655f6f75744f66426f756e647360781b604482015290519081900360640190fd5b6060821580156124a257604051915060008252602082016040526124ec565b6040519150601f8416801560200281840101858101878315602002848b0101015b818310156124db5780518352602092830192016124c3565b5050858452601f01601f1916604052505b50949350505050565b815181516000916001918114808314612511576000925061254f565b600160208701838101602088015b60028483851001141561254a57805183511461253e5760009650600093505b6020928301920161251f565b505050505b5090949350505050565b6060815167ffffffffffffffff8111801561257357600080fd5b5060405190808252806020026020018201604052801561259d578160200160208202803683370190505b50905060606000805b84518110156126ac57600091505b6040518060400160405280602081526020016000805160206131858339815191528152505182101561265557604051806040016040528060208152602001600080516020613185833981519152815250828151811061260f57fe5b602001015160f81c60f81b6001600160f81b03191685828151811061263057fe5b01602001516001600160f81b031916141561264a57612655565b6001909101906125b4565b6040518060400160405280602081526020016000805160206131858339815191528152505182141561268c57829350505050610ab3565b8184828151811061269957fe5b60209081029190910101526001016125a6565b505050919050565b6060815167ffffffffffffffff811180156126ce57600080fd5b506040519080825280602002602001820160405280156126f8578160200160208202803683370190505b50905060005b82518110156127435782818151811061271357fe5b602001015160f81c60f81b60f81c60ff1682828151811061273057fe5b60209081029190910101526001016126fe565b50919050565b606060006127608361275b8686612bac565b612c49565b90506000815167ffffffffffffffff8111801561277c57600080fd5b506040519080825280601f01601f1916602001820160405280156127a7576020820181803683370190505b50905060005b82518110156124ec576040518060400160405280602081526020016000805160206131858339815191528152508382815181106127e657fe5b6020026020010151815181106127f857fe5b602001015160f81c60f81b82828151811061280f57fe5b60200101906001600160f81b031916908160001a9053506001016127ad565b6000808060001984860990508385029250828103915082811015612853576001820391505b509250929050565b6000818103821680838161286b57fe5b04925080858161287757fe5b04945080816000038161288657fe5b60028581038087028203028087028203028087028203028087028203028087028203028087028203029586029003909402930460010193909302939093010292915050565b8154600090821061290d5760405162461bcd60e51b81526004018080602001828103825260228152602001806130466022913960400191505060405180910390fd5b82600001828154811061291c57fe5b9060005260206000200154905092915050565b60009081526001919091016020526040902054151590565b5490565b3b151590565b600054610100900460ff168061296a575061296a612262565b80612978575060005460ff16155b6129b35760405162461bcd60e51b815260040180806020018281038252602e8152602001806130c7602e913960400191505060405180910390fd5b600054610100900460ff16158015612310576000805460ff1961ff0019909116610100171660011790558015612322576000805461ff001916905550565b600054610100900460ff1680612a0a5750612a0a612262565b80612a18575060005460ff16155b612a535760405162461bcd60e51b815260040180806020018281038252602e8152602001806130c7602e913960400191505060405180910390fd5b600054610100900460ff16158015612a7e576000805460ff1961ff0019909116610100171660011790555b6033805460ff191690558015612322576000805461ff001916905550565b6000612aa8838361292f565b612ade5750815460018181018455600084815260208082209093018490558454848252828601909352604090209190915561094f565b50600061094f565b60008181526001830160205260408120548015612ba25783546000198083019190810190600090879083908110612b1957fe5b9060005260206000200154905080876000018481548110612b3657fe5b600091825260208083209091019290925582815260018981019092526040902090840190558654879080612b6657fe5b6001900381819060005260206000200160009055905586600101600087815260200190815260200160002060009055600194505050505061094f565b600091505061094f565b60606000612bce612bc5612bbf86612d1c565b85612c49565b60006006612e19565b90506000612bdb82612edf565b60408051600680825260e082019092526001929092189250600091906020820160c08036833701905050905060005b6006811015612c3f578060050360050283901c601f16828281518110612c2c57fe5b6020908102919091010152600101612c0a565b5095945050505050565b60606000825184510167ffffffffffffffff81118015612c6857600080fd5b50604051908082528060200260200182016040528015612c92578160200160208202803683370190505b50905060005b8451811015612cd457848181518110612cad57fe5b6020026020010151828281518110612cc157fe5b6020908102919091010152600101612c98565b60005b845181101561254f578451600182019186918110612cf157fe5b6020026020010151838380600101945081518110612d0b57fe5b602002602001018181525050612cd7565b60606000825183510160010167ffffffffffffffff81118015612d3e57600080fd5b50604051908082528060200260200182016040528015612d68578160200160208202803683370190505b50905060005b8351811015612dae576005848281518110612d8557fe5b6020026020010151901c828281518110612d9b57fe5b6020908102919091010152600101612d6e565b50600081845181518110612dbe57fe5b60200260200101818152505060005b8351811015612e1257838181518110612de257fe5b6020026020010151601f16828551830160010181518110612dff57fe5b6020908102919091010152600101612dcd565b5092915050565b606060008285510167ffffffffffffffff81118015612e3757600080fd5b50604051908082528060200260200182016040528015612e61578160200160208202803683370190505b50905060005b8551811015612ea357858181518110612e7c57fe5b6020026020010151828281518110612e9057fe5b6020908102919091010152600101612e67565b60005b84811015612ed45785838380600101945081518110612ec157fe5b6020908102919091010152600101612ea6565b509095945050505050565b6040805160a081018252633b6a57b281526326508e6d6020820152631ea119fa91810191909152633d4233dd6060820152632a1462b360808201526000906001825b8451811015612f9c576000601983901c9050858281518110612f3f57fe5b60200260200101516005846301ffffff16901b18925060005b6005811015612f9257600182821c81161415612f8a57848160058110612f7a57fe5b602002015163ffffffff16841893505b600101612f58565b5050600101612f21565b509392505050565b828054600181600116156101000203166002900490600052602060002090601f016020900481019282612fda5760008555613020565b82601f10612ff357805160ff1916838001178555613020565b82800160010185558215613020579182015b82811115613020578251825591602001919060010190613005565b5061302c929150613030565b5090565b5b8082111561302c576000815560010161303156fe456e756d657261626c655365743a20696e646578206f7574206f6620626f756e6473416363657373436f6e74726f6c3a2073656e646572206d75737420626520616e2061646d696e20746f206772616e74416363657373436f6e74726f6c3a2073656e646572206d75737420626520616e2061646d696e20746f207265766f6b65496e697469616c697a61626c653a20636f6e747261637420697320616c726561647920696e697469616c697a6564536166654d6174683a206d756c7469706c69636174696f6e206f766572666c6f7765d7a28e3265b37a6474929f336521b332c1681b933f6cb9f3376673440d862a751b795d24b92e3d92d1d0d8f2885f4e9c9c269da350af36ae6b49069babf4bf416363657373436f6e74726f6c3a2063616e206f6e6c792072656e6f756e636520726f6c657320666f722073656c6671707a7279397838676632747664773073336a6e35346b686365366d7561376ca2646970667358221220dcb52169672aaabfa54fe73b4ebe835af35b11b559bb9594a38907b69baf7a2c64736f6c63430007060033",
  "immutableReferences": {},
  "source": "/*\n Copyright [2019] - [2021], PERSISTENCE TECHNOLOGIES PTE. LTD. and the pStake-smartContracts contributors\n SPDX-License-Identifier: Apache-2.0\n*/\n\npragma solidity >=0.7.0;\n\nimport \"@openzeppelin/contracts-upgradeable/math/SafeMathUpgradeable.sol\";\nimport \"@openzeppelin/contracts-upgradeable/utils/PausableUpgradeable.sol\";\nimport \"@openzeppelin/contracts-upgradeable/access/AccessControlUpgradeable.sol\";\nimport \"./interfaces/IUTokensV2.sol\";\nimport \"./interfaces/ITokenWrapperV5.sol\";\nimport \"./libraries/Bech32.sol\";\nimport \"./libraries/FullMath.sol\";\n\ncontract TokenWrapperV6 is\nITokenWrapperV5,\nPausableUpgradeable,\nAccessControlUpgradeable\n{\n    using SafeMathUpgradeable for uint256;\n    using FullMath for uint256;\n    using Bech32 for string;\n\n    //Private instances of contracts to handle Utokens\n    IUTokensV2 public _uTokens;\n\n    // defining the fees and minimum values\n    uint256 private _minDeposit;\n    uint256 private _minWithdraw;\n    uint256 private _depositFee;\n    uint256 private _withdrawFee;\n    uint256 public _valueDivisor;\n\n    // constants defining access control ROLES\n    bytes32 public constant BRIDGE_ADMIN_ROLE = keccak256(\"BRIDGE_ADMIN_ROLE\");\n    bytes32 public constant PAUSER_ROLE = keccak256(\"PAUSER_ROLE\");\n\n    //variables defining bech32 validation attributes\n    bytes public hrpBytes;\n    bytes public controlDigitBytes;\n    uint256 public dataBytesSize;\n\n    // variable pertaining to contract upgrades versioning\n    uint256 public _version;\n\n    //migration admin contract address\n    address public _migrationAdminContract;\n\n    /*\n     * @dev Constructor for initializing the TokenWrapper contract.\n\t * @param uAddress - address of the UToken contract.\n\t * @param bridgeAdminAddress - address of the bridge admin.\n\t * @param pauserAddress - address of the pauser admin.\n\t * @param valueDivisor - valueDivisor set to 10^9.\n\t */\n    function initialize(\n        address uAddress,\n        address bridgeAdminAddress,\n        address pauserAddress,\n        uint256 valueDivisor\n    ) public virtual initializer {\n        __AccessControl_init();\n        __Pausable_init();\n        _setupRole(DEFAULT_ADMIN_ROLE, _msgSender());\n        _setupRole(BRIDGE_ADMIN_ROLE, bridgeAdminAddress);\n        _setupRole(PAUSER_ROLE, pauserAddress);\n        setUTokensContract(uAddress);\n        setMinimumValues(1, 1);\n        _valueDivisor = valueDivisor;\n        // setting bech32 validation attributes\n        hrpBytes = \"cosmos\";\n        controlDigitBytes = \"1\";\n        dataBytesSize = 38;\n    }\n\n    /**\n     * @dev Set 'fees', called from admin\n\t * @param withdrawFee: withdraw fee\n\t * @param depositFee: deposit fee\n\t *\n\t * Emits a {SetFees} event with 'fee' set to the withdraw.\n\t *\n\t */\n    function setFees(uint256 depositFee, uint256 withdrawFee)\n    public\n    virtual\n    override\n    returns (bool success)\n    {\n        require(hasRole(DEFAULT_ADMIN_ROLE, _msgSender()), \"TW1\");\n        // range checks for fees. Since fee cannot be more than 100%, the max cap\n        // is _valueDivisor * 100, which then brings the fees to 100 (percentage)\n        require(\n            (depositFee <= _valueDivisor.mul(100)) &&\n            (withdrawFee <= _valueDivisor.mul(100)),\n            \"TW2\"\n        );\n        _depositFee = depositFee;\n        _withdrawFee = withdrawFee;\n        emit SetFees(depositFee, withdrawFee);\n        return true;\n    }\n\n    /**\n     * @dev get fees, minimum set values and value divisor\n\t *\n\t */\n    function getProps()\n    public\n    view\n    virtual\n    override\n    returns (\n        uint256 depositFee,\n        uint256 withdrawFee,\n        uint256 minDeposit,\n        uint256 minWithdraw,\n        uint256 valueDivisor\n    )\n    {\n        depositFee = _depositFee;\n        withdrawFee = _withdrawFee;\n        minDeposit = _minDeposit;\n        minWithdraw = _minWithdraw;\n        valueDivisor = _valueDivisor;\n    }\n\n    /**\n     * @dev Set 'minimum values', called from admin\n\t * @param minDeposit: deposit minimum value\n\t * @param minWithdraw: withdraw minimum value\n\t *\n\t * Emits a {SetMinimumValues} event with 'minimum value' set to withdraw.\n\t *\n\t */\n    function setMinimumValues(uint256 minDeposit, uint256 minWithdraw)\n    public\n    virtual\n    override\n    returns (bool success)\n    {\n        require(hasRole(DEFAULT_ADMIN_ROLE, _msgSender()), \"TW3\");\n        require(minDeposit >= 1, \"TW4\");\n        require(minWithdraw >= 1, \"TW5\");\n        _minDeposit = minDeposit;\n        _minWithdraw = minWithdraw;\n        emit SetMinimumValues(minDeposit, minWithdraw);\n        return true;\n    }\n\n    /*\n     * @dev Set 'contract address', called for utokens smart contract\n\t * @param uAddress: utoken contract address\n\t *\n\t * Emits a {SetUTokensContract} event with '_contract' set to the utoken contract address.\n\t *\n\t */\n    function setUTokensContract(address uAddress) public virtual override {\n        require(hasRole(DEFAULT_ADMIN_ROLE, _msgSender()), \"TW6\");\n        _uTokens = IUTokensV2(uAddress);\n        emit SetUTokensContract(uAddress);\n    }\n\n    /**\n     * @dev common function added to be called by generateUTokens and generateUTokensInBatch and mints new utokens for the provided 'address' and 'amount'\n\t * @param to: account address, amount: number of tokens\n\t *\n\t */\n    function _generateUTokens(address to, uint256 amount)\n    internal\n    virtual\n    returns (uint256 wrappedTokens)\n    {\n        // require the address and amount to be non-zero\n        require(to != address(0) && amount != 0, \"TW13\");\n\n        // the tokens to be generated to the user's address will be after the fee processing\n        uint256 _fee = (amount.mulDiv(_depositFee, _valueDivisor)).div(100);\n        wrappedTokens = amount.sub(_fee);\n\n        // mint the UTokens\n        _uTokens.mint(to, wrappedTokens);\n    }\n\n    /**\n     * @dev Mint new utokens for the provided 'address' and 'amount'\n\t * @param to: account address\n\t * @param amount: number of tokens\n\t *\n\t * Emits a {GenerateUTokens} event with 'to' set to address and 'amount' set to amount of tokens.\n\t *\n\t */\n    function generateUTokens(address to, uint256 amount)\n    public\n    virtual\n    override\n    returns (uint256 wrappedTokens)\n    {\n        // require the sender to be a bridge admin\n        require(hasRole(BRIDGE_ADMIN_ROLE, _msgSender()), \"TW10\");\n\n        wrappedTokens = _generateUTokens(to, amount);\n        emit GenerateUTokens(to, wrappedTokens, amount, block.timestamp);\n    }\n\n    /**\n     * @dev Mint new utokens for the provided 'address' and 'amount' in batch\n\t * @param toAddresses: array of account addresses, amount[]: array of tokens\n\t * @param amounts: array of tokens\n\t *\n\t * Emits a {GenerateUTokensInBatch} event with 'to' set to address and 'amount' set to amount of tokens.\n\t */\n    function generateUTokensInBatch(\n        address[] calldata toAddresses,\n        uint256[] calldata amounts\n    ) external virtual override returns (uint256[] memory wrappedTokensArray) {\n        require(toAddresses.length == amounts.length, \"TW11\");\n        require(hasRole(BRIDGE_ADMIN_ROLE, _msgSender()), \"TW12\");\n\n        uint256 index;\n        uint256 arrayLength = toAddresses.length;\n        wrappedTokensArray = new uint256[](arrayLength);\n\n        for (index = 0; index < arrayLength; index++) {\n            wrappedTokensArray[index] = _generateUTokens(\n                toAddresses[index],\n                amounts[index]\n            );\n        }\n\n        emit GenerateUTokensInBatch(\n            toAddresses,\n            wrappedTokensArray,\n            amounts,\n            block.timestamp\n        );\n    }\n\n    /**\n     * @dev check if the address is Bech32Valid\n\t *\n\t */\n    function isBech32Valid(string memory toChainAddress)\n    public\n    view\n    virtual\n    override\n    returns (bool isAddressValid)\n    {\n        isAddressValid = toChainAddress.isBech32AddressValid(\n            hrpBytes,\n            controlDigitBytes,\n            dataBytesSize\n        );\n    }\n\n    /**\n     * @dev Burn utokens for the provided 'address' and 'tokens'\n\t * @param from: account address of the sender\n\t * @param tokens: number of tokens to be unwrapped\n\t * @param toChainAddress: wallet address of the native chain\n\t *\n\t * Emits a {WithdrawUTokens} event with 'from' set to address, 'finalTokens' set to amount of tokens and 'toChainAddress'\n\t *\n\t */\n    function withdrawUTokens(\n        address from,\n        uint256 tokens,\n        string memory toChainAddress\n    ) public virtual override whenNotPaused returns (uint256 unwrappedTokens) {\n        // require the 'from' address to be of message sender\n        require(from == _msgSender() || _migrationAdminContract == _msgSender(), \"TW17\");\n\n        // require the token amount not be less than min value\n        require(tokens >= _minWithdraw, \"TW14\");\n\n        // require user to hold enough UTokens balance\n        uint256 currentUTokenBalance = _uTokens.balanceOf(from);\n        require(currentUTokenBalance >= tokens, \"TW16\");\n\n        //check if toChainAddress is valid address as per Bech32 Validation\n        bool isAddressValid = toChainAddress.isBech32AddressValid(\n            hrpBytes,\n            controlDigitBytes,\n            dataBytesSize\n        );\n        require(isAddressValid == true, \"TW15\");\n\n        // final tokens is the amount of tokens to be burned, including the fee\n        uint256 fee = (tokens.mulDiv(_withdrawFee, _valueDivisor)).div(100);\n        unwrappedTokens = tokens.sub(fee);\n\n        // emit an event\n        emit WithdrawUTokens(\n            from,\n            unwrappedTokens,\n            tokens,\n            toChainAddress,\n            block.timestamp\n        );\n\n        // perform the burning of UTokens\n        _uTokens.burn(from, tokens);\n    }\n\n    /*\n     * @dev Set 'contract address', called from constructor\n\t * @param migrationAdminContract: migration admin contract address\n\t *\n\t * Emits a {SetMigrationAdminEvent} event with '_contract' set to the migration admin contract address.\n\t *\n\t */\n    function setMigrationAdminContract(address migrationAdminContract)\n    public\n    virtual\n    override\n    {\n        require(hasRole(DEFAULT_ADMIN_ROLE, _msgSender()), \"TW18\");\n        _migrationAdminContract = migrationAdminContract;\n        emit SetMigrationAdminEvent(migrationAdminContract);\n    }\n\n    /**\n     * @dev Triggers stopped state.\n\t *\n\t */\n    function pause() public virtual override returns (bool success) {\n        require(hasRole(PAUSER_ROLE, _msgSender()), \"TW7\");\n        _pause();\n        return true;\n    }\n\n    /**\n     * @dev Returns to normal state.\n\t *\n\t */\n    function unpause() public virtual override returns (bool success) {\n        require(hasRole(PAUSER_ROLE, _msgSender()), \"TW8\");\n        _unpause();\n        return true;\n    }\n\n    /**\n     * @dev Burn utokens for the provided 'address' and 'tokens'\n\t * @param from: account address of the sender\n\t * @param tokens: number of tokens to be unwrapped\n\t * @param toChainAddress: wallet address of the native chain\n\t *\n\t * Emits a {WithdrawUTokensToPersistenceChain} event with 'from' set to address, 'finalTokens' set to amount of tokens and 'toChainAddress'\n\t *\n\t */\n    function withdrawUTokensToPersistenceChain(\n        address from,\n        uint256 tokens,\n        string memory toChainAddress\n    ) public virtual override whenNotPaused returns (uint256 unwrappedTokens) {\n        // require the 'from' address to be of message sender\n        require(_migrationAdminContract == _msgSender(), \"TW19\");\n\n        // require the token amount not be less than min value\n        require(tokens >= _minWithdraw, \"TW20\");\n\n        // require user to hold enough UTokens balance\n        uint256 currentUTokenBalance = _uTokens.balanceOf(from);\n        require(currentUTokenBalance >= tokens, \"TW21\");\n\n        // final tokens is the amount of tokens to be burned, including the fee\n        uint256 fee = (tokens.mulDiv(_withdrawFee, _valueDivisor)).div(100);\n        unwrappedTokens = tokens.sub(fee);\n\n        // emit an event\n        emit WithdrawUTokensToPersistenceChain(\n            from,\n            unwrappedTokens,\n            tokens,\n            toChainAddress,\n            block.timestamp\n        );\n\n        // perform the burning of UTokens\n        _uTokens.burn(from, tokens);\n    }\n}\n",
  "sourcePath": "/Users/aditimaheshwari/Documents/Work/Persistence/Codebase/persistenceOne/pStake-smartContracts/contracts/TokenWrapperV6.sol",
  "compiler": {
    "name": "solc",
    "version": "0.7.6+commit.7338295f.Emscripten.clang"
  },
  "schemaVersion": "3.4.3",
  "updatedAt": "2022-09-09T10:57:49.673Z",
  "devdoc": {
    "kind": "dev",
    "methods": {
      "generateUTokens(address,uint256)": {
        "details": "Mint new utokens for the provided 'address' and 'amount'",
        "params": {
          "amount": ": number of tokens Emits a {GenerateUTokens} event with 'to' set to address and 'amount' set to amount of tokens.",
          "to": ": account address"
        }
      },
      "generateUTokensInBatch(address[],uint256[])": {
        "details": "Mint new utokens for the provided 'address' and 'amount' in batch",
        "params": {
          "amounts": ": array of tokens Emits a {GenerateUTokensInBatch} event with 'to' set to address and 'amount' set to amount of tokens.",
          "toAddresses": ": array of account addresses, amount[]: array of tokens"
        }
      },
      "getProps()": {
        "details": "get fees, minimum set values and value divisor"
      },
      "getRoleAdmin(bytes32)": {
        "details": "Returns the admin role that controls `role`. See {grantRole} and {revokeRole}. To change a role's admin, use {_setRoleAdmin}."
      },
      "getRoleMember(bytes32,uint256)": {
        "details": "Returns one of the accounts that have `role`. `index` must be a value between 0 and {getRoleMemberCount}, non-inclusive. Role bearers are not sorted in any particular way, and their ordering may change at any point. WARNING: When using {getRoleMember} and {getRoleMemberCount}, make sure you perform all queries on the same block. See the following https://forum.openzeppelin.com/t/iterating-over-elements-on-enumerableset-in-openzeppelin-contracts/2296[forum post] for more information."
      },
      "getRoleMemberCount(bytes32)": {
        "details": "Returns the number of accounts that have `role`. Can be used together with {getRoleMember} to enumerate all bearers of a role."
      },
      "grantRole(bytes32,address)": {
        "details": "Grants `role` to `account`. If `account` had not been already granted `role`, emits a {RoleGranted} event. Requirements: - the caller must have ``role``'s admin role."
      },
      "hasRole(bytes32,address)": {
        "details": "Returns `true` if `account` has been granted `role`."
      },
      "isBech32Valid(string)": {
        "details": "check if the address is Bech32Valid"
      },
      "pause()": {
        "details": "Triggers stopped state."
      },
      "paused()": {
        "details": "Returns true if the contract is paused, and false otherwise."
      },
      "renounceRole(bytes32,address)": {
        "details": "Revokes `role` from the calling account. Roles are often managed via {grantRole} and {revokeRole}: this function's purpose is to provide a mechanism for accounts to lose their privileges if they are compromised (such as when a trusted device is misplaced). If the calling account had been granted `role`, emits a {RoleRevoked} event. Requirements: - the caller must be `account`."
      },
      "revokeRole(bytes32,address)": {
        "details": "Revokes `role` from `account`. If `account` had been granted `role`, emits a {RoleRevoked} event. Requirements: - the caller must have ``role``'s admin role."
      },
      "setFees(uint256,uint256)": {
        "details": "Set 'fees', called from admin",
        "params": {
          "depositFee": ": deposit fee Emits a {SetFees} event with 'fee' set to the withdraw.",
          "withdrawFee": ": withdraw fee"
        }
      },
      "setMinimumValues(uint256,uint256)": {
        "details": "Set 'minimum values', called from admin",
        "params": {
          "minDeposit": ": deposit minimum value",
          "minWithdraw": ": withdraw minimum value Emits a {SetMinimumValues} event with 'minimum value' set to withdraw."
        }
      },
      "setUTokensContract(address)": {
        "details": "Set UTokens smart contract. Emits a {SetUTokensContract} event."
      },
      "unpause()": {
        "details": "Returns to normal state."
      },
      "withdrawUTokens(address,uint256,string)": {
        "details": "Burn utokens for the provided 'address' and 'tokens'",
        "params": {
          "from": ": account address of the sender",
          "toChainAddress": ": wallet address of the native chain Emits a {WithdrawUTokens} event with 'from' set to address, 'finalTokens' set to amount of tokens and 'toChainAddress'",
          "tokens": ": number of tokens to be unwrapped"
        }
      },
      "withdrawUTokensToPersistenceChain(address,uint256,string)": {
        "details": "Burn utokens for the provided 'address' and 'tokens'",
        "params": {
          "from": ": account address of the sender",
          "toChainAddress": ": wallet address of the native chain Emits a {WithdrawUTokensToPersistenceChain} event with 'from' set to address, 'finalTokens' set to amount of tokens and 'toChainAddress'",
          "tokens": ": number of tokens to be unwrapped"
        }
      }
    },
    "version": 1
  },
  "userdoc": {
    "kind": "user",
    "methods": {},
    "version": 1
  }
}