{
  "contractName": "TokenWrapper",
  "abi": [
    {
      "anonymous": false,
      "inputs": [
        {
          "indexed": true,
          "internalType": "address",
          "name": "accountAddress",
          "type": "address"
        },
        {
          "indexed": true,
          "internalType": "uint256",
          "name": "tokens",
          "type": "uint256"
        },
        {
          "indexed": true,
          "internalType": "uint256",
          "name": "finalTokens",
          "type": "uint256"
        },
        {
          "indexed": false,
          "internalType": "uint256",
          "name": "timestamp",
          "type": "uint256"
        }
      ],
      "name": "GenerateUTokens",
      "type": "event"
    },
    {
      "anonymous": false,
      "inputs": [
        {
          "indexed": false,
          "internalType": "address",
          "name": "account",
          "type": "address"
        }
      ],
      "name": "Paused",
      "type": "event"
    },
    {
      "anonymous": false,
      "inputs": [
        {
          "indexed": true,
          "internalType": "bytes32",
          "name": "role",
          "type": "bytes32"
        },
        {
          "indexed": true,
          "internalType": "bytes32",
          "name": "previousAdminRole",
          "type": "bytes32"
        },
        {
          "indexed": true,
          "internalType": "bytes32",
          "name": "newAdminRole",
          "type": "bytes32"
        }
      ],
      "name": "RoleAdminChanged",
      "type": "event"
    },
    {
      "anonymous": false,
      "inputs": [
        {
          "indexed": true,
          "internalType": "bytes32",
          "name": "role",
          "type": "bytes32"
        },
        {
          "indexed": true,
          "internalType": "address",
          "name": "account",
          "type": "address"
        },
        {
          "indexed": true,
          "internalType": "address",
          "name": "sender",
          "type": "address"
        }
      ],
      "name": "RoleGranted",
      "type": "event"
    },
    {
      "anonymous": false,
      "inputs": [
        {
          "indexed": true,
          "internalType": "bytes32",
          "name": "role",
          "type": "bytes32"
        },
        {
          "indexed": true,
          "internalType": "address",
          "name": "account",
          "type": "address"
        },
        {
          "indexed": true,
          "internalType": "address",
          "name": "sender",
          "type": "address"
        }
      ],
      "name": "RoleRevoked",
      "type": "event"
    },
    {
      "anonymous": false,
      "inputs": [
        {
          "indexed": false,
          "internalType": "uint256",
          "name": "depositFee",
          "type": "uint256"
        },
        {
          "indexed": false,
          "internalType": "uint256",
          "name": "withdrawFee",
          "type": "uint256"
        }
      ],
      "name": "SetFees",
      "type": "event"
    },
    {
      "anonymous": false,
      "inputs": [
        {
          "indexed": false,
          "internalType": "uint256",
          "name": "minDeposit",
          "type": "uint256"
        },
        {
          "indexed": false,
          "internalType": "uint256",
          "name": "minWithdraw",
          "type": "uint256"
        }
      ],
      "name": "SetMinimumValues",
      "type": "event"
    },
    {
      "anonymous": false,
      "inputs": [
        {
          "indexed": true,
          "internalType": "address",
          "name": "_contract",
          "type": "address"
        }
      ],
      "name": "SetUTokensContract",
      "type": "event"
    },
    {
      "anonymous": false,
      "inputs": [
        {
          "indexed": false,
          "internalType": "address",
          "name": "account",
          "type": "address"
        }
      ],
      "name": "Unpaused",
      "type": "event"
    },
    {
      "anonymous": false,
      "inputs": [
        {
          "indexed": true,
          "internalType": "address",
          "name": "accountAddress",
          "type": "address"
        },
        {
          "indexed": true,
          "internalType": "uint256",
          "name": "tokens",
          "type": "uint256"
        },
        {
          "indexed": false,
          "internalType": "uint256",
          "name": "finalTokens",
          "type": "uint256"
        },
        {
          "indexed": true,
          "internalType": "string",
          "name": "toChainAddress",
          "type": "string"
        },
        {
          "indexed": false,
          "internalType": "uint256",
          "name": "timestamp",
          "type": "uint256"
        }
      ],
      "name": "WithdrawUTokens",
      "type": "event"
    },
    {
      "inputs": [],
      "name": "BRIDGE_ADMIN_ROLE",
      "outputs": [
        {
          "internalType": "bytes32",
          "name": "",
          "type": "bytes32"
        }
      ],
      "stateMutability": "view",
      "type": "function"
    },
    {
      "inputs": [],
      "name": "DEFAULT_ADMIN_ROLE",
      "outputs": [
        {
          "internalType": "bytes32",
          "name": "",
          "type": "bytes32"
        }
      ],
      "stateMutability": "view",
      "type": "function"
    },
    {
      "inputs": [],
      "name": "PAUSER_ROLE",
      "outputs": [
        {
          "internalType": "bytes32",
          "name": "",
          "type": "bytes32"
        }
      ],
      "stateMutability": "view",
      "type": "function"
    },
    {
      "inputs": [
        {
          "internalType": "bytes32",
          "name": "role",
          "type": "bytes32"
        }
      ],
      "name": "getRoleAdmin",
      "outputs": [
        {
          "internalType": "bytes32",
          "name": "",
          "type": "bytes32"
        }
      ],
      "stateMutability": "view",
      "type": "function"
    },
    {
      "inputs": [
        {
          "internalType": "bytes32",
          "name": "role",
          "type": "bytes32"
        },
        {
          "internalType": "uint256",
          "name": "index",
          "type": "uint256"
        }
      ],
      "name": "getRoleMember",
      "outputs": [
        {
          "internalType": "address",
          "name": "",
          "type": "address"
        }
      ],
      "stateMutability": "view",
      "type": "function"
    },
    {
      "inputs": [
        {
          "internalType": "bytes32",
          "name": "role",
          "type": "bytes32"
        }
      ],
      "name": "getRoleMemberCount",
      "outputs": [
        {
          "internalType": "uint256",
          "name": "",
          "type": "uint256"
        }
      ],
      "stateMutability": "view",
      "type": "function"
    },
    {
      "inputs": [
        {
          "internalType": "bytes32",
          "name": "role",
          "type": "bytes32"
        },
        {
          "internalType": "address",
          "name": "account",
          "type": "address"
        }
      ],
      "name": "grantRole",
      "outputs": [],
      "stateMutability": "nonpayable",
      "type": "function"
    },
    {
      "inputs": [
        {
          "internalType": "bytes32",
          "name": "role",
          "type": "bytes32"
        },
        {
          "internalType": "address",
          "name": "account",
          "type": "address"
        }
      ],
      "name": "hasRole",
      "outputs": [
        {
          "internalType": "bool",
          "name": "",
          "type": "bool"
        }
      ],
      "stateMutability": "view",
      "type": "function"
    },
    {
      "inputs": [],
      "name": "paused",
      "outputs": [
        {
          "internalType": "bool",
          "name": "",
          "type": "bool"
        }
      ],
      "stateMutability": "view",
      "type": "function"
    },
    {
      "inputs": [
        {
          "internalType": "bytes32",
          "name": "role",
          "type": "bytes32"
        },
        {
          "internalType": "address",
          "name": "account",
          "type": "address"
        }
      ],
      "name": "renounceRole",
      "outputs": [],
      "stateMutability": "nonpayable",
      "type": "function"
    },
    {
      "inputs": [
        {
          "internalType": "bytes32",
          "name": "role",
          "type": "bytes32"
        },
        {
          "internalType": "address",
          "name": "account",
          "type": "address"
        }
      ],
      "name": "revokeRole",
      "outputs": [],
      "stateMutability": "nonpayable",
      "type": "function"
    },
    {
      "inputs": [
        {
          "internalType": "address",
          "name": "uAddress",
          "type": "address"
        },
        {
          "internalType": "address",
          "name": "bridgeAdminAddress",
          "type": "address"
        },
        {
          "internalType": "address",
          "name": "pauserAddress",
          "type": "address"
        },
        {
          "internalType": "uint256",
          "name": "valueDivisor",
          "type": "uint256"
        }
      ],
      "name": "initialize",
      "outputs": [],
      "stateMutability": "nonpayable",
      "type": "function"
    },
    {
      "inputs": [
        {
          "internalType": "uint256",
          "name": "depositFee",
          "type": "uint256"
        },
        {
          "internalType": "uint256",
          "name": "withdrawFee",
          "type": "uint256"
        }
      ],
      "name": "setFees",
      "outputs": [
        {
          "internalType": "bool",
          "name": "success",
          "type": "bool"
        }
      ],
      "stateMutability": "nonpayable",
      "type": "function"
    },
    {
      "inputs": [],
      "name": "getProps",
      "outputs": [
        {
          "internalType": "uint256",
          "name": "depositFee",
          "type": "uint256"
        },
        {
          "internalType": "uint256",
          "name": "withdrawFee",
          "type": "uint256"
        },
        {
          "internalType": "uint256",
          "name": "minDeposit",
          "type": "uint256"
        },
        {
          "internalType": "uint256",
          "name": "minWithdraw",
          "type": "uint256"
        },
        {
          "internalType": "uint256",
          "name": "valueDivisor",
          "type": "uint256"
        }
      ],
      "stateMutability": "view",
      "type": "function"
    },
    {
      "inputs": [
        {
          "internalType": "uint256",
          "name": "minDeposit",
          "type": "uint256"
        },
        {
          "internalType": "uint256",
          "name": "minWithdraw",
          "type": "uint256"
        }
      ],
      "name": "setMinimumValues",
      "outputs": [
        {
          "internalType": "bool",
          "name": "success",
          "type": "bool"
        }
      ],
      "stateMutability": "nonpayable",
      "type": "function"
    },
    {
      "inputs": [
        {
          "internalType": "address",
          "name": "uAddress",
          "type": "address"
        }
      ],
      "name": "setUTokensContract",
      "outputs": [],
      "stateMutability": "nonpayable",
      "type": "function"
    },
    {
      "inputs": [],
      "name": "pause",
      "outputs": [
        {
          "internalType": "bool",
          "name": "success",
          "type": "bool"
        }
      ],
      "stateMutability": "nonpayable",
      "type": "function"
    },
    {
      "inputs": [],
      "name": "unpause",
      "outputs": [
        {
          "internalType": "bool",
          "name": "success",
          "type": "bool"
        }
      ],
      "stateMutability": "nonpayable",
      "type": "function"
    },
    {
      "inputs": [
        {
          "internalType": "address",
          "name": "to",
          "type": "address"
        },
        {
          "internalType": "uint256",
          "name": "amount",
          "type": "uint256"
        }
      ],
      "name": "generateUTokens",
      "outputs": [],
      "stateMutability": "nonpayable",
      "type": "function"
    },
    {
      "inputs": [
        {
          "internalType": "address[]",
          "name": "to",
          "type": "address[]"
        },
        {
          "internalType": "uint256[]",
          "name": "amount",
          "type": "uint256[]"
        }
      ],
      "name": "generateUTokensInBatch",
      "outputs": [],
      "stateMutability": "nonpayable",
      "type": "function"
    },
    {
      "inputs": [
        {
          "internalType": "string",
          "name": "toChainAddress",
          "type": "string"
        }
      ],
      "name": "isBech32Valid",
      "outputs": [
        {
          "internalType": "bool",
          "name": "isAddressValid",
          "type": "bool"
        }
      ],
      "stateMutability": "view",
      "type": "function"
    },
    {
      "inputs": [
        {
          "internalType": "address",
          "name": "from",
          "type": "address"
        },
        {
          "internalType": "uint256",
          "name": "tokens",
          "type": "uint256"
        },
        {
          "internalType": "string",
          "name": "toChainAddress",
          "type": "string"
        }
      ],
      "name": "withdrawUTokens",
      "outputs": [],
      "stateMutability": "nonpayable",
      "type": "function"
    }
  ],
  "bytecode": "0x608060405234801561001057600080fd5b50612b7b806100206000396000f3fe608060405234801561001057600080fd5b50600436106101425760003560e01c80638456cb59116100b8578063ca15c8731161007c578063ca15c8731461046c578063cf756fdf14610489578063d547741f146104c5578063e63ab1e9146104f1578063e7fa0a32146104f9578063ec1893b41461061c57610142565b80638456cb591461034d5780638f001d4e146103555780639010d07c146103f957806391d1485414610438578063a217fddf1461046457610142565b80632f2ff15d1161010a5780632f2ff15d1461020957806336568abe146102355780633f4ba83a14610261578063428bee9e1461026957806351db00e7146103225780635c975abb1461034557610142565b80630b78f9c014610147578063118c38c71461017e57806321bdf9e51461019857806322dd9bc3146101c0578063248a9ca3146101ec575b600080fd5b61016a6004803603604081101561015d57600080fd5b508035906020013561064f565b604080519115158252519081900360200190f35b61018661075a565b60408051918252519081900360200190f35b6101be600480360360208110156101ae57600080fd5b50356001600160a01b031661076c565b005b6101be600480360360408110156101d657600080fd5b506001600160a01b0381351690602001356107fa565b6101866004803603602081101561020257600080fd5b503561092e565b6101be6004803603604081101561021f57600080fd5b50803590602001356001600160a01b0316610946565b6101be6004803603604081101561024b57600080fd5b50803590602001356001600160a01b03166109ad565b61016a610a0e565b6101be6004803603606081101561027f57600080fd5b6001600160a01b0382351691602081013591810190606081016040820135600160201b8111156102ae57600080fd5b8201836020820111156102c057600080fd5b803590602001918460018302840111600160201b831117156102e157600080fd5b91908080601f016020809104026020016040519081016040528093929190818152602001838380828437600092019190915250929550610a6f945050505050565b61016a6004803603604081101561033857600080fd5b5080359060200135610ee0565b61016a610feb565b61016a610ff4565b61016a6004803603602081101561036b57600080fd5b810190602081018135600160201b81111561038557600080fd5b82018360208201111561039757600080fd5b803590602001918460018302840111600160201b831117156103b857600080fd5b91908080601f01602080910402602001604051908101604052809392919081815260200183838082843760009201919091525092955061104f945050505050565b61041c6004803603604081101561040f57600080fd5b5080359060200135611185565b604080516001600160a01b039092168252519081900360200190f35b61016a6004803603604081101561044e57600080fd5b50803590602001356001600160a01b03166111a4565b6101866111bc565b6101866004803603602081101561048257600080fd5b50356111c1565b6101be6004803603608081101561049f57600080fd5b506001600160a01b038135811691602081013582169160408201351690606001356111d8565b6101be600480360360408110156104db57600080fd5b50803590602001356001600160a01b0316611346565b61018661139f565b6101be6004803603604081101561050f57600080fd5b810190602081018135600160201b81111561052957600080fd5b82018360208201111561053b57600080fd5b803590602001918460208302840111600160201b8311171561055c57600080fd5b9190808060200260200160405190810160405280939291908181526020018383602002808284376000920191909152509295949360208101935035915050600160201b8111156105ab57600080fd5b8201836020820111156105bd57600080fd5b803590602001918460208302840111600160201b831117156105de57600080fd5b9190808060200260200160405190810160405280939291908181526020018383602002808284376000920191909152509295506113b1945050505050565b6106246115c5565b6040805195865260208601949094528484019290925260608401526080830152519081900360a00190f35b60006106628161065d6115df565b6111a4565b610699576040805162461bcd60e51b815260206004820152600360248201526254573160e81b604482015290519081900360640190fd5b609c546106a79060646115e3565b831115806106cb5750821580156106cb5750609c546106c79060646115e3565b8211155b806106d4575081155b61070b576040805162461bcd60e51b81526020600482015260036024820152622a2b9960e91b604482015290519081900360640190fd5b609a839055609b829055604080518481526020810184905281517f3be6e637f54f081a2dd12982cfd58481304fc98b604b18fa8ed4aa4e4a9d1532929181900390910190a15060015b92915050565b600080516020612ad783398151915281565b610779600061065d6115df565b6107b0576040805162461bcd60e51b81526020600482015260036024820152622a2b9b60e91b604482015290519081900360640190fd5b609780546001600160a01b0319166001600160a01b0383169081179091556040517ff745c285f36f88bea6af14d4d0f33dd9350cef7895216c1615b1caaee7857e0c90600090a250565b610802610feb565b15610847576040805162461bcd60e51b815260206004820152601060248201526f14185d5cd8589b194e881c185d5cd95960821b604482015290519081900360640190fd5b609854811015610884576040805162461bcd60e51b815260206004820152600360248201526254573960e81b604482015290519081900360640190fd5b61089e600080516020612ad783398151915261065d6115df565b6108d8576040805162461bcd60e51b815260206004808301919091526024820152630545731360e41b604482015290519081900360640190fd5b60006108e4838361163c565b90508082846001600160a01b03167f572f067f64ae57ed816b7e9b5424a87d97035d68384f149586cba42b4192c9d8426040518082815260200191505060405180910390a4505050565b6000818152606560205260409020600201545b919050565b6000828152606560205260409020600201546109649061065d6115df565b61099f5760405162461bcd60e51b815260040180806020018281038252602f815260200180612a09602f913960400191505060405180910390fd5b6109a982826116f4565b5050565b6109b56115df565b6001600160a01b0316816001600160a01b031614610a045760405162461bcd60e51b815260040180806020018281038252602f815260200180612af7602f913960400191505060405180910390fd5b6109a9828261175d565b6000610a2a600080516020612ab783398151915261065d6115df565b610a61576040805162461bcd60e51b81526020600482015260036024820152620a8ae760eb1b604482015290519081900360640190fd5b610a696117c6565b50600190565b610a77610feb565b15610abc576040805162461bcd60e51b815260206004820152601060248201526f14185d5cd8589b194e881c185d5cd95960821b604482015290519081900360640190fd5b609954821015610afc576040805162461bcd60e51b815260206004808301919091526024820152631515cc4d60e21b604482015290519081900360640190fd5b609d805460408051602060026001851615610100026000190190941693909304601f8101849004840282018401909252818152600093610c2b9391929091830182828015610b8b5780601f10610b6057610100808354040283529160200191610b8b565b820191906000526020600020905b815481529060010190602001808311610b6e57829003601f168201915b5050609e8054604080516020601f6002600019610100600188161502019095169490940493840181900481028201810190925282815295509193509150830182828015610c195780601f10610bee57610100808354040283529160200191610c19565b820191906000526020600020905b815481529060010190602001808311610bfc57829003601f168201915b5050609f548895949350915050611866565b9050600181151514610c6d576040805162461bcd60e51b815260206004808301919091526024820152635457313560e01b604482015290519081900360640190fd5b609754604080516370a0823160e01b81526001600160a01b038781166004830152915160009392909216916370a0823191602480820192602092909190829003018186803b158015610cbe57600080fd5b505afa158015610cd2573d6000803e3d6000fd5b505050506040513d6020811015610ce857600080fd5b5051609b54609c54919250600091610d0e91606491610d0891899161197d565b90611a36565b90506000610d1c8683611a9d565b905080831015610d5c576040805162461bcd60e51b815260206004808301919091526024820152632a2b989b60e11b604482015290519081900360640190fd5b610d646115df565b6001600160a01b0316876001600160a01b031614610db2576040805162461bcd60e51b815260206004808301919091526024820152635457313760e01b604482015290519081900360640190fd5b60975460408051632770a7eb60e21b81526001600160a01b038a811660048301526024820185905291519190921691639dc29fac9160448083019260209291908290030181600087803b158015610e0857600080fd5b505af1158015610e1c573d6000803e3d6000fd5b505050506040513d6020811015610e3257600080fd5b50506040518551869190819060208401908083835b60208310610e665780518252601f199092019160209182019101610e47565b51815160209384036101000a600019018019909216911617905260408051929094018290038220878352429183019190915283519095508b94506001600160a01b038d16937f0f4363f6961ed151f2cf8f720784b70c0f5573f216fc939f67f2a5d12698e02e93509181900390910190a450505050505050565b6000610eee8161065d6115df565b610f25576040805162461bcd60e51b815260206004820152600360248201526254573360e81b604482015290519081900360640190fd5b6001831015610f61576040805162461bcd60e51b81526020600482015260036024820152621515cd60ea1b604482015290519081900360640190fd5b6001821015610f9d576040805162461bcd60e51b815260206004820152600360248201526254573560e81b604482015290519081900360640190fd5b60988390556099829055604080518481526020810184905281517fa94d40347449ea19b873d64ed55c99772194c49791e82be5c2dc24e4c0044fe3929181900390910190a150600192915050565b60335460ff1690565b6000611010600080516020612ab783398151915261065d6115df565b611047576040805162461bcd60e51b815260206004820152600360248201526254573760e81b604482015290519081900360640190fd5b610a69611af7565b609d8054604080516020601f60026000196101006001881615020190951694909404938401819004810282018101909252828152600093849361117d938301828280156110dd5780601f106110b2576101008083540402835291602001916110dd565b820191906000526020600020905b8154815290600101906020018083116110c057829003601f168201915b5050609e8054604080516020601f600260001961010060018816150201909516949094049384018190048102820181019092528281529550919350915083018282801561116b5780601f106111405761010080835404028352916020019161116b565b820191906000526020600020905b81548152906001019060200180831161114e57829003601f168201915b5050609f548995949350915050611866565b905050919050565b600082815260656020526040812061119d9083611b7a565b9392505050565b600082815260656020526040812061119d9083611b86565b600081565b600081815260656020526040812061075490611b9b565b600054610100900460ff16806111f157506111f1611ba6565b806111ff575060005460ff16155b61123a5760405162461bcd60e51b815260040180806020018281038252602e815260200180612a68602e913960400191505060405180910390fd5b600054610100900460ff16158015611265576000805460ff1961ff0019909116610100171660011790555b61126d611bb7565b611275611c69565b61128760006112826115df565b61099f565b61129f600080516020612ad78339815191528561099f565b6112b7600080516020612ab78339815191528461099f565b6112c08561076c565b6112cb600180610ee0565b50609c82905560408051808201909152600680825265636f736d6f7360d01b60209092019182526112fe91609d91612945565b50604080518082019091526001808252603160f81b602090920191825261132791609e91612945565b506026609f55801561133f576000805461ff00191690555b5050505050565b6000828152606560205260409020600201546113649061065d6115df565b610a045760405162461bcd60e51b8152600401808060200182810382526030815260200180612a386030913960400191505060405180910390fd5b600080516020612ab783398151915281565b6113b9610feb565b156113fe576040805162461bcd60e51b815260206004820152601060248201526f14185d5cd8589b194e881c185d5cd95960821b604482015290519081900360640190fd5b805182511461143d576040805162461bcd60e51b815260206004808301919091526024820152635457313160e01b604482015290519081900360640190fd5b611457600080516020612ad783398151915261065d6115df565b611491576040805162461bcd60e51b815260206004808301919091526024820152632a2b989960e11b604482015290519081900360640190fd5b815160009081905b80831015611538576098548484815181106114b057fe5b602002602001015110156114f4576040805162461bcd60e51b815260206004808301919091526024820152635457313360e01b604482015290519081900360640190fd5b61152485848151811061150357fe5b602002602001015185858151811061151757fe5b602002602001015161163c565b9150611531836001611a9d565b9250611499565b8184611545856001611d06565b8151811061154f57fe5b60200260200101518661156c600187611d0690919063ffffffff16565b8151811061157657fe5b60200260200101516001600160a01b03167f572f067f64ae57ed816b7e9b5424a87d97035d68384f149586cba42b4192c9d8426040518082815260200191505060405180910390a45050505050565b609a54609b54609854609954609c54939492939192909190565b3390565b6000826115f257506000610754565b828202828482816115ff57fe5b041461119d5760405162461bcd60e51b8152600401808060200182810382526021815260200180612a966021913960400191505060405180910390fd5b60008061165d6064610d08609a54609c548761197d9092919063ffffffff16565b90506116698382611d06565b609754604080516340c10f1960e01b81526001600160a01b0388811660048301526024820185905291519395509116916340c10f19916044808201926020929091908290030181600087803b1580156116c157600080fd5b505af11580156116d5573d6000803e3d6000fd5b505050506040513d60208110156116eb57600080fd5b50505092915050565b600082815260656020526040902061170c9082611d63565b156109a9576117196115df565b6001600160a01b0316816001600160a01b0316837f2f8788117e7eff1d82e926ec794901d17c78024a50270940304540a733656f0d60405160405180910390a45050565b60008281526065602052604090206117759082611d78565b156109a9576117826115df565b6001600160a01b0316816001600160a01b0316837ff6391f5c32d9c69d2a47ea670b442974b53935d1edc7fd64eb21e047a839171b60405160405180910390a45050565b6117ce610feb565b611816576040805162461bcd60e51b815260206004820152601460248201527314185d5cd8589b194e881b9bdd081c185d5cd95960621b604482015290519081900360640190fd5b6033805460ff191690557f5db9ee0a495bf2e6ff9c91a7834c1ba4fdd244a5e8aa4e537bd38aeae4b073aa6118496115df565b604080516001600160a01b039092168252519081900360200190a1565b82516000908590829061187c9083908390611d8d565b90506118888187611e96565b61189757600092505050611975565b80516000906118a99084906001611d8d565b90506118b58187611e96565b6118c55760009350505050611975565b60006118e78351600101600185518751030386611d8d9092919063ffffffff16565b9050858151146118fe576000945050505050611975565b8251845160009161191a91879160018101910360061901611d8d565b9050600061192782611efa565b90508051600014156119425760009650505050505050611975565b600061194d86612055565b9050600061195b82846120ea565b905060006119698683611e96565b99505050505050505050505b949350505050565b600080600061198c86866121cf565b915091506000848061199a57fe5b8688099050828111156119ae576001820391505b9182900391816119cc578483816119c157fe5b04935050505061119d565b848210611a20576040805162461bcd60e51b815260206004820152601a60248201527f46756c6c4d6174683a2046554c4c4449565f4f564552464c4f57000000000000604482015290519081900360640190fd5b611a2b8383876121fc565b979650505050505050565b6000808211611a8c576040805162461bcd60e51b815260206004820152601a60248201527f536166654d6174683a206469766973696f6e206279207a65726f000000000000604482015290519081900360640190fd5b818381611a9557fe5b049392505050565b60008282018381101561119d576040805162461bcd60e51b815260206004820152601b60248201527f536166654d6174683a206164646974696f6e206f766572666c6f770000000000604482015290519081900360640190fd5b611aff610feb565b15611b44576040805162461bcd60e51b815260206004820152601060248201526f14185d5cd8589b194e881c185d5cd95960821b604482015290519081900360640190fd5b6033805460ff191660011790557f62e78cea01bee320cd4e420270b5ea74000d11b0c9f74754ebdbfc544b05a2586118496115df565b600061119d838361226c565b600061119d836001600160a01b0384166122d0565b6000610754826122e8565b6000611bb1306122ec565b15905090565b600054610100900460ff1680611bd05750611bd0611ba6565b80611bde575060005460ff16155b611c195760405162461bcd60e51b815260040180806020018281038252602e815260200180612a68602e913960400191505060405180910390fd5b600054610100900460ff16158015611c44576000805460ff1961ff0019909116610100171660011790555b611c4c6122f2565b611c546122f2565b8015611c66576000805461ff00191690555b50565b600054610100900460ff1680611c825750611c82611ba6565b80611c90575060005460ff16155b611ccb5760405162461bcd60e51b815260040180806020018281038252602e815260200180612a68602e913960400191505060405180910390fd5b600054610100900460ff16158015611cf6576000805460ff1961ff0019909116610100171660011790555b611cfe6122f2565b611c54612392565b600082821115611d5d576040805162461bcd60e51b815260206004820152601e60248201527f536166654d6174683a207375627472616374696f6e206f766572666c6f770000604482015290519081900360640190fd5b50900390565b600061119d836001600160a01b03841661243d565b600061119d836001600160a01b038416612487565b60608182601f011015611dd8576040805162461bcd60e51b815260206004820152600e60248201526d736c6963655f6f766572666c6f7760901b604482015290519081900360640190fd5b81830184511015611e24576040805162461bcd60e51b8152602060048201526011602482015270736c6963655f6f75744f66426f756e647360781b604482015290519081900360640190fd5b606082158015611e435760405191506000825260208201604052611e8d565b6040519150601f8416801560200281840101858101878315602002848b0101015b81831015611e7c578051835260209283019201611e64565b5050858452601f01601f1916604052505b50949350505050565b815181516000916001918114808314611eb25760009250611ef0565b600160208701838101602088015b600284838510011415611eeb578051835114611edf5760009650600093505b60209283019201611ec0565b505050505b5090949350505050565b6060815167ffffffffffffffff81118015611f1457600080fd5b50604051908082528060200260200182016040528015611f3e578160200160208202803683370190505b50905060606000805b845181101561204d57600091505b604051806040016040528060208152602001600080516020612b2683398151915281525051821015611ff657604051806040016040528060208152602001600080516020612b268339815191528152508281518110611fb057fe5b602001015160f81c60f81b6001600160f81b031916858281518110611fd157fe5b01602001516001600160f81b0319161415611feb57611ff6565b600190910190611f55565b604051806040016040528060208152602001600080516020612b268339815191528152505182141561202d57829350505050610941565b8184828151811061203a57fe5b6020908102919091010152600101611f47565b505050919050565b6060815167ffffffffffffffff8111801561206f57600080fd5b50604051908082528060200260200182016040528015612099578160200160208202803683370190505b50905060005b82518110156120e4578281815181106120b457fe5b602001015160f81c60f81b60f81c60ff168282815181106120d157fe5b602090810291909101015260010161209f565b50919050565b60606000612101836120fc868661254d565b6125ea565b90506000815167ffffffffffffffff8111801561211d57600080fd5b506040519080825280601f01601f191660200182016040528015612148576020820181803683370190505b50905060005b8251811015611e8d57604051806040016040528060208152602001600080516020612b2683398151915281525083828151811061218757fe5b60200260200101518151811061219957fe5b602001015160f81c60f81b8282815181106121b057fe5b60200101906001600160f81b031916908160001a90535060010161214e565b60008080600019848609905083850292508281039150828110156121f4576001820391505b509250929050565b6000818103821680838161220c57fe5b04925080858161221857fe5b04945080816000038161222757fe5b60028581038087028203028087028203028087028203028087028203028087028203028087028203029586029003909402930460010193909302939093010292915050565b815460009082106122ae5760405162461bcd60e51b81526004018080602001828103825260228152602001806129e76022913960400191505060405180910390fd5b8260000182815481106122bd57fe5b9060005260206000200154905092915050565b60009081526001919091016020526040902054151590565b5490565b3b151590565b600054610100900460ff168061230b575061230b611ba6565b80612319575060005460ff16155b6123545760405162461bcd60e51b815260040180806020018281038252602e815260200180612a68602e913960400191505060405180910390fd5b600054610100900460ff16158015611c54576000805460ff1961ff0019909116610100171660011790558015611c66576000805461ff001916905550565b600054610100900460ff16806123ab57506123ab611ba6565b806123b9575060005460ff16155b6123f45760405162461bcd60e51b815260040180806020018281038252602e815260200180612a68602e913960400191505060405180910390fd5b600054610100900460ff1615801561241f576000805460ff1961ff0019909116610100171660011790555b6033805460ff191690558015611c66576000805461ff001916905550565b600061244983836122d0565b61247f57508154600181810184556000848152602080822090930184905584548482528286019093526040902091909155610754565b506000610754565b6000818152600183016020526040812054801561254357835460001980830191908101906000908790839081106124ba57fe5b90600052602060002001549050808760000184815481106124d757fe5b60009182526020808320909101929092558281526001898101909252604090209084019055865487908061250757fe5b60019003818190600052602060002001600090559055866001016000878152602001908152602001600020600090556001945050505050610754565b6000915050610754565b6060600061256f612566612560866126bd565b856125ea565b600060066127ba565b9050600061257c82612880565b60408051600680825260e082019092526001929092189250600091906020820160c08036833701905050905060005b60068110156125e0578060050360050283901c601f168282815181106125cd57fe5b60209081029190910101526001016125ab565b5095945050505050565b60606000825184510167ffffffffffffffff8111801561260957600080fd5b50604051908082528060200260200182016040528015612633578160200160208202803683370190505b50905060005b84518110156126755784818151811061264e57fe5b602002602001015182828151811061266257fe5b6020908102919091010152600101612639565b60005b8451811015611ef057845160018201918691811061269257fe5b60200260200101518383806001019450815181106126ac57fe5b602002602001018181525050612678565b60606000825183510160010167ffffffffffffffff811180156126df57600080fd5b50604051908082528060200260200182016040528015612709578160200160208202803683370190505b50905060005b835181101561274f57600584828151811061272657fe5b6020026020010151901c82828151811061273c57fe5b602090810291909101015260010161270f565b5060008184518151811061275f57fe5b60200260200101818152505060005b83518110156127b35783818151811061278357fe5b6020026020010151601f168285518301600101815181106127a057fe5b602090810291909101015260010161276e565b5092915050565b606060008285510167ffffffffffffffff811180156127d857600080fd5b50604051908082528060200260200182016040528015612802578160200160208202803683370190505b50905060005b85518110156128445785818151811061281d57fe5b602002602001015182828151811061283157fe5b6020908102919091010152600101612808565b60005b84811015612875578583838060010194508151811061286257fe5b6020908102919091010152600101612847565b509095945050505050565b6040805160a081018252633b6a57b281526326508e6d6020820152631ea119fa91810191909152633d4233dd6060820152632a1462b360808201526000906001825b845181101561293d576000601983901c90508582815181106128e057fe5b60200260200101516005846301ffffff16901b18925060005b600581101561293357600182821c8116141561292b5784816005811061291b57fe5b602002015163ffffffff16841893505b6001016128f9565b50506001016128c2565b509392505050565b828054600181600116156101000203166002900490600052602060002090601f01602090048101928261297b57600085556129c1565b82601f1061299457805160ff19168380011785556129c1565b828001600101855582156129c1579182015b828111156129c15782518255916020019190600101906129a6565b506129cd9291506129d1565b5090565b5b808211156129cd57600081556001016129d256fe456e756d657261626c655365743a20696e646578206f7574206f6620626f756e6473416363657373436f6e74726f6c3a2073656e646572206d75737420626520616e2061646d696e20746f206772616e74416363657373436f6e74726f6c3a2073656e646572206d75737420626520616e2061646d696e20746f207265766f6b65496e697469616c697a61626c653a20636f6e747261637420697320616c726561647920696e697469616c697a6564536166654d6174683a206d756c7469706c69636174696f6e206f766572666c6f7765d7a28e3265b37a6474929f336521b332c1681b933f6cb9f3376673440d862a751b795d24b92e3d92d1d0d8f2885f4e9c9c269da350af36ae6b49069babf4bf416363657373436f6e74726f6c3a2063616e206f6e6c792072656e6f756e636520726f6c657320666f722073656c6671707a7279397838676632747664773073336a6e35346b686365366d7561376ca26469706673582212206d01ae5c847d376e13063d4b6c9505c0866c70db6e86ab85ac81cf0ec48fdab564736f6c63430007060033",
  "immutableReferences": {},
  "source": "// SPDX-License-Identifier: UNLICENSED\npragma solidity >=0.7.0;\n\nimport \"@openzeppelin/contracts-upgradeable/math/SafeMathUpgradeable.sol\";\nimport \"@openzeppelin/contracts-upgradeable/utils/PausableUpgradeable.sol\";\nimport \"@openzeppelin/contracts-upgradeable/access/AccessControlUpgradeable.sol\";\nimport \"./interfaces/IUTokens.sol\";\nimport \"./interfaces/ITokenWrapper.sol\";\nimport \"./libraries/Bech32Validation.sol\";\nimport \"./libraries/Bech32.sol\";\nimport \"./libraries/FullMath.sol\";\n\ncontract TokenWrapper is\n\tITokenWrapper,\n\tPausableUpgradeable,\n\tAccessControlUpgradeable\n{\n\tusing SafeMathUpgradeable for uint256;\n\tusing FullMath for uint256;\n\tusing Bech32 for string;\n\n\t//Private instances of contracts to handle Utokens and Stokens\n\tIUTokens private _uTokens;\n\n\t// defining the fees and minimum values\n\tuint256 private _minDeposit;\n\tuint256 private _minWithdraw;\n\tuint256 private _depositFee;\n\tuint256 private _withdrawFee;\n\tuint256 private _valueDivisor;\n\n\t// constants defining access control ROLES\n\tbytes32 public constant BRIDGE_ADMIN_ROLE = keccak256(\"BRIDGE_ADMIN_ROLE\");\n\tbytes32 public constant PAUSER_ROLE = keccak256(\"PAUSER_ROLE\");\n\n\t//variables defining bech32 validation attributes\n\tbytes hrpBytes;\n\tbytes controlDigitBytes;\n\tuint256 dataBytesSize;\n\n\t/*\n\t * @dev Constructor for initializing the TokenWrapper contract.\n\t * @param uAddress - address of the UToken contract.\n\t * @param bridgeAdminAddress - address of the bridge admin.\n\t * @param pauserAddress - address of the pauser admin.\n\t * @param valueDivisor - valueDivisor set to 10^9.\n\t */\n\tfunction initialize(\n\t\taddress uAddress,\n\t\taddress bridgeAdminAddress,\n\t\taddress pauserAddress,\n\t\tuint256 valueDivisor\n\t) public virtual initializer {\n\t\t__AccessControl_init();\n\t\t__Pausable_init();\n\t\t_setupRole(DEFAULT_ADMIN_ROLE, _msgSender());\n\t\t_setupRole(BRIDGE_ADMIN_ROLE, bridgeAdminAddress);\n\t\t_setupRole(PAUSER_ROLE, pauserAddress);\n\t\tsetUTokensContract(uAddress);\n\t\tsetMinimumValues(1, 1);\n\t\t_valueDivisor = valueDivisor;\n\t\t// setting bech32 validation attributes\n\t\thrpBytes = \"cosmos\";\n\t\tcontrolDigitBytes = \"1\";\n\t\tdataBytesSize = 38;\n\t}\n\n\t/**\n\t * @dev Set 'fees', called from admin\n\t * @param withdrawFee: withdraw fee\n\t * @param depositFee: deposit fee\n\t *\n\t * Emits a {SetFees} event with 'fee' set to the withdraw.\n\t *\n\t */\n\tfunction setFees(uint256 depositFee, uint256 withdrawFee)\n\t\tpublic\n\t\tvirtual\n\t\treturns (bool success)\n\t{\n\t\trequire(hasRole(DEFAULT_ADMIN_ROLE, _msgSender()), \"TW1\");\n\t\t// range checks for fees. Since fee cannot be more than 100%, the max cap\n\t\t// is _valueDivisor * 100, which then brings the fees to 100 (percentage)\n\t\trequire(\n\t\t\tdepositFee <= _valueDivisor.mul(100) ||\n\t\t\t\t(depositFee == 0 && withdrawFee <= _valueDivisor.mul(100)) ||\n\t\t\t\twithdrawFee == 0,\n\t\t\t\"TW2\"\n\t\t);\n\t\t_depositFee = depositFee;\n\t\t_withdrawFee = withdrawFee;\n\t\temit SetFees(depositFee, withdrawFee);\n\t\treturn true;\n\t}\n\n\t/**\n\t * @dev get fees, minimum set values and value divisor\n\t *\n\t */\n\tfunction getProps()\n\t\tpublic\n\t\tview\n\t\tvirtual\n\t\treturns (\n\t\t\tuint256 depositFee,\n\t\t\tuint256 withdrawFee,\n\t\t\tuint256 minDeposit,\n\t\t\tuint256 minWithdraw,\n\t\t\tuint256 valueDivisor\n\t\t)\n\t{\n\t\tdepositFee = _depositFee;\n\t\twithdrawFee = _withdrawFee;\n\t\tminDeposit = _minDeposit;\n\t\tminWithdraw = _minWithdraw;\n\t\tvalueDivisor = _valueDivisor;\n\t}\n\n\t/**\n\t * @dev Set 'minimum values', called from admin\n\t * @param minDeposit: deposit minimum value\n\t * @param minWithdraw: withdraw minimum value\n\t *\n\t * Emits a {SetMinimumValues} event with 'minimum value' set to withdraw.\n\t *\n\t */\n\tfunction setMinimumValues(uint256 minDeposit, uint256 minWithdraw)\n\t\tpublic\n\t\tvirtual\n\t\treturns (bool success)\n\t{\n\t\trequire(hasRole(DEFAULT_ADMIN_ROLE, _msgSender()), \"TW3\");\n\t\trequire(minDeposit >= 1, \"TW4\");\n\t\trequire(minWithdraw >= 1, \"TW5\");\n\t\t_minDeposit = minDeposit;\n\t\t_minWithdraw = minWithdraw;\n\t\temit SetMinimumValues(minDeposit, minWithdraw);\n\t\treturn true;\n\t}\n\n\t/*\n\t * @dev Set 'contract address', called for utokens smart contract\n\t * @param uAddress: utoken contract address\n\t *\n\t * Emits a {SetUTokensContract} event with '_contract' set to the utoken contract address.\n\t *\n\t */\n\tfunction setUTokensContract(address uAddress) public virtual override {\n\t\trequire(hasRole(DEFAULT_ADMIN_ROLE, _msgSender()), \"TW6\");\n\t\t_uTokens = IUTokens(uAddress);\n\t\temit SetUTokensContract(uAddress);\n\t}\n\n\t/**\n\t * @dev Triggers stopped state.\n\t *\n\t * Requirements:\n\t *\n\t * - The contract must not be paused.\n\t */\n\tfunction pause() public virtual returns (bool success) {\n\t\trequire(hasRole(PAUSER_ROLE, _msgSender()), \"TW7\");\n\t\t_pause();\n\t\treturn true;\n\t}\n\n\t/**\n\t * @dev Returns to normal state.\n\t *\n\t * Requirements:\n\t *\n\t * - The contract must be paused.\n\t */\n\tfunction unpause() public virtual returns (bool success) {\n\t\trequire(hasRole(PAUSER_ROLE, _msgSender()), \"TW8\");\n\t\t_unpause();\n\t\treturn true;\n\t}\n\n\t/**\n\t * @dev common function added to be called by generateUTokens and generateUTokensInBatch and mints new utokens for the provided 'address' and 'amount'\n\t * @param to: account address, amount: number of tokens\n\t * Requirements:\n\t *\n\t * - `amount` cannot be less than zero.\n\t *\n\t */\n\tfunction _generateUTokens(address to, uint256 amount)\n\t\tinternal\n\t\tvirtual\n\t\treturns (uint256 finalTokens)\n\t{\n\t\t// the tokens to be generated to the user's address will be after the fee processing\n\t\tuint256 _fee = (amount.mulDiv(_depositFee, _valueDivisor)).div(100);\n\t\tfinalTokens = amount.sub(_fee);\n\t\t_uTokens.mint(to, finalTokens);\n\t\treturn finalTokens;\n\t}\n\n\t/**\n\t * @dev Mint new utokens for the provided 'address' and 'amount'\n\t * @param to: account address, amount: number of tokens\n\t *\n\t * Emits a {GenerateUTokens} event with 'to' set to address and 'amount' set to amount of tokens.\n\t *\n\t * Requirements:\n\t *\n\t * - `amount` cannot be less than zero.\n\t *\n\t */\n\tfunction generateUTokens(address to, uint256 amount)\n\t\tpublic\n\t\tvirtual\n\t\toverride\n\t\twhenNotPaused\n\t{\n\t\trequire(amount >= _minDeposit, \"TW9\");\n\t\trequire(hasRole(BRIDGE_ADMIN_ROLE, _msgSender()), \"TW10\");\n\t\tuint256 _finalTokens = _generateUTokens(to, amount);\n\t\temit GenerateUTokens(to, amount, _finalTokens, block.timestamp);\n\t}\n\n\t/**\n\t * @dev Mint new utokens for the provided 'address' and 'amount' in batch\n\t * @param to[]: array of account addresses, amount[]: array of tokens\n\t *\n\t * Emits a {GenerateUTokens} event with 'to' set to address and 'amount' set to amount of tokens.\n\t *\n\t * Requirements:\n\t *\n\t * - `amount` cannot be less than zero.\n\t *\n\t */\n\tfunction generateUTokensInBatch(\n\t\taddress[] memory to,\n\t\tuint256[] memory amount\n\t) public virtual override whenNotPaused {\n\t\trequire(to.length == amount.length, \"TW11\");\n\t\trequire(hasRole(BRIDGE_ADMIN_ROLE, _msgSender()), \"TW12\");\n\t\tuint256 i;\n\t\tuint256 _finalTokens;\n\t\tuint256 _toLength = to.length;\n\t\tfor (i = 0; i < _toLength; i = i.add(1)) {\n\t\t\trequire(amount[i] >= _minDeposit, \"TW13\");\n\t\t\t_finalTokens = _generateUTokens(to[i], amount[i]);\n\t\t}\n\t\temit GenerateUTokens(\n\t\t\tto[i.sub(1)],\n\t\t\tamount[i.sub(1)],\n\t\t\t_finalTokens,\n\t\t\tblock.timestamp\n\t\t);\n\t}\n\n\t/**\n\t * @dev check if the address is Bech32Valid\n\t *\n\t */\n\tfunction isBech32Valid(string memory toChainAddress)\n\t\tpublic\n\t\tview\n\t\tvirtual\n\t\toverride\n\t\treturns (bool isAddressValid)\n\t{\n\t\tbool isAddressValid = toChainAddress.isBech32AddressValid(\n\t\t\thrpBytes,\n\t\t\tcontrolDigitBytes,\n\t\t\tdataBytesSize\n\t\t);\n\t}\n\n\t/**\n\t * @dev Burn utokens for the provided 'address' and 'tokens'\n\t * @param from: account address, tokens: number of tokens, toChainAddress: atom wallet address\n\t *\n\t * Emits a {WithdrawUTokens} event with 'from' set to address, 'finalTokens' set to amount of tokens and 'toChainAddress'\n\t *\n\t * Requirements:\n\t *\n\t * - `tokens` cannot be less than zero.\n\t *\n\t */\n\tfunction withdrawUTokens(\n\t\taddress from,\n\t\tuint256 tokens,\n\t\tstring memory toChainAddress\n\t) public virtual override whenNotPaused {\n\t\trequire(tokens >= _minWithdraw, \"TW14\");\n\t\t//check if toChainAddress is valid address\n\t\tbool isAddressValid = toChainAddress.isBech32AddressValid(\n\t\t\thrpBytes,\n\t\t\tcontrolDigitBytes,\n\t\t\tdataBytesSize\n\t\t);\n\t\trequire(isAddressValid == true, \"TW15\");\n\t\tuint256 _currentUTokenBalance = _uTokens.balanceOf(from);\n\t\t// final tokens is the amount of tokens to be burned, including the fee\n\t\tuint256 _fee = (tokens.mulDiv(_withdrawFee, _valueDivisor)).div(100);\n\t\tuint256 _finalTokens = tokens.add(_fee);\n\t\trequire(_currentUTokenBalance >= _finalTokens, \"TW16\");\n\t\trequire(from == _msgSender(), \"TW17\");\n\n\t\t_uTokens.burn(from, _finalTokens);\n\t\temit WithdrawUTokens(\n\t\t\tfrom,\n\t\t\ttokens,\n\t\t\t_finalTokens,\n\t\t\ttoChainAddress,\n\t\t\tblock.timestamp\n\t\t);\n\t}\n}\n",
  "sourcePath": "C:\\Users\\Kamlesh\\Persistence\\pStake\\codebase\\pStake-smartContracts\\contracts\\TokenWrapper.sol",
  "compiler": {
    "name": "solc",
    "version": "0.7.6+commit.7338295f.Emscripten.clang"
  },
  "schemaVersion": "3.4.3",
  "updatedAt": "2021-09-20T13:43:16.194Z",
  "devdoc": {
    "kind": "dev",
    "methods": {
      "generateUTokens(address,uint256)": {
        "details": "Mint new utokens for the provided 'address' and 'amount'",
        "params": {
          "to": ": account address, amount: number of tokens Emits a {GenerateUTokens} event with 'to' set to address and 'amount' set to amount of tokens. Requirements: - `amount` cannot be less than zero."
        }
      },
      "generateUTokensInBatch(address[],uint256[])": {
        "details": "Mint new utokens for the provided 'address' and 'amount' in batch",
        "params": {
          "to": "[]: array of account addresses, amount[]: array of tokens Emits a {GenerateUTokens} event with 'to' set to address and 'amount' set to amount of tokens. Requirements: - `amount` cannot be less than zero."
        }
      },
      "getProps()": {
        "details": "get fees, minimum set values and value divisor"
      },
      "getRoleAdmin(bytes32)": {
        "details": "Returns the admin role that controls `role`. See {grantRole} and {revokeRole}. To change a role's admin, use {_setRoleAdmin}."
      },
      "getRoleMember(bytes32,uint256)": {
        "details": "Returns one of the accounts that have `role`. `index` must be a value between 0 and {getRoleMemberCount}, non-inclusive. Role bearers are not sorted in any particular way, and their ordering may change at any point. WARNING: When using {getRoleMember} and {getRoleMemberCount}, make sure you perform all queries on the same block. See the following https://forum.openzeppelin.com/t/iterating-over-elements-on-enumerableset-in-openzeppelin-contracts/2296[forum post] for more information."
      },
      "getRoleMemberCount(bytes32)": {
        "details": "Returns the number of accounts that have `role`. Can be used together with {getRoleMember} to enumerate all bearers of a role."
      },
      "grantRole(bytes32,address)": {
        "details": "Grants `role` to `account`. If `account` had not been already granted `role`, emits a {RoleGranted} event. Requirements: - the caller must have ``role``'s admin role."
      },
      "hasRole(bytes32,address)": {
        "details": "Returns `true` if `account` has been granted `role`."
      },
      "isBech32Valid(string)": {
        "details": "check if the address is Bech32Valid"
      },
      "pause()": {
        "details": "Triggers stopped state. Requirements: - The contract must not be paused."
      },
      "paused()": {
        "details": "Returns true if the contract is paused, and false otherwise."
      },
      "renounceRole(bytes32,address)": {
        "details": "Revokes `role` from the calling account. Roles are often managed via {grantRole} and {revokeRole}: this function's purpose is to provide a mechanism for accounts to lose their privileges if they are compromised (such as when a trusted device is misplaced). If the calling account had been granted `role`, emits a {RoleRevoked} event. Requirements: - the caller must be `account`."
      },
      "revokeRole(bytes32,address)": {
        "details": "Revokes `role` from `account`. If `account` had been granted `role`, emits a {RoleRevoked} event. Requirements: - the caller must have ``role``'s admin role."
      },
      "setFees(uint256,uint256)": {
        "details": "Set 'fees', called from admin",
        "params": {
          "depositFee": ": deposit fee Emits a {SetFees} event with 'fee' set to the withdraw.",
          "withdrawFee": ": withdraw fee"
        }
      },
      "setMinimumValues(uint256,uint256)": {
        "details": "Set 'minimum values', called from admin",
        "params": {
          "minDeposit": ": deposit minimum value",
          "minWithdraw": ": withdraw minimum value Emits a {SetMinimumValues} event with 'minimum value' set to withdraw."
        }
      },
      "setUTokensContract(address)": {
        "details": "Set UTokens smart contract. Emits a {SetUTokensContract} event."
      },
      "unpause()": {
        "details": "Returns to normal state. Requirements: - The contract must be paused."
      },
      "withdrawUTokens(address,uint256,string)": {
        "details": "Burn utokens for the provided 'address' and 'tokens'",
        "params": {
          "from": ": account address, tokens: number of tokens, toChainAddress: atom wallet address Emits a {WithdrawUTokens} event with 'from' set to address, 'finalTokens' set to amount of tokens and 'toChainAddress' Requirements: - `tokens` cannot be less than zero."
        }
      }
    },
    "version": 1
  },
  "userdoc": {
    "kind": "user",
    "methods": {},
    "version": 1
  }
}