{
  "contractName": "TokenWrapper",
  "abi": [
    {
      "anonymous": false,
      "inputs": [
        {
          "indexed": true,
          "internalType": "address",
          "name": "accountAddress",
          "type": "address"
        },
        {
          "indexed": false,
          "internalType": "uint256",
          "name": "tokens",
          "type": "uint256"
        },
        {
          "indexed": false,
          "internalType": "uint256",
          "name": "timestamp",
          "type": "uint256"
        }
      ],
      "name": "GenerateUTokens",
      "type": "event"
    },
    {
      "anonymous": false,
      "inputs": [
        {
          "indexed": false,
          "internalType": "address",
          "name": "account",
          "type": "address"
        }
      ],
      "name": "Paused",
      "type": "event"
    },
    {
      "anonymous": false,
      "inputs": [
        {
          "indexed": true,
          "internalType": "bytes32",
          "name": "role",
          "type": "bytes32"
        },
        {
          "indexed": true,
          "internalType": "bytes32",
          "name": "previousAdminRole",
          "type": "bytes32"
        },
        {
          "indexed": true,
          "internalType": "bytes32",
          "name": "newAdminRole",
          "type": "bytes32"
        }
      ],
      "name": "RoleAdminChanged",
      "type": "event"
    },
    {
      "anonymous": false,
      "inputs": [
        {
          "indexed": true,
          "internalType": "bytes32",
          "name": "role",
          "type": "bytes32"
        },
        {
          "indexed": true,
          "internalType": "address",
          "name": "account",
          "type": "address"
        },
        {
          "indexed": true,
          "internalType": "address",
          "name": "sender",
          "type": "address"
        }
      ],
      "name": "RoleGranted",
      "type": "event"
    },
    {
      "anonymous": false,
      "inputs": [
        {
          "indexed": true,
          "internalType": "bytes32",
          "name": "role",
          "type": "bytes32"
        },
        {
          "indexed": true,
          "internalType": "address",
          "name": "account",
          "type": "address"
        },
        {
          "indexed": true,
          "internalType": "address",
          "name": "sender",
          "type": "address"
        }
      ],
      "name": "RoleRevoked",
      "type": "event"
    },
    {
      "anonymous": false,
      "inputs": [
        {
          "indexed": false,
          "internalType": "uint256",
          "name": "depositFee",
          "type": "uint256"
        },
        {
          "indexed": false,
          "internalType": "uint256",
          "name": "withdrawFee",
          "type": "uint256"
        }
      ],
      "name": "SetFees",
      "type": "event"
    },
    {
      "anonymous": false,
      "inputs": [
        {
          "indexed": false,
          "internalType": "uint256",
          "name": "minDeposit",
          "type": "uint256"
        },
        {
          "indexed": false,
          "internalType": "uint256",
          "name": "minWithdraw",
          "type": "uint256"
        }
      ],
      "name": "SetMinimumValues",
      "type": "event"
    },
    {
      "anonymous": false,
      "inputs": [
        {
          "indexed": true,
          "internalType": "address",
          "name": "_contract",
          "type": "address"
        }
      ],
      "name": "SetUTokensContract",
      "type": "event"
    },
    {
      "anonymous": false,
      "inputs": [
        {
          "indexed": false,
          "internalType": "address",
          "name": "account",
          "type": "address"
        }
      ],
      "name": "Unpaused",
      "type": "event"
    },
    {
      "anonymous": false,
      "inputs": [
        {
          "indexed": true,
          "internalType": "address",
          "name": "accountAddress",
          "type": "address"
        },
        {
          "indexed": false,
          "internalType": "uint256",
          "name": "tokens",
          "type": "uint256"
        },
        {
          "indexed": false,
          "internalType": "string",
          "name": "toAtomAddress",
          "type": "string"
        },
        {
          "indexed": false,
          "internalType": "uint256",
          "name": "timestamp",
          "type": "uint256"
        }
      ],
      "name": "WithdrawUTokens",
      "type": "event"
    },
    {
      "inputs": [],
      "name": "BRIDGE_ADMIN_ROLE",
      "outputs": [
        {
          "internalType": "bytes32",
          "name": "",
          "type": "bytes32"
        }
      ],
      "stateMutability": "view",
      "type": "function",
      "constant": true
    },
    {
      "inputs": [],
      "name": "DEFAULT_ADMIN_ROLE",
      "outputs": [
        {
          "internalType": "bytes32",
          "name": "",
          "type": "bytes32"
        }
      ],
      "stateMutability": "view",
      "type": "function",
      "constant": true
    },
    {
      "inputs": [],
      "name": "PAUSER_ROLE",
      "outputs": [
        {
          "internalType": "bytes32",
          "name": "",
          "type": "bytes32"
        }
      ],
      "stateMutability": "view",
      "type": "function",
      "constant": true
    },
    {
      "inputs": [
        {
          "internalType": "bytes32",
          "name": "role",
          "type": "bytes32"
        }
      ],
      "name": "getRoleAdmin",
      "outputs": [
        {
          "internalType": "bytes32",
          "name": "",
          "type": "bytes32"
        }
      ],
      "stateMutability": "view",
      "type": "function",
      "constant": true
    },
    {
      "inputs": [
        {
          "internalType": "bytes32",
          "name": "role",
          "type": "bytes32"
        },
        {
          "internalType": "uint256",
          "name": "index",
          "type": "uint256"
        }
      ],
      "name": "getRoleMember",
      "outputs": [
        {
          "internalType": "address",
          "name": "",
          "type": "address"
        }
      ],
      "stateMutability": "view",
      "type": "function",
      "constant": true
    },
    {
      "inputs": [
        {
          "internalType": "bytes32",
          "name": "role",
          "type": "bytes32"
        }
      ],
      "name": "getRoleMemberCount",
      "outputs": [
        {
          "internalType": "uint256",
          "name": "",
          "type": "uint256"
        }
      ],
      "stateMutability": "view",
      "type": "function",
      "constant": true
    },
    {
      "inputs": [
        {
          "internalType": "bytes32",
          "name": "role",
          "type": "bytes32"
        },
        {
          "internalType": "address",
          "name": "account",
          "type": "address"
        }
      ],
      "name": "grantRole",
      "outputs": [],
      "stateMutability": "nonpayable",
      "type": "function"
    },
    {
      "inputs": [
        {
          "internalType": "bytes32",
          "name": "role",
          "type": "bytes32"
        },
        {
          "internalType": "address",
          "name": "account",
          "type": "address"
        }
      ],
      "name": "hasRole",
      "outputs": [
        {
          "internalType": "bool",
          "name": "",
          "type": "bool"
        }
      ],
      "stateMutability": "view",
      "type": "function",
      "constant": true
    },
    {
      "inputs": [],
      "name": "paused",
      "outputs": [
        {
          "internalType": "bool",
          "name": "",
          "type": "bool"
        }
      ],
      "stateMutability": "view",
      "type": "function",
      "constant": true
    },
    {
      "inputs": [
        {
          "internalType": "bytes32",
          "name": "role",
          "type": "bytes32"
        },
        {
          "internalType": "address",
          "name": "account",
          "type": "address"
        }
      ],
      "name": "renounceRole",
      "outputs": [],
      "stateMutability": "nonpayable",
      "type": "function"
    },
    {
      "inputs": [
        {
          "internalType": "bytes32",
          "name": "role",
          "type": "bytes32"
        },
        {
          "internalType": "address",
          "name": "account",
          "type": "address"
        }
      ],
      "name": "revokeRole",
      "outputs": [],
      "stateMutability": "nonpayable",
      "type": "function"
    },
    {
      "inputs": [
        {
          "internalType": "address",
          "name": "uAddress",
          "type": "address"
        },
        {
          "internalType": "address",
          "name": "bridgeAdminAddress",
          "type": "address"
        },
        {
          "internalType": "address",
          "name": "pauserAddress",
          "type": "address"
        },
        {
          "internalType": "uint256",
          "name": "feeDivisor",
          "type": "uint256"
        }
      ],
      "name": "initialize",
      "outputs": [],
      "stateMutability": "nonpayable",
      "type": "function"
    },
    {
      "inputs": [
        {
          "internalType": "uint256",
          "name": "depositFee",
          "type": "uint256"
        },
        {
          "internalType": "uint256",
          "name": "withdrawFee",
          "type": "uint256"
        }
      ],
      "name": "setFees",
      "outputs": [
        {
          "internalType": "bool",
          "name": "success",
          "type": "bool"
        }
      ],
      "stateMutability": "nonpayable",
      "type": "function"
    },
    {
      "inputs": [],
      "name": "getFeesAndMinimumValues",
      "outputs": [
        {
          "internalType": "uint256",
          "name": "depositFee",
          "type": "uint256"
        },
        {
          "internalType": "uint256",
          "name": "withdrawFee",
          "type": "uint256"
        },
        {
          "internalType": "uint256",
          "name": "minWithdraw",
          "type": "uint256"
        }
      ],
      "stateMutability": "view",
      "type": "function",
      "constant": true
    },
    {
      "inputs": [
        {
          "internalType": "uint256",
          "name": "minDeposit",
          "type": "uint256"
        },
        {
          "internalType": "uint256",
          "name": "minWithdraw",
          "type": "uint256"
        }
      ],
      "name": "setMinimumValues",
      "outputs": [
        {
          "internalType": "bool",
          "name": "success",
          "type": "bool"
        }
      ],
      "stateMutability": "nonpayable",
      "type": "function"
    },
    {
      "inputs": [
        {
          "internalType": "address",
          "name": "uAddress",
          "type": "address"
        }
      ],
      "name": "setUTokensContract",
      "outputs": [],
      "stateMutability": "nonpayable",
      "type": "function"
    },
    {
      "inputs": [],
      "name": "pause",
      "outputs": [
        {
          "internalType": "bool",
          "name": "success",
          "type": "bool"
        }
      ],
      "stateMutability": "nonpayable",
      "type": "function"
    },
    {
      "inputs": [],
      "name": "unpause",
      "outputs": [
        {
          "internalType": "bool",
          "name": "success",
          "type": "bool"
        }
      ],
      "stateMutability": "nonpayable",
      "type": "function"
    },
    {
      "inputs": [
        {
          "internalType": "address",
          "name": "to",
          "type": "address"
        },
        {
          "internalType": "uint256",
          "name": "amount",
          "type": "uint256"
        }
      ],
      "name": "generateUTokens",
      "outputs": [],
      "stateMutability": "nonpayable",
      "type": "function"
    },
    {
      "inputs": [
        {
          "internalType": "address[]",
          "name": "to",
          "type": "address[]"
        },
        {
          "internalType": "uint256[]",
          "name": "amount",
          "type": "uint256[]"
        }
      ],
      "name": "generateUTokensInBatch",
      "outputs": [],
      "stateMutability": "nonpayable",
      "type": "function"
    },
    {
      "inputs": [
        {
          "internalType": "address",
          "name": "from",
          "type": "address"
        },
        {
          "internalType": "uint256",
          "name": "tokens",
          "type": "uint256"
        },
        {
          "internalType": "string",
          "name": "toAtomAddress",
          "type": "string"
        }
      ],
      "name": "withdrawUTokens",
      "outputs": [],
      "stateMutability": "nonpayable",
      "type": "function"
    }
  ],
  "bytecode": "0x608060405234801561001057600080fd5b50611d48806100206000396000f3fe608060405234801561001057600080fd5b50600436106101375760003560e01c80635c975abb116100b8578063ca15c8731161007c578063ca15c873146103bf578063cf756fdf146103dc578063d547741f14610418578063e63ab1e914610444578063e7fa0a321461044c578063f680f6761461057357610137565b80635c975abb1461033c5780638456cb59146103445780639010d07c1461034c57806391d148541461038b578063a217fddf146103b757610137565b80632f2ff15d116100ff5780632f2ff15d146101fe57806336568abe1461022a5780633f4ba83a14610256578063428bee9e1461025e57806351db00e71461031957610137565b80630b78f9c01461013c578063118c38c71461017357806321bdf9e51461018d57806322dd9bc3146101b5578063248a9ca3146101e1575b600080fd5b61015f6004803603604081101561015257600080fd5b5080359060200135610599565b604080519115158252519081900360200190f35b61017b610636565b60408051918252519081900360200190f35b6101b3600480360360208110156101a357600080fd5b50356001600160a01b0316610648565b005b6101b3600480360360408110156101cb57600080fd5b506001600160a01b0381351690602001356106da565b61017b600480360360208110156101f757600080fd5b5035610814565b6101b36004803603604081101561021457600080fd5b50803590602001356001600160a01b0316610829565b6101b36004803603604081101561024057600080fd5b50803590602001356001600160a01b0316610890565b61015f6108f1565b6101b36004803603606081101561027457600080fd5b6001600160a01b03823516916020810135918101906060810160408201356401000000008111156102a457600080fd5b8201836020820111156102b657600080fd5b803590602001918460018302840111640100000000831117156102d857600080fd5b91908080601f016020809104026020016040519081016040528093929190818152602001838380828437600092019190915250929550610956945050505050565b61015f6004803603604081101561032f57600080fd5b5080359060200135610c8c565b61015f610d23565b61015f610d2c565b61036f6004803603604081101561036257600080fd5b5080359060200135610d8b565b604080516001600160a01b039092168252519081900360200190f35b61015f600480360360408110156103a157600080fd5b50803590602001356001600160a01b0316610daa565b61017b610dc2565b61017b600480360360208110156103d557600080fd5b5035610dc7565b6101b3600480360360808110156103f257600080fd5b506001600160a01b03813581169160208101358216916040820135169060600135610dde565b6101b36004803603604081101561042e57600080fd5b50803590602001356001600160a01b0316610ee4565b61017b610f3d565b6101b36004803603604081101561046257600080fd5b81019060208101813564010000000081111561047d57600080fd5b82018360208201111561048f57600080fd5b803590602001918460208302840111640100000000831117156104b157600080fd5b919080806020026020016040519081016040528093929190818152602001838360200280828437600092019190915250929594936020810193503591505064010000000081111561050157600080fd5b82018360208201111561051357600080fd5b8035906020019184602083028401116401000000008311171561053557600080fd5b919080806020026020016040519081016040528093929190818152602001838360200280828437600092019190915250929550610f4f945050505050565b61057b611100565b60408051938452602084019290925282820152519081900360600190f35b60006105ac816105a761110e565b610daa565b6105e75760405162461bcd60e51b815260040180806020018281038252602d815260200180611c2d602d913960400191505060405180910390fd5b609a839055609b829055604080518481526020810184905281517f3be6e637f54f081a2dd12982cfd58481304fc98b604b18fa8ed4aa4e4a9d1532929181900390910190a15060015b92915050565b600080516020611c5a83398151915281565b61065560006105a761110e565b6106905760405162461bcd60e51b8152600401808060200182810382526038815260200180611ba46038913960400191505060405180910390fd5b609780546001600160a01b0319166001600160a01b0383169081179091556040517ff745c285f36f88bea6af14d4d0f33dd9350cef7895216c1615b1caaee7857e0c90600090a250565b6106e2610d23565b15610727576040805162461bcd60e51b815260206004820152601060248201526f14185d5cd8589b194e881c185d5cd95960821b604482015290519081900360640190fd5b600081116107665760405162461bcd60e51b815260040180806020018281038252602b815260200180611a6a602b913960400191505060405180910390fd5b610780600080516020611c5a8339815191526105a761110e565b6107bb5760405162461bcd60e51b815260040180806020018281038252603e815260200180611a2c603e913960400191505060405180910390fd5b60006107c78383611112565b6040805182815242602082015281519293506001600160a01b038616927f06d08f8705b74e3172df8733fc5da269157556d015544994a9759be4693d3ff5929181900390910190a2505050565b60009081526065602052604090206002015490565b600082815260656020526040902060020154610847906105a761110e565b6108825760405162461bcd60e51b815260040180806020018281038252602f8152602001806119fd602f913960400191505060405180910390fd5b61088c82826111d7565b5050565b61089861110e565b6001600160a01b0316816001600160a01b0316146108e75760405162461bcd60e51b815260040180806020018281038252602f815260200180611cb0602f913960400191505060405180910390fd5b61088c8282611240565b600061090d600080516020611bdc8339815191526105a761110e565b6109485760405162461bcd60e51b8152600401808060200182810382526036815260200180611c7a6036913960400191505060405180910390fd5b6109506112a9565b50600190565b61095e610d23565b156109a3576040805162461bcd60e51b815260206004820152601060248201526f14185d5cd8589b194e881c185d5cd95960821b604482015290519081900360640190fd5b60995482116109e35760405162461bcd60e51b815260040180806020018281038252602c815260200180611b20602c913960400191505060405180910390fd5b609754604080516370a0823160e01b81526001600160a01b038681166004830152915160009392909216916370a0823191602480820192602092909190829003018186803b158015610a3457600080fd5b505afa158015610a48573d6000803e3d6000fd5b505050506040513d6020811015610a5e57600080fd5b5051905082811015610aa15760405162461bcd60e51b815260040180806020018281038252602d815260200180611a95602d913960400191505060405180910390fd5b610aa961110e565b6001600160a01b0316846001600160a01b031614610af85760405162461bcd60e51b8152600401808060200182810382526031815260200180611bfc6031913960400191505060405180910390fd5b6000610b45610b136064609c5461134990919063ffffffff16565b610b3f609b54610b39609c54610b3360648b61134990919063ffffffff16565b90611349565b906113a2565b906113ff565b60975460408051632770a7eb60e21b81526001600160a01b038981166004830152602482018590529151939450911691639dc29fac916044808201926020929091908290030181600087803b158015610b9d57600080fd5b505af1158015610bb1573d6000803e3d6000fd5b505050506040513d6020811015610bc757600080fd5b505060408051828152429181018290526060602082810182815287519284019290925286516001600160a01b038a16947fc2db0b30181b3532965e53ba1bdf883b207dccb658a9589865c5a9c91e28b80b9487948a94929391929091608084019186019080838360005b83811015610c49578181015183820152602001610c31565b50505050905090810190601f168015610c765780820380516001836020036101000a031916815260200191505b5094505050505060405180910390a25050505050565b6000610c9a816105a761110e565b610cd55760405162461bcd60e51b8152600401808060200182810382526037815260200180611b6d6037913960400191505060405180910390fd5b60988390556099829055604080518481526020810184905281517fa94d40347449ea19b873d64ed55c99772194c49791e82be5c2dc24e4c0044fe3929181900390910190a150600192915050565b60335460ff1690565b6000610d48600080516020611bdc8339815191526105a761110e565b610d835760405162461bcd60e51b8152600401808060200182810382526034815260200180611cdf6034913960400191505060405180910390fd5b610950611466565b6000828152606560205260408120610da390836114e9565b9392505050565b6000828152606560205260408120610da390836114f5565b600081565b60008181526065602052604081206106309061150a565b600054610100900460ff1680610df75750610df7611515565b80610e05575060005460ff16155b610e405760405162461bcd60e51b815260040180806020018281038252602e815260200180611af2602e913960400191505060405180910390fd5b600054610100900460ff16158015610e6b576000805460ff1961ff0019909116610100171660011790555b610e73611526565b610e7b6115d8565b610e8d6000610e8861110e565b610882565b610ea5600080516020611c5a83398151915285610882565b610ebd600080516020611bdc83398151915284610882565b610ec685610648565b609c8290558015610edd576000805461ff00191690555b5050505050565b600082815260656020526040902060020154610f02906105a761110e565b6108e75760405162461bcd60e51b8152600401808060200182810382526030815260200180611ac26030913960400191505060405180910390fd5b600080516020611bdc83398151915281565b610f57610d23565b15610f9c576040805162461bcd60e51b815260206004820152601060248201526f14185d5cd8589b194e881c185d5cd95960821b604482015290519081900360640190fd5b610fb6600080516020611c5a8339815191526105a761110e565b610ff15760405162461bcd60e51b815260040180806020018281038252603e815260200180611a2c603e913960400191505060405180910390fd5b6000805b835182101561109457600083838151811061100c57fe5b6020026020010151116110505760405162461bcd60e51b815260040180806020018281038252602b815260200180611a6a602b913960400191505060405180910390fd5b61108084838151811061105f57fe5b602002602001015184848151811061107357fe5b6020026020010151611112565b905061108d826001611675565b9150610ff5565b836110a08360016113a2565b815181106110aa57fe5b60200260200101516001600160a01b03167f06d08f8705b74e3172df8733fc5da269157556d015544994a9759be4693d3ff58242604051808381526020018281526020019250505060405180910390a250505050565b609a54609b54609954909192565b3390565b600061114d61112d6064609c5461134990919063ffffffff16565b610b3f609a54610b39609c54610b3360648961134990919063ffffffff16565b609754604080516340c10f1960e01b81526001600160a01b0387811660048301526024820185905291519394509116916340c10f19916044808201926020929091908290030181600087803b1580156111a557600080fd5b505af11580156111b9573d6000803e3d6000fd5b505050506040513d60208110156111cf57600080fd5b505092915050565b60008281526065602052604090206111ef90826116cf565b1561088c576111fc61110e565b6001600160a01b0316816001600160a01b0316837f2f8788117e7eff1d82e926ec794901d17c78024a50270940304540a733656f0d60405160405180910390a45050565b600082815260656020526040902061125890826116e4565b1561088c5761126561110e565b6001600160a01b0316816001600160a01b0316837ff6391f5c32d9c69d2a47ea670b442974b53935d1edc7fd64eb21e047a839171b60405160405180910390a45050565b6112b1610d23565b6112f9576040805162461bcd60e51b815260206004820152601460248201527314185d5cd8589b194e881b9bdd081c185d5cd95960621b604482015290519081900360640190fd5b6033805460ff191690557f5db9ee0a495bf2e6ff9c91a7834c1ba4fdd244a5e8aa4e537bd38aeae4b073aa61132c61110e565b604080516001600160a01b039092168252519081900360200190a1565b60008261135857506000610630565b8282028284828161136557fe5b0414610da35760405162461bcd60e51b8152600401808060200182810382526021815260200180611b4c6021913960400191505060405180910390fd5b6000828211156113f9576040805162461bcd60e51b815260206004820152601e60248201527f536166654d6174683a207375627472616374696f6e206f766572666c6f770000604482015290519081900360640190fd5b50900390565b6000808211611455576040805162461bcd60e51b815260206004820152601a60248201527f536166654d6174683a206469766973696f6e206279207a65726f000000000000604482015290519081900360640190fd5b81838161145e57fe5b049392505050565b61146e610d23565b156114b3576040805162461bcd60e51b815260206004820152601060248201526f14185d5cd8589b194e881c185d5cd95960821b604482015290519081900360640190fd5b6033805460ff191660011790557f62e78cea01bee320cd4e420270b5ea74000d11b0c9f74754ebdbfc544b05a25861132c61110e565b6000610da383836116f9565b6000610da3836001600160a01b03841661175d565b600061063082611775565b600061152030611779565b15905090565b600054610100900460ff168061153f575061153f611515565b8061154d575060005460ff16155b6115885760405162461bcd60e51b815260040180806020018281038252602e815260200180611af2602e913960400191505060405180910390fd5b600054610100900460ff161580156115b3576000805460ff1961ff0019909116610100171660011790555b6115bb61177f565b6115c361177f565b80156115d5576000805461ff00191690555b50565b600054610100900460ff16806115f157506115f1611515565b806115ff575060005460ff16155b61163a5760405162461bcd60e51b815260040180806020018281038252602e815260200180611af2602e913960400191505060405180910390fd5b600054610100900460ff16158015611665576000805460ff1961ff0019909116610100171660011790555b61166d61177f565b6115c361181f565b600082820183811015610da3576040805162461bcd60e51b815260206004820152601b60248201527f536166654d6174683a206164646974696f6e206f766572666c6f770000000000604482015290519081900360640190fd5b6000610da3836001600160a01b0384166118ca565b6000610da3836001600160a01b038416611914565b8154600090821061173b5760405162461bcd60e51b81526004018080602001828103825260228152602001806119db6022913960400191505060405180910390fd5b82600001828154811061174a57fe5b9060005260206000200154905092915050565b60009081526001919091016020526040902054151590565b5490565b3b151590565b600054610100900460ff16806117985750611798611515565b806117a6575060005460ff16155b6117e15760405162461bcd60e51b815260040180806020018281038252602e815260200180611af2602e913960400191505060405180910390fd5b600054610100900460ff161580156115c3576000805460ff1961ff00199091166101001716600117905580156115d5576000805461ff001916905550565b600054610100900460ff16806118385750611838611515565b80611846575060005460ff16155b6118815760405162461bcd60e51b815260040180806020018281038252602e815260200180611af2602e913960400191505060405180910390fd5b600054610100900460ff161580156118ac576000805460ff1961ff0019909116610100171660011790555b6033805460ff1916905580156115d5576000805461ff001916905550565b60006118d6838361175d565b61190c57508154600181810184556000848152602080822090930184905584548482528286019093526040902091909155610630565b506000610630565b600081815260018301602052604081205480156119d0578354600019808301919081019060009087908390811061194757fe5b906000526020600020015490508087600001848154811061196457fe5b60009182526020808320909101929092558281526001898101909252604090209084019055865487908061199457fe5b60019003818190600052602060002001600090559055866001016000878152602001908152602001600020600090556001945050505050610630565b600091505061063056fe456e756d657261626c655365743a20696e646578206f7574206f6620626f756e6473416363657373436f6e74726f6c3a2073656e646572206d75737420626520616e2061646d696e20746f206772616e74546f6b656e577261707065723a204f6e6c79206272696467652061646d696e2063616e206d696e74206e657720746f6b656e7320666f7220612075736572546f6b656e577261707065723a2052657175697265732061206d696e206465706f73697420616d6f756e74546f6b656e577261707065723a20496e737566666369656e742062616c616e636520666f72206163636f756e74416363657373436f6e74726f6c3a2073656e646572206d75737420626520616e2061646d696e20746f207265766f6b65496e697469616c697a61626c653a20636f6e747261637420697320616c726561647920696e697469616c697a6564546f6b656e577261707065723a2052657175697265732061206d696e20776974686472617720616d6f756e74536166654d6174683a206d756c7469706c69636174696f6e206f766572666c6f77546f6b656e577261707065723a2055736572206e6f7420617574686f726973656420746f20736574206d696e696d756d2076616c756573546f6b656e577261707065723a2055736572206e6f7420617574686f726973656420746f207365742055546f6b656e20636f6e747261637465d7a28e3265b37a6474929f336521b332c1681b933f6cb9f3376673440d862a546f6b656e577261707065723a2057697468647261772063616e206f6e6c7920626520646f6e65206279205374616b6572546f6b656e577261707065723a2055736572206e6f7420617574686f726973656420746f207365742066656573751b795d24b92e3d92d1d0d8f2885f4e9c9c269da350af36ae6b49069babf4bf546f6b656e577261707065723a2055736572206e6f7420617574686f726973656420746f20756e706175736520636f6e747261637473416363657373436f6e74726f6c3a2063616e206f6e6c792072656e6f756e636520726f6c657320666f722073656c66546f6b656e577261707065723a2055736572206e6f7420617574686f726973656420746f20706175736520636f6e747261637473a2646970667358221220ce79b2264211f4acdbbdaa8d04eb92c592433b51724df548ee67e65524b1358f64736f6c63430007060033",
  "immutableReferences": {},
  "source": "// SPDX-License-Identifier: UNLICENSED\npragma solidity ^0.7.0;\n\nimport \"@openzeppelin/contracts-upgradeable/math/SafeMathUpgradeable.sol\";\nimport \"@openzeppelin/contracts-upgradeable/utils/PausableUpgradeable.sol\";\nimport \"@openzeppelin/contracts-upgradeable/access/AccessControlUpgradeable.sol\";\nimport \"./interfaces/IUTokens.sol\";\nimport \"./interfaces/ITokenWrapper.sol\";\n\ncontract TokenWrapper is ITokenWrapper, PausableUpgradeable, AccessControlUpgradeable {\n\n    using SafeMathUpgradeable for uint256;\n\n    //Private instances of contracts to handle Utokens and Stokens\n    IUTokens private _uTokens;\n\n    // defining the fees and minimum values\n    uint256 private _minDeposit;\n    uint256 private _minWithdraw;\n    uint256 private _depositFee;\n    uint256 private _withdrawFee;\n    uint256 private _feeDivisor;\n\n    bytes32 public constant BRIDGE_ADMIN_ROLE = keccak256(\"BRIDGE_ADMIN_ROLE\");\n    bytes32 public constant PAUSER_ROLE = keccak256(\"PAUSER_ROLE\");\n\n    /*\n   * @dev Constructor for initializing the TokenWrapper contract.\n   * @param uAddress - address of the UToken contract.\n   * @param sAddress - address of the SToken contract.\n   * @param bridgeAdminAddress - address of the bridge admin.\n   * @param pauserAddress - address of the pauser admin.\n   */\n    function initialize(address uAddress, address bridgeAdminAddress, address pauserAddress, uint256 feeDivisor) public virtual initializer  {\n         __AccessControl_init();\n        __Pausable_init();\n        _setupRole(DEFAULT_ADMIN_ROLE, _msgSender());\n        _setupRole(BRIDGE_ADMIN_ROLE, bridgeAdminAddress);\n        _setupRole(PAUSER_ROLE, pauserAddress);\n        setUTokensContract(uAddress);\n        _feeDivisor = feeDivisor;\n    }\n\n    /**\n     * @dev Set 'fees', called from admin\n     * @param withdrawFee: withdraw fee\n     *\n     * Emits a {SetFees} event with 'fee' set to the withdraw.\n     *\n     */\n    function setFees(uint256 depositFee, uint256 withdrawFee) public virtual returns (bool success){\n        require(hasRole(DEFAULT_ADMIN_ROLE, _msgSender()), \"TokenWrapper: User not authorised to set fees\");\n        _depositFee = depositFee;\n        _withdrawFee = withdrawFee;\n        emit SetFees(depositFee, withdrawFee);\n        return true;\n    }\n\n    /**\n     * @dev get fees\n     *\n     */\n    function getFeesAndMinimumValues() public view virtual returns (uint256 depositFee, uint256 withdrawFee, uint256 minWithdraw) {\n        depositFee = _depositFee;\n        withdrawFee = _withdrawFee;\n        minWithdraw = _minWithdraw;\n        return (depositFee, withdrawFee, minWithdraw);\n    }\n\n    /**\n     * @dev Set 'minimum values', called from admin\n     * @param minWithdraw: stake minimum value\n     *\n     * Emits a {SetMinimumValues} event with 'minimum value' set to withdraw.\n     *\n     */\n    function setMinimumValues(uint256 minDeposit, uint256 minWithdraw) public virtual returns (bool success){\n        require(hasRole(DEFAULT_ADMIN_ROLE, _msgSender()), \"TokenWrapper: User not authorised to set minimum values\");\n        _minDeposit = minDeposit;\n        _minWithdraw = minWithdraw;\n        emit SetMinimumValues(minDeposit, minWithdraw);\n        return true;\n    }\n\n    /*\n     * @dev Set 'contract address', called from constructor\n     * @param uAddress: utoken contract address\n     *\n     * Emits a {SetContract} event with '_contract' set to the utoken contract address.\n     *\n     */\n    function setUTokensContract(address uAddress) public virtual override {\n        require(hasRole(DEFAULT_ADMIN_ROLE, _msgSender()), \"TokenWrapper: User not authorised to set UToken contract\");\n        _uTokens = IUTokens(uAddress);\n        emit SetUTokensContract(uAddress);\n    }\n\n    /**\n      * @dev Triggers stopped state.\n      *\n      * Requirements:\n      *\n      * - The contract must not be paused.\n      */\n    function pause() public virtual returns (bool success) {\n        require(hasRole(PAUSER_ROLE, _msgSender()), \"TokenWrapper: User not authorised to pause contracts\");\n        _pause();\n        return true;\n    }\n\n    /**\n     * @dev Returns to normal state.\n     *\n     * Requirements:\n     *\n     * - The contract must be paused.\n     */\n    function unpause() public virtual returns (bool success) {\n        require(hasRole(PAUSER_ROLE, _msgSender()), \"TokenWrapper: User not authorised to unpause contracts\");\n        _unpause();\n        return true;\n    }\n\n    /**\n     * @dev Mint new utokens for the provided 'address' and 'amount'\n     * @param to: account address, amount: number of tokens\n     * Requirements:\n     *\n     * - `amount` cannot be less than zero.\n     *\n     */\n    function _generateUTokens(address to, uint256 amount) internal virtual returns (uint256 finalTokens){\n        finalTokens = (((amount.mul(100)).mul(_feeDivisor)).sub(_depositFee)).div(_feeDivisor.mul(100));\n        _uTokens.mint(to, finalTokens);\n        return finalTokens;\n    }\n\n    /**\n     * @dev Mint new utokens for the provided 'address' and 'amount'\n     * @param to: account address, amount: number of tokens\n     *\n     * Emits a {MintTokens} event with 'to' set to address and 'amount' set to amount of tokens.\n     *\n     * Requirements:\n     *\n     * - `amount` cannot be less than zero.\n     *\n     */\n    function generateUTokens(address to, uint256 amount) public virtual override whenNotPaused {\n        require(amount>0, \"TokenWrapper: Requires a min deposit amount\");\n        require(hasRole(BRIDGE_ADMIN_ROLE, _msgSender()), \"TokenWrapper: Only bridge admin can mint new tokens for a user\");\n        uint256 _finalTokens = _generateUTokens(to, amount);\n        emit GenerateUTokens(to, _finalTokens, block.timestamp);\n    }\n\n    /**\n     * @dev Mint new utokens for the provided 'address' and 'amount' iin batch\n     * @param to: account address, amount: number of tokens\n     *\n     * Emits a {MintTokens} event with 'to' set to address and 'amount' set to amount of tokens.\n     *\n     * Requirements:\n     *\n     * - `amount` cannot be less than zero.\n     *\n     */\n    function generateUTokensInBatch(address[] memory to, uint256[] memory amount) public virtual whenNotPaused {\n        require(hasRole(BRIDGE_ADMIN_ROLE, _msgSender()), \"TokenWrapper: Only bridge admin can mint new tokens for a user\");\n        uint256 i;\n        uint256 _finalTokens;\n        for ( i=0; i<to.length; i=i.add(1)) {\n            require(amount[i]>0, \"TokenWrapper: Requires a min deposit amount\");\n            _finalTokens = _generateUTokens(to[i], amount[i]);\n        }\n        emit GenerateUTokens(to[i.sub(1)], _finalTokens, block.timestamp);\n    }\n\n    /**\n     * @dev Burn utokens for the provided 'address' and 'amount'\n     * @param from: account address, tokens: number of tokens, toAtomAddress: atom wallet address\n     *\n     * Emits a {BurnTokens} event with 'from' set to address and 'tokens' set to amount of tokens.\n     *\n     * Requirements:\n     *\n     * - `tokens` cannot be less than zero.\n     *\n     */\n    function withdrawUTokens(address from, uint256 tokens, string memory toAtomAddress) public virtual override whenNotPaused {\n        require(tokens>_minWithdraw, \"TokenWrapper: Requires a min withdraw amount\");\n        uint256 _currentUTokenBalance = _uTokens.balanceOf(from);\n        require(_currentUTokenBalance>=tokens, \"TokenWrapper: Insuffcient balance for account\");\n        require(from == _msgSender(), \"TokenWrapper: Withdraw can only be done by Staker\");\n        uint256 finalTokens = (((tokens.mul(100)).mul(_feeDivisor)).sub(_withdrawFee)).div(_feeDivisor.mul(100));\n        _uTokens.burn(from, finalTokens);\n        emit WithdrawUTokens(from, finalTokens, toAtomAddress, block.timestamp);\n    }\n}\n\n",
  "sourcePath": "/home/aditimahesh/Documents/Work/Persistence/go/src/github.com/persistenceOne/pStakeSmartContracts/contracts/TokenWrapper.sol",
  "compiler": {
    "name": "solc",
    "version": "0.7.6+commit.7338295f.Emscripten.clang"
  },
  "schemaVersion": "3.3.4",
  "updatedAt": "2021-05-17T09:11:56.973Z",
  "networkType": "ethereum",
  "devdoc": {
    "kind": "dev",
    "methods": {
      "generateUTokens(address,uint256)": {
        "details": "Mint new utokens for the provided 'address' and 'amount'",
        "params": {
          "to": ": account address, amount: number of tokens Emits a {MintTokens} event with 'to' set to address and 'amount' set to amount of tokens. Requirements: - `amount` cannot be less than zero."
        }
      },
      "generateUTokensInBatch(address[],uint256[])": {
        "details": "Mint new utokens for the provided 'address' and 'amount' iin batch",
        "params": {
          "to": ": account address, amount: number of tokens Emits a {MintTokens} event with 'to' set to address and 'amount' set to amount of tokens. Requirements: - `amount` cannot be less than zero."
        }
      },
      "getFeesAndMinimumValues()": {
        "details": "get fees"
      },
      "getRoleAdmin(bytes32)": {
        "details": "Returns the admin role that controls `role`. See {grantRole} and {revokeRole}. To change a role's admin, use {_setRoleAdmin}."
      },
      "getRoleMember(bytes32,uint256)": {
        "details": "Returns one of the accounts that have `role`. `index` must be a value between 0 and {getRoleMemberCount}, non-inclusive. Role bearers are not sorted in any particular way, and their ordering may change at any point. WARNING: When using {getRoleMember} and {getRoleMemberCount}, make sure you perform all queries on the same block. See the following https://forum.openzeppelin.com/t/iterating-over-elements-on-enumerableset-in-openzeppelin-contracts/2296[forum post] for more information."
      },
      "getRoleMemberCount(bytes32)": {
        "details": "Returns the number of accounts that have `role`. Can be used together with {getRoleMember} to enumerate all bearers of a role."
      },
      "grantRole(bytes32,address)": {
        "details": "Grants `role` to `account`. If `account` had not been already granted `role`, emits a {RoleGranted} event. Requirements: - the caller must have ``role``'s admin role."
      },
      "hasRole(bytes32,address)": {
        "details": "Returns `true` if `account` has been granted `role`."
      },
      "pause()": {
        "details": "Triggers stopped state. Requirements: - The contract must not be paused."
      },
      "paused()": {
        "details": "Returns true if the contract is paused, and false otherwise."
      },
      "renounceRole(bytes32,address)": {
        "details": "Revokes `role` from the calling account. Roles are often managed via {grantRole} and {revokeRole}: this function's purpose is to provide a mechanism for accounts to lose their privileges if they are compromised (such as when a trusted device is misplaced). If the calling account had been granted `role`, emits a {RoleRevoked} event. Requirements: - the caller must be `account`."
      },
      "revokeRole(bytes32,address)": {
        "details": "Revokes `role` from `account`. If `account` had been granted `role`, emits a {RoleRevoked} event. Requirements: - the caller must have ``role``'s admin role."
      },
      "setFees(uint256,uint256)": {
        "details": "Set 'fees', called from admin",
        "params": {
          "withdrawFee": ": withdraw fee Emits a {SetFees} event with 'fee' set to the withdraw."
        }
      },
      "setMinimumValues(uint256,uint256)": {
        "details": "Set 'minimum values', called from admin",
        "params": {
          "minWithdraw": ": stake minimum value Emits a {SetMinimumValues} event with 'minimum value' set to withdraw."
        }
      },
      "setUTokensContract(address)": {
        "details": "Set UTokens smart contract. Emits a {SetContract} event."
      },
      "unpause()": {
        "details": "Returns to normal state. Requirements: - The contract must be paused."
      },
      "withdrawUTokens(address,uint256,string)": {
        "details": "Burn utokens for the provided 'address' and 'amount'",
        "params": {
          "from": ": account address, tokens: number of tokens, toAtomAddress: atom wallet address Emits a {BurnTokens} event with 'from' set to address and 'tokens' set to amount of tokens. Requirements: - `tokens` cannot be less than zero."
        }
      }
    },
    "version": 1
  },
  "userdoc": {
    "kind": "user",
    "methods": {},
    "version": 1
  }
}