{
  "contractName": "TokenWrapperV2",
  "abi": [
    {
      "anonymous": false,
      "inputs": [
        {
          "indexed": true,
          "internalType": "address",
          "name": "accountAddress",
          "type": "address"
        },
        {
          "indexed": true,
          "internalType": "uint256",
          "name": "tokens",
          "type": "uint256"
        },
        {
          "indexed": true,
          "internalType": "uint256",
          "name": "finalTokens",
          "type": "uint256"
        },
        {
          "indexed": false,
          "internalType": "uint256",
          "name": "timestamp",
          "type": "uint256"
        }
      ],
      "name": "GenerateUTokens",
      "type": "event"
    },
    {
      "anonymous": false,
      "inputs": [
        {
          "indexed": false,
          "internalType": "address[]",
          "name": "accountAddress",
          "type": "address[]"
        },
        {
          "indexed": false,
          "internalType": "uint256[]",
          "name": "tokens",
          "type": "uint256[]"
        },
        {
          "indexed": false,
          "internalType": "uint256[]",
          "name": "finalTokens",
          "type": "uint256[]"
        },
        {
          "indexed": false,
          "internalType": "uint256",
          "name": "timestamp",
          "type": "uint256"
        }
      ],
      "name": "GenerateUTokensInBatch",
      "type": "event"
    },
    {
      "anonymous": false,
      "inputs": [
        {
          "indexed": false,
          "internalType": "address",
          "name": "account",
          "type": "address"
        }
      ],
      "name": "Paused",
      "type": "event"
    },
    {
      "anonymous": false,
      "inputs": [
        {
          "indexed": true,
          "internalType": "bytes32",
          "name": "role",
          "type": "bytes32"
        },
        {
          "indexed": true,
          "internalType": "bytes32",
          "name": "previousAdminRole",
          "type": "bytes32"
        },
        {
          "indexed": true,
          "internalType": "bytes32",
          "name": "newAdminRole",
          "type": "bytes32"
        }
      ],
      "name": "RoleAdminChanged",
      "type": "event"
    },
    {
      "anonymous": false,
      "inputs": [
        {
          "indexed": true,
          "internalType": "bytes32",
          "name": "role",
          "type": "bytes32"
        },
        {
          "indexed": true,
          "internalType": "address",
          "name": "account",
          "type": "address"
        },
        {
          "indexed": true,
          "internalType": "address",
          "name": "sender",
          "type": "address"
        }
      ],
      "name": "RoleGranted",
      "type": "event"
    },
    {
      "anonymous": false,
      "inputs": [
        {
          "indexed": true,
          "internalType": "bytes32",
          "name": "role",
          "type": "bytes32"
        },
        {
          "indexed": true,
          "internalType": "address",
          "name": "account",
          "type": "address"
        },
        {
          "indexed": true,
          "internalType": "address",
          "name": "sender",
          "type": "address"
        }
      ],
      "name": "RoleRevoked",
      "type": "event"
    },
    {
      "anonymous": false,
      "inputs": [
        {
          "indexed": false,
          "internalType": "uint256",
          "name": "depositFee",
          "type": "uint256"
        },
        {
          "indexed": false,
          "internalType": "uint256",
          "name": "withdrawFee",
          "type": "uint256"
        }
      ],
      "name": "SetFees",
      "type": "event"
    },
    {
      "anonymous": false,
      "inputs": [
        {
          "indexed": false,
          "internalType": "uint256",
          "name": "minDeposit",
          "type": "uint256"
        },
        {
          "indexed": false,
          "internalType": "uint256",
          "name": "minWithdraw",
          "type": "uint256"
        }
      ],
      "name": "SetMinimumValues",
      "type": "event"
    },
    {
      "anonymous": false,
      "inputs": [
        {
          "indexed": true,
          "internalType": "address",
          "name": "_contract",
          "type": "address"
        }
      ],
      "name": "SetUTokensContract",
      "type": "event"
    },
    {
      "anonymous": false,
      "inputs": [
        {
          "indexed": false,
          "internalType": "address",
          "name": "account",
          "type": "address"
        }
      ],
      "name": "Unpaused",
      "type": "event"
    },
    {
      "anonymous": false,
      "inputs": [
        {
          "indexed": true,
          "internalType": "address",
          "name": "accountAddress",
          "type": "address"
        },
        {
          "indexed": true,
          "internalType": "uint256",
          "name": "tokens",
          "type": "uint256"
        },
        {
          "indexed": false,
          "internalType": "uint256",
          "name": "finalTokens",
          "type": "uint256"
        },
        {
          "indexed": false,
          "internalType": "string",
          "name": "toChainAddress",
          "type": "string"
        },
        {
          "indexed": false,
          "internalType": "uint256",
          "name": "timestamp",
          "type": "uint256"
        }
      ],
      "name": "WithdrawUTokens",
      "type": "event"
    },
    {
      "inputs": [],
      "name": "BRIDGE_ADMIN_ROLE",
      "outputs": [
        {
          "internalType": "bytes32",
          "name": "",
          "type": "bytes32"
        }
      ],
      "stateMutability": "view",
      "type": "function"
    },
    {
      "inputs": [],
      "name": "DEFAULT_ADMIN_ROLE",
      "outputs": [
        {
          "internalType": "bytes32",
          "name": "",
          "type": "bytes32"
        }
      ],
      "stateMutability": "view",
      "type": "function"
    },
    {
      "inputs": [],
      "name": "PAUSER_ROLE",
      "outputs": [
        {
          "internalType": "bytes32",
          "name": "",
          "type": "bytes32"
        }
      ],
      "stateMutability": "view",
      "type": "function"
    },
    {
      "inputs": [],
      "name": "_uTokens",
      "outputs": [
        {
          "internalType": "contract IUTokens",
          "name": "",
          "type": "address"
        }
      ],
      "stateMutability": "view",
      "type": "function"
    },
    {
      "inputs": [],
      "name": "_valueDivisor",
      "outputs": [
        {
          "internalType": "uint256",
          "name": "",
          "type": "uint256"
        }
      ],
      "stateMutability": "view",
      "type": "function"
    },
    {
      "inputs": [],
      "name": "controlDigitBytes",
      "outputs": [
        {
          "internalType": "bytes",
          "name": "",
          "type": "bytes"
        }
      ],
      "stateMutability": "view",
      "type": "function"
    },
    {
      "inputs": [],
      "name": "dataBytesSize",
      "outputs": [
        {
          "internalType": "uint256",
          "name": "",
          "type": "uint256"
        }
      ],
      "stateMutability": "view",
      "type": "function"
    },
    {
      "inputs": [
        {
          "internalType": "bytes32",
          "name": "role",
          "type": "bytes32"
        }
      ],
      "name": "getRoleAdmin",
      "outputs": [
        {
          "internalType": "bytes32",
          "name": "",
          "type": "bytes32"
        }
      ],
      "stateMutability": "view",
      "type": "function"
    },
    {
      "inputs": [
        {
          "internalType": "bytes32",
          "name": "role",
          "type": "bytes32"
        },
        {
          "internalType": "uint256",
          "name": "index",
          "type": "uint256"
        }
      ],
      "name": "getRoleMember",
      "outputs": [
        {
          "internalType": "address",
          "name": "",
          "type": "address"
        }
      ],
      "stateMutability": "view",
      "type": "function"
    },
    {
      "inputs": [
        {
          "internalType": "bytes32",
          "name": "role",
          "type": "bytes32"
        }
      ],
      "name": "getRoleMemberCount",
      "outputs": [
        {
          "internalType": "uint256",
          "name": "",
          "type": "uint256"
        }
      ],
      "stateMutability": "view",
      "type": "function"
    },
    {
      "inputs": [
        {
          "internalType": "bytes32",
          "name": "role",
          "type": "bytes32"
        },
        {
          "internalType": "address",
          "name": "account",
          "type": "address"
        }
      ],
      "name": "grantRole",
      "outputs": [],
      "stateMutability": "nonpayable",
      "type": "function"
    },
    {
      "inputs": [
        {
          "internalType": "bytes32",
          "name": "role",
          "type": "bytes32"
        },
        {
          "internalType": "address",
          "name": "account",
          "type": "address"
        }
      ],
      "name": "hasRole",
      "outputs": [
        {
          "internalType": "bool",
          "name": "",
          "type": "bool"
        }
      ],
      "stateMutability": "view",
      "type": "function"
    },
    {
      "inputs": [],
      "name": "hrpBytes",
      "outputs": [
        {
          "internalType": "bytes",
          "name": "",
          "type": "bytes"
        }
      ],
      "stateMutability": "view",
      "type": "function"
    },
    {
      "inputs": [],
      "name": "paused",
      "outputs": [
        {
          "internalType": "bool",
          "name": "",
          "type": "bool"
        }
      ],
      "stateMutability": "view",
      "type": "function"
    },
    {
      "inputs": [
        {
          "internalType": "bytes32",
          "name": "role",
          "type": "bytes32"
        },
        {
          "internalType": "address",
          "name": "account",
          "type": "address"
        }
      ],
      "name": "renounceRole",
      "outputs": [],
      "stateMutability": "nonpayable",
      "type": "function"
    },
    {
      "inputs": [
        {
          "internalType": "bytes32",
          "name": "role",
          "type": "bytes32"
        },
        {
          "internalType": "address",
          "name": "account",
          "type": "address"
        }
      ],
      "name": "revokeRole",
      "outputs": [],
      "stateMutability": "nonpayable",
      "type": "function"
    },
    {
      "inputs": [
        {
          "internalType": "address",
          "name": "uAddress",
          "type": "address"
        },
        {
          "internalType": "address",
          "name": "bridgeAdminAddress",
          "type": "address"
        },
        {
          "internalType": "address",
          "name": "pauserAddress",
          "type": "address"
        },
        {
          "internalType": "uint256",
          "name": "valueDivisor",
          "type": "uint256"
        }
      ],
      "name": "initialize",
      "outputs": [],
      "stateMutability": "nonpayable",
      "type": "function"
    },
    {
      "inputs": [
        {
          "internalType": "uint256",
          "name": "depositFee",
          "type": "uint256"
        },
        {
          "internalType": "uint256",
          "name": "withdrawFee",
          "type": "uint256"
        }
      ],
      "name": "setFees",
      "outputs": [
        {
          "internalType": "bool",
          "name": "success",
          "type": "bool"
        }
      ],
      "stateMutability": "nonpayable",
      "type": "function"
    },
    {
      "inputs": [],
      "name": "getProps",
      "outputs": [
        {
          "internalType": "uint256",
          "name": "depositFee",
          "type": "uint256"
        },
        {
          "internalType": "uint256",
          "name": "withdrawFee",
          "type": "uint256"
        },
        {
          "internalType": "uint256",
          "name": "minDeposit",
          "type": "uint256"
        },
        {
          "internalType": "uint256",
          "name": "minWithdraw",
          "type": "uint256"
        },
        {
          "internalType": "uint256",
          "name": "valueDivisor",
          "type": "uint256"
        }
      ],
      "stateMutability": "view",
      "type": "function"
    },
    {
      "inputs": [
        {
          "internalType": "uint256",
          "name": "minDeposit",
          "type": "uint256"
        },
        {
          "internalType": "uint256",
          "name": "minWithdraw",
          "type": "uint256"
        }
      ],
      "name": "setMinimumValues",
      "outputs": [
        {
          "internalType": "bool",
          "name": "success",
          "type": "bool"
        }
      ],
      "stateMutability": "nonpayable",
      "type": "function"
    },
    {
      "inputs": [
        {
          "internalType": "address",
          "name": "uAddress",
          "type": "address"
        }
      ],
      "name": "setUTokensContract",
      "outputs": [],
      "stateMutability": "nonpayable",
      "type": "function"
    },
    {
      "inputs": [],
      "name": "pause",
      "outputs": [
        {
          "internalType": "bool",
          "name": "success",
          "type": "bool"
        }
      ],
      "stateMutability": "nonpayable",
      "type": "function"
    },
    {
      "inputs": [],
      "name": "unpause",
      "outputs": [
        {
          "internalType": "bool",
          "name": "success",
          "type": "bool"
        }
      ],
      "stateMutability": "nonpayable",
      "type": "function"
    },
    {
      "inputs": [
        {
          "internalType": "address",
          "name": "to",
          "type": "address"
        },
        {
          "internalType": "uint256",
          "name": "amount",
          "type": "uint256"
        }
      ],
      "name": "generateUTokens",
      "outputs": [],
      "stateMutability": "nonpayable",
      "type": "function"
    },
    {
      "inputs": [
        {
          "internalType": "address[]",
          "name": "to",
          "type": "address[]"
        },
        {
          "internalType": "uint256[]",
          "name": "amount",
          "type": "uint256[]"
        }
      ],
      "name": "generateUTokensInBatch",
      "outputs": [],
      "stateMutability": "nonpayable",
      "type": "function"
    },
    {
      "inputs": [
        {
          "internalType": "string",
          "name": "toChainAddress",
          "type": "string"
        }
      ],
      "name": "isBech32Valid",
      "outputs": [
        {
          "internalType": "bool",
          "name": "isAddressValid",
          "type": "bool"
        }
      ],
      "stateMutability": "view",
      "type": "function"
    },
    {
      "inputs": [
        {
          "internalType": "address",
          "name": "from",
          "type": "address"
        },
        {
          "internalType": "uint256",
          "name": "tokens",
          "type": "uint256"
        },
        {
          "internalType": "string",
          "name": "toChainAddress",
          "type": "string"
        }
      ],
      "name": "withdrawUTokens",
      "outputs": [],
      "stateMutability": "nonpayable",
      "type": "function"
    }
  ],
  "bytecode": "0x608060405234801561001057600080fd5b50612da6806100206000396000f3fe608060405234801561001057600080fd5b50600436106101a95760003560e01c80638456cb59116100f9578063cf756fdf11610097578063e3ac914b11610071578063e3ac914b146105ed578063e63ab1e9146105f5578063e7fa0a32146105fd578063ec1893b414610720576101a9565b8063cf756fdf1461057d578063d37f5598146105b9578063d547741f146105c1576101a9565b806391d14854116100d357806391d14854146104af578063a217fddf146104db578063a53dcd72146104e3578063ca15c87314610560576101a9565b80638456cb59146103e05780638f001d4e146103e85780639010d07c1461048c576101a9565b806336568abe1161016657806351db00e71161014057806351db00e7146103895780635c975abb146103ac578063728a99ee146103b457806378a2f074146103bc576101a9565b806336568abe1461029c5780633f4ba83a146102c8578063428bee9e146102d0576101a9565b80630b78f9c0146101ae578063118c38c7146101e557806321bdf9e5146101ff57806322dd9bc314610227578063248a9ca3146102535780632f2ff15d14610270575b600080fd5b6101d1600480360360408110156101c457600080fd5b5080359060200135610753565b604080519115158252519081900360200190f35b6101ed61085e565b60408051918252519081900360200190f35b6102256004803603602081101561021557600080fd5b50356001600160a01b0316610870565b005b6102256004803603604081101561023d57600080fd5b506001600160a01b0381351690602001356108fe565b6101ed6004803603602081101561026957600080fd5b5035610a32565b6102256004803603604081101561028657600080fd5b50803590602001356001600160a01b0316610a4a565b610225600480360360408110156102b257600080fd5b50803590602001356001600160a01b0316610ab1565b6101d1610b12565b610225600480360360608110156102e657600080fd5b6001600160a01b0382351691602081013591810190606081016040820135600160201b81111561031557600080fd5b82018360208201111561032757600080fd5b803590602001918460018302840111600160201b8311171561034857600080fd5b91908080601f016020809104026020016040519081016040528093929190818152602001838380828437600092019190915250929550610b73945050505050565b6101d16004803603604081101561039f57600080fd5b5080359060200135610ff9565b6101d1611104565b6101ed61110d565b6103c4611113565b604080516001600160a01b039092168252519081900360200190f35b6101d1611122565b6101d1600480360360208110156103fe57600080fd5b810190602081018135600160201b81111561041857600080fd5b82018360208201111561042a57600080fd5b803590602001918460018302840111600160201b8311171561044b57600080fd5b91908080601f01602080910402602001604051908101604052809392919081815260200183838082843760009201919091525092955061117d945050505050565b6103c4600480360360408110156104a257600080fd5b50803590602001356111e1565b6101d1600480360360408110156104c557600080fd5b50803590602001356001600160a01b0316611200565b6101ed611218565b6104eb61121d565b6040805160208082528351818301528351919283929083019185019080838360005b8381101561052557818101518382015260200161050d565b50505050905090810190601f1680156105525780820380516001836020036101000a031916815260200191505b509250505060405180910390f35b6101ed6004803603602081101561057657600080fd5b50356112ab565b6102256004803603608081101561059357600080fd5b506001600160a01b038135811691602081013582169160408201351690606001356112c2565b6104eb611430565b610225600480360360408110156105d757600080fd5b50803590602001356001600160a01b031661148b565b6101ed6114e4565b6101ed6114ea565b6102256004803603604081101561061357600080fd5b810190602081018135600160201b81111561062d57600080fd5b82018360208201111561063f57600080fd5b803590602001918460208302840111600160201b8311171561066057600080fd5b9190808060200260200160405190810160405280939291908181526020018383602002808284376000920191909152509295949360208101935035915050600160201b8111156106af57600080fd5b8201836020820111156106c157600080fd5b803590602001918460208302840111600160201b831117156106e257600080fd5b9190808060200260200160405190810160405280939291908181526020018383602002808284376000920191909152509295506114fc945050505050565b6107286117f0565b6040805195865260208601949094528484019290925260608401526080830152519081900360a00190f35b60006107668161076161180a565b611200565b61079d576040805162461bcd60e51b815260206004820152600360248201526254573160e81b604482015290519081900360640190fd5b609c546107ab90606461180e565b831115806107b7575082155b80156107d85750609c546107cc90606461180e565b821115806107d8575081155b61080f576040805162461bcd60e51b81526020600482015260036024820152622a2b9960e91b604482015290519081900360640190fd5b609a839055609b829055604080518481526020810184905281517f3be6e637f54f081a2dd12982cfd58481304fc98b604b18fa8ed4aa4e4a9d1532929181900390910190a15060015b92915050565b600080516020612d0283398151915281565b61087d600061076161180a565b6108b4576040805162461bcd60e51b81526020600482015260036024820152622a2b9b60e91b604482015290519081900360640190fd5b609780546001600160a01b0319166001600160a01b0383169081179091556040517ff745c285f36f88bea6af14d4d0f33dd9350cef7895216c1615b1caaee7857e0c90600090a250565b610906611104565b1561094b576040805162461bcd60e51b815260206004820152601060248201526f14185d5cd8589b194e881c185d5cd95960821b604482015290519081900360640190fd5b609854811015610988576040805162461bcd60e51b815260206004820152600360248201526254573960e81b604482015290519081900360640190fd5b6109a2600080516020612d0283398151915261076161180a565b6109dc576040805162461bcd60e51b815260206004808301919091526024820152630545731360e41b604482015290519081900360640190fd5b60006109e88383611867565b90508082846001600160a01b03167f572f067f64ae57ed816b7e9b5424a87d97035d68384f149586cba42b4192c9d8426040518082815260200191505060405180910390a4505050565b6000818152606560205260409020600201545b919050565b600082815260656020526040902060020154610a689061076161180a565b610aa35760405162461bcd60e51b815260040180806020018281038252602f815260200180612c34602f913960400191505060405180910390fd5b610aad828261191f565b5050565b610ab961180a565b6001600160a01b0316816001600160a01b031614610b085760405162461bcd60e51b815260040180806020018281038252602f815260200180612d22602f913960400191505060405180910390fd5b610aad8282611988565b6000610b2e600080516020612ce283398151915261076161180a565b610b65576040805162461bcd60e51b81526020600482015260036024820152620a8ae760eb1b604482015290519081900360640190fd5b610b6d6119f1565b50600190565b610b7b611104565b15610bc0576040805162461bcd60e51b815260206004820152601060248201526f14185d5cd8589b194e881c185d5cd95960821b604482015290519081900360640190fd5b609954821015610c00576040805162461bcd60e51b815260206004808301919091526024820152631515cc4d60e21b604482015290519081900360640190fd5b609d805460408051602060026001851615610100026000190190941693909304601f8101849004840282018401909252818152600093610d2f9391929091830182828015610c8f5780601f10610c6457610100808354040283529160200191610c8f565b820191906000526020600020905b815481529060010190602001808311610c7257829003601f168201915b5050609e8054604080516020601f6002600019610100600188161502019095169490940493840181900481028201810190925282815295509193509150830182828015610d1d5780601f10610cf257610100808354040283529160200191610d1d565b820191906000526020600020905b815481529060010190602001808311610d0057829003601f168201915b5050609f548895949350915050611a91565b9050600181151514610d71576040805162461bcd60e51b815260206004808301919091526024820152635457313560e01b604482015290519081900360640190fd5b609754604080516370a0823160e01b81526001600160a01b038781166004830152915160009392909216916370a0823191602480820192602092909190829003018186803b158015610dc257600080fd5b505afa158015610dd6573d6000803e3d6000fd5b505050506040513d6020811015610dec57600080fd5b5051609b54609c54919250600091610e1291606491610e0c918991611ba8565b90611c61565b90506000610e208683611cc8565b905080831015610e60576040805162461bcd60e51b815260206004808301919091526024820152632a2b989b60e11b604482015290519081900360640190fd5b610e6861180a565b6001600160a01b0316876001600160a01b031614610eb6576040805162461bcd60e51b815260206004808301919091526024820152635457313760e01b604482015290519081900360640190fd5b60975460408051632770a7eb60e21b81526001600160a01b038a811660048301526024820185905291519190921691639dc29fac9160448083019260209291908290030181600087803b158015610f0c57600080fd5b505af1158015610f20573d6000803e3d6000fd5b505050506040513d6020811015610f3657600080fd5b505060408051828152429181018290526060602082810182815289519284019290925288518a946001600160a01b038d16947f0f4363f6961ed151f2cf8f720784b70c0f5573f216fc939f67f2a5d12698e02e9488948d94608084019186019080838360005b83811015610fb4578181015183820152602001610f9c565b50505050905090810190601f168015610fe15780820380516001836020036101000a031916815260200191505b5094505050505060405180910390a350505050505050565b60006110078161076161180a565b61103e576040805162461bcd60e51b815260206004820152600360248201526254573360e81b604482015290519081900360640190fd5b600183101561107a576040805162461bcd60e51b81526020600482015260036024820152621515cd60ea1b604482015290519081900360640190fd5b60018210156110b6576040805162461bcd60e51b815260206004820152600360248201526254573560e81b604482015290519081900360640190fd5b60988390556099829055604080518481526020810184905281517fa94d40347449ea19b873d64ed55c99772194c49791e82be5c2dc24e4c0044fe3929181900390910190a150600192915050565b60335460ff1690565b609c5481565b6097546001600160a01b031681565b600061113e600080516020612ce283398151915261076161180a565b611175576040805162461bcd60e51b815260206004820152600360248201526254573760e81b604482015290519081900360640190fd5b610b6d611d22565b609d805460408051602060026001851615610100026000190190941693909304601f81018490048402820184019092528181526000936108589391929091830182828015610c8f5780601f10610c6457610100808354040283529160200191610c8f565b60008281526065602052604081206111f99083611da5565b9392505050565b60008281526065602052604081206111f99083611db1565b600081565b609e805460408051602060026001851615610100026000190190941693909304601f810184900484028201840190925281815292918301828280156112a35780601f10611278576101008083540402835291602001916112a3565b820191906000526020600020905b81548152906001019060200180831161128657829003601f168201915b505050505081565b600081815260656020526040812061085890611dc6565b600054610100900460ff16806112db57506112db611dd1565b806112e9575060005460ff16155b6113245760405162461bcd60e51b815260040180806020018281038252602e815260200180612c93602e913960400191505060405180910390fd5b600054610100900460ff1615801561134f576000805460ff1961ff0019909116610100171660011790555b611357611de2565b61135f611e94565b611371600061136c61180a565b610aa3565b611389600080516020612d0283398151915285610aa3565b6113a1600080516020612ce283398151915284610aa3565b6113aa85610870565b6113b5600180610ff9565b50609c82905560408051808201909152600680825265636f736d6f7360d01b60209092019182526113e891609d91612b70565b50604080518082019091526001808252603160f81b602090920191825261141191609e91612b70565b506026609f558015611429576000805461ff00191690555b5050505050565b609d805460408051602060026001851615610100026000190190941693909304601f810184900484028201840190925281815292918301828280156112a35780601f10611278576101008083540402835291602001916112a3565b6000828152606560205260409020600201546114a99061076161180a565b610b085760405162461bcd60e51b8152600401808060200182810382526030815260200180612c636030913960400191505060405180910390fd5b609f5481565b600080516020612ce283398151915281565b611504611104565b15611549576040805162461bcd60e51b815260206004820152601060248201526f14185d5cd8589b194e881c185d5cd95960821b604482015290519081900360640190fd5b8051825114611588576040805162461bcd60e51b815260206004808301919091526024820152635457313160e01b604482015290519081900360640190fd5b6115a2600080516020612d0283398151915261076161180a565b6115dc576040805162461bcd60e51b815260206004808301919091526024820152632a2b989960e11b604482015290519081900360640190fd5b600080835167ffffffffffffffff811180156115f757600080fd5b50604051908082528060200260200182016040528015611621578160200160208202803683370190505b508451600093509091505b808310156116e05760985484848151811061164357fe5b60200260200101511015611687576040805162461bcd60e51b815260206004808301919091526024820152635457313360e01b604482015290519081900360640190fd5b6116b785848151811061169657fe5b60200260200101518585815181106116aa57fe5b6020026020010151611867565b8284815181106116c357fe5b60209081029190910101526116d9836001611cc8565b925061162c565b7fff03029439b5b79825ca34bca1b453f01e01935bdde5210a8af22f19705ca1a38585844260405180806020018060200180602001858152602001848103845288818151815260200191508051906020019060200280838360005b8381101561175357818101518382015260200161173b565b50505050905001848103835287818151815260200191508051906020019060200280838360005b8381101561179257818101518382015260200161177a565b50505050905001848103825286818151815260200191508051906020019060200280838360005b838110156117d15781810151838201526020016117b9565b5050505090500197505050505050505060405180910390a15050505050565b609a54609b54609854609954609c54939492939192909190565b3390565b60008261181d57506000610858565b8282028284828161182a57fe5b04146111f95760405162461bcd60e51b8152600401808060200182810382526021815260200180612cc16021913960400191505060405180910390fd5b6000806118886064610e0c609a54609c5487611ba89092919063ffffffff16565b90506118948382611f31565b609754604080516340c10f1960e01b81526001600160a01b0388811660048301526024820185905291519395509116916340c10f19916044808201926020929091908290030181600087803b1580156118ec57600080fd5b505af1158015611900573d6000803e3d6000fd5b505050506040513d602081101561191657600080fd5b50505092915050565b60008281526065602052604090206119379082611f8e565b15610aad5761194461180a565b6001600160a01b0316816001600160a01b0316837f2f8788117e7eff1d82e926ec794901d17c78024a50270940304540a733656f0d60405160405180910390a45050565b60008281526065602052604090206119a09082611fa3565b15610aad576119ad61180a565b6001600160a01b0316816001600160a01b0316837ff6391f5c32d9c69d2a47ea670b442974b53935d1edc7fd64eb21e047a839171b60405160405180910390a45050565b6119f9611104565b611a41576040805162461bcd60e51b815260206004820152601460248201527314185d5cd8589b194e881b9bdd081c185d5cd95960621b604482015290519081900360640190fd5b6033805460ff191690557f5db9ee0a495bf2e6ff9c91a7834c1ba4fdd244a5e8aa4e537bd38aeae4b073aa611a7461180a565b604080516001600160a01b039092168252519081900360200190a1565b825160009085908290611aa79083908390611fb8565b9050611ab381876120c1565b611ac257600092505050611ba0565b8051600090611ad49084906001611fb8565b9050611ae081876120c1565b611af05760009350505050611ba0565b6000611b128351600101600185518751030386611fb89092919063ffffffff16565b905085815114611b29576000945050505050611ba0565b82518451600091611b4591879160018101910360061901611fb8565b90506000611b5282612125565b9050805160001415611b6d5760009650505050505050611ba0565b6000611b7886612280565b90506000611b868284612315565b90506000611b9486836120c1565b99505050505050505050505b949350505050565b6000806000611bb786866123fa565b9150915060008480611bc557fe5b868809905082811115611bd9576001820391505b918290039181611bf757848381611bec57fe5b0493505050506111f9565b848210611c4b576040805162461bcd60e51b815260206004820152601a60248201527f46756c6c4d6174683a2046554c4c4449565f4f564552464c4f57000000000000604482015290519081900360640190fd5b611c56838387612427565b979650505050505050565b6000808211611cb7576040805162461bcd60e51b815260206004820152601a60248201527f536166654d6174683a206469766973696f6e206279207a65726f000000000000604482015290519081900360640190fd5b818381611cc057fe5b049392505050565b6000828201838110156111f9576040805162461bcd60e51b815260206004820152601b60248201527f536166654d6174683a206164646974696f6e206f766572666c6f770000000000604482015290519081900360640190fd5b611d2a611104565b15611d6f576040805162461bcd60e51b815260206004820152601060248201526f14185d5cd8589b194e881c185d5cd95960821b604482015290519081900360640190fd5b6033805460ff191660011790557f62e78cea01bee320cd4e420270b5ea74000d11b0c9f74754ebdbfc544b05a258611a7461180a565b60006111f98383612497565b60006111f9836001600160a01b0384166124fb565b600061085882612513565b6000611ddc30612517565b15905090565b600054610100900460ff1680611dfb5750611dfb611dd1565b80611e09575060005460ff16155b611e445760405162461bcd60e51b815260040180806020018281038252602e815260200180612c93602e913960400191505060405180910390fd5b600054610100900460ff16158015611e6f576000805460ff1961ff0019909116610100171660011790555b611e7761251d565b611e7f61251d565b8015611e91576000805461ff00191690555b50565b600054610100900460ff1680611ead5750611ead611dd1565b80611ebb575060005460ff16155b611ef65760405162461bcd60e51b815260040180806020018281038252602e815260200180612c93602e913960400191505060405180910390fd5b600054610100900460ff16158015611f21576000805460ff1961ff0019909116610100171660011790555b611f2961251d565b611e7f6125bd565b600082821115611f88576040805162461bcd60e51b815260206004820152601e60248201527f536166654d6174683a207375627472616374696f6e206f766572666c6f770000604482015290519081900360640190fd5b50900390565b60006111f9836001600160a01b038416612668565b60006111f9836001600160a01b0384166126b2565b60608182601f011015612003576040805162461bcd60e51b815260206004820152600e60248201526d736c6963655f6f766572666c6f7760901b604482015290519081900360640190fd5b8183018451101561204f576040805162461bcd60e51b8152602060048201526011602482015270736c6963655f6f75744f66426f756e647360781b604482015290519081900360640190fd5b60608215801561206e57604051915060008252602082016040526120b8565b6040519150601f8416801560200281840101858101878315602002848b0101015b818310156120a757805183526020928301920161208f565b5050858452601f01601f1916604052505b50949350505050565b8151815160009160019181148083146120dd576000925061211b565b600160208701838101602088015b60028483851001141561211657805183511461210a5760009650600093505b602092830192016120eb565b505050505b5090949350505050565b6060815167ffffffffffffffff8111801561213f57600080fd5b50604051908082528060200260200182016040528015612169578160200160208202803683370190505b50905060606000805b845181101561227857600091505b604051806040016040528060208152602001600080516020612d518339815191528152505182101561222157604051806040016040528060208152602001600080516020612d5183398151915281525082815181106121db57fe5b602001015160f81c60f81b6001600160f81b0319168582815181106121fc57fe5b01602001516001600160f81b031916141561221657612221565b600190910190612180565b604051806040016040528060208152602001600080516020612d518339815191528152505182141561225857829350505050610a45565b8184828151811061226557fe5b6020908102919091010152600101612172565b505050919050565b6060815167ffffffffffffffff8111801561229a57600080fd5b506040519080825280602002602001820160405280156122c4578160200160208202803683370190505b50905060005b825181101561230f578281815181106122df57fe5b602001015160f81c60f81b60f81c60ff168282815181106122fc57fe5b60209081029190910101526001016122ca565b50919050565b6060600061232c836123278686612778565b612815565b90506000815167ffffffffffffffff8111801561234857600080fd5b506040519080825280601f01601f191660200182016040528015612373576020820181803683370190505b50905060005b82518110156120b857604051806040016040528060208152602001600080516020612d518339815191528152508382815181106123b257fe5b6020026020010151815181106123c457fe5b602001015160f81c60f81b8282815181106123db57fe5b60200101906001600160f81b031916908160001a905350600101612379565b600080806000198486099050838502925082810391508281101561241f576001820391505b509250929050565b6000818103821680838161243757fe5b04925080858161244357fe5b04945080816000038161245257fe5b60028581038087028203028087028203028087028203028087028203028087028203028087028203029586029003909402930460010193909302939093010292915050565b815460009082106124d95760405162461bcd60e51b8152600401808060200182810382526022815260200180612c126022913960400191505060405180910390fd5b8260000182815481106124e857fe5b9060005260206000200154905092915050565b60009081526001919091016020526040902054151590565b5490565b3b151590565b600054610100900460ff16806125365750612536611dd1565b80612544575060005460ff16155b61257f5760405162461bcd60e51b815260040180806020018281038252602e815260200180612c93602e913960400191505060405180910390fd5b600054610100900460ff16158015611e7f576000805460ff1961ff0019909116610100171660011790558015611e91576000805461ff001916905550565b600054610100900460ff16806125d657506125d6611dd1565b806125e4575060005460ff16155b61261f5760405162461bcd60e51b815260040180806020018281038252602e815260200180612c93602e913960400191505060405180910390fd5b600054610100900460ff1615801561264a576000805460ff1961ff0019909116610100171660011790555b6033805460ff191690558015611e91576000805461ff001916905550565b600061267483836124fb565b6126aa57508154600181810184556000848152602080822090930184905584548482528286019093526040902091909155610858565b506000610858565b6000818152600183016020526040812054801561276e57835460001980830191908101906000908790839081106126e557fe5b906000526020600020015490508087600001848154811061270257fe5b60009182526020808320909101929092558281526001898101909252604090209084019055865487908061273257fe5b60019003818190600052602060002001600090559055866001016000878152602001908152602001600020600090556001945050505050610858565b6000915050610858565b6060600061279a61279161278b866128e8565b85612815565b600060066129e5565b905060006127a782612aab565b60408051600680825260e082019092526001929092189250600091906020820160c08036833701905050905060005b600681101561280b578060050360050283901c601f168282815181106127f857fe5b60209081029190910101526001016127d6565b5095945050505050565b60606000825184510167ffffffffffffffff8111801561283457600080fd5b5060405190808252806020026020018201604052801561285e578160200160208202803683370190505b50905060005b84518110156128a05784818151811061287957fe5b602002602001015182828151811061288d57fe5b6020908102919091010152600101612864565b60005b845181101561211b5784516001820191869181106128bd57fe5b60200260200101518383806001019450815181106128d757fe5b6020026020010181815250506128a3565b60606000825183510160010167ffffffffffffffff8111801561290a57600080fd5b50604051908082528060200260200182016040528015612934578160200160208202803683370190505b50905060005b835181101561297a57600584828151811061295157fe5b6020026020010151901c82828151811061296757fe5b602090810291909101015260010161293a565b5060008184518151811061298a57fe5b60200260200101818152505060005b83518110156129de578381815181106129ae57fe5b6020026020010151601f168285518301600101815181106129cb57fe5b6020908102919091010152600101612999565b5092915050565b606060008285510167ffffffffffffffff81118015612a0357600080fd5b50604051908082528060200260200182016040528015612a2d578160200160208202803683370190505b50905060005b8551811015612a6f57858181518110612a4857fe5b6020026020010151828281518110612a5c57fe5b6020908102919091010152600101612a33565b60005b84811015612aa05785838380600101945081518110612a8d57fe5b6020908102919091010152600101612a72565b509095945050505050565b6040805160a081018252633b6a57b281526326508e6d6020820152631ea119fa91810191909152633d4233dd6060820152632a1462b360808201526000906001825b8451811015612b68576000601983901c9050858281518110612b0b57fe5b60200260200101516005846301ffffff16901b18925060005b6005811015612b5e57600182821c81161415612b5657848160058110612b4657fe5b602002015163ffffffff16841893505b600101612b24565b5050600101612aed565b509392505050565b828054600181600116156101000203166002900490600052602060002090601f016020900481019282612ba65760008555612bec565b82601f10612bbf57805160ff1916838001178555612bec565b82800160010185558215612bec579182015b82811115612bec578251825591602001919060010190612bd1565b50612bf8929150612bfc565b5090565b5b80821115612bf85760008155600101612bfd56fe456e756d657261626c655365743a20696e646578206f7574206f6620626f756e6473416363657373436f6e74726f6c3a2073656e646572206d75737420626520616e2061646d696e20746f206772616e74416363657373436f6e74726f6c3a2073656e646572206d75737420626520616e2061646d696e20746f207265766f6b65496e697469616c697a61626c653a20636f6e747261637420697320616c726561647920696e697469616c697a6564536166654d6174683a206d756c7469706c69636174696f6e206f766572666c6f7765d7a28e3265b37a6474929f336521b332c1681b933f6cb9f3376673440d862a751b795d24b92e3d92d1d0d8f2885f4e9c9c269da350af36ae6b49069babf4bf416363657373436f6e74726f6c3a2063616e206f6e6c792072656e6f756e636520726f6c657320666f722073656c6671707a7279397838676632747664773073336a6e35346b686365366d7561376ca2646970667358221220bf74ea449c6442aab5599916a99bbd3f426478db37b9e531dc7c2b60fec4d20764736f6c63430007060033",
  "immutableReferences": {},
  "source": "// SPDX-License-Identifier: UNLICENSED\npragma solidity >=0.7.0;\n\nimport \"@openzeppelin/contracts-upgradeable/math/SafeMathUpgradeable.sol\";\nimport \"@openzeppelin/contracts-upgradeable/utils/PausableUpgradeable.sol\";\nimport \"@openzeppelin/contracts-upgradeable/access/AccessControlUpgradeable.sol\";\nimport \"./interfaces/IUTokens.sol\";\nimport \"./interfaces/ITokenWrapper.sol\";\nimport \"./libraries/Bech32.sol\";\nimport \"./libraries/FullMath.sol\";\n\ncontract TokenWrapperV2 is\n\tITokenWrapper,\n\tPausableUpgradeable,\n\tAccessControlUpgradeable\n{\n\tusing SafeMathUpgradeable for uint256;\n\tusing FullMath for uint256;\n\tusing Bech32 for string;\n\n\t//Private instances of contracts to handle Utokens and Stokens\n\tIUTokens public _uTokens;\n\n\t// defining the fees and minimum values\n\tuint256 private _minDeposit;\n\tuint256 private _minWithdraw;\n\tuint256 private _depositFee;\n\tuint256 private _withdrawFee;\n\tuint256 public _valueDivisor;\n\n\t// constants defining access control ROLES\n\tbytes32 public constant BRIDGE_ADMIN_ROLE = keccak256(\"BRIDGE_ADMIN_ROLE\");\n\tbytes32 public constant PAUSER_ROLE = keccak256(\"PAUSER_ROLE\");\n\n\t//variables defining bech32 validation attributes\n\tbytes public hrpBytes;\n\tbytes public controlDigitBytes;\n\tuint256 public dataBytesSize;\n\n\t// variable pertaining to contract upgrades versioning\n\tuint256 private _version;\n\n\t/*\n\t * @dev Constructor for initializing the TokenWrapper contract.\n\t * @param uAddress - address of the UToken contract.\n\t * @param bridgeAdminAddress - address of the bridge admin.\n\t * @param pauserAddress - address of the pauser admin.\n\t * @param valueDivisor - valueDivisor set to 10^9.\n\t */\n\tfunction initialize(\n\t\taddress uAddress,\n\t\taddress bridgeAdminAddress,\n\t\taddress pauserAddress,\n\t\tuint256 valueDivisor\n\t) public virtual initializer {\n\t\t__AccessControl_init();\n\t\t__Pausable_init();\n\t\t_setupRole(DEFAULT_ADMIN_ROLE, _msgSender());\n\t\t_setupRole(BRIDGE_ADMIN_ROLE, bridgeAdminAddress);\n\t\t_setupRole(PAUSER_ROLE, pauserAddress);\n\t\tsetUTokensContract(uAddress);\n\t\tsetMinimumValues(1, 1);\n\t\t_valueDivisor = valueDivisor;\n\t\t// setting bech32 validation attributes\n\t\thrpBytes = \"cosmos\";\n\t\tcontrolDigitBytes = \"1\";\n\t\tdataBytesSize = 38;\n\t}\n\n\t/**\n\t * @dev Set 'fees', called from admin\n\t * @param withdrawFee: withdraw fee\n\t * @param depositFee: deposit fee\n\t *\n\t * Emits a {SetFees} event with 'fee' set to the withdraw.\n\t *\n\t */\n\tfunction setFees(uint256 depositFee, uint256 withdrawFee)\n\t\tpublic\n\t\tvirtual\n\t\treturns (bool success)\n\t{\n\t\trequire(hasRole(DEFAULT_ADMIN_ROLE, _msgSender()), \"TW1\");\n\t\t// range checks for fees. Since fee cannot be more than 100%, the max cap\n\t\t// is _valueDivisor * 100, which then brings the fees to 100 (percentage)\n\t\trequire(\n\t\t\t(depositFee <= _valueDivisor.mul(100) || depositFee == 0) &&\n\t\t\t\t(withdrawFee <= _valueDivisor.mul(100) || withdrawFee == 0),\n\t\t\t\"TW2\"\n\t\t);\n\t\t_depositFee = depositFee;\n\t\t_withdrawFee = withdrawFee;\n\t\temit SetFees(depositFee, withdrawFee);\n\t\treturn true;\n\t}\n\n\t/**\n\t * @dev get fees, minimum set values and value divisor\n\t *\n\t */\n\tfunction getProps()\n\t\tpublic\n\t\tview\n\t\tvirtual\n\t\treturns (\n\t\t\tuint256 depositFee,\n\t\t\tuint256 withdrawFee,\n\t\t\tuint256 minDeposit,\n\t\t\tuint256 minWithdraw,\n\t\t\tuint256 valueDivisor\n\t\t)\n\t{\n\t\tdepositFee = _depositFee;\n\t\twithdrawFee = _withdrawFee;\n\t\tminDeposit = _minDeposit;\n\t\tminWithdraw = _minWithdraw;\n\t\tvalueDivisor = _valueDivisor;\n\t}\n\n\t/**\n\t * @dev Set 'minimum values', called from admin\n\t * @param minDeposit: deposit minimum value\n\t * @param minWithdraw: withdraw minimum value\n\t *\n\t * Emits a {SetMinimumValues} event with 'minimum value' set to withdraw.\n\t *\n\t */\n\tfunction setMinimumValues(uint256 minDeposit, uint256 minWithdraw)\n\t\tpublic\n\t\tvirtual\n\t\treturns (bool success)\n\t{\n\t\trequire(hasRole(DEFAULT_ADMIN_ROLE, _msgSender()), \"TW3\");\n\t\trequire(minDeposit >= 1, \"TW4\");\n\t\trequire(minWithdraw >= 1, \"TW5\");\n\t\t_minDeposit = minDeposit;\n\t\t_minWithdraw = minWithdraw;\n\t\temit SetMinimumValues(minDeposit, minWithdraw);\n\t\treturn true;\n\t}\n\n\t/*\n\t * @dev Set 'contract address', called for utokens smart contract\n\t * @param uAddress: utoken contract address\n\t *\n\t * Emits a {SetUTokensContract} event with '_contract' set to the utoken contract address.\n\t *\n\t */\n\tfunction setUTokensContract(address uAddress) public virtual override {\n\t\trequire(hasRole(DEFAULT_ADMIN_ROLE, _msgSender()), \"TW6\");\n\t\t_uTokens = IUTokens(uAddress);\n\t\temit SetUTokensContract(uAddress);\n\t}\n\n\t/**\n\t * @dev Triggers stopped state.\n\t *\n\t * Requirements:\n\t *\n\t * - The contract must not be paused.\n\t */\n\tfunction pause() public virtual returns (bool success) {\n\t\trequire(hasRole(PAUSER_ROLE, _msgSender()), \"TW7\");\n\t\t_pause();\n\t\treturn true;\n\t}\n\n\t/**\n\t * @dev Returns to normal state.\n\t *\n\t * Requirements:\n\t *\n\t * - The contract must be paused.\n\t */\n\tfunction unpause() public virtual returns (bool success) {\n\t\trequire(hasRole(PAUSER_ROLE, _msgSender()), \"TW8\");\n\t\t_unpause();\n\t\treturn true;\n\t}\n\n\t/**\n\t * @dev common function added to be called by generateUTokens and generateUTokensInBatch and mints new utokens for the provided 'address' and 'amount'\n\t * @param to: account address, amount: number of tokens\n\t * Requirements:\n\t *\n\t * - `amount` cannot be less than zero.\n\t *\n\t */\n\tfunction _generateUTokens(address to, uint256 amount)\n\t\tinternal\n\t\tvirtual\n\t\treturns (uint256 finalTokens)\n\t{\n\t\t// the tokens to be generated to the user's address will be after the fee processing\n\t\tuint256 _fee = (amount.mulDiv(_depositFee, _valueDivisor)).div(100);\n\t\tfinalTokens = amount.sub(_fee);\n\t\t_uTokens.mint(to, finalTokens);\n\t\treturn finalTokens;\n\t}\n\n\t/**\n\t * @dev Mint new utokens for the provided 'address' and 'amount'\n\t * @param to: account address, amount: number of tokens\n\t *\n\t * Emits a {GenerateUTokens} event with 'to' set to address and 'amount' set to amount of tokens.\n\t *\n\t * Requirements:\n\t *\n\t * - `amount` cannot be less than zero.\n\t *\n\t */\n\tfunction generateUTokens(address to, uint256 amount)\n\t\tpublic\n\t\tvirtual\n\t\toverride\n\t\twhenNotPaused\n\t{\n\t\trequire(amount >= _minDeposit, \"TW9\");\n\t\trequire(hasRole(BRIDGE_ADMIN_ROLE, _msgSender()), \"TW10\");\n\t\tuint256 _finalTokens = _generateUTokens(to, amount);\n\t\temit GenerateUTokens(to, amount, _finalTokens, block.timestamp);\n\t}\n\n\t/**\n\t * @dev Mint new utokens for the provided 'address' and 'amount' in batch\n\t * @param to[]: array of account addresses, amount[]: array of tokens\n\t *\n\t * Emits a {GenerateUTokens} event with 'to' set to address and 'amount' set to amount of tokens.\n\t *\n\t * Requirements:\n\t *\n\t * - `amount` cannot be less than zero.\n\t *\n\t */\n\tfunction generateUTokensInBatch(\n\t\taddress[] memory to,\n\t\tuint256[] memory amount\n\t) public virtual override whenNotPaused {\n\t\trequire(to.length == amount.length, \"TW11\");\n\t\trequire(hasRole(BRIDGE_ADMIN_ROLE, _msgSender()), \"TW12\");\n\t\tuint256 i;\n\t\tuint256[] memory _finalTokensArray = new uint256[](to.length);\n\t\tuint256 _toLength = to.length;\n\t\tfor (i = 0; i < _toLength; i = i.add(1)) {\n\t\t\trequire(amount[i] >= _minDeposit, \"TW13\");\n\t\t\t_finalTokensArray[i] = _generateUTokens(to[i], amount[i]);\n\t\t}\n\t\temit GenerateUTokensInBatch(\n\t\t\tto,\n\t\t\tamount,\n\t\t\t_finalTokensArray,\n\t\t\tblock.timestamp\n\t\t);\n\t}\n\n\t/**\n\t * @dev check if the address is Bech32Valid\n\t *\n\t */\n\tfunction isBech32Valid(string memory toChainAddress)\n\t\tpublic\n\t\tview\n\t\tvirtual\n\t\toverride\n\t\treturns (bool isAddressValid)\n\t{\n\t\tisAddressValid = toChainAddress.isBech32AddressValid(\n\t\t\thrpBytes,\n\t\t\tcontrolDigitBytes,\n\t\t\tdataBytesSize\n\t\t);\n\t}\n\n\t/**\n\t * @dev Burn utokens for the provided 'address' and 'tokens'\n\t * @param from: account address, tokens: number of tokens, toChainAddress: atom wallet address\n\t *\n\t * Emits a {WithdrawUTokens} event with 'from' set to address, 'finalTokens' set to amount of tokens and 'toChainAddress'\n\t *\n\t * Requirements:\n\t *\n\t * - `tokens` cannot be less than zero.\n\t *\n\t */\n\tfunction withdrawUTokens(\n\t\taddress from,\n\t\tuint256 tokens,\n\t\tstring memory toChainAddress\n\t) public virtual override whenNotPaused {\n\t\trequire(tokens >= _minWithdraw, \"TW14\");\n\t\t//check if toChainAddress is valid address\n\t\tbool isAddressValid = toChainAddress.isBech32AddressValid(\n\t\t\thrpBytes,\n\t\t\tcontrolDigitBytes,\n\t\t\tdataBytesSize\n\t\t);\n\t\trequire(isAddressValid == true, \"TW15\");\n\t\tuint256 _currentUTokenBalance = _uTokens.balanceOf(from);\n\t\t// final tokens is the amount of tokens to be burned, including the fee\n\t\tuint256 _fee = (tokens.mulDiv(_withdrawFee, _valueDivisor)).div(100);\n\t\tuint256 _finalTokens = tokens.add(_fee);\n\t\trequire(_currentUTokenBalance >= _finalTokens, \"TW16\");\n\t\trequire(from == _msgSender(), \"TW17\");\n\n\t\t_uTokens.burn(from, _finalTokens);\n\t\temit WithdrawUTokens(\n\t\t\tfrom,\n\t\t\ttokens,\n\t\t\t_finalTokens,\n\t\t\ttoChainAddress,\n\t\t\tblock.timestamp\n\t\t);\n\t}\n}\n",
  "sourcePath": "C:\\Users\\Kamlesh\\Persistence\\pStake\\codebase\\pStake-smartContracts\\contracts\\TokenWrapperV2.sol",
  "compiler": {
    "name": "solc",
    "version": "0.7.6+commit.7338295f.Emscripten.clang"
  },
  "schemaVersion": "3.4.3",
  "updatedAt": "2021-08-20T16:34:20.584Z",
  "devdoc": {
    "kind": "dev",
    "methods": {
      "generateUTokens(address,uint256)": {
        "details": "Mint new utokens for the provided 'address' and 'amount'",
        "params": {
          "to": ": account address, amount: number of tokens Emits a {GenerateUTokens} event with 'to' set to address and 'amount' set to amount of tokens. Requirements: - `amount` cannot be less than zero."
        }
      },
      "generateUTokensInBatch(address[],uint256[])": {
        "details": "Mint new utokens for the provided 'address' and 'amount' in batch",
        "params": {
          "to": "[]: array of account addresses, amount[]: array of tokens Emits a {GenerateUTokens} event with 'to' set to address and 'amount' set to amount of tokens. Requirements: - `amount` cannot be less than zero."
        }
      },
      "getProps()": {
        "details": "get fees, minimum set values and value divisor"
      },
      "getRoleAdmin(bytes32)": {
        "details": "Returns the admin role that controls `role`. See {grantRole} and {revokeRole}. To change a role's admin, use {_setRoleAdmin}."
      },
      "getRoleMember(bytes32,uint256)": {
        "details": "Returns one of the accounts that have `role`. `index` must be a value between 0 and {getRoleMemberCount}, non-inclusive. Role bearers are not sorted in any particular way, and their ordering may change at any point. WARNING: When using {getRoleMember} and {getRoleMemberCount}, make sure you perform all queries on the same block. See the following https://forum.openzeppelin.com/t/iterating-over-elements-on-enumerableset-in-openzeppelin-contracts/2296[forum post] for more information."
      },
      "getRoleMemberCount(bytes32)": {
        "details": "Returns the number of accounts that have `role`. Can be used together with {getRoleMember} to enumerate all bearers of a role."
      },
      "grantRole(bytes32,address)": {
        "details": "Grants `role` to `account`. If `account` had not been already granted `role`, emits a {RoleGranted} event. Requirements: - the caller must have ``role``'s admin role."
      },
      "hasRole(bytes32,address)": {
        "details": "Returns `true` if `account` has been granted `role`."
      },
      "isBech32Valid(string)": {
        "details": "check if the address is Bech32Valid"
      },
      "pause()": {
        "details": "Triggers stopped state. Requirements: - The contract must not be paused."
      },
      "paused()": {
        "details": "Returns true if the contract is paused, and false otherwise."
      },
      "renounceRole(bytes32,address)": {
        "details": "Revokes `role` from the calling account. Roles are often managed via {grantRole} and {revokeRole}: this function's purpose is to provide a mechanism for accounts to lose their privileges if they are compromised (such as when a trusted device is misplaced). If the calling account had been granted `role`, emits a {RoleRevoked} event. Requirements: - the caller must be `account`."
      },
      "revokeRole(bytes32,address)": {
        "details": "Revokes `role` from `account`. If `account` had been granted `role`, emits a {RoleRevoked} event. Requirements: - the caller must have ``role``'s admin role."
      },
      "setFees(uint256,uint256)": {
        "details": "Set 'fees', called from admin",
        "params": {
          "depositFee": ": deposit fee Emits a {SetFees} event with 'fee' set to the withdraw.",
          "withdrawFee": ": withdraw fee"
        }
      },
      "setMinimumValues(uint256,uint256)": {
        "details": "Set 'minimum values', called from admin",
        "params": {
          "minDeposit": ": deposit minimum value",
          "minWithdraw": ": withdraw minimum value Emits a {SetMinimumValues} event with 'minimum value' set to withdraw."
        }
      },
      "setUTokensContract(address)": {
        "details": "Set UTokens smart contract. Emits a {SetUTokensContract} event."
      },
      "unpause()": {
        "details": "Returns to normal state. Requirements: - The contract must be paused."
      },
      "withdrawUTokens(address,uint256,string)": {
        "details": "Burn utokens for the provided 'address' and 'tokens'",
        "params": {
          "from": ": account address, tokens: number of tokens, toChainAddress: atom wallet address Emits a {WithdrawUTokens} event with 'from' set to address, 'finalTokens' set to amount of tokens and 'toChainAddress' Requirements: - `tokens` cannot be less than zero."
        }
      }
    },
    "version": 1
  },
  "userdoc": {
    "kind": "user",
    "methods": {},
    "version": 1
  }
}