{
  "contractName": "TokenWrapperXPRT",
  "abi": [
    {
      "anonymous": false,
      "inputs": [
        {
          "indexed": true,
          "internalType": "address",
          "name": "accountAddress",
          "type": "address"
        },
        {
          "indexed": true,
          "internalType": "uint256",
          "name": "tokens",
          "type": "uint256"
        },
        {
          "indexed": true,
          "internalType": "uint256",
          "name": "finalTokens",
          "type": "uint256"
        },
        {
          "indexed": false,
          "internalType": "uint256",
          "name": "timestamp",
          "type": "uint256"
        }
      ],
      "name": "GenerateUTokens",
      "type": "event"
    },
    {
      "anonymous": false,
      "inputs": [
        {
          "indexed": false,
          "internalType": "address[]",
          "name": "accountAddress",
          "type": "address[]"
        },
        {
          "indexed": false,
          "internalType": "uint256[]",
          "name": "tokens",
          "type": "uint256[]"
        },
        {
          "indexed": false,
          "internalType": "uint256[]",
          "name": "finalTokens",
          "type": "uint256[]"
        },
        {
          "indexed": false,
          "internalType": "uint256",
          "name": "timestamp",
          "type": "uint256"
        }
      ],
      "name": "GenerateUTokensInBatch",
      "type": "event"
    },
    {
      "anonymous": false,
      "inputs": [
        {
          "indexed": false,
          "internalType": "address",
          "name": "account",
          "type": "address"
        }
      ],
      "name": "Paused",
      "type": "event"
    },
    {
      "anonymous": false,
      "inputs": [
        {
          "indexed": true,
          "internalType": "bytes32",
          "name": "role",
          "type": "bytes32"
        },
        {
          "indexed": true,
          "internalType": "bytes32",
          "name": "previousAdminRole",
          "type": "bytes32"
        },
        {
          "indexed": true,
          "internalType": "bytes32",
          "name": "newAdminRole",
          "type": "bytes32"
        }
      ],
      "name": "RoleAdminChanged",
      "type": "event"
    },
    {
      "anonymous": false,
      "inputs": [
        {
          "indexed": true,
          "internalType": "bytes32",
          "name": "role",
          "type": "bytes32"
        },
        {
          "indexed": true,
          "internalType": "address",
          "name": "account",
          "type": "address"
        },
        {
          "indexed": true,
          "internalType": "address",
          "name": "sender",
          "type": "address"
        }
      ],
      "name": "RoleGranted",
      "type": "event"
    },
    {
      "anonymous": false,
      "inputs": [
        {
          "indexed": true,
          "internalType": "bytes32",
          "name": "role",
          "type": "bytes32"
        },
        {
          "indexed": true,
          "internalType": "address",
          "name": "account",
          "type": "address"
        },
        {
          "indexed": true,
          "internalType": "address",
          "name": "sender",
          "type": "address"
        }
      ],
      "name": "RoleRevoked",
      "type": "event"
    },
    {
      "anonymous": false,
      "inputs": [
        {
          "indexed": true,
          "internalType": "uint256",
          "name": "depositFee",
          "type": "uint256"
        },
        {
          "indexed": true,
          "internalType": "uint256",
          "name": "withdrawFee",
          "type": "uint256"
        }
      ],
      "name": "SetFees",
      "type": "event"
    },
    {
      "anonymous": false,
      "inputs": [
        {
          "indexed": true,
          "internalType": "uint256",
          "name": "minDeposit",
          "type": "uint256"
        },
        {
          "indexed": true,
          "internalType": "uint256",
          "name": "minWithdraw",
          "type": "uint256"
        }
      ],
      "name": "SetMinimumValues",
      "type": "event"
    },
    {
      "anonymous": false,
      "inputs": [
        {
          "indexed": true,
          "internalType": "address",
          "name": "_contract",
          "type": "address"
        }
      ],
      "name": "SetUTokensContract",
      "type": "event"
    },
    {
      "anonymous": false,
      "inputs": [
        {
          "indexed": false,
          "internalType": "address",
          "name": "account",
          "type": "address"
        }
      ],
      "name": "Unpaused",
      "type": "event"
    },
    {
      "anonymous": false,
      "inputs": [
        {
          "indexed": true,
          "internalType": "address",
          "name": "accountAddress",
          "type": "address"
        },
        {
          "indexed": true,
          "internalType": "uint256",
          "name": "tokens",
          "type": "uint256"
        },
        {
          "indexed": false,
          "internalType": "uint256",
          "name": "finalTokens",
          "type": "uint256"
        },
        {
          "indexed": true,
          "internalType": "string",
          "name": "toChainAddress",
          "type": "string"
        },
        {
          "indexed": false,
          "internalType": "uint256",
          "name": "timestamp",
          "type": "uint256"
        }
      ],
      "name": "WithdrawUTokens",
      "type": "event"
    },
    {
      "anonymous": false,
      "inputs": [
        {
          "indexed": true,
          "internalType": "address",
          "name": "accountAddress",
          "type": "address"
        },
        {
          "indexed": true,
          "internalType": "uint256",
          "name": "tokens",
          "type": "uint256"
        },
        {
          "indexed": true,
          "internalType": "uint256",
          "name": "finalTokens",
          "type": "uint256"
        },
        {
          "indexed": false,
          "internalType": "string",
          "name": "toChainAddress",
          "type": "string"
        },
        {
          "indexed": false,
          "internalType": "uint256",
          "name": "timestamp",
          "type": "uint256"
        }
      ],
      "name": "WithdrawUTokensV2",
      "type": "event"
    },
    {
      "inputs": [],
      "name": "BRIDGE_ADMIN_ROLE",
      "outputs": [
        {
          "internalType": "bytes32",
          "name": "",
          "type": "bytes32"
        }
      ],
      "stateMutability": "view",
      "type": "function",
      "constant": true
    },
    {
      "inputs": [],
      "name": "DEFAULT_ADMIN_ROLE",
      "outputs": [
        {
          "internalType": "bytes32",
          "name": "",
          "type": "bytes32"
        }
      ],
      "stateMutability": "view",
      "type": "function",
      "constant": true
    },
    {
      "inputs": [],
      "name": "PAUSER_ROLE",
      "outputs": [
        {
          "internalType": "bytes32",
          "name": "",
          "type": "bytes32"
        }
      ],
      "stateMutability": "view",
      "type": "function",
      "constant": true
    },
    {
      "inputs": [],
      "name": "_uTokens",
      "outputs": [
        {
          "internalType": "contract IUTokensXPRT",
          "name": "",
          "type": "address"
        }
      ],
      "stateMutability": "view",
      "type": "function",
      "constant": true
    },
    {
      "inputs": [],
      "name": "_valueDivisor",
      "outputs": [
        {
          "internalType": "uint256",
          "name": "",
          "type": "uint256"
        }
      ],
      "stateMutability": "view",
      "type": "function",
      "constant": true
    },
    {
      "inputs": [],
      "name": "_version",
      "outputs": [
        {
          "internalType": "uint256",
          "name": "",
          "type": "uint256"
        }
      ],
      "stateMutability": "view",
      "type": "function",
      "constant": true
    },
    {
      "inputs": [],
      "name": "controlDigitBytes",
      "outputs": [
        {
          "internalType": "bytes",
          "name": "",
          "type": "bytes"
        }
      ],
      "stateMutability": "view",
      "type": "function",
      "constant": true
    },
    {
      "inputs": [],
      "name": "dataBytesSize",
      "outputs": [
        {
          "internalType": "uint256",
          "name": "",
          "type": "uint256"
        }
      ],
      "stateMutability": "view",
      "type": "function",
      "constant": true
    },
    {
      "inputs": [
        {
          "internalType": "bytes32",
          "name": "role",
          "type": "bytes32"
        }
      ],
      "name": "getRoleAdmin",
      "outputs": [
        {
          "internalType": "bytes32",
          "name": "",
          "type": "bytes32"
        }
      ],
      "stateMutability": "view",
      "type": "function",
      "constant": true
    },
    {
      "inputs": [
        {
          "internalType": "bytes32",
          "name": "role",
          "type": "bytes32"
        },
        {
          "internalType": "uint256",
          "name": "index",
          "type": "uint256"
        }
      ],
      "name": "getRoleMember",
      "outputs": [
        {
          "internalType": "address",
          "name": "",
          "type": "address"
        }
      ],
      "stateMutability": "view",
      "type": "function",
      "constant": true
    },
    {
      "inputs": [
        {
          "internalType": "bytes32",
          "name": "role",
          "type": "bytes32"
        }
      ],
      "name": "getRoleMemberCount",
      "outputs": [
        {
          "internalType": "uint256",
          "name": "",
          "type": "uint256"
        }
      ],
      "stateMutability": "view",
      "type": "function",
      "constant": true
    },
    {
      "inputs": [
        {
          "internalType": "bytes32",
          "name": "role",
          "type": "bytes32"
        },
        {
          "internalType": "address",
          "name": "account",
          "type": "address"
        }
      ],
      "name": "grantRole",
      "outputs": [],
      "stateMutability": "nonpayable",
      "type": "function"
    },
    {
      "inputs": [
        {
          "internalType": "bytes32",
          "name": "role",
          "type": "bytes32"
        },
        {
          "internalType": "address",
          "name": "account",
          "type": "address"
        }
      ],
      "name": "hasRole",
      "outputs": [
        {
          "internalType": "bool",
          "name": "",
          "type": "bool"
        }
      ],
      "stateMutability": "view",
      "type": "function",
      "constant": true
    },
    {
      "inputs": [],
      "name": "hrpBytes",
      "outputs": [
        {
          "internalType": "bytes",
          "name": "",
          "type": "bytes"
        }
      ],
      "stateMutability": "view",
      "type": "function",
      "constant": true
    },
    {
      "inputs": [],
      "name": "paused",
      "outputs": [
        {
          "internalType": "bool",
          "name": "",
          "type": "bool"
        }
      ],
      "stateMutability": "view",
      "type": "function",
      "constant": true
    },
    {
      "inputs": [
        {
          "internalType": "bytes32",
          "name": "role",
          "type": "bytes32"
        },
        {
          "internalType": "address",
          "name": "account",
          "type": "address"
        }
      ],
      "name": "renounceRole",
      "outputs": [],
      "stateMutability": "nonpayable",
      "type": "function"
    },
    {
      "inputs": [
        {
          "internalType": "bytes32",
          "name": "role",
          "type": "bytes32"
        },
        {
          "internalType": "address",
          "name": "account",
          "type": "address"
        }
      ],
      "name": "revokeRole",
      "outputs": [],
      "stateMutability": "nonpayable",
      "type": "function"
    },
    {
      "inputs": [
        {
          "internalType": "address",
          "name": "uAddress",
          "type": "address"
        },
        {
          "internalType": "address",
          "name": "bridgeAdminAddress",
          "type": "address"
        },
        {
          "internalType": "address",
          "name": "pauserAddress",
          "type": "address"
        },
        {
          "internalType": "uint256",
          "name": "valueDivisor",
          "type": "uint256"
        },
        {
          "internalType": "string",
          "name": "hrpString",
          "type": "string"
        },
        {
          "internalType": "string",
          "name": "controlDigitString",
          "type": "string"
        },
        {
          "internalType": "uint256",
          "name": "dataSize",
          "type": "uint256"
        }
      ],
      "name": "initialize",
      "outputs": [],
      "stateMutability": "nonpayable",
      "type": "function"
    },
    {
      "inputs": [
        {
          "internalType": "uint256",
          "name": "depositFee",
          "type": "uint256"
        },
        {
          "internalType": "uint256",
          "name": "withdrawFee",
          "type": "uint256"
        }
      ],
      "name": "setFees",
      "outputs": [
        {
          "internalType": "bool",
          "name": "success",
          "type": "bool"
        }
      ],
      "stateMutability": "nonpayable",
      "type": "function"
    },
    {
      "inputs": [],
      "name": "getProps",
      "outputs": [
        {
          "internalType": "uint256",
          "name": "depositFee",
          "type": "uint256"
        },
        {
          "internalType": "uint256",
          "name": "withdrawFee",
          "type": "uint256"
        },
        {
          "internalType": "uint256",
          "name": "minDeposit",
          "type": "uint256"
        },
        {
          "internalType": "uint256",
          "name": "minWithdraw",
          "type": "uint256"
        },
        {
          "internalType": "uint256",
          "name": "valueDivisor",
          "type": "uint256"
        }
      ],
      "stateMutability": "view",
      "type": "function",
      "constant": true
    },
    {
      "inputs": [
        {
          "internalType": "uint256",
          "name": "minDeposit",
          "type": "uint256"
        },
        {
          "internalType": "uint256",
          "name": "minWithdraw",
          "type": "uint256"
        }
      ],
      "name": "setMinimumValues",
      "outputs": [
        {
          "internalType": "bool",
          "name": "success",
          "type": "bool"
        }
      ],
      "stateMutability": "nonpayable",
      "type": "function"
    },
    {
      "inputs": [
        {
          "internalType": "address",
          "name": "uAddress",
          "type": "address"
        }
      ],
      "name": "setUTokensContract",
      "outputs": [],
      "stateMutability": "nonpayable",
      "type": "function"
    },
    {
      "inputs": [],
      "name": "pause",
      "outputs": [
        {
          "internalType": "bool",
          "name": "success",
          "type": "bool"
        }
      ],
      "stateMutability": "nonpayable",
      "type": "function"
    },
    {
      "inputs": [],
      "name": "unpause",
      "outputs": [
        {
          "internalType": "bool",
          "name": "success",
          "type": "bool"
        }
      ],
      "stateMutability": "nonpayable",
      "type": "function"
    },
    {
      "inputs": [
        {
          "internalType": "address",
          "name": "to",
          "type": "address"
        },
        {
          "internalType": "uint256",
          "name": "amount",
          "type": "uint256"
        }
      ],
      "name": "generateUTokens",
      "outputs": [],
      "stateMutability": "nonpayable",
      "type": "function"
    },
    {
      "inputs": [
        {
          "internalType": "address[]",
          "name": "to",
          "type": "address[]"
        },
        {
          "internalType": "uint256[]",
          "name": "amount",
          "type": "uint256[]"
        }
      ],
      "name": "generateUTokensInBatch",
      "outputs": [],
      "stateMutability": "nonpayable",
      "type": "function"
    },
    {
      "inputs": [
        {
          "internalType": "string",
          "name": "toChainAddress",
          "type": "string"
        }
      ],
      "name": "isBech32Valid",
      "outputs": [
        {
          "internalType": "bool",
          "name": "isAddressValid",
          "type": "bool"
        }
      ],
      "stateMutability": "view",
      "type": "function",
      "constant": true
    },
    {
      "inputs": [
        {
          "internalType": "address",
          "name": "from",
          "type": "address"
        },
        {
          "internalType": "uint256",
          "name": "tokens",
          "type": "uint256"
        },
        {
          "internalType": "string",
          "name": "toChainAddress",
          "type": "string"
        }
      ],
      "name": "withdrawUTokens",
      "outputs": [],
      "stateMutability": "nonpayable",
      "type": "function"
    }
  ],
  "bytecode": "0x608060405234801561001057600080fd5b50612d80806100206000396000f3fe608060405234801561001057600080fd5b50600436106101c45760003560e01c806378a2f074116100f9578063ca15c87311610097578063e3ac914b11610071578063e3ac914b146106ba578063e63ab1e9146106c2578063e7fa0a32146106ca578063ec1893b4146107ed576101c4565b8063ca15c87314610669578063d37f559814610686578063d547741f1461068e576101c4565b80639010d07c116100d35780639010d07c1461059557806391d14854146105b8578063a217fddf146105e4578063a53dcd72146105ec576101c4565b806378a2f074146104c55780638456cb59146104e95780638f001d4e146104f1576101c4565b80633e070d9311610166578063428bee9e11610140578063428bee9e146103d957806351db00e7146104925780635c975abb146104b5578063728a99ee146104bd576101c4565b80633e070d93146102e35780633e118dbe146103c95780633f4ba83a146103d1576101c4565b806322dd9bc3116101a257806322dd9bc314610242578063248a9ca31461026e5780632f2ff15d1461028b57806336568abe146102b7576101c4565b80630b78f9c0146101c9578063118c38c71461020057806321bdf9e51461021a575b600080fd5b6101ec600480360360408110156101df57600080fd5b5080359060200135610820565b604080519115158252519081900360200190f35b61020861091d565b60408051918252519081900360200190f35b6102406004803603602081101561023057600080fd5b50356001600160a01b031661092f565b005b6102406004803603604081101561025857600080fd5b506001600160a01b0381351690602001356109bd565b6102086004803603602081101561028457600080fd5b5035610ab4565b610240600480360360408110156102a157600080fd5b50803590602001356001600160a01b0316610acc565b610240600480360360408110156102cd57600080fd5b50803590602001356001600160a01b0316610b33565b610240600480360360e08110156102f957600080fd5b6001600160a01b03823581169260208101358216926040820135909216916060820135919081019060a081016080820135600160201b81111561033b57600080fd5b82018360208201111561034d57600080fd5b803590602001918460018302840111600160201b8311171561036e57600080fd5b919390929091602081019035600160201b81111561038b57600080fd5b82018360208201111561039d57600080fd5b803590602001918460018302840111600160201b831117156103be57600080fd5b919350915035610b94565b610208610cca565b6101ec610cd0565b610240600480360360608110156103ef57600080fd5b6001600160a01b0382351691602081013591810190606081016040820135600160201b81111561041e57600080fd5b82018360208201111561043057600080fd5b803590602001918460018302840111600160201b8311171561045157600080fd5b91908080601f016020809104026020016040519081016040528093929190818152602001838380828437600092019190915250929550610d31945050505050565b6101ec600480360360408110156104a857600080fd5b50803590602001356111a2565b6101ec61129f565b6102086112a8565b6104cd6112ae565b604080516001600160a01b039092168252519081900360200190f35b6101ec6112bd565b6101ec6004803603602081101561050757600080fd5b810190602081018135600160201b81111561052157600080fd5b82018360208201111561053357600080fd5b803590602001918460018302840111600160201b8311171561055457600080fd5b91908080601f016020809104026020016040519081016040528093929190818152602001838380828437600092019190915250929550611318945050505050565b6104cd600480360360408110156105ab57600080fd5b508035906020013561137c565b6101ec600480360360408110156105ce57600080fd5b50803590602001356001600160a01b031661139b565b6102086113b3565b6105f46113b8565b6040805160208082528351818301528351919283929083019185019080838360005b8381101561062e578181015183820152602001610616565b50505050905090810190601f16801561065b5780820380516001836020036101000a031916815260200191505b509250505060405180910390f35b6102086004803603602081101561067f57600080fd5b5035611446565b6105f461145d565b610240600480360360408110156106a457600080fd5b50803590602001356001600160a01b03166114b8565b610208611511565b610208611517565b610240600480360360408110156106e057600080fd5b810190602081018135600160201b8111156106fa57600080fd5b82018360208201111561070c57600080fd5b803590602001918460208302840111600160201b8311171561072d57600080fd5b9190808060200260200160405190810160405280939291908181526020018383602002808284376000920191909152509295949360208101935035915050600160201b81111561077c57600080fd5b82018360208201111561078e57600080fd5b803590602001918460208302840111600160201b831117156107af57600080fd5b919080806020026020016040519081016040528093929190818152602001838360200280828437600092019190915250929550611529945050505050565b6107f56117ca565b6040805195865260208601949094528484019290925260608401526080830152519081900360a00190f35b60006108338161082e6117e4565b61139b565b61086a576040805162461bcd60e51b815260206004820152600360248201526254573160e81b604482015290519081900360640190fd5b609c546108789060646117e8565b83111580610884575082155b80156108a55750609c546108999060646117e8565b821115806108a5575081155b6108dc576040805162461bcd60e51b81526020600482015260036024820152622a2b9960e91b604482015290519081900360640190fd5b609a839055609b829055604051829084907f3be6e637f54f081a2dd12982cfd58481304fc98b604b18fa8ed4aa4e4a9d153290600090a35060015b92915050565b600080516020612cdc83398151915281565b61093c600061082e6117e4565b610973576040805162461bcd60e51b81526020600482015260036024820152622a2b9b60e91b604482015290519081900360640190fd5b609780546001600160a01b0319166001600160a01b0383169081179091556040517ff745c285f36f88bea6af14d4d0f33dd9350cef7895216c1615b1caaee7857e0c90600090a250565b6109c561129f565b15610a0a576040805162461bcd60e51b815260206004820152601060248201526f14185d5cd8589b194e881c185d5cd95960821b604482015290519081900360640190fd5b610a24600080516020612cdc83398151915261082e6117e4565b610a5e576040805162461bcd60e51b815260206004808301919091526024820152630545731360e41b604482015290519081900360640190fd5b6000610a6a8383611841565b90508082846001600160a01b03167f572f067f64ae57ed816b7e9b5424a87d97035d68384f149586cba42b4192c9d8426040518082815260200191505060405180910390a4505050565b6000818152606560205260409020600201545b919050565b600082815260656020526040902060020154610aea9061082e6117e4565b610b255760405162461bcd60e51b815260040180806020018281038252602f815260200180612c0e602f913960400191505060405180910390fd5b610b2f82826118f9565b5050565b610b3b6117e4565b6001600160a01b0316816001600160a01b031614610b8a5760405162461bcd60e51b815260040180806020018281038252602f815260200180612cfc602f913960400191505060405180910390fd5b610b2f8282611962565b600054610100900460ff1680610bad5750610bad6119cb565b80610bbb575060005460ff16155b610bf65760405162461bcd60e51b815260040180806020018281038252602e815260200180612c6d602e913960400191505060405180910390fd5b600054610100900460ff16158015610c21576000805460ff1961ff0019909116610100171660011790555b610c296119dc565b610c31611a8e565b610c436000610c3e6117e4565b610b25565b610c5b600080516020612cdc8339815191528a610b25565b610c73600080516020612cbc83398151915289610b25565b610c7c8a61092f565b610c876001806111a2565b50609c879055610c99609d8787612b4a565b50610ca6609e8585612b4a565b50609f8290558015610cbe576000805461ff00191690555b50505050505050505050565b60a05481565b6000610cec600080516020612cbc83398151915261082e6117e4565b610d23576040805162461bcd60e51b81526020600482015260036024820152620a8ae760eb1b604482015290519081900360640190fd5b610d2b611b2b565b50600190565b610d3961129f565b15610d7e576040805162461bcd60e51b815260206004820152601060248201526f14185d5cd8589b194e881c185d5cd95960821b604482015290519081900360640190fd5b610d866117e4565b6001600160a01b0316836001600160a01b031614610dd4576040805162461bcd60e51b815260206004808301919091526024820152635457313760e01b604482015290519081900360640190fd5b609954821015610e14576040805162461bcd60e51b815260206004808301919091526024820152631515cc4d60e21b604482015290519081900360640190fd5b609d805460408051602060026001851615610100026000190190941693909304601f8101849004840282018401909252818152600093610f439391929091830182828015610ea35780601f10610e7857610100808354040283529160200191610ea3565b820191906000526020600020905b815481529060010190602001808311610e8657829003601f168201915b5050609e8054604080516020601f6002600019610100600188161502019095169490940493840181900481028201810190925282815295509193509150830182828015610f315780601f10610f0657610100808354040283529160200191610f31565b820191906000526020600020905b815481529060010190602001808311610f1457829003601f168201915b5050609f548895949350915050611bcb565b9050600181151514610f85576040805162461bcd60e51b815260206004808301919091526024820152635457313560e01b604482015290519081900360640190fd5b609754604080516370a0823160e01b81526001600160a01b038781166004830152915160009392909216916370a0823191602480820192602092909190829003018186803b158015610fd657600080fd5b505afa158015610fea573d6000803e3d6000fd5b505050506040513d602081101561100057600080fd5b5051609b54609c5491925060009161102691606491611020918991611ce2565b90611d9b565b905060006110348683611e02565b905080831015611074576040805162461bcd60e51b815260206004808301919091526024820152632a2b989b60e11b604482015290519081900360640190fd5b60975460408051632770a7eb60e21b81526001600160a01b038a811660048301526024820185905291519190921691639dc29fac9160448083019260209291908290030181600087803b1580156110ca57600080fd5b505af11580156110de573d6000803e3d6000fd5b505050506040513d60208110156110f457600080fd5b50506040518551869190819060208401908083835b602083106111285780518252601f199092019160209182019101611109565b51815160209384036101000a600019018019909216911617905260408051929094018290038220878352429183019190915283519095508b94506001600160a01b038d16937f0f4363f6961ed151f2cf8f720784b70c0f5573f216fc939f67f2a5d12698e02e93509181900390910190a450505050505050565b60006111b08161082e6117e4565b6111e7576040805162461bcd60e51b815260206004820152600360248201526254573360e81b604482015290519081900360640190fd5b6001831015611223576040805162461bcd60e51b81526020600482015260036024820152621515cd60ea1b604482015290519081900360640190fd5b600182101561125f576040805162461bcd60e51b815260206004820152600360248201526254573560e81b604482015290519081900360640190fd5b60988390556099829055604051829084907fa94d40347449ea19b873d64ed55c99772194c49791e82be5c2dc24e4c0044fe390600090a350600192915050565b60335460ff1690565b609c5481565b6097546001600160a01b031681565b60006112d9600080516020612cbc83398151915261082e6117e4565b611310576040805162461bcd60e51b815260206004820152600360248201526254573760e81b604482015290519081900360640190fd5b610d2b611e5c565b609d805460408051602060026001851615610100026000190190941693909304601f81018490048402820184019092528181526000936109179391929091830182828015610ea35780601f10610e7857610100808354040283529160200191610ea3565b60008281526065602052604081206113949083611edf565b9392505050565b60008281526065602052604081206113949083611eeb565b600081565b609e805460408051602060026001851615610100026000190190941693909304601f8101849004840282018401909252818152929183018282801561143e5780601f106114135761010080835404028352916020019161143e565b820191906000526020600020905b81548152906001019060200180831161142157829003601f168201915b505050505081565b600081815260656020526040812061091790611f00565b609d805460408051602060026001851615610100026000190190941693909304601f8101849004840282018401909252818152929183018282801561143e5780601f106114135761010080835404028352916020019161143e565b6000828152606560205260409020600201546114d69061082e6117e4565b610b8a5760405162461bcd60e51b8152600401808060200182810382526030815260200180612c3d6030913960400191505060405180910390fd5b609f5481565b600080516020612cbc83398151915281565b61153161129f565b15611576576040805162461bcd60e51b815260206004820152601060248201526f14185d5cd8589b194e881c185d5cd95960821b604482015290519081900360640190fd5b80518251146115b5576040805162461bcd60e51b815260206004808301919091526024820152635457313160e01b604482015290519081900360640190fd5b6115cf600080516020612cdc83398151915261082e6117e4565b611609576040805162461bcd60e51b815260206004808301919091526024820152632a2b989960e11b604482015290519081900360640190fd5b600080835167ffffffffffffffff8111801561162457600080fd5b5060405190808252806020026020018201604052801561164e578160200160208202803683370190505b508451600093509091505b808310156116ba5761169185848151811061167057fe5b602002602001015185858151811061168457fe5b6020026020010151611841565b82848151811061169d57fe5b60209081029190910101526116b3836001611e02565b9250611659565b7fff03029439b5b79825ca34bca1b453f01e01935bdde5210a8af22f19705ca1a38585844260405180806020018060200180602001858152602001848103845288818151815260200191508051906020019060200280838360005b8381101561172d578181015183820152602001611715565b50505050905001848103835287818151815260200191508051906020019060200280838360005b8381101561176c578181015183820152602001611754565b50505050905001848103825286818151815260200191508051906020019060200280838360005b838110156117ab578181015183820152602001611793565b5050505090500197505050505050505060405180910390a15050505050565b609a54609b54609854609954609c54939492939192909190565b3390565b6000826117f757506000610917565b8282028284828161180457fe5b04146113945760405162461bcd60e51b8152600401808060200182810382526021815260200180612c9b6021913960400191505060405180910390fd5b6000806118626064611020609a54609c5487611ce29092919063ffffffff16565b905061186e8382611f0b565b609754604080516340c10f1960e01b81526001600160a01b0388811660048301526024820185905291519395509116916340c10f19916044808201926020929091908290030181600087803b1580156118c657600080fd5b505af11580156118da573d6000803e3d6000fd5b505050506040513d60208110156118f057600080fd5b50505092915050565b60008281526065602052604090206119119082611f68565b15610b2f5761191e6117e4565b6001600160a01b0316816001600160a01b0316837f2f8788117e7eff1d82e926ec794901d17c78024a50270940304540a733656f0d60405160405180910390a45050565b600082815260656020526040902061197a9082611f7d565b15610b2f576119876117e4565b6001600160a01b0316816001600160a01b0316837ff6391f5c32d9c69d2a47ea670b442974b53935d1edc7fd64eb21e047a839171b60405160405180910390a45050565b60006119d630611f92565b15905090565b600054610100900460ff16806119f557506119f56119cb565b80611a03575060005460ff16155b611a3e5760405162461bcd60e51b815260040180806020018281038252602e815260200180612c6d602e913960400191505060405180910390fd5b600054610100900460ff16158015611a69576000805460ff1961ff0019909116610100171660011790555b611a71611f98565b611a79611f98565b8015611a8b576000805461ff00191690555b50565b600054610100900460ff1680611aa75750611aa76119cb565b80611ab5575060005460ff16155b611af05760405162461bcd60e51b815260040180806020018281038252602e815260200180612c6d602e913960400191505060405180910390fd5b600054610100900460ff16158015611b1b576000805460ff1961ff0019909116610100171660011790555b611b23611f98565b611a79612038565b611b3361129f565b611b7b576040805162461bcd60e51b815260206004820152601460248201527314185d5cd8589b194e881b9bdd081c185d5cd95960621b604482015290519081900360640190fd5b6033805460ff191690557f5db9ee0a495bf2e6ff9c91a7834c1ba4fdd244a5e8aa4e537bd38aeae4b073aa611bae6117e4565b604080516001600160a01b039092168252519081900360200190a1565b825160009085908290611be190839083906120e3565b9050611bed81876121ec565b611bfc57600092505050611cda565b8051600090611c0e90849060016120e3565b9050611c1a81876121ec565b611c2a5760009350505050611cda565b6000611c4c83516001016001855187510303866120e39092919063ffffffff16565b905085815114611c63576000945050505050611cda565b82518451600091611c7f918791600181019103600619016120e3565b90506000611c8c82612250565b9050805160001415611ca75760009650505050505050611cda565b6000611cb2866123ab565b90506000611cc08284612440565b90506000611cce86836121ec565b99505050505050505050505b949350505050565b6000806000611cf18686612525565b9150915060008480611cff57fe5b868809905082811115611d13576001820391505b918290039181611d3157848381611d2657fe5b049350505050611394565b848210611d85576040805162461bcd60e51b815260206004820152601a60248201527f46756c6c4d6174683a2046554c4c4449565f4f564552464c4f57000000000000604482015290519081900360640190fd5b611d90838387612552565b979650505050505050565b6000808211611df1576040805162461bcd60e51b815260206004820152601a60248201527f536166654d6174683a206469766973696f6e206279207a65726f000000000000604482015290519081900360640190fd5b818381611dfa57fe5b049392505050565b600082820183811015611394576040805162461bcd60e51b815260206004820152601b60248201527f536166654d6174683a206164646974696f6e206f766572666c6f770000000000604482015290519081900360640190fd5b611e6461129f565b15611ea9576040805162461bcd60e51b815260206004820152601060248201526f14185d5cd8589b194e881c185d5cd95960821b604482015290519081900360640190fd5b6033805460ff191660011790557f62e78cea01bee320cd4e420270b5ea74000d11b0c9f74754ebdbfc544b05a258611bae6117e4565b600061139483836125c2565b6000611394836001600160a01b038416612626565b60006109178261263e565b600082821115611f62576040805162461bcd60e51b815260206004820152601e60248201527f536166654d6174683a207375627472616374696f6e206f766572666c6f770000604482015290519081900360640190fd5b50900390565b6000611394836001600160a01b038416612642565b6000611394836001600160a01b03841661268c565b3b151590565b600054610100900460ff1680611fb15750611fb16119cb565b80611fbf575060005460ff16155b611ffa5760405162461bcd60e51b815260040180806020018281038252602e815260200180612c6d602e913960400191505060405180910390fd5b600054610100900460ff16158015611a79576000805460ff1961ff0019909116610100171660011790558015611a8b576000805461ff001916905550565b600054610100900460ff168061205157506120516119cb565b8061205f575060005460ff16155b61209a5760405162461bcd60e51b815260040180806020018281038252602e815260200180612c6d602e913960400191505060405180910390fd5b600054610100900460ff161580156120c5576000805460ff1961ff0019909116610100171660011790555b6033805460ff191690558015611a8b576000805461ff001916905550565b60608182601f01101561212e576040805162461bcd60e51b815260206004820152600e60248201526d736c6963655f6f766572666c6f7760901b604482015290519081900360640190fd5b8183018451101561217a576040805162461bcd60e51b8152602060048201526011602482015270736c6963655f6f75744f66426f756e647360781b604482015290519081900360640190fd5b60608215801561219957604051915060008252602082016040526121e3565b6040519150601f8416801560200281840101858101878315602002848b0101015b818310156121d25780518352602092830192016121ba565b5050858452601f01601f1916604052505b50949350505050565b8151815160009160019181148083146122085760009250612246565b600160208701838101602088015b6002848385100114156122415780518351146122355760009650600093505b60209283019201612216565b505050505b5090949350505050565b6060815167ffffffffffffffff8111801561226a57600080fd5b50604051908082528060200260200182016040528015612294578160200160208202803683370190505b50905060606000805b84518110156123a357600091505b604051806040016040528060208152602001600080516020612d2b8339815191528152505182101561234c57604051806040016040528060208152602001600080516020612d2b833981519152815250828151811061230657fe5b602001015160f81c60f81b6001600160f81b03191685828151811061232757fe5b01602001516001600160f81b03191614156123415761234c565b6001909101906122ab565b604051806040016040528060208152602001600080516020612d2b8339815191528152505182141561238357829350505050610ac7565b8184828151811061239057fe5b602090810291909101015260010161229d565b505050919050565b6060815167ffffffffffffffff811180156123c557600080fd5b506040519080825280602002602001820160405280156123ef578160200160208202803683370190505b50905060005b825181101561243a5782818151811061240a57fe5b602001015160f81c60f81b60f81c60ff1682828151811061242757fe5b60209081029190910101526001016123f5565b50919050565b60606000612457836124528686612752565b6127ef565b90506000815167ffffffffffffffff8111801561247357600080fd5b506040519080825280601f01601f19166020018201604052801561249e576020820181803683370190505b50905060005b82518110156121e357604051806040016040528060208152602001600080516020612d2b8339815191528152508382815181106124dd57fe5b6020026020010151815181106124ef57fe5b602001015160f81c60f81b82828151811061250657fe5b60200101906001600160f81b031916908160001a9053506001016124a4565b600080806000198486099050838502925082810391508281101561254a576001820391505b509250929050565b6000818103821680838161256257fe5b04925080858161256e57fe5b04945080816000038161257d57fe5b60028581038087028203028087028203028087028203028087028203028087028203028087028203029586029003909402930460010193909302939093010292915050565b815460009082106126045760405162461bcd60e51b8152600401808060200182810382526022815260200180612bec6022913960400191505060405180910390fd5b82600001828154811061261357fe5b9060005260206000200154905092915050565b60009081526001919091016020526040902054151590565b5490565b600061264e8383612626565b61268457508154600181810184556000848152602080822090930184905584548482528286019093526040902091909155610917565b506000610917565b6000818152600183016020526040812054801561274857835460001980830191908101906000908790839081106126bf57fe5b90600052602060002001549050808760000184815481106126dc57fe5b60009182526020808320909101929092558281526001898101909252604090209084019055865487908061270c57fe5b60019003818190600052602060002001600090559055866001016000878152602001908152602001600020600090556001945050505050610917565b6000915050610917565b6060600061277461276b612765866128c2565b856127ef565b600060066129bf565b9050600061278182612a85565b60408051600680825260e082019092526001929092189250600091906020820160c08036833701905050905060005b60068110156127e5578060050360050283901c601f168282815181106127d257fe5b60209081029190910101526001016127b0565b5095945050505050565b60606000825184510167ffffffffffffffff8111801561280e57600080fd5b50604051908082528060200260200182016040528015612838578160200160208202803683370190505b50905060005b845181101561287a5784818151811061285357fe5b602002602001015182828151811061286757fe5b602090810291909101015260010161283e565b60005b845181101561224657845160018201918691811061289757fe5b60200260200101518383806001019450815181106128b157fe5b60200260200101818152505061287d565b60606000825183510160010167ffffffffffffffff811180156128e457600080fd5b5060405190808252806020026020018201604052801561290e578160200160208202803683370190505b50905060005b835181101561295457600584828151811061292b57fe5b6020026020010151901c82828151811061294157fe5b6020908102919091010152600101612914565b5060008184518151811061296457fe5b60200260200101818152505060005b83518110156129b85783818151811061298857fe5b6020026020010151601f168285518301600101815181106129a557fe5b6020908102919091010152600101612973565b5092915050565b606060008285510167ffffffffffffffff811180156129dd57600080fd5b50604051908082528060200260200182016040528015612a07578160200160208202803683370190505b50905060005b8551811015612a4957858181518110612a2257fe5b6020026020010151828281518110612a3657fe5b6020908102919091010152600101612a0d565b60005b84811015612a7a5785838380600101945081518110612a6757fe5b6020908102919091010152600101612a4c565b509095945050505050565b6040805160a081018252633b6a57b281526326508e6d6020820152631ea119fa91810191909152633d4233dd6060820152632a1462b360808201526000906001825b8451811015612b42576000601983901c9050858281518110612ae557fe5b60200260200101516005846301ffffff16901b18925060005b6005811015612b3857600182821c81161415612b3057848160058110612b2057fe5b602002015163ffffffff16841893505b600101612afe565b5050600101612ac7565b509392505050565b828054600181600116156101000203166002900490600052602060002090601f016020900481019282612b805760008555612bc6565b82601f10612b995782800160ff19823516178555612bc6565b82800160010185558215612bc6579182015b82811115612bc6578235825591602001919060010190612bab565b50612bd2929150612bd6565b5090565b5b80821115612bd25760008155600101612bd756fe456e756d657261626c655365743a20696e646578206f7574206f6620626f756e6473416363657373436f6e74726f6c3a2073656e646572206d75737420626520616e2061646d696e20746f206772616e74416363657373436f6e74726f6c3a2073656e646572206d75737420626520616e2061646d696e20746f207265766f6b65496e697469616c697a61626c653a20636f6e747261637420697320616c726561647920696e697469616c697a6564536166654d6174683a206d756c7469706c69636174696f6e206f766572666c6f7765d7a28e3265b37a6474929f336521b332c1681b933f6cb9f3376673440d862a751b795d24b92e3d92d1d0d8f2885f4e9c9c269da350af36ae6b49069babf4bf416363657373436f6e74726f6c3a2063616e206f6e6c792072656e6f756e636520726f6c657320666f722073656c6671707a7279397838676632747664773073336a6e35346b686365366d7561376ca26469706673582212200827a6df2069f8ea96d0b00c7e30030ccf442e8613714ddfc2b7a016e1a8f64864736f6c63430007060033",
  "immutableReferences": {},
  "source": "/*\n Copyright [2019] - [2021], PERSISTENCE TECHNOLOGIES PTE. LTD. and the pStake-smartContracts contributors\n SPDX-License-Identifier: Apache-2.0\n*/\n\npragma solidity >=0.7.0;\n\nimport \"@openzeppelin/contracts-upgradeable/math/SafeMathUpgradeable.sol\";\nimport \"@openzeppelin/contracts-upgradeable/utils/PausableUpgradeable.sol\";\nimport \"@openzeppelin/contracts-upgradeable/access/AccessControlUpgradeable.sol\";\nimport \"./interfaces/IUTokensXPRT.sol\";\nimport \"./interfaces/ITokenWrapperXPRT.sol\";\nimport \"./libraries/Bech32.sol\";\nimport \"./libraries/FullMath.sol\";\n\ncontract TokenWrapperXPRT is\n\tITokenWrapperXPRT,\n\tPausableUpgradeable,\n\tAccessControlUpgradeable\n{\n\tusing SafeMathUpgradeable for uint256;\n\tusing FullMath for uint256;\n\tusing Bech32 for string;\n\n\t//Private instances of contracts to handle Utokens and Stokens\n\tIUTokensXPRT public _uTokens;\n\n\t// defining the fees and minimum values\n\tuint256 private _minDeposit;\n\tuint256 private _minWithdraw;\n\tuint256 private _depositFee;\n\tuint256 private _withdrawFee;\n\tuint256 public _valueDivisor;\n\n\t// constants defining access control ROLES\n\tbytes32 public constant BRIDGE_ADMIN_ROLE = keccak256(\"BRIDGE_ADMIN_ROLE\");\n\tbytes32 public constant PAUSER_ROLE = keccak256(\"PAUSER_ROLE\");\n\n\t//variables defining bech32 validation attributes\n\tbytes public hrpBytes;\n\tbytes public controlDigitBytes;\n\tuint256 public dataBytesSize;\n\n\t// variable pertaining to contract upgrades versioning\n\tuint256 public _version;\n\n\t/*\n\t * @dev Constructor for initializing the TokenWrapper contract.\n\t * @param uAddress - address of the UToken contract.\n\t * @param bridgeAdminAddress - address of the bridge admin.\n\t * @param pauserAddress - address of the pauser admin.\n\t * @param valueDivisor - valueDivisor set to 10^9.\n\t */\n\tfunction initialize(\n\t\taddress uAddress,\n\t\taddress bridgeAdminAddress,\n\t\taddress pauserAddress,\n\t\tuint256 valueDivisor,\n\t\tstring calldata hrpString,\n\t\tstring calldata controlDigitString,\n\t\tuint256 dataSize\n\t) public virtual initializer {\n\t\t__AccessControl_init();\n\t\t__Pausable_init();\n\t\t_setupRole(DEFAULT_ADMIN_ROLE, _msgSender());\n\t\t_setupRole(BRIDGE_ADMIN_ROLE, bridgeAdminAddress);\n\t\t_setupRole(PAUSER_ROLE, pauserAddress);\n\t\tsetUTokensContract(uAddress);\n\t\tsetMinimumValues(1, 1);\n\t\t_valueDivisor = valueDivisor;\n\t\t// setting bech32 validation attributes\n\t\thrpBytes = bytes(hrpString);\n\t\tcontrolDigitBytes = bytes(controlDigitString);\n\t\tdataBytesSize = dataSize;\n\t}\n\n\n\t/**\n\t * @dev Set 'fees', called from admin\n\t * @param withdrawFee: withdraw fee\n\t * @param depositFee: deposit fee\n\t *\n\t * Emits a {SetFees} event with 'fee' set to the withdraw.\n\t *\n\t */\n\tfunction setFees(uint256 depositFee, uint256 withdrawFee)\n\t\tpublic\n\t\tvirtual\n\t\toverride\n\t\treturns (bool success)\n\t{\n\t\trequire(hasRole(DEFAULT_ADMIN_ROLE, _msgSender()), \"TW1\");\n\t\t// range checks for fees. Since fee cannot be more than 100%, the max cap\n\t\t// is _valueDivisor * 100, which then brings the fees to 100 (percentage)\n\t\trequire(\n\t\t\t(depositFee <= _valueDivisor.mul(100) || depositFee == 0) &&\n\t\t\t\t(withdrawFee <= _valueDivisor.mul(100) || withdrawFee == 0),\n\t\t\t\"TW2\"\n\t\t);\n\t\t_depositFee = depositFee;\n\t\t_withdrawFee = withdrawFee;\n\t\temit SetFees(depositFee, withdrawFee);\n\t\treturn true;\n\t}\n\n\t/**\n\t * @dev get fees, minimum set values and value divisor\n\t *\n\t */\n\tfunction getProps()\n\t\tpublic\n\t\tview\n\t\tvirtual\n\t\toverride\n\t\treturns (\n\t\t\tuint256 depositFee,\n\t\t\tuint256 withdrawFee,\n\t\t\tuint256 minDeposit,\n\t\t\tuint256 minWithdraw,\n\t\t\tuint256 valueDivisor\n\t\t)\n\t{\n\t\tdepositFee = _depositFee;\n\t\twithdrawFee = _withdrawFee;\n\t\tminDeposit = _minDeposit;\n\t\tminWithdraw = _minWithdraw;\n\t\tvalueDivisor = _valueDivisor;\n\t}\n\n\t/**\n\t * @dev Set 'minimum values', called from admin\n\t * @param minDeposit: deposit minimum value\n\t * @param minWithdraw: withdraw minimum value\n\t *\n\t * Emits a {SetMinimumValues} event with 'minimum value' set to withdraw.\n\t *\n\t */\n\tfunction setMinimumValues(uint256 minDeposit, uint256 minWithdraw)\n\t\tpublic\n\t\tvirtual\n\t\toverride\n\t\treturns (bool success)\n\t{\n\t\trequire(hasRole(DEFAULT_ADMIN_ROLE, _msgSender()), \"TW3\");\n\t\trequire(minDeposit >= 1, \"TW4\");\n\t\trequire(minWithdraw >= 1, \"TW5\");\n\t\t_minDeposit = minDeposit;\n\t\t_minWithdraw = minWithdraw;\n\t\temit SetMinimumValues(minDeposit, minWithdraw);\n\t\treturn true;\n\t}\n\n\t/*\n\t * @dev Set 'contract address', called for utokens smart contract\n\t * @param uAddress: utoken contract address\n\t *\n\t * Emits a {SetUTokensContract} event with '_contract' set to the utoken contract address.\n\t *\n\t */\n\tfunction setUTokensContract(address uAddress) public virtual override {\n\t\trequire(hasRole(DEFAULT_ADMIN_ROLE, _msgSender()), \"TW6\");\n\t\t_uTokens = IUTokensXPRT(uAddress);\n\t\temit SetUTokensContract(uAddress);\n\t}\n\n\t/**\n\t * @dev Triggers stopped state.\n\t *\n\t * Requirements:\n\t *\n\t * - The contract must not be paused.\n\t */\n\tfunction pause() public virtual override returns (bool success) {\n\t\trequire(hasRole(PAUSER_ROLE, _msgSender()), \"TW7\");\n\t\t_pause();\n\t\treturn true;\n\t}\n\n\t/**\n\t * @dev Returns to normal state.\n\t *\n\t * Requirements:\n\t *\n\t * - The contract must be paused.\n\t */\n\tfunction unpause() public virtual override returns (bool success) {\n\t\trequire(hasRole(PAUSER_ROLE, _msgSender()), \"TW8\");\n\t\t_unpause();\n\t\treturn true;\n\t}\n\n\t/**\n\t * @dev common function added to be called by generateUTokens and generateUTokensInBatch and mints new utokens for the provided 'address' and 'amount'\n\t * @param to: account address, amount: number of tokens\n\t * Requirements:\n\t *\n\t * - `amount` cannot be less than zero.\n\t *\n\t */\n\tfunction _generateUTokens(address to, uint256 amount)\n\t\tinternal\n\t\tvirtual\n\t\treturns (uint256 finalTokens)\n\t{\n\t\t// the tokens to be generated to the user's address will be after the fee processing\n\t\tuint256 _fee = (amount.mulDiv(_depositFee, _valueDivisor)).div(100);\n\t\tfinalTokens = amount.sub(_fee);\n\t\t_uTokens.mint(to, finalTokens);\n\t\treturn finalTokens;\n\t}\n\n\t/**\n\t * @dev Mint new utokens for the provided 'address' and 'amount'\n\t * @param to: account address, amount: number of tokens\n\t *\n\t * Emits a {GenerateUTokens} event with 'to' set to address and 'amount' set to amount of tokens.\n\t *\n\t * Requirements:\n\t *\n\t * - `amount` cannot be less than zero.\n\t *\n\t */\n\tfunction generateUTokens(address to, uint256 amount)\n\t\tpublic\n\t\tvirtual\n\t\toverride\n\t\twhenNotPaused\n\t{\n\t\trequire(hasRole(BRIDGE_ADMIN_ROLE, _msgSender()), \"TW10\");\n\t\tuint256 _finalTokens = _generateUTokens(to, amount);\n\t\temit GenerateUTokens(to, amount, _finalTokens, block.timestamp);\n\t}\n\n\t/**\n\t * @dev Mint new utokens for the provided 'address' and 'amount' in batch\n\t * @param to[]: array of account addresses, amount[]: array of tokens\n\t *\n\t * Emits a {GenerateUTokens} event with 'to' set to address and 'amount' set to amount of tokens.\n\t *\n\t * Requirements:\n\t *\n\t * - `amount` cannot be less than zero.\n\t *\n\t */\n\tfunction generateUTokensInBatch(\n\t\taddress[] memory to,\n\t\tuint256[] memory amount\n\t) public virtual override whenNotPaused {\n\t\trequire(to.length == amount.length, \"TW11\");\n\t\trequire(hasRole(BRIDGE_ADMIN_ROLE, _msgSender()), \"TW12\");\n\t\tuint256 i;\n\t\tuint256[] memory _finalTokensArray = new uint256[](to.length);\n\t\tuint256 _toLength = to.length;\n\t\tfor (i = 0; i < _toLength; i = i.add(1)) {\n\t\t\t_finalTokensArray[i] = _generateUTokens(to[i], amount[i]);\n\t\t}\n\t\temit GenerateUTokensInBatch(\n\t\t\tto,\n\t\t\tamount,\n\t\t\t_finalTokensArray,\n\t\t\tblock.timestamp\n\t\t);\n\t}\n\n\t/**\n\t * @dev check if the address is Bech32Valid\n\t *\n\t */\n\tfunction isBech32Valid(string memory toChainAddress)\n\t\tpublic\n\t\tview\n\t\tvirtual\n\t\toverride\n\t\treturns (bool isAddressValid)\n\t{\n\t\tisAddressValid = toChainAddress.isBech32AddressValid(\n\t\t\thrpBytes,\n\t\t\tcontrolDigitBytes,\n\t\t\tdataBytesSize\n\t\t);\n\t}\n\n\t/**\n\t * @dev Burn utokens for the provided 'address' and 'tokens'\n\t * @param from: account address, tokens: number of tokens, toChainAddress: atom wallet address\n\t *\n\t * Emits a {WithdrawUTokens} event with 'from' set to address, 'finalTokens' set to amount of tokens and 'toChainAddress'\n\t *\n\t * Requirements:\n\t *\n\t * - `tokens` cannot be less than zero.\n\t *\n\t */\n\tfunction withdrawUTokens(\n\t\taddress from,\n\t\tuint256 tokens,\n\t\tstring memory toChainAddress\n\t) public virtual override whenNotPaused {\n\t\trequire(from == _msgSender(), \"TW17\");\n\t\trequire(tokens >= _minWithdraw, \"TW14\");\n\t\t//check if toChainAddress is valid address\n\t\tbool isAddressValid = toChainAddress.isBech32AddressValid(\n\t\t\thrpBytes,\n\t\t\tcontrolDigitBytes,\n\t\t\tdataBytesSize\n\t\t);\n\t\trequire(isAddressValid == true, \"TW15\");\n\t\tuint256 _currentUTokenBalance = _uTokens.balanceOf(from);\n\t\t// final tokens is the amount of tokens to be burned, including the fee\n\t\tuint256 _fee = (tokens.mulDiv(_withdrawFee, _valueDivisor)).div(100);\n\t\tuint256 _finalTokens = tokens.add(_fee);\n\t\trequire(_currentUTokenBalance >= _finalTokens, \"TW16\");\n\n\t\t_uTokens.burn(from, _finalTokens);\n\t\temit WithdrawUTokens(\n\t\t\tfrom,\n\t\t\ttokens,\n\t\t\t_finalTokens,\n\t\t\ttoChainAddress,\n\t\t\tblock.timestamp\n\t\t);\n\t}\n}\n",
  "sourcePath": "/Users/aditimaheshwari/Documents/Work/Persistence/Codebase/persistenceOne/pStake-smartContracts/contracts/TokenWrapperXPRT.sol",
  "compiler": {
    "name": "solc",
    "version": "0.7.6+commit.7338295f.Emscripten.clang"
  },
  "schemaVersion": "3.4.3",
  "updatedAt": "2022-07-21T22:40:59.793Z",
  "networkType": "ethereum",
  "devdoc": {
    "kind": "dev",
    "methods": {
      "generateUTokens(address,uint256)": {
        "details": "Mint new utokens for the provided 'address' and 'amount'",
        "params": {
          "to": ": account address, amount: number of tokens Emits a {GenerateUTokens} event with 'to' set to address and 'amount' set to amount of tokens. Requirements: - `amount` cannot be less than zero."
        }
      },
      "generateUTokensInBatch(address[],uint256[])": {
        "details": "Mint new utokens for the provided 'address' and 'amount' in batch",
        "params": {
          "to": "[]: array of account addresses, amount[]: array of tokens Emits a {GenerateUTokens} event with 'to' set to address and 'amount' set to amount of tokens. Requirements: - `amount` cannot be less than zero."
        }
      },
      "getProps()": {
        "details": "get fees, minimum set values and value divisor"
      },
      "getRoleAdmin(bytes32)": {
        "details": "Returns the admin role that controls `role`. See {grantRole} and {revokeRole}. To change a role's admin, use {_setRoleAdmin}."
      },
      "getRoleMember(bytes32,uint256)": {
        "details": "Returns one of the accounts that have `role`. `index` must be a value between 0 and {getRoleMemberCount}, non-inclusive. Role bearers are not sorted in any particular way, and their ordering may change at any point. WARNING: When using {getRoleMember} and {getRoleMemberCount}, make sure you perform all queries on the same block. See the following https://forum.openzeppelin.com/t/iterating-over-elements-on-enumerableset-in-openzeppelin-contracts/2296[forum post] for more information."
      },
      "getRoleMemberCount(bytes32)": {
        "details": "Returns the number of accounts that have `role`. Can be used together with {getRoleMember} to enumerate all bearers of a role."
      },
      "grantRole(bytes32,address)": {
        "details": "Grants `role` to `account`. If `account` had not been already granted `role`, emits a {RoleGranted} event. Requirements: - the caller must have ``role``'s admin role."
      },
      "hasRole(bytes32,address)": {
        "details": "Returns `true` if `account` has been granted `role`."
      },
      "isBech32Valid(string)": {
        "details": "check if the address is Bech32Valid"
      },
      "pause()": {
        "details": "Triggers stopped state. Requirements: - The contract must not be paused."
      },
      "paused()": {
        "details": "Returns true if the contract is paused, and false otherwise."
      },
      "renounceRole(bytes32,address)": {
        "details": "Revokes `role` from the calling account. Roles are often managed via {grantRole} and {revokeRole}: this function's purpose is to provide a mechanism for accounts to lose their privileges if they are compromised (such as when a trusted device is misplaced). If the calling account had been granted `role`, emits a {RoleRevoked} event. Requirements: - the caller must be `account`."
      },
      "revokeRole(bytes32,address)": {
        "details": "Revokes `role` from `account`. If `account` had been granted `role`, emits a {RoleRevoked} event. Requirements: - the caller must have ``role``'s admin role."
      },
      "setFees(uint256,uint256)": {
        "details": "Set 'fees', called from admin",
        "params": {
          "depositFee": ": deposit fee Emits a {SetFees} event with 'fee' set to the withdraw.",
          "withdrawFee": ": withdraw fee"
        }
      },
      "setMinimumValues(uint256,uint256)": {
        "details": "Set 'minimum values', called from admin",
        "params": {
          "minDeposit": ": deposit minimum value",
          "minWithdraw": ": withdraw minimum value Emits a {SetMinimumValues} event with 'minimum value' set to withdraw."
        }
      },
      "setUTokensContract(address)": {
        "details": "Set UTokens smart contract. Emits a {SetUTokensContract} event."
      },
      "unpause()": {
        "details": "Returns to normal state. Requirements: - The contract must be paused."
      },
      "withdrawUTokens(address,uint256,string)": {
        "details": "Burn utokens for the provided 'address' and 'tokens'",
        "params": {
          "from": ": account address, tokens: number of tokens, toChainAddress: atom wallet address Emits a {WithdrawUTokens} event with 'from' set to address, 'finalTokens' set to amount of tokens and 'toChainAddress' Requirements: - `tokens` cannot be less than zero."
        }
      }
    },
    "version": 1
  },
  "userdoc": {
    "kind": "user",
    "methods": {},
    "version": 1
  }
}