{
  "contractName": "TokenWrapper",
  "abi": [
    {
      "anonymous": false,
      "inputs": [
        {
          "indexed": true,
          "internalType": "address",
          "name": "accountAddress",
          "type": "address"
        },
        {
          "indexed": true,
          "internalType": "uint256",
          "name": "tokens",
          "type": "uint256"
        },
        {
          "indexed": false,
          "internalType": "uint256",
          "name": "finalTokens",
          "type": "uint256"
        },
        {
          "indexed": false,
          "internalType": "uint256",
          "name": "timestamp",
          "type": "uint256"
        }
      ],
      "name": "GenerateUTokens",
      "type": "event"
    },
    {
      "anonymous": false,
      "inputs": [
        {
          "indexed": false,
          "internalType": "address",
          "name": "account",
          "type": "address"
        }
      ],
      "name": "Paused",
      "type": "event"
    },
    {
      "anonymous": false,
      "inputs": [
        {
          "indexed": true,
          "internalType": "bytes32",
          "name": "role",
          "type": "bytes32"
        },
        {
          "indexed": true,
          "internalType": "bytes32",
          "name": "previousAdminRole",
          "type": "bytes32"
        },
        {
          "indexed": true,
          "internalType": "bytes32",
          "name": "newAdminRole",
          "type": "bytes32"
        }
      ],
      "name": "RoleAdminChanged",
      "type": "event"
    },
    {
      "anonymous": false,
      "inputs": [
        {
          "indexed": true,
          "internalType": "bytes32",
          "name": "role",
          "type": "bytes32"
        },
        {
          "indexed": true,
          "internalType": "address",
          "name": "account",
          "type": "address"
        },
        {
          "indexed": true,
          "internalType": "address",
          "name": "sender",
          "type": "address"
        }
      ],
      "name": "RoleGranted",
      "type": "event"
    },
    {
      "anonymous": false,
      "inputs": [
        {
          "indexed": true,
          "internalType": "bytes32",
          "name": "role",
          "type": "bytes32"
        },
        {
          "indexed": true,
          "internalType": "address",
          "name": "account",
          "type": "address"
        },
        {
          "indexed": true,
          "internalType": "address",
          "name": "sender",
          "type": "address"
        }
      ],
      "name": "RoleRevoked",
      "type": "event"
    },
    {
      "anonymous": false,
      "inputs": [
        {
          "indexed": false,
          "internalType": "uint256",
          "name": "depositFee",
          "type": "uint256"
        },
        {
          "indexed": false,
          "internalType": "uint256",
          "name": "withdrawFee",
          "type": "uint256"
        }
      ],
      "name": "SetFees",
      "type": "event"
    },
    {
      "anonymous": false,
      "inputs": [
        {
          "indexed": false,
          "internalType": "uint256",
          "name": "minDeposit",
          "type": "uint256"
        },
        {
          "indexed": false,
          "internalType": "uint256",
          "name": "minWithdraw",
          "type": "uint256"
        }
      ],
      "name": "SetMinimumValues",
      "type": "event"
    },
    {
      "anonymous": false,
      "inputs": [
        {
          "indexed": true,
          "internalType": "address",
          "name": "_contract",
          "type": "address"
        }
      ],
      "name": "SetUTokensContract",
      "type": "event"
    },
    {
      "anonymous": false,
      "inputs": [
        {
          "indexed": false,
          "internalType": "address",
          "name": "account",
          "type": "address"
        }
      ],
      "name": "Unpaused",
      "type": "event"
    },
    {
      "anonymous": false,
      "inputs": [
        {
          "indexed": true,
          "internalType": "address",
          "name": "accountAddress",
          "type": "address"
        },
        {
          "indexed": true,
          "internalType": "uint256",
          "name": "tokens",
          "type": "uint256"
        },
        {
          "indexed": false,
          "internalType": "uint256",
          "name": "finalTokens",
          "type": "uint256"
        },
        {
          "indexed": true,
          "internalType": "string",
          "name": "toChainAddress",
          "type": "string"
        },
        {
          "indexed": false,
          "internalType": "uint256",
          "name": "timestamp",
          "type": "uint256"
        }
      ],
      "name": "WithdrawUTokens",
      "type": "event"
    },
    {
      "inputs": [],
      "name": "BRIDGE_ADMIN_ROLE",
      "outputs": [
        {
          "internalType": "bytes32",
          "name": "",
          "type": "bytes32"
        }
      ],
      "stateMutability": "view",
      "type": "function",
      "constant": true
    },
    {
      "inputs": [],
      "name": "DEFAULT_ADMIN_ROLE",
      "outputs": [
        {
          "internalType": "bytes32",
          "name": "",
          "type": "bytes32"
        }
      ],
      "stateMutability": "view",
      "type": "function",
      "constant": true
    },
    {
      "inputs": [],
      "name": "PAUSER_ROLE",
      "outputs": [
        {
          "internalType": "bytes32",
          "name": "",
          "type": "bytes32"
        }
      ],
      "stateMutability": "view",
      "type": "function",
      "constant": true
    },
    {
      "inputs": [
        {
          "internalType": "bytes32",
          "name": "role",
          "type": "bytes32"
        }
      ],
      "name": "getRoleAdmin",
      "outputs": [
        {
          "internalType": "bytes32",
          "name": "",
          "type": "bytes32"
        }
      ],
      "stateMutability": "view",
      "type": "function",
      "constant": true
    },
    {
      "inputs": [
        {
          "internalType": "bytes32",
          "name": "role",
          "type": "bytes32"
        },
        {
          "internalType": "uint256",
          "name": "index",
          "type": "uint256"
        }
      ],
      "name": "getRoleMember",
      "outputs": [
        {
          "internalType": "address",
          "name": "",
          "type": "address"
        }
      ],
      "stateMutability": "view",
      "type": "function",
      "constant": true
    },
    {
      "inputs": [
        {
          "internalType": "bytes32",
          "name": "role",
          "type": "bytes32"
        }
      ],
      "name": "getRoleMemberCount",
      "outputs": [
        {
          "internalType": "uint256",
          "name": "",
          "type": "uint256"
        }
      ],
      "stateMutability": "view",
      "type": "function",
      "constant": true
    },
    {
      "inputs": [
        {
          "internalType": "bytes32",
          "name": "role",
          "type": "bytes32"
        },
        {
          "internalType": "address",
          "name": "account",
          "type": "address"
        }
      ],
      "name": "grantRole",
      "outputs": [],
      "stateMutability": "nonpayable",
      "type": "function"
    },
    {
      "inputs": [
        {
          "internalType": "bytes32",
          "name": "role",
          "type": "bytes32"
        },
        {
          "internalType": "address",
          "name": "account",
          "type": "address"
        }
      ],
      "name": "hasRole",
      "outputs": [
        {
          "internalType": "bool",
          "name": "",
          "type": "bool"
        }
      ],
      "stateMutability": "view",
      "type": "function",
      "constant": true
    },
    {
      "inputs": [],
      "name": "paused",
      "outputs": [
        {
          "internalType": "bool",
          "name": "",
          "type": "bool"
        }
      ],
      "stateMutability": "view",
      "type": "function",
      "constant": true
    },
    {
      "inputs": [
        {
          "internalType": "bytes32",
          "name": "role",
          "type": "bytes32"
        },
        {
          "internalType": "address",
          "name": "account",
          "type": "address"
        }
      ],
      "name": "renounceRole",
      "outputs": [],
      "stateMutability": "nonpayable",
      "type": "function"
    },
    {
      "inputs": [
        {
          "internalType": "bytes32",
          "name": "role",
          "type": "bytes32"
        },
        {
          "internalType": "address",
          "name": "account",
          "type": "address"
        }
      ],
      "name": "revokeRole",
      "outputs": [],
      "stateMutability": "nonpayable",
      "type": "function"
    },
    {
      "inputs": [
        {
          "internalType": "address",
          "name": "uAddress",
          "type": "address"
        },
        {
          "internalType": "address",
          "name": "bridgeAdminAddress",
          "type": "address"
        },
        {
          "internalType": "address",
          "name": "pauserAddress",
          "type": "address"
        },
        {
          "internalType": "uint256",
          "name": "valueDivisor",
          "type": "uint256"
        }
      ],
      "name": "initialize",
      "outputs": [],
      "stateMutability": "nonpayable",
      "type": "function"
    },
    {
      "inputs": [
        {
          "internalType": "uint256",
          "name": "depositFee",
          "type": "uint256"
        },
        {
          "internalType": "uint256",
          "name": "withdrawFee",
          "type": "uint256"
        }
      ],
      "name": "setFees",
      "outputs": [
        {
          "internalType": "bool",
          "name": "success",
          "type": "bool"
        }
      ],
      "stateMutability": "nonpayable",
      "type": "function"
    },
    {
      "inputs": [],
      "name": "getProps",
      "outputs": [
        {
          "internalType": "uint256",
          "name": "depositFee",
          "type": "uint256"
        },
        {
          "internalType": "uint256",
          "name": "withdrawFee",
          "type": "uint256"
        },
        {
          "internalType": "uint256",
          "name": "minDeposit",
          "type": "uint256"
        },
        {
          "internalType": "uint256",
          "name": "minWithdraw",
          "type": "uint256"
        },
        {
          "internalType": "uint256",
          "name": "valueDivisor",
          "type": "uint256"
        }
      ],
      "stateMutability": "view",
      "type": "function",
      "constant": true
    },
    {
      "inputs": [
        {
          "internalType": "uint256",
          "name": "minDeposit",
          "type": "uint256"
        },
        {
          "internalType": "uint256",
          "name": "minWithdraw",
          "type": "uint256"
        }
      ],
      "name": "setMinimumValues",
      "outputs": [
        {
          "internalType": "bool",
          "name": "success",
          "type": "bool"
        }
      ],
      "stateMutability": "nonpayable",
      "type": "function"
    },
    {
      "inputs": [
        {
          "internalType": "address",
          "name": "uAddress",
          "type": "address"
        }
      ],
      "name": "setUTokensContract",
      "outputs": [],
      "stateMutability": "nonpayable",
      "type": "function"
    },
    {
      "inputs": [],
      "name": "pause",
      "outputs": [
        {
          "internalType": "bool",
          "name": "success",
          "type": "bool"
        }
      ],
      "stateMutability": "nonpayable",
      "type": "function"
    },
    {
      "inputs": [],
      "name": "unpause",
      "outputs": [
        {
          "internalType": "bool",
          "name": "success",
          "type": "bool"
        }
      ],
      "stateMutability": "nonpayable",
      "type": "function"
    },
    {
      "inputs": [
        {
          "internalType": "address",
          "name": "to",
          "type": "address"
        },
        {
          "internalType": "uint256",
          "name": "amount",
          "type": "uint256"
        }
      ],
      "name": "generateUTokens",
      "outputs": [],
      "stateMutability": "nonpayable",
      "type": "function"
    },
    {
      "inputs": [
        {
          "internalType": "address[]",
          "name": "to",
          "type": "address[]"
        },
        {
          "internalType": "uint256[]",
          "name": "amount",
          "type": "uint256[]"
        }
      ],
      "name": "generateUTokensInBatch",
      "outputs": [],
      "stateMutability": "nonpayable",
      "type": "function"
    },
    {
      "inputs": [
        {
          "internalType": "address",
          "name": "from",
          "type": "address"
        },
        {
          "internalType": "uint256",
          "name": "tokens",
          "type": "uint256"
        },
        {
          "internalType": "string",
          "name": "toChainAddress",
          "type": "string"
        }
      ],
      "name": "withdrawUTokens",
      "outputs": [],
      "stateMutability": "nonpayable",
      "type": "function"
    }
  ],
  "bytecode": "0x608060405234801561001057600080fd5b50612a1c806100206000396000f3fe608060405234801561001057600080fd5b50600436106101375760003560e01c80635c975abb116100b8578063ca15c8731161007c578063ca15c873146103bf578063cf756fdf146103dc578063d547741f14610418578063e63ab1e914610444578063e7fa0a321461044c578063ec1893b41461057357610137565b80635c975abb1461033c5780638456cb59146103445780639010d07c1461034c57806391d148541461038b578063a217fddf146103b757610137565b80632f2ff15d116100ff5780632f2ff15d146101fe57806336568abe1461022a5780633f4ba83a14610256578063428bee9e1461025e57806351db00e71461031957610137565b80630b78f9c01461013c578063118c38c71461017357806321bdf9e51461018d57806322dd9bc3146101b5578063248a9ca3146101e1575b600080fd5b61015f6004803603604081101561015257600080fd5b50803590602001356105a6565b604080519115158252519081900360200190f35b61017b6106b1565b60408051918252519081900360200190f35b6101b3600480360360208110156101a357600080fd5b50356001600160a01b03166106c3565b005b6101b3600480360360408110156101cb57600080fd5b506001600160a01b038135169060200135610751565b61017b600480360360208110156101f757600080fd5b5035610908565b6101b36004803603604081101561021457600080fd5b50803590602001356001600160a01b0316610920565b6101b36004803603604081101561024057600080fd5b50803590602001356001600160a01b0316610987565b61015f6109e8565b6101b36004803603606081101561027457600080fd5b6001600160a01b03823516916020810135918101906060810160408201356401000000008111156102a457600080fd5b8201836020820111156102b657600080fd5b803590602001918460018302840111640100000000831117156102d857600080fd5b91908080601f016020809104026020016040519081016040528093929190818152602001838380828437600092019190915250929550610a49945050505050565b61015f6004803603604081101561032f57600080fd5b5080359060200135610eb7565b61015f610fc2565b61015f610fcb565b61036f6004803603604081101561036257600080fd5b5080359060200135611026565b604080516001600160a01b039092168252519081900360200190f35b61015f600480360360408110156103a157600080fd5b50803590602001356001600160a01b0316611045565b61017b61105d565b61017b600480360360208110156103d557600080fd5b5035611062565b6101b3600480360360808110156103f257600080fd5b506001600160a01b03813581169160208101358216916040820135169060600135611079565b6101b36004803603604081101561042e57600080fd5b50803590602001356001600160a01b03166111e7565b61017b611240565b6101b36004803603604081101561046257600080fd5b81019060208101813564010000000081111561047d57600080fd5b82018360208201111561048f57600080fd5b803590602001918460208302840111640100000000831117156104b157600080fd5b919080806020026020016040519081016040528093929190818152602001838360200280828437600092019190915250929594936020810193503591505064010000000081111561050157600080fd5b82018360208201111561051357600080fd5b8035906020019184602083028401116401000000008311171561053557600080fd5b919080806020026020016040519081016040528093929190818152602001838360200280828437600092019190915250929550611252945050505050565b61057b611467565b6040805195865260208601949094528484019290925260608401526080830152519081900360a00190f35b60006105b9816105b4611481565b611045565b6105f0576040805162461bcd60e51b815260206004820152600360248201526254573160e81b604482015290519081900360640190fd5b609c546105fe906064611485565b831115806106225750821580156106225750609c5461061e906064611485565b8211155b8061062b575081155b610662576040805162461bcd60e51b81526020600482015260036024820152622a2b9960e91b604482015290519081900360640190fd5b609a839055609b829055604080518481526020810184905281517f3be6e637f54f081a2dd12982cfd58481304fc98b604b18fa8ed4aa4e4a9d1532929181900390910190a15060015b92915050565b60008051602061297883398151915281565b6106d060006105b4611481565b610707576040805162461bcd60e51b81526020600482015260036024820152622a2b9b60e91b604482015290519081900360640190fd5b609780546001600160a01b0319166001600160a01b0383169081179091556040517ff745c285f36f88bea6af14d4d0f33dd9350cef7895216c1615b1caaee7857e0c90600090a250565b610759610fc2565b1561079e576040805162461bcd60e51b815260206004820152601060248201526f14185d5cd8589b194e881c185d5cd95960821b604482015290519081900360640190fd5b600081116107d9576040805162461bcd60e51b815260206004820152600360248201526254573960e81b604482015290519081900360640190fd5b6107f36000805160206129788339815191526105b4611481565b61082d576040805162461bcd60e51b815260206004808301919091526024820152630545731360e41b604482015290519081900360640190fd5b600061083983836114de565b9050600061087461086d6108596064609c5461148590919063ffffffff16565b609a54610867908790611485565b90611595565b84906115fc565b60408051828152426020820152815192935085926001600160a01b038816927f572f067f64ae57ed816b7e9b5424a87d97035d68384f149586cba42b4192c9d8928290030190a360408051838152426020820152815185926001600160a01b038816927f572f067f64ae57ed816b7e9b5424a87d97035d68384f149586cba42b4192c9d8929081900390910190a350505050565b6000818152606560205260409020600201545b919050565b60008281526065602052604090206002015461093e906105b4611481565b6109795760405162461bcd60e51b815260040180806020018281038252602f8152602001806128aa602f913960400191505060405180910390fd5b6109838282611659565b5050565b61098f611481565b6001600160a01b0316816001600160a01b0316146109de5760405162461bcd60e51b815260040180806020018281038252602f815260200180612998602f913960400191505060405180910390fd5b61098382826116c2565b6000610a046000805160206129588339815191526105b4611481565b610a3b576040805162461bcd60e51b81526020600482015260036024820152620a8ae760eb1b604482015290519081900360640190fd5b610a4361172b565b50600190565b610a51610fc2565b15610a96576040805162461bcd60e51b815260206004820152601060248201526f14185d5cd8589b194e881c185d5cd95960821b604482015290519081900360640190fd5b6099548211610ad5576040805162461bcd60e51b815260206004808301919091526024820152631515cc4d60e21b604482015290519081900360640190fd5b609d805460408051602060026001851615610100026000190190941693909304601f8101849004840282018401909252818152600093610c049391929091830182828015610b645780601f10610b3957610100808354040283529160200191610b64565b820191906000526020600020905b815481529060010190602001808311610b4757829003601f168201915b5050609e8054604080516020601f6002600019610100600188161502019095169490940493840181900481028201810190925282815295509193509150830182828015610bf25780601f10610bc757610100808354040283529160200191610bf2565b820191906000526020600020905b815481529060010190602001808311610bd557829003601f168201915b5050609f5488959493509150506117cb565b9050600181151514610c46576040805162461bcd60e51b815260206004808301919091526024820152635457313560e01b604482015290519081900360640190fd5b609754604080516370a0823160e01b81526001600160a01b038781166004830152915160009392909216916370a0823191602480820192602092909190829003018186803b158015610c9757600080fd5b505afa158015610cab573d6000803e3d6000fd5b505050506040513d6020811015610cc157600080fd5b5051609b54609c54919250600091610cda9187916118e2565b90506000610cf3610cec836064611595565b879061199b565b905080831015610d33576040805162461bcd60e51b815260206004808301919091526024820152632a2b989b60e11b604482015290519081900360640190fd5b610d3b611481565b6001600160a01b0316876001600160a01b031614610d89576040805162461bcd60e51b815260206004808301919091526024820152635457313760e01b604482015290519081900360640190fd5b60975460408051632770a7eb60e21b81526001600160a01b038a811660048301526024820185905291519190921691639dc29fac9160448083019260209291908290030181600087803b158015610ddf57600080fd5b505af1158015610df3573d6000803e3d6000fd5b505050506040513d6020811015610e0957600080fd5b50506040518551869190819060208401908083835b60208310610e3d5780518252601f199092019160209182019101610e1e565b51815160209384036101000a600019018019909216911617905260408051929094018290038220878352429183019190915283519095508b94506001600160a01b038d16937f0f4363f6961ed151f2cf8f720784b70c0f5573f216fc939f67f2a5d12698e02e93509181900390910190a450505050505050565b6000610ec5816105b4611481565b610efc576040805162461bcd60e51b815260206004820152600360248201526254573360e81b604482015290519081900360640190fd5b6001831015610f38576040805162461bcd60e51b81526020600482015260036024820152621515cd60ea1b604482015290519081900360640190fd5b6001821015610f74576040805162461bcd60e51b815260206004820152600360248201526254573560e81b604482015290519081900360640190fd5b60988390556099829055604080518481526020810184905281517fa94d40347449ea19b873d64ed55c99772194c49791e82be5c2dc24e4c0044fe3929181900390910190a150600192915050565b60335460ff1690565b6000610fe76000805160206129588339815191526105b4611481565b61101e576040805162461bcd60e51b815260206004820152600360248201526254573760e81b604482015290519081900360640190fd5b610a436119f5565b600082815260656020526040812061103e9083611a78565b9392505050565b600082815260656020526040812061103e9083611a84565b600081565b60008181526065602052604081206106ab90611a99565b600054610100900460ff16806110925750611092611aa4565b806110a0575060005460ff16155b6110db5760405162461bcd60e51b815260040180806020018281038252602e815260200180612909602e913960400191505060405180910390fd5b600054610100900460ff16158015611106576000805460ff1961ff0019909116610100171660011790555b61110e611ab5565b611116611b67565b6111286000611123611481565b610979565b61114060008051602061297883398151915285610979565b61115860008051602061295883398151915284610979565b611161856106c3565b61116c600180610eb7565b50609c82905560408051808201909152600680825265636f736d6f7360d01b602090920191825261119f91609d916127e6565b50604080518082019091526001808252603160f81b60209092019182526111c891609e916127e6565b506026609f5580156111e0576000805461ff00191690555b5050505050565b600082815260656020526040902060020154611205906105b4611481565b6109de5760405162461bcd60e51b81526004018080602001828103825260308152602001806128d96030913960400191505060405180910390fd5b60008051602061295883398151915281565b61125a610fc2565b1561129f576040805162461bcd60e51b815260206004820152601060248201526f14185d5cd8589b194e881c185d5cd95960821b604482015290519081900360640190fd5b80518251146112de576040805162461bcd60e51b815260206004808301919091526024820152635457313160e01b604482015290519081900360640190fd5b6112f86000805160206129788339815191526105b4611481565b611332576040805162461bcd60e51b815260206004808301919091526024820152632a2b989960e11b604482015290519081900360640190fd5b6000805b83518210156113d457600083838151811061134d57fe5b602002602001015111611390576040805162461bcd60e51b815260206004808301919091526024820152635457313360e01b604482015290519081900360640190fd5b6113c084838151811061139f57fe5b60200260200101518484815181106113b357fe5b60200260200101516114de565b90506113cd82600161199b565b9150611336565b826113e08360016115fc565b815181106113ea57fe5b6020026020010151846114076001856115fc90919063ffffffff16565b8151811061141157fe5b60200260200101516001600160a01b03167f572f067f64ae57ed816b7e9b5424a87d97035d68384f149586cba42b4192c9d88342604051808381526020018281526020019250505060405180910390a350505050565b609a54609b54609854609954609c54939492939192909190565b3390565b600082611494575060006106ab565b828202828482816114a157fe5b041461103e5760405162461bcd60e51b81526004018080602001828103825260218152602001806129376021913960400191505060405180910390fd5b6000806114fa609a54609c54856118e29092919063ffffffff16565b905061150a61086d826064611595565b609754604080516340c10f1960e01b81526001600160a01b0388811660048301526024820185905291519395509116916340c10f19916044808201926020929091908290030181600087803b15801561156257600080fd5b505af1158015611576573d6000803e3d6000fd5b505050506040513d602081101561158c57600080fd5b50505092915050565b60008082116115eb576040805162461bcd60e51b815260206004820152601a60248201527f536166654d6174683a206469766973696f6e206279207a65726f000000000000604482015290519081900360640190fd5b8183816115f457fe5b049392505050565b600082821115611653576040805162461bcd60e51b815260206004820152601e60248201527f536166654d6174683a207375627472616374696f6e206f766572666c6f770000604482015290519081900360640190fd5b50900390565b60008281526065602052604090206116719082611c04565b156109835761167e611481565b6001600160a01b0316816001600160a01b0316837f2f8788117e7eff1d82e926ec794901d17c78024a50270940304540a733656f0d60405160405180910390a45050565b60008281526065602052604090206116da9082611c19565b15610983576116e7611481565b6001600160a01b0316816001600160a01b0316837ff6391f5c32d9c69d2a47ea670b442974b53935d1edc7fd64eb21e047a839171b60405160405180910390a45050565b611733610fc2565b61177b576040805162461bcd60e51b815260206004820152601460248201527314185d5cd8589b194e881b9bdd081c185d5cd95960621b604482015290519081900360640190fd5b6033805460ff191690557f5db9ee0a495bf2e6ff9c91a7834c1ba4fdd244a5e8aa4e537bd38aeae4b073aa6117ae611481565b604080516001600160a01b039092168252519081900360200190a1565b8251600090859082906117e19083908390611c2e565b90506117ed8187611d37565b6117fc576000925050506118da565b805160009061180e9084906001611c2e565b905061181a8187611d37565b61182a57600093505050506118da565b600061184c8351600101600185518751030386611c2e9092919063ffffffff16565b9050858151146118635760009450505050506118da565b8251845160009161187f91879160018101910360061901611c2e565b9050600061188c82611d9b565b90508051600014156118a757600096505050505050506118da565b60006118b286611ef6565b905060006118c08284611f8b565b905060006118ce8683611d37565b99505050505050505050505b949350505050565b60008060006118f18686612070565b91509150600084806118ff57fe5b868809905082811115611913576001820391505b9182900391816119315784838161192657fe5b04935050505061103e565b848210611985576040805162461bcd60e51b815260206004820152601a60248201527f46756c6c4d6174683a2046554c4c4449565f4f564552464c4f57000000000000604482015290519081900360640190fd5b61199083838761209d565b979650505050505050565b60008282018381101561103e576040805162461bcd60e51b815260206004820152601b60248201527f536166654d6174683a206164646974696f6e206f766572666c6f770000000000604482015290519081900360640190fd5b6119fd610fc2565b15611a42576040805162461bcd60e51b815260206004820152601060248201526f14185d5cd8589b194e881c185d5cd95960821b604482015290519081900360640190fd5b6033805460ff191660011790557f62e78cea01bee320cd4e420270b5ea74000d11b0c9f74754ebdbfc544b05a2586117ae611481565b600061103e838361210d565b600061103e836001600160a01b038416612171565b60006106ab82612189565b6000611aaf3061218d565b15905090565b600054610100900460ff1680611ace5750611ace611aa4565b80611adc575060005460ff16155b611b175760405162461bcd60e51b815260040180806020018281038252602e815260200180612909602e913960400191505060405180910390fd5b600054610100900460ff16158015611b42576000805460ff1961ff0019909116610100171660011790555b611b4a612193565b611b52612193565b8015611b64576000805461ff00191690555b50565b600054610100900460ff1680611b805750611b80611aa4565b80611b8e575060005460ff16155b611bc95760405162461bcd60e51b815260040180806020018281038252602e815260200180612909602e913960400191505060405180910390fd5b600054610100900460ff16158015611bf4576000805460ff1961ff0019909116610100171660011790555b611bfc612193565b611b52612233565b600061103e836001600160a01b0384166122de565b600061103e836001600160a01b038416612328565b60608182601f011015611c79576040805162461bcd60e51b815260206004820152600e60248201526d736c6963655f6f766572666c6f7760901b604482015290519081900360640190fd5b81830184511015611cc5576040805162461bcd60e51b8152602060048201526011602482015270736c6963655f6f75744f66426f756e647360781b604482015290519081900360640190fd5b606082158015611ce45760405191506000825260208201604052611d2e565b6040519150601f8416801560200281840101858101878315602002848b0101015b81831015611d1d578051835260209283019201611d05565b5050858452601f01601f1916604052505b50949350505050565b815181516000916001918114808314611d535760009250611d91565b600160208701838101602088015b600284838510011415611d8c578051835114611d805760009650600093505b60209283019201611d61565b505050505b5090949350505050565b6060815167ffffffffffffffff81118015611db557600080fd5b50604051908082528060200260200182016040528015611ddf578160200160208202803683370190505b50905060606000805b8451811015611eee57600091505b6040518060400160405280602081526020016000805160206129c783398151915281525051821015611e97576040518060400160405280602081526020016000805160206129c78339815191528152508281518110611e5157fe5b602001015160f81c60f81b6001600160f81b031916858281518110611e7257fe5b01602001516001600160f81b0319161415611e8c57611e97565b600190910190611df6565b6040518060400160405280602081526020016000805160206129c783398151915281525051821415611ece5782935050505061091b565b81848281518110611edb57fe5b6020908102919091010152600101611de8565b505050919050565b6060815167ffffffffffffffff81118015611f1057600080fd5b50604051908082528060200260200182016040528015611f3a578160200160208202803683370190505b50905060005b8251811015611f8557828181518110611f5557fe5b602001015160f81c60f81b60f81c60ff16828281518110611f7257fe5b6020908102919091010152600101611f40565b50919050565b60606000611fa283611f9d86866123ee565b61248b565b90506000815167ffffffffffffffff81118015611fbe57600080fd5b506040519080825280601f01601f191660200182016040528015611fe9576020820181803683370190505b50905060005b8251811015611d2e576040518060400160405280602081526020016000805160206129c783398151915281525083828151811061202857fe5b60200260200101518151811061203a57fe5b602001015160f81c60f81b82828151811061205157fe5b60200101906001600160f81b031916908160001a905350600101611fef565b6000808060001984860990508385029250828103915082811015612095576001820391505b509250929050565b600081810382168083816120ad57fe5b0492508085816120b957fe5b0494508081600003816120c857fe5b60028581038087028203028087028203028087028203028087028203028087028203028087028203029586029003909402930460010193909302939093010292915050565b8154600090821061214f5760405162461bcd60e51b81526004018080602001828103825260228152602001806128886022913960400191505060405180910390fd5b82600001828154811061215e57fe5b9060005260206000200154905092915050565b60009081526001919091016020526040902054151590565b5490565b3b151590565b600054610100900460ff16806121ac57506121ac611aa4565b806121ba575060005460ff16155b6121f55760405162461bcd60e51b815260040180806020018281038252602e815260200180612909602e913960400191505060405180910390fd5b600054610100900460ff16158015611b52576000805460ff1961ff0019909116610100171660011790558015611b64576000805461ff001916905550565b600054610100900460ff168061224c575061224c611aa4565b8061225a575060005460ff16155b6122955760405162461bcd60e51b815260040180806020018281038252602e815260200180612909602e913960400191505060405180910390fd5b600054610100900460ff161580156122c0576000805460ff1961ff0019909116610100171660011790555b6033805460ff191690558015611b64576000805461ff001916905550565b60006122ea8383612171565b612320575081546001818101845560008481526020808220909301849055845484825282860190935260409020919091556106ab565b5060006106ab565b600081815260018301602052604081205480156123e4578354600019808301919081019060009087908390811061235b57fe5b906000526020600020015490508087600001848154811061237857fe5b6000918252602080832090910192909255828152600189810190925260409020908401905586548790806123a857fe5b600190038181906000526020600020016000905590558660010160008781526020019081526020016000206000905560019450505050506106ab565b60009150506106ab565b606060006124106124076124018661255e565b8561248b565b6000600661265b565b9050600061241d82612721565b60408051600680825260e082019092526001929092189250600091906020820160c08036833701905050905060005b6006811015612481578060050360050283901c601f1682828151811061246e57fe5b602090810291909101015260010161244c565b5095945050505050565b60606000825184510167ffffffffffffffff811180156124aa57600080fd5b506040519080825280602002602001820160405280156124d4578160200160208202803683370190505b50905060005b8451811015612516578481815181106124ef57fe5b602002602001015182828151811061250357fe5b60209081029190910101526001016124da565b60005b8451811015611d9157845160018201918691811061253357fe5b602002602001015183838060010194508151811061254d57fe5b602002602001018181525050612519565b60606000825183510160010167ffffffffffffffff8111801561258057600080fd5b506040519080825280602002602001820160405280156125aa578160200160208202803683370190505b50905060005b83518110156125f05760058482815181106125c757fe5b6020026020010151901c8282815181106125dd57fe5b60209081029190910101526001016125b0565b5060008184518151811061260057fe5b60200260200101818152505060005b83518110156126545783818151811061262457fe5b6020026020010151601f1682855183016001018151811061264157fe5b602090810291909101015260010161260f565b5092915050565b606060008285510167ffffffffffffffff8111801561267957600080fd5b506040519080825280602002602001820160405280156126a3578160200160208202803683370190505b50905060005b85518110156126e5578581815181106126be57fe5b60200260200101518282815181106126d257fe5b60209081029190910101526001016126a9565b60005b84811015612716578583838060010194508151811061270357fe5b60209081029190910101526001016126e8565b509095945050505050565b6040805160a081018252633b6a57b281526326508e6d6020820152631ea119fa91810191909152633d4233dd6060820152632a1462b360808201526000906001825b84518110156127de576000601983901c905085828151811061278157fe5b60200260200101516005846301ffffff16901b18925060005b60058110156127d457600182821c811614156127cc578481600581106127bc57fe5b602002015163ffffffff16841893505b60010161279a565b5050600101612763565b509392505050565b828054600181600116156101000203166002900490600052602060002090601f01602090048101928261281c5760008555612862565b82601f1061283557805160ff1916838001178555612862565b82800160010185558215612862579182015b82811115612862578251825591602001919060010190612847565b5061286e929150612872565b5090565b5b8082111561286e576000815560010161287356fe456e756d657261626c655365743a20696e646578206f7574206f6620626f756e6473416363657373436f6e74726f6c3a2073656e646572206d75737420626520616e2061646d696e20746f206772616e74416363657373436f6e74726f6c3a2073656e646572206d75737420626520616e2061646d696e20746f207265766f6b65496e697469616c697a61626c653a20636f6e747261637420697320616c726561647920696e697469616c697a6564536166654d6174683a206d756c7469706c69636174696f6e206f766572666c6f7765d7a28e3265b37a6474929f336521b332c1681b933f6cb9f3376673440d862a751b795d24b92e3d92d1d0d8f2885f4e9c9c269da350af36ae6b49069babf4bf416363657373436f6e74726f6c3a2063616e206f6e6c792072656e6f756e636520726f6c657320666f722073656c6671707a7279397838676632747664773073336a6e35346b686365366d7561376ca264697066735822122022c7e906b76b41ed24b83ece3b13ec60658c85320eb91f3a22417f794af0bdf464736f6c63430007060033",
  "immutableReferences": {},
  "source": "// SPDX-License-Identifier: UNLICENSED\npragma solidity >= 0.7.0;\n\nimport \"@openzeppelin/contracts-upgradeable/math/SafeMathUpgradeable.sol\";\nimport \"@openzeppelin/contracts-upgradeable/utils/PausableUpgradeable.sol\";\nimport \"@openzeppelin/contracts-upgradeable/access/AccessControlUpgradeable.sol\";\nimport \"./interfaces/IUTokens.sol\";\nimport \"./interfaces/ITokenWrapper.sol\";\nimport \"./libraries/Bech32Validation.sol\";\nimport \"./libraries/Bech32.sol\";\nimport \"./libraries/FullMath.sol\";\n\ncontract TokenWrapper is ITokenWrapper, PausableUpgradeable, AccessControlUpgradeable {\n\n    using SafeMathUpgradeable for uint256;\n    using FullMath for uint256;\n    using Bech32 for string;\n\n    //Private instances of contracts to handle Utokens and Stokens\n    IUTokens private _uTokens;\n\n    // defining the fees and minimum values\n    uint256 private _minDeposit;\n    uint256 private _minWithdraw;\n    uint256 private _depositFee;\n    uint256 private _withdrawFee;\n    uint256 private _valueDivisor;\n\n    bytes32 public constant BRIDGE_ADMIN_ROLE = keccak256(\"BRIDGE_ADMIN_ROLE\");\n    bytes32 public constant PAUSER_ROLE = keccak256(\"PAUSER_ROLE\");\n\n    bytes hrpBytes;\n    bytes controlDigitBytes;\n    uint dataBytesSize;\n\n    /*\n   * @dev Constructor for initializing the TokenWrapper contract.\n   * @param uAddress - address of the UToken contract.\n   * @param bridgeAdminAddress - address of the bridge admin.\n   * @param pauserAddress - address of the pauser admin.\n   * @param valueDivisor - valueDivisor set to 10^9.\n   */\n    function initialize(address uAddress, address bridgeAdminAddress, address pauserAddress, uint256 valueDivisor) public virtual initializer  {\n         __AccessControl_init();\n        __Pausable_init();\n        _setupRole(DEFAULT_ADMIN_ROLE, _msgSender());\n        _setupRole(BRIDGE_ADMIN_ROLE, bridgeAdminAddress);\n        _setupRole(PAUSER_ROLE, pauserAddress);\n        setUTokensContract(uAddress);\n        setMinimumValues(1, 1);\n        _valueDivisor = valueDivisor;\n        // setting bech32 validationattributes\n        hrpBytes = \"cosmos\";\n        controlDigitBytes = \"1\"; \n        dataBytesSize = 38;\n    }\n\n    /**\n     * @dev Set 'fees', called from admin\n     * @param withdrawFee: withdraw fee\n     * @param depositFee: deposit fee\n     *\n     * Emits a {SetFees} event with 'fee' set to the withdraw.\n     *\n     */\n    function setFees(uint256 depositFee, uint256 withdrawFee) public virtual returns (bool success){\n        require(hasRole(DEFAULT_ADMIN_ROLE, _msgSender()), \"TW1\");\n        // range checks for fees. Since fee cannot be more than 100%, the max cap \n        // is _valueDivisor * 100, which then brings the fees to 100 (percentage) \n        require(depositFee <= _valueDivisor.mul(100) || depositFee == 0 && withdrawFee <= _valueDivisor.mul(100) || withdrawFee == 0, \"TW2\");\n        _depositFee = depositFee;\n        _withdrawFee = withdrawFee;\n        emit SetFees(depositFee, withdrawFee);\n        return true;\n    }\n\n    /**\n     * @dev get fees, minimum set values and value divisor\n     *\n     */\n    function getProps() public view virtual returns (uint256 depositFee, uint256 withdrawFee, uint256 minDeposit, uint256 minWithdraw, uint256 valueDivisor) {\n        depositFee = _depositFee;\n        withdrawFee = _withdrawFee;\n        minDeposit = _minDeposit;\n        minWithdraw = _minWithdraw;\n        valueDivisor = _valueDivisor;\n    }\n\n    /**\n     * @dev Set 'minimum values', called from admin\n     * @param minDeposit: deposit minimum value\n     * @param minWithdraw: withdraw minimum value\n     *\n     * Emits a {SetMinimumValues} event with 'minimum value' set to withdraw.\n     *\n     */\n    function setMinimumValues(uint256 minDeposit, uint256 minWithdraw) public virtual returns (bool success){\n        require(hasRole(DEFAULT_ADMIN_ROLE, _msgSender()), \"TW3\");\n        require(minDeposit >= 1, \"TW4\");\n        require(minWithdraw >= 1, \"TW5\");\n        _minDeposit = minDeposit;\n        _minWithdraw = minWithdraw;\n        emit SetMinimumValues(minDeposit, minWithdraw);\n        return true;\n    }\n\n    /*\n     * @dev Set 'contract address', called for utokens smart contract\n     * @param uAddress: utoken contract address\n     *\n     * Emits a {SetUTokensContract} event with '_contract' set to the utoken contract address.\n     *\n     */\n    function setUTokensContract(address uAddress) public virtual override {\n        require(hasRole(DEFAULT_ADMIN_ROLE, _msgSender()), \"TW6\");\n        _uTokens = IUTokens(uAddress);\n        emit SetUTokensContract(uAddress);\n    }\n\n    /**\n      * @dev Triggers stopped state.\n      *\n      * Requirements:\n      *\n      * - The contract must not be paused.\n      */\n    function pause() public virtual returns (bool success) {\n        require(hasRole(PAUSER_ROLE, _msgSender()), \"TW7\");\n        _pause();\n        return true;\n    }\n\n    /**\n     * @dev Returns to normal state.\n     *\n     * Requirements:\n     *\n     * - The contract must be paused.\n     */\n    function unpause() public virtual returns (bool success) {\n        require(hasRole(PAUSER_ROLE, _msgSender()), \"TW8\");\n        _unpause();\n        return true;\n    }\n\n    /**\n     * @dev common function added to be called by generateUTokens and generateUTokensInBatch and mints new utokens for the provided 'address' and 'amount'\n     * @param to: account address, amount: number of tokens\n     * Requirements:\n     *\n     * - `amount` cannot be less than zero.\n     *\n     */\n    function _generateUTokens(address to, uint256 amount) internal virtual returns (uint256 finalTokens){\n        // the tokens to be generated to the user's address will be after the fee processing\n       // finalTokens = amount.sub((amount.mul(_depositFee)).div(_valueDivisor.mul(100)));\n        uint256 _temp = amount.mulDiv(_depositFee, _valueDivisor);\n        finalTokens = amount.sub(_temp.div(100));\n        _uTokens.mint(to, finalTokens);\n        return finalTokens;\n    }\n\n    /**\n     * @dev Mint new utokens for the provided 'address' and 'amount'\n     * @param to: account address, amount: number of tokens\n     *\n     * Emits a {GenerateUTokens} event with 'to' set to address and 'amount' set to amount of tokens.\n     *\n     * Requirements:\n     *\n     * - `amount` cannot be less than zero.\n     *\n     */\n    function generateUTokens(address to, uint256 amount) public virtual override whenNotPaused {\n        require(amount>0, \"TW9\");\n        require(hasRole(BRIDGE_ADMIN_ROLE, _msgSender()), \"TW10\");\n        uint256 _finalTokens = _generateUTokens(to, amount);\n        uint256 x = amount.sub((amount.mul(_depositFee)).div(_valueDivisor.mul(100)));\n        emit GenerateUTokens(to, amount, x, block.timestamp);\n        emit GenerateUTokens(to, amount, _finalTokens, block.timestamp);\n    }\n\n    /**\n     * @dev Mint new utokens for the provided 'address' and 'amount' in batch\n     * @param to[]: array of account addresses, amount[]: array of tokens\n     *\n     * Emits a {GenerateUTokens} event with 'to' set to address and 'amount' set to amount of tokens.\n     *\n     * Requirements:\n     *\n     * - `amount` cannot be less than zero.\n     *\n     */\n    function generateUTokensInBatch(address[] memory to, uint256[] memory amount) public virtual whenNotPaused {\n        require(to.length == amount.length, \"TW11\");\n        require(hasRole(BRIDGE_ADMIN_ROLE, _msgSender()), \"TW12\");\n        uint256 i;\n        uint256 _finalTokens;\n        for ( i=0; i<to.length; i=i.add(1)) {\n            require(amount[i]>0, \"TW13\");\n            _finalTokens = _generateUTokens(to[i], amount[i]);\n        }\n        emit GenerateUTokens(to[i.sub(1)], amount[i.sub(1)], _finalTokens, block.timestamp);\n    }\n\n    /**\n     * @dev Burn utokens for the provided 'address' and 'tokens'\n     * @param from: account address, tokens: number of tokens, toChainAddress: atom wallet address\n     *\n     * Emits a {WithdrawUTokens} event with 'from' set to address, 'finalTokens' set to amount of tokens and 'toChainAddress'\n     *\n     * Requirements:\n     *\n     * - `tokens` cannot be less than zero.\n     *\n     */\n    function withdrawUTokens(address from, uint256 tokens, string memory toChainAddress) public virtual override whenNotPaused {\n        require(tokens > _minWithdraw, \"TW14\");\n        //check if toChainAddress is valid address\n        bool isAddressValid = toChainAddress.isBech32AddressValid(hrpBytes, controlDigitBytes, dataBytesSize);\n        require(isAddressValid == true, \"TW15\");\n        uint256 _currentUTokenBalance = _uTokens.balanceOf(from);\n        // final tokens is the amount of tokens to be burned, including the fee\n        //uint256 _finalTokens = tokens.add((tokens.mul(_withdrawFee)).div(_valueDivisor.mul(100)));\n        uint256 _temp = tokens.mulDiv(_withdrawFee, _valueDivisor);\n        uint256 _finalTokens = tokens.add(_temp.div(100));\n        require(_currentUTokenBalance >= _finalTokens, \"TW16\");\n        require(from == _msgSender(), \"TW17\");\n        // uint256 _finalTokens = (((tokens.mul(100)).mul(_valueDivisor)).sub(_withdrawFee)).div(_valueDivisor.mul(100));\n        \n        _uTokens.burn(from, _finalTokens);\n        emit WithdrawUTokens(from, tokens, _finalTokens, toChainAddress, block.timestamp);\n    }\n}\n\n",
  "sourcePath": "/home/aditimahesh/Documents/Work/Persistence/go/src/github.com/persistenceOne/pStakeSmartContracts/contracts/TokenWrapper.sol",
  "compiler": {
    "name": "solc",
    "version": "0.7.6+commit.7338295f.Emscripten.clang"
  },
  "schemaVersion": "3.3.4",
  "updatedAt": "2021-07-05T12:11:56.739Z",
  "networkType": "ethereum",
  "devdoc": {
    "kind": "dev",
    "methods": {
      "generateUTokens(address,uint256)": {
        "details": "Mint new utokens for the provided 'address' and 'amount'",
        "params": {
          "to": ": account address, amount: number of tokens Emits a {GenerateUTokens} event with 'to' set to address and 'amount' set to amount of tokens. Requirements: - `amount` cannot be less than zero."
        }
      },
      "generateUTokensInBatch(address[],uint256[])": {
        "details": "Mint new utokens for the provided 'address' and 'amount' in batch",
        "params": {
          "to": "[]: array of account addresses, amount[]: array of tokens Emits a {GenerateUTokens} event with 'to' set to address and 'amount' set to amount of tokens. Requirements: - `amount` cannot be less than zero."
        }
      },
      "getProps()": {
        "details": "get fees, minimum set values and value divisor"
      },
      "getRoleAdmin(bytes32)": {
        "details": "Returns the admin role that controls `role`. See {grantRole} and {revokeRole}. To change a role's admin, use {_setRoleAdmin}."
      },
      "getRoleMember(bytes32,uint256)": {
        "details": "Returns one of the accounts that have `role`. `index` must be a value between 0 and {getRoleMemberCount}, non-inclusive. Role bearers are not sorted in any particular way, and their ordering may change at any point. WARNING: When using {getRoleMember} and {getRoleMemberCount}, make sure you perform all queries on the same block. See the following https://forum.openzeppelin.com/t/iterating-over-elements-on-enumerableset-in-openzeppelin-contracts/2296[forum post] for more information."
      },
      "getRoleMemberCount(bytes32)": {
        "details": "Returns the number of accounts that have `role`. Can be used together with {getRoleMember} to enumerate all bearers of a role."
      },
      "grantRole(bytes32,address)": {
        "details": "Grants `role` to `account`. If `account` had not been already granted `role`, emits a {RoleGranted} event. Requirements: - the caller must have ``role``'s admin role."
      },
      "hasRole(bytes32,address)": {
        "details": "Returns `true` if `account` has been granted `role`."
      },
      "pause()": {
        "details": "Triggers stopped state. Requirements: - The contract must not be paused."
      },
      "paused()": {
        "details": "Returns true if the contract is paused, and false otherwise."
      },
      "renounceRole(bytes32,address)": {
        "details": "Revokes `role` from the calling account. Roles are often managed via {grantRole} and {revokeRole}: this function's purpose is to provide a mechanism for accounts to lose their privileges if they are compromised (such as when a trusted device is misplaced). If the calling account had been granted `role`, emits a {RoleRevoked} event. Requirements: - the caller must be `account`."
      },
      "revokeRole(bytes32,address)": {
        "details": "Revokes `role` from `account`. If `account` had been granted `role`, emits a {RoleRevoked} event. Requirements: - the caller must have ``role``'s admin role."
      },
      "setFees(uint256,uint256)": {
        "details": "Set 'fees', called from admin",
        "params": {
          "depositFee": ": deposit fee Emits a {SetFees} event with 'fee' set to the withdraw.",
          "withdrawFee": ": withdraw fee"
        }
      },
      "setMinimumValues(uint256,uint256)": {
        "details": "Set 'minimum values', called from admin",
        "params": {
          "minDeposit": ": deposit minimum value",
          "minWithdraw": ": withdraw minimum value Emits a {SetMinimumValues} event with 'minimum value' set to withdraw."
        }
      },
      "setUTokensContract(address)": {
        "details": "Set UTokens smart contract. Emits a {SetUTokensContract} event."
      },
      "unpause()": {
        "details": "Returns to normal state. Requirements: - The contract must be paused."
      },
      "withdrawUTokens(address,uint256,string)": {
        "details": "Burn utokens for the provided 'address' and 'tokens'",
        "params": {
          "from": ": account address, tokens: number of tokens, toChainAddress: atom wallet address Emits a {WithdrawUTokens} event with 'from' set to address, 'finalTokens' set to amount of tokens and 'toChainAddress' Requirements: - `tokens` cannot be less than zero."
        }
      }
    },
    "version": 1
  },
  "userdoc": {
    "kind": "user",
    "methods": {},
    "version": 1
  }
}