{
  "contractName": "TokenWrapperXPRTV2",
  "abi": [
    {
      "anonymous": false,
      "inputs": [
        {
          "indexed": true,
          "internalType": "address",
          "name": "accountAddress",
          "type": "address"
        },
        {
          "indexed": true,
          "internalType": "uint256",
          "name": "tokens",
          "type": "uint256"
        },
        {
          "indexed": true,
          "internalType": "uint256",
          "name": "finalTokens",
          "type": "uint256"
        },
        {
          "indexed": false,
          "internalType": "uint256",
          "name": "timestamp",
          "type": "uint256"
        }
      ],
      "name": "GenerateUTokens",
      "type": "event"
    },
    {
      "anonymous": false,
      "inputs": [
        {
          "indexed": false,
          "internalType": "address[]",
          "name": "accountAddress",
          "type": "address[]"
        },
        {
          "indexed": false,
          "internalType": "uint256[]",
          "name": "tokens",
          "type": "uint256[]"
        },
        {
          "indexed": false,
          "internalType": "uint256[]",
          "name": "finalTokens",
          "type": "uint256[]"
        },
        {
          "indexed": false,
          "internalType": "uint256",
          "name": "timestamp",
          "type": "uint256"
        }
      ],
      "name": "GenerateUTokensInBatch",
      "type": "event"
    },
    {
      "anonymous": false,
      "inputs": [
        {
          "indexed": false,
          "internalType": "address",
          "name": "account",
          "type": "address"
        }
      ],
      "name": "Paused",
      "type": "event"
    },
    {
      "anonymous": false,
      "inputs": [
        {
          "indexed": true,
          "internalType": "bytes32",
          "name": "role",
          "type": "bytes32"
        },
        {
          "indexed": true,
          "internalType": "bytes32",
          "name": "previousAdminRole",
          "type": "bytes32"
        },
        {
          "indexed": true,
          "internalType": "bytes32",
          "name": "newAdminRole",
          "type": "bytes32"
        }
      ],
      "name": "RoleAdminChanged",
      "type": "event"
    },
    {
      "anonymous": false,
      "inputs": [
        {
          "indexed": true,
          "internalType": "bytes32",
          "name": "role",
          "type": "bytes32"
        },
        {
          "indexed": true,
          "internalType": "address",
          "name": "account",
          "type": "address"
        },
        {
          "indexed": true,
          "internalType": "address",
          "name": "sender",
          "type": "address"
        }
      ],
      "name": "RoleGranted",
      "type": "event"
    },
    {
      "anonymous": false,
      "inputs": [
        {
          "indexed": true,
          "internalType": "bytes32",
          "name": "role",
          "type": "bytes32"
        },
        {
          "indexed": true,
          "internalType": "address",
          "name": "account",
          "type": "address"
        },
        {
          "indexed": true,
          "internalType": "address",
          "name": "sender",
          "type": "address"
        }
      ],
      "name": "RoleRevoked",
      "type": "event"
    },
    {
      "anonymous": false,
      "inputs": [
        {
          "indexed": true,
          "internalType": "uint256",
          "name": "depositFee",
          "type": "uint256"
        },
        {
          "indexed": true,
          "internalType": "uint256",
          "name": "withdrawFee",
          "type": "uint256"
        }
      ],
      "name": "SetFees",
      "type": "event"
    },
    {
      "anonymous": false,
      "inputs": [
        {
          "indexed": true,
          "internalType": "uint256",
          "name": "minDeposit",
          "type": "uint256"
        },
        {
          "indexed": true,
          "internalType": "uint256",
          "name": "minWithdraw",
          "type": "uint256"
        }
      ],
      "name": "SetMinimumValues",
      "type": "event"
    },
    {
      "anonymous": false,
      "inputs": [
        {
          "indexed": true,
          "internalType": "address",
          "name": "_contract",
          "type": "address"
        }
      ],
      "name": "SetUTokensContract",
      "type": "event"
    },
    {
      "anonymous": false,
      "inputs": [
        {
          "indexed": false,
          "internalType": "address",
          "name": "account",
          "type": "address"
        }
      ],
      "name": "Unpaused",
      "type": "event"
    },
    {
      "anonymous": false,
      "inputs": [
        {
          "indexed": true,
          "internalType": "address",
          "name": "accountAddress",
          "type": "address"
        },
        {
          "indexed": true,
          "internalType": "uint256",
          "name": "tokens",
          "type": "uint256"
        },
        {
          "indexed": false,
          "internalType": "uint256",
          "name": "finalTokens",
          "type": "uint256"
        },
        {
          "indexed": true,
          "internalType": "string",
          "name": "toChainAddress",
          "type": "string"
        },
        {
          "indexed": false,
          "internalType": "uint256",
          "name": "timestamp",
          "type": "uint256"
        }
      ],
      "name": "WithdrawUTokens",
      "type": "event"
    },
    {
      "anonymous": false,
      "inputs": [
        {
          "indexed": true,
          "internalType": "address",
          "name": "accountAddress",
          "type": "address"
        },
        {
          "indexed": true,
          "internalType": "uint256",
          "name": "tokens",
          "type": "uint256"
        },
        {
          "indexed": true,
          "internalType": "uint256",
          "name": "finalTokens",
          "type": "uint256"
        },
        {
          "indexed": false,
          "internalType": "string",
          "name": "toChainAddress",
          "type": "string"
        },
        {
          "indexed": false,
          "internalType": "uint256",
          "name": "timestamp",
          "type": "uint256"
        }
      ],
      "name": "WithdrawUTokensV2",
      "type": "event"
    },
    {
      "inputs": [],
      "name": "BRIDGE_ADMIN_ROLE",
      "outputs": [
        {
          "internalType": "bytes32",
          "name": "",
          "type": "bytes32"
        }
      ],
      "stateMutability": "view",
      "type": "function"
    },
    {
      "inputs": [],
      "name": "DEFAULT_ADMIN_ROLE",
      "outputs": [
        {
          "internalType": "bytes32",
          "name": "",
          "type": "bytes32"
        }
      ],
      "stateMutability": "view",
      "type": "function"
    },
    {
      "inputs": [],
      "name": "PAUSER_ROLE",
      "outputs": [
        {
          "internalType": "bytes32",
          "name": "",
          "type": "bytes32"
        }
      ],
      "stateMutability": "view",
      "type": "function"
    },
    {
      "inputs": [],
      "name": "_uTokens",
      "outputs": [
        {
          "internalType": "contract IUTokensXPRT",
          "name": "",
          "type": "address"
        }
      ],
      "stateMutability": "view",
      "type": "function"
    },
    {
      "inputs": [],
      "name": "_valueDivisor",
      "outputs": [
        {
          "internalType": "uint256",
          "name": "",
          "type": "uint256"
        }
      ],
      "stateMutability": "view",
      "type": "function"
    },
    {
      "inputs": [],
      "name": "_version",
      "outputs": [
        {
          "internalType": "uint256",
          "name": "",
          "type": "uint256"
        }
      ],
      "stateMutability": "view",
      "type": "function"
    },
    {
      "inputs": [],
      "name": "controlDigitBytes",
      "outputs": [
        {
          "internalType": "bytes",
          "name": "",
          "type": "bytes"
        }
      ],
      "stateMutability": "view",
      "type": "function"
    },
    {
      "inputs": [],
      "name": "dataBytesSize",
      "outputs": [
        {
          "internalType": "uint256",
          "name": "",
          "type": "uint256"
        }
      ],
      "stateMutability": "view",
      "type": "function"
    },
    {
      "inputs": [
        {
          "internalType": "bytes32",
          "name": "role",
          "type": "bytes32"
        }
      ],
      "name": "getRoleAdmin",
      "outputs": [
        {
          "internalType": "bytes32",
          "name": "",
          "type": "bytes32"
        }
      ],
      "stateMutability": "view",
      "type": "function"
    },
    {
      "inputs": [
        {
          "internalType": "bytes32",
          "name": "role",
          "type": "bytes32"
        },
        {
          "internalType": "uint256",
          "name": "index",
          "type": "uint256"
        }
      ],
      "name": "getRoleMember",
      "outputs": [
        {
          "internalType": "address",
          "name": "",
          "type": "address"
        }
      ],
      "stateMutability": "view",
      "type": "function"
    },
    {
      "inputs": [
        {
          "internalType": "bytes32",
          "name": "role",
          "type": "bytes32"
        }
      ],
      "name": "getRoleMemberCount",
      "outputs": [
        {
          "internalType": "uint256",
          "name": "",
          "type": "uint256"
        }
      ],
      "stateMutability": "view",
      "type": "function"
    },
    {
      "inputs": [
        {
          "internalType": "bytes32",
          "name": "role",
          "type": "bytes32"
        },
        {
          "internalType": "address",
          "name": "account",
          "type": "address"
        }
      ],
      "name": "grantRole",
      "outputs": [],
      "stateMutability": "nonpayable",
      "type": "function"
    },
    {
      "inputs": [
        {
          "internalType": "bytes32",
          "name": "role",
          "type": "bytes32"
        },
        {
          "internalType": "address",
          "name": "account",
          "type": "address"
        }
      ],
      "name": "hasRole",
      "outputs": [
        {
          "internalType": "bool",
          "name": "",
          "type": "bool"
        }
      ],
      "stateMutability": "view",
      "type": "function"
    },
    {
      "inputs": [],
      "name": "hrpBytes",
      "outputs": [
        {
          "internalType": "bytes",
          "name": "",
          "type": "bytes"
        }
      ],
      "stateMutability": "view",
      "type": "function"
    },
    {
      "inputs": [],
      "name": "paused",
      "outputs": [
        {
          "internalType": "bool",
          "name": "",
          "type": "bool"
        }
      ],
      "stateMutability": "view",
      "type": "function"
    },
    {
      "inputs": [
        {
          "internalType": "bytes32",
          "name": "role",
          "type": "bytes32"
        },
        {
          "internalType": "address",
          "name": "account",
          "type": "address"
        }
      ],
      "name": "renounceRole",
      "outputs": [],
      "stateMutability": "nonpayable",
      "type": "function"
    },
    {
      "inputs": [
        {
          "internalType": "bytes32",
          "name": "role",
          "type": "bytes32"
        },
        {
          "internalType": "address",
          "name": "account",
          "type": "address"
        }
      ],
      "name": "revokeRole",
      "outputs": [],
      "stateMutability": "nonpayable",
      "type": "function"
    },
    {
      "inputs": [
        {
          "internalType": "address",
          "name": "uAddress",
          "type": "address"
        },
        {
          "internalType": "address",
          "name": "bridgeAdminAddress",
          "type": "address"
        },
        {
          "internalType": "address",
          "name": "pauserAddress",
          "type": "address"
        },
        {
          "internalType": "uint256",
          "name": "valueDivisor",
          "type": "uint256"
        },
        {
          "internalType": "string",
          "name": "hrpString",
          "type": "string"
        },
        {
          "internalType": "string",
          "name": "controlDigitString",
          "type": "string"
        },
        {
          "internalType": "uint256",
          "name": "dataSize",
          "type": "uint256"
        }
      ],
      "name": "initialize",
      "outputs": [],
      "stateMutability": "nonpayable",
      "type": "function"
    },
    {
      "inputs": [
        {
          "internalType": "uint256",
          "name": "depositFee",
          "type": "uint256"
        },
        {
          "internalType": "uint256",
          "name": "withdrawFee",
          "type": "uint256"
        }
      ],
      "name": "setFees",
      "outputs": [
        {
          "internalType": "bool",
          "name": "success",
          "type": "bool"
        }
      ],
      "stateMutability": "nonpayable",
      "type": "function"
    },
    {
      "inputs": [],
      "name": "getProps",
      "outputs": [
        {
          "internalType": "uint256",
          "name": "depositFee",
          "type": "uint256"
        },
        {
          "internalType": "uint256",
          "name": "withdrawFee",
          "type": "uint256"
        },
        {
          "internalType": "uint256",
          "name": "minDeposit",
          "type": "uint256"
        },
        {
          "internalType": "uint256",
          "name": "minWithdraw",
          "type": "uint256"
        },
        {
          "internalType": "uint256",
          "name": "valueDivisor",
          "type": "uint256"
        }
      ],
      "stateMutability": "view",
      "type": "function"
    },
    {
      "inputs": [
        {
          "internalType": "uint256",
          "name": "minDeposit",
          "type": "uint256"
        },
        {
          "internalType": "uint256",
          "name": "minWithdraw",
          "type": "uint256"
        }
      ],
      "name": "setMinimumValues",
      "outputs": [
        {
          "internalType": "bool",
          "name": "success",
          "type": "bool"
        }
      ],
      "stateMutability": "nonpayable",
      "type": "function"
    },
    {
      "inputs": [
        {
          "internalType": "address",
          "name": "uAddress",
          "type": "address"
        }
      ],
      "name": "setUTokensContract",
      "outputs": [],
      "stateMutability": "nonpayable",
      "type": "function"
    },
    {
      "inputs": [],
      "name": "pause",
      "outputs": [
        {
          "internalType": "bool",
          "name": "success",
          "type": "bool"
        }
      ],
      "stateMutability": "nonpayable",
      "type": "function"
    },
    {
      "inputs": [],
      "name": "unpause",
      "outputs": [
        {
          "internalType": "bool",
          "name": "success",
          "type": "bool"
        }
      ],
      "stateMutability": "nonpayable",
      "type": "function"
    },
    {
      "inputs": [
        {
          "internalType": "address",
          "name": "to",
          "type": "address"
        },
        {
          "internalType": "uint256",
          "name": "amount",
          "type": "uint256"
        }
      ],
      "name": "generateUTokens",
      "outputs": [
        {
          "internalType": "uint256",
          "name": "wrappedTokens",
          "type": "uint256"
        }
      ],
      "stateMutability": "nonpayable",
      "type": "function"
    },
    {
      "inputs": [
        {
          "internalType": "address[]",
          "name": "to",
          "type": "address[]"
        },
        {
          "internalType": "uint256[]",
          "name": "amount",
          "type": "uint256[]"
        }
      ],
      "name": "generateUTokensInBatch",
      "outputs": [
        {
          "internalType": "uint256[]",
          "name": "wrappedTokensArray",
          "type": "uint256[]"
        }
      ],
      "stateMutability": "nonpayable",
      "type": "function"
    },
    {
      "inputs": [
        {
          "internalType": "string",
          "name": "toChainAddress",
          "type": "string"
        }
      ],
      "name": "isBech32Valid",
      "outputs": [
        {
          "internalType": "bool",
          "name": "isAddressValid",
          "type": "bool"
        }
      ],
      "stateMutability": "view",
      "type": "function"
    },
    {
      "inputs": [
        {
          "internalType": "address",
          "name": "from",
          "type": "address"
        },
        {
          "internalType": "uint256",
          "name": "tokens",
          "type": "uint256"
        },
        {
          "internalType": "string",
          "name": "toChainAddress",
          "type": "string"
        }
      ],
      "name": "withdrawUTokens",
      "outputs": [
        {
          "internalType": "uint256",
          "name": "unwrappedTokens",
          "type": "uint256"
        }
      ],
      "stateMutability": "nonpayable",
      "type": "function"
    }
  ],
  "bytecode": "0x608060405234801561001057600080fd5b50612e9f806100206000396000f3fe608060405234801561001057600080fd5b50600436106101c45760003560e01c806378a2f074116100f9578063ca15c87311610097578063e3ac914b11610071578063e3ac914b146106ba578063e63ab1e9146106c2578063e7fa0a32146106ca578063ec1893b41461083d576101c4565b8063ca15c87314610669578063d37f559814610686578063d547741f1461068e576101c4565b80639010d07c116100d35780639010d07c1461059557806391d14854146105b8578063a217fddf146105e4578063a53dcd72146105ec576101c4565b806378a2f074146104c55780638456cb59146104e95780638f001d4e146104f1576101c4565b80633e070d9311610166578063428bee9e11610140578063428bee9e146103d957806351db00e7146104925780635c975abb146104b5578063728a99ee146104bd576101c4565b80633e070d93146102e35780633e118dbe146103c95780633f4ba83a146103d1576101c4565b806322dd9bc3116101a257806322dd9bc314610242578063248a9ca31461026e5780632f2ff15d1461028b57806336568abe146102b7576101c4565b80630b78f9c0146101c9578063118c38c71461020057806321bdf9e51461021a575b600080fd5b6101ec600480360360408110156101df57600080fd5b5080359060200135610870565b604080519115158252519081900360200190f35b61020861096d565b60408051918252519081900360200190f35b6102406004803603602081101561023057600080fd5b50356001600160a01b031661097f565b005b6102086004803603604081101561025857600080fd5b506001600160a01b038135169060200135610a0d565b6102086004803603602081101561028457600080fd5b5035610b05565b610240600480360360408110156102a157600080fd5b50803590602001356001600160a01b0316610b1d565b610240600480360360408110156102cd57600080fd5b50803590602001356001600160a01b0316610b84565b610240600480360360e08110156102f957600080fd5b6001600160a01b03823581169260208101358216926040820135909216916060820135919081019060a081016080820135600160201b81111561033b57600080fd5b82018360208201111561034d57600080fd5b803590602001918460018302840111600160201b8311171561036e57600080fd5b919390929091602081019035600160201b81111561038b57600080fd5b82018360208201111561039d57600080fd5b803590602001918460018302840111600160201b831117156103be57600080fd5b919350915035610be5565b610208610d1b565b6101ec610d21565b610208600480360360608110156103ef57600080fd5b6001600160a01b0382351691602081013591810190606081016040820135600160201b81111561041e57600080fd5b82018360208201111561043057600080fd5b803590602001918460018302840111600160201b8311171561045157600080fd5b91908080601f016020809104026020016040519081016040528093929190818152602001838380828437600092019190915250929550610d82945050505050565b6101ec600480360360408110156104a857600080fd5b50803590602001356111f3565b6101ec6112f0565b6102086112f9565b6104cd6112ff565b604080516001600160a01b039092168252519081900360200190f35b6101ec61130e565b6101ec6004803603602081101561050757600080fd5b810190602081018135600160201b81111561052157600080fd5b82018360208201111561053357600080fd5b803590602001918460018302840111600160201b8311171561055457600080fd5b91908080601f016020809104026020016040519081016040528093929190818152602001838380828437600092019190915250929550611369945050505050565b6104cd600480360360408110156105ab57600080fd5b5080359060200135611498565b6101ec600480360360408110156105ce57600080fd5b50803590602001356001600160a01b03166114b7565b6102086114cf565b6105f46114d4565b6040805160208082528351818301528351919283929083019185019080838360005b8381101561062e578181015183820152602001610616565b50505050905090810190601f16801561065b5780820380516001836020036101000a031916815260200191505b509250505060405180910390f35b6102086004803603602081101561067f57600080fd5b5035611562565b6105f4611579565b610240600480360360408110156106a457600080fd5b50803590602001356001600160a01b03166115d4565b61020861162d565b610208611633565b6107ed600480360360408110156106e057600080fd5b810190602081018135600160201b8111156106fa57600080fd5b82018360208201111561070c57600080fd5b803590602001918460208302840111600160201b8311171561072d57600080fd5b9190808060200260200160405190810160405280939291908181526020018383602002808284376000920191909152509295949360208101935035915050600160201b81111561077c57600080fd5b82018360208201111561078e57600080fd5b803590602001918460208302840111600160201b831117156107af57600080fd5b919080806020026020016040519081016040528093929190818152602001838360200280828437600092019190915250929550611645945050505050565b60408051602080825283518183015283519192839290830191858101910280838360005b83811015610829578181015183820152602001610811565b505050509050019250505060405180910390f35b6108456118e8565b6040805195865260208601949094528484019290925260608401526080830152519081900360a00190f35b60006108838161087e611902565b6114b7565b6108ba576040805162461bcd60e51b815260206004820152600360248201526254573160e81b604482015290519081900360640190fd5b609c546108c8906064611906565b831115806108d4575082155b80156108f55750609c546108e9906064611906565b821115806108f5575081155b61092c576040805162461bcd60e51b81526020600482015260036024820152622a2b9960e91b604482015290519081900360640190fd5b609a839055609b829055604051829084907f3be6e637f54f081a2dd12982cfd58481304fc98b604b18fa8ed4aa4e4a9d153290600090a35060015b92915050565b600080516020612dfb83398151915281565b61098c600061087e611902565b6109c3576040805162461bcd60e51b81526020600482015260036024820152622a2b9b60e91b604482015290519081900360640190fd5b609780546001600160a01b0319166001600160a01b0383169081179091556040517ff745c285f36f88bea6af14d4d0f33dd9350cef7895216c1615b1caaee7857e0c90600090a250565b6000610a176112f0565b15610a5c576040805162461bcd60e51b815260206004820152601060248201526f14185d5cd8589b194e881c185d5cd95960821b604482015290519081900360640190fd5b610a76600080516020612dfb83398151915261087e611902565b610ab0576040805162461bcd60e51b815260206004808301919091526024820152630545731360e41b604482015290519081900360640190fd5b610aba838361195f565b90508181846001600160a01b03167f572f067f64ae57ed816b7e9b5424a87d97035d68384f149586cba42b4192c9d8426040518082815260200191505060405180910390a492915050565b6000818152606560205260409020600201545b919050565b600082815260656020526040902060020154610b3b9061087e611902565b610b765760405162461bcd60e51b815260040180806020018281038252602f815260200180612d2d602f913960400191505060405180910390fd5b610b808282611a18565b5050565b610b8c611902565b6001600160a01b0316816001600160a01b031614610bdb5760405162461bcd60e51b815260040180806020018281038252602f815260200180612e1b602f913960400191505060405180910390fd5b610b808282611a81565b600054610100900460ff1680610bfe5750610bfe611aea565b80610c0c575060005460ff16155b610c475760405162461bcd60e51b815260040180806020018281038252602e815260200180612d8c602e913960400191505060405180910390fd5b600054610100900460ff16158015610c72576000805460ff1961ff0019909116610100171660011790555b610c7a611afb565b610c82611bad565b610c946000610c8f611902565b610b76565b610cac600080516020612dfb8339815191528a610b76565b610cc4600080516020612ddb83398151915289610b76565b610ccd8a61097f565b610cd86001806111f3565b50609c879055610cea609d8787612c69565b50610cf7609e8585612c69565b50609f8290558015610d0f576000805461ff00191690555b50505050505050505050565b60a05481565b6000610d3d600080516020612ddb83398151915261087e611902565b610d74576040805162461bcd60e51b81526020600482015260036024820152620a8ae760eb1b604482015290519081900360640190fd5b610d7c611c4a565b50600190565b6000610d8c6112f0565b15610dd1576040805162461bcd60e51b815260206004820152601060248201526f14185d5cd8589b194e881c185d5cd95960821b604482015290519081900360640190fd5b610dd9611902565b6001600160a01b0316846001600160a01b031614610e27576040805162461bcd60e51b815260206004808301919091526024820152635457313760e01b604482015290519081900360640190fd5b609954831015610e67576040805162461bcd60e51b815260206004808301919091526024820152631515cc4d60e21b604482015290519081900360640190fd5b609d805460408051602060026001851615610100026000190190941693909304601f8101849004840282018401909252818152600093610f969391929091830182828015610ef65780601f10610ecb57610100808354040283529160200191610ef6565b820191906000526020600020905b815481529060010190602001808311610ed957829003601f168201915b5050609e8054604080516020601f6002600019610100600188161502019095169490940493840181900481028201810190925282815295509193509150830182828015610f845780601f10610f5957610100808354040283529160200191610f84565b820191906000526020600020905b815481529060010190602001808311610f6757829003601f168201915b5050609f548995949350915050611cea565b9050600181151514610fd8576040805162461bcd60e51b815260206004808301919091526024820152635457313560e01b604482015290519081900360640190fd5b609754604080516370a0823160e01b81526001600160a01b038881166004830152915160009392909216916370a0823191602480820192602092909190829003018186803b15801561102957600080fd5b505afa15801561103d573d6000803e3d6000fd5b505050506040513d602081101561105357600080fd5b5051609b54609c5491925060009161107991606491611073918a91611e01565b90611eba565b90506110858682611f21565b9350838210156110c5576040805162461bcd60e51b815260206004808301919091526024820152632a2b989b60e11b604482015290519081900360640190fd5b846040518082805190602001908083835b602083106110f55780518252601f1990920191602091820191016110d6565b51815160209384036101000a6000190180199092169116179052604080519290940182900382208c8352429183019190915283519095508994506001600160a01b038d16937f0f4363f6961ed151f2cf8f720784b70c0f5573f216fc939f67f2a5d12698e02e93509181900390910190a460975460408051632770a7eb60e21b81526001600160a01b038a81166004830152602482018a905291519190921691639dc29fac9160448083019260209291908290030181600087803b1580156111bc57600080fd5b505af11580156111d0573d6000803e3d6000fd5b505050506040513d60208110156111e657600080fd5b5093979650505050505050565b60006112018161087e611902565b611238576040805162461bcd60e51b815260206004820152600360248201526254573360e81b604482015290519081900360640190fd5b6001831015611274576040805162461bcd60e51b81526020600482015260036024820152621515cd60ea1b604482015290519081900360640190fd5b60018210156112b0576040805162461bcd60e51b815260206004820152600360248201526254573560e81b604482015290519081900360640190fd5b60988390556099829055604051829084907fa94d40347449ea19b873d64ed55c99772194c49791e82be5c2dc24e4c0044fe390600090a350600192915050565b60335460ff1690565b609c5481565b6097546001600160a01b031681565b600061132a600080516020612ddb83398151915261087e611902565b611361576040805162461bcd60e51b815260206004820152600360248201526254573760e81b604482015290519081900360640190fd5b610d7c611f7e565b609d805460408051602060026001851615610100026000190190941693909304601f810184900484028201840190925281815260009361096793919290918301828280156113f85780601f106113cd576101008083540402835291602001916113f8565b820191906000526020600020905b8154815290600101906020018083116113db57829003601f168201915b5050609e8054604080516020601f60026000196101006001881615020190951694909404938401819004810282018101909252828152955091935091508301828280156114865780601f1061145b57610100808354040283529160200191611486565b820191906000526020600020905b81548152906001019060200180831161146957829003601f168201915b5050609f548895949350915050611cea565b60008281526065602052604081206114b09083612001565b9392505050565b60008281526065602052604081206114b0908361200d565b600081565b609e805460408051602060026001851615610100026000190190941693909304601f8101849004840282018401909252818152929183018282801561155a5780601f1061152f5761010080835404028352916020019161155a565b820191906000526020600020905b81548152906001019060200180831161153d57829003601f168201915b505050505081565b600081815260656020526040812061096790612022565b609d805460408051602060026001851615610100026000190190941693909304601f8101849004840282018401909252818152929183018282801561155a5780601f1061152f5761010080835404028352916020019161155a565b6000828152606560205260409020600201546115f29061087e611902565b610bdb5760405162461bcd60e51b8152600401808060200182810382526030815260200180612d5c6030913960400191505060405180910390fd5b609f5481565b600080516020612ddb83398151915281565b606061164f6112f0565b15611694576040805162461bcd60e51b815260206004820152601060248201526f14185d5cd8589b194e881c185d5cd95960821b604482015290519081900360640190fd5b81518351146116d3576040805162461bcd60e51b815260206004808301919091526024820152635457313160e01b604482015290519081900360640190fd5b6116ed600080516020612dfb83398151915261087e611902565b611727576040805162461bcd60e51b815260206004808301919091526024820152632a2b989960e11b604482015290519081900360640190fd5b6000835167ffffffffffffffff8111801561174157600080fd5b5060405190808252806020026020018201604052801561176b578160200160208202803683370190505b508451909250600091505b808210156117d7576117ae85838151811061178d57fe5b60200260200101518584815181106117a157fe5b602002602001015161195f565b8383815181106117ba57fe5b60209081029190910101526117d082600161202d565b9150611776565b7fff03029439b5b79825ca34bca1b453f01e01935bdde5210a8af22f19705ca1a38585854260405180806020018060200180602001858152602001848103845288818151815260200191508051906020019060200280838360005b8381101561184a578181015183820152602001611832565b50505050905001848103835287818151815260200191508051906020019060200280838360005b83811015611889578181015183820152602001611871565b50505050905001848103825286818151815260200191508051906020019060200280838360005b838110156118c85781810151838201526020016118b0565b5050505090500197505050505050505060405180910390a1505092915050565b609a54609b54609854609954609c54939492939192909190565b3390565b60008261191557506000610967565b8282028284828161192257fe5b04146114b05760405162461bcd60e51b8152600401808060200182810382526021815260200180612dba6021913960400191505060405180910390fd5b6000806119806064611073609a54609c5487611e019092919063ffffffff16565b905061198c8382611f21565b609754604080516340c10f1960e01b81526001600160a01b0388811660048301526024820185905291519395509116916340c10f19916044808201926020929091908290030181600087803b1580156119e457600080fd5b505af11580156119f8573d6000803e3d6000fd5b505050506040513d6020811015611a0e57600080fd5b5091949350505050565b6000828152606560205260409020611a309082612087565b15610b8057611a3d611902565b6001600160a01b0316816001600160a01b0316837f2f8788117e7eff1d82e926ec794901d17c78024a50270940304540a733656f0d60405160405180910390a45050565b6000828152606560205260409020611a99908261209c565b15610b8057611aa6611902565b6001600160a01b0316816001600160a01b0316837ff6391f5c32d9c69d2a47ea670b442974b53935d1edc7fd64eb21e047a839171b60405160405180910390a45050565b6000611af5306120b1565b15905090565b600054610100900460ff1680611b145750611b14611aea565b80611b22575060005460ff16155b611b5d5760405162461bcd60e51b815260040180806020018281038252602e815260200180612d8c602e913960400191505060405180910390fd5b600054610100900460ff16158015611b88576000805460ff1961ff0019909116610100171660011790555b611b906120b7565b611b986120b7565b8015611baa576000805461ff00191690555b50565b600054610100900460ff1680611bc65750611bc6611aea565b80611bd4575060005460ff16155b611c0f5760405162461bcd60e51b815260040180806020018281038252602e815260200180612d8c602e913960400191505060405180910390fd5b600054610100900460ff16158015611c3a576000805460ff1961ff0019909116610100171660011790555b611c426120b7565b611b98612157565b611c526112f0565b611c9a576040805162461bcd60e51b815260206004820152601460248201527314185d5cd8589b194e881b9bdd081c185d5cd95960621b604482015290519081900360640190fd5b6033805460ff191690557f5db9ee0a495bf2e6ff9c91a7834c1ba4fdd244a5e8aa4e537bd38aeae4b073aa611ccd611902565b604080516001600160a01b039092168252519081900360200190a1565b825160009085908290611d009083908390612202565b9050611d0c818761230b565b611d1b57600092505050611df9565b8051600090611d2d9084906001612202565b9050611d39818761230b565b611d495760009350505050611df9565b6000611d6b83516001016001855187510303866122029092919063ffffffff16565b905085815114611d82576000945050505050611df9565b82518451600091611d9e91879160018101910360061901612202565b90506000611dab8261236f565b9050805160001415611dc65760009650505050505050611df9565b6000611dd1866124ca565b90506000611ddf828461255f565b90506000611ded868361230b565b99505050505050505050505b949350505050565b6000806000611e108686612644565b9150915060008480611e1e57fe5b868809905082811115611e32576001820391505b918290039181611e5057848381611e4557fe5b0493505050506114b0565b848210611ea4576040805162461bcd60e51b815260206004820152601a60248201527f46756c6c4d6174683a2046554c4c4449565f4f564552464c4f57000000000000604482015290519081900360640190fd5b611eaf838387612671565b979650505050505050565b6000808211611f10576040805162461bcd60e51b815260206004820152601a60248201527f536166654d6174683a206469766973696f6e206279207a65726f000000000000604482015290519081900360640190fd5b818381611f1957fe5b049392505050565b600082821115611f78576040805162461bcd60e51b815260206004820152601e60248201527f536166654d6174683a207375627472616374696f6e206f766572666c6f770000604482015290519081900360640190fd5b50900390565b611f866112f0565b15611fcb576040805162461bcd60e51b815260206004820152601060248201526f14185d5cd8589b194e881c185d5cd95960821b604482015290519081900360640190fd5b6033805460ff191660011790557f62e78cea01bee320cd4e420270b5ea74000d11b0c9f74754ebdbfc544b05a258611ccd611902565b60006114b083836126e1565b60006114b0836001600160a01b038416612745565b60006109678261275d565b6000828201838110156114b0576040805162461bcd60e51b815260206004820152601b60248201527f536166654d6174683a206164646974696f6e206f766572666c6f770000000000604482015290519081900360640190fd5b60006114b0836001600160a01b038416612761565b60006114b0836001600160a01b0384166127ab565b3b151590565b600054610100900460ff16806120d057506120d0611aea565b806120de575060005460ff16155b6121195760405162461bcd60e51b815260040180806020018281038252602e815260200180612d8c602e913960400191505060405180910390fd5b600054610100900460ff16158015611b98576000805460ff1961ff0019909116610100171660011790558015611baa576000805461ff001916905550565b600054610100900460ff16806121705750612170611aea565b8061217e575060005460ff16155b6121b95760405162461bcd60e51b815260040180806020018281038252602e815260200180612d8c602e913960400191505060405180910390fd5b600054610100900460ff161580156121e4576000805460ff1961ff0019909116610100171660011790555b6033805460ff191690558015611baa576000805461ff001916905550565b60608182601f01101561224d576040805162461bcd60e51b815260206004820152600e60248201526d736c6963655f6f766572666c6f7760901b604482015290519081900360640190fd5b81830184511015612299576040805162461bcd60e51b8152602060048201526011602482015270736c6963655f6f75744f66426f756e647360781b604482015290519081900360640190fd5b6060821580156122b85760405191506000825260208201604052612302565b6040519150601f8416801560200281840101858101878315602002848b0101015b818310156122f15780518352602092830192016122d9565b5050858452601f01601f1916604052505b50949350505050565b8151815160009160019181148083146123275760009250612365565b600160208701838101602088015b6002848385100114156123605780518351146123545760009650600093505b60209283019201612335565b505050505b5090949350505050565b6060815167ffffffffffffffff8111801561238957600080fd5b506040519080825280602002602001820160405280156123b3578160200160208202803683370190505b50905060606000805b84518110156124c257600091505b604051806040016040528060208152602001600080516020612e4a8339815191528152505182101561246b57604051806040016040528060208152602001600080516020612e4a833981519152815250828151811061242557fe5b602001015160f81c60f81b6001600160f81b03191685828151811061244657fe5b01602001516001600160f81b03191614156124605761246b565b6001909101906123ca565b604051806040016040528060208152602001600080516020612e4a833981519152815250518214156124a257829350505050610b18565b818482815181106124af57fe5b60209081029190910101526001016123bc565b505050919050565b6060815167ffffffffffffffff811180156124e457600080fd5b5060405190808252806020026020018201604052801561250e578160200160208202803683370190505b50905060005b82518110156125595782818151811061252957fe5b602001015160f81c60f81b60f81c60ff1682828151811061254657fe5b6020908102919091010152600101612514565b50919050565b60606000612576836125718686612871565b61290e565b90506000815167ffffffffffffffff8111801561259257600080fd5b506040519080825280601f01601f1916602001820160405280156125bd576020820181803683370190505b50905060005b825181101561230257604051806040016040528060208152602001600080516020612e4a8339815191528152508382815181106125fc57fe5b60200260200101518151811061260e57fe5b602001015160f81c60f81b82828151811061262557fe5b60200101906001600160f81b031916908160001a9053506001016125c3565b6000808060001984860990508385029250828103915082811015612669576001820391505b509250929050565b6000818103821680838161268157fe5b04925080858161268d57fe5b04945080816000038161269c57fe5b60028581038087028203028087028203028087028203028087028203028087028203028087028203029586029003909402930460010193909302939093010292915050565b815460009082106127235760405162461bcd60e51b8152600401808060200182810382526022815260200180612d0b6022913960400191505060405180910390fd5b82600001828154811061273257fe5b9060005260206000200154905092915050565b60009081526001919091016020526040902054151590565b5490565b600061276d8383612745565b6127a357508154600181810184556000848152602080822090930184905584548482528286019093526040902091909155610967565b506000610967565b6000818152600183016020526040812054801561286757835460001980830191908101906000908790839081106127de57fe5b90600052602060002001549050808760000184815481106127fb57fe5b60009182526020808320909101929092558281526001898101909252604090209084019055865487908061282b57fe5b60019003818190600052602060002001600090559055866001016000878152602001908152602001600020600090556001945050505050610967565b6000915050610967565b6060600061289361288a612884866129e1565b8561290e565b60006006612ade565b905060006128a082612ba4565b60408051600680825260e082019092526001929092189250600091906020820160c08036833701905050905060005b6006811015612904578060050360050283901c601f168282815181106128f157fe5b60209081029190910101526001016128cf565b5095945050505050565b60606000825184510167ffffffffffffffff8111801561292d57600080fd5b50604051908082528060200260200182016040528015612957578160200160208202803683370190505b50905060005b84518110156129995784818151811061297257fe5b602002602001015182828151811061298657fe5b602090810291909101015260010161295d565b60005b84518110156123655784516001820191869181106129b657fe5b60200260200101518383806001019450815181106129d057fe5b60200260200101818152505061299c565b60606000825183510160010167ffffffffffffffff81118015612a0357600080fd5b50604051908082528060200260200182016040528015612a2d578160200160208202803683370190505b50905060005b8351811015612a73576005848281518110612a4a57fe5b6020026020010151901c828281518110612a6057fe5b6020908102919091010152600101612a33565b50600081845181518110612a8357fe5b60200260200101818152505060005b8351811015612ad757838181518110612aa757fe5b6020026020010151601f16828551830160010181518110612ac457fe5b6020908102919091010152600101612a92565b5092915050565b606060008285510167ffffffffffffffff81118015612afc57600080fd5b50604051908082528060200260200182016040528015612b26578160200160208202803683370190505b50905060005b8551811015612b6857858181518110612b4157fe5b6020026020010151828281518110612b5557fe5b6020908102919091010152600101612b2c565b60005b84811015612b995785838380600101945081518110612b8657fe5b6020908102919091010152600101612b6b565b509095945050505050565b6040805160a081018252633b6a57b281526326508e6d6020820152631ea119fa91810191909152633d4233dd6060820152632a1462b360808201526000906001825b8451811015612c61576000601983901c9050858281518110612c0457fe5b60200260200101516005846301ffffff16901b18925060005b6005811015612c5757600182821c81161415612c4f57848160058110612c3f57fe5b602002015163ffffffff16841893505b600101612c1d565b5050600101612be6565b509392505050565b828054600181600116156101000203166002900490600052602060002090601f016020900481019282612c9f5760008555612ce5565b82601f10612cb85782800160ff19823516178555612ce5565b82800160010185558215612ce5579182015b82811115612ce5578235825591602001919060010190612cca565b50612cf1929150612cf5565b5090565b5b80821115612cf15760008155600101612cf656fe456e756d657261626c655365743a20696e646578206f7574206f6620626f756e6473416363657373436f6e74726f6c3a2073656e646572206d75737420626520616e2061646d696e20746f206772616e74416363657373436f6e74726f6c3a2073656e646572206d75737420626520616e2061646d696e20746f207265766f6b65496e697469616c697a61626c653a20636f6e747261637420697320616c726561647920696e697469616c697a6564536166654d6174683a206d756c7469706c69636174696f6e206f766572666c6f7765d7a28e3265b37a6474929f336521b332c1681b933f6cb9f3376673440d862a751b795d24b92e3d92d1d0d8f2885f4e9c9c269da350af36ae6b49069babf4bf416363657373436f6e74726f6c3a2063616e206f6e6c792072656e6f756e636520726f6c657320666f722073656c6671707a7279397838676632747664773073336a6e35346b686365366d7561376ca264697066735822122004aaf2353940e8a0f5bd3d0537692272bc24db1daa5e4cbb7525a659b0bbe33a64736f6c63430007060033",
  "immutableReferences": {},
  "source": "/*\n Copyright [2019] - [2021], PERSISTENCE TECHNOLOGIES PTE. LTD. and the pStake-smartContracts contributors\n SPDX-License-Identifier: Apache-2.0\n*/\n\npragma solidity >=0.7.0;\n\nimport \"@openzeppelin/contracts-upgradeable/math/SafeMathUpgradeable.sol\";\nimport \"@openzeppelin/contracts-upgradeable/utils/PausableUpgradeable.sol\";\nimport \"@openzeppelin/contracts-upgradeable/access/AccessControlUpgradeable.sol\";\nimport \"./interfaces/IUTokensXPRT.sol\";\nimport \"./interfaces/ITokenWrapperXPRTV2.sol\";\nimport \"./libraries/Bech32.sol\";\nimport \"./libraries/FullMath.sol\";\n\ncontract TokenWrapperXPRTV2 is\nITokenWrapperXPRTV2,\nPausableUpgradeable,\nAccessControlUpgradeable\n{\n    using SafeMathUpgradeable for uint256;\n    using FullMath for uint256;\n    using Bech32 for string;\n\n    //Private instances of contracts to handle Utokens and Stokens\n    IUTokensXPRT public _uTokens;\n\n    // defining the fees and minimum values\n    uint256 private _minDeposit;\n    uint256 private _minWithdraw;\n    uint256 private _depositFee;\n    uint256 private _withdrawFee;\n    uint256 public _valueDivisor;\n\n    // constants defining access control ROLES\n    bytes32 public constant BRIDGE_ADMIN_ROLE = keccak256(\"BRIDGE_ADMIN_ROLE\");\n    bytes32 public constant PAUSER_ROLE = keccak256(\"PAUSER_ROLE\");\n\n    //variables defining bech32 validation attributes\n    bytes public hrpBytes;\n    bytes public controlDigitBytes;\n    uint256 public dataBytesSize;\n\n    // variable pertaining to contract upgrades versioning\n    uint256 public _version;\n\n    /*\n     * @dev Constructor for initializing the TokenWrapper contract.\n     * @param uAddress - address of the UToken contract.\n     * @param bridgeAdminAddress - address of the bridge admin.\n     * @param pauserAddress - address of the pauser admin.\n     * @param valueDivisor - valueDivisor set to 10^9.\n     */\n    function initialize(\n        address uAddress,\n        address bridgeAdminAddress,\n        address pauserAddress,\n        uint256 valueDivisor,\n        string calldata hrpString,\n        string calldata controlDigitString,\n        uint256 dataSize\n    ) public virtual initializer {\n        __AccessControl_init();\n        __Pausable_init();\n        _setupRole(DEFAULT_ADMIN_ROLE, _msgSender());\n        _setupRole(BRIDGE_ADMIN_ROLE, bridgeAdminAddress);\n        _setupRole(PAUSER_ROLE, pauserAddress);\n        setUTokensContract(uAddress);\n        setMinimumValues(1, 1);\n        _valueDivisor = valueDivisor;\n        // setting bech32 validation attributes\n        hrpBytes = bytes(hrpString);\n        controlDigitBytes = bytes(controlDigitString);\n        dataBytesSize = dataSize;\n    }\n\n\n    /**\n     * @dev Set 'fees', called from admin\n     * @param withdrawFee: withdraw fee\n     * @param depositFee: deposit fee\n     *\n     * Emits a {SetFees} event with 'fee' set to the withdraw.\n     *\n     */\n    function setFees(uint256 depositFee, uint256 withdrawFee)\n    public\n    virtual\n    override\n    returns (bool success)\n    {\n        require(hasRole(DEFAULT_ADMIN_ROLE, _msgSender()), \"TW1\");\n        // range checks for fees. Since fee cannot be more than 100%, the max cap\n        // is _valueDivisor * 100, which then brings the fees to 100 (percentage)\n        require(\n            (depositFee <= _valueDivisor.mul(100) || depositFee == 0) &&\n            (withdrawFee <= _valueDivisor.mul(100) || withdrawFee == 0),\n            \"TW2\"\n        );\n        _depositFee = depositFee;\n        _withdrawFee = withdrawFee;\n        emit SetFees(depositFee, withdrawFee);\n        return true;\n    }\n\n    /**\n     * @dev get fees, minimum set values and value divisor\n     *\n     */\n    function getProps()\n    public\n    view\n    virtual\n    override\n    returns (\n        uint256 depositFee,\n        uint256 withdrawFee,\n        uint256 minDeposit,\n        uint256 minWithdraw,\n        uint256 valueDivisor\n    )\n    {\n        depositFee = _depositFee;\n        withdrawFee = _withdrawFee;\n        minDeposit = _minDeposit;\n        minWithdraw = _minWithdraw;\n        valueDivisor = _valueDivisor;\n    }\n\n    /**\n     * @dev Set 'minimum values', called from admin\n     * @param minDeposit: deposit minimum value\n     * @param minWithdraw: withdraw minimum value\n     *\n     * Emits a {SetMinimumValues} event with 'minimum value' set to withdraw.\n     *\n     */\n    function setMinimumValues(uint256 minDeposit, uint256 minWithdraw)\n    public\n    virtual\n    override\n    returns (bool success)\n    {\n        require(hasRole(DEFAULT_ADMIN_ROLE, _msgSender()), \"TW3\");\n        require(minDeposit >= 1, \"TW4\");\n        require(minWithdraw >= 1, \"TW5\");\n        _minDeposit = minDeposit;\n        _minWithdraw = minWithdraw;\n        emit SetMinimumValues(minDeposit, minWithdraw);\n        return true;\n    }\n\n    /*\n     * @dev Set 'contract address', called for utokens smart contract\n     * @param uAddress: utoken contract address\n     *\n     * Emits a {SetUTokensContract} event with '_contract' set to the utoken contract address.\n     *\n     */\n    function setUTokensContract(address uAddress) public virtual override {\n        require(hasRole(DEFAULT_ADMIN_ROLE, _msgSender()), \"TW6\");\n        _uTokens = IUTokensXPRT(uAddress);\n        emit SetUTokensContract(uAddress);\n    }\n\n    /**\n     * @dev Triggers stopped state.\n     *\n     * Requirements:\n     *\n     * - The contract must not be paused.\n     */\n    function pause() public virtual override returns (bool success) {\n        require(hasRole(PAUSER_ROLE, _msgSender()), \"TW7\");\n        _pause();\n        return true;\n    }\n\n    /**\n     * @dev Returns to normal state.\n     *\n     * Requirements:\n     *\n     * - The contract must be paused.\n     */\n    function unpause() public virtual override returns (bool success) {\n        require(hasRole(PAUSER_ROLE, _msgSender()), \"TW8\");\n        _unpause();\n        return true;\n    }\n\n    /**\n     * @dev common function added to be called by generateUTokens and generateUTokensInBatch and mints new utokens for the provided 'address' and 'amount'\n     * @param to: account address, amount: number of tokens\n     * Requirements:\n     *\n     * - `amount` cannot be less than zero.\n     *\n     */\n    function _generateUTokens(address to, uint256 amount)\n    internal\n    virtual\n    returns (uint256 wrappedTokens)\n    {\n        // the tokens to be generated to the user's address will be after the fee processing\n        uint256 _fee = (amount.mulDiv(_depositFee, _valueDivisor)).div(100);\n        wrappedTokens = amount.sub(_fee);\n        // mint the UTokens\n        _uTokens.mint(to, wrappedTokens);\n    }\n\n    /**\n     * @dev Mint new utokens for the provided 'address' and 'amount'\n     * @param to: account address, amount: number of tokens\n     *\n     * Emits a {GenerateUTokens} event with 'to' set to address and 'amount' set to amount of tokens.\n     *\n     * Requirements:\n     *\n     * - `amount` cannot be less than zero.\n     *\n     */\n    function generateUTokens(address to, uint256 amount)\n    public\n    virtual\n    override\n    whenNotPaused\n    returns (uint256 wrappedTokens)\n    {\n        require(hasRole(BRIDGE_ADMIN_ROLE, _msgSender()), \"TW10\");\n        wrappedTokens = _generateUTokens(to, amount);\n        emit GenerateUTokens(to, wrappedTokens, amount, block.timestamp);\n    }\n\n    /**\n     * @dev Mint new utokens for the provided 'address' and 'amount' in batch\n     * @param to[]: array of account addresses, amount[]: array of tokens\n     *\n     * Emits a {GenerateUTokens} event with 'to' set to address and 'amount' set to amount of tokens.\n     *\n     * Requirements:\n     *\n     * - `amount` cannot be less than zero.\n     *\n     */\n    function generateUTokensInBatch(\n        address[] memory to,\n        uint256[] memory amount\n    ) public virtual override whenNotPaused returns (uint256[] memory wrappedTokensArray) {\n        require(to.length == amount.length, \"TW11\");\n        require(hasRole(BRIDGE_ADMIN_ROLE, _msgSender()), \"TW12\");\n        uint256 i;\n        wrappedTokensArray = new uint256[](to.length);\n        uint256 _toLength = to.length;\n        for (i = 0; i < _toLength; i = i.add(1)) {\n            wrappedTokensArray[i] = _generateUTokens(to[i], amount[i]);\n        }\n        emit GenerateUTokensInBatch(\n            to,\n            amount, wrappedTokensArray,\n            block.timestamp\n        );\n    }\n\n    /**\n     * @dev check if the address is Bech32Valid\n     *\n     */\n    function isBech32Valid(string memory toChainAddress)\n    public\n    view\n    virtual\n    override\n    returns (bool isAddressValid)\n    {\n        isAddressValid = toChainAddress.isBech32AddressValid(\n            hrpBytes,\n            controlDigitBytes,\n            dataBytesSize\n        );\n    }\n\n    /**\n     * @dev Burn utokens for the provided 'address' and 'tokens'\n     * @param from: account address, tokens: number of tokens, toChainAddress: atom wallet address\n     *\n     * Emits a {WithdrawUTokens} event with 'from' set to address, 'finalTokens' set to amount of tokens and 'toChainAddress'\n     *\n     * Requirements:\n     *\n     * - `tokens` cannot be less than zero.\n     *\n     */\n    function withdrawUTokens(\n        address from,\n        uint256 tokens,\n        string memory toChainAddress\n    ) public virtual override whenNotPaused returns (uint256 unwrappedTokens){\n        require(from == _msgSender(), \"TW17\");\n        require(tokens >= _minWithdraw, \"TW14\");\n        //check if toChainAddress is valid address\n        bool isAddressValid = toChainAddress.isBech32AddressValid(\n            hrpBytes,\n            controlDigitBytes,\n            dataBytesSize\n        );\n        require(isAddressValid == true, \"TW15\");\n        uint256 _currentUTokenBalance = _uTokens.balanceOf(from);\n        // final tokens is the amount of tokens to be burned, including the fee\n        uint256 _fee = (tokens.mulDiv(_withdrawFee, _valueDivisor)).div(100);\n        unwrappedTokens = tokens.sub(_fee);\n        require(_currentUTokenBalance >= unwrappedTokens, \"TW16\");\n\n        emit WithdrawUTokens(\n            from,\n                unwrappedTokens,\n            tokens,\n            toChainAddress,\n            block.timestamp\n        );\n        // perform the burning of UTokens\n        _uTokens.burn(from, tokens);\n    }\n}\n",
  "sourcePath": "/home/aditimahesh/Documents/Work/Persistence/go/src/github.com/persistenceOne/pStake-smartContracts/contracts/TokenWrapperXPRTV2.sol",
  "compiler": {
    "name": "solc",
    "version": "0.7.6+commit.7338295f.Emscripten.clang"
  },
  "schemaVersion": "3.4.3",
  "updatedAt": "2022-02-23T13:02:53.941Z",
  "devdoc": {
    "kind": "dev",
    "methods": {
      "generateUTokens(address,uint256)": {
        "details": "Mint new utokens for the provided 'address' and 'amount'",
        "params": {
          "to": ": account address, amount: number of tokens Emits a {GenerateUTokens} event with 'to' set to address and 'amount' set to amount of tokens. Requirements: - `amount` cannot be less than zero."
        }
      },
      "generateUTokensInBatch(address[],uint256[])": {
        "details": "Mint new utokens for the provided 'address' and 'amount' in batch",
        "params": {
          "to": "[]: array of account addresses, amount[]: array of tokens Emits a {GenerateUTokens} event with 'to' set to address and 'amount' set to amount of tokens. Requirements: - `amount` cannot be less than zero."
        }
      },
      "getProps()": {
        "details": "get fees, minimum set values and value divisor"
      },
      "getRoleAdmin(bytes32)": {
        "details": "Returns the admin role that controls `role`. See {grantRole} and {revokeRole}. To change a role's admin, use {_setRoleAdmin}."
      },
      "getRoleMember(bytes32,uint256)": {
        "details": "Returns one of the accounts that have `role`. `index` must be a value between 0 and {getRoleMemberCount}, non-inclusive. Role bearers are not sorted in any particular way, and their ordering may change at any point. WARNING: When using {getRoleMember} and {getRoleMemberCount}, make sure you perform all queries on the same block. See the following https://forum.openzeppelin.com/t/iterating-over-elements-on-enumerableset-in-openzeppelin-contracts/2296[forum post] for more information."
      },
      "getRoleMemberCount(bytes32)": {
        "details": "Returns the number of accounts that have `role`. Can be used together with {getRoleMember} to enumerate all bearers of a role."
      },
      "grantRole(bytes32,address)": {
        "details": "Grants `role` to `account`. If `account` had not been already granted `role`, emits a {RoleGranted} event. Requirements: - the caller must have ``role``'s admin role."
      },
      "hasRole(bytes32,address)": {
        "details": "Returns `true` if `account` has been granted `role`."
      },
      "isBech32Valid(string)": {
        "details": "check if the address is Bech32Valid"
      },
      "pause()": {
        "details": "Triggers stopped state. Requirements: - The contract must not be paused."
      },
      "paused()": {
        "details": "Returns true if the contract is paused, and false otherwise."
      },
      "renounceRole(bytes32,address)": {
        "details": "Revokes `role` from the calling account. Roles are often managed via {grantRole} and {revokeRole}: this function's purpose is to provide a mechanism for accounts to lose their privileges if they are compromised (such as when a trusted device is misplaced). If the calling account had been granted `role`, emits a {RoleRevoked} event. Requirements: - the caller must be `account`."
      },
      "revokeRole(bytes32,address)": {
        "details": "Revokes `role` from `account`. If `account` had been granted `role`, emits a {RoleRevoked} event. Requirements: - the caller must have ``role``'s admin role."
      },
      "setFees(uint256,uint256)": {
        "details": "Set 'fees', called from admin",
        "params": {
          "depositFee": ": deposit fee Emits a {SetFees} event with 'fee' set to the withdraw.",
          "withdrawFee": ": withdraw fee"
        }
      },
      "setMinimumValues(uint256,uint256)": {
        "details": "Set 'minimum values', called from admin",
        "params": {
          "minDeposit": ": deposit minimum value",
          "minWithdraw": ": withdraw minimum value Emits a {SetMinimumValues} event with 'minimum value' set to withdraw."
        }
      },
      "setUTokensContract(address)": {
        "details": "Set UTokens smart contract. Emits a {SetUTokensContract} event."
      },
      "unpause()": {
        "details": "Returns to normal state. Requirements: - The contract must be paused."
      },
      "withdrawUTokens(address,uint256,string)": {
        "details": "Burn utokens for the provided 'address' and 'tokens'",
        "params": {
          "from": ": account address, tokens: number of tokens, toChainAddress: atom wallet address Emits a {WithdrawUTokens} event with 'from' set to address, 'finalTokens' set to amount of tokens and 'toChainAddress' Requirements: - `tokens` cannot be less than zero."
        }
      }
    },
    "version": 1
  },
  "userdoc": {
    "kind": "user",
    "methods": {},
    "version": 1
  }
}