{
  "contractName": "TokenWrapperV5",
  "abi": [
    {
      "anonymous": false,
      "inputs": [
        {
          "indexed": true,
          "internalType": "address",
          "name": "accountAddress",
          "type": "address"
        },
        {
          "indexed": true,
          "internalType": "uint256",
          "name": "tokens",
          "type": "uint256"
        },
        {
          "indexed": true,
          "internalType": "uint256",
          "name": "finalTokens",
          "type": "uint256"
        },
        {
          "indexed": false,
          "internalType": "uint256",
          "name": "timestamp",
          "type": "uint256"
        }
      ],
      "name": "GenerateUTokens",
      "type": "event"
    },
    {
      "anonymous": false,
      "inputs": [
        {
          "indexed": false,
          "internalType": "address[]",
          "name": "accountAddress",
          "type": "address[]"
        },
        {
          "indexed": false,
          "internalType": "uint256[]",
          "name": "tokens",
          "type": "uint256[]"
        },
        {
          "indexed": false,
          "internalType": "uint256[]",
          "name": "finalTokens",
          "type": "uint256[]"
        },
        {
          "indexed": false,
          "internalType": "uint256",
          "name": "timestamp",
          "type": "uint256"
        }
      ],
      "name": "GenerateUTokensInBatch",
      "type": "event"
    },
    {
      "anonymous": false,
      "inputs": [
        {
          "indexed": false,
          "internalType": "address",
          "name": "account",
          "type": "address"
        }
      ],
      "name": "Paused",
      "type": "event"
    },
    {
      "anonymous": false,
      "inputs": [
        {
          "indexed": true,
          "internalType": "bytes32",
          "name": "role",
          "type": "bytes32"
        },
        {
          "indexed": true,
          "internalType": "bytes32",
          "name": "previousAdminRole",
          "type": "bytes32"
        },
        {
          "indexed": true,
          "internalType": "bytes32",
          "name": "newAdminRole",
          "type": "bytes32"
        }
      ],
      "name": "RoleAdminChanged",
      "type": "event"
    },
    {
      "anonymous": false,
      "inputs": [
        {
          "indexed": true,
          "internalType": "bytes32",
          "name": "role",
          "type": "bytes32"
        },
        {
          "indexed": true,
          "internalType": "address",
          "name": "account",
          "type": "address"
        },
        {
          "indexed": true,
          "internalType": "address",
          "name": "sender",
          "type": "address"
        }
      ],
      "name": "RoleGranted",
      "type": "event"
    },
    {
      "anonymous": false,
      "inputs": [
        {
          "indexed": true,
          "internalType": "bytes32",
          "name": "role",
          "type": "bytes32"
        },
        {
          "indexed": true,
          "internalType": "address",
          "name": "account",
          "type": "address"
        },
        {
          "indexed": true,
          "internalType": "address",
          "name": "sender",
          "type": "address"
        }
      ],
      "name": "RoleRevoked",
      "type": "event"
    },
    {
      "anonymous": false,
      "inputs": [
        {
          "indexed": true,
          "internalType": "uint256",
          "name": "depositFee",
          "type": "uint256"
        },
        {
          "indexed": true,
          "internalType": "uint256",
          "name": "withdrawFee",
          "type": "uint256"
        }
      ],
      "name": "SetFees",
      "type": "event"
    },
    {
      "anonymous": false,
      "inputs": [
        {
          "indexed": true,
          "internalType": "address",
          "name": "_contract",
          "type": "address"
        }
      ],
      "name": "SetMigrationAdminEvent",
      "type": "event"
    },
    {
      "anonymous": false,
      "inputs": [
        {
          "indexed": true,
          "internalType": "uint256",
          "name": "minDeposit",
          "type": "uint256"
        },
        {
          "indexed": true,
          "internalType": "uint256",
          "name": "minWithdraw",
          "type": "uint256"
        }
      ],
      "name": "SetMinimumValues",
      "type": "event"
    },
    {
      "anonymous": false,
      "inputs": [
        {
          "indexed": true,
          "internalType": "address",
          "name": "_contract",
          "type": "address"
        }
      ],
      "name": "SetUTokensContract",
      "type": "event"
    },
    {
      "anonymous": false,
      "inputs": [
        {
          "indexed": false,
          "internalType": "address",
          "name": "account",
          "type": "address"
        }
      ],
      "name": "Unpaused",
      "type": "event"
    },
    {
      "anonymous": false,
      "inputs": [
        {
          "indexed": true,
          "internalType": "address",
          "name": "accountAddress",
          "type": "address"
        },
        {
          "indexed": true,
          "internalType": "uint256",
          "name": "tokens",
          "type": "uint256"
        },
        {
          "indexed": false,
          "internalType": "uint256",
          "name": "finalTokens",
          "type": "uint256"
        },
        {
          "indexed": false,
          "internalType": "string",
          "name": "toChainAddress",
          "type": "string"
        },
        {
          "indexed": false,
          "internalType": "uint256",
          "name": "timestamp",
          "type": "uint256"
        }
      ],
      "name": "WithdrawUTokens",
      "type": "event"
    },
    {
      "inputs": [],
      "name": "BRIDGE_ADMIN_ROLE",
      "outputs": [
        {
          "internalType": "bytes32",
          "name": "",
          "type": "bytes32"
        }
      ],
      "stateMutability": "view",
      "type": "function"
    },
    {
      "inputs": [],
      "name": "DEFAULT_ADMIN_ROLE",
      "outputs": [
        {
          "internalType": "bytes32",
          "name": "",
          "type": "bytes32"
        }
      ],
      "stateMutability": "view",
      "type": "function"
    },
    {
      "inputs": [],
      "name": "PAUSER_ROLE",
      "outputs": [
        {
          "internalType": "bytes32",
          "name": "",
          "type": "bytes32"
        }
      ],
      "stateMutability": "view",
      "type": "function"
    },
    {
      "inputs": [],
      "name": "_migrationAdminContract",
      "outputs": [
        {
          "internalType": "address",
          "name": "",
          "type": "address"
        }
      ],
      "stateMutability": "view",
      "type": "function"
    },
    {
      "inputs": [],
      "name": "_uTokens",
      "outputs": [
        {
          "internalType": "contract IUTokensV2",
          "name": "",
          "type": "address"
        }
      ],
      "stateMutability": "view",
      "type": "function"
    },
    {
      "inputs": [],
      "name": "_valueDivisor",
      "outputs": [
        {
          "internalType": "uint256",
          "name": "",
          "type": "uint256"
        }
      ],
      "stateMutability": "view",
      "type": "function"
    },
    {
      "inputs": [],
      "name": "_version",
      "outputs": [
        {
          "internalType": "uint256",
          "name": "",
          "type": "uint256"
        }
      ],
      "stateMutability": "view",
      "type": "function"
    },
    {
      "inputs": [],
      "name": "controlDigitBytes",
      "outputs": [
        {
          "internalType": "bytes",
          "name": "",
          "type": "bytes"
        }
      ],
      "stateMutability": "view",
      "type": "function"
    },
    {
      "inputs": [],
      "name": "dataBytesSize",
      "outputs": [
        {
          "internalType": "uint256",
          "name": "",
          "type": "uint256"
        }
      ],
      "stateMutability": "view",
      "type": "function"
    },
    {
      "inputs": [
        {
          "internalType": "bytes32",
          "name": "role",
          "type": "bytes32"
        }
      ],
      "name": "getRoleAdmin",
      "outputs": [
        {
          "internalType": "bytes32",
          "name": "",
          "type": "bytes32"
        }
      ],
      "stateMutability": "view",
      "type": "function"
    },
    {
      "inputs": [
        {
          "internalType": "bytes32",
          "name": "role",
          "type": "bytes32"
        },
        {
          "internalType": "uint256",
          "name": "index",
          "type": "uint256"
        }
      ],
      "name": "getRoleMember",
      "outputs": [
        {
          "internalType": "address",
          "name": "",
          "type": "address"
        }
      ],
      "stateMutability": "view",
      "type": "function"
    },
    {
      "inputs": [
        {
          "internalType": "bytes32",
          "name": "role",
          "type": "bytes32"
        }
      ],
      "name": "getRoleMemberCount",
      "outputs": [
        {
          "internalType": "uint256",
          "name": "",
          "type": "uint256"
        }
      ],
      "stateMutability": "view",
      "type": "function"
    },
    {
      "inputs": [
        {
          "internalType": "bytes32",
          "name": "role",
          "type": "bytes32"
        },
        {
          "internalType": "address",
          "name": "account",
          "type": "address"
        }
      ],
      "name": "grantRole",
      "outputs": [],
      "stateMutability": "nonpayable",
      "type": "function"
    },
    {
      "inputs": [
        {
          "internalType": "bytes32",
          "name": "role",
          "type": "bytes32"
        },
        {
          "internalType": "address",
          "name": "account",
          "type": "address"
        }
      ],
      "name": "hasRole",
      "outputs": [
        {
          "internalType": "bool",
          "name": "",
          "type": "bool"
        }
      ],
      "stateMutability": "view",
      "type": "function"
    },
    {
      "inputs": [],
      "name": "hrpBytes",
      "outputs": [
        {
          "internalType": "bytes",
          "name": "",
          "type": "bytes"
        }
      ],
      "stateMutability": "view",
      "type": "function"
    },
    {
      "inputs": [],
      "name": "paused",
      "outputs": [
        {
          "internalType": "bool",
          "name": "",
          "type": "bool"
        }
      ],
      "stateMutability": "view",
      "type": "function"
    },
    {
      "inputs": [
        {
          "internalType": "bytes32",
          "name": "role",
          "type": "bytes32"
        },
        {
          "internalType": "address",
          "name": "account",
          "type": "address"
        }
      ],
      "name": "renounceRole",
      "outputs": [],
      "stateMutability": "nonpayable",
      "type": "function"
    },
    {
      "inputs": [
        {
          "internalType": "bytes32",
          "name": "role",
          "type": "bytes32"
        },
        {
          "internalType": "address",
          "name": "account",
          "type": "address"
        }
      ],
      "name": "revokeRole",
      "outputs": [],
      "stateMutability": "nonpayable",
      "type": "function"
    },
    {
      "inputs": [
        {
          "internalType": "address",
          "name": "uAddress",
          "type": "address"
        },
        {
          "internalType": "address",
          "name": "bridgeAdminAddress",
          "type": "address"
        },
        {
          "internalType": "address",
          "name": "pauserAddress",
          "type": "address"
        },
        {
          "internalType": "uint256",
          "name": "valueDivisor",
          "type": "uint256"
        }
      ],
      "name": "initialize",
      "outputs": [],
      "stateMutability": "nonpayable",
      "type": "function"
    },
    {
      "inputs": [
        {
          "internalType": "uint256",
          "name": "depositFee",
          "type": "uint256"
        },
        {
          "internalType": "uint256",
          "name": "withdrawFee",
          "type": "uint256"
        }
      ],
      "name": "setFees",
      "outputs": [
        {
          "internalType": "bool",
          "name": "success",
          "type": "bool"
        }
      ],
      "stateMutability": "nonpayable",
      "type": "function"
    },
    {
      "inputs": [],
      "name": "getProps",
      "outputs": [
        {
          "internalType": "uint256",
          "name": "depositFee",
          "type": "uint256"
        },
        {
          "internalType": "uint256",
          "name": "withdrawFee",
          "type": "uint256"
        },
        {
          "internalType": "uint256",
          "name": "minDeposit",
          "type": "uint256"
        },
        {
          "internalType": "uint256",
          "name": "minWithdraw",
          "type": "uint256"
        },
        {
          "internalType": "uint256",
          "name": "valueDivisor",
          "type": "uint256"
        }
      ],
      "stateMutability": "view",
      "type": "function"
    },
    {
      "inputs": [
        {
          "internalType": "uint256",
          "name": "minDeposit",
          "type": "uint256"
        },
        {
          "internalType": "uint256",
          "name": "minWithdraw",
          "type": "uint256"
        }
      ],
      "name": "setMinimumValues",
      "outputs": [
        {
          "internalType": "bool",
          "name": "success",
          "type": "bool"
        }
      ],
      "stateMutability": "nonpayable",
      "type": "function"
    },
    {
      "inputs": [
        {
          "internalType": "address",
          "name": "uAddress",
          "type": "address"
        }
      ],
      "name": "setUTokensContract",
      "outputs": [],
      "stateMutability": "nonpayable",
      "type": "function"
    },
    {
      "inputs": [
        {
          "internalType": "address",
          "name": "to",
          "type": "address"
        },
        {
          "internalType": "uint256",
          "name": "amount",
          "type": "uint256"
        }
      ],
      "name": "generateUTokens",
      "outputs": [
        {
          "internalType": "uint256",
          "name": "wrappedTokens",
          "type": "uint256"
        }
      ],
      "stateMutability": "nonpayable",
      "type": "function"
    },
    {
      "inputs": [
        {
          "internalType": "address[]",
          "name": "toAddresses",
          "type": "address[]"
        },
        {
          "internalType": "uint256[]",
          "name": "amounts",
          "type": "uint256[]"
        }
      ],
      "name": "generateUTokensInBatch",
      "outputs": [
        {
          "internalType": "uint256[]",
          "name": "wrappedTokensArray",
          "type": "uint256[]"
        }
      ],
      "stateMutability": "nonpayable",
      "type": "function"
    },
    {
      "inputs": [
        {
          "internalType": "string",
          "name": "toChainAddress",
          "type": "string"
        }
      ],
      "name": "isBech32Valid",
      "outputs": [
        {
          "internalType": "bool",
          "name": "isAddressValid",
          "type": "bool"
        }
      ],
      "stateMutability": "view",
      "type": "function"
    },
    {
      "inputs": [
        {
          "internalType": "address",
          "name": "from",
          "type": "address"
        },
        {
          "internalType": "uint256",
          "name": "tokens",
          "type": "uint256"
        },
        {
          "internalType": "string",
          "name": "toChainAddress",
          "type": "string"
        }
      ],
      "name": "withdrawUTokens",
      "outputs": [
        {
          "internalType": "uint256",
          "name": "unwrappedTokens",
          "type": "uint256"
        }
      ],
      "stateMutability": "nonpayable",
      "type": "function"
    },
    {
      "inputs": [
        {
          "internalType": "address",
          "name": "migrationAdminContract",
          "type": "address"
        }
      ],
      "name": "setMigrationAdminContract",
      "outputs": [],
      "stateMutability": "nonpayable",
      "type": "function"
    },
    {
      "inputs": [],
      "name": "pause",
      "outputs": [
        {
          "internalType": "bool",
          "name": "success",
          "type": "bool"
        }
      ],
      "stateMutability": "nonpayable",
      "type": "function"
    },
    {
      "inputs": [],
      "name": "unpause",
      "outputs": [
        {
          "internalType": "bool",
          "name": "success",
          "type": "bool"
        }
      ],
      "stateMutability": "nonpayable",
      "type": "function"
    }
  ],
  "bytecode": "0x608060405234801561001057600080fd5b50612e09806100206000396000f3fe608060405234801561001057600080fd5b50600436106101da5760003560e01c80638456cb5911610104578063ca15c873116100a2578063e3ac914b11610071578063e3ac914b14610654578063e63ab1e91461065c578063e7fa0a3214610664578063ec1893b414610772576101da565b8063ca15c873146105c7578063cf756fdf146105e4578063d37f559814610620578063d547741f14610628576101da565b80639010d07c116100de5780639010d07c146104f357806391d1485414610516578063a217fddf14610542578063a53dcd721461054a576101da565b80638456cb59146104215780638e28310e146104295780638f001d4e1461044f576101da565b80633e118dbe1161017c5780635c5cfb371161014b5780635c5cfb37146103e55780635c975abb14610409578063728a99ee1461041157806378a2f07414610419576101da565b80633e118dbe146102f95780633f4ba83a14610301578063428bee9e1461030957806351db00e7146103c2576101da565b806322dd9bc3116101b857806322dd9bc314610258578063248a9ca3146102845780632f2ff15d146102a157806336568abe146102cd576101da565b80630b78f9c0146101df578063118c38c71461021657806321bdf9e514610230575b600080fd5b610202600480360360408110156101f557600080fd5b50803590602001356107a5565b604080519115158252519081900360200190f35b61021e610891565b60408051918252519081900360200190f35b6102566004803603602081101561024657600080fd5b50356001600160a01b03166108a3565b005b61021e6004803603604081101561026e57600080fd5b506001600160a01b038135169060200135610931565b61021e6004803603602081101561029a57600080fd5b50356109dc565b610256600480360360408110156102b757600080fd5b50803590602001356001600160a01b03166109f4565b610256600480360360408110156102e357600080fd5b50803590602001356001600160a01b0316610a5b565b61021e610abc565b610202610ac2565b61021e6004803603606081101561031f57600080fd5b6001600160a01b0382351691602081013591810190606081016040820135600160201b81111561034e57600080fd5b82018360208201111561036057600080fd5b803590602001918460018302840111600160201b8311171561038157600080fd5b91908080601f016020809104026020016040519081016040528093929190818152602001838380828437600092019190915250929550610b23945050505050565b610202600480360360408110156103d857600080fd5b5080359060200135610fcb565b6103ed6110c8565b604080516001600160a01b039092168252519081900360200190f35b6102026110d7565b61021e6110e0565b6103ed6110e6565b6102026110f5565b6102566004803603602081101561043f57600080fd5b50356001600160a01b0316611150565b6102026004803603602081101561046557600080fd5b810190602081018135600160201b81111561047f57600080fd5b82018360208201111561049157600080fd5b803590602001918460018302840111600160201b831117156104b257600080fd5b91908080601f0160208091040260200160405190810160405280939291908181526020018383808284376000920191909152509295506111e1945050505050565b6103ed6004803603604081101561050957600080fd5b5080359060200135611310565b6102026004803603604081101561052c57600080fd5b50803590602001356001600160a01b031661132f565b61021e611347565b61055261134c565b6040805160208082528351818301528351919283929083019185019080838360005b8381101561058c578181015183820152602001610574565b50505050905090810190601f1680156105b95780820380516001836020036101000a031916815260200191505b509250505060405180910390f35b61021e600480360360208110156105dd57600080fd5b50356113da565b610256600480360360808110156105fa57600080fd5b506001600160a01b038135811691602081013582169160408201351690606001356113f1565b61055261155f565b6102566004803603604081101561063e57600080fd5b50803590602001356001600160a01b03166115ba565b61021e611613565b61021e611619565b6107226004803603604081101561067a57600080fd5b810190602081018135600160201b81111561069457600080fd5b8201836020820111156106a657600080fd5b803590602001918460208302840111600160201b831117156106c757600080fd5b919390929091602081019035600160201b8111156106e457600080fd5b8201836020820111156106f657600080fd5b803590602001918460208302840111600160201b8311171561071757600080fd5b50909250905061162b565b60408051602080825283518183015283519192839290830191858101910280838360005b8381101561075e578181015183820152602001610746565b505050509050019250505060405180910390f35b61077a61185a565b6040805195865260208601949094528484019290925260608401526080830152519081900360a00190f35b60006107b8816107b3611874565b61132f565b6107ef576040805162461bcd60e51b815260206004820152600360248201526254573160e81b604482015290519081900360640190fd5b609c546107fd906064611878565b83111580156108195750609c54610815906064611878565b8211155b610850576040805162461bcd60e51b81526020600482015260036024820152622a2b9960e91b604482015290519081900360640190fd5b609a839055609b829055604051829084907f3be6e637f54f081a2dd12982cfd58481304fc98b604b18fa8ed4aa4e4a9d153290600090a35060015b92915050565b600080516020612d6583398151915281565b6108b060006107b3611874565b6108e7576040805162461bcd60e51b81526020600482015260036024820152622a2b9b60e91b604482015290519081900360640190fd5b609780546001600160a01b0319166001600160a01b0383169081179091556040517ff745c285f36f88bea6af14d4d0f33dd9350cef7895216c1615b1caaee7857e0c90600090a250565b600061094d600080516020612d658339815191526107b3611874565b610987576040805162461bcd60e51b815260206004808301919091526024820152630545731360e41b604482015290519081900360640190fd5b61099183836118d1565b90508181846001600160a01b03167f572f067f64ae57ed816b7e9b5424a87d97035d68384f149586cba42b4192c9d8426040518082815260200191505060405180910390a492915050565b6000818152606560205260409020600201545b919050565b600082815260656020526040902060020154610a12906107b3611874565b610a4d5760405162461bcd60e51b815260040180806020018281038252602f815260200180612c97602f913960400191505060405180910390fd5b610a5782826119dc565b5050565b610a63611874565b6001600160a01b0316816001600160a01b031614610ab25760405162461bcd60e51b815260040180806020018281038252602f815260200180612d85602f913960400191505060405180910390fd5b610a578282611a45565b60a05481565b6000610ade600080516020612d458339815191526107b3611874565b610b15576040805162461bcd60e51b81526020600482015260036024820152620a8ae760eb1b604482015290519081900360640190fd5b610b1d611aae565b50600190565b6000610b2d6110d7565b15610b72576040805162461bcd60e51b815260206004820152601060248201526f14185d5cd8589b194e881c185d5cd95960821b604482015290519081900360640190fd5b610b7a611874565b6001600160a01b0316846001600160a01b03161480610bae5750610b9c611874565b60a1546001600160a01b039081169116145b610be8576040805162461bcd60e51b815260206004808301919091526024820152635457313760e01b604482015290519081900360640190fd5b609954831015610c28576040805162461bcd60e51b815260206004808301919091526024820152631515cc4d60e21b604482015290519081900360640190fd5b609754604080516370a0823160e01b81526001600160a01b038781166004830152915160009392909216916370a0823191602480820192602092909190829003018186803b158015610c7957600080fd5b505afa158015610c8d573d6000803e3d6000fd5b505050506040513d6020811015610ca357600080fd5b5051905083811015610ce5576040805162461bcd60e51b815260206004808301919091526024820152632a2b989b60e11b604482015290519081900360640190fd5b609d805460408051602060026001851615610100026000190190941693909304601f8101849004840282018401909252818152600093610e149391929091830182828015610d745780601f10610d4957610100808354040283529160200191610d74565b820191906000526020600020905b815481529060010190602001808311610d5757829003601f168201915b5050609e8054604080516020601f6002600019610100600188161502019095169490940493840181900481028201810190925282815295509193509150830182828015610e025780601f10610dd757610100808354040283529160200191610e02565b820191906000526020600020905b815481529060010190602001808311610de557829003601f168201915b5050609f548a95949350915050611b4e565b9050600181151514610e56576040805162461bcd60e51b815260206004808301919091526024820152635457313560e01b604482015290519081900360640190fd5b6000610e7c6064610e76609b54609c548a611c659092919063ffffffff16565b90611d1e565b9050610e888682611d85565b935083876001600160a01b03167f0f4363f6961ed151f2cf8f720784b70c0f5573f216fc939f67f2a5d12698e02e8888426040518084815260200180602001838152602001828103825284818151815260200191508051906020019080838360005b83811015610f02578181015183820152602001610eea565b50505050905090810190601f168015610f2f5780820380516001836020036101000a031916815260200191505b5094505050505060405180910390a360975460408051632770a7eb60e21b81526001600160a01b038a81166004830152602482018a905291519190921691639dc29fac9160448083019260209291908290030181600087803b158015610f9457600080fd5b505af1158015610fa8573d6000803e3d6000fd5b505050506040513d6020811015610fbe57600080fd5b5093979650505050505050565b6000610fd9816107b3611874565b611010576040805162461bcd60e51b815260206004820152600360248201526254573360e81b604482015290519081900360640190fd5b600183101561104c576040805162461bcd60e51b81526020600482015260036024820152621515cd60ea1b604482015290519081900360640190fd5b6001821015611088576040805162461bcd60e51b815260206004820152600360248201526254573560e81b604482015290519081900360640190fd5b60988390556099829055604051829084907fa94d40347449ea19b873d64ed55c99772194c49791e82be5c2dc24e4c0044fe390600090a350600192915050565b60a1546001600160a01b031681565b60335460ff1690565b609c5481565b6097546001600160a01b031681565b6000611111600080516020612d458339815191526107b3611874565b611148576040805162461bcd60e51b815260206004820152600360248201526254573760e81b604482015290519081900360640190fd5b610b1d611de2565b61115d60006107b3611874565b611197576040805162461bcd60e51b815260206004808301919091526024820152630a8ae62760e31b604482015290519081900360640190fd5b60a180546001600160a01b0319166001600160a01b0383169081179091556040517fadf61f17e6fb5412e464eca26d3d55b10b68c795cb26e76bc26a2ea6d418efb490600090a250565b609d805460408051602060026001851615610100026000190190941693909304601f810184900484028201840190925281815260009361088b93919290918301828280156112705780601f1061124557610100808354040283529160200191611270565b820191906000526020600020905b81548152906001019060200180831161125357829003601f168201915b5050609e8054604080516020601f60026000196101006001881615020190951694909404938401819004810282018101909252828152955091935091508301828280156112fe5780601f106112d3576101008083540402835291602001916112fe565b820191906000526020600020905b8154815290600101906020018083116112e157829003601f168201915b5050609f548895949350915050611b4e565b60008281526065602052604081206113289083611e65565b9392505050565b60008281526065602052604081206113289083611e71565b600081565b609e805460408051602060026001851615610100026000190190941693909304601f810184900484028201840190925281815292918301828280156113d25780601f106113a7576101008083540402835291602001916113d2565b820191906000526020600020905b8154815290600101906020018083116113b557829003601f168201915b505050505081565b600081815260656020526040812061088b90611e86565b600054610100900460ff168061140a575061140a611e91565b80611418575060005460ff16155b6114535760405162461bcd60e51b815260040180806020018281038252602e815260200180612cf6602e913960400191505060405180910390fd5b600054610100900460ff1615801561147e576000805460ff1961ff0019909116610100171660011790555b611486611ea2565b61148e611f54565b6114a0600061149b611874565b610a4d565b6114b8600080516020612d6583398151915285610a4d565b6114d0600080516020612d4583398151915284610a4d565b6114d9856108a3565b6114e4600180610fcb565b50609c82905560408051808201909152600680825265636f736d6f7360d01b602090920191825261151791609d91612bd3565b50604080518082019091526001808252603160f81b602090920191825261154091609e91612bd3565b506026609f558015611558576000805461ff00191690555b5050505050565b609d805460408051602060026001851615610100026000190190941693909304601f810184900484028201840190925281815292918301828280156113d25780601f106113a7576101008083540402835291602001916113d2565b6000828152606560205260409020600201546115d8906107b3611874565b610ab25760405162461bcd60e51b8152600401808060200182810382526030815260200180612cc66030913960400191505060405180910390fd5b609f5481565b600080516020612d4583398151915281565b606083821461166a576040805162461bcd60e51b815260206004808301919091526024820152635457313160e01b604482015290519081900360640190fd5b611684600080516020612d658339815191526107b3611874565b6116be576040805162461bcd60e51b815260206004808301919091526024820152632a2b989960e11b604482015290519081900360640190fd5b6000848067ffffffffffffffff811180156116d857600080fd5b50604051908082528060200260200182016040528015611702578160200160208202803683370190505b509250600091505b8082101561176b5761174987878481811061172157fe5b905060200201356001600160a01b031686868581811061173d57fe5b905060200201356118d1565b83838151811061175557fe5b602090810291909101015260019091019061170a565b7fff03029439b5b79825ca34bca1b453f01e01935bdde5210a8af22f19705ca1a38787858888426040518080602001806020018060200185815260200184810384528a8a828181526020019250602002808284376000838201819052601f909101601f191690920186810385528a5181528a51602091820193828d0193509102908190849084905b8381101561180b5781810151838201526020016117f3565b505050509050018481038252878782818152602001925060200280828437600083820152604051601f909101601f19169092018290039b50909950505050505050505050a15050949350505050565b609a54609b54609854609954609c54939492939192909190565b3390565b6000826118875750600061088b565b8282028284828161189457fe5b04146113285760405162461bcd60e51b8152600401808060200182810382526021815260200180612d246021913960400191505060405180910390fd5b60006001600160a01b038316158015906118ea57508115155b611924576040805162461bcd60e51b815260206004808301919091526024820152635457313360e01b604482015290519081900360640190fd5b60006119446064610e76609a54609c5487611c659092919063ffffffff16565b90506119508382611d85565b609754604080516340c10f1960e01b81526001600160a01b0388811660048301526024820185905291519395509116916340c10f19916044808201926020929091908290030181600087803b1580156119a857600080fd5b505af11580156119bc573d6000803e3d6000fd5b505050506040513d60208110156119d257600080fd5b5091949350505050565b60008281526065602052604090206119f49082611ff1565b15610a5757611a01611874565b6001600160a01b0316816001600160a01b0316837f2f8788117e7eff1d82e926ec794901d17c78024a50270940304540a733656f0d60405160405180910390a45050565b6000828152606560205260409020611a5d9082612006565b15610a5757611a6a611874565b6001600160a01b0316816001600160a01b0316837ff6391f5c32d9c69d2a47ea670b442974b53935d1edc7fd64eb21e047a839171b60405160405180910390a45050565b611ab66110d7565b611afe576040805162461bcd60e51b815260206004820152601460248201527314185d5cd8589b194e881b9bdd081c185d5cd95960621b604482015290519081900360640190fd5b6033805460ff191690557f5db9ee0a495bf2e6ff9c91a7834c1ba4fdd244a5e8aa4e537bd38aeae4b073aa611b31611874565b604080516001600160a01b039092168252519081900360200190a1565b825160009085908290611b64908390839061201b565b9050611b708187612124565b611b7f57600092505050611c5d565b8051600090611b91908490600161201b565b9050611b9d8187612124565b611bad5760009350505050611c5d565b6000611bcf835160010160018551875103038661201b9092919063ffffffff16565b905085815114611be6576000945050505050611c5d565b82518451600091611c029187916001810191036006190161201b565b90506000611c0f82612188565b9050805160001415611c2a5760009650505050505050611c5d565b6000611c35866122e3565b90506000611c438284612378565b90506000611c518683612124565b99505050505050505050505b949350505050565b6000806000611c74868661245d565b9150915060008480611c8257fe5b868809905082811115611c96576001820391505b918290039181611cb457848381611ca957fe5b049350505050611328565b848210611d08576040805162461bcd60e51b815260206004820152601a60248201527f46756c6c4d6174683a2046554c4c4449565f4f564552464c4f57000000000000604482015290519081900360640190fd5b611d1383838761248a565b979650505050505050565b6000808211611d74576040805162461bcd60e51b815260206004820152601a60248201527f536166654d6174683a206469766973696f6e206279207a65726f000000000000604482015290519081900360640190fd5b818381611d7d57fe5b049392505050565b600082821115611ddc576040805162461bcd60e51b815260206004820152601e60248201527f536166654d6174683a207375627472616374696f6e206f766572666c6f770000604482015290519081900360640190fd5b50900390565b611dea6110d7565b15611e2f576040805162461bcd60e51b815260206004820152601060248201526f14185d5cd8589b194e881c185d5cd95960821b604482015290519081900360640190fd5b6033805460ff191660011790557f62e78cea01bee320cd4e420270b5ea74000d11b0c9f74754ebdbfc544b05a258611b31611874565b600061132883836124fa565b6000611328836001600160a01b03841661255e565b600061088b82612576565b6000611e9c3061257a565b15905090565b600054610100900460ff1680611ebb5750611ebb611e91565b80611ec9575060005460ff16155b611f045760405162461bcd60e51b815260040180806020018281038252602e815260200180612cf6602e913960400191505060405180910390fd5b600054610100900460ff16158015611f2f576000805460ff1961ff0019909116610100171660011790555b611f37612580565b611f3f612580565b8015611f51576000805461ff00191690555b50565b600054610100900460ff1680611f6d5750611f6d611e91565b80611f7b575060005460ff16155b611fb65760405162461bcd60e51b815260040180806020018281038252602e815260200180612cf6602e913960400191505060405180910390fd5b600054610100900460ff16158015611fe1576000805460ff1961ff0019909116610100171660011790555b611fe9612580565b611f3f612620565b6000611328836001600160a01b0384166126cb565b6000611328836001600160a01b038416612715565b60608182601f011015612066576040805162461bcd60e51b815260206004820152600e60248201526d736c6963655f6f766572666c6f7760901b604482015290519081900360640190fd5b818301845110156120b2576040805162461bcd60e51b8152602060048201526011602482015270736c6963655f6f75744f66426f756e647360781b604482015290519081900360640190fd5b6060821580156120d1576040519150600082526020820160405261211b565b6040519150601f8416801560200281840101858101878315602002848b0101015b8183101561210a5780518352602092830192016120f2565b5050858452601f01601f1916604052505b50949350505050565b815181516000916001918114808314612140576000925061217e565b600160208701838101602088015b60028483851001141561217957805183511461216d5760009650600093505b6020928301920161214e565b505050505b5090949350505050565b6060815167ffffffffffffffff811180156121a257600080fd5b506040519080825280602002602001820160405280156121cc578160200160208202803683370190505b50905060606000805b84518110156122db57600091505b604051806040016040528060208152602001600080516020612db48339815191528152505182101561228457604051806040016040528060208152602001600080516020612db4833981519152815250828151811061223e57fe5b602001015160f81c60f81b6001600160f81b03191685828151811061225f57fe5b01602001516001600160f81b031916141561227957612284565b6001909101906121e3565b604051806040016040528060208152602001600080516020612db4833981519152815250518214156122bb578293505050506109ef565b818482815181106122c857fe5b60209081029190910101526001016121d5565b505050919050565b6060815167ffffffffffffffff811180156122fd57600080fd5b50604051908082528060200260200182016040528015612327578160200160208202803683370190505b50905060005b82518110156123725782818151811061234257fe5b602001015160f81c60f81b60f81c60ff1682828151811061235f57fe5b602090810291909101015260010161232d565b50919050565b6060600061238f8361238a86866127db565b612878565b90506000815167ffffffffffffffff811180156123ab57600080fd5b506040519080825280601f01601f1916602001820160405280156123d6576020820181803683370190505b50905060005b825181101561211b57604051806040016040528060208152602001600080516020612db483398151915281525083828151811061241557fe5b60200260200101518151811061242757fe5b602001015160f81c60f81b82828151811061243e57fe5b60200101906001600160f81b031916908160001a9053506001016123dc565b6000808060001984860990508385029250828103915082811015612482576001820391505b509250929050565b6000818103821680838161249a57fe5b0492508085816124a657fe5b0494508081600003816124b557fe5b60028581038087028203028087028203028087028203028087028203028087028203028087028203029586029003909402930460010193909302939093010292915050565b8154600090821061253c5760405162461bcd60e51b8152600401808060200182810382526022815260200180612c756022913960400191505060405180910390fd5b82600001828154811061254b57fe5b9060005260206000200154905092915050565b60009081526001919091016020526040902054151590565b5490565b3b151590565b600054610100900460ff16806125995750612599611e91565b806125a7575060005460ff16155b6125e25760405162461bcd60e51b815260040180806020018281038252602e815260200180612cf6602e913960400191505060405180910390fd5b600054610100900460ff16158015611f3f576000805460ff1961ff0019909116610100171660011790558015611f51576000805461ff001916905550565b600054610100900460ff16806126395750612639611e91565b80612647575060005460ff16155b6126825760405162461bcd60e51b815260040180806020018281038252602e815260200180612cf6602e913960400191505060405180910390fd5b600054610100900460ff161580156126ad576000805460ff1961ff0019909116610100171660011790555b6033805460ff191690558015611f51576000805461ff001916905550565b60006126d7838361255e565b61270d5750815460018181018455600084815260208082209093018490558454848252828601909352604090209190915561088b565b50600061088b565b600081815260018301602052604081205480156127d1578354600019808301919081019060009087908390811061274857fe5b906000526020600020015490508087600001848154811061276557fe5b60009182526020808320909101929092558281526001898101909252604090209084019055865487908061279557fe5b6001900381819060005260206000200160009055905586600101600087815260200190815260200160002060009055600194505050505061088b565b600091505061088b565b606060006127fd6127f46127ee8661294b565b85612878565b60006006612a48565b9050600061280a82612b0e565b60408051600680825260e082019092526001929092189250600091906020820160c08036833701905050905060005b600681101561286e578060050360050283901c601f1682828151811061285b57fe5b6020908102919091010152600101612839565b5095945050505050565b60606000825184510167ffffffffffffffff8111801561289757600080fd5b506040519080825280602002602001820160405280156128c1578160200160208202803683370190505b50905060005b8451811015612903578481815181106128dc57fe5b60200260200101518282815181106128f057fe5b60209081029190910101526001016128c7565b60005b845181101561217e57845160018201918691811061292057fe5b602002602001015183838060010194508151811061293a57fe5b602002602001018181525050612906565b60606000825183510160010167ffffffffffffffff8111801561296d57600080fd5b50604051908082528060200260200182016040528015612997578160200160208202803683370190505b50905060005b83518110156129dd5760058482815181106129b457fe5b6020026020010151901c8282815181106129ca57fe5b602090810291909101015260010161299d565b506000818451815181106129ed57fe5b60200260200101818152505060005b8351811015612a4157838181518110612a1157fe5b6020026020010151601f16828551830160010181518110612a2e57fe5b60209081029190910101526001016129fc565b5092915050565b606060008285510167ffffffffffffffff81118015612a6657600080fd5b50604051908082528060200260200182016040528015612a90578160200160208202803683370190505b50905060005b8551811015612ad257858181518110612aab57fe5b6020026020010151828281518110612abf57fe5b6020908102919091010152600101612a96565b60005b84811015612b035785838380600101945081518110612af057fe5b6020908102919091010152600101612ad5565b509095945050505050565b6040805160a081018252633b6a57b281526326508e6d6020820152631ea119fa91810191909152633d4233dd6060820152632a1462b360808201526000906001825b8451811015612bcb576000601983901c9050858281518110612b6e57fe5b60200260200101516005846301ffffff16901b18925060005b6005811015612bc157600182821c81161415612bb957848160058110612ba957fe5b602002015163ffffffff16841893505b600101612b87565b5050600101612b50565b509392505050565b828054600181600116156101000203166002900490600052602060002090601f016020900481019282612c095760008555612c4f565b82601f10612c2257805160ff1916838001178555612c4f565b82800160010185558215612c4f579182015b82811115612c4f578251825591602001919060010190612c34565b50612c5b929150612c5f565b5090565b5b80821115612c5b5760008155600101612c6056fe456e756d657261626c655365743a20696e646578206f7574206f6620626f756e6473416363657373436f6e74726f6c3a2073656e646572206d75737420626520616e2061646d696e20746f206772616e74416363657373436f6e74726f6c3a2073656e646572206d75737420626520616e2061646d696e20746f207265766f6b65496e697469616c697a61626c653a20636f6e747261637420697320616c726561647920696e697469616c697a6564536166654d6174683a206d756c7469706c69636174696f6e206f766572666c6f7765d7a28e3265b37a6474929f336521b332c1681b933f6cb9f3376673440d862a751b795d24b92e3d92d1d0d8f2885f4e9c9c269da350af36ae6b49069babf4bf416363657373436f6e74726f6c3a2063616e206f6e6c792072656e6f756e636520726f6c657320666f722073656c6671707a7279397838676632747664773073336a6e35346b686365366d7561376ca26469706673582212206efe64e2f0cb831741573bc1eba38c187b549ebf8cdfbbf1a7cf8589f2b8d1c464736f6c63430007060033",
  "immutableReferences": {},
  "source": "/*\n Copyright [2019] - [2021], PERSISTENCE TECHNOLOGIES PTE. LTD. and the pStake-smartContracts contributors\n SPDX-License-Identifier: Apache-2.0\n*/\n\npragma solidity >=0.7.0;\n\nimport \"@openzeppelin/contracts-upgradeable/math/SafeMathUpgradeable.sol\";\nimport \"@openzeppelin/contracts-upgradeable/utils/PausableUpgradeable.sol\";\nimport \"@openzeppelin/contracts-upgradeable/access/AccessControlUpgradeable.sol\";\nimport \"./interfaces/IUTokensV2.sol\";\nimport \"./interfaces/ITokenWrapperV4.sol\";\nimport \"./libraries/Bech32.sol\";\nimport \"./libraries/FullMath.sol\";\n\ncontract TokenWrapperV5 is\nITokenWrapperV4,\nPausableUpgradeable,\nAccessControlUpgradeable\n{\n    using SafeMathUpgradeable for uint256;\n    using FullMath for uint256;\n    using Bech32 for string;\n\n    //Private instances of contracts to handle Utokens\n    IUTokensV2 public _uTokens;\n\n    // defining the fees and minimum values\n    uint256 private _minDeposit;\n    uint256 private _minWithdraw;\n    uint256 private _depositFee;\n    uint256 private _withdrawFee;\n    uint256 public _valueDivisor;\n\n    // constants defining access control ROLES\n    bytes32 public constant BRIDGE_ADMIN_ROLE = keccak256(\"BRIDGE_ADMIN_ROLE\");\n    bytes32 public constant PAUSER_ROLE = keccak256(\"PAUSER_ROLE\");\n\n    //variables defining bech32 validation attributes\n    bytes public hrpBytes;\n    bytes public controlDigitBytes;\n    uint256 public dataBytesSize;\n\n    // variable pertaining to contract upgrades versioning\n    uint256 public _version;\n\n    //migration admin contract address\n    address public _migrationAdminContract;\n\n    /*\n     * @dev Constructor for initializing the TokenWrapper contract.\n\t * @param uAddress - address of the UToken contract.\n\t * @param bridgeAdminAddress - address of the bridge admin.\n\t * @param pauserAddress - address of the pauser admin.\n\t * @param valueDivisor - valueDivisor set to 10^9.\n\t */\n    function initialize(\n        address uAddress,\n        address bridgeAdminAddress,\n        address pauserAddress,\n        uint256 valueDivisor\n    ) public virtual initializer {\n        __AccessControl_init();\n        __Pausable_init();\n        _setupRole(DEFAULT_ADMIN_ROLE, _msgSender());\n        _setupRole(BRIDGE_ADMIN_ROLE, bridgeAdminAddress);\n        _setupRole(PAUSER_ROLE, pauserAddress);\n        setUTokensContract(uAddress);\n        setMinimumValues(1, 1);\n        _valueDivisor = valueDivisor;\n        // setting bech32 validation attributes\n        hrpBytes = \"cosmos\";\n        controlDigitBytes = \"1\";\n        dataBytesSize = 38;\n    }\n\n    /**\n     * @dev Set 'fees', called from admin\n\t * @param withdrawFee: withdraw fee\n\t * @param depositFee: deposit fee\n\t *\n\t * Emits a {SetFees} event with 'fee' set to the withdraw.\n\t *\n\t */\n    function setFees(uint256 depositFee, uint256 withdrawFee)\n    public\n    virtual\n    override\n    returns (bool success)\n    {\n        require(hasRole(DEFAULT_ADMIN_ROLE, _msgSender()), \"TW1\");\n        // range checks for fees. Since fee cannot be more than 100%, the max cap\n        // is _valueDivisor * 100, which then brings the fees to 100 (percentage)\n        require(\n            (depositFee <= _valueDivisor.mul(100)) &&\n            (withdrawFee <= _valueDivisor.mul(100)),\n            \"TW2\"\n        );\n        _depositFee = depositFee;\n        _withdrawFee = withdrawFee;\n        emit SetFees(depositFee, withdrawFee);\n        return true;\n    }\n\n    /**\n     * @dev get fees, minimum set values and value divisor\n\t *\n\t */\n    function getProps()\n    public\n    view\n    virtual\n    override\n    returns (\n        uint256 depositFee,\n        uint256 withdrawFee,\n        uint256 minDeposit,\n        uint256 minWithdraw,\n        uint256 valueDivisor\n    )\n    {\n        depositFee = _depositFee;\n        withdrawFee = _withdrawFee;\n        minDeposit = _minDeposit;\n        minWithdraw = _minWithdraw;\n        valueDivisor = _valueDivisor;\n    }\n\n    /**\n     * @dev Set 'minimum values', called from admin\n\t * @param minDeposit: deposit minimum value\n\t * @param minWithdraw: withdraw minimum value\n\t *\n\t * Emits a {SetMinimumValues} event with 'minimum value' set to withdraw.\n\t *\n\t */\n    function setMinimumValues(uint256 minDeposit, uint256 minWithdraw)\n    public\n    virtual\n    override\n    returns (bool success)\n    {\n        require(hasRole(DEFAULT_ADMIN_ROLE, _msgSender()), \"TW3\");\n        require(minDeposit >= 1, \"TW4\");\n        require(minWithdraw >= 1, \"TW5\");\n        _minDeposit = minDeposit;\n        _minWithdraw = minWithdraw;\n        emit SetMinimumValues(minDeposit, minWithdraw);\n        return true;\n    }\n\n    /*\n     * @dev Set 'contract address', called for utokens smart contract\n\t * @param uAddress: utoken contract address\n\t *\n\t * Emits a {SetUTokensContract} event with '_contract' set to the utoken contract address.\n\t *\n\t */\n    function setUTokensContract(address uAddress) public virtual override {\n        require(hasRole(DEFAULT_ADMIN_ROLE, _msgSender()), \"TW6\");\n        _uTokens = IUTokensV2(uAddress);\n        emit SetUTokensContract(uAddress);\n    }\n\n    /**\n     * @dev common function added to be called by generateUTokens and generateUTokensInBatch and mints new utokens for the provided 'address' and 'amount'\n\t * @param to: account address, amount: number of tokens\n\t *\n\t */\n    function _generateUTokens(address to, uint256 amount)\n    internal\n    virtual\n    returns (uint256 wrappedTokens)\n    {\n        // require the address and amount to be non-zero\n        require(to != address(0) && amount != 0, \"TW13\");\n\n        // the tokens to be generated to the user's address will be after the fee processing\n        uint256 _fee = (amount.mulDiv(_depositFee, _valueDivisor)).div(100);\n        wrappedTokens = amount.sub(_fee);\n\n        // mint the UTokens\n        _uTokens.mint(to, wrappedTokens);\n    }\n\n    /**\n     * @dev Mint new utokens for the provided 'address' and 'amount'\n\t * @param to: account address\n\t * @param amount: number of tokens\n\t *\n\t * Emits a {GenerateUTokens} event with 'to' set to address and 'amount' set to amount of tokens.\n\t *\n\t */\n    function generateUTokens(address to, uint256 amount)\n    public\n    virtual\n    override\n    returns (uint256 wrappedTokens)\n    {\n        // require the sender to be a bridge admin\n        require(hasRole(BRIDGE_ADMIN_ROLE, _msgSender()), \"TW10\");\n\n        wrappedTokens = _generateUTokens(to, amount);\n        emit GenerateUTokens(to, wrappedTokens, amount, block.timestamp);\n    }\n\n    /**\n     * @dev Mint new utokens for the provided 'address' and 'amount' in batch\n\t * @param toAddresses: array of account addresses, amount[]: array of tokens\n\t * @param amounts: array of tokens\n\t *\n\t * Emits a {GenerateUTokensInBatch} event with 'to' set to address and 'amount' set to amount of tokens.\n\t */\n    function generateUTokensInBatch(\n        address[] calldata toAddresses,\n        uint256[] calldata amounts\n    ) external virtual override returns (uint256[] memory wrappedTokensArray) {\n        require(toAddresses.length == amounts.length, \"TW11\");\n        require(hasRole(BRIDGE_ADMIN_ROLE, _msgSender()), \"TW12\");\n\n        uint256 index;\n        uint256 arrayLength = toAddresses.length;\n        wrappedTokensArray = new uint256[](arrayLength);\n\n        for (index = 0; index < arrayLength; index++) {\n            wrappedTokensArray[index] = _generateUTokens(\n                toAddresses[index],\n                amounts[index]\n            );\n        }\n\n        emit GenerateUTokensInBatch(\n            toAddresses,\n            wrappedTokensArray,\n            amounts,\n            block.timestamp\n        );\n    }\n\n    /**\n     * @dev check if the address is Bech32Valid\n\t *\n\t */\n    function isBech32Valid(string memory toChainAddress)\n    public\n    view\n    virtual\n    override\n    returns (bool isAddressValid)\n    {\n        isAddressValid = toChainAddress.isBech32AddressValid(\n            hrpBytes,\n            controlDigitBytes,\n            dataBytesSize\n        );\n    }\n\n    /**\n     * @dev Burn utokens for the provided 'address' and 'tokens'\n\t * @param from: account address of the sender\n\t * @param tokens: number of tokens to be unwrapped\n\t * @param toChainAddress: wallet address of the native chain\n\t *\n\t * Emits a {WithdrawUTokens} event with 'from' set to address, 'finalTokens' set to amount of tokens and 'toChainAddress'\n\t *\n\t */\n    function withdrawUTokens(\n        address from,\n        uint256 tokens,\n        string memory toChainAddress\n    ) public virtual override whenNotPaused returns (uint256 unwrappedTokens) {\n        // require the 'from' address to be of message sender\n        require(from == _msgSender() || _migrationAdminContract == _msgSender(), \"TW17\");\n\n        // require the token amount not be less than min value\n        require(tokens >= _minWithdraw, \"TW14\");\n\n        // require user to hold enough UTokens balance\n        uint256 currentUTokenBalance = _uTokens.balanceOf(from);\n        require(currentUTokenBalance >= tokens, \"TW16\");\n\n        //check if toChainAddress is valid address as per Bech32 Validation\n        bool isAddressValid = toChainAddress.isBech32AddressValid(\n            hrpBytes,\n            controlDigitBytes,\n            dataBytesSize\n        );\n        require(isAddressValid == true, \"TW15\");\n\n        // final tokens is the amount of tokens to be burned, including the fee\n        uint256 fee = (tokens.mulDiv(_withdrawFee, _valueDivisor)).div(100);\n        unwrappedTokens = tokens.sub(fee);\n\n        // emit an event\n        emit WithdrawUTokens(\n            from,\n            unwrappedTokens,\n            tokens,\n            toChainAddress,\n            block.timestamp\n        );\n\n        // perform the burning of UTokens\n        _uTokens.burn(from, tokens);\n    }\n\n    /*\n     * @dev Set 'contract address', called from constructor\n\t * @param migrationAdminContract: migration admin contract address\n\t *\n\t * Emits a {SetMigrationAdminEvent} event with '_contract' set to the migration admin contract address.\n\t *\n\t */\n    function setMigrationAdminContract(address migrationAdminContract)\n    public\n    virtual\n    override\n    {\n        require(hasRole(DEFAULT_ADMIN_ROLE, _msgSender()), \"TW18\");\n        _migrationAdminContract = migrationAdminContract;\n        emit SetMigrationAdminEvent(migrationAdminContract);\n    }\n\n    /**\n     * @dev Triggers stopped state.\n\t *\n\t */\n    function pause() public virtual override returns (bool success) {\n        require(hasRole(PAUSER_ROLE, _msgSender()), \"TW7\");\n        _pause();\n        return true;\n    }\n\n    /**\n     * @dev Returns to normal state.\n\t *\n\t */\n    function unpause() public virtual override returns (bool success) {\n        require(hasRole(PAUSER_ROLE, _msgSender()), \"TW8\");\n        _unpause();\n        return true;\n    }\n}\n",
  "sourcePath": "/Users/aditimaheshwari/Documents/Work/Persistence/Codebase/persistenceOne/pStake-smartContracts/contracts/TokenWrapperV5.sol",
  "compiler": {
    "name": "solc",
    "version": "0.7.6+commit.7338295f.Emscripten.clang"
  },
  "schemaVersion": "3.4.3",
  "updatedAt": "2022-08-16T10:38:53.300Z",
  "networkType": "ethereum",
  "devdoc": {
    "kind": "dev",
    "methods": {
      "generateUTokens(address,uint256)": {
        "details": "Mint new utokens for the provided 'address' and 'amount'",
        "params": {
          "amount": ": number of tokens Emits a {GenerateUTokens} event with 'to' set to address and 'amount' set to amount of tokens.",
          "to": ": account address"
        }
      },
      "generateUTokensInBatch(address[],uint256[])": {
        "details": "Mint new utokens for the provided 'address' and 'amount' in batch",
        "params": {
          "amounts": ": array of tokens Emits a {GenerateUTokensInBatch} event with 'to' set to address and 'amount' set to amount of tokens.",
          "toAddresses": ": array of account addresses, amount[]: array of tokens"
        }
      },
      "getProps()": {
        "details": "get fees, minimum set values and value divisor"
      },
      "getRoleAdmin(bytes32)": {
        "details": "Returns the admin role that controls `role`. See {grantRole} and {revokeRole}. To change a role's admin, use {_setRoleAdmin}."
      },
      "getRoleMember(bytes32,uint256)": {
        "details": "Returns one of the accounts that have `role`. `index` must be a value between 0 and {getRoleMemberCount}, non-inclusive. Role bearers are not sorted in any particular way, and their ordering may change at any point. WARNING: When using {getRoleMember} and {getRoleMemberCount}, make sure you perform all queries on the same block. See the following https://forum.openzeppelin.com/t/iterating-over-elements-on-enumerableset-in-openzeppelin-contracts/2296[forum post] for more information."
      },
      "getRoleMemberCount(bytes32)": {
        "details": "Returns the number of accounts that have `role`. Can be used together with {getRoleMember} to enumerate all bearers of a role."
      },
      "grantRole(bytes32,address)": {
        "details": "Grants `role` to `account`. If `account` had not been already granted `role`, emits a {RoleGranted} event. Requirements: - the caller must have ``role``'s admin role."
      },
      "hasRole(bytes32,address)": {
        "details": "Returns `true` if `account` has been granted `role`."
      },
      "isBech32Valid(string)": {
        "details": "check if the address is Bech32Valid"
      },
      "pause()": {
        "details": "Triggers stopped state."
      },
      "paused()": {
        "details": "Returns true if the contract is paused, and false otherwise."
      },
      "renounceRole(bytes32,address)": {
        "details": "Revokes `role` from the calling account. Roles are often managed via {grantRole} and {revokeRole}: this function's purpose is to provide a mechanism for accounts to lose their privileges if they are compromised (such as when a trusted device is misplaced). If the calling account had been granted `role`, emits a {RoleRevoked} event. Requirements: - the caller must be `account`."
      },
      "revokeRole(bytes32,address)": {
        "details": "Revokes `role` from `account`. If `account` had been granted `role`, emits a {RoleRevoked} event. Requirements: - the caller must have ``role``'s admin role."
      },
      "setFees(uint256,uint256)": {
        "details": "Set 'fees', called from admin",
        "params": {
          "depositFee": ": deposit fee Emits a {SetFees} event with 'fee' set to the withdraw.",
          "withdrawFee": ": withdraw fee"
        }
      },
      "setMinimumValues(uint256,uint256)": {
        "details": "Set 'minimum values', called from admin",
        "params": {
          "minDeposit": ": deposit minimum value",
          "minWithdraw": ": withdraw minimum value Emits a {SetMinimumValues} event with 'minimum value' set to withdraw."
        }
      },
      "setUTokensContract(address)": {
        "details": "Set UTokens smart contract. Emits a {SetUTokensContract} event."
      },
      "unpause()": {
        "details": "Returns to normal state."
      },
      "withdrawUTokens(address,uint256,string)": {
        "details": "Burn utokens for the provided 'address' and 'tokens'",
        "params": {
          "from": ": account address of the sender",
          "toChainAddress": ": wallet address of the native chain Emits a {WithdrawUTokens} event with 'from' set to address, 'finalTokens' set to amount of tokens and 'toChainAddress'",
          "tokens": ": number of tokens to be unwrapped"
        }
      }
    },
    "version": 1
  },
  "userdoc": {
    "kind": "user",
    "methods": {},
    "version": 1
  }
}