{
  "contractName": "TokenWrapper",
  "abi": [
    {
      "anonymous": false,
      "inputs": [
        {
          "indexed": true,
          "internalType": "address",
          "name": "accountAddress",
          "type": "address"
        },
        {
          "indexed": true,
          "internalType": "uint256",
          "name": "tokens",
          "type": "uint256"
        },
        {
          "indexed": true,
          "internalType": "uint256",
          "name": "finalTokens",
          "type": "uint256"
        },
        {
          "indexed": false,
          "internalType": "uint256",
          "name": "timestamp",
          "type": "uint256"
        }
      ],
      "name": "GenerateUTokens",
      "type": "event"
    },
    {
      "anonymous": false,
      "inputs": [
        {
          "indexed": false,
          "internalType": "address",
          "name": "account",
          "type": "address"
        }
      ],
      "name": "Paused",
      "type": "event"
    },
    {
      "anonymous": false,
      "inputs": [
        {
          "indexed": true,
          "internalType": "bytes32",
          "name": "role",
          "type": "bytes32"
        },
        {
          "indexed": true,
          "internalType": "bytes32",
          "name": "previousAdminRole",
          "type": "bytes32"
        },
        {
          "indexed": true,
          "internalType": "bytes32",
          "name": "newAdminRole",
          "type": "bytes32"
        }
      ],
      "name": "RoleAdminChanged",
      "type": "event"
    },
    {
      "anonymous": false,
      "inputs": [
        {
          "indexed": true,
          "internalType": "bytes32",
          "name": "role",
          "type": "bytes32"
        },
        {
          "indexed": true,
          "internalType": "address",
          "name": "account",
          "type": "address"
        },
        {
          "indexed": true,
          "internalType": "address",
          "name": "sender",
          "type": "address"
        }
      ],
      "name": "RoleGranted",
      "type": "event"
    },
    {
      "anonymous": false,
      "inputs": [
        {
          "indexed": true,
          "internalType": "bytes32",
          "name": "role",
          "type": "bytes32"
        },
        {
          "indexed": true,
          "internalType": "address",
          "name": "account",
          "type": "address"
        },
        {
          "indexed": true,
          "internalType": "address",
          "name": "sender",
          "type": "address"
        }
      ],
      "name": "RoleRevoked",
      "type": "event"
    },
    {
      "anonymous": false,
      "inputs": [
        {
          "indexed": false,
          "internalType": "uint256",
          "name": "depositFee",
          "type": "uint256"
        },
        {
          "indexed": false,
          "internalType": "uint256",
          "name": "withdrawFee",
          "type": "uint256"
        }
      ],
      "name": "SetFees",
      "type": "event"
    },
    {
      "anonymous": false,
      "inputs": [
        {
          "indexed": false,
          "internalType": "uint256",
          "name": "minDeposit",
          "type": "uint256"
        },
        {
          "indexed": false,
          "internalType": "uint256",
          "name": "minWithdraw",
          "type": "uint256"
        }
      ],
      "name": "SetMinimumValues",
      "type": "event"
    },
    {
      "anonymous": false,
      "inputs": [
        {
          "indexed": true,
          "internalType": "address",
          "name": "_contract",
          "type": "address"
        }
      ],
      "name": "SetUTokensContract",
      "type": "event"
    },
    {
      "anonymous": false,
      "inputs": [
        {
          "indexed": false,
          "internalType": "address",
          "name": "account",
          "type": "address"
        }
      ],
      "name": "Unpaused",
      "type": "event"
    },
    {
      "anonymous": false,
      "inputs": [
        {
          "indexed": true,
          "internalType": "address",
          "name": "accountAddress",
          "type": "address"
        },
        {
          "indexed": true,
          "internalType": "uint256",
          "name": "tokens",
          "type": "uint256"
        },
        {
          "indexed": false,
          "internalType": "uint256",
          "name": "finalTokens",
          "type": "uint256"
        },
        {
          "indexed": true,
          "internalType": "string",
          "name": "toChainAddress",
          "type": "string"
        },
        {
          "indexed": false,
          "internalType": "uint256",
          "name": "timestamp",
          "type": "uint256"
        }
      ],
      "name": "WithdrawUTokens",
      "type": "event"
    },
    {
      "inputs": [],
      "name": "BRIDGE_ADMIN_ROLE",
      "outputs": [
        {
          "internalType": "bytes32",
          "name": "",
          "type": "bytes32"
        }
      ],
      "stateMutability": "view",
      "type": "function"
    },
    {
      "inputs": [],
      "name": "DEFAULT_ADMIN_ROLE",
      "outputs": [
        {
          "internalType": "bytes32",
          "name": "",
          "type": "bytes32"
        }
      ],
      "stateMutability": "view",
      "type": "function"
    },
    {
      "inputs": [],
      "name": "PAUSER_ROLE",
      "outputs": [
        {
          "internalType": "bytes32",
          "name": "",
          "type": "bytes32"
        }
      ],
      "stateMutability": "view",
      "type": "function"
    },
    {
      "inputs": [
        {
          "internalType": "bytes32",
          "name": "role",
          "type": "bytes32"
        }
      ],
      "name": "getRoleAdmin",
      "outputs": [
        {
          "internalType": "bytes32",
          "name": "",
          "type": "bytes32"
        }
      ],
      "stateMutability": "view",
      "type": "function"
    },
    {
      "inputs": [
        {
          "internalType": "bytes32",
          "name": "role",
          "type": "bytes32"
        },
        {
          "internalType": "uint256",
          "name": "index",
          "type": "uint256"
        }
      ],
      "name": "getRoleMember",
      "outputs": [
        {
          "internalType": "address",
          "name": "",
          "type": "address"
        }
      ],
      "stateMutability": "view",
      "type": "function"
    },
    {
      "inputs": [
        {
          "internalType": "bytes32",
          "name": "role",
          "type": "bytes32"
        }
      ],
      "name": "getRoleMemberCount",
      "outputs": [
        {
          "internalType": "uint256",
          "name": "",
          "type": "uint256"
        }
      ],
      "stateMutability": "view",
      "type": "function"
    },
    {
      "inputs": [
        {
          "internalType": "bytes32",
          "name": "role",
          "type": "bytes32"
        },
        {
          "internalType": "address",
          "name": "account",
          "type": "address"
        }
      ],
      "name": "grantRole",
      "outputs": [],
      "stateMutability": "nonpayable",
      "type": "function"
    },
    {
      "inputs": [
        {
          "internalType": "bytes32",
          "name": "role",
          "type": "bytes32"
        },
        {
          "internalType": "address",
          "name": "account",
          "type": "address"
        }
      ],
      "name": "hasRole",
      "outputs": [
        {
          "internalType": "bool",
          "name": "",
          "type": "bool"
        }
      ],
      "stateMutability": "view",
      "type": "function"
    },
    {
      "inputs": [],
      "name": "paused",
      "outputs": [
        {
          "internalType": "bool",
          "name": "",
          "type": "bool"
        }
      ],
      "stateMutability": "view",
      "type": "function"
    },
    {
      "inputs": [
        {
          "internalType": "bytes32",
          "name": "role",
          "type": "bytes32"
        },
        {
          "internalType": "address",
          "name": "account",
          "type": "address"
        }
      ],
      "name": "renounceRole",
      "outputs": [],
      "stateMutability": "nonpayable",
      "type": "function"
    },
    {
      "inputs": [
        {
          "internalType": "bytes32",
          "name": "role",
          "type": "bytes32"
        },
        {
          "internalType": "address",
          "name": "account",
          "type": "address"
        }
      ],
      "name": "revokeRole",
      "outputs": [],
      "stateMutability": "nonpayable",
      "type": "function"
    },
    {
      "inputs": [
        {
          "internalType": "address",
          "name": "uAddress",
          "type": "address"
        },
        {
          "internalType": "address",
          "name": "bridgeAdminAddress",
          "type": "address"
        },
        {
          "internalType": "address",
          "name": "pauserAddress",
          "type": "address"
        },
        {
          "internalType": "uint256",
          "name": "valueDivisor",
          "type": "uint256"
        }
      ],
      "name": "initialize",
      "outputs": [],
      "stateMutability": "nonpayable",
      "type": "function"
    },
    {
      "inputs": [
        {
          "internalType": "uint256",
          "name": "depositFee",
          "type": "uint256"
        },
        {
          "internalType": "uint256",
          "name": "withdrawFee",
          "type": "uint256"
        }
      ],
      "name": "setFees",
      "outputs": [
        {
          "internalType": "bool",
          "name": "success",
          "type": "bool"
        }
      ],
      "stateMutability": "nonpayable",
      "type": "function"
    },
    {
      "inputs": [],
      "name": "getProps",
      "outputs": [
        {
          "internalType": "uint256",
          "name": "depositFee",
          "type": "uint256"
        },
        {
          "internalType": "uint256",
          "name": "withdrawFee",
          "type": "uint256"
        },
        {
          "internalType": "uint256",
          "name": "minDeposit",
          "type": "uint256"
        },
        {
          "internalType": "uint256",
          "name": "minWithdraw",
          "type": "uint256"
        },
        {
          "internalType": "uint256",
          "name": "valueDivisor",
          "type": "uint256"
        }
      ],
      "stateMutability": "view",
      "type": "function"
    },
    {
      "inputs": [
        {
          "internalType": "uint256",
          "name": "minDeposit",
          "type": "uint256"
        },
        {
          "internalType": "uint256",
          "name": "minWithdraw",
          "type": "uint256"
        }
      ],
      "name": "setMinimumValues",
      "outputs": [
        {
          "internalType": "bool",
          "name": "success",
          "type": "bool"
        }
      ],
      "stateMutability": "nonpayable",
      "type": "function"
    },
    {
      "inputs": [
        {
          "internalType": "address",
          "name": "uAddress",
          "type": "address"
        }
      ],
      "name": "setUTokensContract",
      "outputs": [],
      "stateMutability": "nonpayable",
      "type": "function"
    },
    {
      "inputs": [],
      "name": "pause",
      "outputs": [
        {
          "internalType": "bool",
          "name": "success",
          "type": "bool"
        }
      ],
      "stateMutability": "nonpayable",
      "type": "function"
    },
    {
      "inputs": [],
      "name": "unpause",
      "outputs": [
        {
          "internalType": "bool",
          "name": "success",
          "type": "bool"
        }
      ],
      "stateMutability": "nonpayable",
      "type": "function"
    },
    {
      "inputs": [
        {
          "internalType": "address",
          "name": "to",
          "type": "address"
        },
        {
          "internalType": "uint256",
          "name": "amount",
          "type": "uint256"
        }
      ],
      "name": "generateUTokens",
      "outputs": [],
      "stateMutability": "nonpayable",
      "type": "function"
    },
    {
      "inputs": [
        {
          "internalType": "address[]",
          "name": "to",
          "type": "address[]"
        },
        {
          "internalType": "uint256[]",
          "name": "amount",
          "type": "uint256[]"
        }
      ],
      "name": "generateUTokensInBatch",
      "outputs": [],
      "stateMutability": "nonpayable",
      "type": "function"
    },
    {
      "inputs": [
        {
          "internalType": "string",
          "name": "toChainAddress",
          "type": "string"
        }
      ],
      "name": "isBech32Valid",
      "outputs": [
        {
          "internalType": "bool",
          "name": "isAddressValid",
          "type": "bool"
        }
      ],
      "stateMutability": "view",
      "type": "function"
    },
    {
      "inputs": [
        {
          "internalType": "address",
          "name": "from",
          "type": "address"
        },
        {
          "internalType": "uint256",
          "name": "tokens",
          "type": "uint256"
        },
        {
          "internalType": "string",
          "name": "toChainAddress",
          "type": "string"
        }
      ],
      "name": "withdrawUTokens",
      "outputs": [],
      "stateMutability": "nonpayable",
      "type": "function"
    }
  ],
  "bytecode": "0x608060405234801561001057600080fd5b50612aa9806100206000396000f3fe608060405234801561001057600080fd5b50600436106101425760003560e01c80638456cb59116100b8578063ca15c8731161007c578063ca15c8731461046c578063cf756fdf14610489578063d547741f146104c5578063e63ab1e9146104f1578063e7fa0a32146104f9578063ec1893b41461061c57610142565b80638456cb591461034d5780638f001d4e146103555780639010d07c146103f957806391d1485414610438578063a217fddf1461046457610142565b80632f2ff15d1161010a5780632f2ff15d1461020957806336568abe146102355780633f4ba83a14610261578063428bee9e1461026957806351db00e7146103225780635c975abb1461034557610142565b80630b78f9c014610147578063118c38c71461017e57806321bdf9e51461019857806322dd9bc3146101c0578063248a9ca3146101ec575b600080fd5b61016a6004803603604081101561015d57600080fd5b508035906020013561064f565b604080519115158252519081900360200190f35b61018661075a565b60408051918252519081900360200190f35b6101be600480360360208110156101ae57600080fd5b50356001600160a01b031661076c565b005b6101be600480360360408110156101d657600080fd5b506001600160a01b0381351690602001356107fa565b6101866004803603602081101561020257600080fd5b503561092e565b6101be6004803603604081101561021f57600080fd5b50803590602001356001600160a01b0316610946565b6101be6004803603604081101561024b57600080fd5b50803590602001356001600160a01b03166109ad565b61016a610a0e565b6101be6004803603606081101561027f57600080fd5b6001600160a01b0382351691602081013591810190606081016040820135600160201b8111156102ae57600080fd5b8201836020820111156102c057600080fd5b803590602001918460018302840111600160201b831117156102e157600080fd5b91908080601f016020809104026020016040519081016040528093929190818152602001838380828437600092019190915250929550610a6f945050505050565b61016a6004803603604081101561033857600080fd5b5080359060200135610ee0565b61016a610feb565b61016a610ff4565b61016a6004803603602081101561036b57600080fd5b810190602081018135600160201b81111561038557600080fd5b82018360208201111561039757600080fd5b803590602001918460018302840111600160201b831117156103b857600080fd5b91908080601f01602080910402602001604051908101604052809392919081815260200183838082843760009201919091525092955061104f945050505050565b61041c6004803603604081101561040f57600080fd5b50803590602001356110b3565b604080516001600160a01b039092168252519081900360200190f35b61016a6004803603604081101561044e57600080fd5b50803590602001356001600160a01b03166110d2565b6101866110ea565b6101866004803603602081101561048257600080fd5b50356110ef565b6101be6004803603608081101561049f57600080fd5b506001600160a01b03813581169160208101358216916040820135169060600135611106565b6101be600480360360408110156104db57600080fd5b50803590602001356001600160a01b0316611274565b6101866112cd565b6101be6004803603604081101561050f57600080fd5b810190602081018135600160201b81111561052957600080fd5b82018360208201111561053b57600080fd5b803590602001918460208302840111600160201b8311171561055c57600080fd5b9190808060200260200160405190810160405280939291908181526020018383602002808284376000920191909152509295949360208101935035915050600160201b8111156105ab57600080fd5b8201836020820111156105bd57600080fd5b803590602001918460208302840111600160201b831117156105de57600080fd5b9190808060200260200160405190810160405280939291908181526020018383602002808284376000920191909152509295506112df945050505050565b6106246114f3565b6040805195865260208601949094528484019290925260608401526080830152519081900360a00190f35b60006106628161065d61150d565b6110d2565b610699576040805162461bcd60e51b815260206004820152600360248201526254573160e81b604482015290519081900360640190fd5b609c546106a7906064611511565b831115806106cb5750821580156106cb5750609c546106c7906064611511565b8211155b806106d4575081155b61070b576040805162461bcd60e51b81526020600482015260036024820152622a2b9960e91b604482015290519081900360640190fd5b609a839055609b829055604080518481526020810184905281517f3be6e637f54f081a2dd12982cfd58481304fc98b604b18fa8ed4aa4e4a9d1532929181900390910190a15060015b92915050565b600080516020612a0583398151915281565b610779600061065d61150d565b6107b0576040805162461bcd60e51b81526020600482015260036024820152622a2b9b60e91b604482015290519081900360640190fd5b609780546001600160a01b0319166001600160a01b0383169081179091556040517ff745c285f36f88bea6af14d4d0f33dd9350cef7895216c1615b1caaee7857e0c90600090a250565b610802610feb565b15610847576040805162461bcd60e51b815260206004820152601060248201526f14185d5cd8589b194e881c185d5cd95960821b604482015290519081900360640190fd5b609854811015610884576040805162461bcd60e51b815260206004820152600360248201526254573960e81b604482015290519081900360640190fd5b61089e600080516020612a0583398151915261065d61150d565b6108d8576040805162461bcd60e51b815260206004808301919091526024820152630545731360e41b604482015290519081900360640190fd5b60006108e4838361156a565b90508082846001600160a01b03167f572f067f64ae57ed816b7e9b5424a87d97035d68384f149586cba42b4192c9d8426040518082815260200191505060405180910390a4505050565b6000818152606560205260409020600201545b919050565b6000828152606560205260409020600201546109649061065d61150d565b61099f5760405162461bcd60e51b815260040180806020018281038252602f815260200180612937602f913960400191505060405180910390fd5b6109a98282611622565b5050565b6109b561150d565b6001600160a01b0316816001600160a01b031614610a045760405162461bcd60e51b815260040180806020018281038252602f815260200180612a25602f913960400191505060405180910390fd5b6109a9828261168b565b6000610a2a6000805160206129e583398151915261065d61150d565b610a61576040805162461bcd60e51b81526020600482015260036024820152620a8ae760eb1b604482015290519081900360640190fd5b610a696116f4565b50600190565b610a77610feb565b15610abc576040805162461bcd60e51b815260206004820152601060248201526f14185d5cd8589b194e881c185d5cd95960821b604482015290519081900360640190fd5b609954821015610afc576040805162461bcd60e51b815260206004808301919091526024820152631515cc4d60e21b604482015290519081900360640190fd5b609d805460408051602060026001851615610100026000190190941693909304601f8101849004840282018401909252818152600093610c2b9391929091830182828015610b8b5780601f10610b6057610100808354040283529160200191610b8b565b820191906000526020600020905b815481529060010190602001808311610b6e57829003601f168201915b5050609e8054604080516020601f6002600019610100600188161502019095169490940493840181900481028201810190925282815295509193509150830182828015610c195780601f10610bee57610100808354040283529160200191610c19565b820191906000526020600020905b815481529060010190602001808311610bfc57829003601f168201915b5050609f548895949350915050611794565b9050600181151514610c6d576040805162461bcd60e51b815260206004808301919091526024820152635457313560e01b604482015290519081900360640190fd5b609754604080516370a0823160e01b81526001600160a01b038781166004830152915160009392909216916370a0823191602480820192602092909190829003018186803b158015610cbe57600080fd5b505afa158015610cd2573d6000803e3d6000fd5b505050506040513d6020811015610ce857600080fd5b5051609b54609c54919250600091610d0e91606491610d089189916118ab565b90611964565b90506000610d1c86836119cb565b905080831015610d5c576040805162461bcd60e51b815260206004808301919091526024820152632a2b989b60e11b604482015290519081900360640190fd5b610d6461150d565b6001600160a01b0316876001600160a01b031614610db2576040805162461bcd60e51b815260206004808301919091526024820152635457313760e01b604482015290519081900360640190fd5b60975460408051632770a7eb60e21b81526001600160a01b038a811660048301526024820185905291519190921691639dc29fac9160448083019260209291908290030181600087803b158015610e0857600080fd5b505af1158015610e1c573d6000803e3d6000fd5b505050506040513d6020811015610e3257600080fd5b50506040518551869190819060208401908083835b60208310610e665780518252601f199092019160209182019101610e47565b51815160209384036101000a600019018019909216911617905260408051929094018290038220878352429183019190915283519095508b94506001600160a01b038d16937f0f4363f6961ed151f2cf8f720784b70c0f5573f216fc939f67f2a5d12698e02e93509181900390910190a450505050505050565b6000610eee8161065d61150d565b610f25576040805162461bcd60e51b815260206004820152600360248201526254573360e81b604482015290519081900360640190fd5b6001831015610f61576040805162461bcd60e51b81526020600482015260036024820152621515cd60ea1b604482015290519081900360640190fd5b6001821015610f9d576040805162461bcd60e51b815260206004820152600360248201526254573560e81b604482015290519081900360640190fd5b60988390556099829055604080518481526020810184905281517fa94d40347449ea19b873d64ed55c99772194c49791e82be5c2dc24e4c0044fe3929181900390910190a150600192915050565b60335460ff1690565b60006110106000805160206129e583398151915261065d61150d565b611047576040805162461bcd60e51b815260206004820152600360248201526254573760e81b604482015290519081900360640190fd5b610a69611a25565b609d805460408051602060026001851615610100026000190190941693909304601f81018490048402820184019092528181526000936107549391929091830182828015610b8b5780601f10610b6057610100808354040283529160200191610b8b565b60008281526065602052604081206110cb9083611aa8565b9392505050565b60008281526065602052604081206110cb9083611ab4565b600081565b600081815260656020526040812061075490611ac9565b600054610100900460ff168061111f575061111f611ad4565b8061112d575060005460ff16155b6111685760405162461bcd60e51b815260040180806020018281038252602e815260200180612996602e913960400191505060405180910390fd5b600054610100900460ff16158015611193576000805460ff1961ff0019909116610100171660011790555b61119b611ae5565b6111a3611b97565b6111b560006111b061150d565b61099f565b6111cd600080516020612a058339815191528561099f565b6111e56000805160206129e58339815191528461099f565b6111ee8561076c565b6111f9600180610ee0565b50609c82905560408051808201909152600680825265636f736d6f7360d01b602090920191825261122c91609d91612873565b50604080518082019091526001808252603160f81b602090920191825261125591609e91612873565b506026609f55801561126d576000805461ff00191690555b5050505050565b6000828152606560205260409020600201546112929061065d61150d565b610a045760405162461bcd60e51b81526004018080602001828103825260308152602001806129666030913960400191505060405180910390fd5b6000805160206129e583398151915281565b6112e7610feb565b1561132c576040805162461bcd60e51b815260206004820152601060248201526f14185d5cd8589b194e881c185d5cd95960821b604482015290519081900360640190fd5b805182511461136b576040805162461bcd60e51b815260206004808301919091526024820152635457313160e01b604482015290519081900360640190fd5b611385600080516020612a0583398151915261065d61150d565b6113bf576040805162461bcd60e51b815260206004808301919091526024820152632a2b989960e11b604482015290519081900360640190fd5b815160009081905b80831015611466576098548484815181106113de57fe5b60200260200101511015611422576040805162461bcd60e51b815260206004808301919091526024820152635457313360e01b604482015290519081900360640190fd5b61145285848151811061143157fe5b602002602001015185858151811061144557fe5b602002602001015161156a565b915061145f8360016119cb565b92506113c7565b8184611473856001611c34565b8151811061147d57fe5b60200260200101518661149a600187611c3490919063ffffffff16565b815181106114a457fe5b60200260200101516001600160a01b03167f572f067f64ae57ed816b7e9b5424a87d97035d68384f149586cba42b4192c9d8426040518082815260200191505060405180910390a45050505050565b609a54609b54609854609954609c54939492939192909190565b3390565b60008261152057506000610754565b8282028284828161152d57fe5b04146110cb5760405162461bcd60e51b81526004018080602001828103825260218152602001806129c46021913960400191505060405180910390fd5b60008061158b6064610d08609a54609c54876118ab9092919063ffffffff16565b90506115978382611c34565b609754604080516340c10f1960e01b81526001600160a01b0388811660048301526024820185905291519395509116916340c10f19916044808201926020929091908290030181600087803b1580156115ef57600080fd5b505af1158015611603573d6000803e3d6000fd5b505050506040513d602081101561161957600080fd5b50505092915050565b600082815260656020526040902061163a9082611c91565b156109a95761164761150d565b6001600160a01b0316816001600160a01b0316837f2f8788117e7eff1d82e926ec794901d17c78024a50270940304540a733656f0d60405160405180910390a45050565b60008281526065602052604090206116a39082611ca6565b156109a9576116b061150d565b6001600160a01b0316816001600160a01b0316837ff6391f5c32d9c69d2a47ea670b442974b53935d1edc7fd64eb21e047a839171b60405160405180910390a45050565b6116fc610feb565b611744576040805162461bcd60e51b815260206004820152601460248201527314185d5cd8589b194e881b9bdd081c185d5cd95960621b604482015290519081900360640190fd5b6033805460ff191690557f5db9ee0a495bf2e6ff9c91a7834c1ba4fdd244a5e8aa4e537bd38aeae4b073aa61177761150d565b604080516001600160a01b039092168252519081900360200190a1565b8251600090859082906117aa9083908390611cbb565b90506117b68187611dc4565b6117c5576000925050506118a3565b80516000906117d79084906001611cbb565b90506117e38187611dc4565b6117f357600093505050506118a3565b60006118158351600101600185518751030386611cbb9092919063ffffffff16565b90508581511461182c5760009450505050506118a3565b8251845160009161184891879160018101910360061901611cbb565b9050600061185582611e28565b905080516000141561187057600096505050505050506118a3565b600061187b86611f83565b905060006118898284612018565b905060006118978683611dc4565b99505050505050505050505b949350505050565b60008060006118ba86866120fd565b91509150600084806118c857fe5b8688099050828111156118dc576001820391505b9182900391816118fa578483816118ef57fe5b0493505050506110cb565b84821061194e576040805162461bcd60e51b815260206004820152601a60248201527f46756c6c4d6174683a2046554c4c4449565f4f564552464c4f57000000000000604482015290519081900360640190fd5b61195983838761212a565b979650505050505050565b60008082116119ba576040805162461bcd60e51b815260206004820152601a60248201527f536166654d6174683a206469766973696f6e206279207a65726f000000000000604482015290519081900360640190fd5b8183816119c357fe5b049392505050565b6000828201838110156110cb576040805162461bcd60e51b815260206004820152601b60248201527f536166654d6174683a206164646974696f6e206f766572666c6f770000000000604482015290519081900360640190fd5b611a2d610feb565b15611a72576040805162461bcd60e51b815260206004820152601060248201526f14185d5cd8589b194e881c185d5cd95960821b604482015290519081900360640190fd5b6033805460ff191660011790557f62e78cea01bee320cd4e420270b5ea74000d11b0c9f74754ebdbfc544b05a25861177761150d565b60006110cb838361219a565b60006110cb836001600160a01b0384166121fe565b600061075482612216565b6000611adf3061221a565b15905090565b600054610100900460ff1680611afe5750611afe611ad4565b80611b0c575060005460ff16155b611b475760405162461bcd60e51b815260040180806020018281038252602e815260200180612996602e913960400191505060405180910390fd5b600054610100900460ff16158015611b72576000805460ff1961ff0019909116610100171660011790555b611b7a612220565b611b82612220565b8015611b94576000805461ff00191690555b50565b600054610100900460ff1680611bb05750611bb0611ad4565b80611bbe575060005460ff16155b611bf95760405162461bcd60e51b815260040180806020018281038252602e815260200180612996602e913960400191505060405180910390fd5b600054610100900460ff16158015611c24576000805460ff1961ff0019909116610100171660011790555b611c2c612220565b611b826122c0565b600082821115611c8b576040805162461bcd60e51b815260206004820152601e60248201527f536166654d6174683a207375627472616374696f6e206f766572666c6f770000604482015290519081900360640190fd5b50900390565b60006110cb836001600160a01b03841661236b565b60006110cb836001600160a01b0384166123b5565b60608182601f011015611d06576040805162461bcd60e51b815260206004820152600e60248201526d736c6963655f6f766572666c6f7760901b604482015290519081900360640190fd5b81830184511015611d52576040805162461bcd60e51b8152602060048201526011602482015270736c6963655f6f75744f66426f756e647360781b604482015290519081900360640190fd5b606082158015611d715760405191506000825260208201604052611dbb565b6040519150601f8416801560200281840101858101878315602002848b0101015b81831015611daa578051835260209283019201611d92565b5050858452601f01601f1916604052505b50949350505050565b815181516000916001918114808314611de05760009250611e1e565b600160208701838101602088015b600284838510011415611e19578051835114611e0d5760009650600093505b60209283019201611dee565b505050505b5090949350505050565b6060815167ffffffffffffffff81118015611e4257600080fd5b50604051908082528060200260200182016040528015611e6c578160200160208202803683370190505b50905060606000805b8451811015611f7b57600091505b604051806040016040528060208152602001600080516020612a5483398151915281525051821015611f2457604051806040016040528060208152602001600080516020612a548339815191528152508281518110611ede57fe5b602001015160f81c60f81b6001600160f81b031916858281518110611eff57fe5b01602001516001600160f81b0319161415611f1957611f24565b600190910190611e83565b604051806040016040528060208152602001600080516020612a5483398151915281525051821415611f5b57829350505050610941565b81848281518110611f6857fe5b6020908102919091010152600101611e75565b505050919050565b6060815167ffffffffffffffff81118015611f9d57600080fd5b50604051908082528060200260200182016040528015611fc7578160200160208202803683370190505b50905060005b825181101561201257828181518110611fe257fe5b602001015160f81c60f81b60f81c60ff16828281518110611fff57fe5b6020908102919091010152600101611fcd565b50919050565b6060600061202f8361202a868661247b565b612518565b90506000815167ffffffffffffffff8111801561204b57600080fd5b506040519080825280601f01601f191660200182016040528015612076576020820181803683370190505b50905060005b8251811015611dbb57604051806040016040528060208152602001600080516020612a548339815191528152508382815181106120b557fe5b6020026020010151815181106120c757fe5b602001015160f81c60f81b8282815181106120de57fe5b60200101906001600160f81b031916908160001a90535060010161207c565b6000808060001984860990508385029250828103915082811015612122576001820391505b509250929050565b6000818103821680838161213a57fe5b04925080858161214657fe5b04945080816000038161215557fe5b60028581038087028203028087028203028087028203028087028203028087028203028087028203029586029003909402930460010193909302939093010292915050565b815460009082106121dc5760405162461bcd60e51b81526004018080602001828103825260228152602001806129156022913960400191505060405180910390fd5b8260000182815481106121eb57fe5b9060005260206000200154905092915050565b60009081526001919091016020526040902054151590565b5490565b3b151590565b600054610100900460ff16806122395750612239611ad4565b80612247575060005460ff16155b6122825760405162461bcd60e51b815260040180806020018281038252602e815260200180612996602e913960400191505060405180910390fd5b600054610100900460ff16158015611b82576000805460ff1961ff0019909116610100171660011790558015611b94576000805461ff001916905550565b600054610100900460ff16806122d957506122d9611ad4565b806122e7575060005460ff16155b6123225760405162461bcd60e51b815260040180806020018281038252602e815260200180612996602e913960400191505060405180910390fd5b600054610100900460ff1615801561234d576000805460ff1961ff0019909116610100171660011790555b6033805460ff191690558015611b94576000805461ff001916905550565b600061237783836121fe565b6123ad57508154600181810184556000848152602080822090930184905584548482528286019093526040902091909155610754565b506000610754565b6000818152600183016020526040812054801561247157835460001980830191908101906000908790839081106123e857fe5b906000526020600020015490508087600001848154811061240557fe5b60009182526020808320909101929092558281526001898101909252604090209084019055865487908061243557fe5b60019003818190600052602060002001600090559055866001016000878152602001908152602001600020600090556001945050505050610754565b6000915050610754565b6060600061249d61249461248e866125eb565b85612518565b600060066126e8565b905060006124aa826127ae565b60408051600680825260e082019092526001929092189250600091906020820160c08036833701905050905060005b600681101561250e578060050360050283901c601f168282815181106124fb57fe5b60209081029190910101526001016124d9565b5095945050505050565b60606000825184510167ffffffffffffffff8111801561253757600080fd5b50604051908082528060200260200182016040528015612561578160200160208202803683370190505b50905060005b84518110156125a35784818151811061257c57fe5b602002602001015182828151811061259057fe5b6020908102919091010152600101612567565b60005b8451811015611e1e5784516001820191869181106125c057fe5b60200260200101518383806001019450815181106125da57fe5b6020026020010181815250506125a6565b60606000825183510160010167ffffffffffffffff8111801561260d57600080fd5b50604051908082528060200260200182016040528015612637578160200160208202803683370190505b50905060005b835181101561267d57600584828151811061265457fe5b6020026020010151901c82828151811061266a57fe5b602090810291909101015260010161263d565b5060008184518151811061268d57fe5b60200260200101818152505060005b83518110156126e1578381815181106126b157fe5b6020026020010151601f168285518301600101815181106126ce57fe5b602090810291909101015260010161269c565b5092915050565b606060008285510167ffffffffffffffff8111801561270657600080fd5b50604051908082528060200260200182016040528015612730578160200160208202803683370190505b50905060005b85518110156127725785818151811061274b57fe5b602002602001015182828151811061275f57fe5b6020908102919091010152600101612736565b60005b848110156127a3578583838060010194508151811061279057fe5b6020908102919091010152600101612775565b509095945050505050565b6040805160a081018252633b6a57b281526326508e6d6020820152631ea119fa91810191909152633d4233dd6060820152632a1462b360808201526000906001825b845181101561286b576000601983901c905085828151811061280e57fe5b60200260200101516005846301ffffff16901b18925060005b600581101561286157600182821c811614156128595784816005811061284957fe5b602002015163ffffffff16841893505b600101612827565b50506001016127f0565b509392505050565b828054600181600116156101000203166002900490600052602060002090601f0160209004810192826128a957600085556128ef565b82601f106128c257805160ff19168380011785556128ef565b828001600101855582156128ef579182015b828111156128ef5782518255916020019190600101906128d4565b506128fb9291506128ff565b5090565b5b808211156128fb576000815560010161290056fe456e756d657261626c655365743a20696e646578206f7574206f6620626f756e6473416363657373436f6e74726f6c3a2073656e646572206d75737420626520616e2061646d696e20746f206772616e74416363657373436f6e74726f6c3a2073656e646572206d75737420626520616e2061646d696e20746f207265766f6b65496e697469616c697a61626c653a20636f6e747261637420697320616c726561647920696e697469616c697a6564536166654d6174683a206d756c7469706c69636174696f6e206f766572666c6f7765d7a28e3265b37a6474929f336521b332c1681b933f6cb9f3376673440d862a751b795d24b92e3d92d1d0d8f2885f4e9c9c269da350af36ae6b49069babf4bf416363657373436f6e74726f6c3a2063616e206f6e6c792072656e6f756e636520726f6c657320666f722073656c6671707a7279397838676632747664773073336a6e35346b686365366d7561376ca26469706673582212205b65c94945d3b868c9cb8c87b2d043c207b70f1f33c4c6b2eacd7d3b3b9ea18064736f6c63430007060033",
  "immutableReferences": {},
  "source": "// SPDX-License-Identifier: UNLICENSED\npragma solidity >= 0.7.0;\n\nimport \"@openzeppelin/contracts-upgradeable/math/SafeMathUpgradeable.sol\";\nimport \"@openzeppelin/contracts-upgradeable/utils/PausableUpgradeable.sol\";\nimport \"@openzeppelin/contracts-upgradeable/access/AccessControlUpgradeable.sol\";\nimport \"./interfaces/IUTokens.sol\";\nimport \"./interfaces/ITokenWrapper.sol\";\nimport \"./libraries/Bech32Validation.sol\";\nimport \"./libraries/Bech32.sol\";\nimport \"./libraries/FullMath.sol\";\n\ncontract TokenWrapper is ITokenWrapper, PausableUpgradeable, AccessControlUpgradeable {\n\n\tusing SafeMathUpgradeable for uint256;\n\tusing FullMath for uint256;\n\tusing Bech32 for string;\n\n\t//Private instances of contracts to handle Utokens and Stokens\n\tIUTokens private _uTokens;\n\n\t// defining the fees and minimum values\n\tuint256 private _minDeposit;\n\tuint256 private _minWithdraw;\n\tuint256 private _depositFee;\n\tuint256 private _withdrawFee;\n\tuint256 private _valueDivisor;\n\n\t// constants defining access control ROLES\n\tbytes32 public constant BRIDGE_ADMIN_ROLE = keccak256(\"BRIDGE_ADMIN_ROLE\");\n\tbytes32 public constant PAUSER_ROLE = keccak256(\"PAUSER_ROLE\");\n\n\t//variables defining bech32 validation attributes\n\tbytes hrpBytes;\n\tbytes controlDigitBytes;\n\tuint dataBytesSize;\n\n\t/*\n   * @dev Constructor for initializing the TokenWrapper contract.\n   * @param uAddress - address of the UToken contract.\n   * @param bridgeAdminAddress - address of the bridge admin.\n   * @param pauserAddress - address of the pauser admin.\n   * @param valueDivisor - valueDivisor set to 10^9.\n   */\n\tfunction initialize(address uAddress, address bridgeAdminAddress, address pauserAddress, uint256 valueDivisor) public virtual initializer  {\n\t\t__AccessControl_init();\n\t\t__Pausable_init();\n\t\t_setupRole(DEFAULT_ADMIN_ROLE, _msgSender());\n\t\t_setupRole(BRIDGE_ADMIN_ROLE, bridgeAdminAddress);\n\t\t_setupRole(PAUSER_ROLE, pauserAddress);\n\t\tsetUTokensContract(uAddress);\n\t\tsetMinimumValues(1, 1);\n\t\t_valueDivisor = valueDivisor;\n\t\t// setting bech32 validation attributes\n\t\thrpBytes = \"cosmos\";\n\t\tcontrolDigitBytes = \"1\";\n\t\tdataBytesSize = 38;\n\t}\n\n\t/**\n     * @dev Set 'fees', called from admin\n     * @param withdrawFee: withdraw fee\n     * @param depositFee: deposit fee\n     *\n     * Emits a {SetFees} event with 'fee' set to the withdraw.\n     *\n     */\n\tfunction setFees(uint256 depositFee, uint256 withdrawFee) public virtual returns (bool success){\n\t\trequire(hasRole(DEFAULT_ADMIN_ROLE, _msgSender()), \"TW1\");\n\t\t// range checks for fees. Since fee cannot be more than 100%, the max cap\n\t\t// is _valueDivisor * 100, which then brings the fees to 100 (percentage)\n\t\trequire(depositFee <= _valueDivisor.mul(100) || depositFee == 0 && withdrawFee <= _valueDivisor.mul(100) || withdrawFee == 0, \"TW2\");\n\t\t_depositFee = depositFee;\n\t\t_withdrawFee = withdrawFee;\n\t\temit SetFees(depositFee, withdrawFee);\n\t\treturn true;\n\t}\n\n\t/**\n     * @dev get fees, minimum set values and value divisor\n     *\n     */\n\tfunction getProps() public view virtual returns (uint256 depositFee, uint256 withdrawFee, uint256 minDeposit, uint256 minWithdraw, uint256 valueDivisor) {\n\t\tdepositFee = _depositFee;\n\t\twithdrawFee = _withdrawFee;\n\t\tminDeposit = _minDeposit;\n\t\tminWithdraw = _minWithdraw;\n\t\tvalueDivisor = _valueDivisor;\n\t}\n\n\t/**\n     * @dev Set 'minimum values', called from admin\n     * @param minDeposit: deposit minimum value\n     * @param minWithdraw: withdraw minimum value\n     *\n     * Emits a {SetMinimumValues} event with 'minimum value' set to withdraw.\n     *\n     */\n\tfunction setMinimumValues(uint256 minDeposit, uint256 minWithdraw) public virtual returns (bool success){\n\t\trequire(hasRole(DEFAULT_ADMIN_ROLE, _msgSender()), \"TW3\");\n\t\trequire(minDeposit >= 1, \"TW4\");\n\t\trequire(minWithdraw >= 1, \"TW5\");\n\t\t_minDeposit = minDeposit;\n\t\t_minWithdraw = minWithdraw;\n\t\temit SetMinimumValues(minDeposit, minWithdraw);\n\t\treturn true;\n\t}\n\n\t/*\n     * @dev Set 'contract address', called for utokens smart contract\n     * @param uAddress: utoken contract address\n     *\n     * Emits a {SetUTokensContract} event with '_contract' set to the utoken contract address.\n     *\n     */\n\tfunction setUTokensContract(address uAddress) public virtual override {\n\t\trequire(hasRole(DEFAULT_ADMIN_ROLE, _msgSender()), \"TW6\");\n\t\t_uTokens = IUTokens(uAddress);\n\t\temit SetUTokensContract(uAddress);\n\t}\n\n\t/**\n      * @dev Triggers stopped state.\n      *\n      * Requirements:\n      *\n      * - The contract must not be paused.\n      */\n\tfunction pause() public virtual returns (bool success) {\n\t\trequire(hasRole(PAUSER_ROLE, _msgSender()), \"TW7\");\n\t\t_pause();\n\t\treturn true;\n\t}\n\n\t/**\n     * @dev Returns to normal state.\n     *\n     * Requirements:\n     *\n     * - The contract must be paused.\n     */\n\tfunction unpause() public virtual returns (bool success) {\n\t\trequire(hasRole(PAUSER_ROLE, _msgSender()), \"TW8\");\n\t\t_unpause();\n\t\treturn true;\n\t}\n\n\t/**\n     * @dev common function added to be called by generateUTokens and generateUTokensInBatch and mints new utokens for the provided 'address' and 'amount'\n     * @param to: account address, amount: number of tokens\n     * Requirements:\n     *\n     * - `amount` cannot be less than zero.\n     *\n     */\n\tfunction _generateUTokens(address to, uint256 amount) internal virtual returns (uint256 finalTokens){\n\t\t// the tokens to be generated to the user's address will be after the fee processing\n\t\tuint256 _fee = (amount.mulDiv(_depositFee, _valueDivisor)).div(100);\n\t\tfinalTokens = amount.sub(_fee);\n\t\t_uTokens.mint(to, finalTokens);\n\t\treturn finalTokens;\n\t}\n\n\t/**\n     * @dev Mint new utokens for the provided 'address' and 'amount'\n     * @param to: account address, amount: number of tokens\n     *\n     * Emits a {GenerateUTokens} event with 'to' set to address and 'amount' set to amount of tokens.\n     *\n     * Requirements:\n     *\n     * - `amount` cannot be less than zero.\n     *\n     */\n\tfunction generateUTokens(address to, uint256 amount) public virtual override whenNotPaused {\n\t\trequire(amount >= _minDeposit, \"TW9\");\n\t\trequire(hasRole(BRIDGE_ADMIN_ROLE, _msgSender()), \"TW10\");\n\t\tuint256 _finalTokens = _generateUTokens(to, amount);\n\t\temit GenerateUTokens(to, amount, _finalTokens, block.timestamp);\n\t}\n\n\t/**\n     * @dev Mint new utokens for the provided 'address' and 'amount' in batch\n     * @param to[]: array of account addresses, amount[]: array of tokens\n     *\n     * Emits a {GenerateUTokens} event with 'to' set to address and 'amount' set to amount of tokens.\n     *\n     * Requirements:\n     *\n     * - `amount` cannot be less than zero.\n     *\n     */\n\tfunction generateUTokensInBatch(address[] memory to, uint256[] memory amount) public virtual override whenNotPaused {\n\t\trequire(to.length == amount.length, \"TW11\");\n\t\trequire(hasRole(BRIDGE_ADMIN_ROLE, _msgSender()), \"TW12\");\n\t\tuint256 i;\n\t\tuint256 _finalTokens;\n\t\tuint256 _toLength = to.length;\n\t\tfor ( i=0; i<_toLength; i=i.add(1)) {\n\t\t\trequire(amount[i] >= _minDeposit, \"TW13\");\n\t\t\t_finalTokens = _generateUTokens(to[i], amount[i]);\n\t\t}\n\t\temit GenerateUTokens(to[i.sub(1)], amount[i.sub(1)], _finalTokens, block.timestamp);\n\t}\n\n\t/**\n     * @dev check if the address is Bech32Valid\n     *\n     */\n\tfunction isBech32Valid(string memory toChainAddress) public view virtual override returns (bool isAddressValid) {\n\t\tisAddressValid = toChainAddress.isBech32AddressValid(hrpBytes, controlDigitBytes, dataBytesSize);\n\t}\n\n\t/**\n     * @dev Burn utokens for the provided 'address' and 'tokens'\n     * @param from: account address, tokens: number of tokens, toChainAddress: atom wallet address\n     *\n     * Emits a {WithdrawUTokens} event with 'from' set to address, 'finalTokens' set to amount of tokens and 'toChainAddress'\n     *\n     * Requirements:\n     *\n     * - `tokens` cannot be less than zero.\n     *\n     */\n\tfunction withdrawUTokens(address from, uint256 tokens, string memory toChainAddress) public virtual override whenNotPaused {\n\t\trequire(tokens >= _minWithdraw, \"TW14\");\n\t\t//check if toChainAddress is valid address\n\t\tbool isAddressValid = toChainAddress.isBech32AddressValid(hrpBytes, controlDigitBytes, dataBytesSize);\n\t\trequire(isAddressValid == true, \"TW15\");\n\t\tuint256 _currentUTokenBalance = _uTokens.balanceOf(from);\n\t\t// final tokens is the amount of tokens to be burned, including the fee\n\t\tuint256 _fee = (tokens.mulDiv(_withdrawFee, _valueDivisor)).div(100);\n\t\tuint256 _finalTokens = tokens.add(_fee);\n\t\trequire(_currentUTokenBalance >= _finalTokens, \"TW16\");\n\t\trequire(from == _msgSender(), \"TW17\");\n\n\t\t_uTokens.burn(from, _finalTokens);\n\t\temit WithdrawUTokens(from, tokens, _finalTokens, toChainAddress, block.timestamp);\n\t}\n}\n",
  "sourcePath": "/home/aditimahesh/Documents/Work/Persistence/go/src/github.com/persistenceOne/pStake-smartContracts/contracts/TokenWrapper.sol",
  "compiler": {
    "name": "solc",
    "version": "0.7.6+commit.7338295f.Emscripten.clang"
  },
  "schemaVersion": "3.4.3",
  "updatedAt": "2021-11-30T07:16:26.227Z",
  "devdoc": {
    "kind": "dev",
    "methods": {
      "generateUTokens(address,uint256)": {
        "details": "Mint new utokens for the provided 'address' and 'amount'",
        "params": {
          "to": ": account address, amount: number of tokens Emits a {GenerateUTokens} event with 'to' set to address and 'amount' set to amount of tokens. Requirements: - `amount` cannot be less than zero."
        }
      },
      "generateUTokensInBatch(address[],uint256[])": {
        "details": "Mint new utokens for the provided 'address' and 'amount' in batch",
        "params": {
          "to": "[]: array of account addresses, amount[]: array of tokens Emits a {GenerateUTokens} event with 'to' set to address and 'amount' set to amount of tokens. Requirements: - `amount` cannot be less than zero."
        }
      },
      "getProps()": {
        "details": "get fees, minimum set values and value divisor"
      },
      "getRoleAdmin(bytes32)": {
        "details": "Returns the admin role that controls `role`. See {grantRole} and {revokeRole}. To change a role's admin, use {_setRoleAdmin}."
      },
      "getRoleMember(bytes32,uint256)": {
        "details": "Returns one of the accounts that have `role`. `index` must be a value between 0 and {getRoleMemberCount}, non-inclusive. Role bearers are not sorted in any particular way, and their ordering may change at any point. WARNING: When using {getRoleMember} and {getRoleMemberCount}, make sure you perform all queries on the same block. See the following https://forum.openzeppelin.com/t/iterating-over-elements-on-enumerableset-in-openzeppelin-contracts/2296[forum post] for more information."
      },
      "getRoleMemberCount(bytes32)": {
        "details": "Returns the number of accounts that have `role`. Can be used together with {getRoleMember} to enumerate all bearers of a role."
      },
      "grantRole(bytes32,address)": {
        "details": "Grants `role` to `account`. If `account` had not been already granted `role`, emits a {RoleGranted} event. Requirements: - the caller must have ``role``'s admin role."
      },
      "hasRole(bytes32,address)": {
        "details": "Returns `true` if `account` has been granted `role`."
      },
      "isBech32Valid(string)": {
        "details": "check if the address is Bech32Valid"
      },
      "pause()": {
        "details": "Triggers stopped state. Requirements: - The contract must not be paused."
      },
      "paused()": {
        "details": "Returns true if the contract is paused, and false otherwise."
      },
      "renounceRole(bytes32,address)": {
        "details": "Revokes `role` from the calling account. Roles are often managed via {grantRole} and {revokeRole}: this function's purpose is to provide a mechanism for accounts to lose their privileges if they are compromised (such as when a trusted device is misplaced). If the calling account had been granted `role`, emits a {RoleRevoked} event. Requirements: - the caller must be `account`."
      },
      "revokeRole(bytes32,address)": {
        "details": "Revokes `role` from `account`. If `account` had been granted `role`, emits a {RoleRevoked} event. Requirements: - the caller must have ``role``'s admin role."
      },
      "setFees(uint256,uint256)": {
        "details": "Set 'fees', called from admin",
        "params": {
          "depositFee": ": deposit fee Emits a {SetFees} event with 'fee' set to the withdraw.",
          "withdrawFee": ": withdraw fee"
        }
      },
      "setMinimumValues(uint256,uint256)": {
        "details": "Set 'minimum values', called from admin",
        "params": {
          "minDeposit": ": deposit minimum value",
          "minWithdraw": ": withdraw minimum value Emits a {SetMinimumValues} event with 'minimum value' set to withdraw."
        }
      },
      "setUTokensContract(address)": {
        "details": "Set UTokens smart contract. Emits a {SetUTokensContract} event."
      },
      "unpause()": {
        "details": "Returns to normal state. Requirements: - The contract must be paused."
      },
      "withdrawUTokens(address,uint256,string)": {
        "details": "Burn utokens for the provided 'address' and 'tokens'",
        "params": {
          "from": ": account address, tokens: number of tokens, toChainAddress: atom wallet address Emits a {WithdrawUTokens} event with 'from' set to address, 'finalTokens' set to amount of tokens and 'toChainAddress' Requirements: - `tokens` cannot be less than zero."
        }
      }
    },
    "version": 1
  },
  "userdoc": {
    "kind": "user",
    "methods": {},
    "version": 1
  }
}