{
  "contractName": "TokenWrapper",
  "abi": [
    {
      "anonymous": false,
      "inputs": [
        {
          "indexed": true,
          "internalType": "address",
          "name": "accountAddress",
          "type": "address"
        },
        {
          "indexed": false,
          "internalType": "uint256",
          "name": "tokens",
          "type": "uint256"
        },
        {
          "indexed": false,
          "internalType": "uint256",
          "name": "timestamp",
          "type": "uint256"
        }
      ],
      "name": "GenerateUTokens",
      "type": "event"
    },
    {
      "anonymous": false,
      "inputs": [
        {
          "indexed": false,
          "internalType": "address",
          "name": "account",
          "type": "address"
        }
      ],
      "name": "Paused",
      "type": "event"
    },
    {
      "anonymous": false,
      "inputs": [
        {
          "indexed": true,
          "internalType": "bytes32",
          "name": "role",
          "type": "bytes32"
        },
        {
          "indexed": true,
          "internalType": "bytes32",
          "name": "previousAdminRole",
          "type": "bytes32"
        },
        {
          "indexed": true,
          "internalType": "bytes32",
          "name": "newAdminRole",
          "type": "bytes32"
        }
      ],
      "name": "RoleAdminChanged",
      "type": "event"
    },
    {
      "anonymous": false,
      "inputs": [
        {
          "indexed": true,
          "internalType": "bytes32",
          "name": "role",
          "type": "bytes32"
        },
        {
          "indexed": true,
          "internalType": "address",
          "name": "account",
          "type": "address"
        },
        {
          "indexed": true,
          "internalType": "address",
          "name": "sender",
          "type": "address"
        }
      ],
      "name": "RoleGranted",
      "type": "event"
    },
    {
      "anonymous": false,
      "inputs": [
        {
          "indexed": true,
          "internalType": "bytes32",
          "name": "role",
          "type": "bytes32"
        },
        {
          "indexed": true,
          "internalType": "address",
          "name": "account",
          "type": "address"
        },
        {
          "indexed": true,
          "internalType": "address",
          "name": "sender",
          "type": "address"
        }
      ],
      "name": "RoleRevoked",
      "type": "event"
    },
    {
      "anonymous": false,
      "inputs": [
        {
          "indexed": false,
          "internalType": "uint256",
          "name": "depositFee",
          "type": "uint256"
        },
        {
          "indexed": false,
          "internalType": "uint256",
          "name": "withdrawFee",
          "type": "uint256"
        }
      ],
      "name": "SetFees",
      "type": "event"
    },
    {
      "anonymous": false,
      "inputs": [
        {
          "indexed": false,
          "internalType": "uint256",
          "name": "minWithdraw",
          "type": "uint256"
        }
      ],
      "name": "SetMinimumValues",
      "type": "event"
    },
    {
      "anonymous": false,
      "inputs": [
        {
          "indexed": true,
          "internalType": "address",
          "name": "_contract",
          "type": "address"
        }
      ],
      "name": "SetUTokensContract",
      "type": "event"
    },
    {
      "anonymous": false,
      "inputs": [
        {
          "indexed": false,
          "internalType": "address",
          "name": "account",
          "type": "address"
        }
      ],
      "name": "Unpaused",
      "type": "event"
    },
    {
      "anonymous": false,
      "inputs": [
        {
          "indexed": true,
          "internalType": "address",
          "name": "accountAddress",
          "type": "address"
        },
        {
          "indexed": false,
          "internalType": "uint256",
          "name": "tokens",
          "type": "uint256"
        },
        {
          "indexed": false,
          "internalType": "string",
          "name": "toAtomAddress",
          "type": "string"
        },
        {
          "indexed": false,
          "internalType": "uint256",
          "name": "timestamp",
          "type": "uint256"
        }
      ],
      "name": "WithdrawUTokens",
      "type": "event"
    },
    {
      "inputs": [],
      "name": "BRIDGE_ADMIN_ROLE",
      "outputs": [
        {
          "internalType": "bytes32",
          "name": "",
          "type": "bytes32"
        }
      ],
      "stateMutability": "view",
      "type": "function",
      "constant": true
    },
    {
      "inputs": [],
      "name": "DEFAULT_ADMIN_ROLE",
      "outputs": [
        {
          "internalType": "bytes32",
          "name": "",
          "type": "bytes32"
        }
      ],
      "stateMutability": "view",
      "type": "function",
      "constant": true
    },
    {
      "inputs": [],
      "name": "PAUSER_ROLE",
      "outputs": [
        {
          "internalType": "bytes32",
          "name": "",
          "type": "bytes32"
        }
      ],
      "stateMutability": "view",
      "type": "function",
      "constant": true
    },
    {
      "inputs": [
        {
          "internalType": "bytes32",
          "name": "role",
          "type": "bytes32"
        }
      ],
      "name": "getRoleAdmin",
      "outputs": [
        {
          "internalType": "bytes32",
          "name": "",
          "type": "bytes32"
        }
      ],
      "stateMutability": "view",
      "type": "function",
      "constant": true
    },
    {
      "inputs": [
        {
          "internalType": "bytes32",
          "name": "role",
          "type": "bytes32"
        },
        {
          "internalType": "uint256",
          "name": "index",
          "type": "uint256"
        }
      ],
      "name": "getRoleMember",
      "outputs": [
        {
          "internalType": "address",
          "name": "",
          "type": "address"
        }
      ],
      "stateMutability": "view",
      "type": "function",
      "constant": true
    },
    {
      "inputs": [
        {
          "internalType": "bytes32",
          "name": "role",
          "type": "bytes32"
        }
      ],
      "name": "getRoleMemberCount",
      "outputs": [
        {
          "internalType": "uint256",
          "name": "",
          "type": "uint256"
        }
      ],
      "stateMutability": "view",
      "type": "function",
      "constant": true
    },
    {
      "inputs": [
        {
          "internalType": "bytes32",
          "name": "role",
          "type": "bytes32"
        },
        {
          "internalType": "address",
          "name": "account",
          "type": "address"
        }
      ],
      "name": "grantRole",
      "outputs": [],
      "stateMutability": "nonpayable",
      "type": "function"
    },
    {
      "inputs": [
        {
          "internalType": "bytes32",
          "name": "role",
          "type": "bytes32"
        },
        {
          "internalType": "address",
          "name": "account",
          "type": "address"
        }
      ],
      "name": "hasRole",
      "outputs": [
        {
          "internalType": "bool",
          "name": "",
          "type": "bool"
        }
      ],
      "stateMutability": "view",
      "type": "function",
      "constant": true
    },
    {
      "inputs": [],
      "name": "paused",
      "outputs": [
        {
          "internalType": "bool",
          "name": "",
          "type": "bool"
        }
      ],
      "stateMutability": "view",
      "type": "function",
      "constant": true
    },
    {
      "inputs": [
        {
          "internalType": "bytes32",
          "name": "role",
          "type": "bytes32"
        },
        {
          "internalType": "address",
          "name": "account",
          "type": "address"
        }
      ],
      "name": "renounceRole",
      "outputs": [],
      "stateMutability": "nonpayable",
      "type": "function"
    },
    {
      "inputs": [
        {
          "internalType": "bytes32",
          "name": "role",
          "type": "bytes32"
        },
        {
          "internalType": "address",
          "name": "account",
          "type": "address"
        }
      ],
      "name": "revokeRole",
      "outputs": [],
      "stateMutability": "nonpayable",
      "type": "function"
    },
    {
      "inputs": [
        {
          "internalType": "address",
          "name": "uAddress",
          "type": "address"
        },
        {
          "internalType": "address",
          "name": "bridgeAdminAddress",
          "type": "address"
        },
        {
          "internalType": "address",
          "name": "pauserAddress",
          "type": "address"
        },
        {
          "internalType": "uint256",
          "name": "feeDivisor",
          "type": "uint256"
        }
      ],
      "name": "initialize",
      "outputs": [],
      "stateMutability": "nonpayable",
      "type": "function"
    },
    {
      "inputs": [
        {
          "internalType": "uint256",
          "name": "depositFee",
          "type": "uint256"
        },
        {
          "internalType": "uint256",
          "name": "withdrawFee",
          "type": "uint256"
        }
      ],
      "name": "setFees",
      "outputs": [
        {
          "internalType": "bool",
          "name": "success",
          "type": "bool"
        }
      ],
      "stateMutability": "nonpayable",
      "type": "function"
    },
    {
      "inputs": [],
      "name": "getFees",
      "outputs": [
        {
          "internalType": "uint256",
          "name": "withdrawFee",
          "type": "uint256"
        }
      ],
      "stateMutability": "view",
      "type": "function",
      "constant": true
    },
    {
      "inputs": [
        {
          "internalType": "uint256",
          "name": "minWithdraw",
          "type": "uint256"
        }
      ],
      "name": "setMinimumValues",
      "outputs": [
        {
          "internalType": "bool",
          "name": "success",
          "type": "bool"
        }
      ],
      "stateMutability": "nonpayable",
      "type": "function"
    },
    {
      "inputs": [],
      "name": "getMinimumValues",
      "outputs": [
        {
          "internalType": "uint256",
          "name": "minWithdraw",
          "type": "uint256"
        }
      ],
      "stateMutability": "view",
      "type": "function",
      "constant": true
    },
    {
      "inputs": [
        {
          "internalType": "address",
          "name": "uAddress",
          "type": "address"
        }
      ],
      "name": "setUTokensContract",
      "outputs": [],
      "stateMutability": "nonpayable",
      "type": "function"
    },
    {
      "inputs": [],
      "name": "pause",
      "outputs": [
        {
          "internalType": "bool",
          "name": "success",
          "type": "bool"
        }
      ],
      "stateMutability": "nonpayable",
      "type": "function"
    },
    {
      "inputs": [],
      "name": "unpause",
      "outputs": [
        {
          "internalType": "bool",
          "name": "success",
          "type": "bool"
        }
      ],
      "stateMutability": "nonpayable",
      "type": "function"
    },
    {
      "inputs": [
        {
          "internalType": "address",
          "name": "to",
          "type": "address"
        },
        {
          "internalType": "uint256",
          "name": "amount",
          "type": "uint256"
        }
      ],
      "name": "generateUTokens",
      "outputs": [],
      "stateMutability": "nonpayable",
      "type": "function"
    },
    {
      "inputs": [
        {
          "internalType": "address[]",
          "name": "to",
          "type": "address[]"
        },
        {
          "internalType": "uint256[]",
          "name": "amount",
          "type": "uint256[]"
        }
      ],
      "name": "generateUTokensInBatch",
      "outputs": [],
      "stateMutability": "nonpayable",
      "type": "function"
    },
    {
      "inputs": [
        {
          "internalType": "address",
          "name": "from",
          "type": "address"
        },
        {
          "internalType": "uint256",
          "name": "tokens",
          "type": "uint256"
        },
        {
          "internalType": "string",
          "name": "toAtomAddress",
          "type": "string"
        }
      ],
      "name": "withdrawUTokens",
      "outputs": [],
      "stateMutability": "nonpayable",
      "type": "function"
    }
  ],
  "bytecode": "0x608060405234801561001057600080fd5b50611e22806100206000396000f3fe608060405234801561001057600080fd5b50600436106101425760003560e01c80638456cb59116100b8578063ca15c8731161007c578063ca15c873146103cc578063cf756fdf146103e9578063d547741f14610425578063db8d55f114610451578063e63ab1e914610459578063e7fa0a321461046157610142565b80638456cb59146103495780639010d07c1461035157806391d1485414610390578063a217fddf146103bc578063b34ccebc146103c457610142565b80632f2ff15d1161010a5780632f2ff15d1461020957806336568abe146102355780633f4ba83a14610261578063428bee9e146102695780635c975abb146103245780636b2f04181461032c57610142565b80630b78f9c014610147578063118c38c71461017e57806321bdf9e51461019857806322dd9bc3146101c0578063248a9ca3146101ec575b600080fd5b61016a6004803603604081101561015d57600080fd5b5080359060200135610588565b604080519115158252519081900360200190f35b610186610625565b60408051918252519081900360200190f35b6101be600480360360208110156101ae57600080fd5b50356001600160a01b0316610637565b005b6101be600480360360408110156101d657600080fd5b506001600160a01b0381351690602001356106c9565b6101866004803603602081101561020257600080fd5b50356108c6565b6101be6004803603604081101561021f57600080fd5b50803590602001356001600160a01b03166108db565b6101be6004803603604081101561024b57600080fd5b50803590602001356001600160a01b0316610942565b61016a6109a3565b6101be6004803603606081101561027f57600080fd5b6001600160a01b03823516916020810135918101906060810160408201356401000000008111156102af57600080fd5b8201836020820111156102c157600080fd5b803590602001918460018302840111640100000000831117156102e357600080fd5b91908080601f016020809104026020016040519081016040528093929190818152602001838380828437600092019190915250929550610a08945050505050565b61016a610d2b565b61016a6004803603602081101561034257600080fd5b5035610d34565b61016a610dbd565b6103746004803603604081101561036757600080fd5b5080359060200135610e1c565b604080516001600160a01b039092168252519081900360200190f35b61016a600480360360408110156103a657600080fd5b50803590602001356001600160a01b0316610e3b565b610186610e53565b610186610e58565b610186600480360360208110156103e257600080fd5b5035610e5e565b6101be600480360360808110156103ff57600080fd5b506001600160a01b03813581169160208101358216916040820135169060600135610e75565b6101be6004803603604081101561043b57600080fd5b50803590602001356001600160a01b0316610f89565b610186610fe2565b610186610fe8565b6101be6004803603604081101561047757600080fd5b81019060208101813564010000000081111561049257600080fd5b8201836020820111156104a457600080fd5b803590602001918460208302840111640100000000831117156104c657600080fd5b919080806020026020016040519081016040528093929190818152602001838360200280828437600092019190915250929594936020810193503591505064010000000081111561051657600080fd5b82018360208201111561052857600080fd5b8035906020019184602083028401116401000000008311171561054a57600080fd5b919080806020026020016040519081016040528093929190818152602001838360200280828437600092019190915250929550610ffa945050505050565b600061059b8161059661128d565b610e3b565b6105d65760405162461bcd60e51b815260040180806020018281038252602d815260200180611cc7602d913960400191505060405180910390fd5b6099839055609a829055604080518481526020810184905281517f3be6e637f54f081a2dd12982cfd58481304fc98b604b18fa8ed4aa4e4a9d1532929181900390910190a15060015b92915050565b600080516020611cf483398151915281565b610644600061059661128d565b61067f5760405162461bcd60e51b8152600401808060200182810382526038815260200180611c3e6038913960400191505060405180910390fd5b609780546001600160a01b0319166001600160a01b0383169081179091556040517ff745c285f36f88bea6af14d4d0f33dd9350cef7895216c1615b1caaee7857e0c90600090a250565b6106d1610d2b565b15610716576040805162461bcd60e51b815260206004820152601060248201526f14185d5cd8589b194e881c185d5cd95960821b604482015290519081900360640190fd5b600081116107555760405162461bcd60e51b8152600401808060200182810382526037815260200180611b816037913960400191505060405180910390fd5b61076f600080516020611cf483398151915261059661128d565b6107aa5760405162461bcd60e51b815260040180806020018281038252603e815260200180611ae6603e913960400191505060405180910390fd5b60006107f76107c56064609b5461129190919063ffffffff16565b6107f16099546107eb609b546107e560648961129190919063ffffffff16565b90611291565b906112ea565b90611347565b6040805182815242602082015281519293506001600160a01b038616927f06d08f8705b74e3172df8733fc5da269157556d015544994a9759be4693d3ff5929181900390910190a2609754604080516340c10f1960e01b81526001600160a01b03868116600483015260248201859052915191909216916340c10f199160448083019260209291908290030181600087803b15801561089557600080fd5b505af11580156108a9573d6000803e3d6000fd5b505050506040513d60208110156108bf57600080fd5b5050505050565b60009081526065602052604090206002015490565b6000828152606560205260409020600201546108f99061059661128d565b6109345760405162461bcd60e51b815260040180806020018281038252602f815260200180611ab7602f913960400191505060405180910390fd5b61093e82826113ae565b5050565b61094a61128d565b6001600160a01b0316816001600160a01b0316146109995760405162461bcd60e51b815260040180806020018281038252602f815260200180611d8a602f913960400191505060405180910390fd5b61093e8282611417565b60006109bf600080516020611c7683398151915261059661128d565b6109fa5760405162461bcd60e51b8152600401808060200182810382526036815260200180611d546036913960400191505060405180910390fd5b610a02611480565b50600190565b610a10610d2b565b15610a55576040805162461bcd60e51b815260206004820152601060248201526f14185d5cd8589b194e881c185d5cd95960821b604482015290519081900360640190fd5b60008211610a945760405162461bcd60e51b8152600401808060200182810382526040815260200180611d146040913960400191505060405180910390fd5b609754604080516370a0823160e01b81526001600160a01b038681166004830152915160009392909216916370a0823191602480820192602092909190829003018186803b158015610ae557600080fd5b505afa158015610af9573d6000803e3d6000fd5b505050506040513d6020811015610b0f57600080fd5b5051905082811015610b525760405162461bcd60e51b815260040180806020018281038252602d815260200180611b24602d913960400191505060405180910390fd5b610b5a61128d565b6001600160a01b0316846001600160a01b031614610ba95760405162461bcd60e51b8152600401808060200182810382526031815260200180611c966031913960400191505060405180910390fd5b6000610be4610bc46064609b5461129190919063ffffffff16565b6107f1609a546107eb609b546107e560648b61129190919063ffffffff16565b60975460408051632770a7eb60e21b81526001600160a01b038981166004830152602482018590529151939450911691639dc29fac916044808201926020929091908290030181600087803b158015610c3c57600080fd5b505af1158015610c50573d6000803e3d6000fd5b505050506040513d6020811015610c6657600080fd5b505060408051828152429181018290526060602082810182815287519284019290925286516001600160a01b038a16947fc2db0b30181b3532965e53ba1bdf883b207dccb658a9589865c5a9c91e28b80b9487948a94929391929091608084019186019080838360005b83811015610ce8578181015183820152602001610cd0565b50505050905090810190601f168015610d155780820380516001836020036101000a031916815260200191505b5094505050505060405180910390a25050505050565b60335460ff1690565b6000610d428161059661128d565b610d7d5760405162461bcd60e51b8152600401808060200182810382526037815260200180611c076037913960400191505060405180910390fd5b60988290556040805183815290517f329410ba56a4e6e745349097bfb6ffa685e5189d31235bd6f2987bae543801d89181900360200190a1506001919050565b6000610dd9600080516020611c7683398151915261059661128d565b610e145760405162461bcd60e51b8152600401808060200182810382526034815260200180611db96034913960400191505060405180910390fd5b610a02611520565b6000828152606560205260408120610e3490836115a3565b9392505050565b6000828152606560205260408120610e3490836115af565b600081565b60985490565b600081815260656020526040812061061f906115c4565b600054610100900460ff1680610e8e5750610e8e6115cf565b80610e9c575060005460ff16155b610ed75760405162461bcd60e51b815260040180806020018281038252602e815260200180611bb8602e913960400191505060405180910390fd5b600054610100900460ff16158015610f02576000805460ff1961ff0019909116610100171660011790555b610f0a6115e0565b610f12611692565b610f246000610f1f61128d565b610934565b610f3c600080516020611cf483398151915285610934565b610f54600080516020611c7683398151915284610934565b610f5d85610637565b609b829055600060988190556099819055609a5580156108bf576000805461ff00191690555050505050565b600082815260656020526040902060020154610fa79061059661128d565b6109995760405162461bcd60e51b8152600401808060200182810382526030815260200180611b516030913960400191505060405180910390fd5b609a5490565b600080516020611c7683398151915281565b611002610d2b565b15611047576040805162461bcd60e51b815260206004820152601060248201526f14185d5cd8589b194e881c185d5cd95960821b604482015290519081900360640190fd5b611061600080516020611cf483398151915261059661128d565b61109c5760405162461bcd60e51b815260040180806020018281038252603e815260200180611ae6603e913960400191505060405180910390fd5b60005b82518110156111fc5760008282815181106110b657fe5b6020026020010151116110fa5760405162461bcd60e51b8152600401808060200182810382526037815260200180611b816037913960400191505060405180910390fd5b60006111486111156064609b5461129190919063ffffffff16565b6107f16099546107eb609b546107e560648a8a8151811061113257fe5b602002602001015161129190919063ffffffff16565b60975485519192506001600160a01b0316906340c10f199086908590811061116c57fe5b6020026020010151836040518363ffffffff1660e01b815260040180836001600160a01b0316815260200182815260200192505050602060405180830381600087803b1580156111bb57600080fd5b505af11580156111cf573d6000803e3d6000fd5b505050506040513d60208110156111e557600080fd5b506111f59150829050600161172f565b905061109f565b826112088260016112ea565b8151811061121257fe5b60200260200101516001600160a01b03167f06d08f8705b74e3172df8733fc5da269157556d015544994a9759be4693d3ff5836112596001856112ea90919063ffffffff16565b8151811061126357fe5b602002602001015142604051808381526020018281526020019250505060405180910390a2505050565b3390565b6000826112a05750600061061f565b828202828482816112ad57fe5b0414610e345760405162461bcd60e51b8152600401808060200182810382526021815260200180611be66021913960400191505060405180910390fd5b600082821115611341576040805162461bcd60e51b815260206004820152601e60248201527f536166654d6174683a207375627472616374696f6e206f766572666c6f770000604482015290519081900360640190fd5b50900390565b600080821161139d576040805162461bcd60e51b815260206004820152601a60248201527f536166654d6174683a206469766973696f6e206279207a65726f000000000000604482015290519081900360640190fd5b8183816113a657fe5b049392505050565b60008281526065602052604090206113c69082611789565b1561093e576113d361128d565b6001600160a01b0316816001600160a01b0316837f2f8788117e7eff1d82e926ec794901d17c78024a50270940304540a733656f0d60405160405180910390a45050565b600082815260656020526040902061142f908261179e565b1561093e5761143c61128d565b6001600160a01b0316816001600160a01b0316837ff6391f5c32d9c69d2a47ea670b442974b53935d1edc7fd64eb21e047a839171b60405160405180910390a45050565b611488610d2b565b6114d0576040805162461bcd60e51b815260206004820152601460248201527314185d5cd8589b194e881b9bdd081c185d5cd95960621b604482015290519081900360640190fd5b6033805460ff191690557f5db9ee0a495bf2e6ff9c91a7834c1ba4fdd244a5e8aa4e537bd38aeae4b073aa61150361128d565b604080516001600160a01b039092168252519081900360200190a1565b611528610d2b565b1561156d576040805162461bcd60e51b815260206004820152601060248201526f14185d5cd8589b194e881c185d5cd95960821b604482015290519081900360640190fd5b6033805460ff191660011790557f62e78cea01bee320cd4e420270b5ea74000d11b0c9f74754ebdbfc544b05a25861150361128d565b6000610e3483836117b3565b6000610e34836001600160a01b038416611817565b600061061f8261182f565b60006115da30611833565b15905090565b600054610100900460ff16806115f957506115f96115cf565b80611607575060005460ff16155b6116425760405162461bcd60e51b815260040180806020018281038252602e815260200180611bb8602e913960400191505060405180910390fd5b600054610100900460ff1615801561166d576000805460ff1961ff0019909116610100171660011790555b611675611839565b61167d611839565b801561168f576000805461ff00191690555b50565b600054610100900460ff16806116ab57506116ab6115cf565b806116b9575060005460ff16155b6116f45760405162461bcd60e51b815260040180806020018281038252602e815260200180611bb8602e913960400191505060405180910390fd5b600054610100900460ff1615801561171f576000805460ff1961ff0019909116610100171660011790555b611727611839565b61167d6118d9565b600082820183811015610e34576040805162461bcd60e51b815260206004820152601b60248201527f536166654d6174683a206164646974696f6e206f766572666c6f770000000000604482015290519081900360640190fd5b6000610e34836001600160a01b038416611984565b6000610e34836001600160a01b0384166119ce565b815460009082106117f55760405162461bcd60e51b8152600401808060200182810382526022815260200180611a956022913960400191505060405180910390fd5b82600001828154811061180457fe5b9060005260206000200154905092915050565b60009081526001919091016020526040902054151590565b5490565b3b151590565b600054610100900460ff168061185257506118526115cf565b80611860575060005460ff16155b61189b5760405162461bcd60e51b815260040180806020018281038252602e815260200180611bb8602e913960400191505060405180910390fd5b600054610100900460ff1615801561167d576000805460ff1961ff001990911661010017166001179055801561168f576000805461ff001916905550565b600054610100900460ff16806118f257506118f26115cf565b80611900575060005460ff16155b61193b5760405162461bcd60e51b815260040180806020018281038252602e815260200180611bb8602e913960400191505060405180910390fd5b600054610100900460ff16158015611966576000805460ff1961ff0019909116610100171660011790555b6033805460ff19169055801561168f576000805461ff001916905550565b60006119908383611817565b6119c65750815460018181018455600084815260208082209093018490558454848252828601909352604090209190915561061f565b50600061061f565b60008181526001830160205260408120548015611a8a5783546000198083019190810190600090879083908110611a0157fe5b9060005260206000200154905080876000018481548110611a1e57fe5b600091825260208083209091019290925582815260018981019092526040902090840190558654879080611a4e57fe5b6001900381819060005260206000200160009055905586600101600087815260200190815260200160002060009055600194505050505061061f565b600091505061061f56fe456e756d657261626c655365743a20696e646578206f7574206f6620626f756e6473416363657373436f6e74726f6c3a2073656e646572206d75737420626520616e2061646d696e20746f206772616e74546f6b656e577261707065723a204f6e6c79206272696467652061646d696e2063616e206d696e74206e657720746f6b656e7320666f7220612075736572546f6b656e577261707065723a20496e737566666369656e742062616c616e636520666f72206163636f756e74416363657373436f6e74726f6c3a2073656e646572206d75737420626520616e2061646d696e20746f207265766f6b65546f6b656e577261707065723a204e756d626572206f6620746f6b656e732073686f756c642062652067726561746572207468616e2030496e697469616c697a61626c653a20636f6e747261637420697320616c726561647920696e697469616c697a6564536166654d6174683a206d756c7469706c69636174696f6e206f766572666c6f77546f6b656e577261707065723a2055736572206e6f7420617574686f726973656420746f20736574206d696e696d756d2076616c756573546f6b656e577261707065723a2055736572206e6f7420617574686f726973656420746f207365742055546f6b656e20636f6e747261637465d7a28e3265b37a6474929f336521b332c1681b933f6cb9f3376673440d862a546f6b656e577261707065723a2057697468647261772063616e206f6e6c7920626520646f6e65206279205374616b6572546f6b656e577261707065723a2055736572206e6f7420617574686f726973656420746f207365742066656573751b795d24b92e3d92d1d0d8f2885f4e9c9c269da350af36ae6b49069babf4bf546f6b656e577261707065723a204e756d626572206f6620756e7374616b656420746f6b656e732073686f756c642062652067726561746572207468616e2030546f6b656e577261707065723a2055736572206e6f7420617574686f726973656420746f20756e706175736520636f6e747261637473416363657373436f6e74726f6c3a2063616e206f6e6c792072656e6f756e636520726f6c657320666f722073656c66546f6b656e577261707065723a2055736572206e6f7420617574686f726973656420746f20706175736520636f6e747261637473a26469706673582212200ee9c04fdb0dc2a86dde8e620201ec8c9441738b98d49ea2d4c88717c21efc1d64736f6c63430007060033",
  "immutableReferences": {},
  "source": "// SPDX-License-Identifier: UNLICENSED\npragma solidity ^0.7.0;\n\nimport \"@openzeppelin/contracts-upgradeable/math/SafeMathUpgradeable.sol\";\nimport \"@openzeppelin/contracts-upgradeable/utils/PausableUpgradeable.sol\";\nimport \"@openzeppelin/contracts-upgradeable/access/AccessControlUpgradeable.sol\";\nimport \"./interfaces/IUTokens.sol\";\nimport \"./interfaces/ITokenWrapper.sol\";\n\ncontract TokenWrapper is ITokenWrapper, PausableUpgradeable, AccessControlUpgradeable {\n\n    using SafeMathUpgradeable for uint256;\n\n    //Private instances of contracts to handle Utokens and Stokens\n    IUTokens private _uTokens;\n\n    // defining the fees and minimum values\n    uint256 private _minWithdraw;\n    uint256 private _depositFee;\n    uint256 private _withdrawFee;\n    uint256 private _feeDivisor;\n\n    bytes32 public constant BRIDGE_ADMIN_ROLE = keccak256(\"BRIDGE_ADMIN_ROLE\");\n    bytes32 public constant PAUSER_ROLE = keccak256(\"PAUSER_ROLE\");\n\n    /*\n   * @dev Constructor for initializing the TokenWrapper contract.\n   * @param uAddress - address of the UToken contract.\n   * @param sAddress - address of the SToken contract.\n   * @param bridgeAdminAddress - address of the bridge admin.\n   * @param pauserAddress - address of the pauser admin.\n   */\n    function initialize(address uAddress, address bridgeAdminAddress, address pauserAddress, uint256 feeDivisor) public virtual initializer  {\n         __AccessControl_init();\n        __Pausable_init();\n        _setupRole(DEFAULT_ADMIN_ROLE, _msgSender());\n        _setupRole(BRIDGE_ADMIN_ROLE, bridgeAdminAddress);\n        _setupRole(PAUSER_ROLE, pauserAddress);\n        setUTokensContract(uAddress);\n        _feeDivisor = feeDivisor;\n        _minWithdraw = 0;\n        _depositFee = 0;\n        _withdrawFee = 0;\n    }\n\n    /**\n     * @dev Set 'fees', called from admin\n     * @param withdrawFee: withdraw fee\n     *\n     * Emits a {SetFees} event with 'fee' set to the withdraw.\n     *\n     */\n    function setFees(uint256 depositFee, uint256 withdrawFee) public virtual override returns (bool success){\n        require(hasRole(DEFAULT_ADMIN_ROLE, _msgSender()), \"TokenWrapper: User not authorised to set fees\");\n        _depositFee = depositFee;\n        _withdrawFee = withdrawFee;\n        emit SetFees(depositFee, withdrawFee);\n        return true;\n    }\n\n    /**\n     * @dev get fees\n     *\n     */\n    function getFees() public view virtual returns (uint256 withdrawFee) {\n        withdrawFee = _withdrawFee;\n        return (withdrawFee);\n    }\n\n    /**\n     * @dev Set 'minimum values', called from admin\n     * @param minWithdraw: stake minimum value\n     *\n     * Emits a {SetMinimumValues} event with 'minimum value' set to withdraw.\n     *\n     */\n    function setMinimumValues(uint256 minWithdraw) public virtual override returns (bool success){\n        require(hasRole(DEFAULT_ADMIN_ROLE, _msgSender()), \"TokenWrapper: User not authorised to set minimum values\");\n        _minWithdraw = minWithdraw;\n        emit SetMinimumValues(minWithdraw);\n        return true;\n    }\n\n    /**\n     * @dev get fees\n     *\n     */\n    function getMinimumValues() public view virtual returns (uint256 minWithdraw) {\n        minWithdraw = _minWithdraw;\n        return (minWithdraw);\n    }\n\n    /*\n     * @dev Set 'contract address', called from constructor\n     * @param uAddress: utoken contract address\n     *\n     * Emits a {SetContract} event with '_contract' set to the utoken contract address.\n     *\n     */\n    function setUTokensContract(address uAddress) public virtual override {\n        require(hasRole(DEFAULT_ADMIN_ROLE, _msgSender()), \"TokenWrapper: User not authorised to set UToken contract\");\n        _uTokens = IUTokens(uAddress);\n        emit SetUTokensContract(uAddress);\n    }\n\n    /**\n      * @dev Triggers stopped state.\n      *\n      * Requirements:\n      *\n      * - The contract must not be paused.\n      */\n    function pause() public virtual returns (bool success) {\n        require(hasRole(PAUSER_ROLE, _msgSender()), \"TokenWrapper: User not authorised to pause contracts\");\n        _pause();\n        return true;\n    }\n\n    /**\n     * @dev Returns to normal state.\n     *\n     * Requirements:\n     *\n     * - The contract must be paused.\n     */\n    function unpause() public virtual returns (bool success) {\n        require(hasRole(PAUSER_ROLE, _msgSender()), \"TokenWrapper: User not authorised to unpause contracts\");\n        _unpause();\n        return true;\n    }\n\n    /**\n     * @dev Mint new utokens for the provided 'address' and 'amount'\n     * @param to: account address, amount: number of tokens\n     *\n     * Emits a {MintTokens} event with 'to' set to address and 'amount' set to amount of tokens.\n     *\n     * Requirements:\n     *\n     * - `amount` cannot be less than zero.\n     *\n     */\n    function generateUTokens(address to, uint256 amount) public virtual override whenNotPaused {\n        require(amount>0, \"TokenWrapper: Number of tokens should be greater than 0\");\n        require(hasRole(BRIDGE_ADMIN_ROLE, _msgSender()), \"TokenWrapper: Only bridge admin can mint new tokens for a user\");\n        uint256 finalTokens = (((amount.mul(100)).mul(_feeDivisor)).sub(_depositFee)).div(_feeDivisor.mul(100));\n        emit GenerateUTokens(to, finalTokens, block.timestamp);\n        _uTokens.mint(to, finalTokens);\n    }\n\n    /**\n     * @dev Mint new utokens for the provided 'address' and 'amount' iin batch\n     * @param to: account address, amount: number of tokens\n     *\n     * Emits a {MintTokens} event with 'to' set to address and 'amount' set to amount of tokens.\n     *\n     * Requirements:\n     *\n     * - `amount` cannot be less than zero.\n     *\n     */\n    function generateUTokensInBatch(address[] memory to, uint256[] memory amount) public virtual override whenNotPaused {\n        require(hasRole(BRIDGE_ADMIN_ROLE, _msgSender()), \"TokenWrapper: Only bridge admin can mint new tokens for a user\");\n        uint256 i;\n        for ( i=0; i<to.length; i=i.add(1)) {\n            require(amount[i]>0, \"TokenWrapper: Number of tokens should be greater than 0\");\n            uint256 finalTokens = (((amount[i].mul(100)).mul(_feeDivisor)).sub(_depositFee)).div(_feeDivisor.mul(100));\n            _uTokens.mint(to[i], finalTokens);\n        }\n        emit GenerateUTokens(to[i.sub(1)], amount[i.sub(1)], block.timestamp);\n    }\n\n    /**\n     * @dev Burn utokens for the provided 'address' and 'amount'\n     * @param from: account address, tokens: number of tokens, toAtomAddress: atom wallet address\n     *\n     * Emits a {BurnTokens} event with 'from' set to address and 'tokens' set to amount of tokens.\n     *\n     * Requirements:\n     *\n     * - `tokens` cannot be less than zero.\n     *\n     */\n    function withdrawUTokens(address from, uint256 tokens, string memory toAtomAddress) public virtual override whenNotPaused {\n        require(tokens>0, \"TokenWrapper: Number of unstaked tokens should be greater than 0\");\n        uint256 _currentUTokenBalance = _uTokens.balanceOf(from);\n        require(_currentUTokenBalance>=tokens, \"TokenWrapper: Insuffcient balance for account\");\n        require(from == _msgSender(), \"TokenWrapper: Withdraw can only be done by Staker\");\n        uint256 finalTokens = (((tokens.mul(100)).mul(_feeDivisor)).sub(_withdrawFee)).div(_feeDivisor.mul(100));\n        _uTokens.burn(from, finalTokens);\n        emit WithdrawUTokens(from, finalTokens, toAtomAddress, block.timestamp);\n    }\n}\n\n",
  "sourcePath": "/home/aditimahesh/Documents/Work/Persistence/go/src/github.com/persistenceOne/pStakeSmartContracts/contracts/TokenWrapper.sol",
  "compiler": {
    "name": "solc",
    "version": "0.7.6+commit.7338295f.Emscripten.clang"
  },
  "schemaVersion": "3.3.4",
  "updatedAt": "2021-05-13T10:18:11.814Z",
  "networkType": "ethereum",
  "devdoc": {
    "kind": "dev",
    "methods": {
      "generateUTokens(address,uint256)": {
        "details": "Mint new utokens for the provided 'address' and 'amount'",
        "params": {
          "to": ": account address, amount: number of tokens Emits a {MintTokens} event with 'to' set to address and 'amount' set to amount of tokens. Requirements: - `amount` cannot be less than zero."
        }
      },
      "generateUTokensInBatch(address[],uint256[])": {
        "details": "Mint new utokens for the provided 'address' and 'amount' iin batch",
        "params": {
          "to": ": account address, amount: number of tokens Emits a {MintTokens} event with 'to' set to address and 'amount' set to amount of tokens. Requirements: - `amount` cannot be less than zero."
        }
      },
      "getFees()": {
        "details": "get fees"
      },
      "getMinimumValues()": {
        "details": "get fees"
      },
      "getRoleAdmin(bytes32)": {
        "details": "Returns the admin role that controls `role`. See {grantRole} and {revokeRole}. To change a role's admin, use {_setRoleAdmin}."
      },
      "getRoleMember(bytes32,uint256)": {
        "details": "Returns one of the accounts that have `role`. `index` must be a value between 0 and {getRoleMemberCount}, non-inclusive. Role bearers are not sorted in any particular way, and their ordering may change at any point. WARNING: When using {getRoleMember} and {getRoleMemberCount}, make sure you perform all queries on the same block. See the following https://forum.openzeppelin.com/t/iterating-over-elements-on-enumerableset-in-openzeppelin-contracts/2296[forum post] for more information."
      },
      "getRoleMemberCount(bytes32)": {
        "details": "Returns the number of accounts that have `role`. Can be used together with {getRoleMember} to enumerate all bearers of a role."
      },
      "grantRole(bytes32,address)": {
        "details": "Grants `role` to `account`. If `account` had not been already granted `role`, emits a {RoleGranted} event. Requirements: - the caller must have ``role``'s admin role."
      },
      "hasRole(bytes32,address)": {
        "details": "Returns `true` if `account` has been granted `role`."
      },
      "pause()": {
        "details": "Triggers stopped state. Requirements: - The contract must not be paused."
      },
      "paused()": {
        "details": "Returns true if the contract is paused, and false otherwise."
      },
      "renounceRole(bytes32,address)": {
        "details": "Revokes `role` from the calling account. Roles are often managed via {grantRole} and {revokeRole}: this function's purpose is to provide a mechanism for accounts to lose their privileges if they are compromised (such as when a trusted device is misplaced). If the calling account had been granted `role`, emits a {RoleRevoked} event. Requirements: - the caller must be `account`."
      },
      "revokeRole(bytes32,address)": {
        "details": "Revokes `role` from `account`. If `account` had been granted `role`, emits a {RoleRevoked} event. Requirements: - the caller must have ``role``'s admin role."
      },
      "setFees(uint256,uint256)": {
        "details": "Set 'fees', called from admin",
        "params": {
          "withdrawFee": ": withdraw fee Emits a {SetFees} event with 'fee' set to the withdraw."
        }
      },
      "setMinimumValues(uint256)": {
        "details": "Set 'minimum values', called from admin",
        "params": {
          "minWithdraw": ": stake minimum value Emits a {SetMinimumValues} event with 'minimum value' set to withdraw."
        }
      },
      "setUTokensContract(address)": {
        "details": "Set UTokens smart contract. Emits a {SetContract} event."
      },
      "unpause()": {
        "details": "Returns to normal state. Requirements: - The contract must be paused."
      },
      "withdrawUTokens(address,uint256,string)": {
        "details": "Burn utokens for the provided 'address' and 'amount'",
        "params": {
          "from": ": account address, tokens: number of tokens, toAtomAddress: atom wallet address Emits a {BurnTokens} event with 'from' set to address and 'tokens' set to amount of tokens. Requirements: - `tokens` cannot be less than zero."
        }
      }
    },
    "version": 1
  },
  "userdoc": {
    "kind": "user",
    "methods": {},
    "version": 1
  }
}