{
  "contractName": "TokenWrapperV3",
  "abi": [
    {
      "anonymous": false,
      "inputs": [
        {
          "indexed": true,
          "internalType": "address",
          "name": "accountAddress",
          "type": "address"
        },
        {
          "indexed": true,
          "internalType": "uint256",
          "name": "tokens",
          "type": "uint256"
        },
        {
          "indexed": true,
          "internalType": "uint256",
          "name": "finalTokens",
          "type": "uint256"
        },
        {
          "indexed": false,
          "internalType": "uint256",
          "name": "timestamp",
          "type": "uint256"
        }
      ],
      "name": "GenerateUTokens",
      "type": "event"
    },
    {
      "anonymous": false,
      "inputs": [
        {
          "indexed": false,
          "internalType": "address[]",
          "name": "accountAddress",
          "type": "address[]"
        },
        {
          "indexed": false,
          "internalType": "uint256[]",
          "name": "tokens",
          "type": "uint256[]"
        },
        {
          "indexed": false,
          "internalType": "uint256[]",
          "name": "finalTokens",
          "type": "uint256[]"
        },
        {
          "indexed": false,
          "internalType": "uint256",
          "name": "timestamp",
          "type": "uint256"
        }
      ],
      "name": "GenerateUTokensInBatch",
      "type": "event"
    },
    {
      "anonymous": false,
      "inputs": [
        {
          "indexed": false,
          "internalType": "address",
          "name": "account",
          "type": "address"
        }
      ],
      "name": "Paused",
      "type": "event"
    },
    {
      "anonymous": false,
      "inputs": [
        {
          "indexed": true,
          "internalType": "bytes32",
          "name": "role",
          "type": "bytes32"
        },
        {
          "indexed": true,
          "internalType": "bytes32",
          "name": "previousAdminRole",
          "type": "bytes32"
        },
        {
          "indexed": true,
          "internalType": "bytes32",
          "name": "newAdminRole",
          "type": "bytes32"
        }
      ],
      "name": "RoleAdminChanged",
      "type": "event"
    },
    {
      "anonymous": false,
      "inputs": [
        {
          "indexed": true,
          "internalType": "bytes32",
          "name": "role",
          "type": "bytes32"
        },
        {
          "indexed": true,
          "internalType": "address",
          "name": "account",
          "type": "address"
        },
        {
          "indexed": true,
          "internalType": "address",
          "name": "sender",
          "type": "address"
        }
      ],
      "name": "RoleGranted",
      "type": "event"
    },
    {
      "anonymous": false,
      "inputs": [
        {
          "indexed": true,
          "internalType": "bytes32",
          "name": "role",
          "type": "bytes32"
        },
        {
          "indexed": true,
          "internalType": "address",
          "name": "account",
          "type": "address"
        },
        {
          "indexed": true,
          "internalType": "address",
          "name": "sender",
          "type": "address"
        }
      ],
      "name": "RoleRevoked",
      "type": "event"
    },
    {
      "anonymous": false,
      "inputs": [
        {
          "indexed": true,
          "internalType": "uint256",
          "name": "depositFee",
          "type": "uint256"
        },
        {
          "indexed": true,
          "internalType": "uint256",
          "name": "withdrawFee",
          "type": "uint256"
        }
      ],
      "name": "SetFees",
      "type": "event"
    },
    {
      "anonymous": false,
      "inputs": [
        {
          "indexed": true,
          "internalType": "uint256",
          "name": "minDeposit",
          "type": "uint256"
        },
        {
          "indexed": true,
          "internalType": "uint256",
          "name": "minWithdraw",
          "type": "uint256"
        }
      ],
      "name": "SetMinimumValues",
      "type": "event"
    },
    {
      "anonymous": false,
      "inputs": [
        {
          "indexed": true,
          "internalType": "address",
          "name": "_contract",
          "type": "address"
        }
      ],
      "name": "SetUTokensContract",
      "type": "event"
    },
    {
      "anonymous": false,
      "inputs": [
        {
          "indexed": false,
          "internalType": "address",
          "name": "account",
          "type": "address"
        }
      ],
      "name": "Unpaused",
      "type": "event"
    },
    {
      "anonymous": false,
      "inputs": [
        {
          "indexed": true,
          "internalType": "address",
          "name": "accountAddress",
          "type": "address"
        },
        {
          "indexed": true,
          "internalType": "uint256",
          "name": "tokens",
          "type": "uint256"
        },
        {
          "indexed": false,
          "internalType": "uint256",
          "name": "finalTokens",
          "type": "uint256"
        },
        {
          "indexed": false,
          "internalType": "string",
          "name": "toChainAddress",
          "type": "string"
        },
        {
          "indexed": false,
          "internalType": "uint256",
          "name": "timestamp",
          "type": "uint256"
        }
      ],
      "name": "WithdrawUTokens",
      "type": "event"
    },
    {
      "inputs": [],
      "name": "BRIDGE_ADMIN_ROLE",
      "outputs": [
        {
          "internalType": "bytes32",
          "name": "",
          "type": "bytes32"
        }
      ],
      "stateMutability": "view",
      "type": "function"
    },
    {
      "inputs": [],
      "name": "DEFAULT_ADMIN_ROLE",
      "outputs": [
        {
          "internalType": "bytes32",
          "name": "",
          "type": "bytes32"
        }
      ],
      "stateMutability": "view",
      "type": "function"
    },
    {
      "inputs": [],
      "name": "PAUSER_ROLE",
      "outputs": [
        {
          "internalType": "bytes32",
          "name": "",
          "type": "bytes32"
        }
      ],
      "stateMutability": "view",
      "type": "function"
    },
    {
      "inputs": [],
      "name": "_uTokens",
      "outputs": [
        {
          "internalType": "contract IUTokensV2",
          "name": "",
          "type": "address"
        }
      ],
      "stateMutability": "view",
      "type": "function"
    },
    {
      "inputs": [],
      "name": "_valueDivisor",
      "outputs": [
        {
          "internalType": "uint256",
          "name": "",
          "type": "uint256"
        }
      ],
      "stateMutability": "view",
      "type": "function"
    },
    {
      "inputs": [],
      "name": "_version",
      "outputs": [
        {
          "internalType": "uint256",
          "name": "",
          "type": "uint256"
        }
      ],
      "stateMutability": "view",
      "type": "function"
    },
    {
      "inputs": [],
      "name": "controlDigitBytes",
      "outputs": [
        {
          "internalType": "bytes",
          "name": "",
          "type": "bytes"
        }
      ],
      "stateMutability": "view",
      "type": "function"
    },
    {
      "inputs": [],
      "name": "dataBytesSize",
      "outputs": [
        {
          "internalType": "uint256",
          "name": "",
          "type": "uint256"
        }
      ],
      "stateMutability": "view",
      "type": "function"
    },
    {
      "inputs": [
        {
          "internalType": "bytes32",
          "name": "role",
          "type": "bytes32"
        }
      ],
      "name": "getRoleAdmin",
      "outputs": [
        {
          "internalType": "bytes32",
          "name": "",
          "type": "bytes32"
        }
      ],
      "stateMutability": "view",
      "type": "function"
    },
    {
      "inputs": [
        {
          "internalType": "bytes32",
          "name": "role",
          "type": "bytes32"
        },
        {
          "internalType": "uint256",
          "name": "index",
          "type": "uint256"
        }
      ],
      "name": "getRoleMember",
      "outputs": [
        {
          "internalType": "address",
          "name": "",
          "type": "address"
        }
      ],
      "stateMutability": "view",
      "type": "function"
    },
    {
      "inputs": [
        {
          "internalType": "bytes32",
          "name": "role",
          "type": "bytes32"
        }
      ],
      "name": "getRoleMemberCount",
      "outputs": [
        {
          "internalType": "uint256",
          "name": "",
          "type": "uint256"
        }
      ],
      "stateMutability": "view",
      "type": "function"
    },
    {
      "inputs": [
        {
          "internalType": "bytes32",
          "name": "role",
          "type": "bytes32"
        },
        {
          "internalType": "address",
          "name": "account",
          "type": "address"
        }
      ],
      "name": "grantRole",
      "outputs": [],
      "stateMutability": "nonpayable",
      "type": "function"
    },
    {
      "inputs": [
        {
          "internalType": "bytes32",
          "name": "role",
          "type": "bytes32"
        },
        {
          "internalType": "address",
          "name": "account",
          "type": "address"
        }
      ],
      "name": "hasRole",
      "outputs": [
        {
          "internalType": "bool",
          "name": "",
          "type": "bool"
        }
      ],
      "stateMutability": "view",
      "type": "function"
    },
    {
      "inputs": [],
      "name": "hrpBytes",
      "outputs": [
        {
          "internalType": "bytes",
          "name": "",
          "type": "bytes"
        }
      ],
      "stateMutability": "view",
      "type": "function"
    },
    {
      "inputs": [],
      "name": "paused",
      "outputs": [
        {
          "internalType": "bool",
          "name": "",
          "type": "bool"
        }
      ],
      "stateMutability": "view",
      "type": "function"
    },
    {
      "inputs": [
        {
          "internalType": "bytes32",
          "name": "role",
          "type": "bytes32"
        },
        {
          "internalType": "address",
          "name": "account",
          "type": "address"
        }
      ],
      "name": "renounceRole",
      "outputs": [],
      "stateMutability": "nonpayable",
      "type": "function"
    },
    {
      "inputs": [
        {
          "internalType": "bytes32",
          "name": "role",
          "type": "bytes32"
        },
        {
          "internalType": "address",
          "name": "account",
          "type": "address"
        }
      ],
      "name": "revokeRole",
      "outputs": [],
      "stateMutability": "nonpayable",
      "type": "function"
    },
    {
      "inputs": [
        {
          "internalType": "address",
          "name": "uAddress",
          "type": "address"
        },
        {
          "internalType": "address",
          "name": "bridgeAdminAddress",
          "type": "address"
        },
        {
          "internalType": "address",
          "name": "pauserAddress",
          "type": "address"
        },
        {
          "internalType": "uint256",
          "name": "valueDivisor",
          "type": "uint256"
        }
      ],
      "name": "initialize",
      "outputs": [],
      "stateMutability": "nonpayable",
      "type": "function"
    },
    {
      "inputs": [
        {
          "internalType": "uint256",
          "name": "depositFee",
          "type": "uint256"
        },
        {
          "internalType": "uint256",
          "name": "withdrawFee",
          "type": "uint256"
        }
      ],
      "name": "setFees",
      "outputs": [
        {
          "internalType": "bool",
          "name": "success",
          "type": "bool"
        }
      ],
      "stateMutability": "nonpayable",
      "type": "function"
    },
    {
      "inputs": [],
      "name": "getProps",
      "outputs": [
        {
          "internalType": "uint256",
          "name": "depositFee",
          "type": "uint256"
        },
        {
          "internalType": "uint256",
          "name": "withdrawFee",
          "type": "uint256"
        },
        {
          "internalType": "uint256",
          "name": "minDeposit",
          "type": "uint256"
        },
        {
          "internalType": "uint256",
          "name": "minWithdraw",
          "type": "uint256"
        },
        {
          "internalType": "uint256",
          "name": "valueDivisor",
          "type": "uint256"
        }
      ],
      "stateMutability": "view",
      "type": "function"
    },
    {
      "inputs": [
        {
          "internalType": "uint256",
          "name": "minDeposit",
          "type": "uint256"
        },
        {
          "internalType": "uint256",
          "name": "minWithdraw",
          "type": "uint256"
        }
      ],
      "name": "setMinimumValues",
      "outputs": [
        {
          "internalType": "bool",
          "name": "success",
          "type": "bool"
        }
      ],
      "stateMutability": "nonpayable",
      "type": "function"
    },
    {
      "inputs": [
        {
          "internalType": "address",
          "name": "uAddress",
          "type": "address"
        }
      ],
      "name": "setUTokensContract",
      "outputs": [],
      "stateMutability": "nonpayable",
      "type": "function"
    },
    {
      "inputs": [
        {
          "internalType": "address",
          "name": "to",
          "type": "address"
        },
        {
          "internalType": "uint256",
          "name": "amount",
          "type": "uint256"
        }
      ],
      "name": "generateUTokens",
      "outputs": [
        {
          "internalType": "uint256",
          "name": "wrappedTokens",
          "type": "uint256"
        }
      ],
      "stateMutability": "nonpayable",
      "type": "function"
    },
    {
      "inputs": [
        {
          "internalType": "address[]",
          "name": "toAddresses",
          "type": "address[]"
        },
        {
          "internalType": "uint256[]",
          "name": "amounts",
          "type": "uint256[]"
        }
      ],
      "name": "generateUTokensInBatch",
      "outputs": [
        {
          "internalType": "uint256[]",
          "name": "wrappedTokensArray",
          "type": "uint256[]"
        }
      ],
      "stateMutability": "nonpayable",
      "type": "function"
    },
    {
      "inputs": [
        {
          "internalType": "string",
          "name": "toChainAddress",
          "type": "string"
        }
      ],
      "name": "isBech32Valid",
      "outputs": [
        {
          "internalType": "bool",
          "name": "isAddressValid",
          "type": "bool"
        }
      ],
      "stateMutability": "view",
      "type": "function"
    },
    {
      "inputs": [
        {
          "internalType": "address",
          "name": "from",
          "type": "address"
        },
        {
          "internalType": "uint256",
          "name": "tokens",
          "type": "uint256"
        },
        {
          "internalType": "string",
          "name": "toChainAddress",
          "type": "string"
        }
      ],
      "name": "withdrawUTokens",
      "outputs": [
        {
          "internalType": "uint256",
          "name": "unwrappedTokens",
          "type": "uint256"
        }
      ],
      "stateMutability": "nonpayable",
      "type": "function"
    },
    {
      "inputs": [],
      "name": "pause",
      "outputs": [
        {
          "internalType": "bool",
          "name": "success",
          "type": "bool"
        }
      ],
      "stateMutability": "nonpayable",
      "type": "function"
    },
    {
      "inputs": [],
      "name": "unpause",
      "outputs": [
        {
          "internalType": "bool",
          "name": "success",
          "type": "bool"
        }
      ],
      "stateMutability": "nonpayable",
      "type": "function"
    }
  ],
  "bytecode": "0x608060405234801561001057600080fd5b50612d16806100206000396000f3fe608060405234801561001057600080fd5b50600436106101c45760003560e01c80638456cb59116100f9578063cf756fdf11610097578063e3ac914b11610071578063e3ac914b14610610578063e63ab1e914610618578063e7fa0a3214610620578063ec1893b41461072e576101c4565b8063cf756fdf146105a0578063d37f5598146105dc578063d547741f146105e4576101c4565b806391d14854116100d357806391d14854146104d2578063a217fddf146104fe578063a53dcd7214610506578063ca15c87314610583576101c4565b80638456cb59146104035780638f001d4e1461040b5780639010d07c146104af576101c4565b80633e118dbe1161016657806351db00e71161014057806351db00e7146103ac5780635c975abb146103cf578063728a99ee146103d757806378a2f074146103df576101c4565b80633e118dbe146102e35780633f4ba83a146102eb578063428bee9e146102f3576101c4565b806322dd9bc3116101a257806322dd9bc314610242578063248a9ca31461026e5780632f2ff15d1461028b57806336568abe146102b7576101c4565b80630b78f9c0146101c9578063118c38c71461020057806321bdf9e51461021a575b600080fd5b6101ec600480360360408110156101df57600080fd5b5080359060200135610761565b604080519115158252519081900360200190f35b61020861085e565b60408051918252519081900360200190f35b6102406004803603602081101561023057600080fd5b50356001600160a01b0316610870565b005b6102086004803603604081101561025857600080fd5b506001600160a01b0381351690602001356108fe565b6102086004803603602081101561028457600080fd5b50356109a9565b610240600480360360408110156102a157600080fd5b50803590602001356001600160a01b03166109c1565b610240600480360360408110156102cd57600080fd5b50803590602001356001600160a01b0316610a28565b610208610a89565b6101ec610a8f565b6102086004803603606081101561030957600080fd5b6001600160a01b0382351691602081013591810190606081016040820135600160201b81111561033857600080fd5b82018360208201111561034a57600080fd5b803590602001918460018302840111600160201b8311171561036b57600080fd5b91908080601f016020809104026020016040519081016040528093929190818152602001838380828437600092019190915250929550610af0945050505050565b6101ec600480360360408110156103c257600080fd5b5080359060200135610f78565b6101ec611075565b61020861107e565b6103e7611084565b604080516001600160a01b039092168252519081900360200190f35b6101ec611093565b6101ec6004803603602081101561042157600080fd5b810190602081018135600160201b81111561043b57600080fd5b82018360208201111561044d57600080fd5b803590602001918460018302840111600160201b8311171561046e57600080fd5b91908080601f0160208091040260200160405190810160405280939291908181526020018383808284376000920191909152509295506110ee945050505050565b6103e7600480360360408110156104c557600080fd5b508035906020013561121d565b6101ec600480360360408110156104e857600080fd5b50803590602001356001600160a01b031661123c565b610208611254565b61050e611259565b6040805160208082528351818301528351919283929083019185019080838360005b83811015610548578181015183820152602001610530565b50505050905090810190601f1680156105755780820380516001836020036101000a031916815260200191505b509250505060405180910390f35b6102086004803603602081101561059957600080fd5b50356112e7565b610240600480360360808110156105b657600080fd5b506001600160a01b038135811691602081013582169160408201351690606001356112fe565b61050e61146c565b610240600480360360408110156105fa57600080fd5b50803590602001356001600160a01b03166114c7565b610208611520565b610208611526565b6106de6004803603604081101561063657600080fd5b810190602081018135600160201b81111561065057600080fd5b82018360208201111561066257600080fd5b803590602001918460208302840111600160201b8311171561068357600080fd5b919390929091602081019035600160201b8111156106a057600080fd5b8201836020820111156106b257600080fd5b803590602001918460208302840111600160201b831117156106d357600080fd5b509092509050611538565b60408051602080825283518183015283519192839290830191858101910280838360005b8381101561071a578181015183820152602001610702565b505050509050019250505060405180910390f35b610736611767565b6040805195865260208601949094528484019290925260608401526080830152519081900360a00190f35b60006107748161076f611781565b61123c565b6107ab576040805162461bcd60e51b815260206004820152600360248201526254573160e81b604482015290519081900360640190fd5b609c546107b9906064611785565b831115806107c5575082155b80156107e65750609c546107da906064611785565b821115806107e6575081155b61081d576040805162461bcd60e51b81526020600482015260036024820152622a2b9960e91b604482015290519081900360640190fd5b609a839055609b829055604051829084907f3be6e637f54f081a2dd12982cfd58481304fc98b604b18fa8ed4aa4e4a9d153290600090a35060015b92915050565b600080516020612c7283398151915281565b61087d600061076f611781565b6108b4576040805162461bcd60e51b81526020600482015260036024820152622a2b9b60e91b604482015290519081900360640190fd5b609780546001600160a01b0319166001600160a01b0383169081179091556040517ff745c285f36f88bea6af14d4d0f33dd9350cef7895216c1615b1caaee7857e0c90600090a250565b600061091a600080516020612c7283398151915261076f611781565b610954576040805162461bcd60e51b815260206004808301919091526024820152630545731360e41b604482015290519081900360640190fd5b61095e83836117de565b90508181846001600160a01b03167f572f067f64ae57ed816b7e9b5424a87d97035d68384f149586cba42b4192c9d8426040518082815260200191505060405180910390a492915050565b6000818152606560205260409020600201545b919050565b6000828152606560205260409020600201546109df9061076f611781565b610a1a5760405162461bcd60e51b815260040180806020018281038252602f815260200180612ba4602f913960400191505060405180910390fd5b610a2482826118e9565b5050565b610a30611781565b6001600160a01b0316816001600160a01b031614610a7f5760405162461bcd60e51b815260040180806020018281038252602f815260200180612c92602f913960400191505060405180910390fd5b610a248282611952565b60a05481565b6000610aab600080516020612c5283398151915261076f611781565b610ae2576040805162461bcd60e51b81526020600482015260036024820152620a8ae760eb1b604482015290519081900360640190fd5b610aea6119bb565b50600190565b6000610afa611075565b15610b3f576040805162461bcd60e51b815260206004820152601060248201526f14185d5cd8589b194e881c185d5cd95960821b604482015290519081900360640190fd5b610b47611781565b6001600160a01b0316846001600160a01b031614610b95576040805162461bcd60e51b815260206004808301919091526024820152635457313760e01b604482015290519081900360640190fd5b609954831015610bd5576040805162461bcd60e51b815260206004808301919091526024820152631515cc4d60e21b604482015290519081900360640190fd5b609754604080516370a0823160e01b81526001600160a01b038781166004830152915160009392909216916370a0823191602480820192602092909190829003018186803b158015610c2657600080fd5b505afa158015610c3a573d6000803e3d6000fd5b505050506040513d6020811015610c5057600080fd5b5051905083811015610c92576040805162461bcd60e51b815260206004808301919091526024820152632a2b989b60e11b604482015290519081900360640190fd5b609d805460408051602060026001851615610100026000190190941693909304601f8101849004840282018401909252818152600093610dc19391929091830182828015610d215780601f10610cf657610100808354040283529160200191610d21565b820191906000526020600020905b815481529060010190602001808311610d0457829003601f168201915b5050609e8054604080516020601f6002600019610100600188161502019095169490940493840181900481028201810190925282815295509193509150830182828015610daf5780601f10610d8457610100808354040283529160200191610daf565b820191906000526020600020905b815481529060010190602001808311610d9257829003601f168201915b5050609f548a95949350915050611a5b565b9050600181151514610e03576040805162461bcd60e51b815260206004808301919091526024820152635457313560e01b604482015290519081900360640190fd5b6000610e296064610e23609b54609c548a611b729092919063ffffffff16565b90611c2b565b9050610e358682611c92565b935083876001600160a01b03167f0f4363f6961ed151f2cf8f720784b70c0f5573f216fc939f67f2a5d12698e02e8888426040518084815260200180602001838152602001828103825284818151815260200191508051906020019080838360005b83811015610eaf578181015183820152602001610e97565b50505050905090810190601f168015610edc5780820380516001836020036101000a031916815260200191505b5094505050505060405180910390a360975460408051632770a7eb60e21b81526001600160a01b038a81166004830152602482018a905291519190921691639dc29fac9160448083019260209291908290030181600087803b158015610f4157600080fd5b505af1158015610f55573d6000803e3d6000fd5b505050506040513d6020811015610f6b57600080fd5b5093979650505050505050565b6000610f868161076f611781565b610fbd576040805162461bcd60e51b815260206004820152600360248201526254573360e81b604482015290519081900360640190fd5b6001831015610ff9576040805162461bcd60e51b81526020600482015260036024820152621515cd60ea1b604482015290519081900360640190fd5b6001821015611035576040805162461bcd60e51b815260206004820152600360248201526254573560e81b604482015290519081900360640190fd5b60988390556099829055604051829084907fa94d40347449ea19b873d64ed55c99772194c49791e82be5c2dc24e4c0044fe390600090a350600192915050565b60335460ff1690565b609c5481565b6097546001600160a01b031681565b60006110af600080516020612c5283398151915261076f611781565b6110e6576040805162461bcd60e51b815260206004820152600360248201526254573760e81b604482015290519081900360640190fd5b610aea611cef565b609d805460408051602060026001851615610100026000190190941693909304601f8101849004840282018401909252818152600093610858939192909183018282801561117d5780601f106111525761010080835404028352916020019161117d565b820191906000526020600020905b81548152906001019060200180831161116057829003601f168201915b5050609e8054604080516020601f600260001961010060018816150201909516949094049384018190048102820181019092528281529550919350915083018282801561120b5780601f106111e05761010080835404028352916020019161120b565b820191906000526020600020905b8154815290600101906020018083116111ee57829003601f168201915b5050609f548895949350915050611a5b565b60008281526065602052604081206112359083611d72565b9392505050565b60008281526065602052604081206112359083611d7e565b600081565b609e805460408051602060026001851615610100026000190190941693909304601f810184900484028201840190925281815292918301828280156112df5780601f106112b4576101008083540402835291602001916112df565b820191906000526020600020905b8154815290600101906020018083116112c257829003601f168201915b505050505081565b600081815260656020526040812061085890611d93565b600054610100900460ff16806113175750611317611d9e565b80611325575060005460ff16155b6113605760405162461bcd60e51b815260040180806020018281038252602e815260200180612c03602e913960400191505060405180910390fd5b600054610100900460ff1615801561138b576000805460ff1961ff0019909116610100171660011790555b611393611daf565b61139b611e61565b6113ad60006113a8611781565b610a1a565b6113c5600080516020612c7283398151915285610a1a565b6113dd600080516020612c5283398151915284610a1a565b6113e685610870565b6113f1600180610f78565b50609c82905560408051808201909152600680825265636f736d6f7360d01b602090920191825261142491609d91612ae0565b50604080518082019091526001808252603160f81b602090920191825261144d91609e91612ae0565b506026609f558015611465576000805461ff00191690555b5050505050565b609d805460408051602060026001851615610100026000190190941693909304601f810184900484028201840190925281815292918301828280156112df5780601f106112b4576101008083540402835291602001916112df565b6000828152606560205260409020600201546114e59061076f611781565b610a7f5760405162461bcd60e51b8152600401808060200182810382526030815260200180612bd36030913960400191505060405180910390fd5b609f5481565b600080516020612c5283398151915281565b6060838214611577576040805162461bcd60e51b815260206004808301919091526024820152635457313160e01b604482015290519081900360640190fd5b611591600080516020612c7283398151915261076f611781565b6115cb576040805162461bcd60e51b815260206004808301919091526024820152632a2b989960e11b604482015290519081900360640190fd5b6000848067ffffffffffffffff811180156115e557600080fd5b5060405190808252806020026020018201604052801561160f578160200160208202803683370190505b509250600091505b808210156116785761165687878481811061162e57fe5b905060200201356001600160a01b031686868581811061164a57fe5b905060200201356117de565b83838151811061166257fe5b6020908102919091010152600190910190611617565b7fff03029439b5b79825ca34bca1b453f01e01935bdde5210a8af22f19705ca1a38787858888426040518080602001806020018060200185815260200184810384528a8a828181526020019250602002808284376000838201819052601f909101601f191690920186810385528a5181528a51602091820193828d0193509102908190849084905b83811015611718578181015183820152602001611700565b505050509050018481038252878782818152602001925060200280828437600083820152604051601f909101601f19169092018290039b50909950505050505050505050a15050949350505050565b609a54609b54609854609954609c54939492939192909190565b3390565b60008261179457506000610858565b828202828482816117a157fe5b04146112355760405162461bcd60e51b8152600401808060200182810382526021815260200180612c316021913960400191505060405180910390fd5b60006001600160a01b038316158015906117f757508115155b611831576040805162461bcd60e51b815260206004808301919091526024820152635457313360e01b604482015290519081900360640190fd5b60006118516064610e23609a54609c5487611b729092919063ffffffff16565b905061185d8382611c92565b609754604080516340c10f1960e01b81526001600160a01b0388811660048301526024820185905291519395509116916340c10f19916044808201926020929091908290030181600087803b1580156118b557600080fd5b505af11580156118c9573d6000803e3d6000fd5b505050506040513d60208110156118df57600080fd5b5091949350505050565b60008281526065602052604090206119019082611efe565b15610a245761190e611781565b6001600160a01b0316816001600160a01b0316837f2f8788117e7eff1d82e926ec794901d17c78024a50270940304540a733656f0d60405160405180910390a45050565b600082815260656020526040902061196a9082611f13565b15610a2457611977611781565b6001600160a01b0316816001600160a01b0316837ff6391f5c32d9c69d2a47ea670b442974b53935d1edc7fd64eb21e047a839171b60405160405180910390a45050565b6119c3611075565b611a0b576040805162461bcd60e51b815260206004820152601460248201527314185d5cd8589b194e881b9bdd081c185d5cd95960621b604482015290519081900360640190fd5b6033805460ff191690557f5db9ee0a495bf2e6ff9c91a7834c1ba4fdd244a5e8aa4e537bd38aeae4b073aa611a3e611781565b604080516001600160a01b039092168252519081900360200190a1565b825160009085908290611a719083908390611f28565b9050611a7d8187612031565b611a8c57600092505050611b6a565b8051600090611a9e9084906001611f28565b9050611aaa8187612031565b611aba5760009350505050611b6a565b6000611adc8351600101600185518751030386611f289092919063ffffffff16565b905085815114611af3576000945050505050611b6a565b82518451600091611b0f91879160018101910360061901611f28565b90506000611b1c82612095565b9050805160001415611b375760009650505050505050611b6a565b6000611b42866121f0565b90506000611b508284612285565b90506000611b5e8683612031565b99505050505050505050505b949350505050565b6000806000611b81868661236a565b9150915060008480611b8f57fe5b868809905082811115611ba3576001820391505b918290039181611bc157848381611bb657fe5b049350505050611235565b848210611c15576040805162461bcd60e51b815260206004820152601a60248201527f46756c6c4d6174683a2046554c4c4449565f4f564552464c4f57000000000000604482015290519081900360640190fd5b611c20838387612397565b979650505050505050565b6000808211611c81576040805162461bcd60e51b815260206004820152601a60248201527f536166654d6174683a206469766973696f6e206279207a65726f000000000000604482015290519081900360640190fd5b818381611c8a57fe5b049392505050565b600082821115611ce9576040805162461bcd60e51b815260206004820152601e60248201527f536166654d6174683a207375627472616374696f6e206f766572666c6f770000604482015290519081900360640190fd5b50900390565b611cf7611075565b15611d3c576040805162461bcd60e51b815260206004820152601060248201526f14185d5cd8589b194e881c185d5cd95960821b604482015290519081900360640190fd5b6033805460ff191660011790557f62e78cea01bee320cd4e420270b5ea74000d11b0c9f74754ebdbfc544b05a258611a3e611781565b60006112358383612407565b6000611235836001600160a01b03841661246b565b600061085882612483565b6000611da930612487565b15905090565b600054610100900460ff1680611dc85750611dc8611d9e565b80611dd6575060005460ff16155b611e115760405162461bcd60e51b815260040180806020018281038252602e815260200180612c03602e913960400191505060405180910390fd5b600054610100900460ff16158015611e3c576000805460ff1961ff0019909116610100171660011790555b611e4461248d565b611e4c61248d565b8015611e5e576000805461ff00191690555b50565b600054610100900460ff1680611e7a5750611e7a611d9e565b80611e88575060005460ff16155b611ec35760405162461bcd60e51b815260040180806020018281038252602e815260200180612c03602e913960400191505060405180910390fd5b600054610100900460ff16158015611eee576000805460ff1961ff0019909116610100171660011790555b611ef661248d565b611e4c61252d565b6000611235836001600160a01b0384166125d8565b6000611235836001600160a01b038416612622565b60608182601f011015611f73576040805162461bcd60e51b815260206004820152600e60248201526d736c6963655f6f766572666c6f7760901b604482015290519081900360640190fd5b81830184511015611fbf576040805162461bcd60e51b8152602060048201526011602482015270736c6963655f6f75744f66426f756e647360781b604482015290519081900360640190fd5b606082158015611fde5760405191506000825260208201604052612028565b6040519150601f8416801560200281840101858101878315602002848b0101015b81831015612017578051835260209283019201611fff565b5050858452601f01601f1916604052505b50949350505050565b81518151600091600191811480831461204d576000925061208b565b600160208701838101602088015b60028483851001141561208657805183511461207a5760009650600093505b6020928301920161205b565b505050505b5090949350505050565b6060815167ffffffffffffffff811180156120af57600080fd5b506040519080825280602002602001820160405280156120d9578160200160208202803683370190505b50905060606000805b84518110156121e857600091505b604051806040016040528060208152602001600080516020612cc18339815191528152505182101561219157604051806040016040528060208152602001600080516020612cc1833981519152815250828151811061214b57fe5b602001015160f81c60f81b6001600160f81b03191685828151811061216c57fe5b01602001516001600160f81b031916141561218657612191565b6001909101906120f0565b604051806040016040528060208152602001600080516020612cc1833981519152815250518214156121c8578293505050506109bc565b818482815181106121d557fe5b60209081029190910101526001016120e2565b505050919050565b6060815167ffffffffffffffff8111801561220a57600080fd5b50604051908082528060200260200182016040528015612234578160200160208202803683370190505b50905060005b825181101561227f5782818151811061224f57fe5b602001015160f81c60f81b60f81c60ff1682828151811061226c57fe5b602090810291909101015260010161223a565b50919050565b6060600061229c8361229786866126e8565b612785565b90506000815167ffffffffffffffff811180156122b857600080fd5b506040519080825280601f01601f1916602001820160405280156122e3576020820181803683370190505b50905060005b825181101561202857604051806040016040528060208152602001600080516020612cc183398151915281525083828151811061232257fe5b60200260200101518151811061233457fe5b602001015160f81c60f81b82828151811061234b57fe5b60200101906001600160f81b031916908160001a9053506001016122e9565b600080806000198486099050838502925082810391508281101561238f576001820391505b509250929050565b600081810382168083816123a757fe5b0492508085816123b357fe5b0494508081600003816123c257fe5b60028581038087028203028087028203028087028203028087028203028087028203028087028203029586029003909402930460010193909302939093010292915050565b815460009082106124495760405162461bcd60e51b8152600401808060200182810382526022815260200180612b826022913960400191505060405180910390fd5b82600001828154811061245857fe5b9060005260206000200154905092915050565b60009081526001919091016020526040902054151590565b5490565b3b151590565b600054610100900460ff16806124a657506124a6611d9e565b806124b4575060005460ff16155b6124ef5760405162461bcd60e51b815260040180806020018281038252602e815260200180612c03602e913960400191505060405180910390fd5b600054610100900460ff16158015611e4c576000805460ff1961ff0019909116610100171660011790558015611e5e576000805461ff001916905550565b600054610100900460ff16806125465750612546611d9e565b80612554575060005460ff16155b61258f5760405162461bcd60e51b815260040180806020018281038252602e815260200180612c03602e913960400191505060405180910390fd5b600054610100900460ff161580156125ba576000805460ff1961ff0019909116610100171660011790555b6033805460ff191690558015611e5e576000805461ff001916905550565b60006125e4838361246b565b61261a57508154600181810184556000848152602080822090930184905584548482528286019093526040902091909155610858565b506000610858565b600081815260018301602052604081205480156126de578354600019808301919081019060009087908390811061265557fe5b906000526020600020015490508087600001848154811061267257fe5b6000918252602080832090910192909255828152600189810190925260409020908401905586548790806126a257fe5b60019003818190600052602060002001600090559055866001016000878152602001908152602001600020600090556001945050505050610858565b6000915050610858565b6060600061270a6127016126fb86612858565b85612785565b60006006612955565b9050600061271782612a1b565b60408051600680825260e082019092526001929092189250600091906020820160c08036833701905050905060005b600681101561277b578060050360050283901c601f1682828151811061276857fe5b6020908102919091010152600101612746565b5095945050505050565b60606000825184510167ffffffffffffffff811180156127a457600080fd5b506040519080825280602002602001820160405280156127ce578160200160208202803683370190505b50905060005b8451811015612810578481815181106127e957fe5b60200260200101518282815181106127fd57fe5b60209081029190910101526001016127d4565b60005b845181101561208b57845160018201918691811061282d57fe5b602002602001015183838060010194508151811061284757fe5b602002602001018181525050612813565b60606000825183510160010167ffffffffffffffff8111801561287a57600080fd5b506040519080825280602002602001820160405280156128a4578160200160208202803683370190505b50905060005b83518110156128ea5760058482815181106128c157fe5b6020026020010151901c8282815181106128d757fe5b60209081029190910101526001016128aa565b506000818451815181106128fa57fe5b60200260200101818152505060005b835181101561294e5783818151811061291e57fe5b6020026020010151601f1682855183016001018151811061293b57fe5b6020908102919091010152600101612909565b5092915050565b606060008285510167ffffffffffffffff8111801561297357600080fd5b5060405190808252806020026020018201604052801561299d578160200160208202803683370190505b50905060005b85518110156129df578581815181106129b857fe5b60200260200101518282815181106129cc57fe5b60209081029190910101526001016129a3565b60005b84811015612a1057858383806001019450815181106129fd57fe5b60209081029190910101526001016129e2565b509095945050505050565b6040805160a081018252633b6a57b281526326508e6d6020820152631ea119fa91810191909152633d4233dd6060820152632a1462b360808201526000906001825b8451811015612ad8576000601983901c9050858281518110612a7b57fe5b60200260200101516005846301ffffff16901b18925060005b6005811015612ace57600182821c81161415612ac657848160058110612ab657fe5b602002015163ffffffff16841893505b600101612a94565b5050600101612a5d565b509392505050565b828054600181600116156101000203166002900490600052602060002090601f016020900481019282612b165760008555612b5c565b82601f10612b2f57805160ff1916838001178555612b5c565b82800160010185558215612b5c579182015b82811115612b5c578251825591602001919060010190612b41565b50612b68929150612b6c565b5090565b5b80821115612b685760008155600101612b6d56fe456e756d657261626c655365743a20696e646578206f7574206f6620626f756e6473416363657373436f6e74726f6c3a2073656e646572206d75737420626520616e2061646d696e20746f206772616e74416363657373436f6e74726f6c3a2073656e646572206d75737420626520616e2061646d696e20746f207265766f6b65496e697469616c697a61626c653a20636f6e747261637420697320616c726561647920696e697469616c697a6564536166654d6174683a206d756c7469706c69636174696f6e206f766572666c6f7765d7a28e3265b37a6474929f336521b332c1681b933f6cb9f3376673440d862a751b795d24b92e3d92d1d0d8f2885f4e9c9c269da350af36ae6b49069babf4bf416363657373436f6e74726f6c3a2063616e206f6e6c792072656e6f756e636520726f6c657320666f722073656c6671707a7279397838676632747664773073336a6e35346b686365366d7561376ca26469706673582212209091821ca26611e6310ce72d79a5e9a2022304a0eabcfb03f88e95de4003eb5164736f6c63430007060033",
  "immutableReferences": {},
  "source": "// SPDX-License-Identifier: UNLICENSED\npragma solidity >=0.7.0;\n\nimport \"@openzeppelin/contracts-upgradeable/math/SafeMathUpgradeable.sol\";\nimport \"@openzeppelin/contracts-upgradeable/utils/PausableUpgradeable.sol\";\nimport \"@openzeppelin/contracts-upgradeable/access/AccessControlUpgradeable.sol\";\nimport \"./interfaces/IUTokensV2.sol\";\nimport \"./interfaces/_ITokenWrapperV3.sol\";\nimport \"./libraries/Bech32.sol\";\nimport \"./libraries/FullMath.sol\";\n\ncontract TokenWrapperV3 is\n\tITokenWrapperV3,\n\tPausableUpgradeable,\n\tAccessControlUpgradeable\n{\n\tusing SafeMathUpgradeable for uint256;\n\tusing FullMath for uint256;\n\tusing Bech32 for string;\n\n\t//Private instances of contracts to handle Utokens and Stokens\n\tIUTokensV2 public _uTokens;\n\n\t// defining the fees and minimum values\n\tuint256 private _minDeposit;\n\tuint256 private _minWithdraw;\n\tuint256 private _depositFee;\n\tuint256 private _withdrawFee;\n\tuint256 public _valueDivisor;\n\n\t// constants defining access control ROLES\n\tbytes32 public constant BRIDGE_ADMIN_ROLE = keccak256(\"BRIDGE_ADMIN_ROLE\");\n\tbytes32 public constant PAUSER_ROLE = keccak256(\"PAUSER_ROLE\");\n\n\t//variables defining bech32 validation attributes\n\tbytes public hrpBytes;\n\tbytes public controlDigitBytes;\n\tuint256 public dataBytesSize;\n\n\t// variable pertaining to contract upgrades versioning\n\tuint256 public _version;\n\n\t/*\n\t * @dev Constructor for initializing the TokenWrapper contract.\n\t * @param uAddress - address of the UToken contract.\n\t * @param bridgeAdminAddress - address of the bridge admin.\n\t * @param pauserAddress - address of the pauser admin.\n\t * @param valueDivisor - valueDivisor set to 10^9.\n\t */\n\tfunction initialize(\n\t\taddress uAddress,\n\t\taddress bridgeAdminAddress,\n\t\taddress pauserAddress,\n\t\tuint256 valueDivisor\n\t) public virtual initializer {\n\t\t__AccessControl_init();\n\t\t__Pausable_init();\n\t\t_setupRole(DEFAULT_ADMIN_ROLE, _msgSender());\n\t\t_setupRole(BRIDGE_ADMIN_ROLE, bridgeAdminAddress);\n\t\t_setupRole(PAUSER_ROLE, pauserAddress);\n\t\tsetUTokensContract(uAddress);\n\t\tsetMinimumValues(1, 1);\n\t\t_valueDivisor = valueDivisor;\n\t\t// setting bech32 validation attributes\n\t\thrpBytes = \"cosmos\";\n\t\tcontrolDigitBytes = \"1\";\n\t\tdataBytesSize = 38;\n\t}\n\n\t/**\n\t * @dev Set 'fees', called from admin\n\t * @param withdrawFee: withdraw fee\n\t * @param depositFee: deposit fee\n\t *\n\t * Emits a {SetFees} event with 'fee' set to the withdraw.\n\t *\n\t */\n\tfunction setFees(uint256 depositFee, uint256 withdrawFee)\n\t\tpublic\n\t\tvirtual\n\t\toverride\n\t\treturns (bool success)\n\t{\n\t\trequire(hasRole(DEFAULT_ADMIN_ROLE, _msgSender()), \"TW1\");\n\t\t// range checks for fees. Since fee cannot be more than 100%, the max cap\n\t\t// is _valueDivisor * 100, which then brings the fees to 100 (percentage)\n\t\trequire(\n\t\t\t(depositFee <= _valueDivisor.mul(100) || depositFee == 0) &&\n\t\t\t\t(withdrawFee <= _valueDivisor.mul(100) || withdrawFee == 0),\n\t\t\t\"TW2\"\n\t\t);\n\t\t_depositFee = depositFee;\n\t\t_withdrawFee = withdrawFee;\n\t\temit SetFees(depositFee, withdrawFee);\n\t\treturn true;\n\t}\n\n\t/**\n\t * @dev get fees, minimum set values and value divisor\n\t *\n\t */\n\tfunction getProps()\n\t\tpublic\n\t\tview\n\t\tvirtual\n\t\toverride\n\t\treturns (\n\t\t\tuint256 depositFee,\n\t\t\tuint256 withdrawFee,\n\t\t\tuint256 minDeposit,\n\t\t\tuint256 minWithdraw,\n\t\t\tuint256 valueDivisor\n\t\t)\n\t{\n\t\tdepositFee = _depositFee;\n\t\twithdrawFee = _withdrawFee;\n\t\tminDeposit = _minDeposit;\n\t\tminWithdraw = _minWithdraw;\n\t\tvalueDivisor = _valueDivisor;\n\t}\n\n\t/**\n\t * @dev Set 'minimum values', called from admin\n\t * @param minDeposit: deposit minimum value\n\t * @param minWithdraw: withdraw minimum value\n\t *\n\t * Emits a {SetMinimumValues} event with 'minimum value' set to withdraw.\n\t *\n\t */\n\tfunction setMinimumValues(uint256 minDeposit, uint256 minWithdraw)\n\t\tpublic\n\t\tvirtual\n\t\toverride\n\t\treturns (bool success)\n\t{\n\t\trequire(hasRole(DEFAULT_ADMIN_ROLE, _msgSender()), \"TW3\");\n\t\trequire(minDeposit >= 1, \"TW4\");\n\t\trequire(minWithdraw >= 1, \"TW5\");\n\t\t_minDeposit = minDeposit;\n\t\t_minWithdraw = minWithdraw;\n\t\temit SetMinimumValues(minDeposit, minWithdraw);\n\t\treturn true;\n\t}\n\n\t/*\n\t * @dev Set 'contract address', called for utokens smart contract\n\t * @param uAddress: utoken contract address\n\t *\n\t * Emits a {SetUTokensContract} event with '_contract' set to the utoken contract address.\n\t *\n\t */\n\tfunction setUTokensContract(address uAddress) public virtual override {\n\t\trequire(hasRole(DEFAULT_ADMIN_ROLE, _msgSender()), \"TW6\");\n\t\t_uTokens = IUTokensV2(uAddress);\n\t\temit SetUTokensContract(uAddress);\n\t}\n\n\t/**\n\t * @dev common function added to be called by generateUTokens and generateUTokensInBatch and mints new utokens for the provided 'address' and 'amount'\n\t * @param to: account address, amount: number of tokens\n\t *\n\t */\n\tfunction _generateUTokens(address to, uint256 amount)\n\t\tinternal\n\t\tvirtual\n\t\treturns (uint256 wrappedTokens)\n\t{\n\t\t// require the address and amount to be non-zero\n\t\trequire(to != address(0) && amount != 0, \"TW13\");\n\n\t\t// the tokens to be generated to the user's address will be after the fee processing\n\t\tuint256 _fee = (amount.mulDiv(_depositFee, _valueDivisor)).div(100);\n\t\twrappedTokens = amount.sub(_fee);\n\n\t\t// mint the UTokens\n\t\t_uTokens.mint(to, wrappedTokens);\n\t}\n\n\t/**\n\t * @dev Mint new utokens for the provided 'address' and 'amount'\n\t * @param to: account address\n\t * @param amount: number of tokens\n\t *\n\t * Emits a {GenerateUTokens} event with 'to' set to address and 'amount' set to amount of tokens.\n\t *\n\t */\n\tfunction generateUTokens(address to, uint256 amount)\n\t\tpublic\n\t\tvirtual\n\t\toverride\n\t\treturns (uint256 wrappedTokens)\n\t{\n\t\t// require the sender to be a bridge admin\n\t\trequire(hasRole(BRIDGE_ADMIN_ROLE, _msgSender()), \"TW10\");\n\n\t\twrappedTokens = _generateUTokens(to, amount);\n\t\temit GenerateUTokens(to, wrappedTokens, amount, block.timestamp);\n\t}\n\n\t/**\n\t * @dev Mint new utokens for the provided 'address' and 'amount' in batch\n\t * @param toAddresses: array of account addresses, amount[]: array of tokens\n\t * @param amounts: array of tokens\n\t *\n\t * Emits a {GenerateUTokensInBatch} event with 'to' set to address and 'amount' set to amount of tokens.\n\t */\n\tfunction generateUTokensInBatch(\n\t\taddress[] calldata toAddresses,\n\t\tuint256[] calldata amounts\n\t) external virtual override returns (uint256[] memory wrappedTokensArray) {\n\t\trequire(toAddresses.length == amounts.length, \"TW11\");\n\t\trequire(hasRole(BRIDGE_ADMIN_ROLE, _msgSender()), \"TW12\");\n\n\t\tuint256 index;\n\t\tuint256 arrayLength = toAddresses.length;\n\t\twrappedTokensArray = new uint256[](arrayLength);\n\n\t\tfor (index = 0; index < arrayLength; index++) {\n\t\t\twrappedTokensArray[index] = _generateUTokens(\n\t\t\t\ttoAddresses[index],\n\t\t\t\tamounts[index]\n\t\t\t);\n\t\t}\n\n\t\temit GenerateUTokensInBatch(\n\t\t\ttoAddresses,\n\t\t\twrappedTokensArray,\n\t\t\tamounts,\n\t\t\tblock.timestamp\n\t\t);\n\t}\n\n\t/**\n\t * @dev check if the address is Bech32Valid\n\t *\n\t */\n\tfunction isBech32Valid(string memory toChainAddress)\n\t\tpublic\n\t\tview\n\t\tvirtual\n\t\toverride\n\t\treturns (bool isAddressValid)\n\t{\n\t\tisAddressValid = toChainAddress.isBech32AddressValid(\n\t\t\thrpBytes,\n\t\t\tcontrolDigitBytes,\n\t\t\tdataBytesSize\n\t\t);\n\t}\n\n\t/**\n\t * @dev Burn utokens for the provided 'address' and 'tokens'\n\t * @param from: account address of the sender\n\t * @param tokens: number of tokens to be unwrapped\n\t * @param toChainAddress: wallet address of the native chain\n\t *\n\t * Emits a {WithdrawUTokens} event with 'from' set to address, 'finalTokens' set to amount of tokens and 'toChainAddress'\n\t *\n\t */\n\tfunction withdrawUTokens(\n\t\taddress from,\n\t\tuint256 tokens,\n\t\tstring memory toChainAddress\n\t) public virtual override whenNotPaused returns (uint256 unwrappedTokens) {\n\t\t// require the 'from' address to be of message sender\n\t\trequire(from == _msgSender(), \"TW17\");\n\n\t\t// require the token amount not be less than min value\n\t\trequire(tokens >= _minWithdraw, \"TW14\");\n\n\t\t// require user to hold enough UTokens balance\n\t\tuint256 currentUTokenBalance = _uTokens.balanceOf(from);\n\t\trequire(currentUTokenBalance >= tokens, \"TW16\");\n\n\t\t//check if toChainAddress is valid address as per Bech32 Validation\n\t\tbool isAddressValid = toChainAddress.isBech32AddressValid(\n\t\t\thrpBytes,\n\t\t\tcontrolDigitBytes,\n\t\t\tdataBytesSize\n\t\t);\n\t\trequire(isAddressValid == true, \"TW15\");\n\n\t\t// final tokens is the amount of tokens to be burned, including the fee\n\t\tuint256 fee = (tokens.mulDiv(_withdrawFee, _valueDivisor)).div(100);\n\t\tunwrappedTokens = tokens.sub(fee);\n\n\t\t// emit an event\n\t\temit WithdrawUTokens(\n\t\t\tfrom,\n\t\t\tunwrappedTokens,\n\t\t\ttokens,\n\t\t\ttoChainAddress,\n\t\t\tblock.timestamp\n\t\t);\n\n\t\t// perform the burning of UTokens\n\t\t_uTokens.burn(from, tokens);\n\t}\n\n\t/**\n\t * @dev Triggers stopped state.\n\t *\n\t */\n\tfunction pause() public virtual override returns (bool success) {\n\t\trequire(hasRole(PAUSER_ROLE, _msgSender()), \"TW7\");\n\t\t_pause();\n\t\treturn true;\n\t}\n\n\t/**\n\t * @dev Returns to normal state.\n\t *\n\t */\n\tfunction unpause() public virtual override returns (bool success) {\n\t\trequire(hasRole(PAUSER_ROLE, _msgSender()), \"TW8\");\n\t\t_unpause();\n\t\treturn true;\n\t}\n}\n",
  "sourcePath": "C:\\Users\\Kamlesh\\Persistence\\pStake\\codebase\\pStake-smartContracts\\contracts\\_TokenWrapperV3.sol",
  "compiler": {
    "name": "solc",
    "version": "0.7.6+commit.7338295f.Emscripten.clang"
  },
  "schemaVersion": "3.4.3",
  "updatedAt": "2021-11-30T05:35:08.950Z",
  "devdoc": {
    "kind": "dev",
    "methods": {
      "generateUTokens(address,uint256)": {
        "details": "Mint new utokens for the provided 'address' and 'amount'",
        "params": {
          "amount": ": number of tokens Emits a {GenerateUTokens} event with 'to' set to address and 'amount' set to amount of tokens.",
          "to": ": account address"
        }
      },
      "generateUTokensInBatch(address[],uint256[])": {
        "details": "Mint new utokens for the provided 'address' and 'amount' in batch",
        "params": {
          "amounts": ": array of tokens Emits a {GenerateUTokensInBatch} event with 'to' set to address and 'amount' set to amount of tokens.",
          "toAddresses": ": array of account addresses, amount[]: array of tokens"
        }
      },
      "getProps()": {
        "details": "get fees, minimum set values and value divisor"
      },
      "getRoleAdmin(bytes32)": {
        "details": "Returns the admin role that controls `role`. See {grantRole} and {revokeRole}. To change a role's admin, use {_setRoleAdmin}."
      },
      "getRoleMember(bytes32,uint256)": {
        "details": "Returns one of the accounts that have `role`. `index` must be a value between 0 and {getRoleMemberCount}, non-inclusive. Role bearers are not sorted in any particular way, and their ordering may change at any point. WARNING: When using {getRoleMember} and {getRoleMemberCount}, make sure you perform all queries on the same block. See the following https://forum.openzeppelin.com/t/iterating-over-elements-on-enumerableset-in-openzeppelin-contracts/2296[forum post] for more information."
      },
      "getRoleMemberCount(bytes32)": {
        "details": "Returns the number of accounts that have `role`. Can be used together with {getRoleMember} to enumerate all bearers of a role."
      },
      "grantRole(bytes32,address)": {
        "details": "Grants `role` to `account`. If `account` had not been already granted `role`, emits a {RoleGranted} event. Requirements: - the caller must have ``role``'s admin role."
      },
      "hasRole(bytes32,address)": {
        "details": "Returns `true` if `account` has been granted `role`."
      },
      "isBech32Valid(string)": {
        "details": "check if the address is Bech32Valid"
      },
      "pause()": {
        "details": "Triggers stopped state."
      },
      "paused()": {
        "details": "Returns true if the contract is paused, and false otherwise."
      },
      "renounceRole(bytes32,address)": {
        "details": "Revokes `role` from the calling account. Roles are often managed via {grantRole} and {revokeRole}: this function's purpose is to provide a mechanism for accounts to lose their privileges if they are compromised (such as when a trusted device is misplaced). If the calling account had been granted `role`, emits a {RoleRevoked} event. Requirements: - the caller must be `account`."
      },
      "revokeRole(bytes32,address)": {
        "details": "Revokes `role` from `account`. If `account` had been granted `role`, emits a {RoleRevoked} event. Requirements: - the caller must have ``role``'s admin role."
      },
      "setFees(uint256,uint256)": {
        "details": "Set 'fees', called from admin",
        "params": {
          "depositFee": ": deposit fee Emits a {SetFees} event with 'fee' set to the withdraw.",
          "withdrawFee": ": withdraw fee"
        }
      },
      "setMinimumValues(uint256,uint256)": {
        "details": "Set 'minimum values', called from admin",
        "params": {
          "minDeposit": ": deposit minimum value",
          "minWithdraw": ": withdraw minimum value Emits a {SetMinimumValues} event with 'minimum value' set to withdraw."
        }
      },
      "setUTokensContract(address)": {
        "details": "Set UTokens smart contract. Emits a {SetUTokensContract} event."
      },
      "unpause()": {
        "details": "Returns to normal state."
      },
      "withdrawUTokens(address,uint256,string)": {
        "details": "Burn utokens for the provided 'address' and 'tokens'",
        "params": {
          "from": ": account address of the sender",
          "toChainAddress": ": wallet address of the native chain Emits a {WithdrawUTokens} event with 'from' set to address, 'finalTokens' set to amount of tokens and 'toChainAddress'",
          "tokens": ": number of tokens to be unwrapped"
        }
      }
    },
    "version": 1
  },
  "userdoc": {
    "kind": "user",
    "methods": {},
    "version": 1
  }
}