{
  "contractName": "TokenWrapper",
  "abi": [
    {
      "anonymous": false,
      "inputs": [
        {
          "indexed": true,
          "internalType": "address",
          "name": "accountAddress",
          "type": "address"
        },
        {
          "indexed": false,
          "internalType": "uint256",
          "name": "tokens",
          "type": "uint256"
        },
        {
          "indexed": false,
          "internalType": "uint256",
          "name": "timestamp",
          "type": "uint256"
        }
      ],
      "name": "GenerateUTokens",
      "type": "event"
    },
    {
      "anonymous": false,
      "inputs": [
        {
          "indexed": false,
          "internalType": "address",
          "name": "account",
          "type": "address"
        }
      ],
      "name": "Paused",
      "type": "event"
    },
    {
      "anonymous": false,
      "inputs": [
        {
          "indexed": true,
          "internalType": "bytes32",
          "name": "role",
          "type": "bytes32"
        },
        {
          "indexed": true,
          "internalType": "bytes32",
          "name": "previousAdminRole",
          "type": "bytes32"
        },
        {
          "indexed": true,
          "internalType": "bytes32",
          "name": "newAdminRole",
          "type": "bytes32"
        }
      ],
      "name": "RoleAdminChanged",
      "type": "event"
    },
    {
      "anonymous": false,
      "inputs": [
        {
          "indexed": true,
          "internalType": "bytes32",
          "name": "role",
          "type": "bytes32"
        },
        {
          "indexed": true,
          "internalType": "address",
          "name": "account",
          "type": "address"
        },
        {
          "indexed": true,
          "internalType": "address",
          "name": "sender",
          "type": "address"
        }
      ],
      "name": "RoleGranted",
      "type": "event"
    },
    {
      "anonymous": false,
      "inputs": [
        {
          "indexed": true,
          "internalType": "bytes32",
          "name": "role",
          "type": "bytes32"
        },
        {
          "indexed": true,
          "internalType": "address",
          "name": "account",
          "type": "address"
        },
        {
          "indexed": true,
          "internalType": "address",
          "name": "sender",
          "type": "address"
        }
      ],
      "name": "RoleRevoked",
      "type": "event"
    },
    {
      "anonymous": false,
      "inputs": [
        {
          "indexed": false,
          "internalType": "uint256",
          "name": "depositFee",
          "type": "uint256"
        },
        {
          "indexed": false,
          "internalType": "uint256",
          "name": "withdrawFee",
          "type": "uint256"
        }
      ],
      "name": "SetFees",
      "type": "event"
    },
    {
      "anonymous": false,
      "inputs": [
        {
          "indexed": false,
          "internalType": "uint256",
          "name": "minDeposit",
          "type": "uint256"
        },
        {
          "indexed": false,
          "internalType": "uint256",
          "name": "minWithdraw",
          "type": "uint256"
        }
      ],
      "name": "SetMinimumValues",
      "type": "event"
    },
    {
      "anonymous": false,
      "inputs": [
        {
          "indexed": true,
          "internalType": "address",
          "name": "_contract",
          "type": "address"
        }
      ],
      "name": "SetUTokensContract",
      "type": "event"
    },
    {
      "anonymous": false,
      "inputs": [
        {
          "indexed": false,
          "internalType": "address",
          "name": "account",
          "type": "address"
        }
      ],
      "name": "Unpaused",
      "type": "event"
    },
    {
      "anonymous": false,
      "inputs": [
        {
          "indexed": true,
          "internalType": "address",
          "name": "accountAddress",
          "type": "address"
        },
        {
          "indexed": false,
          "internalType": "uint256",
          "name": "tokens",
          "type": "uint256"
        },
        {
          "indexed": false,
          "internalType": "string",
          "name": "toChainAddress",
          "type": "string"
        },
        {
          "indexed": false,
          "internalType": "uint256",
          "name": "timestamp",
          "type": "uint256"
        }
      ],
      "name": "WithdrawUTokens",
      "type": "event"
    },
    {
      "inputs": [],
      "name": "BRIDGE_ADMIN_ROLE",
      "outputs": [
        {
          "internalType": "bytes32",
          "name": "",
          "type": "bytes32"
        }
      ],
      "stateMutability": "view",
      "type": "function",
      "constant": true
    },
    {
      "inputs": [],
      "name": "DEFAULT_ADMIN_ROLE",
      "outputs": [
        {
          "internalType": "bytes32",
          "name": "",
          "type": "bytes32"
        }
      ],
      "stateMutability": "view",
      "type": "function",
      "constant": true
    },
    {
      "inputs": [],
      "name": "PAUSER_ROLE",
      "outputs": [
        {
          "internalType": "bytes32",
          "name": "",
          "type": "bytes32"
        }
      ],
      "stateMutability": "view",
      "type": "function",
      "constant": true
    },
    {
      "inputs": [
        {
          "internalType": "bytes32",
          "name": "role",
          "type": "bytes32"
        }
      ],
      "name": "getRoleAdmin",
      "outputs": [
        {
          "internalType": "bytes32",
          "name": "",
          "type": "bytes32"
        }
      ],
      "stateMutability": "view",
      "type": "function",
      "constant": true
    },
    {
      "inputs": [
        {
          "internalType": "bytes32",
          "name": "role",
          "type": "bytes32"
        },
        {
          "internalType": "uint256",
          "name": "index",
          "type": "uint256"
        }
      ],
      "name": "getRoleMember",
      "outputs": [
        {
          "internalType": "address",
          "name": "",
          "type": "address"
        }
      ],
      "stateMutability": "view",
      "type": "function",
      "constant": true
    },
    {
      "inputs": [
        {
          "internalType": "bytes32",
          "name": "role",
          "type": "bytes32"
        }
      ],
      "name": "getRoleMemberCount",
      "outputs": [
        {
          "internalType": "uint256",
          "name": "",
          "type": "uint256"
        }
      ],
      "stateMutability": "view",
      "type": "function",
      "constant": true
    },
    {
      "inputs": [
        {
          "internalType": "bytes32",
          "name": "role",
          "type": "bytes32"
        },
        {
          "internalType": "address",
          "name": "account",
          "type": "address"
        }
      ],
      "name": "grantRole",
      "outputs": [],
      "stateMutability": "nonpayable",
      "type": "function"
    },
    {
      "inputs": [
        {
          "internalType": "bytes32",
          "name": "role",
          "type": "bytes32"
        },
        {
          "internalType": "address",
          "name": "account",
          "type": "address"
        }
      ],
      "name": "hasRole",
      "outputs": [
        {
          "internalType": "bool",
          "name": "",
          "type": "bool"
        }
      ],
      "stateMutability": "view",
      "type": "function",
      "constant": true
    },
    {
      "inputs": [],
      "name": "paused",
      "outputs": [
        {
          "internalType": "bool",
          "name": "",
          "type": "bool"
        }
      ],
      "stateMutability": "view",
      "type": "function",
      "constant": true
    },
    {
      "inputs": [
        {
          "internalType": "bytes32",
          "name": "role",
          "type": "bytes32"
        },
        {
          "internalType": "address",
          "name": "account",
          "type": "address"
        }
      ],
      "name": "renounceRole",
      "outputs": [],
      "stateMutability": "nonpayable",
      "type": "function"
    },
    {
      "inputs": [
        {
          "internalType": "bytes32",
          "name": "role",
          "type": "bytes32"
        },
        {
          "internalType": "address",
          "name": "account",
          "type": "address"
        }
      ],
      "name": "revokeRole",
      "outputs": [],
      "stateMutability": "nonpayable",
      "type": "function"
    },
    {
      "inputs": [
        {
          "internalType": "address",
          "name": "uAddress",
          "type": "address"
        },
        {
          "internalType": "address",
          "name": "bridgeAdminAddress",
          "type": "address"
        },
        {
          "internalType": "address",
          "name": "pauserAddress",
          "type": "address"
        },
        {
          "internalType": "uint256",
          "name": "valueDivisor",
          "type": "uint256"
        }
      ],
      "name": "initialize",
      "outputs": [],
      "stateMutability": "nonpayable",
      "type": "function"
    },
    {
      "inputs": [
        {
          "internalType": "uint256",
          "name": "depositFee",
          "type": "uint256"
        },
        {
          "internalType": "uint256",
          "name": "withdrawFee",
          "type": "uint256"
        }
      ],
      "name": "setFees",
      "outputs": [
        {
          "internalType": "bool",
          "name": "success",
          "type": "bool"
        }
      ],
      "stateMutability": "nonpayable",
      "type": "function"
    },
    {
      "inputs": [],
      "name": "getProps",
      "outputs": [
        {
          "internalType": "uint256",
          "name": "depositFee",
          "type": "uint256"
        },
        {
          "internalType": "uint256",
          "name": "withdrawFee",
          "type": "uint256"
        },
        {
          "internalType": "uint256",
          "name": "minDeposit",
          "type": "uint256"
        },
        {
          "internalType": "uint256",
          "name": "minWithdraw",
          "type": "uint256"
        },
        {
          "internalType": "uint256",
          "name": "valueDivisor",
          "type": "uint256"
        }
      ],
      "stateMutability": "view",
      "type": "function",
      "constant": true
    },
    {
      "inputs": [
        {
          "internalType": "uint256",
          "name": "minDeposit",
          "type": "uint256"
        },
        {
          "internalType": "uint256",
          "name": "minWithdraw",
          "type": "uint256"
        }
      ],
      "name": "setMinimumValues",
      "outputs": [
        {
          "internalType": "bool",
          "name": "success",
          "type": "bool"
        }
      ],
      "stateMutability": "nonpayable",
      "type": "function"
    },
    {
      "inputs": [
        {
          "internalType": "address",
          "name": "uAddress",
          "type": "address"
        }
      ],
      "name": "setUTokensContract",
      "outputs": [],
      "stateMutability": "nonpayable",
      "type": "function"
    },
    {
      "inputs": [],
      "name": "pause",
      "outputs": [
        {
          "internalType": "bool",
          "name": "success",
          "type": "bool"
        }
      ],
      "stateMutability": "nonpayable",
      "type": "function"
    },
    {
      "inputs": [],
      "name": "unpause",
      "outputs": [
        {
          "internalType": "bool",
          "name": "success",
          "type": "bool"
        }
      ],
      "stateMutability": "nonpayable",
      "type": "function"
    },
    {
      "inputs": [
        {
          "internalType": "address",
          "name": "to",
          "type": "address"
        },
        {
          "internalType": "uint256",
          "name": "amount",
          "type": "uint256"
        }
      ],
      "name": "generateUTokens",
      "outputs": [],
      "stateMutability": "nonpayable",
      "type": "function"
    },
    {
      "inputs": [
        {
          "internalType": "address[]",
          "name": "to",
          "type": "address[]"
        },
        {
          "internalType": "uint256[]",
          "name": "amount",
          "type": "uint256[]"
        }
      ],
      "name": "generateUTokensInBatch",
      "outputs": [],
      "stateMutability": "nonpayable",
      "type": "function"
    },
    {
      "inputs": [
        {
          "internalType": "address",
          "name": "from",
          "type": "address"
        },
        {
          "internalType": "uint256",
          "name": "tokens",
          "type": "uint256"
        },
        {
          "internalType": "string",
          "name": "toChainAddress",
          "type": "string"
        }
      ],
      "name": "withdrawUTokens",
      "outputs": [],
      "stateMutability": "nonpayable",
      "type": "function"
    }
  ],
  "bytecode": "0x608060405234801561001057600080fd5b506129cc806100206000396000f3fe608060405234801561001057600080fd5b50600436106101375760003560e01c80635c975abb116100b8578063ca15c8731161007c578063ca15c873146103bf578063cf756fdf146103dc578063d547741f14610418578063e63ab1e914610444578063e7fa0a321461044c578063ec1893b41461057357610137565b80635c975abb1461033c5780638456cb59146103445780639010d07c1461034c57806391d148541461038b578063a217fddf146103b757610137565b80632f2ff15d116100ff5780632f2ff15d146101fe57806336568abe1461022a5780633f4ba83a14610256578063428bee9e1461025e57806351db00e71461031957610137565b80630b78f9c01461013c578063118c38c71461017357806321bdf9e51461018d57806322dd9bc3146101b5578063248a9ca3146101e1575b600080fd5b61015f6004803603604081101561015257600080fd5b50803590602001356105a6565b604080519115158252519081900360200190f35b61017b610643565b60408051918252519081900360200190f35b6101b3600480360360208110156101a357600080fd5b50356001600160a01b0316610655565b005b6101b3600480360360408110156101cb57600080fd5b506001600160a01b0381351690602001356106e7565b61017b600480360360208110156101f757600080fd5b5035610821565b6101b36004803603604081101561021457600080fd5b50803590602001356001600160a01b0316610839565b6101b36004803603604081101561024057600080fd5b50803590602001356001600160a01b03166108a0565b61015f610901565b6101b36004803603606081101561027457600080fd5b6001600160a01b03823516916020810135918101906060810160408201356401000000008111156102a457600080fd5b8201836020820111156102b657600080fd5b803590602001918460018302840111640100000000831117156102d857600080fd5b91908080601f016020809104026020016040519081016040528093929190818152602001838380828437600092019190915250929550610966945050505050565b61015f6004803603604081101561032f57600080fd5b5080359060200135610e0f565b61015f610ea6565b61015f610eaf565b61036f6004803603604081101561036257600080fd5b5080359060200135610f0e565b604080516001600160a01b039092168252519081900360200190f35b61015f600480360360408110156103a157600080fd5b50803590602001356001600160a01b0316610f2d565b61017b610f45565b61017b600480360360208110156103d557600080fd5b5035610f4a565b6101b3600480360360808110156103f257600080fd5b506001600160a01b03813581169160208101358216916040820135169060600135610f61565b6101b36004803603604081101561042e57600080fd5b50803590602001356001600160a01b03166110c3565b61017b61111c565b6101b36004803603604081101561046257600080fd5b81019060208101813564010000000081111561047d57600080fd5b82018360208201111561048f57600080fd5b803590602001918460208302840111640100000000831117156104b157600080fd5b919080806020026020016040519081016040528093929190818152602001838360200280828437600092019190915250929594936020810193503591505064010000000081111561050157600080fd5b82018360208201111561051357600080fd5b8035906020019184602083028401116401000000008311171561053557600080fd5b91908080602002602001604051908101604052809392919081815260200183836020028082843760009201919091525092955061112e945050505050565b61057b61131f565b6040805195865260208601949094528484019290925260608401526080830152519081900360a00190f35b60006105b9816105b4611339565b610f2d565b6105f45760405162461bcd60e51b815260040180806020018281038252602d81526020018061286d602d913960400191505060405180910390fd5b609a839055609b829055604080518481526020810184905281517f3be6e637f54f081a2dd12982cfd58481304fc98b604b18fa8ed4aa4e4a9d1532929181900390910190a15060015b92915050565b60008051602061289a83398151915281565b61066260006105b4611339565b61069d5760405162461bcd60e51b81526004018080602001828103825260388152602001806127c16038913960400191505060405180910390fd5b609780546001600160a01b0319166001600160a01b0383169081179091556040517ff745c285f36f88bea6af14d4d0f33dd9350cef7895216c1615b1caaee7857e0c90600090a250565b6106ef610ea6565b15610734576040805162461bcd60e51b815260206004820152601060248201526f14185d5cd8589b194e881c185d5cd95960821b604482015290519081900360640190fd5b600081116107735760405162461bcd60e51b815260040180806020018281038252602b815260200180612687602b913960400191505060405180910390fd5b61078d60008051602061289a8339815191526105b4611339565b6107c85760405162461bcd60e51b815260040180806020018281038252603e815260200180612649603e913960400191505060405180910390fd5b60006107d4838361133d565b6040805182815242602082015281519293506001600160a01b038616927f06d08f8705b74e3172df8733fc5da269157556d015544994a9759be4693d3ff5929181900390910190a2505050565b6000818152606560205260409020600201545b919050565b600082815260656020526040902060020154610857906105b4611339565b6108925760405162461bcd60e51b815260040180806020018281038252602f81526020018061261a602f913960400191505060405180910390fd5b61089c8282611402565b5050565b6108a8611339565b6001600160a01b0316816001600160a01b0316146108f75760405162461bcd60e51b815260040180806020018281038252602f815260200180612914602f913960400191505060405180910390fd5b61089c828261146b565b600061091d6000805160206127f98339815191526105b4611339565b6109585760405162461bcd60e51b81526004018080602001828103825260368152602001806128ba6036913960400191505060405180910390fd5b6109606114d4565b50600190565b61096e610ea6565b156109b3576040805162461bcd60e51b815260206004820152601060248201526f14185d5cd8589b194e881c185d5cd95960821b604482015290519081900360640190fd5b60995482116109f35760405162461bcd60e51b815260040180806020018281038252602c81526020018061273d602c913960400191505060405180910390fd5b609d805460408051602060026001851615610100026000190190941693909304601f8101849004840282018401909252818152600093610b229391929091830182828015610a825780601f10610a5757610100808354040283529160200191610a82565b820191906000526020600020905b815481529060010190602001808311610a6557829003601f168201915b5050609e8054604080516020601f6002600019610100600188161502019095169490940493840181900481028201810190925282815295509193509150830182828015610b105780601f10610ae557610100808354040283529160200191610b10565b820191906000526020600020905b815481529060010190602001808311610af357829003601f168201915b5050609f548895949350915050611574565b9050600181151514610b655760405162461bcd60e51b81526004018080602001828103825260248152602001806128f06024913960400191505060405180910390fd5b609754604080516370a0823160e01b81526001600160a01b038781166004830152915160009392909216916370a0823191602480820192602092909190829003018186803b158015610bb657600080fd5b505afa158015610bca573d6000803e3d6000fd5b505050506040513d6020811015610be057600080fd5b5051905083811015610c235760405162461bcd60e51b815260040180806020018281038252602d8152602001806126b2602d913960400191505060405180910390fd5b610c2b611339565b6001600160a01b0316856001600160a01b031614610c7a5760405162461bcd60e51b815260040180806020018281038252603181526020018061283c6031913960400191505060405180910390fd5b6000610cc7610c956064609c5461168b90919063ffffffff16565b610cc1609b54610cbb609c54610cb560648c61168b90919063ffffffff16565b9061168b565b906116e4565b90611741565b60975460408051632770a7eb60e21b81526001600160a01b038a81166004830152602482018590529151939450911691639dc29fac916044808201926020929091908290030181600087803b158015610d1f57600080fd5b505af1158015610d33573d6000803e3d6000fd5b505050506040513d6020811015610d4957600080fd5b505060408051828152429181018290526060602082810182815288519284019290925287516001600160a01b038b16947fc2db0b30181b3532965e53ba1bdf883b207dccb658a9589865c5a9c91e28b80b9487948b94929391929091608084019186019080838360005b83811015610dcb578181015183820152602001610db3565b50505050905090810190601f168015610df85780820380516001836020036101000a031916815260200191505b5094505050505060405180910390a2505050505050565b6000610e1d816105b4611339565b610e585760405162461bcd60e51b815260040180806020018281038252603781526020018061278a6037913960400191505060405180910390fd5b60988390556099829055604080518481526020810184905281517fa94d40347449ea19b873d64ed55c99772194c49791e82be5c2dc24e4c0044fe3929181900390910190a150600192915050565b60335460ff1690565b6000610ecb6000805160206127f98339815191526105b4611339565b610f065760405162461bcd60e51b81526004018080602001828103825260348152602001806129436034913960400191505060405180910390fd5b6109606117a8565b6000828152606560205260408120610f26908361182b565b9392505050565b6000828152606560205260408120610f269083611837565b600081565b600081815260656020526040812061063d9061184c565b600054610100900460ff1680610f7a5750610f7a611857565b80610f88575060005460ff16155b610fc35760405162461bcd60e51b815260040180806020018281038252602e81526020018061270f602e913960400191505060405180910390fd5b600054610100900460ff16158015610fee576000805460ff1961ff0019909116610100171660011790555b610ff6611868565b610ffe61191a565b611010600061100b611339565b610892565b61102860008051602061289a83398151915285610892565b6110406000805160206127f983398151915284610892565b61104985610655565b609c82905560408051808201909152600680825265636f736d6f7360d01b602090920191825261107b91609d91612556565b50604080518082019091526001808252603160f81b60209092019182526110a491609e91612556565b506026609f5580156110bc576000805461ff00191690555b5050505050565b6000828152606560205260409020600201546110e1906105b4611339565b6108f75760405162461bcd60e51b81526004018080602001828103825260308152602001806126df6030913960400191505060405180910390fd5b6000805160206127f983398151915281565b611136610ea6565b1561117b576040805162461bcd60e51b815260206004820152601060248201526f14185d5cd8589b194e881c185d5cd95960821b604482015290519081900360640190fd5b80518251146111bb5760405162461bcd60e51b81526004018080602001828103825260238152602001806128196023913960400191505060405180910390fd5b6111d560008051602061289a8339815191526105b4611339565b6112105760405162461bcd60e51b815260040180806020018281038252603e815260200180612649603e913960400191505060405180910390fd5b6000805b83518210156112b357600083838151811061122b57fe5b60200260200101511161126f5760405162461bcd60e51b815260040180806020018281038252602b815260200180612687602b913960400191505060405180910390fd5b61129f84838151811061127e57fe5b602002602001015184848151811061129257fe5b602002602001015161133d565b90506112ac8260016119b7565b9150611214565b836112bf8360016116e4565b815181106112c957fe5b60200260200101516001600160a01b03167f06d08f8705b74e3172df8733fc5da269157556d015544994a9759be4693d3ff58242604051808381526020018281526020019250505060405180910390a250505050565b609a54609b54609854609954609c54939492939192909190565b3390565b60006113786113586064609c5461168b90919063ffffffff16565b610cc1609a54610cbb609c54610cb560648961168b90919063ffffffff16565b609754604080516340c10f1960e01b81526001600160a01b0387811660048301526024820185905291519394509116916340c10f19916044808201926020929091908290030181600087803b1580156113d057600080fd5b505af11580156113e4573d6000803e3d6000fd5b505050506040513d60208110156113fa57600080fd5b505092915050565b600082815260656020526040902061141a9082611a11565b1561089c57611427611339565b6001600160a01b0316816001600160a01b0316837f2f8788117e7eff1d82e926ec794901d17c78024a50270940304540a733656f0d60405160405180910390a45050565b60008281526065602052604090206114839082611a26565b1561089c57611490611339565b6001600160a01b0316816001600160a01b0316837ff6391f5c32d9c69d2a47ea670b442974b53935d1edc7fd64eb21e047a839171b60405160405180910390a45050565b6114dc610ea6565b611524576040805162461bcd60e51b815260206004820152601460248201527314185d5cd8589b194e881b9bdd081c185d5cd95960621b604482015290519081900360640190fd5b6033805460ff191690557f5db9ee0a495bf2e6ff9c91a7834c1ba4fdd244a5e8aa4e537bd38aeae4b073aa611557611339565b604080516001600160a01b039092168252519081900360200190a1565b82516000908590829061158a9083908390611a3b565b90506115968187611b44565b6115a557600092505050611683565b80516000906115b79084906001611a3b565b90506115c38187611b44565b6115d35760009350505050611683565b60006115f58351600101600185518751030386611a3b9092919063ffffffff16565b90508581511461160c576000945050505050611683565b8251845160009161162891879160018101910360061901611a3b565b9050600061163582611ba8565b90508051600014156116505760009650505050505050611683565b600061165b86611d03565b905060006116698284611d98565b905060006116778683611b44565b99505050505050505050505b949350505050565b60008261169a5750600061063d565b828202828482816116a757fe5b0414610f265760405162461bcd60e51b81526004018080602001828103825260218152602001806127696021913960400191505060405180910390fd5b60008282111561173b576040805162461bcd60e51b815260206004820152601e60248201527f536166654d6174683a207375627472616374696f6e206f766572666c6f770000604482015290519081900360640190fd5b50900390565b6000808211611797576040805162461bcd60e51b815260206004820152601a60248201527f536166654d6174683a206469766973696f6e206279207a65726f000000000000604482015290519081900360640190fd5b8183816117a057fe5b049392505050565b6117b0610ea6565b156117f5576040805162461bcd60e51b815260206004820152601060248201526f14185d5cd8589b194e881c185d5cd95960821b604482015290519081900360640190fd5b6033805460ff191660011790557f62e78cea01bee320cd4e420270b5ea74000d11b0c9f74754ebdbfc544b05a258611557611339565b6000610f268383611e7d565b6000610f26836001600160a01b038416611ee1565b600061063d82611ef9565b600061186230611efd565b15905090565b600054610100900460ff16806118815750611881611857565b8061188f575060005460ff16155b6118ca5760405162461bcd60e51b815260040180806020018281038252602e81526020018061270f602e913960400191505060405180910390fd5b600054610100900460ff161580156118f5576000805460ff1961ff0019909116610100171660011790555b6118fd611f03565b611905611f03565b8015611917576000805461ff00191690555b50565b600054610100900460ff16806119335750611933611857565b80611941575060005460ff16155b61197c5760405162461bcd60e51b815260040180806020018281038252602e81526020018061270f602e913960400191505060405180910390fd5b600054610100900460ff161580156119a7576000805460ff1961ff0019909116610100171660011790555b6119af611f03565b611905611fa3565b600082820183811015610f26576040805162461bcd60e51b815260206004820152601b60248201527f536166654d6174683a206164646974696f6e206f766572666c6f770000000000604482015290519081900360640190fd5b6000610f26836001600160a01b03841661204e565b6000610f26836001600160a01b038416612098565b60608182601f011015611a86576040805162461bcd60e51b815260206004820152600e60248201526d736c6963655f6f766572666c6f7760901b604482015290519081900360640190fd5b81830184511015611ad2576040805162461bcd60e51b8152602060048201526011602482015270736c6963655f6f75744f66426f756e647360781b604482015290519081900360640190fd5b606082158015611af15760405191506000825260208201604052611b3b565b6040519150601f8416801560200281840101858101878315602002848b0101015b81831015611b2a578051835260209283019201611b12565b5050858452601f01601f1916604052505b50949350505050565b815181516000916001918114808314611b605760009250611b9e565b600160208701838101602088015b600284838510011415611b99578051835114611b8d5760009650600093505b60209283019201611b6e565b505050505b5090949350505050565b6060815167ffffffffffffffff81118015611bc257600080fd5b50604051908082528060200260200182016040528015611bec578160200160208202803683370190505b50905060606000805b8451811015611cfb57600091505b60405180604001604052806020815260200160008051602061297783398151915281525051821015611ca4576040518060400160405280602081526020016000805160206129778339815191528152508281518110611c5e57fe5b602001015160f81c60f81b6001600160f81b031916858281518110611c7f57fe5b01602001516001600160f81b0319161415611c9957611ca4565b600190910190611c03565b60405180604001604052806020815260200160008051602061297783398151915281525051821415611cdb57829350505050610834565b81848281518110611ce857fe5b6020908102919091010152600101611bf5565b505050919050565b6060815167ffffffffffffffff81118015611d1d57600080fd5b50604051908082528060200260200182016040528015611d47578160200160208202803683370190505b50905060005b8251811015611d9257828181518110611d6257fe5b602001015160f81c60f81b60f81c60ff16828281518110611d7f57fe5b6020908102919091010152600101611d4d565b50919050565b60606000611daf83611daa868661215e565b6121fb565b90506000815167ffffffffffffffff81118015611dcb57600080fd5b506040519080825280601f01601f191660200182016040528015611df6576020820181803683370190505b50905060005b8251811015611b3b57604051806040016040528060208152602001600080516020612977833981519152815250838281518110611e3557fe5b602002602001015181518110611e4757fe5b602001015160f81c60f81b828281518110611e5e57fe5b60200101906001600160f81b031916908160001a905350600101611dfc565b81546000908210611ebf5760405162461bcd60e51b81526004018080602001828103825260228152602001806125f86022913960400191505060405180910390fd5b826000018281548110611ece57fe5b9060005260206000200154905092915050565b60009081526001919091016020526040902054151590565b5490565b3b151590565b600054610100900460ff1680611f1c5750611f1c611857565b80611f2a575060005460ff16155b611f655760405162461bcd60e51b815260040180806020018281038252602e81526020018061270f602e913960400191505060405180910390fd5b600054610100900460ff16158015611905576000805460ff1961ff0019909116610100171660011790558015611917576000805461ff001916905550565b600054610100900460ff1680611fbc5750611fbc611857565b80611fca575060005460ff16155b6120055760405162461bcd60e51b815260040180806020018281038252602e81526020018061270f602e913960400191505060405180910390fd5b600054610100900460ff16158015612030576000805460ff1961ff0019909116610100171660011790555b6033805460ff191690558015611917576000805461ff001916905550565b600061205a8383611ee1565b6120905750815460018181018455600084815260208082209093018490558454848252828601909352604090209190915561063d565b50600061063d565b6000818152600183016020526040812054801561215457835460001980830191908101906000908790839081106120cb57fe5b90600052602060002001549050808760000184815481106120e857fe5b60009182526020808320909101929092558281526001898101909252604090209084019055865487908061211857fe5b6001900381819060005260206000200160009055905586600101600087815260200190815260200160002060009055600194505050505061063d565b600091505061063d565b60606000612180612177612171866122ce565b856121fb565b600060066123cb565b9050600061218d82612491565b60408051600680825260e082019092526001929092189250600091906020820160c08036833701905050905060005b60068110156121f1578060050360050283901c601f168282815181106121de57fe5b60209081029190910101526001016121bc565b5095945050505050565b60606000825184510167ffffffffffffffff8111801561221a57600080fd5b50604051908082528060200260200182016040528015612244578160200160208202803683370190505b50905060005b84518110156122865784818151811061225f57fe5b602002602001015182828151811061227357fe5b602090810291909101015260010161224a565b60005b8451811015611b9e5784516001820191869181106122a357fe5b60200260200101518383806001019450815181106122bd57fe5b602002602001018181525050612289565b60606000825183510160010167ffffffffffffffff811180156122f057600080fd5b5060405190808252806020026020018201604052801561231a578160200160208202803683370190505b50905060005b835181101561236057600584828151811061233757fe5b6020026020010151901c82828151811061234d57fe5b6020908102919091010152600101612320565b5060008184518151811061237057fe5b60200260200101818152505060005b83518110156123c45783818151811061239457fe5b6020026020010151601f168285518301600101815181106123b157fe5b602090810291909101015260010161237f565b5092915050565b606060008285510167ffffffffffffffff811180156123e957600080fd5b50604051908082528060200260200182016040528015612413578160200160208202803683370190505b50905060005b85518110156124555785818151811061242e57fe5b602002602001015182828151811061244257fe5b6020908102919091010152600101612419565b60005b84811015612486578583838060010194508151811061247357fe5b6020908102919091010152600101612458565b509095945050505050565b6040805160a081018252633b6a57b281526326508e6d6020820152631ea119fa91810191909152633d4233dd6060820152632a1462b360808201526000906001825b845181101561254e576000601983901c90508582815181106124f157fe5b60200260200101516005846301ffffff16901b18925060005b600581101561254457600182821c8116141561253c5784816005811061252c57fe5b602002015163ffffffff16841893505b60010161250a565b50506001016124d3565b509392505050565b828054600181600116156101000203166002900490600052602060002090601f01602090048101928261258c57600085556125d2565b82601f106125a557805160ff19168380011785556125d2565b828001600101855582156125d2579182015b828111156125d25782518255916020019190600101906125b7565b506125de9291506125e2565b5090565b5b808211156125de57600081556001016125e356fe456e756d657261626c655365743a20696e646578206f7574206f6620626f756e6473416363657373436f6e74726f6c3a2073656e646572206d75737420626520616e2061646d696e20746f206772616e74546f6b656e577261707065723a204f6e6c79206272696467652061646d696e2063616e206d696e74206e657720746f6b656e7320666f7220612075736572546f6b656e577261707065723a2052657175697265732061206d696e206465706f73697420616d6f756e74546f6b656e577261707065723a20496e737566666369656e742062616c616e636520666f72206163636f756e74416363657373436f6e74726f6c3a2073656e646572206d75737420626520616e2061646d696e20746f207265766f6b65496e697469616c697a61626c653a20636f6e747261637420697320616c726561647920696e697469616c697a6564546f6b656e577261707065723a2052657175697265732061206d696e20776974686472617720616d6f756e74536166654d6174683a206d756c7469706c69636174696f6e206f766572666c6f77546f6b656e577261707065723a2055736572206e6f7420617574686f726973656420746f20736574206d696e696d756d2076616c756573546f6b656e577261707065723a2055736572206e6f7420617574686f726973656420746f207365742055546f6b656e20636f6e747261637465d7a28e3265b37a6474929f336521b332c1681b933f6cb9f3376673440d862a546f6b656e577261707065723a204d69736d61746368206172726179206c656e677468546f6b656e577261707065723a2057697468647261772063616e206f6e6c7920626520646f6e65206279205374616b6572546f6b656e577261707065723a2055736572206e6f7420617574686f726973656420746f207365742066656573751b795d24b92e3d92d1d0d8f2885f4e9c9c269da350af36ae6b49069babf4bf546f6b656e577261707065723a2055736572206e6f7420617574686f726973656420746f20756e706175736520636f6e747261637473546f6b656e577261707065723a20496e76616c696420636861696e206164647265737320416363657373436f6e74726f6c3a2063616e206f6e6c792072656e6f756e636520726f6c657320666f722073656c66546f6b656e577261707065723a2055736572206e6f7420617574686f726973656420746f20706175736520636f6e74726163747371707a7279397838676632747664773073336a6e35346b686365366d7561376ca2646970667358221220be8005080b557d2eddffb89b1717f4d2ec7ea49a6a2fb0921dd2cf941dfd8d0864736f6c63430007060033",
  "immutableReferences": {},
  "source": "// SPDX-License-Identifier: UNLICENSED\npragma solidity ^0.7.0;\n\nimport \"@openzeppelin/contracts-upgradeable/math/SafeMathUpgradeable.sol\";\nimport \"@openzeppelin/contracts-upgradeable/utils/PausableUpgradeable.sol\";\nimport \"@openzeppelin/contracts-upgradeable/access/AccessControlUpgradeable.sol\";\nimport \"./interfaces/IUTokens.sol\";\nimport \"./interfaces/ITokenWrapper.sol\";\nimport \"./Bech32Validation.sol\";\nimport \"./Bech32.sol\";\n\ncontract TokenWrapper is ITokenWrapper, PausableUpgradeable, AccessControlUpgradeable {\n\n    using SafeMathUpgradeable for uint256;\n    using Bech32 for string;\n\n    //Private instances of contracts to handle Utokens and Stokens\n    IUTokens private _uTokens;\n\n    // defining the fees and minimum values\n    uint256 private _minDeposit;\n    uint256 private _minWithdraw;\n    uint256 private _depositFee;\n    uint256 private _withdrawFee;\n    uint256 private _valueDivisor;\n\n    bytes32 public constant BRIDGE_ADMIN_ROLE = keccak256(\"BRIDGE_ADMIN_ROLE\");\n    bytes32 public constant PAUSER_ROLE = keccak256(\"PAUSER_ROLE\");\n\n    bytes hrpBytes;\n    bytes controlDigitBytes;\n    uint dataBytesSize;\n\n    /*\n   * @dev Constructor for initializing the TokenWrapper contract.\n   * @param uAddress - address of the UToken contract.\n   * @param bridgeAdminAddress - address of the bridge admin.\n   * @param pauserAddress - address of the pauser admin.\n   * @param valueDivisor - valueDivisor set to 10^9.\n   */\n    function initialize(address uAddress, address bridgeAdminAddress, address pauserAddress, uint256 valueDivisor) public virtual initializer  {\n         __AccessControl_init();\n        __Pausable_init();\n        _setupRole(DEFAULT_ADMIN_ROLE, _msgSender());\n        _setupRole(BRIDGE_ADMIN_ROLE, bridgeAdminAddress);\n        _setupRole(PAUSER_ROLE, pauserAddress);\n        setUTokensContract(uAddress);\n        _valueDivisor = valueDivisor;\n        // setting bech32 validationattributes\n        hrpBytes = \"cosmos\";\n        controlDigitBytes = \"1\"; \n        dataBytesSize = 38;\n    }\n\n    /**\n     * @dev Set 'fees', called from admin\n     * @param withdrawFee: withdraw fee\n     * @param depositFee: deposit fee\n     *\n     * Emits a {SetFees} event with 'fee' set to the withdraw.\n     *\n     */\n    function setFees(uint256 depositFee, uint256 withdrawFee) public virtual returns (bool success){\n        require(hasRole(DEFAULT_ADMIN_ROLE, _msgSender()), \"TokenWrapper: User not authorised to set fees\");\n        _depositFee = depositFee;\n        _withdrawFee = withdrawFee;\n        emit SetFees(depositFee, withdrawFee);\n        return true;\n    }\n\n    /**\n     * @dev get fees, minimum set values and value divisor\n     *\n     */\n    function getProps() public view virtual returns (uint256 depositFee, uint256 withdrawFee, uint256 minDeposit, uint256 minWithdraw, uint256 valueDivisor) {\n        depositFee = _depositFee;\n        withdrawFee = _withdrawFee;\n        minDeposit = _minDeposit;\n        minWithdraw = _minWithdraw;\n        valueDivisor = _valueDivisor;\n    }\n\n    /**\n     * @dev Set 'minimum values', called from admin\n     * @param minDeposit: deposit minimum value\n     * @param minWithdraw: withdraw minimum value\n     *\n     * Emits a {SetMinimumValues} event with 'minimum value' set to withdraw.\n     *\n     */\n    function setMinimumValues(uint256 minDeposit, uint256 minWithdraw) public virtual returns (bool success){\n        require(hasRole(DEFAULT_ADMIN_ROLE, _msgSender()), \"TokenWrapper: User not authorised to set minimum values\");\n        _minDeposit = minDeposit;\n        _minWithdraw = minWithdraw;\n        emit SetMinimumValues(minDeposit, minWithdraw);\n        return true;\n    }\n\n    /*\n     * @dev Set 'contract address', called for utokens smart contract\n     * @param uAddress: utoken contract address\n     *\n     * Emits a {SetUTokensContract} event with '_contract' set to the utoken contract address.\n     *\n     */\n    function setUTokensContract(address uAddress) public virtual override {\n        require(hasRole(DEFAULT_ADMIN_ROLE, _msgSender()), \"TokenWrapper: User not authorised to set UToken contract\");\n        _uTokens = IUTokens(uAddress);\n        emit SetUTokensContract(uAddress);\n    }\n\n    /**\n      * @dev Triggers stopped state.\n      *\n      * Requirements:\n      *\n      * - The contract must not be paused.\n      */\n    function pause() public virtual returns (bool success) {\n        require(hasRole(PAUSER_ROLE, _msgSender()), \"TokenWrapper: User not authorised to pause contracts\");\n        _pause();\n        return true;\n    }\n\n    /**\n     * @dev Returns to normal state.\n     *\n     * Requirements:\n     *\n     * - The contract must be paused.\n     */\n    function unpause() public virtual returns (bool success) {\n        require(hasRole(PAUSER_ROLE, _msgSender()), \"TokenWrapper: User not authorised to unpause contracts\");\n        _unpause();\n        return true;\n    }\n\n    /**\n     * @dev common function added to be called by generateUTokens and generateUTokensInBatch and mints new utokens for the provided 'address' and 'amount'\n     * @param to: account address, amount: number of tokens\n     * Requirements:\n     *\n     * - `amount` cannot be less than zero.\n     *\n     */\n    function _generateUTokens(address to, uint256 amount) internal virtual returns (uint256 finalTokens){\n        finalTokens = (((amount.mul(100)).mul(_valueDivisor)).sub(_depositFee)).div(_valueDivisor.mul(100));\n        _uTokens.mint(to, finalTokens);\n        return finalTokens;\n    }\n\n    /**\n     * @dev Mint new utokens for the provided 'address' and 'amount'\n     * @param to: account address, amount: number of tokens\n     *\n     * Emits a {GenerateUTokens} event with 'to' set to address and 'amount' set to amount of tokens.\n     *\n     * Requirements:\n     *\n     * - `amount` cannot be less than zero.\n     *\n     */\n    function generateUTokens(address to, uint256 amount) public virtual override whenNotPaused {\n        require(amount>0, \"TokenWrapper: Requires a min deposit amount\");\n        require(hasRole(BRIDGE_ADMIN_ROLE, _msgSender()), \"TokenWrapper: Only bridge admin can mint new tokens for a user\");\n        uint256 _finalTokens = _generateUTokens(to, amount);\n        emit GenerateUTokens(to, _finalTokens, block.timestamp);\n    }\n\n    /**\n     * @dev Mint new utokens for the provided 'address' and 'amount' in batch\n     * @param to[]: array of account addresses, amount[]: array of tokens\n     *\n     * Emits a {GenerateUTokens} event with 'to' set to address and 'amount' set to amount of tokens.\n     *\n     * Requirements:\n     *\n     * - `amount` cannot be less than zero.\n     *\n     */\n    function generateUTokensInBatch(address[] memory to, uint256[] memory amount) public virtual whenNotPaused {\n        require(to.length == amount.length, \"TokenWrapper: Mismatch array length\");\n        require(hasRole(BRIDGE_ADMIN_ROLE, _msgSender()), \"TokenWrapper: Only bridge admin can mint new tokens for a user\");\n        uint256 i;\n        uint256 _finalTokens;\n        for ( i=0; i<to.length; i=i.add(1)) {\n            require(amount[i]>0, \"TokenWrapper: Requires a min deposit amount\");\n            _finalTokens = _generateUTokens(to[i], amount[i]);\n        }\n        emit GenerateUTokens(to[i.sub(1)], _finalTokens, block.timestamp);\n    }\n\n    /**\n     * @dev Burn utokens for the provided 'address' and 'tokens'\n     * @param from: account address, tokens: number of tokens, toChainAddress: atom wallet address\n     *\n     * Emits a {WithdrawUTokens} event with 'from' set to address, 'finalTokens' set to amount of tokens and 'toChainAddress'\n     *\n     * Requirements:\n     *\n     * - `tokens` cannot be less than zero.\n     *\n     */\n    function withdrawUTokens(address from, uint256 tokens, string memory toChainAddress) public virtual override whenNotPaused {\n        require(tokens>_minWithdraw, \"TokenWrapper: Requires a min withdraw amount\");\n        //check if toChainAddress is valid address\n        bool isAddressValid = toChainAddress.isBech32AddressValid(hrpBytes, controlDigitBytes, dataBytesSize);\n        require(isAddressValid == true, \"TokenWrapper: Invalid chain address \");\n        uint256 _currentUTokenBalance = _uTokens.balanceOf(from);\n        require(_currentUTokenBalance>=tokens, \"TokenWrapper: Insuffcient balance for account\");\n        require(from == _msgSender(), \"TokenWrapper: Withdraw can only be done by Staker\");\n        uint256 finalTokens = (((tokens.mul(100)).mul(_valueDivisor)).sub(_withdrawFee)).div(_valueDivisor.mul(100));\n        _uTokens.burn(from, finalTokens);\n        emit WithdrawUTokens(from, finalTokens, toChainAddress, block.timestamp);\n    }\n}\n\n",
  "sourcePath": "/home/aditimahesh/Documents/Work/Persistence/go/src/github.com/persistenceOne/pStakeSmartContracts/contracts/TokenWrapper.sol",
  "compiler": {
    "name": "solc",
    "version": "0.7.6+commit.7338295f.Emscripten.clang"
  },
  "schemaVersion": "3.3.4",
  "updatedAt": "2021-06-10T12:08:53.142Z",
  "networkType": "ethereum",
  "devdoc": {
    "kind": "dev",
    "methods": {
      "generateUTokens(address,uint256)": {
        "details": "Mint new utokens for the provided 'address' and 'amount'",
        "params": {
          "to": ": account address, amount: number of tokens Emits a {GenerateUTokens} event with 'to' set to address and 'amount' set to amount of tokens. Requirements: - `amount` cannot be less than zero."
        }
      },
      "generateUTokensInBatch(address[],uint256[])": {
        "details": "Mint new utokens for the provided 'address' and 'amount' in batch",
        "params": {
          "to": "[]: array of account addresses, amount[]: array of tokens Emits a {GenerateUTokens} event with 'to' set to address and 'amount' set to amount of tokens. Requirements: - `amount` cannot be less than zero."
        }
      },
      "getProps()": {
        "details": "get fees, minimum set values and value divisor"
      },
      "getRoleAdmin(bytes32)": {
        "details": "Returns the admin role that controls `role`. See {grantRole} and {revokeRole}. To change a role's admin, use {_setRoleAdmin}."
      },
      "getRoleMember(bytes32,uint256)": {
        "details": "Returns one of the accounts that have `role`. `index` must be a value between 0 and {getRoleMemberCount}, non-inclusive. Role bearers are not sorted in any particular way, and their ordering may change at any point. WARNING: When using {getRoleMember} and {getRoleMemberCount}, make sure you perform all queries on the same block. See the following https://forum.openzeppelin.com/t/iterating-over-elements-on-enumerableset-in-openzeppelin-contracts/2296[forum post] for more information."
      },
      "getRoleMemberCount(bytes32)": {
        "details": "Returns the number of accounts that have `role`. Can be used together with {getRoleMember} to enumerate all bearers of a role."
      },
      "grantRole(bytes32,address)": {
        "details": "Grants `role` to `account`. If `account` had not been already granted `role`, emits a {RoleGranted} event. Requirements: - the caller must have ``role``'s admin role."
      },
      "hasRole(bytes32,address)": {
        "details": "Returns `true` if `account` has been granted `role`."
      },
      "pause()": {
        "details": "Triggers stopped state. Requirements: - The contract must not be paused."
      },
      "paused()": {
        "details": "Returns true if the contract is paused, and false otherwise."
      },
      "renounceRole(bytes32,address)": {
        "details": "Revokes `role` from the calling account. Roles are often managed via {grantRole} and {revokeRole}: this function's purpose is to provide a mechanism for accounts to lose their privileges if they are compromised (such as when a trusted device is misplaced). If the calling account had been granted `role`, emits a {RoleRevoked} event. Requirements: - the caller must be `account`."
      },
      "revokeRole(bytes32,address)": {
        "details": "Revokes `role` from `account`. If `account` had been granted `role`, emits a {RoleRevoked} event. Requirements: - the caller must have ``role``'s admin role."
      },
      "setFees(uint256,uint256)": {
        "details": "Set 'fees', called from admin",
        "params": {
          "depositFee": ": deposit fee Emits a {SetFees} event with 'fee' set to the withdraw.",
          "withdrawFee": ": withdraw fee"
        }
      },
      "setMinimumValues(uint256,uint256)": {
        "details": "Set 'minimum values', called from admin",
        "params": {
          "minDeposit": ": deposit minimum value",
          "minWithdraw": ": withdraw minimum value Emits a {SetMinimumValues} event with 'minimum value' set to withdraw."
        }
      },
      "setUTokensContract(address)": {
        "details": "Set UTokens smart contract. Emits a {SetUTokensContract} event."
      },
      "unpause()": {
        "details": "Returns to normal state. Requirements: - The contract must be paused."
      },
      "withdrawUTokens(address,uint256,string)": {
        "details": "Burn utokens for the provided 'address' and 'tokens'",
        "params": {
          "from": ": account address, tokens: number of tokens, toChainAddress: atom wallet address Emits a {WithdrawUTokens} event with 'from' set to address, 'finalTokens' set to amount of tokens and 'toChainAddress' Requirements: - `tokens` cannot be less than zero."
        }
      }
    },
    "version": 1
  },
  "userdoc": {
    "kind": "user",
    "methods": {},
    "version": 1
  }
}