{
  "contractName": "UstkXPRT",
  "abi": [
    {
      "anonymous": false,
      "inputs": [
        {
          "indexed": true,
          "internalType": "address",
          "name": "owner",
          "type": "address"
        },
        {
          "indexed": true,
          "internalType": "address",
          "name": "spender",
          "type": "address"
        },
        {
          "indexed": false,
          "internalType": "uint256",
          "name": "value",
          "type": "uint256"
        }
      ],
      "name": "Approval",
      "type": "event"
    },
    {
      "anonymous": false,
      "inputs": [
        {
          "indexed": false,
          "internalType": "address",
          "name": "account",
          "type": "address"
        }
      ],
      "name": "Paused",
      "type": "event"
    },
    {
      "anonymous": false,
      "inputs": [
        {
          "indexed": true,
          "internalType": "bytes32",
          "name": "role",
          "type": "bytes32"
        },
        {
          "indexed": true,
          "internalType": "bytes32",
          "name": "previousAdminRole",
          "type": "bytes32"
        },
        {
          "indexed": true,
          "internalType": "bytes32",
          "name": "newAdminRole",
          "type": "bytes32"
        }
      ],
      "name": "RoleAdminChanged",
      "type": "event"
    },
    {
      "anonymous": false,
      "inputs": [
        {
          "indexed": true,
          "internalType": "bytes32",
          "name": "role",
          "type": "bytes32"
        },
        {
          "indexed": true,
          "internalType": "address",
          "name": "account",
          "type": "address"
        },
        {
          "indexed": true,
          "internalType": "address",
          "name": "sender",
          "type": "address"
        }
      ],
      "name": "RoleGranted",
      "type": "event"
    },
    {
      "anonymous": false,
      "inputs": [
        {
          "indexed": true,
          "internalType": "bytes32",
          "name": "role",
          "type": "bytes32"
        },
        {
          "indexed": true,
          "internalType": "address",
          "name": "account",
          "type": "address"
        },
        {
          "indexed": true,
          "internalType": "address",
          "name": "sender",
          "type": "address"
        }
      ],
      "name": "RoleRevoked",
      "type": "event"
    },
    {
      "anonymous": false,
      "inputs": [
        {
          "indexed": true,
          "internalType": "address",
          "name": "from",
          "type": "address"
        },
        {
          "indexed": true,
          "internalType": "address",
          "name": "to",
          "type": "address"
        },
        {
          "indexed": false,
          "internalType": "uint256",
          "name": "value",
          "type": "uint256"
        }
      ],
      "name": "Transfer",
      "type": "event"
    },
    {
      "anonymous": false,
      "inputs": [
        {
          "indexed": false,
          "internalType": "address",
          "name": "account",
          "type": "address"
        }
      ],
      "name": "Unpaused",
      "type": "event"
    },
    {
      "inputs": [],
      "name": "BRIDGE_ADMIN_ROLE",
      "outputs": [
        {
          "internalType": "bytes32",
          "name": "",
          "type": "bytes32"
        }
      ],
      "stateMutability": "view",
      "type": "function",
      "constant": true
    },
    {
      "inputs": [],
      "name": "DEFAULT_ADMIN_ROLE",
      "outputs": [
        {
          "internalType": "bytes32",
          "name": "",
          "type": "bytes32"
        }
      ],
      "stateMutability": "view",
      "type": "function",
      "constant": true
    },
    {
      "inputs": [],
      "name": "PAUSER_ROLE",
      "outputs": [
        {
          "internalType": "bytes32",
          "name": "",
          "type": "bytes32"
        }
      ],
      "stateMutability": "view",
      "type": "function",
      "constant": true
    },
    {
      "inputs": [
        {
          "internalType": "address",
          "name": "owner",
          "type": "address"
        },
        {
          "internalType": "address",
          "name": "spender",
          "type": "address"
        }
      ],
      "name": "allowance",
      "outputs": [
        {
          "internalType": "uint256",
          "name": "",
          "type": "uint256"
        }
      ],
      "stateMutability": "view",
      "type": "function",
      "constant": true
    },
    {
      "inputs": [
        {
          "internalType": "address",
          "name": "spender",
          "type": "address"
        },
        {
          "internalType": "uint256",
          "name": "amount",
          "type": "uint256"
        }
      ],
      "name": "approve",
      "outputs": [
        {
          "internalType": "bool",
          "name": "",
          "type": "bool"
        }
      ],
      "stateMutability": "nonpayable",
      "type": "function"
    },
    {
      "inputs": [
        {
          "internalType": "address",
          "name": "account",
          "type": "address"
        }
      ],
      "name": "balanceOf",
      "outputs": [
        {
          "internalType": "uint256",
          "name": "",
          "type": "uint256"
        }
      ],
      "stateMutability": "view",
      "type": "function",
      "constant": true
    },
    {
      "inputs": [],
      "name": "decimals",
      "outputs": [
        {
          "internalType": "uint8",
          "name": "",
          "type": "uint8"
        }
      ],
      "stateMutability": "view",
      "type": "function",
      "constant": true
    },
    {
      "inputs": [
        {
          "internalType": "address",
          "name": "spender",
          "type": "address"
        },
        {
          "internalType": "uint256",
          "name": "subtractedValue",
          "type": "uint256"
        }
      ],
      "name": "decreaseAllowance",
      "outputs": [
        {
          "internalType": "bool",
          "name": "",
          "type": "bool"
        }
      ],
      "stateMutability": "nonpayable",
      "type": "function"
    },
    {
      "inputs": [
        {
          "internalType": "bytes32",
          "name": "role",
          "type": "bytes32"
        }
      ],
      "name": "getRoleAdmin",
      "outputs": [
        {
          "internalType": "bytes32",
          "name": "",
          "type": "bytes32"
        }
      ],
      "stateMutability": "view",
      "type": "function",
      "constant": true
    },
    {
      "inputs": [
        {
          "internalType": "bytes32",
          "name": "role",
          "type": "bytes32"
        },
        {
          "internalType": "uint256",
          "name": "index",
          "type": "uint256"
        }
      ],
      "name": "getRoleMember",
      "outputs": [
        {
          "internalType": "address",
          "name": "",
          "type": "address"
        }
      ],
      "stateMutability": "view",
      "type": "function",
      "constant": true
    },
    {
      "inputs": [
        {
          "internalType": "bytes32",
          "name": "role",
          "type": "bytes32"
        }
      ],
      "name": "getRoleMemberCount",
      "outputs": [
        {
          "internalType": "uint256",
          "name": "",
          "type": "uint256"
        }
      ],
      "stateMutability": "view",
      "type": "function",
      "constant": true
    },
    {
      "inputs": [
        {
          "internalType": "bytes32",
          "name": "role",
          "type": "bytes32"
        },
        {
          "internalType": "address",
          "name": "account",
          "type": "address"
        }
      ],
      "name": "grantRole",
      "outputs": [],
      "stateMutability": "nonpayable",
      "type": "function"
    },
    {
      "inputs": [
        {
          "internalType": "bytes32",
          "name": "role",
          "type": "bytes32"
        },
        {
          "internalType": "address",
          "name": "account",
          "type": "address"
        }
      ],
      "name": "hasRole",
      "outputs": [
        {
          "internalType": "bool",
          "name": "",
          "type": "bool"
        }
      ],
      "stateMutability": "view",
      "type": "function",
      "constant": true
    },
    {
      "inputs": [
        {
          "internalType": "address",
          "name": "spender",
          "type": "address"
        },
        {
          "internalType": "uint256",
          "name": "addedValue",
          "type": "uint256"
        }
      ],
      "name": "increaseAllowance",
      "outputs": [
        {
          "internalType": "bool",
          "name": "",
          "type": "bool"
        }
      ],
      "stateMutability": "nonpayable",
      "type": "function"
    },
    {
      "inputs": [],
      "name": "name",
      "outputs": [
        {
          "internalType": "string",
          "name": "",
          "type": "string"
        }
      ],
      "stateMutability": "view",
      "type": "function",
      "constant": true
    },
    {
      "inputs": [],
      "name": "paused",
      "outputs": [
        {
          "internalType": "bool",
          "name": "",
          "type": "bool"
        }
      ],
      "stateMutability": "view",
      "type": "function",
      "constant": true
    },
    {
      "inputs": [
        {
          "internalType": "bytes32",
          "name": "role",
          "type": "bytes32"
        },
        {
          "internalType": "address",
          "name": "account",
          "type": "address"
        }
      ],
      "name": "renounceRole",
      "outputs": [],
      "stateMutability": "nonpayable",
      "type": "function"
    },
    {
      "inputs": [
        {
          "internalType": "bytes32",
          "name": "role",
          "type": "bytes32"
        },
        {
          "internalType": "address",
          "name": "account",
          "type": "address"
        }
      ],
      "name": "revokeRole",
      "outputs": [],
      "stateMutability": "nonpayable",
      "type": "function"
    },
    {
      "inputs": [],
      "name": "symbol",
      "outputs": [
        {
          "internalType": "string",
          "name": "",
          "type": "string"
        }
      ],
      "stateMutability": "view",
      "type": "function",
      "constant": true
    },
    {
      "inputs": [],
      "name": "totalSupply",
      "outputs": [
        {
          "internalType": "uint256",
          "name": "",
          "type": "uint256"
        }
      ],
      "stateMutability": "view",
      "type": "function",
      "constant": true
    },
    {
      "inputs": [
        {
          "internalType": "address",
          "name": "recipient",
          "type": "address"
        },
        {
          "internalType": "uint256",
          "name": "amount",
          "type": "uint256"
        }
      ],
      "name": "transfer",
      "outputs": [
        {
          "internalType": "bool",
          "name": "",
          "type": "bool"
        }
      ],
      "stateMutability": "nonpayable",
      "type": "function"
    },
    {
      "inputs": [
        {
          "internalType": "address",
          "name": "sender",
          "type": "address"
        },
        {
          "internalType": "address",
          "name": "recipient",
          "type": "address"
        },
        {
          "internalType": "uint256",
          "name": "amount",
          "type": "uint256"
        }
      ],
      "name": "transferFrom",
      "outputs": [
        {
          "internalType": "bool",
          "name": "",
          "type": "bool"
        }
      ],
      "stateMutability": "nonpayable",
      "type": "function"
    },
    {
      "inputs": [
        {
          "internalType": "address",
          "name": "bridgeAdminAddress",
          "type": "address"
        },
        {
          "internalType": "address",
          "name": "pauserAddress",
          "type": "address"
        },
        {
          "internalType": "address",
          "name": "pstkTreasury",
          "type": "address"
        }
      ],
      "name": "initialize",
      "outputs": [],
      "stateMutability": "nonpayable",
      "type": "function"
    },
    {
      "inputs": [
        {
          "internalType": "address",
          "name": "to",
          "type": "address"
        },
        {
          "internalType": "uint256",
          "name": "tokens",
          "type": "uint256"
        }
      ],
      "name": "mint",
      "outputs": [
        {
          "internalType": "bool",
          "name": "success",
          "type": "bool"
        }
      ],
      "stateMutability": "nonpayable",
      "type": "function"
    },
    {
      "inputs": [
        {
          "internalType": "address",
          "name": "from",
          "type": "address"
        },
        {
          "internalType": "uint256",
          "name": "tokens",
          "type": "uint256"
        }
      ],
      "name": "burn",
      "outputs": [
        {
          "internalType": "bool",
          "name": "success",
          "type": "bool"
        }
      ],
      "stateMutability": "nonpayable",
      "type": "function"
    },
    {
      "inputs": [
        {
          "internalType": "address",
          "name": "stokenContract",
          "type": "address"
        }
      ],
      "name": "setSTokenContract",
      "outputs": [],
      "stateMutability": "nonpayable",
      "type": "function"
    },
    {
      "inputs": [
        {
          "internalType": "address",
          "name": "liquidStakingContract",
          "type": "address"
        }
      ],
      "name": "setLiquidStakingContract",
      "outputs": [],
      "stateMutability": "nonpayable",
      "type": "function"
    },
    {
      "inputs": [
        {
          "internalType": "address",
          "name": "wrapperTokensContract",
          "type": "address"
        }
      ],
      "name": "setWrapperContract",
      "outputs": [],
      "stateMutability": "nonpayable",
      "type": "function"
    },
    {
      "inputs": [],
      "name": "pause",
      "outputs": [
        {
          "internalType": "bool",
          "name": "success",
          "type": "bool"
        }
      ],
      "stateMutability": "nonpayable",
      "type": "function"
    },
    {
      "inputs": [],
      "name": "unpause",
      "outputs": [
        {
          "internalType": "bool",
          "name": "success",
          "type": "bool"
        }
      ],
      "stateMutability": "nonpayable",
      "type": "function"
    }
  ],
  "bytecode": "0x608060405234801561001057600080fd5b506123de806100206000396000f3fe608060405234801561001057600080fd5b50600436106101da5760003560e01c806370a0823111610104578063a457c2d7116100a2578063d547741f11610071578063d547741f146105bf578063dd62ed3e146105eb578063e63ab1e914610619578063e8cb784414610621576101da565b8063a457c2d714610512578063a9059cbb1461053e578063c0c53b8b1461056a578063ca15c873146105a2576101da565b806391d14854116100de57806391d14854146104aa57806395d89b41146104d65780639dc29fac146104de578063a217fddf1461050a576101da565b806370a082311461043d5780638456cb59146104635780639010d07c1461046b576101da565b8063313ce5671161017c57806340c10f191161014b57806340c10f19146103bd5780634e558127146103e957806358f8943e1461040f5780635c975abb14610435576101da565b8063313ce5671461033f57806336568abe1461035d57806339509351146103895780633f4ba83a146103b5576101da565b806318160ddd116101b857806318160ddd146102b657806323b872dd146102be578063248a9ca3146102f45780632f2ff15d14610311576101da565b806306fdde03146101df578063095ea7b31461025c578063118c38c71461029c575b600080fd5b6101e7610647565b6040805160208082528351818301528351919283929083019185019080838360005b83811015610221578181015183820152602001610209565b50505050905090810190601f16801561024e5780820380516001836020036101000a031916815260200191505b509250505060405180910390f35b6102886004803603604081101561027257600080fd5b506001600160a01b0381351690602001356106dd565b604080519115158252519081900360200190f35b6102a46106fb565b60408051918252519081900360200190f35b6102a461070d565b610288600480360360608110156102d457600080fd5b506001600160a01b03813581169160208101359091169060400135610713565b6102a46004803603602081101561030a57600080fd5b503561079a565b61033d6004803603604081101561032757600080fd5b50803590602001356001600160a01b03166107af565b005b61034761081b565b6040805160ff9092168252519081900360200190f35b61033d6004803603604081101561037357600080fd5b50803590602001356001600160a01b0316610824565b6102886004803603604081101561039f57600080fd5b506001600160a01b038135169060200135610885565b6102886108d3565b610288600480360360408110156103d357600080fd5b506001600160a01b038135169060200135610938565b61033d600480360360208110156103ff57600080fd5b50356001600160a01b0316610abe565b61033d6004803603602081101561042557600080fd5b50356001600160a01b0316610b75565b610288610c2c565b6102a46004803603602081101561045357600080fd5b50356001600160a01b0316610c35565b610288610c50565b61048e6004803603604081101561048157600080fd5b5080359060200135610caf565b604080516001600160a01b039092168252519081900360200190f35b610288600480360360408110156104c057600080fd5b50803590602001356001600160a01b0316610cce565b6101e7610ce6565b610288600480360360408110156104f457600080fd5b506001600160a01b038135169060200135610d47565b6102a4610e45565b6102886004803603604081101561052857600080fd5b506001600160a01b038135169060200135610e4a565b6102886004803603604081101561055457600080fd5b506001600160a01b038135169060200135610eb2565b61033d6004803603606081101561058057600080fd5b506001600160a01b038135811691602081013582169160409091013516610ec6565b6102a4600480360360208110156105b857600080fd5b503561102d565b61033d600480360360408110156105d557600080fd5b50803590602001356001600160a01b0316611044565b6102a46004803603604081101561060157600080fd5b506001600160a01b038135811691602001351661109d565b6102a46110c8565b61033d6004803603602081101561063757600080fd5b50356001600160a01b03166110da565b60368054604080516020601f60026000196101006001881615020190951694909404938401819004810282018101909252828152606093909290918301828280156106d35780601f106106a8576101008083540402835291602001916106d3565b820191906000526020600020905b8154815290600101906020018083116106b657829003601f168201915b5050505050905090565b60006106f16106ea611191565b8484611195565b5060015b92915050565b60008051602061229f83398151915281565b60355490565b6000610720848484611281565b6107908461072c611191565b61078b85604051806060016040528060288152602001612257602891396001600160a01b038a1660009081526034602052604081209061076a611191565b6001600160a01b0316815260208101919091526040016000205491906113de565b611195565b5060019392505050565b60009081526097602052604090206002015490565b6000828152609760205260409020600201546107d2906107cd611191565b610cce565b61080d5760405162461bcd60e51b815260040180806020018281038252602f815260200180612031602f913960400191505060405180910390fd5b6108178282611475565b5050565b60385460ff1690565b61082c611191565b6001600160a01b0316816001600160a01b03161461087b5760405162461bcd60e51b815260040180806020018281038252602f81526020018061237a602f913960400191505060405180910390fd5b61081782826114de565b60006106f1610892611191565b8461078b85603460006108a3611191565b6001600160a01b03908116825260208083019390935260409182016000908120918c168152925290205490611547565b60006108ef60008051602061227f8339815191526107cd611191565b61092a5760405162461bcd60e51b815260040180806020018281038252603281526020018061218c6032913960400191505060405180910390fd5b6109326115a1565b50600190565b6000610942610c2c565b15610987576040805162461bcd60e51b815260206004820152601060248201526f14185d5cd8589b194e881c185d5cd95960821b604482015290519081900360640190fd5b61099f60008051602061229f83398151915232610cce565b80156109c5575060ca546001600160a01b03166109ba611191565b6001600160a01b0316145b80610a0957506109e360008051602061229f83398151915232610cce565b8015610a09575060cb546001600160a01b03166109fe611191565b6001600160a01b0316145b80610a415750326001600160a01b038416148015610a41575060c9546001600160a01b0316610a36611191565b6001600160a01b0316145b80610a795750326001600160a01b038416148015610a79575060ca546001600160a01b0316610a6e611191565b6001600160a01b0316145b610ab45760405162461bcd60e51b815260040180806020018281038252602c815260200180612329602c913960400191505060405180910390fd5b6106f18383611641565b610ac6610c2c565b15610b0b576040805162461bcd60e51b815260206004820152601060248201526f14185d5cd8589b194e881c185d5cd95960821b604482015290519081900360640190fd5b610b1860006107cd611191565b610b535760405162461bcd60e51b81526004018080602001828103825260348152602001806120826034913960400191505060405180910390fd5b60cb80546001600160a01b0319166001600160a01b0392909216919091179055565b610b7d610c2c565b15610bc2576040805162461bcd60e51b815260206004820152601060248201526f14185d5cd8589b194e881c185d5cd95960821b604482015290519081900360640190fd5b610bcf60006107cd611191565b610c0a5760405162461bcd60e51b815260040180806020018281038252603a8152602001806121be603a913960400191505060405180910390fd5b60ca80546001600160a01b0319166001600160a01b0392909216919091179055565b60655460ff1690565b6001600160a01b031660009081526033602052604090205490565b6000610c6c60008051602061227f8339815191526107cd611191565b610ca75760405162461bcd60e51b815260040180806020018281038252603081526020018061212e6030913960400191505060405180910390fd5b610932611733565b6000828152609760205260408120610cc790836117b6565b9392505050565b6000828152609760205260408120610cc790836117c2565b60378054604080516020601f60026000196101006001881615020190951694909404938401819004810282018101909252828152606093909290918301828280156106d35780601f106106a8576101008083540402835291602001916106d3565b6000610d51610c2c565b15610d96576040805162461bcd60e51b815260206004820152601060248201526f14185d5cd8589b194e881c185d5cd95960821b604482015290519081900360640190fd5b326001600160a01b038416148015610dc8575060ca546001600160a01b0316610dbd611191565b6001600160a01b0316145b80610e005750326001600160a01b038416148015610e00575060cb546001600160a01b0316610df5611191565b6001600160a01b0316145b610e3b5760405162461bcd60e51b815260040180806020018281038252602c8152602001806121f8602c913960400191505060405180910390fd5b6106f183836117d7565b600081565b60006106f1610e57611191565b8461078b856040518060600160405280602581526020016123556025913960346000610e81611191565b6001600160a01b03908116825260208083019390935260409182016000908120918d168152925290205491906113de565b60006106f1610ebf611191565b8484611281565b600054610100900460ff1680610edf5750610edf6118d3565b80610eed575060005460ff16155b610f285760405162461bcd60e51b815260040180806020018281038252602e81526020018061215e602e913960400191505060405180910390fd5b600054610100900460ff16158015610f53576000805460ff1961ff0019909116610100171660011790555b610fa9604051806040016040528060148152602001731c14d51052d148155b9cdd185ad959081614149560621b815250604051806040016040528060088152602001671d5cdd1ad614149560c21b8152506118e4565b610fb161199a565b610fb9611a4c565b610fcb6000610fc6611191565b61080d565b610fe360008051602061229f8339815191528561080d565b610ffb60008051602061227f8339815191528461080d565b6110056006611ae9565b611015826502ba7def3000611641565b8015611027576000805461ff00191690555b50505050565b60008181526097602052604081206106f590611aff565b600082815260976020526040902060020154611062906107cd611191565b61087b5760405162461bcd60e51b81526004018080602001828103825260308152602001806120fe6030913960400191505060405180910390fd5b6001600160a01b03918216600090815260346020908152604080832093909416825291909152205490565b60008051602061227f83398151915281565b6110e2610c2c565b15611127576040805162461bcd60e51b815260206004820152601060248201526f14185d5cd8589b194e881c185d5cd95960821b604482015290519081900360640190fd5b61113460006107cd611191565b61116f5760405162461bcd60e51b81526004018080602001828103825260338152602001806122246033913960400191505060405180910390fd5b60c980546001600160a01b0319166001600160a01b0392909216919091179055565b3390565b6001600160a01b0383166111da5760405162461bcd60e51b81526004018080602001828103825260248152602001806123056024913960400191505060405180910390fd5b6001600160a01b03821661121f5760405162461bcd60e51b81526004018080602001828103825260228152602001806120b66022913960400191505060405180910390fd5b6001600160a01b03808416600081815260346020908152604080832094871680845294825291829020859055815185815291517f8c5be1e5ebec7d5bd14f71427d1e84f3dd0314c0f7b2291e5b200ac8c7c3b9259281900390910190a3505050565b6001600160a01b0383166112c65760405162461bcd60e51b81526004018080602001828103825260258152602001806122e06025913960400191505060405180910390fd5b6001600160a01b03821661130b5760405162461bcd60e51b815260040180806020018281038252602381526020018061200e6023913960400191505060405180910390fd5b611316838383611995565b611353816040518060600160405280602681526020016120d8602691396001600160a01b03861660009081526033602052604090205491906113de565b6001600160a01b0380851660009081526033602052604080822093909355908416815220546113829082611547565b6001600160a01b0380841660008181526033602090815260409182902094909455805185815290519193928716927fddf252ad1be2c89b69c2b068fc378daa952ba7f163c4a11628f55a4df523b3ef92918290030190a3505050565b6000818484111561146d5760405162461bcd60e51b81526004018080602001828103825283818151815260200191508051906020019080838360005b8381101561143257818101518382015260200161141a565b50505050905090810190601f16801561145f5780820380516001836020036101000a031916815260200191505b509250505060405180910390fd5b505050900390565b600082815260976020526040902061148d9082611b0a565b156108175761149a611191565b6001600160a01b0316816001600160a01b0316837f2f8788117e7eff1d82e926ec794901d17c78024a50270940304540a733656f0d60405160405180910390a45050565b60008281526097602052604090206114f69082611b1f565b1561081757611503611191565b6001600160a01b0316816001600160a01b0316837ff6391f5c32d9c69d2a47ea670b442974b53935d1edc7fd64eb21e047a839171b60405160405180910390a45050565b600082820183811015610cc7576040805162461bcd60e51b815260206004820152601b60248201527f536166654d6174683a206164646974696f6e206f766572666c6f770000000000604482015290519081900360640190fd5b6115a9610c2c565b6115f1576040805162461bcd60e51b815260206004820152601460248201527314185d5cd8589b194e881b9bdd081c185d5cd95960621b604482015290519081900360640190fd5b6065805460ff191690557f5db9ee0a495bf2e6ff9c91a7834c1ba4fdd244a5e8aa4e537bd38aeae4b073aa611624611191565b604080516001600160a01b039092168252519081900360200190a1565b6001600160a01b03821661169c576040805162461bcd60e51b815260206004820152601f60248201527f45524332303a206d696e7420746f20746865207a65726f206164647265737300604482015290519081900360640190fd5b6116a860008383611995565b6035546116b59082611547565b6035556001600160a01b0382166000908152603360205260409020546116db9082611547565b6001600160a01b03831660008181526033602090815260408083209490945583518581529351929391927fddf252ad1be2c89b69c2b068fc378daa952ba7f163c4a11628f55a4df523b3ef9281900390910190a35050565b61173b610c2c565b15611780576040805162461bcd60e51b815260206004820152601060248201526f14185d5cd8589b194e881c185d5cd95960821b604482015290519081900360640190fd5b6065805460ff191660011790557f62e78cea01bee320cd4e420270b5ea74000d11b0c9f74754ebdbfc544b05a258611624611191565b6000610cc78383611b34565b6000610cc7836001600160a01b038416611b98565b6001600160a01b03821661181c5760405162461bcd60e51b81526004018080602001828103825260218152602001806122bf6021913960400191505060405180910390fd5b61182882600083611995565b61186581604051806060016040528060228152602001612060602291396001600160a01b03851660009081526033602052604090205491906113de565b6001600160a01b03831660009081526033602052604090205560355461188b9082611bb0565b6035556040805182815290516000916001600160a01b038516917fddf252ad1be2c89b69c2b068fc378daa952ba7f163c4a11628f55a4df523b3ef9181900360200190a35050565b60006118de30611c0d565b15905090565b600054610100900460ff16806118fd57506118fd6118d3565b8061190b575060005460ff16155b6119465760405162461bcd60e51b815260040180806020018281038252602e81526020018061215e602e913960400191505060405180910390fd5b600054610100900460ff16158015611971576000805460ff1961ff0019909116610100171660011790555b611979611c13565b6119838383611cb3565b8015611995576000805461ff00191690555b505050565b600054610100900460ff16806119b357506119b36118d3565b806119c1575060005460ff16155b6119fc5760405162461bcd60e51b815260040180806020018281038252602e81526020018061215e602e913960400191505060405180910390fd5b600054610100900460ff16158015611a27576000805460ff1961ff0019909116610100171660011790555b611a2f611c13565b611a37611c13565b8015611a49576000805461ff00191690555b50565b600054610100900460ff1680611a655750611a656118d3565b80611a73575060005460ff16155b611aae5760405162461bcd60e51b815260040180806020018281038252602e81526020018061215e602e913960400191505060405180910390fd5b600054610100900460ff16158015611ad9576000805460ff1961ff0019909116610100171660011790555b611ae1611c13565b611a37611d8b565b6038805460ff191660ff92909216919091179055565b60006106f582611e36565b6000610cc7836001600160a01b038416611e3a565b6000610cc7836001600160a01b038416611e84565b81546000908210611b765760405162461bcd60e51b8152600401808060200182810382526022815260200180611fec6022913960400191505060405180910390fd5b826000018281548110611b8557fe5b9060005260206000200154905092915050565b60009081526001919091016020526040902054151590565b600082821115611c07576040805162461bcd60e51b815260206004820152601e60248201527f536166654d6174683a207375627472616374696f6e206f766572666c6f770000604482015290519081900360640190fd5b50900390565b3b151590565b600054610100900460ff1680611c2c5750611c2c6118d3565b80611c3a575060005460ff16155b611c755760405162461bcd60e51b815260040180806020018281038252602e81526020018061215e602e913960400191505060405180910390fd5b600054610100900460ff16158015611a37576000805460ff1961ff0019909116610100171660011790558015611a49576000805461ff001916905550565b600054610100900460ff1680611ccc5750611ccc6118d3565b80611cda575060005460ff16155b611d155760405162461bcd60e51b815260040180806020018281038252602e81526020018061215e602e913960400191505060405180910390fd5b600054610100900460ff16158015611d40576000805460ff1961ff0019909116610100171660011790555b8251611d53906036906020860190611f4a565b508151611d67906037906020850190611f4a565b506038805460ff191660121790558015611995576000805461ff0019169055505050565b600054610100900460ff1680611da45750611da46118d3565b80611db2575060005460ff16155b611ded5760405162461bcd60e51b815260040180806020018281038252602e81526020018061215e602e913960400191505060405180910390fd5b600054610100900460ff16158015611e18576000805460ff1961ff0019909116610100171660011790555b6065805460ff191690558015611a49576000805461ff001916905550565b5490565b6000611e468383611b98565b611e7c575081546001818101845560008481526020808220909301849055845484825282860190935260409020919091556106f5565b5060006106f5565b60008181526001830160205260408120548015611f405783546000198083019190810190600090879083908110611eb757fe5b9060005260206000200154905080876000018481548110611ed457fe5b600091825260208083209091019290925582815260018981019092526040902090840190558654879080611f0457fe5b600190038181906000526020600020016000905590558660010160008781526020019081526020016000206000905560019450505050506106f5565b60009150506106f5565b828054600181600116156101000203166002900490600052602060002090601f016020900481019282611f805760008555611fc6565b82601f10611f9957805160ff1916838001178555611fc6565b82800160010185558215611fc6579182015b82811115611fc6578251825591602001919060010190611fab565b50611fd2929150611fd6565b5090565b5b80821115611fd25760008155600101611fd756fe456e756d657261626c655365743a20696e646578206f7574206f6620626f756e647345524332303a207472616e7366657220746f20746865207a65726f2061646472657373416363657373436f6e74726f6c3a2073656e646572206d75737420626520616e2061646d696e20746f206772616e7445524332303a206275726e20616d6f756e7420657863656564732062616c616e636555546f6b656e733a2055736572206e6f7420617574686f726973656420746f20736574207772617070657220636f6e747261637445524332303a20617070726f766520746f20746865207a65726f206164647265737345524332303a207472616e7366657220616d6f756e7420657863656564732062616c616e6365416363657373436f6e74726f6c3a2073656e646572206d75737420626520616e2061646d696e20746f207265766f6b6555546f6b656e733a2055736572206e6f7420617574686f726973656420746f20706175736520636f6e7472616374732e496e697469616c697a61626c653a20636f6e747261637420697320616c726561647920696e697469616c697a656455546f6b656e733a2055736572206e6f7420617574686f726973656420746f20756e706175736520636f6e7472616374732e55546f6b656e733a2055736572206e6f7420617574686f726973656420746f20736574206c69717569645374616b696e6720636f6e747261637455546f6b656e733a2055736572206e6f7420617574686f726973656420746f206275726e2055546f6b656e7355546f6b656e733a2055736572206e6f7420617574686f726973656420746f207365742053546f6b656e20636f6e747261637445524332303a207472616e7366657220616d6f756e74206578636565647320616c6c6f77616e636565d7a28e3265b37a6474929f336521b332c1681b933f6cb9f3376673440d862a751b795d24b92e3d92d1d0d8f2885f4e9c9c269da350af36ae6b49069babf4bf45524332303a206275726e2066726f6d20746865207a65726f206164647265737345524332303a207472616e736665722066726f6d20746865207a65726f206164647265737345524332303a20617070726f76652066726f6d20746865207a65726f206164647265737355546f6b656e733a2055736572206e6f7420617574686f726973656420746f206d696e742055546f6b656e7345524332303a2064656372656173656420616c6c6f77616e63652062656c6f77207a65726f416363657373436f6e74726f6c3a2063616e206f6e6c792072656e6f756e636520726f6c657320666f722073656c66a264697066735822122084dfab94af394097c8e8b50d3e7da54b3638336af53d1ef83611a540a19fba4564736f6c63430007060033",
  "immutableReferences": {},
  "source": "// SPDX-License-Identifier: UNLICENSED\npragma solidity ^0.7.0;\n\nimport \"@openzeppelin/contracts-upgradeable/token/ERC20/ERC20Upgradeable.sol\";\nimport \"@openzeppelin/contracts-upgradeable/math/SafeMathUpgradeable.sol\";\nimport \"@openzeppelin/contracts-upgradeable/utils/PausableUpgradeable.sol\";\nimport \"@openzeppelin/contracts-upgradeable/access/AccessControlUpgradeable.sol\";\nimport \"./interfaces/IUTokens.sol\";\n\ncontract UstkXPRT is ERC20Upgradeable, IUTokens, PausableUpgradeable, AccessControlUpgradeable {\n\n    using SafeMathUpgradeable for uint256;\n\n    bytes32 public constant BRIDGE_ADMIN_ROLE = keccak256(\"BRIDGE_ADMIN_ROLE\");\n    bytes32 public constant PAUSER_ROLE = keccak256(\"PAUSER_ROLE\");\n\n    address private _stokenContract;\n    address private _liquidStakingContract;\n    address private _wrapperContract;\n\n    /**\n   * @dev Constructor for initializing the UToken contract.\n   * @param bridgeAdminAddress - address of the bridge admin.\n   * @param pauserAddress - address of the pauser admin.\n   */\n    function initialize(address bridgeAdminAddress, address pauserAddress, address pstkTreasury) public virtual initializer {\n        __ERC20_init(\"pSTAKE Unstaked XPRT\", \"ustkXPRT\");\n        __AccessControl_init();\n        __Pausable_init();\n        _setupRole(DEFAULT_ADMIN_ROLE, _msgSender());\n        _setupRole(BRIDGE_ADMIN_ROLE, bridgeAdminAddress);\n        _setupRole(PAUSER_ROLE, pauserAddress);\n        _setupDecimals(6);\n        // pre-allocate 3million tokens to pSTAKE Treasury address\n        _mint(pstkTreasury, 3000000000000);\n    }\n\n    /**\n    * @dev Mint new utokens for the provided 'address' and 'amount'\n    * @param to: account address, amount: number of tokens\n    *\n    * Emits a {MintTokens} event with 'to' set to address and 'amount' set to amount of tokens.\n    *\n    * Requirements:\n    *\n    * - `amount` cannot be less than zero.\n    *\n    */\n    function mint(address to, uint256 tokens) public virtual override whenNotPaused returns (bool success) {\n        require((hasRole(BRIDGE_ADMIN_ROLE, tx.origin) && _msgSender() == _liquidStakingContract) ||\n        (hasRole(BRIDGE_ADMIN_ROLE, tx.origin) && _msgSender() == _wrapperContract)  ||\n        (tx.origin == to && _msgSender() == _stokenContract) ||\n            (tx.origin == to && _msgSender()==_liquidStakingContract), \"UTokens: User not authorised to mint UTokens\");\n        _mint(to, tokens);\n        return true;\n    }\n\n    /*\n     * @dev Burn utokens for the provided 'address' and 'amount'\n     * @param to: account address, amount: number of tokens\n     *\n     * Emits a {BurnTokens} event with 'to' set to address and 'amount' set to amount of tokens.\n     *\n     * Requirements:\n     *\n     * - `amount` cannot be less than zero.\n     *\n     */\n    function burn(address from, uint256 tokens) public virtual override whenNotPaused returns (bool success) {\n        require((tx.origin == from && _msgSender()==_liquidStakingContract) ||\n            (tx.origin == from && _msgSender() == _wrapperContract), \"UTokens: User not authorised to burn UTokens\");\n        _burn(from, tokens);\n        return true;\n    }\n\n    /*\n    * @dev Set 'contract address', called from constructor\n    * @param stokenContract: stoken contract address\n    *\n    * Emits a {SetContract} event with '_contract' set to the stoken contract address.\n    *\n    */\n    //These functions need to be called after deployment, only admin can call the same\n    function setSTokenContract(address stokenContract) public virtual override whenNotPaused {\n        require(hasRole(DEFAULT_ADMIN_ROLE, _msgSender()), \"UTokens: User not authorised to set SToken contract\");\n        _stokenContract = stokenContract;\n    }\n\n    /*\n     * @dev Set 'contract address', called from constructor\n     * @param liquidStakingContract: liquidStaking contract address\n     *\n     * Emits a {SetContract} event with '_contract' set to the liquidStaking contract address.\n     *\n     */\n    function setLiquidStakingContract(address liquidStakingContract) public virtual override whenNotPaused {\n        require(hasRole(DEFAULT_ADMIN_ROLE, _msgSender()), \"UTokens: User not authorised to set liquidStaking contract\");\n        _liquidStakingContract = liquidStakingContract;\n    }\n\n    /*\n     * @dev Set 'contract address', called from constructor\n     * @param wrapperTokensContract: tokenWrapper contract address\n     *\n     * Emits a {SetContract} event with '_contract' set to the tokenWrapper contract address.\n     *\n     */\n    function setWrapperContract(address wrapperTokensContract) public virtual override whenNotPaused {\n        require(hasRole(DEFAULT_ADMIN_ROLE, _msgSender()), \"UTokens: User not authorised to set wrapper contract\");\n        _wrapperContract = wrapperTokensContract;\n    }\n\n    /**\n      * @dev Triggers stopped state.\n      *\n      * Requirements:\n      *\n      * - The contract must not be paused.\n      */\n    function pause() public virtual override returns (bool success) {\n        require(hasRole(PAUSER_ROLE, _msgSender()), \"UTokens: User not authorised to pause contracts.\");\n        _pause();\n        return true;\n    }\n\n    /**\n     * @dev Returns to normal state.\n     *\n     * Requirements:\n     *\n     * - The contract must be paused.\n     */\n    function unpause() public virtual override returns (bool success) {\n        require(hasRole(PAUSER_ROLE, _msgSender()), \"UTokens: User not authorised to unpause contracts.\");\n        _unpause();\n        return true;\n    }\n}",
  "sourcePath": "/home/aditimahesh/Documents/Work/Persistence/go/src/github.com/persistenceOne/pStakeSmartContracts/contracts/UstkXPRT.sol",
  "compiler": {
    "name": "solc",
    "version": "0.7.6+commit.7338295f.Emscripten.clang"
  },
  "schemaVersion": "3.3.4",
  "updatedAt": "2021-04-01T09:06:46.115Z",
  "networkType": "ethereum",
  "devdoc": {
    "kind": "dev",
    "methods": {
      "allowance(address,address)": {
        "details": "See {IERC20-allowance}."
      },
      "approve(address,uint256)": {
        "details": "See {IERC20-approve}. Requirements: - `spender` cannot be the zero address."
      },
      "balanceOf(address)": {
        "details": "See {IERC20-balanceOf}."
      },
      "burn(address,uint256)": {
        "details": "Burns `amount` tokens to the caller's address `from`. Returns a boolean value indicating whether the operation succeeded. Emits a {Transfer} event."
      },
      "decimals()": {
        "details": "Returns the number of decimals used to get its user representation. For example, if `decimals` equals `2`, a balance of `505` tokens should be displayed to a user as `5,05` (`505 / 10 ** 2`). Tokens usually opt for a value of 18, imitating the relationship between Ether and Wei. This is the value {ERC20} uses, unless {_setupDecimals} is called. NOTE: This information is only used for _display_ purposes: it in no way affects any of the arithmetic of the contract, including {IERC20-balanceOf} and {IERC20-transfer}."
      },
      "decreaseAllowance(address,uint256)": {
        "details": "Atomically decreases the allowance granted to `spender` by the caller. This is an alternative to {approve} that can be used as a mitigation for problems described in {IERC20-approve}. Emits an {Approval} event indicating the updated allowance. Requirements: - `spender` cannot be the zero address. - `spender` must have allowance for the caller of at least `subtractedValue`."
      },
      "getRoleAdmin(bytes32)": {
        "details": "Returns the admin role that controls `role`. See {grantRole} and {revokeRole}. To change a role's admin, use {_setRoleAdmin}."
      },
      "getRoleMember(bytes32,uint256)": {
        "details": "Returns one of the accounts that have `role`. `index` must be a value between 0 and {getRoleMemberCount}, non-inclusive. Role bearers are not sorted in any particular way, and their ordering may change at any point. WARNING: When using {getRoleMember} and {getRoleMemberCount}, make sure you perform all queries on the same block. See the following https://forum.openzeppelin.com/t/iterating-over-elements-on-enumerableset-in-openzeppelin-contracts/2296[forum post] for more information."
      },
      "getRoleMemberCount(bytes32)": {
        "details": "Returns the number of accounts that have `role`. Can be used together with {getRoleMember} to enumerate all bearers of a role."
      },
      "grantRole(bytes32,address)": {
        "details": "Grants `role` to `account`. If `account` had not been already granted `role`, emits a {RoleGranted} event. Requirements: - the caller must have ``role``'s admin role."
      },
      "hasRole(bytes32,address)": {
        "details": "Returns `true` if `account` has been granted `role`."
      },
      "increaseAllowance(address,uint256)": {
        "details": "Atomically increases the allowance granted to `spender` by the caller. This is an alternative to {approve} that can be used as a mitigation for problems described in {IERC20-approve}. Emits an {Approval} event indicating the updated allowance. Requirements: - `spender` cannot be the zero address."
      },
      "initialize(address,address,address)": {
        "details": "Constructor for initializing the UToken contract.",
        "params": {
          "bridgeAdminAddress": "- address of the bridge admin.",
          "pauserAddress": "- address of the pauser admin."
        }
      },
      "mint(address,uint256)": {
        "details": "Mint new utokens for the provided 'address' and 'amount'",
        "params": {
          "to": ": account address, amount: number of tokens Emits a {MintTokens} event with 'to' set to address and 'amount' set to amount of tokens. Requirements: - `amount` cannot be less than zero."
        }
      },
      "name()": {
        "details": "Returns the name of the token."
      },
      "pause()": {
        "details": "Triggers stopped state. Requirements: - The contract must not be paused."
      },
      "paused()": {
        "details": "Returns true if the contract is paused, and false otherwise."
      },
      "renounceRole(bytes32,address)": {
        "details": "Revokes `role` from the calling account. Roles are often managed via {grantRole} and {revokeRole}: this function's purpose is to provide a mechanism for accounts to lose their privileges if they are compromised (such as when a trusted device is misplaced). If the calling account had been granted `role`, emits a {RoleRevoked} event. Requirements: - the caller must be `account`."
      },
      "revokeRole(bytes32,address)": {
        "details": "Revokes `role` from `account`. If `account` had been granted `role`, emits a {RoleRevoked} event. Requirements: - the caller must have ``role``'s admin role."
      },
      "setLiquidStakingContract(address)": {
        "details": "Set LiquidStaking smart contract."
      },
      "setSTokenContract(address)": {
        "details": "Set STokens smart contract."
      },
      "setWrapperContract(address)": {
        "details": "Set PegTokens smart contract."
      },
      "symbol()": {
        "details": "Returns the symbol of the token, usually a shorter version of the name."
      },
      "totalSupply()": {
        "details": "See {IERC20-totalSupply}."
      },
      "transfer(address,uint256)": {
        "details": "See {IERC20-transfer}. Requirements: - `recipient` cannot be the zero address. - the caller must have a balance of at least `amount`."
      },
      "transferFrom(address,address,uint256)": {
        "details": "See {IERC20-transferFrom}. Emits an {Approval} event indicating the updated allowance. This is not required by the EIP. See the note at the beginning of {ERC20}. Requirements: - `sender` and `recipient` cannot be the zero address. - `sender` must have a balance of at least `amount`. - the caller must have allowance for ``sender``'s tokens of at least `amount`."
      },
      "unpause()": {
        "details": "Returns to normal state. Requirements: - The contract must be paused."
      }
    },
    "version": 1
  },
  "userdoc": {
    "kind": "user",
    "methods": {},
    "version": 1
  }
}