{
  "contractName": "UTokensXPRTV2",
  "abi": [
    {
      "anonymous": false,
      "inputs": [
        {
          "indexed": true,
          "internalType": "address",
          "name": "owner",
          "type": "address"
        },
        {
          "indexed": true,
          "internalType": "address",
          "name": "spender",
          "type": "address"
        },
        {
          "indexed": false,
          "internalType": "uint256",
          "name": "value",
          "type": "uint256"
        }
      ],
      "name": "Approval",
      "type": "event"
    },
    {
      "anonymous": false,
      "inputs": [
        {
          "indexed": false,
          "internalType": "address",
          "name": "account",
          "type": "address"
        }
      ],
      "name": "Paused",
      "type": "event"
    },
    {
      "anonymous": false,
      "inputs": [
        {
          "indexed": true,
          "internalType": "bytes32",
          "name": "role",
          "type": "bytes32"
        },
        {
          "indexed": true,
          "internalType": "bytes32",
          "name": "previousAdminRole",
          "type": "bytes32"
        },
        {
          "indexed": true,
          "internalType": "bytes32",
          "name": "newAdminRole",
          "type": "bytes32"
        }
      ],
      "name": "RoleAdminChanged",
      "type": "event"
    },
    {
      "anonymous": false,
      "inputs": [
        {
          "indexed": true,
          "internalType": "bytes32",
          "name": "role",
          "type": "bytes32"
        },
        {
          "indexed": true,
          "internalType": "address",
          "name": "account",
          "type": "address"
        },
        {
          "indexed": true,
          "internalType": "address",
          "name": "sender",
          "type": "address"
        }
      ],
      "name": "RoleGranted",
      "type": "event"
    },
    {
      "anonymous": false,
      "inputs": [
        {
          "indexed": true,
          "internalType": "bytes32",
          "name": "role",
          "type": "bytes32"
        },
        {
          "indexed": true,
          "internalType": "address",
          "name": "account",
          "type": "address"
        },
        {
          "indexed": true,
          "internalType": "address",
          "name": "sender",
          "type": "address"
        }
      ],
      "name": "RoleRevoked",
      "type": "event"
    },
    {
      "anonymous": false,
      "inputs": [
        {
          "indexed": true,
          "internalType": "address",
          "name": "_contract",
          "type": "address"
        }
      ],
      "name": "SetLiquidStakingContract",
      "type": "event"
    },
    {
      "anonymous": false,
      "inputs": [
        {
          "indexed": true,
          "internalType": "address",
          "name": "_contract",
          "type": "address"
        }
      ],
      "name": "SetSTokensContract",
      "type": "event"
    },
    {
      "anonymous": false,
      "inputs": [
        {
          "indexed": true,
          "internalType": "address",
          "name": "_contract",
          "type": "address"
        }
      ],
      "name": "SetWrapperContract",
      "type": "event"
    },
    {
      "anonymous": false,
      "inputs": [
        {
          "indexed": true,
          "internalType": "address",
          "name": "from",
          "type": "address"
        },
        {
          "indexed": true,
          "internalType": "address",
          "name": "to",
          "type": "address"
        },
        {
          "indexed": false,
          "internalType": "uint256",
          "name": "value",
          "type": "uint256"
        }
      ],
      "name": "Transfer",
      "type": "event"
    },
    {
      "anonymous": false,
      "inputs": [
        {
          "indexed": false,
          "internalType": "address",
          "name": "account",
          "type": "address"
        }
      ],
      "name": "Unpaused",
      "type": "event"
    },
    {
      "inputs": [],
      "name": "BRIDGE_ADMIN_ROLE",
      "outputs": [
        {
          "internalType": "bytes32",
          "name": "",
          "type": "bytes32"
        }
      ],
      "stateMutability": "view",
      "type": "function"
    },
    {
      "inputs": [],
      "name": "DEFAULT_ADMIN_ROLE",
      "outputs": [
        {
          "internalType": "bytes32",
          "name": "",
          "type": "bytes32"
        }
      ],
      "stateMutability": "view",
      "type": "function"
    },
    {
      "inputs": [],
      "name": "PAUSER_ROLE",
      "outputs": [
        {
          "internalType": "bytes32",
          "name": "",
          "type": "bytes32"
        }
      ],
      "stateMutability": "view",
      "type": "function"
    },
    {
      "inputs": [],
      "name": "_liquidStakingContract",
      "outputs": [
        {
          "internalType": "address",
          "name": "",
          "type": "address"
        }
      ],
      "stateMutability": "view",
      "type": "function"
    },
    {
      "inputs": [],
      "name": "_stokenContract",
      "outputs": [
        {
          "internalType": "address",
          "name": "",
          "type": "address"
        }
      ],
      "stateMutability": "view",
      "type": "function"
    },
    {
      "inputs": [],
      "name": "_version",
      "outputs": [
        {
          "internalType": "uint256",
          "name": "",
          "type": "uint256"
        }
      ],
      "stateMutability": "view",
      "type": "function"
    },
    {
      "inputs": [],
      "name": "_wrapperContract",
      "outputs": [
        {
          "internalType": "address",
          "name": "",
          "type": "address"
        }
      ],
      "stateMutability": "view",
      "type": "function"
    },
    {
      "inputs": [
        {
          "internalType": "address",
          "name": "owner",
          "type": "address"
        },
        {
          "internalType": "address",
          "name": "spender",
          "type": "address"
        }
      ],
      "name": "allowance",
      "outputs": [
        {
          "internalType": "uint256",
          "name": "",
          "type": "uint256"
        }
      ],
      "stateMutability": "view",
      "type": "function"
    },
    {
      "inputs": [
        {
          "internalType": "address",
          "name": "spender",
          "type": "address"
        },
        {
          "internalType": "uint256",
          "name": "amount",
          "type": "uint256"
        }
      ],
      "name": "approve",
      "outputs": [
        {
          "internalType": "bool",
          "name": "",
          "type": "bool"
        }
      ],
      "stateMutability": "nonpayable",
      "type": "function"
    },
    {
      "inputs": [
        {
          "internalType": "address",
          "name": "account",
          "type": "address"
        }
      ],
      "name": "balanceOf",
      "outputs": [
        {
          "internalType": "uint256",
          "name": "",
          "type": "uint256"
        }
      ],
      "stateMutability": "view",
      "type": "function"
    },
    {
      "inputs": [],
      "name": "decimals",
      "outputs": [
        {
          "internalType": "uint8",
          "name": "",
          "type": "uint8"
        }
      ],
      "stateMutability": "view",
      "type": "function"
    },
    {
      "inputs": [
        {
          "internalType": "address",
          "name": "spender",
          "type": "address"
        },
        {
          "internalType": "uint256",
          "name": "subtractedValue",
          "type": "uint256"
        }
      ],
      "name": "decreaseAllowance",
      "outputs": [
        {
          "internalType": "bool",
          "name": "",
          "type": "bool"
        }
      ],
      "stateMutability": "nonpayable",
      "type": "function"
    },
    {
      "inputs": [
        {
          "internalType": "bytes32",
          "name": "role",
          "type": "bytes32"
        }
      ],
      "name": "getRoleAdmin",
      "outputs": [
        {
          "internalType": "bytes32",
          "name": "",
          "type": "bytes32"
        }
      ],
      "stateMutability": "view",
      "type": "function"
    },
    {
      "inputs": [
        {
          "internalType": "bytes32",
          "name": "role",
          "type": "bytes32"
        },
        {
          "internalType": "uint256",
          "name": "index",
          "type": "uint256"
        }
      ],
      "name": "getRoleMember",
      "outputs": [
        {
          "internalType": "address",
          "name": "",
          "type": "address"
        }
      ],
      "stateMutability": "view",
      "type": "function"
    },
    {
      "inputs": [
        {
          "internalType": "bytes32",
          "name": "role",
          "type": "bytes32"
        }
      ],
      "name": "getRoleMemberCount",
      "outputs": [
        {
          "internalType": "uint256",
          "name": "",
          "type": "uint256"
        }
      ],
      "stateMutability": "view",
      "type": "function"
    },
    {
      "inputs": [
        {
          "internalType": "bytes32",
          "name": "role",
          "type": "bytes32"
        },
        {
          "internalType": "address",
          "name": "account",
          "type": "address"
        }
      ],
      "name": "grantRole",
      "outputs": [],
      "stateMutability": "nonpayable",
      "type": "function"
    },
    {
      "inputs": [
        {
          "internalType": "bytes32",
          "name": "role",
          "type": "bytes32"
        },
        {
          "internalType": "address",
          "name": "account",
          "type": "address"
        }
      ],
      "name": "hasRole",
      "outputs": [
        {
          "internalType": "bool",
          "name": "",
          "type": "bool"
        }
      ],
      "stateMutability": "view",
      "type": "function"
    },
    {
      "inputs": [
        {
          "internalType": "address",
          "name": "spender",
          "type": "address"
        },
        {
          "internalType": "uint256",
          "name": "addedValue",
          "type": "uint256"
        }
      ],
      "name": "increaseAllowance",
      "outputs": [
        {
          "internalType": "bool",
          "name": "",
          "type": "bool"
        }
      ],
      "stateMutability": "nonpayable",
      "type": "function"
    },
    {
      "inputs": [],
      "name": "paused",
      "outputs": [
        {
          "internalType": "bool",
          "name": "",
          "type": "bool"
        }
      ],
      "stateMutability": "view",
      "type": "function"
    },
    {
      "inputs": [
        {
          "internalType": "bytes32",
          "name": "role",
          "type": "bytes32"
        },
        {
          "internalType": "address",
          "name": "account",
          "type": "address"
        }
      ],
      "name": "renounceRole",
      "outputs": [],
      "stateMutability": "nonpayable",
      "type": "function"
    },
    {
      "inputs": [
        {
          "internalType": "bytes32",
          "name": "role",
          "type": "bytes32"
        },
        {
          "internalType": "address",
          "name": "account",
          "type": "address"
        }
      ],
      "name": "revokeRole",
      "outputs": [],
      "stateMutability": "nonpayable",
      "type": "function"
    },
    {
      "inputs": [],
      "name": "symbol",
      "outputs": [
        {
          "internalType": "string",
          "name": "",
          "type": "string"
        }
      ],
      "stateMutability": "view",
      "type": "function"
    },
    {
      "inputs": [],
      "name": "totalSupply",
      "outputs": [
        {
          "internalType": "uint256",
          "name": "",
          "type": "uint256"
        }
      ],
      "stateMutability": "view",
      "type": "function"
    },
    {
      "inputs": [
        {
          "internalType": "address",
          "name": "recipient",
          "type": "address"
        },
        {
          "internalType": "uint256",
          "name": "amount",
          "type": "uint256"
        }
      ],
      "name": "transfer",
      "outputs": [
        {
          "internalType": "bool",
          "name": "",
          "type": "bool"
        }
      ],
      "stateMutability": "nonpayable",
      "type": "function"
    },
    {
      "inputs": [
        {
          "internalType": "address",
          "name": "sender",
          "type": "address"
        },
        {
          "internalType": "address",
          "name": "recipient",
          "type": "address"
        },
        {
          "internalType": "uint256",
          "name": "amount",
          "type": "uint256"
        }
      ],
      "name": "transferFrom",
      "outputs": [
        {
          "internalType": "bool",
          "name": "",
          "type": "bool"
        }
      ],
      "stateMutability": "nonpayable",
      "type": "function"
    },
    {
      "inputs": [
        {
          "internalType": "string",
          "name": "tokenName",
          "type": "string"
        },
        {
          "internalType": "string",
          "name": "tokenSymbol",
          "type": "string"
        },
        {
          "internalType": "address",
          "name": "bridgeAdminAddress",
          "type": "address"
        },
        {
          "internalType": "address",
          "name": "pauserAddress",
          "type": "address"
        }
      ],
      "name": "initialize",
      "outputs": [],
      "stateMutability": "nonpayable",
      "type": "function"
    },
    {
      "inputs": [
        {
          "internalType": "string",
          "name": "tokenName",
          "type": "string"
        }
      ],
      "name": "upgradeVersionInitV2",
      "outputs": [
        {
          "internalType": "bool",
          "name": "success",
          "type": "bool"
        }
      ],
      "stateMutability": "nonpayable",
      "type": "function"
    },
    {
      "inputs": [],
      "name": "name",
      "outputs": [
        {
          "internalType": "string",
          "name": "",
          "type": "string"
        }
      ],
      "stateMutability": "view",
      "type": "function"
    },
    {
      "inputs": [
        {
          "internalType": "address",
          "name": "to",
          "type": "address"
        },
        {
          "internalType": "uint256",
          "name": "tokens",
          "type": "uint256"
        }
      ],
      "name": "mint",
      "outputs": [
        {
          "internalType": "bool",
          "name": "success",
          "type": "bool"
        }
      ],
      "stateMutability": "nonpayable",
      "type": "function"
    },
    {
      "inputs": [
        {
          "internalType": "address",
          "name": "from",
          "type": "address"
        },
        {
          "internalType": "uint256",
          "name": "tokens",
          "type": "uint256"
        }
      ],
      "name": "burn",
      "outputs": [
        {
          "internalType": "bool",
          "name": "success",
          "type": "bool"
        }
      ],
      "stateMutability": "nonpayable",
      "type": "function"
    },
    {
      "inputs": [
        {
          "internalType": "address",
          "name": "stokenContract",
          "type": "address"
        }
      ],
      "name": "setSTokenContract",
      "outputs": [],
      "stateMutability": "nonpayable",
      "type": "function"
    },
    {
      "inputs": [
        {
          "internalType": "address",
          "name": "liquidStakingContract",
          "type": "address"
        }
      ],
      "name": "setLiquidStakingContract",
      "outputs": [],
      "stateMutability": "nonpayable",
      "type": "function"
    },
    {
      "inputs": [
        {
          "internalType": "address",
          "name": "wrapperTokensContract",
          "type": "address"
        }
      ],
      "name": "setWrapperContract",
      "outputs": [],
      "stateMutability": "nonpayable",
      "type": "function"
    },
    {
      "inputs": [],
      "name": "pause",
      "outputs": [
        {
          "internalType": "bool",
          "name": "success",
          "type": "bool"
        }
      ],
      "stateMutability": "nonpayable",
      "type": "function"
    },
    {
      "inputs": [],
      "name": "unpause",
      "outputs": [
        {
          "internalType": "bool",
          "name": "success",
          "type": "bool"
        }
      ],
      "stateMutability": "nonpayable",
      "type": "function"
    }
  ],
  "bytecode": "0x608060405234801561001057600080fd5b506123e6806100206000396000f3fe608060405234801561001057600080fd5b50600436106102105760003560e01c80635c975abb11610125578063a217fddf116100ad578063cc964d081161007c578063cc964d08146106b0578063d547741f14610720578063dd62ed3e1461074c578063e63ab1e91461077a578063e8cb78441461078257610210565b8063a217fddf14610633578063a457c2d71461063b578063a9059cbb14610667578063ca15c8731461069357610210565b80638f15b414116100f45780638f15b414146104dd5780639010d07c146105b057806391d14854146105d357806395d89b41146105ff5780639dc29fac1461060757610210565b80635c975abb1461049f57806370a08231146104a7578063793105d8146104cd5780638456cb59146104d557610210565b8063313ce567116101a85780633e118dbe116101775780633e118dbe146104175780633f4ba83a1461041f57806340c10f19146104275780634e5581271461045357806358f8943e1461047957610210565b8063313ce5671461039957806336568abe146103b757806339509351146103e35780633c3d34201461040f57610210565b806318160ddd116101e457806318160ddd1461031057806323b872dd14610318578063248a9ca31461034e5780632f2ff15d1461036b57610210565b8062b833be1461021557806306fdde0314610239578063095ea7b3146102b6578063118c38c7146102f6575b600080fd5b61021d6107a8565b604080516001600160a01b039092168252519081900360200190f35b6102416107b7565b6040805160208082528351818301528351919283929083019185019080838360005b8381101561027b578181015183820152602001610263565b50505050905090810190601f1680156102a85780820380516001836020036101000a031916815260200191505b509250505060405180910390f35b6102e2600480360360408110156102cc57600080fd5b506001600160a01b03813516906020013561084d565b604080519115158252519081900360200190f35b6102fe61086b565b60408051918252519081900360200190f35b6102fe61088f565b6102e26004803603606081101561032e57600080fd5b506001600160a01b03813581169160208101359091169060400135610895565b6102fe6004803603602081101561036457600080fd5b503561091c565b6103976004803603604081101561038157600080fd5b50803590602001356001600160a01b0316610931565b005b6103a161099d565b6040805160ff9092168252519081900360200190f35b610397600480360360408110156103cd57600080fd5b50803590602001356001600160a01b03166109a6565b6102e2600480360360408110156103f957600080fd5b506001600160a01b038135169060200135610a07565b61021d610a55565b6102fe610a64565b6102e2610a6a565b6102e26004803603604081101561043d57600080fd5b506001600160a01b038135169060200135610acb565b6103976004803603602081101561046957600080fd5b50356001600160a01b0316610ba8565b6103976004803603602081101561048f57600080fd5b50356001600160a01b0316610c36565b6102e2610cc4565b6102fe600480360360208110156104bd57600080fd5b50356001600160a01b0316610ccd565b61021d610ce8565b6102e2610cf7565b610397600480360360808110156104f357600080fd5b81019060208101813564010000000081111561050e57600080fd5b82018360208201111561052057600080fd5b8035906020019184600183028401116401000000008311171561054257600080fd5b91939092909160208101903564010000000081111561056057600080fd5b82018360208201111561057257600080fd5b8035906020019184600183028401116401000000008311171561059457600080fd5b91935091506001600160a01b0381358116916020013516610d52565b61021d600480360360408110156105c657600080fd5b5080359060200135610edb565b6102e2600480360360408110156105e957600080fd5b50803590602001356001600160a01b0316610efa565b610241610f12565b6102e26004803603604081101561061d57600080fd5b506001600160a01b038135169060200135610f73565b6102fe610ffa565b6102e26004803603604081101561065157600080fd5b506001600160a01b038135169060200135610fff565b6102e26004803603604081101561067d57600080fd5b506001600160a01b038135169060200135611067565b6102fe600480360360208110156106a957600080fd5b503561107b565b6102e2600480360360208110156106c657600080fd5b8101906020810181356401000000008111156106e157600080fd5b8201836020820111156106f357600080fd5b8035906020019184600183028401116401000000008311171561071557600080fd5b509092509050611092565b6103976004803603604081101561073657600080fd5b50803590602001356001600160a01b0316611129565b6102fe6004803603604081101561076257600080fd5b506001600160a01b0381358116916020013516611182565b6102fe6111ad565b6103976004803603602081101561079857600080fd5b50356001600160a01b03166111bf565b60cb546001600160a01b031681565b60cd8054604080516020601f60026000196101006001881615020190951694909404938401819004810282018101909252828152606093909290918301828280156108435780601f1061081857610100808354040283529160200191610843565b820191906000526020600020905b81548152906001019060200180831161082657829003601f168201915b5050505050905090565b600061086161085a61124d565b8484611251565b5060015b92915050565b7f751b795d24b92e3d92d1d0d8f2885f4e9c9c269da350af36ae6b49069babf4bf81565b60355490565b60006108a284848461133d565b610912846108ae61124d565b61090d856040518060600160405280602881526020016122ab602891396001600160a01b038a166000908152603460205260408120906108ec61124d565b6001600160a01b03168152602081019190915260400160002054919061149a565b611251565b5060019392505050565b60009081526097602052604090206002015490565b6000828152609760205260409020600201546109549061094f61124d565b610efa565b61098f5760405162461bcd60e51b815260040180806020018281038252602f8152602001806121b4602f913960400191505060405180910390fd5b6109998282611531565b5050565b60385460ff1690565b6109ae61124d565b6001600160a01b0316816001600160a01b0316146109fd5760405162461bcd60e51b815260040180806020018281038252602f815260200180612382602f913960400191505060405180910390fd5b610999828261159a565b6000610861610a1461124d565b8461090d8560346000610a2561124d565b6001600160a01b03908116825260208083019390935260409182016000908120918c168152925290205490611603565b60c9546001600160a01b031681565b60cc5481565b6000610a866000805160206122d383398151915261094f61124d565b610abd576040805162461bcd60e51b815260206004820152600360248201526255543760e81b604482015290519081900360640190fd5b610ac561165d565b50600190565b6000610af77f751b795d24b92e3d92d1d0d8f2885f4e9c9c269da350af36ae6b49069babf4bf32610efa565b8015610b1d575060cb546001600160a01b0316610b1261124d565b6001600160a01b0316145b80610b42575060c9546001600160a01b0316610b3761124d565b6001600160a01b0316145b80610b67575060ca546001600160a01b0316610b5c61124d565b6001600160a01b0316145b610b9e576040805162461bcd60e51b815260206004820152600360248201526255543160e81b604482015290519081900360640190fd5b61086183836116fd565b610bb5600061094f61124d565b610bec576040805162461bcd60e51b815260206004820152600360248201526255543560e81b604482015290519081900360640190fd5b60cb80546001600160a01b0319166001600160a01b0383169081179091556040517fe64d0ea1a8162224d25416ba9164fe1dae6ec14e9f846220b287c0c1c9413e0590600090a250565b610c43600061094f61124d565b610c7a576040805162461bcd60e51b815260206004820152600360248201526215550d60ea1b604482015290519081900360640190fd5b60ca80546001600160a01b0319166001600160a01b0383169081179091556040517f57fded54c0f01b7b2c662bd89530d6916e48149e02da384db87d1a67306be87190600090a250565b60655460ff1690565b6001600160a01b031660009081526033602052604090205490565b60ca546001600160a01b031681565b6000610d136000805160206122d383398151915261094f61124d565b610d4a576040805162461bcd60e51b81526020600482015260036024820152622aaa1b60e91b604482015290519081900360640190fd5b610ac56117ef565b600054610100900460ff1680610d6b5750610d6b611872565b80610d79575060005460ff16155b610db45760405162461bcd60e51b815260040180806020018281038252602e81526020018061227d602e913960400191505060405180910390fd5b600054610100900460ff16158015610ddf576000805460ff1961ff0019909116610100171660011790555b610e5287878080601f01602080910402602001604051908101604052809392919081815260200183838082843760009201919091525050604080516020601f8b01819004810282018101909252898152925089915088908190840183828082843760009201919091525061188392505050565b610e5a611939565b610e626119eb565b610e746000610e6f61124d565b61098f565b610e9e7f751b795d24b92e3d92d1d0d8f2885f4e9c9c269da350af36ae6b49069babf4bf8461098f565b610eb66000805160206122d38339815191528361098f565b610ec06006611a88565b8015610ed2576000805461ff00191690555b50505050505050565b6000828152609760205260408120610ef39083611a9e565b9392505050565b6000828152609760205260408120610ef39083611aaa565b60378054604080516020601f60026000196101006001881615020190951694909404938401819004810282018101909252828152606093909290918301828280156108435780601f1061081857610100808354040283529160200191610843565b60ca546000906001600160a01b0316610f8a61124d565b6001600160a01b03161480610fb9575060cb546001600160a01b0316610fae61124d565b6001600160a01b0316145b610ff0576040805162461bcd60e51b81526020600482015260036024820152622aaa1960e91b604482015290519081900360640190fd5b6108618383611abf565b600081565b600061086161100c61124d565b8461090d8560405180606001604052806025815260200161235d602591396034600061103661124d565b6001600160a01b03908116825260208083019390935260409182016000908120918d1681529252902054919061149a565b600061086161107461124d565b848461133d565b600081815260976020526040812061086590611bbb565b6000600260cc54106110d1576040805162461bcd60e51b815260206004820152600360248201526255543960e81b604482015290519081900360640190fd5b6110de600061094f61124d565b611118576040805162461bcd60e51b815260206004808301919091526024820152630555431360e41b604482015290519081900360640190fd5b600260cc5561091260cd8484612051565b6000828152609760205260409020600201546111479061094f61124d565b6109fd5760405162461bcd60e51b815260040180806020018281038252603081526020018061224d6030913960400191505060405180910390fd5b6001600160a01b03918216600090815260346020908152604080832093909416825291909152205490565b6000805160206122d383398151915281565b6111cc600061094f61124d565b611203576040805162461bcd60e51b815260206004820152600360248201526255543360e81b604482015290519081900360640190fd5b60c980546001600160a01b0319166001600160a01b0383169081179091556040517fd0b9dbe26f676f4cdb02fc249c203baa0314cec79e18b4194dc862795a5de03f90600090a250565b3390565b6001600160a01b0383166112965760405162461bcd60e51b81526004018080602001828103825260248152602001806123396024913960400191505060405180910390fd5b6001600160a01b0382166112db5760405162461bcd60e51b81526004018080602001828103825260228152602001806122056022913960400191505060405180910390fd5b6001600160a01b03808416600081815260346020908152604080832094871680845294825291829020859055815185815291517f8c5be1e5ebec7d5bd14f71427d1e84f3dd0314c0f7b2291e5b200ac8c7c3b9259281900390910190a3505050565b6001600160a01b0383166113825760405162461bcd60e51b81526004018080602001828103825260258152602001806123146025913960400191505060405180910390fd5b6001600160a01b0382166113c75760405162461bcd60e51b81526004018080602001828103825260238152602001806121916023913960400191505060405180910390fd5b6113d2838383611bc6565b61140f81604051806060016040528060268152602001612227602691396001600160a01b038616600090815260336020526040902054919061149a565b6001600160a01b03808516600090815260336020526040808220939093559084168152205461143e9082611603565b6001600160a01b0380841660008181526033602090815260409182902094909455805185815290519193928716927fddf252ad1be2c89b69c2b068fc378daa952ba7f163c4a11628f55a4df523b3ef92918290030190a3505050565b600081848411156115295760405162461bcd60e51b81526004018080602001828103825283818151815260200191508051906020019080838360005b838110156114ee5781810151838201526020016114d6565b50505050905090810190601f16801561151b5780820380516001836020036101000a031916815260200191505b509250505060405180910390fd5b505050900390565b60008281526097602052604090206115499082611c11565b156109995761155661124d565b6001600160a01b0316816001600160a01b0316837f2f8788117e7eff1d82e926ec794901d17c78024a50270940304540a733656f0d60405160405180910390a45050565b60008281526097602052604090206115b29082611c26565b15610999576115bf61124d565b6001600160a01b0316816001600160a01b0316837ff6391f5c32d9c69d2a47ea670b442974b53935d1edc7fd64eb21e047a839171b60405160405180910390a45050565b600082820183811015610ef3576040805162461bcd60e51b815260206004820152601b60248201527f536166654d6174683a206164646974696f6e206f766572666c6f770000000000604482015290519081900360640190fd5b611665610cc4565b6116ad576040805162461bcd60e51b815260206004820152601460248201527314185d5cd8589b194e881b9bdd081c185d5cd95960621b604482015290519081900360640190fd5b6065805460ff191690557f5db9ee0a495bf2e6ff9c91a7834c1ba4fdd244a5e8aa4e537bd38aeae4b073aa6116e061124d565b604080516001600160a01b039092168252519081900360200190a1565b6001600160a01b038216611758576040805162461bcd60e51b815260206004820152601f60248201527f45524332303a206d696e7420746f20746865207a65726f206164647265737300604482015290519081900360640190fd5b61176460008383611bc6565b6035546117719082611603565b6035556001600160a01b0382166000908152603360205260409020546117979082611603565b6001600160a01b03831660008181526033602090815260408083209490945583518581529351929391927fddf252ad1be2c89b69c2b068fc378daa952ba7f163c4a11628f55a4df523b3ef9281900390910190a35050565b6117f7610cc4565b1561183c576040805162461bcd60e51b815260206004820152601060248201526f14185d5cd8589b194e881c185d5cd95960821b604482015290519081900360640190fd5b6065805460ff191660011790557f62e78cea01bee320cd4e420270b5ea74000d11b0c9f74754ebdbfc544b05a2586116e061124d565b600061187d30611c3b565b15905090565b600054610100900460ff168061189c575061189c611872565b806118aa575060005460ff16155b6118e55760405162461bcd60e51b815260040180806020018281038252602e81526020018061227d602e913960400191505060405180910390fd5b600054610100900460ff16158015611910576000805460ff1961ff0019909116610100171660011790555b611918611c41565b6119228383611ce1565b8015611934576000805461ff00191690555b505050565b600054610100900460ff16806119525750611952611872565b80611960575060005460ff16155b61199b5760405162461bcd60e51b815260040180806020018281038252602e81526020018061227d602e913960400191505060405180910390fd5b600054610100900460ff161580156119c6576000805460ff1961ff0019909116610100171660011790555b6119ce611c41565b6119d6611c41565b80156119e8576000805461ff00191690555b50565b600054610100900460ff1680611a045750611a04611872565b80611a12575060005460ff16155b611a4d5760405162461bcd60e51b815260040180806020018281038252602e81526020018061227d602e913960400191505060405180910390fd5b600054610100900460ff16158015611a78576000805460ff1961ff0019909116610100171660011790555b611a80611c41565b6119d6611db9565b6038805460ff191660ff92909216919091179055565b6000610ef38383611e64565b6000610ef3836001600160a01b038416611ec8565b6001600160a01b038216611b045760405162461bcd60e51b81526004018080602001828103825260218152602001806122f36021913960400191505060405180910390fd5b611b1082600083611bc6565b611b4d816040518060600160405280602281526020016121e3602291396001600160a01b038516600090815260336020526040902054919061149a565b6001600160a01b038316600090815260336020526040902055603554611b739082611ee0565b6035556040805182815290516000916001600160a01b038516917fddf252ad1be2c89b69c2b068fc378daa952ba7f163c4a11628f55a4df523b3ef9181900360200190a35050565b600061086582611f3d565b611bce610cc4565b15611c06576040805162461bcd60e51b81526020600482015260036024820152620aaa8760eb1b604482015290519081900360640190fd5b611934838383611934565b6000610ef3836001600160a01b038416611f41565b6000610ef3836001600160a01b038416611f8b565b3b151590565b600054610100900460ff1680611c5a5750611c5a611872565b80611c68575060005460ff16155b611ca35760405162461bcd60e51b815260040180806020018281038252602e81526020018061227d602e913960400191505060405180910390fd5b600054610100900460ff161580156119d6576000805460ff1961ff00199091166101001716600117905580156119e8576000805461ff001916905550565b600054610100900460ff1680611cfa5750611cfa611872565b80611d08575060005460ff16155b611d435760405162461bcd60e51b815260040180806020018281038252602e81526020018061227d602e913960400191505060405180910390fd5b600054610100900460ff16158015611d6e576000805460ff1961ff0019909116610100171660011790555b8251611d819060369060208601906120dd565b508151611d959060379060208501906120dd565b506038805460ff191660121790558015611934576000805461ff0019169055505050565b600054610100900460ff1680611dd25750611dd2611872565b80611de0575060005460ff16155b611e1b5760405162461bcd60e51b815260040180806020018281038252602e81526020018061227d602e913960400191505060405180910390fd5b600054610100900460ff16158015611e46576000805460ff1961ff0019909116610100171660011790555b6065805460ff1916905580156119e8576000805461ff001916905550565b81546000908210611ea65760405162461bcd60e51b815260040180806020018281038252602281526020018061216f6022913960400191505060405180910390fd5b826000018281548110611eb557fe5b9060005260206000200154905092915050565b60009081526001919091016020526040902054151590565b600082821115611f37576040805162461bcd60e51b815260206004820152601e60248201527f536166654d6174683a207375627472616374696f6e206f766572666c6f770000604482015290519081900360640190fd5b50900390565b5490565b6000611f4d8383611ec8565b611f8357508154600181810184556000848152602080822090930184905584548482528286019093526040902091909155610865565b506000610865565b600081815260018301602052604081205480156120475783546000198083019190810190600090879083908110611fbe57fe5b9060005260206000200154905080876000018481548110611fdb57fe5b60009182526020808320909101929092558281526001898101909252604090209084019055865487908061200b57fe5b60019003818190600052602060002001600090559055866001016000878152602001908152602001600020600090556001945050505050610865565b6000915050610865565b828054600181600116156101000203166002900490600052602060002090601f01602090048101928261208757600085556120cd565b82601f106120a05782800160ff198235161785556120cd565b828001600101855582156120cd579182015b828111156120cd5782358255916020019190600101906120b2565b506120d9929150612159565b5090565b828054600181600116156101000203166002900490600052602060002090601f01602090048101928261211357600085556120cd565b82601f1061212c57805160ff19168380011785556120cd565b828001600101855582156120cd579182015b828111156120cd57825182559160200191906001019061213e565b5b808211156120d9576000815560010161215a56fe456e756d657261626c655365743a20696e646578206f7574206f6620626f756e647345524332303a207472616e7366657220746f20746865207a65726f2061646472657373416363657373436f6e74726f6c3a2073656e646572206d75737420626520616e2061646d696e20746f206772616e7445524332303a206275726e20616d6f756e7420657863656564732062616c616e636545524332303a20617070726f766520746f20746865207a65726f206164647265737345524332303a207472616e7366657220616d6f756e7420657863656564732062616c616e6365416363657373436f6e74726f6c3a2073656e646572206d75737420626520616e2061646d696e20746f207265766f6b65496e697469616c697a61626c653a20636f6e747261637420697320616c726561647920696e697469616c697a656445524332303a207472616e7366657220616d6f756e74206578636565647320616c6c6f77616e636565d7a28e3265b37a6474929f336521b332c1681b933f6cb9f3376673440d862a45524332303a206275726e2066726f6d20746865207a65726f206164647265737345524332303a207472616e736665722066726f6d20746865207a65726f206164647265737345524332303a20617070726f76652066726f6d20746865207a65726f206164647265737345524332303a2064656372656173656420616c6c6f77616e63652062656c6f77207a65726f416363657373436f6e74726f6c3a2063616e206f6e6c792072656e6f756e636520726f6c657320666f722073656c66a2646970667358221220c50a56a0efa071752f32d575cbbbbdee0b46606330420df9a9ea8ee9b31daec364736f6c63430007060033",
  "immutableReferences": {},
  "source": "/*\n Copyright [2019] - [2021], PERSISTENCE TECHNOLOGIES PTE. LTD. and the pStake-smartContracts contributors\n SPDX-License-Identifier: Apache-2.0\n*/\n\npragma solidity >=0.7.0;\n\nimport \"@openzeppelin/contracts-upgradeable/token/ERC20/ERC20Upgradeable.sol\";\nimport \"@openzeppelin/contracts-upgradeable/utils/PausableUpgradeable.sol\";\nimport \"@openzeppelin/contracts-upgradeable/access/AccessControlUpgradeable.sol\";\nimport \"./interfaces/IUTokensXPRT.sol\";\n\ncontract UTokensXPRTV2 is\nERC20Upgradeable,\nIUTokensXPRT,\nPausableUpgradeable,\nAccessControlUpgradeable\n{\n\t// constants defining access control ROLES\n\tbytes32 public constant BRIDGE_ADMIN_ROLE = keccak256(\"BRIDGE_ADMIN_ROLE\");\n\tbytes32 public constant PAUSER_ROLE = keccak256(\"PAUSER_ROLE\");\n\n\t// variables capturing data of other contracts in the product\n\taddress public _stokenContract;\n\taddress public _liquidStakingContract;\n\taddress public _wrapperContract;\n\n\t// variable pertaining to contract upgrades versioning\n\tuint256 public _version;\n\n\t// updated name variable\n\tstring private _name;\n\n\t/**\n\t * @dev Constructor for initializing the UToken contract.\n\t * @param tokenName - token name for UToken contract.\n\t * @param tokenSymbol - token symbol for UToken contract.\n\t * @param bridgeAdminAddress - address of the bridge admin.\n\t * @param pauserAddress - address of the pauser admin.\n\t */\n\tfunction initialize(\n\t\tstring calldata tokenName,\n\t\tstring calldata tokenSymbol,\n\t\taddress bridgeAdminAddress,\n\t\taddress pauserAddress\n\t) public virtual initializer {\n\t\t__ERC20_init(tokenName, tokenSymbol);\n\t\t__AccessControl_init();\n\t\t__Pausable_init();\n\t\t_setupRole(DEFAULT_ADMIN_ROLE, _msgSender());\n\t\t_setupRole(BRIDGE_ADMIN_ROLE, bridgeAdminAddress);\n\t\t_setupRole(PAUSER_ROLE, pauserAddress);\n\t\t_setupDecimals(6);\n\t}\n\n\t/**\n\t * @dev Upgrading version and token name\n\t *\n\t */\n\tfunction upgradeVersionInitV2(string calldata tokenName)\n\tpublic\n\treturns (bool success)\n\t{\n\t\trequire(_version < 2, \"UT9\");\n\t\trequire(hasRole(DEFAULT_ADMIN_ROLE, _msgSender()), \"UT10\");\n\t\t_version = 2;\n\t\t_name = tokenName;\n\t\tsuccess = true;\n\t}\n\n\t/**\n\t * @dev Returns the name of the token.\n\t */\n\tfunction name() public view virtual override returns (string memory) {\n\t\treturn _name;\n\t}\n\n\t/**\n\t * @dev Mint new utokens for the provided 'address' and 'amount'\n\t * @param to: account address, tokens: number of tokens\n\t *\n\t * Emits a {MintTokens} event with 'to' set to address and 'tokens' set to amount of tokens.\n\t *\n\t * Requirements:\n\t *\n\t * - `amount` cannot be less than zero.\n\t *\n\t */\n\tfunction mint(address to, uint256 tokens)\n\tpublic\n\tvirtual\n\toverride\n\treturns (bool success)\n\t{\n\t\trequire(\n\t\t\t(hasRole(BRIDGE_ADMIN_ROLE, tx.origin) &&\n\t\t\t_msgSender() == _wrapperContract) || // minted by bridge\n\t\t\t_msgSender() == _stokenContract || // minted by STokens contract during reward generation\n\t\t\t_msgSender() == _liquidStakingContract,\n\t\t\t\"UT1\"\n\t\t); // minted by LS contract withdrawUnstakedTokens()\n\n\t\t_mint(to, tokens);\n\t\treturn true;\n\t}\n\n\t/*\n\t * @dev Burn utokens for the provided 'address' and 'amount'\n\t * @param from: account address, tokens: number of tokens\n\t *\n\t * Emits a {BurnTokens} event with 'from' set to address and 'tokens' set to amount of tokens.\n\t *\n\t * Requirements:\n\t *\n\t * - `amount` cannot be less than zero.\n\t *\n\t */\n\tfunction burn(address from, uint256 tokens)\n\tpublic\n\tvirtual\n\toverride\n\treturns (bool success)\n\t{\n\t\trequire(\n\t\t\t_msgSender() == _liquidStakingContract || // staking operation\n\t\t\t_msgSender() == _wrapperContract,\n\t\t\t\"UT2\"\n\t\t); // unwrap operation\n\n\t\t_burn(from, tokens);\n\t\treturn true;\n\t}\n\n\t/*\n\t * @dev Set 'contract address', called for stokens smart contract\n\t * @param stokenContract: stoken contract address\n\t *\n\t * Emits a {SetSTokensContract} event with '_contract' set to the stoken contract address.\n\t *\n\t */\n\t//These functions need to be called after deployment, only admin can call the same\n\tfunction setSTokenContract(address stokenContract) public virtual override {\n\t\trequire(hasRole(DEFAULT_ADMIN_ROLE, _msgSender()), \"UT3\");\n\t\t_stokenContract = stokenContract;\n\t\temit SetSTokensContract(stokenContract);\n\t}\n\n\t/*\n\t * @dev Set 'contract address', for liquid staking smart contract\n\t * @param liquidStakingContract: liquidStaking contract address\n\t *\n\t * Emits a {SetLiquidStakingContract} event with '_contract' set to the liquidStaking contract address.\n\t *\n\t */\n\tfunction setLiquidStakingContract(address liquidStakingContract)\n\tpublic\n\tvirtual\n\toverride\n\t{\n\t\trequire(hasRole(DEFAULT_ADMIN_ROLE, _msgSender()), \"UT4\");\n\t\t_liquidStakingContract = liquidStakingContract;\n\t\temit SetLiquidStakingContract(liquidStakingContract);\n\t}\n\n\t/*\n\t * @dev Set 'contract address', called for token wrapper smart contract\n\t * @param wrapperTokensContract: tokenWrapper contract address\n\t *\n\t * Emits a {SetWrapperContract} event with '_contract' set to the tokenWrapper contract address.\n\t *\n\t */\n\tfunction setWrapperContract(address wrapperTokensContract)\n\tpublic\n\tvirtual\n\toverride\n\t{\n\t\trequire(hasRole(DEFAULT_ADMIN_ROLE, _msgSender()), \"UT5\");\n\t\t_wrapperContract = wrapperTokensContract;\n\t\temit SetWrapperContract(wrapperTokensContract);\n\t}\n\n\t/**\n\t * @dev Triggers stopped state.\n\t *\n\t * Requirements:\n\t *\n\t * - The contract must not be paused.\n\t */\n\tfunction pause() public virtual override returns (bool success) {\n\t\trequire(hasRole(PAUSER_ROLE, _msgSender()), \"UT6\");\n\t\t_pause();\n\t\treturn true;\n\t}\n\n\t/**\n\t * @dev Returns to normal state.\n\t *\n\t * Requirements:\n\t *\n\t * - The contract must be paused.\n\t */\n\tfunction unpause() public virtual override returns (bool success) {\n\t\trequire(hasRole(PAUSER_ROLE, _msgSender()), \"UT7\");\n\t\t_unpause();\n\t\treturn true;\n\t}\n\n\t/**\n\t * @dev Hook that is called before any transfer of tokens. This includes\n\t * minting and burning.\n\t *\n\t * Calling conditions:\n\t *\n\t * - when `from` and `to` are both non-zero, `amount` of ``from``'s tokens\n\t * will be to transferred to `to`.\n\t * - when `from` is zero, `amount` tokens will be minted for `to`.\n\t * - when `to` is zero, `amount` of ``from``'s tokens will be burned.\n\t * - `from` and `to` are never both zero.\n\t *\n\t */\n\tfunction _beforeTokenTransfer(\n\t\taddress from,\n\t\taddress to,\n\t\tuint256 amount\n\t) internal virtual override {\n\t\trequire(!paused(), \"UT8\");\n\t\tsuper._beforeTokenTransfer(from, to, amount);\n\t}\n}",
  "sourcePath": "/home/aditimahesh/Documents/Work/Persistence/go/src/github.com/persistenceOne/pStake-smartContracts/contracts/UTokensXPRTV2.sol",
  "compiler": {
    "name": "solc",
    "version": "0.7.6+commit.7338295f.Emscripten.clang"
  },
  "schemaVersion": "3.4.5",
  "updatedAt": "2022-02-23T18:48:30.913Z",
  "devdoc": {
    "kind": "dev",
    "methods": {
      "allowance(address,address)": {
        "details": "See {IERC20-allowance}."
      },
      "approve(address,uint256)": {
        "details": "See {IERC20-approve}. Requirements: - `spender` cannot be the zero address."
      },
      "balanceOf(address)": {
        "details": "See {IERC20-balanceOf}."
      },
      "burn(address,uint256)": {
        "details": "Burns `amount` tokens to the caller's address `from`. Returns a boolean value indicating whether the operation succeeded. Emits a {Transfer} event."
      },
      "decimals()": {
        "details": "Returns the number of decimals used to get its user representation. For example, if `decimals` equals `2`, a balance of `505` tokens should be displayed to a user as `5,05` (`505 / 10 ** 2`). Tokens usually opt for a value of 18, imitating the relationship between Ether and Wei. This is the value {ERC20} uses, unless {_setupDecimals} is called. NOTE: This information is only used for _display_ purposes: it in no way affects any of the arithmetic of the contract, including {IERC20-balanceOf} and {IERC20-transfer}."
      },
      "decreaseAllowance(address,uint256)": {
        "details": "Atomically decreases the allowance granted to `spender` by the caller. This is an alternative to {approve} that can be used as a mitigation for problems described in {IERC20-approve}. Emits an {Approval} event indicating the updated allowance. Requirements: - `spender` cannot be the zero address. - `spender` must have allowance for the caller of at least `subtractedValue`."
      },
      "getRoleAdmin(bytes32)": {
        "details": "Returns the admin role that controls `role`. See {grantRole} and {revokeRole}. To change a role's admin, use {_setRoleAdmin}."
      },
      "getRoleMember(bytes32,uint256)": {
        "details": "Returns one of the accounts that have `role`. `index` must be a value between 0 and {getRoleMemberCount}, non-inclusive. Role bearers are not sorted in any particular way, and their ordering may change at any point. WARNING: When using {getRoleMember} and {getRoleMemberCount}, make sure you perform all queries on the same block. See the following https://forum.openzeppelin.com/t/iterating-over-elements-on-enumerableset-in-openzeppelin-contracts/2296[forum post] for more information."
      },
      "getRoleMemberCount(bytes32)": {
        "details": "Returns the number of accounts that have `role`. Can be used together with {getRoleMember} to enumerate all bearers of a role."
      },
      "grantRole(bytes32,address)": {
        "details": "Grants `role` to `account`. If `account` had not been already granted `role`, emits a {RoleGranted} event. Requirements: - the caller must have ``role``'s admin role."
      },
      "hasRole(bytes32,address)": {
        "details": "Returns `true` if `account` has been granted `role`."
      },
      "increaseAllowance(address,uint256)": {
        "details": "Atomically increases the allowance granted to `spender` by the caller. This is an alternative to {approve} that can be used as a mitigation for problems described in {IERC20-approve}. Emits an {Approval} event indicating the updated allowance. Requirements: - `spender` cannot be the zero address."
      },
      "initialize(string,string,address,address)": {
        "details": "Constructor for initializing the UToken contract.",
        "params": {
          "bridgeAdminAddress": "- address of the bridge admin.",
          "pauserAddress": "- address of the pauser admin.",
          "tokenName": "- token name for UToken contract.",
          "tokenSymbol": "- token symbol for UToken contract."
        }
      },
      "mint(address,uint256)": {
        "details": "Mint new utokens for the provided 'address' and 'amount'",
        "params": {
          "to": ": account address, tokens: number of tokens Emits a {MintTokens} event with 'to' set to address and 'tokens' set to amount of tokens. Requirements: - `amount` cannot be less than zero."
        }
      },
      "name()": {
        "details": "Returns the name of the token."
      },
      "pause()": {
        "details": "Triggers stopped state. Requirements: - The contract must not be paused."
      },
      "paused()": {
        "details": "Returns true if the contract is paused, and false otherwise."
      },
      "renounceRole(bytes32,address)": {
        "details": "Revokes `role` from the calling account. Roles are often managed via {grantRole} and {revokeRole}: this function's purpose is to provide a mechanism for accounts to lose their privileges if they are compromised (such as when a trusted device is misplaced). If the calling account had been granted `role`, emits a {RoleRevoked} event. Requirements: - the caller must be `account`."
      },
      "revokeRole(bytes32,address)": {
        "details": "Revokes `role` from `account`. If `account` had been granted `role`, emits a {RoleRevoked} event. Requirements: - the caller must have ``role``'s admin role."
      },
      "setLiquidStakingContract(address)": {
        "details": "Set LiquidStaking smart contract."
      },
      "setSTokenContract(address)": {
        "details": "Set STokens smart contract."
      },
      "setWrapperContract(address)": {
        "details": "Set PegTokens smart contract."
      },
      "symbol()": {
        "details": "Returns the symbol of the token, usually a shorter version of the name."
      },
      "totalSupply()": {
        "details": "See {IERC20-totalSupply}."
      },
      "transfer(address,uint256)": {
        "details": "See {IERC20-transfer}. Requirements: - `recipient` cannot be the zero address. - the caller must have a balance of at least `amount`."
      },
      "transferFrom(address,address,uint256)": {
        "details": "See {IERC20-transferFrom}. Emits an {Approval} event indicating the updated allowance. This is not required by the EIP. See the note at the beginning of {ERC20}. Requirements: - `sender` and `recipient` cannot be the zero address. - `sender` must have a balance of at least `amount`. - the caller must have allowance for ``sender``'s tokens of at least `amount`."
      },
      "unpause()": {
        "details": "Returns to normal state. Requirements: - The contract must be paused."
      },
      "upgradeVersionInitV2(string)": {
        "details": "Upgrading version and token name"
      }
    },
    "version": 1
  },
  "userdoc": {
    "kind": "user",
    "methods": {},
    "version": 1
  }
}