{
  "contractName": "UTokens",
  "abi": [
    {
      "anonymous": false,
      "inputs": [
        {
          "indexed": true,
          "internalType": "address",
          "name": "owner",
          "type": "address"
        },
        {
          "indexed": true,
          "internalType": "address",
          "name": "spender",
          "type": "address"
        },
        {
          "indexed": false,
          "internalType": "uint256",
          "name": "value",
          "type": "uint256"
        }
      ],
      "name": "Approval",
      "type": "event"
    },
    {
      "anonymous": false,
      "inputs": [
        {
          "indexed": false,
          "internalType": "address",
          "name": "account",
          "type": "address"
        }
      ],
      "name": "Paused",
      "type": "event"
    },
    {
      "anonymous": false,
      "inputs": [
        {
          "indexed": true,
          "internalType": "bytes32",
          "name": "role",
          "type": "bytes32"
        },
        {
          "indexed": true,
          "internalType": "bytes32",
          "name": "previousAdminRole",
          "type": "bytes32"
        },
        {
          "indexed": true,
          "internalType": "bytes32",
          "name": "newAdminRole",
          "type": "bytes32"
        }
      ],
      "name": "RoleAdminChanged",
      "type": "event"
    },
    {
      "anonymous": false,
      "inputs": [
        {
          "indexed": true,
          "internalType": "bytes32",
          "name": "role",
          "type": "bytes32"
        },
        {
          "indexed": true,
          "internalType": "address",
          "name": "account",
          "type": "address"
        },
        {
          "indexed": true,
          "internalType": "address",
          "name": "sender",
          "type": "address"
        }
      ],
      "name": "RoleGranted",
      "type": "event"
    },
    {
      "anonymous": false,
      "inputs": [
        {
          "indexed": true,
          "internalType": "bytes32",
          "name": "role",
          "type": "bytes32"
        },
        {
          "indexed": true,
          "internalType": "address",
          "name": "account",
          "type": "address"
        },
        {
          "indexed": true,
          "internalType": "address",
          "name": "sender",
          "type": "address"
        }
      ],
      "name": "RoleRevoked",
      "type": "event"
    },
    {
      "anonymous": false,
      "inputs": [
        {
          "indexed": true,
          "internalType": "address",
          "name": "_contract",
          "type": "address"
        }
      ],
      "name": "SetLiquidStakingContract",
      "type": "event"
    },
    {
      "anonymous": false,
      "inputs": [
        {
          "indexed": true,
          "internalType": "address",
          "name": "_contract",
          "type": "address"
        }
      ],
      "name": "SetSTokensContract",
      "type": "event"
    },
    {
      "anonymous": false,
      "inputs": [
        {
          "indexed": true,
          "internalType": "address",
          "name": "_contract",
          "type": "address"
        }
      ],
      "name": "SetWrapperContract",
      "type": "event"
    },
    {
      "anonymous": false,
      "inputs": [
        {
          "indexed": true,
          "internalType": "address",
          "name": "from",
          "type": "address"
        },
        {
          "indexed": true,
          "internalType": "address",
          "name": "to",
          "type": "address"
        },
        {
          "indexed": false,
          "internalType": "uint256",
          "name": "value",
          "type": "uint256"
        }
      ],
      "name": "Transfer",
      "type": "event"
    },
    {
      "anonymous": false,
      "inputs": [
        {
          "indexed": false,
          "internalType": "address",
          "name": "account",
          "type": "address"
        }
      ],
      "name": "Unpaused",
      "type": "event"
    },
    {
      "inputs": [],
      "name": "BRIDGE_ADMIN_ROLE",
      "outputs": [
        {
          "internalType": "bytes32",
          "name": "",
          "type": "bytes32"
        }
      ],
      "stateMutability": "view",
      "type": "function"
    },
    {
      "inputs": [],
      "name": "DEFAULT_ADMIN_ROLE",
      "outputs": [
        {
          "internalType": "bytes32",
          "name": "",
          "type": "bytes32"
        }
      ],
      "stateMutability": "view",
      "type": "function"
    },
    {
      "inputs": [],
      "name": "PAUSER_ROLE",
      "outputs": [
        {
          "internalType": "bytes32",
          "name": "",
          "type": "bytes32"
        }
      ],
      "stateMutability": "view",
      "type": "function"
    },
    {
      "inputs": [],
      "name": "_liquidStakingContract",
      "outputs": [
        {
          "internalType": "address",
          "name": "",
          "type": "address"
        }
      ],
      "stateMutability": "view",
      "type": "function"
    },
    {
      "inputs": [],
      "name": "_stokenContract",
      "outputs": [
        {
          "internalType": "address",
          "name": "",
          "type": "address"
        }
      ],
      "stateMutability": "view",
      "type": "function"
    },
    {
      "inputs": [],
      "name": "_wrapperContract",
      "outputs": [
        {
          "internalType": "address",
          "name": "",
          "type": "address"
        }
      ],
      "stateMutability": "view",
      "type": "function"
    },
    {
      "inputs": [
        {
          "internalType": "address",
          "name": "owner",
          "type": "address"
        },
        {
          "internalType": "address",
          "name": "spender",
          "type": "address"
        }
      ],
      "name": "allowance",
      "outputs": [
        {
          "internalType": "uint256",
          "name": "",
          "type": "uint256"
        }
      ],
      "stateMutability": "view",
      "type": "function"
    },
    {
      "inputs": [
        {
          "internalType": "address",
          "name": "spender",
          "type": "address"
        },
        {
          "internalType": "uint256",
          "name": "amount",
          "type": "uint256"
        }
      ],
      "name": "approve",
      "outputs": [
        {
          "internalType": "bool",
          "name": "",
          "type": "bool"
        }
      ],
      "stateMutability": "nonpayable",
      "type": "function"
    },
    {
      "inputs": [
        {
          "internalType": "address",
          "name": "account",
          "type": "address"
        }
      ],
      "name": "balanceOf",
      "outputs": [
        {
          "internalType": "uint256",
          "name": "",
          "type": "uint256"
        }
      ],
      "stateMutability": "view",
      "type": "function"
    },
    {
      "inputs": [],
      "name": "decimals",
      "outputs": [
        {
          "internalType": "uint8",
          "name": "",
          "type": "uint8"
        }
      ],
      "stateMutability": "view",
      "type": "function"
    },
    {
      "inputs": [
        {
          "internalType": "address",
          "name": "spender",
          "type": "address"
        },
        {
          "internalType": "uint256",
          "name": "subtractedValue",
          "type": "uint256"
        }
      ],
      "name": "decreaseAllowance",
      "outputs": [
        {
          "internalType": "bool",
          "name": "",
          "type": "bool"
        }
      ],
      "stateMutability": "nonpayable",
      "type": "function"
    },
    {
      "inputs": [
        {
          "internalType": "bytes32",
          "name": "role",
          "type": "bytes32"
        }
      ],
      "name": "getRoleAdmin",
      "outputs": [
        {
          "internalType": "bytes32",
          "name": "",
          "type": "bytes32"
        }
      ],
      "stateMutability": "view",
      "type": "function"
    },
    {
      "inputs": [
        {
          "internalType": "bytes32",
          "name": "role",
          "type": "bytes32"
        },
        {
          "internalType": "uint256",
          "name": "index",
          "type": "uint256"
        }
      ],
      "name": "getRoleMember",
      "outputs": [
        {
          "internalType": "address",
          "name": "",
          "type": "address"
        }
      ],
      "stateMutability": "view",
      "type": "function"
    },
    {
      "inputs": [
        {
          "internalType": "bytes32",
          "name": "role",
          "type": "bytes32"
        }
      ],
      "name": "getRoleMemberCount",
      "outputs": [
        {
          "internalType": "uint256",
          "name": "",
          "type": "uint256"
        }
      ],
      "stateMutability": "view",
      "type": "function"
    },
    {
      "inputs": [
        {
          "internalType": "bytes32",
          "name": "role",
          "type": "bytes32"
        },
        {
          "internalType": "address",
          "name": "account",
          "type": "address"
        }
      ],
      "name": "grantRole",
      "outputs": [],
      "stateMutability": "nonpayable",
      "type": "function"
    },
    {
      "inputs": [
        {
          "internalType": "bytes32",
          "name": "role",
          "type": "bytes32"
        },
        {
          "internalType": "address",
          "name": "account",
          "type": "address"
        }
      ],
      "name": "hasRole",
      "outputs": [
        {
          "internalType": "bool",
          "name": "",
          "type": "bool"
        }
      ],
      "stateMutability": "view",
      "type": "function"
    },
    {
      "inputs": [
        {
          "internalType": "address",
          "name": "spender",
          "type": "address"
        },
        {
          "internalType": "uint256",
          "name": "addedValue",
          "type": "uint256"
        }
      ],
      "name": "increaseAllowance",
      "outputs": [
        {
          "internalType": "bool",
          "name": "",
          "type": "bool"
        }
      ],
      "stateMutability": "nonpayable",
      "type": "function"
    },
    {
      "inputs": [],
      "name": "name",
      "outputs": [
        {
          "internalType": "string",
          "name": "",
          "type": "string"
        }
      ],
      "stateMutability": "view",
      "type": "function"
    },
    {
      "inputs": [],
      "name": "paused",
      "outputs": [
        {
          "internalType": "bool",
          "name": "",
          "type": "bool"
        }
      ],
      "stateMutability": "view",
      "type": "function"
    },
    {
      "inputs": [
        {
          "internalType": "bytes32",
          "name": "role",
          "type": "bytes32"
        },
        {
          "internalType": "address",
          "name": "account",
          "type": "address"
        }
      ],
      "name": "renounceRole",
      "outputs": [],
      "stateMutability": "nonpayable",
      "type": "function"
    },
    {
      "inputs": [
        {
          "internalType": "bytes32",
          "name": "role",
          "type": "bytes32"
        },
        {
          "internalType": "address",
          "name": "account",
          "type": "address"
        }
      ],
      "name": "revokeRole",
      "outputs": [],
      "stateMutability": "nonpayable",
      "type": "function"
    },
    {
      "inputs": [],
      "name": "symbol",
      "outputs": [
        {
          "internalType": "string",
          "name": "",
          "type": "string"
        }
      ],
      "stateMutability": "view",
      "type": "function"
    },
    {
      "inputs": [],
      "name": "totalSupply",
      "outputs": [
        {
          "internalType": "uint256",
          "name": "",
          "type": "uint256"
        }
      ],
      "stateMutability": "view",
      "type": "function"
    },
    {
      "inputs": [
        {
          "internalType": "address",
          "name": "recipient",
          "type": "address"
        },
        {
          "internalType": "uint256",
          "name": "amount",
          "type": "uint256"
        }
      ],
      "name": "transfer",
      "outputs": [
        {
          "internalType": "bool",
          "name": "",
          "type": "bool"
        }
      ],
      "stateMutability": "nonpayable",
      "type": "function"
    },
    {
      "inputs": [
        {
          "internalType": "address",
          "name": "sender",
          "type": "address"
        },
        {
          "internalType": "address",
          "name": "recipient",
          "type": "address"
        },
        {
          "internalType": "uint256",
          "name": "amount",
          "type": "uint256"
        }
      ],
      "name": "transferFrom",
      "outputs": [
        {
          "internalType": "bool",
          "name": "",
          "type": "bool"
        }
      ],
      "stateMutability": "nonpayable",
      "type": "function"
    },
    {
      "inputs": [
        {
          "internalType": "address",
          "name": "bridgeAdminAddress",
          "type": "address"
        },
        {
          "internalType": "address",
          "name": "pauserAddress",
          "type": "address"
        }
      ],
      "name": "initialize",
      "outputs": [],
      "stateMutability": "nonpayable",
      "type": "function"
    },
    {
      "inputs": [
        {
          "internalType": "address",
          "name": "to",
          "type": "address"
        },
        {
          "internalType": "uint256",
          "name": "tokens",
          "type": "uint256"
        }
      ],
      "name": "mint",
      "outputs": [
        {
          "internalType": "bool",
          "name": "success",
          "type": "bool"
        }
      ],
      "stateMutability": "nonpayable",
      "type": "function"
    },
    {
      "inputs": [
        {
          "internalType": "address",
          "name": "from",
          "type": "address"
        },
        {
          "internalType": "uint256",
          "name": "tokens",
          "type": "uint256"
        }
      ],
      "name": "burn",
      "outputs": [
        {
          "internalType": "bool",
          "name": "success",
          "type": "bool"
        }
      ],
      "stateMutability": "nonpayable",
      "type": "function"
    },
    {
      "inputs": [
        {
          "internalType": "address",
          "name": "stokenContract",
          "type": "address"
        }
      ],
      "name": "setSTokenContract",
      "outputs": [],
      "stateMutability": "nonpayable",
      "type": "function"
    },
    {
      "inputs": [
        {
          "internalType": "address",
          "name": "liquidStakingContract",
          "type": "address"
        }
      ],
      "name": "setLiquidStakingContract",
      "outputs": [],
      "stateMutability": "nonpayable",
      "type": "function"
    },
    {
      "inputs": [
        {
          "internalType": "address",
          "name": "wrapperTokensContract",
          "type": "address"
        }
      ],
      "name": "setWrapperContract",
      "outputs": [],
      "stateMutability": "nonpayable",
      "type": "function"
    },
    {
      "inputs": [],
      "name": "pause",
      "outputs": [
        {
          "internalType": "bool",
          "name": "success",
          "type": "bool"
        }
      ],
      "stateMutability": "nonpayable",
      "type": "function"
    },
    {
      "inputs": [],
      "name": "unpause",
      "outputs": [
        {
          "internalType": "bool",
          "name": "success",
          "type": "bool"
        }
      ],
      "stateMutability": "nonpayable",
      "type": "function"
    }
  ],
  "bytecode": "0x608060405234801561001057600080fd5b5061215d806100206000396000f3fe608060405234801561001057600080fd5b50600436106101fa5760003560e01c806358f8943e1161011a5780639dc29fac116100ad578063ca15c8731161007c578063ca15c873146105d0578063d547741f146105ed578063dd62ed3e14610619578063e63ab1e914610647578063e8cb78441461064f576101fa565b80639dc29fac14610544578063a217fddf14610570578063a457c2d714610578578063a9059cbb146105a4576101fa565b80638456cb59116100e95780638456cb59146104e55780639010d07c146104ed57806391d148541461051057806395d89b411461053c576101fa565b806358f8943e146104895780635c975abb146104af57806370a08231146104b7578063793105d8146104dd576101fa565b8063313ce567116101925780633f4ba83a116101615780633f4ba83a1461040157806340c10f1914610409578063485cc955146104355780634e55812714610463576101fa565b8063313ce5671461038357806336568abe146103a157806339509351146103cd5780633c3d3420146103f9576101fa565b806318160ddd116101ce57806318160ddd146102fa57806323b872dd14610302578063248a9ca3146103385780632f2ff15d14610355576101fa565b8062b833be146101ff57806306fdde0314610223578063095ea7b3146102a0578063118c38c7146102e0575b600080fd5b610207610675565b604080516001600160a01b039092168252519081900360200190f35b61022b610684565b6040805160208082528351818301528351919283929083019185019080838360005b8381101561026557818101518382015260200161024d565b50505050905090810190601f1680156102925780820380516001836020036101000a031916815260200191505b509250505060405180910390f35b6102cc600480360360408110156102b657600080fd5b506001600160a01b03813516906020013561071a565b604080519115158252519081900360200190f35b6102e8610738565b60408051918252519081900360200190f35b6102e861075c565b6102cc6004803603606081101561031857600080fd5b506001600160a01b03813581169160208101359091169060400135610762565b6102e86004803603602081101561034e57600080fd5b50356107e9565b6103816004803603604081101561036b57600080fd5b50803590602001356001600160a01b03166107fe565b005b61038b61086a565b6040805160ff9092168252519081900360200190f35b610381600480360360408110156103b757600080fd5b50803590602001356001600160a01b0316610873565b6102cc600480360360408110156103e357600080fd5b506001600160a01b0381351690602001356108d4565b610207610922565b6102cc610931565b6102cc6004803603604081101561041f57600080fd5b506001600160a01b038135169060200135610992565b6103816004803603604081101561044b57600080fd5b506001600160a01b0381358116916020013516610a6f565b6103816004803603602081101561047957600080fd5b50356001600160a01b0316610bd2565b6103816004803603602081101561049f57600080fd5b50356001600160a01b0316610c60565b6102cc610cee565b6102e8600480360360208110156104cd57600080fd5b50356001600160a01b0316610cf7565b610207610d12565b6102cc610d21565b6102076004803603604081101561050357600080fd5b5080359060200135610d7c565b6102cc6004803603604081101561052657600080fd5b50803590602001356001600160a01b0316610d9b565b61022b610db3565b6102cc6004803603604081101561055a57600080fd5b506001600160a01b038135169060200135610e14565b6102e8610e9b565b6102cc6004803603604081101561058e57600080fd5b506001600160a01b038135169060200135610ea0565b6102cc600480360360408110156105ba57600080fd5b506001600160a01b038135169060200135610f08565b6102e8600480360360208110156105e657600080fd5b5035610f1c565b6103816004803603604081101561060357600080fd5b50803590602001356001600160a01b0316610f33565b6102e86004803603604081101561062f57600080fd5b506001600160a01b0381358116916020013516610f8c565b6102e8610fb7565b6103816004803603602081101561066557600080fd5b50356001600160a01b0316610fc9565b60cb546001600160a01b031681565b60368054604080516020601f60026000196101006001881615020190951694909404938401819004810282018101909252828152606093909290918301828280156107105780601f106106e557610100808354040283529160200191610710565b820191906000526020600020905b8154815290600101906020018083116106f357829003601f168201915b5050505050905090565b600061072e610727611057565b848461105b565b5060015b92915050565b7f751b795d24b92e3d92d1d0d8f2885f4e9c9c269da350af36ae6b49069babf4bf81565b60355490565b600061076f848484611147565b6107df8461077b611057565b6107da85604051806060016040528060288152602001612022602891396001600160a01b038a166000908152603460205260408120906107b9611057565b6001600160a01b0316815260208101919091526040016000205491906112a4565b61105b565b5060019392505050565b60009081526097602052604090206002015490565b6000828152609760205260409020600201546108219061081c611057565b610d9b565b61085c5760405162461bcd60e51b815260040180806020018281038252602f815260200180611f2b602f913960400191505060405180910390fd5b610866828261133b565b5050565b60385460ff1690565b61087b611057565b6001600160a01b0316816001600160a01b0316146108ca5760405162461bcd60e51b815260040180806020018281038252602f8152602001806120f9602f913960400191505060405180910390fd5b61086682826113a4565b600061072e6108e1611057565b846107da85603460006108f2611057565b6001600160a01b03908116825260208083019390935260409182016000908120918c16815292529020549061140d565b60c9546001600160a01b031681565b600061094d60008051602061204a83398151915261081c611057565b610984576040805162461bcd60e51b815260206004820152600360248201526255543760e81b604482015290519081900360640190fd5b61098c611467565b50600190565b60006109be7f751b795d24b92e3d92d1d0d8f2885f4e9c9c269da350af36ae6b49069babf4bf32610d9b565b80156109e4575060cb546001600160a01b03166109d9611057565b6001600160a01b0316145b80610a09575060c9546001600160a01b03166109fe611057565b6001600160a01b0316145b80610a2e575060ca546001600160a01b0316610a23611057565b6001600160a01b0316145b610a65576040805162461bcd60e51b815260206004820152600360248201526255543160e81b604482015290519081900360640190fd5b61072e8383611507565b600054610100900460ff1680610a885750610a886115f9565b80610a96575060005460ff16155b610ad15760405162461bcd60e51b815260040180806020018281038252602e815260200180611ff4602e913960400191505060405180910390fd5b600054610100900460ff16158015610afc576000805460ff1961ff0019909116610100171660011790555b610b4d60405180604001604052806012815260200171705354414b45205065676765642041544f4d60701b815250604051806040016040528060058152602001647041544f4d60d81b81525061160a565b610b556116a9565b610b5d61175b565b610b6f6000610b6a611057565b61085c565b610b997f751b795d24b92e3d92d1d0d8f2885f4e9c9c269da350af36ae6b49069babf4bf8461085c565b610bb160008051602061204a8339815191528361085c565b610bbb60066117f8565b8015610bcd576000805461ff00191690555b505050565b610bdf600061081c611057565b610c16576040805162461bcd60e51b815260206004820152600360248201526255543560e81b604482015290519081900360640190fd5b60cb80546001600160a01b0319166001600160a01b0383169081179091556040517fe64d0ea1a8162224d25416ba9164fe1dae6ec14e9f846220b287c0c1c9413e0590600090a250565b610c6d600061081c611057565b610ca4576040805162461bcd60e51b815260206004820152600360248201526215550d60ea1b604482015290519081900360640190fd5b60ca80546001600160a01b0319166001600160a01b0383169081179091556040517f57fded54c0f01b7b2c662bd89530d6916e48149e02da384db87d1a67306be87190600090a250565b60655460ff1690565b6001600160a01b031660009081526033602052604090205490565b60ca546001600160a01b031681565b6000610d3d60008051602061204a83398151915261081c611057565b610d74576040805162461bcd60e51b81526020600482015260036024820152622aaa1b60e91b604482015290519081900360640190fd5b61098c61180e565b6000828152609760205260408120610d949083611891565b9392505050565b6000828152609760205260408120610d94908361189d565b60378054604080516020601f60026000196101006001881615020190951694909404938401819004810282018101909252828152606093909290918301828280156107105780601f106106e557610100808354040283529160200191610710565b60ca546000906001600160a01b0316610e2b611057565b6001600160a01b03161480610e5a575060cb546001600160a01b0316610e4f611057565b6001600160a01b0316145b610e91576040805162461bcd60e51b81526020600482015260036024820152622aaa1960e91b604482015290519081900360640190fd5b61072e83836118b2565b600081565b600061072e610ead611057565b846107da856040518060600160405280602581526020016120d46025913960346000610ed7611057565b6001600160a01b03908116825260208083019390935260409182016000908120918d168152925290205491906112a4565b600061072e610f15611057565b8484611147565b6000818152609760205260408120610732906119ae565b600082815260976020526040902060020154610f519061081c611057565b6108ca5760405162461bcd60e51b8152600401808060200182810382526030815260200180611fc46030913960400191505060405180910390fd5b6001600160a01b03918216600090815260346020908152604080832093909416825291909152205490565b60008051602061204a83398151915281565b610fd6600061081c611057565b61100d576040805162461bcd60e51b815260206004820152600360248201526255543360e81b604482015290519081900360640190fd5b60c980546001600160a01b0319166001600160a01b0383169081179091556040517fd0b9dbe26f676f4cdb02fc249c203baa0314cec79e18b4194dc862795a5de03f90600090a250565b3390565b6001600160a01b0383166110a05760405162461bcd60e51b81526004018080602001828103825260248152602001806120b06024913960400191505060405180910390fd5b6001600160a01b0382166110e55760405162461bcd60e51b8152600401808060200182810382526022815260200180611f7c6022913960400191505060405180910390fd5b6001600160a01b03808416600081815260346020908152604080832094871680845294825291829020859055815185815291517f8c5be1e5ebec7d5bd14f71427d1e84f3dd0314c0f7b2291e5b200ac8c7c3b9259281900390910190a3505050565b6001600160a01b03831661118c5760405162461bcd60e51b815260040180806020018281038252602581526020018061208b6025913960400191505060405180910390fd5b6001600160a01b0382166111d15760405162461bcd60e51b8152600401808060200182810382526023815260200180611f086023913960400191505060405180910390fd5b6111dc8383836119b9565b61121981604051806060016040528060268152602001611f9e602691396001600160a01b03861660009081526033602052604090205491906112a4565b6001600160a01b038085166000908152603360205260408082209390935590841681522054611248908261140d565b6001600160a01b0380841660008181526033602090815260409182902094909455805185815290519193928716927fddf252ad1be2c89b69c2b068fc378daa952ba7f163c4a11628f55a4df523b3ef92918290030190a3505050565b600081848411156113335760405162461bcd60e51b81526004018080602001828103825283818151815260200191508051906020019080838360005b838110156112f85781810151838201526020016112e0565b50505050905090810190601f1680156113255780820380516001836020036101000a031916815260200191505b509250505060405180910390fd5b505050900390565b60008281526097602052604090206113539082611a04565b1561086657611360611057565b6001600160a01b0316816001600160a01b0316837f2f8788117e7eff1d82e926ec794901d17c78024a50270940304540a733656f0d60405160405180910390a45050565b60008281526097602052604090206113bc9082611a19565b15610866576113c9611057565b6001600160a01b0316816001600160a01b0316837ff6391f5c32d9c69d2a47ea670b442974b53935d1edc7fd64eb21e047a839171b60405160405180910390a45050565b600082820183811015610d94576040805162461bcd60e51b815260206004820152601b60248201527f536166654d6174683a206164646974696f6e206f766572666c6f770000000000604482015290519081900360640190fd5b61146f610cee565b6114b7576040805162461bcd60e51b815260206004820152601460248201527314185d5cd8589b194e881b9bdd081c185d5cd95960621b604482015290519081900360640190fd5b6065805460ff191690557f5db9ee0a495bf2e6ff9c91a7834c1ba4fdd244a5e8aa4e537bd38aeae4b073aa6114ea611057565b604080516001600160a01b039092168252519081900360200190a1565b6001600160a01b038216611562576040805162461bcd60e51b815260206004820152601f60248201527f45524332303a206d696e7420746f20746865207a65726f206164647265737300604482015290519081900360640190fd5b61156e600083836119b9565b60355461157b908261140d565b6035556001600160a01b0382166000908152603360205260409020546115a1908261140d565b6001600160a01b03831660008181526033602090815260408083209490945583518581529351929391927fddf252ad1be2c89b69c2b068fc378daa952ba7f163c4a11628f55a4df523b3ef9281900390910190a35050565b600061160430611a2e565b15905090565b600054610100900460ff168061162357506116236115f9565b80611631575060005460ff16155b61166c5760405162461bcd60e51b815260040180806020018281038252602e815260200180611ff4602e913960400191505060405180910390fd5b600054610100900460ff16158015611697576000805460ff1961ff0019909116610100171660011790555b61169f611a34565b610bbb8383611ad4565b600054610100900460ff16806116c257506116c26115f9565b806116d0575060005460ff16155b61170b5760405162461bcd60e51b815260040180806020018281038252602e815260200180611ff4602e913960400191505060405180910390fd5b600054610100900460ff16158015611736576000805460ff1961ff0019909116610100171660011790555b61173e611a34565b611746611a34565b8015611758576000805461ff00191690555b50565b600054610100900460ff168061177457506117746115f9565b80611782575060005460ff16155b6117bd5760405162461bcd60e51b815260040180806020018281038252602e815260200180611ff4602e913960400191505060405180910390fd5b600054610100900460ff161580156117e8576000805460ff1961ff0019909116610100171660011790555b6117f0611a34565b611746611bac565b6038805460ff191660ff92909216919091179055565b611816610cee565b1561185b576040805162461bcd60e51b815260206004820152601060248201526f14185d5cd8589b194e881c185d5cd95960821b604482015290519081900360640190fd5b6065805460ff191660011790557f62e78cea01bee320cd4e420270b5ea74000d11b0c9f74754ebdbfc544b05a2586114ea611057565b6000610d948383611c57565b6000610d94836001600160a01b038416611cbb565b6001600160a01b0382166118f75760405162461bcd60e51b815260040180806020018281038252602181526020018061206a6021913960400191505060405180910390fd5b611903826000836119b9565b61194081604051806060016040528060228152602001611f5a602291396001600160a01b03851660009081526033602052604090205491906112a4565b6001600160a01b0383166000908152603360205260409020556035546119669082611cd3565b6035556040805182815290516000916001600160a01b038516917fddf252ad1be2c89b69c2b068fc378daa952ba7f163c4a11628f55a4df523b3ef9181900360200190a35050565b600061073282611d30565b6119c1610cee565b156119f9576040805162461bcd60e51b81526020600482015260036024820152620aaa8760eb1b604482015290519081900360640190fd5b610bcd838383610bcd565b6000610d94836001600160a01b038416611d34565b6000610d94836001600160a01b038416611d7e565b3b151590565b600054610100900460ff1680611a4d5750611a4d6115f9565b80611a5b575060005460ff16155b611a965760405162461bcd60e51b815260040180806020018281038252602e815260200180611ff4602e913960400191505060405180910390fd5b600054610100900460ff16158015611746576000805460ff1961ff0019909116610100171660011790558015611758576000805461ff001916905550565b600054610100900460ff1680611aed5750611aed6115f9565b80611afb575060005460ff16155b611b365760405162461bcd60e51b815260040180806020018281038252602e815260200180611ff4602e913960400191505060405180910390fd5b600054610100900460ff16158015611b61576000805460ff1961ff0019909116610100171660011790555b8251611b74906036906020860190611e44565b508151611b88906037906020850190611e44565b506038805460ff191660121790558015610bcd576000805461ff0019169055505050565b600054610100900460ff1680611bc55750611bc56115f9565b80611bd3575060005460ff16155b611c0e5760405162461bcd60e51b815260040180806020018281038252602e815260200180611ff4602e913960400191505060405180910390fd5b600054610100900460ff16158015611c39576000805460ff1961ff0019909116610100171660011790555b6065805460ff191690558015611758576000805461ff001916905550565b81546000908210611c995760405162461bcd60e51b8152600401808060200182810382526022815260200180611ee66022913960400191505060405180910390fd5b826000018281548110611ca857fe5b9060005260206000200154905092915050565b60009081526001919091016020526040902054151590565b600082821115611d2a576040805162461bcd60e51b815260206004820152601e60248201527f536166654d6174683a207375627472616374696f6e206f766572666c6f770000604482015290519081900360640190fd5b50900390565b5490565b6000611d408383611cbb565b611d7657508154600181810184556000848152602080822090930184905584548482528286019093526040902091909155610732565b506000610732565b60008181526001830160205260408120548015611e3a5783546000198083019190810190600090879083908110611db157fe5b9060005260206000200154905080876000018481548110611dce57fe5b600091825260208083209091019290925582815260018981019092526040902090840190558654879080611dfe57fe5b60019003818190600052602060002001600090559055866001016000878152602001908152602001600020600090556001945050505050610732565b6000915050610732565b828054600181600116156101000203166002900490600052602060002090601f016020900481019282611e7a5760008555611ec0565b82601f10611e9357805160ff1916838001178555611ec0565b82800160010185558215611ec0579182015b82811115611ec0578251825591602001919060010190611ea5565b50611ecc929150611ed0565b5090565b5b80821115611ecc5760008155600101611ed156fe456e756d657261626c655365743a20696e646578206f7574206f6620626f756e647345524332303a207472616e7366657220746f20746865207a65726f2061646472657373416363657373436f6e74726f6c3a2073656e646572206d75737420626520616e2061646d696e20746f206772616e7445524332303a206275726e20616d6f756e7420657863656564732062616c616e636545524332303a20617070726f766520746f20746865207a65726f206164647265737345524332303a207472616e7366657220616d6f756e7420657863656564732062616c616e6365416363657373436f6e74726f6c3a2073656e646572206d75737420626520616e2061646d696e20746f207265766f6b65496e697469616c697a61626c653a20636f6e747261637420697320616c726561647920696e697469616c697a656445524332303a207472616e7366657220616d6f756e74206578636565647320616c6c6f77616e636565d7a28e3265b37a6474929f336521b332c1681b933f6cb9f3376673440d862a45524332303a206275726e2066726f6d20746865207a65726f206164647265737345524332303a207472616e736665722066726f6d20746865207a65726f206164647265737345524332303a20617070726f76652066726f6d20746865207a65726f206164647265737345524332303a2064656372656173656420616c6c6f77616e63652062656c6f77207a65726f416363657373436f6e74726f6c3a2063616e206f6e6c792072656e6f756e636520726f6c657320666f722073656c66a2646970667358221220d37e6d4487d80aea18309430634254942cc759dd831ef06ab23c5249fbf8043864736f6c63430007060033",
  "immutableReferences": {},
  "source": "// SPDX-License-Identifier: UNLICENSED\npragma solidity ^0.7.0;\n\nimport \"@openzeppelin/contracts-upgradeable/token/ERC20/ERC20Upgradeable.sol\";\nimport \"@openzeppelin/contracts-upgradeable/utils/PausableUpgradeable.sol\";\nimport \"@openzeppelin/contracts-upgradeable/access/AccessControlUpgradeable.sol\";\nimport \"./interfaces/IUTokens.sol\";\n\ncontract UTokens is ERC20Upgradeable, IUTokens, PausableUpgradeable, AccessControlUpgradeable {\n\n    // constants defining access control ROLES\n    bytes32 public constant BRIDGE_ADMIN_ROLE = keccak256(\"BRIDGE_ADMIN_ROLE\");\n    bytes32 public constant PAUSER_ROLE = keccak256(\"PAUSER_ROLE\");\n\n    // variables capturing data of other contracts in the product\n    address public _stokenContract;\n    address public _liquidStakingContract;\n    address public _wrapperContract;\n\n    /**\n   * @dev Constructor for initializing the UToken contract.\n   * @param bridgeAdminAddress - address of the bridge admin.\n   * @param pauserAddress - address of the pauser admin.\n   */\n    function initialize(address bridgeAdminAddress, address pauserAddress) public virtual initializer {\n        __ERC20_init(\"pSTAKE Pegged ATOM\", \"pATOM\");\n        __AccessControl_init();\n        __Pausable_init();\n        _setupRole(DEFAULT_ADMIN_ROLE, _msgSender());\n        _setupRole(BRIDGE_ADMIN_ROLE, bridgeAdminAddress);\n        _setupRole(PAUSER_ROLE, pauserAddress);\n        _setupDecimals(6);\n    }\n\n    /**\n    * @dev Mint new utokens for the provided 'address' and 'amount'\n    * @param to: account address, tokens: number of tokens\n    *\n    * Emits a {MintTokens} event with 'to' set to address and 'tokens' set to amount of tokens.\n    *\n    * Requirements:\n    *\n    * - `amount` cannot be less than zero.\n    *\n    */\n    function mint(address to, uint256 tokens) public virtual override returns (bool success) {\n        require((hasRole(BRIDGE_ADMIN_ROLE, tx.origin) && _msgSender() == _wrapperContract) // minted by bridge  \n        || _msgSender() == _stokenContract // minted by STokens contract during reward generation\n        || _msgSender() == _liquidStakingContract, \"UT1\"); // minted by LS contract withdrawUnstakedTokens()\n\n        _mint(to, tokens);\n        return true;\n    }\n\n    /*\n     * @dev Burn utokens for the provided 'address' and 'amount'\n     * @param from: account address, tokens: number of tokens\n     *\n     * Emits a {BurnTokens} event with 'from' set to address and 'tokens' set to amount of tokens.\n     *\n     * Requirements:\n     *\n     * - `amount` cannot be less than zero.\n     *\n     */\n    function burn(address from, uint256 tokens) public virtual override returns (bool success) {\n        require(_msgSender() == _liquidStakingContract ||  // staking operation\n        _msgSender() == _wrapperContract, \"UT2\"); // unwrap operation\n\n        _burn(from, tokens);\n        return true;\n    }\n\n    /*\n    * @dev Set 'contract address', called for stokens smart contract\n    * @param stokenContract: stoken contract address\n    *\n    * Emits a {SetSTokensContract} event with '_contract' set to the stoken contract address.\n    *\n    */\n    //These functions need to be called after deployment, only admin can call the same\n    function setSTokenContract(address stokenContract) public virtual override {\n        require(hasRole(DEFAULT_ADMIN_ROLE, _msgSender()), \"UT3\");\n        _stokenContract = stokenContract;\n        emit SetSTokensContract(stokenContract);\n    }\n\n    /*\n     * @dev Set 'contract address', for liquid staking smart contract\n     * @param liquidStakingContract: liquidStaking contract address\n     *\n     * Emits a {SetLiquidStakingContract} event with '_contract' set to the liquidStaking contract address.\n     *\n     */\n    function setLiquidStakingContract(address liquidStakingContract) public virtual override {\n        require(hasRole(DEFAULT_ADMIN_ROLE, _msgSender()), \"UT4\");\n        _liquidStakingContract = liquidStakingContract;\n        emit SetLiquidStakingContract(liquidStakingContract);\n    }\n\n    /*\n     * @dev Set 'contract address', called for token wrapper smart contract\n     * @param wrapperTokensContract: tokenWrapper contract address\n     *\n     * Emits a {SetWrapperContract} event with '_contract' set to the tokenWrapper contract address.\n     *\n     */\n    function setWrapperContract(address wrapperTokensContract) public virtual override {\n        require(hasRole(DEFAULT_ADMIN_ROLE, _msgSender()), \"UT5\");\n        _wrapperContract = wrapperTokensContract;\n        emit SetWrapperContract(wrapperTokensContract);\n    }\n\n    /**\n      * @dev Triggers stopped state.\n      *\n      * Requirements:\n      *\n      * - The contract must not be paused.\n      */\n    function pause() public virtual returns (bool success) {\n        require(hasRole(PAUSER_ROLE, _msgSender()), \"UT6\");\n        _pause();\n        return true;\n    }\n\n    /**\n     * @dev Returns to normal state.\n     *\n     * Requirements:\n     *\n     * - The contract must be paused.\n     */\n    function unpause() public virtual returns (bool success) {\n        require(hasRole(PAUSER_ROLE, _msgSender()), \"UT7\");\n        _unpause();\n        return true;\n    }\n\n    /**\n     * @dev Hook that is called before any transfer of tokens. This includes\n     * minting and burning.\n     *\n     * Calling conditions:\n     *\n     * - when `from` and `to` are both non-zero, `amount` of ``from``'s tokens\n     * will be to transferred to `to`.\n     * - when `from` is zero, `amount` tokens will be minted for `to`.\n     * - when `to` is zero, `amount` of ``from``'s tokens will be burned.\n     * - `from` and `to` are never both zero.\n     *\n     */\n    function _beforeTokenTransfer(address from, address to, uint256 amount) internal virtual override {\n        require(!paused(), \"UT8\");\n        super._beforeTokenTransfer(from, to, amount);\n    }\n}",
  "sourcePath": "C:/Users/Kamlesh/Persistence/pStake/codebase/pStake-smartContracts/contracts/UtokensV2.sol",
  "compiler": {
    "name": "solc",
    "version": "0.7.6+commit.7338295f.Emscripten.clang"
  },
  "schemaVersion": "3.3.4",
  "updatedAt": "2021-08-14T06:15:20.857Z",
  "devdoc": {
    "kind": "dev",
    "methods": {
      "allowance(address,address)": {
        "details": "See {IERC20-allowance}."
      },
      "approve(address,uint256)": {
        "details": "See {IERC20-approve}. Requirements: - `spender` cannot be the zero address."
      },
      "balanceOf(address)": {
        "details": "See {IERC20-balanceOf}."
      },
      "burn(address,uint256)": {
        "details": "Burns `amount` tokens to the caller's address `from`. Returns a boolean value indicating whether the operation succeeded. Emits a {Transfer} event."
      },
      "decimals()": {
        "details": "Returns the number of decimals used to get its user representation. For example, if `decimals` equals `2`, a balance of `505` tokens should be displayed to a user as `5,05` (`505 / 10 ** 2`). Tokens usually opt for a value of 18, imitating the relationship between Ether and Wei. This is the value {ERC20} uses, unless {_setupDecimals} is called. NOTE: This information is only used for _display_ purposes: it in no way affects any of the arithmetic of the contract, including {IERC20-balanceOf} and {IERC20-transfer}."
      },
      "decreaseAllowance(address,uint256)": {
        "details": "Atomically decreases the allowance granted to `spender` by the caller. This is an alternative to {approve} that can be used as a mitigation for problems described in {IERC20-approve}. Emits an {Approval} event indicating the updated allowance. Requirements: - `spender` cannot be the zero address. - `spender` must have allowance for the caller of at least `subtractedValue`."
      },
      "getRoleAdmin(bytes32)": {
        "details": "Returns the admin role that controls `role`. See {grantRole} and {revokeRole}. To change a role's admin, use {_setRoleAdmin}."
      },
      "getRoleMember(bytes32,uint256)": {
        "details": "Returns one of the accounts that have `role`. `index` must be a value between 0 and {getRoleMemberCount}, non-inclusive. Role bearers are not sorted in any particular way, and their ordering may change at any point. WARNING: When using {getRoleMember} and {getRoleMemberCount}, make sure you perform all queries on the same block. See the following https://forum.openzeppelin.com/t/iterating-over-elements-on-enumerableset-in-openzeppelin-contracts/2296[forum post] for more information."
      },
      "getRoleMemberCount(bytes32)": {
        "details": "Returns the number of accounts that have `role`. Can be used together with {getRoleMember} to enumerate all bearers of a role."
      },
      "grantRole(bytes32,address)": {
        "details": "Grants `role` to `account`. If `account` had not been already granted `role`, emits a {RoleGranted} event. Requirements: - the caller must have ``role``'s admin role."
      },
      "hasRole(bytes32,address)": {
        "details": "Returns `true` if `account` has been granted `role`."
      },
      "increaseAllowance(address,uint256)": {
        "details": "Atomically increases the allowance granted to `spender` by the caller. This is an alternative to {approve} that can be used as a mitigation for problems described in {IERC20-approve}. Emits an {Approval} event indicating the updated allowance. Requirements: - `spender` cannot be the zero address."
      },
      "initialize(address,address)": {
        "details": "Constructor for initializing the UToken contract.",
        "params": {
          "bridgeAdminAddress": "- address of the bridge admin.",
          "pauserAddress": "- address of the pauser admin."
        }
      },
      "mint(address,uint256)": {
        "details": "Mint new utokens for the provided 'address' and 'amount'",
        "params": {
          "to": ": account address, tokens: number of tokens Emits a {MintTokens} event with 'to' set to address and 'tokens' set to amount of tokens. Requirements: - `amount` cannot be less than zero."
        }
      },
      "name()": {
        "details": "Returns the name of the token."
      },
      "pause()": {
        "details": "Triggers stopped state. Requirements: - The contract must not be paused."
      },
      "paused()": {
        "details": "Returns true if the contract is paused, and false otherwise."
      },
      "renounceRole(bytes32,address)": {
        "details": "Revokes `role` from the calling account. Roles are often managed via {grantRole} and {revokeRole}: this function's purpose is to provide a mechanism for accounts to lose their privileges if they are compromised (such as when a trusted device is misplaced). If the calling account had been granted `role`, emits a {RoleRevoked} event. Requirements: - the caller must be `account`."
      },
      "revokeRole(bytes32,address)": {
        "details": "Revokes `role` from `account`. If `account` had been granted `role`, emits a {RoleRevoked} event. Requirements: - the caller must have ``role``'s admin role."
      },
      "setLiquidStakingContract(address)": {
        "details": "Set LiquidStaking smart contract."
      },
      "setSTokenContract(address)": {
        "details": "Set STokens smart contract."
      },
      "setWrapperContract(address)": {
        "details": "Set PegTokens smart contract."
      },
      "symbol()": {
        "details": "Returns the symbol of the token, usually a shorter version of the name."
      },
      "totalSupply()": {
        "details": "See {IERC20-totalSupply}."
      },
      "transfer(address,uint256)": {
        "details": "See {IERC20-transfer}. Requirements: - `recipient` cannot be the zero address. - the caller must have a balance of at least `amount`."
      },
      "transferFrom(address,address,uint256)": {
        "details": "See {IERC20-transferFrom}. Emits an {Approval} event indicating the updated allowance. This is not required by the EIP. See the note at the beginning of {ERC20}. Requirements: - `sender` and `recipient` cannot be the zero address. - `sender` must have a balance of at least `amount`. - the caller must have allowance for ``sender``'s tokens of at least `amount`."
      },
      "unpause()": {
        "details": "Returns to normal state. Requirements: - The contract must be paused."
      }
    },
    "version": 1
  },
  "userdoc": {
    "kind": "user",
    "methods": {},
    "version": 1
  }
}