{
  "contractName": "UTokens",
  "abi": [
    {
      "anonymous": false,
      "inputs": [
        {
          "indexed": true,
          "internalType": "address",
          "name": "owner",
          "type": "address"
        },
        {
          "indexed": true,
          "internalType": "address",
          "name": "spender",
          "type": "address"
        },
        {
          "indexed": false,
          "internalType": "uint256",
          "name": "value",
          "type": "uint256"
        }
      ],
      "name": "Approval",
      "type": "event"
    },
    {
      "anonymous": false,
      "inputs": [
        {
          "indexed": false,
          "internalType": "address",
          "name": "account",
          "type": "address"
        }
      ],
      "name": "Paused",
      "type": "event"
    },
    {
      "anonymous": false,
      "inputs": [
        {
          "indexed": true,
          "internalType": "bytes32",
          "name": "role",
          "type": "bytes32"
        },
        {
          "indexed": true,
          "internalType": "bytes32",
          "name": "previousAdminRole",
          "type": "bytes32"
        },
        {
          "indexed": true,
          "internalType": "bytes32",
          "name": "newAdminRole",
          "type": "bytes32"
        }
      ],
      "name": "RoleAdminChanged",
      "type": "event"
    },
    {
      "anonymous": false,
      "inputs": [
        {
          "indexed": true,
          "internalType": "bytes32",
          "name": "role",
          "type": "bytes32"
        },
        {
          "indexed": true,
          "internalType": "address",
          "name": "account",
          "type": "address"
        },
        {
          "indexed": true,
          "internalType": "address",
          "name": "sender",
          "type": "address"
        }
      ],
      "name": "RoleGranted",
      "type": "event"
    },
    {
      "anonymous": false,
      "inputs": [
        {
          "indexed": true,
          "internalType": "bytes32",
          "name": "role",
          "type": "bytes32"
        },
        {
          "indexed": true,
          "internalType": "address",
          "name": "account",
          "type": "address"
        },
        {
          "indexed": true,
          "internalType": "address",
          "name": "sender",
          "type": "address"
        }
      ],
      "name": "RoleRevoked",
      "type": "event"
    },
    {
      "anonymous": false,
      "inputs": [
        {
          "indexed": true,
          "internalType": "address",
          "name": "_contract",
          "type": "address"
        }
      ],
      "name": "SetLiquidStakingContract",
      "type": "event"
    },
    {
      "anonymous": false,
      "inputs": [
        {
          "indexed": true,
          "internalType": "address",
          "name": "_contract",
          "type": "address"
        }
      ],
      "name": "SetSTokensContract",
      "type": "event"
    },
    {
      "anonymous": false,
      "inputs": [
        {
          "indexed": true,
          "internalType": "address",
          "name": "_contract",
          "type": "address"
        }
      ],
      "name": "SetWrapperContract",
      "type": "event"
    },
    {
      "anonymous": false,
      "inputs": [
        {
          "indexed": true,
          "internalType": "address",
          "name": "from",
          "type": "address"
        },
        {
          "indexed": true,
          "internalType": "address",
          "name": "to",
          "type": "address"
        },
        {
          "indexed": false,
          "internalType": "uint256",
          "name": "value",
          "type": "uint256"
        }
      ],
      "name": "Transfer",
      "type": "event"
    },
    {
      "anonymous": false,
      "inputs": [
        {
          "indexed": false,
          "internalType": "address",
          "name": "account",
          "type": "address"
        }
      ],
      "name": "Unpaused",
      "type": "event"
    },
    {
      "inputs": [],
      "name": "BRIDGE_ADMIN_ROLE",
      "outputs": [
        {
          "internalType": "bytes32",
          "name": "",
          "type": "bytes32"
        }
      ],
      "stateMutability": "view",
      "type": "function",
      "constant": true
    },
    {
      "inputs": [],
      "name": "DEFAULT_ADMIN_ROLE",
      "outputs": [
        {
          "internalType": "bytes32",
          "name": "",
          "type": "bytes32"
        }
      ],
      "stateMutability": "view",
      "type": "function",
      "constant": true
    },
    {
      "inputs": [],
      "name": "HOLDER_ROLE",
      "outputs": [
        {
          "internalType": "bytes32",
          "name": "",
          "type": "bytes32"
        }
      ],
      "stateMutability": "view",
      "type": "function",
      "constant": true
    },
    {
      "inputs": [],
      "name": "PAUSER_ROLE",
      "outputs": [
        {
          "internalType": "bytes32",
          "name": "",
          "type": "bytes32"
        }
      ],
      "stateMutability": "view",
      "type": "function",
      "constant": true
    },
    {
      "inputs": [
        {
          "internalType": "address",
          "name": "owner",
          "type": "address"
        },
        {
          "internalType": "address",
          "name": "spender",
          "type": "address"
        }
      ],
      "name": "allowance",
      "outputs": [
        {
          "internalType": "uint256",
          "name": "",
          "type": "uint256"
        }
      ],
      "stateMutability": "view",
      "type": "function",
      "constant": true
    },
    {
      "inputs": [
        {
          "internalType": "address",
          "name": "spender",
          "type": "address"
        },
        {
          "internalType": "uint256",
          "name": "amount",
          "type": "uint256"
        }
      ],
      "name": "approve",
      "outputs": [
        {
          "internalType": "bool",
          "name": "",
          "type": "bool"
        }
      ],
      "stateMutability": "nonpayable",
      "type": "function"
    },
    {
      "inputs": [
        {
          "internalType": "address",
          "name": "account",
          "type": "address"
        }
      ],
      "name": "balanceOf",
      "outputs": [
        {
          "internalType": "uint256",
          "name": "",
          "type": "uint256"
        }
      ],
      "stateMutability": "view",
      "type": "function",
      "constant": true
    },
    {
      "inputs": [],
      "name": "decimals",
      "outputs": [
        {
          "internalType": "uint8",
          "name": "",
          "type": "uint8"
        }
      ],
      "stateMutability": "view",
      "type": "function",
      "constant": true
    },
    {
      "inputs": [
        {
          "internalType": "address",
          "name": "spender",
          "type": "address"
        },
        {
          "internalType": "uint256",
          "name": "subtractedValue",
          "type": "uint256"
        }
      ],
      "name": "decreaseAllowance",
      "outputs": [
        {
          "internalType": "bool",
          "name": "",
          "type": "bool"
        }
      ],
      "stateMutability": "nonpayable",
      "type": "function"
    },
    {
      "inputs": [
        {
          "internalType": "bytes32",
          "name": "role",
          "type": "bytes32"
        }
      ],
      "name": "getRoleAdmin",
      "outputs": [
        {
          "internalType": "bytes32",
          "name": "",
          "type": "bytes32"
        }
      ],
      "stateMutability": "view",
      "type": "function",
      "constant": true
    },
    {
      "inputs": [
        {
          "internalType": "bytes32",
          "name": "role",
          "type": "bytes32"
        },
        {
          "internalType": "uint256",
          "name": "index",
          "type": "uint256"
        }
      ],
      "name": "getRoleMember",
      "outputs": [
        {
          "internalType": "address",
          "name": "",
          "type": "address"
        }
      ],
      "stateMutability": "view",
      "type": "function",
      "constant": true
    },
    {
      "inputs": [
        {
          "internalType": "bytes32",
          "name": "role",
          "type": "bytes32"
        }
      ],
      "name": "getRoleMemberCount",
      "outputs": [
        {
          "internalType": "uint256",
          "name": "",
          "type": "uint256"
        }
      ],
      "stateMutability": "view",
      "type": "function",
      "constant": true
    },
    {
      "inputs": [
        {
          "internalType": "bytes32",
          "name": "role",
          "type": "bytes32"
        },
        {
          "internalType": "address",
          "name": "account",
          "type": "address"
        }
      ],
      "name": "grantRole",
      "outputs": [],
      "stateMutability": "nonpayable",
      "type": "function"
    },
    {
      "inputs": [
        {
          "internalType": "bytes32",
          "name": "role",
          "type": "bytes32"
        },
        {
          "internalType": "address",
          "name": "account",
          "type": "address"
        }
      ],
      "name": "hasRole",
      "outputs": [
        {
          "internalType": "bool",
          "name": "",
          "type": "bool"
        }
      ],
      "stateMutability": "view",
      "type": "function",
      "constant": true
    },
    {
      "inputs": [
        {
          "internalType": "address",
          "name": "spender",
          "type": "address"
        },
        {
          "internalType": "uint256",
          "name": "addedValue",
          "type": "uint256"
        }
      ],
      "name": "increaseAllowance",
      "outputs": [
        {
          "internalType": "bool",
          "name": "",
          "type": "bool"
        }
      ],
      "stateMutability": "nonpayable",
      "type": "function"
    },
    {
      "inputs": [],
      "name": "name",
      "outputs": [
        {
          "internalType": "string",
          "name": "",
          "type": "string"
        }
      ],
      "stateMutability": "view",
      "type": "function",
      "constant": true
    },
    {
      "inputs": [],
      "name": "paused",
      "outputs": [
        {
          "internalType": "bool",
          "name": "",
          "type": "bool"
        }
      ],
      "stateMutability": "view",
      "type": "function",
      "constant": true
    },
    {
      "inputs": [
        {
          "internalType": "bytes32",
          "name": "role",
          "type": "bytes32"
        },
        {
          "internalType": "address",
          "name": "account",
          "type": "address"
        }
      ],
      "name": "renounceRole",
      "outputs": [],
      "stateMutability": "nonpayable",
      "type": "function"
    },
    {
      "inputs": [
        {
          "internalType": "bytes32",
          "name": "role",
          "type": "bytes32"
        },
        {
          "internalType": "address",
          "name": "account",
          "type": "address"
        }
      ],
      "name": "revokeRole",
      "outputs": [],
      "stateMutability": "nonpayable",
      "type": "function"
    },
    {
      "inputs": [],
      "name": "symbol",
      "outputs": [
        {
          "internalType": "string",
          "name": "",
          "type": "string"
        }
      ],
      "stateMutability": "view",
      "type": "function",
      "constant": true
    },
    {
      "inputs": [],
      "name": "totalSupply",
      "outputs": [
        {
          "internalType": "uint256",
          "name": "",
          "type": "uint256"
        }
      ],
      "stateMutability": "view",
      "type": "function",
      "constant": true
    },
    {
      "inputs": [
        {
          "internalType": "address",
          "name": "recipient",
          "type": "address"
        },
        {
          "internalType": "uint256",
          "name": "amount",
          "type": "uint256"
        }
      ],
      "name": "transfer",
      "outputs": [
        {
          "internalType": "bool",
          "name": "",
          "type": "bool"
        }
      ],
      "stateMutability": "nonpayable",
      "type": "function"
    },
    {
      "inputs": [
        {
          "internalType": "address",
          "name": "sender",
          "type": "address"
        },
        {
          "internalType": "address",
          "name": "recipient",
          "type": "address"
        },
        {
          "internalType": "uint256",
          "name": "amount",
          "type": "uint256"
        }
      ],
      "name": "transferFrom",
      "outputs": [
        {
          "internalType": "bool",
          "name": "",
          "type": "bool"
        }
      ],
      "stateMutability": "nonpayable",
      "type": "function"
    },
    {
      "inputs": [
        {
          "internalType": "address",
          "name": "bridgeAdminAddress",
          "type": "address"
        },
        {
          "internalType": "address",
          "name": "pauserAddress",
          "type": "address"
        }
      ],
      "name": "initialize",
      "outputs": [],
      "stateMutability": "nonpayable",
      "type": "function"
    },
    {
      "inputs": [
        {
          "internalType": "address",
          "name": "to",
          "type": "address"
        },
        {
          "internalType": "uint256",
          "name": "tokens",
          "type": "uint256"
        }
      ],
      "name": "mint",
      "outputs": [
        {
          "internalType": "bool",
          "name": "success",
          "type": "bool"
        }
      ],
      "stateMutability": "nonpayable",
      "type": "function"
    },
    {
      "inputs": [
        {
          "internalType": "address",
          "name": "from",
          "type": "address"
        },
        {
          "internalType": "uint256",
          "name": "tokens",
          "type": "uint256"
        }
      ],
      "name": "burn",
      "outputs": [
        {
          "internalType": "bool",
          "name": "success",
          "type": "bool"
        }
      ],
      "stateMutability": "nonpayable",
      "type": "function"
    },
    {
      "inputs": [
        {
          "internalType": "address",
          "name": "stokenContract",
          "type": "address"
        }
      ],
      "name": "setSTokenContract",
      "outputs": [],
      "stateMutability": "nonpayable",
      "type": "function"
    },
    {
      "inputs": [
        {
          "internalType": "address",
          "name": "liquidStakingContract",
          "type": "address"
        }
      ],
      "name": "setLiquidStakingContract",
      "outputs": [],
      "stateMutability": "nonpayable",
      "type": "function"
    },
    {
      "inputs": [
        {
          "internalType": "address",
          "name": "wrapperTokensContract",
          "type": "address"
        }
      ],
      "name": "setWrapperContract",
      "outputs": [],
      "stateMutability": "nonpayable",
      "type": "function"
    },
    {
      "inputs": [],
      "name": "pause",
      "outputs": [
        {
          "internalType": "bool",
          "name": "success",
          "type": "bool"
        }
      ],
      "stateMutability": "nonpayable",
      "type": "function"
    },
    {
      "inputs": [],
      "name": "unpause",
      "outputs": [
        {
          "internalType": "bool",
          "name": "success",
          "type": "bool"
        }
      ],
      "stateMutability": "nonpayable",
      "type": "function"
    }
  ],
  "bytecode": "0x608060405234801561001057600080fd5b5061219a806100206000396000f3fe608060405234801561001057600080fd5b50600436106101e55760003560e01c806358f8943e1161010f578063a217fddf116100a2578063d547741f11610071578063d547741f146105c8578063dd62ed3e146105f4578063e63ab1e914610622578063e8cb78441461062a576101e5565b8063a217fddf1461054b578063a457c2d714610553578063a9059cbb1461057f578063ca15c873146105ab576101e5565b80639010d07c116100de5780639010d07c146104ac57806391d14854146104eb57806395d89b41146105175780639dc29fac1461051f576101e5565b806358f8943e146104505780635c975abb1461047657806370a082311461047e5780638456cb59146104a4576101e5565b80632f2ff15d116101875780633f4ba83a116101565780633f4ba83a146103c857806340c10f19146103d0578063485cc955146103fc5780634e5581271461042a576101e5565b80632f2ff15d14610324578063313ce5671461035257806336568abe14610370578063395093511461039c576101e5565b806318160ddd116101c357806318160ddd146102c15780631c9c304d146102c957806323b872dd146102d1578063248a9ca314610307576101e5565b806306fdde03146101ea578063095ea7b314610267578063118c38c7146102a7575b600080fd5b6101f2610650565b6040805160208082528351818301528351919283929083019185019080838360005b8381101561022c578181015183820152602001610214565b50505050905090810190601f1680156102595780820380516001836020036101000a031916815260200191505b509250505060405180910390f35b6102936004803603604081101561027d57600080fd5b506001600160a01b0381351690602001356106e6565b604080519115158252519081900360200190f35b6102af610704565b60408051918252519081900360200190f35b6102af610728565b6102af61072e565b610293600480360360608110156102e757600080fd5b506001600160a01b03813581169160208101359091169060400135610752565b6102af6004803603602081101561031d57600080fd5b50356107d9565b6103506004803603604081101561033a57600080fd5b50803590602001356001600160a01b03166107ee565b005b61035a61085a565b6040805160ff9092168252519081900360200190f35b6103506004803603604081101561038657600080fd5b50803590602001356001600160a01b0316610863565b610293600480360360408110156103b257600080fd5b506001600160a01b0381351690602001356108c4565b610293610912565b610293600480360360408110156103e657600080fd5b506001600160a01b038135169060200135610973565b6103506004803603604081101561041257600080fd5b506001600160a01b0381358116916020013516610a95565b6103506004803603602081101561044057600080fd5b50356001600160a01b0316610bf8565b6103506004803603602081101561046657600080fd5b50356001600160a01b0316610c86565b610293610d14565b6102af6004803603602081101561049457600080fd5b50356001600160a01b0316610d1d565b610293610d38565b6104cf600480360360408110156104c257600080fd5b5080359060200135610d93565b604080516001600160a01b039092168252519081900360200190f35b6102936004803603604081101561050157600080fd5b50803590602001356001600160a01b0316610db2565b6101f2610dca565b6102936004803603604081101561053557600080fd5b506001600160a01b038135169060200135610e2b565b6102af610ed8565b6102936004803603604081101561056957600080fd5b506001600160a01b038135169060200135610edd565b6102936004803603604081101561059557600080fd5b506001600160a01b038135169060200135610f45565b6102af600480360360208110156105c157600080fd5b5035610f59565b610350600480360360408110156105de57600080fd5b50803590602001356001600160a01b0316610f70565b6102af6004803603604081101561060a57600080fd5b506001600160a01b0381358116916020013516610fc9565b6102af610ff4565b6103506004803603602081101561064057600080fd5b50356001600160a01b0316611006565b60368054604080516020601f60026000196101006001881615020190951694909404938401819004810282018101909252828152606093909290918301828280156106dc5780601f106106b1576101008083540402835291602001916106dc565b820191906000526020600020905b8154815290600101906020018083116106bf57829003601f168201915b5050505050905090565b60006106fa6106f3611094565b8484611098565b5060015b92915050565b7f751b795d24b92e3d92d1d0d8f2885f4e9c9c269da350af36ae6b49069babf4bf81565b60355490565b7f88a91f33d69233608ec901106cda3805f1356caac193014d6c70c694090df4ae81565b600061075f848484611184565b6107cf8461076b611094565b6107ca8560405180606001604052806028815260200161205f602891396001600160a01b038a166000908152603460205260408120906107a9611094565b6001600160a01b0316815260208101919091526040016000205491906112e1565b611098565b5060019392505050565b60009081526097602052604090206002015490565b6000828152609760205260409020600201546108119061080c611094565b610db2565b61084c5760405162461bcd60e51b815260040180806020018281038252602f815260200180611f68602f913960400191505060405180910390fd5b6108568282611378565b5050565b60385460ff1690565b61086b611094565b6001600160a01b0316816001600160a01b0316146108ba5760405162461bcd60e51b815260040180806020018281038252602f815260200180612136602f913960400191505060405180910390fd5b61085682826113e1565b60006106fa6108d1611094565b846107ca85603460006108e2611094565b6001600160a01b03908116825260208083019390935260409182016000908120918c16815292529020549061144a565b600061092e60008051602061208783398151915261080c611094565b610965576040805162461bcd60e51b815260206004820152600360248201526255543760e81b604482015290519081900360640190fd5b61096d6114a4565b50600190565b600061099f7f751b795d24b92e3d92d1d0d8f2885f4e9c9c269da350af36ae6b49069babf4bf32610db2565b80156109c5575060cb546001600160a01b03166109ba611094565b6001600160a01b0316145b806109ea575060c9546001600160a01b03166109df611094565b6001600160a01b0316145b80610a225750326001600160a01b038416148015610a22575060ca546001600160a01b0316610a17611094565b6001600160a01b0316145b80610a545750610a547f88a91f33d69233608ec901106cda3805f1356caac193014d6c70c694090df4ae61080c611094565b610a8b576040805162461bcd60e51b815260206004820152600360248201526255543160e81b604482015290519081900360640190fd5b6106fa8383611544565b600054610100900460ff1680610aae5750610aae611636565b80610abc575060005460ff16155b610af75760405162461bcd60e51b815260040180806020018281038252602e815260200180612031602e913960400191505060405180910390fd5b600054610100900460ff16158015610b22576000805460ff1961ff0019909116610100171660011790555b610b7360405180604001604052806012815260200171705354414b45205065676765642041544f4d60701b815250604051806040016040528060058152602001647041544f4d60d81b815250611647565b610b7b6116e6565b610b83611798565b610b956000610b90611094565b61084c565b610bbf7f751b795d24b92e3d92d1d0d8f2885f4e9c9c269da350af36ae6b49069babf4bf8461084c565b610bd76000805160206120878339815191528361084c565b610be16006611835565b8015610bf3576000805461ff00191690555b505050565b610c05600061080c611094565b610c3c576040805162461bcd60e51b815260206004820152600360248201526255543560e81b604482015290519081900360640190fd5b60cb80546001600160a01b0319166001600160a01b0383169081179091556040517fe64d0ea1a8162224d25416ba9164fe1dae6ec14e9f846220b287c0c1c9413e0590600090a250565b610c93600061080c611094565b610cca576040805162461bcd60e51b815260206004820152600360248201526215550d60ea1b604482015290519081900360640190fd5b60ca80546001600160a01b0319166001600160a01b0383169081179091556040517f57fded54c0f01b7b2c662bd89530d6916e48149e02da384db87d1a67306be87190600090a250565b60655460ff1690565b6001600160a01b031660009081526033602052604090205490565b6000610d5460008051602061208783398151915261080c611094565b610d8b576040805162461bcd60e51b81526020600482015260036024820152622aaa1b60e91b604482015290519081900360640190fd5b61096d61184b565b6000828152609760205260408120610dab90836118ce565b9392505050565b6000828152609760205260408120610dab90836118da565b60378054604080516020601f60026000196101006001881615020190951694909404938401819004810282018101909252828152606093909290918301828280156106dc5780601f106106b1576101008083540402835291602001916106dc565b6000326001600160a01b038416148015610e5f575060ca546001600160a01b0316610e54611094565b6001600160a01b0316145b80610e975750326001600160a01b038416148015610e97575060cb546001600160a01b0316610e8c611094565b6001600160a01b0316145b610ece576040805162461bcd60e51b81526020600482015260036024820152622aaa1960e91b604482015290519081900360640190fd5b6106fa83836118ef565b600081565b60006106fa610eea611094565b846107ca856040518060600160405280602581526020016121116025913960346000610f14611094565b6001600160a01b03908116825260208083019390935260409182016000908120918d168152925290205491906112e1565b60006106fa610f52611094565b8484611184565b60008181526097602052604081206106fe906119eb565b600082815260976020526040902060020154610f8e9061080c611094565b6108ba5760405162461bcd60e51b81526004018080602001828103825260308152602001806120016030913960400191505060405180910390fd5b6001600160a01b03918216600090815260346020908152604080832093909416825291909152205490565b60008051602061208783398151915281565b611013600061080c611094565b61104a576040805162461bcd60e51b815260206004820152600360248201526255543360e81b604482015290519081900360640190fd5b60c980546001600160a01b0319166001600160a01b0383169081179091556040517fd0b9dbe26f676f4cdb02fc249c203baa0314cec79e18b4194dc862795a5de03f90600090a250565b3390565b6001600160a01b0383166110dd5760405162461bcd60e51b81526004018080602001828103825260248152602001806120ed6024913960400191505060405180910390fd5b6001600160a01b0382166111225760405162461bcd60e51b8152600401808060200182810382526022815260200180611fb96022913960400191505060405180910390fd5b6001600160a01b03808416600081815260346020908152604080832094871680845294825291829020859055815185815291517f8c5be1e5ebec7d5bd14f71427d1e84f3dd0314c0f7b2291e5b200ac8c7c3b9259281900390910190a3505050565b6001600160a01b0383166111c95760405162461bcd60e51b81526004018080602001828103825260258152602001806120c86025913960400191505060405180910390fd5b6001600160a01b03821661120e5760405162461bcd60e51b8152600401808060200182810382526023815260200180611f456023913960400191505060405180910390fd5b6112198383836119f6565b61125681604051806060016040528060268152602001611fdb602691396001600160a01b03861660009081526033602052604090205491906112e1565b6001600160a01b038085166000908152603360205260408082209390935590841681522054611285908261144a565b6001600160a01b0380841660008181526033602090815260409182902094909455805185815290519193928716927fddf252ad1be2c89b69c2b068fc378daa952ba7f163c4a11628f55a4df523b3ef92918290030190a3505050565b600081848411156113705760405162461bcd60e51b81526004018080602001828103825283818151815260200191508051906020019080838360005b8381101561133557818101518382015260200161131d565b50505050905090810190601f1680156113625780820380516001836020036101000a031916815260200191505b509250505060405180910390fd5b505050900390565b60008281526097602052604090206113909082611a41565b156108565761139d611094565b6001600160a01b0316816001600160a01b0316837f2f8788117e7eff1d82e926ec794901d17c78024a50270940304540a733656f0d60405160405180910390a45050565b60008281526097602052604090206113f99082611a56565b1561085657611406611094565b6001600160a01b0316816001600160a01b0316837ff6391f5c32d9c69d2a47ea670b442974b53935d1edc7fd64eb21e047a839171b60405160405180910390a45050565b600082820183811015610dab576040805162461bcd60e51b815260206004820152601b60248201527f536166654d6174683a206164646974696f6e206f766572666c6f770000000000604482015290519081900360640190fd5b6114ac610d14565b6114f4576040805162461bcd60e51b815260206004820152601460248201527314185d5cd8589b194e881b9bdd081c185d5cd95960621b604482015290519081900360640190fd5b6065805460ff191690557f5db9ee0a495bf2e6ff9c91a7834c1ba4fdd244a5e8aa4e537bd38aeae4b073aa611527611094565b604080516001600160a01b039092168252519081900360200190a1565b6001600160a01b03821661159f576040805162461bcd60e51b815260206004820152601f60248201527f45524332303a206d696e7420746f20746865207a65726f206164647265737300604482015290519081900360640190fd5b6115ab600083836119f6565b6035546115b8908261144a565b6035556001600160a01b0382166000908152603360205260409020546115de908261144a565b6001600160a01b03831660008181526033602090815260408083209490945583518581529351929391927fddf252ad1be2c89b69c2b068fc378daa952ba7f163c4a11628f55a4df523b3ef9281900390910190a35050565b600061164130611a6b565b15905090565b600054610100900460ff16806116605750611660611636565b8061166e575060005460ff16155b6116a95760405162461bcd60e51b815260040180806020018281038252602e815260200180612031602e913960400191505060405180910390fd5b600054610100900460ff161580156116d4576000805460ff1961ff0019909116610100171660011790555b6116dc611a71565b610be18383611b11565b600054610100900460ff16806116ff57506116ff611636565b8061170d575060005460ff16155b6117485760405162461bcd60e51b815260040180806020018281038252602e815260200180612031602e913960400191505060405180910390fd5b600054610100900460ff16158015611773576000805460ff1961ff0019909116610100171660011790555b61177b611a71565b611783611a71565b8015611795576000805461ff00191690555b50565b600054610100900460ff16806117b157506117b1611636565b806117bf575060005460ff16155b6117fa5760405162461bcd60e51b815260040180806020018281038252602e815260200180612031602e913960400191505060405180910390fd5b600054610100900460ff16158015611825576000805460ff1961ff0019909116610100171660011790555b61182d611a71565b611783611be9565b6038805460ff191660ff92909216919091179055565b611853610d14565b15611898576040805162461bcd60e51b815260206004820152601060248201526f14185d5cd8589b194e881c185d5cd95960821b604482015290519081900360640190fd5b6065805460ff191660011790557f62e78cea01bee320cd4e420270b5ea74000d11b0c9f74754ebdbfc544b05a258611527611094565b6000610dab8383611c94565b6000610dab836001600160a01b038416611cf8565b6001600160a01b0382166119345760405162461bcd60e51b81526004018080602001828103825260218152602001806120a76021913960400191505060405180910390fd5b611940826000836119f6565b61197d81604051806060016040528060228152602001611f97602291396001600160a01b03851660009081526033602052604090205491906112e1565b6001600160a01b0383166000908152603360205260409020556035546119a39082611d10565b6035556040805182815290516000916001600160a01b038516917fddf252ad1be2c89b69c2b068fc378daa952ba7f163c4a11628f55a4df523b3ef9181900360200190a35050565b60006106fe82611d6d565b6119fe610d14565b15611a36576040805162461bcd60e51b81526020600482015260036024820152620aaa8760eb1b604482015290519081900360640190fd5b610bf3838383610bf3565b6000610dab836001600160a01b038416611d71565b6000610dab836001600160a01b038416611dbb565b3b151590565b600054610100900460ff1680611a8a5750611a8a611636565b80611a98575060005460ff16155b611ad35760405162461bcd60e51b815260040180806020018281038252602e815260200180612031602e913960400191505060405180910390fd5b600054610100900460ff16158015611783576000805460ff1961ff0019909116610100171660011790558015611795576000805461ff001916905550565b600054610100900460ff1680611b2a5750611b2a611636565b80611b38575060005460ff16155b611b735760405162461bcd60e51b815260040180806020018281038252602e815260200180612031602e913960400191505060405180910390fd5b600054610100900460ff16158015611b9e576000805460ff1961ff0019909116610100171660011790555b8251611bb1906036906020860190611e81565b508151611bc5906037906020850190611e81565b506038805460ff191660121790558015610bf3576000805461ff0019169055505050565b600054610100900460ff1680611c025750611c02611636565b80611c10575060005460ff16155b611c4b5760405162461bcd60e51b815260040180806020018281038252602e815260200180612031602e913960400191505060405180910390fd5b600054610100900460ff16158015611c76576000805460ff1961ff0019909116610100171660011790555b6065805460ff191690558015611795576000805461ff001916905550565b81546000908210611cd65760405162461bcd60e51b8152600401808060200182810382526022815260200180611f236022913960400191505060405180910390fd5b826000018281548110611ce557fe5b9060005260206000200154905092915050565b60009081526001919091016020526040902054151590565b600082821115611d67576040805162461bcd60e51b815260206004820152601e60248201527f536166654d6174683a207375627472616374696f6e206f766572666c6f770000604482015290519081900360640190fd5b50900390565b5490565b6000611d7d8383611cf8565b611db3575081546001818101845560008481526020808220909301849055845484825282860190935260409020919091556106fe565b5060006106fe565b60008181526001830160205260408120548015611e775783546000198083019190810190600090879083908110611dee57fe5b9060005260206000200154905080876000018481548110611e0b57fe5b600091825260208083209091019290925582815260018981019092526040902090840190558654879080611e3b57fe5b600190038181906000526020600020016000905590558660010160008781526020019081526020016000206000905560019450505050506106fe565b60009150506106fe565b828054600181600116156101000203166002900490600052602060002090601f016020900481019282611eb75760008555611efd565b82601f10611ed057805160ff1916838001178555611efd565b82800160010185558215611efd579182015b82811115611efd578251825591602001919060010190611ee2565b50611f09929150611f0d565b5090565b5b80821115611f095760008155600101611f0e56fe456e756d657261626c655365743a20696e646578206f7574206f6620626f756e647345524332303a207472616e7366657220746f20746865207a65726f2061646472657373416363657373436f6e74726f6c3a2073656e646572206d75737420626520616e2061646d696e20746f206772616e7445524332303a206275726e20616d6f756e7420657863656564732062616c616e636545524332303a20617070726f766520746f20746865207a65726f206164647265737345524332303a207472616e7366657220616d6f756e7420657863656564732062616c616e6365416363657373436f6e74726f6c3a2073656e646572206d75737420626520616e2061646d696e20746f207265766f6b65496e697469616c697a61626c653a20636f6e747261637420697320616c726561647920696e697469616c697a656445524332303a207472616e7366657220616d6f756e74206578636565647320616c6c6f77616e636565d7a28e3265b37a6474929f336521b332c1681b933f6cb9f3376673440d862a45524332303a206275726e2066726f6d20746865207a65726f206164647265737345524332303a207472616e736665722066726f6d20746865207a65726f206164647265737345524332303a20617070726f76652066726f6d20746865207a65726f206164647265737345524332303a2064656372656173656420616c6c6f77616e63652062656c6f77207a65726f416363657373436f6e74726f6c3a2063616e206f6e6c792072656e6f756e636520726f6c657320666f722073656c66a2646970667358221220c9a95831a388e24f51c6c1e0d291fe8cf2d145700506c43a451d76705c44be1964736f6c63430007060033",
  "immutableReferences": {},
  "source": "// SPDX-License-Identifier: UNLICENSED\npragma solidity >= 0.7.0;\n\nimport \"@openzeppelin/contracts-upgradeable/token/ERC20/ERC20Upgradeable.sol\";\nimport \"@openzeppelin/contracts-upgradeable/math/SafeMathUpgradeable.sol\";\nimport \"@openzeppelin/contracts-upgradeable/utils/PausableUpgradeable.sol\";\nimport \"@openzeppelin/contracts-upgradeable/access/AccessControlUpgradeable.sol\";\nimport \"./interfaces/IUTokens.sol\";\n\ncontract UTokens is ERC20Upgradeable, IUTokens, PausableUpgradeable, AccessControlUpgradeable {\n\n    using SafeMathUpgradeable for uint256;\n\n    // constants defining access control ROLES\n    bytes32 public constant BRIDGE_ADMIN_ROLE = keccak256(\"BRIDGE_ADMIN_ROLE\");\n    bytes32 public constant PAUSER_ROLE = keccak256(\"PAUSER_ROLE\");\n    bytes32 public constant HOLDER_ROLE = keccak256(\"HOLDER_ROLE\");\n\n    address private _stokenContract;\n    address private _liquidStakingContract;\n    address private _wrapperContract;\n\n    /**\n   * @dev Constructor for initializing the UToken contract.\n   * @param bridgeAdminAddress - address of the bridge admin.\n   * @param pauserAddress - address of the pauser admin.\n   */\n    function initialize(address bridgeAdminAddress, address pauserAddress) public virtual initializer {\n        __ERC20_init(\"pSTAKE Pegged ATOM\", \"pATOM\");\n        __AccessControl_init();\n        __Pausable_init();\n        _setupRole(DEFAULT_ADMIN_ROLE, _msgSender());\n        _setupRole(BRIDGE_ADMIN_ROLE, bridgeAdminAddress);\n        _setupRole(PAUSER_ROLE, pauserAddress);\n        _setupDecimals(6);\n    }\n\n    /**\n    * @dev Mint new utokens for the provided 'address' and 'amount'\n    * @param to: account address, tokens: number of tokens\n    *\n    * Emits a {MintTokens} event with 'to' set to address and 'tokens' set to amount of tokens.\n    *\n    * Requirements:\n    *\n    * - `amount` cannot be less than zero.\n    *\n    */\n    function mint(address to, uint256 tokens) public virtual override returns (bool success) {\n        require((hasRole(BRIDGE_ADMIN_ROLE, tx.origin) && _msgSender() == _wrapperContract) // minted by bridge  \n        || (_msgSender() == _stokenContract) // minted by STokens contract\n        || (tx.origin == to && _msgSender() == _liquidStakingContract) // minted by LS contract withdrawUnbonded()\n        || hasRole(HOLDER_ROLE, _msgSender()), \"UT1\"); // minted by holder contract\n\n        _mint(to, tokens);\n        return true;\n    }\n\n    /*\n     * @dev Burn utokens for the provided 'address' and 'amount'\n     * @param from: account address, tokens: number of tokens\n     *\n     * Emits a {BurnTokens} event with 'from' set to address and 'tokens' set to amount of tokens.\n     *\n     * Requirements:\n     *\n     * - `amount` cannot be less than zero.\n     *\n     */\n    function burn(address from, uint256 tokens) public virtual override returns (bool success) {\n        require((tx.origin == from && _msgSender()==_liquidStakingContract) ||  (tx.origin == from && _msgSender() == _wrapperContract), \"UT2\");\n        _burn(from, tokens);\n        return true;\n    }\n\n    /*\n    * @dev Set 'contract address', called for stokens smart contract\n    * @param stokenContract: stoken contract address\n    *\n    * Emits a {SetSTokensContract} event with '_contract' set to the stoken contract address.\n    *\n    */\n    //These functions need to be called after deployment, only admin can call the same\n    function setSTokenContract(address stokenContract) public virtual override {\n        require(hasRole(DEFAULT_ADMIN_ROLE, _msgSender()), \"UT3\");\n        _stokenContract = stokenContract;\n        emit SetSTokensContract(stokenContract);\n    }\n\n    /*\n     * @dev Set 'contract address', for liquid staking smart contract\n     * @param liquidStakingContract: liquidStaking contract address\n     *\n     * Emits a {SetLiquidStakingContract} event with '_contract' set to the liquidStaking contract address.\n     *\n     */\n    function setLiquidStakingContract(address liquidStakingContract) public virtual override {\n        require(hasRole(DEFAULT_ADMIN_ROLE, _msgSender()), \"UT4\");\n        _liquidStakingContract = liquidStakingContract;\n        emit SetLiquidStakingContract(liquidStakingContract);\n    }\n\n    /*\n     * @dev Set 'contract address', called for token wrapper smart contract\n     * @param wrapperTokensContract: tokenWrapper contract address\n     *\n     * Emits a {SetWrapperContract} event with '_contract' set to the tokenWrapper contract address.\n     *\n     */\n    function setWrapperContract(address wrapperTokensContract) public virtual override {\n        require(hasRole(DEFAULT_ADMIN_ROLE, _msgSender()), \"UT5\");\n        _wrapperContract = wrapperTokensContract;\n        emit SetWrapperContract(wrapperTokensContract);\n    }\n\n    /**\n      * @dev Triggers stopped state.\n      *\n      * Requirements:\n      *\n      * - The contract must not be paused.\n      */\n    function pause() public virtual returns (bool success) {\n        require(hasRole(PAUSER_ROLE, _msgSender()), \"UT6\");\n        _pause();\n        return true;\n    }\n\n    /**\n     * @dev Returns to normal state.\n     *\n     * Requirements:\n     *\n     * - The contract must be paused.\n     */\n    function unpause() public virtual returns (bool success) {\n        require(hasRole(PAUSER_ROLE, _msgSender()), \"UT7\");\n        _unpause();\n        return true;\n    }\n\n    /**\n     * @dev Hook that is called before any transfer of tokens. This includes\n     * minting and burning.\n     *\n     * Calling conditions:\n     *\n     * - when `from` and `to` are both non-zero, `amount` of ``from``'s tokens\n     * will be to transferred to `to`.\n     * - when `from` is zero, `amount` tokens will be minted for `to`.\n     * - when `to` is zero, `amount` of ``from``'s tokens will be burned.\n     * - `from` and `to` are never both zero.\n     *\n     */\n    function _beforeTokenTransfer(address from, address to, uint256 amount) internal virtual override {\n        require(!paused(), \"UT8\");\n        super._beforeTokenTransfer(from, to, amount);\n    }\n}",
  "sourcePath": "/home/aditimahesh/Documents/Work/Persistence/go/src/github.com/persistenceOne/pStakeSmartContracts/contracts/UTokens.sol",
  "compiler": {
    "name": "solc",
    "version": "0.7.6+commit.7338295f.Emscripten.clang"
  },
  "schemaVersion": "3.3.4",
  "updatedAt": "2021-07-01T12:02:44.235Z",
  "networkType": "ethereum",
  "devdoc": {
    "kind": "dev",
    "methods": {
      "allowance(address,address)": {
        "details": "See {IERC20-allowance}."
      },
      "approve(address,uint256)": {
        "details": "See {IERC20-approve}. Requirements: - `spender` cannot be the zero address."
      },
      "balanceOf(address)": {
        "details": "See {IERC20-balanceOf}."
      },
      "burn(address,uint256)": {
        "details": "Burns `amount` tokens to the caller's address `from`. Returns a boolean value indicating whether the operation succeeded. Emits a {Transfer} event."
      },
      "decimals()": {
        "details": "Returns the number of decimals used to get its user representation. For example, if `decimals` equals `2`, a balance of `505` tokens should be displayed to a user as `5,05` (`505 / 10 ** 2`). Tokens usually opt for a value of 18, imitating the relationship between Ether and Wei. This is the value {ERC20} uses, unless {_setupDecimals} is called. NOTE: This information is only used for _display_ purposes: it in no way affects any of the arithmetic of the contract, including {IERC20-balanceOf} and {IERC20-transfer}."
      },
      "decreaseAllowance(address,uint256)": {
        "details": "Atomically decreases the allowance granted to `spender` by the caller. This is an alternative to {approve} that can be used as a mitigation for problems described in {IERC20-approve}. Emits an {Approval} event indicating the updated allowance. Requirements: - `spender` cannot be the zero address. - `spender` must have allowance for the caller of at least `subtractedValue`."
      },
      "getRoleAdmin(bytes32)": {
        "details": "Returns the admin role that controls `role`. See {grantRole} and {revokeRole}. To change a role's admin, use {_setRoleAdmin}."
      },
      "getRoleMember(bytes32,uint256)": {
        "details": "Returns one of the accounts that have `role`. `index` must be a value between 0 and {getRoleMemberCount}, non-inclusive. Role bearers are not sorted in any particular way, and their ordering may change at any point. WARNING: When using {getRoleMember} and {getRoleMemberCount}, make sure you perform all queries on the same block. See the following https://forum.openzeppelin.com/t/iterating-over-elements-on-enumerableset-in-openzeppelin-contracts/2296[forum post] for more information."
      },
      "getRoleMemberCount(bytes32)": {
        "details": "Returns the number of accounts that have `role`. Can be used together with {getRoleMember} to enumerate all bearers of a role."
      },
      "grantRole(bytes32,address)": {
        "details": "Grants `role` to `account`. If `account` had not been already granted `role`, emits a {RoleGranted} event. Requirements: - the caller must have ``role``'s admin role."
      },
      "hasRole(bytes32,address)": {
        "details": "Returns `true` if `account` has been granted `role`."
      },
      "increaseAllowance(address,uint256)": {
        "details": "Atomically increases the allowance granted to `spender` by the caller. This is an alternative to {approve} that can be used as a mitigation for problems described in {IERC20-approve}. Emits an {Approval} event indicating the updated allowance. Requirements: - `spender` cannot be the zero address."
      },
      "initialize(address,address)": {
        "details": "Constructor for initializing the UToken contract.",
        "params": {
          "bridgeAdminAddress": "- address of the bridge admin.",
          "pauserAddress": "- address of the pauser admin."
        }
      },
      "mint(address,uint256)": {
        "details": "Mint new utokens for the provided 'address' and 'amount'",
        "params": {
          "to": ": account address, tokens: number of tokens Emits a {MintTokens} event with 'to' set to address and 'tokens' set to amount of tokens. Requirements: - `amount` cannot be less than zero."
        }
      },
      "name()": {
        "details": "Returns the name of the token."
      },
      "pause()": {
        "details": "Triggers stopped state. Requirements: - The contract must not be paused."
      },
      "paused()": {
        "details": "Returns true if the contract is paused, and false otherwise."
      },
      "renounceRole(bytes32,address)": {
        "details": "Revokes `role` from the calling account. Roles are often managed via {grantRole} and {revokeRole}: this function's purpose is to provide a mechanism for accounts to lose their privileges if they are compromised (such as when a trusted device is misplaced). If the calling account had been granted `role`, emits a {RoleRevoked} event. Requirements: - the caller must be `account`."
      },
      "revokeRole(bytes32,address)": {
        "details": "Revokes `role` from `account`. If `account` had been granted `role`, emits a {RoleRevoked} event. Requirements: - the caller must have ``role``'s admin role."
      },
      "setLiquidStakingContract(address)": {
        "details": "Set LiquidStaking smart contract."
      },
      "setSTokenContract(address)": {
        "details": "Set STokens smart contract."
      },
      "setWrapperContract(address)": {
        "details": "Set PegTokens smart contract."
      },
      "symbol()": {
        "details": "Returns the symbol of the token, usually a shorter version of the name."
      },
      "totalSupply()": {
        "details": "See {IERC20-totalSupply}."
      },
      "transfer(address,uint256)": {
        "details": "See {IERC20-transfer}. Requirements: - `recipient` cannot be the zero address. - the caller must have a balance of at least `amount`."
      },
      "transferFrom(address,address,uint256)": {
        "details": "See {IERC20-transferFrom}. Emits an {Approval} event indicating the updated allowance. This is not required by the EIP. See the note at the beginning of {ERC20}. Requirements: - `sender` and `recipient` cannot be the zero address. - `sender` must have a balance of at least `amount`. - the caller must have allowance for ``sender``'s tokens of at least `amount`."
      },
      "unpause()": {
        "details": "Returns to normal state. Requirements: - The contract must be paused."
      }
    },
    "version": 1
  },
  "userdoc": {
    "kind": "user",
    "methods": {},
    "version": 1
  }
}