{
  "contractName": "UTokensV2",
  "abi": [
    {
      "anonymous": false,
      "inputs": [
        {
          "indexed": true,
          "internalType": "address",
          "name": "owner",
          "type": "address"
        },
        {
          "indexed": true,
          "internalType": "address",
          "name": "spender",
          "type": "address"
        },
        {
          "indexed": false,
          "internalType": "uint256",
          "name": "value",
          "type": "uint256"
        }
      ],
      "name": "Approval",
      "type": "event"
    },
    {
      "anonymous": false,
      "inputs": [
        {
          "indexed": false,
          "internalType": "address",
          "name": "account",
          "type": "address"
        }
      ],
      "name": "Paused",
      "type": "event"
    },
    {
      "anonymous": false,
      "inputs": [
        {
          "indexed": true,
          "internalType": "bytes32",
          "name": "role",
          "type": "bytes32"
        },
        {
          "indexed": true,
          "internalType": "bytes32",
          "name": "previousAdminRole",
          "type": "bytes32"
        },
        {
          "indexed": true,
          "internalType": "bytes32",
          "name": "newAdminRole",
          "type": "bytes32"
        }
      ],
      "name": "RoleAdminChanged",
      "type": "event"
    },
    {
      "anonymous": false,
      "inputs": [
        {
          "indexed": true,
          "internalType": "bytes32",
          "name": "role",
          "type": "bytes32"
        },
        {
          "indexed": true,
          "internalType": "address",
          "name": "account",
          "type": "address"
        },
        {
          "indexed": true,
          "internalType": "address",
          "name": "sender",
          "type": "address"
        }
      ],
      "name": "RoleGranted",
      "type": "event"
    },
    {
      "anonymous": false,
      "inputs": [
        {
          "indexed": true,
          "internalType": "bytes32",
          "name": "role",
          "type": "bytes32"
        },
        {
          "indexed": true,
          "internalType": "address",
          "name": "account",
          "type": "address"
        },
        {
          "indexed": true,
          "internalType": "address",
          "name": "sender",
          "type": "address"
        }
      ],
      "name": "RoleRevoked",
      "type": "event"
    },
    {
      "anonymous": false,
      "inputs": [
        {
          "indexed": true,
          "internalType": "address",
          "name": "_contract",
          "type": "address"
        }
      ],
      "name": "SetLiquidStakingContract",
      "type": "event"
    },
    {
      "anonymous": false,
      "inputs": [
        {
          "indexed": true,
          "internalType": "address",
          "name": "_contract",
          "type": "address"
        }
      ],
      "name": "SetSTokensContract",
      "type": "event"
    },
    {
      "anonymous": false,
      "inputs": [
        {
          "indexed": true,
          "internalType": "address",
          "name": "_contract",
          "type": "address"
        }
      ],
      "name": "SetWrapperContract",
      "type": "event"
    },
    {
      "anonymous": false,
      "inputs": [
        {
          "indexed": true,
          "internalType": "address",
          "name": "from",
          "type": "address"
        },
        {
          "indexed": true,
          "internalType": "address",
          "name": "to",
          "type": "address"
        },
        {
          "indexed": false,
          "internalType": "uint256",
          "name": "value",
          "type": "uint256"
        }
      ],
      "name": "Transfer",
      "type": "event"
    },
    {
      "anonymous": false,
      "inputs": [
        {
          "indexed": false,
          "internalType": "address",
          "name": "account",
          "type": "address"
        }
      ],
      "name": "Unpaused",
      "type": "event"
    },
    {
      "inputs": [],
      "name": "BRIDGE_ADMIN_ROLE",
      "outputs": [
        {
          "internalType": "bytes32",
          "name": "",
          "type": "bytes32"
        }
      ],
      "stateMutability": "view",
      "type": "function",
      "constant": true
    },
    {
      "inputs": [],
      "name": "DEFAULT_ADMIN_ROLE",
      "outputs": [
        {
          "internalType": "bytes32",
          "name": "",
          "type": "bytes32"
        }
      ],
      "stateMutability": "view",
      "type": "function",
      "constant": true
    },
    {
      "inputs": [],
      "name": "PAUSER_ROLE",
      "outputs": [
        {
          "internalType": "bytes32",
          "name": "",
          "type": "bytes32"
        }
      ],
      "stateMutability": "view",
      "type": "function",
      "constant": true
    },
    {
      "inputs": [],
      "name": "_liquidStakingContract",
      "outputs": [
        {
          "internalType": "address",
          "name": "",
          "type": "address"
        }
      ],
      "stateMutability": "view",
      "type": "function",
      "constant": true
    },
    {
      "inputs": [],
      "name": "_stokenContract",
      "outputs": [
        {
          "internalType": "address",
          "name": "",
          "type": "address"
        }
      ],
      "stateMutability": "view",
      "type": "function",
      "constant": true
    },
    {
      "inputs": [],
      "name": "_version",
      "outputs": [
        {
          "internalType": "uint256",
          "name": "",
          "type": "uint256"
        }
      ],
      "stateMutability": "view",
      "type": "function",
      "constant": true
    },
    {
      "inputs": [],
      "name": "_wrapperContract",
      "outputs": [
        {
          "internalType": "address",
          "name": "",
          "type": "address"
        }
      ],
      "stateMutability": "view",
      "type": "function",
      "constant": true
    },
    {
      "inputs": [
        {
          "internalType": "address",
          "name": "owner",
          "type": "address"
        },
        {
          "internalType": "address",
          "name": "spender",
          "type": "address"
        }
      ],
      "name": "allowance",
      "outputs": [
        {
          "internalType": "uint256",
          "name": "",
          "type": "uint256"
        }
      ],
      "stateMutability": "view",
      "type": "function",
      "constant": true
    },
    {
      "inputs": [
        {
          "internalType": "address",
          "name": "spender",
          "type": "address"
        },
        {
          "internalType": "uint256",
          "name": "amount",
          "type": "uint256"
        }
      ],
      "name": "approve",
      "outputs": [
        {
          "internalType": "bool",
          "name": "",
          "type": "bool"
        }
      ],
      "stateMutability": "nonpayable",
      "type": "function"
    },
    {
      "inputs": [
        {
          "internalType": "address",
          "name": "account",
          "type": "address"
        }
      ],
      "name": "balanceOf",
      "outputs": [
        {
          "internalType": "uint256",
          "name": "",
          "type": "uint256"
        }
      ],
      "stateMutability": "view",
      "type": "function",
      "constant": true
    },
    {
      "inputs": [],
      "name": "decimals",
      "outputs": [
        {
          "internalType": "uint8",
          "name": "",
          "type": "uint8"
        }
      ],
      "stateMutability": "view",
      "type": "function",
      "constant": true
    },
    {
      "inputs": [
        {
          "internalType": "address",
          "name": "spender",
          "type": "address"
        },
        {
          "internalType": "uint256",
          "name": "subtractedValue",
          "type": "uint256"
        }
      ],
      "name": "decreaseAllowance",
      "outputs": [
        {
          "internalType": "bool",
          "name": "",
          "type": "bool"
        }
      ],
      "stateMutability": "nonpayable",
      "type": "function"
    },
    {
      "inputs": [
        {
          "internalType": "bytes32",
          "name": "role",
          "type": "bytes32"
        }
      ],
      "name": "getRoleAdmin",
      "outputs": [
        {
          "internalType": "bytes32",
          "name": "",
          "type": "bytes32"
        }
      ],
      "stateMutability": "view",
      "type": "function",
      "constant": true
    },
    {
      "inputs": [
        {
          "internalType": "bytes32",
          "name": "role",
          "type": "bytes32"
        },
        {
          "internalType": "uint256",
          "name": "index",
          "type": "uint256"
        }
      ],
      "name": "getRoleMember",
      "outputs": [
        {
          "internalType": "address",
          "name": "",
          "type": "address"
        }
      ],
      "stateMutability": "view",
      "type": "function",
      "constant": true
    },
    {
      "inputs": [
        {
          "internalType": "bytes32",
          "name": "role",
          "type": "bytes32"
        }
      ],
      "name": "getRoleMemberCount",
      "outputs": [
        {
          "internalType": "uint256",
          "name": "",
          "type": "uint256"
        }
      ],
      "stateMutability": "view",
      "type": "function",
      "constant": true
    },
    {
      "inputs": [
        {
          "internalType": "bytes32",
          "name": "role",
          "type": "bytes32"
        },
        {
          "internalType": "address",
          "name": "account",
          "type": "address"
        }
      ],
      "name": "grantRole",
      "outputs": [],
      "stateMutability": "nonpayable",
      "type": "function"
    },
    {
      "inputs": [
        {
          "internalType": "bytes32",
          "name": "role",
          "type": "bytes32"
        },
        {
          "internalType": "address",
          "name": "account",
          "type": "address"
        }
      ],
      "name": "hasRole",
      "outputs": [
        {
          "internalType": "bool",
          "name": "",
          "type": "bool"
        }
      ],
      "stateMutability": "view",
      "type": "function",
      "constant": true
    },
    {
      "inputs": [
        {
          "internalType": "address",
          "name": "spender",
          "type": "address"
        },
        {
          "internalType": "uint256",
          "name": "addedValue",
          "type": "uint256"
        }
      ],
      "name": "increaseAllowance",
      "outputs": [
        {
          "internalType": "bool",
          "name": "",
          "type": "bool"
        }
      ],
      "stateMutability": "nonpayable",
      "type": "function"
    },
    {
      "inputs": [],
      "name": "name",
      "outputs": [
        {
          "internalType": "string",
          "name": "",
          "type": "string"
        }
      ],
      "stateMutability": "view",
      "type": "function",
      "constant": true
    },
    {
      "inputs": [],
      "name": "paused",
      "outputs": [
        {
          "internalType": "bool",
          "name": "",
          "type": "bool"
        }
      ],
      "stateMutability": "view",
      "type": "function",
      "constant": true
    },
    {
      "inputs": [
        {
          "internalType": "bytes32",
          "name": "role",
          "type": "bytes32"
        },
        {
          "internalType": "address",
          "name": "account",
          "type": "address"
        }
      ],
      "name": "renounceRole",
      "outputs": [],
      "stateMutability": "nonpayable",
      "type": "function"
    },
    {
      "inputs": [
        {
          "internalType": "bytes32",
          "name": "role",
          "type": "bytes32"
        },
        {
          "internalType": "address",
          "name": "account",
          "type": "address"
        }
      ],
      "name": "revokeRole",
      "outputs": [],
      "stateMutability": "nonpayable",
      "type": "function"
    },
    {
      "inputs": [],
      "name": "symbol",
      "outputs": [
        {
          "internalType": "string",
          "name": "",
          "type": "string"
        }
      ],
      "stateMutability": "view",
      "type": "function",
      "constant": true
    },
    {
      "inputs": [],
      "name": "totalSupply",
      "outputs": [
        {
          "internalType": "uint256",
          "name": "",
          "type": "uint256"
        }
      ],
      "stateMutability": "view",
      "type": "function",
      "constant": true
    },
    {
      "inputs": [
        {
          "internalType": "address",
          "name": "recipient",
          "type": "address"
        },
        {
          "internalType": "uint256",
          "name": "amount",
          "type": "uint256"
        }
      ],
      "name": "transfer",
      "outputs": [
        {
          "internalType": "bool",
          "name": "",
          "type": "bool"
        }
      ],
      "stateMutability": "nonpayable",
      "type": "function"
    },
    {
      "inputs": [
        {
          "internalType": "address",
          "name": "sender",
          "type": "address"
        },
        {
          "internalType": "address",
          "name": "recipient",
          "type": "address"
        },
        {
          "internalType": "uint256",
          "name": "amount",
          "type": "uint256"
        }
      ],
      "name": "transferFrom",
      "outputs": [
        {
          "internalType": "bool",
          "name": "",
          "type": "bool"
        }
      ],
      "stateMutability": "nonpayable",
      "type": "function"
    },
    {
      "inputs": [
        {
          "internalType": "address",
          "name": "bridgeAdminAddress",
          "type": "address"
        },
        {
          "internalType": "address",
          "name": "pauserAddress",
          "type": "address"
        }
      ],
      "name": "initialize",
      "outputs": [],
      "stateMutability": "nonpayable",
      "type": "function"
    },
    {
      "inputs": [
        {
          "internalType": "address",
          "name": "to",
          "type": "address"
        },
        {
          "internalType": "uint256",
          "name": "tokens",
          "type": "uint256"
        }
      ],
      "name": "mint",
      "outputs": [
        {
          "internalType": "bool",
          "name": "success",
          "type": "bool"
        }
      ],
      "stateMutability": "nonpayable",
      "type": "function"
    },
    {
      "inputs": [
        {
          "internalType": "address",
          "name": "from",
          "type": "address"
        },
        {
          "internalType": "uint256",
          "name": "tokens",
          "type": "uint256"
        }
      ],
      "name": "burn",
      "outputs": [
        {
          "internalType": "bool",
          "name": "success",
          "type": "bool"
        }
      ],
      "stateMutability": "nonpayable",
      "type": "function"
    },
    {
      "inputs": [
        {
          "internalType": "address",
          "name": "stokenContract",
          "type": "address"
        }
      ],
      "name": "setSTokenContract",
      "outputs": [],
      "stateMutability": "nonpayable",
      "type": "function"
    },
    {
      "inputs": [
        {
          "internalType": "address",
          "name": "liquidStakingContract",
          "type": "address"
        }
      ],
      "name": "setLiquidStakingContract",
      "outputs": [],
      "stateMutability": "nonpayable",
      "type": "function"
    },
    {
      "inputs": [
        {
          "internalType": "address",
          "name": "wrapperTokensContract",
          "type": "address"
        }
      ],
      "name": "setWrapperContract",
      "outputs": [],
      "stateMutability": "nonpayable",
      "type": "function"
    },
    {
      "inputs": [],
      "name": "pause",
      "outputs": [
        {
          "internalType": "bool",
          "name": "success",
          "type": "bool"
        }
      ],
      "stateMutability": "nonpayable",
      "type": "function"
    },
    {
      "inputs": [],
      "name": "unpause",
      "outputs": [
        {
          "internalType": "bool",
          "name": "success",
          "type": "bool"
        }
      ],
      "stateMutability": "nonpayable",
      "type": "function"
    }
  ],
  "bytecode": "0x608060405234801561001057600080fd5b50612176806100206000396000f3fe608060405234801561001057600080fd5b50600436106102055760003560e01c806358f8943e1161011a5780639dc29fac116100ad578063ca15c8731161007c578063ca15c873146105e3578063d547741f14610600578063dd62ed3e1461062c578063e63ab1e91461065a578063e8cb78441461066257610205565b80639dc29fac14610557578063a217fddf14610583578063a457c2d71461058b578063a9059cbb146105b757610205565b80638456cb59116100e95780638456cb59146104f85780639010d07c1461050057806391d148541461052357806395d89b411461054f57610205565b806358f8943e1461049c5780635c975abb146104c257806370a08231146104ca578063793105d8146104f057610205565b8063313ce5671161019d5780633e118dbe1161016c5780633e118dbe1461040c5780633f4ba83a1461041457806340c10f191461041c578063485cc955146104485780634e5581271461047657610205565b8063313ce5671461038e57806336568abe146103ac57806339509351146103d85780633c3d34201461040457610205565b806318160ddd116101d957806318160ddd1461030557806323b872dd1461030d578063248a9ca3146103435780632f2ff15d1461036057610205565b8062b833be1461020a57806306fdde031461022e578063095ea7b3146102ab578063118c38c7146102eb575b600080fd5b610212610688565b604080516001600160a01b039092168252519081900360200190f35b610236610697565b6040805160208082528351818301528351919283929083019185019080838360005b83811015610270578181015183820152602001610258565b50505050905090810190601f16801561029d5780820380516001836020036101000a031916815260200191505b509250505060405180910390f35b6102d7600480360360408110156102c157600080fd5b506001600160a01b03813516906020013561072d565b604080519115158252519081900360200190f35b6102f361074b565b60408051918252519081900360200190f35b6102f361076f565b6102d76004803603606081101561032357600080fd5b506001600160a01b03813581169160208101359091169060400135610775565b6102f36004803603602081101561035957600080fd5b50356107fc565b61038c6004803603604081101561037657600080fd5b50803590602001356001600160a01b0316610811565b005b61039661087d565b6040805160ff9092168252519081900360200190f35b61038c600480360360408110156103c257600080fd5b50803590602001356001600160a01b0316610886565b6102d7600480360360408110156103ee57600080fd5b506001600160a01b0381351690602001356108e7565b610212610935565b6102f3610944565b6102d761094a565b6102d76004803603604081101561043257600080fd5b506001600160a01b0381351690602001356109ab565b61038c6004803603604081101561045e57600080fd5b506001600160a01b0381358116916020013516610a88565b61038c6004803603602081101561048c57600080fd5b50356001600160a01b0316610beb565b61038c600480360360208110156104b257600080fd5b50356001600160a01b0316610c79565b6102d7610d07565b6102f3600480360360208110156104e057600080fd5b50356001600160a01b0316610d10565b610212610d2b565b6102d7610d3a565b6102126004803603604081101561051657600080fd5b5080359060200135610d95565b6102d76004803603604081101561053957600080fd5b50803590602001356001600160a01b0316610db4565b610236610dcc565b6102d76004803603604081101561056d57600080fd5b506001600160a01b038135169060200135610e2d565b6102f3610eb4565b6102d7600480360360408110156105a157600080fd5b506001600160a01b038135169060200135610eb9565b6102d7600480360360408110156105cd57600080fd5b506001600160a01b038135169060200135610f21565b6102f3600480360360208110156105f957600080fd5b5035610f35565b61038c6004803603604081101561061657600080fd5b50803590602001356001600160a01b0316610f4c565b6102f36004803603604081101561064257600080fd5b506001600160a01b0381358116916020013516610fa5565b6102f3610fd0565b61038c6004803603602081101561067857600080fd5b50356001600160a01b0316610fe2565b60cb546001600160a01b031681565b60368054604080516020601f60026000196101006001881615020190951694909404938401819004810282018101909252828152606093909290918301828280156107235780601f106106f857610100808354040283529160200191610723565b820191906000526020600020905b81548152906001019060200180831161070657829003601f168201915b5050505050905090565b600061074161073a611070565b8484611074565b5060015b92915050565b7f751b795d24b92e3d92d1d0d8f2885f4e9c9c269da350af36ae6b49069babf4bf81565b60355490565b6000610782848484611160565b6107f28461078e611070565b6107ed8560405180606001604052806028815260200161203b602891396001600160a01b038a166000908152603460205260408120906107cc611070565b6001600160a01b0316815260208101919091526040016000205491906112bd565b611074565b5060019392505050565b60009081526097602052604090206002015490565b6000828152609760205260409020600201546108349061082f611070565b610db4565b61086f5760405162461bcd60e51b815260040180806020018281038252602f815260200180611f44602f913960400191505060405180910390fd5b6108798282611354565b5050565b60385460ff1690565b61088e611070565b6001600160a01b0316816001600160a01b0316146108dd5760405162461bcd60e51b815260040180806020018281038252602f815260200180612112602f913960400191505060405180910390fd5b61087982826113bd565b60006107416108f4611070565b846107ed8560346000610905611070565b6001600160a01b03908116825260208083019390935260409182016000908120918c168152925290205490611426565b60c9546001600160a01b031681565b60cc5481565b600061096660008051602061206383398151915261082f611070565b61099d576040805162461bcd60e51b815260206004820152600360248201526255543760e81b604482015290519081900360640190fd5b6109a5611480565b50600190565b60006109d77f751b795d24b92e3d92d1d0d8f2885f4e9c9c269da350af36ae6b49069babf4bf32610db4565b80156109fd575060cb546001600160a01b03166109f2611070565b6001600160a01b0316145b80610a22575060c9546001600160a01b0316610a17611070565b6001600160a01b0316145b80610a47575060ca546001600160a01b0316610a3c611070565b6001600160a01b0316145b610a7e576040805162461bcd60e51b815260206004820152600360248201526255543160e81b604482015290519081900360640190fd5b6107418383611520565b600054610100900460ff1680610aa15750610aa1611612565b80610aaf575060005460ff16155b610aea5760405162461bcd60e51b815260040180806020018281038252602e81526020018061200d602e913960400191505060405180910390fd5b600054610100900460ff16158015610b15576000805460ff1961ff0019909116610100171660011790555b610b6660405180604001604052806012815260200171705354414b45205065676765642041544f4d60701b815250604051806040016040528060058152602001647041544f4d60d81b815250611623565b610b6e6116c2565b610b76611774565b610b886000610b83611070565b61086f565b610bb27f751b795d24b92e3d92d1d0d8f2885f4e9c9c269da350af36ae6b49069babf4bf8461086f565b610bca6000805160206120638339815191528361086f565b610bd46006611811565b8015610be6576000805461ff00191690555b505050565b610bf8600061082f611070565b610c2f576040805162461bcd60e51b815260206004820152600360248201526255543560e81b604482015290519081900360640190fd5b60cb80546001600160a01b0319166001600160a01b0383169081179091556040517fe64d0ea1a8162224d25416ba9164fe1dae6ec14e9f846220b287c0c1c9413e0590600090a250565b610c86600061082f611070565b610cbd576040805162461bcd60e51b815260206004820152600360248201526215550d60ea1b604482015290519081900360640190fd5b60ca80546001600160a01b0319166001600160a01b0383169081179091556040517f57fded54c0f01b7b2c662bd89530d6916e48149e02da384db87d1a67306be87190600090a250565b60655460ff1690565b6001600160a01b031660009081526033602052604090205490565b60ca546001600160a01b031681565b6000610d5660008051602061206383398151915261082f611070565b610d8d576040805162461bcd60e51b81526020600482015260036024820152622aaa1b60e91b604482015290519081900360640190fd5b6109a5611827565b6000828152609760205260408120610dad90836118aa565b9392505050565b6000828152609760205260408120610dad90836118b6565b60378054604080516020601f60026000196101006001881615020190951694909404938401819004810282018101909252828152606093909290918301828280156107235780601f106106f857610100808354040283529160200191610723565b60ca546000906001600160a01b0316610e44611070565b6001600160a01b03161480610e73575060cb546001600160a01b0316610e68611070565b6001600160a01b0316145b610eaa576040805162461bcd60e51b81526020600482015260036024820152622aaa1960e91b604482015290519081900360640190fd5b61074183836118cb565b600081565b6000610741610ec6611070565b846107ed856040518060600160405280602581526020016120ed6025913960346000610ef0611070565b6001600160a01b03908116825260208083019390935260409182016000908120918d168152925290205491906112bd565b6000610741610f2e611070565b8484611160565b6000818152609760205260408120610745906119c7565b600082815260976020526040902060020154610f6a9061082f611070565b6108dd5760405162461bcd60e51b8152600401808060200182810382526030815260200180611fdd6030913960400191505060405180910390fd5b6001600160a01b03918216600090815260346020908152604080832093909416825291909152205490565b60008051602061206383398151915281565b610fef600061082f611070565b611026576040805162461bcd60e51b815260206004820152600360248201526255543360e81b604482015290519081900360640190fd5b60c980546001600160a01b0319166001600160a01b0383169081179091556040517fd0b9dbe26f676f4cdb02fc249c203baa0314cec79e18b4194dc862795a5de03f90600090a250565b3390565b6001600160a01b0383166110b95760405162461bcd60e51b81526004018080602001828103825260248152602001806120c96024913960400191505060405180910390fd5b6001600160a01b0382166110fe5760405162461bcd60e51b8152600401808060200182810382526022815260200180611f956022913960400191505060405180910390fd5b6001600160a01b03808416600081815260346020908152604080832094871680845294825291829020859055815185815291517f8c5be1e5ebec7d5bd14f71427d1e84f3dd0314c0f7b2291e5b200ac8c7c3b9259281900390910190a3505050565b6001600160a01b0383166111a55760405162461bcd60e51b81526004018080602001828103825260258152602001806120a46025913960400191505060405180910390fd5b6001600160a01b0382166111ea5760405162461bcd60e51b8152600401808060200182810382526023815260200180611f216023913960400191505060405180910390fd5b6111f58383836119d2565b61123281604051806060016040528060268152602001611fb7602691396001600160a01b03861660009081526033602052604090205491906112bd565b6001600160a01b0380851660009081526033602052604080822093909355908416815220546112619082611426565b6001600160a01b0380841660008181526033602090815260409182902094909455805185815290519193928716927fddf252ad1be2c89b69c2b068fc378daa952ba7f163c4a11628f55a4df523b3ef92918290030190a3505050565b6000818484111561134c5760405162461bcd60e51b81526004018080602001828103825283818151815260200191508051906020019080838360005b838110156113115781810151838201526020016112f9565b50505050905090810190601f16801561133e5780820380516001836020036101000a031916815260200191505b509250505060405180910390fd5b505050900390565b600082815260976020526040902061136c9082611a1d565b1561087957611379611070565b6001600160a01b0316816001600160a01b0316837f2f8788117e7eff1d82e926ec794901d17c78024a50270940304540a733656f0d60405160405180910390a45050565b60008281526097602052604090206113d59082611a32565b15610879576113e2611070565b6001600160a01b0316816001600160a01b0316837ff6391f5c32d9c69d2a47ea670b442974b53935d1edc7fd64eb21e047a839171b60405160405180910390a45050565b600082820183811015610dad576040805162461bcd60e51b815260206004820152601b60248201527f536166654d6174683a206164646974696f6e206f766572666c6f770000000000604482015290519081900360640190fd5b611488610d07565b6114d0576040805162461bcd60e51b815260206004820152601460248201527314185d5cd8589b194e881b9bdd081c185d5cd95960621b604482015290519081900360640190fd5b6065805460ff191690557f5db9ee0a495bf2e6ff9c91a7834c1ba4fdd244a5e8aa4e537bd38aeae4b073aa611503611070565b604080516001600160a01b039092168252519081900360200190a1565b6001600160a01b03821661157b576040805162461bcd60e51b815260206004820152601f60248201527f45524332303a206d696e7420746f20746865207a65726f206164647265737300604482015290519081900360640190fd5b611587600083836119d2565b6035546115949082611426565b6035556001600160a01b0382166000908152603360205260409020546115ba9082611426565b6001600160a01b03831660008181526033602090815260408083209490945583518581529351929391927fddf252ad1be2c89b69c2b068fc378daa952ba7f163c4a11628f55a4df523b3ef9281900390910190a35050565b600061161d30611a47565b15905090565b600054610100900460ff168061163c575061163c611612565b8061164a575060005460ff16155b6116855760405162461bcd60e51b815260040180806020018281038252602e81526020018061200d602e913960400191505060405180910390fd5b600054610100900460ff161580156116b0576000805460ff1961ff0019909116610100171660011790555b6116b8611a4d565b610bd48383611aed565b600054610100900460ff16806116db57506116db611612565b806116e9575060005460ff16155b6117245760405162461bcd60e51b815260040180806020018281038252602e81526020018061200d602e913960400191505060405180910390fd5b600054610100900460ff1615801561174f576000805460ff1961ff0019909116610100171660011790555b611757611a4d565b61175f611a4d565b8015611771576000805461ff00191690555b50565b600054610100900460ff168061178d575061178d611612565b8061179b575060005460ff16155b6117d65760405162461bcd60e51b815260040180806020018281038252602e81526020018061200d602e913960400191505060405180910390fd5b600054610100900460ff16158015611801576000805460ff1961ff0019909116610100171660011790555b611809611a4d565b61175f611bc5565b6038805460ff191660ff92909216919091179055565b61182f610d07565b15611874576040805162461bcd60e51b815260206004820152601060248201526f14185d5cd8589b194e881c185d5cd95960821b604482015290519081900360640190fd5b6065805460ff191660011790557f62e78cea01bee320cd4e420270b5ea74000d11b0c9f74754ebdbfc544b05a258611503611070565b6000610dad8383611c70565b6000610dad836001600160a01b038416611cd4565b6001600160a01b0382166119105760405162461bcd60e51b81526004018080602001828103825260218152602001806120836021913960400191505060405180910390fd5b61191c826000836119d2565b61195981604051806060016040528060228152602001611f73602291396001600160a01b03851660009081526033602052604090205491906112bd565b6001600160a01b03831660009081526033602052604090205560355461197f9082611cec565b6035556040805182815290516000916001600160a01b038516917fddf252ad1be2c89b69c2b068fc378daa952ba7f163c4a11628f55a4df523b3ef9181900360200190a35050565b600061074582611d49565b6119da610d07565b15611a12576040805162461bcd60e51b81526020600482015260036024820152620aaa8760eb1b604482015290519081900360640190fd5b610be6838383610be6565b6000610dad836001600160a01b038416611d4d565b6000610dad836001600160a01b038416611d97565b3b151590565b600054610100900460ff1680611a665750611a66611612565b80611a74575060005460ff16155b611aaf5760405162461bcd60e51b815260040180806020018281038252602e81526020018061200d602e913960400191505060405180910390fd5b600054610100900460ff1615801561175f576000805460ff1961ff0019909116610100171660011790558015611771576000805461ff001916905550565b600054610100900460ff1680611b065750611b06611612565b80611b14575060005460ff16155b611b4f5760405162461bcd60e51b815260040180806020018281038252602e81526020018061200d602e913960400191505060405180910390fd5b600054610100900460ff16158015611b7a576000805460ff1961ff0019909116610100171660011790555b8251611b8d906036906020860190611e5d565b508151611ba1906037906020850190611e5d565b506038805460ff191660121790558015610be6576000805461ff0019169055505050565b600054610100900460ff1680611bde5750611bde611612565b80611bec575060005460ff16155b611c275760405162461bcd60e51b815260040180806020018281038252602e81526020018061200d602e913960400191505060405180910390fd5b600054610100900460ff16158015611c52576000805460ff1961ff0019909116610100171660011790555b6065805460ff191690558015611771576000805461ff001916905550565b81546000908210611cb25760405162461bcd60e51b8152600401808060200182810382526022815260200180611eff6022913960400191505060405180910390fd5b826000018281548110611cc157fe5b9060005260206000200154905092915050565b60009081526001919091016020526040902054151590565b600082821115611d43576040805162461bcd60e51b815260206004820152601e60248201527f536166654d6174683a207375627472616374696f6e206f766572666c6f770000604482015290519081900360640190fd5b50900390565b5490565b6000611d598383611cd4565b611d8f57508154600181810184556000848152602080822090930184905584548482528286019093526040902091909155610745565b506000610745565b60008181526001830160205260408120548015611e535783546000198083019190810190600090879083908110611dca57fe5b9060005260206000200154905080876000018481548110611de757fe5b600091825260208083209091019290925582815260018981019092526040902090840190558654879080611e1757fe5b60019003818190600052602060002001600090559055866001016000878152602001908152602001600020600090556001945050505050610745565b6000915050610745565b828054600181600116156101000203166002900490600052602060002090601f016020900481019282611e935760008555611ed9565b82601f10611eac57805160ff1916838001178555611ed9565b82800160010185558215611ed9579182015b82811115611ed9578251825591602001919060010190611ebe565b50611ee5929150611ee9565b5090565b5b80821115611ee55760008155600101611eea56fe456e756d657261626c655365743a20696e646578206f7574206f6620626f756e647345524332303a207472616e7366657220746f20746865207a65726f2061646472657373416363657373436f6e74726f6c3a2073656e646572206d75737420626520616e2061646d696e20746f206772616e7445524332303a206275726e20616d6f756e7420657863656564732062616c616e636545524332303a20617070726f766520746f20746865207a65726f206164647265737345524332303a207472616e7366657220616d6f756e7420657863656564732062616c616e6365416363657373436f6e74726f6c3a2073656e646572206d75737420626520616e2061646d696e20746f207265766f6b65496e697469616c697a61626c653a20636f6e747261637420697320616c726561647920696e697469616c697a656445524332303a207472616e7366657220616d6f756e74206578636565647320616c6c6f77616e636565d7a28e3265b37a6474929f336521b332c1681b933f6cb9f3376673440d862a45524332303a206275726e2066726f6d20746865207a65726f206164647265737345524332303a207472616e736665722066726f6d20746865207a65726f206164647265737345524332303a20617070726f76652066726f6d20746865207a65726f206164647265737345524332303a2064656372656173656420616c6c6f77616e63652062656c6f77207a65726f416363657373436f6e74726f6c3a2063616e206f6e6c792072656e6f756e636520726f6c657320666f722073656c66a2646970667358221220cd5379a59e2d2509505dfd634efb1afdc6b94861b201d7a0a2d43a823f30bde664736f6c63430007060033",
  "immutableReferences": {},
  "source": "/*\n Copyright [2019] - [2021], PERSISTENCE TECHNOLOGIES PTE. LTD. and the pStake-smartContracts contributors\n SPDX-License-Identifier: Apache-2.0\n*/\n\npragma solidity >=0.7.0;\n\nimport \"@openzeppelin/contracts-upgradeable/token/ERC20/ERC20Upgradeable.sol\";\nimport \"@openzeppelin/contracts-upgradeable/utils/PausableUpgradeable.sol\";\nimport \"@openzeppelin/contracts-upgradeable/access/AccessControlUpgradeable.sol\";\nimport \"./interfaces/IUTokensV2.sol\";\n\ncontract UTokensV2 is\n\tERC20Upgradeable,\n\tIUTokensV2,\n\tPausableUpgradeable,\n\tAccessControlUpgradeable\n{\n\t// constants defining access control ROLES\n\tbytes32 public constant BRIDGE_ADMIN_ROLE = keccak256(\"BRIDGE_ADMIN_ROLE\");\n\tbytes32 public constant PAUSER_ROLE = keccak256(\"PAUSER_ROLE\");\n\n\t// variables capturing data of other contracts in the product\n\taddress public _stokenContract;\n\taddress public _liquidStakingContract;\n\taddress public _wrapperContract;\n\n\t// variable pertaining to contract upgrades versioning\n\tuint256 public _version;\n\n\t/**\n\t * @dev Constructor for initializing the UToken contract.\n\t * @param bridgeAdminAddress - address of the bridge admin.\n\t * @param pauserAddress - address of the pauser admin.\n\t */\n\tfunction initialize(address bridgeAdminAddress, address pauserAddress)\n\t\tpublic\n\t\tvirtual\n\t\tinitializer\n\t{\n\t\t__ERC20_init(\"pSTAKE Pegged ATOM\", \"pATOM\");\n\t\t__AccessControl_init();\n\t\t__Pausable_init();\n\t\t_setupRole(DEFAULT_ADMIN_ROLE, _msgSender());\n\t\t_setupRole(BRIDGE_ADMIN_ROLE, bridgeAdminAddress);\n\t\t_setupRole(PAUSER_ROLE, pauserAddress);\n\t\t_setupDecimals(6);\n\t}\n\n\t/**\n\t * @dev Mint new utokens for the provided 'address' and 'amount'\n\t * @param to: account address, tokens: number of tokens\n\t *\n\t * Emits a {MintTokens} event with 'to' set to address and 'tokens' set to amount of tokens.\n\t *\n\t * Requirements:\n\t *\n\t * - `amount` cannot be less than zero.\n\t *\n\t */\n\tfunction mint(address to, uint256 tokens)\n\t\tpublic\n\t\tvirtual\n\t\toverride\n\t\treturns (bool success)\n\t{\n\t\trequire(\n\t\t\t(hasRole(BRIDGE_ADMIN_ROLE, tx.origin) &&\n\t\t\t\t_msgSender() == _wrapperContract) || // minted by bridge\n\t\t\t\t_msgSender() == _stokenContract || // minted by STokens contract during reward generation\n\t\t\t\t_msgSender() == _liquidStakingContract,\n\t\t\t\"UT1\"\n\t\t); // minted by LS contract withdrawUnstakedTokens()\n\n\t\t_mint(to, tokens);\n\t\treturn true;\n\t}\n\n\t/*\n\t * @dev Burn utokens for the provided 'address' and 'amount'\n\t * @param from: account address, tokens: number of tokens\n\t *\n\t * Emits a {BurnTokens} event with 'from' set to address and 'tokens' set to amount of tokens.\n\t *\n\t * Requirements:\n\t *\n\t * - `amount` cannot be less than zero.\n\t *\n\t */\n\tfunction burn(address from, uint256 tokens)\n\t\tpublic\n\t\tvirtual\n\t\toverride\n\t\treturns (bool success)\n\t{\n\t\trequire(\n\t\t\t_msgSender() == _liquidStakingContract || // staking operation\n\t\t\t\t_msgSender() == _wrapperContract,\n\t\t\t\"UT2\"\n\t\t); // unwrap operation\n\n\t\t_burn(from, tokens);\n\t\treturn true;\n\t}\n\n\t/*\n\t * @dev Set 'contract address', called for stokens smart contract\n\t * @param stokenContract: stoken contract address\n\t *\n\t * Emits a {SetSTokensContract} event with '_contract' set to the stoken contract address.\n\t *\n\t */\n\t//These functions need to be called after deployment, only admin can call the same\n\tfunction setSTokenContract(address stokenContract) public virtual override {\n\t\trequire(hasRole(DEFAULT_ADMIN_ROLE, _msgSender()), \"UT3\");\n\t\t_stokenContract = stokenContract;\n\t\temit SetSTokensContract(stokenContract);\n\t}\n\n\t/*\n\t * @dev Set 'contract address', for liquid staking smart contract\n\t * @param liquidStakingContract: liquidStaking contract address\n\t *\n\t * Emits a {SetLiquidStakingContract} event with '_contract' set to the liquidStaking contract address.\n\t *\n\t */\n\tfunction setLiquidStakingContract(address liquidStakingContract)\n\t\tpublic\n\t\tvirtual\n\t\toverride\n\t{\n\t\trequire(hasRole(DEFAULT_ADMIN_ROLE, _msgSender()), \"UT4\");\n\t\t_liquidStakingContract = liquidStakingContract;\n\t\temit SetLiquidStakingContract(liquidStakingContract);\n\t}\n\n\t/*\n\t * @dev Set 'contract address', called for token wrapper smart contract\n\t * @param wrapperTokensContract: tokenWrapper contract address\n\t *\n\t * Emits a {SetWrapperContract} event with '_contract' set to the tokenWrapper contract address.\n\t *\n\t */\n\tfunction setWrapperContract(address wrapperTokensContract)\n\t\tpublic\n\t\tvirtual\n\t\toverride\n\t{\n\t\trequire(hasRole(DEFAULT_ADMIN_ROLE, _msgSender()), \"UT5\");\n\t\t_wrapperContract = wrapperTokensContract;\n\t\temit SetWrapperContract(wrapperTokensContract);\n\t}\n\n\t/**\n\t * @dev Triggers stopped state.\n\t *\n\t * Requirements:\n\t *\n\t * - The contract must not be paused.\n\t */\n\tfunction pause() public virtual override returns (bool success) {\n\t\trequire(hasRole(PAUSER_ROLE, _msgSender()), \"UT6\");\n\t\t_pause();\n\t\treturn true;\n\t}\n\n\t/**\n\t * @dev Returns to normal state.\n\t *\n\t * Requirements:\n\t *\n\t * - The contract must be paused.\n\t */\n\tfunction unpause() public virtual override returns (bool success) {\n\t\trequire(hasRole(PAUSER_ROLE, _msgSender()), \"UT7\");\n\t\t_unpause();\n\t\treturn true;\n\t}\n\n\t/**\n\t * @dev Hook that is called before any transfer of tokens. This includes\n\t * minting and burning.\n\t *\n\t * Calling conditions:\n\t *\n\t * - when `from` and `to` are both non-zero, `amount` of ``from``'s tokens\n\t * will be to transferred to `to`.\n\t * - when `from` is zero, `amount` tokens will be minted for `to`.\n\t * - when `to` is zero, `amount` of ``from``'s tokens will be burned.\n\t * - `from` and `to` are never both zero.\n\t *\n\t */\n\tfunction _beforeTokenTransfer(\n\t\taddress from,\n\t\taddress to,\n\t\tuint256 amount\n\t) internal virtual override {\n\t\trequire(!paused(), \"UT8\");\n\t\tsuper._beforeTokenTransfer(from, to, amount);\n\t}\n}\n",
  "sourcePath": "/Users/aditimaheshwari/Documents/Work/Persistence/Codebase/persistenceOne/pStake-smartContracts/contracts/UtokensV2.sol",
  "compiler": {
    "name": "solc",
    "version": "0.7.6+commit.7338295f.Emscripten.clang"
  },
  "schemaVersion": "3.4.3",
  "updatedAt": "2022-07-21T13:29:11.118Z",
  "networkType": "ethereum",
  "devdoc": {
    "kind": "dev",
    "methods": {
      "allowance(address,address)": {
        "details": "See {IERC20-allowance}."
      },
      "approve(address,uint256)": {
        "details": "See {IERC20-approve}. Requirements: - `spender` cannot be the zero address."
      },
      "balanceOf(address)": {
        "details": "See {IERC20-balanceOf}."
      },
      "burn(address,uint256)": {
        "details": "Burns `amount` tokens to the caller's address `from`. Returns a boolean value indicating whether the operation succeeded. Emits a {Transfer} event."
      },
      "decimals()": {
        "details": "Returns the number of decimals used to get its user representation. For example, if `decimals` equals `2`, a balance of `505` tokens should be displayed to a user as `5,05` (`505 / 10 ** 2`). Tokens usually opt for a value of 18, imitating the relationship between Ether and Wei. This is the value {ERC20} uses, unless {_setupDecimals} is called. NOTE: This information is only used for _display_ purposes: it in no way affects any of the arithmetic of the contract, including {IERC20-balanceOf} and {IERC20-transfer}."
      },
      "decreaseAllowance(address,uint256)": {
        "details": "Atomically decreases the allowance granted to `spender` by the caller. This is an alternative to {approve} that can be used as a mitigation for problems described in {IERC20-approve}. Emits an {Approval} event indicating the updated allowance. Requirements: - `spender` cannot be the zero address. - `spender` must have allowance for the caller of at least `subtractedValue`."
      },
      "getRoleAdmin(bytes32)": {
        "details": "Returns the admin role that controls `role`. See {grantRole} and {revokeRole}. To change a role's admin, use {_setRoleAdmin}."
      },
      "getRoleMember(bytes32,uint256)": {
        "details": "Returns one of the accounts that have `role`. `index` must be a value between 0 and {getRoleMemberCount}, non-inclusive. Role bearers are not sorted in any particular way, and their ordering may change at any point. WARNING: When using {getRoleMember} and {getRoleMemberCount}, make sure you perform all queries on the same block. See the following https://forum.openzeppelin.com/t/iterating-over-elements-on-enumerableset-in-openzeppelin-contracts/2296[forum post] for more information."
      },
      "getRoleMemberCount(bytes32)": {
        "details": "Returns the number of accounts that have `role`. Can be used together with {getRoleMember} to enumerate all bearers of a role."
      },
      "grantRole(bytes32,address)": {
        "details": "Grants `role` to `account`. If `account` had not been already granted `role`, emits a {RoleGranted} event. Requirements: - the caller must have ``role``'s admin role."
      },
      "hasRole(bytes32,address)": {
        "details": "Returns `true` if `account` has been granted `role`."
      },
      "increaseAllowance(address,uint256)": {
        "details": "Atomically increases the allowance granted to `spender` by the caller. This is an alternative to {approve} that can be used as a mitigation for problems described in {IERC20-approve}. Emits an {Approval} event indicating the updated allowance. Requirements: - `spender` cannot be the zero address."
      },
      "initialize(address,address)": {
        "details": "Constructor for initializing the UToken contract.",
        "params": {
          "bridgeAdminAddress": "- address of the bridge admin.",
          "pauserAddress": "- address of the pauser admin."
        }
      },
      "mint(address,uint256)": {
        "details": "Mint new utokens for the provided 'address' and 'amount'",
        "params": {
          "to": ": account address, tokens: number of tokens Emits a {MintTokens} event with 'to' set to address and 'tokens' set to amount of tokens. Requirements: - `amount` cannot be less than zero."
        }
      },
      "name()": {
        "details": "Returns the name of the token."
      },
      "pause()": {
        "details": "Triggers stopped state. Requirements: - The contract must not be paused."
      },
      "paused()": {
        "details": "Returns true if the contract is paused, and false otherwise."
      },
      "renounceRole(bytes32,address)": {
        "details": "Revokes `role` from the calling account. Roles are often managed via {grantRole} and {revokeRole}: this function's purpose is to provide a mechanism for accounts to lose their privileges if they are compromised (such as when a trusted device is misplaced). If the calling account had been granted `role`, emits a {RoleRevoked} event. Requirements: - the caller must be `account`."
      },
      "revokeRole(bytes32,address)": {
        "details": "Revokes `role` from `account`. If `account` had been granted `role`, emits a {RoleRevoked} event. Requirements: - the caller must have ``role``'s admin role."
      },
      "setLiquidStakingContract(address)": {
        "details": "Set LiquidStaking smart contract."
      },
      "setSTokenContract(address)": {
        "details": "Set STokens smart contract."
      },
      "setWrapperContract(address)": {
        "details": "Set PegTokens smart contract."
      },
      "symbol()": {
        "details": "Returns the symbol of the token, usually a shorter version of the name."
      },
      "totalSupply()": {
        "details": "See {IERC20-totalSupply}."
      },
      "transfer(address,uint256)": {
        "details": "See {IERC20-transfer}. Requirements: - `recipient` cannot be the zero address. - the caller must have a balance of at least `amount`."
      },
      "transferFrom(address,address,uint256)": {
        "details": "See {IERC20-transferFrom}. Emits an {Approval} event indicating the updated allowance. This is not required by the EIP. See the note at the beginning of {ERC20}. Requirements: - `sender` and `recipient` cannot be the zero address. - `sender` must have a balance of at least `amount`. - the caller must have allowance for ``sender``'s tokens of at least `amount`."
      },
      "unpause()": {
        "details": "Returns to normal state. Requirements: - The contract must be paused."
      }
    },
    "version": 1
  },
  "userdoc": {
    "kind": "user",
    "methods": {},
    "version": 1
  }
}