{
  "contractName": "UTokensXPRT",
  "abi": [
    {
      "anonymous": false,
      "inputs": [
        {
          "indexed": true,
          "internalType": "address",
          "name": "owner",
          "type": "address"
        },
        {
          "indexed": true,
          "internalType": "address",
          "name": "spender",
          "type": "address"
        },
        {
          "indexed": false,
          "internalType": "uint256",
          "name": "value",
          "type": "uint256"
        }
      ],
      "name": "Approval",
      "type": "event"
    },
    {
      "anonymous": false,
      "inputs": [
        {
          "indexed": false,
          "internalType": "address",
          "name": "account",
          "type": "address"
        }
      ],
      "name": "Paused",
      "type": "event"
    },
    {
      "anonymous": false,
      "inputs": [
        {
          "indexed": true,
          "internalType": "bytes32",
          "name": "role",
          "type": "bytes32"
        },
        {
          "indexed": true,
          "internalType": "bytes32",
          "name": "previousAdminRole",
          "type": "bytes32"
        },
        {
          "indexed": true,
          "internalType": "bytes32",
          "name": "newAdminRole",
          "type": "bytes32"
        }
      ],
      "name": "RoleAdminChanged",
      "type": "event"
    },
    {
      "anonymous": false,
      "inputs": [
        {
          "indexed": true,
          "internalType": "bytes32",
          "name": "role",
          "type": "bytes32"
        },
        {
          "indexed": true,
          "internalType": "address",
          "name": "account",
          "type": "address"
        },
        {
          "indexed": true,
          "internalType": "address",
          "name": "sender",
          "type": "address"
        }
      ],
      "name": "RoleGranted",
      "type": "event"
    },
    {
      "anonymous": false,
      "inputs": [
        {
          "indexed": true,
          "internalType": "bytes32",
          "name": "role",
          "type": "bytes32"
        },
        {
          "indexed": true,
          "internalType": "address",
          "name": "account",
          "type": "address"
        },
        {
          "indexed": true,
          "internalType": "address",
          "name": "sender",
          "type": "address"
        }
      ],
      "name": "RoleRevoked",
      "type": "event"
    },
    {
      "anonymous": false,
      "inputs": [
        {
          "indexed": true,
          "internalType": "address",
          "name": "_contract",
          "type": "address"
        }
      ],
      "name": "SetLiquidStakingContract",
      "type": "event"
    },
    {
      "anonymous": false,
      "inputs": [
        {
          "indexed": true,
          "internalType": "address",
          "name": "_contract",
          "type": "address"
        }
      ],
      "name": "SetSTokensContract",
      "type": "event"
    },
    {
      "anonymous": false,
      "inputs": [
        {
          "indexed": true,
          "internalType": "address",
          "name": "_contract",
          "type": "address"
        }
      ],
      "name": "SetWrapperContract",
      "type": "event"
    },
    {
      "anonymous": false,
      "inputs": [
        {
          "indexed": true,
          "internalType": "address",
          "name": "from",
          "type": "address"
        },
        {
          "indexed": true,
          "internalType": "address",
          "name": "to",
          "type": "address"
        },
        {
          "indexed": false,
          "internalType": "uint256",
          "name": "value",
          "type": "uint256"
        }
      ],
      "name": "Transfer",
      "type": "event"
    },
    {
      "anonymous": false,
      "inputs": [
        {
          "indexed": false,
          "internalType": "address",
          "name": "account",
          "type": "address"
        }
      ],
      "name": "Unpaused",
      "type": "event"
    },
    {
      "inputs": [],
      "name": "BRIDGE_ADMIN_ROLE",
      "outputs": [
        {
          "internalType": "bytes32",
          "name": "",
          "type": "bytes32"
        }
      ],
      "stateMutability": "view",
      "type": "function"
    },
    {
      "inputs": [],
      "name": "DEFAULT_ADMIN_ROLE",
      "outputs": [
        {
          "internalType": "bytes32",
          "name": "",
          "type": "bytes32"
        }
      ],
      "stateMutability": "view",
      "type": "function"
    },
    {
      "inputs": [],
      "name": "PAUSER_ROLE",
      "outputs": [
        {
          "internalType": "bytes32",
          "name": "",
          "type": "bytes32"
        }
      ],
      "stateMutability": "view",
      "type": "function"
    },
    {
      "inputs": [],
      "name": "_liquidStakingContract",
      "outputs": [
        {
          "internalType": "address",
          "name": "",
          "type": "address"
        }
      ],
      "stateMutability": "view",
      "type": "function"
    },
    {
      "inputs": [],
      "name": "_stokenContract",
      "outputs": [
        {
          "internalType": "address",
          "name": "",
          "type": "address"
        }
      ],
      "stateMutability": "view",
      "type": "function"
    },
    {
      "inputs": [],
      "name": "_version",
      "outputs": [
        {
          "internalType": "uint256",
          "name": "",
          "type": "uint256"
        }
      ],
      "stateMutability": "view",
      "type": "function"
    },
    {
      "inputs": [],
      "name": "_wrapperContract",
      "outputs": [
        {
          "internalType": "address",
          "name": "",
          "type": "address"
        }
      ],
      "stateMutability": "view",
      "type": "function"
    },
    {
      "inputs": [
        {
          "internalType": "address",
          "name": "owner",
          "type": "address"
        },
        {
          "internalType": "address",
          "name": "spender",
          "type": "address"
        }
      ],
      "name": "allowance",
      "outputs": [
        {
          "internalType": "uint256",
          "name": "",
          "type": "uint256"
        }
      ],
      "stateMutability": "view",
      "type": "function"
    },
    {
      "inputs": [
        {
          "internalType": "address",
          "name": "spender",
          "type": "address"
        },
        {
          "internalType": "uint256",
          "name": "amount",
          "type": "uint256"
        }
      ],
      "name": "approve",
      "outputs": [
        {
          "internalType": "bool",
          "name": "",
          "type": "bool"
        }
      ],
      "stateMutability": "nonpayable",
      "type": "function"
    },
    {
      "inputs": [
        {
          "internalType": "address",
          "name": "account",
          "type": "address"
        }
      ],
      "name": "balanceOf",
      "outputs": [
        {
          "internalType": "uint256",
          "name": "",
          "type": "uint256"
        }
      ],
      "stateMutability": "view",
      "type": "function"
    },
    {
      "inputs": [],
      "name": "decimals",
      "outputs": [
        {
          "internalType": "uint8",
          "name": "",
          "type": "uint8"
        }
      ],
      "stateMutability": "view",
      "type": "function"
    },
    {
      "inputs": [
        {
          "internalType": "address",
          "name": "spender",
          "type": "address"
        },
        {
          "internalType": "uint256",
          "name": "subtractedValue",
          "type": "uint256"
        }
      ],
      "name": "decreaseAllowance",
      "outputs": [
        {
          "internalType": "bool",
          "name": "",
          "type": "bool"
        }
      ],
      "stateMutability": "nonpayable",
      "type": "function"
    },
    {
      "inputs": [
        {
          "internalType": "bytes32",
          "name": "role",
          "type": "bytes32"
        }
      ],
      "name": "getRoleAdmin",
      "outputs": [
        {
          "internalType": "bytes32",
          "name": "",
          "type": "bytes32"
        }
      ],
      "stateMutability": "view",
      "type": "function"
    },
    {
      "inputs": [
        {
          "internalType": "bytes32",
          "name": "role",
          "type": "bytes32"
        },
        {
          "internalType": "uint256",
          "name": "index",
          "type": "uint256"
        }
      ],
      "name": "getRoleMember",
      "outputs": [
        {
          "internalType": "address",
          "name": "",
          "type": "address"
        }
      ],
      "stateMutability": "view",
      "type": "function"
    },
    {
      "inputs": [
        {
          "internalType": "bytes32",
          "name": "role",
          "type": "bytes32"
        }
      ],
      "name": "getRoleMemberCount",
      "outputs": [
        {
          "internalType": "uint256",
          "name": "",
          "type": "uint256"
        }
      ],
      "stateMutability": "view",
      "type": "function"
    },
    {
      "inputs": [
        {
          "internalType": "bytes32",
          "name": "role",
          "type": "bytes32"
        },
        {
          "internalType": "address",
          "name": "account",
          "type": "address"
        }
      ],
      "name": "grantRole",
      "outputs": [],
      "stateMutability": "nonpayable",
      "type": "function"
    },
    {
      "inputs": [
        {
          "internalType": "bytes32",
          "name": "role",
          "type": "bytes32"
        },
        {
          "internalType": "address",
          "name": "account",
          "type": "address"
        }
      ],
      "name": "hasRole",
      "outputs": [
        {
          "internalType": "bool",
          "name": "",
          "type": "bool"
        }
      ],
      "stateMutability": "view",
      "type": "function"
    },
    {
      "inputs": [
        {
          "internalType": "address",
          "name": "spender",
          "type": "address"
        },
        {
          "internalType": "uint256",
          "name": "addedValue",
          "type": "uint256"
        }
      ],
      "name": "increaseAllowance",
      "outputs": [
        {
          "internalType": "bool",
          "name": "",
          "type": "bool"
        }
      ],
      "stateMutability": "nonpayable",
      "type": "function"
    },
    {
      "inputs": [],
      "name": "name",
      "outputs": [
        {
          "internalType": "string",
          "name": "",
          "type": "string"
        }
      ],
      "stateMutability": "view",
      "type": "function"
    },
    {
      "inputs": [],
      "name": "paused",
      "outputs": [
        {
          "internalType": "bool",
          "name": "",
          "type": "bool"
        }
      ],
      "stateMutability": "view",
      "type": "function"
    },
    {
      "inputs": [
        {
          "internalType": "bytes32",
          "name": "role",
          "type": "bytes32"
        },
        {
          "internalType": "address",
          "name": "account",
          "type": "address"
        }
      ],
      "name": "renounceRole",
      "outputs": [],
      "stateMutability": "nonpayable",
      "type": "function"
    },
    {
      "inputs": [
        {
          "internalType": "bytes32",
          "name": "role",
          "type": "bytes32"
        },
        {
          "internalType": "address",
          "name": "account",
          "type": "address"
        }
      ],
      "name": "revokeRole",
      "outputs": [],
      "stateMutability": "nonpayable",
      "type": "function"
    },
    {
      "inputs": [],
      "name": "symbol",
      "outputs": [
        {
          "internalType": "string",
          "name": "",
          "type": "string"
        }
      ],
      "stateMutability": "view",
      "type": "function"
    },
    {
      "inputs": [],
      "name": "totalSupply",
      "outputs": [
        {
          "internalType": "uint256",
          "name": "",
          "type": "uint256"
        }
      ],
      "stateMutability": "view",
      "type": "function"
    },
    {
      "inputs": [
        {
          "internalType": "address",
          "name": "recipient",
          "type": "address"
        },
        {
          "internalType": "uint256",
          "name": "amount",
          "type": "uint256"
        }
      ],
      "name": "transfer",
      "outputs": [
        {
          "internalType": "bool",
          "name": "",
          "type": "bool"
        }
      ],
      "stateMutability": "nonpayable",
      "type": "function"
    },
    {
      "inputs": [
        {
          "internalType": "address",
          "name": "sender",
          "type": "address"
        },
        {
          "internalType": "address",
          "name": "recipient",
          "type": "address"
        },
        {
          "internalType": "uint256",
          "name": "amount",
          "type": "uint256"
        }
      ],
      "name": "transferFrom",
      "outputs": [
        {
          "internalType": "bool",
          "name": "",
          "type": "bool"
        }
      ],
      "stateMutability": "nonpayable",
      "type": "function"
    },
    {
      "inputs": [
        {
          "internalType": "string",
          "name": "tokenName",
          "type": "string"
        },
        {
          "internalType": "string",
          "name": "tokenSymbol",
          "type": "string"
        },
        {
          "internalType": "address",
          "name": "bridgeAdminAddress",
          "type": "address"
        },
        {
          "internalType": "address",
          "name": "pauserAddress",
          "type": "address"
        }
      ],
      "name": "initialize",
      "outputs": [],
      "stateMutability": "nonpayable",
      "type": "function"
    },
    {
      "inputs": [
        {
          "internalType": "address",
          "name": "to",
          "type": "address"
        },
        {
          "internalType": "uint256",
          "name": "tokens",
          "type": "uint256"
        }
      ],
      "name": "mint",
      "outputs": [
        {
          "internalType": "bool",
          "name": "success",
          "type": "bool"
        }
      ],
      "stateMutability": "nonpayable",
      "type": "function"
    },
    {
      "inputs": [
        {
          "internalType": "address",
          "name": "from",
          "type": "address"
        },
        {
          "internalType": "uint256",
          "name": "tokens",
          "type": "uint256"
        }
      ],
      "name": "burn",
      "outputs": [
        {
          "internalType": "bool",
          "name": "success",
          "type": "bool"
        }
      ],
      "stateMutability": "nonpayable",
      "type": "function"
    },
    {
      "inputs": [
        {
          "internalType": "address",
          "name": "stokenContract",
          "type": "address"
        }
      ],
      "name": "setSTokenContract",
      "outputs": [],
      "stateMutability": "nonpayable",
      "type": "function"
    },
    {
      "inputs": [
        {
          "internalType": "address",
          "name": "liquidStakingContract",
          "type": "address"
        }
      ],
      "name": "setLiquidStakingContract",
      "outputs": [],
      "stateMutability": "nonpayable",
      "type": "function"
    },
    {
      "inputs": [
        {
          "internalType": "address",
          "name": "wrapperTokensContract",
          "type": "address"
        }
      ],
      "name": "setWrapperContract",
      "outputs": [],
      "stateMutability": "nonpayable",
      "type": "function"
    },
    {
      "inputs": [],
      "name": "pause",
      "outputs": [
        {
          "internalType": "bool",
          "name": "success",
          "type": "bool"
        }
      ],
      "stateMutability": "nonpayable",
      "type": "function"
    },
    {
      "inputs": [],
      "name": "unpause",
      "outputs": [
        {
          "internalType": "bool",
          "name": "success",
          "type": "bool"
        }
      ],
      "stateMutability": "nonpayable",
      "type": "function"
    }
  ],
  "bytecode": "0x608060405234801561001057600080fd5b50612258806100206000396000f3fe608060405234801561001057600080fd5b50600436106102055760003560e01c80635c975abb1161011a5780639dc29fac116100ad578063ca15c8731161007c578063ca15c87314610688578063d547741f146106a5578063dd62ed3e146106d1578063e63ab1e9146106ff578063e8cb78441461070757610205565b80639dc29fac146105fc578063a217fddf14610628578063a457c2d714610630578063a9059cbb1461065c57610205565b80638f15b414116100e95780638f15b414146104d25780639010d07c146105a557806391d14854146105c857806395d89b41146105f457610205565b80635c975abb1461049457806370a082311461049c578063793105d8146104c25780638456cb59146104ca57610205565b8063313ce5671161019d5780633e118dbe1161016c5780633e118dbe1461040c5780633f4ba83a1461041457806340c10f191461041c5780634e5581271461044857806358f8943e1461046e57610205565b8063313ce5671461038e57806336568abe146103ac57806339509351146103d85780633c3d34201461040457610205565b806318160ddd116101d957806318160ddd1461030557806323b872dd1461030d578063248a9ca3146103435780632f2ff15d1461036057610205565b8062b833be1461020a57806306fdde031461022e578063095ea7b3146102ab578063118c38c7146102eb575b600080fd5b61021261072d565b604080516001600160a01b039092168252519081900360200190f35b61023661073c565b6040805160208082528351818301528351919283929083019185019080838360005b83811015610270578181015183820152602001610258565b50505050905090810190601f16801561029d5780820380516001836020036101000a031916815260200191505b509250505060405180910390f35b6102d7600480360360408110156102c157600080fd5b506001600160a01b0381351690602001356107d2565b604080519115158252519081900360200190f35b6102f36107f0565b60408051918252519081900360200190f35b6102f3610814565b6102d76004803603606081101561032357600080fd5b506001600160a01b0381358116916020810135909116906040013561081a565b6102f36004803603602081101561035957600080fd5b50356108a1565b61038c6004803603604081101561037657600080fd5b50803590602001356001600160a01b03166108b6565b005b610396610922565b6040805160ff9092168252519081900360200190f35b61038c600480360360408110156103c257600080fd5b50803590602001356001600160a01b031661092b565b6102d7600480360360408110156103ee57600080fd5b506001600160a01b03813516906020013561098c565b6102126109da565b6102f36109e9565b6102d76109ef565b6102d76004803603604081101561043257600080fd5b506001600160a01b038135169060200135610a50565b61038c6004803603602081101561045e57600080fd5b50356001600160a01b0316610b2d565b61038c6004803603602081101561048457600080fd5b50356001600160a01b0316610bbb565b6102d7610c49565b6102f3600480360360208110156104b257600080fd5b50356001600160a01b0316610c52565b610212610c6d565b6102d7610c7c565b61038c600480360360808110156104e857600080fd5b81019060208101813564010000000081111561050357600080fd5b82018360208201111561051557600080fd5b8035906020019184600183028401116401000000008311171561053757600080fd5b91939092909160208101903564010000000081111561055557600080fd5b82018360208201111561056757600080fd5b8035906020019184600183028401116401000000008311171561058957600080fd5b91935091506001600160a01b0381358116916020013516610cd7565b610212600480360360408110156105bb57600080fd5b5080359060200135610e60565b6102d7600480360360408110156105de57600080fd5b50803590602001356001600160a01b0316610e7f565b610236610e97565b6102d76004803603604081101561061257600080fd5b506001600160a01b038135169060200135610ef8565b6102f3610f7f565b6102d76004803603604081101561064657600080fd5b506001600160a01b038135169060200135610f84565b6102d76004803603604081101561067257600080fd5b506001600160a01b038135169060200135610fec565b6102f36004803603602081101561069e57600080fd5b5035611000565b61038c600480360360408110156106bb57600080fd5b50803590602001356001600160a01b0316611017565b6102f3600480360360408110156106e757600080fd5b506001600160a01b0381358116916020013516611070565b6102f361109b565b61038c6004803603602081101561071d57600080fd5b50356001600160a01b03166110ad565b60cb546001600160a01b031681565b60368054604080516020601f60026000196101006001881615020190951694909404938401819004810282018101909252828152606093909290918301828280156107c85780601f1061079d576101008083540402835291602001916107c8565b820191906000526020600020905b8154815290600101906020018083116107ab57829003601f168201915b5050505050905090565b60006107e66107df61113b565b848461113f565b5060015b92915050565b7f751b795d24b92e3d92d1d0d8f2885f4e9c9c269da350af36ae6b49069babf4bf81565b60355490565b600061082784848461122b565b6108978461083361113b565b6108928560405180606001604052806028815260200161211d602891396001600160a01b038a1660009081526034602052604081209061087161113b565b6001600160a01b031681526020810191909152604001600020549190611388565b61113f565b5060019392505050565b60009081526097602052604090206002015490565b6000828152609760205260409020600201546108d9906108d461113b565b610e7f565b6109145760405162461bcd60e51b815260040180806020018281038252602f815260200180612026602f913960400191505060405180910390fd5b61091e828261141f565b5050565b60385460ff1690565b61093361113b565b6001600160a01b0316816001600160a01b0316146109825760405162461bcd60e51b815260040180806020018281038252602f8152602001806121f4602f913960400191505060405180910390fd5b61091e8282611488565b60006107e661099961113b565b8461089285603460006109aa61113b565b6001600160a01b03908116825260208083019390935260409182016000908120918c1681529252902054906114f1565b60c9546001600160a01b031681565b60cc5481565b6000610a0b6000805160206121458339815191526108d461113b565b610a42576040805162461bcd60e51b815260206004820152600360248201526255543760e81b604482015290519081900360640190fd5b610a4a61154b565b50600190565b6000610a7c7f751b795d24b92e3d92d1d0d8f2885f4e9c9c269da350af36ae6b49069babf4bf32610e7f565b8015610aa2575060cb546001600160a01b0316610a9761113b565b6001600160a01b0316145b80610ac7575060c9546001600160a01b0316610abc61113b565b6001600160a01b0316145b80610aec575060ca546001600160a01b0316610ae161113b565b6001600160a01b0316145b610b23576040805162461bcd60e51b815260206004820152600360248201526255543160e81b604482015290519081900360640190fd5b6107e683836115eb565b610b3a60006108d461113b565b610b71576040805162461bcd60e51b815260206004820152600360248201526255543560e81b604482015290519081900360640190fd5b60cb80546001600160a01b0319166001600160a01b0383169081179091556040517fe64d0ea1a8162224d25416ba9164fe1dae6ec14e9f846220b287c0c1c9413e0590600090a250565b610bc860006108d461113b565b610bff576040805162461bcd60e51b815260206004820152600360248201526215550d60ea1b604482015290519081900360640190fd5b60ca80546001600160a01b0319166001600160a01b0383169081179091556040517f57fded54c0f01b7b2c662bd89530d6916e48149e02da384db87d1a67306be87190600090a250565b60655460ff1690565b6001600160a01b031660009081526033602052604090205490565b60ca546001600160a01b031681565b6000610c986000805160206121458339815191526108d461113b565b610ccf576040805162461bcd60e51b81526020600482015260036024820152622aaa1b60e91b604482015290519081900360640190fd5b610a4a6116dd565b600054610100900460ff1680610cf05750610cf0611760565b80610cfe575060005460ff16155b610d395760405162461bcd60e51b815260040180806020018281038252602e8152602001806120ef602e913960400191505060405180910390fd5b600054610100900460ff16158015610d64576000805460ff1961ff0019909116610100171660011790555b610dd787878080601f01602080910402602001604051908101604052809392919081815260200183838082843760009201919091525050604080516020601f8b01819004810282018101909252898152925089915088908190840183828082843760009201919091525061177192505050565b610ddf611827565b610de76118d9565b610df96000610df461113b565b610914565b610e237f751b795d24b92e3d92d1d0d8f2885f4e9c9c269da350af36ae6b49069babf4bf84610914565b610e3b60008051602061214583398151915283610914565b610e456006611976565b8015610e57576000805461ff00191690555b50505050505050565b6000828152609760205260408120610e78908361198c565b9392505050565b6000828152609760205260408120610e789083611998565b60378054604080516020601f60026000196101006001881615020190951694909404938401819004810282018101909252828152606093909290918301828280156107c85780601f1061079d576101008083540402835291602001916107c8565b60ca546000906001600160a01b0316610f0f61113b565b6001600160a01b03161480610f3e575060cb546001600160a01b0316610f3361113b565b6001600160a01b0316145b610f75576040805162461bcd60e51b81526020600482015260036024820152622aaa1960e91b604482015290519081900360640190fd5b6107e683836119ad565b600081565b60006107e6610f9161113b565b84610892856040518060600160405280602581526020016121cf6025913960346000610fbb61113b565b6001600160a01b03908116825260208083019390935260409182016000908120918d16815292529020549190611388565b60006107e6610ff961113b565b848461122b565b60008181526097602052604081206107ea90611aa9565b600082815260976020526040902060020154611035906108d461113b565b6109825760405162461bcd60e51b81526004018080602001828103825260308152602001806120bf6030913960400191505060405180910390fd5b6001600160a01b03918216600090815260346020908152604080832093909416825291909152205490565b60008051602061214583398151915281565b6110ba60006108d461113b565b6110f1576040805162461bcd60e51b815260206004820152600360248201526255543360e81b604482015290519081900360640190fd5b60c980546001600160a01b0319166001600160a01b0383169081179091556040517fd0b9dbe26f676f4cdb02fc249c203baa0314cec79e18b4194dc862795a5de03f90600090a250565b3390565b6001600160a01b0383166111845760405162461bcd60e51b81526004018080602001828103825260248152602001806121ab6024913960400191505060405180910390fd5b6001600160a01b0382166111c95760405162461bcd60e51b81526004018080602001828103825260228152602001806120776022913960400191505060405180910390fd5b6001600160a01b03808416600081815260346020908152604080832094871680845294825291829020859055815185815291517f8c5be1e5ebec7d5bd14f71427d1e84f3dd0314c0f7b2291e5b200ac8c7c3b9259281900390910190a3505050565b6001600160a01b0383166112705760405162461bcd60e51b81526004018080602001828103825260258152602001806121866025913960400191505060405180910390fd5b6001600160a01b0382166112b55760405162461bcd60e51b81526004018080602001828103825260238152602001806120036023913960400191505060405180910390fd5b6112c0838383611ab4565b6112fd81604051806060016040528060268152602001612099602691396001600160a01b0386166000908152603360205260409020549190611388565b6001600160a01b03808516600090815260336020526040808220939093559084168152205461132c90826114f1565b6001600160a01b0380841660008181526033602090815260409182902094909455805185815290519193928716927fddf252ad1be2c89b69c2b068fc378daa952ba7f163c4a11628f55a4df523b3ef92918290030190a3505050565b600081848411156114175760405162461bcd60e51b81526004018080602001828103825283818151815260200191508051906020019080838360005b838110156113dc5781810151838201526020016113c4565b50505050905090810190601f1680156114095780820380516001836020036101000a031916815260200191505b509250505060405180910390fd5b505050900390565b60008281526097602052604090206114379082611aff565b1561091e5761144461113b565b6001600160a01b0316816001600160a01b0316837f2f8788117e7eff1d82e926ec794901d17c78024a50270940304540a733656f0d60405160405180910390a45050565b60008281526097602052604090206114a09082611b14565b1561091e576114ad61113b565b6001600160a01b0316816001600160a01b0316837ff6391f5c32d9c69d2a47ea670b442974b53935d1edc7fd64eb21e047a839171b60405160405180910390a45050565b600082820183811015610e78576040805162461bcd60e51b815260206004820152601b60248201527f536166654d6174683a206164646974696f6e206f766572666c6f770000000000604482015290519081900360640190fd5b611553610c49565b61159b576040805162461bcd60e51b815260206004820152601460248201527314185d5cd8589b194e881b9bdd081c185d5cd95960621b604482015290519081900360640190fd5b6065805460ff191690557f5db9ee0a495bf2e6ff9c91a7834c1ba4fdd244a5e8aa4e537bd38aeae4b073aa6115ce61113b565b604080516001600160a01b039092168252519081900360200190a1565b6001600160a01b038216611646576040805162461bcd60e51b815260206004820152601f60248201527f45524332303a206d696e7420746f20746865207a65726f206164647265737300604482015290519081900360640190fd5b61165260008383611ab4565b60355461165f90826114f1565b6035556001600160a01b03821660009081526033602052604090205461168590826114f1565b6001600160a01b03831660008181526033602090815260408083209490945583518581529351929391927fddf252ad1be2c89b69c2b068fc378daa952ba7f163c4a11628f55a4df523b3ef9281900390910190a35050565b6116e5610c49565b1561172a576040805162461bcd60e51b815260206004820152601060248201526f14185d5cd8589b194e881c185d5cd95960821b604482015290519081900360640190fd5b6065805460ff191660011790557f62e78cea01bee320cd4e420270b5ea74000d11b0c9f74754ebdbfc544b05a2586115ce61113b565b600061176b30611b29565b15905090565b600054610100900460ff168061178a575061178a611760565b80611798575060005460ff16155b6117d35760405162461bcd60e51b815260040180806020018281038252602e8152602001806120ef602e913960400191505060405180910390fd5b600054610100900460ff161580156117fe576000805460ff1961ff0019909116610100171660011790555b611806611b2f565b6118108383611bcf565b8015611822576000805461ff00191690555b505050565b600054610100900460ff16806118405750611840611760565b8061184e575060005460ff16155b6118895760405162461bcd60e51b815260040180806020018281038252602e8152602001806120ef602e913960400191505060405180910390fd5b600054610100900460ff161580156118b4576000805460ff1961ff0019909116610100171660011790555b6118bc611b2f565b6118c4611b2f565b80156118d6576000805461ff00191690555b50565b600054610100900460ff16806118f257506118f2611760565b80611900575060005460ff16155b61193b5760405162461bcd60e51b815260040180806020018281038252602e8152602001806120ef602e913960400191505060405180910390fd5b600054610100900460ff16158015611966576000805460ff1961ff0019909116610100171660011790555b61196e611b2f565b6118c4611ca7565b6038805460ff191660ff92909216919091179055565b6000610e788383611d52565b6000610e78836001600160a01b038416611db6565b6001600160a01b0382166119f25760405162461bcd60e51b81526004018080602001828103825260218152602001806121656021913960400191505060405180910390fd5b6119fe82600083611ab4565b611a3b81604051806060016040528060228152602001612055602291396001600160a01b0385166000908152603360205260409020549190611388565b6001600160a01b038316600090815260336020526040902055603554611a619082611dce565b6035556040805182815290516000916001600160a01b038516917fddf252ad1be2c89b69c2b068fc378daa952ba7f163c4a11628f55a4df523b3ef9181900360200190a35050565b60006107ea82611e2b565b611abc610c49565b15611af4576040805162461bcd60e51b81526020600482015260036024820152620aaa8760eb1b604482015290519081900360640190fd5b611822838383611822565b6000610e78836001600160a01b038416611e2f565b6000610e78836001600160a01b038416611e79565b3b151590565b600054610100900460ff1680611b485750611b48611760565b80611b56575060005460ff16155b611b915760405162461bcd60e51b815260040180806020018281038252602e8152602001806120ef602e913960400191505060405180910390fd5b600054610100900460ff161580156118c4576000805460ff1961ff00199091166101001716600117905580156118d6576000805461ff001916905550565b600054610100900460ff1680611be85750611be8611760565b80611bf6575060005460ff16155b611c315760405162461bcd60e51b815260040180806020018281038252602e8152602001806120ef602e913960400191505060405180910390fd5b600054610100900460ff16158015611c5c576000805460ff1961ff0019909116610100171660011790555b8251611c6f906036906020860190611f3f565b508151611c83906037906020850190611f3f565b506038805460ff191660121790558015611822576000805461ff0019169055505050565b600054610100900460ff1680611cc05750611cc0611760565b80611cce575060005460ff16155b611d095760405162461bcd60e51b815260040180806020018281038252602e8152602001806120ef602e913960400191505060405180910390fd5b600054610100900460ff16158015611d34576000805460ff1961ff0019909116610100171660011790555b6065805460ff1916905580156118d6576000805461ff001916905550565b81546000908210611d945760405162461bcd60e51b8152600401808060200182810382526022815260200180611fe16022913960400191505060405180910390fd5b826000018281548110611da357fe5b9060005260206000200154905092915050565b60009081526001919091016020526040902054151590565b600082821115611e25576040805162461bcd60e51b815260206004820152601e60248201527f536166654d6174683a207375627472616374696f6e206f766572666c6f770000604482015290519081900360640190fd5b50900390565b5490565b6000611e3b8383611db6565b611e71575081546001818101845560008481526020808220909301849055845484825282860190935260409020919091556107ea565b5060006107ea565b60008181526001830160205260408120548015611f355783546000198083019190810190600090879083908110611eac57fe5b9060005260206000200154905080876000018481548110611ec957fe5b600091825260208083209091019290925582815260018981019092526040902090840190558654879080611ef957fe5b600190038181906000526020600020016000905590558660010160008781526020019081526020016000206000905560019450505050506107ea565b60009150506107ea565b828054600181600116156101000203166002900490600052602060002090601f016020900481019282611f755760008555611fbb565b82601f10611f8e57805160ff1916838001178555611fbb565b82800160010185558215611fbb579182015b82811115611fbb578251825591602001919060010190611fa0565b50611fc7929150611fcb565b5090565b5b80821115611fc75760008155600101611fcc56fe456e756d657261626c655365743a20696e646578206f7574206f6620626f756e647345524332303a207472616e7366657220746f20746865207a65726f2061646472657373416363657373436f6e74726f6c3a2073656e646572206d75737420626520616e2061646d696e20746f206772616e7445524332303a206275726e20616d6f756e7420657863656564732062616c616e636545524332303a20617070726f766520746f20746865207a65726f206164647265737345524332303a207472616e7366657220616d6f756e7420657863656564732062616c616e6365416363657373436f6e74726f6c3a2073656e646572206d75737420626520616e2061646d696e20746f207265766f6b65496e697469616c697a61626c653a20636f6e747261637420697320616c726561647920696e697469616c697a656445524332303a207472616e7366657220616d6f756e74206578636565647320616c6c6f77616e636565d7a28e3265b37a6474929f336521b332c1681b933f6cb9f3376673440d862a45524332303a206275726e2066726f6d20746865207a65726f206164647265737345524332303a207472616e736665722066726f6d20746865207a65726f206164647265737345524332303a20617070726f76652066726f6d20746865207a65726f206164647265737345524332303a2064656372656173656420616c6c6f77616e63652062656c6f77207a65726f416363657373436f6e74726f6c3a2063616e206f6e6c792072656e6f756e636520726f6c657320666f722073656c66a26469706673582212208eeaa9398b686c84db4b9b6adaaf1cc51a0de0bb5b9a9282b3ffe6ba4c0ea81a64736f6c63430007060033",
  "immutableReferences": {},
  "source": "// SPDX-License-Identifier: UNLICENSED\npragma solidity >=0.7.0;\n\nimport \"@openzeppelin/contracts-upgradeable/token/ERC20/ERC20Upgradeable.sol\";\nimport \"@openzeppelin/contracts-upgradeable/utils/PausableUpgradeable.sol\";\nimport \"@openzeppelin/contracts-upgradeable/access/AccessControlUpgradeable.sol\";\nimport \"./interfaces/IUTokensV2.sol\";\n\ncontract UTokensXPRT is\n\tERC20Upgradeable,\n\tIUTokensV2,\n\tPausableUpgradeable,\n\tAccessControlUpgradeable\n{\n\t// constants defining access control ROLES\n\tbytes32 public constant BRIDGE_ADMIN_ROLE = keccak256(\"BRIDGE_ADMIN_ROLE\");\n\tbytes32 public constant PAUSER_ROLE = keccak256(\"PAUSER_ROLE\");\n\n\t// variables capturing data of other contracts in the product\n\taddress public _stokenContract;\n\taddress public _liquidStakingContract;\n\taddress public _wrapperContract;\n\n\t// variable pertaining to contract upgrades versioning\n\tuint256 public _version;\n\n\t/**\n\t * @dev Constructor for initializing the UToken contract.\n\t * @param bridgeAdminAddress - address of the bridge admin.\n\t * @param pauserAddress - address of the pauser admin.\n\t */\n\tfunction initialize(\n\t\tstring calldata tokenName,\n\t\tstring calldata tokenSymbol,\n\t\taddress bridgeAdminAddress,\n\t\taddress pauserAddress\n\t) public virtual initializer {\n\t\t__ERC20_init(tokenName, tokenSymbol);\n\t\t__AccessControl_init();\n\t\t__Pausable_init();\n\t\t_setupRole(DEFAULT_ADMIN_ROLE, _msgSender());\n\t\t_setupRole(BRIDGE_ADMIN_ROLE, bridgeAdminAddress);\n\t\t_setupRole(PAUSER_ROLE, pauserAddress);\n\t\t_setupDecimals(6);\n\t}\n\n\t/**\n\t * @dev Mint new utokens for the provided 'address' and 'amount'\n\t * @param to: account address, tokens: number of tokens\n\t *\n\t * Emits a {MintTokens} event with 'to' set to address and 'tokens' set to amount of tokens.\n\t *\n\t * Requirements:\n\t *\n\t * - `amount` cannot be less than zero.\n\t *\n\t */\n\tfunction mint(address to, uint256 tokens)\n\t\tpublic\n\t\tvirtual\n\t\toverride\n\t\treturns (bool success)\n\t{\n\t\trequire(\n\t\t\t(hasRole(BRIDGE_ADMIN_ROLE, tx.origin) &&\n\t\t\t\t_msgSender() == _wrapperContract) || // minted by bridge\n\t\t\t\t_msgSender() == _stokenContract || // minted by STokens contract during reward generation\n\t\t\t\t_msgSender() == _liquidStakingContract,\n\t\t\t\"UT1\"\n\t\t); // minted by LS contract withdrawUnstakedTokens()\n\n\t\t_mint(to, tokens);\n\t\treturn true;\n\t}\n\n\t/*\n\t * @dev Burn utokens for the provided 'address' and 'amount'\n\t * @param from: account address, tokens: number of tokens\n\t *\n\t * Emits a {BurnTokens} event with 'from' set to address and 'tokens' set to amount of tokens.\n\t *\n\t * Requirements:\n\t *\n\t * - `amount` cannot be less than zero.\n\t *\n\t */\n\tfunction burn(address from, uint256 tokens)\n\t\tpublic\n\t\tvirtual\n\t\toverride\n\t\treturns (bool success)\n\t{\n\t\trequire(\n\t\t\t_msgSender() == _liquidStakingContract || // staking operation\n\t\t\t\t_msgSender() == _wrapperContract,\n\t\t\t\"UT2\"\n\t\t); // unwrap operation\n\n\t\t_burn(from, tokens);\n\t\treturn true;\n\t}\n\n\t/*\n\t * @dev Set 'contract address', called for stokens smart contract\n\t * @param stokenContract: stoken contract address\n\t *\n\t * Emits a {SetSTokensContract} event with '_contract' set to the stoken contract address.\n\t *\n\t */\n\t//These functions need to be called after deployment, only admin can call the same\n\tfunction setSTokenContract(address stokenContract) public virtual override {\n\t\trequire(hasRole(DEFAULT_ADMIN_ROLE, _msgSender()), \"UT3\");\n\t\t_stokenContract = stokenContract;\n\t\temit SetSTokensContract(stokenContract);\n\t}\n\n\t/*\n\t * @dev Set 'contract address', for liquid staking smart contract\n\t * @param liquidStakingContract: liquidStaking contract address\n\t *\n\t * Emits a {SetLiquidStakingContract} event with '_contract' set to the liquidStaking contract address.\n\t *\n\t */\n\tfunction setLiquidStakingContract(address liquidStakingContract)\n\t\tpublic\n\t\tvirtual\n\t\toverride\n\t{\n\t\trequire(hasRole(DEFAULT_ADMIN_ROLE, _msgSender()), \"UT4\");\n\t\t_liquidStakingContract = liquidStakingContract;\n\t\temit SetLiquidStakingContract(liquidStakingContract);\n\t}\n\n\t/*\n\t * @dev Set 'contract address', called for token wrapper smart contract\n\t * @param wrapperTokensContract: tokenWrapper contract address\n\t *\n\t * Emits a {SetWrapperContract} event with '_contract' set to the tokenWrapper contract address.\n\t *\n\t */\n\tfunction setWrapperContract(address wrapperTokensContract)\n\t\tpublic\n\t\tvirtual\n\t\toverride\n\t{\n\t\trequire(hasRole(DEFAULT_ADMIN_ROLE, _msgSender()), \"UT5\");\n\t\t_wrapperContract = wrapperTokensContract;\n\t\temit SetWrapperContract(wrapperTokensContract);\n\t}\n\n\t/**\n\t * @dev Triggers stopped state.\n\t *\n\t * Requirements:\n\t *\n\t * - The contract must not be paused.\n\t */\n\tfunction pause() public virtual override returns (bool success) {\n\t\trequire(hasRole(PAUSER_ROLE, _msgSender()), \"UT6\");\n\t\t_pause();\n\t\treturn true;\n\t}\n\n\t/**\n\t * @dev Returns to normal state.\n\t *\n\t * Requirements:\n\t *\n\t * - The contract must be paused.\n\t */\n\tfunction unpause() public virtual override returns (bool success) {\n\t\trequire(hasRole(PAUSER_ROLE, _msgSender()), \"UT7\");\n\t\t_unpause();\n\t\treturn true;\n\t}\n\n\t/**\n\t * @dev Hook that is called before any transfer of tokens. This includes\n\t * minting and burning.\n\t *\n\t * Calling conditions:\n\t *\n\t * - when `from` and `to` are both non-zero, `amount` of ``from``'s tokens\n\t * will be to transferred to `to`.\n\t * - when `from` is zero, `amount` tokens will be minted for `to`.\n\t * - when `to` is zero, `amount` of ``from``'s tokens will be burned.\n\t * - `from` and `to` are never both zero.\n\t *\n\t */\n\tfunction _beforeTokenTransfer(\n\t\taddress from,\n\t\taddress to,\n\t\tuint256 amount\n\t) internal virtual override {\n\t\trequire(!paused(), \"UT8\");\n\t\tsuper._beforeTokenTransfer(from, to, amount);\n\t}\n}\n",
  "sourcePath": "C:\\Users\\Kamlesh\\Persistence\\pStake\\codebase\\pStake-smartContracts\\contracts\\UTokensXPRT.sol",
  "compiler": {
    "name": "solc",
    "version": "0.7.6+commit.7338295f.Emscripten.clang"
  },
  "schemaVersion": "3.4.3",
  "updatedAt": "2021-09-15T11:40:28.047Z",
  "devdoc": {
    "kind": "dev",
    "methods": {
      "allowance(address,address)": {
        "details": "See {IERC20-allowance}."
      },
      "approve(address,uint256)": {
        "details": "See {IERC20-approve}. Requirements: - `spender` cannot be the zero address."
      },
      "balanceOf(address)": {
        "details": "See {IERC20-balanceOf}."
      },
      "burn(address,uint256)": {
        "details": "Burns `amount` tokens to the caller's address `from`. Returns a boolean value indicating whether the operation succeeded. Emits a {Transfer} event."
      },
      "decimals()": {
        "details": "Returns the number of decimals used to get its user representation. For example, if `decimals` equals `2`, a balance of `505` tokens should be displayed to a user as `5,05` (`505 / 10 ** 2`). Tokens usually opt for a value of 18, imitating the relationship between Ether and Wei. This is the value {ERC20} uses, unless {_setupDecimals} is called. NOTE: This information is only used for _display_ purposes: it in no way affects any of the arithmetic of the contract, including {IERC20-balanceOf} and {IERC20-transfer}."
      },
      "decreaseAllowance(address,uint256)": {
        "details": "Atomically decreases the allowance granted to `spender` by the caller. This is an alternative to {approve} that can be used as a mitigation for problems described in {IERC20-approve}. Emits an {Approval} event indicating the updated allowance. Requirements: - `spender` cannot be the zero address. - `spender` must have allowance for the caller of at least `subtractedValue`."
      },
      "getRoleAdmin(bytes32)": {
        "details": "Returns the admin role that controls `role`. See {grantRole} and {revokeRole}. To change a role's admin, use {_setRoleAdmin}."
      },
      "getRoleMember(bytes32,uint256)": {
        "details": "Returns one of the accounts that have `role`. `index` must be a value between 0 and {getRoleMemberCount}, non-inclusive. Role bearers are not sorted in any particular way, and their ordering may change at any point. WARNING: When using {getRoleMember} and {getRoleMemberCount}, make sure you perform all queries on the same block. See the following https://forum.openzeppelin.com/t/iterating-over-elements-on-enumerableset-in-openzeppelin-contracts/2296[forum post] for more information."
      },
      "getRoleMemberCount(bytes32)": {
        "details": "Returns the number of accounts that have `role`. Can be used together with {getRoleMember} to enumerate all bearers of a role."
      },
      "grantRole(bytes32,address)": {
        "details": "Grants `role` to `account`. If `account` had not been already granted `role`, emits a {RoleGranted} event. Requirements: - the caller must have ``role``'s admin role."
      },
      "hasRole(bytes32,address)": {
        "details": "Returns `true` if `account` has been granted `role`."
      },
      "increaseAllowance(address,uint256)": {
        "details": "Atomically increases the allowance granted to `spender` by the caller. This is an alternative to {approve} that can be used as a mitigation for problems described in {IERC20-approve}. Emits an {Approval} event indicating the updated allowance. Requirements: - `spender` cannot be the zero address."
      },
      "initialize(string,string,address,address)": {
        "details": "Constructor for initializing the UToken contract.",
        "params": {
          "bridgeAdminAddress": "- address of the bridge admin.",
          "pauserAddress": "- address of the pauser admin."
        }
      },
      "mint(address,uint256)": {
        "details": "Mint new utokens for the provided 'address' and 'amount'",
        "params": {
          "to": ": account address, tokens: number of tokens Emits a {MintTokens} event with 'to' set to address and 'tokens' set to amount of tokens. Requirements: - `amount` cannot be less than zero."
        }
      },
      "name()": {
        "details": "Returns the name of the token."
      },
      "pause()": {
        "details": "Triggers stopped state. Requirements: - The contract must not be paused."
      },
      "paused()": {
        "details": "Returns true if the contract is paused, and false otherwise."
      },
      "renounceRole(bytes32,address)": {
        "details": "Revokes `role` from the calling account. Roles are often managed via {grantRole} and {revokeRole}: this function's purpose is to provide a mechanism for accounts to lose their privileges if they are compromised (such as when a trusted device is misplaced). If the calling account had been granted `role`, emits a {RoleRevoked} event. Requirements: - the caller must be `account`."
      },
      "revokeRole(bytes32,address)": {
        "details": "Revokes `role` from `account`. If `account` had been granted `role`, emits a {RoleRevoked} event. Requirements: - the caller must have ``role``'s admin role."
      },
      "setLiquidStakingContract(address)": {
        "details": "Set LiquidStaking smart contract."
      },
      "setSTokenContract(address)": {
        "details": "Set STokens smart contract."
      },
      "setWrapperContract(address)": {
        "details": "Set PegTokens smart contract."
      },
      "symbol()": {
        "details": "Returns the symbol of the token, usually a shorter version of the name."
      },
      "totalSupply()": {
        "details": "See {IERC20-totalSupply}."
      },
      "transfer(address,uint256)": {
        "details": "See {IERC20-transfer}. Requirements: - `recipient` cannot be the zero address. - the caller must have a balance of at least `amount`."
      },
      "transferFrom(address,address,uint256)": {
        "details": "See {IERC20-transferFrom}. Emits an {Approval} event indicating the updated allowance. This is not required by the EIP. See the note at the beginning of {ERC20}. Requirements: - `sender` and `recipient` cannot be the zero address. - `sender` must have a balance of at least `amount`. - the caller must have allowance for ``sender``'s tokens of at least `amount`."
      },
      "unpause()": {
        "details": "Returns to normal state. Requirements: - The contract must be paused."
      }
    },
    "version": 1
  },
  "userdoc": {
    "kind": "user",
    "methods": {},
    "version": 1
  }
}