{
  "contractName": "UTokens",
  "abi": [
    {
      "anonymous": false,
      "inputs": [
        {
          "indexed": true,
          "internalType": "address",
          "name": "owner",
          "type": "address"
        },
        {
          "indexed": true,
          "internalType": "address",
          "name": "spender",
          "type": "address"
        },
        {
          "indexed": false,
          "internalType": "uint256",
          "name": "value",
          "type": "uint256"
        }
      ],
      "name": "Approval",
      "type": "event"
    },
    {
      "anonymous": false,
      "inputs": [
        {
          "indexed": false,
          "internalType": "address",
          "name": "account",
          "type": "address"
        }
      ],
      "name": "Paused",
      "type": "event"
    },
    {
      "anonymous": false,
      "inputs": [
        {
          "indexed": true,
          "internalType": "bytes32",
          "name": "role",
          "type": "bytes32"
        },
        {
          "indexed": true,
          "internalType": "bytes32",
          "name": "previousAdminRole",
          "type": "bytes32"
        },
        {
          "indexed": true,
          "internalType": "bytes32",
          "name": "newAdminRole",
          "type": "bytes32"
        }
      ],
      "name": "RoleAdminChanged",
      "type": "event"
    },
    {
      "anonymous": false,
      "inputs": [
        {
          "indexed": true,
          "internalType": "bytes32",
          "name": "role",
          "type": "bytes32"
        },
        {
          "indexed": true,
          "internalType": "address",
          "name": "account",
          "type": "address"
        },
        {
          "indexed": true,
          "internalType": "address",
          "name": "sender",
          "type": "address"
        }
      ],
      "name": "RoleGranted",
      "type": "event"
    },
    {
      "anonymous": false,
      "inputs": [
        {
          "indexed": true,
          "internalType": "bytes32",
          "name": "role",
          "type": "bytes32"
        },
        {
          "indexed": true,
          "internalType": "address",
          "name": "account",
          "type": "address"
        },
        {
          "indexed": true,
          "internalType": "address",
          "name": "sender",
          "type": "address"
        }
      ],
      "name": "RoleRevoked",
      "type": "event"
    },
    {
      "anonymous": false,
      "inputs": [
        {
          "indexed": true,
          "internalType": "address",
          "name": "_contract",
          "type": "address"
        }
      ],
      "name": "SetLiquidStakingContract",
      "type": "event"
    },
    {
      "anonymous": false,
      "inputs": [
        {
          "indexed": true,
          "internalType": "address",
          "name": "_contract",
          "type": "address"
        }
      ],
      "name": "SetSTokensContract",
      "type": "event"
    },
    {
      "anonymous": false,
      "inputs": [
        {
          "indexed": true,
          "internalType": "address",
          "name": "_contract",
          "type": "address"
        }
      ],
      "name": "SetWrapperContract",
      "type": "event"
    },
    {
      "anonymous": false,
      "inputs": [
        {
          "indexed": true,
          "internalType": "address",
          "name": "from",
          "type": "address"
        },
        {
          "indexed": true,
          "internalType": "address",
          "name": "to",
          "type": "address"
        },
        {
          "indexed": false,
          "internalType": "uint256",
          "name": "value",
          "type": "uint256"
        }
      ],
      "name": "Transfer",
      "type": "event"
    },
    {
      "anonymous": false,
      "inputs": [
        {
          "indexed": false,
          "internalType": "address",
          "name": "account",
          "type": "address"
        }
      ],
      "name": "Unpaused",
      "type": "event"
    },
    {
      "inputs": [],
      "name": "BRIDGE_ADMIN_ROLE",
      "outputs": [
        {
          "internalType": "bytes32",
          "name": "",
          "type": "bytes32"
        }
      ],
      "stateMutability": "view",
      "type": "function"
    },
    {
      "inputs": [],
      "name": "DEFAULT_ADMIN_ROLE",
      "outputs": [
        {
          "internalType": "bytes32",
          "name": "",
          "type": "bytes32"
        }
      ],
      "stateMutability": "view",
      "type": "function"
    },
    {
      "inputs": [],
      "name": "PAUSER_ROLE",
      "outputs": [
        {
          "internalType": "bytes32",
          "name": "",
          "type": "bytes32"
        }
      ],
      "stateMutability": "view",
      "type": "function"
    },
    {
      "inputs": [
        {
          "internalType": "address",
          "name": "owner",
          "type": "address"
        },
        {
          "internalType": "address",
          "name": "spender",
          "type": "address"
        }
      ],
      "name": "allowance",
      "outputs": [
        {
          "internalType": "uint256",
          "name": "",
          "type": "uint256"
        }
      ],
      "stateMutability": "view",
      "type": "function"
    },
    {
      "inputs": [
        {
          "internalType": "address",
          "name": "spender",
          "type": "address"
        },
        {
          "internalType": "uint256",
          "name": "amount",
          "type": "uint256"
        }
      ],
      "name": "approve",
      "outputs": [
        {
          "internalType": "bool",
          "name": "",
          "type": "bool"
        }
      ],
      "stateMutability": "nonpayable",
      "type": "function"
    },
    {
      "inputs": [
        {
          "internalType": "address",
          "name": "account",
          "type": "address"
        }
      ],
      "name": "balanceOf",
      "outputs": [
        {
          "internalType": "uint256",
          "name": "",
          "type": "uint256"
        }
      ],
      "stateMutability": "view",
      "type": "function"
    },
    {
      "inputs": [],
      "name": "decimals",
      "outputs": [
        {
          "internalType": "uint8",
          "name": "",
          "type": "uint8"
        }
      ],
      "stateMutability": "view",
      "type": "function"
    },
    {
      "inputs": [
        {
          "internalType": "address",
          "name": "spender",
          "type": "address"
        },
        {
          "internalType": "uint256",
          "name": "subtractedValue",
          "type": "uint256"
        }
      ],
      "name": "decreaseAllowance",
      "outputs": [
        {
          "internalType": "bool",
          "name": "",
          "type": "bool"
        }
      ],
      "stateMutability": "nonpayable",
      "type": "function"
    },
    {
      "inputs": [
        {
          "internalType": "bytes32",
          "name": "role",
          "type": "bytes32"
        }
      ],
      "name": "getRoleAdmin",
      "outputs": [
        {
          "internalType": "bytes32",
          "name": "",
          "type": "bytes32"
        }
      ],
      "stateMutability": "view",
      "type": "function"
    },
    {
      "inputs": [
        {
          "internalType": "bytes32",
          "name": "role",
          "type": "bytes32"
        },
        {
          "internalType": "uint256",
          "name": "index",
          "type": "uint256"
        }
      ],
      "name": "getRoleMember",
      "outputs": [
        {
          "internalType": "address",
          "name": "",
          "type": "address"
        }
      ],
      "stateMutability": "view",
      "type": "function"
    },
    {
      "inputs": [
        {
          "internalType": "bytes32",
          "name": "role",
          "type": "bytes32"
        }
      ],
      "name": "getRoleMemberCount",
      "outputs": [
        {
          "internalType": "uint256",
          "name": "",
          "type": "uint256"
        }
      ],
      "stateMutability": "view",
      "type": "function"
    },
    {
      "inputs": [
        {
          "internalType": "bytes32",
          "name": "role",
          "type": "bytes32"
        },
        {
          "internalType": "address",
          "name": "account",
          "type": "address"
        }
      ],
      "name": "grantRole",
      "outputs": [],
      "stateMutability": "nonpayable",
      "type": "function"
    },
    {
      "inputs": [
        {
          "internalType": "bytes32",
          "name": "role",
          "type": "bytes32"
        },
        {
          "internalType": "address",
          "name": "account",
          "type": "address"
        }
      ],
      "name": "hasRole",
      "outputs": [
        {
          "internalType": "bool",
          "name": "",
          "type": "bool"
        }
      ],
      "stateMutability": "view",
      "type": "function"
    },
    {
      "inputs": [
        {
          "internalType": "address",
          "name": "spender",
          "type": "address"
        },
        {
          "internalType": "uint256",
          "name": "addedValue",
          "type": "uint256"
        }
      ],
      "name": "increaseAllowance",
      "outputs": [
        {
          "internalType": "bool",
          "name": "",
          "type": "bool"
        }
      ],
      "stateMutability": "nonpayable",
      "type": "function"
    },
    {
      "inputs": [],
      "name": "name",
      "outputs": [
        {
          "internalType": "string",
          "name": "",
          "type": "string"
        }
      ],
      "stateMutability": "view",
      "type": "function"
    },
    {
      "inputs": [],
      "name": "paused",
      "outputs": [
        {
          "internalType": "bool",
          "name": "",
          "type": "bool"
        }
      ],
      "stateMutability": "view",
      "type": "function"
    },
    {
      "inputs": [
        {
          "internalType": "bytes32",
          "name": "role",
          "type": "bytes32"
        },
        {
          "internalType": "address",
          "name": "account",
          "type": "address"
        }
      ],
      "name": "renounceRole",
      "outputs": [],
      "stateMutability": "nonpayable",
      "type": "function"
    },
    {
      "inputs": [
        {
          "internalType": "bytes32",
          "name": "role",
          "type": "bytes32"
        },
        {
          "internalType": "address",
          "name": "account",
          "type": "address"
        }
      ],
      "name": "revokeRole",
      "outputs": [],
      "stateMutability": "nonpayable",
      "type": "function"
    },
    {
      "inputs": [],
      "name": "symbol",
      "outputs": [
        {
          "internalType": "string",
          "name": "",
          "type": "string"
        }
      ],
      "stateMutability": "view",
      "type": "function"
    },
    {
      "inputs": [],
      "name": "totalSupply",
      "outputs": [
        {
          "internalType": "uint256",
          "name": "",
          "type": "uint256"
        }
      ],
      "stateMutability": "view",
      "type": "function"
    },
    {
      "inputs": [
        {
          "internalType": "address",
          "name": "recipient",
          "type": "address"
        },
        {
          "internalType": "uint256",
          "name": "amount",
          "type": "uint256"
        }
      ],
      "name": "transfer",
      "outputs": [
        {
          "internalType": "bool",
          "name": "",
          "type": "bool"
        }
      ],
      "stateMutability": "nonpayable",
      "type": "function"
    },
    {
      "inputs": [
        {
          "internalType": "address",
          "name": "sender",
          "type": "address"
        },
        {
          "internalType": "address",
          "name": "recipient",
          "type": "address"
        },
        {
          "internalType": "uint256",
          "name": "amount",
          "type": "uint256"
        }
      ],
      "name": "transferFrom",
      "outputs": [
        {
          "internalType": "bool",
          "name": "",
          "type": "bool"
        }
      ],
      "stateMutability": "nonpayable",
      "type": "function"
    },
    {
      "inputs": [
        {
          "internalType": "address",
          "name": "bridgeAdminAddress",
          "type": "address"
        },
        {
          "internalType": "address",
          "name": "pauserAddress",
          "type": "address"
        }
      ],
      "name": "initialize",
      "outputs": [],
      "stateMutability": "nonpayable",
      "type": "function"
    },
    {
      "inputs": [
        {
          "internalType": "address",
          "name": "to",
          "type": "address"
        },
        {
          "internalType": "uint256",
          "name": "tokens",
          "type": "uint256"
        }
      ],
      "name": "mint",
      "outputs": [
        {
          "internalType": "bool",
          "name": "success",
          "type": "bool"
        }
      ],
      "stateMutability": "nonpayable",
      "type": "function"
    },
    {
      "inputs": [
        {
          "internalType": "address",
          "name": "from",
          "type": "address"
        },
        {
          "internalType": "uint256",
          "name": "tokens",
          "type": "uint256"
        }
      ],
      "name": "burn",
      "outputs": [
        {
          "internalType": "bool",
          "name": "success",
          "type": "bool"
        }
      ],
      "stateMutability": "nonpayable",
      "type": "function"
    },
    {
      "inputs": [
        {
          "internalType": "address",
          "name": "stokenContract",
          "type": "address"
        }
      ],
      "name": "setSTokenContract",
      "outputs": [],
      "stateMutability": "nonpayable",
      "type": "function"
    },
    {
      "inputs": [
        {
          "internalType": "address",
          "name": "liquidStakingContract",
          "type": "address"
        }
      ],
      "name": "setLiquidStakingContract",
      "outputs": [],
      "stateMutability": "nonpayable",
      "type": "function"
    },
    {
      "inputs": [
        {
          "internalType": "address",
          "name": "wrapperTokensContract",
          "type": "address"
        }
      ],
      "name": "setWrapperContract",
      "outputs": [],
      "stateMutability": "nonpayable",
      "type": "function"
    },
    {
      "inputs": [],
      "name": "pause",
      "outputs": [
        {
          "internalType": "bool",
          "name": "success",
          "type": "bool"
        }
      ],
      "stateMutability": "nonpayable",
      "type": "function"
    },
    {
      "inputs": [],
      "name": "unpause",
      "outputs": [
        {
          "internalType": "bool",
          "name": "success",
          "type": "bool"
        }
      ],
      "stateMutability": "nonpayable",
      "type": "function"
    }
  ],
  "bytecode": "0x608060405234801561001057600080fd5b50612131806100206000396000f3fe608060405234801561001057600080fd5b50600436106101da5760003560e01c80635c975abb11610104578063a217fddf116100a2578063d547741f11610071578063d547741f146105b5578063dd62ed3e146105e1578063e63ab1e91461060f578063e8cb784414610617576101da565b8063a217fddf14610538578063a457c2d714610540578063a9059cbb1461056c578063ca15c87314610598576101da565b80639010d07c116100de5780639010d07c1461049957806391d14854146104d857806395d89b41146105045780639dc29fac1461050c576101da565b80635c975abb1461046357806370a082311461046b5780638456cb5914610491576101da565b8063313ce5671161017c57806340c10f191161014b57806340c10f19146103bd578063485cc955146103e95780634e5581271461041757806358f8943e1461043d576101da565b8063313ce5671461033f57806336568abe1461035d57806339509351146103895780633f4ba83a146103b5576101da565b806318160ddd116101b857806318160ddd146102b657806323b872dd146102be578063248a9ca3146102f45780632f2ff15d14610311576101da565b806306fdde03146101df578063095ea7b31461025c578063118c38c71461029c575b600080fd5b6101e761063d565b6040805160208082528351818301528351919283929083019185019080838360005b83811015610221578181015183820152602001610209565b50505050905090810190601f16801561024e5780820380516001836020036101000a031916815260200191505b509250505060405180910390f35b6102886004803603604081101561027257600080fd5b506001600160a01b0381351690602001356106d3565b604080519115158252519081900360200190f35b6102a46106f1565b60408051918252519081900360200190f35b6102a4610715565b610288600480360360608110156102d457600080fd5b506001600160a01b0381358116916020810135909116906040013561071b565b6102a46004803603602081101561030a57600080fd5b50356107a2565b61033d6004803603604081101561032757600080fd5b50803590602001356001600160a01b03166107b7565b005b610347610823565b6040805160ff9092168252519081900360200190f35b61033d6004803603604081101561037357600080fd5b50803590602001356001600160a01b031661082c565b6102886004803603604081101561039f57600080fd5b506001600160a01b03813516906020013561088d565b6102886108db565b610288600480360360408110156103d357600080fd5b506001600160a01b03813516906020013561093c565b61033d600480360360408110156103ff57600080fd5b506001600160a01b0381358116916020013516610a2c565b61033d6004803603602081101561042d57600080fd5b50356001600160a01b0316610b8f565b61033d6004803603602081101561045357600080fd5b50356001600160a01b0316610c1d565b610288610cab565b6102a46004803603602081101561048157600080fd5b50356001600160a01b0316610cb4565b610288610ccf565b6104bc600480360360408110156104af57600080fd5b5080359060200135610d2a565b604080516001600160a01b039092168252519081900360200190f35b610288600480360360408110156104ee57600080fd5b50803590602001356001600160a01b0316610d49565b6101e7610d61565b6102886004803603604081101561052257600080fd5b506001600160a01b038135169060200135610dc2565b6102a4610e6f565b6102886004803603604081101561055657600080fd5b506001600160a01b038135169060200135610e74565b6102886004803603604081101561058257600080fd5b506001600160a01b038135169060200135610edc565b6102a4600480360360208110156105ae57600080fd5b5035610ef0565b61033d600480360360408110156105cb57600080fd5b50803590602001356001600160a01b0316610f07565b6102a4600480360360408110156105f757600080fd5b506001600160a01b0381358116916020013516610f60565b6102a4610f8b565b61033d6004803603602081101561062d57600080fd5b50356001600160a01b0316610f9d565b60368054604080516020601f60026000196101006001881615020190951694909404938401819004810282018101909252828152606093909290918301828280156106c95780601f1061069e576101008083540402835291602001916106c9565b820191906000526020600020905b8154815290600101906020018083116106ac57829003601f168201915b5050505050905090565b60006106e76106e061102b565b848461102f565b5060015b92915050565b7f751b795d24b92e3d92d1d0d8f2885f4e9c9c269da350af36ae6b49069babf4bf81565b60355490565b600061072884848461111b565b6107988461073461102b565b61079385604051806060016040528060288152602001611ff6602891396001600160a01b038a1660009081526034602052604081209061077261102b565b6001600160a01b031681526020810191909152604001600020549190611278565b61102f565b5060019392505050565b60009081526097602052604090206002015490565b6000828152609760205260409020600201546107da906107d561102b565b610d49565b6108155760405162461bcd60e51b815260040180806020018281038252602f815260200180611eff602f913960400191505060405180910390fd5b61081f828261130f565b5050565b60385460ff1690565b61083461102b565b6001600160a01b0316816001600160a01b0316146108835760405162461bcd60e51b815260040180806020018281038252602f8152602001806120cd602f913960400191505060405180910390fd5b61081f8282611378565b60006106e761089a61102b565b8461079385603460006108ab61102b565b6001600160a01b03908116825260208083019390935260409182016000908120918c1681529252902054906113e1565b60006108f760008051602061201e8339815191526107d561102b565b61092e576040805162461bcd60e51b815260206004820152600360248201526255543760e81b604482015290519081900360640190fd5b61093661143b565b50600190565b60006109687f751b795d24b92e3d92d1d0d8f2885f4e9c9c269da350af36ae6b49069babf4bf32610d49565b801561098e575060cb546001600160a01b031661098361102b565b6001600160a01b0316145b806109b3575060c9546001600160a01b03166109a861102b565b6001600160a01b0316145b806109eb5750326001600160a01b0384161480156109eb575060ca546001600160a01b03166109e061102b565b6001600160a01b0316145b610a22576040805162461bcd60e51b815260206004820152600360248201526255543160e81b604482015290519081900360640190fd5b6106e783836114db565b600054610100900460ff1680610a455750610a456115cd565b80610a53575060005460ff16155b610a8e5760405162461bcd60e51b815260040180806020018281038252602e815260200180611fc8602e913960400191505060405180910390fd5b600054610100900460ff16158015610ab9576000805460ff1961ff0019909116610100171660011790555b610b0a60405180604001604052806012815260200171705354414b45205065676765642041544f4d60701b815250604051806040016040528060058152602001647041544f4d60d81b8152506115de565b610b1261167d565b610b1a61172f565b610b2c6000610b2761102b565b610815565b610b567f751b795d24b92e3d92d1d0d8f2885f4e9c9c269da350af36ae6b49069babf4bf84610815565b610b6e60008051602061201e83398151915283610815565b610b7860066117cc565b8015610b8a576000805461ff00191690555b505050565b610b9c60006107d561102b565b610bd3576040805162461bcd60e51b815260206004820152600360248201526255543560e81b604482015290519081900360640190fd5b60cb80546001600160a01b0319166001600160a01b0383169081179091556040517fe64d0ea1a8162224d25416ba9164fe1dae6ec14e9f846220b287c0c1c9413e0590600090a250565b610c2a60006107d561102b565b610c61576040805162461bcd60e51b815260206004820152600360248201526215550d60ea1b604482015290519081900360640190fd5b60ca80546001600160a01b0319166001600160a01b0383169081179091556040517f57fded54c0f01b7b2c662bd89530d6916e48149e02da384db87d1a67306be87190600090a250565b60655460ff1690565b6001600160a01b031660009081526033602052604090205490565b6000610ceb60008051602061201e8339815191526107d561102b565b610d22576040805162461bcd60e51b81526020600482015260036024820152622aaa1b60e91b604482015290519081900360640190fd5b6109366117e2565b6000828152609760205260408120610d429083611865565b9392505050565b6000828152609760205260408120610d429083611871565b60378054604080516020601f60026000196101006001881615020190951694909404938401819004810282018101909252828152606093909290918301828280156106c95780601f1061069e576101008083540402835291602001916106c9565b6000326001600160a01b038416148015610df6575060ca546001600160a01b0316610deb61102b565b6001600160a01b0316145b80610e2e5750326001600160a01b038416148015610e2e575060cb546001600160a01b0316610e2361102b565b6001600160a01b0316145b610e65576040805162461bcd60e51b81526020600482015260036024820152622aaa1960e91b604482015290519081900360640190fd5b6106e78383611886565b600081565b60006106e7610e8161102b565b84610793856040518060600160405280602581526020016120a86025913960346000610eab61102b565b6001600160a01b03908116825260208083019390935260409182016000908120918d16815292529020549190611278565b60006106e7610ee961102b565b848461111b565b60008181526097602052604081206106eb90611982565b600082815260976020526040902060020154610f25906107d561102b565b6108835760405162461bcd60e51b8152600401808060200182810382526030815260200180611f986030913960400191505060405180910390fd5b6001600160a01b03918216600090815260346020908152604080832093909416825291909152205490565b60008051602061201e83398151915281565b610faa60006107d561102b565b610fe1576040805162461bcd60e51b815260206004820152600360248201526255543360e81b604482015290519081900360640190fd5b60c980546001600160a01b0319166001600160a01b0383169081179091556040517fd0b9dbe26f676f4cdb02fc249c203baa0314cec79e18b4194dc862795a5de03f90600090a250565b3390565b6001600160a01b0383166110745760405162461bcd60e51b81526004018080602001828103825260248152602001806120846024913960400191505060405180910390fd5b6001600160a01b0382166110b95760405162461bcd60e51b8152600401808060200182810382526022815260200180611f506022913960400191505060405180910390fd5b6001600160a01b03808416600081815260346020908152604080832094871680845294825291829020859055815185815291517f8c5be1e5ebec7d5bd14f71427d1e84f3dd0314c0f7b2291e5b200ac8c7c3b9259281900390910190a3505050565b6001600160a01b0383166111605760405162461bcd60e51b815260040180806020018281038252602581526020018061205f6025913960400191505060405180910390fd5b6001600160a01b0382166111a55760405162461bcd60e51b8152600401808060200182810382526023815260200180611edc6023913960400191505060405180910390fd5b6111b083838361198d565b6111ed81604051806060016040528060268152602001611f72602691396001600160a01b0386166000908152603360205260409020549190611278565b6001600160a01b03808516600090815260336020526040808220939093559084168152205461121c90826113e1565b6001600160a01b0380841660008181526033602090815260409182902094909455805185815290519193928716927fddf252ad1be2c89b69c2b068fc378daa952ba7f163c4a11628f55a4df523b3ef92918290030190a3505050565b600081848411156113075760405162461bcd60e51b81526004018080602001828103825283818151815260200191508051906020019080838360005b838110156112cc5781810151838201526020016112b4565b50505050905090810190601f1680156112f95780820380516001836020036101000a031916815260200191505b509250505060405180910390fd5b505050900390565b600082815260976020526040902061132790826119d8565b1561081f5761133461102b565b6001600160a01b0316816001600160a01b0316837f2f8788117e7eff1d82e926ec794901d17c78024a50270940304540a733656f0d60405160405180910390a45050565b600082815260976020526040902061139090826119ed565b1561081f5761139d61102b565b6001600160a01b0316816001600160a01b0316837ff6391f5c32d9c69d2a47ea670b442974b53935d1edc7fd64eb21e047a839171b60405160405180910390a45050565b600082820183811015610d42576040805162461bcd60e51b815260206004820152601b60248201527f536166654d6174683a206164646974696f6e206f766572666c6f770000000000604482015290519081900360640190fd5b611443610cab565b61148b576040805162461bcd60e51b815260206004820152601460248201527314185d5cd8589b194e881b9bdd081c185d5cd95960621b604482015290519081900360640190fd5b6065805460ff191690557f5db9ee0a495bf2e6ff9c91a7834c1ba4fdd244a5e8aa4e537bd38aeae4b073aa6114be61102b565b604080516001600160a01b039092168252519081900360200190a1565b6001600160a01b038216611536576040805162461bcd60e51b815260206004820152601f60248201527f45524332303a206d696e7420746f20746865207a65726f206164647265737300604482015290519081900360640190fd5b6115426000838361198d565b60355461154f90826113e1565b6035556001600160a01b03821660009081526033602052604090205461157590826113e1565b6001600160a01b03831660008181526033602090815260408083209490945583518581529351929391927fddf252ad1be2c89b69c2b068fc378daa952ba7f163c4a11628f55a4df523b3ef9281900390910190a35050565b60006115d830611a02565b15905090565b600054610100900460ff16806115f757506115f76115cd565b80611605575060005460ff16155b6116405760405162461bcd60e51b815260040180806020018281038252602e815260200180611fc8602e913960400191505060405180910390fd5b600054610100900460ff1615801561166b576000805460ff1961ff0019909116610100171660011790555b611673611a08565b610b788383611aa8565b600054610100900460ff168061169657506116966115cd565b806116a4575060005460ff16155b6116df5760405162461bcd60e51b815260040180806020018281038252602e815260200180611fc8602e913960400191505060405180910390fd5b600054610100900460ff1615801561170a576000805460ff1961ff0019909116610100171660011790555b611712611a08565b61171a611a08565b801561172c576000805461ff00191690555b50565b600054610100900460ff168061174857506117486115cd565b80611756575060005460ff16155b6117915760405162461bcd60e51b815260040180806020018281038252602e815260200180611fc8602e913960400191505060405180910390fd5b600054610100900460ff161580156117bc576000805460ff1961ff0019909116610100171660011790555b6117c4611a08565b61171a611b80565b6038805460ff191660ff92909216919091179055565b6117ea610cab565b1561182f576040805162461bcd60e51b815260206004820152601060248201526f14185d5cd8589b194e881c185d5cd95960821b604482015290519081900360640190fd5b6065805460ff191660011790557f62e78cea01bee320cd4e420270b5ea74000d11b0c9f74754ebdbfc544b05a2586114be61102b565b6000610d428383611c2b565b6000610d42836001600160a01b038416611c8f565b6001600160a01b0382166118cb5760405162461bcd60e51b815260040180806020018281038252602181526020018061203e6021913960400191505060405180910390fd5b6118d78260008361198d565b61191481604051806060016040528060228152602001611f2e602291396001600160a01b0385166000908152603360205260409020549190611278565b6001600160a01b03831660009081526033602052604090205560355461193a9082611ca7565b6035556040805182815290516000916001600160a01b038516917fddf252ad1be2c89b69c2b068fc378daa952ba7f163c4a11628f55a4df523b3ef9181900360200190a35050565b60006106eb82611d04565b611995610cab565b156119cd576040805162461bcd60e51b81526020600482015260036024820152620aaa8760eb1b604482015290519081900360640190fd5b610b8a838383610b8a565b6000610d42836001600160a01b038416611d08565b6000610d42836001600160a01b038416611d52565b3b151590565b600054610100900460ff1680611a215750611a216115cd565b80611a2f575060005460ff16155b611a6a5760405162461bcd60e51b815260040180806020018281038252602e815260200180611fc8602e913960400191505060405180910390fd5b600054610100900460ff1615801561171a576000805460ff1961ff001990911661010017166001179055801561172c576000805461ff001916905550565b600054610100900460ff1680611ac15750611ac16115cd565b80611acf575060005460ff16155b611b0a5760405162461bcd60e51b815260040180806020018281038252602e815260200180611fc8602e913960400191505060405180910390fd5b600054610100900460ff16158015611b35576000805460ff1961ff0019909116610100171660011790555b8251611b48906036906020860190611e18565b508151611b5c906037906020850190611e18565b506038805460ff191660121790558015610b8a576000805461ff0019169055505050565b600054610100900460ff1680611b995750611b996115cd565b80611ba7575060005460ff16155b611be25760405162461bcd60e51b815260040180806020018281038252602e815260200180611fc8602e913960400191505060405180910390fd5b600054610100900460ff16158015611c0d576000805460ff1961ff0019909116610100171660011790555b6065805460ff19169055801561172c576000805461ff001916905550565b81546000908210611c6d5760405162461bcd60e51b8152600401808060200182810382526022815260200180611eba6022913960400191505060405180910390fd5b826000018281548110611c7c57fe5b9060005260206000200154905092915050565b60009081526001919091016020526040902054151590565b600082821115611cfe576040805162461bcd60e51b815260206004820152601e60248201527f536166654d6174683a207375627472616374696f6e206f766572666c6f770000604482015290519081900360640190fd5b50900390565b5490565b6000611d148383611c8f565b611d4a575081546001818101845560008481526020808220909301849055845484825282860190935260409020919091556106eb565b5060006106eb565b60008181526001830160205260408120548015611e0e5783546000198083019190810190600090879083908110611d8557fe5b9060005260206000200154905080876000018481548110611da257fe5b600091825260208083209091019290925582815260018981019092526040902090840190558654879080611dd257fe5b600190038181906000526020600020016000905590558660010160008781526020019081526020016000206000905560019450505050506106eb565b60009150506106eb565b828054600181600116156101000203166002900490600052602060002090601f016020900481019282611e4e5760008555611e94565b82601f10611e6757805160ff1916838001178555611e94565b82800160010185558215611e94579182015b82811115611e94578251825591602001919060010190611e79565b50611ea0929150611ea4565b5090565b5b80821115611ea05760008155600101611ea556fe456e756d657261626c655365743a20696e646578206f7574206f6620626f756e647345524332303a207472616e7366657220746f20746865207a65726f2061646472657373416363657373436f6e74726f6c3a2073656e646572206d75737420626520616e2061646d696e20746f206772616e7445524332303a206275726e20616d6f756e7420657863656564732062616c616e636545524332303a20617070726f766520746f20746865207a65726f206164647265737345524332303a207472616e7366657220616d6f756e7420657863656564732062616c616e6365416363657373436f6e74726f6c3a2073656e646572206d75737420626520616e2061646d696e20746f207265766f6b65496e697469616c697a61626c653a20636f6e747261637420697320616c726561647920696e697469616c697a656445524332303a207472616e7366657220616d6f756e74206578636565647320616c6c6f77616e636565d7a28e3265b37a6474929f336521b332c1681b933f6cb9f3376673440d862a45524332303a206275726e2066726f6d20746865207a65726f206164647265737345524332303a207472616e736665722066726f6d20746865207a65726f206164647265737345524332303a20617070726f76652066726f6d20746865207a65726f206164647265737345524332303a2064656372656173656420616c6c6f77616e63652062656c6f77207a65726f416363657373436f6e74726f6c3a2063616e206f6e6c792072656e6f756e636520726f6c657320666f722073656c66a2646970667358221220620f60c268bc78b3d5a5cbd89cadfb94883683e9fec2ba46622b6374651c8e9764736f6c63430007060033",
  "immutableReferences": {},
  "source": "/*\n Copyright [2019] - [2021], PERSISTENCE TECHNOLOGIES PTE. LTD. and the pStake-smartContracts contributors\n SPDX-License-Identifier: Apache-2.0\n*/\n\npragma solidity >= 0.7.0;\n\nimport \"@openzeppelin/contracts-upgradeable/token/ERC20/ERC20Upgradeable.sol\";\nimport \"@openzeppelin/contracts-upgradeable/utils/PausableUpgradeable.sol\";\nimport \"@openzeppelin/contracts-upgradeable/access/AccessControlUpgradeable.sol\";\nimport \"./interfaces/IUTokens.sol\";\n\ncontract UTokens is ERC20Upgradeable, IUTokens, PausableUpgradeable, AccessControlUpgradeable {\n\n\t// constants defining access control ROLES\n\tbytes32 public constant BRIDGE_ADMIN_ROLE = keccak256(\"BRIDGE_ADMIN_ROLE\");\n\tbytes32 public constant PAUSER_ROLE = keccak256(\"PAUSER_ROLE\");\n\n\t// variables capturing data of other contracts in the product\n\taddress private _stokenContract;\n\taddress private _liquidStakingContract;\n\taddress private _wrapperContract;\n\n\t/**\n   * @dev Constructor for initializing the UToken contract.\n   * @param bridgeAdminAddress - address of the bridge admin.\n   * @param pauserAddress - address of the pauser admin.\n   */\n\tfunction initialize(address bridgeAdminAddress, address pauserAddress) public virtual initializer {\n\t\t__ERC20_init(\"pSTAKE Pegged ATOM\", \"pATOM\");\n\t\t__AccessControl_init();\n\t\t__Pausable_init();\n\t\t_setupRole(DEFAULT_ADMIN_ROLE, _msgSender());\n\t\t_setupRole(BRIDGE_ADMIN_ROLE, bridgeAdminAddress);\n\t\t_setupRole(PAUSER_ROLE, pauserAddress);\n\t\t_setupDecimals(6);\n\t}\n\n\t/**\n    * @dev Mint new utokens for the provided 'address' and 'amount'\n    * @param to: account address, tokens: number of tokens\n    *\n    * Emits a {MintTokens} event with 'to' set to address and 'tokens' set to amount of tokens.\n    *\n    * Requirements:\n    *\n    * - `amount` cannot be less than zero.\n    *\n    */\n\tfunction mint(address to, uint256 tokens) public virtual override returns (bool success) {\n\t\trequire((hasRole(BRIDGE_ADMIN_ROLE, tx.origin) && _msgSender() == _wrapperContract) // minted by bridge\n\t\t|| (_msgSender() == _stokenContract) // minted by STokens contract\n\t\t\t|| (tx.origin == to && _msgSender() == _liquidStakingContract), \"UT1\"); // minted by LS contract withdrawUnbonded()\n\n\t\t_mint(to, tokens);\n\t\treturn true;\n\t}\n\n\t/*\n     * @dev Burn utokens for the provided 'address' and 'amount'\n     * @param from: account address, tokens: number of tokens\n     *\n     * Emits a {BurnTokens} event with 'from' set to address and 'tokens' set to amount of tokens.\n     *\n     * Requirements:\n     *\n     * - `amount` cannot be less than zero.\n     *\n     */\n\tfunction burn(address from, uint256 tokens) public virtual override returns (bool success) {\n\t\trequire((tx.origin == from && _msgSender()==_liquidStakingContract) ||  // staking operation\n\t\t\t(tx.origin == from && _msgSender() == _wrapperContract), \"UT2\"); // unwrap operation\n\t\t_burn(from, tokens);\n\t\treturn true;\n\t}\n\n\t/*\n    * @dev Set 'contract address', called for stokens smart contract\n    * @param stokenContract: stoken contract address\n    *\n    * Emits a {SetSTokensContract} event with '_contract' set to the stoken contract address.\n    *\n    */\n\t//These functions need to be called after deployment, only admin can call the same\n\tfunction setSTokenContract(address stokenContract) public virtual override {\n\t\trequire(hasRole(DEFAULT_ADMIN_ROLE, _msgSender()), \"UT3\");\n\t\t_stokenContract = stokenContract;\n\t\temit SetSTokensContract(stokenContract);\n\t}\n\n\t/*\n     * @dev Set 'contract address', for liquid staking smart contract\n     * @param liquidStakingContract: liquidStaking contract address\n     *\n     * Emits a {SetLiquidStakingContract} event with '_contract' set to the liquidStaking contract address.\n     *\n     */\n\tfunction setLiquidStakingContract(address liquidStakingContract) public virtual override {\n\t\trequire(hasRole(DEFAULT_ADMIN_ROLE, _msgSender()), \"UT4\");\n\t\t_liquidStakingContract = liquidStakingContract;\n\t\temit SetLiquidStakingContract(liquidStakingContract);\n\t}\n\n\t/*\n     * @dev Set 'contract address', called for token wrapper smart contract\n     * @param wrapperTokensContract: tokenWrapper contract address\n     *\n     * Emits a {SetWrapperContract} event with '_contract' set to the tokenWrapper contract address.\n     *\n     */\n\tfunction setWrapperContract(address wrapperTokensContract) public virtual override {\n\t\trequire(hasRole(DEFAULT_ADMIN_ROLE, _msgSender()), \"UT5\");\n\t\t_wrapperContract = wrapperTokensContract;\n\t\temit SetWrapperContract(wrapperTokensContract);\n\t}\n\n\t/**\n      * @dev Triggers stopped state.\n      *\n      * Requirements:\n      *\n      * - The contract must not be paused.\n      */\n\tfunction pause() public virtual returns (bool success) {\n\t\trequire(hasRole(PAUSER_ROLE, _msgSender()), \"UT6\");\n\t\t_pause();\n\t\treturn true;\n\t}\n\n\t/**\n     * @dev Returns to normal state.\n     *\n     * Requirements:\n     *\n     * - The contract must be paused.\n     */\n\tfunction unpause() public virtual returns (bool success) {\n\t\trequire(hasRole(PAUSER_ROLE, _msgSender()), \"UT7\");\n\t\t_unpause();\n\t\treturn true;\n\t}\n\n\t/**\n     * @dev Hook that is called before any transfer of tokens. This includes\n     * minting and burning.\n     *\n     * Calling conditions:\n     *\n     * - when `from` and `to` are both non-zero, `amount` of ``from``'s tokens\n     * will be to transferred to `to`.\n     * - when `from` is zero, `amount` tokens will be minted for `to`.\n     * - when `to` is zero, `amount` of ``from``'s tokens will be burned.\n     * - `from` and `to` are never both zero.\n     *\n     */\n\tfunction _beforeTokenTransfer(address from, address to, uint256 amount) internal virtual override {\n\t\trequire(!paused(), \"UT8\");\n\t\tsuper._beforeTokenTransfer(from, to, amount);\n\t}\n}",
  "sourcePath": "/Users/aditimaheshwari/Documents/Work/Persistence/Codebase/persistenceOne/pStake-smartContracts/contracts/UTokens.sol",
  "compiler": {
    "name": "solc",
    "version": "0.7.6+commit.7338295f.Emscripten.clang"
  },
  "schemaVersion": "3.4.3",
  "updatedAt": "2022-08-16T09:03:29.374Z",
  "devdoc": {
    "kind": "dev",
    "methods": {
      "allowance(address,address)": {
        "details": "See {IERC20-allowance}."
      },
      "approve(address,uint256)": {
        "details": "See {IERC20-approve}. Requirements: - `spender` cannot be the zero address."
      },
      "balanceOf(address)": {
        "details": "See {IERC20-balanceOf}."
      },
      "burn(address,uint256)": {
        "details": "Burns `amount` tokens to the caller's address `from`. Returns a boolean value indicating whether the operation succeeded. Emits a {Transfer} event."
      },
      "decimals()": {
        "details": "Returns the number of decimals used to get its user representation. For example, if `decimals` equals `2`, a balance of `505` tokens should be displayed to a user as `5,05` (`505 / 10 ** 2`). Tokens usually opt for a value of 18, imitating the relationship between Ether and Wei. This is the value {ERC20} uses, unless {_setupDecimals} is called. NOTE: This information is only used for _display_ purposes: it in no way affects any of the arithmetic of the contract, including {IERC20-balanceOf} and {IERC20-transfer}."
      },
      "decreaseAllowance(address,uint256)": {
        "details": "Atomically decreases the allowance granted to `spender` by the caller. This is an alternative to {approve} that can be used as a mitigation for problems described in {IERC20-approve}. Emits an {Approval} event indicating the updated allowance. Requirements: - `spender` cannot be the zero address. - `spender` must have allowance for the caller of at least `subtractedValue`."
      },
      "getRoleAdmin(bytes32)": {
        "details": "Returns the admin role that controls `role`. See {grantRole} and {revokeRole}. To change a role's admin, use {_setRoleAdmin}."
      },
      "getRoleMember(bytes32,uint256)": {
        "details": "Returns one of the accounts that have `role`. `index` must be a value between 0 and {getRoleMemberCount}, non-inclusive. Role bearers are not sorted in any particular way, and their ordering may change at any point. WARNING: When using {getRoleMember} and {getRoleMemberCount}, make sure you perform all queries on the same block. See the following https://forum.openzeppelin.com/t/iterating-over-elements-on-enumerableset-in-openzeppelin-contracts/2296[forum post] for more information."
      },
      "getRoleMemberCount(bytes32)": {
        "details": "Returns the number of accounts that have `role`. Can be used together with {getRoleMember} to enumerate all bearers of a role."
      },
      "grantRole(bytes32,address)": {
        "details": "Grants `role` to `account`. If `account` had not been already granted `role`, emits a {RoleGranted} event. Requirements: - the caller must have ``role``'s admin role."
      },
      "hasRole(bytes32,address)": {
        "details": "Returns `true` if `account` has been granted `role`."
      },
      "increaseAllowance(address,uint256)": {
        "details": "Atomically increases the allowance granted to `spender` by the caller. This is an alternative to {approve} that can be used as a mitigation for problems described in {IERC20-approve}. Emits an {Approval} event indicating the updated allowance. Requirements: - `spender` cannot be the zero address."
      },
      "initialize(address,address)": {
        "details": "Constructor for initializing the UToken contract.",
        "params": {
          "bridgeAdminAddress": "- address of the bridge admin.",
          "pauserAddress": "- address of the pauser admin."
        }
      },
      "mint(address,uint256)": {
        "details": "Mint new utokens for the provided 'address' and 'amount'",
        "params": {
          "to": ": account address, tokens: number of tokens Emits a {MintTokens} event with 'to' set to address and 'tokens' set to amount of tokens. Requirements: - `amount` cannot be less than zero."
        }
      },
      "name()": {
        "details": "Returns the name of the token."
      },
      "pause()": {
        "details": "Triggers stopped state. Requirements: - The contract must not be paused."
      },
      "paused()": {
        "details": "Returns true if the contract is paused, and false otherwise."
      },
      "renounceRole(bytes32,address)": {
        "details": "Revokes `role` from the calling account. Roles are often managed via {grantRole} and {revokeRole}: this function's purpose is to provide a mechanism for accounts to lose their privileges if they are compromised (such as when a trusted device is misplaced). If the calling account had been granted `role`, emits a {RoleRevoked} event. Requirements: - the caller must be `account`."
      },
      "revokeRole(bytes32,address)": {
        "details": "Revokes `role` from `account`. If `account` had been granted `role`, emits a {RoleRevoked} event. Requirements: - the caller must have ``role``'s admin role."
      },
      "setLiquidStakingContract(address)": {
        "details": "Set LiquidStaking smart contract."
      },
      "setSTokenContract(address)": {
        "details": "Set STokens smart contract."
      },
      "setWrapperContract(address)": {
        "details": "Set PegTokens smart contract."
      },
      "symbol()": {
        "details": "Returns the symbol of the token, usually a shorter version of the name."
      },
      "totalSupply()": {
        "details": "See {IERC20-totalSupply}."
      },
      "transfer(address,uint256)": {
        "details": "See {IERC20-transfer}. Requirements: - `recipient` cannot be the zero address. - the caller must have a balance of at least `amount`."
      },
      "transferFrom(address,address,uint256)": {
        "details": "See {IERC20-transferFrom}. Emits an {Approval} event indicating the updated allowance. This is not required by the EIP. See the note at the beginning of {ERC20}. Requirements: - `sender` and `recipient` cannot be the zero address. - `sender` must have a balance of at least `amount`. - the caller must have allowance for ``sender``'s tokens of at least `amount`."
      },
      "unpause()": {
        "details": "Returns to normal state. Requirements: - The contract must be paused."
      }
    },
    "version": 1
  },
  "userdoc": {
    "kind": "user",
    "methods": {},
    "version": 1
  }
}