{
  "contractName": "VestingTimelock",
  "abi": [
    {
      "anonymous": false,
      "inputs": [
        {
          "indexed": true,
          "internalType": "address",
          "name": "benificiary",
          "type": "address"
        },
        {
          "indexed": false,
          "internalType": "uint256",
          "name": "grantNumber",
          "type": "uint256"
        },
        {
          "indexed": false,
          "internalType": "uint256",
          "name": "timestamp",
          "type": "uint256"
        }
      ],
      "name": "GrantAdded",
      "type": "event"
    },
    {
      "anonymous": false,
      "inputs": [
        {
          "indexed": true,
          "internalType": "address",
          "name": "benificiary",
          "type": "address"
        },
        {
          "indexed": true,
          "internalType": "uint256",
          "name": "amount",
          "type": "uint256"
        },
        {
          "indexed": false,
          "internalType": "uint256",
          "name": "timestamp",
          "type": "uint256"
        }
      ],
      "name": "GrantClaimed",
      "type": "event"
    },
    {
      "anonymous": false,
      "inputs": [
        {
          "indexed": true,
          "internalType": "address",
          "name": "benificiary",
          "type": "address"
        },
        {
          "indexed": true,
          "internalType": "address",
          "name": "vestingProvider",
          "type": "address"
        },
        {
          "indexed": false,
          "internalType": "uint256",
          "name": "timestamp",
          "type": "uint256"
        }
      ],
      "name": "GrantRevoked",
      "type": "event"
    },
    {
      "anonymous": false,
      "inputs": [
        {
          "indexed": false,
          "internalType": "address",
          "name": "account",
          "type": "address"
        }
      ],
      "name": "Paused",
      "type": "event"
    },
    {
      "anonymous": false,
      "inputs": [
        {
          "indexed": true,
          "internalType": "bytes32",
          "name": "role",
          "type": "bytes32"
        },
        {
          "indexed": true,
          "internalType": "bytes32",
          "name": "previousAdminRole",
          "type": "bytes32"
        },
        {
          "indexed": true,
          "internalType": "bytes32",
          "name": "newAdminRole",
          "type": "bytes32"
        }
      ],
      "name": "RoleAdminChanged",
      "type": "event"
    },
    {
      "anonymous": false,
      "inputs": [
        {
          "indexed": true,
          "internalType": "bytes32",
          "name": "role",
          "type": "bytes32"
        },
        {
          "indexed": true,
          "internalType": "address",
          "name": "account",
          "type": "address"
        },
        {
          "indexed": true,
          "internalType": "address",
          "name": "sender",
          "type": "address"
        }
      ],
      "name": "RoleGranted",
      "type": "event"
    },
    {
      "anonymous": false,
      "inputs": [
        {
          "indexed": true,
          "internalType": "bytes32",
          "name": "role",
          "type": "bytes32"
        },
        {
          "indexed": true,
          "internalType": "address",
          "name": "account",
          "type": "address"
        },
        {
          "indexed": true,
          "internalType": "address",
          "name": "sender",
          "type": "address"
        }
      ],
      "name": "RoleRevoked",
      "type": "event"
    },
    {
      "anonymous": false,
      "inputs": [
        {
          "indexed": false,
          "internalType": "address",
          "name": "account",
          "type": "address"
        }
      ],
      "name": "Unpaused",
      "type": "event"
    },
    {
      "inputs": [],
      "name": "DEFAULT_ADMIN_ROLE",
      "outputs": [
        {
          "internalType": "bytes32",
          "name": "",
          "type": "bytes32"
        }
      ],
      "stateMutability": "view",
      "type": "function"
    },
    {
      "inputs": [],
      "name": "PAUSER_ROLE",
      "outputs": [
        {
          "internalType": "bytes32",
          "name": "",
          "type": "bytes32"
        }
      ],
      "stateMutability": "view",
      "type": "function"
    },
    {
      "inputs": [
        {
          "internalType": "bytes32",
          "name": "role",
          "type": "bytes32"
        }
      ],
      "name": "getRoleAdmin",
      "outputs": [
        {
          "internalType": "bytes32",
          "name": "",
          "type": "bytes32"
        }
      ],
      "stateMutability": "view",
      "type": "function"
    },
    {
      "inputs": [
        {
          "internalType": "bytes32",
          "name": "role",
          "type": "bytes32"
        },
        {
          "internalType": "uint256",
          "name": "index",
          "type": "uint256"
        }
      ],
      "name": "getRoleMember",
      "outputs": [
        {
          "internalType": "address",
          "name": "",
          "type": "address"
        }
      ],
      "stateMutability": "view",
      "type": "function"
    },
    {
      "inputs": [
        {
          "internalType": "bytes32",
          "name": "role",
          "type": "bytes32"
        }
      ],
      "name": "getRoleMemberCount",
      "outputs": [
        {
          "internalType": "uint256",
          "name": "",
          "type": "uint256"
        }
      ],
      "stateMutability": "view",
      "type": "function"
    },
    {
      "inputs": [
        {
          "internalType": "bytes32",
          "name": "role",
          "type": "bytes32"
        },
        {
          "internalType": "address",
          "name": "account",
          "type": "address"
        }
      ],
      "name": "grantRole",
      "outputs": [],
      "stateMutability": "nonpayable",
      "type": "function"
    },
    {
      "inputs": [
        {
          "internalType": "bytes32",
          "name": "role",
          "type": "bytes32"
        },
        {
          "internalType": "address",
          "name": "account",
          "type": "address"
        }
      ],
      "name": "hasRole",
      "outputs": [
        {
          "internalType": "bool",
          "name": "",
          "type": "bool"
        }
      ],
      "stateMutability": "view",
      "type": "function"
    },
    {
      "inputs": [],
      "name": "paused",
      "outputs": [
        {
          "internalType": "bool",
          "name": "",
          "type": "bool"
        }
      ],
      "stateMutability": "view",
      "type": "function"
    },
    {
      "inputs": [
        {
          "internalType": "bytes32",
          "name": "role",
          "type": "bytes32"
        },
        {
          "internalType": "address",
          "name": "account",
          "type": "address"
        }
      ],
      "name": "renounceRole",
      "outputs": [],
      "stateMutability": "nonpayable",
      "type": "function"
    },
    {
      "inputs": [
        {
          "internalType": "bytes32",
          "name": "role",
          "type": "bytes32"
        },
        {
          "internalType": "address",
          "name": "account",
          "type": "address"
        }
      ],
      "name": "revokeRole",
      "outputs": [],
      "stateMutability": "nonpayable",
      "type": "function"
    },
    {
      "inputs": [],
      "name": "totalVestedHistory",
      "outputs": [
        {
          "internalType": "uint256",
          "name": "",
          "type": "uint256"
        }
      ],
      "stateMutability": "view",
      "type": "function"
    },
    {
      "inputs": [],
      "name": "totalVestingAmount",
      "outputs": [
        {
          "internalType": "uint256",
          "name": "",
          "type": "uint256"
        }
      ],
      "stateMutability": "view",
      "type": "function"
    },
    {
      "inputs": [
        {
          "internalType": "address",
          "name": "",
          "type": "address"
        }
      ],
      "name": "vestingGrants",
      "outputs": [
        {
          "internalType": "uint256",
          "name": "startTime",
          "type": "uint256"
        },
        {
          "internalType": "uint256",
          "name": "amount",
          "type": "uint256"
        },
        {
          "internalType": "uint256",
          "name": "vestingCliff",
          "type": "uint256"
        },
        {
          "internalType": "address",
          "name": "benificiary",
          "type": "address"
        },
        {
          "internalType": "bool",
          "name": "isActive",
          "type": "bool"
        }
      ],
      "stateMutability": "view",
      "type": "function"
    },
    {
      "inputs": [
        {
          "internalType": "contract IERC20Upgradeable",
          "name": "token_",
          "type": "address"
        },
        {
          "internalType": "address",
          "name": "pauserAddress_",
          "type": "address"
        }
      ],
      "name": "initialize",
      "outputs": [],
      "stateMutability": "nonpayable",
      "type": "function"
    },
    {
      "inputs": [],
      "name": "token",
      "outputs": [
        {
          "internalType": "contract IERC20Upgradeable",
          "name": "",
          "type": "address"
        }
      ],
      "stateMutability": "view",
      "type": "function"
    },
    {
      "inputs": [
        {
          "internalType": "address",
          "name": "beneficiary_",
          "type": "address"
        }
      ],
      "name": "getGrant",
      "outputs": [
        {
          "internalType": "uint256",
          "name": "startTime",
          "type": "uint256"
        },
        {
          "internalType": "uint256",
          "name": "amount",
          "type": "uint256"
        },
        {
          "internalType": "uint256",
          "name": "vestingCliff",
          "type": "uint256"
        },
        {
          "internalType": "address",
          "name": "benificiary",
          "type": "address"
        },
        {
          "internalType": "bool",
          "name": "isActive",
          "type": "bool"
        }
      ],
      "stateMutability": "view",
      "type": "function"
    },
    {
      "inputs": [
        {
          "internalType": "address",
          "name": "beneficiary_",
          "type": "address"
        }
      ],
      "name": "claimGrant",
      "outputs": [],
      "stateMutability": "nonpayable",
      "type": "function"
    },
    {
      "inputs": [
        {
          "internalType": "uint256",
          "name": "startTime_",
          "type": "uint256"
        },
        {
          "internalType": "uint256",
          "name": "amount_",
          "type": "uint256"
        },
        {
          "internalType": "uint256",
          "name": "vestingCliff_",
          "type": "uint256"
        },
        {
          "internalType": "address",
          "name": "benificiary_",
          "type": "address"
        }
      ],
      "name": "addGrant",
      "outputs": [],
      "stateMutability": "nonpayable",
      "type": "function"
    },
    {
      "inputs": [
        {
          "internalType": "uint256[]",
          "name": "startTimes_",
          "type": "uint256[]"
        },
        {
          "internalType": "uint256[]",
          "name": "amounts_",
          "type": "uint256[]"
        },
        {
          "internalType": "uint256[]",
          "name": "vestingCliffs_",
          "type": "uint256[]"
        },
        {
          "internalType": "address[]",
          "name": "benificiaries_",
          "type": "address[]"
        }
      ],
      "name": "addGrants",
      "outputs": [],
      "stateMutability": "nonpayable",
      "type": "function"
    },
    {
      "inputs": [
        {
          "internalType": "address",
          "name": "beneficiary_",
          "type": "address"
        },
        {
          "internalType": "address",
          "name": "vestingProvider_",
          "type": "address"
        }
      ],
      "name": "revokeGrant",
      "outputs": [],
      "stateMutability": "nonpayable",
      "type": "function"
    },
    {
      "inputs": [
        {
          "internalType": "address[]",
          "name": "benificiaries_",
          "type": "address[]"
        },
        {
          "internalType": "address",
          "name": "vestingProvider_",
          "type": "address"
        }
      ],
      "name": "revokeGrants",
      "outputs": [],
      "stateMutability": "nonpayable",
      "type": "function"
    },
    {
      "inputs": [],
      "name": "pause",
      "outputs": [
        {
          "internalType": "bool",
          "name": "success",
          "type": "bool"
        }
      ],
      "stateMutability": "nonpayable",
      "type": "function"
    },
    {
      "inputs": [],
      "name": "unpause",
      "outputs": [
        {
          "internalType": "bool",
          "name": "success",
          "type": "bool"
        }
      ],
      "stateMutability": "nonpayable",
      "type": "function"
    }
  ],
  "bytecode": "0x608060405234801561001057600080fd5b5061214a806100206000396000f3fe608060405234801561001057600080fd5b506004361061014d5760003560e01c80638456cb59116100c3578063bf31dbf41161007c578063bf31dbf41461054f578063ca15c87314610575578063cff106b314610592578063d547741f146105b8578063e63ab1e9146105e4578063fc0c546a146105ec5761014d565b80638456cb591461031a5780639010d07c1461032257806391d1485414610361578063927131931461038d578063a217fddf146104eb578063b60c8be9146104f35761014d565b80633233da5e116101155780633233da5e1461021d57806336568abe146102255780633f4ba83a14610251578063485cc9551461026d5780635c975abb1461029b5780635e08d47c146102a35761014d565b80630a68e60b14610152578063123c789a14610182578063248a9ca3146101ba5780632db94d19146101e95780632f2ff15d146101f1575b600080fd5b6101806004803603604081101561016857600080fd5b506001600160a01b03813581169160200135166105f4565b005b6101806004803603608081101561019857600080fd5b50803590602081013590604081013590606001356001600160a01b031661069a565b6101d7600480360360208110156101d057600080fd5b503561073a565b60408051918252519081900360200190f35b6101d761074f565b6101806004803603604081101561020757600080fd5b50803590602001356001600160a01b0316610755565b6101d76107bc565b6101806004803603604081101561023b57600080fd5b50803590602001356001600160a01b03166107c2565b610259610823565b604080519115158252519081900360200190f35b6101806004803603604081101561028357600080fd5b506001600160a01b0381358116916020013516610888565b610259610991565b610180600480360360408110156102b957600080fd5b810190602081018135600160201b8111156102d357600080fd5b8201836020820111156102e557600080fd5b803590602001918460208302840111600160201b8311171561030657600080fd5b9193509150356001600160a01b031661099a565b610259610acc565b6103456004803603604081101561033857600080fd5b5080359060200135610b2b565b604080516001600160a01b039092168252519081900360200190f35b6102596004803603604081101561037757600080fd5b50803590602001356001600160a01b0316610b4c565b610180600480360360808110156103a357600080fd5b810190602081018135600160201b8111156103bd57600080fd5b8201836020820111156103cf57600080fd5b803590602001918460208302840111600160201b831117156103f057600080fd5b919390929091602081019035600160201b81111561040d57600080fd5b82018360208201111561041f57600080fd5b803590602001918460208302840111600160201b8311171561044057600080fd5b919390929091602081019035600160201b81111561045d57600080fd5b82018360208201111561046f57600080fd5b803590602001918460208302840111600160201b8311171561049057600080fd5b919390929091602081019035600160201b8111156104ad57600080fd5b8201836020820111156104bf57600080fd5b803590602001918460208302840111600160201b831117156104e057600080fd5b509092509050610b64565b6101d7610cf6565b6105196004803603602081101561050957600080fd5b50356001600160a01b0316610cfb565b604080519586526020860194909452848401929092526001600160a01b0316606084015215156080830152519081900360a00190f35b6105196004803603602081101561056557600080fd5b50356001600160a01b0316610d37565b6101d76004803603602081101561058b57600080fd5b5035610da3565b610180600480360360208110156105a857600080fd5b50356001600160a01b0316610dba565b610180600480360360408110156105ce57600080fd5b50803590602001356001600160a01b031661108e565b6101d76110e7565b6103456110f9565b6106066000610601611108565b610b4c565b6106415760405162461bcd60e51b81526004018080602001828103825260228152602001806120a06022913960400191505060405180910390fd5b61064b828261110c565b806001600160a01b0316826001600160a01b03167f704fab0fdb153fecbc6b52052ba9d97848f44c0428666cdf236d10c9928afff4426040518082815260200191505060405180910390a35050565b6106a76000610601611108565b6106e25760405162461bcd60e51b81526004018080602001828103825260228152602001806120a06022913960400191505060405180910390fd5b6106ee8484848461125a565b60cb546040805191825242602083015280516001600160a01b038416927ff26fa29cb3bb91bd32bd55b978b0a4b05cdb4470117e4ec58b2651be2462e62a92908290030190a250505050565b60009081526097602052604090206002015490565b60cc5481565b60008281526097602052604090206002015461077390610601611108565b6107ae5760405162461bcd60e51b815260040180806020018281038252602f815260200180611eca602f913960400191505060405180910390fd5b6107b88282611439565b5050565b60cb5481565b6107ca611108565b6001600160a01b0316816001600160a01b0316146108195760405162461bcd60e51b815260040180806020018281038252602f8152602001806120c2602f913960400191505060405180910390fd5b6107b882826114a2565b600061083f600080516020611fc4833981519152610601611108565b61087a5760405162461bcd60e51b81526004018080602001828103825260228152602001806120a06022913960400191505060405180910390fd5b61088261150b565b50600190565b600054610100900460ff16806108a157506108a16115ab565b806108af575060005460ff16155b6108ea5760405162461bcd60e51b815260040180806020018281038252602e815260200180611f73602e913960400191505060405180910390fd5b600054610100900460ff16158015610915576000805460ff1961ff0019909116610100171660011790555b61091d6115bc565b61092561165e565b61092d6115bc565b6109356116f3565b6109476000610942611108565b6107ae565b61095f600080516020611fc4833981519152836107ae565b60c980546001600160a01b0319166001600160a01b038516179055801561098c576000805461ff00191690555b505050565b60655460ff1690565b6109a76000610601611108565b6109e25760405162461bcd60e51b81526004018080602001828103825260228152602001806120a06022913960400191505060405180910390fd5b81610a1e5760405162461bcd60e51b8152600401808060200182810382526023815260200180611ea76023913960400191505060405180910390fd5b60005b82811015610a5657610a4e848483818110610a3857fe5b905060200201356001600160a01b03168361110c565b600101610a21565b6001600160a01b0382168484610a6d84600161179e565b818110610a7657fe5b905060200201356001600160a01b03166001600160a01b03167f704fab0fdb153fecbc6b52052ba9d97848f44c0428666cdf236d10c9928afff4426040518082815260200191505060405180910390a350505050565b6000610ae8600080516020611fc4833981519152610601611108565b610b235760405162461bcd60e51b81526004018080602001828103825260228152602001806120a06022913960400191505060405180910390fd5b6108826117fb565b6000828152609760205260408120610b43908361187e565b90505b92915050565b6000828152609760205260408120610b43908361188a565b610b716000610601611108565b610bac5760405162461bcd60e51b81526004018080602001828103825260228152602001806120a06022913960400191505060405180910390fd5b8015801590610bba57508085145b8015610bc557508685145b8015610bd057508683145b610c0b5760405162461bcd60e51b8152600401808060200182810382526023815260200180611ea76023913960400191505060405180910390fd5b60005b81811015610c7b57610c73898983818110610c2557fe5b90506020020135888884818110610c3857fe5b90506020020135878785818110610c4b57fe5b90506020020135868686818110610c5e57fe5b905060200201356001600160a01b031661125a565b600101610c0e565b8282610c8883600161179e565b818110610c9157fe5b905060200201356001600160a01b03166001600160a01b03167ff26fa29cb3bb91bd32bd55b978b0a4b05cdb4470117e4ec58b2651be2462e62a60cb5442604051808381526020018281526020019250505060405180910390a2505050505050505050565b600081565b60ca602052600090815260409020805460018201546002830154600390930154919290916001600160a01b03811690600160a01b900460ff1685565b6001600160a01b03908116600090815260ca6020908152604091829020825160a08101845281548082526001830154938201849052600283015494820185905260039092015494851660608201819052600160a01b90950460ff16151560809091018190529094919391565b6000818152609760205260408120610b469061189f565b60026001541415610e12576040805162461bcd60e51b815260206004820152601f60248201527f5265656e7472616e637947756172643a207265656e7472616e742063616c6c00604482015290519081900360640190fd5b6002600155610e1f610991565b15610e64576040805162461bcd60e51b815260206004820152601060248201526f14185d5cd8589b194e881c185d5cd95960821b604482015290519081900360640190fd5b610e6c611108565b6001600160a01b0316816001600160a01b031614610ebb5760405162461bcd60e51b81526004018080602001828103825260228152602001806120a06022913960400191505060405180910390fd5b6001600160a01b03818116600090815260ca6020908152604091829020825160a081018452815481526001820154928101929092526002810154928201929092526003909101549182166060820152600160a01b90910460ff16151560808201819052610f595760405162461bcd60e51b81526004018080602001828103825260248152602001806120056024913960400191505060405180910390fd5b602081015180610f9a5760405162461bcd60e51b8152600401808060200182810382526023815260200180611fa16023913960400191505060405180910390fd5b8160400151421015610fdd5760405162461bcd60e51b8152600401808060200182810382526024815260200180611ef96024913960400191505060405180910390fd5b6001600160a01b038316600090815260ca6020526040812081815560018101829055600281019190915560030180546001600160a81b031916905560cc54611025908261179e565b60cc5560408051428152905182916001600160a01b038616917f9e51079e6127c518bb0ff506bad3c402e184f363f50a0cac61d05e186738f13a9181900360200190a361108583826110756110f9565b6001600160a01b031691906118aa565b50506001805550565b6000828152609760205260409020600201546110ac90610601611108565b6108195760405162461bcd60e51b8152600401808060200182810382526030815260200180611f436030913960400191505060405180910390fd5b600080516020611fc483398151915281565b60c9546001600160a01b031690565b3390565b6001600160a01b03828116600090815260ca6020908152604091829020825160a081018452815481526001820154928101929092526002810154928201929092526003909101549182166060820152600160a01b90910460ff161515608082018190526111aa5760405162461bcd60e51b81526004018080602001828103825260248152602001806120056024913960400191505060405180910390fd5b6020810151806111eb5760405162461bcd60e51b81526004018080602001828103825260248152602001806120f16024913960400191505060405180910390fd5b6001600160a01b038416600090815260ca6020526040812081815560018101829055600281019190915560030180546001600160a81b031916905560cc54611233908261179e565b60cc5560cb5461124490600161179e565b60cb5561125483826110756110f9565b50505050565b600083116112995760405162461bcd60e51b8152600401808060200182810382526021815260200180611fe46021913960400191505060405180910390fd5b818411156112d85760405162461bcd60e51b81526004018080602001828103825260288152602001806120786028913960400191505060405180910390fd5b6001600160a01b03818116600090815260ca6020908152604091829020825160a081018452815481526001820154928101929092526002810154928201929092526003909101549182166060820152600160a01b90910460ff1615801560808301526113755760405162461bcd60e51b81526004018080602001828103825260258152602001806120296025913960400191505060405180910390fd5b6040805160a081018252868152602081018690529081018490526001600160a01b038316606082015260016080820181905260cb546113b3916118fc565b60cb5560cc546113c390866118fc565b60cc556001600160a01b03928316600090815260ca6020908152604091829020835181559083015160018201559082015160028201556060820151600390910180546080909301516001600160a01b0319909316919094161760ff60a01b1916600160a01b911515919091021790915550505050565b60008281526097602052604090206114519082611956565b156107b85761145e611108565b6001600160a01b0316816001600160a01b0316837f2f8788117e7eff1d82e926ec794901d17c78024a50270940304540a733656f0d60405160405180910390a45050565b60008281526097602052604090206114ba908261196b565b156107b8576114c7611108565b6001600160a01b0316816001600160a01b0316837ff6391f5c32d9c69d2a47ea670b442974b53935d1edc7fd64eb21e047a839171b60405160405180910390a45050565b611513610991565b61155b576040805162461bcd60e51b815260206004820152601460248201527314185d5cd8589b194e881b9bdd081c185d5cd95960621b604482015290519081900360640190fd5b6065805460ff191690557f5db9ee0a495bf2e6ff9c91a7834c1ba4fdd244a5e8aa4e537bd38aeae4b073aa61158e611108565b604080516001600160a01b039092168252519081900360200190a1565b60006115b630611980565b15905090565b600054610100900460ff16806115d557506115d56115ab565b806115e3575060005460ff16155b61161e5760405162461bcd60e51b815260040180806020018281038252602e815260200180611f73602e913960400191505060405180910390fd5b600054610100900460ff16158015611649576000805460ff1961ff0019909116610100171660011790555b801561165b576000805461ff00191690555b50565b600054610100900460ff168061167757506116776115ab565b80611685575060005460ff16155b6116c05760405162461bcd60e51b815260040180806020018281038252602e815260200180611f73602e913960400191505060405180910390fd5b600054610100900460ff161580156116eb576000805460ff1961ff0019909116610100171660011790555b611649611986565b600054610100900460ff168061170c575061170c6115ab565b8061171a575060005460ff16155b6117555760405162461bcd60e51b815260040180806020018281038252602e815260200180611f73602e913960400191505060405180910390fd5b600054610100900460ff16158015611780576000805460ff1961ff0019909116610100171660011790555b6065805460ff19169055801561165b576000805461ff001916905550565b6000828211156117f5576040805162461bcd60e51b815260206004820152601e60248201527f536166654d6174683a207375627472616374696f6e206f766572666c6f770000604482015290519081900360640190fd5b50900390565b611803610991565b15611848576040805162461bcd60e51b815260206004820152601060248201526f14185d5cd8589b194e881c185d5cd95960821b604482015290519081900360640190fd5b6065805460ff191660011790557f62e78cea01bee320cd4e420270b5ea74000d11b0c9f74754ebdbfc544b05a25861158e611108565b6000610b438383611a2b565b6000610b43836001600160a01b038416611a8f565b6000610b4682611aa7565b604080516001600160a01b038416602482015260448082018490528251808303909101815260649091019091526020810180516001600160e01b031663a9059cbb60e01b17905261098c908490611aab565b600082820183811015610b43576040805162461bcd60e51b815260206004820152601b60248201527f536166654d6174683a206164646974696f6e206f766572666c6f770000000000604482015290519081900360640190fd5b6000610b43836001600160a01b038416611b5c565b6000610b43836001600160a01b038416611ba6565b3b151590565b600054610100900460ff168061199f575061199f6115ab565b806119ad575060005460ff16155b6119e85760405162461bcd60e51b815260040180806020018281038252602e815260200180611f73602e913960400191505060405180910390fd5b600054610100900460ff16158015611a13576000805460ff1961ff0019909116610100171660011790555b60018055801561165b576000805461ff001916905550565b81546000908210611a6d5760405162461bcd60e51b8152600401808060200182810382526022815260200180611e856022913960400191505060405180910390fd5b826000018281548110611a7c57fe5b9060005260206000200154905092915050565b60009081526001919091016020526040902054151590565b5490565b6000611b00826040518060400160405280602081526020017f5361666545524332303a206c6f772d6c6576656c2063616c6c206661696c6564815250856001600160a01b0316611c6c9092919063ffffffff16565b80519091501561098c57808060200190516020811015611b1f57600080fd5b505161098c5760405162461bcd60e51b815260040180806020018281038252602a81526020018061204e602a913960400191505060405180910390fd5b6000611b688383611a8f565b611b9e57508154600181810184556000848152602080822090930184905584548482528286019093526040902091909155610b46565b506000610b46565b60008181526001830160205260408120548015611c625783546000198083019190810190600090879083908110611bd957fe5b9060005260206000200154905080876000018481548110611bf657fe5b600091825260208083209091019290925582815260018981019092526040902090840190558654879080611c2657fe5b60019003818190600052602060002001600090559055866001016000878152602001908152602001600020600090556001945050505050610b46565b6000915050610b46565b6060611c7b8484600085611c85565b90505b9392505050565b606082471015611cc65760405162461bcd60e51b8152600401808060200182810382526026815260200180611f1d6026913960400191505060405180910390fd5b611ccf85611980565b611d20576040805162461bcd60e51b815260206004820152601d60248201527f416464726573733a2063616c6c20746f206e6f6e2d636f6e7472616374000000604482015290519081900360640190fd5b600080866001600160a01b031685876040518082805190602001908083835b60208310611d5e5780518252601f199092019160209182019101611d3f565b6001836020036101000a03801982511681845116808217855250505050505090500191505060006040518083038185875af1925050503d8060008114611dc0576040519150601f19603f3d011682016040523d82523d6000602084013e611dc5565b606091505b5091509150611dd5828286611de0565b979650505050505050565b60608315611def575081611c7e565b825115611dff5782518084602001fd5b8160405162461bcd60e51b81526004018080602001828103825283818151815260200191508051906020019080838360005b83811015611e49578181015183820152602001611e31565b50505050905090810190601f168015611e765780820380516001836020036101000a031916815260200191505b509250505060405180910390fdfe456e756d657261626c655365743a20696e646578206f7574206f6620626f756e647356657374696e6754696d656c6f636b3a20696e76616c69642061727261792073697a65416363657373436f6e74726f6c3a2073656e646572206d75737420626520616e2061646d696e20746f206772616e7456657374696e6754696d656c6f636b3a204772616e74207374696c6c2076657374696e67416464726573733a20696e73756666696369656e742062616c616e636520666f722063616c6c416363657373436f6e74726f6c3a2073656e646572206d75737420626520616e2061646d696e20746f207265766f6b65496e697469616c697a61626c653a20636f6e747261637420697320616c726561647920696e697469616c697a656456657374696e6754696d656c6f636b3a204e6f20746f6b656e7320746f20636c61696d65d7a28e3265b37a6474929f336521b332c1681b933f6cb9f3376673440d862a56657374696e6754696d656c6f636b3a204e6f20746f6b656e7320746f2061646456657374696e6754696d656c6f636b3a204772616e74206973206e6f742061637469766556657374696e6754696d656c6f636b3a206772616e7420616c7265616479206163746976655361666545524332303a204552433230206f7065726174696f6e20646964206e6f74207375636365656456657374696e6754696d656c6f636b3a20636c696666206265666f72652073746172742074696d6556657374696e6754696d656c6f636b3a20556e617574686f72697a65642055736572416363657373436f6e74726f6c3a2063616e206f6e6c792072656e6f756e636520726f6c657320666f722073656c6656657374696e6754696d656c6f636b3a204e6f20746f6b656e7320746f207265766f6b65a264697066735822122060db421a5ddbcf2d9b5a86084829671c478a265804209ebd3325b20cc0c63b7964736f6c63430007060033",
  "immutableReferences": {},
  "source": "// SPDX-License-Identifier: Unlicensed\n\npragma solidity >=0.7.0;\n\nimport \"@openzeppelin/contracts-upgradeable/proxy/Initializable.sol\";\nimport \"@openzeppelin/contracts-upgradeable/math/SafeMathUpgradeable.sol\";\nimport \"@openzeppelin/contracts-upgradeable/proxy/Initializable.sol\";\nimport \"@openzeppelin/contracts-upgradeable/access/AccessControlUpgradeable.sol\";\nimport \"@openzeppelin/contracts-upgradeable/utils/PausableUpgradeable.sol\";\nimport \"@openzeppelin/contracts-upgradeable/utils/ReentrancyGuardUpgradeable.sol\";\nimport \"@openzeppelin/contracts-upgradeable/token/ERC20/SafeERC20Upgradeable.sol\";\nimport \"@openzeppelin/contracts-upgradeable/token/ERC20/IERC20Upgradeable.sol\";\n\n/**\n * @dev A token holder contract that will allow a beneficiary to extract the\n * tokens after a given release time.\n *\n * Useful for simple vesting schedules like \"advisors get all of their tokens\n * after 1 year\"\n */\ncontract VestingTimelock is Initializable, ReentrancyGuardUpgradeable, PausableUpgradeable, AccessControlUpgradeable{\n    \n    // including libraries\n    using SafeERC20Upgradeable for IERC20Upgradeable;\n    using SafeMathUpgradeable for uint256;\n\n    // ERC20 basic token contract being held\n    IERC20Upgradeable _token;\n    \n    // Struct to hold vesting grant\n    struct Grant {\n        uint256 startTime;\n        uint256 amount;\n        uint256 vestingCliff;\n        address benificiary;\n        bool isActive;\n    }\n\n    // contract state variables\n    mapping (address => Grant) public vestingGrants;\n    uint256 public totalVestedHistory;\n    uint256 public totalVestingAmount;\n    bytes32 public constant PAUSER_ROLE = keccak256(\"PAUSER_ROLE\");\n\n    // contract events\n    event GrantAdded(address indexed benificiary, uint256 grantNumber, uint256 timestamp);\n    event GrantClaimed(address indexed benificiary, uint256 indexed amount, uint256 timestamp);\n    event GrantRevoked(address indexed benificiary, address indexed vestingProvider, uint256 timestamp);\n\n    function initialize(IERC20Upgradeable token_, address pauserAddress_) public virtual initializer {\n        __Context_init_unchained();\n        __ReentrancyGuard_init();\n        __AccessControl_init_unchained();\n        __Pausable_init_unchained();\n        _setupRole(DEFAULT_ADMIN_ROLE, _msgSender());\n        _setupRole(PAUSER_ROLE, pauserAddress_);\n        _token = token_;\n    }\n\n    /**\n     * @return the token being held.\n     */\n    function token() public view returns (IERC20Upgradeable) {\n        return _token;\n    }\n\n    /**\n     * @dev get the details of the vesting grant for a user\n     */\n     function getGrant(address beneficiary_) public view returns (\n        uint256 startTime,\n        uint256 amount,\n        uint256 vestingCliff,    \n        address benificiary, \n        bool isActive)\n    {\n        Grant memory _grant = vestingGrants[beneficiary_];\n        startTime = _grant.startTime;\n        amount = _grant.amount;\n        vestingCliff = _grant.vestingCliff;\n        benificiary = _grant.benificiary;\n        isActive = _grant.isActive;\n    }\n\n    /**\n     * @notice Transfers tokens held by timelock to beneficiary.\n     */\n    function claimGrant(address beneficiary_) external nonReentrant whenNotPaused {\n        require(beneficiary_ == _msgSender(), \"VestingTimelock: Unauthorized User\");\n\n        Grant memory _grant = vestingGrants[beneficiary_];\n\n         // check whether the grant is active\n        require(_grant.isActive, \"VestingTimelock: Grant is not active\");\n\n        // check whether the amount is not zero\n        uint256 _amount = _grant.amount;\n        require(_amount > 0, \"VestingTimelock: No tokens to claim\");\n\n        // check whether the vesting cliff time has elapsed\n        // solhint-disable-next-line not-rely-on-time\n        require(block.timestamp >= _grant.vestingCliff, \"VestingTimelock: Grant still vesting\");\n\n        // reset all the grant detail variables to zero\n        delete vestingGrants[beneficiary_];\n        // update totalVestingAmount and transfer ERC20 tokens\n        totalVestingAmount = totalVestingAmount.sub(_amount);\n        emit GrantClaimed(beneficiary_, _amount, block.timestamp);\n\n        token().safeTransfer(beneficiary_, _amount);\n    }\n\n    /**\n     * @notice Transfers tokens held by beneficiary to timelock.\n     */\n    function _addGrant(\n        uint256 startTime_,\n        uint256 amount_,\n        uint256 vestingCliff_,    \n        address benificiary_\n    ) \n        internal\n    {\n        require(amount_ > 0, \"VestingTimelock: No tokens to add\");\n        require(startTime_ <= vestingCliff_, \"VestingTimelock: cliff before start time\");\n\n        // allow adding grants whose vesting schedule is already realized, so commented below line\n        // require(vestingCliff_ >= block.timestamp, \"VestingTimelock: vesting cliff is in the past\");\n\n        Grant memory _grant = vestingGrants[benificiary_];\n        require(!_grant.isActive, \"VestingTimelock: grant already active\");\n\n        Grant memory grant = Grant({\n            startTime: startTime_,\n            amount: amount_,\n            vestingCliff: vestingCliff_,\n            benificiary: benificiary_,\n            isActive: true\n        });\n\n        totalVestedHistory = totalVestedHistory.add(1);\n        totalVestingAmount = totalVestingAmount.add(amount_);\n        vestingGrants[benificiary_] = grant;\n    }\n\n    /**\n     * @notice Transfers tokens held by beneficiary to timelock.\n     */\n    function addGrant(\n        uint256 startTime_,\n        uint256 amount_,\n        uint256 vestingCliff_,    \n        address benificiary_\n    ) \n        external\n    {\n        require(hasRole(DEFAULT_ADMIN_ROLE, _msgSender()), \"VestingTimelock: Unauthorized User\");\n        _addGrant(\n            startTime_,\n            amount_,\n            vestingCliff_,    \n            benificiary_\n        );\n        emit GrantAdded(benificiary_, totalVestedHistory, block.timestamp);\n\n    }\n\n    /**\n     * @notice Transfers tokens held by beneficiary to timelock.\n     */\n    function addGrants(\n        uint256[] calldata startTimes_,\n        uint256[] calldata amounts_,\n        uint256[] calldata vestingCliffs_,    \n        address[] calldata benificiaries_\n    ) \n        external\n    {\n        require(hasRole(DEFAULT_ADMIN_ROLE, _msgSender()), \"VestingTimelock: Unauthorized User\");\n        require(benificiaries_.length > 0 && benificiaries_.length == amounts_.length && startTimes_.length == amounts_.length && startTimes_.length == vestingCliffs_.length, \"VestingTimelock: invalid array size\");\n\n        // allocate the grants to the respective benificiaries\n        uint256 i;\n        for (i=0; i<benificiaries_.length; i++) {\n            _addGrant(\n                startTimes_[i],\n                amounts_[i],\n                vestingCliffs_[i],    \n                benificiaries_[i]\n            );\n        }\n\n        // emit the data of last grant that was added\n        emit GrantAdded(benificiaries_[i.sub(1)], totalVestedHistory, block.timestamp);\n    }\n\n     /**\n     * @notice revokeGrant tokens held by timelock to beneficiary.\n     */\n     function _revokeGrant(address beneficiary_, address vestingProvider_) internal\n    {\n        Grant memory _grant = vestingGrants[beneficiary_];\n\n        // check whether the grant is active\n        require(_grant.isActive, \"VestingTimelock: Grant is not active\");\n\n        // check whether the amount is a non zero value\n        uint256 _amount = _grant.amount;\n        require(_amount > 0, \"VestingTimelock: No tokens to revoke\");\n\n        // reset all the grant detail variables to zero\n        delete vestingGrants[beneficiary_];\n        totalVestingAmount = totalVestingAmount.sub(_amount);\n        totalVestedHistory = totalVestedHistory.sub(1);\n\n        // transfer the erc20 token amount back to the vesting provider \n        // needs to be done as there is no other means to transfer ERC20 tokens without keys. \n        // except by defining custom grant for a self controlled wallet address then claiming the grant. \n        token().safeTransfer(vestingProvider_, _amount);\n    }\n\n    /**\n     * @notice revokeGrant tokens held by timelock to beneficiary.\n     */\n    function revokeGrant(address beneficiary_, address vestingProvider_) external {\n        // revoke currently doesnt return the ERC20 tokens sent to this contract\n        require(hasRole(DEFAULT_ADMIN_ROLE, _msgSender()), \"VestingTimelock: Unauthorized User\");\n\n        _revokeGrant(beneficiary_, vestingProvider_);\n        emit GrantRevoked(beneficiary_, vestingProvider_, block.timestamp);\n    }\n\n    /**\n     * @notice revoke vesting grants of multiple benificiaries.\n     */\n    function revokeGrants(\n        address[] calldata benificiaries_,\n        address vestingProvider_\n    ) \n        external\n    {\n        require(hasRole(DEFAULT_ADMIN_ROLE, _msgSender()), \"VestingTimelock: Unauthorized User\");\n        require(benificiaries_.length > 0 , \"VestingTimelock: invalid array size\");\n\n        // allocate the grants to the respective addresses\n        uint256 i;\n        for (i=0; i<benificiaries_.length; i++) {\n            _revokeGrant(\n                benificiaries_[i],\n                vestingProvider_\n            );\n        }\n\n        // emit the data of last grant that was revoked\n        emit GrantRevoked(benificiaries_[i.sub(1)], vestingProvider_, block.timestamp);\n    }\n\n     /**\n      * @dev Triggers stopped state.\n      *\n      * Requirements:\n      *\n      * - The contract must not be paused.\n      */\n    function pause() public returns (bool success) {\n        require(hasRole(PAUSER_ROLE, _msgSender()), \"VestingTimelock: Unauthorized User\");\n        _pause();\n        return true;\n    }\n\n    /**\n     * @dev Returns to normal state.\n     *\n     * Requirements:\n     *\n     * - The contract must be paused.\n     */\n    function unpause() public returns (bool success) {\n        require(hasRole(PAUSER_ROLE, _msgSender()), \"VestingTimelock: Unauthorized User\");\n        _unpause();\n        return true;\n    }\n\n\n    uint256[47] private __gap;\n}\n",
  "sourcePath": "/home/aditimahesh/Documents/Work/Persistence/go/src/github.com/persistenceOne/pStakeSmartContracts/contracts/VestingTimelock.sol",
  "compiler": {
    "name": "solc",
    "version": "0.7.6+commit.7338295f.Emscripten.clang"
  },
  "schemaVersion": "3.3.4",
  "updatedAt": "2021-04-06T12:19:56.433Z",
  "devdoc": {
    "details": "A token holder contract that will allow a beneficiary to extract the tokens after a given release time. Useful for simple vesting schedules like \"advisors get all of their tokens after 1 year\"",
    "kind": "dev",
    "methods": {
      "getGrant(address)": {
        "details": "get the details of the vesting grant for a user"
      },
      "getRoleAdmin(bytes32)": {
        "details": "Returns the admin role that controls `role`. See {grantRole} and {revokeRole}. To change a role's admin, use {_setRoleAdmin}."
      },
      "getRoleMember(bytes32,uint256)": {
        "details": "Returns one of the accounts that have `role`. `index` must be a value between 0 and {getRoleMemberCount}, non-inclusive. Role bearers are not sorted in any particular way, and their ordering may change at any point. WARNING: When using {getRoleMember} and {getRoleMemberCount}, make sure you perform all queries on the same block. See the following https://forum.openzeppelin.com/t/iterating-over-elements-on-enumerableset-in-openzeppelin-contracts/2296[forum post] for more information."
      },
      "getRoleMemberCount(bytes32)": {
        "details": "Returns the number of accounts that have `role`. Can be used together with {getRoleMember} to enumerate all bearers of a role."
      },
      "grantRole(bytes32,address)": {
        "details": "Grants `role` to `account`. If `account` had not been already granted `role`, emits a {RoleGranted} event. Requirements: - the caller must have ``role``'s admin role."
      },
      "hasRole(bytes32,address)": {
        "details": "Returns `true` if `account` has been granted `role`."
      },
      "pause()": {
        "details": "Triggers stopped state. Requirements: - The contract must not be paused."
      },
      "paused()": {
        "details": "Returns true if the contract is paused, and false otherwise."
      },
      "renounceRole(bytes32,address)": {
        "details": "Revokes `role` from the calling account. Roles are often managed via {grantRole} and {revokeRole}: this function's purpose is to provide a mechanism for accounts to lose their privileges if they are compromised (such as when a trusted device is misplaced). If the calling account had been granted `role`, emits a {RoleRevoked} event. Requirements: - the caller must be `account`."
      },
      "revokeRole(bytes32,address)": {
        "details": "Revokes `role` from `account`. If `account` had been granted `role`, emits a {RoleRevoked} event. Requirements: - the caller must have ``role``'s admin role."
      },
      "token()": {
        "returns": {
          "_0": "the token being held."
        }
      },
      "unpause()": {
        "details": "Returns to normal state. Requirements: - The contract must be paused."
      }
    },
    "version": 1
  },
  "userdoc": {
    "kind": "user",
    "methods": {
      "addGrant(uint256,uint256,uint256,address)": {
        "notice": "Transfers tokens held by beneficiary to timelock."
      },
      "addGrants(uint256[],uint256[],uint256[],address[])": {
        "notice": "Transfers tokens held by beneficiary to timelock."
      },
      "claimGrant(address)": {
        "notice": "Transfers tokens held by timelock to beneficiary."
      },
      "revokeGrant(address,address)": {
        "notice": "revokeGrant tokens held by timelock to beneficiary."
      },
      "revokeGrants(address[],address)": {
        "notice": "revoke vesting grants of multiple benificiaries."
      }
    },
    "version": 1
  }
}