{
  "contractName": "WhitelistedPTokenEmissionV2",
  "abi": [
    {
      "anonymous": false,
      "inputs": [
        {
          "indexed": false,
          "internalType": "address",
          "name": "holderAddress",
          "type": "address"
        },
        {
          "indexed": false,
          "internalType": "uint256[]",
          "name": "holderRewards",
          "type": "uint256[]"
        },
        {
          "indexed": false,
          "internalType": "uint256",
          "name": "timestamp",
          "type": "uint256"
        }
      ],
      "name": "CalculateAllHolderRewards",
      "type": "event"
    },
    {
      "anonymous": false,
      "inputs": [
        {
          "indexed": false,
          "internalType": "address",
          "name": "account",
          "type": "address"
        }
      ],
      "name": "Paused",
      "type": "event"
    },
    {
      "anonymous": false,
      "inputs": [
        {
          "indexed": true,
          "internalType": "address",
          "name": "whitelistedAddress",
          "type": "address"
        },
        {
          "indexed": false,
          "internalType": "address[]",
          "name": "sTokenAddressesLocal",
          "type": "address[]"
        },
        {
          "indexed": true,
          "internalType": "address",
          "name": "holderAddressLocal",
          "type": "address"
        },
        {
          "indexed": true,
          "internalType": "uint256",
          "name": "timestamp",
          "type": "uint256"
        }
      ],
      "name": "RemoveWhitelistedAddress",
      "type": "event"
    },
    {
      "anonymous": false,
      "inputs": [
        {
          "indexed": true,
          "internalType": "bytes32",
          "name": "role",
          "type": "bytes32"
        },
        {
          "indexed": true,
          "internalType": "bytes32",
          "name": "previousAdminRole",
          "type": "bytes32"
        },
        {
          "indexed": true,
          "internalType": "bytes32",
          "name": "newAdminRole",
          "type": "bytes32"
        }
      ],
      "name": "RoleAdminChanged",
      "type": "event"
    },
    {
      "anonymous": false,
      "inputs": [
        {
          "indexed": true,
          "internalType": "bytes32",
          "name": "role",
          "type": "bytes32"
        },
        {
          "indexed": true,
          "internalType": "address",
          "name": "account",
          "type": "address"
        },
        {
          "indexed": true,
          "internalType": "address",
          "name": "sender",
          "type": "address"
        }
      ],
      "name": "RoleGranted",
      "type": "event"
    },
    {
      "anonymous": false,
      "inputs": [
        {
          "indexed": true,
          "internalType": "bytes32",
          "name": "role",
          "type": "bytes32"
        },
        {
          "indexed": true,
          "internalType": "address",
          "name": "account",
          "type": "address"
        },
        {
          "indexed": true,
          "internalType": "address",
          "name": "sender",
          "type": "address"
        }
      ],
      "name": "RoleRevoked",
      "type": "event"
    },
    {
      "anonymous": false,
      "inputs": [
        {
          "indexed": true,
          "internalType": "uint256",
          "name": "batchingLimit",
          "type": "uint256"
        },
        {
          "indexed": false,
          "internalType": "uint256",
          "name": "timestamp",
          "type": "uint256"
        }
      ],
      "name": "SetBatchingLimit",
      "type": "event"
    },
    {
      "anonymous": false,
      "inputs": [
        {
          "indexed": true,
          "internalType": "address",
          "name": "whitelistedAddress",
          "type": "address"
        },
        {
          "indexed": false,
          "internalType": "address[]",
          "name": "sTokenAddressesLocal",
          "type": "address[]"
        },
        {
          "indexed": true,
          "internalType": "address",
          "name": "holderContractAddress",
          "type": "address"
        },
        {
          "indexed": true,
          "internalType": "address",
          "name": "lpContractAddress",
          "type": "address"
        },
        {
          "indexed": false,
          "internalType": "uint256",
          "name": "timestamp",
          "type": "uint256"
        }
      ],
      "name": "SetWhitelistedAddress",
      "type": "event"
    },
    {
      "anonymous": false,
      "inputs": [
        {
          "indexed": false,
          "internalType": "address",
          "name": "account",
          "type": "address"
        }
      ],
      "name": "Unpaused",
      "type": "event"
    },
    {
      "inputs": [],
      "name": "DEFAULT_ADMIN_ROLE",
      "outputs": [
        {
          "internalType": "bytes32",
          "name": "",
          "type": "bytes32"
        }
      ],
      "stateMutability": "view",
      "type": "function"
    },
    {
      "inputs": [],
      "name": "PAUSER_ROLE",
      "outputs": [
        {
          "internalType": "bytes32",
          "name": "",
          "type": "bytes32"
        }
      ],
      "stateMutability": "view",
      "type": "function"
    },
    {
      "inputs": [],
      "name": "_batchingLimit",
      "outputs": [
        {
          "internalType": "uint256",
          "name": "",
          "type": "uint256"
        }
      ],
      "stateMutability": "view",
      "type": "function"
    },
    {
      "inputs": [
        {
          "internalType": "address",
          "name": "",
          "type": "address"
        }
      ],
      "name": "_holderLPToken",
      "outputs": [
        {
          "internalType": "address",
          "name": "",
          "type": "address"
        }
      ],
      "stateMutability": "view",
      "type": "function"
    },
    {
      "inputs": [
        {
          "internalType": "address",
          "name": "",
          "type": "address"
        },
        {
          "internalType": "uint256",
          "name": "",
          "type": "uint256"
        }
      ],
      "name": "_holderSTokens",
      "outputs": [
        {
          "internalType": "address",
          "name": "",
          "type": "address"
        }
      ],
      "stateMutability": "view",
      "type": "function"
    },
    {
      "inputs": [
        {
          "internalType": "address",
          "name": "",
          "type": "address"
        },
        {
          "internalType": "uint256",
          "name": "",
          "type": "uint256"
        }
      ],
      "name": "_holderWhitelists",
      "outputs": [
        {
          "internalType": "address",
          "name": "",
          "type": "address"
        }
      ],
      "stateMutability": "view",
      "type": "function"
    },
    {
      "inputs": [],
      "name": "_version",
      "outputs": [
        {
          "internalType": "uint256",
          "name": "",
          "type": "uint256"
        }
      ],
      "stateMutability": "view",
      "type": "function"
    },
    {
      "inputs": [
        {
          "internalType": "address",
          "name": "",
          "type": "address"
        }
      ],
      "name": "_whitelistedAddressHolder",
      "outputs": [
        {
          "internalType": "address",
          "name": "",
          "type": "address"
        }
      ],
      "stateMutability": "view",
      "type": "function"
    },
    {
      "inputs": [
        {
          "internalType": "address",
          "name": "",
          "type": "address"
        },
        {
          "internalType": "address",
          "name": "",
          "type": "address"
        },
        {
          "internalType": "uint256",
          "name": "",
          "type": "uint256"
        }
      ],
      "name": "_whitelistedSTokenAddresses",
      "outputs": [
        {
          "internalType": "address",
          "name": "",
          "type": "address"
        }
      ],
      "stateMutability": "view",
      "type": "function"
    },
    {
      "inputs": [
        {
          "internalType": "bytes32",
          "name": "role",
          "type": "bytes32"
        }
      ],
      "name": "getRoleAdmin",
      "outputs": [
        {
          "internalType": "bytes32",
          "name": "",
          "type": "bytes32"
        }
      ],
      "stateMutability": "view",
      "type": "function"
    },
    {
      "inputs": [
        {
          "internalType": "bytes32",
          "name": "role",
          "type": "bytes32"
        },
        {
          "internalType": "uint256",
          "name": "index",
          "type": "uint256"
        }
      ],
      "name": "getRoleMember",
      "outputs": [
        {
          "internalType": "address",
          "name": "",
          "type": "address"
        }
      ],
      "stateMutability": "view",
      "type": "function"
    },
    {
      "inputs": [
        {
          "internalType": "bytes32",
          "name": "role",
          "type": "bytes32"
        }
      ],
      "name": "getRoleMemberCount",
      "outputs": [
        {
          "internalType": "uint256",
          "name": "",
          "type": "uint256"
        }
      ],
      "stateMutability": "view",
      "type": "function"
    },
    {
      "inputs": [
        {
          "internalType": "bytes32",
          "name": "role",
          "type": "bytes32"
        },
        {
          "internalType": "address",
          "name": "account",
          "type": "address"
        }
      ],
      "name": "grantRole",
      "outputs": [],
      "stateMutability": "nonpayable",
      "type": "function"
    },
    {
      "inputs": [
        {
          "internalType": "bytes32",
          "name": "role",
          "type": "bytes32"
        },
        {
          "internalType": "address",
          "name": "account",
          "type": "address"
        }
      ],
      "name": "hasRole",
      "outputs": [
        {
          "internalType": "bool",
          "name": "",
          "type": "bool"
        }
      ],
      "stateMutability": "view",
      "type": "function"
    },
    {
      "inputs": [],
      "name": "paused",
      "outputs": [
        {
          "internalType": "bool",
          "name": "",
          "type": "bool"
        }
      ],
      "stateMutability": "view",
      "type": "function"
    },
    {
      "inputs": [
        {
          "internalType": "bytes32",
          "name": "role",
          "type": "bytes32"
        },
        {
          "internalType": "address",
          "name": "account",
          "type": "address"
        }
      ],
      "name": "renounceRole",
      "outputs": [],
      "stateMutability": "nonpayable",
      "type": "function"
    },
    {
      "inputs": [
        {
          "internalType": "bytes32",
          "name": "role",
          "type": "bytes32"
        },
        {
          "internalType": "address",
          "name": "account",
          "type": "address"
        }
      ],
      "name": "revokeRole",
      "outputs": [],
      "stateMutability": "nonpayable",
      "type": "function"
    },
    {
      "inputs": [
        {
          "internalType": "address",
          "name": "pauserAddress",
          "type": "address"
        }
      ],
      "name": "initialize",
      "outputs": [],
      "stateMutability": "nonpayable",
      "type": "function"
    },
    {
      "inputs": [
        {
          "internalType": "address",
          "name": "holderAddress",
          "type": "address"
        }
      ],
      "name": "getHolderData",
      "outputs": [
        {
          "internalType": "address[]",
          "name": "whitelistedAddresses",
          "type": "address[]"
        },
        {
          "internalType": "address[]",
          "name": "sTokenAddresses",
          "type": "address[]"
        },
        {
          "internalType": "address[]",
          "name": "uTokenAddresses",
          "type": "address[]"
        },
        {
          "internalType": "address",
          "name": "lpTokenAddress",
          "type": "address"
        }
      ],
      "stateMutability": "view",
      "type": "function"
    },
    {
      "inputs": [
        {
          "internalType": "address",
          "name": "sTokenAddress",
          "type": "address"
        },
        {
          "internalType": "address[]",
          "name": "whitelistedAddresses",
          "type": "address[]"
        }
      ],
      "name": "areContractsWhitelisted",
      "outputs": [
        {
          "internalType": "bool[]",
          "name": "areWhitelisted",
          "type": "bool[]"
        }
      ],
      "stateMutability": "view",
      "type": "function"
    },
    {
      "inputs": [
        {
          "internalType": "address",
          "name": "holderAddress",
          "type": "address"
        }
      ],
      "name": "calculateAllHolderRewards",
      "outputs": [
        {
          "internalType": "uint256[]",
          "name": "holderRewards",
          "type": "uint256[]"
        },
        {
          "internalType": "address[]",
          "name": "sTokenAddresses",
          "type": "address[]"
        },
        {
          "internalType": "address[]",
          "name": "uTokenAddresses",
          "type": "address[]"
        },
        {
          "internalType": "address",
          "name": "lpTokenAddress",
          "type": "address"
        }
      ],
      "stateMutability": "nonpayable",
      "type": "function"
    },
    {
      "inputs": [
        {
          "internalType": "address",
          "name": "holderAddress",
          "type": "address"
        }
      ],
      "name": "calculateAllPendingHolderRewards",
      "outputs": [
        {
          "internalType": "uint256[]",
          "name": "holderRewards",
          "type": "uint256[]"
        },
        {
          "internalType": "address[]",
          "name": "sTokenAddresses",
          "type": "address[]"
        },
        {
          "internalType": "address[]",
          "name": "uTokenAddresses",
          "type": "address[]"
        },
        {
          "internalType": "address",
          "name": "lpTokenAddress",
          "type": "address"
        }
      ],
      "stateMutability": "view",
      "type": "function"
    },
    {
      "inputs": [
        {
          "internalType": "address",
          "name": "whitelistedAddress",
          "type": "address"
        },
        {
          "internalType": "address[]",
          "name": "sTokenAddresses",
          "type": "address[]"
        },
        {
          "internalType": "address",
          "name": "holderContractAddress",
          "type": "address"
        },
        {
          "internalType": "address",
          "name": "lpContractAddress",
          "type": "address"
        }
      ],
      "name": "setWhitelistedAddress",
      "outputs": [
        {
          "internalType": "bool",
          "name": "success",
          "type": "bool"
        }
      ],
      "stateMutability": "nonpayable",
      "type": "function"
    },
    {
      "inputs": [
        {
          "internalType": "uint256",
          "name": "batchingLimit",
          "type": "uint256"
        }
      ],
      "name": "setBatchingLimit",
      "outputs": [
        {
          "internalType": "bool",
          "name": "success",
          "type": "bool"
        }
      ],
      "stateMutability": "nonpayable",
      "type": "function"
    },
    {
      "inputs": [
        {
          "internalType": "address",
          "name": "whitelistedAddress",
          "type": "address"
        }
      ],
      "name": "removeWhitelistedAddress",
      "outputs": [
        {
          "internalType": "bool",
          "name": "success",
          "type": "bool"
        }
      ],
      "stateMutability": "nonpayable",
      "type": "function"
    },
    {
      "inputs": [],
      "name": "pause",
      "outputs": [
        {
          "internalType": "bool",
          "name": "success",
          "type": "bool"
        }
      ],
      "stateMutability": "nonpayable",
      "type": "function"
    },
    {
      "inputs": [],
      "name": "unpause",
      "outputs": [
        {
          "internalType": "bool",
          "name": "success",
          "type": "bool"
        }
      ],
      "stateMutability": "nonpayable",
      "type": "function"
    }
  ],
  "bytecode": "0x608060405234801561001057600080fd5b50612854806100206000396000f3fe608060405234801561001057600080fd5b50600436106101a95760003560e01c806363111f03116100f9578063c4d66de811610097578063d547741f11610071578063d547741f14610683578063e63ab1e9146106af578063eab573dc146106b7578063fdaaf2b814610780576101a9565b8063c4d66de81461061a578063ca15c87314610640578063cad086551461065d576101a9565b80639010d07c116100d35780639010d07c146105a657806391d14854146105c9578063a217fddf146105f5578063bef1307c146105fd576101a9565b806363111f031461046f5780638456cb591461049b5780638575f9c7146104a3576101a9565b80633e118dbe11610166578063562c4b5011610140578063562c4b50146103ef5780635c975abb146104155780635cc1e3f51461041d5780636025375114610443576101a9565b80633e118dbe146103a55780633f4ba83a146103ad578063530cd5ab146103c9576101a9565b806316027ed0146101ae578063248a9ca3146101c857806326b7fa82146101e55780632f2ff15d1461023757806336568abe1461026557806336bbacad14610291575b600080fd5b6101b66107a6565b60408051918252519081900360200190f35b6101b6600480360360208110156101de57600080fd5b50356107ac565b61021b600480360360608110156101fb57600080fd5b506001600160a01b038135811691602081013590911690604001356107c1565b604080516001600160a01b039092168252519081900360200190f35b6102636004803603604081101561024d57600080fd5b50803590602001356001600160a01b0316610806565b005b6102636004803603604081101561027b57600080fd5b50803590602001356001600160a01b0316610872565b6102b7600480360360208110156102a757600080fd5b50356001600160a01b03166108d3565b60405180806020018060200180602001856001600160a01b03168152602001848103845288818151815260200191508051906020019060200280838360005b8381101561030e5781810151838201526020016102f6565b50505050905001848103835287818151815260200191508051906020019060200280838360005b8381101561034d578181015183820152602001610335565b50505050905001848103825286818151815260200191508051906020019060200280838360005b8381101561038c578181015183820152602001610374565b5050505090500197505050505050505060405180910390f35b6101b6610ae5565b6103b5610aeb565b604080519115158252519081900360200190f35b6103b5600480360360208110156103df57600080fd5b50356001600160a01b0316610b4c565b61021b6004803603602081101561040557600080fd5b50356001600160a01b0316611002565b6103b561101d565b61021b6004803603602081101561043357600080fd5b50356001600160a01b0316611026565b61021b6004803603604081101561045957600080fd5b506001600160a01b038135169060200135611041565b61021b6004803603604081101561048557600080fd5b506001600160a01b038135169060200135611079565b6103b5611095565b610556600480360360408110156104b957600080fd5b6001600160a01b0382351691908101906040810160208201356401000000008111156104e457600080fd5b8201836020820111156104f657600080fd5b8035906020019184602083028401116401000000008311171561051857600080fd5b9190808060200260200160405190810160405280939291908181526020018383602002808284376000920191909152509295506110f0945050505050565b60408051602080825283518183015283519192839290830191858101910280838360005b8381101561059257818101518382015260200161057a565b505050509050019250505060405180910390f35b61021b600480360360408110156105bc57600080fd5b50803590602001356112e4565b6103b5600480360360408110156105df57600080fd5b50803590602001356001600160a01b0316611305565b6101b661131d565b6103b56004803603602081101561061357600080fd5b5035611322565b6102636004803603602081101561063057600080fd5b50356001600160a01b03166113ad565b6101b66004803603602081101561065657600080fd5b503561148e565b6102b76004803603602081101561067357600080fd5b50356001600160a01b03166114a5565b6102636004803603604081101561069957600080fd5b50803590602001356001600160a01b03166116a7565b6101b6611700565b6103b5600480360360808110156106cd57600080fd5b6001600160a01b0382351691908101906040810160208201356401000000008111156106f857600080fd5b82018360208201111561070a57600080fd5b8035906020019184602083028401116401000000008311171561072c57600080fd5b919080806020026020016040519081016040528093929190818152602001838360200280828437600092019190915250929550506001600160a01b0383358116945060209093013590921691506117129050565b6102b76004803603602081101561079657600080fd5b50356001600160a01b0316611ca4565b609d5481565b60009081526065602052604090206002015490565b609960205282600052604060002060205281600052604060002081815481106107e957600080fd5b6000918252602090912001546001600160a01b0316925083915050565b60008281526065602052604090206002015461082990610824611fa7565b611305565b6108645760405162461bcd60e51b815260040180806020018281038252602f815260200180612743602f913960400191505060405180910390fd5b61086e8282611fab565b5050565b61087a611fa7565b6001600160a01b0316816001600160a01b0316146108c95760405162461bcd60e51b815260040180806020018281038252602f8152602001806127f0602f913960400191505060405180910390fd5b61086e8282612014565b606080806000806001600160a01b03861615610add576001600160a01b0386166000908152609860209081526040918290208054835181840281018401909452808452909183018282801561095157602002820191906000526020600020905b81546001600160a01b03168152600190910190602001808311610933575b5050506001600160a01b03808a166000908152609b6020908152604080832054609c8352928190208054825181850281018501909352808352979c50929093169750919490935091508301828280156109d357602002820191906000526020600020905b81546001600160a01b031681526001909101906020018083116109b5575b50505050509350835167ffffffffffffffff811180156109f257600080fd5b50604051908082528060200260200182016040528015610a1c578160200160208202803683370190505b509250600090505b8351811015610add57838181518110610a3957fe5b60200260200101516001600160a01b0316633d9e0c056040518163ffffffff1660e01b815260040160206040518083038186803b158015610a7957600080fd5b505afa158015610a8d573d6000803e3d6000fd5b505050506040513d6020811015610aa357600080fd5b50518351849083908110610ab357fe5b6001600160a01b0390921660209283029190910190910152610ad681600161207d565b9050610a24565b509193509193565b60975481565b6000610b076000805160206127d0833981519152610824611fa7565b610b3e576040805162461bcd60e51b815260206004820152600360248201526257503960e81b604482015290519081900360640190fd5b610b466120d7565b50600190565b6000610b5a81610824611fa7565b610b91576040805162461bcd60e51b81526020600482015260036024820152622ba81b60e91b604482015290519081900360640190fd5b6001600160a01b038216610bd2576040805162461bcd60e51b815260206004820152600360248201526257503760e81b604482015290519081900360640190fd5b6001600160a01b038083166000818152609a6020908152604080832054909416808352609982528483208484528252918490208451828152815492810183905292944294869490937f2953f6ab5bc40a923b43a5a72d28691e4f162c6f550e3b6a8ea9159e9a71b343939282919082019084908015610c7a57602002820191906000526020600020905b81546001600160a01b03168152600190910190602001808311610c5c575b50509250505060405180910390a460005b6001600160a01b03808316600090815260996020908152604080832093881683529290522054811015610d94576001600160a01b038083166000908152609960209081526040808320938816835292905220805482908110610ce957fe5b9060005260206000200160009054906101000a90046001600160a01b03166001600160a01b031663530cd5ab856040518263ffffffff1660e01b815260040180826001600160a01b03168152602001915050602060405180830381600087803b158015610d5557600080fd5b505af1158015610d69573d6000803e3d6000fd5b505050506040513d6020811015610d7f57600080fd5b50610d8d905081600161207d565b9050610c8b565b6001600160a01b038085166000818152609a6020908152604080832080546001600160a01b031916905593861682526099815283822092825291909152908120610ddd916126ee565b506000805b6001600160a01b038316600090815260986020526040902054821015610e60576001600160a01b03838116600090815260986020526040902080549187169184908110610e2b57fe5b6000918252602090912001546001600160a01b03161415610e4e57506001610e60565b610e5982600161207d565b9150610de2565b8015610ff7576001600160a01b038316600090815260986020526040902054610e8a906001612177565b821415610ed9576001600160a01b0383166000908152609860205260409020805480610eb257fe5b600082815260209020810160001990810180546001600160a01b0319169055019055610fa1565b6001600160a01b03831660009081526098602052604090208054610efe906001612177565b81548110610f0857fe5b60009182526020808320909101546001600160a01b03868116845260989092526040909220805491909216919084908110610f3f57fe5b600091825260208083209190910180546001600160a01b0319166001600160a01b039485161790559185168152609890915260409020805480610f7e57fe5b600082815260209020810160001990810180546001600160a01b03191690550190555b6001600160a01b038316600090815260986020526040902054610ff7576001600160a01b0383166000908152609b6020908152604080832080546001600160a01b0319169055609c9091528120610ff7916126ee565b506001949350505050565b609b602052600090815260409020546001600160a01b031681565b60335460ff1690565b609a602052600090815260409020546001600160a01b031681565b6098602052816000526040600020818154811061105d57600080fd5b6000918252602090912001546001600160a01b03169150829050565b609c602052816000526040600020818154811061105d57600080fd5b60006110b16000805160206127d0833981519152610824611fa7565b6110e8576040805162461bcd60e51b81526020600482015260036024820152620aea0760eb1b604482015290519081900360640190fd5b610b466121d4565b60606000806060600080865167ffffffffffffffff8111801561111257600080fd5b5060405190808252806020026020018201604052801561113c578160200160208202803683370190505b509550600094505b86518510156112d957609a600088878151811061115d57fe5b60200260200101516001600160a01b03166001600160a01b0316815260200190815260200160002060009054906101000a90046001600160a01b0316915060996000836001600160a01b03166001600160a01b0316815260200190815260200160002060008887815181106111ce57fe5b60200260200101516001600160a01b03166001600160a01b0316815260200190815260200160002080548060200260200160405190810160405280929190818152602001828054801561124a57602002820191906000526020600020905b81546001600160a01b0316815260019091019060200180831161122c575b5050505050925060009050600093505b82518410156112aa57876001600160a01b031683858151811061127957fe5b60200260200101516001600160a01b03161415611298575060016112aa565b6112a384600161207d565b935061125a565b808686815181106112b757fe5b911515602092830291909101909101526112d285600161207d565b9450611144565b505050505092915050565b60008281526065602052604081206112fc9083612257565b90505b92915050565b60008281526065602052604081206112fc9083612263565b600081565b600061133081610824611fa7565b61136a576040805162461bcd60e51b815260206004808301919091526024820152630575031360e41b604482015290519081900360640190fd5b609d82905560408051428152905183917f3e0887a905af0c5764f2c25c201fa1b9595065cb7008f54fe7734fefdd8e88dc919081900360200190a2506001919050565b600054610100900460ff16806113c657506113c6612278565b806113d4575060005460ff16155b61140f5760405162461bcd60e51b815260040180806020018281038252602e8152602001806127a2602e913960400191505060405180910390fd5b600054610100900460ff1615801561143a576000805460ff1961ff0019909116610100171660011790555b611442612289565b61144a61233b565b61145c6000611457611fa7565b610864565b6114746000805160206127d083398151915283610864565b6001609755801561086e576000805461ff00191690555050565b60008181526065602052604081206112ff906123d8565b606080606060008060008060006060806114be8b6108d3565b919b509950975090506001600160a01b038b1615806114e457506001600160a01b038716155b806114ee57508051155b806114f857508751155b8061150257508851155b15611512575050505050506116a0565b885167ffffffffffffffff8111801561152a57600080fd5b50604051908082528060200260200182016040528015611554578160200160208202803683370190505b509950600095505b8851861015611699576000925061158689878151811061157857fe5b6020026020010151826110f0565b9150600094505b805185101561166f578185815181106115a257fe5b60200260200101511561165d578886815181106115bb57fe5b60200260200101516001600160a01b031663a203ccf88287815181106115dd57fe5b60200260200101516040518263ffffffff1660e01b815260040180826001600160a01b0316815260200191505060606040518083038186803b15801561162257600080fd5b505afa158015611636573d6000803e3d6000fd5b505050506040513d606081101561164c57600080fd5b5051935061165a838561207d565b92505b61166885600161207d565b945061158d565b828a878151811061167c57fe5b602090810291909101015261169286600161207d565b955061155c565b5050505050505b9193509193565b6000828152606560205260409020600201546116c590610824611fa7565b6108c95760405162461bcd60e51b81526004018080602001828103825260308152602001806127726030913960400191505060405180910390fd5b6000805160206127d083398151915281565b600061172081610824611fa7565b611757576040805162461bcd60e51b81526020600482015260036024820152622ba81960e91b604482015290519081900360640190fd5b6001600160a01b0385161580159061177757506001600160a01b03831615155b80156117835750835115155b6117ba576040805162461bcd60e51b815260206004820152600360248201526257503360e81b604482015290519081900360640190fd5b600080805b6001600160a01b03861660009081526098602052604090205482101561183e576001600160a01b0386811660009081526098602052604090208054918a16918490811061180857fe5b6000918252602090912001546001600160a01b0316141561182c576001925061183e565b61183782600161207d565b91506117bf565b826118a8576001600160a01b038616600090815260986020526040902054609d54106118a3576001600160a01b0386811660009081526098602090815260408220805460018101825590835291200180546001600160a01b031916918a169190911790555b6118db565b6040805162461bcd60e51b815260206004820152600360248201526215d40d60ea1b604482015290519081900360640190fd5b506001600160a01b038088166000908152609a602090815260408083208054858b166001600160a01b03199182168117909255908452609b9092528220805493881693909116929092179091555b8651811015611be45760006001600160a01b031687828151811061194957fe5b60200260200101516001600160a01b03161415611993576040805162461bcd60e51b815260206004820152600360248201526257503560e81b604482015290519081900360640190fd5b6001600160a01b038087166000908152609960209081526040808320938c1683529290522087518890839081106119c657fe5b60209081029190910181015182546001810184556000938452919092200180546001600160a01b0319166001600160a01b039092169190911790558651879082908110611a0f57fe5b60200260200101516001600160a01b0316634bcb30f88988886040518463ffffffff1660e01b815260040180846001600160a01b03168152602001836001600160a01b03168152602001826001600160a01b031681526020019350505050602060405180830381600087803b158015611a8757600080fd5b505af1158015611a9b573d6000803e3d6000fd5b505050506040513d6020811015611ab157600080fd5b5060009250505b6001600160a01b0386166000908152609c6020526040902054821015611b50576001600160a01b0386166000908152609c60205260409020805483908110611afc57fe5b60009182526020909120015487516001600160a01b0390911690889083908110611b2257fe5b60200260200101516001600160a01b03161415611b3e57611b50565b611b4982600161207d565b9150611ab8565b6001600160a01b0386166000908152609c6020526040902054821415611bd2576001600160a01b0386166000908152609c602052604090208751889083908110611b9657fe5b60209081029190910181015182546001810184556000938452919092200180546001600160a01b0319166001600160a01b039092169190911790555b611bdd81600161207d565b9050611929565b6001600160a01b0386811660008181526099602090815260408083208d8616808552908352928190208151429381018490528281528154928101839052958b16957f898021085aa6760dfff39976b4928c90f897cf85216261ef8a3746d755ef53dc9391928190606082019085908015611c8757602002820191906000526020600020905b81546001600160a01b03168152600190910190602001808311611c69575b5050935050505060405180910390a4506001979650505050505050565b60608060606000611cb361101d565b15611cf8576040805162461bcd60e51b815260206004820152601060248201526f14185d5cd8589b194e881c185d5cd95960821b604482015290519081900360640190fd5b600080600080606080611d0a8b6108d3565b919b509950975090506001600160a01b038b1615801590611d2c575060008151115b8015611d39575060008851115b8015611d46575060008951115b8015611d5a57506001600160a01b03871615155b611d91576040805162461bcd60e51b815260206004820152600360248201526257503160e81b604482015290519081900360640190fd5b885167ffffffffffffffff81118015611da957600080fd5b50604051908082528060200260200182016040528015611dd3578160200160208202803683370190505b509950600095505b8851861015611f0c5760009250611df789878151811061157857fe5b9150600094505b8051851015611ee257818581518110611e1357fe5b602002602001015115611ed057888681518110611e2c57fe5b60200260200101516001600160a01b03166326d6772e828781518110611e4e57fe5b60200260200101516040518263ffffffff1660e01b815260040180826001600160a01b03168152602001915050606060405180830381600087803b158015611e9557600080fd5b505af1158015611ea9573d6000803e3d6000fd5b505050506040513d6060811015611ebf57600080fd5b50519350611ecd838561207d565b92505b611edb85600161207d565b9450611dfe565b828a8781518110611eef57fe5b6020908102919091010152611f0586600161207d565b9550611ddb565b7fd8261636fd97ccb88da285fd47f09ffa348272b3fe63b45bd620a5c29ef64efb8b8b4260405180846001600160a01b0316815260200180602001838152602001828103825284818151815260200191508051906020019060200280838360005b83811015611f85578181015183820152602001611f6d565b5050505090500194505050505060405180910390a15050505050509193509193565b3390565b6000828152606560205260409020611fc390826123e3565b1561086e57611fd0611fa7565b6001600160a01b0316816001600160a01b0316837f2f8788117e7eff1d82e926ec794901d17c78024a50270940304540a733656f0d60405160405180910390a45050565b600082815260656020526040902061202c90826123f8565b1561086e57612039611fa7565b6001600160a01b0316816001600160a01b0316837ff6391f5c32d9c69d2a47ea670b442974b53935d1edc7fd64eb21e047a839171b60405160405180910390a45050565b6000828201838110156112fc576040805162461bcd60e51b815260206004820152601b60248201527f536166654d6174683a206164646974696f6e206f766572666c6f770000000000604482015290519081900360640190fd5b6120df61101d565b612127576040805162461bcd60e51b815260206004820152601460248201527314185d5cd8589b194e881b9bdd081c185d5cd95960621b604482015290519081900360640190fd5b6033805460ff191690557f5db9ee0a495bf2e6ff9c91a7834c1ba4fdd244a5e8aa4e537bd38aeae4b073aa61215a611fa7565b604080516001600160a01b039092168252519081900360200190a1565b6000828211156121ce576040805162461bcd60e51b815260206004820152601e60248201527f536166654d6174683a207375627472616374696f6e206f766572666c6f770000604482015290519081900360640190fd5b50900390565b6121dc61101d565b15612221576040805162461bcd60e51b815260206004820152601060248201526f14185d5cd8589b194e881c185d5cd95960821b604482015290519081900360640190fd5b6033805460ff191660011790557f62e78cea01bee320cd4e420270b5ea74000d11b0c9f74754ebdbfc544b05a25861215a611fa7565b60006112fc838361240d565b60006112fc836001600160a01b038416612471565b600061228330612489565b15905090565b600054610100900460ff16806122a257506122a2612278565b806122b0575060005460ff16155b6122eb5760405162461bcd60e51b815260040180806020018281038252602e8152602001806127a2602e913960400191505060405180910390fd5b600054610100900460ff16158015612316576000805460ff1961ff0019909116610100171660011790555b61231e61248f565b61232661248f565b8015612338576000805461ff00191690555b50565b600054610100900460ff16806123545750612354612278565b80612362575060005460ff16155b61239d5760405162461bcd60e51b815260040180806020018281038252602e8152602001806127a2602e913960400191505060405180910390fd5b600054610100900460ff161580156123c8576000805460ff1961ff0019909116610100171660011790555b6123d061248f565b61232661252f565b60006112ff826125da565b60006112fc836001600160a01b0384166125de565b60006112fc836001600160a01b038416612628565b8154600090821061244f5760405162461bcd60e51b81526004018080602001828103825260228152602001806127216022913960400191505060405180910390fd5b82600001828154811061245e57fe5b9060005260206000200154905092915050565b60009081526001919091016020526040902054151590565b3b151590565b600054610100900460ff16806124a857506124a8612278565b806124b6575060005460ff16155b6124f15760405162461bcd60e51b815260040180806020018281038252602e8152602001806127a2602e913960400191505060405180910390fd5b600054610100900460ff16158015612326576000805460ff1961ff0019909116610100171660011790558015612338576000805461ff001916905550565b600054610100900460ff16806125485750612548612278565b80612556575060005460ff16155b6125915760405162461bcd60e51b815260040180806020018281038252602e8152602001806127a2602e913960400191505060405180910390fd5b600054610100900460ff161580156125bc576000805460ff1961ff0019909116610100171660011790555b6033805460ff191690558015612338576000805461ff001916905550565b5490565b60006125ea8383612471565b612620575081546001818101845560008481526020808220909301849055845484825282860190935260409020919091556112ff565b5060006112ff565b600081815260018301602052604081205480156126e4578354600019808301919081019060009087908390811061265b57fe5b906000526020600020015490508087600001848154811061267857fe5b6000918252602080832090910192909255828152600189810190925260409020908401905586548790806126a857fe5b600190038181906000526020600020016000905590558660010160008781526020019081526020016000206000905560019450505050506112ff565b60009150506112ff565b508054600082559060005260206000209081019061233891905b8082111561271c5760008155600101612708565b509056fe456e756d657261626c655365743a20696e646578206f7574206f6620626f756e6473416363657373436f6e74726f6c3a2073656e646572206d75737420626520616e2061646d696e20746f206772616e74416363657373436f6e74726f6c3a2073656e646572206d75737420626520616e2061646d696e20746f207265766f6b65496e697469616c697a61626c653a20636f6e747261637420697320616c726561647920696e697469616c697a656465d7a28e3265b37a6474929f336521b332c1681b933f6cb9f3376673440d862a416363657373436f6e74726f6c3a2063616e206f6e6c792072656e6f756e636520726f6c657320666f722073656c66a26469706673582212208cffd9376c55dc76e4950c645956a8db76d1e5e058ec20cb392dff3ad750476364736f6c63430007060033",
  "immutableReferences": {},
  "source": "/*\n Copyright [2019] - [2021], PERSISTENCE TECHNOLOGIES PTE. LTD. and the pStake-smartContracts contributors\n SPDX-License-Identifier: Apache-2.0\n*/\n\npragma solidity >=0.7.0;\n\nimport \"@openzeppelin/contracts-upgradeable/math/SafeMathUpgradeable.sol\";\nimport \"@openzeppelin/contracts-upgradeable/utils/PausableUpgradeable.sol\";\nimport \"@openzeppelin/contracts-upgradeable/utils/EnumerableSetUpgradeable.sol\";\nimport \"@openzeppelin/contracts-upgradeable/access/AccessControlUpgradeable.sol\";\nimport \"./interfaces/ISTokensV2.sol\";\nimport \"./interfaces/IWhitelistedPTokenEmissionV2.sol\";\n\ncontract WhitelistedPTokenEmissionV2 is\nIWhitelistedPTokenEmissionV2,\nPausableUpgradeable,\nAccessControlUpgradeable\n{\n    using SafeMathUpgradeable for uint256;\n    using EnumerableSetUpgradeable for EnumerableSetUpgradeable.AddressSet;\n\n    // constants defining access control ROLES\n    bytes32 public constant PAUSER_ROLE = keccak256(\"PAUSER_ROLE\");\n    // variable pertaining to contract upgrades versioning\n    uint256 public _version;\n\n    // -------------------------------------------------------------------------\n    // -------------------------------------------------------------------------\n\n    // ::HOLDER WHITELISTINGS FOR PTOKENS REWARD EMISSION::\n    // list of whitelisted addresses for a particular holder contract\n    mapping(address => address[]) public _holderWhitelists;\n    // list of SToken addresses for a particular holder contract, for a particular whitelisted address\n    mapping(address => mapping(address => address[]))\n    public _whitelistedSTokenAddresses;\n    // holder address for a particular whitelisted contract\n    mapping(address => address) public _whitelistedAddressHolder;\n    // lp token address for a particular holder address\n    mapping(address => address) public _holderLPToken;\n    // STokens pertaining to a holder address\n    mapping(address => address[]) public _holderSTokens;\n\n    // -------------------------------------------------------------------------\n    // -------------------------------------------------------------------------\n    // execute setBatchingLimit once the contract is upgraded\n    uint256 public override _batchingLimit;\n\n    /**\n     * @dev Constructor for initializing the SToken contract.\n     * @param pauserAddress - address of the pauser admin.\n     */\n    function initialize(address pauserAddress) public virtual initializer {\n    __AccessControl_init();\n    __Pausable_init();\n    _setupRole(DEFAULT_ADMIN_ROLE, _msgSender());\n    _setupRole(PAUSER_ROLE, pauserAddress);\n    _version = 1;\n    }\n\n    /**\n     * @dev Calculate pending rewards for the provided 'address'. The rate is the moving reward rate.\n     * @param holderAddress: contract address\n     */\n    function getHolderData(address holderAddress)\n    public\n    view\n    virtual\n    override\n    returns (\n    address[] memory whitelistedAddresses,\n    address[] memory sTokenAddresses,\n    address[] memory uTokenAddresses,\n    address lpTokenAddress\n    )\n    {\n    uint256 k;\n    if (holderAddress != address(0)) {\n    whitelistedAddresses = _holderWhitelists[holderAddress];\n    lpTokenAddress = _holderLPToken[holderAddress];\n    sTokenAddresses = _holderSTokens[holderAddress];\n    uTokenAddresses = new address[](sTokenAddresses.length);\n    for (k = 0; k < sTokenAddresses.length; k = k.add(1)) {\n    uTokenAddresses[k] = ISTokensV2(sTokenAddresses[k])\n    .getUTokenAddress();\n    }\n    }\n    }\n\n    /**\n     * @dev Check if contracts are whitelisted\n     * @param sTokenAddress: sToken contract address\n     * @param whitelistedAddresses: whitelisted contract address in array\n     */\n    function areContractsWhitelisted(\n    address sTokenAddress,\n    address[] memory whitelistedAddresses\n    ) public view virtual override returns (bool[] memory areWhitelisted) {\n    uint256 k;\n    uint256 j;\n    address[] memory sTokenAddressesLocal;\n    address holderAddressLocal;\n    bool isStokenMatch;\n    areWhitelisted = new bool[](whitelistedAddresses.length);\n    for (k = 0; k < whitelistedAddresses.length; k = k.add(1)) {\n    holderAddressLocal = _whitelistedAddressHolder[\n    whitelistedAddresses[k]\n    ];\n    sTokenAddressesLocal = _whitelistedSTokenAddresses[\n    holderAddressLocal\n    ][whitelistedAddresses[k]];\n    isStokenMatch = false;\n    for (j = 0; j < sTokenAddressesLocal.length; j = j.add(1)) {\n    if (sTokenAddressesLocal[j] == sTokenAddress) {\n    isStokenMatch = true;\n    break;\n    }\n    }\n\n    areWhitelisted[k] = isStokenMatch;\n    }\n    }\n\n    /**\n     * @dev Calculate rewards for the holder 'address'.\n     * @param holderAddress: holder contract address\n     */\n    function calculateAllHolderRewards(address holderAddress)\n    public\n    virtual\n    override\n    whenNotPaused\n    returns (\n    uint256[] memory holderRewards,\n    address[] memory sTokenAddresses,\n    address[] memory uTokenAddresses,\n    address lpTokenAddress\n    )\n    {\n    uint256 i;\n    uint256 j;\n    uint256 holderReward;\n    uint256 rewardPool;\n    bool[] memory areContractsWhitelistedBools;\n    address[] memory whitelistedAddresses;\n\n    (\n    whitelistedAddresses,\n    sTokenAddresses,\n    uTokenAddresses,\n    lpTokenAddress\n    ) = getHolderData(holderAddress);\n\n    require(\n    holderAddress != address(0) &&\n    whitelistedAddresses.length > 0 &&\n    uTokenAddresses.length > 0 &&\n    sTokenAddresses.length > 0 &&\n    lpTokenAddress != address(0),\n    \"WP1\"\n    );\n\n    holderRewards = new uint256[](sTokenAddresses.length);\n    // for each sTokenAddress, find all whitelistedAddresses and call calculatePendingHolderRewards,\n    // add the results and store for each index\n    for (i = 0; i < sTokenAddresses.length; i = i.add(1)) {\n    rewardPool = 0;\n    // list of bools which define if a particular whitelisted address conforms to the sTokenAddress\n    areContractsWhitelistedBools = areContractsWhitelisted(\n    sTokenAddresses[i],\n    whitelistedAddresses\n    );\n    for (j = 0; j < whitelistedAddresses.length; j = j.add(1)) {\n    // check if the sTokenAddress and whitelisted address pair is legitimate\n    if (areContractsWhitelistedBools[j]) {\n    (holderReward, , ) = ISTokensV2(sTokenAddresses[i])\n    .calculateHolderRewards(whitelistedAddresses[j]);\n    rewardPool = rewardPool.add(holderReward);\n    }\n    }\n    holderRewards[i] = rewardPool;\n    }\n\n    emit CalculateAllHolderRewards(\n    holderAddress,\n    holderRewards,\n    block.timestamp\n    );\n    }\n\n    /**\n     * @dev Calculate pending rewards for the holder 'address'\n     * @param holderAddress: holder contract address\n     */\n    function calculateAllPendingHolderRewards(address holderAddress)\n    public\n    view\n    override\n    returns (\n    uint256[] memory holderRewards,\n    address[] memory sTokenAddresses,\n    address[] memory uTokenAddresses,\n    address lpTokenAddress\n    )\n    {\n    uint256 i;\n    uint256 j;\n    uint256 holderReward;\n    uint256 rewardPool;\n    bool[] memory areContractsWhitelistedBools;\n    address[] memory whitelistedAddresses;\n\n    (\n    whitelistedAddresses,\n    sTokenAddresses,\n    uTokenAddresses,\n    lpTokenAddress\n    ) = getHolderData(holderAddress);\n\n    if (\n    holderAddress == address(0) ||\n    lpTokenAddress == address(0) ||\n    whitelistedAddresses.length == 0 ||\n    uTokenAddresses.length == 0 ||\n    sTokenAddresses.length == 0\n    ) {\n    return (\n    holderRewards,\n    sTokenAddresses,\n    uTokenAddresses,\n    lpTokenAddress\n    );\n    }\n\n    holderRewards = new uint256[](sTokenAddresses.length);\n    // for each sTokenAddress, find all whitelistedAddresses and call calculatePendingHolderRewards,\n    // add the results and store for each index\n    for (i = 0; i < sTokenAddresses.length; i = i.add(1)) {\n    rewardPool = 0;\n    // list of bools which define if a particular whitelisted address conforms to the sTokenAddress\n    areContractsWhitelistedBools = areContractsWhitelisted(\n    sTokenAddresses[i],\n    whitelistedAddresses\n    );\n    for (j = 0; j < whitelistedAddresses.length; j = j.add(1)) {\n    // check if the sTokenAddress and whitelisted address pair is legitimate\n    if (areContractsWhitelistedBools[j]) {\n    (holderReward, , ) = ISTokensV2(sTokenAddresses[i])\n    .calculatePendingHolderRewards(whitelistedAddresses[j]);\n    rewardPool = rewardPool.add(holderReward);\n    }\n    }\n    holderRewards[i] = rewardPool;\n    }\n    }\n\n    /*\n     * @dev Set 'whitelisted address', performed by admin only\n     * @param whitelistedAddress: contract address of the whitelisted party\n     * @param sTokenAddresses: sToken contract address in array\n     * @param holderContractAddress: holder contract address\n     * @param lpContractAddress: LP token contract address\n     *\n     * Emits a {setWhitelistedAddress} event\n     *\n     */\n    function setWhitelistedAddress(\n    address whitelistedAddress,\n    address[] memory sTokenAddresses,\n    address holderContractAddress,\n    address lpContractAddress\n    ) public virtual override returns (bool success) {\n    require(hasRole(DEFAULT_ADMIN_ROLE, _msgSender()), \"WP2\");\n    // lpTokenERC20ContractAddress or sTokenReserveContractAddress can be address(0) but not whitelistedAddress\n    // have set holderContract also as non-zero, can allow lpContractAddress to be zero for control\n    require(\n    whitelistedAddress != address(0) &&\n    holderContractAddress != address(0) &&\n    sTokenAddresses.length != 0,\n    \"WP3\"\n    );\n\n    bool whitelistedAddressExists;\n    uint256 j;\n    uint256 i;\n\n    // ADD TO _holderWhitelists make sure the same whitelisted address is not added before if so revert\n    // to add the same whitelisted address, first remove it, then add again\n    // add to _holderWhitelists\n    for (\n    j = 0;\n    j < _holderWhitelists[holderContractAddress].length;\n    j = j.add(1)\n    ) {\n    if (\n    _holderWhitelists[holderContractAddress][j] ==\n    whitelistedAddress\n    ) {\n    whitelistedAddressExists = true;\n    break;\n    }\n    }\n\n    // if whitelisted contract doesnt already exist then include it in the array else revert\n    if (!whitelistedAddressExists) {\n    // implementing an upper bound to the number of whitelisted values the holder can have\n    // add the whitelistedAddress to the _holderWhitelists array\n    if (\n    _batchingLimit >=\n    _holderWhitelists[holderContractAddress].length\n    ) _holderWhitelists[holderContractAddress].push(whitelistedAddress);\n    } else {\n    revert(\"WP4\");\n    }\n\n    // ADD TO _holderWhitelists AND _whitelistedSTokenAddresses AND _whitelistedAddressHolder AND _holderLPToken\n    _whitelistedAddressHolder[whitelistedAddress] = holderContractAddress;\n    _holderLPToken[holderContractAddress] = lpContractAddress;\n\n    // add SToken addresses uniquely to _holderSTokens\n    for (i = 0; i < sTokenAddresses.length; i = i.add(1)) {\n    // ADD TO _whitelistedSTokenAddresses\n    // check if sTokenAddress already exists\n    // check if all the sTokenAddresses provided are non zero\n    require(sTokenAddresses[i] != address(0), \"WP5\");\n    _whitelistedSTokenAddresses[holderContractAddress][\n    whitelistedAddress\n    ].push(sTokenAddresses[i]);\n\n    // SET WHITELISTING IN STOKEN CONTRACTS\n    // for each sTokenAddress, set the whiteliste data\n    ISTokensV2(sTokenAddresses[i]).setWhitelistedAddress(\n    whitelistedAddress,\n    holderContractAddress,\n    lpContractAddress\n    );\n    // ADD TO _holderWhitelists\n    for (\n    j = 0;\n    j < _holderSTokens[holderContractAddress].length;\n    j = j.add(1)\n    ) {\n    if (\n    sTokenAddresses[i] ==\n    _holderSTokens[holderContractAddress][j]\n    ) {\n    break;\n    }\n    }\n    if (j == _holderSTokens[holderContractAddress].length) {\n    _holderSTokens[holderContractAddress].push(sTokenAddresses[i]);\n    }\n    }\n\n    // emit event\n    emit SetWhitelistedAddress(\n    whitelistedAddress,\n    _whitelistedSTokenAddresses[holderContractAddress][\n    whitelistedAddress\n    ],\n    holderContractAddress,\n    lpContractAddress,\n    block.timestamp\n    );\n\n    success = true;\n    return success;\n    }\n\n    /**\n     * @dev Set 'batching limit', called from admin\n     * Emits a {SetBatchingLimit} event.\n     *\n     */\n    function setBatchingLimit(uint256 batchingLimit)\n    public\n    virtual\n    override\n    returns (bool success)\n    {\n    require(hasRole(DEFAULT_ADMIN_ROLE, _msgSender()), \"WP10\");\n    _batchingLimit = batchingLimit;\n    emit SetBatchingLimit(batchingLimit, block.timestamp);\n    success = true;\n    return success;\n    }\n\n    /*\n     * @dev remove 'whitelisted address', performed by admin only\n     * @param whitelistedAddress: contract address of the whitelisted party\n     *\n     * Emits a {RemoveWhitelistedAddress} event\n     *\n     */\n    function removeWhitelistedAddress(address whitelistedAddress)\n    public\n    virtual\n    override\n    returns (bool success)\n    {\n    require(hasRole(DEFAULT_ADMIN_ROLE, _msgSender()), \"WP6\");\n    require(whitelistedAddress != address(0), \"WP7\");\n\n    // REMOVE WHITELISTING FROM _holderWhitelists AND _whitelistedSTokenAddresses AND _whitelistedAddressHolder AND _holderLPToken\n    // get the holder address from _whitelistedAddressHolder\n    address holderAddressLocal = _whitelistedAddressHolder[\n    whitelistedAddress\n    ];\n\n    // emit event\n    emit RemoveWhitelistedAddress(\n    whitelistedAddress,\n    _whitelistedSTokenAddresses[holderAddressLocal][whitelistedAddress],\n    _whitelistedAddressHolder[whitelistedAddress],\n    block.timestamp\n    );\n\n    // REMOVE FROM STOKEN CONTRACTS\n    // for each SToken, call the remove whitelist function of that SToken\n    uint256 j;\n    for (\n    j = 0;\n    j <\n    _whitelistedSTokenAddresses[holderAddressLocal][whitelistedAddress]\n    .length;\n    j = j.add(1)\n    ) {\n    ISTokensV2(\n    _whitelistedSTokenAddresses[holderAddressLocal][\n    whitelistedAddress\n    ][j]\n    ).removeWhitelistedAddress(whitelistedAddress);\n    }\n\n    // REMOVE FROM _whitelistedAddressHolder and _whitelistedSTokenAddresses\n    delete _whitelistedAddressHolder[whitelistedAddress];\n    delete _whitelistedSTokenAddresses[holderAddressLocal][\n    whitelistedAddress\n    ];\n\n    // REMOVE FROM _holderWhitelists\n    // check if the whitelisted address exists is the _holderWhitelists array\n    bool whitelistedAddressExists;\n    for (\n    j = 0;\n    j < _holderWhitelists[holderAddressLocal].length;\n    j = j.add(1)\n    ) {\n    if (\n    _holderWhitelists[holderAddressLocal][j] == whitelistedAddress\n    ) {\n    whitelistedAddressExists = true;\n    break;\n    }\n    }\n    // if whitelisted contract exists in the_holderWhitelists array then\n    // remove the whitelisted address from the array of _holderWhitelists\n    if (whitelistedAddressExists) {\n    if (j == _holderWhitelists[holderAddressLocal].length.sub(1)) {\n    _holderWhitelists[holderAddressLocal].pop();\n    } else {\n    _holderWhitelists[holderAddressLocal][j] = _holderWhitelists[\n    holderAddressLocal\n    ][_holderWhitelists[holderAddressLocal].length.sub(1)];\n    _holderWhitelists[holderAddressLocal].pop();\n    }\n    // if all the whitelisted addresses have been removed, then delete the lpToken associated with the holder address\n    if (_holderWhitelists[holderAddressLocal].length == 0) {\n    delete _holderLPToken[holderAddressLocal];\n    delete _holderSTokens[holderAddressLocal];\n    }\n    }\n\n    success = true;\n    return success;\n    }\n\n    /**\n     * @dev Triggers stopped state.\n     *\n     * Requirements:\n     *\n     * - The contract must not be paused.\n     */\n    function pause() public virtual override returns (bool success) {\n    require(hasRole(PAUSER_ROLE, _msgSender()), \"WP8\");\n    _pause();\n    return true;\n    }\n\n    /**\n     * @dev Returns to normal state.\n     *\n     * Requirements:\n     *\n     * - The contract must be paused.\n     */\n    function unpause() public virtual override returns (bool success) {\n    require(hasRole(PAUSER_ROLE, _msgSender()), \"WP9\");\n    _unpause();\n    return true;\n    }\n}",
  "sourcePath": "/home/aditimahesh/Documents/Work/Persistence/go/src/github.com/persistenceOne/pStake-smartContracts/contracts/WhitelistedPTokenEmissionV2.sol",
  "compiler": {
    "name": "solc",
    "version": "0.7.6+commit.7338295f.Emscripten.clang"
  },
  "schemaVersion": "3.4.3",
  "updatedAt": "2021-12-21T07:15:04.201Z",
  "devdoc": {
    "kind": "dev",
    "methods": {
      "areContractsWhitelisted(address,address[])": {
        "details": "Check if contracts are whitelisted",
        "params": {
          "sTokenAddress": ": sToken contract address",
          "whitelistedAddresses": ": whitelisted contract address in array"
        }
      },
      "calculateAllHolderRewards(address)": {
        "details": "Calculate rewards for the holder 'address'.",
        "params": {
          "holderAddress": ": holder contract address"
        }
      },
      "calculateAllPendingHolderRewards(address)": {
        "details": "Calculate pending rewards for the holder 'address'",
        "params": {
          "holderAddress": ": holder contract address"
        }
      },
      "getHolderData(address)": {
        "details": "Calculate pending rewards for the provided 'address'. The rate is the moving reward rate.",
        "params": {
          "holderAddress": ": contract address"
        }
      },
      "getRoleAdmin(bytes32)": {
        "details": "Returns the admin role that controls `role`. See {grantRole} and {revokeRole}. To change a role's admin, use {_setRoleAdmin}."
      },
      "getRoleMember(bytes32,uint256)": {
        "details": "Returns one of the accounts that have `role`. `index` must be a value between 0 and {getRoleMemberCount}, non-inclusive. Role bearers are not sorted in any particular way, and their ordering may change at any point. WARNING: When using {getRoleMember} and {getRoleMemberCount}, make sure you perform all queries on the same block. See the following https://forum.openzeppelin.com/t/iterating-over-elements-on-enumerableset-in-openzeppelin-contracts/2296[forum post] for more information."
      },
      "getRoleMemberCount(bytes32)": {
        "details": "Returns the number of accounts that have `role`. Can be used together with {getRoleMember} to enumerate all bearers of a role."
      },
      "grantRole(bytes32,address)": {
        "details": "Grants `role` to `account`. If `account` had not been already granted `role`, emits a {RoleGranted} event. Requirements: - the caller must have ``role``'s admin role."
      },
      "hasRole(bytes32,address)": {
        "details": "Returns `true` if `account` has been granted `role`."
      },
      "initialize(address)": {
        "details": "Constructor for initializing the SToken contract.",
        "params": {
          "pauserAddress": "- address of the pauser admin."
        }
      },
      "pause()": {
        "details": "Triggers stopped state. Requirements: - The contract must not be paused."
      },
      "paused()": {
        "details": "Returns true if the contract is paused, and false otherwise."
      },
      "removeWhitelistedAddress(address)": {
        "details": "remove whitelisted address"
      },
      "renounceRole(bytes32,address)": {
        "details": "Revokes `role` from the calling account. Roles are often managed via {grantRole} and {revokeRole}: this function's purpose is to provide a mechanism for accounts to lose their privileges if they are compromised (such as when a trusted device is misplaced). If the calling account had been granted `role`, emits a {RoleRevoked} event. Requirements: - the caller must be `account`."
      },
      "revokeRole(bytes32,address)": {
        "details": "Revokes `role` from `account`. If `account` had been granted `role`, emits a {RoleRevoked} event. Requirements: - the caller must have ``role``'s admin role."
      },
      "setBatchingLimit(uint256)": {
        "details": "Set 'batching limit', called from admin Emits a {SetBatchingLimit} event."
      },
      "setWhitelistedAddress(address,address[],address,address)": {
        "details": "set whitelisted address"
      },
      "unpause()": {
        "details": "Returns to normal state. Requirements: - The contract must be paused."
      }
    },
    "stateVariables": {
      "_batchingLimit": {
        "details": "getter for _batchingLimit"
      }
    },
    "version": 1
  },
  "userdoc": {
    "kind": "user",
    "methods": {},
    "version": 1
  }
}