{
  "contractName": "WhitelistedEmissionV2",
  "abi": [
    {
      "anonymous": false,
      "inputs": [
        {
          "indexed": false,
          "internalType": "address",
          "name": "account",
          "type": "address"
        }
      ],
      "name": "Paused",
      "type": "event"
    },
    {
      "anonymous": false,
      "inputs": [
        {
          "indexed": false,
          "internalType": "address",
          "name": "whitelistedAddress",
          "type": "address"
        },
        {
          "indexed": false,
          "internalType": "address[]",
          "name": "sTokenAddressesLocal",
          "type": "address[]"
        },
        {
          "indexed": false,
          "internalType": "address",
          "name": "holderAddressLocal",
          "type": "address"
        },
        {
          "indexed": false,
          "internalType": "uint256",
          "name": "timestamp",
          "type": "uint256"
        }
      ],
      "name": "RemoveWhitelistedAddress",
      "type": "event"
    },
    {
      "anonymous": false,
      "inputs": [
        {
          "indexed": true,
          "internalType": "bytes32",
          "name": "role",
          "type": "bytes32"
        },
        {
          "indexed": true,
          "internalType": "bytes32",
          "name": "previousAdminRole",
          "type": "bytes32"
        },
        {
          "indexed": true,
          "internalType": "bytes32",
          "name": "newAdminRole",
          "type": "bytes32"
        }
      ],
      "name": "RoleAdminChanged",
      "type": "event"
    },
    {
      "anonymous": false,
      "inputs": [
        {
          "indexed": true,
          "internalType": "bytes32",
          "name": "role",
          "type": "bytes32"
        },
        {
          "indexed": true,
          "internalType": "address",
          "name": "account",
          "type": "address"
        },
        {
          "indexed": true,
          "internalType": "address",
          "name": "sender",
          "type": "address"
        }
      ],
      "name": "RoleGranted",
      "type": "event"
    },
    {
      "anonymous": false,
      "inputs": [
        {
          "indexed": true,
          "internalType": "bytes32",
          "name": "role",
          "type": "bytes32"
        },
        {
          "indexed": true,
          "internalType": "address",
          "name": "account",
          "type": "address"
        },
        {
          "indexed": true,
          "internalType": "address",
          "name": "sender",
          "type": "address"
        }
      ],
      "name": "RoleRevoked",
      "type": "event"
    },
    {
      "anonymous": false,
      "inputs": [
        {
          "indexed": false,
          "internalType": "address",
          "name": "whitelistedAddress",
          "type": "address"
        },
        {
          "indexed": false,
          "internalType": "address[]",
          "name": "sTokenAddressesLocal",
          "type": "address[]"
        },
        {
          "indexed": false,
          "internalType": "address",
          "name": "holderContractAddress",
          "type": "address"
        },
        {
          "indexed": false,
          "internalType": "address",
          "name": "lpContractAddress",
          "type": "address"
        },
        {
          "indexed": false,
          "internalType": "uint256",
          "name": "timestamp",
          "type": "uint256"
        }
      ],
      "name": "SetWhitelistedAddress",
      "type": "event"
    },
    {
      "anonymous": false,
      "inputs": [
        {
          "indexed": false,
          "internalType": "address",
          "name": "account",
          "type": "address"
        }
      ],
      "name": "Unpaused",
      "type": "event"
    },
    {
      "inputs": [],
      "name": "DEFAULT_ADMIN_ROLE",
      "outputs": [
        {
          "internalType": "bytes32",
          "name": "",
          "type": "bytes32"
        }
      ],
      "stateMutability": "view",
      "type": "function"
    },
    {
      "inputs": [],
      "name": "PAUSER_ROLE",
      "outputs": [
        {
          "internalType": "bytes32",
          "name": "",
          "type": "bytes32"
        }
      ],
      "stateMutability": "view",
      "type": "function"
    },
    {
      "inputs": [
        {
          "internalType": "address",
          "name": "",
          "type": "address"
        }
      ],
      "name": "_holderLPToken",
      "outputs": [
        {
          "internalType": "address",
          "name": "",
          "type": "address"
        }
      ],
      "stateMutability": "view",
      "type": "function"
    },
    {
      "inputs": [
        {
          "internalType": "address",
          "name": "",
          "type": "address"
        },
        {
          "internalType": "uint256",
          "name": "",
          "type": "uint256"
        }
      ],
      "name": "_holderWhitelists",
      "outputs": [
        {
          "internalType": "address",
          "name": "",
          "type": "address"
        }
      ],
      "stateMutability": "view",
      "type": "function"
    },
    {
      "inputs": [],
      "name": "_version",
      "outputs": [
        {
          "internalType": "uint256",
          "name": "",
          "type": "uint256"
        }
      ],
      "stateMutability": "view",
      "type": "function"
    },
    {
      "inputs": [
        {
          "internalType": "address",
          "name": "",
          "type": "address"
        }
      ],
      "name": "_whitelistedAddressHolder",
      "outputs": [
        {
          "internalType": "address",
          "name": "",
          "type": "address"
        }
      ],
      "stateMutability": "view",
      "type": "function"
    },
    {
      "inputs": [
        {
          "internalType": "address",
          "name": "",
          "type": "address"
        },
        {
          "internalType": "address",
          "name": "",
          "type": "address"
        },
        {
          "internalType": "uint256",
          "name": "",
          "type": "uint256"
        }
      ],
      "name": "_whitelistedSTokenAddresses",
      "outputs": [
        {
          "internalType": "address",
          "name": "",
          "type": "address"
        }
      ],
      "stateMutability": "view",
      "type": "function"
    },
    {
      "inputs": [
        {
          "internalType": "bytes32",
          "name": "role",
          "type": "bytes32"
        }
      ],
      "name": "getRoleAdmin",
      "outputs": [
        {
          "internalType": "bytes32",
          "name": "",
          "type": "bytes32"
        }
      ],
      "stateMutability": "view",
      "type": "function"
    },
    {
      "inputs": [
        {
          "internalType": "bytes32",
          "name": "role",
          "type": "bytes32"
        },
        {
          "internalType": "uint256",
          "name": "index",
          "type": "uint256"
        }
      ],
      "name": "getRoleMember",
      "outputs": [
        {
          "internalType": "address",
          "name": "",
          "type": "address"
        }
      ],
      "stateMutability": "view",
      "type": "function"
    },
    {
      "inputs": [
        {
          "internalType": "bytes32",
          "name": "role",
          "type": "bytes32"
        }
      ],
      "name": "getRoleMemberCount",
      "outputs": [
        {
          "internalType": "uint256",
          "name": "",
          "type": "uint256"
        }
      ],
      "stateMutability": "view",
      "type": "function"
    },
    {
      "inputs": [
        {
          "internalType": "bytes32",
          "name": "role",
          "type": "bytes32"
        },
        {
          "internalType": "address",
          "name": "account",
          "type": "address"
        }
      ],
      "name": "grantRole",
      "outputs": [],
      "stateMutability": "nonpayable",
      "type": "function"
    },
    {
      "inputs": [
        {
          "internalType": "bytes32",
          "name": "role",
          "type": "bytes32"
        },
        {
          "internalType": "address",
          "name": "account",
          "type": "address"
        }
      ],
      "name": "hasRole",
      "outputs": [
        {
          "internalType": "bool",
          "name": "",
          "type": "bool"
        }
      ],
      "stateMutability": "view",
      "type": "function"
    },
    {
      "inputs": [],
      "name": "paused",
      "outputs": [
        {
          "internalType": "bool",
          "name": "",
          "type": "bool"
        }
      ],
      "stateMutability": "view",
      "type": "function"
    },
    {
      "inputs": [
        {
          "internalType": "bytes32",
          "name": "role",
          "type": "bytes32"
        },
        {
          "internalType": "address",
          "name": "account",
          "type": "address"
        }
      ],
      "name": "renounceRole",
      "outputs": [],
      "stateMutability": "nonpayable",
      "type": "function"
    },
    {
      "inputs": [
        {
          "internalType": "bytes32",
          "name": "role",
          "type": "bytes32"
        },
        {
          "internalType": "address",
          "name": "account",
          "type": "address"
        }
      ],
      "name": "revokeRole",
      "outputs": [],
      "stateMutability": "nonpayable",
      "type": "function"
    },
    {
      "inputs": [
        {
          "internalType": "address",
          "name": "pauserAddress",
          "type": "address"
        }
      ],
      "name": "initialize",
      "outputs": [],
      "stateMutability": "nonpayable",
      "type": "function"
    },
    {
      "inputs": [
        {
          "internalType": "address",
          "name": "holderAddress",
          "type": "address"
        }
      ],
      "name": "getHolderData",
      "outputs": [
        {
          "internalType": "address[]",
          "name": "whitelistedAddresses",
          "type": "address[]"
        },
        {
          "internalType": "address[]",
          "name": "sTokenAddresses",
          "type": "address[]"
        },
        {
          "internalType": "address[]",
          "name": "uTokenAddresses",
          "type": "address[]"
        },
        {
          "internalType": "address",
          "name": "lpTokenAddress",
          "type": "address"
        }
      ],
      "stateMutability": "view",
      "type": "function"
    },
    {
      "inputs": [
        {
          "internalType": "address",
          "name": "whitelistedAddress",
          "type": "address"
        },
        {
          "internalType": "address[]",
          "name": "sTokenAddresses",
          "type": "address[]"
        },
        {
          "internalType": "address",
          "name": "holderContractAddress",
          "type": "address"
        },
        {
          "internalType": "address",
          "name": "lpContractAddress",
          "type": "address"
        }
      ],
      "name": "setWhitelistedAddress",
      "outputs": [
        {
          "internalType": "bool",
          "name": "success",
          "type": "bool"
        }
      ],
      "stateMutability": "nonpayable",
      "type": "function"
    },
    {
      "inputs": [
        {
          "internalType": "address",
          "name": "whitelistedAddress",
          "type": "address"
        }
      ],
      "name": "removeWhitelistedAddress",
      "outputs": [
        {
          "internalType": "bool",
          "name": "success",
          "type": "bool"
        }
      ],
      "stateMutability": "nonpayable",
      "type": "function"
    },
    {
      "inputs": [],
      "name": "pause",
      "outputs": [
        {
          "internalType": "bool",
          "name": "success",
          "type": "bool"
        }
      ],
      "stateMutability": "nonpayable",
      "type": "function"
    },
    {
      "inputs": [],
      "name": "unpause",
      "outputs": [
        {
          "internalType": "bool",
          "name": "success",
          "type": "bool"
        }
      ],
      "stateMutability": "nonpayable",
      "type": "function"
    }
  ],
  "bytecode": "0x608060405234801561001057600080fd5b50611dc2806100206000396000f3fe608060405234801561001057600080fd5b50600436106101375760003560e01c80635cc1e3f5116100b8578063a217fddf1161007c578063a217fddf1461044c578063c4d66de814610454578063ca15c8731461047a578063d547741f14610497578063e63ab1e9146104c3578063eab573dc146104cb57610137565b80635cc1e3f5146103a357806360253751146103c95780638456cb59146103f55780639010d07c146103fd57806391d148541461042057610137565b80633e118dbe116100ff5780633e118dbe1461032b5780633f4ba83a14610333578063530cd5ab1461034f578063562c4b50146103755780635c975abb1461039b57610137565b8063248a9ca31461013c57806326b7fa821461016b5780632f2ff15d146101bd57806336568abe146101eb57806336bbacad14610217575b600080fd5b6101596004803603602081101561015257600080fd5b5035610594565b60408051918252519081900360200190f35b6101a16004803603606081101561018157600080fd5b506001600160a01b038135811691602081013590911690604001356105a9565b604080516001600160a01b039092168252519081900360200190f35b6101e9600480360360408110156101d357600080fd5b50803590602001356001600160a01b03166105ee565b005b6101e96004803603604081101561020157600080fd5b50803590602001356001600160a01b031661065a565b61023d6004803603602081101561022d57600080fd5b50356001600160a01b03166106bb565b60405180806020018060200180602001856001600160a01b03168152602001848103845288818151815260200191508051906020019060200280838360005b8381101561029457818101518382015260200161027c565b50505050905001848103835287818151815260200191508051906020019060200280838360005b838110156102d35781810151838201526020016102bb565b50505050905001848103825286818151815260200191508051906020019060200280838360005b838110156103125781810151838201526020016102fa565b5050505090500197505050505050505060405180910390f35b6101596108ec565b61033b6108f2565b604080519115158252519081900360200190f35b61033b6004803603602081101561036557600080fd5b50356001600160a01b0316610956565b6101a16004803603602081101561038b57600080fd5b50356001600160a01b0316610e19565b61033b610e34565b6101a1600480360360208110156103b957600080fd5b50356001600160a01b0316610e3d565b6101a1600480360360408110156103df57600080fd5b506001600160a01b038135169060200135610e58565b61033b610e90565b6101a16004803603604081101561041357600080fd5b5080359060200135610eee565b61033b6004803603604081101561043657600080fd5b50803590602001356001600160a01b0316610f0f565b610159610f27565b6101e96004803603602081101561046a57600080fd5b50356001600160a01b0316610f2c565b6101596004803603602081101561049057600080fd5b503561100d565b6101e9600480360360408110156104ad57600080fd5b50803590602001356001600160a01b0316611024565b61015961107d565b61033b600480360360808110156104e157600080fd5b6001600160a01b03823516919081019060408101602082013564010000000081111561050c57600080fd5b82018360208201111561051e57600080fd5b8035906020019184602083028401116401000000008311171561054057600080fd5b919080806020026020016040519081016040528093929190818152602001838360200280828437600092019190915250929550506001600160a01b03833581169450602090930135909216915061108f9050565b60009081526065602052604090206002015490565b609960205282600052604060002060205281600052604060002081815481106105d157600080fd5b6000918252602090912001546001600160a01b0316925083915050565b6000828152606560205260409020600201546106119061060c611515565b610f0f565b61064c5760405162461bcd60e51b815260040180806020018281038252602f815260200180611cb1602f913960400191505060405180910390fd5b6106568282611519565b5050565b610662611515565b6001600160a01b0316816001600160a01b0316146106b15760405162461bcd60e51b815260040180806020018281038252602f815260200180611d5e602f913960400191505060405180910390fd5b6106568282611582565b6060806060600060986000866001600160a01b03166001600160a01b0316815260200190815260200160002080548060200260200160405190810160405280929190818152602001828054801561073b57602002820191906000526020600020905b81546001600160a01b0316815260019091019060200180831161071d575b505050506001600160a01b038781166000908152609b60205260408120549397509216925081905080808060605b89518610156108df576001600160a01b038b1660009081526099602052604081208b519091908c908990811061079b57fe5b60200260200101516001600160a01b03166001600160a01b0316815260200190815260200160002080548060200260200160405190810160405280929190818152602001828054801561081757602002820191906000526020600020905b81546001600160a01b031681526001909101906020018083116107f9575b50505050509050600094505b80518510156108cd5760009250600093505b88518410156108995780858151811061084a57fe5b60200260200101516001600160a01b031689858151811061086757fe5b60200260200101516001600160a01b031614156108875760019250610899565b6108928460016115eb565b9350610835565b826108bb578085815181106108aa57fe5b602090810291909101015189518a90fe5b6108c68560016115eb565b9450610823565b6108d88660016115eb565b9550610769565b5050505050509193509193565b60975481565b600061090e600080516020611d3e83398151915261060c611515565b610948576040805162461bcd60e51b815260206004808301919091526024820152635354313560e01b604482015290519081900360640190fd5b610950611645565b50600190565b60006109648161060c611515565b61099e576040805162461bcd60e51b8152602060048083019190915260248201526304c5034360e41b604482015290519081900360640190fd5b6001600160a01b0382166109e2576040805162461bcd60e51b815260206004808301919091526024820152634c50343160e01b604482015290519081900360640190fd5b6001600160a01b038083166000818152609a602081815260408084205490951680845260998252858420858552825292859020918152845193845293830182905242606084018190526080948401858152825495850186905292947f2953f6ab5bc40a923b43a5a72d28691e4f162c6f550e3b6a8ea9159e9a71b34394889487939260a083019086908015610aa057602002820191906000526020600020905b81546001600160a01b03168152600190910190602001808311610a82575b50509550505050505060405180910390a160005b6001600160a01b03808316600090815260996020908152604080832093881683529290522054811015610bbd576001600160a01b038083166000908152609960209081526040808320938816835292905220805482908110610b1257fe5b9060005260206000200160009054906101000a90046001600160a01b03166001600160a01b031663530cd5ab856040518263ffffffff1660e01b815260040180826001600160a01b03168152602001915050602060405180830381600087803b158015610b7e57600080fd5b505af1158015610b92573d6000803e3d6000fd5b505050506040513d6020811015610ba857600080fd5b50610bb690508160016115eb565b9050610ab4565b6001600160a01b038085166000818152609a6020908152604080832080546001600160a01b031916905593861682526099815283822092825291909152908120610c0691611c5c565b506000805b6001600160a01b038316600090815260986020526040902054821015610c89576001600160a01b03838116600090815260986020526040902080549187169184908110610c5457fe5b6000918252602090912001546001600160a01b03161415610c7757506001610c89565b610c828260016115eb565b9150610c0b565b8015610e0e576001600160a01b038316600090815260986020526040902054610cb39060016116e5565b821415610d02576001600160a01b0383166000908152609860205260409020805480610cdb57fe5b600082815260209020810160001990810180546001600160a01b0319169055019055610dca565b6001600160a01b03831660009081526098602052604090208054610d279060016116e5565b81548110610d3157fe5b60009182526020808320909101546001600160a01b03868116845260989092526040909220805491909216919084908110610d6857fe5b600091825260208083209190910180546001600160a01b0319166001600160a01b039485161790559185168152609890915260409020805480610da757fe5b600082815260209020810160001990810180546001600160a01b03191690550190555b6001600160a01b038316600090815260986020526040902054610e0e576001600160a01b0383166000908152609b6020526040902080546001600160a01b03191690555b506001949350505050565b609b602052600090815260409020546001600160a01b031681565b60335460ff1690565b609a602052600090815260409020546001600160a01b031681565b60986020528160005260406000208181548110610e7457600080fd5b6000918252602090912001546001600160a01b03169150829050565b6000610eac600080516020611d3e83398151915261060c611515565b610ee6576040805162461bcd60e51b8152602060048083019190915260248201526314d50c4d60e21b604482015290519081900360640190fd5b610950611742565b6000828152606560205260408120610f0690836117c5565b90505b92915050565b6000828152606560205260408120610f0690836117d1565b600081565b600054610100900460ff1680610f455750610f456117e6565b80610f53575060005460ff16155b610f8e5760405162461bcd60e51b815260040180806020018281038252602e815260200180611d10602e913960400191505060405180910390fd5b600054610100900460ff16158015610fb9576000805460ff1961ff0019909116610100171660011790555b610fc16117f7565b610fc96118a9565b610fdb6000610fd6611515565b61064c565b610ff3600080516020611d3e8339815191528361064c565b60016097558015610656576000805461ff00191690555050565b6000818152606560205260408120610f0990611946565b6000828152606560205260409020600201546110429061060c611515565b6106b15760405162461bcd60e51b8152600401808060200182810382526030815260200180611ce06030913960400191505060405180910390fd5b600080516020611d3e83398151915281565b600061109d8161060c611515565b6110d4576040805162461bcd60e51b81526020600482015260036024820152620a48a760eb1b604482015290519081900360640190fd5b6001600160a01b038516158015906110f457506001600160a01b03831615155b80156111005750835115155b61113a576040805162461bcd60e51b81526020600480830191909152602482015263098a066760e31b604482015290519081900360640190fd5b60005b84518110156112095784818151811061115257fe5b60200260200101516001600160a01b0316634bcb30f88786866040518463ffffffff1660e01b815260040180846001600160a01b03168152602001836001600160a01b03168152602001826001600160a01b031681526020019350505050602060405180830381600087803b1580156111ca57600080fd5b505af11580156111de573d6000803e3d6000fd5b505050506040513d60208110156111f457600080fd5b5061120290508160016115eb565b905061113d565b506001600160a01b038086166000908152609a6020908152604080832080548589166001600160a01b03199182168117909255908452609b909252822080549386169390911692909217909155805b6001600160a01b0385166000908152609860205260409020548210156112d6576001600160a01b038581166000908152609860205260409020805491891691849081106112a157fe5b6000918252602090912001546001600160a01b031614156112c4575060016112d6565b6112cf8260016115eb565b9150611258565b8061131a576001600160a01b0385811660009081526098602090815260408220805460018101825590835291200180546001600160a01b0319169189169190911790555b6001600160a01b038086166000818152609960209081526040808320858d16808552908352928190208151938452908301939093529287166060820152426080820181905260a093820184815283549483018590527f898021085aa6760dfff39976b4928c90f897cf85216261ef8a3746d755ef53dc948c94938b938b93909260c0830190879080156113d657602002820191906000526020600020905b81546001600160a01b031681526001909101906020018083116113b8575b5050965050505050505060405180910390a16001600160a01b038086166000908152609960209081526040808320938b16835292905220546115085760005b86518110156115065760006001600160a01b031687828151811061143557fe5b60200260200101516001600160a01b03161415611482576040805162461bcd60e51b815260206004808301919091526024820152634c50333960e01b604482015290519081900360640190fd5b6001600160a01b038087166000908152609960209081526040808320938c1683529290522087518890839081106114b557fe5b60209081029190910181015182546001808201855560009485529290932090920180546001600160a01b0319166001600160a01b03909316929092179091556114ff9082906115eb565b9050611415565b505b5060019695505050505050565b3390565b60008281526065602052604090206115319082611951565b156106565761153e611515565b6001600160a01b0316816001600160a01b0316837f2f8788117e7eff1d82e926ec794901d17c78024a50270940304540a733656f0d60405160405180910390a45050565b600082815260656020526040902061159a9082611966565b15610656576115a7611515565b6001600160a01b0316816001600160a01b0316837ff6391f5c32d9c69d2a47ea670b442974b53935d1edc7fd64eb21e047a839171b60405160405180910390a45050565b600082820183811015610f06576040805162461bcd60e51b815260206004820152601b60248201527f536166654d6174683a206164646974696f6e206f766572666c6f770000000000604482015290519081900360640190fd5b61164d610e34565b611695576040805162461bcd60e51b815260206004820152601460248201527314185d5cd8589b194e881b9bdd081c185d5cd95960621b604482015290519081900360640190fd5b6033805460ff191690557f5db9ee0a495bf2e6ff9c91a7834c1ba4fdd244a5e8aa4e537bd38aeae4b073aa6116c8611515565b604080516001600160a01b039092168252519081900360200190a1565b60008282111561173c576040805162461bcd60e51b815260206004820152601e60248201527f536166654d6174683a207375627472616374696f6e206f766572666c6f770000604482015290519081900360640190fd5b50900390565b61174a610e34565b1561178f576040805162461bcd60e51b815260206004820152601060248201526f14185d5cd8589b194e881c185d5cd95960821b604482015290519081900360640190fd5b6033805460ff191660011790557f62e78cea01bee320cd4e420270b5ea74000d11b0c9f74754ebdbfc544b05a2586116c8611515565b6000610f06838361197b565b6000610f06836001600160a01b0384166119df565b60006117f1306119f7565b15905090565b600054610100900460ff168061181057506118106117e6565b8061181e575060005460ff16155b6118595760405162461bcd60e51b815260040180806020018281038252602e815260200180611d10602e913960400191505060405180910390fd5b600054610100900460ff16158015611884576000805460ff1961ff0019909116610100171660011790555b61188c6119fd565b6118946119fd565b80156118a6576000805461ff00191690555b50565b600054610100900460ff16806118c257506118c26117e6565b806118d0575060005460ff16155b61190b5760405162461bcd60e51b815260040180806020018281038252602e815260200180611d10602e913960400191505060405180910390fd5b600054610100900460ff16158015611936576000805460ff1961ff0019909116610100171660011790555b61193e6119fd565b611894611a9d565b6000610f0982611b48565b6000610f06836001600160a01b038416611b4c565b6000610f06836001600160a01b038416611b96565b815460009082106119bd5760405162461bcd60e51b8152600401808060200182810382526022815260200180611c8f6022913960400191505060405180910390fd5b8260000182815481106119cc57fe5b9060005260206000200154905092915050565b60009081526001919091016020526040902054151590565b3b151590565b600054610100900460ff1680611a165750611a166117e6565b80611a24575060005460ff16155b611a5f5760405162461bcd60e51b815260040180806020018281038252602e815260200180611d10602e913960400191505060405180910390fd5b600054610100900460ff16158015611894576000805460ff1961ff00199091166101001716600117905580156118a6576000805461ff001916905550565b600054610100900460ff1680611ab65750611ab66117e6565b80611ac4575060005460ff16155b611aff5760405162461bcd60e51b815260040180806020018281038252602e815260200180611d10602e913960400191505060405180910390fd5b600054610100900460ff16158015611b2a576000805460ff1961ff0019909116610100171660011790555b6033805460ff1916905580156118a6576000805461ff001916905550565b5490565b6000611b5883836119df565b611b8e57508154600181810184556000848152602080822090930184905584548482528286019093526040902091909155610f09565b506000610f09565b60008181526001830160205260408120548015611c525783546000198083019190810190600090879083908110611bc957fe5b9060005260206000200154905080876000018481548110611be657fe5b600091825260208083209091019290925582815260018981019092526040902090840190558654879080611c1657fe5b60019003818190600052602060002001600090559055866001016000878152602001908152602001600020600090556001945050505050610f09565b6000915050610f09565b50805460008255906000526020600020908101906118a691905b80821115611c8a5760008155600101611c76565b509056fe456e756d657261626c655365743a20696e646578206f7574206f6620626f756e6473416363657373436f6e74726f6c3a2073656e646572206d75737420626520616e2061646d696e20746f206772616e74416363657373436f6e74726f6c3a2073656e646572206d75737420626520616e2061646d696e20746f207265766f6b65496e697469616c697a61626c653a20636f6e747261637420697320616c726561647920696e697469616c697a656465d7a28e3265b37a6474929f336521b332c1681b933f6cb9f3376673440d862a416363657373436f6e74726f6c3a2063616e206f6e6c792072656e6f756e636520726f6c657320666f722073656c66a2646970667358221220920fe0344101089f98a13e26b7af500a4f9d286bb1c3e2bf8134f7f87bbd611764736f6c63430007060033",
  "immutableReferences": {},
  "source": "// SPDX-License-Identifier: UNLICENSED\npragma solidity >=0.7.0;\n\nimport \"@openzeppelin/contracts-upgradeable/math/SafeMathUpgradeable.sol\";\nimport \"@openzeppelin/contracts-upgradeable/utils/PausableUpgradeable.sol\";\nimport \"@openzeppelin/contracts-upgradeable/utils/EnumerableSetUpgradeable.sol\";\nimport \"@openzeppelin/contracts-upgradeable/access/AccessControlUpgradeable.sol\";\nimport \"./interfaces/ISTokensV4.sol\";\nimport \"./interfaces/IWhitelistedEmissionV2.sol\";\n\ncontract WhitelistedEmissionV2 is\n\tIWhitelistedEmissionV2,\n\tPausableUpgradeable,\n\tAccessControlUpgradeable\n{\n\tusing SafeMathUpgradeable for uint256;\n\tusing EnumerableSetUpgradeable for EnumerableSetUpgradeable.AddressSet;\n\n\t// constants defining access control ROLES\n\tbytes32 public constant PAUSER_ROLE = keccak256(\"PAUSER_ROLE\");\n\t// variable pertaining to contract upgrades versioning\n\tuint256 public _version;\n\n\t// list of whitelisted addresses for a particular holder contract\n\tmapping(address => address[]) public _holderWhitelists;\n\t// list of SToken addresses for a particular holder contract, for a particular whitelisted address\n\tmapping(address => mapping(address => address[]))\n\t\tpublic _whitelistedSTokenAddresses;\n\t// holder address for a particular whitelisted contract\n\tmapping(address => address) public _whitelistedAddressHolder;\n\t// lp token address for a particular holder address\n\tmapping(address => address) public _holderLPToken;\n\n\t/**\n\t * @dev Constructor for initializing the SToken contract.\n\t * @param pauserAddress - address of the pauser admin.\n\t */\n\tfunction initialize(address pauserAddress) public virtual initializer {\n\t\t__AccessControl_init();\n\t\t__Pausable_init();\n\t\t_setupRole(DEFAULT_ADMIN_ROLE, _msgSender());\n\t\t_setupRole(PAUSER_ROLE, pauserAddress);\n\t\t_version = 1;\n\t}\n\n\t/**\n\t * @dev Calculate pending rewards for the provided 'address'. The rate is the moving reward rate.\n\t * @param holderAddress: contract address\n\t */\n\tfunction getHolderData(address holderAddress)\n\t\tpublic\n\t\tview\n\t\tvirtual\n\t\toverride\n\t\treturns (\n\t\t\taddress[] memory whitelistedAddresses,\n\t\t\taddress[] memory sTokenAddresses,\n\t\t\taddress[] memory uTokenAddresses,\n\t\t\taddress lpTokenAddress\n\t\t)\n\t{\n\t\twhitelistedAddresses = _holderWhitelists[holderAddress];\n\t\t// for each whitelisted address, find the array of sTokenAddresses\n\t\tuint256 j;\n\t\tuint256 k;\n\t\tuint256 m;\n\t\tbool matchingIndexFound;\n\t\taddress uTokenAddress;\n\t\taddress[] memory sTokenAddressesLocal;\n\n\t\tlpTokenAddress = _holderLPToken[holderAddress];\n\n\t\tfor (j = 0; j < whitelistedAddresses.length; j = j.add(1)) {\n\t\t\t// get the sToken arrays of each whitelisted address\n\t\t\tsTokenAddressesLocal = _whitelistedSTokenAddresses[holderAddress][\n\t\t\t\twhitelistedAddresses[j]\n\t\t\t];\n\t\t\t// add each element of sTokenAddressesLocal to sTokenAddress, making sure there are no duplicates\n\t\t\tfor (k = 0; k < sTokenAddressesLocal.length; k = k.add(1)) {\n\t\t\t\tmatchingIndexFound = false;\n\t\t\t\tfor (m = 0; m < sTokenAddresses.length; m = m.add(1)) {\n\t\t\t\t\tif (sTokenAddresses[m] == sTokenAddressesLocal[k]) {\n\t\t\t\t\t\tmatchingIndexFound = true;\n\t\t\t\t\t\tbreak;\n\t\t\t\t\t}\n\t\t\t\t}\n\t\t\t\t// if a match is found, do nothing, else add the element\n\t\t\t\tif (!matchingIndexFound) {\n\t\t\t\t\tsTokenAddresses[\n\t\t\t\t\t\tsTokenAddresses.length\n\t\t\t\t\t] = sTokenAddressesLocal[k];\n\t\t\t\t\tuTokenAddress = ISTokensV4(sTokenAddressesLocal[k])\n\t\t\t\t\t\t.getUTokenAddress();\n\t\t\t\t\tuTokenAddresses[uTokenAddresses.length] = uTokenAddress;\n\t\t\t\t}\n\t\t\t}\n\t\t}\n\t}\n\n\t/*\n\t * @dev Set 'whitelisted address', performed by admin only\n\t * @param whitelistedAddress: contract address of the whitelisted party\n\t *\n\t * Emits a {setWhitelistedAddress} event\n\t *\n\t */\n\tfunction setWhitelistedAddress(\n\t\taddress whitelistedAddress,\n\t\taddress[] memory sTokenAddresses,\n\t\taddress holderContractAddress,\n\t\taddress lpContractAddress\n\t) public virtual override returns (bool success) {\n\t\trequire(hasRole(DEFAULT_ADMIN_ROLE, _msgSender()), \"RE8\");\n\t\t// lpTokenERC20ContractAddress or sTokenReserveContractAddress can be address(0) but not whitelistedAddress\n\t\t// have set holderContract also as non-zero, can allow lpContractAddress to be zero for control\n\t\trequire(\n\t\t\twhitelistedAddress != address(0) &&\n\t\t\t\tholderContractAddress != address(0) &&\n\t\t\t\tsTokenAddresses.length != 0,\n\t\t\t\"LP38\"\n\t\t);\n\n\t\t// SET WHITELISTING IN STOKEN CONTRACTS\n\t\tuint256 j;\n\t\t// for each sTokenAddress, set the whiteliste data\n\t\tfor (j = 0; j < sTokenAddresses.length; j = j.add(1)) {\n\t\t\tISTokensV4(sTokenAddresses[j]).setWhitelistedAddress(\n\t\t\t\twhitelistedAddress,\n\t\t\t\tholderContractAddress,\n\t\t\t\tlpContractAddress\n\t\t\t);\n\t\t}\n\t\t// --------------------------------------------------\n\n\t\t// ADD TO _holderWhitelists AND _whitelistedSTokenAddresses AND _whitelistedAddressHolder AND _holderLPToken\n\t\t_whitelistedAddressHolder[whitelistedAddress] = holderContractAddress;\n\t\t_holderLPToken[holderContractAddress] = lpContractAddress;\n\n\t\tbool whitelistedAddressExists;\n\t\tfor (\n\t\t\tj = 0;\n\t\t\tj < _holderWhitelists[holderContractAddress].length;\n\t\t\tj = j.add(1)\n\t\t) {\n\t\t\tif (\n\t\t\t\t_holderWhitelists[holderContractAddress][j] ==\n\t\t\t\twhitelistedAddress\n\t\t\t) {\n\t\t\t\twhitelistedAddressExists = true;\n\t\t\t\tbreak;\n\t\t\t}\n\t\t}\n\n\t\t// if whitelisted contract doesnt already exist then include it in the array\n\t\tif (!whitelistedAddressExists) {\n\t\t\t// add the whitelistedAddress to the _holderWhitelists array\n\t\t\t_holderWhitelists[holderContractAddress].push(whitelistedAddress);\n\t\t}\n\n\t\t// --------------------------------------------------\n\n\t\t// emit event\n\t\temit SetWhitelistedAddress(\n\t\t\twhitelistedAddress,\n\t\t\t_whitelistedSTokenAddresses[holderContractAddress][\n\t\t\t\twhitelistedAddress\n\t\t\t],\n\t\t\tholderContractAddress,\n\t\t\tlpContractAddress,\n\t\t\tblock.timestamp\n\t\t);\n\n\t\t// ADD TO STOKENADDRESSES\n\t\t// check if sTokenAddress already exists\n\t\t/* address[] storage sTokenAddressesLocal = _whitelistedSTokenAddresses[\n\t\t\tholderContractAddress\n\t\t][whitelistedAddress]; */\n\t\tif (\n\t\t\t_whitelistedSTokenAddresses[holderContractAddress][\n\t\t\t\twhitelistedAddress\n\t\t\t].length == 0\n\t\t) {\n\t\t\t// check if all the sTokenAddresses provided are non zero\n\t\t\tfor (uint256 i = 0; i < sTokenAddresses.length; i = i.add(1)) {\n\t\t\t\trequire(sTokenAddresses[i] != address(0), \"LP39\");\n\t\t\t\t_whitelistedSTokenAddresses[holderContractAddress][\n\t\t\t\t\twhitelistedAddress\n\t\t\t\t].push(sTokenAddresses[i]);\n\t\t\t}\n\t\t}\n\n\t\tsuccess = true;\n\t\treturn success;\n\t}\n\n\t/*\n\t * @dev remove 'whitelisted address', performed by admin only\n\t * @param whitelistedAddress: contract address of the whitelisted party\n\t * @param holderContractAddress: holder contract address of the corresponding whitelistedAddress\n\t *\n\t * Emits a {RemoveWhitelistedAddress} event\n\t *\n\t */\n\tfunction removeWhitelistedAddress(address whitelistedAddress)\n\t\tpublic\n\t\tvirtual\n\t\toverride\n\t\treturns (bool success)\n\t{\n\t\trequire(hasRole(DEFAULT_ADMIN_ROLE, _msgSender()), \"LP40\");\n\t\trequire(whitelistedAddress != address(0), \"LP41\");\n\n\t\t// REMOVE WHITELISTING FROM _holderWhitelists AND _whitelistedSTokenAddresses AND _whitelistedAddressHolder AND _holderLPToken\n\n\t\t// get the holder address from _whitelistedAddressHolder\n\t\taddress holderAddressLocal = _whitelistedAddressHolder[\n\t\t\twhitelistedAddress\n\t\t];\n\n\t\t// emit event\n\t\temit RemoveWhitelistedAddress(\n\t\t\twhitelistedAddress,\n\t\t\t_whitelistedSTokenAddresses[holderAddressLocal][whitelistedAddress],\n\t\t\t_whitelistedAddressHolder[whitelistedAddress],\n\t\t\tblock.timestamp\n\t\t);\n\n\t\t// get the array of sTokenAddresses\n\t\t/* address[] memory sTokenAddressesLocal = _whitelistedSTokenAddresses[\n\t\t\tholderAddressLocal\n\t\t][whitelistedAddress]; */\n\n\t\t// for each SToken, call the remove whitelist function of that SToken\n\t\tuint256 j;\n\t\tfor (\n\t\t\tj = 0;\n\t\t\tj <\n\t\t\t_whitelistedSTokenAddresses[holderAddressLocal][whitelistedAddress]\n\t\t\t\t.length;\n\t\t\tj = j.add(1)\n\t\t) {\n\t\t\tISTokensV4(\n\t\t\t\t_whitelistedSTokenAddresses[holderAddressLocal][\n\t\t\t\t\twhitelistedAddress\n\t\t\t\t][j]\n\t\t\t).removeWhitelistedAddress(whitelistedAddress);\n\t\t}\n\n\t\tdelete _whitelistedAddressHolder[whitelistedAddress];\n\t\tdelete _whitelistedSTokenAddresses[holderAddressLocal][\n\t\t\twhitelistedAddress\n\t\t];\n\n\t\t/* address[] storage whitelistedAddressesLocal = _holderWhitelists[\n\t\t\tholderAddressLocal\n\t\t]; */\n\n\t\t// check if the whitelisted address exists is the _holderWhitelists array\n\n\t\tbool whitelistedAddressExists;\n\t\tfor (\n\t\t\tj = 0;\n\t\t\tj < _holderWhitelists[holderAddressLocal].length;\n\t\t\tj = j.add(1)\n\t\t) {\n\t\t\tif (\n\t\t\t\t_holderWhitelists[holderAddressLocal][j] == whitelistedAddress\n\t\t\t) {\n\t\t\t\twhitelistedAddressExists = true;\n\t\t\t\tbreak;\n\t\t\t}\n\t\t}\n\n\t\t// if whitelisted contract exists in the_holderWhitelists array then\n\t\t// remove the whitelisted address from the array of _holderWhitelists\n\t\tif (whitelistedAddressExists) {\n\t\t\tif (j == _holderWhitelists[holderAddressLocal].length.sub(1)) {\n\t\t\t\t_holderWhitelists[holderAddressLocal].pop();\n\t\t\t} else {\n\t\t\t\t_holderWhitelists[holderAddressLocal][j] = _holderWhitelists[\n\t\t\t\t\tholderAddressLocal\n\t\t\t\t][_holderWhitelists[holderAddressLocal].length.sub(1)];\n\t\t\t\t_holderWhitelists[holderAddressLocal].pop();\n\t\t\t}\n\t\t\t// if all the whitelisted addresses have been removed, then delete the lpToken associated with the holder address\n\t\t\tif (_holderWhitelists[holderAddressLocal].length == 0) {\n\t\t\t\tdelete _holderLPToken[holderAddressLocal];\n\t\t\t}\n\t\t}\n\n\t\tsuccess = true;\n\t\treturn success;\n\t}\n\n\t/**\n\t * @dev Triggers stopped state.\n\t *\n\t * Requirements:\n\t *\n\t * - The contract must not be paused.\n\t */\n\tfunction pause() public virtual override returns (bool success) {\n\t\trequire(hasRole(PAUSER_ROLE, _msgSender()), \"ST14\");\n\t\t_pause();\n\t\treturn true;\n\t}\n\n\t/**\n\t * @dev Returns to normal state.\n\t *\n\t * Requirements:\n\t *\n\t * - The contract must be paused.\n\t */\n\tfunction unpause() public virtual override returns (bool success) {\n\t\trequire(hasRole(PAUSER_ROLE, _msgSender()), \"ST15\");\n\t\t_unpause();\n\t\treturn true;\n\t}\n}\n",
  "sourcePath": "C:\\Users\\Kamlesh\\Persistence\\pStake\\codebase\\pStake-smartContracts\\contracts\\WhitelistedEmissionV2.sol",
  "compiler": {
    "name": "solc",
    "version": "0.7.6+commit.7338295f.Emscripten.clang"
  },
  "schemaVersion": "3.4.3",
  "updatedAt": "2021-09-21T09:56:12.766Z",
  "networkType": "ethereum",
  "devdoc": {
    "kind": "dev",
    "methods": {
      "getHolderData(address)": {
        "details": "Calculate pending rewards for the provided 'address'. The rate is the moving reward rate.",
        "params": {
          "holderAddress": ": contract address"
        }
      },
      "getRoleAdmin(bytes32)": {
        "details": "Returns the admin role that controls `role`. See {grantRole} and {revokeRole}. To change a role's admin, use {_setRoleAdmin}."
      },
      "getRoleMember(bytes32,uint256)": {
        "details": "Returns one of the accounts that have `role`. `index` must be a value between 0 and {getRoleMemberCount}, non-inclusive. Role bearers are not sorted in any particular way, and their ordering may change at any point. WARNING: When using {getRoleMember} and {getRoleMemberCount}, make sure you perform all queries on the same block. See the following https://forum.openzeppelin.com/t/iterating-over-elements-on-enumerableset-in-openzeppelin-contracts/2296[forum post] for more information."
      },
      "getRoleMemberCount(bytes32)": {
        "details": "Returns the number of accounts that have `role`. Can be used together with {getRoleMember} to enumerate all bearers of a role."
      },
      "grantRole(bytes32,address)": {
        "details": "Grants `role` to `account`. If `account` had not been already granted `role`, emits a {RoleGranted} event. Requirements: - the caller must have ``role``'s admin role."
      },
      "hasRole(bytes32,address)": {
        "details": "Returns `true` if `account` has been granted `role`."
      },
      "initialize(address)": {
        "details": "Constructor for initializing the SToken contract.",
        "params": {
          "pauserAddress": "- address of the pauser admin."
        }
      },
      "pause()": {
        "details": "Triggers stopped state. Requirements: - The contract must not be paused."
      },
      "paused()": {
        "details": "Returns true if the contract is paused, and false otherwise."
      },
      "renounceRole(bytes32,address)": {
        "details": "Revokes `role` from the calling account. Roles are often managed via {grantRole} and {revokeRole}: this function's purpose is to provide a mechanism for accounts to lose their privileges if they are compromised (such as when a trusted device is misplaced). If the calling account had been granted `role`, emits a {RoleRevoked} event. Requirements: - the caller must be `account`."
      },
      "revokeRole(bytes32,address)": {
        "details": "Revokes `role` from `account`. If `account` had been granted `role`, emits a {RoleRevoked} event. Requirements: - the caller must have ``role``'s admin role."
      },
      "unpause()": {
        "details": "Returns to normal state. Requirements: - The contract must be paused."
      }
    },
    "version": 1
  },
  "userdoc": {
    "kind": "user",
    "methods": {},
    "version": 1
  }
}