{
  "contractName": "WhitelistedPTokenEmissionV3",
  "abi": [
    {
      "anonymous": false,
      "inputs": [
        {
          "indexed": false,
          "internalType": "address",
          "name": "holderAddress",
          "type": "address"
        },
        {
          "indexed": false,
          "internalType": "uint256[]",
          "name": "holderRewards",
          "type": "uint256[]"
        },
        {
          "indexed": false,
          "internalType": "uint256",
          "name": "timestamp",
          "type": "uint256"
        }
      ],
      "name": "CalculateAllHolderRewards",
      "type": "event"
    },
    {
      "anonymous": false,
      "inputs": [
        {
          "indexed": false,
          "internalType": "address",
          "name": "account",
          "type": "address"
        }
      ],
      "name": "Paused",
      "type": "event"
    },
    {
      "anonymous": false,
      "inputs": [
        {
          "indexed": true,
          "internalType": "address",
          "name": "whitelistedAddress",
          "type": "address"
        },
        {
          "indexed": false,
          "internalType": "address[]",
          "name": "sTokenAddressesLocal",
          "type": "address[]"
        },
        {
          "indexed": true,
          "internalType": "address",
          "name": "holderAddressLocal",
          "type": "address"
        },
        {
          "indexed": true,
          "internalType": "uint256",
          "name": "timestamp",
          "type": "uint256"
        }
      ],
      "name": "RemoveWhitelistedAddress",
      "type": "event"
    },
    {
      "anonymous": false,
      "inputs": [
        {
          "indexed": true,
          "internalType": "bytes32",
          "name": "role",
          "type": "bytes32"
        },
        {
          "indexed": true,
          "internalType": "bytes32",
          "name": "previousAdminRole",
          "type": "bytes32"
        },
        {
          "indexed": true,
          "internalType": "bytes32",
          "name": "newAdminRole",
          "type": "bytes32"
        }
      ],
      "name": "RoleAdminChanged",
      "type": "event"
    },
    {
      "anonymous": false,
      "inputs": [
        {
          "indexed": true,
          "internalType": "bytes32",
          "name": "role",
          "type": "bytes32"
        },
        {
          "indexed": true,
          "internalType": "address",
          "name": "account",
          "type": "address"
        },
        {
          "indexed": true,
          "internalType": "address",
          "name": "sender",
          "type": "address"
        }
      ],
      "name": "RoleGranted",
      "type": "event"
    },
    {
      "anonymous": false,
      "inputs": [
        {
          "indexed": true,
          "internalType": "bytes32",
          "name": "role",
          "type": "bytes32"
        },
        {
          "indexed": true,
          "internalType": "address",
          "name": "account",
          "type": "address"
        },
        {
          "indexed": true,
          "internalType": "address",
          "name": "sender",
          "type": "address"
        }
      ],
      "name": "RoleRevoked",
      "type": "event"
    },
    {
      "anonymous": false,
      "inputs": [
        {
          "indexed": true,
          "internalType": "address",
          "name": "whitelistedAddress",
          "type": "address"
        },
        {
          "indexed": false,
          "internalType": "address[]",
          "name": "sTokenAddressesLocal",
          "type": "address[]"
        },
        {
          "indexed": true,
          "internalType": "address",
          "name": "holderContractAddress",
          "type": "address"
        },
        {
          "indexed": true,
          "internalType": "address",
          "name": "lpContractAddress",
          "type": "address"
        },
        {
          "indexed": false,
          "internalType": "uint256",
          "name": "timestamp",
          "type": "uint256"
        }
      ],
      "name": "SetWhitelistedAddress",
      "type": "event"
    },
    {
      "anonymous": false,
      "inputs": [
        {
          "indexed": false,
          "internalType": "address",
          "name": "account",
          "type": "address"
        }
      ],
      "name": "Unpaused",
      "type": "event"
    },
    {
      "inputs": [],
      "name": "DEFAULT_ADMIN_ROLE",
      "outputs": [
        {
          "internalType": "bytes32",
          "name": "",
          "type": "bytes32"
        }
      ],
      "stateMutability": "view",
      "type": "function"
    },
    {
      "inputs": [],
      "name": "PAUSER_ROLE",
      "outputs": [
        {
          "internalType": "bytes32",
          "name": "",
          "type": "bytes32"
        }
      ],
      "stateMutability": "view",
      "type": "function"
    },
    {
      "inputs": [
        {
          "internalType": "address",
          "name": "",
          "type": "address"
        }
      ],
      "name": "_holderLPToken",
      "outputs": [
        {
          "internalType": "address",
          "name": "",
          "type": "address"
        }
      ],
      "stateMutability": "view",
      "type": "function"
    },
    {
      "inputs": [
        {
          "internalType": "address",
          "name": "",
          "type": "address"
        },
        {
          "internalType": "uint256",
          "name": "",
          "type": "uint256"
        }
      ],
      "name": "_holderSTokens",
      "outputs": [
        {
          "internalType": "address",
          "name": "",
          "type": "address"
        }
      ],
      "stateMutability": "view",
      "type": "function"
    },
    {
      "inputs": [
        {
          "internalType": "address",
          "name": "",
          "type": "address"
        },
        {
          "internalType": "uint256",
          "name": "",
          "type": "uint256"
        }
      ],
      "name": "_holderWhitelists",
      "outputs": [
        {
          "internalType": "address",
          "name": "",
          "type": "address"
        }
      ],
      "stateMutability": "view",
      "type": "function"
    },
    {
      "inputs": [],
      "name": "_version",
      "outputs": [
        {
          "internalType": "uint256",
          "name": "",
          "type": "uint256"
        }
      ],
      "stateMutability": "view",
      "type": "function"
    },
    {
      "inputs": [
        {
          "internalType": "address",
          "name": "",
          "type": "address"
        }
      ],
      "name": "_whitelistedAddressHolder",
      "outputs": [
        {
          "internalType": "address",
          "name": "",
          "type": "address"
        }
      ],
      "stateMutability": "view",
      "type": "function"
    },
    {
      "inputs": [
        {
          "internalType": "address",
          "name": "",
          "type": "address"
        },
        {
          "internalType": "address",
          "name": "",
          "type": "address"
        },
        {
          "internalType": "uint256",
          "name": "",
          "type": "uint256"
        }
      ],
      "name": "_whitelistedSTokenAddresses",
      "outputs": [
        {
          "internalType": "address",
          "name": "",
          "type": "address"
        }
      ],
      "stateMutability": "view",
      "type": "function"
    },
    {
      "inputs": [
        {
          "internalType": "bytes32",
          "name": "role",
          "type": "bytes32"
        }
      ],
      "name": "getRoleAdmin",
      "outputs": [
        {
          "internalType": "bytes32",
          "name": "",
          "type": "bytes32"
        }
      ],
      "stateMutability": "view",
      "type": "function"
    },
    {
      "inputs": [
        {
          "internalType": "bytes32",
          "name": "role",
          "type": "bytes32"
        },
        {
          "internalType": "uint256",
          "name": "index",
          "type": "uint256"
        }
      ],
      "name": "getRoleMember",
      "outputs": [
        {
          "internalType": "address",
          "name": "",
          "type": "address"
        }
      ],
      "stateMutability": "view",
      "type": "function"
    },
    {
      "inputs": [
        {
          "internalType": "bytes32",
          "name": "role",
          "type": "bytes32"
        }
      ],
      "name": "getRoleMemberCount",
      "outputs": [
        {
          "internalType": "uint256",
          "name": "",
          "type": "uint256"
        }
      ],
      "stateMutability": "view",
      "type": "function"
    },
    {
      "inputs": [
        {
          "internalType": "bytes32",
          "name": "role",
          "type": "bytes32"
        },
        {
          "internalType": "address",
          "name": "account",
          "type": "address"
        }
      ],
      "name": "grantRole",
      "outputs": [],
      "stateMutability": "nonpayable",
      "type": "function"
    },
    {
      "inputs": [
        {
          "internalType": "bytes32",
          "name": "role",
          "type": "bytes32"
        },
        {
          "internalType": "address",
          "name": "account",
          "type": "address"
        }
      ],
      "name": "hasRole",
      "outputs": [
        {
          "internalType": "bool",
          "name": "",
          "type": "bool"
        }
      ],
      "stateMutability": "view",
      "type": "function"
    },
    {
      "inputs": [],
      "name": "paused",
      "outputs": [
        {
          "internalType": "bool",
          "name": "",
          "type": "bool"
        }
      ],
      "stateMutability": "view",
      "type": "function"
    },
    {
      "inputs": [
        {
          "internalType": "bytes32",
          "name": "role",
          "type": "bytes32"
        },
        {
          "internalType": "address",
          "name": "account",
          "type": "address"
        }
      ],
      "name": "renounceRole",
      "outputs": [],
      "stateMutability": "nonpayable",
      "type": "function"
    },
    {
      "inputs": [
        {
          "internalType": "bytes32",
          "name": "role",
          "type": "bytes32"
        },
        {
          "internalType": "address",
          "name": "account",
          "type": "address"
        }
      ],
      "name": "revokeRole",
      "outputs": [],
      "stateMutability": "nonpayable",
      "type": "function"
    },
    {
      "inputs": [
        {
          "internalType": "address",
          "name": "pauserAddress",
          "type": "address"
        }
      ],
      "name": "initialize",
      "outputs": [],
      "stateMutability": "nonpayable",
      "type": "function"
    },
    {
      "inputs": [
        {
          "internalType": "address",
          "name": "holderAddress",
          "type": "address"
        }
      ],
      "name": "getHolderData",
      "outputs": [
        {
          "internalType": "address[]",
          "name": "whitelistedAddresses",
          "type": "address[]"
        },
        {
          "internalType": "address[]",
          "name": "sTokenAddresses",
          "type": "address[]"
        },
        {
          "internalType": "address[]",
          "name": "uTokenAddresses",
          "type": "address[]"
        },
        {
          "internalType": "address",
          "name": "lpTokenAddress",
          "type": "address"
        }
      ],
      "stateMutability": "view",
      "type": "function"
    },
    {
      "inputs": [
        {
          "internalType": "address",
          "name": "sTokenAddress",
          "type": "address"
        },
        {
          "internalType": "address[]",
          "name": "whitelistedAddresses",
          "type": "address[]"
        }
      ],
      "name": "areContractsWhitelisted",
      "outputs": [
        {
          "internalType": "bool[]",
          "name": "areWhitelisted",
          "type": "bool[]"
        }
      ],
      "stateMutability": "view",
      "type": "function"
    },
    {
      "inputs": [
        {
          "internalType": "address",
          "name": "holderAddress",
          "type": "address"
        }
      ],
      "name": "calculateAllHolderRewards",
      "outputs": [
        {
          "internalType": "uint256[]",
          "name": "holderRewards",
          "type": "uint256[]"
        },
        {
          "internalType": "address[]",
          "name": "sTokenAddresses",
          "type": "address[]"
        },
        {
          "internalType": "address[]",
          "name": "uTokenAddresses",
          "type": "address[]"
        },
        {
          "internalType": "address",
          "name": "lpTokenAddress",
          "type": "address"
        }
      ],
      "stateMutability": "nonpayable",
      "type": "function"
    },
    {
      "inputs": [
        {
          "internalType": "address",
          "name": "holderAddress",
          "type": "address"
        }
      ],
      "name": "calculateAllPendingHolderRewards",
      "outputs": [
        {
          "internalType": "uint256[]",
          "name": "holderRewards",
          "type": "uint256[]"
        },
        {
          "internalType": "address[]",
          "name": "sTokenAddresses",
          "type": "address[]"
        },
        {
          "internalType": "address[]",
          "name": "uTokenAddresses",
          "type": "address[]"
        },
        {
          "internalType": "address",
          "name": "lpTokenAddress",
          "type": "address"
        }
      ],
      "stateMutability": "view",
      "type": "function"
    },
    {
      "inputs": [
        {
          "internalType": "address",
          "name": "whitelistedAddress",
          "type": "address"
        },
        {
          "internalType": "address[]",
          "name": "sTokenAddresses",
          "type": "address[]"
        },
        {
          "internalType": "address",
          "name": "holderContractAddress",
          "type": "address"
        },
        {
          "internalType": "address",
          "name": "lpContractAddress",
          "type": "address"
        }
      ],
      "name": "setWhitelistedAddress",
      "outputs": [],
      "stateMutability": "nonpayable",
      "type": "function"
    },
    {
      "inputs": [
        {
          "internalType": "address",
          "name": "whitelistedAddress",
          "type": "address"
        }
      ],
      "name": "removeWhitelistedAddress",
      "outputs": [],
      "stateMutability": "nonpayable",
      "type": "function"
    },
    {
      "inputs": [],
      "name": "pause",
      "outputs": [],
      "stateMutability": "nonpayable",
      "type": "function"
    },
    {
      "inputs": [],
      "name": "unpause",
      "outputs": [],
      "stateMutability": "nonpayable",
      "type": "function"
    }
  ],
  "bytecode": "0x608060405234801561001057600080fd5b50612732806100206000396000f3fe608060405234801561001057600080fd5b50600436106101735760003560e01c806363111f03116100de578063c4d66de811610097578063d547741f11610071578063d547741f14610628578063e63ab1e914610654578063eab573dc1461065c578063fdaaf2b81461072557610173565b8063c4d66de8146105bf578063ca15c873146105e5578063cad086551461060257610173565b806363111f03146104315780638456cb591461045d5780638575f9c7146104655780639010d07c1461056857806391d148541461058b578063a217fddf146105b757610173565b80633f4ba83a116101305780633f4ba83a1461036f578063530cd5ab14610377578063562c4b501461039d5780635c975abb146103c35780635cc1e3f5146103df578063602537511461040557610173565b8063248a9ca31461017857806326b7fa82146101a75780632f2ff15d146101f957806336568abe1461022757806336bbacad146102535780633e118dbe14610367575b600080fd5b6101956004803603602081101561018e57600080fd5b503561074b565b60408051918252519081900360200190f35b6101dd600480360360608110156101bd57600080fd5b506001600160a01b03813581169160208101359091169060400135610760565b604080516001600160a01b039092168252519081900360200190f35b6102256004803603604081101561020f57600080fd5b50803590602001356001600160a01b03166107a5565b005b6102256004803603604081101561023d57600080fd5b50803590602001356001600160a01b0316610811565b6102796004803603602081101561026957600080fd5b50356001600160a01b0316610872565b60405180806020018060200180602001856001600160a01b03168152602001848103845288818151815260200191508051906020019060200280838360005b838110156102d05781810151838201526020016102b8565b50505050905001848103835287818151815260200191508051906020019060200280838360005b8381101561030f5781810151838201526020016102f7565b50505050905001848103825286818151815260200191508051906020019060200280838360005b8381101561034e578181015183820152602001610336565b5050505090500197505050505050505060405180910390f35b610195610a84565b610225610a8a565b6102256004803603602081101561038d57600080fd5b50356001600160a01b0316610ae5565b6101dd600480360360208110156103b357600080fd5b50356001600160a01b0316610f95565b6103cb610fb0565b604080519115158252519081900360200190f35b6101dd600480360360208110156103f557600080fd5b50356001600160a01b0316610fb9565b6101dd6004803603604081101561041b57600080fd5b506001600160a01b038135169060200135610fd4565b6101dd6004803603604081101561044757600080fd5b506001600160a01b03813516906020013561100c565b610225611028565b6105186004803603604081101561047b57600080fd5b6001600160a01b0382351691908101906040810160208201356401000000008111156104a657600080fd5b8201836020820111156104b857600080fd5b803590602001918460208302840111640100000000831117156104da57600080fd5b919080806020026020016040519081016040528093929190818152602001838360200280828437600092019190915250929550611081945050505050565b60408051602080825283518183015283519192839290830191858101910280838360005b8381101561055457818101518382015260200161053c565b505050509050019250505060405180910390f35b6101dd6004803603604081101561057e57600080fd5b5080359060200135611275565b6103cb600480360360408110156105a157600080fd5b50803590602001356001600160a01b0316611296565b6101956112ae565b610225600480360360208110156105d557600080fd5b50356001600160a01b03166112b3565b610195600480360360208110156105fb57600080fd5b5035611394565b6102796004803603602081101561061857600080fd5b50356001600160a01b03166113ab565b6102256004803603604081101561063e57600080fd5b50803590602001356001600160a01b03166115ad565b610195611606565b6102256004803603608081101561067257600080fd5b6001600160a01b03823516919081019060408101602082013564010000000081111561069d57600080fd5b8201836020820111156106af57600080fd5b803590602001918460208302840111640100000000831117156106d157600080fd5b919080806020026020016040519081016040528093929190818152602001838360200280828437600092019190915250929550506001600160a01b0383358116945060209093013590921691506116189050565b6102796004803603602081101561073b57600080fd5b50356001600160a01b0316611b82565b60009081526065602052604090206002015490565b6099602052826000526040600020602052816000526040600020818154811061078857600080fd5b6000918252602090912001546001600160a01b0316925083915050565b6000828152606560205260409020600201546107c8906107c3611e85565b611296565b6108035760405162461bcd60e51b815260040180806020018281038252602f815260200180612621602f913960400191505060405180910390fd5b61080d8282611e89565b5050565b610819611e85565b6001600160a01b0316816001600160a01b0316146108685760405162461bcd60e51b815260040180806020018281038252602f8152602001806126ce602f913960400191505060405180910390fd5b61080d8282611ef2565b606080806000806001600160a01b03861615610a7c576001600160a01b038616600090815260986020908152604091829020805483518184028101840190945280845290918301828280156108f057602002820191906000526020600020905b81546001600160a01b031681526001909101906020018083116108d2575b5050506001600160a01b03808a166000908152609b6020908152604080832054609c8352928190208054825181850281018501909352808352979c509290931697509194909350915083018282801561097257602002820191906000526020600020905b81546001600160a01b03168152600190910190602001808311610954575b50505050509350835167ffffffffffffffff8111801561099157600080fd5b506040519080825280602002602001820160405280156109bb578160200160208202803683370190505b509250600090505b8351811015610a7c578381815181106109d857fe5b60200260200101516001600160a01b0316633d9e0c056040518163ffffffff1660e01b815260040160206040518083038186803b158015610a1857600080fd5b505afa158015610a2c573d6000803e3d6000fd5b505050506040513d6020811015610a4257600080fd5b50518351849083908110610a5257fe5b6001600160a01b0390921660209283029190910190910152610a75816001611f5b565b90506109c3565b509193509193565b60975481565b610aa46000805160206126ae8339815191526107c3611e85565b610adb576040805162461bcd60e51b815260206004820152600360248201526257503960e81b604482015290519081900360640190fd5b610ae3611fb5565b565b610af260006107c3611e85565b610b29576040805162461bcd60e51b81526020600482015260036024820152622ba81b60e91b604482015290519081900360640190fd5b6001600160a01b038116610b6a576040805162461bcd60e51b815260206004820152600360248201526257503760e81b604482015290519081900360640190fd5b6001600160a01b038082166000818152609a6020908152604080832054909416808352609982528483208484528252918490208451828152815492810183905292944294869490937f2953f6ab5bc40a923b43a5a72d28691e4f162c6f550e3b6a8ea9159e9a71b343939282919082019084908015610c1257602002820191906000526020600020905b81546001600160a01b03168152600190910190602001808311610bf4575b50509250505060405180910390a460005b6001600160a01b03808316600090815260996020908152604080832093871683529290522054811015610d2c576001600160a01b038083166000908152609960209081526040808320938716835292905220805482908110610c8157fe5b9060005260206000200160009054906101000a90046001600160a01b03166001600160a01b031663530cd5ab846040518263ffffffff1660e01b815260040180826001600160a01b03168152602001915050602060405180830381600087803b158015610ced57600080fd5b505af1158015610d01573d6000803e3d6000fd5b505050506040513d6020811015610d1757600080fd5b50610d259050816001611f5b565b9050610c23565b6001600160a01b038084166000818152609a6020908152604080832080546001600160a01b031916905593861682526099815283822092825291909152908120610d75916125cc565b506000805b6001600160a01b038316600090815260986020526040902054821015610df8576001600160a01b03838116600090815260986020526040902080549186169184908110610dc357fe5b6000918252602090912001546001600160a01b03161415610de657506001610df8565b610df1826001611f5b565b9150610d7a565b8015610f8f576001600160a01b038316600090815260986020526040902054610e22906001612055565b821415610e71576001600160a01b0383166000908152609860205260409020805480610e4a57fe5b600082815260209020810160001990810180546001600160a01b0319169055019055610f39565b6001600160a01b03831660009081526098602052604090208054610e96906001612055565b81548110610ea057fe5b60009182526020808320909101546001600160a01b03868116845260989092526040909220805491909216919084908110610ed757fe5b600091825260208083209190910180546001600160a01b0319166001600160a01b039485161790559185168152609890915260409020805480610f1657fe5b600082815260209020810160001990810180546001600160a01b03191690550190555b6001600160a01b038316600090815260986020526040902054610f8f576001600160a01b0383166000908152609b6020908152604080832080546001600160a01b0319169055609c9091528120610f8f916125cc565b50505050565b609b602052600090815260409020546001600160a01b031681565b60335460ff1690565b609a602052600090815260409020546001600160a01b031681565b60986020528160005260406000208181548110610ff057600080fd5b6000918252602090912001546001600160a01b03169150829050565b609c6020528160005260406000208181548110610ff057600080fd5b6110426000805160206126ae8339815191526107c3611e85565b611079576040805162461bcd60e51b81526020600482015260036024820152620aea0760eb1b604482015290519081900360640190fd5b610ae36120b2565b60606000806060600080865167ffffffffffffffff811180156110a357600080fd5b506040519080825280602002602001820160405280156110cd578160200160208202803683370190505b509550600094505b865185101561126a57609a60008887815181106110ee57fe5b60200260200101516001600160a01b03166001600160a01b0316815260200190815260200160002060009054906101000a90046001600160a01b0316915060996000836001600160a01b03166001600160a01b03168152602001908152602001600020600088878151811061115f57fe5b60200260200101516001600160a01b03166001600160a01b031681526020019081526020016000208054806020026020016040519081016040528092919081815260200182805480156111db57602002820191906000526020600020905b81546001600160a01b031681526001909101906020018083116111bd575b5050505050925060009050600093505b825184101561123b57876001600160a01b031683858151811061120a57fe5b60200260200101516001600160a01b031614156112295750600161123b565b611234846001611f5b565b93506111eb565b8086868151811061124857fe5b91151560209283029190910190910152611263856001611f5b565b94506110d5565b505050505092915050565b600082815260656020526040812061128d9083612135565b90505b92915050565b600082815260656020526040812061128d9083612141565b600081565b600054610100900460ff16806112cc57506112cc612156565b806112da575060005460ff16155b6113155760405162461bcd60e51b815260040180806020018281038252602e815260200180612680602e913960400191505060405180910390fd5b600054610100900460ff16158015611340576000805460ff1961ff0019909116610100171660011790555b611348612167565b611350612219565b611362600061135d611e85565b610803565b61137a6000805160206126ae83398151915283610803565b6001609755801561080d576000805461ff00191690555050565b6000818152606560205260408120611290906122b6565b606080606060008060008060006060806113c48b610872565b919b509950975090506001600160a01b038b1615806113ea57506001600160a01b038716155b806113f457508051155b806113fe57508751155b8061140857508851155b15611418575050505050506115a6565b885167ffffffffffffffff8111801561143057600080fd5b5060405190808252806020026020018201604052801561145a578160200160208202803683370190505b509950600095505b885186101561159f576000925061148c89878151811061147e57fe5b602002602001015182611081565b9150600094505b8051851015611575578185815181106114a857fe5b602002602001015115611563578886815181106114c157fe5b60200260200101516001600160a01b031663a203ccf88287815181106114e357fe5b60200260200101516040518263ffffffff1660e01b815260040180826001600160a01b0316815260200191505060606040518083038186803b15801561152857600080fd5b505afa15801561153c573d6000803e3d6000fd5b505050506040513d606081101561155257600080fd5b505193506115608385611f5b565b92505b61156e856001611f5b565b9450611493565b828a878151811061158257fe5b6020908102919091010152611598866001611f5b565b9550611462565b5050505050505b9193509193565b6000828152606560205260409020600201546115cb906107c3611e85565b6108685760405162461bcd60e51b81526004018080602001828103825260308152602001806126506030913960400191505060405180910390fd5b6000805160206126ae83398151915281565b61162560006107c3611e85565b61165c576040805162461bcd60e51b81526020600482015260036024820152622ba81960e91b604482015290519081900360640190fd5b6001600160a01b0384161580159061167c57506001600160a01b03821615155b80156116885750825115155b6116bf576040805162461bcd60e51b815260206004820152600360248201526257503360e81b604482015290519081900360640190fd5b600080805b6001600160a01b038516600090815260986020526040902054821015611743576001600160a01b0385811660009081526098602052604090208054918916918490811061170d57fe5b6000918252602090912001546001600160a01b031614156117315760019250611743565b61173c826001611f5b565b91506116c4565b8261178b576001600160a01b0385811660009081526098602090815260408220805460018101825590835291200180546001600160a01b0319169189169190911790556117be565b6040805162461bcd60e51b815260206004820152600360248201526215d40d60ea1b604482015290519081900360640190fd5b506001600160a01b038087166000908152609a602090815260408083208054858a166001600160a01b03199182168117909255908452609b9092528220805493871693909116929092179091555b8551811015611ac75760006001600160a01b031686828151811061182c57fe5b60200260200101516001600160a01b03161415611876576040805162461bcd60e51b815260206004820152600360248201526257503560e81b604482015290519081900360640190fd5b6001600160a01b038086166000908152609960209081526040808320938b1683529290522086518790839081106118a957fe5b60209081029190910181015182546001810184556000938452919092200180546001600160a01b0319166001600160a01b0390921691909117905585518690829081106118f257fe5b60200260200101516001600160a01b0316634bcb30f88887876040518463ffffffff1660e01b815260040180846001600160a01b03168152602001836001600160a01b03168152602001826001600160a01b031681526020019350505050602060405180830381600087803b15801561196a57600080fd5b505af115801561197e573d6000803e3d6000fd5b505050506040513d602081101561199457600080fd5b5060009250505b6001600160a01b0385166000908152609c6020526040902054821015611a33576001600160a01b0385166000908152609c602052604090208054839081106119df57fe5b60009182526020909120015486516001600160a01b0390911690879083908110611a0557fe5b60200260200101516001600160a01b03161415611a2157611a33565b611a2c826001611f5b565b915061199b565b6001600160a01b0385166000908152609c6020526040902054821415611ab5576001600160a01b0385166000908152609c602052604090208651879083908110611a7957fe5b60209081029190910181015182546001810184556000938452919092200180546001600160a01b0319166001600160a01b039092169190911790555b611ac0816001611f5b565b905061180c565b6001600160a01b0385811660008181526099602090815260408083208c8616808552908352928190208151429381018490528281528154928101839052958a16957f898021085aa6760dfff39976b4928c90f897cf85216261ef8a3746d755ef53dc9391928190606082019085908015611b6a57602002820191906000526020600020905b81546001600160a01b03168152600190910190602001808311611b4c575b5050935050505060405180910390a450505050505050565b60608060606000611b91610fb0565b15611bd6576040805162461bcd60e51b815260206004820152601060248201526f14185d5cd8589b194e881c185d5cd95960821b604482015290519081900360640190fd5b600080600080606080611be88b610872565b919b509950975090506001600160a01b038b1615801590611c0a575060008151115b8015611c17575060008851115b8015611c24575060008951115b8015611c3857506001600160a01b03871615155b611c6f576040805162461bcd60e51b815260206004820152600360248201526257503160e81b604482015290519081900360640190fd5b885167ffffffffffffffff81118015611c8757600080fd5b50604051908082528060200260200182016040528015611cb1578160200160208202803683370190505b509950600095505b8851861015611dea5760009250611cd589878151811061147e57fe5b9150600094505b8051851015611dc057818581518110611cf157fe5b602002602001015115611dae57888681518110611d0a57fe5b60200260200101516001600160a01b03166326d6772e828781518110611d2c57fe5b60200260200101516040518263ffffffff1660e01b815260040180826001600160a01b03168152602001915050606060405180830381600087803b158015611d7357600080fd5b505af1158015611d87573d6000803e3d6000fd5b505050506040513d6060811015611d9d57600080fd5b50519350611dab8385611f5b565b92505b611db9856001611f5b565b9450611cdc565b828a8781518110611dcd57fe5b6020908102919091010152611de3866001611f5b565b9550611cb9565b7fd8261636fd97ccb88da285fd47f09ffa348272b3fe63b45bd620a5c29ef64efb8b8b4260405180846001600160a01b0316815260200180602001838152602001828103825284818151815260200191508051906020019060200280838360005b83811015611e63578181015183820152602001611e4b565b5050505090500194505050505060405180910390a15050505050509193509193565b3390565b6000828152606560205260409020611ea190826122c1565b1561080d57611eae611e85565b6001600160a01b0316816001600160a01b0316837f2f8788117e7eff1d82e926ec794901d17c78024a50270940304540a733656f0d60405160405180910390a45050565b6000828152606560205260409020611f0a90826122d6565b1561080d57611f17611e85565b6001600160a01b0316816001600160a01b0316837ff6391f5c32d9c69d2a47ea670b442974b53935d1edc7fd64eb21e047a839171b60405160405180910390a45050565b60008282018381101561128d576040805162461bcd60e51b815260206004820152601b60248201527f536166654d6174683a206164646974696f6e206f766572666c6f770000000000604482015290519081900360640190fd5b611fbd610fb0565b612005576040805162461bcd60e51b815260206004820152601460248201527314185d5cd8589b194e881b9bdd081c185d5cd95960621b604482015290519081900360640190fd5b6033805460ff191690557f5db9ee0a495bf2e6ff9c91a7834c1ba4fdd244a5e8aa4e537bd38aeae4b073aa612038611e85565b604080516001600160a01b039092168252519081900360200190a1565b6000828211156120ac576040805162461bcd60e51b815260206004820152601e60248201527f536166654d6174683a207375627472616374696f6e206f766572666c6f770000604482015290519081900360640190fd5b50900390565b6120ba610fb0565b156120ff576040805162461bcd60e51b815260206004820152601060248201526f14185d5cd8589b194e881c185d5cd95960821b604482015290519081900360640190fd5b6033805460ff191660011790557f62e78cea01bee320cd4e420270b5ea74000d11b0c9f74754ebdbfc544b05a258612038611e85565b600061128d83836122eb565b600061128d836001600160a01b03841661234f565b600061216130612367565b15905090565b600054610100900460ff16806121805750612180612156565b8061218e575060005460ff16155b6121c95760405162461bcd60e51b815260040180806020018281038252602e815260200180612680602e913960400191505060405180910390fd5b600054610100900460ff161580156121f4576000805460ff1961ff0019909116610100171660011790555b6121fc61236d565b61220461236d565b8015612216576000805461ff00191690555b50565b600054610100900460ff16806122325750612232612156565b80612240575060005460ff16155b61227b5760405162461bcd60e51b815260040180806020018281038252602e815260200180612680602e913960400191505060405180910390fd5b600054610100900460ff161580156122a6576000805460ff1961ff0019909116610100171660011790555b6122ae61236d565b61220461240d565b6000611290826124b8565b600061128d836001600160a01b0384166124bc565b600061128d836001600160a01b038416612506565b8154600090821061232d5760405162461bcd60e51b81526004018080602001828103825260228152602001806125ff6022913960400191505060405180910390fd5b82600001828154811061233c57fe5b9060005260206000200154905092915050565b60009081526001919091016020526040902054151590565b3b151590565b600054610100900460ff16806123865750612386612156565b80612394575060005460ff16155b6123cf5760405162461bcd60e51b815260040180806020018281038252602e815260200180612680602e913960400191505060405180910390fd5b600054610100900460ff16158015612204576000805460ff1961ff0019909116610100171660011790558015612216576000805461ff001916905550565b600054610100900460ff16806124265750612426612156565b80612434575060005460ff16155b61246f5760405162461bcd60e51b815260040180806020018281038252602e815260200180612680602e913960400191505060405180910390fd5b600054610100900460ff1615801561249a576000805460ff1961ff0019909116610100171660011790555b6033805460ff191690558015612216576000805461ff001916905550565b5490565b60006124c8838361234f565b6124fe57508154600181810184556000848152602080822090930184905584548482528286019093526040902091909155611290565b506000611290565b600081815260018301602052604081205480156125c2578354600019808301919081019060009087908390811061253957fe5b906000526020600020015490508087600001848154811061255657fe5b60009182526020808320909101929092558281526001898101909252604090209084019055865487908061258657fe5b60019003818190600052602060002001600090559055866001016000878152602001908152602001600020600090556001945050505050611290565b6000915050611290565b508054600082559060005260206000209081019061221691905b808211156125fa57600081556001016125e6565b509056fe456e756d657261626c655365743a20696e646578206f7574206f6620626f756e6473416363657373436f6e74726f6c3a2073656e646572206d75737420626520616e2061646d696e20746f206772616e74416363657373436f6e74726f6c3a2073656e646572206d75737420626520616e2061646d696e20746f207265766f6b65496e697469616c697a61626c653a20636f6e747261637420697320616c726561647920696e697469616c697a656465d7a28e3265b37a6474929f336521b332c1681b933f6cb9f3376673440d862a416363657373436f6e74726f6c3a2063616e206f6e6c792072656e6f756e636520726f6c657320666f722073656c66a264697066735822122074a2c2443f5bc5adb816cc49386e5d27505cde7043381f9039799a6fa2bfdcae64736f6c63430007060033",
  "immutableReferences": {},
  "source": "/*\n Copyright [2019] - [2021], PERSISTENCE TECHNOLOGIES PTE. LTD. and the pStake-smartContracts contributors\n SPDX-License-Identifier: Apache-2.0\n*/\n\npragma solidity >=0.7.0;\n\nimport \"@openzeppelin/contracts-upgradeable/math/SafeMathUpgradeable.sol\";\nimport \"@openzeppelin/contracts-upgradeable/utils/PausableUpgradeable.sol\";\nimport \"@openzeppelin/contracts-upgradeable/utils/EnumerableSetUpgradeable.sol\";\nimport \"@openzeppelin/contracts-upgradeable/access/AccessControlUpgradeable.sol\";\nimport \"./interfaces/ISTokensV3.sol\";\nimport \"./interfaces/IWhitelistedPTokenEmissionV3.sol\";\n\ncontract WhitelistedPTokenEmissionV3 is\n\tIWhitelistedPTokenEmissionV3,\n\tPausableUpgradeable,\n\tAccessControlUpgradeable\n{\n\tusing SafeMathUpgradeable for uint256;\n\tusing EnumerableSetUpgradeable for EnumerableSetUpgradeable.AddressSet;\n\n\t// constants defining access control ROLES\n\tbytes32 public constant PAUSER_ROLE = keccak256(\"PAUSER_ROLE\");\n\t// variable pertaining to contract upgrades versioning\n\tuint256 public _version;\n\n\t// -------------------------------------------------------------------------\n\t// -------------------------------------------------------------------------\n\n\t// ::HOLDER WHITELISTINGS FOR PTOKENS REWARD EMISSION::\n\t// list of whitelisted addresses for a particular holder contract\n\tmapping(address => address[]) public _holderWhitelists;\n\t// list of SToken addresses for a particular holder contract, for a particular whitelisted address\n\tmapping(address => mapping(address => address[]))\n\t\tpublic _whitelistedSTokenAddresses;\n\t// holder address for a particular whitelisted contract\n\tmapping(address => address) public _whitelistedAddressHolder;\n\t// lp token address for a particular holder address\n\tmapping(address => address) public _holderLPToken;\n\t// STokens pertaining to a holder address\n\tmapping(address => address[]) public _holderSTokens;\n\n\t// -------------------------------------------------------------------------\n\t// -------------------------------------------------------------------------\n\n\t/**\n\t * @dev Constructor for initializing the SToken contract.\n\t * @param pauserAddress - address of the pauser admin.\n\t */\n\tfunction initialize(address pauserAddress) public virtual initializer {\n\t\t__AccessControl_init();\n\t\t__Pausable_init();\n\t\t_setupRole(DEFAULT_ADMIN_ROLE, _msgSender());\n\t\t_setupRole(PAUSER_ROLE, pauserAddress);\n\t\t_version = 1;\n\t}\n\n\t/**\n\t * @dev Calculate pending rewards for the provided 'address'. The rate is the moving reward rate.\n\t * @param holderAddress: contract address\n\t */\n\tfunction getHolderData(address holderAddress)\n\t\tpublic\n\t\tview\n\t\tvirtual\n\t\toverride\n\t\treturns (\n\t\t\taddress[] memory whitelistedAddresses,\n\t\t\taddress[] memory sTokenAddresses,\n\t\t\taddress[] memory uTokenAddresses,\n\t\t\taddress lpTokenAddress\n\t\t)\n\t{\n\t\tuint256 k;\n\t\tif (holderAddress != address(0)) {\n\t\t\twhitelistedAddresses = _holderWhitelists[holderAddress];\n\t\t\tlpTokenAddress = _holderLPToken[holderAddress];\n\t\t\tsTokenAddresses = _holderSTokens[holderAddress];\n\t\t\tuTokenAddresses = new address[](sTokenAddresses.length);\n\t\t\tfor (k = 0; k < sTokenAddresses.length; k = k.add(1)) {\n\t\t\t\tuTokenAddresses[k] = ISTokensV3(sTokenAddresses[k])\n\t\t\t\t\t.getUTokenAddress();\n\t\t\t}\n\t\t}\n\t}\n\n\t/**\n\t * @dev Check if contracts are whitelisted\n\t * @param sTokenAddress: sToken contract address\n\t * @param whitelistedAddresses: whitelisted contract address in array\n\t */\n\tfunction areContractsWhitelisted(\n\t\taddress sTokenAddress,\n\t\taddress[] memory whitelistedAddresses\n\t) public view virtual override returns (bool[] memory areWhitelisted) {\n\t\tuint256 k;\n\t\tuint256 j;\n\t\taddress[] memory sTokenAddressesLocal;\n\t\taddress holderAddressLocal;\n\t\tbool isStokenMatch;\n\t\tareWhitelisted = new bool[](whitelistedAddresses.length);\n\t\tfor (k = 0; k < whitelistedAddresses.length; k = k.add(1)) {\n\t\t\tholderAddressLocal = _whitelistedAddressHolder[\n\t\t\t\twhitelistedAddresses[k]\n\t\t\t];\n\t\t\tsTokenAddressesLocal = _whitelistedSTokenAddresses[\n\t\t\t\tholderAddressLocal\n\t\t\t][whitelistedAddresses[k]];\n\t\t\tisStokenMatch = false;\n\t\t\tfor (j = 0; j < sTokenAddressesLocal.length; j = j.add(1)) {\n\t\t\t\tif (sTokenAddressesLocal[j] == sTokenAddress) {\n\t\t\t\t\tisStokenMatch = true;\n\t\t\t\t\tbreak;\n\t\t\t\t}\n\t\t\t}\n\n\t\t\tareWhitelisted[k] = isStokenMatch;\n\t\t}\n\t}\n\n\t/**\n\t * @dev Calculate rewards for the holder 'address'.\n\t * @param holderAddress: holder contract address\n\t */\n\tfunction calculateAllHolderRewards(address holderAddress)\n\t\tpublic\n\t\tvirtual\n\t\toverride\n\t\twhenNotPaused\n\t\treturns (\n\t\t\tuint256[] memory holderRewards,\n\t\t\taddress[] memory sTokenAddresses,\n\t\t\taddress[] memory uTokenAddresses,\n\t\t\taddress lpTokenAddress\n\t\t)\n\t{\n\t\tuint256 i;\n\t\tuint256 j;\n\t\tuint256 holderReward;\n\t\tuint256 rewardPool;\n\t\tbool[] memory areContractsWhitelistedBools;\n\t\taddress[] memory whitelistedAddresses;\n\n\t\t(\n\t\t\twhitelistedAddresses,\n\t\t\tsTokenAddresses,\n\t\t\tuTokenAddresses,\n\t\t\tlpTokenAddress\n\t\t) = getHolderData(holderAddress);\n\n\t\trequire(\n\t\t\tholderAddress != address(0) &&\n\t\t\t\twhitelistedAddresses.length > 0 &&\n\t\t\t\tuTokenAddresses.length > 0 &&\n\t\t\t\tsTokenAddresses.length > 0 &&\n\t\t\t\tlpTokenAddress != address(0),\n\t\t\t\"WP1\"\n\t\t);\n\n\t\tholderRewards = new uint256[](sTokenAddresses.length);\n\t\t// for each sTokenAddress, find all whitelistedAddresses and call calculatePendingHolderRewards,\n\t\t// add the results and store for each index\n\t\tfor (i = 0; i < sTokenAddresses.length; i = i.add(1)) {\n\t\t\trewardPool = 0;\n\t\t\t// list of bools which define if a particular whitelisted address conforms to the sTokenAddress\n\t\t\tareContractsWhitelistedBools = areContractsWhitelisted(\n\t\t\t\tsTokenAddresses[i],\n\t\t\t\twhitelistedAddresses\n\t\t\t);\n\t\t\tfor (j = 0; j < whitelistedAddresses.length; j = j.add(1)) {\n\t\t\t\t// check if the sTokenAddress and whitelisted address pair is legitimate\n\t\t\t\tif (areContractsWhitelistedBools[j]) {\n\t\t\t\t\t(holderReward, , ) = ISTokensV3(sTokenAddresses[i])\n\t\t\t\t\t\t.calculateHolderRewards(whitelistedAddresses[j]);\n\t\t\t\t\trewardPool = rewardPool.add(holderReward);\n\t\t\t\t}\n\t\t\t}\n\t\t\tholderRewards[i] = rewardPool;\n\t\t}\n\n\t\temit CalculateAllHolderRewards(\n\t\t\tholderAddress,\n\t\t\tholderRewards,\n\t\t\tblock.timestamp\n\t\t);\n\t}\n\n\t/**\n\t * @dev Calculate pending rewards for the holder 'address'\n\t * @param holderAddress: holder contract address\n\t */\n\tfunction calculateAllPendingHolderRewards(address holderAddress)\n\t\tpublic\n\t\tview\n\t\toverride\n\t\treturns (\n\t\t\tuint256[] memory holderRewards,\n\t\t\taddress[] memory sTokenAddresses,\n\t\t\taddress[] memory uTokenAddresses,\n\t\t\taddress lpTokenAddress\n\t\t)\n\t{\n\t\tuint256 i;\n\t\tuint256 j;\n\t\tuint256 holderReward;\n\t\tuint256 rewardPool;\n\t\tbool[] memory areContractsWhitelistedBools;\n\t\taddress[] memory whitelistedAddresses;\n\n\t\t(\n\t\t\twhitelistedAddresses,\n\t\t\tsTokenAddresses,\n\t\t\tuTokenAddresses,\n\t\t\tlpTokenAddress\n\t\t) = getHolderData(holderAddress);\n\n\t\tif (\n\t\t\tholderAddress == address(0) ||\n\t\t\tlpTokenAddress == address(0) ||\n\t\t\twhitelistedAddresses.length == 0 ||\n\t\t\tuTokenAddresses.length == 0 ||\n\t\t\tsTokenAddresses.length == 0\n\t\t) {\n\t\t\treturn (\n\t\t\t\tholderRewards,\n\t\t\t\tsTokenAddresses,\n\t\t\t\tuTokenAddresses,\n\t\t\t\tlpTokenAddress\n\t\t\t);\n\t\t}\n\n\t\tholderRewards = new uint256[](sTokenAddresses.length);\n\t\t// for each sTokenAddress, find all whitelistedAddresses and call calculatePendingHolderRewards,\n\t\t// add the results and store for each index\n\t\tfor (i = 0; i < sTokenAddresses.length; i = i.add(1)) {\n\t\t\trewardPool = 0;\n\t\t\t// list of bools which define if a particular whitelisted address conforms to the sTokenAddress\n\t\t\tareContractsWhitelistedBools = areContractsWhitelisted(\n\t\t\t\tsTokenAddresses[i],\n\t\t\t\twhitelistedAddresses\n\t\t\t);\n\t\t\tfor (j = 0; j < whitelistedAddresses.length; j = j.add(1)) {\n\t\t\t\t// check if the sTokenAddress and whitelisted address pair is legitimate\n\t\t\t\tif (areContractsWhitelistedBools[j]) {\n\t\t\t\t\t(holderReward, , ) = ISTokensV3(sTokenAddresses[i])\n\t\t\t\t\t\t.calculatePendingHolderRewards(whitelistedAddresses[j]);\n\t\t\t\t\trewardPool = rewardPool.add(holderReward);\n\t\t\t\t}\n\t\t\t}\n\t\t\tholderRewards[i] = rewardPool;\n\t\t}\n\t}\n\n\t/*\n\t * @dev Set 'whitelisted address', performed by admin only\n\t * @param whitelistedAddress: contract address of the whitelisted party\n\t * @param sTokenAddresses: sToken contract address in array\n\t * @param holderContractAddress: holder contract address\n\t * @param lpContractAddress: LP token contract address\n\t *\n\t * Emits a {setWhitelistedAddress} event\n\t *\n\t */\n\tfunction setWhitelistedAddress(\n\t\taddress whitelistedAddress,\n\t\taddress[] memory sTokenAddresses,\n\t\taddress holderContractAddress,\n\t\taddress lpContractAddress\n\t) public virtual override {\n\t\trequire(hasRole(DEFAULT_ADMIN_ROLE, _msgSender()), \"WP2\");\n\t\t// lpTokenERC20ContractAddress or sTokenReserveContractAddress can be address(0) but not whitelistedAddress\n\t\t// have set holderContract also as non-zero, can allow lpContractAddress to be zero for control\n\t\trequire(\n\t\t\twhitelistedAddress != address(0) &&\n\t\t\t\tholderContractAddress != address(0) &&\n\t\t\t\tsTokenAddresses.length != 0,\n\t\t\t\"WP3\"\n\t\t);\n\n\t\tbool whitelistedAddressExists;\n\t\tuint256 j;\n\t\tuint256 i;\n\n\t\t// ADD TO _holderWhitelists make sure the same whitelisted address is not added before if so revert\n\t\t// to add the same whitelisted address, first remove it, then add again\n\t\t// add to _holderWhitelists\n\t\tfor (\n\t\t\tj = 0;\n\t\t\tj < _holderWhitelists[holderContractAddress].length;\n\t\t\tj = j.add(1)\n\t\t) {\n\t\t\tif (\n\t\t\t\t_holderWhitelists[holderContractAddress][j] ==\n\t\t\t\twhitelistedAddress\n\t\t\t) {\n\t\t\t\twhitelistedAddressExists = true;\n\t\t\t\tbreak;\n\t\t\t}\n\t\t}\n\n\t\t// if whitelisted contract doesnt already exist then include it in the array else revert\n\t\tif (!whitelistedAddressExists) {\n\t\t\t// add the whitelistedAddress to the _holderWhitelists array\n\t\t\t_holderWhitelists[holderContractAddress].push(whitelistedAddress);\n\t\t} else {\n\t\t\trevert(\"WP4\");\n\t\t}\n\n\t\t// ADD TO _holderWhitelists AND _whitelistedSTokenAddresses AND _whitelistedAddressHolder AND _holderLPToken\n\t\t_whitelistedAddressHolder[whitelistedAddress] = holderContractAddress;\n\t\t_holderLPToken[holderContractAddress] = lpContractAddress;\n\n\t\t// add SToken addresses uniquely to _holderSTokens\n\t\tfor (i = 0; i < sTokenAddresses.length; i = i.add(1)) {\n\t\t\t// ADD TO _whitelistedSTokenAddresses\n\t\t\t// check if sTokenAddress already exists\n\t\t\t// check if all the sTokenAddresses provided are non zero\n\t\t\trequire(sTokenAddresses[i] != address(0), \"WP5\");\n\t\t\t_whitelistedSTokenAddresses[holderContractAddress][\n\t\t\t\twhitelistedAddress\n\t\t\t].push(sTokenAddresses[i]);\n\n\t\t\t// SET WHITELISTING IN STOKEN CONTRACTS\n\t\t\t// for each sTokenAddress, set the whiteliste data\n\t\t\tISTokensV3(sTokenAddresses[i]).setWhitelistedAddress(\n\t\t\t\twhitelistedAddress,\n\t\t\t\tholderContractAddress,\n\t\t\t\tlpContractAddress\n\t\t\t);\n\t\t\t// ADD TO _holderWhitelists\n\t\t\tfor (\n\t\t\t\tj = 0;\n\t\t\t\tj < _holderSTokens[holderContractAddress].length;\n\t\t\t\tj = j.add(1)\n\t\t\t) {\n\t\t\t\tif (\n\t\t\t\t\tsTokenAddresses[i] ==\n\t\t\t\t\t_holderSTokens[holderContractAddress][j]\n\t\t\t\t) {\n\t\t\t\t\tbreak;\n\t\t\t\t}\n\t\t\t}\n\t\t\tif (j == _holderSTokens[holderContractAddress].length) {\n\t\t\t\t_holderSTokens[holderContractAddress].push(sTokenAddresses[i]);\n\t\t\t}\n\t\t}\n\n\t\t// emit event\n\t\temit SetWhitelistedAddress(\n\t\t\twhitelistedAddress,\n\t\t\t_whitelistedSTokenAddresses[holderContractAddress][\n\t\t\t\twhitelistedAddress\n\t\t\t],\n\t\t\tholderContractAddress,\n\t\t\tlpContractAddress,\n\t\t\tblock.timestamp\n\t\t);\n\t}\n\n\t/*\n\t * @dev remove 'whitelisted address', performed by admin only\n\t * @param whitelistedAddress: contract address of the whitelisted party\n\t *\n\t * Emits a {RemoveWhitelistedAddress} event\n\t *\n\t */\n\tfunction removeWhitelistedAddress(address whitelistedAddress)\n\t\tpublic\n\t\tvirtual\n\t\toverride\n\t{\n\t\trequire(hasRole(DEFAULT_ADMIN_ROLE, _msgSender()), \"WP6\");\n\t\trequire(whitelistedAddress != address(0), \"WP7\");\n\n\t\t// REMOVE WHITELISTING FROM _holderWhitelists AND _whitelistedSTokenAddresses AND _whitelistedAddressHolder AND _holderLPToken\n\t\t// get the holder address from _whitelistedAddressHolder\n\t\taddress holderAddressLocal = _whitelistedAddressHolder[\n\t\t\twhitelistedAddress\n\t\t];\n\n\t\t// emit event\n\t\temit RemoveWhitelistedAddress(\n\t\t\twhitelistedAddress,\n\t\t\t_whitelistedSTokenAddresses[holderAddressLocal][whitelistedAddress],\n\t\t\t_whitelistedAddressHolder[whitelistedAddress],\n\t\t\tblock.timestamp\n\t\t);\n\n\t\t// REMOVE FROM STOKEN CONTRACTS\n\t\t// for each SToken, call the remove whitelist function of that SToken\n\t\tuint256 j;\n\t\tfor (\n\t\t\tj = 0;\n\t\t\tj <\n\t\t\t_whitelistedSTokenAddresses[holderAddressLocal][whitelistedAddress]\n\t\t\t\t.length;\n\t\t\tj = j.add(1)\n\t\t) {\n\t\t\tISTokensV3(\n\t\t\t\t_whitelistedSTokenAddresses[holderAddressLocal][\n\t\t\t\t\twhitelistedAddress\n\t\t\t\t][j]\n\t\t\t).removeWhitelistedAddress(whitelistedAddress);\n\t\t}\n\n\t\t// REMOVE FROM _whitelistedAddressHolder and _whitelistedSTokenAddresses\n\t\tdelete _whitelistedAddressHolder[whitelistedAddress];\n\t\tdelete _whitelistedSTokenAddresses[holderAddressLocal][\n\t\t\twhitelistedAddress\n\t\t];\n\n\t\t// REMOVE FROM _holderWhitelists\n\t\t// check if the whitelisted address exists is the _holderWhitelists array\n\t\tbool whitelistedAddressExists;\n\t\tfor (\n\t\t\tj = 0;\n\t\t\tj < _holderWhitelists[holderAddressLocal].length;\n\t\t\tj = j.add(1)\n\t\t) {\n\t\t\tif (\n\t\t\t\t_holderWhitelists[holderAddressLocal][j] == whitelistedAddress\n\t\t\t) {\n\t\t\t\twhitelistedAddressExists = true;\n\t\t\t\tbreak;\n\t\t\t}\n\t\t}\n\t\t// if whitelisted contract exists in the_holderWhitelists array then\n\t\t// remove the whitelisted address from the array of _holderWhitelists\n\t\tif (whitelistedAddressExists) {\n\t\t\tif (j == _holderWhitelists[holderAddressLocal].length.sub(1)) {\n\t\t\t\t_holderWhitelists[holderAddressLocal].pop();\n\t\t\t} else {\n\t\t\t\t_holderWhitelists[holderAddressLocal][j] = _holderWhitelists[\n\t\t\t\t\tholderAddressLocal\n\t\t\t\t][_holderWhitelists[holderAddressLocal].length.sub(1)];\n\t\t\t\t_holderWhitelists[holderAddressLocal].pop();\n\t\t\t}\n\t\t\t// if all the whitelisted addresses have been removed, then delete the lpToken associated with the holder address\n\t\t\tif (_holderWhitelists[holderAddressLocal].length == 0) {\n\t\t\t\tdelete _holderLPToken[holderAddressLocal];\n\t\t\t\tdelete _holderSTokens[holderAddressLocal];\n\t\t\t}\n\t\t}\n\t}\n\n\t/**\n\t * @dev Triggers stopped state.\n\t *\n\t * Requirements:\n\t *\n\t * - The contract must not be paused.\n\t */\n\tfunction pause() public virtual override {\n\t\trequire(hasRole(PAUSER_ROLE, _msgSender()), \"WP8\");\n\t\t_pause();\n\t}\n\n\t/**\n\t * @dev Returns to normal state.\n\t *\n\t * Requirements:\n\t *\n\t * - The contract must be paused.\n\t */\n\tfunction unpause() public virtual override {\n\t\trequire(hasRole(PAUSER_ROLE, _msgSender()), \"WP9\");\n\t\t_unpause();\n\t}\n}\n",
  "sourcePath": "/Users/aditimaheshwari/Documents/Work/Persistence/Codebase/persistenceOne/pStake-smartContracts/contracts/WhitelistedPTokenEmissionV3.sol",
  "compiler": {
    "name": "solc",
    "version": "0.7.6+commit.7338295f.Emscripten.clang"
  },
  "schemaVersion": "3.4.3",
  "updatedAt": "2022-09-09T10:57:49.722Z",
  "devdoc": {
    "kind": "dev",
    "methods": {
      "areContractsWhitelisted(address,address[])": {
        "details": "Check if contracts are whitelisted",
        "params": {
          "sTokenAddress": ": sToken contract address",
          "whitelistedAddresses": ": whitelisted contract address in array"
        }
      },
      "calculateAllHolderRewards(address)": {
        "details": "Calculate rewards for the holder 'address'.",
        "params": {
          "holderAddress": ": holder contract address"
        }
      },
      "calculateAllPendingHolderRewards(address)": {
        "details": "Calculate pending rewards for the holder 'address'",
        "params": {
          "holderAddress": ": holder contract address"
        }
      },
      "getHolderData(address)": {
        "details": "Calculate pending rewards for the provided 'address'. The rate is the moving reward rate.",
        "params": {
          "holderAddress": ": contract address"
        }
      },
      "getRoleAdmin(bytes32)": {
        "details": "Returns the admin role that controls `role`. See {grantRole} and {revokeRole}. To change a role's admin, use {_setRoleAdmin}."
      },
      "getRoleMember(bytes32,uint256)": {
        "details": "Returns one of the accounts that have `role`. `index` must be a value between 0 and {getRoleMemberCount}, non-inclusive. Role bearers are not sorted in any particular way, and their ordering may change at any point. WARNING: When using {getRoleMember} and {getRoleMemberCount}, make sure you perform all queries on the same block. See the following https://forum.openzeppelin.com/t/iterating-over-elements-on-enumerableset-in-openzeppelin-contracts/2296[forum post] for more information."
      },
      "getRoleMemberCount(bytes32)": {
        "details": "Returns the number of accounts that have `role`. Can be used together with {getRoleMember} to enumerate all bearers of a role."
      },
      "grantRole(bytes32,address)": {
        "details": "Grants `role` to `account`. If `account` had not been already granted `role`, emits a {RoleGranted} event. Requirements: - the caller must have ``role``'s admin role."
      },
      "hasRole(bytes32,address)": {
        "details": "Returns `true` if `account` has been granted `role`."
      },
      "initialize(address)": {
        "details": "Constructor for initializing the SToken contract.",
        "params": {
          "pauserAddress": "- address of the pauser admin."
        }
      },
      "pause()": {
        "details": "Triggers stopped state. Requirements: - The contract must not be paused."
      },
      "paused()": {
        "details": "Returns true if the contract is paused, and false otherwise."
      },
      "removeWhitelistedAddress(address)": {
        "details": "remove whitelisted address"
      },
      "renounceRole(bytes32,address)": {
        "details": "Revokes `role` from the calling account. Roles are often managed via {grantRole} and {revokeRole}: this function's purpose is to provide a mechanism for accounts to lose their privileges if they are compromised (such as when a trusted device is misplaced). If the calling account had been granted `role`, emits a {RoleRevoked} event. Requirements: - the caller must be `account`."
      },
      "revokeRole(bytes32,address)": {
        "details": "Revokes `role` from `account`. If `account` had been granted `role`, emits a {RoleRevoked} event. Requirements: - the caller must have ``role``'s admin role."
      },
      "setWhitelistedAddress(address,address[],address,address)": {
        "details": "set whitelisted address"
      },
      "unpause()": {
        "details": "Returns to normal state. Requirements: - The contract must be paused."
      }
    },
    "version": 1
  },
  "userdoc": {
    "kind": "user",
    "methods": {},
    "version": 1
  }
}