{
  "contractName": "WhitelistedEmission",
  "abi": [
    {
      "anonymous": false,
      "inputs": [
        {
          "indexed": false,
          "internalType": "address",
          "name": "account",
          "type": "address"
        }
      ],
      "name": "Paused",
      "type": "event"
    },
    {
      "anonymous": false,
      "inputs": [
        {
          "indexed": false,
          "internalType": "address",
          "name": "whitelistedAddress",
          "type": "address"
        },
        {
          "indexed": false,
          "internalType": "address[]",
          "name": "sTokenAddressesLocal",
          "type": "address[]"
        },
        {
          "indexed": false,
          "internalType": "address",
          "name": "holderAddressLocal",
          "type": "address"
        },
        {
          "indexed": false,
          "internalType": "uint256",
          "name": "timestamp",
          "type": "uint256"
        }
      ],
      "name": "RemoveWhitelistedAddress",
      "type": "event"
    },
    {
      "anonymous": false,
      "inputs": [
        {
          "indexed": true,
          "internalType": "bytes32",
          "name": "role",
          "type": "bytes32"
        },
        {
          "indexed": true,
          "internalType": "bytes32",
          "name": "previousAdminRole",
          "type": "bytes32"
        },
        {
          "indexed": true,
          "internalType": "bytes32",
          "name": "newAdminRole",
          "type": "bytes32"
        }
      ],
      "name": "RoleAdminChanged",
      "type": "event"
    },
    {
      "anonymous": false,
      "inputs": [
        {
          "indexed": true,
          "internalType": "bytes32",
          "name": "role",
          "type": "bytes32"
        },
        {
          "indexed": true,
          "internalType": "address",
          "name": "account",
          "type": "address"
        },
        {
          "indexed": true,
          "internalType": "address",
          "name": "sender",
          "type": "address"
        }
      ],
      "name": "RoleGranted",
      "type": "event"
    },
    {
      "anonymous": false,
      "inputs": [
        {
          "indexed": true,
          "internalType": "bytes32",
          "name": "role",
          "type": "bytes32"
        },
        {
          "indexed": true,
          "internalType": "address",
          "name": "account",
          "type": "address"
        },
        {
          "indexed": true,
          "internalType": "address",
          "name": "sender",
          "type": "address"
        }
      ],
      "name": "RoleRevoked",
      "type": "event"
    },
    {
      "anonymous": false,
      "inputs": [
        {
          "indexed": false,
          "internalType": "address",
          "name": "whitelistedAddress",
          "type": "address"
        },
        {
          "indexed": false,
          "internalType": "address[]",
          "name": "sTokenAddressesLocal",
          "type": "address[]"
        },
        {
          "indexed": false,
          "internalType": "address",
          "name": "holderContractAddress",
          "type": "address"
        },
        {
          "indexed": false,
          "internalType": "address",
          "name": "lpContractAddress",
          "type": "address"
        },
        {
          "indexed": false,
          "internalType": "uint256",
          "name": "timestamp",
          "type": "uint256"
        }
      ],
      "name": "SetWhitelistedAddress",
      "type": "event"
    },
    {
      "anonymous": false,
      "inputs": [
        {
          "indexed": false,
          "internalType": "address",
          "name": "account",
          "type": "address"
        }
      ],
      "name": "Unpaused",
      "type": "event"
    },
    {
      "inputs": [],
      "name": "DEFAULT_ADMIN_ROLE",
      "outputs": [
        {
          "internalType": "bytes32",
          "name": "",
          "type": "bytes32"
        }
      ],
      "stateMutability": "view",
      "type": "function"
    },
    {
      "inputs": [],
      "name": "PAUSER_ROLE",
      "outputs": [
        {
          "internalType": "bytes32",
          "name": "",
          "type": "bytes32"
        }
      ],
      "stateMutability": "view",
      "type": "function"
    },
    {
      "inputs": [
        {
          "internalType": "address",
          "name": "",
          "type": "address"
        },
        {
          "internalType": "uint256",
          "name": "",
          "type": "uint256"
        }
      ],
      "name": "_holderWhitelists",
      "outputs": [
        {
          "internalType": "address",
          "name": "",
          "type": "address"
        }
      ],
      "stateMutability": "view",
      "type": "function"
    },
    {
      "inputs": [],
      "name": "_version",
      "outputs": [
        {
          "internalType": "uint256",
          "name": "",
          "type": "uint256"
        }
      ],
      "stateMutability": "view",
      "type": "function"
    },
    {
      "inputs": [
        {
          "internalType": "address",
          "name": "",
          "type": "address"
        }
      ],
      "name": "_whitelistedAddressHolder",
      "outputs": [
        {
          "internalType": "address",
          "name": "",
          "type": "address"
        }
      ],
      "stateMutability": "view",
      "type": "function"
    },
    {
      "inputs": [
        {
          "internalType": "address",
          "name": "",
          "type": "address"
        },
        {
          "internalType": "address",
          "name": "",
          "type": "address"
        },
        {
          "internalType": "uint256",
          "name": "",
          "type": "uint256"
        }
      ],
      "name": "_whitelistedSTokenAddresses",
      "outputs": [
        {
          "internalType": "address",
          "name": "",
          "type": "address"
        }
      ],
      "stateMutability": "view",
      "type": "function"
    },
    {
      "inputs": [
        {
          "internalType": "bytes32",
          "name": "role",
          "type": "bytes32"
        }
      ],
      "name": "getRoleAdmin",
      "outputs": [
        {
          "internalType": "bytes32",
          "name": "",
          "type": "bytes32"
        }
      ],
      "stateMutability": "view",
      "type": "function"
    },
    {
      "inputs": [
        {
          "internalType": "bytes32",
          "name": "role",
          "type": "bytes32"
        },
        {
          "internalType": "uint256",
          "name": "index",
          "type": "uint256"
        }
      ],
      "name": "getRoleMember",
      "outputs": [
        {
          "internalType": "address",
          "name": "",
          "type": "address"
        }
      ],
      "stateMutability": "view",
      "type": "function"
    },
    {
      "inputs": [
        {
          "internalType": "bytes32",
          "name": "role",
          "type": "bytes32"
        }
      ],
      "name": "getRoleMemberCount",
      "outputs": [
        {
          "internalType": "uint256",
          "name": "",
          "type": "uint256"
        }
      ],
      "stateMutability": "view",
      "type": "function"
    },
    {
      "inputs": [
        {
          "internalType": "bytes32",
          "name": "role",
          "type": "bytes32"
        },
        {
          "internalType": "address",
          "name": "account",
          "type": "address"
        }
      ],
      "name": "grantRole",
      "outputs": [],
      "stateMutability": "nonpayable",
      "type": "function"
    },
    {
      "inputs": [
        {
          "internalType": "bytes32",
          "name": "role",
          "type": "bytes32"
        },
        {
          "internalType": "address",
          "name": "account",
          "type": "address"
        }
      ],
      "name": "hasRole",
      "outputs": [
        {
          "internalType": "bool",
          "name": "",
          "type": "bool"
        }
      ],
      "stateMutability": "view",
      "type": "function"
    },
    {
      "inputs": [],
      "name": "paused",
      "outputs": [
        {
          "internalType": "bool",
          "name": "",
          "type": "bool"
        }
      ],
      "stateMutability": "view",
      "type": "function"
    },
    {
      "inputs": [
        {
          "internalType": "bytes32",
          "name": "role",
          "type": "bytes32"
        },
        {
          "internalType": "address",
          "name": "account",
          "type": "address"
        }
      ],
      "name": "renounceRole",
      "outputs": [],
      "stateMutability": "nonpayable",
      "type": "function"
    },
    {
      "inputs": [
        {
          "internalType": "bytes32",
          "name": "role",
          "type": "bytes32"
        },
        {
          "internalType": "address",
          "name": "account",
          "type": "address"
        }
      ],
      "name": "revokeRole",
      "outputs": [],
      "stateMutability": "nonpayable",
      "type": "function"
    },
    {
      "inputs": [
        {
          "internalType": "address",
          "name": "pauserAddress",
          "type": "address"
        }
      ],
      "name": "initialize",
      "outputs": [],
      "stateMutability": "nonpayable",
      "type": "function"
    },
    {
      "inputs": [
        {
          "internalType": "address",
          "name": "whitelistedAddress",
          "type": "address"
        },
        {
          "internalType": "address[]",
          "name": "sTokenAddresses",
          "type": "address[]"
        },
        {
          "internalType": "address",
          "name": "holderContractAddress",
          "type": "address"
        },
        {
          "internalType": "address",
          "name": "lpContractAddress",
          "type": "address"
        }
      ],
      "name": "setWhitelistedAddress",
      "outputs": [
        {
          "internalType": "bool",
          "name": "success",
          "type": "bool"
        }
      ],
      "stateMutability": "nonpayable",
      "type": "function"
    },
    {
      "inputs": [
        {
          "internalType": "address",
          "name": "whitelistedAddress",
          "type": "address"
        }
      ],
      "name": "removeWhitelistedAddress",
      "outputs": [
        {
          "internalType": "bool",
          "name": "success",
          "type": "bool"
        }
      ],
      "stateMutability": "nonpayable",
      "type": "function"
    },
    {
      "inputs": [],
      "name": "pause",
      "outputs": [
        {
          "internalType": "bool",
          "name": "success",
          "type": "bool"
        }
      ],
      "stateMutability": "nonpayable",
      "type": "function"
    },
    {
      "inputs": [],
      "name": "unpause",
      "outputs": [
        {
          "internalType": "bool",
          "name": "success",
          "type": "bool"
        }
      ],
      "stateMutability": "nonpayable",
      "type": "function"
    }
  ],
  "bytecode": "0x608060405234801561001057600080fd5b5061191e806100206000396000f3fe608060405234801561001057600080fd5b50600436106101215760003560e01c806360253751116100ad578063c4d66de811610071578063c4d66de814610304578063ca15c8731461032a578063d547741f14610347578063e63ab1e914610373578063eab573dc1461037b57610121565b806360253751146102795780638456cb59146102a55780639010d07c146102ad57806391d14854146102d0578063a217fddf146102fc57610121565b80633e118dbe116100f45780633e118dbe146102015780633f4ba83a14610209578063530cd5ab146102255780635c975abb1461024b5780635cc1e3f51461025357610121565b8063248a9ca31461012657806326b7fa82146101555780632f2ff15d146101a757806336568abe146101d5575b600080fd5b6101436004803603602081101561013c57600080fd5b5035610444565b60408051918252519081900360200190f35b61018b6004803603606081101561016b57600080fd5b506001600160a01b03813581169160208101359091169060400135610459565b604080516001600160a01b039092168252519081900360200190f35b6101d3600480360360408110156101bd57600080fd5b50803590602001356001600160a01b031661049e565b005b6101d3600480360360408110156101eb57600080fd5b50803590602001356001600160a01b031661050a565b61014361056b565b610211610571565b604080519115158252519081900360200190f35b6102116004803603602081101561023b57600080fd5b50356001600160a01b03166105d5565b6102116109e5565b61018b6004803603602081101561026957600080fd5b50356001600160a01b03166109ee565b61018b6004803603604081101561028f57600080fd5b506001600160a01b038135169060200135610a09565b610211610a41565b61018b600480360360408110156102c357600080fd5b5080359060200135610a9f565b610211600480360360408110156102e657600080fd5b50803590602001356001600160a01b0316610ac0565b610143610ad8565b6101d36004803603602081101561031a57600080fd5b50356001600160a01b0316610add565b6101436004803603602081101561034057600080fd5b5035610bbe565b6101d36004803603604081101561035d57600080fd5b50803590602001356001600160a01b0316610bd5565b610143610c2e565b6102116004803603608081101561039157600080fd5b6001600160a01b0382351691908101906040810160208201356401000000008111156103bc57600080fd5b8201836020820111156103ce57600080fd5b803590602001918460208302840111640100000000831117156103f057600080fd5b919080806020026020016040519081016040528093929190818152602001838360200280828437600092019190915250929550506001600160a01b038335811694506020909301359092169150610c409050565b60009081526065602052604090206002015490565b6099602052826000526040600020602052816000526040600020818154811061048157600080fd5b6000918252602090912001546001600160a01b0316925083915050565b6000828152606560205260409020600201546104c1906104bc611071565b610ac0565b6104fc5760405162461bcd60e51b815260040180806020018281038252602f81526020018061180d602f913960400191505060405180910390fd5b6105068282611075565b5050565b610512611071565b6001600160a01b0316816001600160a01b0316146105615760405162461bcd60e51b815260040180806020018281038252602f8152602001806118ba602f913960400191505060405180910390fd5b61050682826110de565b60975481565b600061058d60008051602061189a8339815191526104bc611071565b6105c7576040805162461bcd60e51b815260206004808301919091526024820152635354313560e01b604482015290519081900360640190fd5b6105cf611147565b50600190565b60006105e3816104bc611071565b61061d576040805162461bcd60e51b8152602060048083019190915260248201526304c5034360e41b604482015290519081900360640190fd5b6001600160a01b038216610661576040805162461bcd60e51b815260206004808301919091526024820152634c50343160e01b604482015290519081900360640190fd5b6001600160a01b038083166000818152609a60209081526040808320549094168083526099825284832093835292815283822080548551818402810184019096528086529394929390918301828280156106e457602002820191906000526020600020905b81546001600160a01b031681526001909101906020018083116106c6575b5050505050905060005b81518110156107985781818151811061070357fe5b60200260200101516001600160a01b031663530cd5ab866040518263ffffffff1660e01b815260040180826001600160a01b03168152602001915050602060405180830381600087803b15801561075957600080fd5b505af115801561076d573d6000803e3d6000fd5b505050506040513d602081101561078357600080fd5b5061079190508160016111e7565b90506106ee565b6001600160a01b038086166000818152609a6020908152604080832080546001600160a01b0319169055938716825260998152838220928252919091529081206107e1916117b8565b506001600160a01b0382166000908152609860205260408120815b815483101561085057866001600160a01b031682848154811061081b57fe5b6000918252602090912001546001600160a01b0316141561083e57506001610850565b6108498360016111e7565b92506107fc565b8015610939578154610863906001611241565b83141561089b578180548061087457fe5b600082815260209020810160001990810180546001600160a01b0319169055019055610939565b815482906108aa906001611241565b815481106108b457fe5b9060005260206000200160009054906101000a90046001600160a01b03168284815481106108de57fe5b9060005260206000200160006101000a8154816001600160a01b0302191690836001600160a01b031602179055508180548061091657fe5b600082815260209020810160001990810180546001600160a01b03191690550190555b7f2953f6ab5bc40a923b43a5a72d28691e4f162c6f550e3b6a8ea9159e9a71b3438785874260405180856001600160a01b0316815260200180602001846001600160a01b03168152602001838152602001828103825285818151815260200191508051906020019060200280838360005b838110156109c25781810151838201526020016109aa565b505050509050019550505050505060405180910390a15060019695505050505050565b60335460ff1690565b609a602052600090815260409020546001600160a01b031681565b60986020528160005260406000208181548110610a2557600080fd5b6000918252602090912001546001600160a01b03169150829050565b6000610a5d60008051602061189a8339815191526104bc611071565b610a97576040805162461bcd60e51b8152602060048083019190915260248201526314d50c4d60e21b604482015290519081900360640190fd5b6105cf61129e565b6000828152606560205260408120610ab79083611321565b90505b92915050565b6000828152606560205260408120610ab7908361132d565b600081565b600054610100900460ff1680610af65750610af6611342565b80610b04575060005460ff16155b610b3f5760405162461bcd60e51b815260040180806020018281038252602e81526020018061186c602e913960400191505060405180910390fd5b600054610100900460ff16158015610b6a576000805460ff1961ff0019909116610100171660011790555b610b72611353565b610b7a611405565b610b8c6000610b87611071565b6104fc565b610ba460008051602061189a833981519152836104fc565b60016097558015610506576000805461ff00191690555050565b6000818152606560205260408120610aba906114a2565b600082815260656020526040902060020154610bf3906104bc611071565b6105615760405162461bcd60e51b815260040180806020018281038252603081526020018061183c6030913960400191505060405180910390fd5b60008051602061189a83398151915281565b6000610c4e816104bc611071565b610c85576040805162461bcd60e51b81526020600482015260036024820152620a48a760eb1b604482015290519081900360640190fd5b6001600160a01b03851615801590610ca557506001600160a01b03831615155b8015610cb15750835115155b610ceb576040805162461bcd60e51b81526020600480830191909152602482015263098a066760e31b604482015290519081900360640190fd5b60005b8451811015610dba57848181518110610d0357fe5b60200260200101516001600160a01b0316634bcb30f88786866040518463ffffffff1660e01b815260040180846001600160a01b03168152602001836001600160a01b03168152602001826001600160a01b031681526020019350505050602060405180830381600087803b158015610d7b57600080fd5b505af1158015610d8f573d6000803e3d6000fd5b505050506040513d6020811015610da557600080fd5b50610db390508160016111e7565b9050610cee565b506001600160a01b038581166000908152609a6020526040812080546001600160a01b03191692861692909217909155805b6001600160a01b038516600090815260986020526040902054821015610e6a576001600160a01b03858116600090815260986020526040902080549189169184908110610e3557fe5b6000918252602090912001546001600160a01b03161415610e5857506001610e6a565b610e638260016111e7565b9150610dec565b80610eae576001600160a01b0385811660009081526098602090815260408220805460018101825590835291200180546001600160a01b0319169189169190911790555b6001600160a01b038086166000908152609960209081526040808320938b168352929052208054610fa95760005b8751811015610fa75760006001600160a01b0316888281518110610efc57fe5b60200260200101516001600160a01b03161415610f49576040805162461bcd60e51b815260206004808301919091526024820152634c50333960e01b604482015290519081900360640190fd5b81888281518110610f5657fe5b60209081029190910181015182546001808201855560009485529290932090920180546001600160a01b0319166001600160a01b0390931692909217909155610fa09082906111e7565b9050610edc565b505b7f898021085aa6760dfff39976b4928c90f897cf85216261ef8a3746d755ef53dc888288884260405180866001600160a01b0316815260200180602001856001600160a01b03168152602001846001600160a01b03168152602001838152602001828103825286818154815260200191508054801561105157602002820191906000526020600020905b81546001600160a01b03168152600190910190602001808311611033575b5050965050505050505060405180910390a1506001979650505050505050565b3390565b600082815260656020526040902061108d90826114ad565b156105065761109a611071565b6001600160a01b0316816001600160a01b0316837f2f8788117e7eff1d82e926ec794901d17c78024a50270940304540a733656f0d60405160405180910390a45050565b60008281526065602052604090206110f690826114c2565b1561050657611103611071565b6001600160a01b0316816001600160a01b0316837ff6391f5c32d9c69d2a47ea670b442974b53935d1edc7fd64eb21e047a839171b60405160405180910390a45050565b61114f6109e5565b611197576040805162461bcd60e51b815260206004820152601460248201527314185d5cd8589b194e881b9bdd081c185d5cd95960621b604482015290519081900360640190fd5b6033805460ff191690557f5db9ee0a495bf2e6ff9c91a7834c1ba4fdd244a5e8aa4e537bd38aeae4b073aa6111ca611071565b604080516001600160a01b039092168252519081900360200190a1565b600082820183811015610ab7576040805162461bcd60e51b815260206004820152601b60248201527f536166654d6174683a206164646974696f6e206f766572666c6f770000000000604482015290519081900360640190fd5b600082821115611298576040805162461bcd60e51b815260206004820152601e60248201527f536166654d6174683a207375627472616374696f6e206f766572666c6f770000604482015290519081900360640190fd5b50900390565b6112a66109e5565b156112eb576040805162461bcd60e51b815260206004820152601060248201526f14185d5cd8589b194e881c185d5cd95960821b604482015290519081900360640190fd5b6033805460ff191660011790557f62e78cea01bee320cd4e420270b5ea74000d11b0c9f74754ebdbfc544b05a2586111ca611071565b6000610ab783836114d7565b6000610ab7836001600160a01b03841661153b565b600061134d30611553565b15905090565b600054610100900460ff168061136c575061136c611342565b8061137a575060005460ff16155b6113b55760405162461bcd60e51b815260040180806020018281038252602e81526020018061186c602e913960400191505060405180910390fd5b600054610100900460ff161580156113e0576000805460ff1961ff0019909116610100171660011790555b6113e8611559565b6113f0611559565b8015611402576000805461ff00191690555b50565b600054610100900460ff168061141e575061141e611342565b8061142c575060005460ff16155b6114675760405162461bcd60e51b815260040180806020018281038252602e81526020018061186c602e913960400191505060405180910390fd5b600054610100900460ff16158015611492576000805460ff1961ff0019909116610100171660011790555b61149a611559565b6113f06115f9565b6000610aba826116a4565b6000610ab7836001600160a01b0384166116a8565b6000610ab7836001600160a01b0384166116f2565b815460009082106115195760405162461bcd60e51b81526004018080602001828103825260228152602001806117eb6022913960400191505060405180910390fd5b82600001828154811061152857fe5b9060005260206000200154905092915050565b60009081526001919091016020526040902054151590565b3b151590565b600054610100900460ff16806115725750611572611342565b80611580575060005460ff16155b6115bb5760405162461bcd60e51b815260040180806020018281038252602e81526020018061186c602e913960400191505060405180910390fd5b600054610100900460ff161580156113f0576000805460ff1961ff0019909116610100171660011790558015611402576000805461ff001916905550565b600054610100900460ff16806116125750611612611342565b80611620575060005460ff16155b61165b5760405162461bcd60e51b815260040180806020018281038252602e81526020018061186c602e913960400191505060405180910390fd5b600054610100900460ff16158015611686576000805460ff1961ff0019909116610100171660011790555b6033805460ff191690558015611402576000805461ff001916905550565b5490565b60006116b4838361153b565b6116ea57508154600181810184556000848152602080822090930184905584548482528286019093526040902091909155610aba565b506000610aba565b600081815260018301602052604081205480156117ae578354600019808301919081019060009087908390811061172557fe5b906000526020600020015490508087600001848154811061174257fe5b60009182526020808320909101929092558281526001898101909252604090209084019055865487908061177257fe5b60019003818190600052602060002001600090559055866001016000878152602001908152602001600020600090556001945050505050610aba565b6000915050610aba565b508054600082559060005260206000209081019061140291905b808211156117e657600081556001016117d2565b509056fe456e756d657261626c655365743a20696e646578206f7574206f6620626f756e6473416363657373436f6e74726f6c3a2073656e646572206d75737420626520616e2061646d696e20746f206772616e74416363657373436f6e74726f6c3a2073656e646572206d75737420626520616e2061646d696e20746f207265766f6b65496e697469616c697a61626c653a20636f6e747261637420697320616c726561647920696e697469616c697a656465d7a28e3265b37a6474929f336521b332c1681b933f6cb9f3376673440d862a416363657373436f6e74726f6c3a2063616e206f6e6c792072656e6f756e636520726f6c657320666f722073656c66a26469706673582212204827a52f4e87f9d0a7a78a9ee6f3c8eb892fbb3e57b3ae2312f884aa562f8fca64736f6c63430007060033",
  "immutableReferences": {},
  "source": "// SPDX-License-Identifier: UNLICENSED\npragma solidity >=0.7.0;\n\nimport \"@openzeppelin/contracts-upgradeable/math/SafeMathUpgradeable.sol\";\nimport \"@openzeppelin/contracts-upgradeable/utils/PausableUpgradeable.sol\";\nimport \"@openzeppelin/contracts-upgradeable/utils/EnumerableSetUpgradeable.sol\";\nimport \"@openzeppelin/contracts-upgradeable/access/AccessControlUpgradeable.sol\";\nimport \"./interfaces/ISTokensV4.sol\";\nimport \"./interfaces/IWhitelistedEmission.sol\";\n\ncontract WhitelistedEmission is\n\tIWhitelistedEmission,\n\tPausableUpgradeable,\n\tAccessControlUpgradeable\n{\n\tusing SafeMathUpgradeable for uint256;\n\tusing EnumerableSetUpgradeable for EnumerableSetUpgradeable.AddressSet;\n\n\t// constants defining access control ROLES\n\tbytes32 public constant PAUSER_ROLE = keccak256(\"PAUSER_ROLE\");\n\t// variable pertaining to contract upgrades versioning\n\tuint256 public _version;\n\n\t// list of whitelisted addresses for a particular holder contract\n\tmapping(address => address[]) public _holderWhitelists;\n\t// list of SToken addresses for a particular holder contract, for a particular whitelisted address\n\tmapping(address => mapping(address => address[]))\n\t\tpublic _whitelistedSTokenAddresses;\n\t// holder addresses for a particular whitelisted contract\n\tmapping(address => address) public _whitelistedAddressHolder;\n\n\t/**\n\t * @dev Constructor for initializing the SToken contract.\n\t * @param pauserAddress - address of the pauser admin.\n\t */\n\tfunction initialize(address pauserAddress) public virtual initializer {\n\t\t__AccessControl_init();\n\t\t__Pausable_init();\n\t\t_setupRole(DEFAULT_ADMIN_ROLE, _msgSender());\n\t\t_setupRole(PAUSER_ROLE, pauserAddress);\n\t\t_version = 1;\n\t}\n\n\t/*\n\t * @dev Set 'whitelisted address', performed by admin only\n\t * @param whitelistedAddress: contract address of the whitelisted party\n\t *\n\t * Emits a {setWhitelistedAddress} event\n\t *\n\t */\n\tfunction setWhitelistedAddress(\n\t\taddress whitelistedAddress,\n\t\taddress[] memory sTokenAddresses,\n\t\taddress holderContractAddress,\n\t\taddress lpContractAddress\n\t) public virtual override returns (bool success) {\n\t\trequire(hasRole(DEFAULT_ADMIN_ROLE, _msgSender()), \"RE8\");\n\t\t// lpTokenERC20ContractAddress or sTokenReserveContractAddress can be address(0) but not whitelistedAddress\n\t\t// have set holderContract also as non-zero, can allow lpContractAddress to be zero for control\n\t\trequire(\n\t\t\twhitelistedAddress != address(0) &&\n\t\t\t\tholderContractAddress != address(0) &&\n\t\t\t\tsTokenAddresses.length != 0,\n\t\t\t\"LP38\"\n\t\t);\n\n\t\t// SET WHITELISTING IN STOKEN CONTRACTS\n\t\tuint256 j;\n\t\t// for each sTokenAddress, set the whiteliste data\n\t\tfor (j = 0; j < sTokenAddresses.length; j = j.add(1)) {\n\t\t\tISTokensV4(sTokenAddresses[j]).setWhitelistedAddress(\n\t\t\t\twhitelistedAddress,\n\t\t\t\tholderContractAddress,\n\t\t\t\tlpContractAddress\n\t\t\t);\n\t\t}\n\n\t\t// --------------------------------------------------\n\t\t// ADD TO _holderWhitelists AND _whitelistedSTokenAddresses AND _whitelistedAddressHolder\n\t\t_whitelistedAddressHolder[whitelistedAddress] = holderContractAddress;\n\n\t\tbool whitelistedAddressExists;\n\t\tfor (\n\t\t\tj = 0;\n\t\t\tj < _holderWhitelists[holderContractAddress].length;\n\t\t\tj = j.add(1)\n\t\t) {\n\t\t\tif (\n\t\t\t\t_holderWhitelists[holderContractAddress][j] ==\n\t\t\t\twhitelistedAddress\n\t\t\t) {\n\t\t\t\twhitelistedAddressExists = true;\n\t\t\t\tbreak;\n\t\t\t}\n\t\t}\n\n\t\t// if whitelisted contract doesnt already exist then include it in the array\n\t\tif (!whitelistedAddressExists) {\n\t\t\t// add the whitelistedAddress to the _holderWhitelists array\n\t\t\t_holderWhitelists[holderContractAddress].push(whitelistedAddress);\n\t\t}\n\n\t\t// --------------------------------------------------\n\n\t\t// ADD TO STOKENADDRESSES\n\t\t// check if sTokenAddress already exists\n\t\taddress[] storage sTokenAddressesLocal = _whitelistedSTokenAddresses[\n\t\t\tholderContractAddress\n\t\t][whitelistedAddress];\n\t\tif (sTokenAddressesLocal.length == 0) {\n\t\t\t// check if all the sTokenAddresses provided are non zero\n\t\t\tfor (uint256 i = 0; i < sTokenAddresses.length; i = i.add(1)) {\n\t\t\t\trequire(sTokenAddresses[i] != address(0), \"LP39\");\n\t\t\t\tsTokenAddressesLocal.push(sTokenAddresses[i]);\n\t\t\t}\n\t\t}\n\n\t\temit SetWhitelistedAddress(\n\t\t\twhitelistedAddress,\n\t\t\tsTokenAddressesLocal,\n\t\t\tholderContractAddress,\n\t\t\tlpContractAddress,\n\t\t\tblock.timestamp\n\t\t);\n\t\tsuccess = true;\n\t\treturn success;\n\t}\n\n\t/*\n\t * @dev remove 'whitelisted address', performed by admin only\n\t * @param whitelistedAddress: contract address of the whitelisted party\n\t * @param holderContractAddress: holder contract address of the corresponding whitelistedAddress\n\t *\n\t * Emits a {RemoveWhitelistedAddress} event\n\t *\n\t */\n\tfunction removeWhitelistedAddress(address whitelistedAddress)\n\t\tpublic\n\t\tvirtual\n\t\toverride\n\t\treturns (bool success)\n\t{\n\t\trequire(hasRole(DEFAULT_ADMIN_ROLE, _msgSender()), \"LP40\");\n\t\trequire(whitelistedAddress != address(0), \"LP41\");\n\n\t\t// REMOVE WHITELISTING IN STOKEN CONTRACTS\n\t\t// get the array of sTokenAddresses\n\t\taddress holderAddressLocal = _whitelistedAddressHolder[\n\t\t\twhitelistedAddress\n\t\t];\n\t\t// get the array of sTokenAddresses\n\t\taddress[] memory sTokenAddressesLocal = _whitelistedSTokenAddresses[\n\t\t\tholderAddressLocal\n\t\t][whitelistedAddress];\n\t\tuint256 j;\n\t\tfor (j = 0; j < sTokenAddressesLocal.length; j = j.add(1)) {\n\t\t\tISTokensV4(sTokenAddressesLocal[j]).removeWhitelistedAddress(\n\t\t\t\twhitelistedAddress\n\t\t\t);\n\t\t}\n\n\t\t// REMOVE WHITELISTING FROM _holderWhitelists AND _whitelistedSTokenAddresses AND _whitelistedAddressHolder\n\t\tdelete _whitelistedAddressHolder[whitelistedAddress];\n\t\tdelete _whitelistedSTokenAddresses[holderAddressLocal][\n\t\t\twhitelistedAddress\n\t\t];\n\n\t\taddress[] storage whitelistedAddressesLocal = _holderWhitelists[\n\t\t\tholderAddressLocal\n\t\t];\n\t\tbool whitelistedAddressExists;\n\t\tfor (j = 0; j < whitelistedAddressesLocal.length; j = j.add(1)) {\n\t\t\tif (whitelistedAddressesLocal[j] == whitelistedAddress) {\n\t\t\t\twhitelistedAddressExists = true;\n\t\t\t\tbreak;\n\t\t\t}\n\t\t}\n\n\t\t// if whitelisted contract doesnt already exist then include it in the array\n\t\tif (whitelistedAddressExists) {\n\t\t\t// add the whitelistedAddress to the _holderWhitelists array\n\t\t\tif (j == whitelistedAddressesLocal.length.sub(1)) {\n\t\t\t\twhitelistedAddressesLocal.pop();\n\t\t\t} else {\n\t\t\t\twhitelistedAddressesLocal[j] = whitelistedAddressesLocal[\n\t\t\t\t\twhitelistedAddressesLocal.length.sub(1)\n\t\t\t\t];\n\t\t\t\twhitelistedAddressesLocal.pop();\n\t\t\t}\n\t\t}\n\n\t\t// emit event and return\n\t\temit RemoveWhitelistedAddress(\n\t\t\twhitelistedAddress,\n\t\t\tsTokenAddressesLocal,\n\t\t\tholderAddressLocal,\n\t\t\tblock.timestamp\n\t\t);\n\t\tsuccess = true;\n\t\treturn success;\n\t}\n\n\t/**\n\t * @dev Triggers stopped state.\n\t *\n\t * Requirements:\n\t *\n\t * - The contract must not be paused.\n\t */\n\tfunction pause() public virtual override returns (bool success) {\n\t\trequire(hasRole(PAUSER_ROLE, _msgSender()), \"ST14\");\n\t\t_pause();\n\t\treturn true;\n\t}\n\n\t/**\n\t * @dev Returns to normal state.\n\t *\n\t * Requirements:\n\t *\n\t * - The contract must be paused.\n\t */\n\tfunction unpause() public virtual override returns (bool success) {\n\t\trequire(hasRole(PAUSER_ROLE, _msgSender()), \"ST15\");\n\t\t_unpause();\n\t\treturn true;\n\t}\n}\n",
  "sourcePath": "C:\\Users\\Kamlesh\\Persistence\\pStake\\codebase\\pStake-smartContracts\\contracts\\WhitelistedEmission.sol",
  "compiler": {
    "name": "solc",
    "version": "0.7.6+commit.7338295f.Emscripten.clang"
  },
  "schemaVersion": "3.4.3",
  "updatedAt": "2021-09-20T14:12:48.929Z",
  "devdoc": {
    "kind": "dev",
    "methods": {
      "getRoleAdmin(bytes32)": {
        "details": "Returns the admin role that controls `role`. See {grantRole} and {revokeRole}. To change a role's admin, use {_setRoleAdmin}."
      },
      "getRoleMember(bytes32,uint256)": {
        "details": "Returns one of the accounts that have `role`. `index` must be a value between 0 and {getRoleMemberCount}, non-inclusive. Role bearers are not sorted in any particular way, and their ordering may change at any point. WARNING: When using {getRoleMember} and {getRoleMemberCount}, make sure you perform all queries on the same block. See the following https://forum.openzeppelin.com/t/iterating-over-elements-on-enumerableset-in-openzeppelin-contracts/2296[forum post] for more information."
      },
      "getRoleMemberCount(bytes32)": {
        "details": "Returns the number of accounts that have `role`. Can be used together with {getRoleMember} to enumerate all bearers of a role."
      },
      "grantRole(bytes32,address)": {
        "details": "Grants `role` to `account`. If `account` had not been already granted `role`, emits a {RoleGranted} event. Requirements: - the caller must have ``role``'s admin role."
      },
      "hasRole(bytes32,address)": {
        "details": "Returns `true` if `account` has been granted `role`."
      },
      "initialize(address)": {
        "details": "Constructor for initializing the SToken contract.",
        "params": {
          "pauserAddress": "- address of the pauser admin."
        }
      },
      "pause()": {
        "details": "Triggers stopped state. Requirements: - The contract must not be paused."
      },
      "paused()": {
        "details": "Returns true if the contract is paused, and false otherwise."
      },
      "renounceRole(bytes32,address)": {
        "details": "Revokes `role` from the calling account. Roles are often managed via {grantRole} and {revokeRole}: this function's purpose is to provide a mechanism for accounts to lose their privileges if they are compromised (such as when a trusted device is misplaced). If the calling account had been granted `role`, emits a {RoleRevoked} event. Requirements: - the caller must be `account`."
      },
      "revokeRole(bytes32,address)": {
        "details": "Revokes `role` from `account`. If `account` had been granted `role`, emits a {RoleRevoked} event. Requirements: - the caller must have ``role``'s admin role."
      },
      "unpause()": {
        "details": "Returns to normal state. Requirements: - The contract must be paused."
      }
    },
    "version": 1
  },
  "userdoc": {
    "kind": "user",
    "methods": {},
    "version": 1
  }
}